{
	"compilerInput": "{\"language\":\"Solidity\",\"sources\":{\"MultiWillContract.sol\":{\"content\":\"// SPDX-License-Identifier: MIT\\npragma solidity ^0.8.19;\\n\\ncontract MultiWillContract {\\n    struct Beneficiary {\\n        address payable wallet;\\n        uint256 percentage; // ETH allocation percentage\\n        string saleDeedIpfsHash; // IPFS hash of the assigned sale deed\\n        string email; // Beneficiary's email\\n    }\\n\\n    struct Will {\\n        address testator;\\n        string firstName;\\n        string lastName;\\n        uint256 totalLocked;\\n        uint256 lastAliveTime;\\n        uint256 proofOfLifeInterval;\\n        bool isDeceased;\\n        Beneficiary[] beneficiaries;\\n    }\\n\\n    mapping(address => Will) private wills;\\n    mapping(address => bool) public hasWill;\\n\\n    event WillCreated(address indexed testator, uint256 lockedFunds);\\n    event BeneficiaryAdded(address indexed testator, address beneficiary, uint256 percentage);\\n    event WillExecuted(address indexed testator);\\n    event FundsDisbursed(address indexed beneficiary, uint256 amount, string saleDeedIpfsHash, string email);\\n\\n    /**\\n     * @dev Creates a new will for the sender.\\n     * @param _firstName First name of the testator.\\n     * @param _lastName Last name of the testator.\\n     */\\n    function createWill(\\n        string memory _firstName,\\n        string memory _lastName\\n    ) public payable {\\n        require(!hasWill[msg.sender], \\\"You already have a will!\\\");\\n        require(msg.value > 0, \\\"Must lock ETH!\\\");\\n\\n        wills[msg.sender].testator = msg.sender;\\n        wills[msg.sender].firstName = _firstName;\\n        wills[msg.sender].lastName = _lastName;\\n        wills[msg.sender].totalLocked = msg.value;\\n        wills[msg.sender].lastAliveTime = block.timestamp;\\n        wills[msg.sender].proofOfLifeInterval = 365 days; // Default to 1 year proof-of-life check\\n        wills[msg.sender].isDeceased = false;\\n        hasWill[msg.sender] = true;\\n\\n        emit WillCreated(msg.sender, msg.value);\\n    }\\n\\n    /**\\n     * @dev Adds a beneficiary to the caller's will.\\n     * @param _wallet Address of the beneficiary.\\n     * @param _percentage Share of ETH to be allocated.\\n     * @param _saleDeedIpfsHash IPFS hash of the sale deed document assigned to the beneficiary.\\n     * @param _email Email of the beneficiary.\\n     */\\n    function addBeneficiary(\\n        address payable _wallet,\\n        uint256 _percentage,\\n        string memory _saleDeedIpfsHash,\\n        string memory _email\\n    ) public {\\n        require(hasWill[msg.sender], \\\"You need to create a will first\\\");\\n        require(_wallet != address(0), \\\"Invalid wallet address\\\");\\n        require(_percentage > 0 && _percentage <= 100, \\\"Invalid percentage\\\");\\n\\n        uint256 totalPercentage = 0;\\n        for (uint i = 0; i < wills[msg.sender].beneficiaries.length; i++) {\\n            totalPercentage += wills[msg.sender].beneficiaries[i].percentage;\\n        }\\n        require(totalPercentage + _percentage <= 100, \\\"Total allocation exceeds 100%\\\");\\n\\n        wills[msg.sender].beneficiaries.push(\\n            Beneficiary(_wallet, _percentage, _saleDeedIpfsHash, _email)\\n        );\\n\\n        emit BeneficiaryAdded(msg.sender, _wallet, _percentage);\\n    }\\n\\n    /**\\n     * @dev Updates the proof-of-life timestamp.\\n     */\\n    function confirmAlive() public {\\n        require(hasWill[msg.sender], \\\"You have not created a will\\\");\\n        require(!wills[msg.sender].isDeceased, \\\"Will already executed!\\\");\\n\\n        wills[msg.sender].lastAliveTime = block.timestamp;\\n    }\\n\\n    /**\\n     * @dev Executes the will by distributing ETH and triggering email notifications.\\n     */\\n    function executeWill(address user) public {\\n        require(hasWill[user], \\\"No will found!\\\");\\n        require(block.timestamp > wills[user].lastAliveTime + wills[user].proofOfLifeInterval, \\\"Owner is still alive!\\\");\\n        require(!wills[user].isDeceased, \\\"Will already executed!\\\");\\n\\n        wills[user].isDeceased = true;\\n\\n        uint256 totalLocked = wills[user].totalLocked;\\n        require(totalLocked > 0, \\\"No ETH to distribute\\\");\\n\\n        for (uint i = 0; i < wills[user].beneficiaries.length; i++) {\\n            Beneficiary storage beneficiary = wills[user].beneficiaries[i];\\n\\n            uint256 amount = (totalLocked * beneficiary.percentage) / 100;\\n            beneficiary.wallet.transfer(amount);\\n\\n            emit FundsDisbursed(beneficiary.wallet, amount, beneficiary.saleDeedIpfsHash, beneficiary.email);\\n        }\\n\\n        wills[user].totalLocked = 0;\\n        emit WillExecuted(user);\\n    }\\n\\n    /**\\n     * @dev Gets details of the caller's will.\\n     */\\n    function getWillDetails() public view returns (\\n        string memory firstName,\\n        string memory lastName,\\n        uint256 totalLocked,\\n        bool isDeceased\\n    ) {\\n        require(hasWill[msg.sender], \\\"No will found!\\\");\\n\\n        Will storage willData = wills[msg.sender];\\n        return (willData.firstName, willData.lastName, willData.totalLocked, willData.isDeceased);\\n    }\\n\\n    /**\\n     * @dev Gets beneficiaries of the caller's will.\\n     */\\n    function getBeneficiaries() public view returns (Beneficiary[] memory) {\\n        require(hasWill[msg.sender], \\\"No will found!\\\");\\n        return wills[msg.sender].beneficiaries;\\n    }\\n}\\n\"}},\"settings\":{\"optimizer\":{\"enabled\":false,\"runs\":200},\"outputSelection\":{\"*\":{\"\":[\"ast\"],\"*\":[\"abi\",\"metadata\",\"devdoc\",\"userdoc\",\"storageLayout\",\"evm.legacyAssembly\",\"evm.bytecode\",\"evm.deployedBytecode\",\"evm.methodIdentifiers\",\"evm.gasEstimates\",\"evm.assembly\"]}},\"remappings\":[]}}",
	"name": "MultiWillContract",
	"bytecode": {
		"linkReferences": {},
		"object": "6080604052348015600e575f80fd5b506124108061001c5f395ff3fe60806040526004361061006f575f3560e01c8063913b722c1161004d578063913b722c146100ed578063b0daeb1c14610117578063cc4f9d5b14610133578063e854d135146101605761006f565b80634ebde6d314610073578063549cc7b81461009b5780636f9b65f0146100d7575b5f80fd5b34801561007e575f80fd5b5061009960048036038101906100949190611605565b610188565b005b3480156100a6575f80fd5b506100c160048036038101906100bc91906116dc565b610555565b6040516100ce9190611721565b60405180910390f35b3480156100e2575f80fd5b506100eb610572565b005b3480156100f8575f80fd5b506101016106cd565b60405161010e91906118da565b60405180910390f35b610131600480360381019061012c91906118fa565b61096d565b005b34801561013e575f80fd5b50610147610d1b565b60405161015794939291906119c7565b60405180910390f35b34801561016b575f80fd5b50610186600480360381019061018191906116dc565b610f29565b005b60015f3373ffffffffffffffffffffffffffffffffffffffff1673ffffffffffffffffffffffffffffffffffffffff1681526020019081526020015f205f9054906101000a900460ff16610211576040517f08c379a000000000000000000000000000000000000000000000000000000000815260040161020890611a62565b60405180910390fd5b5f73ffffffffffffffffffffffffffffffffffffffff168473ffffffffffffffffffffffffffffffffffffffff160361027f576040517f08c379a000000000000000000000000000000000000000000000000000000000815260040161027690611aca565b60405180910390fd5b5f8311801561028f575060648311155b6102ce576040517f08c379a00000000000000000000000000000000000000000000000000000000081526004016102c590611b32565b60405180910390fd5b5f805b5f803373ffffffffffffffffffffffffffffffffffffffff1673ffffffffffffffffffffffffffffffffffffffff1681526020019081526020015f2060070180549050811015610396575f803373ffffffffffffffffffffffffffffffffffffffff1673ffffffffffffffffffffffffffffffffffffffff1681526020019081526020015f20600701818154811061036c5761036b611b50565b5b905f5260205f20906004020160010154826103879190611baa565b915080806001019150506102d1565b50606484826103a59190611baa565b11156103e6576040517f08c379a00000000000000000000000000000000000000000000000000000000081526004016103dd90611c27565b60405180910390fd5b5f803373ffffffffffffffffffffffffffffffffffffffff1673ffffffffffffffffffffffffffffffffffffffff1681526020019081526020015f2060070160405180608001604052808773ffffffffffffffffffffffffffffffffffffffff16815260200186815260200185815260200184815250908060018154018082558091505060019003905f5260205f2090600402015f909190919091505f820151815f015f6101000a81548173ffffffffffffffffffffffffffffffffffffffff021916908373ffffffffffffffffffffffffffffffffffffffff1602179055506020820151816001015560408201518160020190816104e59190611e3f565b5060608201518160030190816104fb9190611e3f565b5050503373ffffffffffffffffffffffffffffffffffffffff167f5d081d791b64899adab031015397ef8d7600501212ef97573b9e50f8c9bb6d9b8686604051610546929190611f60565b60405180910390a25050505050565b6001602052805f5260405f205f915054906101000a900460ff1681565b60015f3373ffffffffffffffffffffffffffffffffffffffff1673ffffffffffffffffffffffffffffffffffffffff1681526020019081526020015f205f9054906101000a900460ff166105fb576040517f08c379a00000000000000000000000000000000000000000000000000000000081526004016105f290611fd1565b60405180910390fd5b5f803373ffffffffffffffffffffffffffffffffffffffff1673ffffffffffffffffffffffffffffffffffffffff1681526020019081526020015f206006015f9054906101000a900460ff1615610687576040517f08c379a000000000000000000000000000000000000000000000000000000000815260040161067e90612039565b60405180910390fd5b425f803373ffffffffffffffffffffffffffffffffffffffff1673ffffffffffffffffffffffffffffffffffffffff1681526020019081526020015f2060040181905550565b606060015f3373ffffffffffffffffffffffffffffffffffffffff1673ffffffffffffffffffffffffffffffffffffffff1681526020019081526020015f205f9054906101000a900460ff16610758576040517f08c379a000000000000000000000000000000000000000000000000000000000815260040161074f906120a1565b60405180910390fd5b5f803373ffffffffffffffffffffffffffffffffffffffff1673ffffffffffffffffffffffffffffffffffffffff1681526020019081526020015f20600701805480602002602001604051908101604052809291908181526020015f905b82821015610964578382905f5260205f2090600402016040518060800160405290815f82015f9054906101000a900473ffffffffffffffffffffffffffffffffffffffff1673ffffffffffffffffffffffffffffffffffffffff1673ffffffffffffffffffffffffffffffffffffffff1681526020016001820154815260200160028201805461084590611c72565b80601f016020809104026020016040519081016040528092919081815260200182805461087190611c72565b80156108bc5780601f10610893576101008083540402835291602001916108bc565b820191905f5260205f20905b81548152906001019060200180831161089f57829003601f168201915b505050505081526020016003820180546108d590611c72565b80601f016020809104026020016040519081016040528092919081815260200182805461090190611c72565b801561094c5780601f106109235761010080835404028352916020019161094c565b820191905f5260205f20905b81548152906001019060200180831161092f57829003601f168201915b505050505081525050815260200190600101906107b6565b50505050905090565b60015f3373ffffffffffffffffffffffffffffffffffffffff1673ffffffffffffffffffffffffffffffffffffffff1681526020019081526020015f205f9054906101000a900460ff16156109f7576040517f08c379a00000000000000000000000000000000000000000000000000000000081526004016109ee90612109565b60405180910390fd5b5f3411610a39576040517f08c379a0000000000000000000000000000000000000000000000000000000008152600401610a3090612171565b60405180910390fd5b335f803373ffffffffffffffffffffffffffffffffffffffff1673ffffffffffffffffffffffffffffffffffffffff1681526020019081526020015f205f015f6101000a81548173ffffffffffffffffffffffffffffffffffffffff021916908373ffffffffffffffffffffffffffffffffffffffff160217905550815f803373ffffffffffffffffffffffffffffffffffffffff1673ffffffffffffffffffffffffffffffffffffffff1681526020019081526020015f206001019081610b019190611e3f565b50805f803373ffffffffffffffffffffffffffffffffffffffff1673ffffffffffffffffffffffffffffffffffffffff1681526020019081526020015f206002019081610b4e9190611e3f565b50345f803373ffffffffffffffffffffffffffffffffffffffff1673ffffffffffffffffffffffffffffffffffffffff1681526020019081526020015f2060030181905550425f803373ffffffffffffffffffffffffffffffffffffffff1673ffffffffffffffffffffffffffffffffffffffff1681526020019081526020015f20600401819055506301e133805f803373ffffffffffffffffffffffffffffffffffffffff1673ffffffffffffffffffffffffffffffffffffffff1681526020019081526020015f20600501819055505f805f3373ffffffffffffffffffffffffffffffffffffffff1673ffffffffffffffffffffffffffffffffffffffff1681526020019081526020015f206006015f6101000a81548160ff0219169083151502179055506001805f3373ffffffffffffffffffffffffffffffffffffffff1673ffffffffffffffffffffffffffffffffffffffff1681526020019081526020015f205f6101000a81548160ff0219169083151502179055503373ffffffffffffffffffffffffffffffffffffffff167fd40dc4a639c90600691397f655099adba04d6b763ef2122630edd47c09f1b6f934604051610d0f919061218f565b60405180910390a25050565b6060805f8060015f3373ffffffffffffffffffffffffffffffffffffffff1673ffffffffffffffffffffffffffffffffffffffff1681526020019081526020015f205f9054906101000a900460ff16610da9576040517f08c379a0000000000000000000000000000000000000000000000000000000008152600401610da0906120a1565b60405180910390fd5b5f805f3373ffffffffffffffffffffffffffffffffffffffff1673ffffffffffffffffffffffffffffffffffffffff1681526020019081526020015f20905080600101816002018260030154836006015f9054906101000a900460ff16838054610e1290611c72565b80601f0160208091040260200160405190810160405280929190818152602001828054610e3e90611c72565b8015610e895780601f10610e6057610100808354040283529160200191610e89565b820191905f5260205f20905b815481529060010190602001808311610e6c57829003601f168201915b50505050509350828054610e9c90611c72565b80601f0160208091040260200160405190810160405280929190818152602001828054610ec890611c72565b8015610f135780601f10610eea57610100808354040283529160200191610f13565b820191905f5260205f20905b815481529060010190602001808311610ef657829003601f168201915b5050505050925094509450945094505090919293565b60015f8273ffffffffffffffffffffffffffffffffffffffff1673ffffffffffffffffffffffffffffffffffffffff1681526020019081526020015f205f9054906101000a900460ff16610fb2576040517f08c379a0000000000000000000000000000000000000000000000000000000008152600401610fa9906120a1565b60405180910390fd5b5f808273ffffffffffffffffffffffffffffffffffffffff1673ffffffffffffffffffffffffffffffffffffffff1681526020019081526020015f20600501545f808373ffffffffffffffffffffffffffffffffffffffff1673ffffffffffffffffffffffffffffffffffffffff1681526020019081526020015f206004015461103c9190611baa565b421161107d576040517f08c379a0000000000000000000000000000000000000000000000000000000008152600401611074906121f2565b60405180910390fd5b5f808273ffffffffffffffffffffffffffffffffffffffff1673ffffffffffffffffffffffffffffffffffffffff1681526020019081526020015f206006015f9054906101000a900460ff1615611109576040517f08c379a000000000000000000000000000000000000000000000000000000000815260040161110090612039565b60405180910390fd5b60015f808373ffffffffffffffffffffffffffffffffffffffff1673ffffffffffffffffffffffffffffffffffffffff1681526020019081526020015f206006015f6101000a81548160ff0219169083151502179055505f805f8373ffffffffffffffffffffffffffffffffffffffff1673ffffffffffffffffffffffffffffffffffffffff1681526020019081526020015f206003015490505f81116111e5576040517f08c379a00000000000000000000000000000000000000000000000000000000081526004016111dc9061225a565b60405180910390fd5b5f5b5f808473ffffffffffffffffffffffffffffffffffffffff1673ffffffffffffffffffffffffffffffffffffffff1681526020019081526020015f206007018054905081101561139f575f805f8573ffffffffffffffffffffffffffffffffffffffff1673ffffffffffffffffffffffffffffffffffffffff1681526020019081526020015f20600701828154811061128357611282611b50565b5b905f5260205f20906004020190505f60648260010154856112a49190612278565b6112ae91906122e6565b9050815f015f9054906101000a900473ffffffffffffffffffffffffffffffffffffffff1673ffffffffffffffffffffffffffffffffffffffff166108fc8290811502906040515f60405180830381858888f19350505050158015611315573d5f803e3d5ffd5b50815f015f9054906101000a900473ffffffffffffffffffffffffffffffffffffffff1673ffffffffffffffffffffffffffffffffffffffff167fceb720b06c310edc215bee81670832bb918ba1199f401716364414ddb9b816a782846002018560030160405161138893929190612397565b60405180910390a2505080806001019150506111e7565b505f805f8473ffffffffffffffffffffffffffffffffffffffff1673ffffffffffffffffffffffffffffffffffffffff1681526020019081526020015f20600301819055508173ffffffffffffffffffffffffffffffffffffffff167f16346f65adf8d84422b57ad74cb5607bf6c9e55c3c1fea66344057e5bba8a7ee60405160405180910390a25050565b5f604051905090565b5f80fd5b5f80fd5b5f73ffffffffffffffffffffffffffffffffffffffff82169050919050565b5f6114658261143c565b9050919050565b6114758161145b565b811461147f575f80fd5b50565b5f813590506114908161146c565b92915050565b5f819050919050565b6114a881611496565b81146114b2575f80fd5b50565b5f813590506114c38161149f565b92915050565b5f80fd5b5f80fd5b5f601f19601f8301169050919050565b7f4e487b71000000000000000000000000000000000000000000000000000000005f52604160045260245ffd5b611517826114d1565b810181811067ffffffffffffffff82111715611536576115356114e1565b5b80604052505050565b5f61154861142b565b9050611554828261150e565b919050565b5f67ffffffffffffffff821115611573576115726114e1565b5b61157c826114d1565b9050602081019050919050565b828183375f83830152505050565b5f6115a96115a484611559565b61153f565b9050828152602081018484840111156115c5576115c46114cd565b5b6115d0848285611589565b509392505050565b5f82601f8301126115ec576115eb6114c9565b5b81356115fc848260208601611597565b91505092915050565b5f805f806080858703121561161d5761161c611434565b5b5f61162a87828801611482565b945050602061163b878288016114b5565b935050604085013567ffffffffffffffff81111561165c5761165b611438565b5b611668878288016115d8565b925050606085013567ffffffffffffffff81111561168957611688611438565b5b611695878288016115d8565b91505092959194509250565b5f6116ab8261143c565b9050919050565b6116bb816116a1565b81146116c5575f80fd5b50565b5f813590506116d6816116b2565b92915050565b5f602082840312156116f1576116f0611434565b5b5f6116fe848285016116c8565b91505092915050565b5f8115159050919050565b61171b81611707565b82525050565b5f6020820190506117345f830184611712565b92915050565b5f81519050919050565b5f82825260208201905092915050565b5f819050602082019050919050565b61176c8161145b565b82525050565b61177b81611496565b82525050565b5f81519050919050565b5f82825260208201905092915050565b8281835e5f83830152505050565b5f6117b382611781565b6117bd818561178b565b93506117cd81856020860161179b565b6117d6816114d1565b840191505092915050565b5f608083015f8301516117f65f860182611763565b5060208301516118096020860182611772565b506040830151848203604086015261182182826117a9565b9150506060830151848203606086015261183b82826117a9565b9150508091505092915050565b5f61185383836117e1565b905092915050565b5f602082019050919050565b5f6118718261173a565b61187b8185611744565b93508360208202850161188d85611754565b805f5b858110156118c857848403895281516118a98582611848565b94506118b48361185b565b925060208a01995050600181019050611890565b50829750879550505050505092915050565b5f6020820190508181035f8301526118f28184611867565b905092915050565b5f80604083850312156119105761190f611434565b5b5f83013567ffffffffffffffff81111561192d5761192c611438565b5b611939858286016115d8565b925050602083013567ffffffffffffffff81111561195a57611959611438565b5b611966858286016115d8565b9150509250929050565b5f82825260208201905092915050565b5f61198a82611781565b6119948185611970565b93506119a481856020860161179b565b6119ad816114d1565b840191505092915050565b6119c181611496565b82525050565b5f6080820190508181035f8301526119df8187611980565b905081810360208301526119f38186611980565b9050611a0260408301856119b8565b611a0f6060830184611712565b95945050505050565b7f596f75206e65656420746f2063726561746520612077696c6c206669727374005f82015250565b5f611a4c601f83611970565b9150611a5782611a18565b602082019050919050565b5f6020820190508181035f830152611a7981611a40565b9050919050565b7f496e76616c69642077616c6c65742061646472657373000000000000000000005f82015250565b5f611ab4601683611970565b9150611abf82611a80565b602082019050919050565b5f6020820190508181035f830152611ae181611aa8565b9050919050565b7f496e76616c69642070657263656e7461676500000000000000000000000000005f82015250565b5f611b1c601283611970565b9150611b2782611ae8565b602082019050919050565b5f6020820190508181035f830152611b4981611b10565b9050919050565b7f4e487b71000000000000000000000000000000000000000000000000000000005f52603260045260245ffd5b7f4e487b71000000000000000000000000000000000000000000000000000000005f52601160045260245ffd5b5f611bb482611496565b9150611bbf83611496565b9250828201905080821115611bd757611bd6611b7d565b5b92915050565b7f546f74616c20616c6c6f636174696f6e206578636565647320313030250000005f82015250565b5f611c11601d83611970565b9150611c1c82611bdd565b602082019050919050565b5f6020820190508181035f830152611c3e81611c05565b9050919050565b7f4e487b71000000000000000000000000000000000000000000000000000000005f52602260045260245ffd5b5f6002820490506001821680611c8957607f821691505b602082108103611c9c57611c9b611c45565b5b50919050565b5f819050815f5260205f209050919050565b5f6020601f8301049050919050565b5f82821b905092915050565b5f60088302611cfe7fffffffffffffffffffffffffffffffffffffffffffffffffffffffffffffffff82611cc3565b611d088683611cc3565b95508019841693508086168417925050509392505050565b5f819050919050565b5f611d43611d3e611d3984611496565b611d20565b611496565b9050919050565b5f819050919050565b611d5c83611d29565b611d70611d6882611d4a565b848454611ccf565b825550505050565b5f90565b611d84611d78565b611d8f818484611d53565b505050565b5b81811015611db257611da75f82611d7c565b600181019050611d95565b5050565b601f821115611df757611dc881611ca2565b611dd184611cb4565b81016020851015611de0578190505b611df4611dec85611cb4565b830182611d94565b50505b505050565b5f82821c905092915050565b5f611e175f1984600802611dfc565b1980831691505092915050565b5f611e2f8383611e08565b9150826002028217905092915050565b611e4882611781565b67ffffffffffffffff811115611e6157611e606114e1565b5b611e6b8254611c72565b611e76828285611db6565b5f60209050601f831160018114611ea7575f8415611e95578287015190505b611e9f8582611e24565b865550611f06565b601f198416611eb586611ca2565b5f5b82811015611edc57848901518255600182019150602085019450602081019050611eb7565b86831015611ef95784890151611ef5601f891682611e08565b8355505b6001600288020188555050505b505050505050565b5f611f28611f23611f1e8461143c565b611d20565b61143c565b9050919050565b5f611f3982611f0e565b9050919050565b5f611f4a82611f2f565b9050919050565b611f5a81611f40565b82525050565b5f604082019050611f735f830185611f51565b611f8060208301846119b8565b9392505050565b7f596f752068617665206e6f74206372656174656420612077696c6c00000000005f82015250565b5f611fbb601b83611970565b9150611fc682611f87565b602082019050919050565b5f6020820190508181035f830152611fe881611faf565b9050919050565b7f57696c6c20616c726561647920657865637574656421000000000000000000005f82015250565b5f612023601683611970565b915061202e82611fef565b602082019050919050565b5f6020820190508181035f83015261205081612017565b9050919050565b7f4e6f2077696c6c20666f756e64210000000000000000000000000000000000005f82015250565b5f61208b600e83611970565b915061209682612057565b602082019050919050565b5f6020820190508181035f8301526120b88161207f565b9050919050565b7f596f7520616c7265616479206861766520612077696c6c2100000000000000005f82015250565b5f6120f3601883611970565b91506120fe826120bf565b602082019050919050565b5f6020820190508181035f830152612120816120e7565b9050919050565b7f4d757374206c6f636b20455448210000000000000000000000000000000000005f82015250565b5f61215b600e83611970565b915061216682612127565b602082019050919050565b5f6020820190508181035f8301526121888161214f565b9050919050565b5f6020820190506121a25f8301846119b8565b92915050565b7f4f776e6572206973207374696c6c20616c6976652100000000000000000000005f82015250565b5f6121dc601583611970565b91506121e7826121a8565b602082019050919050565b5f6020820190508181035f830152612209816121d0565b9050919050565b7f4e6f2045544820746f20646973747269627574650000000000000000000000005f82015250565b5f612244601483611970565b915061224f82612210565b602082019050919050565b5f6020820190508181035f83015261227181612238565b9050919050565b5f61228282611496565b915061228d83611496565b925082820261229b81611496565b915082820484148315176122b2576122b1611b7d565b5b5092915050565b7f4e487b71000000000000000000000000000000000000000000000000000000005f52601260045260245ffd5b5f6122f082611496565b91506122fb83611496565b92508261230b5761230a6122b9565b5b828204905092915050565b5f815461232281611c72565b61232c8186611970565b9450600182165f8114612346576001811461235c5761238e565b60ff19831686528115156020028601935061238e565b61236585611ca2565b5f5b8381101561238657815481890152600182019150602081019050612367565b808801955050505b50505092915050565b5f6060820190506123aa5f8301866119b8565b81810360208301526123bc8185612316565b905081810360408301526123d08184612316565b905094935050505056fea2646970667358221220b7abec9437034186867fd2bfeb013d175aa0358bacdfdfc00f6a4ad1d1f55b5664736f6c634300081a0033",
		"opcodes": "PUSH1 0x80 PUSH1 0x40 MSTORE CALLVALUE DUP1 ISZERO PUSH1 0xE JUMPI PUSH0 DUP1 REVERT JUMPDEST POP PUSH2 0x2410 DUP1 PUSH2 0x1C PUSH0 CODECOPY PUSH0 RETURN INVALID PUSH1 0x80 PUSH1 0x40 MSTORE PUSH1 0x4 CALLDATASIZE LT PUSH2 0x6F JUMPI PUSH0 CALLDATALOAD PUSH1 0xE0 SHR DUP1 PUSH4 0x913B722C GT PUSH2 0x4D JUMPI DUP1 PUSH4 0x913B722C EQ PUSH2 0xED JUMPI DUP1 PUSH4 0xB0DAEB1C EQ PUSH2 0x117 JUMPI DUP1 PUSH4 0xCC4F9D5B EQ PUSH2 0x133 JUMPI DUP1 PUSH4 0xE854D135 EQ PUSH2 0x160 JUMPI PUSH2 0x6F JUMP JUMPDEST DUP1 PUSH4 0x4EBDE6D3 EQ PUSH2 0x73 JUMPI DUP1 PUSH4 0x549CC7B8 EQ PUSH2 0x9B JUMPI DUP1 PUSH4 0x6F9B65F0 EQ PUSH2 0xD7 JUMPI JUMPDEST PUSH0 DUP1 REVERT JUMPDEST CALLVALUE DUP1 ISZERO PUSH2 0x7E JUMPI PUSH0 DUP1 REVERT JUMPDEST POP PUSH2 0x99 PUSH1 0x4 DUP1 CALLDATASIZE SUB DUP2 ADD SWAP1 PUSH2 0x94 SWAP2 SWAP1 PUSH2 0x1605 JUMP JUMPDEST PUSH2 0x188 JUMP JUMPDEST STOP JUMPDEST CALLVALUE DUP1 ISZERO PUSH2 0xA6 JUMPI PUSH0 DUP1 REVERT JUMPDEST POP PUSH2 0xC1 PUSH1 0x4 DUP1 CALLDATASIZE SUB DUP2 ADD SWAP1 PUSH2 0xBC SWAP2 SWAP1 PUSH2 0x16DC JUMP JUMPDEST PUSH2 0x555 JUMP JUMPDEST PUSH1 0x40 MLOAD PUSH2 0xCE SWAP2 SWAP1 PUSH2 0x1721 JUMP JUMPDEST PUSH1 0x40 MLOAD DUP1 SWAP2 SUB SWAP1 RETURN JUMPDEST CALLVALUE DUP1 ISZERO PUSH2 0xE2 JUMPI PUSH0 DUP1 REVERT JUMPDEST POP PUSH2 0xEB PUSH2 0x572 JUMP JUMPDEST STOP JUMPDEST CALLVALUE DUP1 ISZERO PUSH2 0xF8 JUMPI PUSH0 DUP1 REVERT JUMPDEST POP PUSH2 0x101 PUSH2 0x6CD JUMP JUMPDEST PUSH1 0x40 MLOAD PUSH2 0x10E SWAP2 SWAP1 PUSH2 0x18DA JUMP JUMPDEST PUSH1 0x40 MLOAD DUP1 SWAP2 SUB SWAP1 RETURN JUMPDEST PUSH2 0x131 PUSH1 0x4 DUP1 CALLDATASIZE SUB DUP2 ADD SWAP1 PUSH2 0x12C SWAP2 SWAP1 PUSH2 0x18FA JUMP JUMPDEST PUSH2 0x96D JUMP JUMPDEST STOP JUMPDEST CALLVALUE DUP1 ISZERO PUSH2 0x13E JUMPI PUSH0 DUP1 REVERT JUMPDEST POP PUSH2 0x147 PUSH2 0xD1B JUMP JUMPDEST PUSH1 0x40 MLOAD PUSH2 0x157 SWAP5 SWAP4 SWAP3 SWAP2 SWAP1 PUSH2 0x19C7 JUMP JUMPDEST PUSH1 0x40 MLOAD DUP1 SWAP2 SUB SWAP1 RETURN JUMPDEST CALLVALUE DUP1 ISZERO PUSH2 0x16B JUMPI PUSH0 DUP1 REVERT JUMPDEST POP PUSH2 0x186 PUSH1 0x4 DUP1 CALLDATASIZE SUB DUP2 ADD SWAP1 PUSH2 0x181 SWAP2 SWAP1 PUSH2 0x16DC JUMP JUMPDEST PUSH2 0xF29 JUMP JUMPDEST STOP JUMPDEST PUSH1 0x1 PUSH0 CALLER PUSH20 0xFFFFFFFFFFFFFFFFFFFFFFFFFFFFFFFFFFFFFFFF AND PUSH20 0xFFFFFFFFFFFFFFFFFFFFFFFFFFFFFFFFFFFFFFFF AND DUP2 MSTORE PUSH1 0x20 ADD SWAP1 DUP2 MSTORE PUSH1 0x20 ADD PUSH0 KECCAK256 PUSH0 SWAP1 SLOAD SWAP1 PUSH2 0x100 EXP SWAP1 DIV PUSH1 0xFF AND PUSH2 0x211 JUMPI PUSH1 0x40 MLOAD PUSH32 0x8C379A000000000000000000000000000000000000000000000000000000000 DUP2 MSTORE PUSH1 0x4 ADD PUSH2 0x208 SWAP1 PUSH2 0x1A62 JUMP JUMPDEST PUSH1 0x40 MLOAD DUP1 SWAP2 SUB SWAP1 REVERT JUMPDEST PUSH0 PUSH20 0xFFFFFFFFFFFFFFFFFFFFFFFFFFFFFFFFFFFFFFFF AND DUP5 PUSH20 0xFFFFFFFFFFFFFFFFFFFFFFFFFFFFFFFFFFFFFFFF AND SUB PUSH2 0x27F JUMPI PUSH1 0x40 MLOAD PUSH32 0x8C379A000000000000000000000000000000000000000000000000000000000 DUP2 MSTORE PUSH1 0x4 ADD PUSH2 0x276 SWAP1 PUSH2 0x1ACA JUMP JUMPDEST PUSH1 0x40 MLOAD DUP1 SWAP2 SUB SWAP1 REVERT JUMPDEST PUSH0 DUP4 GT DUP1 ISZERO PUSH2 0x28F JUMPI POP PUSH1 0x64 DUP4 GT ISZERO JUMPDEST PUSH2 0x2CE JUMPI PUSH1 0x40 MLOAD PUSH32 0x8C379A000000000000000000000000000000000000000000000000000000000 DUP2 MSTORE PUSH1 0x4 ADD PUSH2 0x2C5 SWAP1 PUSH2 0x1B32 JUMP JUMPDEST PUSH1 0x40 MLOAD DUP1 SWAP2 SUB SWAP1 REVERT JUMPDEST PUSH0 DUP1 JUMPDEST PUSH0 DUP1 CALLER PUSH20 0xFFFFFFFFFFFFFFFFFFFFFFFFFFFFFFFFFFFFFFFF AND PUSH20 0xFFFFFFFFFFFFFFFFFFFFFFFFFFFFFFFFFFFFFFFF AND DUP2 MSTORE PUSH1 0x20 ADD SWAP1 DUP2 MSTORE PUSH1 0x20 ADD PUSH0 KECCAK256 PUSH1 0x7 ADD DUP1 SLOAD SWAP1 POP DUP2 LT ISZERO PUSH2 0x396 JUMPI PUSH0 DUP1 CALLER PUSH20 0xFFFFFFFFFFFFFFFFFFFFFFFFFFFFFFFFFFFFFFFF AND PUSH20 0xFFFFFFFFFFFFFFFFFFFFFFFFFFFFFFFFFFFFFFFF AND DUP2 MSTORE PUSH1 0x20 ADD SWAP1 DUP2 MSTORE PUSH1 0x20 ADD PUSH0 KECCAK256 PUSH1 0x7 ADD DUP2 DUP2 SLOAD DUP2 LT PUSH2 0x36C JUMPI PUSH2 0x36B PUSH2 0x1B50 JUMP JUMPDEST JUMPDEST SWAP1 PUSH0 MSTORE PUSH1 0x20 PUSH0 KECCAK256 SWAP1 PUSH1 0x4 MUL ADD PUSH1 0x1 ADD SLOAD DUP3 PUSH2 0x387 SWAP2 SWAP1 PUSH2 0x1BAA JUMP JUMPDEST SWAP2 POP DUP1 DUP1 PUSH1 0x1 ADD SWAP2 POP POP PUSH2 0x2D1 JUMP JUMPDEST POP PUSH1 0x64 DUP5 DUP3 PUSH2 0x3A5 SWAP2 SWAP1 PUSH2 0x1BAA JUMP JUMPDEST GT ISZERO PUSH2 0x3E6 JUMPI PUSH1 0x40 MLOAD PUSH32 0x8C379A000000000000000000000000000000000000000000000000000000000 DUP2 MSTORE PUSH1 0x4 ADD PUSH2 0x3DD SWAP1 PUSH2 0x1C27 JUMP JUMPDEST PUSH1 0x40 MLOAD DUP1 SWAP2 SUB SWAP1 REVERT JUMPDEST PUSH0 DUP1 CALLER PUSH20 0xFFFFFFFFFFFFFFFFFFFFFFFFFFFFFFFFFFFFFFFF AND PUSH20 0xFFFFFFFFFFFFFFFFFFFFFFFFFFFFFFFFFFFFFFFF AND DUP2 MSTORE PUSH1 0x20 ADD SWAP1 DUP2 MSTORE PUSH1 0x20 ADD PUSH0 KECCAK256 PUSH1 0x7 ADD PUSH1 0x40 MLOAD DUP1 PUSH1 0x80 ADD PUSH1 0x40 MSTORE DUP1 DUP8 PUSH20 0xFFFFFFFFFFFFFFFFFFFFFFFFFFFFFFFFFFFFFFFF AND DUP2 MSTORE PUSH1 0x20 ADD DUP7 DUP2 MSTORE PUSH1 0x20 ADD DUP6 DUP2 MSTORE PUSH1 0x20 ADD DUP5 DUP2 MSTORE POP SWAP1 DUP1 PUSH1 0x1 DUP2 SLOAD ADD DUP1 DUP3 SSTORE DUP1 SWAP2 POP POP PUSH1 0x1 SWAP1 SUB SWAP1 PUSH0 MSTORE PUSH1 0x20 PUSH0 KECCAK256 SWAP1 PUSH1 0x4 MUL ADD PUSH0 SWAP1 SWAP2 SWAP1 SWAP2 SWAP1 SWAP2 POP PUSH0 DUP3 ADD MLOAD DUP2 PUSH0 ADD PUSH0 PUSH2 0x100 EXP DUP2 SLOAD DUP2 PUSH20 0xFFFFFFFFFFFFFFFFFFFFFFFFFFFFFFFFFFFFFFFF MUL NOT AND SWAP1 DUP4 PUSH20 0xFFFFFFFFFFFFFFFFFFFFFFFFFFFFFFFFFFFFFFFF AND MUL OR SWAP1 SSTORE POP PUSH1 0x20 DUP3 ADD MLOAD DUP2 PUSH1 0x1 ADD SSTORE PUSH1 0x40 DUP3 ADD MLOAD DUP2 PUSH1 0x2 ADD SWAP1 DUP2 PUSH2 0x4E5 SWAP2 SWAP1 PUSH2 0x1E3F JUMP JUMPDEST POP PUSH1 0x60 DUP3 ADD MLOAD DUP2 PUSH1 0x3 ADD SWAP1 DUP2 PUSH2 0x4FB SWAP2 SWAP1 PUSH2 0x1E3F JUMP JUMPDEST POP POP POP CALLER PUSH20 0xFFFFFFFFFFFFFFFFFFFFFFFFFFFFFFFFFFFFFFFF AND PUSH32 0x5D081D791B64899ADAB031015397EF8D7600501212EF97573B9E50F8C9BB6D9B DUP7 DUP7 PUSH1 0x40 MLOAD PUSH2 0x546 SWAP3 SWAP2 SWAP1 PUSH2 0x1F60 JUMP JUMPDEST PUSH1 0x40 MLOAD DUP1 SWAP2 SUB SWAP1 LOG2 POP POP POP POP POP JUMP JUMPDEST PUSH1 0x1 PUSH1 0x20 MSTORE DUP1 PUSH0 MSTORE PUSH1 0x40 PUSH0 KECCAK256 PUSH0 SWAP2 POP SLOAD SWAP1 PUSH2 0x100 EXP SWAP1 DIV PUSH1 0xFF AND DUP2 JUMP JUMPDEST PUSH1 0x1 PUSH0 CALLER PUSH20 0xFFFFFFFFFFFFFFFFFFFFFFFFFFFFFFFFFFFFFFFF AND PUSH20 0xFFFFFFFFFFFFFFFFFFFFFFFFFFFFFFFFFFFFFFFF AND DUP2 MSTORE PUSH1 0x20 ADD SWAP1 DUP2 MSTORE PUSH1 0x20 ADD PUSH0 KECCAK256 PUSH0 SWAP1 SLOAD SWAP1 PUSH2 0x100 EXP SWAP1 DIV PUSH1 0xFF AND PUSH2 0x5FB JUMPI PUSH1 0x40 MLOAD PUSH32 0x8C379A000000000000000000000000000000000000000000000000000000000 DUP2 MSTORE PUSH1 0x4 ADD PUSH2 0x5F2 SWAP1 PUSH2 0x1FD1 JUMP JUMPDEST PUSH1 0x40 MLOAD DUP1 SWAP2 SUB SWAP1 REVERT JUMPDEST PUSH0 DUP1 CALLER PUSH20 0xFFFFFFFFFFFFFFFFFFFFFFFFFFFFFFFFFFFFFFFF AND PUSH20 0xFFFFFFFFFFFFFFFFFFFFFFFFFFFFFFFFFFFFFFFF AND DUP2 MSTORE PUSH1 0x20 ADD SWAP1 DUP2 MSTORE PUSH1 0x20 ADD PUSH0 KECCAK256 PUSH1 0x6 ADD PUSH0 SWAP1 SLOAD SWAP1 PUSH2 0x100 EXP SWAP1 DIV PUSH1 0xFF AND ISZERO PUSH2 0x687 JUMPI PUSH1 0x40 MLOAD PUSH32 0x8C379A000000000000000000000000000000000000000000000000000000000 DUP2 MSTORE PUSH1 0x4 ADD PUSH2 0x67E SWAP1 PUSH2 0x2039 JUMP JUMPDEST PUSH1 0x40 MLOAD DUP1 SWAP2 SUB SWAP1 REVERT JUMPDEST TIMESTAMP PUSH0 DUP1 CALLER PUSH20 0xFFFFFFFFFFFFFFFFFFFFFFFFFFFFFFFFFFFFFFFF AND PUSH20 0xFFFFFFFFFFFFFFFFFFFFFFFFFFFFFFFFFFFFFFFF AND DUP2 MSTORE PUSH1 0x20 ADD SWAP1 DUP2 MSTORE PUSH1 0x20 ADD PUSH0 KECCAK256 PUSH1 0x4 ADD DUP2 SWAP1 SSTORE POP JUMP JUMPDEST PUSH1 0x60 PUSH1 0x1 PUSH0 CALLER PUSH20 0xFFFFFFFFFFFFFFFFFFFFFFFFFFFFFFFFFFFFFFFF AND PUSH20 0xFFFFFFFFFFFFFFFFFFFFFFFFFFFFFFFFFFFFFFFF AND DUP2 MSTORE PUSH1 0x20 ADD SWAP1 DUP2 MSTORE PUSH1 0x20 ADD PUSH0 KECCAK256 PUSH0 SWAP1 SLOAD SWAP1 PUSH2 0x100 EXP SWAP1 DIV PUSH1 0xFF AND PUSH2 0x758 JUMPI PUSH1 0x40 MLOAD PUSH32 0x8C379A000000000000000000000000000000000000000000000000000000000 DUP2 MSTORE PUSH1 0x4 ADD PUSH2 0x74F SWAP1 PUSH2 0x20A1 JUMP JUMPDEST PUSH1 0x40 MLOAD DUP1 SWAP2 SUB SWAP1 REVERT JUMPDEST PUSH0 DUP1 CALLER PUSH20 0xFFFFFFFFFFFFFFFFFFFFFFFFFFFFFFFFFFFFFFFF AND PUSH20 0xFFFFFFFFFFFFFFFFFFFFFFFFFFFFFFFFFFFFFFFF AND DUP2 MSTORE PUSH1 0x20 ADD SWAP1 DUP2 MSTORE PUSH1 0x20 ADD PUSH0 KECCAK256 PUSH1 0x7 ADD DUP1 SLOAD DUP1 PUSH1 0x20 MUL PUSH1 0x20 ADD PUSH1 0x40 MLOAD SWAP1 DUP2 ADD PUSH1 0x40 MSTORE DUP1 SWAP3 SWAP2 SWAP1 DUP2 DUP2 MSTORE PUSH1 0x20 ADD PUSH0 SWAP1 JUMPDEST DUP3 DUP3 LT ISZERO PUSH2 0x964 JUMPI DUP4 DUP3 SWAP1 PUSH0 MSTORE PUSH1 0x20 PUSH0 KECCAK256 SWAP1 PUSH1 0x4 MUL ADD PUSH1 0x40 MLOAD DUP1 PUSH1 0x80 ADD PUSH1 0x40 MSTORE SWAP1 DUP2 PUSH0 DUP3 ADD PUSH0 SWAP1 SLOAD SWAP1 PUSH2 0x100 EXP SWAP1 DIV PUSH20 0xFFFFFFFFFFFFFFFFFFFFFFFFFFFFFFFFFFFFFFFF AND PUSH20 0xFFFFFFFFFFFFFFFFFFFFFFFFFFFFFFFFFFFFFFFF AND PUSH20 0xFFFFFFFFFFFFFFFFFFFFFFFFFFFFFFFFFFFFFFFF AND DUP2 MSTORE PUSH1 0x20 ADD PUSH1 0x1 DUP3 ADD SLOAD DUP2 MSTORE PUSH1 0x20 ADD PUSH1 0x2 DUP3 ADD DUP1 SLOAD PUSH2 0x845 SWAP1 PUSH2 0x1C72 JUMP JUMPDEST DUP1 PUSH1 0x1F ADD PUSH1 0x20 DUP1 SWAP2 DIV MUL PUSH1 0x20 ADD PUSH1 0x40 MLOAD SWAP1 DUP2 ADD PUSH1 0x40 MSTORE DUP1 SWAP3 SWAP2 SWAP1 DUP2 DUP2 MSTORE PUSH1 0x20 ADD DUP3 DUP1 SLOAD PUSH2 0x871 SWAP1 PUSH2 0x1C72 JUMP JUMPDEST DUP1 ISZERO PUSH2 0x8BC JUMPI DUP1 PUSH1 0x1F LT PUSH2 0x893 JUMPI PUSH2 0x100 DUP1 DUP4 SLOAD DIV MUL DUP4 MSTORE SWAP2 PUSH1 0x20 ADD SWAP2 PUSH2 0x8BC JUMP JUMPDEST DUP3 ADD SWAP2 SWAP1 PUSH0 MSTORE PUSH1 0x20 PUSH0 KECCAK256 SWAP1 JUMPDEST DUP2 SLOAD DUP2 MSTORE SWAP1 PUSH1 0x1 ADD SWAP1 PUSH1 0x20 ADD DUP1 DUP4 GT PUSH2 0x89F JUMPI DUP3 SWAP1 SUB PUSH1 0x1F AND DUP3 ADD SWAP2 JUMPDEST POP POP POP POP POP DUP2 MSTORE PUSH1 0x20 ADD PUSH1 0x3 DUP3 ADD DUP1 SLOAD PUSH2 0x8D5 SWAP1 PUSH2 0x1C72 JUMP JUMPDEST DUP1 PUSH1 0x1F ADD PUSH1 0x20 DUP1 SWAP2 DIV MUL PUSH1 0x20 ADD PUSH1 0x40 MLOAD SWAP1 DUP2 ADD PUSH1 0x40 MSTORE DUP1 SWAP3 SWAP2 SWAP1 DUP2 DUP2 MSTORE PUSH1 0x20 ADD DUP3 DUP1 SLOAD PUSH2 0x901 SWAP1 PUSH2 0x1C72 JUMP JUMPDEST DUP1 ISZERO PUSH2 0x94C JUMPI DUP1 PUSH1 0x1F LT PUSH2 0x923 JUMPI PUSH2 0x100 DUP1 DUP4 SLOAD DIV MUL DUP4 MSTORE SWAP2 PUSH1 0x20 ADD SWAP2 PUSH2 0x94C JUMP JUMPDEST DUP3 ADD SWAP2 SWAP1 PUSH0 MSTORE PUSH1 0x20 PUSH0 KECCAK256 SWAP1 JUMPDEST DUP2 SLOAD DUP2 MSTORE SWAP1 PUSH1 0x1 ADD SWAP1 PUSH1 0x20 ADD DUP1 DUP4 GT PUSH2 0x92F JUMPI DUP3 SWAP1 SUB PUSH1 0x1F AND DUP3 ADD SWAP2 JUMPDEST POP POP POP POP POP DUP2 MSTORE POP POP DUP2 MSTORE PUSH1 0x20 ADD SWAP1 PUSH1 0x1 ADD SWAP1 PUSH2 0x7B6 JUMP JUMPDEST POP POP POP POP SWAP1 POP SWAP1 JUMP JUMPDEST PUSH1 0x1 PUSH0 CALLER PUSH20 0xFFFFFFFFFFFFFFFFFFFFFFFFFFFFFFFFFFFFFFFF AND PUSH20 0xFFFFFFFFFFFFFFFFFFFFFFFFFFFFFFFFFFFFFFFF AND DUP2 MSTORE PUSH1 0x20 ADD SWAP1 DUP2 MSTORE PUSH1 0x20 ADD PUSH0 KECCAK256 PUSH0 SWAP1 SLOAD SWAP1 PUSH2 0x100 EXP SWAP1 DIV PUSH1 0xFF AND ISZERO PUSH2 0x9F7 JUMPI PUSH1 0x40 MLOAD PUSH32 0x8C379A000000000000000000000000000000000000000000000000000000000 DUP2 MSTORE PUSH1 0x4 ADD PUSH2 0x9EE SWAP1 PUSH2 0x2109 JUMP JUMPDEST PUSH1 0x40 MLOAD DUP1 SWAP2 SUB SWAP1 REVERT JUMPDEST PUSH0 CALLVALUE GT PUSH2 0xA39 JUMPI PUSH1 0x40 MLOAD PUSH32 0x8C379A000000000000000000000000000000000000000000000000000000000 DUP2 MSTORE PUSH1 0x4 ADD PUSH2 0xA30 SWAP1 PUSH2 0x2171 JUMP JUMPDEST PUSH1 0x40 MLOAD DUP1 SWAP2 SUB SWAP1 REVERT JUMPDEST CALLER PUSH0 DUP1 CALLER PUSH20 0xFFFFFFFFFFFFFFFFFFFFFFFFFFFFFFFFFFFFFFFF AND PUSH20 0xFFFFFFFFFFFFFFFFFFFFFFFFFFFFFFFFFFFFFFFF AND DUP2 MSTORE PUSH1 0x20 ADD SWAP1 DUP2 MSTORE PUSH1 0x20 ADD PUSH0 KECCAK256 PUSH0 ADD PUSH0 PUSH2 0x100 EXP DUP2 SLOAD DUP2 PUSH20 0xFFFFFFFFFFFFFFFFFFFFFFFFFFFFFFFFFFFFFFFF MUL NOT AND SWAP1 DUP4 PUSH20 0xFFFFFFFFFFFFFFFFFFFFFFFFFFFFFFFFFFFFFFFF AND MUL OR SWAP1 SSTORE POP DUP2 PUSH0 DUP1 CALLER PUSH20 0xFFFFFFFFFFFFFFFFFFFFFFFFFFFFFFFFFFFFFFFF AND PUSH20 0xFFFFFFFFFFFFFFFFFFFFFFFFFFFFFFFFFFFFFFFF AND DUP2 MSTORE PUSH1 0x20 ADD SWAP1 DUP2 MSTORE PUSH1 0x20 ADD PUSH0 KECCAK256 PUSH1 0x1 ADD SWAP1 DUP2 PUSH2 0xB01 SWAP2 SWAP1 PUSH2 0x1E3F JUMP JUMPDEST POP DUP1 PUSH0 DUP1 CALLER PUSH20 0xFFFFFFFFFFFFFFFFFFFFFFFFFFFFFFFFFFFFFFFF AND PUSH20 0xFFFFFFFFFFFFFFFFFFFFFFFFFFFFFFFFFFFFFFFF AND DUP2 MSTORE PUSH1 0x20 ADD SWAP1 DUP2 MSTORE PUSH1 0x20 ADD PUSH0 KECCAK256 PUSH1 0x2 ADD SWAP1 DUP2 PUSH2 0xB4E SWAP2 SWAP1 PUSH2 0x1E3F JUMP JUMPDEST POP CALLVALUE PUSH0 DUP1 CALLER PUSH20 0xFFFFFFFFFFFFFFFFFFFFFFFFFFFFFFFFFFFFFFFF AND PUSH20 0xFFFFFFFFFFFFFFFFFFFFFFFFFFFFFFFFFFFFFFFF AND DUP2 MSTORE PUSH1 0x20 ADD SWAP1 DUP2 MSTORE PUSH1 0x20 ADD PUSH0 KECCAK256 PUSH1 0x3 ADD DUP2 SWAP1 SSTORE POP TIMESTAMP PUSH0 DUP1 CALLER PUSH20 0xFFFFFFFFFFFFFFFFFFFFFFFFFFFFFFFFFFFFFFFF AND PUSH20 0xFFFFFFFFFFFFFFFFFFFFFFFFFFFFFFFFFFFFFFFF AND DUP2 MSTORE PUSH1 0x20 ADD SWAP1 DUP2 MSTORE PUSH1 0x20 ADD PUSH0 KECCAK256 PUSH1 0x4 ADD DUP2 SWAP1 SSTORE POP PUSH4 0x1E13380 PUSH0 DUP1 CALLER PUSH20 0xFFFFFFFFFFFFFFFFFFFFFFFFFFFFFFFFFFFFFFFF AND PUSH20 0xFFFFFFFFFFFFFFFFFFFFFFFFFFFFFFFFFFFFFFFF AND DUP2 MSTORE PUSH1 0x20 ADD SWAP1 DUP2 MSTORE PUSH1 0x20 ADD PUSH0 KECCAK256 PUSH1 0x5 ADD DUP2 SWAP1 SSTORE POP PUSH0 DUP1 PUSH0 CALLER PUSH20 0xFFFFFFFFFFFFFFFFFFFFFFFFFFFFFFFFFFFFFFFF AND PUSH20 0xFFFFFFFFFFFFFFFFFFFFFFFFFFFFFFFFFFFFFFFF AND DUP2 MSTORE PUSH1 0x20 ADD SWAP1 DUP2 MSTORE PUSH1 0x20 ADD PUSH0 KECCAK256 PUSH1 0x6 ADD PUSH0 PUSH2 0x100 EXP DUP2 SLOAD DUP2 PUSH1 0xFF MUL NOT AND SWAP1 DUP4 ISZERO ISZERO MUL OR SWAP1 SSTORE POP PUSH1 0x1 DUP1 PUSH0 CALLER PUSH20 0xFFFFFFFFFFFFFFFFFFFFFFFFFFFFFFFFFFFFFFFF AND PUSH20 0xFFFFFFFFFFFFFFFFFFFFFFFFFFFFFFFFFFFFFFFF AND DUP2 MSTORE PUSH1 0x20 ADD SWAP1 DUP2 MSTORE PUSH1 0x20 ADD PUSH0 KECCAK256 PUSH0 PUSH2 0x100 EXP DUP2 SLOAD DUP2 PUSH1 0xFF MUL NOT AND SWAP1 DUP4 ISZERO ISZERO MUL OR SWAP1 SSTORE POP CALLER PUSH20 0xFFFFFFFFFFFFFFFFFFFFFFFFFFFFFFFFFFFFFFFF AND PUSH32 0xD40DC4A639C90600691397F655099ADBA04D6B763EF2122630EDD47C09F1B6F9 CALLVALUE PUSH1 0x40 MLOAD PUSH2 0xD0F SWAP2 SWAP1 PUSH2 0x218F JUMP JUMPDEST PUSH1 0x40 MLOAD DUP1 SWAP2 SUB SWAP1 LOG2 POP POP JUMP JUMPDEST PUSH1 0x60 DUP1 PUSH0 DUP1 PUSH1 0x1 PUSH0 CALLER PUSH20 0xFFFFFFFFFFFFFFFFFFFFFFFFFFFFFFFFFFFFFFFF AND PUSH20 0xFFFFFFFFFFFFFFFFFFFFFFFFFFFFFFFFFFFFFFFF AND DUP2 MSTORE PUSH1 0x20 ADD SWAP1 DUP2 MSTORE PUSH1 0x20 ADD PUSH0 KECCAK256 PUSH0 SWAP1 SLOAD SWAP1 PUSH2 0x100 EXP SWAP1 DIV PUSH1 0xFF AND PUSH2 0xDA9 JUMPI PUSH1 0x40 MLOAD PUSH32 0x8C379A000000000000000000000000000000000000000000000000000000000 DUP2 MSTORE PUSH1 0x4 ADD PUSH2 0xDA0 SWAP1 PUSH2 0x20A1 JUMP JUMPDEST PUSH1 0x40 MLOAD DUP1 SWAP2 SUB SWAP1 REVERT JUMPDEST PUSH0 DUP1 PUSH0 CALLER PUSH20 0xFFFFFFFFFFFFFFFFFFFFFFFFFFFFFFFFFFFFFFFF AND PUSH20 0xFFFFFFFFFFFFFFFFFFFFFFFFFFFFFFFFFFFFFFFF AND DUP2 MSTORE PUSH1 0x20 ADD SWAP1 DUP2 MSTORE PUSH1 0x20 ADD PUSH0 KECCAK256 SWAP1 POP DUP1 PUSH1 0x1 ADD DUP2 PUSH1 0x2 ADD DUP3 PUSH1 0x3 ADD SLOAD DUP4 PUSH1 0x6 ADD PUSH0 SWAP1 SLOAD SWAP1 PUSH2 0x100 EXP SWAP1 DIV PUSH1 0xFF AND DUP4 DUP1 SLOAD PUSH2 0xE12 SWAP1 PUSH2 0x1C72 JUMP JUMPDEST DUP1 PUSH1 0x1F ADD PUSH1 0x20 DUP1 SWAP2 DIV MUL PUSH1 0x20 ADD PUSH1 0x40 MLOAD SWAP1 DUP2 ADD PUSH1 0x40 MSTORE DUP1 SWAP3 SWAP2 SWAP1 DUP2 DUP2 MSTORE PUSH1 0x20 ADD DUP3 DUP1 SLOAD PUSH2 0xE3E SWAP1 PUSH2 0x1C72 JUMP JUMPDEST DUP1 ISZERO PUSH2 0xE89 JUMPI DUP1 PUSH1 0x1F LT PUSH2 0xE60 JUMPI PUSH2 0x100 DUP1 DUP4 SLOAD DIV MUL DUP4 MSTORE SWAP2 PUSH1 0x20 ADD SWAP2 PUSH2 0xE89 JUMP JUMPDEST DUP3 ADD SWAP2 SWAP1 PUSH0 MSTORE PUSH1 0x20 PUSH0 KECCAK256 SWAP1 JUMPDEST DUP2 SLOAD DUP2 MSTORE SWAP1 PUSH1 0x1 ADD SWAP1 PUSH1 0x20 ADD DUP1 DUP4 GT PUSH2 0xE6C JUMPI DUP3 SWAP1 SUB PUSH1 0x1F AND DUP3 ADD SWAP2 JUMPDEST POP POP POP POP POP SWAP4 POP DUP3 DUP1 SLOAD PUSH2 0xE9C SWAP1 PUSH2 0x1C72 JUMP JUMPDEST DUP1 PUSH1 0x1F ADD PUSH1 0x20 DUP1 SWAP2 DIV MUL PUSH1 0x20 ADD PUSH1 0x40 MLOAD SWAP1 DUP2 ADD PUSH1 0x40 MSTORE DUP1 SWAP3 SWAP2 SWAP1 DUP2 DUP2 MSTORE PUSH1 0x20 ADD DUP3 DUP1 SLOAD PUSH2 0xEC8 SWAP1 PUSH2 0x1C72 JUMP JUMPDEST DUP1 ISZERO PUSH2 0xF13 JUMPI DUP1 PUSH1 0x1F LT PUSH2 0xEEA JUMPI PUSH2 0x100 DUP1 DUP4 SLOAD DIV MUL DUP4 MSTORE SWAP2 PUSH1 0x20 ADD SWAP2 PUSH2 0xF13 JUMP JUMPDEST DUP3 ADD SWAP2 SWAP1 PUSH0 MSTORE PUSH1 0x20 PUSH0 KECCAK256 SWAP1 JUMPDEST DUP2 SLOAD DUP2 MSTORE SWAP1 PUSH1 0x1 ADD SWAP1 PUSH1 0x20 ADD DUP1 DUP4 GT PUSH2 0xEF6 JUMPI DUP3 SWAP1 SUB PUSH1 0x1F AND DUP3 ADD SWAP2 JUMPDEST POP POP POP POP POP SWAP3 POP SWAP5 POP SWAP5 POP SWAP5 POP SWAP5 POP POP SWAP1 SWAP2 SWAP3 SWAP4 JUMP JUMPDEST PUSH1 0x1 PUSH0 DUP3 PUSH20 0xFFFFFFFFFFFFFFFFFFFFFFFFFFFFFFFFFFFFFFFF AND PUSH20 0xFFFFFFFFFFFFFFFFFFFFFFFFFFFFFFFFFFFFFFFF AND DUP2 MSTORE PUSH1 0x20 ADD SWAP1 DUP2 MSTORE PUSH1 0x20 ADD PUSH0 KECCAK256 PUSH0 SWAP1 SLOAD SWAP1 PUSH2 0x100 EXP SWAP1 DIV PUSH1 0xFF AND PUSH2 0xFB2 JUMPI PUSH1 0x40 MLOAD PUSH32 0x8C379A000000000000000000000000000000000000000000000000000000000 DUP2 MSTORE PUSH1 0x4 ADD PUSH2 0xFA9 SWAP1 PUSH2 0x20A1 JUMP JUMPDEST PUSH1 0x40 MLOAD DUP1 SWAP2 SUB SWAP1 REVERT JUMPDEST PUSH0 DUP1 DUP3 PUSH20 0xFFFFFFFFFFFFFFFFFFFFFFFFFFFFFFFFFFFFFFFF AND PUSH20 0xFFFFFFFFFFFFFFFFFFFFFFFFFFFFFFFFFFFFFFFF AND DUP2 MSTORE PUSH1 0x20 ADD SWAP1 DUP2 MSTORE PUSH1 0x20 ADD PUSH0 KECCAK256 PUSH1 0x5 ADD SLOAD PUSH0 DUP1 DUP4 PUSH20 0xFFFFFFFFFFFFFFFFFFFFFFFFFFFFFFFFFFFFFFFF AND PUSH20 0xFFFFFFFFFFFFFFFFFFFFFFFFFFFFFFFFFFFFFFFF AND DUP2 MSTORE PUSH1 0x20 ADD SWAP1 DUP2 MSTORE PUSH1 0x20 ADD PUSH0 KECCAK256 PUSH1 0x4 ADD SLOAD PUSH2 0x103C SWAP2 SWAP1 PUSH2 0x1BAA JUMP JUMPDEST TIMESTAMP GT PUSH2 0x107D JUMPI PUSH1 0x40 MLOAD PUSH32 0x8C379A000000000000000000000000000000000000000000000000000000000 DUP2 MSTORE PUSH1 0x4 ADD PUSH2 0x1074 SWAP1 PUSH2 0x21F2 JUMP JUMPDEST PUSH1 0x40 MLOAD DUP1 SWAP2 SUB SWAP1 REVERT JUMPDEST PUSH0 DUP1 DUP3 PUSH20 0xFFFFFFFFFFFFFFFFFFFFFFFFFFFFFFFFFFFFFFFF AND PUSH20 0xFFFFFFFFFFFFFFFFFFFFFFFFFFFFFFFFFFFFFFFF AND DUP2 MSTORE PUSH1 0x20 ADD SWAP1 DUP2 MSTORE PUSH1 0x20 ADD PUSH0 KECCAK256 PUSH1 0x6 ADD PUSH0 SWAP1 SLOAD SWAP1 PUSH2 0x100 EXP SWAP1 DIV PUSH1 0xFF AND ISZERO PUSH2 0x1109 JUMPI PUSH1 0x40 MLOAD PUSH32 0x8C379A000000000000000000000000000000000000000000000000000000000 DUP2 MSTORE PUSH1 0x4 ADD PUSH2 0x1100 SWAP1 PUSH2 0x2039 JUMP JUMPDEST PUSH1 0x40 MLOAD DUP1 SWAP2 SUB SWAP1 REVERT JUMPDEST PUSH1 0x1 PUSH0 DUP1 DUP4 PUSH20 0xFFFFFFFFFFFFFFFFFFFFFFFFFFFFFFFFFFFFFFFF AND PUSH20 0xFFFFFFFFFFFFFFFFFFFFFFFFFFFFFFFFFFFFFFFF AND DUP2 MSTORE PUSH1 0x20 ADD SWAP1 DUP2 MSTORE PUSH1 0x20 ADD PUSH0 KECCAK256 PUSH1 0x6 ADD PUSH0 PUSH2 0x100 EXP DUP2 SLOAD DUP2 PUSH1 0xFF MUL NOT AND SWAP1 DUP4 ISZERO ISZERO MUL OR SWAP1 SSTORE POP PUSH0 DUP1 PUSH0 DUP4 PUSH20 0xFFFFFFFFFFFFFFFFFFFFFFFFFFFFFFFFFFFFFFFF AND PUSH20 0xFFFFFFFFFFFFFFFFFFFFFFFFFFFFFFFFFFFFFFFF AND DUP2 MSTORE PUSH1 0x20 ADD SWAP1 DUP2 MSTORE PUSH1 0x20 ADD PUSH0 KECCAK256 PUSH1 0x3 ADD SLOAD SWAP1 POP PUSH0 DUP2 GT PUSH2 0x11E5 JUMPI PUSH1 0x40 MLOAD PUSH32 0x8C379A000000000000000000000000000000000000000000000000000000000 DUP2 MSTORE PUSH1 0x4 ADD PUSH2 0x11DC SWAP1 PUSH2 0x225A JUMP JUMPDEST PUSH1 0x40 MLOAD DUP1 SWAP2 SUB SWAP1 REVERT JUMPDEST PUSH0 JUMPDEST PUSH0 DUP1 DUP5 PUSH20 0xFFFFFFFFFFFFFFFFFFFFFFFFFFFFFFFFFFFFFFFF AND PUSH20 0xFFFFFFFFFFFFFFFFFFFFFFFFFFFFFFFFFFFFFFFF AND DUP2 MSTORE PUSH1 0x20 ADD SWAP1 DUP2 MSTORE PUSH1 0x20 ADD PUSH0 KECCAK256 PUSH1 0x7 ADD DUP1 SLOAD SWAP1 POP DUP2 LT ISZERO PUSH2 0x139F JUMPI PUSH0 DUP1 PUSH0 DUP6 PUSH20 0xFFFFFFFFFFFFFFFFFFFFFFFFFFFFFFFFFFFFFFFF AND PUSH20 0xFFFFFFFFFFFFFFFFFFFFFFFFFFFFFFFFFFFFFFFF AND DUP2 MSTORE PUSH1 0x20 ADD SWAP1 DUP2 MSTORE PUSH1 0x20 ADD PUSH0 KECCAK256 PUSH1 0x7 ADD DUP3 DUP2 SLOAD DUP2 LT PUSH2 0x1283 JUMPI PUSH2 0x1282 PUSH2 0x1B50 JUMP JUMPDEST JUMPDEST SWAP1 PUSH0 MSTORE PUSH1 0x20 PUSH0 KECCAK256 SWAP1 PUSH1 0x4 MUL ADD SWAP1 POP PUSH0 PUSH1 0x64 DUP3 PUSH1 0x1 ADD SLOAD DUP6 PUSH2 0x12A4 SWAP2 SWAP1 PUSH2 0x2278 JUMP JUMPDEST PUSH2 0x12AE SWAP2 SWAP1 PUSH2 0x22E6 JUMP JUMPDEST SWAP1 POP DUP2 PUSH0 ADD PUSH0 SWAP1 SLOAD SWAP1 PUSH2 0x100 EXP SWAP1 DIV PUSH20 0xFFFFFFFFFFFFFFFFFFFFFFFFFFFFFFFFFFFFFFFF AND PUSH20 0xFFFFFFFFFFFFFFFFFFFFFFFFFFFFFFFFFFFFFFFF AND PUSH2 0x8FC DUP3 SWAP1 DUP2 ISZERO MUL SWAP1 PUSH1 0x40 MLOAD PUSH0 PUSH1 0x40 MLOAD DUP1 DUP4 SUB DUP2 DUP6 DUP9 DUP9 CALL SWAP4 POP POP POP POP ISZERO DUP1 ISZERO PUSH2 0x1315 JUMPI RETURNDATASIZE PUSH0 DUP1 RETURNDATACOPY RETURNDATASIZE PUSH0 REVERT JUMPDEST POP DUP2 PUSH0 ADD PUSH0 SWAP1 SLOAD SWAP1 PUSH2 0x100 EXP SWAP1 DIV PUSH20 0xFFFFFFFFFFFFFFFFFFFFFFFFFFFFFFFFFFFFFFFF AND PUSH20 0xFFFFFFFFFFFFFFFFFFFFFFFFFFFFFFFFFFFFFFFF AND PUSH32 0xCEB720B06C310EDC215BEE81670832BB918BA1199F401716364414DDB9B816A7 DUP3 DUP5 PUSH1 0x2 ADD DUP6 PUSH1 0x3 ADD PUSH1 0x40 MLOAD PUSH2 0x1388 SWAP4 SWAP3 SWAP2 SWAP1 PUSH2 0x2397 JUMP JUMPDEST PUSH1 0x40 MLOAD DUP1 SWAP2 SUB SWAP1 LOG2 POP POP DUP1 DUP1 PUSH1 0x1 ADD SWAP2 POP POP PUSH2 0x11E7 JUMP JUMPDEST POP PUSH0 DUP1 PUSH0 DUP5 PUSH20 0xFFFFFFFFFFFFFFFFFFFFFFFFFFFFFFFFFFFFFFFF AND PUSH20 0xFFFFFFFFFFFFFFFFFFFFFFFFFFFFFFFFFFFFFFFF AND DUP2 MSTORE PUSH1 0x20 ADD SWAP1 DUP2 MSTORE PUSH1 0x20 ADD PUSH0 KECCAK256 PUSH1 0x3 ADD DUP2 SWAP1 SSTORE POP DUP2 PUSH20 0xFFFFFFFFFFFFFFFFFFFFFFFFFFFFFFFFFFFFFFFF AND PUSH32 0x16346F65ADF8D84422B57AD74CB5607BF6C9E55C3C1FEA66344057E5BBA8A7EE PUSH1 0x40 MLOAD PUSH1 0x40 MLOAD DUP1 SWAP2 SUB SWAP1 LOG2 POP POP JUMP JUMPDEST PUSH0 PUSH1 0x40 MLOAD SWAP1 POP SWAP1 JUMP JUMPDEST PUSH0 DUP1 REVERT JUMPDEST PUSH0 DUP1 REVERT JUMPDEST PUSH0 PUSH20 0xFFFFFFFFFFFFFFFFFFFFFFFFFFFFFFFFFFFFFFFF DUP3 AND SWAP1 POP SWAP2 SWAP1 POP JUMP JUMPDEST PUSH0 PUSH2 0x1465 DUP3 PUSH2 0x143C JUMP JUMPDEST SWAP1 POP SWAP2 SWAP1 POP JUMP JUMPDEST PUSH2 0x1475 DUP2 PUSH2 0x145B JUMP JUMPDEST DUP2 EQ PUSH2 0x147F JUMPI PUSH0 DUP1 REVERT JUMPDEST POP JUMP JUMPDEST PUSH0 DUP2 CALLDATALOAD SWAP1 POP PUSH2 0x1490 DUP2 PUSH2 0x146C JUMP JUMPDEST SWAP3 SWAP2 POP POP JUMP JUMPDEST PUSH0 DUP2 SWAP1 POP SWAP2 SWAP1 POP JUMP JUMPDEST PUSH2 0x14A8 DUP2 PUSH2 0x1496 JUMP JUMPDEST DUP2 EQ PUSH2 0x14B2 JUMPI PUSH0 DUP1 REVERT JUMPDEST POP JUMP JUMPDEST PUSH0 DUP2 CALLDATALOAD SWAP1 POP PUSH2 0x14C3 DUP2 PUSH2 0x149F JUMP JUMPDEST SWAP3 SWAP2 POP POP JUMP JUMPDEST PUSH0 DUP1 REVERT JUMPDEST PUSH0 DUP1 REVERT JUMPDEST PUSH0 PUSH1 0x1F NOT PUSH1 0x1F DUP4 ADD AND SWAP1 POP SWAP2 SWAP1 POP JUMP JUMPDEST PUSH32 0x4E487B7100000000000000000000000000000000000000000000000000000000 PUSH0 MSTORE PUSH1 0x41 PUSH1 0x4 MSTORE PUSH1 0x24 PUSH0 REVERT JUMPDEST PUSH2 0x1517 DUP3 PUSH2 0x14D1 JUMP JUMPDEST DUP2 ADD DUP2 DUP2 LT PUSH8 0xFFFFFFFFFFFFFFFF DUP3 GT OR ISZERO PUSH2 0x1536 JUMPI PUSH2 0x1535 PUSH2 0x14E1 JUMP JUMPDEST JUMPDEST DUP1 PUSH1 0x40 MSTORE POP POP POP JUMP JUMPDEST PUSH0 PUSH2 0x1548 PUSH2 0x142B JUMP JUMPDEST SWAP1 POP PUSH2 0x1554 DUP3 DUP3 PUSH2 0x150E JUMP JUMPDEST SWAP2 SWAP1 POP JUMP JUMPDEST PUSH0 PUSH8 0xFFFFFFFFFFFFFFFF DUP3 GT ISZERO PUSH2 0x1573 JUMPI PUSH2 0x1572 PUSH2 0x14E1 JUMP JUMPDEST JUMPDEST PUSH2 0x157C DUP3 PUSH2 0x14D1 JUMP JUMPDEST SWAP1 POP PUSH1 0x20 DUP2 ADD SWAP1 POP SWAP2 SWAP1 POP JUMP JUMPDEST DUP3 DUP2 DUP4 CALLDATACOPY PUSH0 DUP4 DUP4 ADD MSTORE POP POP POP JUMP JUMPDEST PUSH0 PUSH2 0x15A9 PUSH2 0x15A4 DUP5 PUSH2 0x1559 JUMP JUMPDEST PUSH2 0x153F JUMP JUMPDEST SWAP1 POP DUP3 DUP2 MSTORE PUSH1 0x20 DUP2 ADD DUP5 DUP5 DUP5 ADD GT ISZERO PUSH2 0x15C5 JUMPI PUSH2 0x15C4 PUSH2 0x14CD JUMP JUMPDEST JUMPDEST PUSH2 0x15D0 DUP5 DUP3 DUP6 PUSH2 0x1589 JUMP JUMPDEST POP SWAP4 SWAP3 POP POP POP JUMP JUMPDEST PUSH0 DUP3 PUSH1 0x1F DUP4 ADD SLT PUSH2 0x15EC JUMPI PUSH2 0x15EB PUSH2 0x14C9 JUMP JUMPDEST JUMPDEST DUP2 CALLDATALOAD PUSH2 0x15FC DUP5 DUP3 PUSH1 0x20 DUP7 ADD PUSH2 0x1597 JUMP JUMPDEST SWAP2 POP POP SWAP3 SWAP2 POP POP JUMP JUMPDEST PUSH0 DUP1 PUSH0 DUP1 PUSH1 0x80 DUP6 DUP8 SUB SLT ISZERO PUSH2 0x161D JUMPI PUSH2 0x161C PUSH2 0x1434 JUMP JUMPDEST JUMPDEST PUSH0 PUSH2 0x162A DUP8 DUP3 DUP9 ADD PUSH2 0x1482 JUMP JUMPDEST SWAP5 POP POP PUSH1 0x20 PUSH2 0x163B DUP8 DUP3 DUP9 ADD PUSH2 0x14B5 JUMP JUMPDEST SWAP4 POP POP PUSH1 0x40 DUP6 ADD CALLDATALOAD PUSH8 0xFFFFFFFFFFFFFFFF DUP2 GT ISZERO PUSH2 0x165C JUMPI PUSH2 0x165B PUSH2 0x1438 JUMP JUMPDEST JUMPDEST PUSH2 0x1668 DUP8 DUP3 DUP9 ADD PUSH2 0x15D8 JUMP JUMPDEST SWAP3 POP POP PUSH1 0x60 DUP6 ADD CALLDATALOAD PUSH8 0xFFFFFFFFFFFFFFFF DUP2 GT ISZERO PUSH2 0x1689 JUMPI PUSH2 0x1688 PUSH2 0x1438 JUMP JUMPDEST JUMPDEST PUSH2 0x1695 DUP8 DUP3 DUP9 ADD PUSH2 0x15D8 JUMP JUMPDEST SWAP2 POP POP SWAP3 SWAP6 SWAP2 SWAP5 POP SWAP3 POP JUMP JUMPDEST PUSH0 PUSH2 0x16AB DUP3 PUSH2 0x143C JUMP JUMPDEST SWAP1 POP SWAP2 SWAP1 POP JUMP JUMPDEST PUSH2 0x16BB DUP2 PUSH2 0x16A1 JUMP JUMPDEST DUP2 EQ PUSH2 0x16C5 JUMPI PUSH0 DUP1 REVERT JUMPDEST POP JUMP JUMPDEST PUSH0 DUP2 CALLDATALOAD SWAP1 POP PUSH2 0x16D6 DUP2 PUSH2 0x16B2 JUMP JUMPDEST SWAP3 SWAP2 POP POP JUMP JUMPDEST PUSH0 PUSH1 0x20 DUP3 DUP5 SUB SLT ISZERO PUSH2 0x16F1 JUMPI PUSH2 0x16F0 PUSH2 0x1434 JUMP JUMPDEST JUMPDEST PUSH0 PUSH2 0x16FE DUP5 DUP3 DUP6 ADD PUSH2 0x16C8 JUMP JUMPDEST SWAP2 POP POP SWAP3 SWAP2 POP POP JUMP JUMPDEST PUSH0 DUP2 ISZERO ISZERO SWAP1 POP SWAP2 SWAP1 POP JUMP JUMPDEST PUSH2 0x171B DUP2 PUSH2 0x1707 JUMP JUMPDEST DUP3 MSTORE POP POP JUMP JUMPDEST PUSH0 PUSH1 0x20 DUP3 ADD SWAP1 POP PUSH2 0x1734 PUSH0 DUP4 ADD DUP5 PUSH2 0x1712 JUMP JUMPDEST SWAP3 SWAP2 POP POP JUMP JUMPDEST PUSH0 DUP2 MLOAD SWAP1 POP SWAP2 SWAP1 POP JUMP JUMPDEST PUSH0 DUP3 DUP3 MSTORE PUSH1 0x20 DUP3 ADD SWAP1 POP SWAP3 SWAP2 POP POP JUMP JUMPDEST PUSH0 DUP2 SWAP1 POP PUSH1 0x20 DUP3 ADD SWAP1 POP SWAP2 SWAP1 POP JUMP JUMPDEST PUSH2 0x176C DUP2 PUSH2 0x145B JUMP JUMPDEST DUP3 MSTORE POP POP JUMP JUMPDEST PUSH2 0x177B DUP2 PUSH2 0x1496 JUMP JUMPDEST DUP3 MSTORE POP POP JUMP JUMPDEST PUSH0 DUP2 MLOAD SWAP1 POP SWAP2 SWAP1 POP JUMP JUMPDEST PUSH0 DUP3 DUP3 MSTORE PUSH1 0x20 DUP3 ADD SWAP1 POP SWAP3 SWAP2 POP POP JUMP JUMPDEST DUP3 DUP2 DUP4 MCOPY PUSH0 DUP4 DUP4 ADD MSTORE POP POP POP JUMP JUMPDEST PUSH0 PUSH2 0x17B3 DUP3 PUSH2 0x1781 JUMP JUMPDEST PUSH2 0x17BD DUP2 DUP6 PUSH2 0x178B JUMP JUMPDEST SWAP4 POP PUSH2 0x17CD DUP2 DUP6 PUSH1 0x20 DUP7 ADD PUSH2 0x179B JUMP JUMPDEST PUSH2 0x17D6 DUP2 PUSH2 0x14D1 JUMP JUMPDEST DUP5 ADD SWAP2 POP POP SWAP3 SWAP2 POP POP JUMP JUMPDEST PUSH0 PUSH1 0x80 DUP4 ADD PUSH0 DUP4 ADD MLOAD PUSH2 0x17F6 PUSH0 DUP7 ADD DUP3 PUSH2 0x1763 JUMP JUMPDEST POP PUSH1 0x20 DUP4 ADD MLOAD PUSH2 0x1809 PUSH1 0x20 DUP7 ADD DUP3 PUSH2 0x1772 JUMP JUMPDEST POP PUSH1 0x40 DUP4 ADD MLOAD DUP5 DUP3 SUB PUSH1 0x40 DUP7 ADD MSTORE PUSH2 0x1821 DUP3 DUP3 PUSH2 0x17A9 JUMP JUMPDEST SWAP2 POP POP PUSH1 0x60 DUP4 ADD MLOAD DUP5 DUP3 SUB PUSH1 0x60 DUP7 ADD MSTORE PUSH2 0x183B DUP3 DUP3 PUSH2 0x17A9 JUMP JUMPDEST SWAP2 POP POP DUP1 SWAP2 POP POP SWAP3 SWAP2 POP POP JUMP JUMPDEST PUSH0 PUSH2 0x1853 DUP4 DUP4 PUSH2 0x17E1 JUMP JUMPDEST SWAP1 POP SWAP3 SWAP2 POP POP JUMP JUMPDEST PUSH0 PUSH1 0x20 DUP3 ADD SWAP1 POP SWAP2 SWAP1 POP JUMP JUMPDEST PUSH0 PUSH2 0x1871 DUP3 PUSH2 0x173A JUMP JUMPDEST PUSH2 0x187B DUP2 DUP6 PUSH2 0x1744 JUMP JUMPDEST SWAP4 POP DUP4 PUSH1 0x20 DUP3 MUL DUP6 ADD PUSH2 0x188D DUP6 PUSH2 0x1754 JUMP JUMPDEST DUP1 PUSH0 JUMPDEST DUP6 DUP2 LT ISZERO PUSH2 0x18C8 JUMPI DUP5 DUP5 SUB DUP10 MSTORE DUP2 MLOAD PUSH2 0x18A9 DUP6 DUP3 PUSH2 0x1848 JUMP JUMPDEST SWAP5 POP PUSH2 0x18B4 DUP4 PUSH2 0x185B JUMP JUMPDEST SWAP3 POP PUSH1 0x20 DUP11 ADD SWAP10 POP POP PUSH1 0x1 DUP2 ADD SWAP1 POP PUSH2 0x1890 JUMP JUMPDEST POP DUP3 SWAP8 POP DUP8 SWAP6 POP POP POP POP POP POP SWAP3 SWAP2 POP POP JUMP JUMPDEST PUSH0 PUSH1 0x20 DUP3 ADD SWAP1 POP DUP2 DUP2 SUB PUSH0 DUP4 ADD MSTORE PUSH2 0x18F2 DUP2 DUP5 PUSH2 0x1867 JUMP JUMPDEST SWAP1 POP SWAP3 SWAP2 POP POP JUMP JUMPDEST PUSH0 DUP1 PUSH1 0x40 DUP4 DUP6 SUB SLT ISZERO PUSH2 0x1910 JUMPI PUSH2 0x190F PUSH2 0x1434 JUMP JUMPDEST JUMPDEST PUSH0 DUP4 ADD CALLDATALOAD PUSH8 0xFFFFFFFFFFFFFFFF DUP2 GT ISZERO PUSH2 0x192D JUMPI PUSH2 0x192C PUSH2 0x1438 JUMP JUMPDEST JUMPDEST PUSH2 0x1939 DUP6 DUP3 DUP7 ADD PUSH2 0x15D8 JUMP JUMPDEST SWAP3 POP POP PUSH1 0x20 DUP4 ADD CALLDATALOAD PUSH8 0xFFFFFFFFFFFFFFFF DUP2 GT ISZERO PUSH2 0x195A JUMPI PUSH2 0x1959 PUSH2 0x1438 JUMP JUMPDEST JUMPDEST PUSH2 0x1966 DUP6 DUP3 DUP7 ADD PUSH2 0x15D8 JUMP JUMPDEST SWAP2 POP POP SWAP3 POP SWAP3 SWAP1 POP JUMP JUMPDEST PUSH0 DUP3 DUP3 MSTORE PUSH1 0x20 DUP3 ADD SWAP1 POP SWAP3 SWAP2 POP POP JUMP JUMPDEST PUSH0 PUSH2 0x198A DUP3 PUSH2 0x1781 JUMP JUMPDEST PUSH2 0x1994 DUP2 DUP6 PUSH2 0x1970 JUMP JUMPDEST SWAP4 POP PUSH2 0x19A4 DUP2 DUP6 PUSH1 0x20 DUP7 ADD PUSH2 0x179B JUMP JUMPDEST PUSH2 0x19AD DUP2 PUSH2 0x14D1 JUMP JUMPDEST DUP5 ADD SWAP2 POP POP SWAP3 SWAP2 POP POP JUMP JUMPDEST PUSH2 0x19C1 DUP2 PUSH2 0x1496 JUMP JUMPDEST DUP3 MSTORE POP POP JUMP JUMPDEST PUSH0 PUSH1 0x80 DUP3 ADD SWAP1 POP DUP2 DUP2 SUB PUSH0 DUP4 ADD MSTORE PUSH2 0x19DF DUP2 DUP8 PUSH2 0x1980 JUMP JUMPDEST SWAP1 POP DUP2 DUP2 SUB PUSH1 0x20 DUP4 ADD MSTORE PUSH2 0x19F3 DUP2 DUP7 PUSH2 0x1980 JUMP JUMPDEST SWAP1 POP PUSH2 0x1A02 PUSH1 0x40 DUP4 ADD DUP6 PUSH2 0x19B8 JUMP JUMPDEST PUSH2 0x1A0F PUSH1 0x60 DUP4 ADD DUP5 PUSH2 0x1712 JUMP JUMPDEST SWAP6 SWAP5 POP POP POP POP POP JUMP JUMPDEST PUSH32 0x596F75206E65656420746F2063726561746520612077696C6C20666972737400 PUSH0 DUP3 ADD MSTORE POP JUMP JUMPDEST PUSH0 PUSH2 0x1A4C PUSH1 0x1F DUP4 PUSH2 0x1970 JUMP JUMPDEST SWAP2 POP PUSH2 0x1A57 DUP3 PUSH2 0x1A18 JUMP JUMPDEST PUSH1 0x20 DUP3 ADD SWAP1 POP SWAP2 SWAP1 POP JUMP JUMPDEST PUSH0 PUSH1 0x20 DUP3 ADD SWAP1 POP DUP2 DUP2 SUB PUSH0 DUP4 ADD MSTORE PUSH2 0x1A79 DUP2 PUSH2 0x1A40 JUMP JUMPDEST SWAP1 POP SWAP2 SWAP1 POP JUMP JUMPDEST PUSH32 0x496E76616C69642077616C6C6574206164647265737300000000000000000000 PUSH0 DUP3 ADD MSTORE POP JUMP JUMPDEST PUSH0 PUSH2 0x1AB4 PUSH1 0x16 DUP4 PUSH2 0x1970 JUMP JUMPDEST SWAP2 POP PUSH2 0x1ABF DUP3 PUSH2 0x1A80 JUMP JUMPDEST PUSH1 0x20 DUP3 ADD SWAP1 POP SWAP2 SWAP1 POP JUMP JUMPDEST PUSH0 PUSH1 0x20 DUP3 ADD SWAP1 POP DUP2 DUP2 SUB PUSH0 DUP4 ADD MSTORE PUSH2 0x1AE1 DUP2 PUSH2 0x1AA8 JUMP JUMPDEST SWAP1 POP SWAP2 SWAP1 POP JUMP JUMPDEST PUSH32 0x496E76616C69642070657263656E746167650000000000000000000000000000 PUSH0 DUP3 ADD MSTORE POP JUMP JUMPDEST PUSH0 PUSH2 0x1B1C PUSH1 0x12 DUP4 PUSH2 0x1970 JUMP JUMPDEST SWAP2 POP PUSH2 0x1B27 DUP3 PUSH2 0x1AE8 JUMP JUMPDEST PUSH1 0x20 DUP3 ADD SWAP1 POP SWAP2 SWAP1 POP JUMP JUMPDEST PUSH0 PUSH1 0x20 DUP3 ADD SWAP1 POP DUP2 DUP2 SUB PUSH0 DUP4 ADD MSTORE PUSH2 0x1B49 DUP2 PUSH2 0x1B10 JUMP JUMPDEST SWAP1 POP SWAP2 SWAP1 POP JUMP JUMPDEST PUSH32 0x4E487B7100000000000000000000000000000000000000000000000000000000 PUSH0 MSTORE PUSH1 0x32 PUSH1 0x4 MSTORE PUSH1 0x24 PUSH0 REVERT JUMPDEST PUSH32 0x4E487B7100000000000000000000000000000000000000000000000000000000 PUSH0 MSTORE PUSH1 0x11 PUSH1 0x4 MSTORE PUSH1 0x24 PUSH0 REVERT JUMPDEST PUSH0 PUSH2 0x1BB4 DUP3 PUSH2 0x1496 JUMP JUMPDEST SWAP2 POP PUSH2 0x1BBF DUP4 PUSH2 0x1496 JUMP JUMPDEST SWAP3 POP DUP3 DUP3 ADD SWAP1 POP DUP1 DUP3 GT ISZERO PUSH2 0x1BD7 JUMPI PUSH2 0x1BD6 PUSH2 0x1B7D JUMP JUMPDEST JUMPDEST SWAP3 SWAP2 POP POP JUMP JUMPDEST PUSH32 0x546F74616C20616C6C6F636174696F6E20657863656564732031303025000000 PUSH0 DUP3 ADD MSTORE POP JUMP JUMPDEST PUSH0 PUSH2 0x1C11 PUSH1 0x1D DUP4 PUSH2 0x1970 JUMP JUMPDEST SWAP2 POP PUSH2 0x1C1C DUP3 PUSH2 0x1BDD JUMP JUMPDEST PUSH1 0x20 DUP3 ADD SWAP1 POP SWAP2 SWAP1 POP JUMP JUMPDEST PUSH0 PUSH1 0x20 DUP3 ADD SWAP1 POP DUP2 DUP2 SUB PUSH0 DUP4 ADD MSTORE PUSH2 0x1C3E DUP2 PUSH2 0x1C05 JUMP JUMPDEST SWAP1 POP SWAP2 SWAP1 POP JUMP JUMPDEST PUSH32 0x4E487B7100000000000000000000000000000000000000000000000000000000 PUSH0 MSTORE PUSH1 0x22 PUSH1 0x4 MSTORE PUSH1 0x24 PUSH0 REVERT JUMPDEST PUSH0 PUSH1 0x2 DUP3 DIV SWAP1 POP PUSH1 0x1 DUP3 AND DUP1 PUSH2 0x1C89 JUMPI PUSH1 0x7F DUP3 AND SWAP2 POP JUMPDEST PUSH1 0x20 DUP3 LT DUP2 SUB PUSH2 0x1C9C JUMPI PUSH2 0x1C9B PUSH2 0x1C45 JUMP JUMPDEST JUMPDEST POP SWAP2 SWAP1 POP JUMP JUMPDEST PUSH0 DUP2 SWAP1 POP DUP2 PUSH0 MSTORE PUSH1 0x20 PUSH0 KECCAK256 SWAP1 POP SWAP2 SWAP1 POP JUMP JUMPDEST PUSH0 PUSH1 0x20 PUSH1 0x1F DUP4 ADD DIV SWAP1 POP SWAP2 SWAP1 POP JUMP JUMPDEST PUSH0 DUP3 DUP3 SHL SWAP1 POP SWAP3 SWAP2 POP POP JUMP JUMPDEST PUSH0 PUSH1 0x8 DUP4 MUL PUSH2 0x1CFE PUSH32 0xFFFFFFFFFFFFFFFFFFFFFFFFFFFFFFFFFFFFFFFFFFFFFFFFFFFFFFFFFFFFFFFF DUP3 PUSH2 0x1CC3 JUMP JUMPDEST PUSH2 0x1D08 DUP7 DUP4 PUSH2 0x1CC3 JUMP JUMPDEST SWAP6 POP DUP1 NOT DUP5 AND SWAP4 POP DUP1 DUP7 AND DUP5 OR SWAP3 POP POP POP SWAP4 SWAP3 POP POP POP JUMP JUMPDEST PUSH0 DUP2 SWAP1 POP SWAP2 SWAP1 POP JUMP JUMPDEST PUSH0 PUSH2 0x1D43 PUSH2 0x1D3E PUSH2 0x1D39 DUP5 PUSH2 0x1496 JUMP JUMPDEST PUSH2 0x1D20 JUMP JUMPDEST PUSH2 0x1496 JUMP JUMPDEST SWAP1 POP SWAP2 SWAP1 POP JUMP JUMPDEST PUSH0 DUP2 SWAP1 POP SWAP2 SWAP1 POP JUMP JUMPDEST PUSH2 0x1D5C DUP4 PUSH2 0x1D29 JUMP JUMPDEST PUSH2 0x1D70 PUSH2 0x1D68 DUP3 PUSH2 0x1D4A JUMP JUMPDEST DUP5 DUP5 SLOAD PUSH2 0x1CCF JUMP JUMPDEST DUP3 SSTORE POP POP POP POP JUMP JUMPDEST PUSH0 SWAP1 JUMP JUMPDEST PUSH2 0x1D84 PUSH2 0x1D78 JUMP JUMPDEST PUSH2 0x1D8F DUP2 DUP5 DUP5 PUSH2 0x1D53 JUMP JUMPDEST POP POP POP JUMP JUMPDEST JUMPDEST DUP2 DUP2 LT ISZERO PUSH2 0x1DB2 JUMPI PUSH2 0x1DA7 PUSH0 DUP3 PUSH2 0x1D7C JUMP JUMPDEST PUSH1 0x1 DUP2 ADD SWAP1 POP PUSH2 0x1D95 JUMP JUMPDEST POP POP JUMP JUMPDEST PUSH1 0x1F DUP3 GT ISZERO PUSH2 0x1DF7 JUMPI PUSH2 0x1DC8 DUP2 PUSH2 0x1CA2 JUMP JUMPDEST PUSH2 0x1DD1 DUP5 PUSH2 0x1CB4 JUMP JUMPDEST DUP2 ADD PUSH1 0x20 DUP6 LT ISZERO PUSH2 0x1DE0 JUMPI DUP2 SWAP1 POP JUMPDEST PUSH2 0x1DF4 PUSH2 0x1DEC DUP6 PUSH2 0x1CB4 JUMP JUMPDEST DUP4 ADD DUP3 PUSH2 0x1D94 JUMP JUMPDEST POP POP JUMPDEST POP POP POP JUMP JUMPDEST PUSH0 DUP3 DUP3 SHR SWAP1 POP SWAP3 SWAP2 POP POP JUMP JUMPDEST PUSH0 PUSH2 0x1E17 PUSH0 NOT DUP5 PUSH1 0x8 MUL PUSH2 0x1DFC JUMP JUMPDEST NOT DUP1 DUP4 AND SWAP2 POP POP SWAP3 SWAP2 POP POP JUMP JUMPDEST PUSH0 PUSH2 0x1E2F DUP4 DUP4 PUSH2 0x1E08 JUMP JUMPDEST SWAP2 POP DUP3 PUSH1 0x2 MUL DUP3 OR SWAP1 POP SWAP3 SWAP2 POP POP JUMP JUMPDEST PUSH2 0x1E48 DUP3 PUSH2 0x1781 JUMP JUMPDEST PUSH8 0xFFFFFFFFFFFFFFFF DUP2 GT ISZERO PUSH2 0x1E61 JUMPI PUSH2 0x1E60 PUSH2 0x14E1 JUMP JUMPDEST JUMPDEST PUSH2 0x1E6B DUP3 SLOAD PUSH2 0x1C72 JUMP JUMPDEST PUSH2 0x1E76 DUP3 DUP3 DUP6 PUSH2 0x1DB6 JUMP JUMPDEST PUSH0 PUSH1 0x20 SWAP1 POP PUSH1 0x1F DUP4 GT PUSH1 0x1 DUP2 EQ PUSH2 0x1EA7 JUMPI PUSH0 DUP5 ISZERO PUSH2 0x1E95 JUMPI DUP3 DUP8 ADD MLOAD SWAP1 POP JUMPDEST PUSH2 0x1E9F DUP6 DUP3 PUSH2 0x1E24 JUMP JUMPDEST DUP7 SSTORE POP PUSH2 0x1F06 JUMP JUMPDEST PUSH1 0x1F NOT DUP5 AND PUSH2 0x1EB5 DUP7 PUSH2 0x1CA2 JUMP JUMPDEST PUSH0 JUMPDEST DUP3 DUP2 LT ISZERO PUSH2 0x1EDC JUMPI DUP5 DUP10 ADD MLOAD DUP3 SSTORE PUSH1 0x1 DUP3 ADD SWAP2 POP PUSH1 0x20 DUP6 ADD SWAP5 POP PUSH1 0x20 DUP2 ADD SWAP1 POP PUSH2 0x1EB7 JUMP JUMPDEST DUP7 DUP4 LT ISZERO PUSH2 0x1EF9 JUMPI DUP5 DUP10 ADD MLOAD PUSH2 0x1EF5 PUSH1 0x1F DUP10 AND DUP3 PUSH2 0x1E08 JUMP JUMPDEST DUP4 SSTORE POP JUMPDEST PUSH1 0x1 PUSH1 0x2 DUP9 MUL ADD DUP9 SSTORE POP POP POP JUMPDEST POP POP POP POP POP POP JUMP JUMPDEST PUSH0 PUSH2 0x1F28 PUSH2 0x1F23 PUSH2 0x1F1E DUP5 PUSH2 0x143C JUMP JUMPDEST PUSH2 0x1D20 JUMP JUMPDEST PUSH2 0x143C JUMP JUMPDEST SWAP1 POP SWAP2 SWAP1 POP JUMP JUMPDEST PUSH0 PUSH2 0x1F39 DUP3 PUSH2 0x1F0E JUMP JUMPDEST SWAP1 POP SWAP2 SWAP1 POP JUMP JUMPDEST PUSH0 PUSH2 0x1F4A DUP3 PUSH2 0x1F2F JUMP JUMPDEST SWAP1 POP SWAP2 SWAP1 POP JUMP JUMPDEST PUSH2 0x1F5A DUP2 PUSH2 0x1F40 JUMP JUMPDEST DUP3 MSTORE POP POP JUMP JUMPDEST PUSH0 PUSH1 0x40 DUP3 ADD SWAP1 POP PUSH2 0x1F73 PUSH0 DUP4 ADD DUP6 PUSH2 0x1F51 JUMP JUMPDEST PUSH2 0x1F80 PUSH1 0x20 DUP4 ADD DUP5 PUSH2 0x19B8 JUMP JUMPDEST SWAP4 SWAP3 POP POP POP JUMP JUMPDEST PUSH32 0x596F752068617665206E6F74206372656174656420612077696C6C0000000000 PUSH0 DUP3 ADD MSTORE POP JUMP JUMPDEST PUSH0 PUSH2 0x1FBB PUSH1 0x1B DUP4 PUSH2 0x1970 JUMP JUMPDEST SWAP2 POP PUSH2 0x1FC6 DUP3 PUSH2 0x1F87 JUMP JUMPDEST PUSH1 0x20 DUP3 ADD SWAP1 POP SWAP2 SWAP1 POP JUMP JUMPDEST PUSH0 PUSH1 0x20 DUP3 ADD SWAP1 POP DUP2 DUP2 SUB PUSH0 DUP4 ADD MSTORE PUSH2 0x1FE8 DUP2 PUSH2 0x1FAF JUMP JUMPDEST SWAP1 POP SWAP2 SWAP1 POP JUMP JUMPDEST PUSH32 0x57696C6C20616C72656164792065786563757465642100000000000000000000 PUSH0 DUP3 ADD MSTORE POP JUMP JUMPDEST PUSH0 PUSH2 0x2023 PUSH1 0x16 DUP4 PUSH2 0x1970 JUMP JUMPDEST SWAP2 POP PUSH2 0x202E DUP3 PUSH2 0x1FEF JUMP JUMPDEST PUSH1 0x20 DUP3 ADD SWAP1 POP SWAP2 SWAP1 POP JUMP JUMPDEST PUSH0 PUSH1 0x20 DUP3 ADD SWAP1 POP DUP2 DUP2 SUB PUSH0 DUP4 ADD MSTORE PUSH2 0x2050 DUP2 PUSH2 0x2017 JUMP JUMPDEST SWAP1 POP SWAP2 SWAP1 POP JUMP JUMPDEST PUSH32 0x4E6F2077696C6C20666F756E6421000000000000000000000000000000000000 PUSH0 DUP3 ADD MSTORE POP JUMP JUMPDEST PUSH0 PUSH2 0x208B PUSH1 0xE DUP4 PUSH2 0x1970 JUMP JUMPDEST SWAP2 POP PUSH2 0x2096 DUP3 PUSH2 0x2057 JUMP JUMPDEST PUSH1 0x20 DUP3 ADD SWAP1 POP SWAP2 SWAP1 POP JUMP JUMPDEST PUSH0 PUSH1 0x20 DUP3 ADD SWAP1 POP DUP2 DUP2 SUB PUSH0 DUP4 ADD MSTORE PUSH2 0x20B8 DUP2 PUSH2 0x207F JUMP JUMPDEST SWAP1 POP SWAP2 SWAP1 POP JUMP JUMPDEST PUSH32 0x596F7520616C7265616479206861766520612077696C6C210000000000000000 PUSH0 DUP3 ADD MSTORE POP JUMP JUMPDEST PUSH0 PUSH2 0x20F3 PUSH1 0x18 DUP4 PUSH2 0x1970 JUMP JUMPDEST SWAP2 POP PUSH2 0x20FE DUP3 PUSH2 0x20BF JUMP JUMPDEST PUSH1 0x20 DUP3 ADD SWAP1 POP SWAP2 SWAP1 POP JUMP JUMPDEST PUSH0 PUSH1 0x20 DUP3 ADD SWAP1 POP DUP2 DUP2 SUB PUSH0 DUP4 ADD MSTORE PUSH2 0x2120 DUP2 PUSH2 0x20E7 JUMP JUMPDEST SWAP1 POP SWAP2 SWAP1 POP JUMP JUMPDEST PUSH32 0x4D757374206C6F636B2045544821000000000000000000000000000000000000 PUSH0 DUP3 ADD MSTORE POP JUMP JUMPDEST PUSH0 PUSH2 0x215B PUSH1 0xE DUP4 PUSH2 0x1970 JUMP JUMPDEST SWAP2 POP PUSH2 0x2166 DUP3 PUSH2 0x2127 JUMP JUMPDEST PUSH1 0x20 DUP3 ADD SWAP1 POP SWAP2 SWAP1 POP JUMP JUMPDEST PUSH0 PUSH1 0x20 DUP3 ADD SWAP1 POP DUP2 DUP2 SUB PUSH0 DUP4 ADD MSTORE PUSH2 0x2188 DUP2 PUSH2 0x214F JUMP JUMPDEST SWAP1 POP SWAP2 SWAP1 POP JUMP JUMPDEST PUSH0 PUSH1 0x20 DUP3 ADD SWAP1 POP PUSH2 0x21A2 PUSH0 DUP4 ADD DUP5 PUSH2 0x19B8 JUMP JUMPDEST SWAP3 SWAP2 POP POP JUMP JUMPDEST PUSH32 0x4F776E6572206973207374696C6C20616C697665210000000000000000000000 PUSH0 DUP3 ADD MSTORE POP JUMP JUMPDEST PUSH0 PUSH2 0x21DC PUSH1 0x15 DUP4 PUSH2 0x1970 JUMP JUMPDEST SWAP2 POP PUSH2 0x21E7 DUP3 PUSH2 0x21A8 JUMP JUMPDEST PUSH1 0x20 DUP3 ADD SWAP1 POP SWAP2 SWAP1 POP JUMP JUMPDEST PUSH0 PUSH1 0x20 DUP3 ADD SWAP1 POP DUP2 DUP2 SUB PUSH0 DUP4 ADD MSTORE PUSH2 0x2209 DUP2 PUSH2 0x21D0 JUMP JUMPDEST SWAP1 POP SWAP2 SWAP1 POP JUMP JUMPDEST PUSH32 0x4E6F2045544820746F2064697374726962757465000000000000000000000000 PUSH0 DUP3 ADD MSTORE POP JUMP JUMPDEST PUSH0 PUSH2 0x2244 PUSH1 0x14 DUP4 PUSH2 0x1970 JUMP JUMPDEST SWAP2 POP PUSH2 0x224F DUP3 PUSH2 0x2210 JUMP JUMPDEST PUSH1 0x20 DUP3 ADD SWAP1 POP SWAP2 SWAP1 POP JUMP JUMPDEST PUSH0 PUSH1 0x20 DUP3 ADD SWAP1 POP DUP2 DUP2 SUB PUSH0 DUP4 ADD MSTORE PUSH2 0x2271 DUP2 PUSH2 0x2238 JUMP JUMPDEST SWAP1 POP SWAP2 SWAP1 POP JUMP JUMPDEST PUSH0 PUSH2 0x2282 DUP3 PUSH2 0x1496 JUMP JUMPDEST SWAP2 POP PUSH2 0x228D DUP4 PUSH2 0x1496 JUMP JUMPDEST SWAP3 POP DUP3 DUP3 MUL PUSH2 0x229B DUP2 PUSH2 0x1496 JUMP JUMPDEST SWAP2 POP DUP3 DUP3 DIV DUP5 EQ DUP4 ISZERO OR PUSH2 0x22B2 JUMPI PUSH2 0x22B1 PUSH2 0x1B7D JUMP JUMPDEST JUMPDEST POP SWAP3 SWAP2 POP POP JUMP JUMPDEST PUSH32 0x4E487B7100000000000000000000000000000000000000000000000000000000 PUSH0 MSTORE PUSH1 0x12 PUSH1 0x4 MSTORE PUSH1 0x24 PUSH0 REVERT JUMPDEST PUSH0 PUSH2 0x22F0 DUP3 PUSH2 0x1496 JUMP JUMPDEST SWAP2 POP PUSH2 0x22FB DUP4 PUSH2 0x1496 JUMP JUMPDEST SWAP3 POP DUP3 PUSH2 0x230B JUMPI PUSH2 0x230A PUSH2 0x22B9 JUMP JUMPDEST JUMPDEST DUP3 DUP3 DIV SWAP1 POP SWAP3 SWAP2 POP POP JUMP JUMPDEST PUSH0 DUP2 SLOAD PUSH2 0x2322 DUP2 PUSH2 0x1C72 JUMP JUMPDEST PUSH2 0x232C DUP2 DUP7 PUSH2 0x1970 JUMP JUMPDEST SWAP5 POP PUSH1 0x1 DUP3 AND PUSH0 DUP2 EQ PUSH2 0x2346 JUMPI PUSH1 0x1 DUP2 EQ PUSH2 0x235C JUMPI PUSH2 0x238E JUMP JUMPDEST PUSH1 0xFF NOT DUP4 AND DUP7 MSTORE DUP2 ISZERO ISZERO PUSH1 0x20 MUL DUP7 ADD SWAP4 POP PUSH2 0x238E JUMP JUMPDEST PUSH2 0x2365 DUP6 PUSH2 0x1CA2 JUMP JUMPDEST PUSH0 JUMPDEST DUP4 DUP2 LT ISZERO PUSH2 0x2386 JUMPI DUP2 SLOAD DUP2 DUP10 ADD MSTORE PUSH1 0x1 DUP3 ADD SWAP2 POP PUSH1 0x20 DUP2 ADD SWAP1 POP PUSH2 0x2367 JUMP JUMPDEST DUP1 DUP9 ADD SWAP6 POP POP POP JUMPDEST POP POP POP SWAP3 SWAP2 POP POP JUMP JUMPDEST PUSH0 PUSH1 0x60 DUP3 ADD SWAP1 POP PUSH2 0x23AA PUSH0 DUP4 ADD DUP7 PUSH2 0x19B8 JUMP JUMPDEST DUP2 DUP2 SUB PUSH1 0x20 DUP4 ADD MSTORE PUSH2 0x23BC DUP2 DUP6 PUSH2 0x2316 JUMP JUMPDEST SWAP1 POP DUP2 DUP2 SUB PUSH1 0x40 DUP4 ADD MSTORE PUSH2 0x23D0 DUP2 DUP5 PUSH2 0x2316 JUMP JUMPDEST SWAP1 POP SWAP5 SWAP4 POP POP POP POP JUMP INVALID LOG2 PUSH5 0x6970667358 0x22 SLT KECCAK256 0xB7 0xAB 0xEC SWAP5 CALLDATACOPY SUB COINBASE DUP7 DUP7 PUSH32 0xD2BFEB013D175AA0358BACDFDFC00F6A4AD1D1F55B5664736F6C634300081A00 CALLER "
	},
	"abi": [
		{
			"inputs": [
				{
					"internalType": "address payable",
					"name": "_wallet",
					"type": "address"
				},
				{
					"internalType": "uint256",
					"name": "_percentage",
					"type": "uint256"
				},
				{
					"internalType": "string",
					"name": "_saleDeedIpfsHash",
					"type": "string"
				},
				{
					"internalType": "string",
					"name": "_email",
					"type": "string"
				}
			],
			"name": "addBeneficiary",
			"outputs": [],
			"stateMutability": "nonpayable",
			"type": "function"
		},
		{
			"anonymous": false,
			"inputs": [
				{
					"indexed": true,
					"internalType": "address",
					"name": "testator",
					"type": "address"
				},
				{
					"indexed": false,
					"internalType": "address",
					"name": "beneficiary",
					"type": "address"
				},
				{
					"indexed": false,
					"internalType": "uint256",
					"name": "percentage",
					"type": "uint256"
				}
			],
			"name": "BeneficiaryAdded",
			"type": "event"
		},
		{
			"inputs": [],
			"name": "confirmAlive",
			"outputs": [],
			"stateMutability": "nonpayable",
			"type": "function"
		},
		{
			"inputs": [
				{
					"internalType": "string",
					"name": "_firstName",
					"type": "string"
				},
				{
					"internalType": "string",
					"name": "_lastName",
					"type": "string"
				}
			],
			"name": "createWill",
			"outputs": [],
			"stateMutability": "payable",
			"type": "function"
		},
		{
			"inputs": [
				{
					"internalType": "address",
					"name": "user",
					"type": "address"
				}
			],
			"name": "executeWill",
			"outputs": [],
			"stateMutability": "nonpayable",
			"type": "function"
		},
		{
			"anonymous": false,
			"inputs": [
				{
					"indexed": true,
					"internalType": "address",
					"name": "beneficiary",
					"type": "address"
				},
				{
					"indexed": false,
					"internalType": "uint256",
					"name": "amount",
					"type": "uint256"
				},
				{
					"indexed": false,
					"internalType": "string",
					"name": "saleDeedIpfsHash",
					"type": "string"
				},
				{
					"indexed": false,
					"internalType": "string",
					"name": "email",
					"type": "string"
				}
			],
			"name": "FundsDisbursed",
			"type": "event"
		},
		{
			"anonymous": false,
			"inputs": [
				{
					"indexed": true,
					"internalType": "address",
					"name": "testator",
					"type": "address"
				},
				{
					"indexed": false,
					"internalType": "uint256",
					"name": "lockedFunds",
					"type": "uint256"
				}
			],
			"name": "WillCreated",
			"type": "event"
		},
		{
			"anonymous": false,
			"inputs": [
				{
					"indexed": true,
					"internalType": "address",
					"name": "testator",
					"type": "address"
				}
			],
			"name": "WillExecuted",
			"type": "event"
		},
		{
			"inputs": [],
			"name": "getBeneficiaries",
			"outputs": [
				{
					"components": [
						{
							"internalType": "address payable",
							"name": "wallet",
							"type": "address"
						},
						{
							"internalType": "uint256",
							"name": "percentage",
							"type": "uint256"
						},
						{
							"internalType": "string",
							"name": "saleDeedIpfsHash",
							"type": "string"
						},
						{
							"internalType": "string",
							"name": "email",
							"type": "string"
						}
					],
					"internalType": "struct MultiWillContract.Beneficiary[]",
					"name": "",
					"type": "tuple[]"
				}
			],
			"stateMutability": "view",
			"type": "function"
		},
		{
			"inputs": [],
			"name": "getWillDetails",
			"outputs": [
				{
					"internalType": "string",
					"name": "firstName",
					"type": "string"
				},
				{
					"internalType": "string",
					"name": "lastName",
					"type": "string"
				},
				{
					"internalType": "uint256",
					"name": "totalLocked",
					"type": "uint256"
				},
				{
					"internalType": "bool",
					"name": "isDeceased",
					"type": "bool"
				}
			],
			"stateMutability": "view",
			"type": "function"
		},
		{
			"inputs": [
				{
					"internalType": "address",
					"name": "",
					"type": "address"
				}
			],
			"name": "hasWill",
			"outputs": [
				{
					"internalType": "bool",
					"name": "",
					"type": "bool"
				}
			],
			"stateMutability": "view",
			"type": "function"
		}
	],
	"storageLayout": {
		"storage": [
			{
				"astId": 34,
				"contract": "MultiWillContract.sol:MultiWillContract",
				"label": "wills",
				"offset": 0,
				"slot": "0",
				"type": "t_mapping(t_address,t_struct(Will)29_storage)"
			},
			{
				"astId": 38,
				"contract": "MultiWillContract.sol:MultiWillContract",
				"label": "hasWill",
				"offset": 0,
				"slot": "1",
				"type": "t_mapping(t_address,t_bool)"
			}
		],
		"types": {
			"t_address": {
				"encoding": "inplace",
				"label": "address",
				"numberOfBytes": "20"
			},
			"t_address_payable": {
				"encoding": "inplace",
				"label": "address payable",
				"numberOfBytes": "20"
			},
			"t_array(t_struct(Beneficiary)10_storage)dyn_storage": {
				"base": "t_struct(Beneficiary)10_storage",
				"encoding": "dynamic_array",
				"label": "struct MultiWillContract.Beneficiary[]",
				"numberOfBytes": "32"
			},
			"t_bool": {
				"encoding": "inplace",
				"label": "bool",
				"numberOfBytes": "1"
			},
			"t_mapping(t_address,t_bool)": {
				"encoding": "mapping",
				"key": "t_address",
				"label": "mapping(address => bool)",
				"numberOfBytes": "32",
				"value": "t_bool"
			},
			"t_mapping(t_address,t_struct(Will)29_storage)": {
				"encoding": "mapping",
				"key": "t_address",
				"label": "mapping(address => struct MultiWillContract.Will)",
				"numberOfBytes": "32",
				"value": "t_struct(Will)29_storage"
			},
			"t_string_storage": {
				"encoding": "bytes",
				"label": "string",
				"numberOfBytes": "32"
			},
			"t_struct(Beneficiary)10_storage": {
				"encoding": "inplace",
				"label": "struct MultiWillContract.Beneficiary",
				"members": [
					{
						"astId": 3,
						"contract": "MultiWillContract.sol:MultiWillContract",
						"label": "wallet",
						"offset": 0,
						"slot": "0",
						"type": "t_address_payable"
					},
					{
						"astId": 5,
						"contract": "MultiWillContract.sol:MultiWillContract",
						"label": "percentage",
						"offset": 0,
						"slot": "1",
						"type": "t_uint256"
					},
					{
						"astId": 7,
						"contract": "MultiWillContract.sol:MultiWillContract",
						"label": "saleDeedIpfsHash",
						"offset": 0,
						"slot": "2",
						"type": "t_string_storage"
					},
					{
						"astId": 9,
						"contract": "MultiWillContract.sol:MultiWillContract",
						"label": "email",
						"offset": 0,
						"slot": "3",
						"type": "t_string_storage"
					}
				],
				"numberOfBytes": "128"
			},
			"t_struct(Will)29_storage": {
				"encoding": "inplace",
				"label": "struct MultiWillContract.Will",
				"members": [
					{
						"astId": 12,
						"contract": "MultiWillContract.sol:MultiWillContract",
						"label": "testator",
						"offset": 0,
						"slot": "0",
						"type": "t_address"
					},
					{
						"astId": 14,
						"contract": "MultiWillContract.sol:MultiWillContract",
						"label": "firstName",
						"offset": 0,
						"slot": "1",
						"type": "t_string_storage"
					},
					{
						"astId": 16,
						"contract": "MultiWillContract.sol:MultiWillContract",
						"label": "lastName",
						"offset": 0,
						"slot": "2",
						"type": "t_string_storage"
					},
					{
						"astId": 18,
						"contract": "MultiWillContract.sol:MultiWillContract",
						"label": "totalLocked",
						"offset": 0,
						"slot": "3",
						"type": "t_uint256"
					},
					{
						"astId": 20,
						"contract": "MultiWillContract.sol:MultiWillContract",
						"label": "lastAliveTime",
						"offset": 0,
						"slot": "4",
						"type": "t_uint256"
					},
					{
						"astId": 22,
						"contract": "MultiWillContract.sol:MultiWillContract",
						"label": "proofOfLifeInterval",
						"offset": 0,
						"slot": "5",
						"type": "t_uint256"
					},
					{
						"astId": 24,
						"contract": "MultiWillContract.sol:MultiWillContract",
						"label": "isDeceased",
						"offset": 0,
						"slot": "6",
						"type": "t_bool"
					},
					{
						"astId": 28,
						"contract": "MultiWillContract.sol:MultiWillContract",
						"label": "beneficiaries",
						"offset": 0,
						"slot": "7",
						"type": "t_array(t_struct(Beneficiary)10_storage)dyn_storage"
					}
				],
				"numberOfBytes": "256"
			},
			"t_uint256": {
				"encoding": "inplace",
				"label": "uint256",
				"numberOfBytes": "32"
			}
		}
	},
	"web3Deploy": "var multiwillcontractContract = new web3.eth.Contract([{\"anonymous\":false,\"inputs\":[{\"indexed\":true,\"internalType\":\"address\",\"name\":\"testator\",\"type\":\"address\"},{\"indexed\":false,\"internalType\":\"address\",\"name\":\"beneficiary\",\"type\":\"address\"},{\"indexed\":false,\"internalType\":\"uint256\",\"name\":\"percentage\",\"type\":\"uint256\"}],\"name\":\"BeneficiaryAdded\",\"type\":\"event\"},{\"anonymous\":false,\"inputs\":[{\"indexed\":true,\"internalType\":\"address\",\"name\":\"beneficiary\",\"type\":\"address\"},{\"indexed\":false,\"internalType\":\"uint256\",\"name\":\"amount\",\"type\":\"uint256\"},{\"indexed\":false,\"internalType\":\"string\",\"name\":\"saleDeedIpfsHash\",\"type\":\"string\"},{\"indexed\":false,\"internalType\":\"string\",\"name\":\"email\",\"type\":\"string\"}],\"name\":\"FundsDisbursed\",\"type\":\"event\"},{\"anonymous\":false,\"inputs\":[{\"indexed\":true,\"internalType\":\"address\",\"name\":\"testator\",\"type\":\"address\"},{\"indexed\":false,\"internalType\":\"uint256\",\"name\":\"lockedFunds\",\"type\":\"uint256\"}],\"name\":\"WillCreated\",\"type\":\"event\"},{\"anonymous\":false,\"inputs\":[{\"indexed\":true,\"internalType\":\"address\",\"name\":\"testator\",\"type\":\"address\"}],\"name\":\"WillExecuted\",\"type\":\"event\"},{\"inputs\":[{\"internalType\":\"address payable\",\"name\":\"_wallet\",\"type\":\"address\"},{\"internalType\":\"uint256\",\"name\":\"_percentage\",\"type\":\"uint256\"},{\"internalType\":\"string\",\"name\":\"_saleDeedIpfsHash\",\"type\":\"string\"},{\"internalType\":\"string\",\"name\":\"_email\",\"type\":\"string\"}],\"name\":\"addBeneficiary\",\"outputs\":[],\"stateMutability\":\"nonpayable\",\"type\":\"function\"},{\"inputs\":[],\"name\":\"confirmAlive\",\"outputs\":[],\"stateMutability\":\"nonpayable\",\"type\":\"function\"},{\"inputs\":[{\"internalType\":\"string\",\"name\":\"_firstName\",\"type\":\"string\"},{\"internalType\":\"string\",\"name\":\"_lastName\",\"type\":\"string\"}],\"name\":\"createWill\",\"outputs\":[],\"stateMutability\":\"payable\",\"type\":\"function\"},{\"inputs\":[{\"internalType\":\"address\",\"name\":\"user\",\"type\":\"address\"}],\"name\":\"executeWill\",\"outputs\":[],\"stateMutability\":\"nonpayable\",\"type\":\"function\"},{\"inputs\":[],\"name\":\"getBeneficiaries\",\"outputs\":[{\"components\":[{\"internalType\":\"address payable\",\"name\":\"wallet\",\"type\":\"address\"},{\"internalType\":\"uint256\",\"name\":\"percentage\",\"type\":\"uint256\"},{\"internalType\":\"string\",\"name\":\"saleDeedIpfsHash\",\"type\":\"string\"},{\"internalType\":\"string\",\"name\":\"email\",\"type\":\"string\"}],\"internalType\":\"struct MultiWillContract.Beneficiary[]\",\"name\":\"\",\"type\":\"tuple[]\"}],\"stateMutability\":\"view\",\"type\":\"function\"},{\"inputs\":[],\"name\":\"getWillDetails\",\"outputs\":[{\"internalType\":\"string\",\"name\":\"firstName\",\"type\":\"string\"},{\"internalType\":\"string\",\"name\":\"lastName\",\"type\":\"string\"},{\"internalType\":\"uint256\",\"name\":\"totalLocked\",\"type\":\"uint256\"},{\"internalType\":\"bool\",\"name\":\"isDeceased\",\"type\":\"bool\"}],\"stateMutability\":\"view\",\"type\":\"function\"},{\"inputs\":[{\"internalType\":\"address\",\"name\":\"\",\"type\":\"address\"}],\"name\":\"hasWill\",\"outputs\":[{\"internalType\":\"bool\",\"name\":\"\",\"type\":\"bool\"}],\"stateMutability\":\"view\",\"type\":\"function\"}]);\nvar multiwillcontract = multiwillcontractContract.deploy({\n     data: '0x6080604052348015600e575f80fd5b506124108061001c5f395ff3fe60806040526004361061006f575f3560e01c8063913b722c1161004d578063913b722c146100ed578063b0daeb1c14610117578063cc4f9d5b14610133578063e854d135146101605761006f565b80634ebde6d314610073578063549cc7b81461009b5780636f9b65f0146100d7575b5f80fd5b34801561007e575f80fd5b5061009960048036038101906100949190611605565b610188565b005b3480156100a6575f80fd5b506100c160048036038101906100bc91906116dc565b610555565b6040516100ce9190611721565b60405180910390f35b3480156100e2575f80fd5b506100eb610572565b005b3480156100f8575f80fd5b506101016106cd565b60405161010e91906118da565b60405180910390f35b610131600480360381019061012c91906118fa565b61096d565b005b34801561013e575f80fd5b50610147610d1b565b60405161015794939291906119c7565b60405180910390f35b34801561016b575f80fd5b50610186600480360381019061018191906116dc565b610f29565b005b60015f3373ffffffffffffffffffffffffffffffffffffffff1673ffffffffffffffffffffffffffffffffffffffff1681526020019081526020015f205f9054906101000a900460ff16610211576040517f08c379a000000000000000000000000000000000000000000000000000000000815260040161020890611a62565b60405180910390fd5b5f73ffffffffffffffffffffffffffffffffffffffff168473ffffffffffffffffffffffffffffffffffffffff160361027f576040517f08c379a000000000000000000000000000000000000000000000000000000000815260040161027690611aca565b60405180910390fd5b5f8311801561028f575060648311155b6102ce576040517f08c379a00000000000000000000000000000000000000000000000000000000081526004016102c590611b32565b60405180910390fd5b5f805b5f803373ffffffffffffffffffffffffffffffffffffffff1673ffffffffffffffffffffffffffffffffffffffff1681526020019081526020015f2060070180549050811015610396575f803373ffffffffffffffffffffffffffffffffffffffff1673ffffffffffffffffffffffffffffffffffffffff1681526020019081526020015f20600701818154811061036c5761036b611b50565b5b905f5260205f20906004020160010154826103879190611baa565b915080806001019150506102d1565b50606484826103a59190611baa565b11156103e6576040517f08c379a00000000000000000000000000000000000000000000000000000000081526004016103dd90611c27565b60405180910390fd5b5f803373ffffffffffffffffffffffffffffffffffffffff1673ffffffffffffffffffffffffffffffffffffffff1681526020019081526020015f2060070160405180608001604052808773ffffffffffffffffffffffffffffffffffffffff16815260200186815260200185815260200184815250908060018154018082558091505060019003905f5260205f2090600402015f909190919091505f820151815f015f6101000a81548173ffffffffffffffffffffffffffffffffffffffff021916908373ffffffffffffffffffffffffffffffffffffffff1602179055506020820151816001015560408201518160020190816104e59190611e3f565b5060608201518160030190816104fb9190611e3f565b5050503373ffffffffffffffffffffffffffffffffffffffff167f5d081d791b64899adab031015397ef8d7600501212ef97573b9e50f8c9bb6d9b8686604051610546929190611f60565b60405180910390a25050505050565b6001602052805f5260405f205f915054906101000a900460ff1681565b60015f3373ffffffffffffffffffffffffffffffffffffffff1673ffffffffffffffffffffffffffffffffffffffff1681526020019081526020015f205f9054906101000a900460ff166105fb576040517f08c379a00000000000000000000000000000000000000000000000000000000081526004016105f290611fd1565b60405180910390fd5b5f803373ffffffffffffffffffffffffffffffffffffffff1673ffffffffffffffffffffffffffffffffffffffff1681526020019081526020015f206006015f9054906101000a900460ff1615610687576040517f08c379a000000000000000000000000000000000000000000000000000000000815260040161067e90612039565b60405180910390fd5b425f803373ffffffffffffffffffffffffffffffffffffffff1673ffffffffffffffffffffffffffffffffffffffff1681526020019081526020015f2060040181905550565b606060015f3373ffffffffffffffffffffffffffffffffffffffff1673ffffffffffffffffffffffffffffffffffffffff1681526020019081526020015f205f9054906101000a900460ff16610758576040517f08c379a000000000000000000000000000000000000000000000000000000000815260040161074f906120a1565b60405180910390fd5b5f803373ffffffffffffffffffffffffffffffffffffffff1673ffffffffffffffffffffffffffffffffffffffff1681526020019081526020015f20600701805480602002602001604051908101604052809291908181526020015f905b82821015610964578382905f5260205f2090600402016040518060800160405290815f82015f9054906101000a900473ffffffffffffffffffffffffffffffffffffffff1673ffffffffffffffffffffffffffffffffffffffff1673ffffffffffffffffffffffffffffffffffffffff1681526020016001820154815260200160028201805461084590611c72565b80601f016020809104026020016040519081016040528092919081815260200182805461087190611c72565b80156108bc5780601f10610893576101008083540402835291602001916108bc565b820191905f5260205f20905b81548152906001019060200180831161089f57829003601f168201915b505050505081526020016003820180546108d590611c72565b80601f016020809104026020016040519081016040528092919081815260200182805461090190611c72565b801561094c5780601f106109235761010080835404028352916020019161094c565b820191905f5260205f20905b81548152906001019060200180831161092f57829003601f168201915b505050505081525050815260200190600101906107b6565b50505050905090565b60015f3373ffffffffffffffffffffffffffffffffffffffff1673ffffffffffffffffffffffffffffffffffffffff1681526020019081526020015f205f9054906101000a900460ff16156109f7576040517f08c379a00000000000000000000000000000000000000000000000000000000081526004016109ee90612109565b60405180910390fd5b5f3411610a39576040517f08c379a0000000000000000000000000000000000000000000000000000000008152600401610a3090612171565b60405180910390fd5b335f803373ffffffffffffffffffffffffffffffffffffffff1673ffffffffffffffffffffffffffffffffffffffff1681526020019081526020015f205f015f6101000a81548173ffffffffffffffffffffffffffffffffffffffff021916908373ffffffffffffffffffffffffffffffffffffffff160217905550815f803373ffffffffffffffffffffffffffffffffffffffff1673ffffffffffffffffffffffffffffffffffffffff1681526020019081526020015f206001019081610b019190611e3f565b50805f803373ffffffffffffffffffffffffffffffffffffffff1673ffffffffffffffffffffffffffffffffffffffff1681526020019081526020015f206002019081610b4e9190611e3f565b50345f803373ffffffffffffffffffffffffffffffffffffffff1673ffffffffffffffffffffffffffffffffffffffff1681526020019081526020015f2060030181905550425f803373ffffffffffffffffffffffffffffffffffffffff1673ffffffffffffffffffffffffffffffffffffffff1681526020019081526020015f20600401819055506301e133805f803373ffffffffffffffffffffffffffffffffffffffff1673ffffffffffffffffffffffffffffffffffffffff1681526020019081526020015f20600501819055505f805f3373ffffffffffffffffffffffffffffffffffffffff1673ffffffffffffffffffffffffffffffffffffffff1681526020019081526020015f206006015f6101000a81548160ff0219169083151502179055506001805f3373ffffffffffffffffffffffffffffffffffffffff1673ffffffffffffffffffffffffffffffffffffffff1681526020019081526020015f205f6101000a81548160ff0219169083151502179055503373ffffffffffffffffffffffffffffffffffffffff167fd40dc4a639c90600691397f655099adba04d6b763ef2122630edd47c09f1b6f934604051610d0f919061218f565b60405180910390a25050565b6060805f8060015f3373ffffffffffffffffffffffffffffffffffffffff1673ffffffffffffffffffffffffffffffffffffffff1681526020019081526020015f205f9054906101000a900460ff16610da9576040517f08c379a0000000000000000000000000000000000000000000000000000000008152600401610da0906120a1565b60405180910390fd5b5f805f3373ffffffffffffffffffffffffffffffffffffffff1673ffffffffffffffffffffffffffffffffffffffff1681526020019081526020015f20905080600101816002018260030154836006015f9054906101000a900460ff16838054610e1290611c72565b80601f0160208091040260200160405190810160405280929190818152602001828054610e3e90611c72565b8015610e895780601f10610e6057610100808354040283529160200191610e89565b820191905f5260205f20905b815481529060010190602001808311610e6c57829003601f168201915b50505050509350828054610e9c90611c72565b80601f0160208091040260200160405190810160405280929190818152602001828054610ec890611c72565b8015610f135780601f10610eea57610100808354040283529160200191610f13565b820191905f5260205f20905b815481529060010190602001808311610ef657829003601f168201915b5050505050925094509450945094505090919293565b60015f8273ffffffffffffffffffffffffffffffffffffffff1673ffffffffffffffffffffffffffffffffffffffff1681526020019081526020015f205f9054906101000a900460ff16610fb2576040517f08c379a0000000000000000000000000000000000000000000000000000000008152600401610fa9906120a1565b60405180910390fd5b5f808273ffffffffffffffffffffffffffffffffffffffff1673ffffffffffffffffffffffffffffffffffffffff1681526020019081526020015f20600501545f808373ffffffffffffffffffffffffffffffffffffffff1673ffffffffffffffffffffffffffffffffffffffff1681526020019081526020015f206004015461103c9190611baa565b421161107d576040517f08c379a0000000000000000000000000000000000000000000000000000000008152600401611074906121f2565b60405180910390fd5b5f808273ffffffffffffffffffffffffffffffffffffffff1673ffffffffffffffffffffffffffffffffffffffff1681526020019081526020015f206006015f9054906101000a900460ff1615611109576040517f08c379a000000000000000000000000000000000000000000000000000000000815260040161110090612039565b60405180910390fd5b60015f808373ffffffffffffffffffffffffffffffffffffffff1673ffffffffffffffffffffffffffffffffffffffff1681526020019081526020015f206006015f6101000a81548160ff0219169083151502179055505f805f8373ffffffffffffffffffffffffffffffffffffffff1673ffffffffffffffffffffffffffffffffffffffff1681526020019081526020015f206003015490505f81116111e5576040517f08c379a00000000000000000000000000000000000000000000000000000000081526004016111dc9061225a565b60405180910390fd5b5f5b5f808473ffffffffffffffffffffffffffffffffffffffff1673ffffffffffffffffffffffffffffffffffffffff1681526020019081526020015f206007018054905081101561139f575f805f8573ffffffffffffffffffffffffffffffffffffffff1673ffffffffffffffffffffffffffffffffffffffff1681526020019081526020015f20600701828154811061128357611282611b50565b5b905f5260205f20906004020190505f60648260010154856112a49190612278565b6112ae91906122e6565b9050815f015f9054906101000a900473ffffffffffffffffffffffffffffffffffffffff1673ffffffffffffffffffffffffffffffffffffffff166108fc8290811502906040515f60405180830381858888f19350505050158015611315573d5f803e3d5ffd5b50815f015f9054906101000a900473ffffffffffffffffffffffffffffffffffffffff1673ffffffffffffffffffffffffffffffffffffffff167fceb720b06c310edc215bee81670832bb918ba1199f401716364414ddb9b816a782846002018560030160405161138893929190612397565b60405180910390a2505080806001019150506111e7565b505f805f8473ffffffffffffffffffffffffffffffffffffffff1673ffffffffffffffffffffffffffffffffffffffff1681526020019081526020015f20600301819055508173ffffffffffffffffffffffffffffffffffffffff167f16346f65adf8d84422b57ad74cb5607bf6c9e55c3c1fea66344057e5bba8a7ee60405160405180910390a25050565b5f604051905090565b5f80fd5b5f80fd5b5f73ffffffffffffffffffffffffffffffffffffffff82169050919050565b5f6114658261143c565b9050919050565b6114758161145b565b811461147f575f80fd5b50565b5f813590506114908161146c565b92915050565b5f819050919050565b6114a881611496565b81146114b2575f80fd5b50565b5f813590506114c38161149f565b92915050565b5f80fd5b5f80fd5b5f601f19601f8301169050919050565b7f4e487b71000000000000000000000000000000000000000000000000000000005f52604160045260245ffd5b611517826114d1565b810181811067ffffffffffffffff82111715611536576115356114e1565b5b80604052505050565b5f61154861142b565b9050611554828261150e565b919050565b5f67ffffffffffffffff821115611573576115726114e1565b5b61157c826114d1565b9050602081019050919050565b828183375f83830152505050565b5f6115a96115a484611559565b61153f565b9050828152602081018484840111156115c5576115c46114cd565b5b6115d0848285611589565b509392505050565b5f82601f8301126115ec576115eb6114c9565b5b81356115fc848260208601611597565b91505092915050565b5f805f806080858703121561161d5761161c611434565b5b5f61162a87828801611482565b945050602061163b878288016114b5565b935050604085013567ffffffffffffffff81111561165c5761165b611438565b5b611668878288016115d8565b925050606085013567ffffffffffffffff81111561168957611688611438565b5b611695878288016115d8565b91505092959194509250565b5f6116ab8261143c565b9050919050565b6116bb816116a1565b81146116c5575f80fd5b50565b5f813590506116d6816116b2565b92915050565b5f602082840312156116f1576116f0611434565b5b5f6116fe848285016116c8565b91505092915050565b5f8115159050919050565b61171b81611707565b82525050565b5f6020820190506117345f830184611712565b92915050565b5f81519050919050565b5f82825260208201905092915050565b5f819050602082019050919050565b61176c8161145b565b82525050565b61177b81611496565b82525050565b5f81519050919050565b5f82825260208201905092915050565b8281835e5f83830152505050565b5f6117b382611781565b6117bd818561178b565b93506117cd81856020860161179b565b6117d6816114d1565b840191505092915050565b5f608083015f8301516117f65f860182611763565b5060208301516118096020860182611772565b506040830151848203604086015261182182826117a9565b9150506060830151848203606086015261183b82826117a9565b9150508091505092915050565b5f61185383836117e1565b905092915050565b5f602082019050919050565b5f6118718261173a565b61187b8185611744565b93508360208202850161188d85611754565b805f5b858110156118c857848403895281516118a98582611848565b94506118b48361185b565b925060208a01995050600181019050611890565b50829750879550505050505092915050565b5f6020820190508181035f8301526118f28184611867565b905092915050565b5f80604083850312156119105761190f611434565b5b5f83013567ffffffffffffffff81111561192d5761192c611438565b5b611939858286016115d8565b925050602083013567ffffffffffffffff81111561195a57611959611438565b5b611966858286016115d8565b9150509250929050565b5f82825260208201905092915050565b5f61198a82611781565b6119948185611970565b93506119a481856020860161179b565b6119ad816114d1565b840191505092915050565b6119c181611496565b82525050565b5f6080820190508181035f8301526119df8187611980565b905081810360208301526119f38186611980565b9050611a0260408301856119b8565b611a0f6060830184611712565b95945050505050565b7f596f75206e65656420746f2063726561746520612077696c6c206669727374005f82015250565b5f611a4c601f83611970565b9150611a5782611a18565b602082019050919050565b5f6020820190508181035f830152611a7981611a40565b9050919050565b7f496e76616c69642077616c6c65742061646472657373000000000000000000005f82015250565b5f611ab4601683611970565b9150611abf82611a80565b602082019050919050565b5f6020820190508181035f830152611ae181611aa8565b9050919050565b7f496e76616c69642070657263656e7461676500000000000000000000000000005f82015250565b5f611b1c601283611970565b9150611b2782611ae8565b602082019050919050565b5f6020820190508181035f830152611b4981611b10565b9050919050565b7f4e487b71000000000000000000000000000000000000000000000000000000005f52603260045260245ffd5b7f4e487b71000000000000000000000000000000000000000000000000000000005f52601160045260245ffd5b5f611bb482611496565b9150611bbf83611496565b9250828201905080821115611bd757611bd6611b7d565b5b92915050565b7f546f74616c20616c6c6f636174696f6e206578636565647320313030250000005f82015250565b5f611c11601d83611970565b9150611c1c82611bdd565b602082019050919050565b5f6020820190508181035f830152611c3e81611c05565b9050919050565b7f4e487b71000000000000000000000000000000000000000000000000000000005f52602260045260245ffd5b5f6002820490506001821680611c8957607f821691505b602082108103611c9c57611c9b611c45565b5b50919050565b5f819050815f5260205f209050919050565b5f6020601f8301049050919050565b5f82821b905092915050565b5f60088302611cfe7fffffffffffffffffffffffffffffffffffffffffffffffffffffffffffffffff82611cc3565b611d088683611cc3565b95508019841693508086168417925050509392505050565b5f819050919050565b5f611d43611d3e611d3984611496565b611d20565b611496565b9050919050565b5f819050919050565b611d5c83611d29565b611d70611d6882611d4a565b848454611ccf565b825550505050565b5f90565b611d84611d78565b611d8f818484611d53565b505050565b5b81811015611db257611da75f82611d7c565b600181019050611d95565b5050565b601f821115611df757611dc881611ca2565b611dd184611cb4565b81016020851015611de0578190505b611df4611dec85611cb4565b830182611d94565b50505b505050565b5f82821c905092915050565b5f611e175f1984600802611dfc565b1980831691505092915050565b5f611e2f8383611e08565b9150826002028217905092915050565b611e4882611781565b67ffffffffffffffff811115611e6157611e606114e1565b5b611e6b8254611c72565b611e76828285611db6565b5f60209050601f831160018114611ea7575f8415611e95578287015190505b611e9f8582611e24565b865550611f06565b601f198416611eb586611ca2565b5f5b82811015611edc57848901518255600182019150602085019450602081019050611eb7565b86831015611ef95784890151611ef5601f891682611e08565b8355505b6001600288020188555050505b505050505050565b5f611f28611f23611f1e8461143c565b611d20565b61143c565b9050919050565b5f611f3982611f0e565b9050919050565b5f611f4a82611f2f565b9050919050565b611f5a81611f40565b82525050565b5f604082019050611f735f830185611f51565b611f8060208301846119b8565b9392505050565b7f596f752068617665206e6f74206372656174656420612077696c6c00000000005f82015250565b5f611fbb601b83611970565b9150611fc682611f87565b602082019050919050565b5f6020820190508181035f830152611fe881611faf565b9050919050565b7f57696c6c20616c726561647920657865637574656421000000000000000000005f82015250565b5f612023601683611970565b915061202e82611fef565b602082019050919050565b5f6020820190508181035f83015261205081612017565b9050919050565b7f4e6f2077696c6c20666f756e64210000000000000000000000000000000000005f82015250565b5f61208b600e83611970565b915061209682612057565b602082019050919050565b5f6020820190508181035f8301526120b88161207f565b9050919050565b7f596f7520616c7265616479206861766520612077696c6c2100000000000000005f82015250565b5f6120f3601883611970565b91506120fe826120bf565b602082019050919050565b5f6020820190508181035f830152612120816120e7565b9050919050565b7f4d757374206c6f636b20455448210000000000000000000000000000000000005f82015250565b5f61215b600e83611970565b915061216682612127565b602082019050919050565b5f6020820190508181035f8301526121888161214f565b9050919050565b5f6020820190506121a25f8301846119b8565b92915050565b7f4f776e6572206973207374696c6c20616c6976652100000000000000000000005f82015250565b5f6121dc601583611970565b91506121e7826121a8565b602082019050919050565b5f6020820190508181035f830152612209816121d0565b9050919050565b7f4e6f2045544820746f20646973747269627574650000000000000000000000005f82015250565b5f612244601483611970565b915061224f82612210565b602082019050919050565b5f6020820190508181035f83015261227181612238565b9050919050565b5f61228282611496565b915061228d83611496565b925082820261229b81611496565b915082820484148315176122b2576122b1611b7d565b5b5092915050565b7f4e487b71000000000000000000000000000000000000000000000000000000005f52601260045260245ffd5b5f6122f082611496565b91506122fb83611496565b92508261230b5761230a6122b9565b5b828204905092915050565b5f815461232281611c72565b61232c8186611970565b9450600182165f8114612346576001811461235c5761238e565b60ff19831686528115156020028601935061238e565b61236585611ca2565b5f5b8381101561238657815481890152600182019150602081019050612367565b808801955050505b50505092915050565b5f6060820190506123aa5f8301866119b8565b81810360208301526123bc8185612316565b905081810360408301526123d08184612316565b905094935050505056fea2646970667358221220b7abec9437034186867fd2bfeb013d175aa0358bacdfdfc00f6a4ad1d1f55b5664736f6c634300081a0033', \n     arguments: [\n     ]\n}).send({\n     from: web3.eth.accounts[0], \n     gas: '4700000'\n   }, function (e, contract){\n    console.log(e, contract);\n    if (typeof contract.address !== 'undefined') {\n         console.log('Contract mined! address: ' + contract.address + ' transactionHash: ' + contract.transactionHash);\n    }\n })",
	"functionHashes": {
		"4ebde6d3": "addBeneficiary(address,uint256,string,string)",
		"6f9b65f0": "confirmAlive()",
		"b0daeb1c": "createWill(string,string)",
		"e854d135": "executeWill(address)",
		"913b722c": "getBeneficiaries()",
		"cc4f9d5b": "getWillDetails()",
		"549cc7b8": "hasWill(address)"
	},
	"gasEstimates": {
		"Creation": {
			"codeDepositCost": "1846400",
			"executionCost": "1946",
			"totalCost": "1848346"
		},
		"External": {
			"addBeneficiary(address,uint256,string,string)": "infinite",
			"confirmAlive()": "26881",
			"createWill(string,string)": "infinite",
			"executeWill(address)": "infinite",
			"getBeneficiaries()": "infinite",
			"getWillDetails()": "infinite",
			"hasWill(address)": "2856"
		}
	},
	"devdoc": {
		"kind": "dev",
		"methods": {
			"addBeneficiary(address,uint256,string,string)": {
				"details": "Adds a beneficiary to the caller's will.",
				"params": {
					"_email": "Email of the beneficiary.",
					"_percentage": "Share of ETH to be allocated.",
					"_saleDeedIpfsHash": "IPFS hash of the sale deed document assigned to the beneficiary.",
					"_wallet": "Address of the beneficiary."
				}
			},
			"confirmAlive()": {
				"details": "Updates the proof-of-life timestamp."
			},
			"createWill(string,string)": {
				"details": "Creates a new will for the sender.",
				"params": {
					"_firstName": "First name of the testator.",
					"_lastName": "Last name of the testator."
				}
			},
			"executeWill(address)": {
				"details": "Executes the will by distributing ETH and triggering email notifications."
			},
			"getBeneficiaries()": {
				"details": "Gets beneficiaries of the caller's will."
			},
			"getWillDetails()": {
				"details": "Gets details of the caller's will."
			}
		},
		"version": 1
	},
	"userdoc": {
		"kind": "user",
		"methods": {},
		"version": 1
	},
	"Runtime Bytecode": {
		"immutableReferences": {},
		"linkReferences": {},
		"object": "60806040526004361061006f575f3560e01c8063913b722c1161004d578063913b722c146100ed578063b0daeb1c14610117578063cc4f9d5b14610133578063e854d135146101605761006f565b80634ebde6d314610073578063549cc7b81461009b5780636f9b65f0146100d7575b5f80fd5b34801561007e575f80fd5b5061009960048036038101906100949190611605565b610188565b005b3480156100a6575f80fd5b506100c160048036038101906100bc91906116dc565b610555565b6040516100ce9190611721565b60405180910390f35b3480156100e2575f80fd5b506100eb610572565b005b3480156100f8575f80fd5b506101016106cd565b60405161010e91906118da565b60405180910390f35b610131600480360381019061012c91906118fa565b61096d565b005b34801561013e575f80fd5b50610147610d1b565b60405161015794939291906119c7565b60405180910390f35b34801561016b575f80fd5b50610186600480360381019061018191906116dc565b610f29565b005b60015f3373ffffffffffffffffffffffffffffffffffffffff1673ffffffffffffffffffffffffffffffffffffffff1681526020019081526020015f205f9054906101000a900460ff16610211576040517f08c379a000000000000000000000000000000000000000000000000000000000815260040161020890611a62565b60405180910390fd5b5f73ffffffffffffffffffffffffffffffffffffffff168473ffffffffffffffffffffffffffffffffffffffff160361027f576040517f08c379a000000000000000000000000000000000000000000000000000000000815260040161027690611aca565b60405180910390fd5b5f8311801561028f575060648311155b6102ce576040517f08c379a00000000000000000000000000000000000000000000000000000000081526004016102c590611b32565b60405180910390fd5b5f805b5f803373ffffffffffffffffffffffffffffffffffffffff1673ffffffffffffffffffffffffffffffffffffffff1681526020019081526020015f2060070180549050811015610396575f803373ffffffffffffffffffffffffffffffffffffffff1673ffffffffffffffffffffffffffffffffffffffff1681526020019081526020015f20600701818154811061036c5761036b611b50565b5b905f5260205f20906004020160010154826103879190611baa565b915080806001019150506102d1565b50606484826103a59190611baa565b11156103e6576040517f08c379a00000000000000000000000000000000000000000000000000000000081526004016103dd90611c27565b60405180910390fd5b5f803373ffffffffffffffffffffffffffffffffffffffff1673ffffffffffffffffffffffffffffffffffffffff1681526020019081526020015f2060070160405180608001604052808773ffffffffffffffffffffffffffffffffffffffff16815260200186815260200185815260200184815250908060018154018082558091505060019003905f5260205f2090600402015f909190919091505f820151815f015f6101000a81548173ffffffffffffffffffffffffffffffffffffffff021916908373ffffffffffffffffffffffffffffffffffffffff1602179055506020820151816001015560408201518160020190816104e59190611e3f565b5060608201518160030190816104fb9190611e3f565b5050503373ffffffffffffffffffffffffffffffffffffffff167f5d081d791b64899adab031015397ef8d7600501212ef97573b9e50f8c9bb6d9b8686604051610546929190611f60565b60405180910390a25050505050565b6001602052805f5260405f205f915054906101000a900460ff1681565b60015f3373ffffffffffffffffffffffffffffffffffffffff1673ffffffffffffffffffffffffffffffffffffffff1681526020019081526020015f205f9054906101000a900460ff166105fb576040517f08c379a00000000000000000000000000000000000000000000000000000000081526004016105f290611fd1565b60405180910390fd5b5f803373ffffffffffffffffffffffffffffffffffffffff1673ffffffffffffffffffffffffffffffffffffffff1681526020019081526020015f206006015f9054906101000a900460ff1615610687576040517f08c379a000000000000000000000000000000000000000000000000000000000815260040161067e90612039565b60405180910390fd5b425f803373ffffffffffffffffffffffffffffffffffffffff1673ffffffffffffffffffffffffffffffffffffffff1681526020019081526020015f2060040181905550565b606060015f3373ffffffffffffffffffffffffffffffffffffffff1673ffffffffffffffffffffffffffffffffffffffff1681526020019081526020015f205f9054906101000a900460ff16610758576040517f08c379a000000000000000000000000000000000000000000000000000000000815260040161074f906120a1565b60405180910390fd5b5f803373ffffffffffffffffffffffffffffffffffffffff1673ffffffffffffffffffffffffffffffffffffffff1681526020019081526020015f20600701805480602002602001604051908101604052809291908181526020015f905b82821015610964578382905f5260205f2090600402016040518060800160405290815f82015f9054906101000a900473ffffffffffffffffffffffffffffffffffffffff1673ffffffffffffffffffffffffffffffffffffffff1673ffffffffffffffffffffffffffffffffffffffff1681526020016001820154815260200160028201805461084590611c72565b80601f016020809104026020016040519081016040528092919081815260200182805461087190611c72565b80156108bc5780601f10610893576101008083540402835291602001916108bc565b820191905f5260205f20905b81548152906001019060200180831161089f57829003601f168201915b505050505081526020016003820180546108d590611c72565b80601f016020809104026020016040519081016040528092919081815260200182805461090190611c72565b801561094c5780601f106109235761010080835404028352916020019161094c565b820191905f5260205f20905b81548152906001019060200180831161092f57829003601f168201915b505050505081525050815260200190600101906107b6565b50505050905090565b60015f3373ffffffffffffffffffffffffffffffffffffffff1673ffffffffffffffffffffffffffffffffffffffff1681526020019081526020015f205f9054906101000a900460ff16156109f7576040517f08c379a00000000000000000000000000000000000000000000000000000000081526004016109ee90612109565b60405180910390fd5b5f3411610a39576040517f08c379a0000000000000000000000000000000000000000000000000000000008152600401610a3090612171565b60405180910390fd5b335f803373ffffffffffffffffffffffffffffffffffffffff1673ffffffffffffffffffffffffffffffffffffffff1681526020019081526020015f205f015f6101000a81548173ffffffffffffffffffffffffffffffffffffffff021916908373ffffffffffffffffffffffffffffffffffffffff160217905550815f803373ffffffffffffffffffffffffffffffffffffffff1673ffffffffffffffffffffffffffffffffffffffff1681526020019081526020015f206001019081610b019190611e3f565b50805f803373ffffffffffffffffffffffffffffffffffffffff1673ffffffffffffffffffffffffffffffffffffffff1681526020019081526020015f206002019081610b4e9190611e3f565b50345f803373ffffffffffffffffffffffffffffffffffffffff1673ffffffffffffffffffffffffffffffffffffffff1681526020019081526020015f2060030181905550425f803373ffffffffffffffffffffffffffffffffffffffff1673ffffffffffffffffffffffffffffffffffffffff1681526020019081526020015f20600401819055506301e133805f803373ffffffffffffffffffffffffffffffffffffffff1673ffffffffffffffffffffffffffffffffffffffff1681526020019081526020015f20600501819055505f805f3373ffffffffffffffffffffffffffffffffffffffff1673ffffffffffffffffffffffffffffffffffffffff1681526020019081526020015f206006015f6101000a81548160ff0219169083151502179055506001805f3373ffffffffffffffffffffffffffffffffffffffff1673ffffffffffffffffffffffffffffffffffffffff1681526020019081526020015f205f6101000a81548160ff0219169083151502179055503373ffffffffffffffffffffffffffffffffffffffff167fd40dc4a639c90600691397f655099adba04d6b763ef2122630edd47c09f1b6f934604051610d0f919061218f565b60405180910390a25050565b6060805f8060015f3373ffffffffffffffffffffffffffffffffffffffff1673ffffffffffffffffffffffffffffffffffffffff1681526020019081526020015f205f9054906101000a900460ff16610da9576040517f08c379a0000000000000000000000000000000000000000000000000000000008152600401610da0906120a1565b60405180910390fd5b5f805f3373ffffffffffffffffffffffffffffffffffffffff1673ffffffffffffffffffffffffffffffffffffffff1681526020019081526020015f20905080600101816002018260030154836006015f9054906101000a900460ff16838054610e1290611c72565b80601f0160208091040260200160405190810160405280929190818152602001828054610e3e90611c72565b8015610e895780601f10610e6057610100808354040283529160200191610e89565b820191905f5260205f20905b815481529060010190602001808311610e6c57829003601f168201915b50505050509350828054610e9c90611c72565b80601f0160208091040260200160405190810160405280929190818152602001828054610ec890611c72565b8015610f135780601f10610eea57610100808354040283529160200191610f13565b820191905f5260205f20905b815481529060010190602001808311610ef657829003601f168201915b5050505050925094509450945094505090919293565b60015f8273ffffffffffffffffffffffffffffffffffffffff1673ffffffffffffffffffffffffffffffffffffffff1681526020019081526020015f205f9054906101000a900460ff16610fb2576040517f08c379a0000000000000000000000000000000000000000000000000000000008152600401610fa9906120a1565b60405180910390fd5b5f808273ffffffffffffffffffffffffffffffffffffffff1673ffffffffffffffffffffffffffffffffffffffff1681526020019081526020015f20600501545f808373ffffffffffffffffffffffffffffffffffffffff1673ffffffffffffffffffffffffffffffffffffffff1681526020019081526020015f206004015461103c9190611baa565b421161107d576040517f08c379a0000000000000000000000000000000000000000000000000000000008152600401611074906121f2565b60405180910390fd5b5f808273ffffffffffffffffffffffffffffffffffffffff1673ffffffffffffffffffffffffffffffffffffffff1681526020019081526020015f206006015f9054906101000a900460ff1615611109576040517f08c379a000000000000000000000000000000000000000000000000000000000815260040161110090612039565b60405180910390fd5b60015f808373ffffffffffffffffffffffffffffffffffffffff1673ffffffffffffffffffffffffffffffffffffffff1681526020019081526020015f206006015f6101000a81548160ff0219169083151502179055505f805f8373ffffffffffffffffffffffffffffffffffffffff1673ffffffffffffffffffffffffffffffffffffffff1681526020019081526020015f206003015490505f81116111e5576040517f08c379a00000000000000000000000000000000000000000000000000000000081526004016111dc9061225a565b60405180910390fd5b5f5b5f808473ffffffffffffffffffffffffffffffffffffffff1673ffffffffffffffffffffffffffffffffffffffff1681526020019081526020015f206007018054905081101561139f575f805f8573ffffffffffffffffffffffffffffffffffffffff1673ffffffffffffffffffffffffffffffffffffffff1681526020019081526020015f20600701828154811061128357611282611b50565b5b905f5260205f20906004020190505f60648260010154856112a49190612278565b6112ae91906122e6565b9050815f015f9054906101000a900473ffffffffffffffffffffffffffffffffffffffff1673ffffffffffffffffffffffffffffffffffffffff166108fc8290811502906040515f60405180830381858888f19350505050158015611315573d5f803e3d5ffd5b50815f015f9054906101000a900473ffffffffffffffffffffffffffffffffffffffff1673ffffffffffffffffffffffffffffffffffffffff167fceb720b06c310edc215bee81670832bb918ba1199f401716364414ddb9b816a782846002018560030160405161138893929190612397565b60405180910390a2505080806001019150506111e7565b505f805f8473ffffffffffffffffffffffffffffffffffffffff1673ffffffffffffffffffffffffffffffffffffffff1681526020019081526020015f20600301819055508173ffffffffffffffffffffffffffffffffffffffff167f16346f65adf8d84422b57ad74cb5607bf6c9e55c3c1fea66344057e5bba8a7ee60405160405180910390a25050565b5f604051905090565b5f80fd5b5f80fd5b5f73ffffffffffffffffffffffffffffffffffffffff82169050919050565b5f6114658261143c565b9050919050565b6114758161145b565b811461147f575f80fd5b50565b5f813590506114908161146c565b92915050565b5f819050919050565b6114a881611496565b81146114b2575f80fd5b50565b5f813590506114c38161149f565b92915050565b5f80fd5b5f80fd5b5f601f19601f8301169050919050565b7f4e487b71000000000000000000000000000000000000000000000000000000005f52604160045260245ffd5b611517826114d1565b810181811067ffffffffffffffff82111715611536576115356114e1565b5b80604052505050565b5f61154861142b565b9050611554828261150e565b919050565b5f67ffffffffffffffff821115611573576115726114e1565b5b61157c826114d1565b9050602081019050919050565b828183375f83830152505050565b5f6115a96115a484611559565b61153f565b9050828152602081018484840111156115c5576115c46114cd565b5b6115d0848285611589565b509392505050565b5f82601f8301126115ec576115eb6114c9565b5b81356115fc848260208601611597565b91505092915050565b5f805f806080858703121561161d5761161c611434565b5b5f61162a87828801611482565b945050602061163b878288016114b5565b935050604085013567ffffffffffffffff81111561165c5761165b611438565b5b611668878288016115d8565b925050606085013567ffffffffffffffff81111561168957611688611438565b5b611695878288016115d8565b91505092959194509250565b5f6116ab8261143c565b9050919050565b6116bb816116a1565b81146116c5575f80fd5b50565b5f813590506116d6816116b2565b92915050565b5f602082840312156116f1576116f0611434565b5b5f6116fe848285016116c8565b91505092915050565b5f8115159050919050565b61171b81611707565b82525050565b5f6020820190506117345f830184611712565b92915050565b5f81519050919050565b5f82825260208201905092915050565b5f819050602082019050919050565b61176c8161145b565b82525050565b61177b81611496565b82525050565b5f81519050919050565b5f82825260208201905092915050565b8281835e5f83830152505050565b5f6117b382611781565b6117bd818561178b565b93506117cd81856020860161179b565b6117d6816114d1565b840191505092915050565b5f608083015f8301516117f65f860182611763565b5060208301516118096020860182611772565b506040830151848203604086015261182182826117a9565b9150506060830151848203606086015261183b82826117a9565b9150508091505092915050565b5f61185383836117e1565b905092915050565b5f602082019050919050565b5f6118718261173a565b61187b8185611744565b93508360208202850161188d85611754565b805f5b858110156118c857848403895281516118a98582611848565b94506118b48361185b565b925060208a01995050600181019050611890565b50829750879550505050505092915050565b5f6020820190508181035f8301526118f28184611867565b905092915050565b5f80604083850312156119105761190f611434565b5b5f83013567ffffffffffffffff81111561192d5761192c611438565b5b611939858286016115d8565b925050602083013567ffffffffffffffff81111561195a57611959611438565b5b611966858286016115d8565b9150509250929050565b5f82825260208201905092915050565b5f61198a82611781565b6119948185611970565b93506119a481856020860161179b565b6119ad816114d1565b840191505092915050565b6119c181611496565b82525050565b5f6080820190508181035f8301526119df8187611980565b905081810360208301526119f38186611980565b9050611a0260408301856119b8565b611a0f6060830184611712565b95945050505050565b7f596f75206e65656420746f2063726561746520612077696c6c206669727374005f82015250565b5f611a4c601f83611970565b9150611a5782611a18565b602082019050919050565b5f6020820190508181035f830152611a7981611a40565b9050919050565b7f496e76616c69642077616c6c65742061646472657373000000000000000000005f82015250565b5f611ab4601683611970565b9150611abf82611a80565b602082019050919050565b5f6020820190508181035f830152611ae181611aa8565b9050919050565b7f496e76616c69642070657263656e7461676500000000000000000000000000005f82015250565b5f611b1c601283611970565b9150611b2782611ae8565b602082019050919050565b5f6020820190508181035f830152611b4981611b10565b9050919050565b7f4e487b71000000000000000000000000000000000000000000000000000000005f52603260045260245ffd5b7f4e487b71000000000000000000000000000000000000000000000000000000005f52601160045260245ffd5b5f611bb482611496565b9150611bbf83611496565b9250828201905080821115611bd757611bd6611b7d565b5b92915050565b7f546f74616c20616c6c6f636174696f6e206578636565647320313030250000005f82015250565b5f611c11601d83611970565b9150611c1c82611bdd565b602082019050919050565b5f6020820190508181035f830152611c3e81611c05565b9050919050565b7f4e487b71000000000000000000000000000000000000000000000000000000005f52602260045260245ffd5b5f6002820490506001821680611c8957607f821691505b602082108103611c9c57611c9b611c45565b5b50919050565b5f819050815f5260205f209050919050565b5f6020601f8301049050919050565b5f82821b905092915050565b5f60088302611cfe7fffffffffffffffffffffffffffffffffffffffffffffffffffffffffffffffff82611cc3565b611d088683611cc3565b95508019841693508086168417925050509392505050565b5f819050919050565b5f611d43611d3e611d3984611496565b611d20565b611496565b9050919050565b5f819050919050565b611d5c83611d29565b611d70611d6882611d4a565b848454611ccf565b825550505050565b5f90565b611d84611d78565b611d8f818484611d53565b505050565b5b81811015611db257611da75f82611d7c565b600181019050611d95565b5050565b601f821115611df757611dc881611ca2565b611dd184611cb4565b81016020851015611de0578190505b611df4611dec85611cb4565b830182611d94565b50505b505050565b5f82821c905092915050565b5f611e175f1984600802611dfc565b1980831691505092915050565b5f611e2f8383611e08565b9150826002028217905092915050565b611e4882611781565b67ffffffffffffffff811115611e6157611e606114e1565b5b611e6b8254611c72565b611e76828285611db6565b5f60209050601f831160018114611ea7575f8415611e95578287015190505b611e9f8582611e24565b865550611f06565b601f198416611eb586611ca2565b5f5b82811015611edc57848901518255600182019150602085019450602081019050611eb7565b86831015611ef95784890151611ef5601f891682611e08565b8355505b6001600288020188555050505b505050505050565b5f611f28611f23611f1e8461143c565b611d20565b61143c565b9050919050565b5f611f3982611f0e565b9050919050565b5f611f4a82611f2f565b9050919050565b611f5a81611f40565b82525050565b5f604082019050611f735f830185611f51565b611f8060208301846119b8565b9392505050565b7f596f752068617665206e6f74206372656174656420612077696c6c00000000005f82015250565b5f611fbb601b83611970565b9150611fc682611f87565b602082019050919050565b5f6020820190508181035f830152611fe881611faf565b9050919050565b7f57696c6c20616c726561647920657865637574656421000000000000000000005f82015250565b5f612023601683611970565b915061202e82611fef565b602082019050919050565b5f6020820190508181035f83015261205081612017565b9050919050565b7f4e6f2077696c6c20666f756e64210000000000000000000000000000000000005f82015250565b5f61208b600e83611970565b915061209682612057565b602082019050919050565b5f6020820190508181035f8301526120b88161207f565b9050919050565b7f596f7520616c7265616479206861766520612077696c6c2100000000000000005f82015250565b5f6120f3601883611970565b91506120fe826120bf565b602082019050919050565b5f6020820190508181035f830152612120816120e7565b9050919050565b7f4d757374206c6f636b20455448210000000000000000000000000000000000005f82015250565b5f61215b600e83611970565b915061216682612127565b602082019050919050565b5f6020820190508181035f8301526121888161214f565b9050919050565b5f6020820190506121a25f8301846119b8565b92915050565b7f4f776e6572206973207374696c6c20616c6976652100000000000000000000005f82015250565b5f6121dc601583611970565b91506121e7826121a8565b602082019050919050565b5f6020820190508181035f830152612209816121d0565b9050919050565b7f4e6f2045544820746f20646973747269627574650000000000000000000000005f82015250565b5f612244601483611970565b915061224f82612210565b602082019050919050565b5f6020820190508181035f83015261227181612238565b9050919050565b5f61228282611496565b915061228d83611496565b925082820261229b81611496565b915082820484148315176122b2576122b1611b7d565b5b5092915050565b7f4e487b71000000000000000000000000000000000000000000000000000000005f52601260045260245ffd5b5f6122f082611496565b91506122fb83611496565b92508261230b5761230a6122b9565b5b828204905092915050565b5f815461232281611c72565b61232c8186611970565b9450600182165f8114612346576001811461235c5761238e565b60ff19831686528115156020028601935061238e565b61236585611ca2565b5f5b8381101561238657815481890152600182019150602081019050612367565b808801955050505b50505092915050565b5f6060820190506123aa5f8301866119b8565b81810360208301526123bc8185612316565b905081810360408301526123d08184612316565b905094935050505056fea2646970667358221220b7abec9437034186867fd2bfeb013d175aa0358bacdfdfc00f6a4ad1d1f55b5664736f6c634300081a0033",
		"opcodes": "PUSH1 0x80 PUSH1 0x40 MSTORE PUSH1 0x4 CALLDATASIZE LT PUSH2 0x6F JUMPI PUSH0 CALLDATALOAD PUSH1 0xE0 SHR DUP1 PUSH4 0x913B722C GT PUSH2 0x4D JUMPI DUP1 PUSH4 0x913B722C EQ PUSH2 0xED JUMPI DUP1 PUSH4 0xB0DAEB1C EQ PUSH2 0x117 JUMPI DUP1 PUSH4 0xCC4F9D5B EQ PUSH2 0x133 JUMPI DUP1 PUSH4 0xE854D135 EQ PUSH2 0x160 JUMPI PUSH2 0x6F JUMP JUMPDEST DUP1 PUSH4 0x4EBDE6D3 EQ PUSH2 0x73 JUMPI DUP1 PUSH4 0x549CC7B8 EQ PUSH2 0x9B JUMPI DUP1 PUSH4 0x6F9B65F0 EQ PUSH2 0xD7 JUMPI JUMPDEST PUSH0 DUP1 REVERT JUMPDEST CALLVALUE DUP1 ISZERO PUSH2 0x7E JUMPI PUSH0 DUP1 REVERT JUMPDEST POP PUSH2 0x99 PUSH1 0x4 DUP1 CALLDATASIZE SUB DUP2 ADD SWAP1 PUSH2 0x94 SWAP2 SWAP1 PUSH2 0x1605 JUMP JUMPDEST PUSH2 0x188 JUMP JUMPDEST STOP JUMPDEST CALLVALUE DUP1 ISZERO PUSH2 0xA6 JUMPI PUSH0 DUP1 REVERT JUMPDEST POP PUSH2 0xC1 PUSH1 0x4 DUP1 CALLDATASIZE SUB DUP2 ADD SWAP1 PUSH2 0xBC SWAP2 SWAP1 PUSH2 0x16DC JUMP JUMPDEST PUSH2 0x555 JUMP JUMPDEST PUSH1 0x40 MLOAD PUSH2 0xCE SWAP2 SWAP1 PUSH2 0x1721 JUMP JUMPDEST PUSH1 0x40 MLOAD DUP1 SWAP2 SUB SWAP1 RETURN JUMPDEST CALLVALUE DUP1 ISZERO PUSH2 0xE2 JUMPI PUSH0 DUP1 REVERT JUMPDEST POP PUSH2 0xEB PUSH2 0x572 JUMP JUMPDEST STOP JUMPDEST CALLVALUE DUP1 ISZERO PUSH2 0xF8 JUMPI PUSH0 DUP1 REVERT JUMPDEST POP PUSH2 0x101 PUSH2 0x6CD JUMP JUMPDEST PUSH1 0x40 MLOAD PUSH2 0x10E SWAP2 SWAP1 PUSH2 0x18DA JUMP JUMPDEST PUSH1 0x40 MLOAD DUP1 SWAP2 SUB SWAP1 RETURN JUMPDEST PUSH2 0x131 PUSH1 0x4 DUP1 CALLDATASIZE SUB DUP2 ADD SWAP1 PUSH2 0x12C SWAP2 SWAP1 PUSH2 0x18FA JUMP JUMPDEST PUSH2 0x96D JUMP JUMPDEST STOP JUMPDEST CALLVALUE DUP1 ISZERO PUSH2 0x13E JUMPI PUSH0 DUP1 REVERT JUMPDEST POP PUSH2 0x147 PUSH2 0xD1B JUMP JUMPDEST PUSH1 0x40 MLOAD PUSH2 0x157 SWAP5 SWAP4 SWAP3 SWAP2 SWAP1 PUSH2 0x19C7 JUMP JUMPDEST PUSH1 0x40 MLOAD DUP1 SWAP2 SUB SWAP1 RETURN JUMPDEST CALLVALUE DUP1 ISZERO PUSH2 0x16B JUMPI PUSH0 DUP1 REVERT JUMPDEST POP PUSH2 0x186 PUSH1 0x4 DUP1 CALLDATASIZE SUB DUP2 ADD SWAP1 PUSH2 0x181 SWAP2 SWAP1 PUSH2 0x16DC JUMP JUMPDEST PUSH2 0xF29 JUMP JUMPDEST STOP JUMPDEST PUSH1 0x1 PUSH0 CALLER PUSH20 0xFFFFFFFFFFFFFFFFFFFFFFFFFFFFFFFFFFFFFFFF AND PUSH20 0xFFFFFFFFFFFFFFFFFFFFFFFFFFFFFFFFFFFFFFFF AND DUP2 MSTORE PUSH1 0x20 ADD SWAP1 DUP2 MSTORE PUSH1 0x20 ADD PUSH0 KECCAK256 PUSH0 SWAP1 SLOAD SWAP1 PUSH2 0x100 EXP SWAP1 DIV PUSH1 0xFF AND PUSH2 0x211 JUMPI PUSH1 0x40 MLOAD PUSH32 0x8C379A000000000000000000000000000000000000000000000000000000000 DUP2 MSTORE PUSH1 0x4 ADD PUSH2 0x208 SWAP1 PUSH2 0x1A62 JUMP JUMPDEST PUSH1 0x40 MLOAD DUP1 SWAP2 SUB SWAP1 REVERT JUMPDEST PUSH0 PUSH20 0xFFFFFFFFFFFFFFFFFFFFFFFFFFFFFFFFFFFFFFFF AND DUP5 PUSH20 0xFFFFFFFFFFFFFFFFFFFFFFFFFFFFFFFFFFFFFFFF AND SUB PUSH2 0x27F JUMPI PUSH1 0x40 MLOAD PUSH32 0x8C379A000000000000000000000000000000000000000000000000000000000 DUP2 MSTORE PUSH1 0x4 ADD PUSH2 0x276 SWAP1 PUSH2 0x1ACA JUMP JUMPDEST PUSH1 0x40 MLOAD DUP1 SWAP2 SUB SWAP1 REVERT JUMPDEST PUSH0 DUP4 GT DUP1 ISZERO PUSH2 0x28F JUMPI POP PUSH1 0x64 DUP4 GT ISZERO JUMPDEST PUSH2 0x2CE JUMPI PUSH1 0x40 MLOAD PUSH32 0x8C379A000000000000000000000000000000000000000000000000000000000 DUP2 MSTORE PUSH1 0x4 ADD PUSH2 0x2C5 SWAP1 PUSH2 0x1B32 JUMP JUMPDEST PUSH1 0x40 MLOAD DUP1 SWAP2 SUB SWAP1 REVERT JUMPDEST PUSH0 DUP1 JUMPDEST PUSH0 DUP1 CALLER PUSH20 0xFFFFFFFFFFFFFFFFFFFFFFFFFFFFFFFFFFFFFFFF AND PUSH20 0xFFFFFFFFFFFFFFFFFFFFFFFFFFFFFFFFFFFFFFFF AND DUP2 MSTORE PUSH1 0x20 ADD SWAP1 DUP2 MSTORE PUSH1 0x20 ADD PUSH0 KECCAK256 PUSH1 0x7 ADD DUP1 SLOAD SWAP1 POP DUP2 LT ISZERO PUSH2 0x396 JUMPI PUSH0 DUP1 CALLER PUSH20 0xFFFFFFFFFFFFFFFFFFFFFFFFFFFFFFFFFFFFFFFF AND PUSH20 0xFFFFFFFFFFFFFFFFFFFFFFFFFFFFFFFFFFFFFFFF AND DUP2 MSTORE PUSH1 0x20 ADD SWAP1 DUP2 MSTORE PUSH1 0x20 ADD PUSH0 KECCAK256 PUSH1 0x7 ADD DUP2 DUP2 SLOAD DUP2 LT PUSH2 0x36C JUMPI PUSH2 0x36B PUSH2 0x1B50 JUMP JUMPDEST JUMPDEST SWAP1 PUSH0 MSTORE PUSH1 0x20 PUSH0 KECCAK256 SWAP1 PUSH1 0x4 MUL ADD PUSH1 0x1 ADD SLOAD DUP3 PUSH2 0x387 SWAP2 SWAP1 PUSH2 0x1BAA JUMP JUMPDEST SWAP2 POP DUP1 DUP1 PUSH1 0x1 ADD SWAP2 POP POP PUSH2 0x2D1 JUMP JUMPDEST POP PUSH1 0x64 DUP5 DUP3 PUSH2 0x3A5 SWAP2 SWAP1 PUSH2 0x1BAA JUMP JUMPDEST GT ISZERO PUSH2 0x3E6 JUMPI PUSH1 0x40 MLOAD PUSH32 0x8C379A000000000000000000000000000000000000000000000000000000000 DUP2 MSTORE PUSH1 0x4 ADD PUSH2 0x3DD SWAP1 PUSH2 0x1C27 JUMP JUMPDEST PUSH1 0x40 MLOAD DUP1 SWAP2 SUB SWAP1 REVERT JUMPDEST PUSH0 DUP1 CALLER PUSH20 0xFFFFFFFFFFFFFFFFFFFFFFFFFFFFFFFFFFFFFFFF AND PUSH20 0xFFFFFFFFFFFFFFFFFFFFFFFFFFFFFFFFFFFFFFFF AND DUP2 MSTORE PUSH1 0x20 ADD SWAP1 DUP2 MSTORE PUSH1 0x20 ADD PUSH0 KECCAK256 PUSH1 0x7 ADD PUSH1 0x40 MLOAD DUP1 PUSH1 0x80 ADD PUSH1 0x40 MSTORE DUP1 DUP8 PUSH20 0xFFFFFFFFFFFFFFFFFFFFFFFFFFFFFFFFFFFFFFFF AND DUP2 MSTORE PUSH1 0x20 ADD DUP7 DUP2 MSTORE PUSH1 0x20 ADD DUP6 DUP2 MSTORE PUSH1 0x20 ADD DUP5 DUP2 MSTORE POP SWAP1 DUP1 PUSH1 0x1 DUP2 SLOAD ADD DUP1 DUP3 SSTORE DUP1 SWAP2 POP POP PUSH1 0x1 SWAP1 SUB SWAP1 PUSH0 MSTORE PUSH1 0x20 PUSH0 KECCAK256 SWAP1 PUSH1 0x4 MUL ADD PUSH0 SWAP1 SWAP2 SWAP1 SWAP2 SWAP1 SWAP2 POP PUSH0 DUP3 ADD MLOAD DUP2 PUSH0 ADD PUSH0 PUSH2 0x100 EXP DUP2 SLOAD DUP2 PUSH20 0xFFFFFFFFFFFFFFFFFFFFFFFFFFFFFFFFFFFFFFFF MUL NOT AND SWAP1 DUP4 PUSH20 0xFFFFFFFFFFFFFFFFFFFFFFFFFFFFFFFFFFFFFFFF AND MUL OR SWAP1 SSTORE POP PUSH1 0x20 DUP3 ADD MLOAD DUP2 PUSH1 0x1 ADD SSTORE PUSH1 0x40 DUP3 ADD MLOAD DUP2 PUSH1 0x2 ADD SWAP1 DUP2 PUSH2 0x4E5 SWAP2 SWAP1 PUSH2 0x1E3F JUMP JUMPDEST POP PUSH1 0x60 DUP3 ADD MLOAD DUP2 PUSH1 0x3 ADD SWAP1 DUP2 PUSH2 0x4FB SWAP2 SWAP1 PUSH2 0x1E3F JUMP JUMPDEST POP POP POP CALLER PUSH20 0xFFFFFFFFFFFFFFFFFFFFFFFFFFFFFFFFFFFFFFFF AND PUSH32 0x5D081D791B64899ADAB031015397EF8D7600501212EF97573B9E50F8C9BB6D9B DUP7 DUP7 PUSH1 0x40 MLOAD PUSH2 0x546 SWAP3 SWAP2 SWAP1 PUSH2 0x1F60 JUMP JUMPDEST PUSH1 0x40 MLOAD DUP1 SWAP2 SUB SWAP1 LOG2 POP POP POP POP POP JUMP JUMPDEST PUSH1 0x1 PUSH1 0x20 MSTORE DUP1 PUSH0 MSTORE PUSH1 0x40 PUSH0 KECCAK256 PUSH0 SWAP2 POP SLOAD SWAP1 PUSH2 0x100 EXP SWAP1 DIV PUSH1 0xFF AND DUP2 JUMP JUMPDEST PUSH1 0x1 PUSH0 CALLER PUSH20 0xFFFFFFFFFFFFFFFFFFFFFFFFFFFFFFFFFFFFFFFF AND PUSH20 0xFFFFFFFFFFFFFFFFFFFFFFFFFFFFFFFFFFFFFFFF AND DUP2 MSTORE PUSH1 0x20 ADD SWAP1 DUP2 MSTORE PUSH1 0x20 ADD PUSH0 KECCAK256 PUSH0 SWAP1 SLOAD SWAP1 PUSH2 0x100 EXP SWAP1 DIV PUSH1 0xFF AND PUSH2 0x5FB JUMPI PUSH1 0x40 MLOAD PUSH32 0x8C379A000000000000000000000000000000000000000000000000000000000 DUP2 MSTORE PUSH1 0x4 ADD PUSH2 0x5F2 SWAP1 PUSH2 0x1FD1 JUMP JUMPDEST PUSH1 0x40 MLOAD DUP1 SWAP2 SUB SWAP1 REVERT JUMPDEST PUSH0 DUP1 CALLER PUSH20 0xFFFFFFFFFFFFFFFFFFFFFFFFFFFFFFFFFFFFFFFF AND PUSH20 0xFFFFFFFFFFFFFFFFFFFFFFFFFFFFFFFFFFFFFFFF AND DUP2 MSTORE PUSH1 0x20 ADD SWAP1 DUP2 MSTORE PUSH1 0x20 ADD PUSH0 KECCAK256 PUSH1 0x6 ADD PUSH0 SWAP1 SLOAD SWAP1 PUSH2 0x100 EXP SWAP1 DIV PUSH1 0xFF AND ISZERO PUSH2 0x687 JUMPI PUSH1 0x40 MLOAD PUSH32 0x8C379A000000000000000000000000000000000000000000000000000000000 DUP2 MSTORE PUSH1 0x4 ADD PUSH2 0x67E SWAP1 PUSH2 0x2039 JUMP JUMPDEST PUSH1 0x40 MLOAD DUP1 SWAP2 SUB SWAP1 REVERT JUMPDEST TIMESTAMP PUSH0 DUP1 CALLER PUSH20 0xFFFFFFFFFFFFFFFFFFFFFFFFFFFFFFFFFFFFFFFF AND PUSH20 0xFFFFFFFFFFFFFFFFFFFFFFFFFFFFFFFFFFFFFFFF AND DUP2 MSTORE PUSH1 0x20 ADD SWAP1 DUP2 MSTORE PUSH1 0x20 ADD PUSH0 KECCAK256 PUSH1 0x4 ADD DUP2 SWAP1 SSTORE POP JUMP JUMPDEST PUSH1 0x60 PUSH1 0x1 PUSH0 CALLER PUSH20 0xFFFFFFFFFFFFFFFFFFFFFFFFFFFFFFFFFFFFFFFF AND PUSH20 0xFFFFFFFFFFFFFFFFFFFFFFFFFFFFFFFFFFFFFFFF AND DUP2 MSTORE PUSH1 0x20 ADD SWAP1 DUP2 MSTORE PUSH1 0x20 ADD PUSH0 KECCAK256 PUSH0 SWAP1 SLOAD SWAP1 PUSH2 0x100 EXP SWAP1 DIV PUSH1 0xFF AND PUSH2 0x758 JUMPI PUSH1 0x40 MLOAD PUSH32 0x8C379A000000000000000000000000000000000000000000000000000000000 DUP2 MSTORE PUSH1 0x4 ADD PUSH2 0x74F SWAP1 PUSH2 0x20A1 JUMP JUMPDEST PUSH1 0x40 MLOAD DUP1 SWAP2 SUB SWAP1 REVERT JUMPDEST PUSH0 DUP1 CALLER PUSH20 0xFFFFFFFFFFFFFFFFFFFFFFFFFFFFFFFFFFFFFFFF AND PUSH20 0xFFFFFFFFFFFFFFFFFFFFFFFFFFFFFFFFFFFFFFFF AND DUP2 MSTORE PUSH1 0x20 ADD SWAP1 DUP2 MSTORE PUSH1 0x20 ADD PUSH0 KECCAK256 PUSH1 0x7 ADD DUP1 SLOAD DUP1 PUSH1 0x20 MUL PUSH1 0x20 ADD PUSH1 0x40 MLOAD SWAP1 DUP2 ADD PUSH1 0x40 MSTORE DUP1 SWAP3 SWAP2 SWAP1 DUP2 DUP2 MSTORE PUSH1 0x20 ADD PUSH0 SWAP1 JUMPDEST DUP3 DUP3 LT ISZERO PUSH2 0x964 JUMPI DUP4 DUP3 SWAP1 PUSH0 MSTORE PUSH1 0x20 PUSH0 KECCAK256 SWAP1 PUSH1 0x4 MUL ADD PUSH1 0x40 MLOAD DUP1 PUSH1 0x80 ADD PUSH1 0x40 MSTORE SWAP1 DUP2 PUSH0 DUP3 ADD PUSH0 SWAP1 SLOAD SWAP1 PUSH2 0x100 EXP SWAP1 DIV PUSH20 0xFFFFFFFFFFFFFFFFFFFFFFFFFFFFFFFFFFFFFFFF AND PUSH20 0xFFFFFFFFFFFFFFFFFFFFFFFFFFFFFFFFFFFFFFFF AND PUSH20 0xFFFFFFFFFFFFFFFFFFFFFFFFFFFFFFFFFFFFFFFF AND DUP2 MSTORE PUSH1 0x20 ADD PUSH1 0x1 DUP3 ADD SLOAD DUP2 MSTORE PUSH1 0x20 ADD PUSH1 0x2 DUP3 ADD DUP1 SLOAD PUSH2 0x845 SWAP1 PUSH2 0x1C72 JUMP JUMPDEST DUP1 PUSH1 0x1F ADD PUSH1 0x20 DUP1 SWAP2 DIV MUL PUSH1 0x20 ADD PUSH1 0x40 MLOAD SWAP1 DUP2 ADD PUSH1 0x40 MSTORE DUP1 SWAP3 SWAP2 SWAP1 DUP2 DUP2 MSTORE PUSH1 0x20 ADD DUP3 DUP1 SLOAD PUSH2 0x871 SWAP1 PUSH2 0x1C72 JUMP JUMPDEST DUP1 ISZERO PUSH2 0x8BC JUMPI DUP1 PUSH1 0x1F LT PUSH2 0x893 JUMPI PUSH2 0x100 DUP1 DUP4 SLOAD DIV MUL DUP4 MSTORE SWAP2 PUSH1 0x20 ADD SWAP2 PUSH2 0x8BC JUMP JUMPDEST DUP3 ADD SWAP2 SWAP1 PUSH0 MSTORE PUSH1 0x20 PUSH0 KECCAK256 SWAP1 JUMPDEST DUP2 SLOAD DUP2 MSTORE SWAP1 PUSH1 0x1 ADD SWAP1 PUSH1 0x20 ADD DUP1 DUP4 GT PUSH2 0x89F JUMPI DUP3 SWAP1 SUB PUSH1 0x1F AND DUP3 ADD SWAP2 JUMPDEST POP POP POP POP POP DUP2 MSTORE PUSH1 0x20 ADD PUSH1 0x3 DUP3 ADD DUP1 SLOAD PUSH2 0x8D5 SWAP1 PUSH2 0x1C72 JUMP JUMPDEST DUP1 PUSH1 0x1F ADD PUSH1 0x20 DUP1 SWAP2 DIV MUL PUSH1 0x20 ADD PUSH1 0x40 MLOAD SWAP1 DUP2 ADD PUSH1 0x40 MSTORE DUP1 SWAP3 SWAP2 SWAP1 DUP2 DUP2 MSTORE PUSH1 0x20 ADD DUP3 DUP1 SLOAD PUSH2 0x901 SWAP1 PUSH2 0x1C72 JUMP JUMPDEST DUP1 ISZERO PUSH2 0x94C JUMPI DUP1 PUSH1 0x1F LT PUSH2 0x923 JUMPI PUSH2 0x100 DUP1 DUP4 SLOAD DIV MUL DUP4 MSTORE SWAP2 PUSH1 0x20 ADD SWAP2 PUSH2 0x94C JUMP JUMPDEST DUP3 ADD SWAP2 SWAP1 PUSH0 MSTORE PUSH1 0x20 PUSH0 KECCAK256 SWAP1 JUMPDEST DUP2 SLOAD DUP2 MSTORE SWAP1 PUSH1 0x1 ADD SWAP1 PUSH1 0x20 ADD DUP1 DUP4 GT PUSH2 0x92F JUMPI DUP3 SWAP1 SUB PUSH1 0x1F AND DUP3 ADD SWAP2 JUMPDEST POP POP POP POP POP DUP2 MSTORE POP POP DUP2 MSTORE PUSH1 0x20 ADD SWAP1 PUSH1 0x1 ADD SWAP1 PUSH2 0x7B6 JUMP JUMPDEST POP POP POP POP SWAP1 POP SWAP1 JUMP JUMPDEST PUSH1 0x1 PUSH0 CALLER PUSH20 0xFFFFFFFFFFFFFFFFFFFFFFFFFFFFFFFFFFFFFFFF AND PUSH20 0xFFFFFFFFFFFFFFFFFFFFFFFFFFFFFFFFFFFFFFFF AND DUP2 MSTORE PUSH1 0x20 ADD SWAP1 DUP2 MSTORE PUSH1 0x20 ADD PUSH0 KECCAK256 PUSH0 SWAP1 SLOAD SWAP1 PUSH2 0x100 EXP SWAP1 DIV PUSH1 0xFF AND ISZERO PUSH2 0x9F7 JUMPI PUSH1 0x40 MLOAD PUSH32 0x8C379A000000000000000000000000000000000000000000000000000000000 DUP2 MSTORE PUSH1 0x4 ADD PUSH2 0x9EE SWAP1 PUSH2 0x2109 JUMP JUMPDEST PUSH1 0x40 MLOAD DUP1 SWAP2 SUB SWAP1 REVERT JUMPDEST PUSH0 CALLVALUE GT PUSH2 0xA39 JUMPI PUSH1 0x40 MLOAD PUSH32 0x8C379A000000000000000000000000000000000000000000000000000000000 DUP2 MSTORE PUSH1 0x4 ADD PUSH2 0xA30 SWAP1 PUSH2 0x2171 JUMP JUMPDEST PUSH1 0x40 MLOAD DUP1 SWAP2 SUB SWAP1 REVERT JUMPDEST CALLER PUSH0 DUP1 CALLER PUSH20 0xFFFFFFFFFFFFFFFFFFFFFFFFFFFFFFFFFFFFFFFF AND PUSH20 0xFFFFFFFFFFFFFFFFFFFFFFFFFFFFFFFFFFFFFFFF AND DUP2 MSTORE PUSH1 0x20 ADD SWAP1 DUP2 MSTORE PUSH1 0x20 ADD PUSH0 KECCAK256 PUSH0 ADD PUSH0 PUSH2 0x100 EXP DUP2 SLOAD DUP2 PUSH20 0xFFFFFFFFFFFFFFFFFFFFFFFFFFFFFFFFFFFFFFFF MUL NOT AND SWAP1 DUP4 PUSH20 0xFFFFFFFFFFFFFFFFFFFFFFFFFFFFFFFFFFFFFFFF AND MUL OR SWAP1 SSTORE POP DUP2 PUSH0 DUP1 CALLER PUSH20 0xFFFFFFFFFFFFFFFFFFFFFFFFFFFFFFFFFFFFFFFF AND PUSH20 0xFFFFFFFFFFFFFFFFFFFFFFFFFFFFFFFFFFFFFFFF AND DUP2 MSTORE PUSH1 0x20 ADD SWAP1 DUP2 MSTORE PUSH1 0x20 ADD PUSH0 KECCAK256 PUSH1 0x1 ADD SWAP1 DUP2 PUSH2 0xB01 SWAP2 SWAP1 PUSH2 0x1E3F JUMP JUMPDEST POP DUP1 PUSH0 DUP1 CALLER PUSH20 0xFFFFFFFFFFFFFFFFFFFFFFFFFFFFFFFFFFFFFFFF AND PUSH20 0xFFFFFFFFFFFFFFFFFFFFFFFFFFFFFFFFFFFFFFFF AND DUP2 MSTORE PUSH1 0x20 ADD SWAP1 DUP2 MSTORE PUSH1 0x20 ADD PUSH0 KECCAK256 PUSH1 0x2 ADD SWAP1 DUP2 PUSH2 0xB4E SWAP2 SWAP1 PUSH2 0x1E3F JUMP JUMPDEST POP CALLVALUE PUSH0 DUP1 CALLER PUSH20 0xFFFFFFFFFFFFFFFFFFFFFFFFFFFFFFFFFFFFFFFF AND PUSH20 0xFFFFFFFFFFFFFFFFFFFFFFFFFFFFFFFFFFFFFFFF AND DUP2 MSTORE PUSH1 0x20 ADD SWAP1 DUP2 MSTORE PUSH1 0x20 ADD PUSH0 KECCAK256 PUSH1 0x3 ADD DUP2 SWAP1 SSTORE POP TIMESTAMP PUSH0 DUP1 CALLER PUSH20 0xFFFFFFFFFFFFFFFFFFFFFFFFFFFFFFFFFFFFFFFF AND PUSH20 0xFFFFFFFFFFFFFFFFFFFFFFFFFFFFFFFFFFFFFFFF AND DUP2 MSTORE PUSH1 0x20 ADD SWAP1 DUP2 MSTORE PUSH1 0x20 ADD PUSH0 KECCAK256 PUSH1 0x4 ADD DUP2 SWAP1 SSTORE POP PUSH4 0x1E13380 PUSH0 DUP1 CALLER PUSH20 0xFFFFFFFFFFFFFFFFFFFFFFFFFFFFFFFFFFFFFFFF AND PUSH20 0xFFFFFFFFFFFFFFFFFFFFFFFFFFFFFFFFFFFFFFFF AND DUP2 MSTORE PUSH1 0x20 ADD SWAP1 DUP2 MSTORE PUSH1 0x20 ADD PUSH0 KECCAK256 PUSH1 0x5 ADD DUP2 SWAP1 SSTORE POP PUSH0 DUP1 PUSH0 CALLER PUSH20 0xFFFFFFFFFFFFFFFFFFFFFFFFFFFFFFFFFFFFFFFF AND PUSH20 0xFFFFFFFFFFFFFFFFFFFFFFFFFFFFFFFFFFFFFFFF AND DUP2 MSTORE PUSH1 0x20 ADD SWAP1 DUP2 MSTORE PUSH1 0x20 ADD PUSH0 KECCAK256 PUSH1 0x6 ADD PUSH0 PUSH2 0x100 EXP DUP2 SLOAD DUP2 PUSH1 0xFF MUL NOT AND SWAP1 DUP4 ISZERO ISZERO MUL OR SWAP1 SSTORE POP PUSH1 0x1 DUP1 PUSH0 CALLER PUSH20 0xFFFFFFFFFFFFFFFFFFFFFFFFFFFFFFFFFFFFFFFF AND PUSH20 0xFFFFFFFFFFFFFFFFFFFFFFFFFFFFFFFFFFFFFFFF AND DUP2 MSTORE PUSH1 0x20 ADD SWAP1 DUP2 MSTORE PUSH1 0x20 ADD PUSH0 KECCAK256 PUSH0 PUSH2 0x100 EXP DUP2 SLOAD DUP2 PUSH1 0xFF MUL NOT AND SWAP1 DUP4 ISZERO ISZERO MUL OR SWAP1 SSTORE POP CALLER PUSH20 0xFFFFFFFFFFFFFFFFFFFFFFFFFFFFFFFFFFFFFFFF AND PUSH32 0xD40DC4A639C90600691397F655099ADBA04D6B763EF2122630EDD47C09F1B6F9 CALLVALUE PUSH1 0x40 MLOAD PUSH2 0xD0F SWAP2 SWAP1 PUSH2 0x218F JUMP JUMPDEST PUSH1 0x40 MLOAD DUP1 SWAP2 SUB SWAP1 LOG2 POP POP JUMP JUMPDEST PUSH1 0x60 DUP1 PUSH0 DUP1 PUSH1 0x1 PUSH0 CALLER PUSH20 0xFFFFFFFFFFFFFFFFFFFFFFFFFFFFFFFFFFFFFFFF AND PUSH20 0xFFFFFFFFFFFFFFFFFFFFFFFFFFFFFFFFFFFFFFFF AND DUP2 MSTORE PUSH1 0x20 ADD SWAP1 DUP2 MSTORE PUSH1 0x20 ADD PUSH0 KECCAK256 PUSH0 SWAP1 SLOAD SWAP1 PUSH2 0x100 EXP SWAP1 DIV PUSH1 0xFF AND PUSH2 0xDA9 JUMPI PUSH1 0x40 MLOAD PUSH32 0x8C379A000000000000000000000000000000000000000000000000000000000 DUP2 MSTORE PUSH1 0x4 ADD PUSH2 0xDA0 SWAP1 PUSH2 0x20A1 JUMP JUMPDEST PUSH1 0x40 MLOAD DUP1 SWAP2 SUB SWAP1 REVERT JUMPDEST PUSH0 DUP1 PUSH0 CALLER PUSH20 0xFFFFFFFFFFFFFFFFFFFFFFFFFFFFFFFFFFFFFFFF AND PUSH20 0xFFFFFFFFFFFFFFFFFFFFFFFFFFFFFFFFFFFFFFFF AND DUP2 MSTORE PUSH1 0x20 ADD SWAP1 DUP2 MSTORE PUSH1 0x20 ADD PUSH0 KECCAK256 SWAP1 POP DUP1 PUSH1 0x1 ADD DUP2 PUSH1 0x2 ADD DUP3 PUSH1 0x3 ADD SLOAD DUP4 PUSH1 0x6 ADD PUSH0 SWAP1 SLOAD SWAP1 PUSH2 0x100 EXP SWAP1 DIV PUSH1 0xFF AND DUP4 DUP1 SLOAD PUSH2 0xE12 SWAP1 PUSH2 0x1C72 JUMP JUMPDEST DUP1 PUSH1 0x1F ADD PUSH1 0x20 DUP1 SWAP2 DIV MUL PUSH1 0x20 ADD PUSH1 0x40 MLOAD SWAP1 DUP2 ADD PUSH1 0x40 MSTORE DUP1 SWAP3 SWAP2 SWAP1 DUP2 DUP2 MSTORE PUSH1 0x20 ADD DUP3 DUP1 SLOAD PUSH2 0xE3E SWAP1 PUSH2 0x1C72 JUMP JUMPDEST DUP1 ISZERO PUSH2 0xE89 JUMPI DUP1 PUSH1 0x1F LT PUSH2 0xE60 JUMPI PUSH2 0x100 DUP1 DUP4 SLOAD DIV MUL DUP4 MSTORE SWAP2 PUSH1 0x20 ADD SWAP2 PUSH2 0xE89 JUMP JUMPDEST DUP3 ADD SWAP2 SWAP1 PUSH0 MSTORE PUSH1 0x20 PUSH0 KECCAK256 SWAP1 JUMPDEST DUP2 SLOAD DUP2 MSTORE SWAP1 PUSH1 0x1 ADD SWAP1 PUSH1 0x20 ADD DUP1 DUP4 GT PUSH2 0xE6C JUMPI DUP3 SWAP1 SUB PUSH1 0x1F AND DUP3 ADD SWAP2 JUMPDEST POP POP POP POP POP SWAP4 POP DUP3 DUP1 SLOAD PUSH2 0xE9C SWAP1 PUSH2 0x1C72 JUMP JUMPDEST DUP1 PUSH1 0x1F ADD PUSH1 0x20 DUP1 SWAP2 DIV MUL PUSH1 0x20 ADD PUSH1 0x40 MLOAD SWAP1 DUP2 ADD PUSH1 0x40 MSTORE DUP1 SWAP3 SWAP2 SWAP1 DUP2 DUP2 MSTORE PUSH1 0x20 ADD DUP3 DUP1 SLOAD PUSH2 0xEC8 SWAP1 PUSH2 0x1C72 JUMP JUMPDEST DUP1 ISZERO PUSH2 0xF13 JUMPI DUP1 PUSH1 0x1F LT PUSH2 0xEEA JUMPI PUSH2 0x100 DUP1 DUP4 SLOAD DIV MUL DUP4 MSTORE SWAP2 PUSH1 0x20 ADD SWAP2 PUSH2 0xF13 JUMP JUMPDEST DUP3 ADD SWAP2 SWAP1 PUSH0 MSTORE PUSH1 0x20 PUSH0 KECCAK256 SWAP1 JUMPDEST DUP2 SLOAD DUP2 MSTORE SWAP1 PUSH1 0x1 ADD SWAP1 PUSH1 0x20 ADD DUP1 DUP4 GT PUSH2 0xEF6 JUMPI DUP3 SWAP1 SUB PUSH1 0x1F AND DUP3 ADD SWAP2 JUMPDEST POP POP POP POP POP SWAP3 POP SWAP5 POP SWAP5 POP SWAP5 POP SWAP5 POP POP SWAP1 SWAP2 SWAP3 SWAP4 JUMP JUMPDEST PUSH1 0x1 PUSH0 DUP3 PUSH20 0xFFFFFFFFFFFFFFFFFFFFFFFFFFFFFFFFFFFFFFFF AND PUSH20 0xFFFFFFFFFFFFFFFFFFFFFFFFFFFFFFFFFFFFFFFF AND DUP2 MSTORE PUSH1 0x20 ADD SWAP1 DUP2 MSTORE PUSH1 0x20 ADD PUSH0 KECCAK256 PUSH0 SWAP1 SLOAD SWAP1 PUSH2 0x100 EXP SWAP1 DIV PUSH1 0xFF AND PUSH2 0xFB2 JUMPI PUSH1 0x40 MLOAD PUSH32 0x8C379A000000000000000000000000000000000000000000000000000000000 DUP2 MSTORE PUSH1 0x4 ADD PUSH2 0xFA9 SWAP1 PUSH2 0x20A1 JUMP JUMPDEST PUSH1 0x40 MLOAD DUP1 SWAP2 SUB SWAP1 REVERT JUMPDEST PUSH0 DUP1 DUP3 PUSH20 0xFFFFFFFFFFFFFFFFFFFFFFFFFFFFFFFFFFFFFFFF AND PUSH20 0xFFFFFFFFFFFFFFFFFFFFFFFFFFFFFFFFFFFFFFFF AND DUP2 MSTORE PUSH1 0x20 ADD SWAP1 DUP2 MSTORE PUSH1 0x20 ADD PUSH0 KECCAK256 PUSH1 0x5 ADD SLOAD PUSH0 DUP1 DUP4 PUSH20 0xFFFFFFFFFFFFFFFFFFFFFFFFFFFFFFFFFFFFFFFF AND PUSH20 0xFFFFFFFFFFFFFFFFFFFFFFFFFFFFFFFFFFFFFFFF AND DUP2 MSTORE PUSH1 0x20 ADD SWAP1 DUP2 MSTORE PUSH1 0x20 ADD PUSH0 KECCAK256 PUSH1 0x4 ADD SLOAD PUSH2 0x103C SWAP2 SWAP1 PUSH2 0x1BAA JUMP JUMPDEST TIMESTAMP GT PUSH2 0x107D JUMPI PUSH1 0x40 MLOAD PUSH32 0x8C379A000000000000000000000000000000000000000000000000000000000 DUP2 MSTORE PUSH1 0x4 ADD PUSH2 0x1074 SWAP1 PUSH2 0x21F2 JUMP JUMPDEST PUSH1 0x40 MLOAD DUP1 SWAP2 SUB SWAP1 REVERT JUMPDEST PUSH0 DUP1 DUP3 PUSH20 0xFFFFFFFFFFFFFFFFFFFFFFFFFFFFFFFFFFFFFFFF AND PUSH20 0xFFFFFFFFFFFFFFFFFFFFFFFFFFFFFFFFFFFFFFFF AND DUP2 MSTORE PUSH1 0x20 ADD SWAP1 DUP2 MSTORE PUSH1 0x20 ADD PUSH0 KECCAK256 PUSH1 0x6 ADD PUSH0 SWAP1 SLOAD SWAP1 PUSH2 0x100 EXP SWAP1 DIV PUSH1 0xFF AND ISZERO PUSH2 0x1109 JUMPI PUSH1 0x40 MLOAD PUSH32 0x8C379A000000000000000000000000000000000000000000000000000000000 DUP2 MSTORE PUSH1 0x4 ADD PUSH2 0x1100 SWAP1 PUSH2 0x2039 JUMP JUMPDEST PUSH1 0x40 MLOAD DUP1 SWAP2 SUB SWAP1 REVERT JUMPDEST PUSH1 0x1 PUSH0 DUP1 DUP4 PUSH20 0xFFFFFFFFFFFFFFFFFFFFFFFFFFFFFFFFFFFFFFFF AND PUSH20 0xFFFFFFFFFFFFFFFFFFFFFFFFFFFFFFFFFFFFFFFF AND DUP2 MSTORE PUSH1 0x20 ADD SWAP1 DUP2 MSTORE PUSH1 0x20 ADD PUSH0 KECCAK256 PUSH1 0x6 ADD PUSH0 PUSH2 0x100 EXP DUP2 SLOAD DUP2 PUSH1 0xFF MUL NOT AND SWAP1 DUP4 ISZERO ISZERO MUL OR SWAP1 SSTORE POP PUSH0 DUP1 PUSH0 DUP4 PUSH20 0xFFFFFFFFFFFFFFFFFFFFFFFFFFFFFFFFFFFFFFFF AND PUSH20 0xFFFFFFFFFFFFFFFFFFFFFFFFFFFFFFFFFFFFFFFF AND DUP2 MSTORE PUSH1 0x20 ADD SWAP1 DUP2 MSTORE PUSH1 0x20 ADD PUSH0 KECCAK256 PUSH1 0x3 ADD SLOAD SWAP1 POP PUSH0 DUP2 GT PUSH2 0x11E5 JUMPI PUSH1 0x40 MLOAD PUSH32 0x8C379A000000000000000000000000000000000000000000000000000000000 DUP2 MSTORE PUSH1 0x4 ADD PUSH2 0x11DC SWAP1 PUSH2 0x225A JUMP JUMPDEST PUSH1 0x40 MLOAD DUP1 SWAP2 SUB SWAP1 REVERT JUMPDEST PUSH0 JUMPDEST PUSH0 DUP1 DUP5 PUSH20 0xFFFFFFFFFFFFFFFFFFFFFFFFFFFFFFFFFFFFFFFF AND PUSH20 0xFFFFFFFFFFFFFFFFFFFFFFFFFFFFFFFFFFFFFFFF AND DUP2 MSTORE PUSH1 0x20 ADD SWAP1 DUP2 MSTORE PUSH1 0x20 ADD PUSH0 KECCAK256 PUSH1 0x7 ADD DUP1 SLOAD SWAP1 POP DUP2 LT ISZERO PUSH2 0x139F JUMPI PUSH0 DUP1 PUSH0 DUP6 PUSH20 0xFFFFFFFFFFFFFFFFFFFFFFFFFFFFFFFFFFFFFFFF AND PUSH20 0xFFFFFFFFFFFFFFFFFFFFFFFFFFFFFFFFFFFFFFFF AND DUP2 MSTORE PUSH1 0x20 ADD SWAP1 DUP2 MSTORE PUSH1 0x20 ADD PUSH0 KECCAK256 PUSH1 0x7 ADD DUP3 DUP2 SLOAD DUP2 LT PUSH2 0x1283 JUMPI PUSH2 0x1282 PUSH2 0x1B50 JUMP JUMPDEST JUMPDEST SWAP1 PUSH0 MSTORE PUSH1 0x20 PUSH0 KECCAK256 SWAP1 PUSH1 0x4 MUL ADD SWAP1 POP PUSH0 PUSH1 0x64 DUP3 PUSH1 0x1 ADD SLOAD DUP6 PUSH2 0x12A4 SWAP2 SWAP1 PUSH2 0x2278 JUMP JUMPDEST PUSH2 0x12AE SWAP2 SWAP1 PUSH2 0x22E6 JUMP JUMPDEST SWAP1 POP DUP2 PUSH0 ADD PUSH0 SWAP1 SLOAD SWAP1 PUSH2 0x100 EXP SWAP1 DIV PUSH20 0xFFFFFFFFFFFFFFFFFFFFFFFFFFFFFFFFFFFFFFFF AND PUSH20 0xFFFFFFFFFFFFFFFFFFFFFFFFFFFFFFFFFFFFFFFF AND PUSH2 0x8FC DUP3 SWAP1 DUP2 ISZERO MUL SWAP1 PUSH1 0x40 MLOAD PUSH0 PUSH1 0x40 MLOAD DUP1 DUP4 SUB DUP2 DUP6 DUP9 DUP9 CALL SWAP4 POP POP POP POP ISZERO DUP1 ISZERO PUSH2 0x1315 JUMPI RETURNDATASIZE PUSH0 DUP1 RETURNDATACOPY RETURNDATASIZE PUSH0 REVERT JUMPDEST POP DUP2 PUSH0 ADD PUSH0 SWAP1 SLOAD SWAP1 PUSH2 0x100 EXP SWAP1 DIV PUSH20 0xFFFFFFFFFFFFFFFFFFFFFFFFFFFFFFFFFFFFFFFF AND PUSH20 0xFFFFFFFFFFFFFFFFFFFFFFFFFFFFFFFFFFFFFFFF AND PUSH32 0xCEB720B06C310EDC215BEE81670832BB918BA1199F401716364414DDB9B816A7 DUP3 DUP5 PUSH1 0x2 ADD DUP6 PUSH1 0x3 ADD PUSH1 0x40 MLOAD PUSH2 0x1388 SWAP4 SWAP3 SWAP2 SWAP1 PUSH2 0x2397 JUMP JUMPDEST PUSH1 0x40 MLOAD DUP1 SWAP2 SUB SWAP1 LOG2 POP POP DUP1 DUP1 PUSH1 0x1 ADD SWAP2 POP POP PUSH2 0x11E7 JUMP JUMPDEST POP PUSH0 DUP1 PUSH0 DUP5 PUSH20 0xFFFFFFFFFFFFFFFFFFFFFFFFFFFFFFFFFFFFFFFF AND PUSH20 0xFFFFFFFFFFFFFFFFFFFFFFFFFFFFFFFFFFFFFFFF AND DUP2 MSTORE PUSH1 0x20 ADD SWAP1 DUP2 MSTORE PUSH1 0x20 ADD PUSH0 KECCAK256 PUSH1 0x3 ADD DUP2 SWAP1 SSTORE POP DUP2 PUSH20 0xFFFFFFFFFFFFFFFFFFFFFFFFFFFFFFFFFFFFFFFF AND PUSH32 0x16346F65ADF8D84422B57AD74CB5607BF6C9E55C3C1FEA66344057E5BBA8A7EE PUSH1 0x40 MLOAD PUSH1 0x40 MLOAD DUP1 SWAP2 SUB SWAP1 LOG2 POP POP JUMP JUMPDEST PUSH0 PUSH1 0x40 MLOAD SWAP1 POP SWAP1 JUMP JUMPDEST PUSH0 DUP1 REVERT JUMPDEST PUSH0 DUP1 REVERT JUMPDEST PUSH0 PUSH20 0xFFFFFFFFFFFFFFFFFFFFFFFFFFFFFFFFFFFFFFFF DUP3 AND SWAP1 POP SWAP2 SWAP1 POP JUMP JUMPDEST PUSH0 PUSH2 0x1465 DUP3 PUSH2 0x143C JUMP JUMPDEST SWAP1 POP SWAP2 SWAP1 POP JUMP JUMPDEST PUSH2 0x1475 DUP2 PUSH2 0x145B JUMP JUMPDEST DUP2 EQ PUSH2 0x147F JUMPI PUSH0 DUP1 REVERT JUMPDEST POP JUMP JUMPDEST PUSH0 DUP2 CALLDATALOAD SWAP1 POP PUSH2 0x1490 DUP2 PUSH2 0x146C JUMP JUMPDEST SWAP3 SWAP2 POP POP JUMP JUMPDEST PUSH0 DUP2 SWAP1 POP SWAP2 SWAP1 POP JUMP JUMPDEST PUSH2 0x14A8 DUP2 PUSH2 0x1496 JUMP JUMPDEST DUP2 EQ PUSH2 0x14B2 JUMPI PUSH0 DUP1 REVERT JUMPDEST POP JUMP JUMPDEST PUSH0 DUP2 CALLDATALOAD SWAP1 POP PUSH2 0x14C3 DUP2 PUSH2 0x149F JUMP JUMPDEST SWAP3 SWAP2 POP POP JUMP JUMPDEST PUSH0 DUP1 REVERT JUMPDEST PUSH0 DUP1 REVERT JUMPDEST PUSH0 PUSH1 0x1F NOT PUSH1 0x1F DUP4 ADD AND SWAP1 POP SWAP2 SWAP1 POP JUMP JUMPDEST PUSH32 0x4E487B7100000000000000000000000000000000000000000000000000000000 PUSH0 MSTORE PUSH1 0x41 PUSH1 0x4 MSTORE PUSH1 0x24 PUSH0 REVERT JUMPDEST PUSH2 0x1517 DUP3 PUSH2 0x14D1 JUMP JUMPDEST DUP2 ADD DUP2 DUP2 LT PUSH8 0xFFFFFFFFFFFFFFFF DUP3 GT OR ISZERO PUSH2 0x1536 JUMPI PUSH2 0x1535 PUSH2 0x14E1 JUMP JUMPDEST JUMPDEST DUP1 PUSH1 0x40 MSTORE POP POP POP JUMP JUMPDEST PUSH0 PUSH2 0x1548 PUSH2 0x142B JUMP JUMPDEST SWAP1 POP PUSH2 0x1554 DUP3 DUP3 PUSH2 0x150E JUMP JUMPDEST SWAP2 SWAP1 POP JUMP JUMPDEST PUSH0 PUSH8 0xFFFFFFFFFFFFFFFF DUP3 GT ISZERO PUSH2 0x1573 JUMPI PUSH2 0x1572 PUSH2 0x14E1 JUMP JUMPDEST JUMPDEST PUSH2 0x157C DUP3 PUSH2 0x14D1 JUMP JUMPDEST SWAP1 POP PUSH1 0x20 DUP2 ADD SWAP1 POP SWAP2 SWAP1 POP JUMP JUMPDEST DUP3 DUP2 DUP4 CALLDATACOPY PUSH0 DUP4 DUP4 ADD MSTORE POP POP POP JUMP JUMPDEST PUSH0 PUSH2 0x15A9 PUSH2 0x15A4 DUP5 PUSH2 0x1559 JUMP JUMPDEST PUSH2 0x153F JUMP JUMPDEST SWAP1 POP DUP3 DUP2 MSTORE PUSH1 0x20 DUP2 ADD DUP5 DUP5 DUP5 ADD GT ISZERO PUSH2 0x15C5 JUMPI PUSH2 0x15C4 PUSH2 0x14CD JUMP JUMPDEST JUMPDEST PUSH2 0x15D0 DUP5 DUP3 DUP6 PUSH2 0x1589 JUMP JUMPDEST POP SWAP4 SWAP3 POP POP POP JUMP JUMPDEST PUSH0 DUP3 PUSH1 0x1F DUP4 ADD SLT PUSH2 0x15EC JUMPI PUSH2 0x15EB PUSH2 0x14C9 JUMP JUMPDEST JUMPDEST DUP2 CALLDATALOAD PUSH2 0x15FC DUP5 DUP3 PUSH1 0x20 DUP7 ADD PUSH2 0x1597 JUMP JUMPDEST SWAP2 POP POP SWAP3 SWAP2 POP POP JUMP JUMPDEST PUSH0 DUP1 PUSH0 DUP1 PUSH1 0x80 DUP6 DUP8 SUB SLT ISZERO PUSH2 0x161D JUMPI PUSH2 0x161C PUSH2 0x1434 JUMP JUMPDEST JUMPDEST PUSH0 PUSH2 0x162A DUP8 DUP3 DUP9 ADD PUSH2 0x1482 JUMP JUMPDEST SWAP5 POP POP PUSH1 0x20 PUSH2 0x163B DUP8 DUP3 DUP9 ADD PUSH2 0x14B5 JUMP JUMPDEST SWAP4 POP POP PUSH1 0x40 DUP6 ADD CALLDATALOAD PUSH8 0xFFFFFFFFFFFFFFFF DUP2 GT ISZERO PUSH2 0x165C JUMPI PUSH2 0x165B PUSH2 0x1438 JUMP JUMPDEST JUMPDEST PUSH2 0x1668 DUP8 DUP3 DUP9 ADD PUSH2 0x15D8 JUMP JUMPDEST SWAP3 POP POP PUSH1 0x60 DUP6 ADD CALLDATALOAD PUSH8 0xFFFFFFFFFFFFFFFF DUP2 GT ISZERO PUSH2 0x1689 JUMPI PUSH2 0x1688 PUSH2 0x1438 JUMP JUMPDEST JUMPDEST PUSH2 0x1695 DUP8 DUP3 DUP9 ADD PUSH2 0x15D8 JUMP JUMPDEST SWAP2 POP POP SWAP3 SWAP6 SWAP2 SWAP5 POP SWAP3 POP JUMP JUMPDEST PUSH0 PUSH2 0x16AB DUP3 PUSH2 0x143C JUMP JUMPDEST SWAP1 POP SWAP2 SWAP1 POP JUMP JUMPDEST PUSH2 0x16BB DUP2 PUSH2 0x16A1 JUMP JUMPDEST DUP2 EQ PUSH2 0x16C5 JUMPI PUSH0 DUP1 REVERT JUMPDEST POP JUMP JUMPDEST PUSH0 DUP2 CALLDATALOAD SWAP1 POP PUSH2 0x16D6 DUP2 PUSH2 0x16B2 JUMP JUMPDEST SWAP3 SWAP2 POP POP JUMP JUMPDEST PUSH0 PUSH1 0x20 DUP3 DUP5 SUB SLT ISZERO PUSH2 0x16F1 JUMPI PUSH2 0x16F0 PUSH2 0x1434 JUMP JUMPDEST JUMPDEST PUSH0 PUSH2 0x16FE DUP5 DUP3 DUP6 ADD PUSH2 0x16C8 JUMP JUMPDEST SWAP2 POP POP SWAP3 SWAP2 POP POP JUMP JUMPDEST PUSH0 DUP2 ISZERO ISZERO SWAP1 POP SWAP2 SWAP1 POP JUMP JUMPDEST PUSH2 0x171B DUP2 PUSH2 0x1707 JUMP JUMPDEST DUP3 MSTORE POP POP JUMP JUMPDEST PUSH0 PUSH1 0x20 DUP3 ADD SWAP1 POP PUSH2 0x1734 PUSH0 DUP4 ADD DUP5 PUSH2 0x1712 JUMP JUMPDEST SWAP3 SWAP2 POP POP JUMP JUMPDEST PUSH0 DUP2 MLOAD SWAP1 POP SWAP2 SWAP1 POP JUMP JUMPDEST PUSH0 DUP3 DUP3 MSTORE PUSH1 0x20 DUP3 ADD SWAP1 POP SWAP3 SWAP2 POP POP JUMP JUMPDEST PUSH0 DUP2 SWAP1 POP PUSH1 0x20 DUP3 ADD SWAP1 POP SWAP2 SWAP1 POP JUMP JUMPDEST PUSH2 0x176C DUP2 PUSH2 0x145B JUMP JUMPDEST DUP3 MSTORE POP POP JUMP JUMPDEST PUSH2 0x177B DUP2 PUSH2 0x1496 JUMP JUMPDEST DUP3 MSTORE POP POP JUMP JUMPDEST PUSH0 DUP2 MLOAD SWAP1 POP SWAP2 SWAP1 POP JUMP JUMPDEST PUSH0 DUP3 DUP3 MSTORE PUSH1 0x20 DUP3 ADD SWAP1 POP SWAP3 SWAP2 POP POP JUMP JUMPDEST DUP3 DUP2 DUP4 MCOPY PUSH0 DUP4 DUP4 ADD MSTORE POP POP POP JUMP JUMPDEST PUSH0 PUSH2 0x17B3 DUP3 PUSH2 0x1781 JUMP JUMPDEST PUSH2 0x17BD DUP2 DUP6 PUSH2 0x178B JUMP JUMPDEST SWAP4 POP PUSH2 0x17CD DUP2 DUP6 PUSH1 0x20 DUP7 ADD PUSH2 0x179B JUMP JUMPDEST PUSH2 0x17D6 DUP2 PUSH2 0x14D1 JUMP JUMPDEST DUP5 ADD SWAP2 POP POP SWAP3 SWAP2 POP POP JUMP JUMPDEST PUSH0 PUSH1 0x80 DUP4 ADD PUSH0 DUP4 ADD MLOAD PUSH2 0x17F6 PUSH0 DUP7 ADD DUP3 PUSH2 0x1763 JUMP JUMPDEST POP PUSH1 0x20 DUP4 ADD MLOAD PUSH2 0x1809 PUSH1 0x20 DUP7 ADD DUP3 PUSH2 0x1772 JUMP JUMPDEST POP PUSH1 0x40 DUP4 ADD MLOAD DUP5 DUP3 SUB PUSH1 0x40 DUP7 ADD MSTORE PUSH2 0x1821 DUP3 DUP3 PUSH2 0x17A9 JUMP JUMPDEST SWAP2 POP POP PUSH1 0x60 DUP4 ADD MLOAD DUP5 DUP3 SUB PUSH1 0x60 DUP7 ADD MSTORE PUSH2 0x183B DUP3 DUP3 PUSH2 0x17A9 JUMP JUMPDEST SWAP2 POP POP DUP1 SWAP2 POP POP SWAP3 SWAP2 POP POP JUMP JUMPDEST PUSH0 PUSH2 0x1853 DUP4 DUP4 PUSH2 0x17E1 JUMP JUMPDEST SWAP1 POP SWAP3 SWAP2 POP POP JUMP JUMPDEST PUSH0 PUSH1 0x20 DUP3 ADD SWAP1 POP SWAP2 SWAP1 POP JUMP JUMPDEST PUSH0 PUSH2 0x1871 DUP3 PUSH2 0x173A JUMP JUMPDEST PUSH2 0x187B DUP2 DUP6 PUSH2 0x1744 JUMP JUMPDEST SWAP4 POP DUP4 PUSH1 0x20 DUP3 MUL DUP6 ADD PUSH2 0x188D DUP6 PUSH2 0x1754 JUMP JUMPDEST DUP1 PUSH0 JUMPDEST DUP6 DUP2 LT ISZERO PUSH2 0x18C8 JUMPI DUP5 DUP5 SUB DUP10 MSTORE DUP2 MLOAD PUSH2 0x18A9 DUP6 DUP3 PUSH2 0x1848 JUMP JUMPDEST SWAP5 POP PUSH2 0x18B4 DUP4 PUSH2 0x185B JUMP JUMPDEST SWAP3 POP PUSH1 0x20 DUP11 ADD SWAP10 POP POP PUSH1 0x1 DUP2 ADD SWAP1 POP PUSH2 0x1890 JUMP JUMPDEST POP DUP3 SWAP8 POP DUP8 SWAP6 POP POP POP POP POP POP SWAP3 SWAP2 POP POP JUMP JUMPDEST PUSH0 PUSH1 0x20 DUP3 ADD SWAP1 POP DUP2 DUP2 SUB PUSH0 DUP4 ADD MSTORE PUSH2 0x18F2 DUP2 DUP5 PUSH2 0x1867 JUMP JUMPDEST SWAP1 POP SWAP3 SWAP2 POP POP JUMP JUMPDEST PUSH0 DUP1 PUSH1 0x40 DUP4 DUP6 SUB SLT ISZERO PUSH2 0x1910 JUMPI PUSH2 0x190F PUSH2 0x1434 JUMP JUMPDEST JUMPDEST PUSH0 DUP4 ADD CALLDATALOAD PUSH8 0xFFFFFFFFFFFFFFFF DUP2 GT ISZERO PUSH2 0x192D JUMPI PUSH2 0x192C PUSH2 0x1438 JUMP JUMPDEST JUMPDEST PUSH2 0x1939 DUP6 DUP3 DUP7 ADD PUSH2 0x15D8 JUMP JUMPDEST SWAP3 POP POP PUSH1 0x20 DUP4 ADD CALLDATALOAD PUSH8 0xFFFFFFFFFFFFFFFF DUP2 GT ISZERO PUSH2 0x195A JUMPI PUSH2 0x1959 PUSH2 0x1438 JUMP JUMPDEST JUMPDEST PUSH2 0x1966 DUP6 DUP3 DUP7 ADD PUSH2 0x15D8 JUMP JUMPDEST SWAP2 POP POP SWAP3 POP SWAP3 SWAP1 POP JUMP JUMPDEST PUSH0 DUP3 DUP3 MSTORE PUSH1 0x20 DUP3 ADD SWAP1 POP SWAP3 SWAP2 POP POP JUMP JUMPDEST PUSH0 PUSH2 0x198A DUP3 PUSH2 0x1781 JUMP JUMPDEST PUSH2 0x1994 DUP2 DUP6 PUSH2 0x1970 JUMP JUMPDEST SWAP4 POP PUSH2 0x19A4 DUP2 DUP6 PUSH1 0x20 DUP7 ADD PUSH2 0x179B JUMP JUMPDEST PUSH2 0x19AD DUP2 PUSH2 0x14D1 JUMP JUMPDEST DUP5 ADD SWAP2 POP POP SWAP3 SWAP2 POP POP JUMP JUMPDEST PUSH2 0x19C1 DUP2 PUSH2 0x1496 JUMP JUMPDEST DUP3 MSTORE POP POP JUMP JUMPDEST PUSH0 PUSH1 0x80 DUP3 ADD SWAP1 POP DUP2 DUP2 SUB PUSH0 DUP4 ADD MSTORE PUSH2 0x19DF DUP2 DUP8 PUSH2 0x1980 JUMP JUMPDEST SWAP1 POP DUP2 DUP2 SUB PUSH1 0x20 DUP4 ADD MSTORE PUSH2 0x19F3 DUP2 DUP7 PUSH2 0x1980 JUMP JUMPDEST SWAP1 POP PUSH2 0x1A02 PUSH1 0x40 DUP4 ADD DUP6 PUSH2 0x19B8 JUMP JUMPDEST PUSH2 0x1A0F PUSH1 0x60 DUP4 ADD DUP5 PUSH2 0x1712 JUMP JUMPDEST SWAP6 SWAP5 POP POP POP POP POP JUMP JUMPDEST PUSH32 0x596F75206E65656420746F2063726561746520612077696C6C20666972737400 PUSH0 DUP3 ADD MSTORE POP JUMP JUMPDEST PUSH0 PUSH2 0x1A4C PUSH1 0x1F DUP4 PUSH2 0x1970 JUMP JUMPDEST SWAP2 POP PUSH2 0x1A57 DUP3 PUSH2 0x1A18 JUMP JUMPDEST PUSH1 0x20 DUP3 ADD SWAP1 POP SWAP2 SWAP1 POP JUMP JUMPDEST PUSH0 PUSH1 0x20 DUP3 ADD SWAP1 POP DUP2 DUP2 SUB PUSH0 DUP4 ADD MSTORE PUSH2 0x1A79 DUP2 PUSH2 0x1A40 JUMP JUMPDEST SWAP1 POP SWAP2 SWAP1 POP JUMP JUMPDEST PUSH32 0x496E76616C69642077616C6C6574206164647265737300000000000000000000 PUSH0 DUP3 ADD MSTORE POP JUMP JUMPDEST PUSH0 PUSH2 0x1AB4 PUSH1 0x16 DUP4 PUSH2 0x1970 JUMP JUMPDEST SWAP2 POP PUSH2 0x1ABF DUP3 PUSH2 0x1A80 JUMP JUMPDEST PUSH1 0x20 DUP3 ADD SWAP1 POP SWAP2 SWAP1 POP JUMP JUMPDEST PUSH0 PUSH1 0x20 DUP3 ADD SWAP1 POP DUP2 DUP2 SUB PUSH0 DUP4 ADD MSTORE PUSH2 0x1AE1 DUP2 PUSH2 0x1AA8 JUMP JUMPDEST SWAP1 POP SWAP2 SWAP1 POP JUMP JUMPDEST PUSH32 0x496E76616C69642070657263656E746167650000000000000000000000000000 PUSH0 DUP3 ADD MSTORE POP JUMP JUMPDEST PUSH0 PUSH2 0x1B1C PUSH1 0x12 DUP4 PUSH2 0x1970 JUMP JUMPDEST SWAP2 POP PUSH2 0x1B27 DUP3 PUSH2 0x1AE8 JUMP JUMPDEST PUSH1 0x20 DUP3 ADD SWAP1 POP SWAP2 SWAP1 POP JUMP JUMPDEST PUSH0 PUSH1 0x20 DUP3 ADD SWAP1 POP DUP2 DUP2 SUB PUSH0 DUP4 ADD MSTORE PUSH2 0x1B49 DUP2 PUSH2 0x1B10 JUMP JUMPDEST SWAP1 POP SWAP2 SWAP1 POP JUMP JUMPDEST PUSH32 0x4E487B7100000000000000000000000000000000000000000000000000000000 PUSH0 MSTORE PUSH1 0x32 PUSH1 0x4 MSTORE PUSH1 0x24 PUSH0 REVERT JUMPDEST PUSH32 0x4E487B7100000000000000000000000000000000000000000000000000000000 PUSH0 MSTORE PUSH1 0x11 PUSH1 0x4 MSTORE PUSH1 0x24 PUSH0 REVERT JUMPDEST PUSH0 PUSH2 0x1BB4 DUP3 PUSH2 0x1496 JUMP JUMPDEST SWAP2 POP PUSH2 0x1BBF DUP4 PUSH2 0x1496 JUMP JUMPDEST SWAP3 POP DUP3 DUP3 ADD SWAP1 POP DUP1 DUP3 GT ISZERO PUSH2 0x1BD7 JUMPI PUSH2 0x1BD6 PUSH2 0x1B7D JUMP JUMPDEST JUMPDEST SWAP3 SWAP2 POP POP JUMP JUMPDEST PUSH32 0x546F74616C20616C6C6F636174696F6E20657863656564732031303025000000 PUSH0 DUP3 ADD MSTORE POP JUMP JUMPDEST PUSH0 PUSH2 0x1C11 PUSH1 0x1D DUP4 PUSH2 0x1970 JUMP JUMPDEST SWAP2 POP PUSH2 0x1C1C DUP3 PUSH2 0x1BDD JUMP JUMPDEST PUSH1 0x20 DUP3 ADD SWAP1 POP SWAP2 SWAP1 POP JUMP JUMPDEST PUSH0 PUSH1 0x20 DUP3 ADD SWAP1 POP DUP2 DUP2 SUB PUSH0 DUP4 ADD MSTORE PUSH2 0x1C3E DUP2 PUSH2 0x1C05 JUMP JUMPDEST SWAP1 POP SWAP2 SWAP1 POP JUMP JUMPDEST PUSH32 0x4E487B7100000000000000000000000000000000000000000000000000000000 PUSH0 MSTORE PUSH1 0x22 PUSH1 0x4 MSTORE PUSH1 0x24 PUSH0 REVERT JUMPDEST PUSH0 PUSH1 0x2 DUP3 DIV SWAP1 POP PUSH1 0x1 DUP3 AND DUP1 PUSH2 0x1C89 JUMPI PUSH1 0x7F DUP3 AND SWAP2 POP JUMPDEST PUSH1 0x20 DUP3 LT DUP2 SUB PUSH2 0x1C9C JUMPI PUSH2 0x1C9B PUSH2 0x1C45 JUMP JUMPDEST JUMPDEST POP SWAP2 SWAP1 POP JUMP JUMPDEST PUSH0 DUP2 SWAP1 POP DUP2 PUSH0 MSTORE PUSH1 0x20 PUSH0 KECCAK256 SWAP1 POP SWAP2 SWAP1 POP JUMP JUMPDEST PUSH0 PUSH1 0x20 PUSH1 0x1F DUP4 ADD DIV SWAP1 POP SWAP2 SWAP1 POP JUMP JUMPDEST PUSH0 DUP3 DUP3 SHL SWAP1 POP SWAP3 SWAP2 POP POP JUMP JUMPDEST PUSH0 PUSH1 0x8 DUP4 MUL PUSH2 0x1CFE PUSH32 0xFFFFFFFFFFFFFFFFFFFFFFFFFFFFFFFFFFFFFFFFFFFFFFFFFFFFFFFFFFFFFFFF DUP3 PUSH2 0x1CC3 JUMP JUMPDEST PUSH2 0x1D08 DUP7 DUP4 PUSH2 0x1CC3 JUMP JUMPDEST SWAP6 POP DUP1 NOT DUP5 AND SWAP4 POP DUP1 DUP7 AND DUP5 OR SWAP3 POP POP POP SWAP4 SWAP3 POP POP POP JUMP JUMPDEST PUSH0 DUP2 SWAP1 POP SWAP2 SWAP1 POP JUMP JUMPDEST PUSH0 PUSH2 0x1D43 PUSH2 0x1D3E PUSH2 0x1D39 DUP5 PUSH2 0x1496 JUMP JUMPDEST PUSH2 0x1D20 JUMP JUMPDEST PUSH2 0x1496 JUMP JUMPDEST SWAP1 POP SWAP2 SWAP1 POP JUMP JUMPDEST PUSH0 DUP2 SWAP1 POP SWAP2 SWAP1 POP JUMP JUMPDEST PUSH2 0x1D5C DUP4 PUSH2 0x1D29 JUMP JUMPDEST PUSH2 0x1D70 PUSH2 0x1D68 DUP3 PUSH2 0x1D4A JUMP JUMPDEST DUP5 DUP5 SLOAD PUSH2 0x1CCF JUMP JUMPDEST DUP3 SSTORE POP POP POP POP JUMP JUMPDEST PUSH0 SWAP1 JUMP JUMPDEST PUSH2 0x1D84 PUSH2 0x1D78 JUMP JUMPDEST PUSH2 0x1D8F DUP2 DUP5 DUP5 PUSH2 0x1D53 JUMP JUMPDEST POP POP POP JUMP JUMPDEST JUMPDEST DUP2 DUP2 LT ISZERO PUSH2 0x1DB2 JUMPI PUSH2 0x1DA7 PUSH0 DUP3 PUSH2 0x1D7C JUMP JUMPDEST PUSH1 0x1 DUP2 ADD SWAP1 POP PUSH2 0x1D95 JUMP JUMPDEST POP POP JUMP JUMPDEST PUSH1 0x1F DUP3 GT ISZERO PUSH2 0x1DF7 JUMPI PUSH2 0x1DC8 DUP2 PUSH2 0x1CA2 JUMP JUMPDEST PUSH2 0x1DD1 DUP5 PUSH2 0x1CB4 JUMP JUMPDEST DUP2 ADD PUSH1 0x20 DUP6 LT ISZERO PUSH2 0x1DE0 JUMPI DUP2 SWAP1 POP JUMPDEST PUSH2 0x1DF4 PUSH2 0x1DEC DUP6 PUSH2 0x1CB4 JUMP JUMPDEST DUP4 ADD DUP3 PUSH2 0x1D94 JUMP JUMPDEST POP POP JUMPDEST POP POP POP JUMP JUMPDEST PUSH0 DUP3 DUP3 SHR SWAP1 POP SWAP3 SWAP2 POP POP JUMP JUMPDEST PUSH0 PUSH2 0x1E17 PUSH0 NOT DUP5 PUSH1 0x8 MUL PUSH2 0x1DFC JUMP JUMPDEST NOT DUP1 DUP4 AND SWAP2 POP POP SWAP3 SWAP2 POP POP JUMP JUMPDEST PUSH0 PUSH2 0x1E2F DUP4 DUP4 PUSH2 0x1E08 JUMP JUMPDEST SWAP2 POP DUP3 PUSH1 0x2 MUL DUP3 OR SWAP1 POP SWAP3 SWAP2 POP POP JUMP JUMPDEST PUSH2 0x1E48 DUP3 PUSH2 0x1781 JUMP JUMPDEST PUSH8 0xFFFFFFFFFFFFFFFF DUP2 GT ISZERO PUSH2 0x1E61 JUMPI PUSH2 0x1E60 PUSH2 0x14E1 JUMP JUMPDEST JUMPDEST PUSH2 0x1E6B DUP3 SLOAD PUSH2 0x1C72 JUMP JUMPDEST PUSH2 0x1E76 DUP3 DUP3 DUP6 PUSH2 0x1DB6 JUMP JUMPDEST PUSH0 PUSH1 0x20 SWAP1 POP PUSH1 0x1F DUP4 GT PUSH1 0x1 DUP2 EQ PUSH2 0x1EA7 JUMPI PUSH0 DUP5 ISZERO PUSH2 0x1E95 JUMPI DUP3 DUP8 ADD MLOAD SWAP1 POP JUMPDEST PUSH2 0x1E9F DUP6 DUP3 PUSH2 0x1E24 JUMP JUMPDEST DUP7 SSTORE POP PUSH2 0x1F06 JUMP JUMPDEST PUSH1 0x1F NOT DUP5 AND PUSH2 0x1EB5 DUP7 PUSH2 0x1CA2 JUMP JUMPDEST PUSH0 JUMPDEST DUP3 DUP2 LT ISZERO PUSH2 0x1EDC JUMPI DUP5 DUP10 ADD MLOAD DUP3 SSTORE PUSH1 0x1 DUP3 ADD SWAP2 POP PUSH1 0x20 DUP6 ADD SWAP5 POP PUSH1 0x20 DUP2 ADD SWAP1 POP PUSH2 0x1EB7 JUMP JUMPDEST DUP7 DUP4 LT ISZERO PUSH2 0x1EF9 JUMPI DUP5 DUP10 ADD MLOAD PUSH2 0x1EF5 PUSH1 0x1F DUP10 AND DUP3 PUSH2 0x1E08 JUMP JUMPDEST DUP4 SSTORE POP JUMPDEST PUSH1 0x1 PUSH1 0x2 DUP9 MUL ADD DUP9 SSTORE POP POP POP JUMPDEST POP POP POP POP POP POP JUMP JUMPDEST PUSH0 PUSH2 0x1F28 PUSH2 0x1F23 PUSH2 0x1F1E DUP5 PUSH2 0x143C JUMP JUMPDEST PUSH2 0x1D20 JUMP JUMPDEST PUSH2 0x143C JUMP JUMPDEST SWAP1 POP SWAP2 SWAP1 POP JUMP JUMPDEST PUSH0 PUSH2 0x1F39 DUP3 PUSH2 0x1F0E JUMP JUMPDEST SWAP1 POP SWAP2 SWAP1 POP JUMP JUMPDEST PUSH0 PUSH2 0x1F4A DUP3 PUSH2 0x1F2F JUMP JUMPDEST SWAP1 POP SWAP2 SWAP1 POP JUMP JUMPDEST PUSH2 0x1F5A DUP2 PUSH2 0x1F40 JUMP JUMPDEST DUP3 MSTORE POP POP JUMP JUMPDEST PUSH0 PUSH1 0x40 DUP3 ADD SWAP1 POP PUSH2 0x1F73 PUSH0 DUP4 ADD DUP6 PUSH2 0x1F51 JUMP JUMPDEST PUSH2 0x1F80 PUSH1 0x20 DUP4 ADD DUP5 PUSH2 0x19B8 JUMP JUMPDEST SWAP4 SWAP3 POP POP POP JUMP JUMPDEST PUSH32 0x596F752068617665206E6F74206372656174656420612077696C6C0000000000 PUSH0 DUP3 ADD MSTORE POP JUMP JUMPDEST PUSH0 PUSH2 0x1FBB PUSH1 0x1B DUP4 PUSH2 0x1970 JUMP JUMPDEST SWAP2 POP PUSH2 0x1FC6 DUP3 PUSH2 0x1F87 JUMP JUMPDEST PUSH1 0x20 DUP3 ADD SWAP1 POP SWAP2 SWAP1 POP JUMP JUMPDEST PUSH0 PUSH1 0x20 DUP3 ADD SWAP1 POP DUP2 DUP2 SUB PUSH0 DUP4 ADD MSTORE PUSH2 0x1FE8 DUP2 PUSH2 0x1FAF JUMP JUMPDEST SWAP1 POP SWAP2 SWAP1 POP JUMP JUMPDEST PUSH32 0x57696C6C20616C72656164792065786563757465642100000000000000000000 PUSH0 DUP3 ADD MSTORE POP JUMP JUMPDEST PUSH0 PUSH2 0x2023 PUSH1 0x16 DUP4 PUSH2 0x1970 JUMP JUMPDEST SWAP2 POP PUSH2 0x202E DUP3 PUSH2 0x1FEF JUMP JUMPDEST PUSH1 0x20 DUP3 ADD SWAP1 POP SWAP2 SWAP1 POP JUMP JUMPDEST PUSH0 PUSH1 0x20 DUP3 ADD SWAP1 POP DUP2 DUP2 SUB PUSH0 DUP4 ADD MSTORE PUSH2 0x2050 DUP2 PUSH2 0x2017 JUMP JUMPDEST SWAP1 POP SWAP2 SWAP1 POP JUMP JUMPDEST PUSH32 0x4E6F2077696C6C20666F756E6421000000000000000000000000000000000000 PUSH0 DUP3 ADD MSTORE POP JUMP JUMPDEST PUSH0 PUSH2 0x208B PUSH1 0xE DUP4 PUSH2 0x1970 JUMP JUMPDEST SWAP2 POP PUSH2 0x2096 DUP3 PUSH2 0x2057 JUMP JUMPDEST PUSH1 0x20 DUP3 ADD SWAP1 POP SWAP2 SWAP1 POP JUMP JUMPDEST PUSH0 PUSH1 0x20 DUP3 ADD SWAP1 POP DUP2 DUP2 SUB PUSH0 DUP4 ADD MSTORE PUSH2 0x20B8 DUP2 PUSH2 0x207F JUMP JUMPDEST SWAP1 POP SWAP2 SWAP1 POP JUMP JUMPDEST PUSH32 0x596F7520616C7265616479206861766520612077696C6C210000000000000000 PUSH0 DUP3 ADD MSTORE POP JUMP JUMPDEST PUSH0 PUSH2 0x20F3 PUSH1 0x18 DUP4 PUSH2 0x1970 JUMP JUMPDEST SWAP2 POP PUSH2 0x20FE DUP3 PUSH2 0x20BF JUMP JUMPDEST PUSH1 0x20 DUP3 ADD SWAP1 POP SWAP2 SWAP1 POP JUMP JUMPDEST PUSH0 PUSH1 0x20 DUP3 ADD SWAP1 POP DUP2 DUP2 SUB PUSH0 DUP4 ADD MSTORE PUSH2 0x2120 DUP2 PUSH2 0x20E7 JUMP JUMPDEST SWAP1 POP SWAP2 SWAP1 POP JUMP JUMPDEST PUSH32 0x4D757374206C6F636B2045544821000000000000000000000000000000000000 PUSH0 DUP3 ADD MSTORE POP JUMP JUMPDEST PUSH0 PUSH2 0x215B PUSH1 0xE DUP4 PUSH2 0x1970 JUMP JUMPDEST SWAP2 POP PUSH2 0x2166 DUP3 PUSH2 0x2127 JUMP JUMPDEST PUSH1 0x20 DUP3 ADD SWAP1 POP SWAP2 SWAP1 POP JUMP JUMPDEST PUSH0 PUSH1 0x20 DUP3 ADD SWAP1 POP DUP2 DUP2 SUB PUSH0 DUP4 ADD MSTORE PUSH2 0x2188 DUP2 PUSH2 0x214F JUMP JUMPDEST SWAP1 POP SWAP2 SWAP1 POP JUMP JUMPDEST PUSH0 PUSH1 0x20 DUP3 ADD SWAP1 POP PUSH2 0x21A2 PUSH0 DUP4 ADD DUP5 PUSH2 0x19B8 JUMP JUMPDEST SWAP3 SWAP2 POP POP JUMP JUMPDEST PUSH32 0x4F776E6572206973207374696C6C20616C697665210000000000000000000000 PUSH0 DUP3 ADD MSTORE POP JUMP JUMPDEST PUSH0 PUSH2 0x21DC PUSH1 0x15 DUP4 PUSH2 0x1970 JUMP JUMPDEST SWAP2 POP PUSH2 0x21E7 DUP3 PUSH2 0x21A8 JUMP JUMPDEST PUSH1 0x20 DUP3 ADD SWAP1 POP SWAP2 SWAP1 POP JUMP JUMPDEST PUSH0 PUSH1 0x20 DUP3 ADD SWAP1 POP DUP2 DUP2 SUB PUSH0 DUP4 ADD MSTORE PUSH2 0x2209 DUP2 PUSH2 0x21D0 JUMP JUMPDEST SWAP1 POP SWAP2 SWAP1 POP JUMP JUMPDEST PUSH32 0x4E6F2045544820746F2064697374726962757465000000000000000000000000 PUSH0 DUP3 ADD MSTORE POP JUMP JUMPDEST PUSH0 PUSH2 0x2244 PUSH1 0x14 DUP4 PUSH2 0x1970 JUMP JUMPDEST SWAP2 POP PUSH2 0x224F DUP3 PUSH2 0x2210 JUMP JUMPDEST PUSH1 0x20 DUP3 ADD SWAP1 POP SWAP2 SWAP1 POP JUMP JUMPDEST PUSH0 PUSH1 0x20 DUP3 ADD SWAP1 POP DUP2 DUP2 SUB PUSH0 DUP4 ADD MSTORE PUSH2 0x2271 DUP2 PUSH2 0x2238 JUMP JUMPDEST SWAP1 POP SWAP2 SWAP1 POP JUMP JUMPDEST PUSH0 PUSH2 0x2282 DUP3 PUSH2 0x1496 JUMP JUMPDEST SWAP2 POP PUSH2 0x228D DUP4 PUSH2 0x1496 JUMP JUMPDEST SWAP3 POP DUP3 DUP3 MUL PUSH2 0x229B DUP2 PUSH2 0x1496 JUMP JUMPDEST SWAP2 POP DUP3 DUP3 DIV DUP5 EQ DUP4 ISZERO OR PUSH2 0x22B2 JUMPI PUSH2 0x22B1 PUSH2 0x1B7D JUMP JUMPDEST JUMPDEST POP SWAP3 SWAP2 POP POP JUMP JUMPDEST PUSH32 0x4E487B7100000000000000000000000000000000000000000000000000000000 PUSH0 MSTORE PUSH1 0x12 PUSH1 0x4 MSTORE PUSH1 0x24 PUSH0 REVERT JUMPDEST PUSH0 PUSH2 0x22F0 DUP3 PUSH2 0x1496 JUMP JUMPDEST SWAP2 POP PUSH2 0x22FB DUP4 PUSH2 0x1496 JUMP JUMPDEST SWAP3 POP DUP3 PUSH2 0x230B JUMPI PUSH2 0x230A PUSH2 0x22B9 JUMP JUMPDEST JUMPDEST DUP3 DUP3 DIV SWAP1 POP SWAP3 SWAP2 POP POP JUMP JUMPDEST PUSH0 DUP2 SLOAD PUSH2 0x2322 DUP2 PUSH2 0x1C72 JUMP JUMPDEST PUSH2 0x232C DUP2 DUP7 PUSH2 0x1970 JUMP JUMPDEST SWAP5 POP PUSH1 0x1 DUP3 AND PUSH0 DUP2 EQ PUSH2 0x2346 JUMPI PUSH1 0x1 DUP2 EQ PUSH2 0x235C JUMPI PUSH2 0x238E JUMP JUMPDEST PUSH1 0xFF NOT DUP4 AND DUP7 MSTORE DUP2 ISZERO ISZERO PUSH1 0x20 MUL DUP7 ADD SWAP4 POP PUSH2 0x238E JUMP JUMPDEST PUSH2 0x2365 DUP6 PUSH2 0x1CA2 JUMP JUMPDEST PUSH0 JUMPDEST DUP4 DUP2 LT ISZERO PUSH2 0x2386 JUMPI DUP2 SLOAD DUP2 DUP10 ADD MSTORE PUSH1 0x1 DUP3 ADD SWAP2 POP PUSH1 0x20 DUP2 ADD SWAP1 POP PUSH2 0x2367 JUMP JUMPDEST DUP1 DUP9 ADD SWAP6 POP POP POP JUMPDEST POP POP POP SWAP3 SWAP2 POP POP JUMP JUMPDEST PUSH0 PUSH1 0x60 DUP3 ADD SWAP1 POP PUSH2 0x23AA PUSH0 DUP4 ADD DUP7 PUSH2 0x19B8 JUMP JUMPDEST DUP2 DUP2 SUB PUSH1 0x20 DUP4 ADD MSTORE PUSH2 0x23BC DUP2 DUP6 PUSH2 0x2316 JUMP JUMPDEST SWAP1 POP DUP2 DUP2 SUB PUSH1 0x40 DUP4 ADD MSTORE PUSH2 0x23D0 DUP2 DUP5 PUSH2 0x2316 JUMP JUMPDEST SWAP1 POP SWAP5 SWAP4 POP POP POP POP JUMP INVALID LOG2 PUSH5 0x6970667358 0x22 SLT KECCAK256 0xB7 0xAB 0xEC SWAP5 CALLDATACOPY SUB COINBASE DUP7 DUP7 PUSH32 0xD2BFEB013D175AA0358BACDFDFC00F6A4AD1D1F55B5664736F6C634300081A00 CALLER "
	},
	"Assembly": ".code\n  PUSH 80\t\t\tcontract MultiWillContract {\\n...\n  PUSH 40\t\t\tcontract MultiWillContract {\\n...\n  MSTORE \t\t\tcontract MultiWillContract {\\n...\n  CALLVALUE \t\t\tcontract MultiWillContract {\\n...\n  DUP1 \t\t\tcontract MultiWillContract {\\n...\n  ISZERO \t\t\tcontract MultiWillContract {\\n...\n  PUSH [tag] 1\t\t\tcontract MultiWillContract {\\n...\n  JUMPI \t\t\tcontract MultiWillContract {\\n...\n  PUSH 0\t\t\tcontract MultiWillContract {\\n...\n  DUP1 \t\t\tcontract MultiWillContract {\\n...\n  REVERT \t\t\tcontract MultiWillContract {\\n...\ntag 1\t\t\tcontract MultiWillContract {\\n...\n  JUMPDEST \t\t\tcontract MultiWillContract {\\n...\n  POP \t\t\tcontract MultiWillContract {\\n...\n  PUSH #[$] 0000000000000000000000000000000000000000000000000000000000000000\t\t\tcontract MultiWillContract {\\n...\n  DUP1 \t\t\tcontract MultiWillContract {\\n...\n  PUSH [$] 0000000000000000000000000000000000000000000000000000000000000000\t\t\tcontract MultiWillContract {\\n...\n  PUSH 0\t\t\tcontract MultiWillContract {\\n...\n  CODECOPY \t\t\tcontract MultiWillContract {\\n...\n  PUSH 0\t\t\tcontract MultiWillContract {\\n...\n  RETURN \t\t\tcontract MultiWillContract {\\n...\n.data\n  0:\n    .code\n      PUSH 80\t\t\tcontract MultiWillContract {\\n...\n      PUSH 40\t\t\tcontract MultiWillContract {\\n...\n      MSTORE \t\t\tcontract MultiWillContract {\\n...\n      PUSH 4\t\t\tcontract MultiWillContract {\\n...\n      CALLDATASIZE \t\t\tcontract MultiWillContract {\\n...\n      LT \t\t\tcontract MultiWillContract {\\n...\n      PUSH [tag] 1\t\t\tcontract MultiWillContract {\\n...\n      JUMPI \t\t\tcontract MultiWillContract {\\n...\n      PUSH 0\t\t\tcontract MultiWillContract {\\n...\n      CALLDATALOAD \t\t\tcontract MultiWillContract {\\n...\n      PUSH E0\t\t\tcontract MultiWillContract {\\n...\n      SHR \t\t\tcontract MultiWillContract {\\n...\n      DUP1 \t\t\tcontract MultiWillContract {\\n...\n      PUSH 913B722C\t\t\tcontract MultiWillContract {\\n...\n      GT \t\t\tcontract MultiWillContract {\\n...\n      PUSH [tag] 9\t\t\tcontract MultiWillContract {\\n...\n      JUMPI \t\t\tcontract MultiWillContract {\\n...\n      DUP1 \t\t\tcontract MultiWillContract {\\n...\n      PUSH 913B722C\t\t\tcontract MultiWillContract {\\n...\n      EQ \t\t\tcontract MultiWillContract {\\n...\n      PUSH [tag] 5\t\t\tcontract MultiWillContract {\\n...\n      JUMPI \t\t\tcontract MultiWillContract {\\n...\n      DUP1 \t\t\tcontract MultiWillContract {\\n...\n      PUSH B0DAEB1C\t\t\tcontract MultiWillContract {\\n...\n      EQ \t\t\tcontract MultiWillContract {\\n...\n      PUSH [tag] 6\t\t\tcontract MultiWillContract {\\n...\n      JUMPI \t\t\tcontract MultiWillContract {\\n...\n      DUP1 \t\t\tcontract MultiWillContract {\\n...\n      PUSH CC4F9D5B\t\t\tcontract MultiWillContract {\\n...\n      EQ \t\t\tcontract MultiWillContract {\\n...\n      PUSH [tag] 7\t\t\tcontract MultiWillContract {\\n...\n      JUMPI \t\t\tcontract MultiWillContract {\\n...\n      DUP1 \t\t\tcontract MultiWillContract {\\n...\n      PUSH E854D135\t\t\tcontract MultiWillContract {\\n...\n      EQ \t\t\tcontract MultiWillContract {\\n...\n      PUSH [tag] 8\t\t\tcontract MultiWillContract {\\n...\n      JUMPI \t\t\tcontract MultiWillContract {\\n...\n      PUSH [tag] 1\t\t\tcontract MultiWillContract {\\n...\n      JUMP \t\t\tcontract MultiWillContract {\\n...\n    tag 9\t\t\tcontract MultiWillContract {\\n...\n      JUMPDEST \t\t\tcontract MultiWillContract {\\n...\n      DUP1 \t\t\tcontract MultiWillContract {\\n...\n      PUSH 4EBDE6D3\t\t\tcontract MultiWillContract {\\n...\n      EQ \t\t\tcontract MultiWillContract {\\n...\n      PUSH [tag] 2\t\t\tcontract MultiWillContract {\\n...\n      JUMPI \t\t\tcontract MultiWillContract {\\n...\n      DUP1 \t\t\tcontract MultiWillContract {\\n...\n      PUSH 549CC7B8\t\t\tcontract MultiWillContract {\\n...\n      EQ \t\t\tcontract MultiWillContract {\\n...\n      PUSH [tag] 3\t\t\tcontract MultiWillContract {\\n...\n      JUMPI \t\t\tcontract MultiWillContract {\\n...\n      DUP1 \t\t\tcontract MultiWillContract {\\n...\n      PUSH 6F9B65F0\t\t\tcontract MultiWillContract {\\n...\n      EQ \t\t\tcontract MultiWillContract {\\n...\n      PUSH [tag] 4\t\t\tcontract MultiWillContract {\\n...\n      JUMPI \t\t\tcontract MultiWillContract {\\n...\n    tag 1\t\t\tcontract MultiWillContract {\\n...\n      JUMPDEST \t\t\tcontract MultiWillContract {\\n...\n      PUSH 0\t\t\tcontract MultiWillContract {\\n...\n      DUP1 \t\t\tcontract MultiWillContract {\\n...\n      REVERT \t\t\tcontract MultiWillContract {\\n...\n    tag 2\t\t\tfunction addBeneficiary(\\n    ...\n      JUMPDEST \t\t\tfunction addBeneficiary(\\n    ...\n      CALLVALUE \t\t\tfunction addBeneficiary(\\n    ...\n      DUP1 \t\t\tfunction addBeneficiary(\\n    ...\n      ISZERO \t\t\tfunction addBeneficiary(\\n    ...\n      PUSH [tag] 10\t\t\tfunction addBeneficiary(\\n    ...\n      JUMPI \t\t\tfunction addBeneficiary(\\n    ...\n      PUSH 0\t\t\tfunction addBeneficiary(\\n    ...\n      DUP1 \t\t\tfunction addBeneficiary(\\n    ...\n      REVERT \t\t\tfunction addBeneficiary(\\n    ...\n    tag 10\t\t\tfunction addBeneficiary(\\n    ...\n      JUMPDEST \t\t\tfunction addBeneficiary(\\n    ...\n      POP \t\t\tfunction addBeneficiary(\\n    ...\n      PUSH [tag] 11\t\t\tfunction addBeneficiary(\\n    ...\n      PUSH 4\t\t\tfunction addBeneficiary(\\n    ...\n      DUP1 \t\t\tfunction addBeneficiary(\\n    ...\n      CALLDATASIZE \t\t\tfunction addBeneficiary(\\n    ...\n      SUB \t\t\tfunction addBeneficiary(\\n    ...\n      DUP2 \t\t\tfunction addBeneficiary(\\n    ...\n      ADD \t\t\tfunction addBeneficiary(\\n    ...\n      SWAP1 \t\t\tfunction addBeneficiary(\\n    ...\n      PUSH [tag] 12\t\t\tfunction addBeneficiary(\\n    ...\n      SWAP2 \t\t\tfunction addBeneficiary(\\n    ...\n      SWAP1 \t\t\tfunction addBeneficiary(\\n    ...\n      PUSH [tag] 13\t\t\tfunction addBeneficiary(\\n    ...\n      JUMP \t\t\tfunction addBeneficiary(\\n    ...\n    tag 12\t\t\tfunction addBeneficiary(\\n    ...\n      JUMPDEST \t\t\tfunction addBeneficiary(\\n    ...\n      PUSH [tag] 14\t\t\tfunction addBeneficiary(\\n    ...\n      JUMP \t\t\tfunction addBeneficiary(\\n    ...\n    tag 11\t\t\tfunction addBeneficiary(\\n    ...\n      JUMPDEST \t\t\tfunction addBeneficiary(\\n    ...\n      STOP \t\t\tfunction addBeneficiary(\\n    ...\n    tag 3\t\t\tmapping(address => bool) publi...\n      JUMPDEST \t\t\tmapping(address => bool) publi...\n      CALLVALUE \t\t\tmapping(address => bool) publi...\n      DUP1 \t\t\tmapping(address => bool) publi...\n      ISZERO \t\t\tmapping(address => bool) publi...\n      PUSH [tag] 15\t\t\tmapping(address => bool) publi...\n      JUMPI \t\t\tmapping(address => bool) publi...\n      PUSH 0\t\t\tmapping(address => bool) publi...\n      DUP1 \t\t\tmapping(address => bool) publi...\n      REVERT \t\t\tmapping(address => bool) publi...\n    tag 15\t\t\tmapping(address => bool) publi...\n      JUMPDEST \t\t\tmapping(address => bool) publi...\n      POP \t\t\tmapping(address => bool) publi...\n      PUSH [tag] 16\t\t\tmapping(address => bool) publi...\n      PUSH 4\t\t\tmapping(address => bool) publi...\n      DUP1 \t\t\tmapping(address => bool) publi...\n      CALLDATASIZE \t\t\tmapping(address => bool) publi...\n      SUB \t\t\tmapping(address => bool) publi...\n      DUP2 \t\t\tmapping(address => bool) publi...\n      ADD \t\t\tmapping(address => bool) publi...\n      SWAP1 \t\t\tmapping(address => bool) publi...\n      PUSH [tag] 17\t\t\tmapping(address => bool) publi...\n      SWAP2 \t\t\tmapping(address => bool) publi...\n      SWAP1 \t\t\tmapping(address => bool) publi...\n      PUSH [tag] 18\t\t\tmapping(address => bool) publi...\n      JUMP \t\t\tmapping(address => bool) publi...\n    tag 17\t\t\tmapping(address => bool) publi...\n      JUMPDEST \t\t\tmapping(address => bool) publi...\n      PUSH [tag] 19\t\t\tmapping(address => bool) publi...\n      JUMP \t\t\tmapping(address => bool) publi...\n    tag 16\t\t\tmapping(address => bool) publi...\n      JUMPDEST \t\t\tmapping(address => bool) publi...\n      PUSH 40\t\t\tmapping(address => bool) publi...\n      MLOAD \t\t\tmapping(address => bool) publi...\n      PUSH [tag] 20\t\t\tmapping(address => bool) publi...\n      SWAP2 \t\t\tmapping(address => bool) publi...\n      SWAP1 \t\t\tmapping(address => bool) publi...\n      PUSH [tag] 21\t\t\tmapping(address => bool) publi...\n      JUMP \t\t\tmapping(address => bool) publi...\n    tag 20\t\t\tmapping(address => bool) publi...\n      JUMPDEST \t\t\tmapping(address => bool) publi...\n      PUSH 40\t\t\tmapping(address => bool) publi...\n      MLOAD \t\t\tmapping(address => bool) publi...\n      DUP1 \t\t\tmapping(address => bool) publi...\n      SWAP2 \t\t\tmapping(address => bool) publi...\n      SUB \t\t\tmapping(address => bool) publi...\n      SWAP1 \t\t\tmapping(address => bool) publi...\n      RETURN \t\t\tmapping(address => bool) publi...\n    tag 4\t\t\tfunction confirmAlive() public...\n      JUMPDEST \t\t\tfunction confirmAlive() public...\n      CALLVALUE \t\t\tfunction confirmAlive() public...\n      DUP1 \t\t\tfunction confirmAlive() public...\n      ISZERO \t\t\tfunction confirmAlive() public...\n      PUSH [tag] 22\t\t\tfunction confirmAlive() public...\n      JUMPI \t\t\tfunction confirmAlive() public...\n      PUSH 0\t\t\tfunction confirmAlive() public...\n      DUP1 \t\t\tfunction confirmAlive() public...\n      REVERT \t\t\tfunction confirmAlive() public...\n    tag 22\t\t\tfunction confirmAlive() public...\n      JUMPDEST \t\t\tfunction confirmAlive() public...\n      POP \t\t\tfunction confirmAlive() public...\n      PUSH [tag] 23\t\t\tfunction confirmAlive() public...\n      PUSH [tag] 24\t\t\tfunction confirmAlive() public...\n      JUMP \t\t\tfunction confirmAlive() public...\n    tag 23\t\t\tfunction confirmAlive() public...\n      JUMPDEST \t\t\tfunction confirmAlive() public...\n      STOP \t\t\tfunction confirmAlive() public...\n    tag 5\t\t\tfunction getBeneficiaries() pu...\n      JUMPDEST \t\t\tfunction getBeneficiaries() pu...\n      CALLVALUE \t\t\tfunction getBeneficiaries() pu...\n      DUP1 \t\t\tfunction getBeneficiaries() pu...\n      ISZERO \t\t\tfunction getBeneficiaries() pu...\n      PUSH [tag] 25\t\t\tfunction getBeneficiaries() pu...\n      JUMPI \t\t\tfunction getBeneficiaries() pu...\n      PUSH 0\t\t\tfunction getBeneficiaries() pu...\n      DUP1 \t\t\tfunction getBeneficiaries() pu...\n      REVERT \t\t\tfunction getBeneficiaries() pu...\n    tag 25\t\t\tfunction getBeneficiaries() pu...\n      JUMPDEST \t\t\tfunction getBeneficiaries() pu...\n      POP \t\t\tfunction getBeneficiaries() pu...\n      PUSH [tag] 26\t\t\tfunction getBeneficiaries() pu...\n      PUSH [tag] 27\t\t\tfunction getBeneficiaries() pu...\n      JUMP \t\t\tfunction getBeneficiaries() pu...\n    tag 26\t\t\tfunction getBeneficiaries() pu...\n      JUMPDEST \t\t\tfunction getBeneficiaries() pu...\n      PUSH 40\t\t\tfunction getBeneficiaries() pu...\n      MLOAD \t\t\tfunction getBeneficiaries() pu...\n      PUSH [tag] 28\t\t\tfunction getBeneficiaries() pu...\n      SWAP2 \t\t\tfunction getBeneficiaries() pu...\n      SWAP1 \t\t\tfunction getBeneficiaries() pu...\n      PUSH [tag] 29\t\t\tfunction getBeneficiaries() pu...\n      JUMP \t\t\tfunction getBeneficiaries() pu...\n    tag 28\t\t\tfunction getBeneficiaries() pu...\n      JUMPDEST \t\t\tfunction getBeneficiaries() pu...\n      PUSH 40\t\t\tfunction getBeneficiaries() pu...\n      MLOAD \t\t\tfunction getBeneficiaries() pu...\n      DUP1 \t\t\tfunction getBeneficiaries() pu...\n      SWAP2 \t\t\tfunction getBeneficiaries() pu...\n      SUB \t\t\tfunction getBeneficiaries() pu...\n      SWAP1 \t\t\tfunction getBeneficiaries() pu...\n      RETURN \t\t\tfunction getBeneficiaries() pu...\n    tag 6\t\t\tfunction createWill(\\n        ...\n      JUMPDEST \t\t\tfunction createWill(\\n        ...\n      PUSH [tag] 30\t\t\tfunction createWill(\\n        ...\n      PUSH 4\t\t\tfunction createWill(\\n        ...\n      DUP1 \t\t\tfunction createWill(\\n        ...\n      CALLDATASIZE \t\t\tfunction createWill(\\n        ...\n      SUB \t\t\tfunction createWill(\\n        ...\n      DUP2 \t\t\tfunction createWill(\\n        ...\n      ADD \t\t\tfunction createWill(\\n        ...\n      SWAP1 \t\t\tfunction createWill(\\n        ...\n      PUSH [tag] 31\t\t\tfunction createWill(\\n        ...\n      SWAP2 \t\t\tfunction createWill(\\n        ...\n      SWAP1 \t\t\tfunction createWill(\\n        ...\n      PUSH [tag] 32\t\t\tfunction createWill(\\n        ...\n      JUMP \t\t\tfunction createWill(\\n        ...\n    tag 31\t\t\tfunction createWill(\\n        ...\n      JUMPDEST \t\t\tfunction createWill(\\n        ...\n      PUSH [tag] 33\t\t\tfunction createWill(\\n        ...\n      JUMP \t\t\tfunction createWill(\\n        ...\n    tag 30\t\t\tfunction createWill(\\n        ...\n      JUMPDEST \t\t\tfunction createWill(\\n        ...\n      STOP \t\t\tfunction createWill(\\n        ...\n    tag 7\t\t\tfunction getWillDetails() publ...\n      JUMPDEST \t\t\tfunction getWillDetails() publ...\n      CALLVALUE \t\t\tfunction getWillDetails() publ...\n      DUP1 \t\t\tfunction getWillDetails() publ...\n      ISZERO \t\t\tfunction getWillDetails() publ...\n      PUSH [tag] 34\t\t\tfunction getWillDetails() publ...\n      JUMPI \t\t\tfunction getWillDetails() publ...\n      PUSH 0\t\t\tfunction getWillDetails() publ...\n      DUP1 \t\t\tfunction getWillDetails() publ...\n      REVERT \t\t\tfunction getWillDetails() publ...\n    tag 34\t\t\tfunction getWillDetails() publ...\n      JUMPDEST \t\t\tfunction getWillDetails() publ...\n      POP \t\t\tfunction getWillDetails() publ...\n      PUSH [tag] 35\t\t\tfunction getWillDetails() publ...\n      PUSH [tag] 36\t\t\tfunction getWillDetails() publ...\n      JUMP \t\t\tfunction getWillDetails() publ...\n    tag 35\t\t\tfunction getWillDetails() publ...\n      JUMPDEST \t\t\tfunction getWillDetails() publ...\n      PUSH 40\t\t\tfunction getWillDetails() publ...\n      MLOAD \t\t\tfunction getWillDetails() publ...\n      PUSH [tag] 37\t\t\tfunction getWillDetails() publ...\n      SWAP5 \t\t\tfunction getWillDetails() publ...\n      SWAP4 \t\t\tfunction getWillDetails() publ...\n      SWAP3 \t\t\tfunction getWillDetails() publ...\n      SWAP2 \t\t\tfunction getWillDetails() publ...\n      SWAP1 \t\t\tfunction getWillDetails() publ...\n      PUSH [tag] 38\t\t\tfunction getWillDetails() publ...\n      JUMP \t\t\tfunction getWillDetails() publ...\n    tag 37\t\t\tfunction getWillDetails() publ...\n      JUMPDEST \t\t\tfunction getWillDetails() publ...\n      PUSH 40\t\t\tfunction getWillDetails() publ...\n      MLOAD \t\t\tfunction getWillDetails() publ...\n      DUP1 \t\t\tfunction getWillDetails() publ...\n      SWAP2 \t\t\tfunction getWillDetails() publ...\n      SUB \t\t\tfunction getWillDetails() publ...\n      SWAP1 \t\t\tfunction getWillDetails() publ...\n      RETURN \t\t\tfunction getWillDetails() publ...\n    tag 8\t\t\tfunction executeWill(address u...\n      JUMPDEST \t\t\tfunction executeWill(address u...\n      CALLVALUE \t\t\tfunction executeWill(address u...\n      DUP1 \t\t\tfunction executeWill(address u...\n      ISZERO \t\t\tfunction executeWill(address u...\n      PUSH [tag] 39\t\t\tfunction executeWill(address u...\n      JUMPI \t\t\tfunction executeWill(address u...\n      PUSH 0\t\t\tfunction executeWill(address u...\n      DUP1 \t\t\tfunction executeWill(address u...\n      REVERT \t\t\tfunction executeWill(address u...\n    tag 39\t\t\tfunction executeWill(address u...\n      JUMPDEST \t\t\tfunction executeWill(address u...\n      POP \t\t\tfunction executeWill(address u...\n      PUSH [tag] 40\t\t\tfunction executeWill(address u...\n      PUSH 4\t\t\tfunction executeWill(address u...\n      DUP1 \t\t\tfunction executeWill(address u...\n      CALLDATASIZE \t\t\tfunction executeWill(address u...\n      SUB \t\t\tfunction executeWill(address u...\n      DUP2 \t\t\tfunction executeWill(address u...\n      ADD \t\t\tfunction executeWill(address u...\n      SWAP1 \t\t\tfunction executeWill(address u...\n      PUSH [tag] 41\t\t\tfunction executeWill(address u...\n      SWAP2 \t\t\tfunction executeWill(address u...\n      SWAP1 \t\t\tfunction executeWill(address u...\n      PUSH [tag] 18\t\t\tfunction executeWill(address u...\n      JUMP \t\t\tfunction executeWill(address u...\n    tag 41\t\t\tfunction executeWill(address u...\n      JUMPDEST \t\t\tfunction executeWill(address u...\n      PUSH [tag] 42\t\t\tfunction executeWill(address u...\n      JUMP \t\t\tfunction executeWill(address u...\n    tag 40\t\t\tfunction executeWill(address u...\n      JUMPDEST \t\t\tfunction executeWill(address u...\n      STOP \t\t\tfunction executeWill(address u...\n    tag 14\t\t\tfunction addBeneficiary(\\n    ...\n      JUMPDEST \t\t\tfunction addBeneficiary(\\n    ...\n      PUSH 1\t\t\thasWill\n      PUSH 0\t\t\thasWill[msg.sender]\n      CALLER \t\t\tmsg.sender\n      PUSH FFFFFFFFFFFFFFFFFFFFFFFFFFFFFFFFFFFFFFFF\t\t\thasWill[msg.sender]\n      AND \t\t\thasWill[msg.sender]\n      PUSH FFFFFFFFFFFFFFFFFFFFFFFFFFFFFFFFFFFFFFFF\t\t\thasWill[msg.sender]\n      AND \t\t\thasWill[msg.sender]\n      DUP2 \t\t\thasWill[msg.sender]\n      MSTORE \t\t\thasWill[msg.sender]\n      PUSH 20\t\t\thasWill[msg.sender]\n      ADD \t\t\thasWill[msg.sender]\n      SWAP1 \t\t\thasWill[msg.sender]\n      DUP2 \t\t\thasWill[msg.sender]\n      MSTORE \t\t\thasWill[msg.sender]\n      PUSH 20\t\t\thasWill[msg.sender]\n      ADD \t\t\thasWill[msg.sender]\n      PUSH 0\t\t\thasWill[msg.sender]\n      KECCAK256 \t\t\thasWill[msg.sender]\n      PUSH 0\t\t\thasWill[msg.sender]\n      SWAP1 \t\t\thasWill[msg.sender]\n      SLOAD \t\t\thasWill[msg.sender]\n      SWAP1 \t\t\thasWill[msg.sender]\n      PUSH 100\t\t\thasWill[msg.sender]\n      EXP \t\t\thasWill[msg.sender]\n      SWAP1 \t\t\thasWill[msg.sender]\n      DIV \t\t\thasWill[msg.sender]\n      PUSH FF\t\t\thasWill[msg.sender]\n      AND \t\t\thasWill[msg.sender]\n      PUSH [tag] 44\t\t\trequire(hasWill[msg.sender], \"...\n      JUMPI \t\t\trequire(hasWill[msg.sender], \"...\n      PUSH 40\t\t\trequire(hasWill[msg.sender], \"...\n      MLOAD \t\t\trequire(hasWill[msg.sender], \"...\n      PUSH 8C379A000000000000000000000000000000000000000000000000000000000\t\t\trequire(hasWill[msg.sender], \"...\n      DUP2 \t\t\trequire(hasWill[msg.sender], \"...\n      MSTORE \t\t\trequire(hasWill[msg.sender], \"...\n      PUSH 4\t\t\trequire(hasWill[msg.sender], \"...\n      ADD \t\t\trequire(hasWill[msg.sender], \"...\n      PUSH [tag] 45\t\t\trequire(hasWill[msg.sender], \"...\n      SWAP1 \t\t\trequire(hasWill[msg.sender], \"...\n      PUSH [tag] 46\t\t\trequire(hasWill[msg.sender], \"...\n      JUMP \t\t\trequire(hasWill[msg.sender], \"...\n    tag 45\t\t\trequire(hasWill[msg.sender], \"...\n      JUMPDEST \t\t\trequire(hasWill[msg.sender], \"...\n      PUSH 40\t\t\trequire(hasWill[msg.sender], \"...\n      MLOAD \t\t\trequire(hasWill[msg.sender], \"...\n      DUP1 \t\t\trequire(hasWill[msg.sender], \"...\n      SWAP2 \t\t\trequire(hasWill[msg.sender], \"...\n      SUB \t\t\trequire(hasWill[msg.sender], \"...\n      SWAP1 \t\t\trequire(hasWill[msg.sender], \"...\n      REVERT \t\t\trequire(hasWill[msg.sender], \"...\n    tag 44\t\t\trequire(hasWill[msg.sender], \"...\n      JUMPDEST \t\t\trequire(hasWill[msg.sender], \"...\n      PUSH 0\t\t\t0\n      PUSH FFFFFFFFFFFFFFFFFFFFFFFFFFFFFFFFFFFFFFFF\t\t\t_wallet != address(0)\n      AND \t\t\t_wallet != address(0)\n      DUP5 \t\t\t_wallet\n      PUSH FFFFFFFFFFFFFFFFFFFFFFFFFFFFFFFFFFFFFFFF\t\t\t_wallet != address(0)\n      AND \t\t\t_wallet != address(0)\n      SUB \t\t\t_wallet != address(0)\n      PUSH [tag] 47\t\t\trequire(_wallet != address(0),...\n      JUMPI \t\t\trequire(_wallet != address(0),...\n      PUSH 40\t\t\trequire(_wallet != address(0),...\n      MLOAD \t\t\trequire(_wallet != address(0),...\n      PUSH 8C379A000000000000000000000000000000000000000000000000000000000\t\t\trequire(_wallet != address(0),...\n      DUP2 \t\t\trequire(_wallet != address(0),...\n      MSTORE \t\t\trequire(_wallet != address(0),...\n      PUSH 4\t\t\trequire(_wallet != address(0),...\n      ADD \t\t\trequire(_wallet != address(0),...\n      PUSH [tag] 48\t\t\trequire(_wallet != address(0),...\n      SWAP1 \t\t\trequire(_wallet != address(0),...\n      PUSH [tag] 49\t\t\trequire(_wallet != address(0),...\n      JUMP \t\t\trequire(_wallet != address(0),...\n    tag 48\t\t\trequire(_wallet != address(0),...\n      JUMPDEST \t\t\trequire(_wallet != address(0),...\n      PUSH 40\t\t\trequire(_wallet != address(0),...\n      MLOAD \t\t\trequire(_wallet != address(0),...\n      DUP1 \t\t\trequire(_wallet != address(0),...\n      SWAP2 \t\t\trequire(_wallet != address(0),...\n      SUB \t\t\trequire(_wallet != address(0),...\n      SWAP1 \t\t\trequire(_wallet != address(0),...\n      REVERT \t\t\trequire(_wallet != address(0),...\n    tag 47\t\t\trequire(_wallet != address(0),...\n      JUMPDEST \t\t\trequire(_wallet != address(0),...\n      PUSH 0\t\t\t0\n      DUP4 \t\t\t_percentage\n      GT \t\t\t_percentage > 0\n      DUP1 \t\t\t_percentage > 0 && _percentage...\n      ISZERO \t\t\t_percentage > 0 && _percentage...\n      PUSH [tag] 50\t\t\t_percentage > 0 && _percentage...\n      JUMPI \t\t\t_percentage > 0 && _percentage...\n      POP \t\t\t_percentage > 0 && _percentage...\n      PUSH 64\t\t\t100\n      DUP4 \t\t\t_percentage\n      GT \t\t\t_percentage <= 100\n      ISZERO \t\t\t_percentage <= 100\n    tag 50\t\t\t_percentage > 0 && _percentage...\n      JUMPDEST \t\t\t_percentage > 0 && _percentage...\n      PUSH [tag] 51\t\t\trequire(_percentage > 0 && _pe...\n      JUMPI \t\t\trequire(_percentage > 0 && _pe...\n      PUSH 40\t\t\trequire(_percentage > 0 && _pe...\n      MLOAD \t\t\trequire(_percentage > 0 && _pe...\n      PUSH 8C379A000000000000000000000000000000000000000000000000000000000\t\t\trequire(_percentage > 0 && _pe...\n      DUP2 \t\t\trequire(_percentage > 0 && _pe...\n      MSTORE \t\t\trequire(_percentage > 0 && _pe...\n      PUSH 4\t\t\trequire(_percentage > 0 && _pe...\n      ADD \t\t\trequire(_percentage > 0 && _pe...\n      PUSH [tag] 52\t\t\trequire(_percentage > 0 && _pe...\n      SWAP1 \t\t\trequire(_percentage > 0 && _pe...\n      PUSH [tag] 53\t\t\trequire(_percentage > 0 && _pe...\n      JUMP \t\t\trequire(_percentage > 0 && _pe...\n    tag 52\t\t\trequire(_percentage > 0 && _pe...\n      JUMPDEST \t\t\trequire(_percentage > 0 && _pe...\n      PUSH 40\t\t\trequire(_percentage > 0 && _pe...\n      MLOAD \t\t\trequire(_percentage > 0 && _pe...\n      DUP1 \t\t\trequire(_percentage > 0 && _pe...\n      SWAP2 \t\t\trequire(_percentage > 0 && _pe...\n      SUB \t\t\trequire(_percentage > 0 && _pe...\n      SWAP1 \t\t\trequire(_percentage > 0 && _pe...\n      REVERT \t\t\trequire(_percentage > 0 && _pe...\n    tag 51\t\t\trequire(_percentage > 0 && _pe...\n      JUMPDEST \t\t\trequire(_percentage > 0 && _pe...\n      PUSH 0\t\t\tuint256 totalPercentage\n      DUP1 \t\t\tuint i\n    tag 54\t\t\tfor (uint i = 0; i < wills[msg...\n      JUMPDEST \t\t\tfor (uint i = 0; i < wills[msg...\n      PUSH 0\t\t\twills\n      DUP1 \t\t\twills[msg.sender]\n      CALLER \t\t\tmsg.sender\n      PUSH FFFFFFFFFFFFFFFFFFFFFFFFFFFFFFFFFFFFFFFF\t\t\twills[msg.sender]\n      AND \t\t\twills[msg.sender]\n      PUSH FFFFFFFFFFFFFFFFFFFFFFFFFFFFFFFFFFFFFFFF\t\t\twills[msg.sender]\n      AND \t\t\twills[msg.sender]\n      DUP2 \t\t\twills[msg.sender]\n      MSTORE \t\t\twills[msg.sender]\n      PUSH 20\t\t\twills[msg.sender]\n      ADD \t\t\twills[msg.sender]\n      SWAP1 \t\t\twills[msg.sender]\n      DUP2 \t\t\twills[msg.sender]\n      MSTORE \t\t\twills[msg.sender]\n      PUSH 20\t\t\twills[msg.sender]\n      ADD \t\t\twills[msg.sender]\n      PUSH 0\t\t\twills[msg.sender]\n      KECCAK256 \t\t\twills[msg.sender]\n      PUSH 7\t\t\twills[msg.sender].beneficiarie...\n      ADD \t\t\twills[msg.sender].beneficiarie...\n      DUP1 \t\t\twills[msg.sender].beneficiarie...\n      SLOAD \t\t\twills[msg.sender].beneficiarie...\n      SWAP1 \t\t\twills[msg.sender].beneficiarie...\n      POP \t\t\twills[msg.sender].beneficiarie...\n      DUP2 \t\t\ti\n      LT \t\t\ti < wills[msg.sender].benefici...\n      ISZERO \t\t\tfor (uint i = 0; i < wills[msg...\n      PUSH [tag] 55\t\t\tfor (uint i = 0; i < wills[msg...\n      JUMPI \t\t\tfor (uint i = 0; i < wills[msg...\n      PUSH 0\t\t\twills\n      DUP1 \t\t\twills[msg.sender]\n      CALLER \t\t\tmsg.sender\n      PUSH FFFFFFFFFFFFFFFFFFFFFFFFFFFFFFFFFFFFFFFF\t\t\twills[msg.sender]\n      AND \t\t\twills[msg.sender]\n      PUSH FFFFFFFFFFFFFFFFFFFFFFFFFFFFFFFFFFFFFFFF\t\t\twills[msg.sender]\n      AND \t\t\twills[msg.sender]\n      DUP2 \t\t\twills[msg.sender]\n      MSTORE \t\t\twills[msg.sender]\n      PUSH 20\t\t\twills[msg.sender]\n      ADD \t\t\twills[msg.sender]\n      SWAP1 \t\t\twills[msg.sender]\n      DUP2 \t\t\twills[msg.sender]\n      MSTORE \t\t\twills[msg.sender]\n      PUSH 20\t\t\twills[msg.sender]\n      ADD \t\t\twills[msg.sender]\n      PUSH 0\t\t\twills[msg.sender]\n      KECCAK256 \t\t\twills[msg.sender]\n      PUSH 7\t\t\twills[msg.sender].beneficiarie...\n      ADD \t\t\twills[msg.sender].beneficiarie...\n      DUP2 \t\t\ti\n      DUP2 \t\t\twills[msg.sender].beneficiarie...\n      SLOAD \t\t\twills[msg.sender].beneficiarie...\n      DUP2 \t\t\twills[msg.sender].beneficiarie...\n      LT \t\t\twills[msg.sender].beneficiarie...\n      PUSH [tag] 57\t\t\twills[msg.sender].beneficiarie...\n      JUMPI \t\t\twills[msg.sender].beneficiarie...\n      PUSH [tag] 58\t\t\twills[msg.sender].beneficiarie...\n      PUSH [tag] 59\t\t\twills[msg.sender].beneficiarie...\n      JUMP \t\t\twills[msg.sender].beneficiarie...\n    tag 58\t\t\twills[msg.sender].beneficiarie...\n      JUMPDEST \t\t\twills[msg.sender].beneficiarie...\n    tag 57\t\t\twills[msg.sender].beneficiarie...\n      JUMPDEST \t\t\twills[msg.sender].beneficiarie...\n      SWAP1 \t\t\twills[msg.sender].beneficiarie...\n      PUSH 0\t\t\twills[msg.sender].beneficiarie...\n      MSTORE \t\t\twills[msg.sender].beneficiarie...\n      PUSH 20\t\t\twills[msg.sender].beneficiarie...\n      PUSH 0\t\t\twills[msg.sender].beneficiarie...\n      KECCAK256 \t\t\twills[msg.sender].beneficiarie...\n      SWAP1 \t\t\twills[msg.sender].beneficiarie...\n      PUSH 4\t\t\twills[msg.sender].beneficiarie...\n      MUL \t\t\twills[msg.sender].beneficiarie...\n      ADD \t\t\twills[msg.sender].beneficiarie...\n      PUSH 1\t\t\twills[msg.sender].beneficiarie...\n      ADD \t\t\twills[msg.sender].beneficiarie...\n      SLOAD \t\t\twills[msg.sender].beneficiarie...\n      DUP3 \t\t\ttotalPercentage += wills[msg.s...\n      PUSH [tag] 61\t\t\ttotalPercentage += wills[msg.s...\n      SWAP2 \t\t\ttotalPercentage += wills[msg.s...\n      SWAP1 \t\t\ttotalPercentage += wills[msg.s...\n      PUSH [tag] 62\t\t\ttotalPercentage += wills[msg.s...\n      JUMP \t\t\ttotalPercentage += wills[msg.s...\n    tag 61\t\t\ttotalPercentage += wills[msg.s...\n      JUMPDEST \t\t\ttotalPercentage += wills[msg.s...\n      SWAP2 \t\t\ttotalPercentage += wills[msg.s...\n      POP \t\t\ttotalPercentage += wills[msg.s...\n      DUP1 \t\t\ti++\n      DUP1 \t\t\ti++\n      PUSH 1\t\t\ti++\n      ADD \t\t\ti++\n      SWAP2 \t\t\ti++\n      POP \t\t\ti++\n      POP \t\t\ti++\n      PUSH [tag] 54\t\t\tfor (uint i = 0; i < wills[msg...\n      JUMP \t\t\tfor (uint i = 0; i < wills[msg...\n    tag 55\t\t\tfor (uint i = 0; i < wills[msg...\n      JUMPDEST \t\t\tfor (uint i = 0; i < wills[msg...\n      POP \t\t\tfor (uint i = 0; i < wills[msg...\n      PUSH 64\t\t\t100\n      DUP5 \t\t\t_percentage\n      DUP3 \t\t\ttotalPercentage\n      PUSH [tag] 63\t\t\ttotalPercentage + _percentage\n      SWAP2 \t\t\ttotalPercentage + _percentage\n      SWAP1 \t\t\ttotalPercentage + _percentage\n      PUSH [tag] 62\t\t\ttotalPercentage + _percentage\n      JUMP \t\t\ttotalPercentage + _percentage\n    tag 63\t\t\ttotalPercentage + _percentage\n      JUMPDEST \t\t\ttotalPercentage + _percentage\n      GT \t\t\ttotalPercentage + _percentage ...\n      ISZERO \t\t\ttotalPercentage + _percentage ...\n      PUSH [tag] 64\t\t\trequire(totalPercentage + _per...\n      JUMPI \t\t\trequire(totalPercentage + _per...\n      PUSH 40\t\t\trequire(totalPercentage + _per...\n      MLOAD \t\t\trequire(totalPercentage + _per...\n      PUSH 8C379A000000000000000000000000000000000000000000000000000000000\t\t\trequire(totalPercentage + _per...\n      DUP2 \t\t\trequire(totalPercentage + _per...\n      MSTORE \t\t\trequire(totalPercentage + _per...\n      PUSH 4\t\t\trequire(totalPercentage + _per...\n      ADD \t\t\trequire(totalPercentage + _per...\n      PUSH [tag] 65\t\t\trequire(totalPercentage + _per...\n      SWAP1 \t\t\trequire(totalPercentage + _per...\n      PUSH [tag] 66\t\t\trequire(totalPercentage + _per...\n      JUMP \t\t\trequire(totalPercentage + _per...\n    tag 65\t\t\trequire(totalPercentage + _per...\n      JUMPDEST \t\t\trequire(totalPercentage + _per...\n      PUSH 40\t\t\trequire(totalPercentage + _per...\n      MLOAD \t\t\trequire(totalPercentage + _per...\n      DUP1 \t\t\trequire(totalPercentage + _per...\n      SWAP2 \t\t\trequire(totalPercentage + _per...\n      SUB \t\t\trequire(totalPercentage + _per...\n      SWAP1 \t\t\trequire(totalPercentage + _per...\n      REVERT \t\t\trequire(totalPercentage + _per...\n    tag 64\t\t\trequire(totalPercentage + _per...\n      JUMPDEST \t\t\trequire(totalPercentage + _per...\n      PUSH 0\t\t\twills\n      DUP1 \t\t\twills[msg.sender]\n      CALLER \t\t\tmsg.sender\n      PUSH FFFFFFFFFFFFFFFFFFFFFFFFFFFFFFFFFFFFFFFF\t\t\twills[msg.sender]\n      AND \t\t\twills[msg.sender]\n      PUSH FFFFFFFFFFFFFFFFFFFFFFFFFFFFFFFFFFFFFFFF\t\t\twills[msg.sender]\n      AND \t\t\twills[msg.sender]\n      DUP2 \t\t\twills[msg.sender]\n      MSTORE \t\t\twills[msg.sender]\n      PUSH 20\t\t\twills[msg.sender]\n      ADD \t\t\twills[msg.sender]\n      SWAP1 \t\t\twills[msg.sender]\n      DUP2 \t\t\twills[msg.sender]\n      MSTORE \t\t\twills[msg.sender]\n      PUSH 20\t\t\twills[msg.sender]\n      ADD \t\t\twills[msg.sender]\n      PUSH 0\t\t\twills[msg.sender]\n      KECCAK256 \t\t\twills[msg.sender]\n      PUSH 7\t\t\twills[msg.sender].beneficiarie...\n      ADD \t\t\twills[msg.sender].beneficiarie...\n      PUSH 40\t\t\tBeneficiary(_wallet, _percenta...\n      MLOAD \t\t\tBeneficiary(_wallet, _percenta...\n      DUP1 \t\t\tBeneficiary(_wallet, _percenta...\n      PUSH 80\t\t\tBeneficiary(_wallet, _percenta...\n      ADD \t\t\tBeneficiary(_wallet, _percenta...\n      PUSH 40\t\t\tBeneficiary(_wallet, _percenta...\n      MSTORE \t\t\tBeneficiary(_wallet, _percenta...\n      DUP1 \t\t\tBeneficiary(_wallet, _percenta...\n      DUP8 \t\t\t_wallet\n      PUSH FFFFFFFFFFFFFFFFFFFFFFFFFFFFFFFFFFFFFFFF\t\t\tBeneficiary(_wallet, _percenta...\n      AND \t\t\tBeneficiary(_wallet, _percenta...\n      DUP2 \t\t\tBeneficiary(_wallet, _percenta...\n      MSTORE \t\t\tBeneficiary(_wallet, _percenta...\n      PUSH 20\t\t\tBeneficiary(_wallet, _percenta...\n      ADD \t\t\tBeneficiary(_wallet, _percenta...\n      DUP7 \t\t\t_percentage\n      DUP2 \t\t\tBeneficiary(_wallet, _percenta...\n      MSTORE \t\t\tBeneficiary(_wallet, _percenta...\n      PUSH 20\t\t\tBeneficiary(_wallet, _percenta...\n      ADD \t\t\tBeneficiary(_wallet, _percenta...\n      DUP6 \t\t\t_saleDeedIpfsHash\n      DUP2 \t\t\tBeneficiary(_wallet, _percenta...\n      MSTORE \t\t\tBeneficiary(_wallet, _percenta...\n      PUSH 20\t\t\tBeneficiary(_wallet, _percenta...\n      ADD \t\t\tBeneficiary(_wallet, _percenta...\n      DUP5 \t\t\t_email\n      DUP2 \t\t\tBeneficiary(_wallet, _percenta...\n      MSTORE \t\t\tBeneficiary(_wallet, _percenta...\n      POP \t\t\tBeneficiary(_wallet, _percenta...\n      SWAP1 \t\t\twills[msg.sender].beneficiarie...\n      DUP1 \t\t\twills[msg.sender].beneficiarie...\n      PUSH 1\t\t\twills[msg.sender].beneficiarie...\n      DUP2 \t\t\twills[msg.sender].beneficiarie...\n      SLOAD \t\t\twills[msg.sender].beneficiarie...\n      ADD \t\t\twills[msg.sender].beneficiarie...\n      DUP1 \t\t\twills[msg.sender].beneficiarie...\n      DUP3 \t\t\twills[msg.sender].beneficiarie...\n      SSTORE \t\t\twills[msg.sender].beneficiarie...\n      DUP1 \t\t\twills[msg.sender].beneficiarie...\n      SWAP2 \t\t\twills[msg.sender].beneficiarie...\n      POP \t\t\twills[msg.sender].beneficiarie...\n      POP \t\t\twills[msg.sender].beneficiarie...\n      PUSH 1\t\t\twills[msg.sender].beneficiarie...\n      SWAP1 \t\t\twills[msg.sender].beneficiarie...\n      SUB \t\t\twills[msg.sender].beneficiarie...\n      SWAP1 \t\t\twills[msg.sender].beneficiarie...\n      PUSH 0\t\t\twills[msg.sender].beneficiarie...\n      MSTORE \t\t\twills[msg.sender].beneficiarie...\n      PUSH 20\t\t\twills[msg.sender].beneficiarie...\n      PUSH 0\t\t\twills[msg.sender].beneficiarie...\n      KECCAK256 \t\t\twills[msg.sender].beneficiarie...\n      SWAP1 \t\t\twills[msg.sender].beneficiarie...\n      PUSH 4\t\t\twills[msg.sender].beneficiarie...\n      MUL \t\t\twills[msg.sender].beneficiarie...\n      ADD \t\t\twills[msg.sender].beneficiarie...\n      PUSH 0\t\t\twills[msg.sender].beneficiarie...\n      SWAP1 \t\t\twills[msg.sender].beneficiarie...\n      SWAP2 \t\t\twills[msg.sender].beneficiarie...\n      SWAP1 \t\t\twills[msg.sender].beneficiarie...\n      SWAP2 \t\t\twills[msg.sender].beneficiarie...\n      SWAP1 \t\t\twills[msg.sender].beneficiarie...\n      SWAP2 \t\t\twills[msg.sender].beneficiarie...\n      POP \t\t\twills[msg.sender].beneficiarie...\n      PUSH 0\t\t\twills[msg.sender].beneficiarie...\n      DUP3 \t\t\twills[msg.sender].beneficiarie...\n      ADD \t\t\twills[msg.sender].beneficiarie...\n      MLOAD \t\t\twills[msg.sender].beneficiarie...\n      DUP2 \t\t\twills[msg.sender].beneficiarie...\n      PUSH 0\t\t\twills[msg.sender].beneficiarie...\n      ADD \t\t\twills[msg.sender].beneficiarie...\n      PUSH 0\t\t\twills[msg.sender].beneficiarie...\n      PUSH 100\t\t\twills[msg.sender].beneficiarie...\n      EXP \t\t\twills[msg.sender].beneficiarie...\n      DUP2 \t\t\twills[msg.sender].beneficiarie...\n      SLOAD \t\t\twills[msg.sender].beneficiarie...\n      DUP2 \t\t\twills[msg.sender].beneficiarie...\n      PUSH FFFFFFFFFFFFFFFFFFFFFFFFFFFFFFFFFFFFFFFF\t\t\twills[msg.sender].beneficiarie...\n      MUL \t\t\twills[msg.sender].beneficiarie...\n      NOT \t\t\twills[msg.sender].beneficiarie...\n      AND \t\t\twills[msg.sender].beneficiarie...\n      SWAP1 \t\t\twills[msg.sender].beneficiarie...\n      DUP4 \t\t\twills[msg.sender].beneficiarie...\n      PUSH FFFFFFFFFFFFFFFFFFFFFFFFFFFFFFFFFFFFFFFF\t\t\twills[msg.sender].beneficiarie...\n      AND \t\t\twills[msg.sender].beneficiarie...\n      MUL \t\t\twills[msg.sender].beneficiarie...\n      OR \t\t\twills[msg.sender].beneficiarie...\n      SWAP1 \t\t\twills[msg.sender].beneficiarie...\n      SSTORE \t\t\twills[msg.sender].beneficiarie...\n      POP \t\t\twills[msg.sender].beneficiarie...\n      PUSH 20\t\t\twills[msg.sender].beneficiarie...\n      DUP3 \t\t\twills[msg.sender].beneficiarie...\n      ADD \t\t\twills[msg.sender].beneficiarie...\n      MLOAD \t\t\twills[msg.sender].beneficiarie...\n      DUP2 \t\t\twills[msg.sender].beneficiarie...\n      PUSH 1\t\t\twills[msg.sender].beneficiarie...\n      ADD \t\t\twills[msg.sender].beneficiarie...\n      SSTORE \t\t\twills[msg.sender].beneficiarie...\n      PUSH 40\t\t\twills[msg.sender].beneficiarie...\n      DUP3 \t\t\twills[msg.sender].beneficiarie...\n      ADD \t\t\twills[msg.sender].beneficiarie...\n      MLOAD \t\t\twills[msg.sender].beneficiarie...\n      DUP2 \t\t\twills[msg.sender].beneficiarie...\n      PUSH 2\t\t\twills[msg.sender].beneficiarie...\n      ADD \t\t\twills[msg.sender].beneficiarie...\n      SWAP1 \t\t\twills[msg.sender].beneficiarie...\n      DUP2 \t\t\twills[msg.sender].beneficiarie...\n      PUSH [tag] 68\t\t\twills[msg.sender].beneficiarie...\n      SWAP2 \t\t\twills[msg.sender].beneficiarie...\n      SWAP1 \t\t\twills[msg.sender].beneficiarie...\n      PUSH [tag] 69\t\t\twills[msg.sender].beneficiarie...\n      JUMP \t\t\twills[msg.sender].beneficiarie...\n    tag 68\t\t\twills[msg.sender].beneficiarie...\n      JUMPDEST \t\t\twills[msg.sender].beneficiarie...\n      POP \t\t\twills[msg.sender].beneficiarie...\n      PUSH 60\t\t\twills[msg.sender].beneficiarie...\n      DUP3 \t\t\twills[msg.sender].beneficiarie...\n      ADD \t\t\twills[msg.sender].beneficiarie...\n      MLOAD \t\t\twills[msg.sender].beneficiarie...\n      DUP2 \t\t\twills[msg.sender].beneficiarie...\n      PUSH 3\t\t\twills[msg.sender].beneficiarie...\n      ADD \t\t\twills[msg.sender].beneficiarie...\n      SWAP1 \t\t\twills[msg.sender].beneficiarie...\n      DUP2 \t\t\twills[msg.sender].beneficiarie...\n      PUSH [tag] 70\t\t\twills[msg.sender].beneficiarie...\n      SWAP2 \t\t\twills[msg.sender].beneficiarie...\n      SWAP1 \t\t\twills[msg.sender].beneficiarie...\n      PUSH [tag] 69\t\t\twills[msg.sender].beneficiarie...\n      JUMP \t\t\twills[msg.sender].beneficiarie...\n    tag 70\t\t\twills[msg.sender].beneficiarie...\n      JUMPDEST \t\t\twills[msg.sender].beneficiarie...\n      POP \t\t\twills[msg.sender].beneficiarie...\n      POP \t\t\twills[msg.sender].beneficiarie...\n      POP \t\t\twills[msg.sender].beneficiarie...\n      CALLER \t\t\tmsg.sender\n      PUSH FFFFFFFFFFFFFFFFFFFFFFFFFFFFFFFFFFFFFFFF\t\t\tBeneficiaryAdded(msg.sender, _...\n      AND \t\t\tBeneficiaryAdded(msg.sender, _...\n      PUSH 5D081D791B64899ADAB031015397EF8D7600501212EF97573B9E50F8C9BB6D9B\t\t\tBeneficiaryAdded(msg.sender, _...\n      DUP7 \t\t\t_wallet\n      DUP7 \t\t\t_percentage\n      PUSH 40\t\t\tBeneficiaryAdded(msg.sender, _...\n      MLOAD \t\t\tBeneficiaryAdded(msg.sender, _...\n      PUSH [tag] 71\t\t\tBeneficiaryAdded(msg.sender, _...\n      SWAP3 \t\t\tBeneficiaryAdded(msg.sender, _...\n      SWAP2 \t\t\tBeneficiaryAdded(msg.sender, _...\n      SWAP1 \t\t\tBeneficiaryAdded(msg.sender, _...\n      PUSH [tag] 72\t\t\tBeneficiaryAdded(msg.sender, _...\n      JUMP \t\t\tBeneficiaryAdded(msg.sender, _...\n    tag 71\t\t\tBeneficiaryAdded(msg.sender, _...\n      JUMPDEST \t\t\tBeneficiaryAdded(msg.sender, _...\n      PUSH 40\t\t\tBeneficiaryAdded(msg.sender, _...\n      MLOAD \t\t\tBeneficiaryAdded(msg.sender, _...\n      DUP1 \t\t\tBeneficiaryAdded(msg.sender, _...\n      SWAP2 \t\t\tBeneficiaryAdded(msg.sender, _...\n      SUB \t\t\tBeneficiaryAdded(msg.sender, _...\n      SWAP1 \t\t\tBeneficiaryAdded(msg.sender, _...\n      LOG2 \t\t\tBeneficiaryAdded(msg.sender, _...\n      POP \t\t\t{\\n        require(hasWill[msg...\n      POP \t\t\tfunction addBeneficiary(\\n    ...\n      POP \t\t\tfunction addBeneficiary(\\n    ...\n      POP \t\t\tfunction addBeneficiary(\\n    ...\n      POP \t\t\tfunction addBeneficiary(\\n    ...\n      JUMP \t\t\tfunction addBeneficiary(\\n    ...\n    tag 19\t\t\tmapping(address => bool) publi...\n      JUMPDEST \t\t\tmapping(address => bool) publi...\n      PUSH 1\t\t\tmapping(address => bool) publi...\n      PUSH 20\t\t\tmapping(address => bool) publi...\n      MSTORE \t\t\tmapping(address => bool) publi...\n      DUP1 \t\t\tmapping(address => bool) publi...\n      PUSH 0\t\t\tmapping(address => bool) publi...\n      MSTORE \t\t\tmapping(address => bool) publi...\n      PUSH 40\t\t\tmapping(address => bool) publi...\n      PUSH 0\t\t\tmapping(address => bool) publi...\n      KECCAK256 \t\t\tmapping(address => bool) publi...\n      PUSH 0\t\t\tmapping(address => bool) publi...\n      SWAP2 \t\t\tmapping(address => bool) publi...\n      POP \t\t\tmapping(address => bool) publi...\n      SLOAD \t\t\tmapping(address => bool) publi...\n      SWAP1 \t\t\tmapping(address => bool) publi...\n      PUSH 100\t\t\tmapping(address => bool) publi...\n      EXP \t\t\tmapping(address => bool) publi...\n      SWAP1 \t\t\tmapping(address => bool) publi...\n      DIV \t\t\tmapping(address => bool) publi...\n      PUSH FF\t\t\tmapping(address => bool) publi...\n      AND \t\t\tmapping(address => bool) publi...\n      DUP2 \t\t\tmapping(address => bool) publi...\n      JUMP \t\t\tmapping(address => bool) publi...\n    tag 24\t\t\tfunction confirmAlive() public...\n      JUMPDEST \t\t\tfunction confirmAlive() public...\n      PUSH 1\t\t\thasWill\n      PUSH 0\t\t\thasWill[msg.sender]\n      CALLER \t\t\tmsg.sender\n      PUSH FFFFFFFFFFFFFFFFFFFFFFFFFFFFFFFFFFFFFFFF\t\t\thasWill[msg.sender]\n      AND \t\t\thasWill[msg.sender]\n      PUSH FFFFFFFFFFFFFFFFFFFFFFFFFFFFFFFFFFFFFFFF\t\t\thasWill[msg.sender]\n      AND \t\t\thasWill[msg.sender]\n      DUP2 \t\t\thasWill[msg.sender]\n      MSTORE \t\t\thasWill[msg.sender]\n      PUSH 20\t\t\thasWill[msg.sender]\n      ADD \t\t\thasWill[msg.sender]\n      SWAP1 \t\t\thasWill[msg.sender]\n      DUP2 \t\t\thasWill[msg.sender]\n      MSTORE \t\t\thasWill[msg.sender]\n      PUSH 20\t\t\thasWill[msg.sender]\n      ADD \t\t\thasWill[msg.sender]\n      PUSH 0\t\t\thasWill[msg.sender]\n      KECCAK256 \t\t\thasWill[msg.sender]\n      PUSH 0\t\t\thasWill[msg.sender]\n      SWAP1 \t\t\thasWill[msg.sender]\n      SLOAD \t\t\thasWill[msg.sender]\n      SWAP1 \t\t\thasWill[msg.sender]\n      PUSH 100\t\t\thasWill[msg.sender]\n      EXP \t\t\thasWill[msg.sender]\n      SWAP1 \t\t\thasWill[msg.sender]\n      DIV \t\t\thasWill[msg.sender]\n      PUSH FF\t\t\thasWill[msg.sender]\n      AND \t\t\thasWill[msg.sender]\n      PUSH [tag] 74\t\t\trequire(hasWill[msg.sender], \"...\n      JUMPI \t\t\trequire(hasWill[msg.sender], \"...\n      PUSH 40\t\t\trequire(hasWill[msg.sender], \"...\n      MLOAD \t\t\trequire(hasWill[msg.sender], \"...\n      PUSH 8C379A000000000000000000000000000000000000000000000000000000000\t\t\trequire(hasWill[msg.sender], \"...\n      DUP2 \t\t\trequire(hasWill[msg.sender], \"...\n      MSTORE \t\t\trequire(hasWill[msg.sender], \"...\n      PUSH 4\t\t\trequire(hasWill[msg.sender], \"...\n      ADD \t\t\trequire(hasWill[msg.sender], \"...\n      PUSH [tag] 75\t\t\trequire(hasWill[msg.sender], \"...\n      SWAP1 \t\t\trequire(hasWill[msg.sender], \"...\n      PUSH [tag] 76\t\t\trequire(hasWill[msg.sender], \"...\n      JUMP \t\t\trequire(hasWill[msg.sender], \"...\n    tag 75\t\t\trequire(hasWill[msg.sender], \"...\n      JUMPDEST \t\t\trequire(hasWill[msg.sender], \"...\n      PUSH 40\t\t\trequire(hasWill[msg.sender], \"...\n      MLOAD \t\t\trequire(hasWill[msg.sender], \"...\n      DUP1 \t\t\trequire(hasWill[msg.sender], \"...\n      SWAP2 \t\t\trequire(hasWill[msg.sender], \"...\n      SUB \t\t\trequire(hasWill[msg.sender], \"...\n      SWAP1 \t\t\trequire(hasWill[msg.sender], \"...\n      REVERT \t\t\trequire(hasWill[msg.sender], \"...\n    tag 74\t\t\trequire(hasWill[msg.sender], \"...\n      JUMPDEST \t\t\trequire(hasWill[msg.sender], \"...\n      PUSH 0\t\t\twills\n      DUP1 \t\t\twills[msg.sender]\n      CALLER \t\t\tmsg.sender\n      PUSH FFFFFFFFFFFFFFFFFFFFFFFFFFFFFFFFFFFFFFFF\t\t\twills[msg.sender]\n      AND \t\t\twills[msg.sender]\n      PUSH FFFFFFFFFFFFFFFFFFFFFFFFFFFFFFFFFFFFFFFF\t\t\twills[msg.sender]\n      AND \t\t\twills[msg.sender]\n      DUP2 \t\t\twills[msg.sender]\n      MSTORE \t\t\twills[msg.sender]\n      PUSH 20\t\t\twills[msg.sender]\n      ADD \t\t\twills[msg.sender]\n      SWAP1 \t\t\twills[msg.sender]\n      DUP2 \t\t\twills[msg.sender]\n      MSTORE \t\t\twills[msg.sender]\n      PUSH 20\t\t\twills[msg.sender]\n      ADD \t\t\twills[msg.sender]\n      PUSH 0\t\t\twills[msg.sender]\n      KECCAK256 \t\t\twills[msg.sender]\n      PUSH 6\t\t\twills[msg.sender].isDeceased\n      ADD \t\t\twills[msg.sender].isDeceased\n      PUSH 0\t\t\twills[msg.sender].isDeceased\n      SWAP1 \t\t\twills[msg.sender].isDeceased\n      SLOAD \t\t\twills[msg.sender].isDeceased\n      SWAP1 \t\t\twills[msg.sender].isDeceased\n      PUSH 100\t\t\twills[msg.sender].isDeceased\n      EXP \t\t\twills[msg.sender].isDeceased\n      SWAP1 \t\t\twills[msg.sender].isDeceased\n      DIV \t\t\twills[msg.sender].isDeceased\n      PUSH FF\t\t\twills[msg.sender].isDeceased\n      AND \t\t\twills[msg.sender].isDeceased\n      ISZERO \t\t\t!wills[msg.sender].isDeceased\n      PUSH [tag] 77\t\t\trequire(!wills[msg.sender].isD...\n      JUMPI \t\t\trequire(!wills[msg.sender].isD...\n      PUSH 40\t\t\trequire(!wills[msg.sender].isD...\n      MLOAD \t\t\trequire(!wills[msg.sender].isD...\n      PUSH 8C379A000000000000000000000000000000000000000000000000000000000\t\t\trequire(!wills[msg.sender].isD...\n      DUP2 \t\t\trequire(!wills[msg.sender].isD...\n      MSTORE \t\t\trequire(!wills[msg.sender].isD...\n      PUSH 4\t\t\trequire(!wills[msg.sender].isD...\n      ADD \t\t\trequire(!wills[msg.sender].isD...\n      PUSH [tag] 78\t\t\trequire(!wills[msg.sender].isD...\n      SWAP1 \t\t\trequire(!wills[msg.sender].isD...\n      PUSH [tag] 79\t\t\trequire(!wills[msg.sender].isD...\n      JUMP \t\t\trequire(!wills[msg.sender].isD...\n    tag 78\t\t\trequire(!wills[msg.sender].isD...\n      JUMPDEST \t\t\trequire(!wills[msg.sender].isD...\n      PUSH 40\t\t\trequire(!wills[msg.sender].isD...\n      MLOAD \t\t\trequire(!wills[msg.sender].isD...\n      DUP1 \t\t\trequire(!wills[msg.sender].isD...\n      SWAP2 \t\t\trequire(!wills[msg.sender].isD...\n      SUB \t\t\trequire(!wills[msg.sender].isD...\n      SWAP1 \t\t\trequire(!wills[msg.sender].isD...\n      REVERT \t\t\trequire(!wills[msg.sender].isD...\n    tag 77\t\t\trequire(!wills[msg.sender].isD...\n      JUMPDEST \t\t\trequire(!wills[msg.sender].isD...\n      TIMESTAMP \t\t\tblock.timestamp\n      PUSH 0\t\t\twills\n      DUP1 \t\t\twills[msg.sender]\n      CALLER \t\t\tmsg.sender\n      PUSH FFFFFFFFFFFFFFFFFFFFFFFFFFFFFFFFFFFFFFFF\t\t\twills[msg.sender]\n      AND \t\t\twills[msg.sender]\n      PUSH FFFFFFFFFFFFFFFFFFFFFFFFFFFFFFFFFFFFFFFF\t\t\twills[msg.sender]\n      AND \t\t\twills[msg.sender]\n      DUP2 \t\t\twills[msg.sender]\n      MSTORE \t\t\twills[msg.sender]\n      PUSH 20\t\t\twills[msg.sender]\n      ADD \t\t\twills[msg.sender]\n      SWAP1 \t\t\twills[msg.sender]\n      DUP2 \t\t\twills[msg.sender]\n      MSTORE \t\t\twills[msg.sender]\n      PUSH 20\t\t\twills[msg.sender]\n      ADD \t\t\twills[msg.sender]\n      PUSH 0\t\t\twills[msg.sender]\n      KECCAK256 \t\t\twills[msg.sender]\n      PUSH 4\t\t\twills[msg.sender].lastAliveTim...\n      ADD \t\t\twills[msg.sender].lastAliveTim...\n      DUP2 \t\t\twills[msg.sender].lastAliveTim...\n      SWAP1 \t\t\twills[msg.sender].lastAliveTim...\n      SSTORE \t\t\twills[msg.sender].lastAliveTim...\n      POP \t\t\twills[msg.sender].lastAliveTim...\n      JUMP \t\t\tfunction confirmAlive() public...\n    tag 27\t\t\tfunction getBeneficiaries() pu...\n      JUMPDEST \t\t\tfunction getBeneficiaries() pu...\n      PUSH 60\t\t\tBeneficiary[] memory\n      PUSH 1\t\t\thasWill\n      PUSH 0\t\t\thasWill[msg.sender]\n      CALLER \t\t\tmsg.sender\n      PUSH FFFFFFFFFFFFFFFFFFFFFFFFFFFFFFFFFFFFFFFF\t\t\thasWill[msg.sender]\n      AND \t\t\thasWill[msg.sender]\n      PUSH FFFFFFFFFFFFFFFFFFFFFFFFFFFFFFFFFFFFFFFF\t\t\thasWill[msg.sender]\n      AND \t\t\thasWill[msg.sender]\n      DUP2 \t\t\thasWill[msg.sender]\n      MSTORE \t\t\thasWill[msg.sender]\n      PUSH 20\t\t\thasWill[msg.sender]\n      ADD \t\t\thasWill[msg.sender]\n      SWAP1 \t\t\thasWill[msg.sender]\n      DUP2 \t\t\thasWill[msg.sender]\n      MSTORE \t\t\thasWill[msg.sender]\n      PUSH 20\t\t\thasWill[msg.sender]\n      ADD \t\t\thasWill[msg.sender]\n      PUSH 0\t\t\thasWill[msg.sender]\n      KECCAK256 \t\t\thasWill[msg.sender]\n      PUSH 0\t\t\thasWill[msg.sender]\n      SWAP1 \t\t\thasWill[msg.sender]\n      SLOAD \t\t\thasWill[msg.sender]\n      SWAP1 \t\t\thasWill[msg.sender]\n      PUSH 100\t\t\thasWill[msg.sender]\n      EXP \t\t\thasWill[msg.sender]\n      SWAP1 \t\t\thasWill[msg.sender]\n      DIV \t\t\thasWill[msg.sender]\n      PUSH FF\t\t\thasWill[msg.sender]\n      AND \t\t\thasWill[msg.sender]\n      PUSH [tag] 81\t\t\trequire(hasWill[msg.sender], \"...\n      JUMPI \t\t\trequire(hasWill[msg.sender], \"...\n      PUSH 40\t\t\trequire(hasWill[msg.sender], \"...\n      MLOAD \t\t\trequire(hasWill[msg.sender], \"...\n      PUSH 8C379A000000000000000000000000000000000000000000000000000000000\t\t\trequire(hasWill[msg.sender], \"...\n      DUP2 \t\t\trequire(hasWill[msg.sender], \"...\n      MSTORE \t\t\trequire(hasWill[msg.sender], \"...\n      PUSH 4\t\t\trequire(hasWill[msg.sender], \"...\n      ADD \t\t\trequire(hasWill[msg.sender], \"...\n      PUSH [tag] 82\t\t\trequire(hasWill[msg.sender], \"...\n      SWAP1 \t\t\trequire(hasWill[msg.sender], \"...\n      PUSH [tag] 83\t\t\trequire(hasWill[msg.sender], \"...\n      JUMP \t\t\trequire(hasWill[msg.sender], \"...\n    tag 82\t\t\trequire(hasWill[msg.sender], \"...\n      JUMPDEST \t\t\trequire(hasWill[msg.sender], \"...\n      PUSH 40\t\t\trequire(hasWill[msg.sender], \"...\n      MLOAD \t\t\trequire(hasWill[msg.sender], \"...\n      DUP1 \t\t\trequire(hasWill[msg.sender], \"...\n      SWAP2 \t\t\trequire(hasWill[msg.sender], \"...\n      SUB \t\t\trequire(hasWill[msg.sender], \"...\n      SWAP1 \t\t\trequire(hasWill[msg.sender], \"...\n      REVERT \t\t\trequire(hasWill[msg.sender], \"...\n    tag 81\t\t\trequire(hasWill[msg.sender], \"...\n      JUMPDEST \t\t\trequire(hasWill[msg.sender], \"...\n      PUSH 0\t\t\twills\n      DUP1 \t\t\twills[msg.sender]\n      CALLER \t\t\tmsg.sender\n      PUSH FFFFFFFFFFFFFFFFFFFFFFFFFFFFFFFFFFFFFFFF\t\t\twills[msg.sender]\n      AND \t\t\twills[msg.sender]\n      PUSH FFFFFFFFFFFFFFFFFFFFFFFFFFFFFFFFFFFFFFFF\t\t\twills[msg.sender]\n      AND \t\t\twills[msg.sender]\n      DUP2 \t\t\twills[msg.sender]\n      MSTORE \t\t\twills[msg.sender]\n      PUSH 20\t\t\twills[msg.sender]\n      ADD \t\t\twills[msg.sender]\n      SWAP1 \t\t\twills[msg.sender]\n      DUP2 \t\t\twills[msg.sender]\n      MSTORE \t\t\twills[msg.sender]\n      PUSH 20\t\t\twills[msg.sender]\n      ADD \t\t\twills[msg.sender]\n      PUSH 0\t\t\twills[msg.sender]\n      KECCAK256 \t\t\twills[msg.sender]\n      PUSH 7\t\t\twills[msg.sender].beneficiarie...\n      ADD \t\t\twills[msg.sender].beneficiarie...\n      DUP1 \t\t\treturn wills[msg.sender].benef...\n      SLOAD \t\t\treturn wills[msg.sender].benef...\n      DUP1 \t\t\treturn wills[msg.sender].benef...\n      PUSH 20\t\t\treturn wills[msg.sender].benef...\n      MUL \t\t\treturn wills[msg.sender].benef...\n      PUSH 20\t\t\treturn wills[msg.sender].benef...\n      ADD \t\t\treturn wills[msg.sender].benef...\n      PUSH 40\t\t\treturn wills[msg.sender].benef...\n      MLOAD \t\t\treturn wills[msg.sender].benef...\n      SWAP1 \t\t\treturn wills[msg.sender].benef...\n      DUP2 \t\t\treturn wills[msg.sender].benef...\n      ADD \t\t\treturn wills[msg.sender].benef...\n      PUSH 40\t\t\treturn wills[msg.sender].benef...\n      MSTORE \t\t\treturn wills[msg.sender].benef...\n      DUP1 \t\t\treturn wills[msg.sender].benef...\n      SWAP3 \t\t\treturn wills[msg.sender].benef...\n      SWAP2 \t\t\treturn wills[msg.sender].benef...\n      SWAP1 \t\t\treturn wills[msg.sender].benef...\n      DUP2 \t\t\treturn wills[msg.sender].benef...\n      DUP2 \t\t\treturn wills[msg.sender].benef...\n      MSTORE \t\t\treturn wills[msg.sender].benef...\n      PUSH 20\t\t\treturn wills[msg.sender].benef...\n      ADD \t\t\treturn wills[msg.sender].benef...\n      PUSH 0\t\t\treturn wills[msg.sender].benef...\n      SWAP1 \t\t\treturn wills[msg.sender].benef...\n    tag 84\t\t\treturn wills[msg.sender].benef...\n      JUMPDEST \t\t\treturn wills[msg.sender].benef...\n      DUP3 \t\t\treturn wills[msg.sender].benef...\n      DUP3 \t\t\treturn wills[msg.sender].benef...\n      LT \t\t\treturn wills[msg.sender].benef...\n      ISZERO \t\t\treturn wills[msg.sender].benef...\n      PUSH [tag] 85\t\t\treturn wills[msg.sender].benef...\n      JUMPI \t\t\treturn wills[msg.sender].benef...\n      DUP4 \t\t\treturn wills[msg.sender].benef...\n      DUP3 \t\t\treturn wills[msg.sender].benef...\n      SWAP1 \t\t\treturn wills[msg.sender].benef...\n      PUSH 0\t\t\treturn wills[msg.sender].benef...\n      MSTORE \t\t\treturn wills[msg.sender].benef...\n      PUSH 20\t\t\treturn wills[msg.sender].benef...\n      PUSH 0\t\t\treturn wills[msg.sender].benef...\n      KECCAK256 \t\t\treturn wills[msg.sender].benef...\n      SWAP1 \t\t\treturn wills[msg.sender].benef...\n      PUSH 4\t\t\treturn wills[msg.sender].benef...\n      MUL \t\t\treturn wills[msg.sender].benef...\n      ADD \t\t\treturn wills[msg.sender].benef...\n      PUSH 40\t\t\treturn wills[msg.sender].benef...\n      MLOAD \t\t\treturn wills[msg.sender].benef...\n      DUP1 \t\t\treturn wills[msg.sender].benef...\n      PUSH 80\t\t\treturn wills[msg.sender].benef...\n      ADD \t\t\treturn wills[msg.sender].benef...\n      PUSH 40\t\t\treturn wills[msg.sender].benef...\n      MSTORE \t\t\treturn wills[msg.sender].benef...\n      SWAP1 \t\t\treturn wills[msg.sender].benef...\n      DUP2 \t\t\treturn wills[msg.sender].benef...\n      PUSH 0\t\t\treturn wills[msg.sender].benef...\n      DUP3 \t\t\treturn wills[msg.sender].benef...\n      ADD \t\t\treturn wills[msg.sender].benef...\n      PUSH 0\t\t\treturn wills[msg.sender].benef...\n      SWAP1 \t\t\treturn wills[msg.sender].benef...\n      SLOAD \t\t\treturn wills[msg.sender].benef...\n      SWAP1 \t\t\treturn wills[msg.sender].benef...\n      PUSH 100\t\t\treturn wills[msg.sender].benef...\n      EXP \t\t\treturn wills[msg.sender].benef...\n      SWAP1 \t\t\treturn wills[msg.sender].benef...\n      DIV \t\t\treturn wills[msg.sender].benef...\n      PUSH FFFFFFFFFFFFFFFFFFFFFFFFFFFFFFFFFFFFFFFF\t\t\treturn wills[msg.sender].benef...\n      AND \t\t\treturn wills[msg.sender].benef...\n      PUSH FFFFFFFFFFFFFFFFFFFFFFFFFFFFFFFFFFFFFFFF\t\t\treturn wills[msg.sender].benef...\n      AND \t\t\treturn wills[msg.sender].benef...\n      PUSH FFFFFFFFFFFFFFFFFFFFFFFFFFFFFFFFFFFFFFFF\t\t\treturn wills[msg.sender].benef...\n      AND \t\t\treturn wills[msg.sender].benef...\n      DUP2 \t\t\treturn wills[msg.sender].benef...\n      MSTORE \t\t\treturn wills[msg.sender].benef...\n      PUSH 20\t\t\treturn wills[msg.sender].benef...\n      ADD \t\t\treturn wills[msg.sender].benef...\n      PUSH 1\t\t\treturn wills[msg.sender].benef...\n      DUP3 \t\t\treturn wills[msg.sender].benef...\n      ADD \t\t\treturn wills[msg.sender].benef...\n      SLOAD \t\t\treturn wills[msg.sender].benef...\n      DUP2 \t\t\treturn wills[msg.sender].benef...\n      MSTORE \t\t\treturn wills[msg.sender].benef...\n      PUSH 20\t\t\treturn wills[msg.sender].benef...\n      ADD \t\t\treturn wills[msg.sender].benef...\n      PUSH 2\t\t\treturn wills[msg.sender].benef...\n      DUP3 \t\t\treturn wills[msg.sender].benef...\n      ADD \t\t\treturn wills[msg.sender].benef...\n      DUP1 \t\t\treturn wills[msg.sender].benef...\n      SLOAD \t\t\treturn wills[msg.sender].benef...\n      PUSH [tag] 87\t\t\treturn wills[msg.sender].benef...\n      SWAP1 \t\t\treturn wills[msg.sender].benef...\n      PUSH [tag] 88\t\t\treturn wills[msg.sender].benef...\n      JUMP \t\t\treturn wills[msg.sender].benef...\n    tag 87\t\t\treturn wills[msg.sender].benef...\n      JUMPDEST \t\t\treturn wills[msg.sender].benef...\n      DUP1 \t\t\treturn wills[msg.sender].benef...\n      PUSH 1F\t\t\treturn wills[msg.sender].benef...\n      ADD \t\t\treturn wills[msg.sender].benef...\n      PUSH 20\t\t\treturn wills[msg.sender].benef...\n      DUP1 \t\t\treturn wills[msg.sender].benef...\n      SWAP2 \t\t\treturn wills[msg.sender].benef...\n      DIV \t\t\treturn wills[msg.sender].benef...\n      MUL \t\t\treturn wills[msg.sender].benef...\n      PUSH 20\t\t\treturn wills[msg.sender].benef...\n      ADD \t\t\treturn wills[msg.sender].benef...\n      PUSH 40\t\t\treturn wills[msg.sender].benef...\n      MLOAD \t\t\treturn wills[msg.sender].benef...\n      SWAP1 \t\t\treturn wills[msg.sender].benef...\n      DUP2 \t\t\treturn wills[msg.sender].benef...\n      ADD \t\t\treturn wills[msg.sender].benef...\n      PUSH 40\t\t\treturn wills[msg.sender].benef...\n      MSTORE \t\t\treturn wills[msg.sender].benef...\n      DUP1 \t\t\treturn wills[msg.sender].benef...\n      SWAP3 \t\t\treturn wills[msg.sender].benef...\n      SWAP2 \t\t\treturn wills[msg.sender].benef...\n      SWAP1 \t\t\treturn wills[msg.sender].benef...\n      DUP2 \t\t\treturn wills[msg.sender].benef...\n      DUP2 \t\t\treturn wills[msg.sender].benef...\n      MSTORE \t\t\treturn wills[msg.sender].benef...\n      PUSH 20\t\t\treturn wills[msg.sender].benef...\n      ADD \t\t\treturn wills[msg.sender].benef...\n      DUP3 \t\t\treturn wills[msg.sender].benef...\n      DUP1 \t\t\treturn wills[msg.sender].benef...\n      SLOAD \t\t\treturn wills[msg.sender].benef...\n      PUSH [tag] 89\t\t\treturn wills[msg.sender].benef...\n      SWAP1 \t\t\treturn wills[msg.sender].benef...\n      PUSH [tag] 88\t\t\treturn wills[msg.sender].benef...\n      JUMP \t\t\treturn wills[msg.sender].benef...\n    tag 89\t\t\treturn wills[msg.sender].benef...\n      JUMPDEST \t\t\treturn wills[msg.sender].benef...\n      DUP1 \t\t\treturn wills[msg.sender].benef...\n      ISZERO \t\t\treturn wills[msg.sender].benef...\n      PUSH [tag] 90\t\t\treturn wills[msg.sender].benef...\n      JUMPI \t\t\treturn wills[msg.sender].benef...\n      DUP1 \t\t\treturn wills[msg.sender].benef...\n      PUSH 1F\t\t\treturn wills[msg.sender].benef...\n      LT \t\t\treturn wills[msg.sender].benef...\n      PUSH [tag] 91\t\t\treturn wills[msg.sender].benef...\n      JUMPI \t\t\treturn wills[msg.sender].benef...\n      PUSH 100\t\t\treturn wills[msg.sender].benef...\n      DUP1 \t\t\treturn wills[msg.sender].benef...\n      DUP4 \t\t\treturn wills[msg.sender].benef...\n      SLOAD \t\t\treturn wills[msg.sender].benef...\n      DIV \t\t\treturn wills[msg.sender].benef...\n      MUL \t\t\treturn wills[msg.sender].benef...\n      DUP4 \t\t\treturn wills[msg.sender].benef...\n      MSTORE \t\t\treturn wills[msg.sender].benef...\n      SWAP2 \t\t\treturn wills[msg.sender].benef...\n      PUSH 20\t\t\treturn wills[msg.sender].benef...\n      ADD \t\t\treturn wills[msg.sender].benef...\n      SWAP2 \t\t\treturn wills[msg.sender].benef...\n      PUSH [tag] 90\t\t\treturn wills[msg.sender].benef...\n      JUMP \t\t\treturn wills[msg.sender].benef...\n    tag 91\t\t\treturn wills[msg.sender].benef...\n      JUMPDEST \t\t\treturn wills[msg.sender].benef...\n      DUP3 \t\t\treturn wills[msg.sender].benef...\n      ADD \t\t\treturn wills[msg.sender].benef...\n      SWAP2 \t\t\treturn wills[msg.sender].benef...\n      SWAP1 \t\t\treturn wills[msg.sender].benef...\n      PUSH 0\t\t\treturn wills[msg.sender].benef...\n      MSTORE \t\t\treturn wills[msg.sender].benef...\n      PUSH 20\t\t\treturn wills[msg.sender].benef...\n      PUSH 0\t\t\treturn wills[msg.sender].benef...\n      KECCAK256 \t\t\treturn wills[msg.sender].benef...\n      SWAP1 \t\t\treturn wills[msg.sender].benef...\n    tag 92\t\t\treturn wills[msg.sender].benef...\n      JUMPDEST \t\t\treturn wills[msg.sender].benef...\n      DUP2 \t\t\treturn wills[msg.sender].benef...\n      SLOAD \t\t\treturn wills[msg.sender].benef...\n      DUP2 \t\t\treturn wills[msg.sender].benef...\n      MSTORE \t\t\treturn wills[msg.sender].benef...\n      SWAP1 \t\t\treturn wills[msg.sender].benef...\n      PUSH 1\t\t\treturn wills[msg.sender].benef...\n      ADD \t\t\treturn wills[msg.sender].benef...\n      SWAP1 \t\t\treturn wills[msg.sender].benef...\n      PUSH 20\t\t\treturn wills[msg.sender].benef...\n      ADD \t\t\treturn wills[msg.sender].benef...\n      DUP1 \t\t\treturn wills[msg.sender].benef...\n      DUP4 \t\t\treturn wills[msg.sender].benef...\n      GT \t\t\treturn wills[msg.sender].benef...\n      PUSH [tag] 92\t\t\treturn wills[msg.sender].benef...\n      JUMPI \t\t\treturn wills[msg.sender].benef...\n      DUP3 \t\t\treturn wills[msg.sender].benef...\n      SWAP1 \t\t\treturn wills[msg.sender].benef...\n      SUB \t\t\treturn wills[msg.sender].benef...\n      PUSH 1F\t\t\treturn wills[msg.sender].benef...\n      AND \t\t\treturn wills[msg.sender].benef...\n      DUP3 \t\t\treturn wills[msg.sender].benef...\n      ADD \t\t\treturn wills[msg.sender].benef...\n      SWAP2 \t\t\treturn wills[msg.sender].benef...\n    tag 90\t\t\treturn wills[msg.sender].benef...\n      JUMPDEST \t\t\treturn wills[msg.sender].benef...\n      POP \t\t\treturn wills[msg.sender].benef...\n      POP \t\t\treturn wills[msg.sender].benef...\n      POP \t\t\treturn wills[msg.sender].benef...\n      POP \t\t\treturn wills[msg.sender].benef...\n      POP \t\t\treturn wills[msg.sender].benef...\n      DUP2 \t\t\treturn wills[msg.sender].benef...\n      MSTORE \t\t\treturn wills[msg.sender].benef...\n      PUSH 20\t\t\treturn wills[msg.sender].benef...\n      ADD \t\t\treturn wills[msg.sender].benef...\n      PUSH 3\t\t\treturn wills[msg.sender].benef...\n      DUP3 \t\t\treturn wills[msg.sender].benef...\n      ADD \t\t\treturn wills[msg.sender].benef...\n      DUP1 \t\t\treturn wills[msg.sender].benef...\n      SLOAD \t\t\treturn wills[msg.sender].benef...\n      PUSH [tag] 93\t\t\treturn wills[msg.sender].benef...\n      SWAP1 \t\t\treturn wills[msg.sender].benef...\n      PUSH [tag] 88\t\t\treturn wills[msg.sender].benef...\n      JUMP \t\t\treturn wills[msg.sender].benef...\n    tag 93\t\t\treturn wills[msg.sender].benef...\n      JUMPDEST \t\t\treturn wills[msg.sender].benef...\n      DUP1 \t\t\treturn wills[msg.sender].benef...\n      PUSH 1F\t\t\treturn wills[msg.sender].benef...\n      ADD \t\t\treturn wills[msg.sender].benef...\n      PUSH 20\t\t\treturn wills[msg.sender].benef...\n      DUP1 \t\t\treturn wills[msg.sender].benef...\n      SWAP2 \t\t\treturn wills[msg.sender].benef...\n      DIV \t\t\treturn wills[msg.sender].benef...\n      MUL \t\t\treturn wills[msg.sender].benef...\n      PUSH 20\t\t\treturn wills[msg.sender].benef...\n      ADD \t\t\treturn wills[msg.sender].benef...\n      PUSH 40\t\t\treturn wills[msg.sender].benef...\n      MLOAD \t\t\treturn wills[msg.sender].benef...\n      SWAP1 \t\t\treturn wills[msg.sender].benef...\n      DUP2 \t\t\treturn wills[msg.sender].benef...\n      ADD \t\t\treturn wills[msg.sender].benef...\n      PUSH 40\t\t\treturn wills[msg.sender].benef...\n      MSTORE \t\t\treturn wills[msg.sender].benef...\n      DUP1 \t\t\treturn wills[msg.sender].benef...\n      SWAP3 \t\t\treturn wills[msg.sender].benef...\n      SWAP2 \t\t\treturn wills[msg.sender].benef...\n      SWAP1 \t\t\treturn wills[msg.sender].benef...\n      DUP2 \t\t\treturn wills[msg.sender].benef...\n      DUP2 \t\t\treturn wills[msg.sender].benef...\n      MSTORE \t\t\treturn wills[msg.sender].benef...\n      PUSH 20\t\t\treturn wills[msg.sender].benef...\n      ADD \t\t\treturn wills[msg.sender].benef...\n      DUP3 \t\t\treturn wills[msg.sender].benef...\n      DUP1 \t\t\treturn wills[msg.sender].benef...\n      SLOAD \t\t\treturn wills[msg.sender].benef...\n      PUSH [tag] 94\t\t\treturn wills[msg.sender].benef...\n      SWAP1 \t\t\treturn wills[msg.sender].benef...\n      PUSH [tag] 88\t\t\treturn wills[msg.sender].benef...\n      JUMP \t\t\treturn wills[msg.sender].benef...\n    tag 94\t\t\treturn wills[msg.sender].benef...\n      JUMPDEST \t\t\treturn wills[msg.sender].benef...\n      DUP1 \t\t\treturn wills[msg.sender].benef...\n      ISZERO \t\t\treturn wills[msg.sender].benef...\n      PUSH [tag] 95\t\t\treturn wills[msg.sender].benef...\n      JUMPI \t\t\treturn wills[msg.sender].benef...\n      DUP1 \t\t\treturn wills[msg.sender].benef...\n      PUSH 1F\t\t\treturn wills[msg.sender].benef...\n      LT \t\t\treturn wills[msg.sender].benef...\n      PUSH [tag] 96\t\t\treturn wills[msg.sender].benef...\n      JUMPI \t\t\treturn wills[msg.sender].benef...\n      PUSH 100\t\t\treturn wills[msg.sender].benef...\n      DUP1 \t\t\treturn wills[msg.sender].benef...\n      DUP4 \t\t\treturn wills[msg.sender].benef...\n      SLOAD \t\t\treturn wills[msg.sender].benef...\n      DIV \t\t\treturn wills[msg.sender].benef...\n      MUL \t\t\treturn wills[msg.sender].benef...\n      DUP4 \t\t\treturn wills[msg.sender].benef...\n      MSTORE \t\t\treturn wills[msg.sender].benef...\n      SWAP2 \t\t\treturn wills[msg.sender].benef...\n      PUSH 20\t\t\treturn wills[msg.sender].benef...\n      ADD \t\t\treturn wills[msg.sender].benef...\n      SWAP2 \t\t\treturn wills[msg.sender].benef...\n      PUSH [tag] 95\t\t\treturn wills[msg.sender].benef...\n      JUMP \t\t\treturn wills[msg.sender].benef...\n    tag 96\t\t\treturn wills[msg.sender].benef...\n      JUMPDEST \t\t\treturn wills[msg.sender].benef...\n      DUP3 \t\t\treturn wills[msg.sender].benef...\n      ADD \t\t\treturn wills[msg.sender].benef...\n      SWAP2 \t\t\treturn wills[msg.sender].benef...\n      SWAP1 \t\t\treturn wills[msg.sender].benef...\n      PUSH 0\t\t\treturn wills[msg.sender].benef...\n      MSTORE \t\t\treturn wills[msg.sender].benef...\n      PUSH 20\t\t\treturn wills[msg.sender].benef...\n      PUSH 0\t\t\treturn wills[msg.sender].benef...\n      KECCAK256 \t\t\treturn wills[msg.sender].benef...\n      SWAP1 \t\t\treturn wills[msg.sender].benef...\n    tag 97\t\t\treturn wills[msg.sender].benef...\n      JUMPDEST \t\t\treturn wills[msg.sender].benef...\n      DUP2 \t\t\treturn wills[msg.sender].benef...\n      SLOAD \t\t\treturn wills[msg.sender].benef...\n      DUP2 \t\t\treturn wills[msg.sender].benef...\n      MSTORE \t\t\treturn wills[msg.sender].benef...\n      SWAP1 \t\t\treturn wills[msg.sender].benef...\n      PUSH 1\t\t\treturn wills[msg.sender].benef...\n      ADD \t\t\treturn wills[msg.sender].benef...\n      SWAP1 \t\t\treturn wills[msg.sender].benef...\n      PUSH 20\t\t\treturn wills[msg.sender].benef...\n      ADD \t\t\treturn wills[msg.sender].benef...\n      DUP1 \t\t\treturn wills[msg.sender].benef...\n      DUP4 \t\t\treturn wills[msg.sender].benef...\n      GT \t\t\treturn wills[msg.sender].benef...\n      PUSH [tag] 97\t\t\treturn wills[msg.sender].benef...\n      JUMPI \t\t\treturn wills[msg.sender].benef...\n      DUP3 \t\t\treturn wills[msg.sender].benef...\n      SWAP1 \t\t\treturn wills[msg.sender].benef...\n      SUB \t\t\treturn wills[msg.sender].benef...\n      PUSH 1F\t\t\treturn wills[msg.sender].benef...\n      AND \t\t\treturn wills[msg.sender].benef...\n      DUP3 \t\t\treturn wills[msg.sender].benef...\n      ADD \t\t\treturn wills[msg.sender].benef...\n      SWAP2 \t\t\treturn wills[msg.sender].benef...\n    tag 95\t\t\treturn wills[msg.sender].benef...\n      JUMPDEST \t\t\treturn wills[msg.sender].benef...\n      POP \t\t\treturn wills[msg.sender].benef...\n      POP \t\t\treturn wills[msg.sender].benef...\n      POP \t\t\treturn wills[msg.sender].benef...\n      POP \t\t\treturn wills[msg.sender].benef...\n      POP \t\t\treturn wills[msg.sender].benef...\n      DUP2 \t\t\treturn wills[msg.sender].benef...\n      MSTORE \t\t\treturn wills[msg.sender].benef...\n      POP \t\t\treturn wills[msg.sender].benef...\n      POP \t\t\treturn wills[msg.sender].benef...\n      DUP2 \t\t\treturn wills[msg.sender].benef...\n      MSTORE \t\t\treturn wills[msg.sender].benef...\n      PUSH 20\t\t\treturn wills[msg.sender].benef...\n      ADD \t\t\treturn wills[msg.sender].benef...\n      SWAP1 \t\t\treturn wills[msg.sender].benef...\n      PUSH 1\t\t\treturn wills[msg.sender].benef...\n      ADD \t\t\treturn wills[msg.sender].benef...\n      SWAP1 \t\t\treturn wills[msg.sender].benef...\n      PUSH [tag] 84\t\t\treturn wills[msg.sender].benef...\n      JUMP \t\t\treturn wills[msg.sender].benef...\n    tag 85\t\t\treturn wills[msg.sender].benef...\n      JUMPDEST \t\t\treturn wills[msg.sender].benef...\n      POP \t\t\treturn wills[msg.sender].benef...\n      POP \t\t\treturn wills[msg.sender].benef...\n      POP \t\t\treturn wills[msg.sender].benef...\n      POP \t\t\treturn wills[msg.sender].benef...\n      SWAP1 \t\t\treturn wills[msg.sender].benef...\n      POP \t\t\treturn wills[msg.sender].benef...\n      SWAP1 \t\t\tfunction getBeneficiaries() pu...\n      JUMP \t\t\tfunction getBeneficiaries() pu...\n    tag 33\t\t\tfunction createWill(\\n        ...\n      JUMPDEST \t\t\tfunction createWill(\\n        ...\n      PUSH 1\t\t\thasWill\n      PUSH 0\t\t\thasWill[msg.sender]\n      CALLER \t\t\tmsg.sender\n      PUSH FFFFFFFFFFFFFFFFFFFFFFFFFFFFFFFFFFFFFFFF\t\t\thasWill[msg.sender]\n      AND \t\t\thasWill[msg.sender]\n      PUSH FFFFFFFFFFFFFFFFFFFFFFFFFFFFFFFFFFFFFFFF\t\t\thasWill[msg.sender]\n      AND \t\t\thasWill[msg.sender]\n      DUP2 \t\t\thasWill[msg.sender]\n      MSTORE \t\t\thasWill[msg.sender]\n      PUSH 20\t\t\thasWill[msg.sender]\n      ADD \t\t\thasWill[msg.sender]\n      SWAP1 \t\t\thasWill[msg.sender]\n      DUP2 \t\t\thasWill[msg.sender]\n      MSTORE \t\t\thasWill[msg.sender]\n      PUSH 20\t\t\thasWill[msg.sender]\n      ADD \t\t\thasWill[msg.sender]\n      PUSH 0\t\t\thasWill[msg.sender]\n      KECCAK256 \t\t\thasWill[msg.sender]\n      PUSH 0\t\t\thasWill[msg.sender]\n      SWAP1 \t\t\thasWill[msg.sender]\n      SLOAD \t\t\thasWill[msg.sender]\n      SWAP1 \t\t\thasWill[msg.sender]\n      PUSH 100\t\t\thasWill[msg.sender]\n      EXP \t\t\thasWill[msg.sender]\n      SWAP1 \t\t\thasWill[msg.sender]\n      DIV \t\t\thasWill[msg.sender]\n      PUSH FF\t\t\thasWill[msg.sender]\n      AND \t\t\thasWill[msg.sender]\n      ISZERO \t\t\t!hasWill[msg.sender]\n      PUSH [tag] 99\t\t\trequire(!hasWill[msg.sender], ...\n      JUMPI \t\t\trequire(!hasWill[msg.sender], ...\n      PUSH 40\t\t\trequire(!hasWill[msg.sender], ...\n      MLOAD \t\t\trequire(!hasWill[msg.sender], ...\n      PUSH 8C379A000000000000000000000000000000000000000000000000000000000\t\t\trequire(!hasWill[msg.sender], ...\n      DUP2 \t\t\trequire(!hasWill[msg.sender], ...\n      MSTORE \t\t\trequire(!hasWill[msg.sender], ...\n      PUSH 4\t\t\trequire(!hasWill[msg.sender], ...\n      ADD \t\t\trequire(!hasWill[msg.sender], ...\n      PUSH [tag] 100\t\t\trequire(!hasWill[msg.sender], ...\n      SWAP1 \t\t\trequire(!hasWill[msg.sender], ...\n      PUSH [tag] 101\t\t\trequire(!hasWill[msg.sender], ...\n      JUMP \t\t\trequire(!hasWill[msg.sender], ...\n    tag 100\t\t\trequire(!hasWill[msg.sender], ...\n      JUMPDEST \t\t\trequire(!hasWill[msg.sender], ...\n      PUSH 40\t\t\trequire(!hasWill[msg.sender], ...\n      MLOAD \t\t\trequire(!hasWill[msg.sender], ...\n      DUP1 \t\t\trequire(!hasWill[msg.sender], ...\n      SWAP2 \t\t\trequire(!hasWill[msg.sender], ...\n      SUB \t\t\trequire(!hasWill[msg.sender], ...\n      SWAP1 \t\t\trequire(!hasWill[msg.sender], ...\n      REVERT \t\t\trequire(!hasWill[msg.sender], ...\n    tag 99\t\t\trequire(!hasWill[msg.sender], ...\n      JUMPDEST \t\t\trequire(!hasWill[msg.sender], ...\n      PUSH 0\t\t\t0\n      CALLVALUE \t\t\tmsg.value\n      GT \t\t\tmsg.value > 0\n      PUSH [tag] 102\t\t\trequire(msg.value > 0, \"Must l...\n      JUMPI \t\t\trequire(msg.value > 0, \"Must l...\n      PUSH 40\t\t\trequire(msg.value > 0, \"Must l...\n      MLOAD \t\t\trequire(msg.value > 0, \"Must l...\n      PUSH 8C379A000000000000000000000000000000000000000000000000000000000\t\t\trequire(msg.value > 0, \"Must l...\n      DUP2 \t\t\trequire(msg.value > 0, \"Must l...\n      MSTORE \t\t\trequire(msg.value > 0, \"Must l...\n      PUSH 4\t\t\trequire(msg.value > 0, \"Must l...\n      ADD \t\t\trequire(msg.value > 0, \"Must l...\n      PUSH [tag] 103\t\t\trequire(msg.value > 0, \"Must l...\n      SWAP1 \t\t\trequire(msg.value > 0, \"Must l...\n      PUSH [tag] 104\t\t\trequire(msg.value > 0, \"Must l...\n      JUMP \t\t\trequire(msg.value > 0, \"Must l...\n    tag 103\t\t\trequire(msg.value > 0, \"Must l...\n      JUMPDEST \t\t\trequire(msg.value > 0, \"Must l...\n      PUSH 40\t\t\trequire(msg.value > 0, \"Must l...\n      MLOAD \t\t\trequire(msg.value > 0, \"Must l...\n      DUP1 \t\t\trequire(msg.value > 0, \"Must l...\n      SWAP2 \t\t\trequire(msg.value > 0, \"Must l...\n      SUB \t\t\trequire(msg.value > 0, \"Must l...\n      SWAP1 \t\t\trequire(msg.value > 0, \"Must l...\n      REVERT \t\t\trequire(msg.value > 0, \"Must l...\n    tag 102\t\t\trequire(msg.value > 0, \"Must l...\n      JUMPDEST \t\t\trequire(msg.value > 0, \"Must l...\n      CALLER \t\t\tmsg.sender\n      PUSH 0\t\t\twills\n      DUP1 \t\t\twills[msg.sender]\n      CALLER \t\t\tmsg.sender\n      PUSH FFFFFFFFFFFFFFFFFFFFFFFFFFFFFFFFFFFFFFFF\t\t\twills[msg.sender]\n      AND \t\t\twills[msg.sender]\n      PUSH FFFFFFFFFFFFFFFFFFFFFFFFFFFFFFFFFFFFFFFF\t\t\twills[msg.sender]\n      AND \t\t\twills[msg.sender]\n      DUP2 \t\t\twills[msg.sender]\n      MSTORE \t\t\twills[msg.sender]\n      PUSH 20\t\t\twills[msg.sender]\n      ADD \t\t\twills[msg.sender]\n      SWAP1 \t\t\twills[msg.sender]\n      DUP2 \t\t\twills[msg.sender]\n      MSTORE \t\t\twills[msg.sender]\n      PUSH 20\t\t\twills[msg.sender]\n      ADD \t\t\twills[msg.sender]\n      PUSH 0\t\t\twills[msg.sender]\n      KECCAK256 \t\t\twills[msg.sender]\n      PUSH 0\t\t\twills[msg.sender].testator\n      ADD \t\t\twills[msg.sender].testator\n      PUSH 0\t\t\twills[msg.sender].testator\n      PUSH 100\t\t\twills[msg.sender].testator = m...\n      EXP \t\t\twills[msg.sender].testator = m...\n      DUP2 \t\t\twills[msg.sender].testator = m...\n      SLOAD \t\t\twills[msg.sender].testator = m...\n      DUP2 \t\t\twills[msg.sender].testator = m...\n      PUSH FFFFFFFFFFFFFFFFFFFFFFFFFFFFFFFFFFFFFFFF\t\t\twills[msg.sender].testator = m...\n      MUL \t\t\twills[msg.sender].testator = m...\n      NOT \t\t\twills[msg.sender].testator = m...\n      AND \t\t\twills[msg.sender].testator = m...\n      SWAP1 \t\t\twills[msg.sender].testator = m...\n      DUP4 \t\t\twills[msg.sender].testator = m...\n      PUSH FFFFFFFFFFFFFFFFFFFFFFFFFFFFFFFFFFFFFFFF\t\t\twills[msg.sender].testator = m...\n      AND \t\t\twills[msg.sender].testator = m...\n      MUL \t\t\twills[msg.sender].testator = m...\n      OR \t\t\twills[msg.sender].testator = m...\n      SWAP1 \t\t\twills[msg.sender].testator = m...\n      SSTORE \t\t\twills[msg.sender].testator = m...\n      POP \t\t\twills[msg.sender].testator = m...\n      DUP2 \t\t\t_firstName\n      PUSH 0\t\t\twills\n      DUP1 \t\t\twills[msg.sender]\n      CALLER \t\t\tmsg.sender\n      PUSH FFFFFFFFFFFFFFFFFFFFFFFFFFFFFFFFFFFFFFFF\t\t\twills[msg.sender]\n      AND \t\t\twills[msg.sender]\n      PUSH FFFFFFFFFFFFFFFFFFFFFFFFFFFFFFFFFFFFFFFF\t\t\twills[msg.sender]\n      AND \t\t\twills[msg.sender]\n      DUP2 \t\t\twills[msg.sender]\n      MSTORE \t\t\twills[msg.sender]\n      PUSH 20\t\t\twills[msg.sender]\n      ADD \t\t\twills[msg.sender]\n      SWAP1 \t\t\twills[msg.sender]\n      DUP2 \t\t\twills[msg.sender]\n      MSTORE \t\t\twills[msg.sender]\n      PUSH 20\t\t\twills[msg.sender]\n      ADD \t\t\twills[msg.sender]\n      PUSH 0\t\t\twills[msg.sender]\n      KECCAK256 \t\t\twills[msg.sender]\n      PUSH 1\t\t\twills[msg.sender].firstName\n      ADD \t\t\twills[msg.sender].firstName\n      SWAP1 \t\t\twills[msg.sender].firstName = ...\n      DUP2 \t\t\twills[msg.sender].firstName = ...\n      PUSH [tag] 105\t\t\twills[msg.sender].firstName = ...\n      SWAP2 \t\t\twills[msg.sender].firstName = ...\n      SWAP1 \t\t\twills[msg.sender].firstName = ...\n      PUSH [tag] 69\t\t\twills[msg.sender].firstName = ...\n      JUMP \t\t\twills[msg.sender].firstName = ...\n    tag 105\t\t\twills[msg.sender].firstName = ...\n      JUMPDEST \t\t\twills[msg.sender].firstName = ...\n      POP \t\t\twills[msg.sender].firstName = ...\n      DUP1 \t\t\t_lastName\n      PUSH 0\t\t\twills\n      DUP1 \t\t\twills[msg.sender]\n      CALLER \t\t\tmsg.sender\n      PUSH FFFFFFFFFFFFFFFFFFFFFFFFFFFFFFFFFFFFFFFF\t\t\twills[msg.sender]\n      AND \t\t\twills[msg.sender]\n      PUSH FFFFFFFFFFFFFFFFFFFFFFFFFFFFFFFFFFFFFFFF\t\t\twills[msg.sender]\n      AND \t\t\twills[msg.sender]\n      DUP2 \t\t\twills[msg.sender]\n      MSTORE \t\t\twills[msg.sender]\n      PUSH 20\t\t\twills[msg.sender]\n      ADD \t\t\twills[msg.sender]\n      SWAP1 \t\t\twills[msg.sender]\n      DUP2 \t\t\twills[msg.sender]\n      MSTORE \t\t\twills[msg.sender]\n      PUSH 20\t\t\twills[msg.sender]\n      ADD \t\t\twills[msg.sender]\n      PUSH 0\t\t\twills[msg.sender]\n      KECCAK256 \t\t\twills[msg.sender]\n      PUSH 2\t\t\twills[msg.sender].lastName\n      ADD \t\t\twills[msg.sender].lastName\n      SWAP1 \t\t\twills[msg.sender].lastName = _...\n      DUP2 \t\t\twills[msg.sender].lastName = _...\n      PUSH [tag] 106\t\t\twills[msg.sender].lastName = _...\n      SWAP2 \t\t\twills[msg.sender].lastName = _...\n      SWAP1 \t\t\twills[msg.sender].lastName = _...\n      PUSH [tag] 69\t\t\twills[msg.sender].lastName = _...\n      JUMP \t\t\twills[msg.sender].lastName = _...\n    tag 106\t\t\twills[msg.sender].lastName = _...\n      JUMPDEST \t\t\twills[msg.sender].lastName = _...\n      POP \t\t\twills[msg.sender].lastName = _...\n      CALLVALUE \t\t\tmsg.value\n      PUSH 0\t\t\twills\n      DUP1 \t\t\twills[msg.sender]\n      CALLER \t\t\tmsg.sender\n      PUSH FFFFFFFFFFFFFFFFFFFFFFFFFFFFFFFFFFFFFFFF\t\t\twills[msg.sender]\n      AND \t\t\twills[msg.sender]\n      PUSH FFFFFFFFFFFFFFFFFFFFFFFFFFFFFFFFFFFFFFFF\t\t\twills[msg.sender]\n      AND \t\t\twills[msg.sender]\n      DUP2 \t\t\twills[msg.sender]\n      MSTORE \t\t\twills[msg.sender]\n      PUSH 20\t\t\twills[msg.sender]\n      ADD \t\t\twills[msg.sender]\n      SWAP1 \t\t\twills[msg.sender]\n      DUP2 \t\t\twills[msg.sender]\n      MSTORE \t\t\twills[msg.sender]\n      PUSH 20\t\t\twills[msg.sender]\n      ADD \t\t\twills[msg.sender]\n      PUSH 0\t\t\twills[msg.sender]\n      KECCAK256 \t\t\twills[msg.sender]\n      PUSH 3\t\t\twills[msg.sender].totalLocked\n      ADD \t\t\twills[msg.sender].totalLocked\n      DUP2 \t\t\twills[msg.sender].totalLocked ...\n      SWAP1 \t\t\twills[msg.sender].totalLocked ...\n      SSTORE \t\t\twills[msg.sender].totalLocked ...\n      POP \t\t\twills[msg.sender].totalLocked ...\n      TIMESTAMP \t\t\tblock.timestamp\n      PUSH 0\t\t\twills\n      DUP1 \t\t\twills[msg.sender]\n      CALLER \t\t\tmsg.sender\n      PUSH FFFFFFFFFFFFFFFFFFFFFFFFFFFFFFFFFFFFFFFF\t\t\twills[msg.sender]\n      AND \t\t\twills[msg.sender]\n      PUSH FFFFFFFFFFFFFFFFFFFFFFFFFFFFFFFFFFFFFFFF\t\t\twills[msg.sender]\n      AND \t\t\twills[msg.sender]\n      DUP2 \t\t\twills[msg.sender]\n      MSTORE \t\t\twills[msg.sender]\n      PUSH 20\t\t\twills[msg.sender]\n      ADD \t\t\twills[msg.sender]\n      SWAP1 \t\t\twills[msg.sender]\n      DUP2 \t\t\twills[msg.sender]\n      MSTORE \t\t\twills[msg.sender]\n      PUSH 20\t\t\twills[msg.sender]\n      ADD \t\t\twills[msg.sender]\n      PUSH 0\t\t\twills[msg.sender]\n      KECCAK256 \t\t\twills[msg.sender]\n      PUSH 4\t\t\twills[msg.sender].lastAliveTim...\n      ADD \t\t\twills[msg.sender].lastAliveTim...\n      DUP2 \t\t\twills[msg.sender].lastAliveTim...\n      SWAP1 \t\t\twills[msg.sender].lastAliveTim...\n      SSTORE \t\t\twills[msg.sender].lastAliveTim...\n      POP \t\t\twills[msg.sender].lastAliveTim...\n      PUSH 1E13380\t\t\t365 days\n      PUSH 0\t\t\twills\n      DUP1 \t\t\twills[msg.sender]\n      CALLER \t\t\tmsg.sender\n      PUSH FFFFFFFFFFFFFFFFFFFFFFFFFFFFFFFFFFFFFFFF\t\t\twills[msg.sender]\n      AND \t\t\twills[msg.sender]\n      PUSH FFFFFFFFFFFFFFFFFFFFFFFFFFFFFFFFFFFFFFFF\t\t\twills[msg.sender]\n      AND \t\t\twills[msg.sender]\n      DUP2 \t\t\twills[msg.sender]\n      MSTORE \t\t\twills[msg.sender]\n      PUSH 20\t\t\twills[msg.sender]\n      ADD \t\t\twills[msg.sender]\n      SWAP1 \t\t\twills[msg.sender]\n      DUP2 \t\t\twills[msg.sender]\n      MSTORE \t\t\twills[msg.sender]\n      PUSH 20\t\t\twills[msg.sender]\n      ADD \t\t\twills[msg.sender]\n      PUSH 0\t\t\twills[msg.sender]\n      KECCAK256 \t\t\twills[msg.sender]\n      PUSH 5\t\t\twills[msg.sender].proofOfLifeI...\n      ADD \t\t\twills[msg.sender].proofOfLifeI...\n      DUP2 \t\t\twills[msg.sender].proofOfLifeI...\n      SWAP1 \t\t\twills[msg.sender].proofOfLifeI...\n      SSTORE \t\t\twills[msg.sender].proofOfLifeI...\n      POP \t\t\twills[msg.sender].proofOfLifeI...\n      PUSH 0\t\t\tfalse\n      DUP1 \t\t\twills\n      PUSH 0\t\t\twills[msg.sender]\n      CALLER \t\t\tmsg.sender\n      PUSH FFFFFFFFFFFFFFFFFFFFFFFFFFFFFFFFFFFFFFFF\t\t\twills[msg.sender]\n      AND \t\t\twills[msg.sender]\n      PUSH FFFFFFFFFFFFFFFFFFFFFFFFFFFFFFFFFFFFFFFF\t\t\twills[msg.sender]\n      AND \t\t\twills[msg.sender]\n      DUP2 \t\t\twills[msg.sender]\n      MSTORE \t\t\twills[msg.sender]\n      PUSH 20\t\t\twills[msg.sender]\n      ADD \t\t\twills[msg.sender]\n      SWAP1 \t\t\twills[msg.sender]\n      DUP2 \t\t\twills[msg.sender]\n      MSTORE \t\t\twills[msg.sender]\n      PUSH 20\t\t\twills[msg.sender]\n      ADD \t\t\twills[msg.sender]\n      PUSH 0\t\t\twills[msg.sender]\n      KECCAK256 \t\t\twills[msg.sender]\n      PUSH 6\t\t\twills[msg.sender].isDeceased\n      ADD \t\t\twills[msg.sender].isDeceased\n      PUSH 0\t\t\twills[msg.sender].isDeceased\n      PUSH 100\t\t\twills[msg.sender].isDeceased =...\n      EXP \t\t\twills[msg.sender].isDeceased =...\n      DUP2 \t\t\twills[msg.sender].isDeceased =...\n      SLOAD \t\t\twills[msg.sender].isDeceased =...\n      DUP2 \t\t\twills[msg.sender].isDeceased =...\n      PUSH FF\t\t\twills[msg.sender].isDeceased =...\n      MUL \t\t\twills[msg.sender].isDeceased =...\n      NOT \t\t\twills[msg.sender].isDeceased =...\n      AND \t\t\twills[msg.sender].isDeceased =...\n      SWAP1 \t\t\twills[msg.sender].isDeceased =...\n      DUP4 \t\t\twills[msg.sender].isDeceased =...\n      ISZERO \t\t\twills[msg.sender].isDeceased =...\n      ISZERO \t\t\twills[msg.sender].isDeceased =...\n      MUL \t\t\twills[msg.sender].isDeceased =...\n      OR \t\t\twills[msg.sender].isDeceased =...\n      SWAP1 \t\t\twills[msg.sender].isDeceased =...\n      SSTORE \t\t\twills[msg.sender].isDeceased =...\n      POP \t\t\twills[msg.sender].isDeceased =...\n      PUSH 1\t\t\ttrue\n      DUP1 \t\t\thasWill\n      PUSH 0\t\t\thasWill[msg.sender]\n      CALLER \t\t\tmsg.sender\n      PUSH FFFFFFFFFFFFFFFFFFFFFFFFFFFFFFFFFFFFFFFF\t\t\thasWill[msg.sender]\n      AND \t\t\thasWill[msg.sender]\n      PUSH FFFFFFFFFFFFFFFFFFFFFFFFFFFFFFFFFFFFFFFF\t\t\thasWill[msg.sender]\n      AND \t\t\thasWill[msg.sender]\n      DUP2 \t\t\thasWill[msg.sender]\n      MSTORE \t\t\thasWill[msg.sender]\n      PUSH 20\t\t\thasWill[msg.sender]\n      ADD \t\t\thasWill[msg.sender]\n      SWAP1 \t\t\thasWill[msg.sender]\n      DUP2 \t\t\thasWill[msg.sender]\n      MSTORE \t\t\thasWill[msg.sender]\n      PUSH 20\t\t\thasWill[msg.sender]\n      ADD \t\t\thasWill[msg.sender]\n      PUSH 0\t\t\thasWill[msg.sender]\n      KECCAK256 \t\t\thasWill[msg.sender]\n      PUSH 0\t\t\thasWill[msg.sender]\n      PUSH 100\t\t\thasWill[msg.sender] = true\n      EXP \t\t\thasWill[msg.sender] = true\n      DUP2 \t\t\thasWill[msg.sender] = true\n      SLOAD \t\t\thasWill[msg.sender] = true\n      DUP2 \t\t\thasWill[msg.sender] = true\n      PUSH FF\t\t\thasWill[msg.sender] = true\n      MUL \t\t\thasWill[msg.sender] = true\n      NOT \t\t\thasWill[msg.sender] = true\n      AND \t\t\thasWill[msg.sender] = true\n      SWAP1 \t\t\thasWill[msg.sender] = true\n      DUP4 \t\t\thasWill[msg.sender] = true\n      ISZERO \t\t\thasWill[msg.sender] = true\n      ISZERO \t\t\thasWill[msg.sender] = true\n      MUL \t\t\thasWill[msg.sender] = true\n      OR \t\t\thasWill[msg.sender] = true\n      SWAP1 \t\t\thasWill[msg.sender] = true\n      SSTORE \t\t\thasWill[msg.sender] = true\n      POP \t\t\thasWill[msg.sender] = true\n      CALLER \t\t\tmsg.sender\n      PUSH FFFFFFFFFFFFFFFFFFFFFFFFFFFFFFFFFFFFFFFF\t\t\tWillCreated(msg.sender, msg.va...\n      AND \t\t\tWillCreated(msg.sender, msg.va...\n      PUSH D40DC4A639C90600691397F655099ADBA04D6B763EF2122630EDD47C09F1B6F9\t\t\tWillCreated(msg.sender, msg.va...\n      CALLVALUE \t\t\tmsg.value\n      PUSH 40\t\t\tWillCreated(msg.sender, msg.va...\n      MLOAD \t\t\tWillCreated(msg.sender, msg.va...\n      PUSH [tag] 107\t\t\tWillCreated(msg.sender, msg.va...\n      SWAP2 \t\t\tWillCreated(msg.sender, msg.va...\n      SWAP1 \t\t\tWillCreated(msg.sender, msg.va...\n      PUSH [tag] 108\t\t\tWillCreated(msg.sender, msg.va...\n      JUMP \t\t\tWillCreated(msg.sender, msg.va...\n    tag 107\t\t\tWillCreated(msg.sender, msg.va...\n      JUMPDEST \t\t\tWillCreated(msg.sender, msg.va...\n      PUSH 40\t\t\tWillCreated(msg.sender, msg.va...\n      MLOAD \t\t\tWillCreated(msg.sender, msg.va...\n      DUP1 \t\t\tWillCreated(msg.sender, msg.va...\n      SWAP2 \t\t\tWillCreated(msg.sender, msg.va...\n      SUB \t\t\tWillCreated(msg.sender, msg.va...\n      SWAP1 \t\t\tWillCreated(msg.sender, msg.va...\n      LOG2 \t\t\tWillCreated(msg.sender, msg.va...\n      POP \t\t\tfunction createWill(\\n        ...\n      POP \t\t\tfunction createWill(\\n        ...\n      JUMP \t\t\tfunction createWill(\\n        ...\n    tag 36\t\t\tfunction getWillDetails() publ...\n      JUMPDEST \t\t\tfunction getWillDetails() publ...\n      PUSH 60\t\t\tstring memory firstName\n      DUP1 \t\t\tstring memory lastName\n      PUSH 0\t\t\tuint256 totalLocked\n      DUP1 \t\t\tbool isDeceased\n      PUSH 1\t\t\thasWill\n      PUSH 0\t\t\thasWill[msg.sender]\n      CALLER \t\t\tmsg.sender\n      PUSH FFFFFFFFFFFFFFFFFFFFFFFFFFFFFFFFFFFFFFFF\t\t\thasWill[msg.sender]\n      AND \t\t\thasWill[msg.sender]\n      PUSH FFFFFFFFFFFFFFFFFFFFFFFFFFFFFFFFFFFFFFFF\t\t\thasWill[msg.sender]\n      AND \t\t\thasWill[msg.sender]\n      DUP2 \t\t\thasWill[msg.sender]\n      MSTORE \t\t\thasWill[msg.sender]\n      PUSH 20\t\t\thasWill[msg.sender]\n      ADD \t\t\thasWill[msg.sender]\n      SWAP1 \t\t\thasWill[msg.sender]\n      DUP2 \t\t\thasWill[msg.sender]\n      MSTORE \t\t\thasWill[msg.sender]\n      PUSH 20\t\t\thasWill[msg.sender]\n      ADD \t\t\thasWill[msg.sender]\n      PUSH 0\t\t\thasWill[msg.sender]\n      KECCAK256 \t\t\thasWill[msg.sender]\n      PUSH 0\t\t\thasWill[msg.sender]\n      SWAP1 \t\t\thasWill[msg.sender]\n      SLOAD \t\t\thasWill[msg.sender]\n      SWAP1 \t\t\thasWill[msg.sender]\n      PUSH 100\t\t\thasWill[msg.sender]\n      EXP \t\t\thasWill[msg.sender]\n      SWAP1 \t\t\thasWill[msg.sender]\n      DIV \t\t\thasWill[msg.sender]\n      PUSH FF\t\t\thasWill[msg.sender]\n      AND \t\t\thasWill[msg.sender]\n      PUSH [tag] 110\t\t\trequire(hasWill[msg.sender], \"...\n      JUMPI \t\t\trequire(hasWill[msg.sender], \"...\n      PUSH 40\t\t\trequire(hasWill[msg.sender], \"...\n      MLOAD \t\t\trequire(hasWill[msg.sender], \"...\n      PUSH 8C379A000000000000000000000000000000000000000000000000000000000\t\t\trequire(hasWill[msg.sender], \"...\n      DUP2 \t\t\trequire(hasWill[msg.sender], \"...\n      MSTORE \t\t\trequire(hasWill[msg.sender], \"...\n      PUSH 4\t\t\trequire(hasWill[msg.sender], \"...\n      ADD \t\t\trequire(hasWill[msg.sender], \"...\n      PUSH [tag] 111\t\t\trequire(hasWill[msg.sender], \"...\n      SWAP1 \t\t\trequire(hasWill[msg.sender], \"...\n      PUSH [tag] 83\t\t\trequire(hasWill[msg.sender], \"...\n      JUMP \t\t\trequire(hasWill[msg.sender], \"...\n    tag 111\t\t\trequire(hasWill[msg.sender], \"...\n      JUMPDEST \t\t\trequire(hasWill[msg.sender], \"...\n      PUSH 40\t\t\trequire(hasWill[msg.sender], \"...\n      MLOAD \t\t\trequire(hasWill[msg.sender], \"...\n      DUP1 \t\t\trequire(hasWill[msg.sender], \"...\n      SWAP2 \t\t\trequire(hasWill[msg.sender], \"...\n      SUB \t\t\trequire(hasWill[msg.sender], \"...\n      SWAP1 \t\t\trequire(hasWill[msg.sender], \"...\n      REVERT \t\t\trequire(hasWill[msg.sender], \"...\n    tag 110\t\t\trequire(hasWill[msg.sender], \"...\n      JUMPDEST \t\t\trequire(hasWill[msg.sender], \"...\n      PUSH 0\t\t\tWill storage willData\n      DUP1 \t\t\twills\n      PUSH 0\t\t\twills[msg.sender]\n      CALLER \t\t\tmsg.sender\n      PUSH FFFFFFFFFFFFFFFFFFFFFFFFFFFFFFFFFFFFFFFF\t\t\twills[msg.sender]\n      AND \t\t\twills[msg.sender]\n      PUSH FFFFFFFFFFFFFFFFFFFFFFFFFFFFFFFFFFFFFFFF\t\t\twills[msg.sender]\n      AND \t\t\twills[msg.sender]\n      DUP2 \t\t\twills[msg.sender]\n      MSTORE \t\t\twills[msg.sender]\n      PUSH 20\t\t\twills[msg.sender]\n      ADD \t\t\twills[msg.sender]\n      SWAP1 \t\t\twills[msg.sender]\n      DUP2 \t\t\twills[msg.sender]\n      MSTORE \t\t\twills[msg.sender]\n      PUSH 20\t\t\twills[msg.sender]\n      ADD \t\t\twills[msg.sender]\n      PUSH 0\t\t\twills[msg.sender]\n      KECCAK256 \t\t\twills[msg.sender]\n      SWAP1 \t\t\tWill storage willData = wills[...\n      POP \t\t\tWill storage willData = wills[...\n      DUP1 \t\t\twillData\n      PUSH 1\t\t\twillData.firstName\n      ADD \t\t\twillData.firstName\n      DUP2 \t\t\twillData\n      PUSH 2\t\t\twillData.lastName\n      ADD \t\t\twillData.lastName\n      DUP3 \t\t\twillData\n      PUSH 3\t\t\twillData.totalLocked\n      ADD \t\t\twillData.totalLocked\n      SLOAD \t\t\twillData.totalLocked\n      DUP4 \t\t\twillData\n      PUSH 6\t\t\twillData.isDeceased\n      ADD \t\t\twillData.isDeceased\n      PUSH 0\t\t\twillData.isDeceased\n      SWAP1 \t\t\twillData.isDeceased\n      SLOAD \t\t\twillData.isDeceased\n      SWAP1 \t\t\twillData.isDeceased\n      PUSH 100\t\t\twillData.isDeceased\n      EXP \t\t\twillData.isDeceased\n      SWAP1 \t\t\twillData.isDeceased\n      DIV \t\t\twillData.isDeceased\n      PUSH FF\t\t\twillData.isDeceased\n      AND \t\t\twillData.isDeceased\n      DUP4 \t\t\treturn (willData.firstName, wi...\n      DUP1 \t\t\treturn (willData.firstName, wi...\n      SLOAD \t\t\treturn (willData.firstName, wi...\n      PUSH [tag] 112\t\t\treturn (willData.firstName, wi...\n      SWAP1 \t\t\treturn (willData.firstName, wi...\n      PUSH [tag] 88\t\t\treturn (willData.firstName, wi...\n      JUMP \t\t\treturn (willData.firstName, wi...\n    tag 112\t\t\treturn (willData.firstName, wi...\n      JUMPDEST \t\t\treturn (willData.firstName, wi...\n      DUP1 \t\t\treturn (willData.firstName, wi...\n      PUSH 1F\t\t\treturn (willData.firstName, wi...\n      ADD \t\t\treturn (willData.firstName, wi...\n      PUSH 20\t\t\treturn (willData.firstName, wi...\n      DUP1 \t\t\treturn (willData.firstName, wi...\n      SWAP2 \t\t\treturn (willData.firstName, wi...\n      DIV \t\t\treturn (willData.firstName, wi...\n      MUL \t\t\treturn (willData.firstName, wi...\n      PUSH 20\t\t\treturn (willData.firstName, wi...\n      ADD \t\t\treturn (willData.firstName, wi...\n      PUSH 40\t\t\treturn (willData.firstName, wi...\n      MLOAD \t\t\treturn (willData.firstName, wi...\n      SWAP1 \t\t\treturn (willData.firstName, wi...\n      DUP2 \t\t\treturn (willData.firstName, wi...\n      ADD \t\t\treturn (willData.firstName, wi...\n      PUSH 40\t\t\treturn (willData.firstName, wi...\n      MSTORE \t\t\treturn (willData.firstName, wi...\n      DUP1 \t\t\treturn (willData.firstName, wi...\n      SWAP3 \t\t\treturn (willData.firstName, wi...\n      SWAP2 \t\t\treturn (willData.firstName, wi...\n      SWAP1 \t\t\treturn (willData.firstName, wi...\n      DUP2 \t\t\treturn (willData.firstName, wi...\n      DUP2 \t\t\treturn (willData.firstName, wi...\n      MSTORE \t\t\treturn (willData.firstName, wi...\n      PUSH 20\t\t\treturn (willData.firstName, wi...\n      ADD \t\t\treturn (willData.firstName, wi...\n      DUP3 \t\t\treturn (willData.firstName, wi...\n      DUP1 \t\t\treturn (willData.firstName, wi...\n      SLOAD \t\t\treturn (willData.firstName, wi...\n      PUSH [tag] 113\t\t\treturn (willData.firstName, wi...\n      SWAP1 \t\t\treturn (willData.firstName, wi...\n      PUSH [tag] 88\t\t\treturn (willData.firstName, wi...\n      JUMP \t\t\treturn (willData.firstName, wi...\n    tag 113\t\t\treturn (willData.firstName, wi...\n      JUMPDEST \t\t\treturn (willData.firstName, wi...\n      DUP1 \t\t\treturn (willData.firstName, wi...\n      ISZERO \t\t\treturn (willData.firstName, wi...\n      PUSH [tag] 114\t\t\treturn (willData.firstName, wi...\n      JUMPI \t\t\treturn (willData.firstName, wi...\n      DUP1 \t\t\treturn (willData.firstName, wi...\n      PUSH 1F\t\t\treturn (willData.firstName, wi...\n      LT \t\t\treturn (willData.firstName, wi...\n      PUSH [tag] 115\t\t\treturn (willData.firstName, wi...\n      JUMPI \t\t\treturn (willData.firstName, wi...\n      PUSH 100\t\t\treturn (willData.firstName, wi...\n      DUP1 \t\t\treturn (willData.firstName, wi...\n      DUP4 \t\t\treturn (willData.firstName, wi...\n      SLOAD \t\t\treturn (willData.firstName, wi...\n      DIV \t\t\treturn (willData.firstName, wi...\n      MUL \t\t\treturn (willData.firstName, wi...\n      DUP4 \t\t\treturn (willData.firstName, wi...\n      MSTORE \t\t\treturn (willData.firstName, wi...\n      SWAP2 \t\t\treturn (willData.firstName, wi...\n      PUSH 20\t\t\treturn (willData.firstName, wi...\n      ADD \t\t\treturn (willData.firstName, wi...\n      SWAP2 \t\t\treturn (willData.firstName, wi...\n      PUSH [tag] 114\t\t\treturn (willData.firstName, wi...\n      JUMP \t\t\treturn (willData.firstName, wi...\n    tag 115\t\t\treturn (willData.firstName, wi...\n      JUMPDEST \t\t\treturn (willData.firstName, wi...\n      DUP3 \t\t\treturn (willData.firstName, wi...\n      ADD \t\t\treturn (willData.firstName, wi...\n      SWAP2 \t\t\treturn (willData.firstName, wi...\n      SWAP1 \t\t\treturn (willData.firstName, wi...\n      PUSH 0\t\t\treturn (willData.firstName, wi...\n      MSTORE \t\t\treturn (willData.firstName, wi...\n      PUSH 20\t\t\treturn (willData.firstName, wi...\n      PUSH 0\t\t\treturn (willData.firstName, wi...\n      KECCAK256 \t\t\treturn (willData.firstName, wi...\n      SWAP1 \t\t\treturn (willData.firstName, wi...\n    tag 116\t\t\treturn (willData.firstName, wi...\n      JUMPDEST \t\t\treturn (willData.firstName, wi...\n      DUP2 \t\t\treturn (willData.firstName, wi...\n      SLOAD \t\t\treturn (willData.firstName, wi...\n      DUP2 \t\t\treturn (willData.firstName, wi...\n      MSTORE \t\t\treturn (willData.firstName, wi...\n      SWAP1 \t\t\treturn (willData.firstName, wi...\n      PUSH 1\t\t\treturn (willData.firstName, wi...\n      ADD \t\t\treturn (willData.firstName, wi...\n      SWAP1 \t\t\treturn (willData.firstName, wi...\n      PUSH 20\t\t\treturn (willData.firstName, wi...\n      ADD \t\t\treturn (willData.firstName, wi...\n      DUP1 \t\t\treturn (willData.firstName, wi...\n      DUP4 \t\t\treturn (willData.firstName, wi...\n      GT \t\t\treturn (willData.firstName, wi...\n      PUSH [tag] 116\t\t\treturn (willData.firstName, wi...\n      JUMPI \t\t\treturn (willData.firstName, wi...\n      DUP3 \t\t\treturn (willData.firstName, wi...\n      SWAP1 \t\t\treturn (willData.firstName, wi...\n      SUB \t\t\treturn (willData.firstName, wi...\n      PUSH 1F\t\t\treturn (willData.firstName, wi...\n      AND \t\t\treturn (willData.firstName, wi...\n      DUP3 \t\t\treturn (willData.firstName, wi...\n      ADD \t\t\treturn (willData.firstName, wi...\n      SWAP2 \t\t\treturn (willData.firstName, wi...\n    tag 114\t\t\treturn (willData.firstName, wi...\n      JUMPDEST \t\t\treturn (willData.firstName, wi...\n      POP \t\t\treturn (willData.firstName, wi...\n      POP \t\t\treturn (willData.firstName, wi...\n      POP \t\t\treturn (willData.firstName, wi...\n      POP \t\t\treturn (willData.firstName, wi...\n      POP \t\t\treturn (willData.firstName, wi...\n      SWAP4 \t\t\treturn (willData.firstName, wi...\n      POP \t\t\treturn (willData.firstName, wi...\n      DUP3 \t\t\treturn (willData.firstName, wi...\n      DUP1 \t\t\treturn (willData.firstName, wi...\n      SLOAD \t\t\treturn (willData.firstName, wi...\n      PUSH [tag] 117\t\t\treturn (willData.firstName, wi...\n      SWAP1 \t\t\treturn (willData.firstName, wi...\n      PUSH [tag] 88\t\t\treturn (willData.firstName, wi...\n      JUMP \t\t\treturn (willData.firstName, wi...\n    tag 117\t\t\treturn (willData.firstName, wi...\n      JUMPDEST \t\t\treturn (willData.firstName, wi...\n      DUP1 \t\t\treturn (willData.firstName, wi...\n      PUSH 1F\t\t\treturn (willData.firstName, wi...\n      ADD \t\t\treturn (willData.firstName, wi...\n      PUSH 20\t\t\treturn (willData.firstName, wi...\n      DUP1 \t\t\treturn (willData.firstName, wi...\n      SWAP2 \t\t\treturn (willData.firstName, wi...\n      DIV \t\t\treturn (willData.firstName, wi...\n      MUL \t\t\treturn (willData.firstName, wi...\n      PUSH 20\t\t\treturn (willData.firstName, wi...\n      ADD \t\t\treturn (willData.firstName, wi...\n      PUSH 40\t\t\treturn (willData.firstName, wi...\n      MLOAD \t\t\treturn (willData.firstName, wi...\n      SWAP1 \t\t\treturn (willData.firstName, wi...\n      DUP2 \t\t\treturn (willData.firstName, wi...\n      ADD \t\t\treturn (willData.firstName, wi...\n      PUSH 40\t\t\treturn (willData.firstName, wi...\n      MSTORE \t\t\treturn (willData.firstName, wi...\n      DUP1 \t\t\treturn (willData.firstName, wi...\n      SWAP3 \t\t\treturn (willData.firstName, wi...\n      SWAP2 \t\t\treturn (willData.firstName, wi...\n      SWAP1 \t\t\treturn (willData.firstName, wi...\n      DUP2 \t\t\treturn (willData.firstName, wi...\n      DUP2 \t\t\treturn (willData.firstName, wi...\n      MSTORE \t\t\treturn (willData.firstName, wi...\n      PUSH 20\t\t\treturn (willData.firstName, wi...\n      ADD \t\t\treturn (willData.firstName, wi...\n      DUP3 \t\t\treturn (willData.firstName, wi...\n      DUP1 \t\t\treturn (willData.firstName, wi...\n      SLOAD \t\t\treturn (willData.firstName, wi...\n      PUSH [tag] 118\t\t\treturn (willData.firstName, wi...\n      SWAP1 \t\t\treturn (willData.firstName, wi...\n      PUSH [tag] 88\t\t\treturn (willData.firstName, wi...\n      JUMP \t\t\treturn (willData.firstName, wi...\n    tag 118\t\t\treturn (willData.firstName, wi...\n      JUMPDEST \t\t\treturn (willData.firstName, wi...\n      DUP1 \t\t\treturn (willData.firstName, wi...\n      ISZERO \t\t\treturn (willData.firstName, wi...\n      PUSH [tag] 119\t\t\treturn (willData.firstName, wi...\n      JUMPI \t\t\treturn (willData.firstName, wi...\n      DUP1 \t\t\treturn (willData.firstName, wi...\n      PUSH 1F\t\t\treturn (willData.firstName, wi...\n      LT \t\t\treturn (willData.firstName, wi...\n      PUSH [tag] 120\t\t\treturn (willData.firstName, wi...\n      JUMPI \t\t\treturn (willData.firstName, wi...\n      PUSH 100\t\t\treturn (willData.firstName, wi...\n      DUP1 \t\t\treturn (willData.firstName, wi...\n      DUP4 \t\t\treturn (willData.firstName, wi...\n      SLOAD \t\t\treturn (willData.firstName, wi...\n      DIV \t\t\treturn (willData.firstName, wi...\n      MUL \t\t\treturn (willData.firstName, wi...\n      DUP4 \t\t\treturn (willData.firstName, wi...\n      MSTORE \t\t\treturn (willData.firstName, wi...\n      SWAP2 \t\t\treturn (willData.firstName, wi...\n      PUSH 20\t\t\treturn (willData.firstName, wi...\n      ADD \t\t\treturn (willData.firstName, wi...\n      SWAP2 \t\t\treturn (willData.firstName, wi...\n      PUSH [tag] 119\t\t\treturn (willData.firstName, wi...\n      JUMP \t\t\treturn (willData.firstName, wi...\n    tag 120\t\t\treturn (willData.firstName, wi...\n      JUMPDEST \t\t\treturn (willData.firstName, wi...\n      DUP3 \t\t\treturn (willData.firstName, wi...\n      ADD \t\t\treturn (willData.firstName, wi...\n      SWAP2 \t\t\treturn (willData.firstName, wi...\n      SWAP1 \t\t\treturn (willData.firstName, wi...\n      PUSH 0\t\t\treturn (willData.firstName, wi...\n      MSTORE \t\t\treturn (willData.firstName, wi...\n      PUSH 20\t\t\treturn (willData.firstName, wi...\n      PUSH 0\t\t\treturn (willData.firstName, wi...\n      KECCAK256 \t\t\treturn (willData.firstName, wi...\n      SWAP1 \t\t\treturn (willData.firstName, wi...\n    tag 121\t\t\treturn (willData.firstName, wi...\n      JUMPDEST \t\t\treturn (willData.firstName, wi...\n      DUP2 \t\t\treturn (willData.firstName, wi...\n      SLOAD \t\t\treturn (willData.firstName, wi...\n      DUP2 \t\t\treturn (willData.firstName, wi...\n      MSTORE \t\t\treturn (willData.firstName, wi...\n      SWAP1 \t\t\treturn (willData.firstName, wi...\n      PUSH 1\t\t\treturn (willData.firstName, wi...\n      ADD \t\t\treturn (willData.firstName, wi...\n      SWAP1 \t\t\treturn (willData.firstName, wi...\n      PUSH 20\t\t\treturn (willData.firstName, wi...\n      ADD \t\t\treturn (willData.firstName, wi...\n      DUP1 \t\t\treturn (willData.firstName, wi...\n      DUP4 \t\t\treturn (willData.firstName, wi...\n      GT \t\t\treturn (willData.firstName, wi...\n      PUSH [tag] 121\t\t\treturn (willData.firstName, wi...\n      JUMPI \t\t\treturn (willData.firstName, wi...\n      DUP3 \t\t\treturn (willData.firstName, wi...\n      SWAP1 \t\t\treturn (willData.firstName, wi...\n      SUB \t\t\treturn (willData.firstName, wi...\n      PUSH 1F\t\t\treturn (willData.firstName, wi...\n      AND \t\t\treturn (willData.firstName, wi...\n      DUP3 \t\t\treturn (willData.firstName, wi...\n      ADD \t\t\treturn (willData.firstName, wi...\n      SWAP2 \t\t\treturn (willData.firstName, wi...\n    tag 119\t\t\treturn (willData.firstName, wi...\n      JUMPDEST \t\t\treturn (willData.firstName, wi...\n      POP \t\t\treturn (willData.firstName, wi...\n      POP \t\t\treturn (willData.firstName, wi...\n      POP \t\t\treturn (willData.firstName, wi...\n      POP \t\t\treturn (willData.firstName, wi...\n      POP \t\t\treturn (willData.firstName, wi...\n      SWAP3 \t\t\treturn (willData.firstName, wi...\n      POP \t\t\treturn (willData.firstName, wi...\n      SWAP5 \t\t\treturn (willData.firstName, wi...\n      POP \t\t\treturn (willData.firstName, wi...\n      SWAP5 \t\t\treturn (willData.firstName, wi...\n      POP \t\t\treturn (willData.firstName, wi...\n      SWAP5 \t\t\treturn (willData.firstName, wi...\n      POP \t\t\treturn (willData.firstName, wi...\n      SWAP5 \t\t\treturn (willData.firstName, wi...\n      POP \t\t\treturn (willData.firstName, wi...\n      POP \t\t\treturn (willData.firstName, wi...\n      SWAP1 \t\t\tfunction getWillDetails() publ...\n      SWAP2 \t\t\tfunction getWillDetails() publ...\n      SWAP3 \t\t\tfunction getWillDetails() publ...\n      SWAP4 \t\t\tfunction getWillDetails() publ...\n      JUMP \t\t\tfunction getWillDetails() publ...\n    tag 42\t\t\tfunction executeWill(address u...\n      JUMPDEST \t\t\tfunction executeWill(address u...\n      PUSH 1\t\t\thasWill\n      PUSH 0\t\t\thasWill[user]\n      DUP3 \t\t\tuser\n      PUSH FFFFFFFFFFFFFFFFFFFFFFFFFFFFFFFFFFFFFFFF\t\t\thasWill[user]\n      AND \t\t\thasWill[user]\n      PUSH FFFFFFFFFFFFFFFFFFFFFFFFFFFFFFFFFFFFFFFF\t\t\thasWill[user]\n      AND \t\t\thasWill[user]\n      DUP2 \t\t\thasWill[user]\n      MSTORE \t\t\thasWill[user]\n      PUSH 20\t\t\thasWill[user]\n      ADD \t\t\thasWill[user]\n      SWAP1 \t\t\thasWill[user]\n      DUP2 \t\t\thasWill[user]\n      MSTORE \t\t\thasWill[user]\n      PUSH 20\t\t\thasWill[user]\n      ADD \t\t\thasWill[user]\n      PUSH 0\t\t\thasWill[user]\n      KECCAK256 \t\t\thasWill[user]\n      PUSH 0\t\t\thasWill[user]\n      SWAP1 \t\t\thasWill[user]\n      SLOAD \t\t\thasWill[user]\n      SWAP1 \t\t\thasWill[user]\n      PUSH 100\t\t\thasWill[user]\n      EXP \t\t\thasWill[user]\n      SWAP1 \t\t\thasWill[user]\n      DIV \t\t\thasWill[user]\n      PUSH FF\t\t\thasWill[user]\n      AND \t\t\thasWill[user]\n      PUSH [tag] 123\t\t\trequire(hasWill[user], \"No wil...\n      JUMPI \t\t\trequire(hasWill[user], \"No wil...\n      PUSH 40\t\t\trequire(hasWill[user], \"No wil...\n      MLOAD \t\t\trequire(hasWill[user], \"No wil...\n      PUSH 8C379A000000000000000000000000000000000000000000000000000000000\t\t\trequire(hasWill[user], \"No wil...\n      DUP2 \t\t\trequire(hasWill[user], \"No wil...\n      MSTORE \t\t\trequire(hasWill[user], \"No wil...\n      PUSH 4\t\t\trequire(hasWill[user], \"No wil...\n      ADD \t\t\trequire(hasWill[user], \"No wil...\n      PUSH [tag] 124\t\t\trequire(hasWill[user], \"No wil...\n      SWAP1 \t\t\trequire(hasWill[user], \"No wil...\n      PUSH [tag] 83\t\t\trequire(hasWill[user], \"No wil...\n      JUMP \t\t\trequire(hasWill[user], \"No wil...\n    tag 124\t\t\trequire(hasWill[user], \"No wil...\n      JUMPDEST \t\t\trequire(hasWill[user], \"No wil...\n      PUSH 40\t\t\trequire(hasWill[user], \"No wil...\n      MLOAD \t\t\trequire(hasWill[user], \"No wil...\n      DUP1 \t\t\trequire(hasWill[user], \"No wil...\n      SWAP2 \t\t\trequire(hasWill[user], \"No wil...\n      SUB \t\t\trequire(hasWill[user], \"No wil...\n      SWAP1 \t\t\trequire(hasWill[user], \"No wil...\n      REVERT \t\t\trequire(hasWill[user], \"No wil...\n    tag 123\t\t\trequire(hasWill[user], \"No wil...\n      JUMPDEST \t\t\trequire(hasWill[user], \"No wil...\n      PUSH 0\t\t\twills\n      DUP1 \t\t\twills[user]\n      DUP3 \t\t\tuser\n      PUSH FFFFFFFFFFFFFFFFFFFFFFFFFFFFFFFFFFFFFFFF\t\t\twills[user]\n      AND \t\t\twills[user]\n      PUSH FFFFFFFFFFFFFFFFFFFFFFFFFFFFFFFFFFFFFFFF\t\t\twills[user]\n      AND \t\t\twills[user]\n      DUP2 \t\t\twills[user]\n      MSTORE \t\t\twills[user]\n      PUSH 20\t\t\twills[user]\n      ADD \t\t\twills[user]\n      SWAP1 \t\t\twills[user]\n      DUP2 \t\t\twills[user]\n      MSTORE \t\t\twills[user]\n      PUSH 20\t\t\twills[user]\n      ADD \t\t\twills[user]\n      PUSH 0\t\t\twills[user]\n      KECCAK256 \t\t\twills[user]\n      PUSH 5\t\t\twills[user].proofOfLifeInterva...\n      ADD \t\t\twills[user].proofOfLifeInterva...\n      SLOAD \t\t\twills[user].proofOfLifeInterva...\n      PUSH 0\t\t\twills\n      DUP1 \t\t\twills[user]\n      DUP4 \t\t\tuser\n      PUSH FFFFFFFFFFFFFFFFFFFFFFFFFFFFFFFFFFFFFFFF\t\t\twills[user]\n      AND \t\t\twills[user]\n      PUSH FFFFFFFFFFFFFFFFFFFFFFFFFFFFFFFFFFFFFFFF\t\t\twills[user]\n      AND \t\t\twills[user]\n      DUP2 \t\t\twills[user]\n      MSTORE \t\t\twills[user]\n      PUSH 20\t\t\twills[user]\n      ADD \t\t\twills[user]\n      SWAP1 \t\t\twills[user]\n      DUP2 \t\t\twills[user]\n      MSTORE \t\t\twills[user]\n      PUSH 20\t\t\twills[user]\n      ADD \t\t\twills[user]\n      PUSH 0\t\t\twills[user]\n      KECCAK256 \t\t\twills[user]\n      PUSH 4\t\t\twills[user].lastAliveTime\n      ADD \t\t\twills[user].lastAliveTime\n      SLOAD \t\t\twills[user].lastAliveTime\n      PUSH [tag] 125\t\t\twills[user].lastAliveTime + wi...\n      SWAP2 \t\t\twills[user].lastAliveTime + wi...\n      SWAP1 \t\t\twills[user].lastAliveTime + wi...\n      PUSH [tag] 62\t\t\twills[user].lastAliveTime + wi...\n      JUMP \t\t\twills[user].lastAliveTime + wi...\n    tag 125\t\t\twills[user].lastAliveTime + wi...\n      JUMPDEST \t\t\twills[user].lastAliveTime + wi...\n      TIMESTAMP \t\t\tblock.timestamp\n      GT \t\t\tblock.timestamp > wills[user]....\n      PUSH [tag] 126\t\t\trequire(block.timestamp > will...\n      JUMPI \t\t\trequire(block.timestamp > will...\n      PUSH 40\t\t\trequire(block.timestamp > will...\n      MLOAD \t\t\trequire(block.timestamp > will...\n      PUSH 8C379A000000000000000000000000000000000000000000000000000000000\t\t\trequire(block.timestamp > will...\n      DUP2 \t\t\trequire(block.timestamp > will...\n      MSTORE \t\t\trequire(block.timestamp > will...\n      PUSH 4\t\t\trequire(block.timestamp > will...\n      ADD \t\t\trequire(block.timestamp > will...\n      PUSH [tag] 127\t\t\trequire(block.timestamp > will...\n      SWAP1 \t\t\trequire(block.timestamp > will...\n      PUSH [tag] 128\t\t\trequire(block.timestamp > will...\n      JUMP \t\t\trequire(block.timestamp > will...\n    tag 127\t\t\trequire(block.timestamp > will...\n      JUMPDEST \t\t\trequire(block.timestamp > will...\n      PUSH 40\t\t\trequire(block.timestamp > will...\n      MLOAD \t\t\trequire(block.timestamp > will...\n      DUP1 \t\t\trequire(block.timestamp > will...\n      SWAP2 \t\t\trequire(block.timestamp > will...\n      SUB \t\t\trequire(block.timestamp > will...\n      SWAP1 \t\t\trequire(block.timestamp > will...\n      REVERT \t\t\trequire(block.timestamp > will...\n    tag 126\t\t\trequire(block.timestamp > will...\n      JUMPDEST \t\t\trequire(block.timestamp > will...\n      PUSH 0\t\t\twills\n      DUP1 \t\t\twills[user]\n      DUP3 \t\t\tuser\n      PUSH FFFFFFFFFFFFFFFFFFFFFFFFFFFFFFFFFFFFFFFF\t\t\twills[user]\n      AND \t\t\twills[user]\n      PUSH FFFFFFFFFFFFFFFFFFFFFFFFFFFFFFFFFFFFFFFF\t\t\twills[user]\n      AND \t\t\twills[user]\n      DUP2 \t\t\twills[user]\n      MSTORE \t\t\twills[user]\n      PUSH 20\t\t\twills[user]\n      ADD \t\t\twills[user]\n      SWAP1 \t\t\twills[user]\n      DUP2 \t\t\twills[user]\n      MSTORE \t\t\twills[user]\n      PUSH 20\t\t\twills[user]\n      ADD \t\t\twills[user]\n      PUSH 0\t\t\twills[user]\n      KECCAK256 \t\t\twills[user]\n      PUSH 6\t\t\twills[user].isDeceased\n      ADD \t\t\twills[user].isDeceased\n      PUSH 0\t\t\twills[user].isDeceased\n      SWAP1 \t\t\twills[user].isDeceased\n      SLOAD \t\t\twills[user].isDeceased\n      SWAP1 \t\t\twills[user].isDeceased\n      PUSH 100\t\t\twills[user].isDeceased\n      EXP \t\t\twills[user].isDeceased\n      SWAP1 \t\t\twills[user].isDeceased\n      DIV \t\t\twills[user].isDeceased\n      PUSH FF\t\t\twills[user].isDeceased\n      AND \t\t\twills[user].isDeceased\n      ISZERO \t\t\t!wills[user].isDeceased\n      PUSH [tag] 129\t\t\trequire(!wills[user].isDecease...\n      JUMPI \t\t\trequire(!wills[user].isDecease...\n      PUSH 40\t\t\trequire(!wills[user].isDecease...\n      MLOAD \t\t\trequire(!wills[user].isDecease...\n      PUSH 8C379A000000000000000000000000000000000000000000000000000000000\t\t\trequire(!wills[user].isDecease...\n      DUP2 \t\t\trequire(!wills[user].isDecease...\n      MSTORE \t\t\trequire(!wills[user].isDecease...\n      PUSH 4\t\t\trequire(!wills[user].isDecease...\n      ADD \t\t\trequire(!wills[user].isDecease...\n      PUSH [tag] 130\t\t\trequire(!wills[user].isDecease...\n      SWAP1 \t\t\trequire(!wills[user].isDecease...\n      PUSH [tag] 79\t\t\trequire(!wills[user].isDecease...\n      JUMP \t\t\trequire(!wills[user].isDecease...\n    tag 130\t\t\trequire(!wills[user].isDecease...\n      JUMPDEST \t\t\trequire(!wills[user].isDecease...\n      PUSH 40\t\t\trequire(!wills[user].isDecease...\n      MLOAD \t\t\trequire(!wills[user].isDecease...\n      DUP1 \t\t\trequire(!wills[user].isDecease...\n      SWAP2 \t\t\trequire(!wills[user].isDecease...\n      SUB \t\t\trequire(!wills[user].isDecease...\n      SWAP1 \t\t\trequire(!wills[user].isDecease...\n      REVERT \t\t\trequire(!wills[user].isDecease...\n    tag 129\t\t\trequire(!wills[user].isDecease...\n      JUMPDEST \t\t\trequire(!wills[user].isDecease...\n      PUSH 1\t\t\ttrue\n      PUSH 0\t\t\twills\n      DUP1 \t\t\twills[user]\n      DUP4 \t\t\tuser\n      PUSH FFFFFFFFFFFFFFFFFFFFFFFFFFFFFFFFFFFFFFFF\t\t\twills[user]\n      AND \t\t\twills[user]\n      PUSH FFFFFFFFFFFFFFFFFFFFFFFFFFFFFFFFFFFFFFFF\t\t\twills[user]\n      AND \t\t\twills[user]\n      DUP2 \t\t\twills[user]\n      MSTORE \t\t\twills[user]\n      PUSH 20\t\t\twills[user]\n      ADD \t\t\twills[user]\n      SWAP1 \t\t\twills[user]\n      DUP2 \t\t\twills[user]\n      MSTORE \t\t\twills[user]\n      PUSH 20\t\t\twills[user]\n      ADD \t\t\twills[user]\n      PUSH 0\t\t\twills[user]\n      KECCAK256 \t\t\twills[user]\n      PUSH 6\t\t\twills[user].isDeceased\n      ADD \t\t\twills[user].isDeceased\n      PUSH 0\t\t\twills[user].isDeceased\n      PUSH 100\t\t\twills[user].isDeceased = true\n      EXP \t\t\twills[user].isDeceased = true\n      DUP2 \t\t\twills[user].isDeceased = true\n      SLOAD \t\t\twills[user].isDeceased = true\n      DUP2 \t\t\twills[user].isDeceased = true\n      PUSH FF\t\t\twills[user].isDeceased = true\n      MUL \t\t\twills[user].isDeceased = true\n      NOT \t\t\twills[user].isDeceased = true\n      AND \t\t\twills[user].isDeceased = true\n      SWAP1 \t\t\twills[user].isDeceased = true\n      DUP4 \t\t\twills[user].isDeceased = true\n      ISZERO \t\t\twills[user].isDeceased = true\n      ISZERO \t\t\twills[user].isDeceased = true\n      MUL \t\t\twills[user].isDeceased = true\n      OR \t\t\twills[user].isDeceased = true\n      SWAP1 \t\t\twills[user].isDeceased = true\n      SSTORE \t\t\twills[user].isDeceased = true\n      POP \t\t\twills[user].isDeceased = true\n      PUSH 0\t\t\tuint256 totalLocked\n      DUP1 \t\t\twills\n      PUSH 0\t\t\twills[user]\n      DUP4 \t\t\tuser\n      PUSH FFFFFFFFFFFFFFFFFFFFFFFFFFFFFFFFFFFFFFFF\t\t\twills[user]\n      AND \t\t\twills[user]\n      PUSH FFFFFFFFFFFFFFFFFFFFFFFFFFFFFFFFFFFFFFFF\t\t\twills[user]\n      AND \t\t\twills[user]\n      DUP2 \t\t\twills[user]\n      MSTORE \t\t\twills[user]\n      PUSH 20\t\t\twills[user]\n      ADD \t\t\twills[user]\n      SWAP1 \t\t\twills[user]\n      DUP2 \t\t\twills[user]\n      MSTORE \t\t\twills[user]\n      PUSH 20\t\t\twills[user]\n      ADD \t\t\twills[user]\n      PUSH 0\t\t\twills[user]\n      KECCAK256 \t\t\twills[user]\n      PUSH 3\t\t\twills[user].totalLocked\n      ADD \t\t\twills[user].totalLocked\n      SLOAD \t\t\twills[user].totalLocked\n      SWAP1 \t\t\tuint256 totalLocked = wills[us...\n      POP \t\t\tuint256 totalLocked = wills[us...\n      PUSH 0\t\t\t0\n      DUP2 \t\t\ttotalLocked\n      GT \t\t\ttotalLocked > 0\n      PUSH [tag] 131\t\t\trequire(totalLocked > 0, \"No E...\n      JUMPI \t\t\trequire(totalLocked > 0, \"No E...\n      PUSH 40\t\t\trequire(totalLocked > 0, \"No E...\n      MLOAD \t\t\trequire(totalLocked > 0, \"No E...\n      PUSH 8C379A000000000000000000000000000000000000000000000000000000000\t\t\trequire(totalLocked > 0, \"No E...\n      DUP2 \t\t\trequire(totalLocked > 0, \"No E...\n      MSTORE \t\t\trequire(totalLocked > 0, \"No E...\n      PUSH 4\t\t\trequire(totalLocked > 0, \"No E...\n      ADD \t\t\trequire(totalLocked > 0, \"No E...\n      PUSH [tag] 132\t\t\trequire(totalLocked > 0, \"No E...\n      SWAP1 \t\t\trequire(totalLocked > 0, \"No E...\n      PUSH [tag] 133\t\t\trequire(totalLocked > 0, \"No E...\n      JUMP \t\t\trequire(totalLocked > 0, \"No E...\n    tag 132\t\t\trequire(totalLocked > 0, \"No E...\n      JUMPDEST \t\t\trequire(totalLocked > 0, \"No E...\n      PUSH 40\t\t\trequire(totalLocked > 0, \"No E...\n      MLOAD \t\t\trequire(totalLocked > 0, \"No E...\n      DUP1 \t\t\trequire(totalLocked > 0, \"No E...\n      SWAP2 \t\t\trequire(totalLocked > 0, \"No E...\n      SUB \t\t\trequire(totalLocked > 0, \"No E...\n      SWAP1 \t\t\trequire(totalLocked > 0, \"No E...\n      REVERT \t\t\trequire(totalLocked > 0, \"No E...\n    tag 131\t\t\trequire(totalLocked > 0, \"No E...\n      JUMPDEST \t\t\trequire(totalLocked > 0, \"No E...\n      PUSH 0\t\t\tuint i\n    tag 134\t\t\tfor (uint i = 0; i < wills[use...\n      JUMPDEST \t\t\tfor (uint i = 0; i < wills[use...\n      PUSH 0\t\t\twills\n      DUP1 \t\t\twills[user]\n      DUP5 \t\t\tuser\n      PUSH FFFFFFFFFFFFFFFFFFFFFFFFFFFFFFFFFFFFFFFF\t\t\twills[user]\n      AND \t\t\twills[user]\n      PUSH FFFFFFFFFFFFFFFFFFFFFFFFFFFFFFFFFFFFFFFF\t\t\twills[user]\n      AND \t\t\twills[user]\n      DUP2 \t\t\twills[user]\n      MSTORE \t\t\twills[user]\n      PUSH 20\t\t\twills[user]\n      ADD \t\t\twills[user]\n      SWAP1 \t\t\twills[user]\n      DUP2 \t\t\twills[user]\n      MSTORE \t\t\twills[user]\n      PUSH 20\t\t\twills[user]\n      ADD \t\t\twills[user]\n      PUSH 0\t\t\twills[user]\n      KECCAK256 \t\t\twills[user]\n      PUSH 7\t\t\twills[user].beneficiaries\n      ADD \t\t\twills[user].beneficiaries\n      DUP1 \t\t\twills[user].beneficiaries.leng...\n      SLOAD \t\t\twills[user].beneficiaries.leng...\n      SWAP1 \t\t\twills[user].beneficiaries.leng...\n      POP \t\t\twills[user].beneficiaries.leng...\n      DUP2 \t\t\ti\n      LT \t\t\ti < wills[user].beneficiaries....\n      ISZERO \t\t\tfor (uint i = 0; i < wills[use...\n      PUSH [tag] 135\t\t\tfor (uint i = 0; i < wills[use...\n      JUMPI \t\t\tfor (uint i = 0; i < wills[use...\n      PUSH 0\t\t\tBeneficiary storage beneficiar...\n      DUP1 \t\t\twills\n      PUSH 0\t\t\twills[user]\n      DUP6 \t\t\tuser\n      PUSH FFFFFFFFFFFFFFFFFFFFFFFFFFFFFFFFFFFFFFFF\t\t\twills[user]\n      AND \t\t\twills[user]\n      PUSH FFFFFFFFFFFFFFFFFFFFFFFFFFFFFFFFFFFFFFFF\t\t\twills[user]\n      AND \t\t\twills[user]\n      DUP2 \t\t\twills[user]\n      MSTORE \t\t\twills[user]\n      PUSH 20\t\t\twills[user]\n      ADD \t\t\twills[user]\n      SWAP1 \t\t\twills[user]\n      DUP2 \t\t\twills[user]\n      MSTORE \t\t\twills[user]\n      PUSH 20\t\t\twills[user]\n      ADD \t\t\twills[user]\n      PUSH 0\t\t\twills[user]\n      KECCAK256 \t\t\twills[user]\n      PUSH 7\t\t\twills[user].beneficiaries\n      ADD \t\t\twills[user].beneficiaries\n      DUP3 \t\t\ti\n      DUP2 \t\t\twills[user].beneficiaries[i]\n      SLOAD \t\t\twills[user].beneficiaries[i]\n      DUP2 \t\t\twills[user].beneficiaries[i]\n      LT \t\t\twills[user].beneficiaries[i]\n      PUSH [tag] 137\t\t\twills[user].beneficiaries[i]\n      JUMPI \t\t\twills[user].beneficiaries[i]\n      PUSH [tag] 138\t\t\twills[user].beneficiaries[i]\n      PUSH [tag] 59\t\t\twills[user].beneficiaries[i]\n      JUMP \t\t\twills[user].beneficiaries[i]\n    tag 138\t\t\twills[user].beneficiaries[i]\n      JUMPDEST \t\t\twills[user].beneficiaries[i]\n    tag 137\t\t\twills[user].beneficiaries[i]\n      JUMPDEST \t\t\twills[user].beneficiaries[i]\n      SWAP1 \t\t\twills[user].beneficiaries[i]\n      PUSH 0\t\t\twills[user].beneficiaries[i]\n      MSTORE \t\t\twills[user].beneficiaries[i]\n      PUSH 20\t\t\twills[user].beneficiaries[i]\n      PUSH 0\t\t\twills[user].beneficiaries[i]\n      KECCAK256 \t\t\twills[user].beneficiaries[i]\n      SWAP1 \t\t\twills[user].beneficiaries[i]\n      PUSH 4\t\t\twills[user].beneficiaries[i]\n      MUL \t\t\twills[user].beneficiaries[i]\n      ADD \t\t\twills[user].beneficiaries[i]\n      SWAP1 \t\t\tBeneficiary storage beneficiar...\n      POP \t\t\tBeneficiary storage beneficiar...\n      PUSH 0\t\t\tuint256 amount\n      PUSH 64\t\t\t100\n      DUP3 \t\t\tbeneficiary\n      PUSH 1\t\t\tbeneficiary.percentage\n      ADD \t\t\tbeneficiary.percentage\n      SLOAD \t\t\tbeneficiary.percentage\n      DUP6 \t\t\ttotalLocked\n      PUSH [tag] 140\t\t\ttotalLocked * beneficiary.perc...\n      SWAP2 \t\t\ttotalLocked * beneficiary.perc...\n      SWAP1 \t\t\ttotalLocked * beneficiary.perc...\n      PUSH [tag] 141\t\t\ttotalLocked * beneficiary.perc...\n      JUMP \t\t\ttotalLocked * beneficiary.perc...\n    tag 140\t\t\ttotalLocked * beneficiary.perc...\n      JUMPDEST \t\t\ttotalLocked * beneficiary.perc...\n      PUSH [tag] 142\t\t\t(totalLocked * beneficiary.per...\n      SWAP2 \t\t\t(totalLocked * beneficiary.per...\n      SWAP1 \t\t\t(totalLocked * beneficiary.per...\n      PUSH [tag] 143\t\t\t(totalLocked * beneficiary.per...\n      JUMP \t\t\t(totalLocked * beneficiary.per...\n    tag 142\t\t\t(totalLocked * beneficiary.per...\n      JUMPDEST \t\t\t(totalLocked * beneficiary.per...\n      SWAP1 \t\t\tuint256 amount = (totalLocked ...\n      POP \t\t\tuint256 amount = (totalLocked ...\n      DUP2 \t\t\tbeneficiary\n      PUSH 0\t\t\tbeneficiary.wallet\n      ADD \t\t\tbeneficiary.wallet\n      PUSH 0\t\t\tbeneficiary.wallet\n      SWAP1 \t\t\tbeneficiary.wallet\n      SLOAD \t\t\tbeneficiary.wallet\n      SWAP1 \t\t\tbeneficiary.wallet\n      PUSH 100\t\t\tbeneficiary.wallet\n      EXP \t\t\tbeneficiary.wallet\n      SWAP1 \t\t\tbeneficiary.wallet\n      DIV \t\t\tbeneficiary.wallet\n      PUSH FFFFFFFFFFFFFFFFFFFFFFFFFFFFFFFFFFFFFFFF\t\t\tbeneficiary.wallet\n      AND \t\t\tbeneficiary.wallet\n      PUSH FFFFFFFFFFFFFFFFFFFFFFFFFFFFFFFFFFFFFFFF\t\t\tbeneficiary.wallet.transfer\n      AND \t\t\tbeneficiary.wallet.transfer\n      PUSH 8FC\t\t\tbeneficiary.wallet.transfer(am...\n      DUP3 \t\t\tamount\n      SWAP1 \t\t\tbeneficiary.wallet.transfer(am...\n      DUP2 \t\t\tbeneficiary.wallet.transfer(am...\n      ISZERO \t\t\tbeneficiary.wallet.transfer(am...\n      MUL \t\t\tbeneficiary.wallet.transfer(am...\n      SWAP1 \t\t\tbeneficiary.wallet.transfer(am...\n      PUSH 40\t\t\tbeneficiary.wallet.transfer(am...\n      MLOAD \t\t\tbeneficiary.wallet.transfer(am...\n      PUSH 0\t\t\tbeneficiary.wallet.transfer(am...\n      PUSH 40\t\t\tbeneficiary.wallet.transfer(am...\n      MLOAD \t\t\tbeneficiary.wallet.transfer(am...\n      DUP1 \t\t\tbeneficiary.wallet.transfer(am...\n      DUP4 \t\t\tbeneficiary.wallet.transfer(am...\n      SUB \t\t\tbeneficiary.wallet.transfer(am...\n      DUP2 \t\t\tbeneficiary.wallet.transfer(am...\n      DUP6 \t\t\tbeneficiary.wallet.transfer(am...\n      DUP9 \t\t\tbeneficiary.wallet.transfer(am...\n      DUP9 \t\t\tbeneficiary.wallet.transfer(am...\n      CALL \t\t\tbeneficiary.wallet.transfer(am...\n      SWAP4 \t\t\tbeneficiary.wallet.transfer(am...\n      POP \t\t\tbeneficiary.wallet.transfer(am...\n      POP \t\t\tbeneficiary.wallet.transfer(am...\n      POP \t\t\tbeneficiary.wallet.transfer(am...\n      POP \t\t\tbeneficiary.wallet.transfer(am...\n      ISZERO \t\t\tbeneficiary.wallet.transfer(am...\n      DUP1 \t\t\tbeneficiary.wallet.transfer(am...\n      ISZERO \t\t\tbeneficiary.wallet.transfer(am...\n      PUSH [tag] 145\t\t\tbeneficiary.wallet.transfer(am...\n      JUMPI \t\t\tbeneficiary.wallet.transfer(am...\n      RETURNDATASIZE \t\t\tbeneficiary.wallet.transfer(am...\n      PUSH 0\t\t\tbeneficiary.wallet.transfer(am...\n      DUP1 \t\t\tbeneficiary.wallet.transfer(am...\n      RETURNDATACOPY \t\t\tbeneficiary.wallet.transfer(am...\n      RETURNDATASIZE \t\t\tbeneficiary.wallet.transfer(am...\n      PUSH 0\t\t\tbeneficiary.wallet.transfer(am...\n      REVERT \t\t\tbeneficiary.wallet.transfer(am...\n    tag 145\t\t\tbeneficiary.wallet.transfer(am...\n      JUMPDEST \t\t\tbeneficiary.wallet.transfer(am...\n      POP \t\t\tbeneficiary.wallet.transfer(am...\n      DUP2 \t\t\tbeneficiary\n      PUSH 0\t\t\tbeneficiary.wallet\n      ADD \t\t\tbeneficiary.wallet\n      PUSH 0\t\t\tbeneficiary.wallet\n      SWAP1 \t\t\tbeneficiary.wallet\n      SLOAD \t\t\tbeneficiary.wallet\n      SWAP1 \t\t\tbeneficiary.wallet\n      PUSH 100\t\t\tbeneficiary.wallet\n      EXP \t\t\tbeneficiary.wallet\n      SWAP1 \t\t\tbeneficiary.wallet\n      DIV \t\t\tbeneficiary.wallet\n      PUSH FFFFFFFFFFFFFFFFFFFFFFFFFFFFFFFFFFFFFFFF\t\t\tbeneficiary.wallet\n      AND \t\t\tbeneficiary.wallet\n      PUSH FFFFFFFFFFFFFFFFFFFFFFFFFFFFFFFFFFFFFFFF\t\t\tFundsDisbursed(beneficiary.wal...\n      AND \t\t\tFundsDisbursed(beneficiary.wal...\n      PUSH CEB720B06C310EDC215BEE81670832BB918BA1199F401716364414DDB9B816A7\t\t\tFundsDisbursed(beneficiary.wal...\n      DUP3 \t\t\tamount\n      DUP5 \t\t\tbeneficiary\n      PUSH 2\t\t\tbeneficiary.saleDeedIpfsHash\n      ADD \t\t\tbeneficiary.saleDeedIpfsHash\n      DUP6 \t\t\tbeneficiary\n      PUSH 3\t\t\tbeneficiary.email\n      ADD \t\t\tbeneficiary.email\n      PUSH 40\t\t\tFundsDisbursed(beneficiary.wal...\n      MLOAD \t\t\tFundsDisbursed(beneficiary.wal...\n      PUSH [tag] 146\t\t\tFundsDisbursed(beneficiary.wal...\n      SWAP4 \t\t\tFundsDisbursed(beneficiary.wal...\n      SWAP3 \t\t\tFundsDisbursed(beneficiary.wal...\n      SWAP2 \t\t\tFundsDisbursed(beneficiary.wal...\n      SWAP1 \t\t\tFundsDisbursed(beneficiary.wal...\n      PUSH [tag] 147\t\t\tFundsDisbursed(beneficiary.wal...\n      JUMP \t\t\tFundsDisbursed(beneficiary.wal...\n    tag 146\t\t\tFundsDisbursed(beneficiary.wal...\n      JUMPDEST \t\t\tFundsDisbursed(beneficiary.wal...\n      PUSH 40\t\t\tFundsDisbursed(beneficiary.wal...\n      MLOAD \t\t\tFundsDisbursed(beneficiary.wal...\n      DUP1 \t\t\tFundsDisbursed(beneficiary.wal...\n      SWAP2 \t\t\tFundsDisbursed(beneficiary.wal...\n      SUB \t\t\tFundsDisbursed(beneficiary.wal...\n      SWAP1 \t\t\tFundsDisbursed(beneficiary.wal...\n      LOG2 \t\t\tFundsDisbursed(beneficiary.wal...\n      POP \t\t\t{\\n            Beneficiary sto...\n      POP \t\t\t{\\n            Beneficiary sto...\n      DUP1 \t\t\ti++\n      DUP1 \t\t\ti++\n      PUSH 1\t\t\ti++\n      ADD \t\t\ti++\n      SWAP2 \t\t\ti++\n      POP \t\t\ti++\n      POP \t\t\ti++\n      PUSH [tag] 134\t\t\tfor (uint i = 0; i < wills[use...\n      JUMP \t\t\tfor (uint i = 0; i < wills[use...\n    tag 135\t\t\tfor (uint i = 0; i < wills[use...\n      JUMPDEST \t\t\tfor (uint i = 0; i < wills[use...\n      POP \t\t\tfor (uint i = 0; i < wills[use...\n      PUSH 0\t\t\t0\n      DUP1 \t\t\twills\n      PUSH 0\t\t\twills[user]\n      DUP5 \t\t\tuser\n      PUSH FFFFFFFFFFFFFFFFFFFFFFFFFFFFFFFFFFFFFFFF\t\t\twills[user]\n      AND \t\t\twills[user]\n      PUSH FFFFFFFFFFFFFFFFFFFFFFFFFFFFFFFFFFFFFFFF\t\t\twills[user]\n      AND \t\t\twills[user]\n      DUP2 \t\t\twills[user]\n      MSTORE \t\t\twills[user]\n      PUSH 20\t\t\twills[user]\n      ADD \t\t\twills[user]\n      SWAP1 \t\t\twills[user]\n      DUP2 \t\t\twills[user]\n      MSTORE \t\t\twills[user]\n      PUSH 20\t\t\twills[user]\n      ADD \t\t\twills[user]\n      PUSH 0\t\t\twills[user]\n      KECCAK256 \t\t\twills[user]\n      PUSH 3\t\t\twills[user].totalLocked\n      ADD \t\t\twills[user].totalLocked\n      DUP2 \t\t\twills[user].totalLocked = 0\n      SWAP1 \t\t\twills[user].totalLocked = 0\n      SSTORE \t\t\twills[user].totalLocked = 0\n      POP \t\t\twills[user].totalLocked = 0\n      DUP2 \t\t\tuser\n      PUSH FFFFFFFFFFFFFFFFFFFFFFFFFFFFFFFFFFFFFFFF\t\t\tWillExecuted(user)\n      AND \t\t\tWillExecuted(user)\n      PUSH 16346F65ADF8D84422B57AD74CB5607BF6C9E55C3C1FEA66344057E5BBA8A7EE\t\t\tWillExecuted(user)\n      PUSH 40\t\t\tWillExecuted(user)\n      MLOAD \t\t\tWillExecuted(user)\n      PUSH 40\t\t\tWillExecuted(user)\n      MLOAD \t\t\tWillExecuted(user)\n      DUP1 \t\t\tWillExecuted(user)\n      SWAP2 \t\t\tWillExecuted(user)\n      SUB \t\t\tWillExecuted(user)\n      SWAP1 \t\t\tWillExecuted(user)\n      LOG2 \t\t\tWillExecuted(user)\n      POP \t\t\t{\\n        require(hasWill[use...\n      POP \t\t\tfunction executeWill(address u...\n      JUMP \t\t\tfunction executeWill(address u...\n    tag 148\t\t\t-License-Identifier: MIT\\nprag...\n      JUMPDEST \t\t\t-License-Identifier: MIT\\nprag...\n      PUSH 0\t\t\tolidit\n      PUSH 40\t\t\til\n      MLOAD \t\t\tMultiWill\n      SWAP1 \t\t\t\\ncontract MultiWill\n      POP \t\t\t\\ncontract MultiWill\n      SWAP1 \t\t\t-License-Identifier: MIT\\nprag...\n      JUMP \t\t\t-License-Identifier: MIT\\nprag...\n    tag 149\t\t\t   struct Beneficiary {\\n     ...\n      JUMPDEST \t\t\t   struct Beneficiary {\\n     ...\n      PUSH 0\t\t\ta\n      DUP1 \t\t\te\n      REVERT \t\t\ton percentag\n    tag 150\t\t\tring saleDeedIpfsHash; // IPFS...\n      JUMPDEST \t\t\tring saleDeedIpfsHash; // IPFS...\n      PUSH 0\t\t\t \n      DUP1 \t\t\t\\n\n      REVERT \t\t\ts email\\n    \n    tag 151\t\t\tt Will {\\n        address test...\n      JUMPDEST \t\t\tt Will {\\n        address test...\n      PUSH 0\t\t\t      s\n      PUSH FFFFFFFFFFFFFFFFFFFFFFFFFFFFFFFFFFFFFFFF\t\t\tastName;\\n        uint256 tota...\n      DUP3 \t\t\ttring\n      AND \t\t\t   string lastName;\\n        u...\n      SWAP1 \t\t\tName;\\n        string lastName...\n      POP \t\t\tName;\\n        string lastName...\n      SWAP2 \t\t\tt Will {\\n        address test...\n      SWAP1 \t\t\tt Will {\\n        address test...\n      POP \t\t\tt Will {\\n        address test...\n      JUMP \t\t\tt Will {\\n        address test...\n    tag 152\t\t\tastAliveTime;\\n        uint256...\n      JUMPDEST \t\t\tastAliveTime;\\n        uint256...\n      PUSH 0\t\t\trval;\\n \n      PUSH [tag] 240\t\t\t;\\n        Beneficiary[] \n      DUP3 \t\t\tary[]\n      PUSH [tag] 151\t\t\t;\\n        Beneficiary[] \n      JUMP \t\t\t;\\n        Beneficiary[] \n    tag 240\t\t\t;\\n        Beneficiary[] \n      JUMPDEST \t\t\t;\\n        Beneficiary[] \n      SWAP1 \t\t\t isDeceased;\\n        Benefici...\n      POP \t\t\t isDeceased;\\n        Benefici...\n      SWAP2 \t\t\tastAliveTime;\\n        uint256...\n      SWAP1 \t\t\tastAliveTime;\\n        uint256...\n      POP \t\t\tastAliveTime;\\n        uint256...\n      JUMP \t\t\tastAliveTime;\\n        uint256...\n    tag 153\t\t\ts;\\n    }\\n\\n    mapping(addre...\n      JUMPDEST \t\t\ts;\\n    }\\n\\n    mapping(addre...\n      PUSH [tag] 242\t\t\t) public hasWill;\\n\\n    event...\n      DUP2 \t\t\tnt Wi\n      PUSH [tag] 152\t\t\t) public hasWill;\\n\\n    event...\n      JUMP \t\t\t) public hasWill;\\n\\n    event...\n    tag 242\t\t\t) public hasWill;\\n\\n    event...\n      JUMPDEST \t\t\t) public hasWill;\\n\\n    event...\n      DUP2 \t\t\t=> bo\n      EQ \t\t\tss => bool) public hasWill;\\n\\...\n      PUSH [tag] 243\t\t\tping(address => bool) public h...\n      JUMPI \t\t\tping(address => bool) public h...\n      PUSH 0\t\t\ts\n      DUP1 \t\t\tr\n      REVERT \t\t\tted(address \n    tag 243\t\t\tping(address => bool) public h...\n      JUMPDEST \t\t\tping(address => bool) public h...\n      POP \t\t\ts;\\n    }\\n\\n    mapping(addre...\n      JUMP \t\t\ts;\\n    }\\n\\n    mapping(addre...\n    tag 154\t\t\tor, uint256 lockedFunds);\\n   ...\n      JUMPDEST \t\t\tor, uint256 lockedFunds);\\n   ...\n      PUSH 0\t\t\tddres\n      DUP2 \t\t\ticiary\n      CALLDATALOAD \t\t\taddress beneficiary,\n      SWAP1 \t\t\testator, address beneficiary,\n      POP \t\t\testator, address beneficiary,\n      PUSH [tag] 245\t\t\tpercentage);\\n    event WillEx...\n      DUP2 \t\t\t(addr\n      PUSH [tag] 153\t\t\tpercentage);\\n    event WillEx...\n      JUMP \t\t\tpercentage);\\n    event WillEx...\n    tag 245\t\t\tpercentage);\\n    event WillEx...\n      JUMPDEST \t\t\tpercentage);\\n    event WillEx...\n      SWAP3 \t\t\tor, uint256 lockedFunds);\\n   ...\n      SWAP2 \t\t\tor, uint256 lockedFunds);\\n   ...\n      POP \t\t\tor, uint256 lockedFunds);\\n   ...\n      POP \t\t\tor, uint256 lockedFunds);\\n   ...\n      JUMP \t\t\tor, uint256 lockedFunds);\\n   ...\n    tag 155\t\t\testator);\\n    event FundsDisb...\n      JUMPDEST \t\t\testator);\\n    event FundsDisb...\n      PUSH 0\t\t\tdress i\n      DUP2 \t\t\tnt256\n      SWAP1 \t\t\tficiary, uint256\n      POP \t\t\tficiary, uint256\n      SWAP2 \t\t\testator);\\n    event FundsDisb...\n      SWAP1 \t\t\testator);\\n    event FundsDisb...\n      POP \t\t\testator);\\n    event FundsDisb...\n      JUMP \t\t\testator);\\n    event FundsDisb...\n    tag 156\t\t\ting saleDeedIpfsHash, string e...\n      JUMPDEST \t\t\ting saleDeedIpfsHash, string e...\n      PUSH [tag] 248\t\t\till for the sender.\\n    \n      DUP2 \t\t\t.\\n   \n      PUSH [tag] 155\t\t\till for the sender.\\n    \n      JUMP \t\t\till for the sender.\\n    \n    tag 248\t\t\till for the sender.\\n    \n      JUMPDEST \t\t\till for the sender.\\n    \n      DUP2 \t\t\ta new\n      EQ \t\t\tes a new will for the sender.\\...\n      PUSH [tag] 249\t\t\t@dev Creates a new will for th...\n      JUMPI \t\t\t@dev Creates a new will for th...\n      PUSH 0\t\t\tt\n      DUP1 \t\t\ti\n      REVERT \t\t\taram _firstN\n    tag 249\t\t\t@dev Creates a new will for th...\n      JUMPDEST \t\t\t@dev Creates a new will for th...\n      POP \t\t\ting saleDeedIpfsHash, string e...\n      JUMP \t\t\ting saleDeedIpfsHash, string e...\n    tag 157\t\t\t of the testator.\\n     * @par...\n      JUMPDEST \t\t\t of the testator.\\n     * @par...\n      PUSH 0\t\t\t name\n      DUP2 \t\t\tction \n      CALLDATALOAD \t\t\t   */\\n    function c\n      SWAP1 \t\t\ttator.\\n     */\\n    function ...\n      POP \t\t\ttator.\\n     */\\n    function ...\n      PUSH [tag] 251\t\t\t(\\n        string memory _firs...\n      DUP2 \t\t\trstNa\n      PUSH [tag] 156\t\t\t(\\n        string memory _firs...\n      JUMP \t\t\t(\\n        string memory _firs...\n    tag 251\t\t\t(\\n        string memory _firs...\n      JUMPDEST \t\t\t(\\n        string memory _firs...\n      SWAP3 \t\t\t of the testator.\\n     * @par...\n      SWAP2 \t\t\t of the testator.\\n     * @par...\n      POP \t\t\t of the testator.\\n     * @par...\n      POP \t\t\t of the testator.\\n     * @par...\n      JUMP \t\t\t of the testator.\\n     * @par...\n    tag 158\t\t\ttring memory _lastName\\n    ) ...\n      JUMPDEST \t\t\ttring memory _lastName\\n    ) ...\n      PUSH 0\t\t\t\"\n      DUP1 \t\t\tl\n      REVERT \t\t\tve a will!\")\n    tag 159\t\t\tquire(msg.value > 0, \"Must loc...\n      JUMPDEST \t\t\tquire(msg.value > 0, \"Must loc...\n      PUSH 0\t\t\te\n      DUP1 \t\t\tg\n      REVERT \t\t\tills[msg.sen\n    tag 160\t\t\tme = _firstName;\\n        will...\n      JUMPDEST \t\t\tme = _firstName;\\n        will...\n      PUSH 0\t\t\t].last\n      PUSH 1F\t\t\tot\n      NOT \t\t\tr].tota\n      PUSH 1F\t\t\tse\n      DUP4 \t\t\tls[ms\n      ADD \t\t\t wills[msg.sen\n      AND \t\t\t     wills[msg.sender].total\n      SWAP1 \t\t\ttName;\\n        wills[msg.send...\n      POP \t\t\ttName;\\n        wills[msg.send...\n      SWAP2 \t\t\tme = _firstName;\\n        will...\n      SWAP1 \t\t\tme = _firstName;\\n        will...\n      POP \t\t\tme = _firstName;\\n        will...\n      JUMP \t\t\tme = _firstName;\\n        will...\n    tag 161\t\t\t.value;\\n        wills[msg.sen...\n      JUMPDEST \t\t\t.value;\\n        wills[msg.sen...\n      PUSH 4E487B7100000000000000000000000000000000000000000000000000000000\t\t\t= block.timestamp;\\n        wi...\n      PUSH 0\t\t\tm\n      MSTORE \t\t\tAliveTime = block.timestamp;\\n...\n      PUSH 41\t\t\t pro\n      PUSH 4\t\t\te\n      MSTORE \t\t\t to 1 year proo\n      PUSH 24\t\t\t    \n      PUSH 0\t\t\t \n      REVERT \t\t\t check\\n        \n    tag 162\t\t\tnder].isDeceased = false;\\n   ...\n      JUMPDEST \t\t\tnder].isDeceased = false;\\n   ...\n      PUSH [tag] 257\t\t\tated(msg.sender, msg.value)\n      DUP3 \t\t\talue\n      PUSH [tag] 160\t\t\tated(msg.sender, msg.value)\n      JUMP \t\t\tated(msg.sender, msg.value)\n    tag 257\t\t\tated(msg.sender, msg.value)\n      JUMPDEST \t\t\tated(msg.sender, msg.value)\n      DUP2 \t\t\t WillC\n      ADD \t\t\temit WillCreated(msg.sender, m...\n      DUP2 \t\t\tthe be\n      DUP2 \t\t\t Address o\n      LT \t\t\tlet Address of the ben\n      PUSH FFFFFFFFFFFFFFFF\t\t\tl.\\n     * @param _\n      DUP3 \t\t\tcaller's w\n      GT \t\t\the caller's will.\\n     * @par...\n      OR \t\t\to the caller's will.\\n     * @...\n      ISZERO \t\t\ty to the caller's will.\\n     ...\n      PUSH [tag] 258\t\t\ty to the caller's will.\\n     ...\n      JUMPI \t\t\ty to the caller's will.\\n     ...\n      PUSH [tag] 259\t\t\tiary.\\n     * @para\n      PUSH [tag] 161\t\t\tiary.\\n     * @para\n      JUMP \t\t\tiary.\\n     * @para\n    tag 259\t\t\tiary.\\n     * @para\n      JUMPDEST \t\t\tiary.\\n     * @para\n    tag 258\t\t\ty to the caller's will.\\n     ...\n      JUMPDEST \t\t\ty to the caller's will.\\n     ...\n      DUP1 \t\t\t ETH to be\n      PUSH 40\t\t\te \n      MSTORE \t\t\tge Share of ETH to be \n      POP \t\t\tsg.sender] = true;\\n\\n        ...\n      POP \t\t\tnder].isDeceased = false;\\n   ...\n      POP \t\t\tnder].isDeceased = false;\\n   ...\n      JUMP \t\t\tnder].isDeceased = false;\\n   ...\n    tag 163\t\t\t    * @param _saleDeedIpfsHash...\n      JUMPDEST \t\t\t    * @param _saleDeedIpfsHash...\n      PUSH 0\t\t\tS hash\n      PUSH [tag] 261\t\t\tument assigned to th\n      PUSH [tag] 148\t\t\tument assigned to th\n      JUMP \t\t\tument assigned to th\n    tag 261\t\t\tument assigned to th\n      JUMPDEST \t\t\tument assigned to th\n      SWAP1 \t\t\te deed document assigned to th\n      POP \t\t\te deed document assigned to th\n      PUSH [tag] 262\t\t\tiary.\\n     * @param _email Em...\n      DUP3 \t\t\tmail\n      DUP3 \t\t\t_email\n      PUSH [tag] 162\t\t\tiary.\\n     * @param _email Em...\n      JUMP \t\t\tiary.\\n     * @param _email Em...\n    tag 262\t\t\tiary.\\n     * @param _email Em...\n      JUMPDEST \t\t\tiary.\\n     * @param _email Em...\n      SWAP2 \t\t\t    * @param _saleDeedIpfsHash...\n      SWAP1 \t\t\t    * @param _saleDeedIpfsHash...\n      POP \t\t\t    * @param _saleDeedIpfsHash...\n      JUMP \t\t\t    * @param _saleDeedIpfsHash...\n    tag 164\t\t\ticiary.\\n     */\\n    function...\n      JUMPDEST \t\t\ticiary.\\n     */\\n    function...\n      PUSH 0\t\t\tayab\n      PUSH FFFFFFFFFFFFFFFF\t\t\t    string memory \n      DUP3 \t\t\tsh,\\n  \n      GT \t\t\tsHash,\\n        string memory ...\n      ISZERO \t\t\tIpfsHash,\\n        string memo...\n      PUSH [tag] 264\t\t\tIpfsHash,\\n        string memo...\n      JUMPI \t\t\tIpfsHash,\\n        string memo...\n      PUSH [tag] 265\t\t\til\\n    ) public {\\n\n      PUSH [tag] 161\t\t\til\\n    ) public {\\n\n      JUMP \t\t\til\\n    ) public {\\n\n    tag 265\t\t\til\\n    ) public {\\n\n      JUMPDEST \t\t\til\\n    ) public {\\n\n    tag 264\t\t\tIpfsHash,\\n        string memo...\n      JUMPDEST \t\t\tIpfsHash,\\n        string memo...\n      PUSH [tag] 266\t\t\till[msg.sender], \"You need to\n      DUP3 \t\t\tneed t\n      PUSH [tag] 160\t\t\till[msg.sender], \"You need to\n      JUMP \t\t\till[msg.sender], \"You need to\n    tag 266\t\t\till[msg.sender], \"You need to\n      JUMPDEST \t\t\till[msg.sender], \"You need to\n      SWAP1 \t\t\tire(hasWill[msg.sender], \"You ...\n      POP \t\t\tire(hasWill[msg.sender], \"You ...\n      PUSH 20\t\t\tess(\n      DUP2 \t\t\t= ad\n      ADD \t\t\tet != address(0\n      SWAP1 \t\t\tre(_wallet != address(0\n      POP \t\t\tre(_wallet != address(0\n      SWAP2 \t\t\ticiary.\\n     */\\n    function...\n      SWAP1 \t\t\ticiary.\\n     */\\n    function...\n      POP \t\t\ticiary.\\n     */\\n    function...\n      JUMP \t\t\ticiary.\\n     */\\n    function...\n    tag 165\t\t\tallet address\");\\n        requ...\n      JUMPDEST \t\t\tallet address\");\\n        requ...\n      DUP3 \t\t\t      \n      DUP2 \t\t\t;\\n\\n\n      DUP4 \t\t\tage\n      CALLDATACOPY \t\t\tvalid percentage\");\\n\\n       ...\n      PUSH 0\t\t\t \n      DUP4 \t\t\t0;\\n   \n      DUP4 \t\t\tge \n      ADD \t\t\tentage = 0;\\n    \n      MSTORE \t\t\ttalPercentage = 0;\\n        \n      POP \t\t\tallet address\");\\n        requ...\n      POP \t\t\tallet address\");\\n        requ...\n      POP \t\t\tallet address\");\\n        requ...\n      JUMP \t\t\tallet address\");\\n        requ...\n    tag 166\t\t\t 0; i < wills[msg.sender].bene...\n      JUMPDEST \t\t\t 0; i < wills[msg.sender].bene...\n      PUSH 0\t\t\ttage \n      PUSH [tag] 269\t\t\t.beneficiaries[i].percentage;\\...\n      PUSH [tag] 270\t\t\t].percentage;\\n        }\\n    ...\n      DUP5 \t\t\ttalPer\n      PUSH [tag] 164\t\t\t].percentage;\\n        }\\n    ...\n      JUMP \t\t\t].percentage;\\n        }\\n    ...\n    tag 270\t\t\t].percentage;\\n        }\\n    ...\n      JUMPDEST \t\t\t].percentage;\\n        }\\n    ...\n      PUSH [tag] 163\t\t\t.beneficiaries[i].percentage;\\...\n      JUMP \t\t\t.beneficiaries[i].percentage;\\...\n    tag 269\t\t\t.beneficiaries[i].percentage;\\...\n      JUMPDEST \t\t\t.beneficiaries[i].percentage;\\...\n      SWAP1 \t\t\tg.sender].beneficiaries[i].per...\n      POP \t\t\tg.sender].beneficiaries[i].per...\n      DUP3 \t\t\t100, \"\n      DUP2 \t\t\tage <\n      MSTORE \t\t\tpercentage <= 100, \"T\n      PUSH 20\t\t\t\\n\\n  \n      DUP2 \t\t\t100%\"\n      ADD \t\t\teds 100%\");\\n\\n   \n      DUP5 \t\t\ties\n      DUP5 \t\t\tenefic\n      DUP5 \t\t\ter]\n      ADD \t\t\tsender].benefici\n      GT \t\t\tsg.sender].beneficiaries.\n      ISZERO \t\t\ts[msg.sender].beneficiaries.pu...\n      PUSH [tag] 271\t\t\ts[msg.sender].beneficiaries.pu...\n      JUMPI \t\t\ts[msg.sender].beneficiaries.pu...\n      PUSH [tag] 272\t\t\th(\\n            Beneficiary(_w...\n      PUSH [tag] 159\t\t\th(\\n            Beneficiary(_w...\n      JUMP \t\t\th(\\n            Beneficiary(_w...\n    tag 272\t\t\th(\\n            Beneficiary(_w...\n      JUMPDEST \t\t\th(\\n            Beneficiary(_w...\n    tag 271\t\t\ts[msg.sender].beneficiaries.pu...\n      JUMPDEST \t\t\ts[msg.sender].beneficiaries.pu...\n      PUSH [tag] 273\t\t\t      emit BeneficiaryAdded(ms...\n      DUP5 \t\t\t, _per\n      DUP3 \t\t\tall\n      DUP6 \t\t\tr, \n      PUSH [tag] 165\t\t\t      emit BeneficiaryAdded(ms...\n      JUMP \t\t\t      emit BeneficiaryAdded(ms...\n    tag 273\t\t\t      emit BeneficiaryAdded(ms...\n      JUMPDEST \t\t\t      emit BeneficiaryAdded(ms...\n      POP \t\t\t= wills[msg.sender].beneficiar...\n      SWAP4 \t\t\t 0; i < wills[msg.sender].bene...\n      SWAP3 \t\t\t 0; i < wills[msg.sender].bene...\n      POP \t\t\t 0; i < wills[msg.sender].bene...\n      POP \t\t\t 0; i < wills[msg.sender].bene...\n      POP \t\t\t 0; i < wills[msg.sender].bene...\n      JUMP \t\t\t 0; i < wills[msg.sender].bene...\n    tag 167\t\t\t   * @dev Updates the proof-of...\n      JUMPDEST \t\t\t   * @dev Updates the proof-of...\n      PUSH 0\t\t\t   fu\n      DUP3 \t\t\tre(\n      PUSH 1F\t\t\t  re\n      DUP4 \t\t\t{\\n    \n      ADD \t\t\tlic {\\n        req\n      SLT \t\t\t public {\\n        require(h\n      PUSH [tag] 275\t\t\tirmAlive() public {\\n        r...\n      JUMPI \t\t\tirmAlive() public {\\n        r...\n      PUSH [tag] 276\t\t\tll[msg.sender], \"You have not ...\n      PUSH [tag] 158\t\t\tll[msg.sender], \"You have not ...\n      JUMP \t\t\tll[msg.sender], \"You have not ...\n    tag 276\t\t\tll[msg.sender], \"You have not ...\n      JUMPDEST \t\t\tll[msg.sender], \"You have not ...\n    tag 275\t\t\tirmAlive() public {\\n        r...\n      JUMPDEST \t\t\tirmAlive() public {\\n        r...\n      DUP2 \t\t\t!\");\\n\\n\n      CALLDATALOAD \t\t\teady executed!\");\\n\\n \n      PUSH [tag] 277\t\t\tender].lastAliveTime = block.t...\n      DUP5 \t\t\t th\n      DUP3 \t\t\tExecut\n      PUSH 20\t\t\t* @d\n      DUP7 \t\t\t**\\n   \n      ADD \t\t\t   /**\\n     * @de\n      PUSH [tag] 166\t\t\tender].lastAliveTime = block.t...\n      JUMP \t\t\tender].lastAliveTime = block.t...\n    tag 277\t\t\tender].lastAliveTime = block.t...\n      JUMPDEST \t\t\tender].lastAliveTime = block.t...\n      SWAP2 \t\t\tlls[msg.sender].lastAliveTime ...\n      POP \t\t\tlls[msg.sender].lastAliveTime ...\n      POP \t\t\tction confirmAlive() public {\\...\n      SWAP3 \t\t\t   * @dev Updates the proof-of...\n      SWAP2 \t\t\t   * @dev Updates the proof-of...\n      POP \t\t\t   * @dev Updates the proof-of...\n      POP \t\t\t   * @dev Updates the proof-of...\n      JUMP \t\t\t   * @dev Updates the proof-of...\n    tag 13\t\t\ttributing ETH and triggering e...\n      JUMPDEST \t\t\ttributing ETH and triggering e...\n      PUSH 0\t\t\trequir\n      DUP1 \t\t\thasWil\n      PUSH 0\t\t\tuser],\n      DUP1 \t\t\tNo wil\n      PUSH 80\t\t\t > \n      DUP6 \t\t\tck.timest\n      DUP8 \t\t\tquire(b\n      SUB \t\t\t  require(block.timesta\n      SLT \t\t\t      require(block.timestamp ...\n      ISZERO \t\t\t\\n        require(block.timest...\n      PUSH [tag] 279\t\t\t\\n        require(block.timest...\n      JUMPI \t\t\t\\n        require(block.timest...\n      PUSH [tag] 280\t\t\ts[user].lastAliveTime + wills[...\n      PUSH [tag] 149\t\t\ts[user].lastAliveTime + wills[...\n      JUMP \t\t\ts[user].lastAliveTime + wills[...\n    tag 280\t\t\ts[user].lastAliveTime + wills[...\n      JUMPDEST \t\t\ts[user].lastAliveTime + wills[...\n    tag 279\t\t\t\\n        require(block.timest...\n      JUMPDEST \t\t\t\\n        require(block.timest...\n      PUSH 0\t\t\te\n      PUSH [tag] 281\t\t\td!\");\\n\\n        wills[user].i...\n      DUP8 \t\t\t  uint2\n      DUP3 \t\t\t;\\n\\n   \n      DUP9 \t\t\tased = tr\n      ADD \t\t\tDeceased = true;\\n\\n    \n      PUSH [tag] 154\t\t\td!\");\\n\\n        wills[user].i...\n      JUMP \t\t\td!\");\\n\\n        wills[user].i...\n    tag 281\t\t\td!\");\\n\\n        wills[user].i...\n      JUMPDEST \t\t\td!\");\\n\\n        wills[user].i...\n      SWAP5 \t\t\tdy executed!\");\\n\\n        wil...\n      POP \t\t\tdy executed!\");\\n\\n        wil...\n      POP \t\t\trequire(!wills[user].isDecease...\n      PUSH 20\t\t\tre\n      PUSH [tag] 282\t\t\tNo ETH to distribute\");\\n\\n   ...\n      DUP8 \t\t\t= 0; i \n      DUP3 \t\t\t (uint\n      DUP9 \t\t\t        f\n      ADD \t\t\t);\\n\\n        for (uint \n      PUSH [tag] 157\t\t\tNo ETH to distribute\");\\n\\n   ...\n      JUMP \t\t\tNo ETH to distribute\");\\n\\n   ...\n    tag 282\t\t\tNo ETH to distribute\");\\n\\n   ...\n      JUMPDEST \t\t\tNo ETH to distribute\");\\n\\n   ...\n      SWAP4 \t\t\tked > 0, \"No ETH to distribute...\n      POP \t\t\tked > 0, \"No ETH to distribute...\n      POP \t\t\ts[user].totalLocked;\\n        ...\n      PUSH 40\t\t\tef\n      DUP6 \t\t\tstorage b\n      ADD \t\t\tary storage benefi\n      CALLDATALOAD \t\t\t     Beneficiary storage benef...\n      PUSH FFFFFFFFFFFFFFFF\t\t\taries[i];\\n\\n       \n      DUP2 \t\t\tbenefi\n      GT \t\t\tr].beneficiaries[i];\\n\\n      ...\n      ISZERO \t\t\tuser].beneficiaries[i];\\n\\n   ...\n      PUSH [tag] 283\t\t\tuser].beneficiaries[i];\\n\\n   ...\n      JUMPI \t\t\tuser].beneficiaries[i];\\n\\n   ...\n      PUSH [tag] 284\t\t\t uint256 amount = (totalLocked...\n      PUSH [tag] 150\t\t\t uint256 amount = (totalLocked...\n      JUMP \t\t\t uint256 amount = (totalLocked...\n    tag 284\t\t\t uint256 amount = (totalLocked...\n      JUMPDEST \t\t\t uint256 amount = (totalLocked...\n    tag 283\t\t\tuser].beneficiaries[i];\\n\\n   ...\n      JUMPDEST \t\t\tuser].beneficiaries[i];\\n\\n   ...\n      PUSH [tag] 285\t\t\tmount);\\n\\n            emit Fu...\n      DUP8 \t\t\tllet, a\n      DUP3 \t\t\ticiary\n      DUP9 \t\t\tursed(ben\n      ADD \t\t\tDisbursed(beneficiary.\n      PUSH [tag] 167\t\t\tmount);\\n\\n            emit Fu...\n      JUMP \t\t\tmount);\\n\\n            emit Fu...\n    tag 285\t\t\tmount);\\n\\n            emit Fu...\n      JUMPDEST \t\t\tmount);\\n\\n            emit Fu...\n      SWAP3 \t\t\ttransfer(amount);\\n\\n         ...\n      POP \t\t\ttransfer(amount);\\n\\n         ...\n      POP \t\t\tiaries.length; i++) {\\n       ...\n      PUSH 60\t\t\tll\n      DUP6 \t\t\t\\n        \n      ADD \t\t\t  }\\n\\n        wills\n      CALLDATALOAD \t\t\tmail);\\n        }\\n\\n        w...\n      PUSH FFFFFFFFFFFFFFFF\t\t\t    emit WillExecu\n      DUP2 \t\t\t 0;\\n  \n      GT \t\t\td = 0;\\n        emit WillExecu...\n      ISZERO \t\t\tcked = 0;\\n        emit WillEx...\n      PUSH [tag] 286\t\t\tcked = 0;\\n        emit WillEx...\n      JUMPI \t\t\tcked = 0;\\n        emit WillEx...\n      PUSH [tag] 287\t\t\tuser);\\n    }\\n\\n    /**\\n    ...\n      PUSH [tag] 150\t\t\tuser);\\n    }\\n\\n    /**\\n    ...\n      JUMP \t\t\tuser);\\n    }\\n\\n    /**\\n    ...\n    tag 287\t\t\tuser);\\n    }\\n\\n    /**\\n    ...\n      JUMPDEST \t\t\tuser);\\n    }\\n\\n    /**\\n    ...\n    tag 286\t\t\tcked = 0;\\n        emit WillEx...\n      JUMPDEST \t\t\tcked = 0;\\n        emit WillEx...\n      PUSH [tag] 288\t\t\t) public view returns (\\n     ...\n      DUP8 \t\t\t,\\n     \n      DUP3 \t\t\tfirstN\n      DUP9 \t\t\ting memor\n      ADD \t\t\t string memory firstNa\n      PUSH [tag] 167\t\t\t) public view returns (\\n     ...\n      JUMP \t\t\t) public view returns (\\n     ...\n    tag 288\t\t\t) public view returns (\\n     ...\n      JUMPDEST \t\t\t) public view returns (\\n     ...\n      SWAP2 \t\t\tllDetails() public view return...\n      POP \t\t\tllDetails() public view return...\n      POP \t\t\tleDeedIpfsHash, beneficiary.em...\n      SWAP3 \t\t\ttributing ETH and triggering e...\n      SWAP6 \t\t\ttributing ETH and triggering e...\n      SWAP2 \t\t\ttributing ETH and triggering e...\n      SWAP5 \t\t\ttributing ETH and triggering e...\n      POP \t\t\ttributing ETH and triggering e...\n      SWAP3 \t\t\ttributing ETH and triggering e...\n      POP \t\t\ttributing ETH and triggering e...\n      JUMP \t\t\ttributing ETH and triggering e...\n    tag 168\t\t\te,\\n        uint256 totalLocke...\n      JUMPDEST \t\t\te,\\n        uint256 totalLocke...\n      PUSH 0\t\t\t   bool\n      PUSH [tag] 290\t\t\t      require(hasWill[ms\n      DUP3 \t\t\till[m\n      PUSH [tag] 151\t\t\t      require(hasWill[ms\n      JUMP \t\t\t      require(hasWill[ms\n    tag 290\t\t\t      require(hasWill[ms\n      JUMPDEST \t\t\t      require(hasWill[ms\n      SWAP1 \t\t\t\\n    ) {\\n        require(has...\n      POP \t\t\t\\n    ) {\\n        require(has...\n      SWAP2 \t\t\te,\\n        uint256 totalLocke...\n      SWAP1 \t\t\te,\\n        uint256 totalLocke...\n      POP \t\t\te,\\n        uint256 totalLocke...\n      JUMP \t\t\te,\\n        uint256 totalLocke...\n    tag 169\t\t\tNo will found!\");\\n\\n        W...\n      JUMPDEST \t\t\tNo will found!\");\\n\\n        W...\n      PUSH [tag] 292\t\t\t     return (willData.fi\n      DUP2 \t\t\tata.f\n      PUSH [tag] 168\t\t\t     return (willData.fi\n      JUMP \t\t\t     return (willData.fi\n    tag 292\t\t\t     return (willData.fi\n      JUMPDEST \t\t\t     return (willData.fi\n      DUP2 \t\t\tr];\\n \n      EQ \t\t\tnder];\\n        return (willDa...\n      PUSH [tag] 293\t\t\tlls[msg.sender];\\n        retu...\n      JUMPI \t\t\tlls[msg.sender];\\n        retu...\n      PUSH 0\t\t\tt\n      DUP1 \t\t\tl\n      REVERT \t\t\tme, willData\n    tag 293\t\t\tlls[msg.sender];\\n        retu...\n      JUMPDEST \t\t\tlls[msg.sender];\\n        retu...\n      POP \t\t\tNo will found!\");\\n\\n        W...\n      JUMP \t\t\tNo will found!\");\\n\\n        W...\n    tag 170\t\t\tlData.totalLocked, willData.is...\n      JUMPDEST \t\t\tlData.totalLocked, willData.is...\n      PUSH 0\t\t\t\\n\\n   \n      DUP2 \t\t\tes of \n      CALLDATALOAD \t\t\ts beneficiaries of t\n      SWAP1 \t\t\t @dev Gets beneficiaries of t\n      POP \t\t\t @dev Gets beneficiaries of t\n      PUSH [tag] 295\t\t\t's will.\\n     */\\n    functio...\n      DUP2 \t\t\ton ge\n      PUSH [tag] 169\t\t\t's will.\\n     */\\n    functio...\n      JUMP \t\t\t's will.\\n     */\\n    functio...\n    tag 295\t\t\t's will.\\n     */\\n    functio...\n      JUMPDEST \t\t\t's will.\\n     */\\n    functio...\n      SWAP3 \t\t\tlData.totalLocked, willData.is...\n      SWAP2 \t\t\tlData.totalLocked, willData.is...\n      POP \t\t\tlData.totalLocked, willData.is...\n      POP \t\t\tlData.totalLocked, willData.is...\n      JUMP \t\t\tlData.totalLocked, willData.is...\n    tag 18\t\t\ts() public view returns (Benef...\n      JUMPDEST \t\t\ts() public view returns (Benef...\n      PUSH 0\t\t\tquire(\n      PUSH 20\t\t\t  \n      DUP3 \t\t\tound!\");\\n\n      DUP5 \t\t\tNo will\n      SUB \t\t\t], \"No will found!\");\\n \n      SLT \t\t\tnder], \"No will found!\");\\n   ...\n      ISZERO \t\t\t.sender], \"No will found!\");\\n...\n      PUSH [tag] 297\t\t\t.sender], \"No will found!\");\\n...\n      JUMPI \t\t\t.sender], \"No will found!\");\\n...\n      PUSH [tag] 298\t\t\teturn wills[msg.sender].benefi...\n      PUSH [tag] 149\t\t\teturn wills[msg.sender].benefi...\n      JUMP \t\t\teturn wills[msg.sender].benefi...\n    tag 298\t\t\teturn wills[msg.sender].benefi...\n      JUMPDEST \t\t\teturn wills[msg.sender].benefi...\n    tag 297\t\t\t.sender], \"No will found!\");\\n...\n      JUMPDEST \t\t\t.sender], \"No will found!\");\\n...\n      PUSH 0\t\t\t\n      PUSH [tag] 299\t\t\t\n      DUP5 \t\t\t\n      DUP3 \t\t\t\n      DUP6 \t\t\t\n      ADD \t\t\t\n      PUSH [tag] 170\t\t\t\n      JUMP \t\t\t\n    tag 299\t\t\t\n      JUMPDEST \t\t\t\n      SWAP2 \t\t\t\n      POP \t\t\t\n      POP \t\t\t\n      SWAP3 \t\t\ts() public view returns (Benef...\n      SWAP2 \t\t\ts() public view returns (Benef...\n      POP \t\t\ts() public view returns (Benef...\n      POP \t\t\ts() public view returns (Benef...\n      JUMP \t\t\ts() public view returns (Benef...\n    tag 171\t\t\t\n      JUMPDEST \t\t\t\n      PUSH 0\t\t\t\n      DUP2 \t\t\t\n      ISZERO \t\t\t\n      ISZERO \t\t\t\n      SWAP1 \t\t\t\n      POP \t\t\t\n      SWAP2 \t\t\t\n      SWAP1 \t\t\t\n      POP \t\t\t\n      JUMP \t\t\t\n    tag 172\t\t\t\n      JUMPDEST \t\t\t\n      PUSH [tag] 302\t\t\t\n      DUP2 \t\t\t\n      PUSH [tag] 171\t\t\t\n      JUMP \t\t\t\n    tag 302\t\t\t\n      JUMPDEST \t\t\t\n      DUP3 \t\t\t\n      MSTORE \t\t\t\n      POP \t\t\t\n      POP \t\t\t\n      JUMP \t\t\t\n    tag 21\t\t\t\n      JUMPDEST \t\t\t\n      PUSH 0\t\t\t\n      PUSH 20\t\t\t\n      DUP3 \t\t\t\n      ADD \t\t\t\n      SWAP1 \t\t\t\n      POP \t\t\t\n      PUSH [tag] 304\t\t\t\n      PUSH 0\t\t\t\n      DUP4 \t\t\t\n      ADD \t\t\t\n      DUP5 \t\t\t\n      PUSH [tag] 172\t\t\t\n      JUMP \t\t\t\n    tag 304\t\t\t\n      JUMPDEST \t\t\t\n      SWAP3 \t\t\t\n      SWAP2 \t\t\t\n      POP \t\t\t\n      POP \t\t\t\n      JUMP \t\t\t\n    tag 173\t\t\t\n      JUMPDEST \t\t\t\n      PUSH 0\t\t\t\n      DUP2 \t\t\t\n      MLOAD \t\t\t\n      SWAP1 \t\t\t\n      POP \t\t\t\n      SWAP2 \t\t\t\n      SWAP1 \t\t\t\n      POP \t\t\t\n      JUMP \t\t\t\n    tag 174\t\t\t\n      JUMPDEST \t\t\t\n      PUSH 0\t\t\t\n      DUP3 \t\t\t\n      DUP3 \t\t\t\n      MSTORE \t\t\t\n      PUSH 20\t\t\t\n      DUP3 \t\t\t\n      ADD \t\t\t\n      SWAP1 \t\t\t\n      POP \t\t\t\n      SWAP3 \t\t\t\n      SWAP2 \t\t\t\n      POP \t\t\t\n      POP \t\t\t\n      JUMP \t\t\t\n    tag 175\t\t\t\n      JUMPDEST \t\t\t\n      PUSH 0\t\t\t\n      DUP2 \t\t\t\n      SWAP1 \t\t\t\n      POP \t\t\t\n      PUSH 20\t\t\t\n      DUP3 \t\t\t\n      ADD \t\t\t\n      SWAP1 \t\t\t\n      POP \t\t\t\n      SWAP2 \t\t\t\n      SWAP1 \t\t\t\n      POP \t\t\t\n      JUMP \t\t\t\n    tag 176\t\t\t\n      JUMPDEST \t\t\t\n      PUSH [tag] 309\t\t\t\n      DUP2 \t\t\t\n      PUSH [tag] 152\t\t\t\n      JUMP \t\t\t\n    tag 309\t\t\t\n      JUMPDEST \t\t\t\n      DUP3 \t\t\t\n      MSTORE \t\t\t\n      POP \t\t\t\n      POP \t\t\t\n      JUMP \t\t\t\n    tag 177\t\t\t\n      JUMPDEST \t\t\t\n      PUSH [tag] 311\t\t\t\n      DUP2 \t\t\t\n      PUSH [tag] 155\t\t\t\n      JUMP \t\t\t\n    tag 311\t\t\t\n      JUMPDEST \t\t\t\n      DUP3 \t\t\t\n      MSTORE \t\t\t\n      POP \t\t\t\n      POP \t\t\t\n      JUMP \t\t\t\n    tag 178\t\t\t\n      JUMPDEST \t\t\t\n      PUSH 0\t\t\t\n      DUP2 \t\t\t\n      MLOAD \t\t\t\n      SWAP1 \t\t\t\n      POP \t\t\t\n      SWAP2 \t\t\t\n      SWAP1 \t\t\t\n      POP \t\t\t\n      JUMP \t\t\t\n    tag 179\t\t\t\n      JUMPDEST \t\t\t\n      PUSH 0\t\t\t\n      DUP3 \t\t\t\n      DUP3 \t\t\t\n      MSTORE \t\t\t\n      PUSH 20\t\t\t\n      DUP3 \t\t\t\n      ADD \t\t\t\n      SWAP1 \t\t\t\n      POP \t\t\t\n      SWAP3 \t\t\t\n      SWAP2 \t\t\t\n      POP \t\t\t\n      POP \t\t\t\n      JUMP \t\t\t\n    tag 180\t\t\t\n      JUMPDEST \t\t\t\n      DUP3 \t\t\t\n      DUP2 \t\t\t\n      DUP4 \t\t\t\n      MCOPY \t\t\t\n      PUSH 0\t\t\t\n      DUP4 \t\t\t\n      DUP4 \t\t\t\n      ADD \t\t\t\n      MSTORE \t\t\t\n      POP \t\t\t\n      POP \t\t\t\n      POP \t\t\t\n      JUMP \t\t\t\n    tag 181\t\t\t\n      JUMPDEST \t\t\t\n      PUSH 0\t\t\t\n      PUSH [tag] 316\t\t\t\n      DUP3 \t\t\t\n      PUSH [tag] 178\t\t\t\n      JUMP \t\t\t\n    tag 316\t\t\t\n      JUMPDEST \t\t\t\n      PUSH [tag] 317\t\t\t\n      DUP2 \t\t\t\n      DUP6 \t\t\t\n      PUSH [tag] 179\t\t\t\n      JUMP \t\t\t\n    tag 317\t\t\t\n      JUMPDEST \t\t\t\n      SWAP4 \t\t\t\n      POP \t\t\t\n      PUSH [tag] 318\t\t\t\n      DUP2 \t\t\t\n      DUP6 \t\t\t\n      PUSH 20\t\t\t\n      DUP7 \t\t\t\n      ADD \t\t\t\n      PUSH [tag] 180\t\t\t\n      JUMP \t\t\t\n    tag 318\t\t\t\n      JUMPDEST \t\t\t\n      PUSH [tag] 319\t\t\t\n      DUP2 \t\t\t\n      PUSH [tag] 160\t\t\t\n      JUMP \t\t\t\n    tag 319\t\t\t\n      JUMPDEST \t\t\t\n      DUP5 \t\t\t\n      ADD \t\t\t\n      SWAP2 \t\t\t\n      POP \t\t\t\n      POP \t\t\t\n      SWAP3 \t\t\t\n      SWAP2 \t\t\t\n      POP \t\t\t\n      POP \t\t\t\n      JUMP \t\t\t\n    tag 182\t\t\t\n      JUMPDEST \t\t\t\n      PUSH 0\t\t\t\n      PUSH 80\t\t\t\n      DUP4 \t\t\t\n      ADD \t\t\t\n      PUSH 0\t\t\t\n      DUP4 \t\t\t\n      ADD \t\t\t\n      MLOAD \t\t\t\n      PUSH [tag] 321\t\t\t\n      PUSH 0\t\t\t\n      DUP7 \t\t\t\n      ADD \t\t\t\n      DUP3 \t\t\t\n      PUSH [tag] 176\t\t\t\n      JUMP \t\t\t\n    tag 321\t\t\t\n      JUMPDEST \t\t\t\n      POP \t\t\t\n      PUSH 20\t\t\t\n      DUP4 \t\t\t\n      ADD \t\t\t\n      MLOAD \t\t\t\n      PUSH [tag] 322\t\t\t\n      PUSH 20\t\t\t\n      DUP7 \t\t\t\n      ADD \t\t\t\n      DUP3 \t\t\t\n      PUSH [tag] 177\t\t\t\n      JUMP \t\t\t\n    tag 322\t\t\t\n      JUMPDEST \t\t\t\n      POP \t\t\t\n      PUSH 40\t\t\t\n      DUP4 \t\t\t\n      ADD \t\t\t\n      MLOAD \t\t\t\n      DUP5 \t\t\t\n      DUP3 \t\t\t\n      SUB \t\t\t\n      PUSH 40\t\t\t\n      DUP7 \t\t\t\n      ADD \t\t\t\n      MSTORE \t\t\t\n      PUSH [tag] 323\t\t\t\n      DUP3 \t\t\t\n      DUP3 \t\t\t\n      PUSH [tag] 181\t\t\t\n      JUMP \t\t\t\n    tag 323\t\t\t\n      JUMPDEST \t\t\t\n      SWAP2 \t\t\t\n      POP \t\t\t\n      POP \t\t\t\n      PUSH 60\t\t\t\n      DUP4 \t\t\t\n      ADD \t\t\t\n      MLOAD \t\t\t\n      DUP5 \t\t\t\n      DUP3 \t\t\t\n      SUB \t\t\t\n      PUSH 60\t\t\t\n      DUP7 \t\t\t\n      ADD \t\t\t\n      MSTORE \t\t\t\n      PUSH [tag] 324\t\t\t\n      DUP3 \t\t\t\n      DUP3 \t\t\t\n      PUSH [tag] 181\t\t\t\n      JUMP \t\t\t\n    tag 324\t\t\t\n      JUMPDEST \t\t\t\n      SWAP2 \t\t\t\n      POP \t\t\t\n      POP \t\t\t\n      DUP1 \t\t\t\n      SWAP2 \t\t\t\n      POP \t\t\t\n      POP \t\t\t\n      SWAP3 \t\t\t\n      SWAP2 \t\t\t\n      POP \t\t\t\n      POP \t\t\t\n      JUMP \t\t\t\n    tag 183\t\t\t\n      JUMPDEST \t\t\t\n      PUSH 0\t\t\t\n      PUSH [tag] 326\t\t\t\n      DUP4 \t\t\t\n      DUP4 \t\t\t\n      PUSH [tag] 182\t\t\t\n      JUMP \t\t\t\n    tag 326\t\t\t\n      JUMPDEST \t\t\t\n      SWAP1 \t\t\t\n      POP \t\t\t\n      SWAP3 \t\t\t\n      SWAP2 \t\t\t\n      POP \t\t\t\n      POP \t\t\t\n      JUMP \t\t\t\n    tag 184\t\t\t\n      JUMPDEST \t\t\t\n      PUSH 0\t\t\t\n      PUSH 20\t\t\t\n      DUP3 \t\t\t\n      ADD \t\t\t\n      SWAP1 \t\t\t\n      POP \t\t\t\n      SWAP2 \t\t\t\n      SWAP1 \t\t\t\n      POP \t\t\t\n      JUMP \t\t\t\n    tag 185\t\t\t\n      JUMPDEST \t\t\t\n      PUSH 0\t\t\t\n      PUSH [tag] 329\t\t\t\n      DUP3 \t\t\t\n      PUSH [tag] 173\t\t\t\n      JUMP \t\t\t\n    tag 329\t\t\t\n      JUMPDEST \t\t\t\n      PUSH [tag] 330\t\t\t\n      DUP2 \t\t\t\n      DUP6 \t\t\t\n      PUSH [tag] 174\t\t\t\n      JUMP \t\t\t\n    tag 330\t\t\t\n      JUMPDEST \t\t\t\n      SWAP4 \t\t\t\n      POP \t\t\t\n      DUP4 \t\t\t\n      PUSH 20\t\t\t\n      DUP3 \t\t\t\n      MUL \t\t\t\n      DUP6 \t\t\t\n      ADD \t\t\t\n      PUSH [tag] 331\t\t\t\n      DUP6 \t\t\t\n      PUSH [tag] 175\t\t\t\n      JUMP \t\t\t\n    tag 331\t\t\t\n      JUMPDEST \t\t\t\n      DUP1 \t\t\t\n      PUSH 0\t\t\t\n    tag 332\t\t\t\n      JUMPDEST \t\t\t\n      DUP6 \t\t\t\n      DUP2 \t\t\t\n      LT \t\t\t\n      ISZERO \t\t\t\n      PUSH [tag] 334\t\t\t\n      JUMPI \t\t\t\n      DUP5 \t\t\t\n      DUP5 \t\t\t\n      SUB \t\t\t\n      DUP10 \t\t\t\n      MSTORE \t\t\t\n      DUP2 \t\t\t\n      MLOAD \t\t\t\n      PUSH [tag] 335\t\t\t\n      DUP6 \t\t\t\n      DUP3 \t\t\t\n      PUSH [tag] 183\t\t\t\n      JUMP \t\t\t\n    tag 335\t\t\t\n      JUMPDEST \t\t\t\n      SWAP5 \t\t\t\n      POP \t\t\t\n      PUSH [tag] 336\t\t\t\n      DUP4 \t\t\t\n      PUSH [tag] 184\t\t\t\n      JUMP \t\t\t\n    tag 336\t\t\t\n      JUMPDEST \t\t\t\n      SWAP3 \t\t\t\n      POP \t\t\t\n      PUSH 20\t\t\t\n      DUP11 \t\t\t\n      ADD \t\t\t\n      SWAP10 \t\t\t\n      POP \t\t\t\n      POP \t\t\t\n      PUSH 1\t\t\t\n      DUP2 \t\t\t\n      ADD \t\t\t\n      SWAP1 \t\t\t\n      POP \t\t\t\n      PUSH [tag] 332\t\t\t\n      JUMP \t\t\t\n    tag 334\t\t\t\n      JUMPDEST \t\t\t\n      POP \t\t\t\n      DUP3 \t\t\t\n      SWAP8 \t\t\t\n      POP \t\t\t\n      DUP8 \t\t\t\n      SWAP6 \t\t\t\n      POP \t\t\t\n      POP \t\t\t\n      POP \t\t\t\n      POP \t\t\t\n      POP \t\t\t\n      POP \t\t\t\n      SWAP3 \t\t\t\n      SWAP2 \t\t\t\n      POP \t\t\t\n      POP \t\t\t\n      JUMP \t\t\t\n    tag 29\t\t\t\n      JUMPDEST \t\t\t\n      PUSH 0\t\t\t\n      PUSH 20\t\t\t\n      DUP3 \t\t\t\n      ADD \t\t\t\n      SWAP1 \t\t\t\n      POP \t\t\t\n      DUP2 \t\t\t\n      DUP2 \t\t\t\n      SUB \t\t\t\n      PUSH 0\t\t\t\n      DUP4 \t\t\t\n      ADD \t\t\t\n      MSTORE \t\t\t\n      PUSH [tag] 338\t\t\t\n      DUP2 \t\t\t\n      DUP5 \t\t\t\n      PUSH [tag] 185\t\t\t\n      JUMP \t\t\t\n    tag 338\t\t\t\n      JUMPDEST \t\t\t\n      SWAP1 \t\t\t\n      POP \t\t\t\n      SWAP3 \t\t\t\n      SWAP2 \t\t\t\n      POP \t\t\t\n      POP \t\t\t\n      JUMP \t\t\t\n    tag 32\t\t\t\n      JUMPDEST \t\t\t\n      PUSH 0\t\t\t\n      DUP1 \t\t\t\n      PUSH 40\t\t\t\n      DUP4 \t\t\t\n      DUP6 \t\t\t\n      SUB \t\t\t\n      SLT \t\t\t\n      ISZERO \t\t\t\n      PUSH [tag] 340\t\t\t\n      JUMPI \t\t\t\n      PUSH [tag] 341\t\t\t\n      PUSH [tag] 149\t\t\t\n      JUMP \t\t\t\n    tag 341\t\t\t\n      JUMPDEST \t\t\t\n    tag 340\t\t\t\n      JUMPDEST \t\t\t\n      PUSH 0\t\t\t\n      DUP4 \t\t\t\n      ADD \t\t\t\n      CALLDATALOAD \t\t\t\n      PUSH FFFFFFFFFFFFFFFF\t\t\t\n      DUP2 \t\t\t\n      GT \t\t\t\n      ISZERO \t\t\t\n      PUSH [tag] 342\t\t\t\n      JUMPI \t\t\t\n      PUSH [tag] 343\t\t\t\n      PUSH [tag] 150\t\t\t\n      JUMP \t\t\t\n    tag 343\t\t\t\n      JUMPDEST \t\t\t\n    tag 342\t\t\t\n      JUMPDEST \t\t\t\n      PUSH [tag] 344\t\t\t\n      DUP6 \t\t\t\n      DUP3 \t\t\t\n      DUP7 \t\t\t\n      ADD \t\t\t\n      PUSH [tag] 167\t\t\t\n      JUMP \t\t\t\n    tag 344\t\t\t\n      JUMPDEST \t\t\t\n      SWAP3 \t\t\t\n      POP \t\t\t\n      POP \t\t\t\n      PUSH 20\t\t\t\n      DUP4 \t\t\t\n      ADD \t\t\t\n      CALLDATALOAD \t\t\t\n      PUSH FFFFFFFFFFFFFFFF\t\t\t\n      DUP2 \t\t\t\n      GT \t\t\t\n      ISZERO \t\t\t\n      PUSH [tag] 345\t\t\t\n      JUMPI \t\t\t\n      PUSH [tag] 346\t\t\t\n      PUSH [tag] 150\t\t\t\n      JUMP \t\t\t\n    tag 346\t\t\t\n      JUMPDEST \t\t\t\n    tag 345\t\t\t\n      JUMPDEST \t\t\t\n      PUSH [tag] 347\t\t\t\n      DUP6 \t\t\t\n      DUP3 \t\t\t\n      DUP7 \t\t\t\n      ADD \t\t\t\n      PUSH [tag] 167\t\t\t\n      JUMP \t\t\t\n    tag 347\t\t\t\n      JUMPDEST \t\t\t\n      SWAP2 \t\t\t\n      POP \t\t\t\n      POP \t\t\t\n      SWAP3 \t\t\t\n      POP \t\t\t\n      SWAP3 \t\t\t\n      SWAP1 \t\t\t\n      POP \t\t\t\n      JUMP \t\t\t\n    tag 186\t\t\t\n      JUMPDEST \t\t\t\n      PUSH 0\t\t\t\n      DUP3 \t\t\t\n      DUP3 \t\t\t\n      MSTORE \t\t\t\n      PUSH 20\t\t\t\n      DUP3 \t\t\t\n      ADD \t\t\t\n      SWAP1 \t\t\t\n      POP \t\t\t\n      SWAP3 \t\t\t\n      SWAP2 \t\t\t\n      POP \t\t\t\n      POP \t\t\t\n      JUMP \t\t\t\n    tag 187\t\t\t\n      JUMPDEST \t\t\t\n      PUSH 0\t\t\t\n      PUSH [tag] 350\t\t\t\n      DUP3 \t\t\t\n      PUSH [tag] 178\t\t\t\n      JUMP \t\t\t\n    tag 350\t\t\t\n      JUMPDEST \t\t\t\n      PUSH [tag] 351\t\t\t\n      DUP2 \t\t\t\n      DUP6 \t\t\t\n      PUSH [tag] 186\t\t\t\n      JUMP \t\t\t\n    tag 351\t\t\t\n      JUMPDEST \t\t\t\n      SWAP4 \t\t\t\n      POP \t\t\t\n      PUSH [tag] 352\t\t\t\n      DUP2 \t\t\t\n      DUP6 \t\t\t\n      PUSH 20\t\t\t\n      DUP7 \t\t\t\n      ADD \t\t\t\n      PUSH [tag] 180\t\t\t\n      JUMP \t\t\t\n    tag 352\t\t\t\n      JUMPDEST \t\t\t\n      PUSH [tag] 353\t\t\t\n      DUP2 \t\t\t\n      PUSH [tag] 160\t\t\t\n      JUMP \t\t\t\n    tag 353\t\t\t\n      JUMPDEST \t\t\t\n      DUP5 \t\t\t\n      ADD \t\t\t\n      SWAP2 \t\t\t\n      POP \t\t\t\n      POP \t\t\t\n      SWAP3 \t\t\t\n      SWAP2 \t\t\t\n      POP \t\t\t\n      POP \t\t\t\n      JUMP \t\t\t\n    tag 188\t\t\t\n      JUMPDEST \t\t\t\n      PUSH [tag] 355\t\t\t\n      DUP2 \t\t\t\n      PUSH [tag] 155\t\t\t\n      JUMP \t\t\t\n    tag 355\t\t\t\n      JUMPDEST \t\t\t\n      DUP3 \t\t\t\n      MSTORE \t\t\t\n      POP \t\t\t\n      POP \t\t\t\n      JUMP \t\t\t\n    tag 38\t\t\t\n      JUMPDEST \t\t\t\n      PUSH 0\t\t\t\n      PUSH 80\t\t\t\n      DUP3 \t\t\t\n      ADD \t\t\t\n      SWAP1 \t\t\t\n      POP \t\t\t\n      DUP2 \t\t\t\n      DUP2 \t\t\t\n      SUB \t\t\t\n      PUSH 0\t\t\t\n      DUP4 \t\t\t\n      ADD \t\t\t\n      MSTORE \t\t\t\n      PUSH [tag] 357\t\t\t\n      DUP2 \t\t\t\n      DUP8 \t\t\t\n      PUSH [tag] 187\t\t\t\n      JUMP \t\t\t\n    tag 357\t\t\t\n      JUMPDEST \t\t\t\n      SWAP1 \t\t\t\n      POP \t\t\t\n      DUP2 \t\t\t\n      DUP2 \t\t\t\n      SUB \t\t\t\n      PUSH 20\t\t\t\n      DUP4 \t\t\t\n      ADD \t\t\t\n      MSTORE \t\t\t\n      PUSH [tag] 358\t\t\t\n      DUP2 \t\t\t\n      DUP7 \t\t\t\n      PUSH [tag] 187\t\t\t\n      JUMP \t\t\t\n    tag 358\t\t\t\n      JUMPDEST \t\t\t\n      SWAP1 \t\t\t\n      POP \t\t\t\n      PUSH [tag] 359\t\t\t\n      PUSH 40\t\t\t\n      DUP4 \t\t\t\n      ADD \t\t\t\n      DUP6 \t\t\t\n      PUSH [tag] 188\t\t\t\n      JUMP \t\t\t\n    tag 359\t\t\t\n      JUMPDEST \t\t\t\n      PUSH [tag] 360\t\t\t\n      PUSH 60\t\t\t\n      DUP4 \t\t\t\n      ADD \t\t\t\n      DUP5 \t\t\t\n      PUSH [tag] 172\t\t\t\n      JUMP \t\t\t\n    tag 360\t\t\t\n      JUMPDEST \t\t\t\n      SWAP6 \t\t\t\n      SWAP5 \t\t\t\n      POP \t\t\t\n      POP \t\t\t\n      POP \t\t\t\n      POP \t\t\t\n      POP \t\t\t\n      JUMP \t\t\t\n    tag 189\t\t\t\n      JUMPDEST \t\t\t\n      PUSH 596F75206E65656420746F2063726561746520612077696C6C20666972737400\t\t\t\n      PUSH 0\t\t\t\n      DUP3 \t\t\t\n      ADD \t\t\t\n      MSTORE \t\t\t\n      POP \t\t\t\n      JUMP \t\t\t\n    tag 190\t\t\t\n      JUMPDEST \t\t\t\n      PUSH 0\t\t\t\n      PUSH [tag] 363\t\t\t\n      PUSH 1F\t\t\t\n      DUP4 \t\t\t\n      PUSH [tag] 186\t\t\t\n      JUMP \t\t\t\n    tag 363\t\t\t\n      JUMPDEST \t\t\t\n      SWAP2 \t\t\t\n      POP \t\t\t\n      PUSH [tag] 364\t\t\t\n      DUP3 \t\t\t\n      PUSH [tag] 189\t\t\t\n      JUMP \t\t\t\n    tag 364\t\t\t\n      JUMPDEST \t\t\t\n      PUSH 20\t\t\t\n      DUP3 \t\t\t\n      ADD \t\t\t\n      SWAP1 \t\t\t\n      POP \t\t\t\n      SWAP2 \t\t\t\n      SWAP1 \t\t\t\n      POP \t\t\t\n      JUMP \t\t\t\n    tag 46\t\t\t\n      JUMPDEST \t\t\t\n      PUSH 0\t\t\t\n      PUSH 20\t\t\t\n      DUP3 \t\t\t\n      ADD \t\t\t\n      SWAP1 \t\t\t\n      POP \t\t\t\n      DUP2 \t\t\t\n      DUP2 \t\t\t\n      SUB \t\t\t\n      PUSH 0\t\t\t\n      DUP4 \t\t\t\n      ADD \t\t\t\n      MSTORE \t\t\t\n      PUSH [tag] 366\t\t\t\n      DUP2 \t\t\t\n      PUSH [tag] 190\t\t\t\n      JUMP \t\t\t\n    tag 366\t\t\t\n      JUMPDEST \t\t\t\n      SWAP1 \t\t\t\n      POP \t\t\t\n      SWAP2 \t\t\t\n      SWAP1 \t\t\t\n      POP \t\t\t\n      JUMP \t\t\t\n    tag 191\t\t\t\n      JUMPDEST \t\t\t\n      PUSH 496E76616C69642077616C6C6574206164647265737300000000000000000000\t\t\t\n      PUSH 0\t\t\t\n      DUP3 \t\t\t\n      ADD \t\t\t\n      MSTORE \t\t\t\n      POP \t\t\t\n      JUMP \t\t\t\n    tag 192\t\t\t\n      JUMPDEST \t\t\t\n      PUSH 0\t\t\t\n      PUSH [tag] 369\t\t\t\n      PUSH 16\t\t\t\n      DUP4 \t\t\t\n      PUSH [tag] 186\t\t\t\n      JUMP \t\t\t\n    tag 369\t\t\t\n      JUMPDEST \t\t\t\n      SWAP2 \t\t\t\n      POP \t\t\t\n      PUSH [tag] 370\t\t\t\n      DUP3 \t\t\t\n      PUSH [tag] 191\t\t\t\n      JUMP \t\t\t\n    tag 370\t\t\t\n      JUMPDEST \t\t\t\n      PUSH 20\t\t\t\n      DUP3 \t\t\t\n      ADD \t\t\t\n      SWAP1 \t\t\t\n      POP \t\t\t\n      SWAP2 \t\t\t\n      SWAP1 \t\t\t\n      POP \t\t\t\n      JUMP \t\t\t\n    tag 49\t\t\t\n      JUMPDEST \t\t\t\n      PUSH 0\t\t\t\n      PUSH 20\t\t\t\n      DUP3 \t\t\t\n      ADD \t\t\t\n      SWAP1 \t\t\t\n      POP \t\t\t\n      DUP2 \t\t\t\n      DUP2 \t\t\t\n      SUB \t\t\t\n      PUSH 0\t\t\t\n      DUP4 \t\t\t\n      ADD \t\t\t\n      MSTORE \t\t\t\n      PUSH [tag] 372\t\t\t\n      DUP2 \t\t\t\n      PUSH [tag] 192\t\t\t\n      JUMP \t\t\t\n    tag 372\t\t\t\n      JUMPDEST \t\t\t\n      SWAP1 \t\t\t\n      POP \t\t\t\n      SWAP2 \t\t\t\n      SWAP1 \t\t\t\n      POP \t\t\t\n      JUMP \t\t\t\n    tag 193\t\t\t\n      JUMPDEST \t\t\t\n      PUSH 496E76616C69642070657263656E746167650000000000000000000000000000\t\t\t\n      PUSH 0\t\t\t\n      DUP3 \t\t\t\n      ADD \t\t\t\n      MSTORE \t\t\t\n      POP \t\t\t\n      JUMP \t\t\t\n    tag 194\t\t\t\n      JUMPDEST \t\t\t\n      PUSH 0\t\t\t\n      PUSH [tag] 375\t\t\t\n      PUSH 12\t\t\t\n      DUP4 \t\t\t\n      PUSH [tag] 186\t\t\t\n      JUMP \t\t\t\n    tag 375\t\t\t\n      JUMPDEST \t\t\t\n      SWAP2 \t\t\t\n      POP \t\t\t\n      PUSH [tag] 376\t\t\t\n      DUP3 \t\t\t\n      PUSH [tag] 193\t\t\t\n      JUMP \t\t\t\n    tag 376\t\t\t\n      JUMPDEST \t\t\t\n      PUSH 20\t\t\t\n      DUP3 \t\t\t\n      ADD \t\t\t\n      SWAP1 \t\t\t\n      POP \t\t\t\n      SWAP2 \t\t\t\n      SWAP1 \t\t\t\n      POP \t\t\t\n      JUMP \t\t\t\n    tag 53\t\t\t\n      JUMPDEST \t\t\t\n      PUSH 0\t\t\t\n      PUSH 20\t\t\t\n      DUP3 \t\t\t\n      ADD \t\t\t\n      SWAP1 \t\t\t\n      POP \t\t\t\n      DUP2 \t\t\t\n      DUP2 \t\t\t\n      SUB \t\t\t\n      PUSH 0\t\t\t\n      DUP4 \t\t\t\n      ADD \t\t\t\n      MSTORE \t\t\t\n      PUSH [tag] 378\t\t\t\n      DUP2 \t\t\t\n      PUSH [tag] 194\t\t\t\n      JUMP \t\t\t\n    tag 378\t\t\t\n      JUMPDEST \t\t\t\n      SWAP1 \t\t\t\n      POP \t\t\t\n      SWAP2 \t\t\t\n      SWAP1 \t\t\t\n      POP \t\t\t\n      JUMP \t\t\t\n    tag 59\t\t\t\n      JUMPDEST \t\t\t\n      PUSH 4E487B7100000000000000000000000000000000000000000000000000000000\t\t\t\n      PUSH 0\t\t\t\n      MSTORE \t\t\t\n      PUSH 32\t\t\t\n      PUSH 4\t\t\t\n      MSTORE \t\t\t\n      PUSH 24\t\t\t\n      PUSH 0\t\t\t\n      REVERT \t\t\t\n    tag 195\t\t\t\n      JUMPDEST \t\t\t\n      PUSH 4E487B7100000000000000000000000000000000000000000000000000000000\t\t\t\n      PUSH 0\t\t\t\n      MSTORE \t\t\t\n      PUSH 11\t\t\t\n      PUSH 4\t\t\t\n      MSTORE \t\t\t\n      PUSH 24\t\t\t\n      PUSH 0\t\t\t\n      REVERT \t\t\t\n    tag 62\t\t\t\n      JUMPDEST \t\t\t\n      PUSH 0\t\t\t\n      PUSH [tag] 382\t\t\t\n      DUP3 \t\t\t\n      PUSH [tag] 155\t\t\t\n      JUMP \t\t\t\n    tag 382\t\t\t\n      JUMPDEST \t\t\t\n      SWAP2 \t\t\t\n      POP \t\t\t\n      PUSH [tag] 383\t\t\t\n      DUP4 \t\t\t\n      PUSH [tag] 155\t\t\t\n      JUMP \t\t\t\n    tag 383\t\t\t\n      JUMPDEST \t\t\t\n      SWAP3 \t\t\t\n      POP \t\t\t\n      DUP3 \t\t\t\n      DUP3 \t\t\t\n      ADD \t\t\t\n      SWAP1 \t\t\t\n      POP \t\t\t\n      DUP1 \t\t\t\n      DUP3 \t\t\t\n      GT \t\t\t\n      ISZERO \t\t\t\n      PUSH [tag] 384\t\t\t\n      JUMPI \t\t\t\n      PUSH [tag] 385\t\t\t\n      PUSH [tag] 195\t\t\t\n      JUMP \t\t\t\n    tag 385\t\t\t\n      JUMPDEST \t\t\t\n    tag 384\t\t\t\n      JUMPDEST \t\t\t\n      SWAP3 \t\t\t\n      SWAP2 \t\t\t\n      POP \t\t\t\n      POP \t\t\t\n      JUMP \t\t\t\n    tag 196\t\t\t\n      JUMPDEST \t\t\t\n      PUSH 546F74616C20616C6C6F636174696F6E20657863656564732031303025000000\t\t\t\n      PUSH 0\t\t\t\n      DUP3 \t\t\t\n      ADD \t\t\t\n      MSTORE \t\t\t\n      POP \t\t\t\n      JUMP \t\t\t\n    tag 197\t\t\t\n      JUMPDEST \t\t\t\n      PUSH 0\t\t\t\n      PUSH [tag] 388\t\t\t\n      PUSH 1D\t\t\t\n      DUP4 \t\t\t\n      PUSH [tag] 186\t\t\t\n      JUMP \t\t\t\n    tag 388\t\t\t\n      JUMPDEST \t\t\t\n      SWAP2 \t\t\t\n      POP \t\t\t\n      PUSH [tag] 389\t\t\t\n      DUP3 \t\t\t\n      PUSH [tag] 196\t\t\t\n      JUMP \t\t\t\n    tag 389\t\t\t\n      JUMPDEST \t\t\t\n      PUSH 20\t\t\t\n      DUP3 \t\t\t\n      ADD \t\t\t\n      SWAP1 \t\t\t\n      POP \t\t\t\n      SWAP2 \t\t\t\n      SWAP1 \t\t\t\n      POP \t\t\t\n      JUMP \t\t\t\n    tag 66\t\t\t\n      JUMPDEST \t\t\t\n      PUSH 0\t\t\t\n      PUSH 20\t\t\t\n      DUP3 \t\t\t\n      ADD \t\t\t\n      SWAP1 \t\t\t\n      POP \t\t\t\n      DUP2 \t\t\t\n      DUP2 \t\t\t\n      SUB \t\t\t\n      PUSH 0\t\t\t\n      DUP4 \t\t\t\n      ADD \t\t\t\n      MSTORE \t\t\t\n      PUSH [tag] 391\t\t\t\n      DUP2 \t\t\t\n      PUSH [tag] 197\t\t\t\n      JUMP \t\t\t\n    tag 391\t\t\t\n      JUMPDEST \t\t\t\n      SWAP1 \t\t\t\n      POP \t\t\t\n      SWAP2 \t\t\t\n      SWAP1 \t\t\t\n      POP \t\t\t\n      JUMP \t\t\t\n    tag 198\t\t\t\n      JUMPDEST \t\t\t\n      PUSH 4E487B7100000000000000000000000000000000000000000000000000000000\t\t\t\n      PUSH 0\t\t\t\n      MSTORE \t\t\t\n      PUSH 22\t\t\t\n      PUSH 4\t\t\t\n      MSTORE \t\t\t\n      PUSH 24\t\t\t\n      PUSH 0\t\t\t\n      REVERT \t\t\t\n    tag 88\t\t\t\n      JUMPDEST \t\t\t\n      PUSH 0\t\t\t\n      PUSH 2\t\t\t\n      DUP3 \t\t\t\n      DIV \t\t\t\n      SWAP1 \t\t\t\n      POP \t\t\t\n      PUSH 1\t\t\t\n      DUP3 \t\t\t\n      AND \t\t\t\n      DUP1 \t\t\t\n      PUSH [tag] 394\t\t\t\n      JUMPI \t\t\t\n      PUSH 7F\t\t\t\n      DUP3 \t\t\t\n      AND \t\t\t\n      SWAP2 \t\t\t\n      POP \t\t\t\n    tag 394\t\t\t\n      JUMPDEST \t\t\t\n      PUSH 20\t\t\t\n      DUP3 \t\t\t\n      LT \t\t\t\n      DUP2 \t\t\t\n      SUB \t\t\t\n      PUSH [tag] 395\t\t\t\n      JUMPI \t\t\t\n      PUSH [tag] 396\t\t\t\n      PUSH [tag] 198\t\t\t\n      JUMP \t\t\t\n    tag 396\t\t\t\n      JUMPDEST \t\t\t\n    tag 395\t\t\t\n      JUMPDEST \t\t\t\n      POP \t\t\t\n      SWAP2 \t\t\t\n      SWAP1 \t\t\t\n      POP \t\t\t\n      JUMP \t\t\t\n    tag 199\t\t\t\n      JUMPDEST \t\t\t\n      PUSH 0\t\t\t\n      DUP2 \t\t\t\n      SWAP1 \t\t\t\n      POP \t\t\t\n      DUP2 \t\t\t\n      PUSH 0\t\t\t\n      MSTORE \t\t\t\n      PUSH 20\t\t\t\n      PUSH 0\t\t\t\n      KECCAK256 \t\t\t\n      SWAP1 \t\t\t\n      POP \t\t\t\n      SWAP2 \t\t\t\n      SWAP1 \t\t\t\n      POP \t\t\t\n      JUMP \t\t\t\n    tag 200\t\t\t\n      JUMPDEST \t\t\t\n      PUSH 0\t\t\t\n      PUSH 20\t\t\t\n      PUSH 1F\t\t\t\n      DUP4 \t\t\t\n      ADD \t\t\t\n      DIV \t\t\t\n      SWAP1 \t\t\t\n      POP \t\t\t\n      SWAP2 \t\t\t\n      SWAP1 \t\t\t\n      POP \t\t\t\n      JUMP \t\t\t\n    tag 201\t\t\t\n      JUMPDEST \t\t\t\n      PUSH 0\t\t\t\n      DUP3 \t\t\t\n      DUP3 \t\t\t\n      SHL \t\t\t\n      SWAP1 \t\t\t\n      POP \t\t\t\n      SWAP3 \t\t\t\n      SWAP2 \t\t\t\n      POP \t\t\t\n      POP \t\t\t\n      JUMP \t\t\t\n    tag 202\t\t\t\n      JUMPDEST \t\t\t\n      PUSH 0\t\t\t\n      PUSH 8\t\t\t\n      DUP4 \t\t\t\n      MUL \t\t\t\n      PUSH [tag] 401\t\t\t\n      PUSH FFFFFFFFFFFFFFFFFFFFFFFFFFFFFFFFFFFFFFFFFFFFFFFFFFFFFFFFFFFFFFFF\t\t\t\n      DUP3 \t\t\t\n      PUSH [tag] 201\t\t\t\n      JUMP \t\t\t\n    tag 401\t\t\t\n      JUMPDEST \t\t\t\n      PUSH [tag] 402\t\t\t\n      DUP7 \t\t\t\n      DUP4 \t\t\t\n      PUSH [tag] 201\t\t\t\n      JUMP \t\t\t\n    tag 402\t\t\t\n      JUMPDEST \t\t\t\n      SWAP6 \t\t\t\n      POP \t\t\t\n      DUP1 \t\t\t\n      NOT \t\t\t\n      DUP5 \t\t\t\n      AND \t\t\t\n      SWAP4 \t\t\t\n      POP \t\t\t\n      DUP1 \t\t\t\n      DUP7 \t\t\t\n      AND \t\t\t\n      DUP5 \t\t\t\n      OR \t\t\t\n      SWAP3 \t\t\t\n      POP \t\t\t\n      POP \t\t\t\n      POP \t\t\t\n      SWAP4 \t\t\t\n      SWAP3 \t\t\t\n      POP \t\t\t\n      POP \t\t\t\n      POP \t\t\t\n      JUMP \t\t\t\n    tag 203\t\t\t\n      JUMPDEST \t\t\t\n      PUSH 0\t\t\t\n      DUP2 \t\t\t\n      SWAP1 \t\t\t\n      POP \t\t\t\n      SWAP2 \t\t\t\n      SWAP1 \t\t\t\n      POP \t\t\t\n      JUMP \t\t\t\n    tag 204\t\t\t\n      JUMPDEST \t\t\t\n      PUSH 0\t\t\t\n      PUSH [tag] 405\t\t\t\n      PUSH [tag] 406\t\t\t\n      PUSH [tag] 407\t\t\t\n      DUP5 \t\t\t\n      PUSH [tag] 155\t\t\t\n      JUMP \t\t\t\n    tag 407\t\t\t\n      JUMPDEST \t\t\t\n      PUSH [tag] 203\t\t\t\n      JUMP \t\t\t\n    tag 406\t\t\t\n      JUMPDEST \t\t\t\n      PUSH [tag] 155\t\t\t\n      JUMP \t\t\t\n    tag 405\t\t\t\n      JUMPDEST \t\t\t\n      SWAP1 \t\t\t\n      POP \t\t\t\n      SWAP2 \t\t\t\n      SWAP1 \t\t\t\n      POP \t\t\t\n      JUMP \t\t\t\n    tag 205\t\t\t\n      JUMPDEST \t\t\t\n      PUSH 0\t\t\t\n      DUP2 \t\t\t\n      SWAP1 \t\t\t\n      POP \t\t\t\n      SWAP2 \t\t\t\n      SWAP1 \t\t\t\n      POP \t\t\t\n      JUMP \t\t\t\n    tag 206\t\t\t\n      JUMPDEST \t\t\t\n      PUSH [tag] 410\t\t\t\n      DUP4 \t\t\t\n      PUSH [tag] 204\t\t\t\n      JUMP \t\t\t\n    tag 410\t\t\t\n      JUMPDEST \t\t\t\n      PUSH [tag] 411\t\t\t\n      PUSH [tag] 412\t\t\t\n      DUP3 \t\t\t\n      PUSH [tag] 205\t\t\t\n      JUMP \t\t\t\n    tag 412\t\t\t\n      JUMPDEST \t\t\t\n      DUP5 \t\t\t\n      DUP5 \t\t\t\n      SLOAD \t\t\t\n      PUSH [tag] 202\t\t\t\n      JUMP \t\t\t\n    tag 411\t\t\t\n      JUMPDEST \t\t\t\n      DUP3 \t\t\t\n      SSTORE \t\t\t\n      POP \t\t\t\n      POP \t\t\t\n      POP \t\t\t\n      POP \t\t\t\n      JUMP \t\t\t\n    tag 207\t\t\t\n      JUMPDEST \t\t\t\n      PUSH 0\t\t\t\n      SWAP1 \t\t\t\n      JUMP \t\t\t\n    tag 208\t\t\t\n      JUMPDEST \t\t\t\n      PUSH [tag] 415\t\t\t\n      PUSH [tag] 207\t\t\t\n      JUMP \t\t\t\n    tag 415\t\t\t\n      JUMPDEST \t\t\t\n      PUSH [tag] 416\t\t\t\n      DUP2 \t\t\t\n      DUP5 \t\t\t\n      DUP5 \t\t\t\n      PUSH [tag] 206\t\t\t\n      JUMP \t\t\t\n    tag 416\t\t\t\n      JUMPDEST \t\t\t\n      POP \t\t\t\n      POP \t\t\t\n      POP \t\t\t\n      JUMP \t\t\t\n    tag 209\t\t\t\n      JUMPDEST \t\t\t\n    tag 418\t\t\t\n      JUMPDEST \t\t\t\n      DUP2 \t\t\t\n      DUP2 \t\t\t\n      LT \t\t\t\n      ISZERO \t\t\t\n      PUSH [tag] 420\t\t\t\n      JUMPI \t\t\t\n      PUSH [tag] 421\t\t\t\n      PUSH 0\t\t\t\n      DUP3 \t\t\t\n      PUSH [tag] 208\t\t\t\n      JUMP \t\t\t\n    tag 421\t\t\t\n      JUMPDEST \t\t\t\n      PUSH 1\t\t\t\n      DUP2 \t\t\t\n      ADD \t\t\t\n      SWAP1 \t\t\t\n      POP \t\t\t\n      PUSH [tag] 418\t\t\t\n      JUMP \t\t\t\n    tag 420\t\t\t\n      JUMPDEST \t\t\t\n      POP \t\t\t\n      POP \t\t\t\n      JUMP \t\t\t\n    tag 210\t\t\t\n      JUMPDEST \t\t\t\n      PUSH 1F\t\t\t\n      DUP3 \t\t\t\n      GT \t\t\t\n      ISZERO \t\t\t\n      PUSH [tag] 423\t\t\t\n      JUMPI \t\t\t\n      PUSH [tag] 424\t\t\t\n      DUP2 \t\t\t\n      PUSH [tag] 199\t\t\t\n      JUMP \t\t\t\n    tag 424\t\t\t\n      JUMPDEST \t\t\t\n      PUSH [tag] 425\t\t\t\n      DUP5 \t\t\t\n      PUSH [tag] 200\t\t\t\n      JUMP \t\t\t\n    tag 425\t\t\t\n      JUMPDEST \t\t\t\n      DUP2 \t\t\t\n      ADD \t\t\t\n      PUSH 20\t\t\t\n      DUP6 \t\t\t\n      LT \t\t\t\n      ISZERO \t\t\t\n      PUSH [tag] 426\t\t\t\n      JUMPI \t\t\t\n      DUP2 \t\t\t\n      SWAP1 \t\t\t\n      POP \t\t\t\n    tag 426\t\t\t\n      JUMPDEST \t\t\t\n      PUSH [tag] 427\t\t\t\n      PUSH [tag] 428\t\t\t\n      DUP6 \t\t\t\n      PUSH [tag] 200\t\t\t\n      JUMP \t\t\t\n    tag 428\t\t\t\n      JUMPDEST \t\t\t\n      DUP4 \t\t\t\n      ADD \t\t\t\n      DUP3 \t\t\t\n      PUSH [tag] 209\t\t\t\n      JUMP \t\t\t\n    tag 427\t\t\t\n      JUMPDEST \t\t\t\n      POP \t\t\t\n      POP \t\t\t\n    tag 423\t\t\t\n      JUMPDEST \t\t\t\n      POP \t\t\t\n      POP \t\t\t\n      POP \t\t\t\n      JUMP \t\t\t\n    tag 211\t\t\t\n      JUMPDEST \t\t\t\n      PUSH 0\t\t\t\n      DUP3 \t\t\t\n      DUP3 \t\t\t\n      SHR \t\t\t\n      SWAP1 \t\t\t\n      POP \t\t\t\n      SWAP3 \t\t\t\n      SWAP2 \t\t\t\n      POP \t\t\t\n      POP \t\t\t\n      JUMP \t\t\t\n    tag 212\t\t\t\n      JUMPDEST \t\t\t\n      PUSH 0\t\t\t\n      PUSH [tag] 431\t\t\t\n      PUSH 0\t\t\t\n      NOT \t\t\t\n      DUP5 \t\t\t\n      PUSH 8\t\t\t\n      MUL \t\t\t\n      PUSH [tag] 211\t\t\t\n      JUMP \t\t\t\n    tag 431\t\t\t\n      JUMPDEST \t\t\t\n      NOT \t\t\t\n      DUP1 \t\t\t\n      DUP4 \t\t\t\n      AND \t\t\t\n      SWAP2 \t\t\t\n      POP \t\t\t\n      POP \t\t\t\n      SWAP3 \t\t\t\n      SWAP2 \t\t\t\n      POP \t\t\t\n      POP \t\t\t\n      JUMP \t\t\t\n    tag 213\t\t\t\n      JUMPDEST \t\t\t\n      PUSH 0\t\t\t\n      PUSH [tag] 433\t\t\t\n      DUP4 \t\t\t\n      DUP4 \t\t\t\n      PUSH [tag] 212\t\t\t\n      JUMP \t\t\t\n    tag 433\t\t\t\n      JUMPDEST \t\t\t\n      SWAP2 \t\t\t\n      POP \t\t\t\n      DUP3 \t\t\t\n      PUSH 2\t\t\t\n      MUL \t\t\t\n      DUP3 \t\t\t\n      OR \t\t\t\n      SWAP1 \t\t\t\n      POP \t\t\t\n      SWAP3 \t\t\t\n      SWAP2 \t\t\t\n      POP \t\t\t\n      POP \t\t\t\n      JUMP \t\t\t\n    tag 69\t\t\t\n      JUMPDEST \t\t\t\n      PUSH [tag] 435\t\t\t\n      DUP3 \t\t\t\n      PUSH [tag] 178\t\t\t\n      JUMP \t\t\t\n    tag 435\t\t\t\n      JUMPDEST \t\t\t\n      PUSH FFFFFFFFFFFFFFFF\t\t\t\n      DUP2 \t\t\t\n      GT \t\t\t\n      ISZERO \t\t\t\n      PUSH [tag] 436\t\t\t\n      JUMPI \t\t\t\n      PUSH [tag] 437\t\t\t\n      PUSH [tag] 161\t\t\t\n      JUMP \t\t\t\n    tag 437\t\t\t\n      JUMPDEST \t\t\t\n    tag 436\t\t\t\n      JUMPDEST \t\t\t\n      PUSH [tag] 438\t\t\t\n      DUP3 \t\t\t\n      SLOAD \t\t\t\n      PUSH [tag] 88\t\t\t\n      JUMP \t\t\t\n    tag 438\t\t\t\n      JUMPDEST \t\t\t\n      PUSH [tag] 439\t\t\t\n      DUP3 \t\t\t\n      DUP3 \t\t\t\n      DUP6 \t\t\t\n      PUSH [tag] 210\t\t\t\n      JUMP \t\t\t\n    tag 439\t\t\t\n      JUMPDEST \t\t\t\n      PUSH 0\t\t\t\n      PUSH 20\t\t\t\n      SWAP1 \t\t\t\n      POP \t\t\t\n      PUSH 1F\t\t\t\n      DUP4 \t\t\t\n      GT \t\t\t\n      PUSH 1\t\t\t\n      DUP2 \t\t\t\n      EQ \t\t\t\n      PUSH [tag] 441\t\t\t\n      JUMPI \t\t\t\n      PUSH 0\t\t\t\n      DUP5 \t\t\t\n      ISZERO \t\t\t\n      PUSH [tag] 442\t\t\t\n      JUMPI \t\t\t\n      DUP3 \t\t\t\n      DUP8 \t\t\t\n      ADD \t\t\t\n      MLOAD \t\t\t\n      SWAP1 \t\t\t\n      POP \t\t\t\n    tag 442\t\t\t\n      JUMPDEST \t\t\t\n      PUSH [tag] 443\t\t\t\n      DUP6 \t\t\t\n      DUP3 \t\t\t\n      PUSH [tag] 213\t\t\t\n      JUMP \t\t\t\n    tag 443\t\t\t\n      JUMPDEST \t\t\t\n      DUP7 \t\t\t\n      SSTORE \t\t\t\n      POP \t\t\t\n      PUSH [tag] 440\t\t\t\n      JUMP \t\t\t\n    tag 441\t\t\t\n      JUMPDEST \t\t\t\n      PUSH 1F\t\t\t\n      NOT \t\t\t\n      DUP5 \t\t\t\n      AND \t\t\t\n      PUSH [tag] 444\t\t\t\n      DUP7 \t\t\t\n      PUSH [tag] 199\t\t\t\n      JUMP \t\t\t\n    tag 444\t\t\t\n      JUMPDEST \t\t\t\n      PUSH 0\t\t\t\n    tag 445\t\t\t\n      JUMPDEST \t\t\t\n      DUP3 \t\t\t\n      DUP2 \t\t\t\n      LT \t\t\t\n      ISZERO \t\t\t\n      PUSH [tag] 447\t\t\t\n      JUMPI \t\t\t\n      DUP5 \t\t\t\n      DUP10 \t\t\t\n      ADD \t\t\t\n      MLOAD \t\t\t\n      DUP3 \t\t\t\n      SSTORE \t\t\t\n      PUSH 1\t\t\t\n      DUP3 \t\t\t\n      ADD \t\t\t\n      SWAP2 \t\t\t\n      POP \t\t\t\n      PUSH 20\t\t\t\n      DUP6 \t\t\t\n      ADD \t\t\t\n      SWAP5 \t\t\t\n      POP \t\t\t\n      PUSH 20\t\t\t\n      DUP2 \t\t\t\n      ADD \t\t\t\n      SWAP1 \t\t\t\n      POP \t\t\t\n      PUSH [tag] 445\t\t\t\n      JUMP \t\t\t\n    tag 447\t\t\t\n      JUMPDEST \t\t\t\n      DUP7 \t\t\t\n      DUP4 \t\t\t\n      LT \t\t\t\n      ISZERO \t\t\t\n      PUSH [tag] 448\t\t\t\n      JUMPI \t\t\t\n      DUP5 \t\t\t\n      DUP10 \t\t\t\n      ADD \t\t\t\n      MLOAD \t\t\t\n      PUSH [tag] 449\t\t\t\n      PUSH 1F\t\t\t\n      DUP10 \t\t\t\n      AND \t\t\t\n      DUP3 \t\t\t\n      PUSH [tag] 212\t\t\t\n      JUMP \t\t\t\n    tag 449\t\t\t\n      JUMPDEST \t\t\t\n      DUP4 \t\t\t\n      SSTORE \t\t\t\n      POP \t\t\t\n    tag 448\t\t\t\n      JUMPDEST \t\t\t\n      PUSH 1\t\t\t\n      PUSH 2\t\t\t\n      DUP9 \t\t\t\n      MUL \t\t\t\n      ADD \t\t\t\n      DUP9 \t\t\t\n      SSTORE \t\t\t\n      POP \t\t\t\n      POP \t\t\t\n      POP \t\t\t\n    tag 440\t\t\t\n      JUMPDEST \t\t\t\n      POP \t\t\t\n      POP \t\t\t\n      POP \t\t\t\n      POP \t\t\t\n      POP \t\t\t\n      POP \t\t\t\n      JUMP \t\t\t\n    tag 214\t\t\t\n      JUMPDEST \t\t\t\n      PUSH 0\t\t\t\n      PUSH [tag] 451\t\t\t\n      PUSH [tag] 452\t\t\t\n      PUSH [tag] 453\t\t\t\n      DUP5 \t\t\t\n      PUSH [tag] 151\t\t\t\n      JUMP \t\t\t\n    tag 453\t\t\t\n      JUMPDEST \t\t\t\n      PUSH [tag] 203\t\t\t\n      JUMP \t\t\t\n    tag 452\t\t\t\n      JUMPDEST \t\t\t\n      PUSH [tag] 151\t\t\t\n      JUMP \t\t\t\n    tag 451\t\t\t\n      JUMPDEST \t\t\t\n      SWAP1 \t\t\t\n      POP \t\t\t\n      SWAP2 \t\t\t\n      SWAP1 \t\t\t\n      POP \t\t\t\n      JUMP \t\t\t\n    tag 215\t\t\t\n      JUMPDEST \t\t\t\n      PUSH 0\t\t\t\n      PUSH [tag] 455\t\t\t\n      DUP3 \t\t\t\n      PUSH [tag] 214\t\t\t\n      JUMP \t\t\t\n    tag 455\t\t\t\n      JUMPDEST \t\t\t\n      SWAP1 \t\t\t\n      POP \t\t\t\n      SWAP2 \t\t\t\n      SWAP1 \t\t\t\n      POP \t\t\t\n      JUMP \t\t\t\n    tag 216\t\t\t\n      JUMPDEST \t\t\t\n      PUSH 0\t\t\t\n      PUSH [tag] 457\t\t\t\n      DUP3 \t\t\t\n      PUSH [tag] 215\t\t\t\n      JUMP \t\t\t\n    tag 457\t\t\t\n      JUMPDEST \t\t\t\n      SWAP1 \t\t\t\n      POP \t\t\t\n      SWAP2 \t\t\t\n      SWAP1 \t\t\t\n      POP \t\t\t\n      JUMP \t\t\t\n    tag 217\t\t\t\n      JUMPDEST \t\t\t\n      PUSH [tag] 459\t\t\t\n      DUP2 \t\t\t\n      PUSH [tag] 216\t\t\t\n      JUMP \t\t\t\n    tag 459\t\t\t\n      JUMPDEST \t\t\t\n      DUP3 \t\t\t\n      MSTORE \t\t\t\n      POP \t\t\t\n      POP \t\t\t\n      JUMP \t\t\t\n    tag 72\t\t\t\n      JUMPDEST \t\t\t\n      PUSH 0\t\t\t\n      PUSH 40\t\t\t\n      DUP3 \t\t\t\n      ADD \t\t\t\n      SWAP1 \t\t\t\n      POP \t\t\t\n      PUSH [tag] 461\t\t\t\n      PUSH 0\t\t\t\n      DUP4 \t\t\t\n      ADD \t\t\t\n      DUP6 \t\t\t\n      PUSH [tag] 217\t\t\t\n      JUMP \t\t\t\n    tag 461\t\t\t\n      JUMPDEST \t\t\t\n      PUSH [tag] 462\t\t\t\n      PUSH 20\t\t\t\n      DUP4 \t\t\t\n      ADD \t\t\t\n      DUP5 \t\t\t\n      PUSH [tag] 188\t\t\t\n      JUMP \t\t\t\n    tag 462\t\t\t\n      JUMPDEST \t\t\t\n      SWAP4 \t\t\t\n      SWAP3 \t\t\t\n      POP \t\t\t\n      POP \t\t\t\n      POP \t\t\t\n      JUMP \t\t\t\n    tag 218\t\t\t\n      JUMPDEST \t\t\t\n      PUSH 596F752068617665206E6F74206372656174656420612077696C6C0000000000\t\t\t\n      PUSH 0\t\t\t\n      DUP3 \t\t\t\n      ADD \t\t\t\n      MSTORE \t\t\t\n      POP \t\t\t\n      JUMP \t\t\t\n    tag 219\t\t\t\n      JUMPDEST \t\t\t\n      PUSH 0\t\t\t\n      PUSH [tag] 465\t\t\t\n      PUSH 1B\t\t\t\n      DUP4 \t\t\t\n      PUSH [tag] 186\t\t\t\n      JUMP \t\t\t\n    tag 465\t\t\t\n      JUMPDEST \t\t\t\n      SWAP2 \t\t\t\n      POP \t\t\t\n      PUSH [tag] 466\t\t\t\n      DUP3 \t\t\t\n      PUSH [tag] 218\t\t\t\n      JUMP \t\t\t\n    tag 466\t\t\t\n      JUMPDEST \t\t\t\n      PUSH 20\t\t\t\n      DUP3 \t\t\t\n      ADD \t\t\t\n      SWAP1 \t\t\t\n      POP \t\t\t\n      SWAP2 \t\t\t\n      SWAP1 \t\t\t\n      POP \t\t\t\n      JUMP \t\t\t\n    tag 76\t\t\t\n      JUMPDEST \t\t\t\n      PUSH 0\t\t\t\n      PUSH 20\t\t\t\n      DUP3 \t\t\t\n      ADD \t\t\t\n      SWAP1 \t\t\t\n      POP \t\t\t\n      DUP2 \t\t\t\n      DUP2 \t\t\t\n      SUB \t\t\t\n      PUSH 0\t\t\t\n      DUP4 \t\t\t\n      ADD \t\t\t\n      MSTORE \t\t\t\n      PUSH [tag] 468\t\t\t\n      DUP2 \t\t\t\n      PUSH [tag] 219\t\t\t\n      JUMP \t\t\t\n    tag 468\t\t\t\n      JUMPDEST \t\t\t\n      SWAP1 \t\t\t\n      POP \t\t\t\n      SWAP2 \t\t\t\n      SWAP1 \t\t\t\n      POP \t\t\t\n      JUMP \t\t\t\n    tag 220\t\t\t\n      JUMPDEST \t\t\t\n      PUSH 57696C6C20616C72656164792065786563757465642100000000000000000000\t\t\t\n      PUSH 0\t\t\t\n      DUP3 \t\t\t\n      ADD \t\t\t\n      MSTORE \t\t\t\n      POP \t\t\t\n      JUMP \t\t\t\n    tag 221\t\t\t\n      JUMPDEST \t\t\t\n      PUSH 0\t\t\t\n      PUSH [tag] 471\t\t\t\n      PUSH 16\t\t\t\n      DUP4 \t\t\t\n      PUSH [tag] 186\t\t\t\n      JUMP \t\t\t\n    tag 471\t\t\t\n      JUMPDEST \t\t\t\n      SWAP2 \t\t\t\n      POP \t\t\t\n      PUSH [tag] 472\t\t\t\n      DUP3 \t\t\t\n      PUSH [tag] 220\t\t\t\n      JUMP \t\t\t\n    tag 472\t\t\t\n      JUMPDEST \t\t\t\n      PUSH 20\t\t\t\n      DUP3 \t\t\t\n      ADD \t\t\t\n      SWAP1 \t\t\t\n      POP \t\t\t\n      SWAP2 \t\t\t\n      SWAP1 \t\t\t\n      POP \t\t\t\n      JUMP \t\t\t\n    tag 79\t\t\t\n      JUMPDEST \t\t\t\n      PUSH 0\t\t\t\n      PUSH 20\t\t\t\n      DUP3 \t\t\t\n      ADD \t\t\t\n      SWAP1 \t\t\t\n      POP \t\t\t\n      DUP2 \t\t\t\n      DUP2 \t\t\t\n      SUB \t\t\t\n      PUSH 0\t\t\t\n      DUP4 \t\t\t\n      ADD \t\t\t\n      MSTORE \t\t\t\n      PUSH [tag] 474\t\t\t\n      DUP2 \t\t\t\n      PUSH [tag] 221\t\t\t\n      JUMP \t\t\t\n    tag 474\t\t\t\n      JUMPDEST \t\t\t\n      SWAP1 \t\t\t\n      POP \t\t\t\n      SWAP2 \t\t\t\n      SWAP1 \t\t\t\n      POP \t\t\t\n      JUMP \t\t\t\n    tag 222\t\t\t\n      JUMPDEST \t\t\t\n      PUSH 4E6F2077696C6C20666F756E6421000000000000000000000000000000000000\t\t\t\n      PUSH 0\t\t\t\n      DUP3 \t\t\t\n      ADD \t\t\t\n      MSTORE \t\t\t\n      POP \t\t\t\n      JUMP \t\t\t\n    tag 223\t\t\t\n      JUMPDEST \t\t\t\n      PUSH 0\t\t\t\n      PUSH [tag] 477\t\t\t\n      PUSH E\t\t\t\n      DUP4 \t\t\t\n      PUSH [tag] 186\t\t\t\n      JUMP \t\t\t\n    tag 477\t\t\t\n      JUMPDEST \t\t\t\n      SWAP2 \t\t\t\n      POP \t\t\t\n      PUSH [tag] 478\t\t\t\n      DUP3 \t\t\t\n      PUSH [tag] 222\t\t\t\n      JUMP \t\t\t\n    tag 478\t\t\t\n      JUMPDEST \t\t\t\n      PUSH 20\t\t\t\n      DUP3 \t\t\t\n      ADD \t\t\t\n      SWAP1 \t\t\t\n      POP \t\t\t\n      SWAP2 \t\t\t\n      SWAP1 \t\t\t\n      POP \t\t\t\n      JUMP \t\t\t\n    tag 83\t\t\t\n      JUMPDEST \t\t\t\n      PUSH 0\t\t\t\n      PUSH 20\t\t\t\n      DUP3 \t\t\t\n      ADD \t\t\t\n      SWAP1 \t\t\t\n      POP \t\t\t\n      DUP2 \t\t\t\n      DUP2 \t\t\t\n      SUB \t\t\t\n      PUSH 0\t\t\t\n      DUP4 \t\t\t\n      ADD \t\t\t\n      MSTORE \t\t\t\n      PUSH [tag] 480\t\t\t\n      DUP2 \t\t\t\n      PUSH [tag] 223\t\t\t\n      JUMP \t\t\t\n    tag 480\t\t\t\n      JUMPDEST \t\t\t\n      SWAP1 \t\t\t\n      POP \t\t\t\n      SWAP2 \t\t\t\n      SWAP1 \t\t\t\n      POP \t\t\t\n      JUMP \t\t\t\n    tag 224\t\t\t\n      JUMPDEST \t\t\t\n      PUSH 596F7520616C7265616479206861766520612077696C6C210000000000000000\t\t\t\n      PUSH 0\t\t\t\n      DUP3 \t\t\t\n      ADD \t\t\t\n      MSTORE \t\t\t\n      POP \t\t\t\n      JUMP \t\t\t\n    tag 225\t\t\t\n      JUMPDEST \t\t\t\n      PUSH 0\t\t\t\n      PUSH [tag] 483\t\t\t\n      PUSH 18\t\t\t\n      DUP4 \t\t\t\n      PUSH [tag] 186\t\t\t\n      JUMP \t\t\t\n    tag 483\t\t\t\n      JUMPDEST \t\t\t\n      SWAP2 \t\t\t\n      POP \t\t\t\n      PUSH [tag] 484\t\t\t\n      DUP3 \t\t\t\n      PUSH [tag] 224\t\t\t\n      JUMP \t\t\t\n    tag 484\t\t\t\n      JUMPDEST \t\t\t\n      PUSH 20\t\t\t\n      DUP3 \t\t\t\n      ADD \t\t\t\n      SWAP1 \t\t\t\n      POP \t\t\t\n      SWAP2 \t\t\t\n      SWAP1 \t\t\t\n      POP \t\t\t\n      JUMP \t\t\t\n    tag 101\t\t\t\n      JUMPDEST \t\t\t\n      PUSH 0\t\t\t\n      PUSH 20\t\t\t\n      DUP3 \t\t\t\n      ADD \t\t\t\n      SWAP1 \t\t\t\n      POP \t\t\t\n      DUP2 \t\t\t\n      DUP2 \t\t\t\n      SUB \t\t\t\n      PUSH 0\t\t\t\n      DUP4 \t\t\t\n      ADD \t\t\t\n      MSTORE \t\t\t\n      PUSH [tag] 486\t\t\t\n      DUP2 \t\t\t\n      PUSH [tag] 225\t\t\t\n      JUMP \t\t\t\n    tag 486\t\t\t\n      JUMPDEST \t\t\t\n      SWAP1 \t\t\t\n      POP \t\t\t\n      SWAP2 \t\t\t\n      SWAP1 \t\t\t\n      POP \t\t\t\n      JUMP \t\t\t\n    tag 226\t\t\t\n      JUMPDEST \t\t\t\n      PUSH 4D757374206C6F636B2045544821000000000000000000000000000000000000\t\t\t\n      PUSH 0\t\t\t\n      DUP3 \t\t\t\n      ADD \t\t\t\n      MSTORE \t\t\t\n      POP \t\t\t\n      JUMP \t\t\t\n    tag 227\t\t\t\n      JUMPDEST \t\t\t\n      PUSH 0\t\t\t\n      PUSH [tag] 489\t\t\t\n      PUSH E\t\t\t\n      DUP4 \t\t\t\n      PUSH [tag] 186\t\t\t\n      JUMP \t\t\t\n    tag 489\t\t\t\n      JUMPDEST \t\t\t\n      SWAP2 \t\t\t\n      POP \t\t\t\n      PUSH [tag] 490\t\t\t\n      DUP3 \t\t\t\n      PUSH [tag] 226\t\t\t\n      JUMP \t\t\t\n    tag 490\t\t\t\n      JUMPDEST \t\t\t\n      PUSH 20\t\t\t\n      DUP3 \t\t\t\n      ADD \t\t\t\n      SWAP1 \t\t\t\n      POP \t\t\t\n      SWAP2 \t\t\t\n      SWAP1 \t\t\t\n      POP \t\t\t\n      JUMP \t\t\t\n    tag 104\t\t\t\n      JUMPDEST \t\t\t\n      PUSH 0\t\t\t\n      PUSH 20\t\t\t\n      DUP3 \t\t\t\n      ADD \t\t\t\n      SWAP1 \t\t\t\n      POP \t\t\t\n      DUP2 \t\t\t\n      DUP2 \t\t\t\n      SUB \t\t\t\n      PUSH 0\t\t\t\n      DUP4 \t\t\t\n      ADD \t\t\t\n      MSTORE \t\t\t\n      PUSH [tag] 492\t\t\t\n      DUP2 \t\t\t\n      PUSH [tag] 227\t\t\t\n      JUMP \t\t\t\n    tag 492\t\t\t\n      JUMPDEST \t\t\t\n      SWAP1 \t\t\t\n      POP \t\t\t\n      SWAP2 \t\t\t\n      SWAP1 \t\t\t\n      POP \t\t\t\n      JUMP \t\t\t\n    tag 108\t\t\t\n      JUMPDEST \t\t\t\n      PUSH 0\t\t\t\n      PUSH 20\t\t\t\n      DUP3 \t\t\t\n      ADD \t\t\t\n      SWAP1 \t\t\t\n      POP \t\t\t\n      PUSH [tag] 494\t\t\t\n      PUSH 0\t\t\t\n      DUP4 \t\t\t\n      ADD \t\t\t\n      DUP5 \t\t\t\n      PUSH [tag] 188\t\t\t\n      JUMP \t\t\t\n    tag 494\t\t\t\n      JUMPDEST \t\t\t\n      SWAP3 \t\t\t\n      SWAP2 \t\t\t\n      POP \t\t\t\n      POP \t\t\t\n      JUMP \t\t\t\n    tag 228\t\t\t\n      JUMPDEST \t\t\t\n      PUSH 4F776E6572206973207374696C6C20616C697665210000000000000000000000\t\t\t\n      PUSH 0\t\t\t\n      DUP3 \t\t\t\n      ADD \t\t\t\n      MSTORE \t\t\t\n      POP \t\t\t\n      JUMP \t\t\t\n    tag 229\t\t\t\n      JUMPDEST \t\t\t\n      PUSH 0\t\t\t\n      PUSH [tag] 497\t\t\t\n      PUSH 15\t\t\t\n      DUP4 \t\t\t\n      PUSH [tag] 186\t\t\t\n      JUMP \t\t\t\n    tag 497\t\t\t\n      JUMPDEST \t\t\t\n      SWAP2 \t\t\t\n      POP \t\t\t\n      PUSH [tag] 498\t\t\t\n      DUP3 \t\t\t\n      PUSH [tag] 228\t\t\t\n      JUMP \t\t\t\n    tag 498\t\t\t\n      JUMPDEST \t\t\t\n      PUSH 20\t\t\t\n      DUP3 \t\t\t\n      ADD \t\t\t\n      SWAP1 \t\t\t\n      POP \t\t\t\n      SWAP2 \t\t\t\n      SWAP1 \t\t\t\n      POP \t\t\t\n      JUMP \t\t\t\n    tag 128\t\t\t\n      JUMPDEST \t\t\t\n      PUSH 0\t\t\t\n      PUSH 20\t\t\t\n      DUP3 \t\t\t\n      ADD \t\t\t\n      SWAP1 \t\t\t\n      POP \t\t\t\n      DUP2 \t\t\t\n      DUP2 \t\t\t\n      SUB \t\t\t\n      PUSH 0\t\t\t\n      DUP4 \t\t\t\n      ADD \t\t\t\n      MSTORE \t\t\t\n      PUSH [tag] 500\t\t\t\n      DUP2 \t\t\t\n      PUSH [tag] 229\t\t\t\n      JUMP \t\t\t\n    tag 500\t\t\t\n      JUMPDEST \t\t\t\n      SWAP1 \t\t\t\n      POP \t\t\t\n      SWAP2 \t\t\t\n      SWAP1 \t\t\t\n      POP \t\t\t\n      JUMP \t\t\t\n    tag 230\t\t\t\n      JUMPDEST \t\t\t\n      PUSH 4E6F2045544820746F2064697374726962757465000000000000000000000000\t\t\t\n      PUSH 0\t\t\t\n      DUP3 \t\t\t\n      ADD \t\t\t\n      MSTORE \t\t\t\n      POP \t\t\t\n      JUMP \t\t\t\n    tag 231\t\t\t\n      JUMPDEST \t\t\t\n      PUSH 0\t\t\t\n      PUSH [tag] 503\t\t\t\n      PUSH 14\t\t\t\n      DUP4 \t\t\t\n      PUSH [tag] 186\t\t\t\n      JUMP \t\t\t\n    tag 503\t\t\t\n      JUMPDEST \t\t\t\n      SWAP2 \t\t\t\n      POP \t\t\t\n      PUSH [tag] 504\t\t\t\n      DUP3 \t\t\t\n      PUSH [tag] 230\t\t\t\n      JUMP \t\t\t\n    tag 504\t\t\t\n      JUMPDEST \t\t\t\n      PUSH 20\t\t\t\n      DUP3 \t\t\t\n      ADD \t\t\t\n      SWAP1 \t\t\t\n      POP \t\t\t\n      SWAP2 \t\t\t\n      SWAP1 \t\t\t\n      POP \t\t\t\n      JUMP \t\t\t\n    tag 133\t\t\t\n      JUMPDEST \t\t\t\n      PUSH 0\t\t\t\n      PUSH 20\t\t\t\n      DUP3 \t\t\t\n      ADD \t\t\t\n      SWAP1 \t\t\t\n      POP \t\t\t\n      DUP2 \t\t\t\n      DUP2 \t\t\t\n      SUB \t\t\t\n      PUSH 0\t\t\t\n      DUP4 \t\t\t\n      ADD \t\t\t\n      MSTORE \t\t\t\n      PUSH [tag] 506\t\t\t\n      DUP2 \t\t\t\n      PUSH [tag] 231\t\t\t\n      JUMP \t\t\t\n    tag 506\t\t\t\n      JUMPDEST \t\t\t\n      SWAP1 \t\t\t\n      POP \t\t\t\n      SWAP2 \t\t\t\n      SWAP1 \t\t\t\n      POP \t\t\t\n      JUMP \t\t\t\n    tag 141\t\t\t\n      JUMPDEST \t\t\t\n      PUSH 0\t\t\t\n      PUSH [tag] 508\t\t\t\n      DUP3 \t\t\t\n      PUSH [tag] 155\t\t\t\n      JUMP \t\t\t\n    tag 508\t\t\t\n      JUMPDEST \t\t\t\n      SWAP2 \t\t\t\n      POP \t\t\t\n      PUSH [tag] 509\t\t\t\n      DUP4 \t\t\t\n      PUSH [tag] 155\t\t\t\n      JUMP \t\t\t\n    tag 509\t\t\t\n      JUMPDEST \t\t\t\n      SWAP3 \t\t\t\n      POP \t\t\t\n      DUP3 \t\t\t\n      DUP3 \t\t\t\n      MUL \t\t\t\n      PUSH [tag] 510\t\t\t\n      DUP2 \t\t\t\n      PUSH [tag] 155\t\t\t\n      JUMP \t\t\t\n    tag 510\t\t\t\n      JUMPDEST \t\t\t\n      SWAP2 \t\t\t\n      POP \t\t\t\n      DUP3 \t\t\t\n      DUP3 \t\t\t\n      DIV \t\t\t\n      DUP5 \t\t\t\n      EQ \t\t\t\n      DUP4 \t\t\t\n      ISZERO \t\t\t\n      OR \t\t\t\n      PUSH [tag] 511\t\t\t\n      JUMPI \t\t\t\n      PUSH [tag] 512\t\t\t\n      PUSH [tag] 195\t\t\t\n      JUMP \t\t\t\n    tag 512\t\t\t\n      JUMPDEST \t\t\t\n    tag 511\t\t\t\n      JUMPDEST \t\t\t\n      POP \t\t\t\n      SWAP3 \t\t\t\n      SWAP2 \t\t\t\n      POP \t\t\t\n      POP \t\t\t\n      JUMP \t\t\t\n    tag 232\t\t\t\n      JUMPDEST \t\t\t\n      PUSH 4E487B7100000000000000000000000000000000000000000000000000000000\t\t\t\n      PUSH 0\t\t\t\n      MSTORE \t\t\t\n      PUSH 12\t\t\t\n      PUSH 4\t\t\t\n      MSTORE \t\t\t\n      PUSH 24\t\t\t\n      PUSH 0\t\t\t\n      REVERT \t\t\t\n    tag 143\t\t\t\n      JUMPDEST \t\t\t\n      PUSH 0\t\t\t\n      PUSH [tag] 515\t\t\t\n      DUP3 \t\t\t\n      PUSH [tag] 155\t\t\t\n      JUMP \t\t\t\n    tag 515\t\t\t\n      JUMPDEST \t\t\t\n      SWAP2 \t\t\t\n      POP \t\t\t\n      PUSH [tag] 516\t\t\t\n      DUP4 \t\t\t\n      PUSH [tag] 155\t\t\t\n      JUMP \t\t\t\n    tag 516\t\t\t\n      JUMPDEST \t\t\t\n      SWAP3 \t\t\t\n      POP \t\t\t\n      DUP3 \t\t\t\n      PUSH [tag] 517\t\t\t\n      JUMPI \t\t\t\n      PUSH [tag] 518\t\t\t\n      PUSH [tag] 232\t\t\t\n      JUMP \t\t\t\n    tag 518\t\t\t\n      JUMPDEST \t\t\t\n    tag 517\t\t\t\n      JUMPDEST \t\t\t\n      DUP3 \t\t\t\n      DUP3 \t\t\t\n      DIV \t\t\t\n      SWAP1 \t\t\t\n      POP \t\t\t\n      SWAP3 \t\t\t\n      SWAP2 \t\t\t\n      POP \t\t\t\n      POP \t\t\t\n      JUMP \t\t\t\n    tag 233\t\t\t\n      JUMPDEST \t\t\t\n      PUSH 0\t\t\t\n      DUP2 \t\t\t\n      SLOAD \t\t\t\n      PUSH [tag] 520\t\t\t\n      DUP2 \t\t\t\n      PUSH [tag] 88\t\t\t\n      JUMP \t\t\t\n    tag 520\t\t\t\n      JUMPDEST \t\t\t\n      PUSH [tag] 521\t\t\t\n      DUP2 \t\t\t\n      DUP7 \t\t\t\n      PUSH [tag] 186\t\t\t\n      JUMP \t\t\t\n    tag 521\t\t\t\n      JUMPDEST \t\t\t\n      SWAP5 \t\t\t\n      POP \t\t\t\n      PUSH 1\t\t\t\n      DUP3 \t\t\t\n      AND \t\t\t\n      PUSH 0\t\t\t\n      DUP2 \t\t\t\n      EQ \t\t\t\n      PUSH [tag] 523\t\t\t\n      JUMPI \t\t\t\n      PUSH 1\t\t\t\n      DUP2 \t\t\t\n      EQ \t\t\t\n      PUSH [tag] 524\t\t\t\n      JUMPI \t\t\t\n      PUSH [tag] 522\t\t\t\n      JUMP \t\t\t\n    tag 523\t\t\t\n      JUMPDEST \t\t\t\n      PUSH FF\t\t\t\n      NOT \t\t\t\n      DUP4 \t\t\t\n      AND \t\t\t\n      DUP7 \t\t\t\n      MSTORE \t\t\t\n      DUP2 \t\t\t\n      ISZERO \t\t\t\n      ISZERO \t\t\t\n      PUSH 20\t\t\t\n      MUL \t\t\t\n      DUP7 \t\t\t\n      ADD \t\t\t\n      SWAP4 \t\t\t\n      POP \t\t\t\n      PUSH [tag] 522\t\t\t\n      JUMP \t\t\t\n    tag 524\t\t\t\n      JUMPDEST \t\t\t\n      PUSH [tag] 525\t\t\t\n      DUP6 \t\t\t\n      PUSH [tag] 199\t\t\t\n      JUMP \t\t\t\n    tag 525\t\t\t\n      JUMPDEST \t\t\t\n      PUSH 0\t\t\t\n    tag 526\t\t\t\n      JUMPDEST \t\t\t\n      DUP4 \t\t\t\n      DUP2 \t\t\t\n      LT \t\t\t\n      ISZERO \t\t\t\n      PUSH [tag] 528\t\t\t\n      JUMPI \t\t\t\n      DUP2 \t\t\t\n      SLOAD \t\t\t\n      DUP2 \t\t\t\n      DUP10 \t\t\t\n      ADD \t\t\t\n      MSTORE \t\t\t\n      PUSH 1\t\t\t\n      DUP3 \t\t\t\n      ADD \t\t\t\n      SWAP2 \t\t\t\n      POP \t\t\t\n      PUSH 20\t\t\t\n      DUP2 \t\t\t\n      ADD \t\t\t\n      SWAP1 \t\t\t\n      POP \t\t\t\n      PUSH [tag] 526\t\t\t\n      JUMP \t\t\t\n    tag 528\t\t\t\n      JUMPDEST \t\t\t\n      DUP1 \t\t\t\n      DUP9 \t\t\t\n      ADD \t\t\t\n      SWAP6 \t\t\t\n      POP \t\t\t\n      POP \t\t\t\n      POP \t\t\t\n    tag 522\t\t\t\n      JUMPDEST \t\t\t\n      POP \t\t\t\n      POP \t\t\t\n      POP \t\t\t\n      SWAP3 \t\t\t\n      SWAP2 \t\t\t\n      POP \t\t\t\n      POP \t\t\t\n      JUMP \t\t\t\n    tag 147\t\t\t\n      JUMPDEST \t\t\t\n      PUSH 0\t\t\t\n      PUSH 60\t\t\t\n      DUP3 \t\t\t\n      ADD \t\t\t\n      SWAP1 \t\t\t\n      POP \t\t\t\n      PUSH [tag] 530\t\t\t\n      PUSH 0\t\t\t\n      DUP4 \t\t\t\n      ADD \t\t\t\n      DUP7 \t\t\t\n      PUSH [tag] 188\t\t\t\n      JUMP \t\t\t\n    tag 530\t\t\t\n      JUMPDEST \t\t\t\n      DUP2 \t\t\t\n      DUP2 \t\t\t\n      SUB \t\t\t\n      PUSH 20\t\t\t\n      DUP4 \t\t\t\n      ADD \t\t\t\n      MSTORE \t\t\t\n      PUSH [tag] 531\t\t\t\n      DUP2 \t\t\t\n      DUP6 \t\t\t\n      PUSH [tag] 233\t\t\t\n      JUMP \t\t\t\n    tag 531\t\t\t\n      JUMPDEST \t\t\t\n      SWAP1 \t\t\t\n      POP \t\t\t\n      DUP2 \t\t\t\n      DUP2 \t\t\t\n      SUB \t\t\t\n      PUSH 40\t\t\t\n      DUP4 \t\t\t\n      ADD \t\t\t\n      MSTORE \t\t\t\n      PUSH [tag] 532\t\t\t\n      DUP2 \t\t\t\n      DUP5 \t\t\t\n      PUSH [tag] 233\t\t\t\n      JUMP \t\t\t\n    tag 532\t\t\t\n      JUMPDEST \t\t\t\n      SWAP1 \t\t\t\n      POP \t\t\t\n      SWAP5 \t\t\t\n      SWAP4 \t\t\t\n      POP \t\t\t\n      POP \t\t\t\n      POP \t\t\t\n      POP \t\t\t\n      JUMP \t\t\t\n    .data\n"
}