{
	"compilerInput": "{\"language\":\"Solidity\",\"sources\":{\"MultiWillContract.sol\":{\"content\":\"// SPDX-License-Identifier: MIT\\npragma solidity ^0.8.19;\\n\\ncontract MultiWillContract {\\n    struct Beneficiary {\\n        address payable wallet;\\n        uint256 percentage; // ETH allocation percentage\\n        string saleDeedIpfsHash; // IPFS hash of the assigned sale deed\\n    }\\n\\n    struct Will {\\n        address testator;\\n        uint256 totalLocked;\\n        uint256 lastAliveTime;\\n        uint256 proofOfLifeInterval;\\n        bool isDeceased;\\n        string notarizedWillIpfsHash;\\n        Beneficiary[] beneficiaries;\\n    }\\n\\n    mapping(address => Will) private wills;\\n    mapping(address => bool) public hasWill;\\n\\n    event WillCreated(address indexed testator, uint256 lockedFunds);\\n    event WillExecuted(address indexed testator);\\n    event ProofOfLifeConfirmed(address indexed testator);\\n\\n    /**\\n     * @dev Creates a new will for the sender.\\n     * @param _proofOfLifeInterval Time interval in seconds to confirm alive.\\n     * @param _notarizedWillIpfsHash IPFS hash of the notarized will document.\\n     */\\n    function createWill(uint256 _proofOfLifeInterval, string memory _notarizedWillIpfsHash) public payable {\\n        require(!hasWill[msg.sender], \\\"You already have a will!\\\");\\n        require(msg.value > 0, \\\"Must lock ETH!\\\");\\n\\n        wills[msg.sender].testator = msg.sender;\\n        wills[msg.sender].totalLocked = msg.value;\\n        wills[msg.sender].lastAliveTime = block.timestamp;\\n        wills[msg.sender].proofOfLifeInterval = _proofOfLifeInterval;\\n        wills[msg.sender].isDeceased = false;\\n        wills[msg.sender].notarizedWillIpfsHash = _notarizedWillIpfsHash;\\n        hasWill[msg.sender] = true;\\n\\n        emit WillCreated(msg.sender, msg.value);\\n    }\\n\\n    /**\\n     * @dev Adds a beneficiary to the caller's will.\\n     * @param _wallet Address of the beneficiary.\\n     * @param _percentage Share of ETH to be allocated.\\n     * @param _saleDeedIpfsHash IPFS hash of the sale deed document assigned to the beneficiary.\\n     */\\n    function addBeneficiary(address payable _wallet, uint256 _percentage, string memory _saleDeedIpfsHash) public {\\n        require(hasWill[msg.sender], \\\"You need to create a will first\\\");\\n        require(_percentage > 0 && _percentage <= 100, \\\"Invalid percentage\\\");\\n\\n        uint256 totalPercentage = 0;\\n        for (uint i = 0; i < wills[msg.sender].beneficiaries.length; i++) {\\n            totalPercentage += wills[msg.sender].beneficiaries[i].percentage;\\n        }\\n        require(totalPercentage + _percentage <= 100, \\\"Total allocation exceeds 100%\\\");\\n\\n        wills[msg.sender].beneficiaries.push(Beneficiary(_wallet, _percentage, _saleDeedIpfsHash));\\n    }\\n\\n    /**\\n     * @dev Allows the owner to confirm they are alive.\\n     */\\n    function confirmAlive() public {\\n        require(hasWill[msg.sender], \\\"No will found!\\\");\\n        wills[msg.sender].lastAliveTime = block.timestamp;\\n        emit ProofOfLifeConfirmed(msg.sender);\\n    }\\n\\n    /**\\n     * @dev Checks if a user's proof-of-life interval has expired and executes the will.\\n     */\\n    function checkDeath(address user) public {\\n        require(hasWill[user], \\\"No will found!\\\");\\n        require(block.timestamp > wills[user].lastAliveTime + wills[user].proofOfLifeInterval, \\\"Owner is still alive!\\\");\\n\\n        wills[user].isDeceased = true;\\n        executeWill(user);\\n        emit WillExecuted(user);\\n    }\\n\\n    /**\\n     * @dev Executes a will by distributing ETH to beneficiaries and unlocking sale deeds.\\n     */\\n    function executeWill(address user) internal {\\n        require(wills[user].isDeceased, \\\"Will not executed yet\\\");\\n        require(wills[user].totalLocked > 0, \\\"No ETH in contract\\\");\\n\\n        for (uint i = 0; i < wills[user].beneficiaries.length; i++) {\\n            uint256 amount = (wills[user].totalLocked * wills[user].beneficiaries[i].percentage) / 100;\\n            wills[user].beneficiaries[i].wallet.transfer(amount);\\n        }\\n\\n        wills[user].totalLocked = 0; // Clear locked funds after execution\\n    }\\n\\n    /**\\n     * @dev Retrieves a user's notarized will IPFS hash.\\n     */\\n    function getNotarizedWill(address user) public view returns (string memory) {\\n        require(hasWill[user], \\\"No will found!\\\");\\n        require(wills[user].isDeceased, \\\"Will has not been executed yet\\\");\\n        return wills[user].notarizedWillIpfsHash;\\n    }\\n\\n    /**\\n     * @dev Retrieves a specific beneficiary's assigned sale deed.\\n     */\\n    function getSaleDeed(address user, address _beneficiary) public view returns (string memory) {\\n        require(hasWill[user], \\\"No will found!\\\");\\n        require(wills[user].isDeceased, \\\"Will has not been executed yet\\\");\\n\\n        for (uint i = 0; i < wills[user].beneficiaries.length; i++) {\\n            if (wills[user].beneficiaries[i].wallet == _beneficiary) {\\n                return wills[user].beneficiaries[i].saleDeedIpfsHash;\\n            }\\n        }\\n        revert(\\\"Beneficiary not found\\\");\\n    }\\n}\\n\"}},\"settings\":{\"optimizer\":{\"enabled\":false,\"runs\":200},\"outputSelection\":{\"*\":{\"\":[\"ast\"],\"*\":[\"abi\",\"metadata\",\"devdoc\",\"userdoc\",\"storageLayout\",\"evm.legacyAssembly\",\"evm.bytecode\",\"evm.deployedBytecode\",\"evm.methodIdentifiers\",\"evm.gasEstimates\",\"evm.assembly\"]}},\"remappings\":[]}}",
	"name": "MultiWillContract",
	"bytecode": {
		"linkReferences": {},
		"object": "6080604052348015600e575f80fd5b506120408061001c5f395ff3fe60806040526004361061006f575f3560e01c8063935a619e1161004d578063935a619e146100ed578063c20162d414610115578063cf80103514610151578063e7fcc9181461016d5761006f565b806352218d9014610073578063549cc7b81461009b5780636f9b65f0146100d7575b5f80fd5b34801561007e575f80fd5b50610099600480360381019061009491906113ea565b6101a9565b005b3480156100a6575f80fd5b506100c160048036038101906100bc91906113ea565b6103a3565b6040516100ce919061142f565b60405180910390f35b3480156100e2575f80fd5b506100eb6103c0565b005b3480156100f8575f80fd5b50610113600480360381019061010e91906115f2565b6104d2565b005b348015610120575f80fd5b5061013b6004803603810190610136919061165e565b6107c4565b60405161014891906116fc565b60405180910390f35b61016b6004803603810190610166919061171c565b610b15565b005b348015610178575f80fd5b50610193600480360381019061018e91906113ea565b610e72565b6040516101a091906116fc565b60405180910390f35b60015f8273ffffffffffffffffffffffffffffffffffffffff1673ffffffffffffffffffffffffffffffffffffffff1681526020019081526020015f205f9054906101000a900460ff16610232576040517f08c379a0000000000000000000000000000000000000000000000000000000008152600401610229906117c0565b60405180910390fd5b5f808273ffffffffffffffffffffffffffffffffffffffff1673ffffffffffffffffffffffffffffffffffffffff1681526020019081526020015f20600301545f808373ffffffffffffffffffffffffffffffffffffffff1673ffffffffffffffffffffffffffffffffffffffff1681526020019081526020015f20600201546102bc919061180b565b42116102fd576040517f08c379a00000000000000000000000000000000000000000000000000000000081526004016102f490611888565b60405180910390fd5b60015f808373ffffffffffffffffffffffffffffffffffffffff1673ffffffffffffffffffffffffffffffffffffffff1681526020019081526020015f206004015f6101000a81548160ff02191690831515021790555061035d81611055565b8073ffffffffffffffffffffffffffffffffffffffff167f16346f65adf8d84422b57ad74cb5607bf6c9e55c3c1fea66344057e5bba8a7ee60405160405180910390a250565b6001602052805f5260405f205f915054906101000a900460ff1681565b60015f3373ffffffffffffffffffffffffffffffffffffffff1673ffffffffffffffffffffffffffffffffffffffff1681526020019081526020015f205f9054906101000a900460ff16610449576040517f08c379a0000000000000000000000000000000000000000000000000000000008152600401610440906117c0565b60405180910390fd5b425f803373ffffffffffffffffffffffffffffffffffffffff1673ffffffffffffffffffffffffffffffffffffffff1681526020019081526020015f20600201819055503373ffffffffffffffffffffffffffffffffffffffff167f59646f34b02235d7a2502144ec7804574d19422c78dbd9b73b2f04d6b7286a9660405160405180910390a2565b60015f3373ffffffffffffffffffffffffffffffffffffffff1673ffffffffffffffffffffffffffffffffffffffff1681526020019081526020015f205f9054906101000a900460ff1661055b576040517f08c379a0000000000000000000000000000000000000000000000000000000008152600401610552906118f0565b60405180910390fd5b5f8211801561056b575060648211155b6105aa576040517f08c379a00000000000000000000000000000000000000000000000000000000081526004016105a190611958565b60405180910390fd5b5f805b5f803373ffffffffffffffffffffffffffffffffffffffff1673ffffffffffffffffffffffffffffffffffffffff1681526020019081526020015f2060060180549050811015610672575f803373ffffffffffffffffffffffffffffffffffffffff1673ffffffffffffffffffffffffffffffffffffffff1681526020019081526020015f20600601818154811061064857610647611976565b5b905f5260205f2090600302016001015482610663919061180b565b915080806001019150506105ad565b5060648382610681919061180b565b11156106c2576040517f08c379a00000000000000000000000000000000000000000000000000000000081526004016106b9906119ed565b60405180910390fd5b5f803373ffffffffffffffffffffffffffffffffffffffff1673ffffffffffffffffffffffffffffffffffffffff1681526020019081526020015f2060060160405180606001604052808673ffffffffffffffffffffffffffffffffffffffff16815260200185815260200184815250908060018154018082558091505060019003905f5260205f2090600302015f909190919091505f820151815f015f6101000a81548173ffffffffffffffffffffffffffffffffffffffff021916908373ffffffffffffffffffffffffffffffffffffffff1602179055506020820151816001015560408201518160020190816107bb9190611c05565b50505050505050565b606060015f8473ffffffffffffffffffffffffffffffffffffffff1673ffffffffffffffffffffffffffffffffffffffff1681526020019081526020015f205f9054906101000a900460ff1661084f576040517f08c379a0000000000000000000000000000000000000000000000000000000008152600401610846906117c0565b60405180910390fd5b5f808473ffffffffffffffffffffffffffffffffffffffff1673ffffffffffffffffffffffffffffffffffffffff1681526020019081526020015f206004015f9054906101000a900460ff166108da576040517f08c379a00000000000000000000000000000000000000000000000000000000081526004016108d190611d1e565b60405180910390fd5b5f5b5f808573ffffffffffffffffffffffffffffffffffffffff1673ffffffffffffffffffffffffffffffffffffffff1681526020019081526020015f2060060180549050811015610ad3578273ffffffffffffffffffffffffffffffffffffffff165f808673ffffffffffffffffffffffffffffffffffffffff1673ffffffffffffffffffffffffffffffffffffffff1681526020019081526020015f20600601828154811061098e5761098d611976565b5b905f5260205f2090600302015f015f9054906101000a900473ffffffffffffffffffffffffffffffffffffffff1673ffffffffffffffffffffffffffffffffffffffff1603610ac6575f808573ffffffffffffffffffffffffffffffffffffffff1673ffffffffffffffffffffffffffffffffffffffff1681526020019081526020015f206006018181548110610a2857610a27611976565b5b905f5260205f2090600302016002018054610a4290611a38565b80601f0160208091040260200160405190810160405280929190818152602001828054610a6e90611a38565b8015610ab95780601f10610a9057610100808354040283529160200191610ab9565b820191905f5260205f20905b815481529060010190602001808311610a9c57829003601f168201915b5050505050915050610b0f565b80806001019150506108dc565b506040517f08c379a0000000000000000000000000000000000000000000000000000000008152600401610b0690611d86565b60405180910390fd5b92915050565b60015f3373ffffffffffffffffffffffffffffffffffffffff1673ffffffffffffffffffffffffffffffffffffffff1681526020019081526020015f205f9054906101000a900460ff1615610b9f576040517f08c379a0000000000000000000000000000000000000000000000000000000008152600401610b9690611dee565b60405180910390fd5b5f3411610be1576040517f08c379a0000000000000000000000000000000000000000000000000000000008152600401610bd890611e56565b60405180910390fd5b335f803373ffffffffffffffffffffffffffffffffffffffff1673ffffffffffffffffffffffffffffffffffffffff1681526020019081526020015f205f015f6101000a81548173ffffffffffffffffffffffffffffffffffffffff021916908373ffffffffffffffffffffffffffffffffffffffff160217905550345f803373ffffffffffffffffffffffffffffffffffffffff1673ffffffffffffffffffffffffffffffffffffffff1681526020019081526020015f2060010181905550425f803373ffffffffffffffffffffffffffffffffffffffff1673ffffffffffffffffffffffffffffffffffffffff1681526020019081526020015f2060020181905550815f803373ffffffffffffffffffffffffffffffffffffffff1673ffffffffffffffffffffffffffffffffffffffff1681526020019081526020015f20600301819055505f805f3373ffffffffffffffffffffffffffffffffffffffff1673ffffffffffffffffffffffffffffffffffffffff1681526020019081526020015f206004015f6101000a81548160ff021916908315150217905550805f803373ffffffffffffffffffffffffffffffffffffffff1673ffffffffffffffffffffffffffffffffffffffff1681526020019081526020015f206005019081610dcb9190611c05565b506001805f3373ffffffffffffffffffffffffffffffffffffffff1673ffffffffffffffffffffffffffffffffffffffff1681526020019081526020015f205f6101000a81548160ff0219169083151502179055503373ffffffffffffffffffffffffffffffffffffffff167fd40dc4a639c90600691397f655099adba04d6b763ef2122630edd47c09f1b6f934604051610e669190611e83565b60405180910390a25050565b606060015f8373ffffffffffffffffffffffffffffffffffffffff1673ffffffffffffffffffffffffffffffffffffffff1681526020019081526020015f205f9054906101000a900460ff16610efd576040517f08c379a0000000000000000000000000000000000000000000000000000000008152600401610ef4906117c0565b60405180910390fd5b5f808373ffffffffffffffffffffffffffffffffffffffff1673ffffffffffffffffffffffffffffffffffffffff1681526020019081526020015f206004015f9054906101000a900460ff16610f88576040517f08c379a0000000000000000000000000000000000000000000000000000000008152600401610f7f90611d1e565b60405180910390fd5b5f808373ffffffffffffffffffffffffffffffffffffffff1673ffffffffffffffffffffffffffffffffffffffff1681526020019081526020015f206005018054610fd290611a38565b80601f0160208091040260200160405190810160405280929190818152602001828054610ffe90611a38565b80156110495780601f1061102057610100808354040283529160200191611049565b820191905f5260205f20905b81548152906001019060200180831161102c57829003601f168201915b50505050509050919050565b5f808273ffffffffffffffffffffffffffffffffffffffff1673ffffffffffffffffffffffffffffffffffffffff1681526020019081526020015f206004015f9054906101000a900460ff166110e0576040517f08c379a00000000000000000000000000000000000000000000000000000000081526004016110d790611ee6565b60405180910390fd5b5f805f8373ffffffffffffffffffffffffffffffffffffffff1673ffffffffffffffffffffffffffffffffffffffff1681526020019081526020015f206001015411611161576040517f08c379a000000000000000000000000000000000000000000000000000000000815260040161115890611f4e565b60405180910390fd5b5f5b5f808373ffffffffffffffffffffffffffffffffffffffff1673ffffffffffffffffffffffffffffffffffffffff1681526020019081526020015f2060060180549050811015611337575f60645f808573ffffffffffffffffffffffffffffffffffffffff1673ffffffffffffffffffffffffffffffffffffffff1681526020019081526020015f20600601838154811061120157611200611976565b5b905f5260205f209060030201600101545f808673ffffffffffffffffffffffffffffffffffffffff1673ffffffffffffffffffffffffffffffffffffffff1681526020019081526020015f206001015461125b9190611f6c565b6112659190611fda565b90505f808473ffffffffffffffffffffffffffffffffffffffff1673ffffffffffffffffffffffffffffffffffffffff1681526020019081526020015f2060060182815481106112b8576112b7611976565b5b905f5260205f2090600302015f015f9054906101000a900473ffffffffffffffffffffffffffffffffffffffff1673ffffffffffffffffffffffffffffffffffffffff166108fc8290811502906040515f60405180830381858888f19350505050158015611328573d5f803e3d5ffd5b50508080600101915050611163565b505f805f8373ffffffffffffffffffffffffffffffffffffffff1673ffffffffffffffffffffffffffffffffffffffff1681526020019081526020015f206001018190555050565b5f604051905090565b5f80fd5b5f80fd5b5f73ffffffffffffffffffffffffffffffffffffffff82169050919050565b5f6113b982611390565b9050919050565b6113c9816113af565b81146113d3575f80fd5b50565b5f813590506113e4816113c0565b92915050565b5f602082840312156113ff576113fe611388565b5b5f61140c848285016113d6565b91505092915050565b5f8115159050919050565b61142981611415565b82525050565b5f6020820190506114425f830184611420565b92915050565b5f61145282611390565b9050919050565b61146281611448565b811461146c575f80fd5b50565b5f8135905061147d81611459565b92915050565b5f819050919050565b61149581611483565b811461149f575f80fd5b50565b5f813590506114b08161148c565b92915050565b5f80fd5b5f80fd5b5f601f19601f8301169050919050565b7f4e487b71000000000000000000000000000000000000000000000000000000005f52604160045260245ffd5b611504826114be565b810181811067ffffffffffffffff82111715611523576115226114ce565b5b80604052505050565b5f61153561137f565b905061154182826114fb565b919050565b5f67ffffffffffffffff8211156115605761155f6114ce565b5b611569826114be565b9050602081019050919050565b828183375f83830152505050565b5f61159661159184611546565b61152c565b9050828152602081018484840111156115b2576115b16114ba565b5b6115bd848285611576565b509392505050565b5f82601f8301126115d9576115d86114b6565b5b81356115e9848260208601611584565b91505092915050565b5f805f6060848603121561160957611608611388565b5b5f6116168682870161146f565b9350506020611627868287016114a2565b925050604084013567ffffffffffffffff8111156116485761164761138c565b5b611654868287016115c5565b9150509250925092565b5f806040838503121561167457611673611388565b5b5f611681858286016113d6565b9250506020611692858286016113d6565b9150509250929050565b5f81519050919050565b5f82825260208201905092915050565b8281835e5f83830152505050565b5f6116ce8261169c565b6116d881856116a6565b93506116e88185602086016116b6565b6116f1816114be565b840191505092915050565b5f6020820190508181035f83015261171481846116c4565b905092915050565b5f806040838503121561173257611731611388565b5b5f61173f858286016114a2565b925050602083013567ffffffffffffffff8111156117605761175f61138c565b5b61176c858286016115c5565b9150509250929050565b7f4e6f2077696c6c20666f756e64210000000000000000000000000000000000005f82015250565b5f6117aa600e836116a6565b91506117b582611776565b602082019050919050565b5f6020820190508181035f8301526117d78161179e565b9050919050565b7f4e487b71000000000000000000000000000000000000000000000000000000005f52601160045260245ffd5b5f61181582611483565b915061182083611483565b9250828201905080821115611838576118376117de565b5b92915050565b7f4f776e6572206973207374696c6c20616c6976652100000000000000000000005f82015250565b5f6118726015836116a6565b915061187d8261183e565b602082019050919050565b5f6020820190508181035f83015261189f81611866565b9050919050565b7f596f75206e65656420746f2063726561746520612077696c6c206669727374005f82015250565b5f6118da601f836116a6565b91506118e5826118a6565b602082019050919050565b5f6020820190508181035f830152611907816118ce565b9050919050565b7f496e76616c69642070657263656e7461676500000000000000000000000000005f82015250565b5f6119426012836116a6565b915061194d8261190e565b602082019050919050565b5f6020820190508181035f83015261196f81611936565b9050919050565b7f4e487b71000000000000000000000000000000000000000000000000000000005f52603260045260245ffd5b7f546f74616c20616c6c6f636174696f6e206578636565647320313030250000005f82015250565b5f6119d7601d836116a6565b91506119e2826119a3565b602082019050919050565b5f6020820190508181035f830152611a04816119cb565b9050919050565b7f4e487b71000000000000000000000000000000000000000000000000000000005f52602260045260245ffd5b5f6002820490506001821680611a4f57607f821691505b602082108103611a6257611a61611a0b565b5b50919050565b5f819050815f5260205f209050919050565b5f6020601f8301049050919050565b5f82821b905092915050565b5f60088302611ac47fffffffffffffffffffffffffffffffffffffffffffffffffffffffffffffffff82611a89565b611ace8683611a89565b95508019841693508086168417925050509392505050565b5f819050919050565b5f611b09611b04611aff84611483565b611ae6565b611483565b9050919050565b5f819050919050565b611b2283611aef565b611b36611b2e82611b10565b848454611a95565b825550505050565b5f90565b611b4a611b3e565b611b55818484611b19565b505050565b5b81811015611b7857611b6d5f82611b42565b600181019050611b5b565b5050565b601f821115611bbd57611b8e81611a68565b611b9784611a7a565b81016020851015611ba6578190505b611bba611bb285611a7a565b830182611b5a565b50505b505050565b5f82821c905092915050565b5f611bdd5f1984600802611bc2565b1980831691505092915050565b5f611bf58383611bce565b9150826002028217905092915050565b611c0e8261169c565b67ffffffffffffffff811115611c2757611c266114ce565b5b611c318254611a38565b611c3c828285611b7c565b5f60209050601f831160018114611c6d575f8415611c5b578287015190505b611c658582611bea565b865550611ccc565b601f198416611c7b86611a68565b5f5b82811015611ca257848901518255600182019150602085019450602081019050611c7d565b86831015611cbf5784890151611cbb601f891682611bce565b8355505b6001600288020188555050505b505050505050565b7f57696c6c20686173206e6f74206265656e2065786563757465642079657400005f82015250565b5f611d08601e836116a6565b9150611d1382611cd4565b602082019050919050565b5f6020820190508181035f830152611d3581611cfc565b9050919050565b7f42656e6566696369617279206e6f7420666f756e6400000000000000000000005f82015250565b5f611d706015836116a6565b9150611d7b82611d3c565b602082019050919050565b5f6020820190508181035f830152611d9d81611d64565b9050919050565b7f596f7520616c7265616479206861766520612077696c6c2100000000000000005f82015250565b5f611dd86018836116a6565b9150611de382611da4565b602082019050919050565b5f6020820190508181035f830152611e0581611dcc565b9050919050565b7f4d757374206c6f636b20455448210000000000000000000000000000000000005f82015250565b5f611e40600e836116a6565b9150611e4b82611e0c565b602082019050919050565b5f6020820190508181035f830152611e6d81611e34565b9050919050565b611e7d81611483565b82525050565b5f602082019050611e965f830184611e74565b92915050565b7f57696c6c206e6f742065786563757465642079657400000000000000000000005f82015250565b5f611ed06015836116a6565b9150611edb82611e9c565b602082019050919050565b5f6020820190508181035f830152611efd81611ec4565b9050919050565b7f4e6f2045544820696e20636f6e747261637400000000000000000000000000005f82015250565b5f611f386012836116a6565b9150611f4382611f04565b602082019050919050565b5f6020820190508181035f830152611f6581611f2c565b9050919050565b5f611f7682611483565b9150611f8183611483565b9250828202611f8f81611483565b91508282048414831517611fa657611fa56117de565b5b5092915050565b7f4e487b71000000000000000000000000000000000000000000000000000000005f52601260045260245ffd5b5f611fe482611483565b9150611fef83611483565b925082611fff57611ffe611fad565b5b82820490509291505056fea26469706673582212205a5e73e1b3fe6127f2284f19aa71c531d7e6c910444e5cdc7821a59513209d0564736f6c634300081a0033",
		"opcodes": "PUSH1 0x80 PUSH1 0x40 MSTORE CALLVALUE DUP1 ISZERO PUSH1 0xE JUMPI PUSH0 DUP1 REVERT JUMPDEST POP PUSH2 0x2040 DUP1 PUSH2 0x1C PUSH0 CODECOPY PUSH0 RETURN INVALID PUSH1 0x80 PUSH1 0x40 MSTORE PUSH1 0x4 CALLDATASIZE LT PUSH2 0x6F JUMPI PUSH0 CALLDATALOAD PUSH1 0xE0 SHR DUP1 PUSH4 0x935A619E GT PUSH2 0x4D JUMPI DUP1 PUSH4 0x935A619E EQ PUSH2 0xED JUMPI DUP1 PUSH4 0xC20162D4 EQ PUSH2 0x115 JUMPI DUP1 PUSH4 0xCF801035 EQ PUSH2 0x151 JUMPI DUP1 PUSH4 0xE7FCC918 EQ PUSH2 0x16D JUMPI PUSH2 0x6F JUMP JUMPDEST DUP1 PUSH4 0x52218D90 EQ PUSH2 0x73 JUMPI DUP1 PUSH4 0x549CC7B8 EQ PUSH2 0x9B JUMPI DUP1 PUSH4 0x6F9B65F0 EQ PUSH2 0xD7 JUMPI JUMPDEST PUSH0 DUP1 REVERT JUMPDEST CALLVALUE DUP1 ISZERO PUSH2 0x7E JUMPI PUSH0 DUP1 REVERT JUMPDEST POP PUSH2 0x99 PUSH1 0x4 DUP1 CALLDATASIZE SUB DUP2 ADD SWAP1 PUSH2 0x94 SWAP2 SWAP1 PUSH2 0x13EA JUMP JUMPDEST PUSH2 0x1A9 JUMP JUMPDEST STOP JUMPDEST CALLVALUE DUP1 ISZERO PUSH2 0xA6 JUMPI PUSH0 DUP1 REVERT JUMPDEST POP PUSH2 0xC1 PUSH1 0x4 DUP1 CALLDATASIZE SUB DUP2 ADD SWAP1 PUSH2 0xBC SWAP2 SWAP1 PUSH2 0x13EA JUMP JUMPDEST PUSH2 0x3A3 JUMP JUMPDEST PUSH1 0x40 MLOAD PUSH2 0xCE SWAP2 SWAP1 PUSH2 0x142F JUMP JUMPDEST PUSH1 0x40 MLOAD DUP1 SWAP2 SUB SWAP1 RETURN JUMPDEST CALLVALUE DUP1 ISZERO PUSH2 0xE2 JUMPI PUSH0 DUP1 REVERT JUMPDEST POP PUSH2 0xEB PUSH2 0x3C0 JUMP JUMPDEST STOP JUMPDEST CALLVALUE DUP1 ISZERO PUSH2 0xF8 JUMPI PUSH0 DUP1 REVERT JUMPDEST POP PUSH2 0x113 PUSH1 0x4 DUP1 CALLDATASIZE SUB DUP2 ADD SWAP1 PUSH2 0x10E SWAP2 SWAP1 PUSH2 0x15F2 JUMP JUMPDEST PUSH2 0x4D2 JUMP JUMPDEST STOP JUMPDEST CALLVALUE DUP1 ISZERO PUSH2 0x120 JUMPI PUSH0 DUP1 REVERT JUMPDEST POP PUSH2 0x13B PUSH1 0x4 DUP1 CALLDATASIZE SUB DUP2 ADD SWAP1 PUSH2 0x136 SWAP2 SWAP1 PUSH2 0x165E JUMP JUMPDEST PUSH2 0x7C4 JUMP JUMPDEST PUSH1 0x40 MLOAD PUSH2 0x148 SWAP2 SWAP1 PUSH2 0x16FC JUMP JUMPDEST PUSH1 0x40 MLOAD DUP1 SWAP2 SUB SWAP1 RETURN JUMPDEST PUSH2 0x16B PUSH1 0x4 DUP1 CALLDATASIZE SUB DUP2 ADD SWAP1 PUSH2 0x166 SWAP2 SWAP1 PUSH2 0x171C JUMP JUMPDEST PUSH2 0xB15 JUMP JUMPDEST STOP JUMPDEST CALLVALUE DUP1 ISZERO PUSH2 0x178 JUMPI PUSH0 DUP1 REVERT JUMPDEST POP PUSH2 0x193 PUSH1 0x4 DUP1 CALLDATASIZE SUB DUP2 ADD SWAP1 PUSH2 0x18E SWAP2 SWAP1 PUSH2 0x13EA JUMP JUMPDEST PUSH2 0xE72 JUMP JUMPDEST PUSH1 0x40 MLOAD PUSH2 0x1A0 SWAP2 SWAP1 PUSH2 0x16FC JUMP JUMPDEST PUSH1 0x40 MLOAD DUP1 SWAP2 SUB SWAP1 RETURN JUMPDEST PUSH1 0x1 PUSH0 DUP3 PUSH20 0xFFFFFFFFFFFFFFFFFFFFFFFFFFFFFFFFFFFFFFFF AND PUSH20 0xFFFFFFFFFFFFFFFFFFFFFFFFFFFFFFFFFFFFFFFF AND DUP2 MSTORE PUSH1 0x20 ADD SWAP1 DUP2 MSTORE PUSH1 0x20 ADD PUSH0 KECCAK256 PUSH0 SWAP1 SLOAD SWAP1 PUSH2 0x100 EXP SWAP1 DIV PUSH1 0xFF AND PUSH2 0x232 JUMPI PUSH1 0x40 MLOAD PUSH32 0x8C379A000000000000000000000000000000000000000000000000000000000 DUP2 MSTORE PUSH1 0x4 ADD PUSH2 0x229 SWAP1 PUSH2 0x17C0 JUMP JUMPDEST PUSH1 0x40 MLOAD DUP1 SWAP2 SUB SWAP1 REVERT JUMPDEST PUSH0 DUP1 DUP3 PUSH20 0xFFFFFFFFFFFFFFFFFFFFFFFFFFFFFFFFFFFFFFFF AND PUSH20 0xFFFFFFFFFFFFFFFFFFFFFFFFFFFFFFFFFFFFFFFF AND DUP2 MSTORE PUSH1 0x20 ADD SWAP1 DUP2 MSTORE PUSH1 0x20 ADD PUSH0 KECCAK256 PUSH1 0x3 ADD SLOAD PUSH0 DUP1 DUP4 PUSH20 0xFFFFFFFFFFFFFFFFFFFFFFFFFFFFFFFFFFFFFFFF AND PUSH20 0xFFFFFFFFFFFFFFFFFFFFFFFFFFFFFFFFFFFFFFFF AND DUP2 MSTORE PUSH1 0x20 ADD SWAP1 DUP2 MSTORE PUSH1 0x20 ADD PUSH0 KECCAK256 PUSH1 0x2 ADD SLOAD PUSH2 0x2BC SWAP2 SWAP1 PUSH2 0x180B JUMP JUMPDEST TIMESTAMP GT PUSH2 0x2FD JUMPI PUSH1 0x40 MLOAD PUSH32 0x8C379A000000000000000000000000000000000000000000000000000000000 DUP2 MSTORE PUSH1 0x4 ADD PUSH2 0x2F4 SWAP1 PUSH2 0x1888 JUMP JUMPDEST PUSH1 0x40 MLOAD DUP1 SWAP2 SUB SWAP1 REVERT JUMPDEST PUSH1 0x1 PUSH0 DUP1 DUP4 PUSH20 0xFFFFFFFFFFFFFFFFFFFFFFFFFFFFFFFFFFFFFFFF AND PUSH20 0xFFFFFFFFFFFFFFFFFFFFFFFFFFFFFFFFFFFFFFFF AND DUP2 MSTORE PUSH1 0x20 ADD SWAP1 DUP2 MSTORE PUSH1 0x20 ADD PUSH0 KECCAK256 PUSH1 0x4 ADD PUSH0 PUSH2 0x100 EXP DUP2 SLOAD DUP2 PUSH1 0xFF MUL NOT AND SWAP1 DUP4 ISZERO ISZERO MUL OR SWAP1 SSTORE POP PUSH2 0x35D DUP2 PUSH2 0x1055 JUMP JUMPDEST DUP1 PUSH20 0xFFFFFFFFFFFFFFFFFFFFFFFFFFFFFFFFFFFFFFFF AND PUSH32 0x16346F65ADF8D84422B57AD74CB5607BF6C9E55C3C1FEA66344057E5BBA8A7EE PUSH1 0x40 MLOAD PUSH1 0x40 MLOAD DUP1 SWAP2 SUB SWAP1 LOG2 POP JUMP JUMPDEST PUSH1 0x1 PUSH1 0x20 MSTORE DUP1 PUSH0 MSTORE PUSH1 0x40 PUSH0 KECCAK256 PUSH0 SWAP2 POP SLOAD SWAP1 PUSH2 0x100 EXP SWAP1 DIV PUSH1 0xFF AND DUP2 JUMP JUMPDEST PUSH1 0x1 PUSH0 CALLER PUSH20 0xFFFFFFFFFFFFFFFFFFFFFFFFFFFFFFFFFFFFFFFF AND PUSH20 0xFFFFFFFFFFFFFFFFFFFFFFFFFFFFFFFFFFFFFFFF AND DUP2 MSTORE PUSH1 0x20 ADD SWAP1 DUP2 MSTORE PUSH1 0x20 ADD PUSH0 KECCAK256 PUSH0 SWAP1 SLOAD SWAP1 PUSH2 0x100 EXP SWAP1 DIV PUSH1 0xFF AND PUSH2 0x449 JUMPI PUSH1 0x40 MLOAD PUSH32 0x8C379A000000000000000000000000000000000000000000000000000000000 DUP2 MSTORE PUSH1 0x4 ADD PUSH2 0x440 SWAP1 PUSH2 0x17C0 JUMP JUMPDEST PUSH1 0x40 MLOAD DUP1 SWAP2 SUB SWAP1 REVERT JUMPDEST TIMESTAMP PUSH0 DUP1 CALLER PUSH20 0xFFFFFFFFFFFFFFFFFFFFFFFFFFFFFFFFFFFFFFFF AND PUSH20 0xFFFFFFFFFFFFFFFFFFFFFFFFFFFFFFFFFFFFFFFF AND DUP2 MSTORE PUSH1 0x20 ADD SWAP1 DUP2 MSTORE PUSH1 0x20 ADD PUSH0 KECCAK256 PUSH1 0x2 ADD DUP2 SWAP1 SSTORE POP CALLER PUSH20 0xFFFFFFFFFFFFFFFFFFFFFFFFFFFFFFFFFFFFFFFF AND PUSH32 0x59646F34B02235D7A2502144EC7804574D19422C78DBD9B73B2F04D6B7286A96 PUSH1 0x40 MLOAD PUSH1 0x40 MLOAD DUP1 SWAP2 SUB SWAP1 LOG2 JUMP JUMPDEST PUSH1 0x1 PUSH0 CALLER PUSH20 0xFFFFFFFFFFFFFFFFFFFFFFFFFFFFFFFFFFFFFFFF AND PUSH20 0xFFFFFFFFFFFFFFFFFFFFFFFFFFFFFFFFFFFFFFFF AND DUP2 MSTORE PUSH1 0x20 ADD SWAP1 DUP2 MSTORE PUSH1 0x20 ADD PUSH0 KECCAK256 PUSH0 SWAP1 SLOAD SWAP1 PUSH2 0x100 EXP SWAP1 DIV PUSH1 0xFF AND PUSH2 0x55B JUMPI PUSH1 0x40 MLOAD PUSH32 0x8C379A000000000000000000000000000000000000000000000000000000000 DUP2 MSTORE PUSH1 0x4 ADD PUSH2 0x552 SWAP1 PUSH2 0x18F0 JUMP JUMPDEST PUSH1 0x40 MLOAD DUP1 SWAP2 SUB SWAP1 REVERT JUMPDEST PUSH0 DUP3 GT DUP1 ISZERO PUSH2 0x56B JUMPI POP PUSH1 0x64 DUP3 GT ISZERO JUMPDEST PUSH2 0x5AA JUMPI PUSH1 0x40 MLOAD PUSH32 0x8C379A000000000000000000000000000000000000000000000000000000000 DUP2 MSTORE PUSH1 0x4 ADD PUSH2 0x5A1 SWAP1 PUSH2 0x1958 JUMP JUMPDEST PUSH1 0x40 MLOAD DUP1 SWAP2 SUB SWAP1 REVERT JUMPDEST PUSH0 DUP1 JUMPDEST PUSH0 DUP1 CALLER PUSH20 0xFFFFFFFFFFFFFFFFFFFFFFFFFFFFFFFFFFFFFFFF AND PUSH20 0xFFFFFFFFFFFFFFFFFFFFFFFFFFFFFFFFFFFFFFFF AND DUP2 MSTORE PUSH1 0x20 ADD SWAP1 DUP2 MSTORE PUSH1 0x20 ADD PUSH0 KECCAK256 PUSH1 0x6 ADD DUP1 SLOAD SWAP1 POP DUP2 LT ISZERO PUSH2 0x672 JUMPI PUSH0 DUP1 CALLER PUSH20 0xFFFFFFFFFFFFFFFFFFFFFFFFFFFFFFFFFFFFFFFF AND PUSH20 0xFFFFFFFFFFFFFFFFFFFFFFFFFFFFFFFFFFFFFFFF AND DUP2 MSTORE PUSH1 0x20 ADD SWAP1 DUP2 MSTORE PUSH1 0x20 ADD PUSH0 KECCAK256 PUSH1 0x6 ADD DUP2 DUP2 SLOAD DUP2 LT PUSH2 0x648 JUMPI PUSH2 0x647 PUSH2 0x1976 JUMP JUMPDEST JUMPDEST SWAP1 PUSH0 MSTORE PUSH1 0x20 PUSH0 KECCAK256 SWAP1 PUSH1 0x3 MUL ADD PUSH1 0x1 ADD SLOAD DUP3 PUSH2 0x663 SWAP2 SWAP1 PUSH2 0x180B JUMP JUMPDEST SWAP2 POP DUP1 DUP1 PUSH1 0x1 ADD SWAP2 POP POP PUSH2 0x5AD JUMP JUMPDEST POP PUSH1 0x64 DUP4 DUP3 PUSH2 0x681 SWAP2 SWAP1 PUSH2 0x180B JUMP JUMPDEST GT ISZERO PUSH2 0x6C2 JUMPI PUSH1 0x40 MLOAD PUSH32 0x8C379A000000000000000000000000000000000000000000000000000000000 DUP2 MSTORE PUSH1 0x4 ADD PUSH2 0x6B9 SWAP1 PUSH2 0x19ED JUMP JUMPDEST PUSH1 0x40 MLOAD DUP1 SWAP2 SUB SWAP1 REVERT JUMPDEST PUSH0 DUP1 CALLER PUSH20 0xFFFFFFFFFFFFFFFFFFFFFFFFFFFFFFFFFFFFFFFF AND PUSH20 0xFFFFFFFFFFFFFFFFFFFFFFFFFFFFFFFFFFFFFFFF AND DUP2 MSTORE PUSH1 0x20 ADD SWAP1 DUP2 MSTORE PUSH1 0x20 ADD PUSH0 KECCAK256 PUSH1 0x6 ADD PUSH1 0x40 MLOAD DUP1 PUSH1 0x60 ADD PUSH1 0x40 MSTORE DUP1 DUP7 PUSH20 0xFFFFFFFFFFFFFFFFFFFFFFFFFFFFFFFFFFFFFFFF AND DUP2 MSTORE PUSH1 0x20 ADD DUP6 DUP2 MSTORE PUSH1 0x20 ADD DUP5 DUP2 MSTORE POP SWAP1 DUP1 PUSH1 0x1 DUP2 SLOAD ADD DUP1 DUP3 SSTORE DUP1 SWAP2 POP POP PUSH1 0x1 SWAP1 SUB SWAP1 PUSH0 MSTORE PUSH1 0x20 PUSH0 KECCAK256 SWAP1 PUSH1 0x3 MUL ADD PUSH0 SWAP1 SWAP2 SWAP1 SWAP2 SWAP1 SWAP2 POP PUSH0 DUP3 ADD MLOAD DUP2 PUSH0 ADD PUSH0 PUSH2 0x100 EXP DUP2 SLOAD DUP2 PUSH20 0xFFFFFFFFFFFFFFFFFFFFFFFFFFFFFFFFFFFFFFFF MUL NOT AND SWAP1 DUP4 PUSH20 0xFFFFFFFFFFFFFFFFFFFFFFFFFFFFFFFFFFFFFFFF AND MUL OR SWAP1 SSTORE POP PUSH1 0x20 DUP3 ADD MLOAD DUP2 PUSH1 0x1 ADD SSTORE PUSH1 0x40 DUP3 ADD MLOAD DUP2 PUSH1 0x2 ADD SWAP1 DUP2 PUSH2 0x7BB SWAP2 SWAP1 PUSH2 0x1C05 JUMP JUMPDEST POP POP POP POP POP POP POP JUMP JUMPDEST PUSH1 0x60 PUSH1 0x1 PUSH0 DUP5 PUSH20 0xFFFFFFFFFFFFFFFFFFFFFFFFFFFFFFFFFFFFFFFF AND PUSH20 0xFFFFFFFFFFFFFFFFFFFFFFFFFFFFFFFFFFFFFFFF AND DUP2 MSTORE PUSH1 0x20 ADD SWAP1 DUP2 MSTORE PUSH1 0x20 ADD PUSH0 KECCAK256 PUSH0 SWAP1 SLOAD SWAP1 PUSH2 0x100 EXP SWAP1 DIV PUSH1 0xFF AND PUSH2 0x84F JUMPI PUSH1 0x40 MLOAD PUSH32 0x8C379A000000000000000000000000000000000000000000000000000000000 DUP2 MSTORE PUSH1 0x4 ADD PUSH2 0x846 SWAP1 PUSH2 0x17C0 JUMP JUMPDEST PUSH1 0x40 MLOAD DUP1 SWAP2 SUB SWAP1 REVERT JUMPDEST PUSH0 DUP1 DUP5 PUSH20 0xFFFFFFFFFFFFFFFFFFFFFFFFFFFFFFFFFFFFFFFF AND PUSH20 0xFFFFFFFFFFFFFFFFFFFFFFFFFFFFFFFFFFFFFFFF AND DUP2 MSTORE PUSH1 0x20 ADD SWAP1 DUP2 MSTORE PUSH1 0x20 ADD PUSH0 KECCAK256 PUSH1 0x4 ADD PUSH0 SWAP1 SLOAD SWAP1 PUSH2 0x100 EXP SWAP1 DIV PUSH1 0xFF AND PUSH2 0x8DA JUMPI PUSH1 0x40 MLOAD PUSH32 0x8C379A000000000000000000000000000000000000000000000000000000000 DUP2 MSTORE PUSH1 0x4 ADD PUSH2 0x8D1 SWAP1 PUSH2 0x1D1E JUMP JUMPDEST PUSH1 0x40 MLOAD DUP1 SWAP2 SUB SWAP1 REVERT JUMPDEST PUSH0 JUMPDEST PUSH0 DUP1 DUP6 PUSH20 0xFFFFFFFFFFFFFFFFFFFFFFFFFFFFFFFFFFFFFFFF AND PUSH20 0xFFFFFFFFFFFFFFFFFFFFFFFFFFFFFFFFFFFFFFFF AND DUP2 MSTORE PUSH1 0x20 ADD SWAP1 DUP2 MSTORE PUSH1 0x20 ADD PUSH0 KECCAK256 PUSH1 0x6 ADD DUP1 SLOAD SWAP1 POP DUP2 LT ISZERO PUSH2 0xAD3 JUMPI DUP3 PUSH20 0xFFFFFFFFFFFFFFFFFFFFFFFFFFFFFFFFFFFFFFFF AND PUSH0 DUP1 DUP7 PUSH20 0xFFFFFFFFFFFFFFFFFFFFFFFFFFFFFFFFFFFFFFFF AND PUSH20 0xFFFFFFFFFFFFFFFFFFFFFFFFFFFFFFFFFFFFFFFF AND DUP2 MSTORE PUSH1 0x20 ADD SWAP1 DUP2 MSTORE PUSH1 0x20 ADD PUSH0 KECCAK256 PUSH1 0x6 ADD DUP3 DUP2 SLOAD DUP2 LT PUSH2 0x98E JUMPI PUSH2 0x98D PUSH2 0x1976 JUMP JUMPDEST JUMPDEST SWAP1 PUSH0 MSTORE PUSH1 0x20 PUSH0 KECCAK256 SWAP1 PUSH1 0x3 MUL ADD PUSH0 ADD PUSH0 SWAP1 SLOAD SWAP1 PUSH2 0x100 EXP SWAP1 DIV PUSH20 0xFFFFFFFFFFFFFFFFFFFFFFFFFFFFFFFFFFFFFFFF AND PUSH20 0xFFFFFFFFFFFFFFFFFFFFFFFFFFFFFFFFFFFFFFFF AND SUB PUSH2 0xAC6 JUMPI PUSH0 DUP1 DUP6 PUSH20 0xFFFFFFFFFFFFFFFFFFFFFFFFFFFFFFFFFFFFFFFF AND PUSH20 0xFFFFFFFFFFFFFFFFFFFFFFFFFFFFFFFFFFFFFFFF AND DUP2 MSTORE PUSH1 0x20 ADD SWAP1 DUP2 MSTORE PUSH1 0x20 ADD PUSH0 KECCAK256 PUSH1 0x6 ADD DUP2 DUP2 SLOAD DUP2 LT PUSH2 0xA28 JUMPI PUSH2 0xA27 PUSH2 0x1976 JUMP JUMPDEST JUMPDEST SWAP1 PUSH0 MSTORE PUSH1 0x20 PUSH0 KECCAK256 SWAP1 PUSH1 0x3 MUL ADD PUSH1 0x2 ADD DUP1 SLOAD PUSH2 0xA42 SWAP1 PUSH2 0x1A38 JUMP JUMPDEST DUP1 PUSH1 0x1F ADD PUSH1 0x20 DUP1 SWAP2 DIV MUL PUSH1 0x20 ADD PUSH1 0x40 MLOAD SWAP1 DUP2 ADD PUSH1 0x40 MSTORE DUP1 SWAP3 SWAP2 SWAP1 DUP2 DUP2 MSTORE PUSH1 0x20 ADD DUP3 DUP1 SLOAD PUSH2 0xA6E SWAP1 PUSH2 0x1A38 JUMP JUMPDEST DUP1 ISZERO PUSH2 0xAB9 JUMPI DUP1 PUSH1 0x1F LT PUSH2 0xA90 JUMPI PUSH2 0x100 DUP1 DUP4 SLOAD DIV MUL DUP4 MSTORE SWAP2 PUSH1 0x20 ADD SWAP2 PUSH2 0xAB9 JUMP JUMPDEST DUP3 ADD SWAP2 SWAP1 PUSH0 MSTORE PUSH1 0x20 PUSH0 KECCAK256 SWAP1 JUMPDEST DUP2 SLOAD DUP2 MSTORE SWAP1 PUSH1 0x1 ADD SWAP1 PUSH1 0x20 ADD DUP1 DUP4 GT PUSH2 0xA9C JUMPI DUP3 SWAP1 SUB PUSH1 0x1F AND DUP3 ADD SWAP2 JUMPDEST POP POP POP POP POP SWAP2 POP POP PUSH2 0xB0F JUMP JUMPDEST DUP1 DUP1 PUSH1 0x1 ADD SWAP2 POP POP PUSH2 0x8DC JUMP JUMPDEST POP PUSH1 0x40 MLOAD PUSH32 0x8C379A000000000000000000000000000000000000000000000000000000000 DUP2 MSTORE PUSH1 0x4 ADD PUSH2 0xB06 SWAP1 PUSH2 0x1D86 JUMP JUMPDEST PUSH1 0x40 MLOAD DUP1 SWAP2 SUB SWAP1 REVERT JUMPDEST SWAP3 SWAP2 POP POP JUMP JUMPDEST PUSH1 0x1 PUSH0 CALLER PUSH20 0xFFFFFFFFFFFFFFFFFFFFFFFFFFFFFFFFFFFFFFFF AND PUSH20 0xFFFFFFFFFFFFFFFFFFFFFFFFFFFFFFFFFFFFFFFF AND DUP2 MSTORE PUSH1 0x20 ADD SWAP1 DUP2 MSTORE PUSH1 0x20 ADD PUSH0 KECCAK256 PUSH0 SWAP1 SLOAD SWAP1 PUSH2 0x100 EXP SWAP1 DIV PUSH1 0xFF AND ISZERO PUSH2 0xB9F JUMPI PUSH1 0x40 MLOAD PUSH32 0x8C379A000000000000000000000000000000000000000000000000000000000 DUP2 MSTORE PUSH1 0x4 ADD PUSH2 0xB96 SWAP1 PUSH2 0x1DEE JUMP JUMPDEST PUSH1 0x40 MLOAD DUP1 SWAP2 SUB SWAP1 REVERT JUMPDEST PUSH0 CALLVALUE GT PUSH2 0xBE1 JUMPI PUSH1 0x40 MLOAD PUSH32 0x8C379A000000000000000000000000000000000000000000000000000000000 DUP2 MSTORE PUSH1 0x4 ADD PUSH2 0xBD8 SWAP1 PUSH2 0x1E56 JUMP JUMPDEST PUSH1 0x40 MLOAD DUP1 SWAP2 SUB SWAP1 REVERT JUMPDEST CALLER PUSH0 DUP1 CALLER PUSH20 0xFFFFFFFFFFFFFFFFFFFFFFFFFFFFFFFFFFFFFFFF AND PUSH20 0xFFFFFFFFFFFFFFFFFFFFFFFFFFFFFFFFFFFFFFFF AND DUP2 MSTORE PUSH1 0x20 ADD SWAP1 DUP2 MSTORE PUSH1 0x20 ADD PUSH0 KECCAK256 PUSH0 ADD PUSH0 PUSH2 0x100 EXP DUP2 SLOAD DUP2 PUSH20 0xFFFFFFFFFFFFFFFFFFFFFFFFFFFFFFFFFFFFFFFF MUL NOT AND SWAP1 DUP4 PUSH20 0xFFFFFFFFFFFFFFFFFFFFFFFFFFFFFFFFFFFFFFFF AND MUL OR SWAP1 SSTORE POP CALLVALUE PUSH0 DUP1 CALLER PUSH20 0xFFFFFFFFFFFFFFFFFFFFFFFFFFFFFFFFFFFFFFFF AND PUSH20 0xFFFFFFFFFFFFFFFFFFFFFFFFFFFFFFFFFFFFFFFF AND DUP2 MSTORE PUSH1 0x20 ADD SWAP1 DUP2 MSTORE PUSH1 0x20 ADD PUSH0 KECCAK256 PUSH1 0x1 ADD DUP2 SWAP1 SSTORE POP TIMESTAMP PUSH0 DUP1 CALLER PUSH20 0xFFFFFFFFFFFFFFFFFFFFFFFFFFFFFFFFFFFFFFFF AND PUSH20 0xFFFFFFFFFFFFFFFFFFFFFFFFFFFFFFFFFFFFFFFF AND DUP2 MSTORE PUSH1 0x20 ADD SWAP1 DUP2 MSTORE PUSH1 0x20 ADD PUSH0 KECCAK256 PUSH1 0x2 ADD DUP2 SWAP1 SSTORE POP DUP2 PUSH0 DUP1 CALLER PUSH20 0xFFFFFFFFFFFFFFFFFFFFFFFFFFFFFFFFFFFFFFFF AND PUSH20 0xFFFFFFFFFFFFFFFFFFFFFFFFFFFFFFFFFFFFFFFF AND DUP2 MSTORE PUSH1 0x20 ADD SWAP1 DUP2 MSTORE PUSH1 0x20 ADD PUSH0 KECCAK256 PUSH1 0x3 ADD DUP2 SWAP1 SSTORE POP PUSH0 DUP1 PUSH0 CALLER PUSH20 0xFFFFFFFFFFFFFFFFFFFFFFFFFFFFFFFFFFFFFFFF AND PUSH20 0xFFFFFFFFFFFFFFFFFFFFFFFFFFFFFFFFFFFFFFFF AND DUP2 MSTORE PUSH1 0x20 ADD SWAP1 DUP2 MSTORE PUSH1 0x20 ADD PUSH0 KECCAK256 PUSH1 0x4 ADD PUSH0 PUSH2 0x100 EXP DUP2 SLOAD DUP2 PUSH1 0xFF MUL NOT AND SWAP1 DUP4 ISZERO ISZERO MUL OR SWAP1 SSTORE POP DUP1 PUSH0 DUP1 CALLER PUSH20 0xFFFFFFFFFFFFFFFFFFFFFFFFFFFFFFFFFFFFFFFF AND PUSH20 0xFFFFFFFFFFFFFFFFFFFFFFFFFFFFFFFFFFFFFFFF AND DUP2 MSTORE PUSH1 0x20 ADD SWAP1 DUP2 MSTORE PUSH1 0x20 ADD PUSH0 KECCAK256 PUSH1 0x5 ADD SWAP1 DUP2 PUSH2 0xDCB SWAP2 SWAP1 PUSH2 0x1C05 JUMP JUMPDEST POP PUSH1 0x1 DUP1 PUSH0 CALLER PUSH20 0xFFFFFFFFFFFFFFFFFFFFFFFFFFFFFFFFFFFFFFFF AND PUSH20 0xFFFFFFFFFFFFFFFFFFFFFFFFFFFFFFFFFFFFFFFF AND DUP2 MSTORE PUSH1 0x20 ADD SWAP1 DUP2 MSTORE PUSH1 0x20 ADD PUSH0 KECCAK256 PUSH0 PUSH2 0x100 EXP DUP2 SLOAD DUP2 PUSH1 0xFF MUL NOT AND SWAP1 DUP4 ISZERO ISZERO MUL OR SWAP1 SSTORE POP CALLER PUSH20 0xFFFFFFFFFFFFFFFFFFFFFFFFFFFFFFFFFFFFFFFF AND PUSH32 0xD40DC4A639C90600691397F655099ADBA04D6B763EF2122630EDD47C09F1B6F9 CALLVALUE PUSH1 0x40 MLOAD PUSH2 0xE66 SWAP2 SWAP1 PUSH2 0x1E83 JUMP JUMPDEST PUSH1 0x40 MLOAD DUP1 SWAP2 SUB SWAP1 LOG2 POP POP JUMP JUMPDEST PUSH1 0x60 PUSH1 0x1 PUSH0 DUP4 PUSH20 0xFFFFFFFFFFFFFFFFFFFFFFFFFFFFFFFFFFFFFFFF AND PUSH20 0xFFFFFFFFFFFFFFFFFFFFFFFFFFFFFFFFFFFFFFFF AND DUP2 MSTORE PUSH1 0x20 ADD SWAP1 DUP2 MSTORE PUSH1 0x20 ADD PUSH0 KECCAK256 PUSH0 SWAP1 SLOAD SWAP1 PUSH2 0x100 EXP SWAP1 DIV PUSH1 0xFF AND PUSH2 0xEFD JUMPI PUSH1 0x40 MLOAD PUSH32 0x8C379A000000000000000000000000000000000000000000000000000000000 DUP2 MSTORE PUSH1 0x4 ADD PUSH2 0xEF4 SWAP1 PUSH2 0x17C0 JUMP JUMPDEST PUSH1 0x40 MLOAD DUP1 SWAP2 SUB SWAP1 REVERT JUMPDEST PUSH0 DUP1 DUP4 PUSH20 0xFFFFFFFFFFFFFFFFFFFFFFFFFFFFFFFFFFFFFFFF AND PUSH20 0xFFFFFFFFFFFFFFFFFFFFFFFFFFFFFFFFFFFFFFFF AND DUP2 MSTORE PUSH1 0x20 ADD SWAP1 DUP2 MSTORE PUSH1 0x20 ADD PUSH0 KECCAK256 PUSH1 0x4 ADD PUSH0 SWAP1 SLOAD SWAP1 PUSH2 0x100 EXP SWAP1 DIV PUSH1 0xFF AND PUSH2 0xF88 JUMPI PUSH1 0x40 MLOAD PUSH32 0x8C379A000000000000000000000000000000000000000000000000000000000 DUP2 MSTORE PUSH1 0x4 ADD PUSH2 0xF7F SWAP1 PUSH2 0x1D1E JUMP JUMPDEST PUSH1 0x40 MLOAD DUP1 SWAP2 SUB SWAP1 REVERT JUMPDEST PUSH0 DUP1 DUP4 PUSH20 0xFFFFFFFFFFFFFFFFFFFFFFFFFFFFFFFFFFFFFFFF AND PUSH20 0xFFFFFFFFFFFFFFFFFFFFFFFFFFFFFFFFFFFFFFFF AND DUP2 MSTORE PUSH1 0x20 ADD SWAP1 DUP2 MSTORE PUSH1 0x20 ADD PUSH0 KECCAK256 PUSH1 0x5 ADD DUP1 SLOAD PUSH2 0xFD2 SWAP1 PUSH2 0x1A38 JUMP JUMPDEST DUP1 PUSH1 0x1F ADD PUSH1 0x20 DUP1 SWAP2 DIV MUL PUSH1 0x20 ADD PUSH1 0x40 MLOAD SWAP1 DUP2 ADD PUSH1 0x40 MSTORE DUP1 SWAP3 SWAP2 SWAP1 DUP2 DUP2 MSTORE PUSH1 0x20 ADD DUP3 DUP1 SLOAD PUSH2 0xFFE SWAP1 PUSH2 0x1A38 JUMP JUMPDEST DUP1 ISZERO PUSH2 0x1049 JUMPI DUP1 PUSH1 0x1F LT PUSH2 0x1020 JUMPI PUSH2 0x100 DUP1 DUP4 SLOAD DIV MUL DUP4 MSTORE SWAP2 PUSH1 0x20 ADD SWAP2 PUSH2 0x1049 JUMP JUMPDEST DUP3 ADD SWAP2 SWAP1 PUSH0 MSTORE PUSH1 0x20 PUSH0 KECCAK256 SWAP1 JUMPDEST DUP2 SLOAD DUP2 MSTORE SWAP1 PUSH1 0x1 ADD SWAP1 PUSH1 0x20 ADD DUP1 DUP4 GT PUSH2 0x102C JUMPI DUP3 SWAP1 SUB PUSH1 0x1F AND DUP3 ADD SWAP2 JUMPDEST POP POP POP POP POP SWAP1 POP SWAP2 SWAP1 POP JUMP JUMPDEST PUSH0 DUP1 DUP3 PUSH20 0xFFFFFFFFFFFFFFFFFFFFFFFFFFFFFFFFFFFFFFFF AND PUSH20 0xFFFFFFFFFFFFFFFFFFFFFFFFFFFFFFFFFFFFFFFF AND DUP2 MSTORE PUSH1 0x20 ADD SWAP1 DUP2 MSTORE PUSH1 0x20 ADD PUSH0 KECCAK256 PUSH1 0x4 ADD PUSH0 SWAP1 SLOAD SWAP1 PUSH2 0x100 EXP SWAP1 DIV PUSH1 0xFF AND PUSH2 0x10E0 JUMPI PUSH1 0x40 MLOAD PUSH32 0x8C379A000000000000000000000000000000000000000000000000000000000 DUP2 MSTORE PUSH1 0x4 ADD PUSH2 0x10D7 SWAP1 PUSH2 0x1EE6 JUMP JUMPDEST PUSH1 0x40 MLOAD DUP1 SWAP2 SUB SWAP1 REVERT JUMPDEST PUSH0 DUP1 PUSH0 DUP4 PUSH20 0xFFFFFFFFFFFFFFFFFFFFFFFFFFFFFFFFFFFFFFFF AND PUSH20 0xFFFFFFFFFFFFFFFFFFFFFFFFFFFFFFFFFFFFFFFF AND DUP2 MSTORE PUSH1 0x20 ADD SWAP1 DUP2 MSTORE PUSH1 0x20 ADD PUSH0 KECCAK256 PUSH1 0x1 ADD SLOAD GT PUSH2 0x1161 JUMPI PUSH1 0x40 MLOAD PUSH32 0x8C379A000000000000000000000000000000000000000000000000000000000 DUP2 MSTORE PUSH1 0x4 ADD PUSH2 0x1158 SWAP1 PUSH2 0x1F4E JUMP JUMPDEST PUSH1 0x40 MLOAD DUP1 SWAP2 SUB SWAP1 REVERT JUMPDEST PUSH0 JUMPDEST PUSH0 DUP1 DUP4 PUSH20 0xFFFFFFFFFFFFFFFFFFFFFFFFFFFFFFFFFFFFFFFF AND PUSH20 0xFFFFFFFFFFFFFFFFFFFFFFFFFFFFFFFFFFFFFFFF AND DUP2 MSTORE PUSH1 0x20 ADD SWAP1 DUP2 MSTORE PUSH1 0x20 ADD PUSH0 KECCAK256 PUSH1 0x6 ADD DUP1 SLOAD SWAP1 POP DUP2 LT ISZERO PUSH2 0x1337 JUMPI PUSH0 PUSH1 0x64 PUSH0 DUP1 DUP6 PUSH20 0xFFFFFFFFFFFFFFFFFFFFFFFFFFFFFFFFFFFFFFFF AND PUSH20 0xFFFFFFFFFFFFFFFFFFFFFFFFFFFFFFFFFFFFFFFF AND DUP2 MSTORE PUSH1 0x20 ADD SWAP1 DUP2 MSTORE PUSH1 0x20 ADD PUSH0 KECCAK256 PUSH1 0x6 ADD DUP4 DUP2 SLOAD DUP2 LT PUSH2 0x1201 JUMPI PUSH2 0x1200 PUSH2 0x1976 JUMP JUMPDEST JUMPDEST SWAP1 PUSH0 MSTORE PUSH1 0x20 PUSH0 KECCAK256 SWAP1 PUSH1 0x3 MUL ADD PUSH1 0x1 ADD SLOAD PUSH0 DUP1 DUP7 PUSH20 0xFFFFFFFFFFFFFFFFFFFFFFFFFFFFFFFFFFFFFFFF AND PUSH20 0xFFFFFFFFFFFFFFFFFFFFFFFFFFFFFFFFFFFFFFFF AND DUP2 MSTORE PUSH1 0x20 ADD SWAP1 DUP2 MSTORE PUSH1 0x20 ADD PUSH0 KECCAK256 PUSH1 0x1 ADD SLOAD PUSH2 0x125B SWAP2 SWAP1 PUSH2 0x1F6C JUMP JUMPDEST PUSH2 0x1265 SWAP2 SWAP1 PUSH2 0x1FDA JUMP JUMPDEST SWAP1 POP PUSH0 DUP1 DUP5 PUSH20 0xFFFFFFFFFFFFFFFFFFFFFFFFFFFFFFFFFFFFFFFF AND PUSH20 0xFFFFFFFFFFFFFFFFFFFFFFFFFFFFFFFFFFFFFFFF AND DUP2 MSTORE PUSH1 0x20 ADD SWAP1 DUP2 MSTORE PUSH1 0x20 ADD PUSH0 KECCAK256 PUSH1 0x6 ADD DUP3 DUP2 SLOAD DUP2 LT PUSH2 0x12B8 JUMPI PUSH2 0x12B7 PUSH2 0x1976 JUMP JUMPDEST JUMPDEST SWAP1 PUSH0 MSTORE PUSH1 0x20 PUSH0 KECCAK256 SWAP1 PUSH1 0x3 MUL ADD PUSH0 ADD PUSH0 SWAP1 SLOAD SWAP1 PUSH2 0x100 EXP SWAP1 DIV PUSH20 0xFFFFFFFFFFFFFFFFFFFFFFFFFFFFFFFFFFFFFFFF AND PUSH20 0xFFFFFFFFFFFFFFFFFFFFFFFFFFFFFFFFFFFFFFFF AND PUSH2 0x8FC DUP3 SWAP1 DUP2 ISZERO MUL SWAP1 PUSH1 0x40 MLOAD PUSH0 PUSH1 0x40 MLOAD DUP1 DUP4 SUB DUP2 DUP6 DUP9 DUP9 CALL SWAP4 POP POP POP POP ISZERO DUP1 ISZERO PUSH2 0x1328 JUMPI RETURNDATASIZE PUSH0 DUP1 RETURNDATACOPY RETURNDATASIZE PUSH0 REVERT JUMPDEST POP POP DUP1 DUP1 PUSH1 0x1 ADD SWAP2 POP POP PUSH2 0x1163 JUMP JUMPDEST POP PUSH0 DUP1 PUSH0 DUP4 PUSH20 0xFFFFFFFFFFFFFFFFFFFFFFFFFFFFFFFFFFFFFFFF AND PUSH20 0xFFFFFFFFFFFFFFFFFFFFFFFFFFFFFFFFFFFFFFFF AND DUP2 MSTORE PUSH1 0x20 ADD SWAP1 DUP2 MSTORE PUSH1 0x20 ADD PUSH0 KECCAK256 PUSH1 0x1 ADD DUP2 SWAP1 SSTORE POP POP JUMP JUMPDEST PUSH0 PUSH1 0x40 MLOAD SWAP1 POP SWAP1 JUMP JUMPDEST PUSH0 DUP1 REVERT JUMPDEST PUSH0 DUP1 REVERT JUMPDEST PUSH0 PUSH20 0xFFFFFFFFFFFFFFFFFFFFFFFFFFFFFFFFFFFFFFFF DUP3 AND SWAP1 POP SWAP2 SWAP1 POP JUMP JUMPDEST PUSH0 PUSH2 0x13B9 DUP3 PUSH2 0x1390 JUMP JUMPDEST SWAP1 POP SWAP2 SWAP1 POP JUMP JUMPDEST PUSH2 0x13C9 DUP2 PUSH2 0x13AF JUMP JUMPDEST DUP2 EQ PUSH2 0x13D3 JUMPI PUSH0 DUP1 REVERT JUMPDEST POP JUMP JUMPDEST PUSH0 DUP2 CALLDATALOAD SWAP1 POP PUSH2 0x13E4 DUP2 PUSH2 0x13C0 JUMP JUMPDEST SWAP3 SWAP2 POP POP JUMP JUMPDEST PUSH0 PUSH1 0x20 DUP3 DUP5 SUB SLT ISZERO PUSH2 0x13FF JUMPI PUSH2 0x13FE PUSH2 0x1388 JUMP JUMPDEST JUMPDEST PUSH0 PUSH2 0x140C DUP5 DUP3 DUP6 ADD PUSH2 0x13D6 JUMP JUMPDEST SWAP2 POP POP SWAP3 SWAP2 POP POP JUMP JUMPDEST PUSH0 DUP2 ISZERO ISZERO SWAP1 POP SWAP2 SWAP1 POP JUMP JUMPDEST PUSH2 0x1429 DUP2 PUSH2 0x1415 JUMP JUMPDEST DUP3 MSTORE POP POP JUMP JUMPDEST PUSH0 PUSH1 0x20 DUP3 ADD SWAP1 POP PUSH2 0x1442 PUSH0 DUP4 ADD DUP5 PUSH2 0x1420 JUMP JUMPDEST SWAP3 SWAP2 POP POP JUMP JUMPDEST PUSH0 PUSH2 0x1452 DUP3 PUSH2 0x1390 JUMP JUMPDEST SWAP1 POP SWAP2 SWAP1 POP JUMP JUMPDEST PUSH2 0x1462 DUP2 PUSH2 0x1448 JUMP JUMPDEST DUP2 EQ PUSH2 0x146C JUMPI PUSH0 DUP1 REVERT JUMPDEST POP JUMP JUMPDEST PUSH0 DUP2 CALLDATALOAD SWAP1 POP PUSH2 0x147D DUP2 PUSH2 0x1459 JUMP JUMPDEST SWAP3 SWAP2 POP POP JUMP JUMPDEST PUSH0 DUP2 SWAP1 POP SWAP2 SWAP1 POP JUMP JUMPDEST PUSH2 0x1495 DUP2 PUSH2 0x1483 JUMP JUMPDEST DUP2 EQ PUSH2 0x149F JUMPI PUSH0 DUP1 REVERT JUMPDEST POP JUMP JUMPDEST PUSH0 DUP2 CALLDATALOAD SWAP1 POP PUSH2 0x14B0 DUP2 PUSH2 0x148C JUMP JUMPDEST SWAP3 SWAP2 POP POP JUMP JUMPDEST PUSH0 DUP1 REVERT JUMPDEST PUSH0 DUP1 REVERT JUMPDEST PUSH0 PUSH1 0x1F NOT PUSH1 0x1F DUP4 ADD AND SWAP1 POP SWAP2 SWAP1 POP JUMP JUMPDEST PUSH32 0x4E487B7100000000000000000000000000000000000000000000000000000000 PUSH0 MSTORE PUSH1 0x41 PUSH1 0x4 MSTORE PUSH1 0x24 PUSH0 REVERT JUMPDEST PUSH2 0x1504 DUP3 PUSH2 0x14BE JUMP JUMPDEST DUP2 ADD DUP2 DUP2 LT PUSH8 0xFFFFFFFFFFFFFFFF DUP3 GT OR ISZERO PUSH2 0x1523 JUMPI PUSH2 0x1522 PUSH2 0x14CE JUMP JUMPDEST JUMPDEST DUP1 PUSH1 0x40 MSTORE POP POP POP JUMP JUMPDEST PUSH0 PUSH2 0x1535 PUSH2 0x137F JUMP JUMPDEST SWAP1 POP PUSH2 0x1541 DUP3 DUP3 PUSH2 0x14FB JUMP JUMPDEST SWAP2 SWAP1 POP JUMP JUMPDEST PUSH0 PUSH8 0xFFFFFFFFFFFFFFFF DUP3 GT ISZERO PUSH2 0x1560 JUMPI PUSH2 0x155F PUSH2 0x14CE JUMP JUMPDEST JUMPDEST PUSH2 0x1569 DUP3 PUSH2 0x14BE JUMP JUMPDEST SWAP1 POP PUSH1 0x20 DUP2 ADD SWAP1 POP SWAP2 SWAP1 POP JUMP JUMPDEST DUP3 DUP2 DUP4 CALLDATACOPY PUSH0 DUP4 DUP4 ADD MSTORE POP POP POP JUMP JUMPDEST PUSH0 PUSH2 0x1596 PUSH2 0x1591 DUP5 PUSH2 0x1546 JUMP JUMPDEST PUSH2 0x152C JUMP JUMPDEST SWAP1 POP DUP3 DUP2 MSTORE PUSH1 0x20 DUP2 ADD DUP5 DUP5 DUP5 ADD GT ISZERO PUSH2 0x15B2 JUMPI PUSH2 0x15B1 PUSH2 0x14BA JUMP JUMPDEST JUMPDEST PUSH2 0x15BD DUP5 DUP3 DUP6 PUSH2 0x1576 JUMP JUMPDEST POP SWAP4 SWAP3 POP POP POP JUMP JUMPDEST PUSH0 DUP3 PUSH1 0x1F DUP4 ADD SLT PUSH2 0x15D9 JUMPI PUSH2 0x15D8 PUSH2 0x14B6 JUMP JUMPDEST JUMPDEST DUP2 CALLDATALOAD PUSH2 0x15E9 DUP5 DUP3 PUSH1 0x20 DUP7 ADD PUSH2 0x1584 JUMP JUMPDEST SWAP2 POP POP SWAP3 SWAP2 POP POP JUMP JUMPDEST PUSH0 DUP1 PUSH0 PUSH1 0x60 DUP5 DUP7 SUB SLT ISZERO PUSH2 0x1609 JUMPI PUSH2 0x1608 PUSH2 0x1388 JUMP JUMPDEST JUMPDEST PUSH0 PUSH2 0x1616 DUP7 DUP3 DUP8 ADD PUSH2 0x146F JUMP JUMPDEST SWAP4 POP POP PUSH1 0x20 PUSH2 0x1627 DUP7 DUP3 DUP8 ADD PUSH2 0x14A2 JUMP JUMPDEST SWAP3 POP POP PUSH1 0x40 DUP5 ADD CALLDATALOAD PUSH8 0xFFFFFFFFFFFFFFFF DUP2 GT ISZERO PUSH2 0x1648 JUMPI PUSH2 0x1647 PUSH2 0x138C JUMP JUMPDEST JUMPDEST PUSH2 0x1654 DUP7 DUP3 DUP8 ADD PUSH2 0x15C5 JUMP JUMPDEST SWAP2 POP POP SWAP3 POP SWAP3 POP SWAP3 JUMP JUMPDEST PUSH0 DUP1 PUSH1 0x40 DUP4 DUP6 SUB SLT ISZERO PUSH2 0x1674 JUMPI PUSH2 0x1673 PUSH2 0x1388 JUMP JUMPDEST JUMPDEST PUSH0 PUSH2 0x1681 DUP6 DUP3 DUP7 ADD PUSH2 0x13D6 JUMP JUMPDEST SWAP3 POP POP PUSH1 0x20 PUSH2 0x1692 DUP6 DUP3 DUP7 ADD PUSH2 0x13D6 JUMP JUMPDEST SWAP2 POP POP SWAP3 POP SWAP3 SWAP1 POP JUMP JUMPDEST PUSH0 DUP2 MLOAD SWAP1 POP SWAP2 SWAP1 POP JUMP JUMPDEST PUSH0 DUP3 DUP3 MSTORE PUSH1 0x20 DUP3 ADD SWAP1 POP SWAP3 SWAP2 POP POP JUMP JUMPDEST DUP3 DUP2 DUP4 MCOPY PUSH0 DUP4 DUP4 ADD MSTORE POP POP POP JUMP JUMPDEST PUSH0 PUSH2 0x16CE DUP3 PUSH2 0x169C JUMP JUMPDEST PUSH2 0x16D8 DUP2 DUP6 PUSH2 0x16A6 JUMP JUMPDEST SWAP4 POP PUSH2 0x16E8 DUP2 DUP6 PUSH1 0x20 DUP7 ADD PUSH2 0x16B6 JUMP JUMPDEST PUSH2 0x16F1 DUP2 PUSH2 0x14BE JUMP JUMPDEST DUP5 ADD SWAP2 POP POP SWAP3 SWAP2 POP POP JUMP JUMPDEST PUSH0 PUSH1 0x20 DUP3 ADD SWAP1 POP DUP2 DUP2 SUB PUSH0 DUP4 ADD MSTORE PUSH2 0x1714 DUP2 DUP5 PUSH2 0x16C4 JUMP JUMPDEST SWAP1 POP SWAP3 SWAP2 POP POP JUMP JUMPDEST PUSH0 DUP1 PUSH1 0x40 DUP4 DUP6 SUB SLT ISZERO PUSH2 0x1732 JUMPI PUSH2 0x1731 PUSH2 0x1388 JUMP JUMPDEST JUMPDEST PUSH0 PUSH2 0x173F DUP6 DUP3 DUP7 ADD PUSH2 0x14A2 JUMP JUMPDEST SWAP3 POP POP PUSH1 0x20 DUP4 ADD CALLDATALOAD PUSH8 0xFFFFFFFFFFFFFFFF DUP2 GT ISZERO PUSH2 0x1760 JUMPI PUSH2 0x175F PUSH2 0x138C JUMP JUMPDEST JUMPDEST PUSH2 0x176C DUP6 DUP3 DUP7 ADD PUSH2 0x15C5 JUMP JUMPDEST SWAP2 POP POP SWAP3 POP SWAP3 SWAP1 POP JUMP JUMPDEST PUSH32 0x4E6F2077696C6C20666F756E6421000000000000000000000000000000000000 PUSH0 DUP3 ADD MSTORE POP JUMP JUMPDEST PUSH0 PUSH2 0x17AA PUSH1 0xE DUP4 PUSH2 0x16A6 JUMP JUMPDEST SWAP2 POP PUSH2 0x17B5 DUP3 PUSH2 0x1776 JUMP JUMPDEST PUSH1 0x20 DUP3 ADD SWAP1 POP SWAP2 SWAP1 POP JUMP JUMPDEST PUSH0 PUSH1 0x20 DUP3 ADD SWAP1 POP DUP2 DUP2 SUB PUSH0 DUP4 ADD MSTORE PUSH2 0x17D7 DUP2 PUSH2 0x179E JUMP JUMPDEST SWAP1 POP SWAP2 SWAP1 POP JUMP JUMPDEST PUSH32 0x4E487B7100000000000000000000000000000000000000000000000000000000 PUSH0 MSTORE PUSH1 0x11 PUSH1 0x4 MSTORE PUSH1 0x24 PUSH0 REVERT JUMPDEST PUSH0 PUSH2 0x1815 DUP3 PUSH2 0x1483 JUMP JUMPDEST SWAP2 POP PUSH2 0x1820 DUP4 PUSH2 0x1483 JUMP JUMPDEST SWAP3 POP DUP3 DUP3 ADD SWAP1 POP DUP1 DUP3 GT ISZERO PUSH2 0x1838 JUMPI PUSH2 0x1837 PUSH2 0x17DE JUMP JUMPDEST JUMPDEST SWAP3 SWAP2 POP POP JUMP JUMPDEST PUSH32 0x4F776E6572206973207374696C6C20616C697665210000000000000000000000 PUSH0 DUP3 ADD MSTORE POP JUMP JUMPDEST PUSH0 PUSH2 0x1872 PUSH1 0x15 DUP4 PUSH2 0x16A6 JUMP JUMPDEST SWAP2 POP PUSH2 0x187D DUP3 PUSH2 0x183E JUMP JUMPDEST PUSH1 0x20 DUP3 ADD SWAP1 POP SWAP2 SWAP1 POP JUMP JUMPDEST PUSH0 PUSH1 0x20 DUP3 ADD SWAP1 POP DUP2 DUP2 SUB PUSH0 DUP4 ADD MSTORE PUSH2 0x189F DUP2 PUSH2 0x1866 JUMP JUMPDEST SWAP1 POP SWAP2 SWAP1 POP JUMP JUMPDEST PUSH32 0x596F75206E65656420746F2063726561746520612077696C6C20666972737400 PUSH0 DUP3 ADD MSTORE POP JUMP JUMPDEST PUSH0 PUSH2 0x18DA PUSH1 0x1F DUP4 PUSH2 0x16A6 JUMP JUMPDEST SWAP2 POP PUSH2 0x18E5 DUP3 PUSH2 0x18A6 JUMP JUMPDEST PUSH1 0x20 DUP3 ADD SWAP1 POP SWAP2 SWAP1 POP JUMP JUMPDEST PUSH0 PUSH1 0x20 DUP3 ADD SWAP1 POP DUP2 DUP2 SUB PUSH0 DUP4 ADD MSTORE PUSH2 0x1907 DUP2 PUSH2 0x18CE JUMP JUMPDEST SWAP1 POP SWAP2 SWAP1 POP JUMP JUMPDEST PUSH32 0x496E76616C69642070657263656E746167650000000000000000000000000000 PUSH0 DUP3 ADD MSTORE POP JUMP JUMPDEST PUSH0 PUSH2 0x1942 PUSH1 0x12 DUP4 PUSH2 0x16A6 JUMP JUMPDEST SWAP2 POP PUSH2 0x194D DUP3 PUSH2 0x190E JUMP JUMPDEST PUSH1 0x20 DUP3 ADD SWAP1 POP SWAP2 SWAP1 POP JUMP JUMPDEST PUSH0 PUSH1 0x20 DUP3 ADD SWAP1 POP DUP2 DUP2 SUB PUSH0 DUP4 ADD MSTORE PUSH2 0x196F DUP2 PUSH2 0x1936 JUMP JUMPDEST SWAP1 POP SWAP2 SWAP1 POP JUMP JUMPDEST PUSH32 0x4E487B7100000000000000000000000000000000000000000000000000000000 PUSH0 MSTORE PUSH1 0x32 PUSH1 0x4 MSTORE PUSH1 0x24 PUSH0 REVERT JUMPDEST PUSH32 0x546F74616C20616C6C6F636174696F6E20657863656564732031303025000000 PUSH0 DUP3 ADD MSTORE POP JUMP JUMPDEST PUSH0 PUSH2 0x19D7 PUSH1 0x1D DUP4 PUSH2 0x16A6 JUMP JUMPDEST SWAP2 POP PUSH2 0x19E2 DUP3 PUSH2 0x19A3 JUMP JUMPDEST PUSH1 0x20 DUP3 ADD SWAP1 POP SWAP2 SWAP1 POP JUMP JUMPDEST PUSH0 PUSH1 0x20 DUP3 ADD SWAP1 POP DUP2 DUP2 SUB PUSH0 DUP4 ADD MSTORE PUSH2 0x1A04 DUP2 PUSH2 0x19CB JUMP JUMPDEST SWAP1 POP SWAP2 SWAP1 POP JUMP JUMPDEST PUSH32 0x4E487B7100000000000000000000000000000000000000000000000000000000 PUSH0 MSTORE PUSH1 0x22 PUSH1 0x4 MSTORE PUSH1 0x24 PUSH0 REVERT JUMPDEST PUSH0 PUSH1 0x2 DUP3 DIV SWAP1 POP PUSH1 0x1 DUP3 AND DUP1 PUSH2 0x1A4F JUMPI PUSH1 0x7F DUP3 AND SWAP2 POP JUMPDEST PUSH1 0x20 DUP3 LT DUP2 SUB PUSH2 0x1A62 JUMPI PUSH2 0x1A61 PUSH2 0x1A0B JUMP JUMPDEST JUMPDEST POP SWAP2 SWAP1 POP JUMP JUMPDEST PUSH0 DUP2 SWAP1 POP DUP2 PUSH0 MSTORE PUSH1 0x20 PUSH0 KECCAK256 SWAP1 POP SWAP2 SWAP1 POP JUMP JUMPDEST PUSH0 PUSH1 0x20 PUSH1 0x1F DUP4 ADD DIV SWAP1 POP SWAP2 SWAP1 POP JUMP JUMPDEST PUSH0 DUP3 DUP3 SHL SWAP1 POP SWAP3 SWAP2 POP POP JUMP JUMPDEST PUSH0 PUSH1 0x8 DUP4 MUL PUSH2 0x1AC4 PUSH32 0xFFFFFFFFFFFFFFFFFFFFFFFFFFFFFFFFFFFFFFFFFFFFFFFFFFFFFFFFFFFFFFFF DUP3 PUSH2 0x1A89 JUMP JUMPDEST PUSH2 0x1ACE DUP7 DUP4 PUSH2 0x1A89 JUMP JUMPDEST SWAP6 POP DUP1 NOT DUP5 AND SWAP4 POP DUP1 DUP7 AND DUP5 OR SWAP3 POP POP POP SWAP4 SWAP3 POP POP POP JUMP JUMPDEST PUSH0 DUP2 SWAP1 POP SWAP2 SWAP1 POP JUMP JUMPDEST PUSH0 PUSH2 0x1B09 PUSH2 0x1B04 PUSH2 0x1AFF DUP5 PUSH2 0x1483 JUMP JUMPDEST PUSH2 0x1AE6 JUMP JUMPDEST PUSH2 0x1483 JUMP JUMPDEST SWAP1 POP SWAP2 SWAP1 POP JUMP JUMPDEST PUSH0 DUP2 SWAP1 POP SWAP2 SWAP1 POP JUMP JUMPDEST PUSH2 0x1B22 DUP4 PUSH2 0x1AEF JUMP JUMPDEST PUSH2 0x1B36 PUSH2 0x1B2E DUP3 PUSH2 0x1B10 JUMP JUMPDEST DUP5 DUP5 SLOAD PUSH2 0x1A95 JUMP JUMPDEST DUP3 SSTORE POP POP POP POP JUMP JUMPDEST PUSH0 SWAP1 JUMP JUMPDEST PUSH2 0x1B4A PUSH2 0x1B3E JUMP JUMPDEST PUSH2 0x1B55 DUP2 DUP5 DUP5 PUSH2 0x1B19 JUMP JUMPDEST POP POP POP JUMP JUMPDEST JUMPDEST DUP2 DUP2 LT ISZERO PUSH2 0x1B78 JUMPI PUSH2 0x1B6D PUSH0 DUP3 PUSH2 0x1B42 JUMP JUMPDEST PUSH1 0x1 DUP2 ADD SWAP1 POP PUSH2 0x1B5B JUMP JUMPDEST POP POP JUMP JUMPDEST PUSH1 0x1F DUP3 GT ISZERO PUSH2 0x1BBD JUMPI PUSH2 0x1B8E DUP2 PUSH2 0x1A68 JUMP JUMPDEST PUSH2 0x1B97 DUP5 PUSH2 0x1A7A JUMP JUMPDEST DUP2 ADD PUSH1 0x20 DUP6 LT ISZERO PUSH2 0x1BA6 JUMPI DUP2 SWAP1 POP JUMPDEST PUSH2 0x1BBA PUSH2 0x1BB2 DUP6 PUSH2 0x1A7A JUMP JUMPDEST DUP4 ADD DUP3 PUSH2 0x1B5A JUMP JUMPDEST POP POP JUMPDEST POP POP POP JUMP JUMPDEST PUSH0 DUP3 DUP3 SHR SWAP1 POP SWAP3 SWAP2 POP POP JUMP JUMPDEST PUSH0 PUSH2 0x1BDD PUSH0 NOT DUP5 PUSH1 0x8 MUL PUSH2 0x1BC2 JUMP JUMPDEST NOT DUP1 DUP4 AND SWAP2 POP POP SWAP3 SWAP2 POP POP JUMP JUMPDEST PUSH0 PUSH2 0x1BF5 DUP4 DUP4 PUSH2 0x1BCE JUMP JUMPDEST SWAP2 POP DUP3 PUSH1 0x2 MUL DUP3 OR SWAP1 POP SWAP3 SWAP2 POP POP JUMP JUMPDEST PUSH2 0x1C0E DUP3 PUSH2 0x169C JUMP JUMPDEST PUSH8 0xFFFFFFFFFFFFFFFF DUP2 GT ISZERO PUSH2 0x1C27 JUMPI PUSH2 0x1C26 PUSH2 0x14CE JUMP JUMPDEST JUMPDEST PUSH2 0x1C31 DUP3 SLOAD PUSH2 0x1A38 JUMP JUMPDEST PUSH2 0x1C3C DUP3 DUP3 DUP6 PUSH2 0x1B7C JUMP JUMPDEST PUSH0 PUSH1 0x20 SWAP1 POP PUSH1 0x1F DUP4 GT PUSH1 0x1 DUP2 EQ PUSH2 0x1C6D JUMPI PUSH0 DUP5 ISZERO PUSH2 0x1C5B JUMPI DUP3 DUP8 ADD MLOAD SWAP1 POP JUMPDEST PUSH2 0x1C65 DUP6 DUP3 PUSH2 0x1BEA JUMP JUMPDEST DUP7 SSTORE POP PUSH2 0x1CCC JUMP JUMPDEST PUSH1 0x1F NOT DUP5 AND PUSH2 0x1C7B DUP7 PUSH2 0x1A68 JUMP JUMPDEST PUSH0 JUMPDEST DUP3 DUP2 LT ISZERO PUSH2 0x1CA2 JUMPI DUP5 DUP10 ADD MLOAD DUP3 SSTORE PUSH1 0x1 DUP3 ADD SWAP2 POP PUSH1 0x20 DUP6 ADD SWAP5 POP PUSH1 0x20 DUP2 ADD SWAP1 POP PUSH2 0x1C7D JUMP JUMPDEST DUP7 DUP4 LT ISZERO PUSH2 0x1CBF JUMPI DUP5 DUP10 ADD MLOAD PUSH2 0x1CBB PUSH1 0x1F DUP10 AND DUP3 PUSH2 0x1BCE JUMP JUMPDEST DUP4 SSTORE POP JUMPDEST PUSH1 0x1 PUSH1 0x2 DUP9 MUL ADD DUP9 SSTORE POP POP POP JUMPDEST POP POP POP POP POP POP JUMP JUMPDEST PUSH32 0x57696C6C20686173206E6F74206265656E206578656375746564207965740000 PUSH0 DUP3 ADD MSTORE POP JUMP JUMPDEST PUSH0 PUSH2 0x1D08 PUSH1 0x1E DUP4 PUSH2 0x16A6 JUMP JUMPDEST SWAP2 POP PUSH2 0x1D13 DUP3 PUSH2 0x1CD4 JUMP JUMPDEST PUSH1 0x20 DUP3 ADD SWAP1 POP SWAP2 SWAP1 POP JUMP JUMPDEST PUSH0 PUSH1 0x20 DUP3 ADD SWAP1 POP DUP2 DUP2 SUB PUSH0 DUP4 ADD MSTORE PUSH2 0x1D35 DUP2 PUSH2 0x1CFC JUMP JUMPDEST SWAP1 POP SWAP2 SWAP1 POP JUMP JUMPDEST PUSH32 0x42656E6566696369617279206E6F7420666F756E640000000000000000000000 PUSH0 DUP3 ADD MSTORE POP JUMP JUMPDEST PUSH0 PUSH2 0x1D70 PUSH1 0x15 DUP4 PUSH2 0x16A6 JUMP JUMPDEST SWAP2 POP PUSH2 0x1D7B DUP3 PUSH2 0x1D3C JUMP JUMPDEST PUSH1 0x20 DUP3 ADD SWAP1 POP SWAP2 SWAP1 POP JUMP JUMPDEST PUSH0 PUSH1 0x20 DUP3 ADD SWAP1 POP DUP2 DUP2 SUB PUSH0 DUP4 ADD MSTORE PUSH2 0x1D9D DUP2 PUSH2 0x1D64 JUMP JUMPDEST SWAP1 POP SWAP2 SWAP1 POP JUMP JUMPDEST PUSH32 0x596F7520616C7265616479206861766520612077696C6C210000000000000000 PUSH0 DUP3 ADD MSTORE POP JUMP JUMPDEST PUSH0 PUSH2 0x1DD8 PUSH1 0x18 DUP4 PUSH2 0x16A6 JUMP JUMPDEST SWAP2 POP PUSH2 0x1DE3 DUP3 PUSH2 0x1DA4 JUMP JUMPDEST PUSH1 0x20 DUP3 ADD SWAP1 POP SWAP2 SWAP1 POP JUMP JUMPDEST PUSH0 PUSH1 0x20 DUP3 ADD SWAP1 POP DUP2 DUP2 SUB PUSH0 DUP4 ADD MSTORE PUSH2 0x1E05 DUP2 PUSH2 0x1DCC JUMP JUMPDEST SWAP1 POP SWAP2 SWAP1 POP JUMP JUMPDEST PUSH32 0x4D757374206C6F636B2045544821000000000000000000000000000000000000 PUSH0 DUP3 ADD MSTORE POP JUMP JUMPDEST PUSH0 PUSH2 0x1E40 PUSH1 0xE DUP4 PUSH2 0x16A6 JUMP JUMPDEST SWAP2 POP PUSH2 0x1E4B DUP3 PUSH2 0x1E0C JUMP JUMPDEST PUSH1 0x20 DUP3 ADD SWAP1 POP SWAP2 SWAP1 POP JUMP JUMPDEST PUSH0 PUSH1 0x20 DUP3 ADD SWAP1 POP DUP2 DUP2 SUB PUSH0 DUP4 ADD MSTORE PUSH2 0x1E6D DUP2 PUSH2 0x1E34 JUMP JUMPDEST SWAP1 POP SWAP2 SWAP1 POP JUMP JUMPDEST PUSH2 0x1E7D DUP2 PUSH2 0x1483 JUMP JUMPDEST DUP3 MSTORE POP POP JUMP JUMPDEST PUSH0 PUSH1 0x20 DUP3 ADD SWAP1 POP PUSH2 0x1E96 PUSH0 DUP4 ADD DUP5 PUSH2 0x1E74 JUMP JUMPDEST SWAP3 SWAP2 POP POP JUMP JUMPDEST PUSH32 0x57696C6C206E6F74206578656375746564207965740000000000000000000000 PUSH0 DUP3 ADD MSTORE POP JUMP JUMPDEST PUSH0 PUSH2 0x1ED0 PUSH1 0x15 DUP4 PUSH2 0x16A6 JUMP JUMPDEST SWAP2 POP PUSH2 0x1EDB DUP3 PUSH2 0x1E9C JUMP JUMPDEST PUSH1 0x20 DUP3 ADD SWAP1 POP SWAP2 SWAP1 POP JUMP JUMPDEST PUSH0 PUSH1 0x20 DUP3 ADD SWAP1 POP DUP2 DUP2 SUB PUSH0 DUP4 ADD MSTORE PUSH2 0x1EFD DUP2 PUSH2 0x1EC4 JUMP JUMPDEST SWAP1 POP SWAP2 SWAP1 POP JUMP JUMPDEST PUSH32 0x4E6F2045544820696E20636F6E74726163740000000000000000000000000000 PUSH0 DUP3 ADD MSTORE POP JUMP JUMPDEST PUSH0 PUSH2 0x1F38 PUSH1 0x12 DUP4 PUSH2 0x16A6 JUMP JUMPDEST SWAP2 POP PUSH2 0x1F43 DUP3 PUSH2 0x1F04 JUMP JUMPDEST PUSH1 0x20 DUP3 ADD SWAP1 POP SWAP2 SWAP1 POP JUMP JUMPDEST PUSH0 PUSH1 0x20 DUP3 ADD SWAP1 POP DUP2 DUP2 SUB PUSH0 DUP4 ADD MSTORE PUSH2 0x1F65 DUP2 PUSH2 0x1F2C JUMP JUMPDEST SWAP1 POP SWAP2 SWAP1 POP JUMP JUMPDEST PUSH0 PUSH2 0x1F76 DUP3 PUSH2 0x1483 JUMP JUMPDEST SWAP2 POP PUSH2 0x1F81 DUP4 PUSH2 0x1483 JUMP JUMPDEST SWAP3 POP DUP3 DUP3 MUL PUSH2 0x1F8F DUP2 PUSH2 0x1483 JUMP JUMPDEST SWAP2 POP DUP3 DUP3 DIV DUP5 EQ DUP4 ISZERO OR PUSH2 0x1FA6 JUMPI PUSH2 0x1FA5 PUSH2 0x17DE JUMP JUMPDEST JUMPDEST POP SWAP3 SWAP2 POP POP JUMP JUMPDEST PUSH32 0x4E487B7100000000000000000000000000000000000000000000000000000000 PUSH0 MSTORE PUSH1 0x12 PUSH1 0x4 MSTORE PUSH1 0x24 PUSH0 REVERT JUMPDEST PUSH0 PUSH2 0x1FE4 DUP3 PUSH2 0x1483 JUMP JUMPDEST SWAP2 POP PUSH2 0x1FEF DUP4 PUSH2 0x1483 JUMP JUMPDEST SWAP3 POP DUP3 PUSH2 0x1FFF JUMPI PUSH2 0x1FFE PUSH2 0x1FAD JUMP JUMPDEST JUMPDEST DUP3 DUP3 DIV SWAP1 POP SWAP3 SWAP2 POP POP JUMP INVALID LOG2 PUSH5 0x6970667358 0x22 SLT KECCAK256 GAS MCOPY PUSH20 0xE1B3FE6127F2284F19AA71C531D7E6C910444E5C 0xDC PUSH25 0x21A59513209D0564736F6C634300081A003300000000000000 "
	},
	"abi": [
		{
			"inputs": [
				{
					"internalType": "address payable",
					"name": "_wallet",
					"type": "address"
				},
				{
					"internalType": "uint256",
					"name": "_percentage",
					"type": "uint256"
				},
				{
					"internalType": "string",
					"name": "_saleDeedIpfsHash",
					"type": "string"
				}
			],
			"name": "addBeneficiary",
			"outputs": [],
			"stateMutability": "nonpayable",
			"type": "function"
		},
		{
			"inputs": [
				{
					"internalType": "address",
					"name": "user",
					"type": "address"
				}
			],
			"name": "checkDeath",
			"outputs": [],
			"stateMutability": "nonpayable",
			"type": "function"
		},
		{
			"inputs": [],
			"name": "confirmAlive",
			"outputs": [],
			"stateMutability": "nonpayable",
			"type": "function"
		},
		{
			"inputs": [
				{
					"internalType": "uint256",
					"name": "_proofOfLifeInterval",
					"type": "uint256"
				},
				{
					"internalType": "string",
					"name": "_notarizedWillIpfsHash",
					"type": "string"
				}
			],
			"name": "createWill",
			"outputs": [],
			"stateMutability": "payable",
			"type": "function"
		},
		{
			"anonymous": false,
			"inputs": [
				{
					"indexed": true,
					"internalType": "address",
					"name": "testator",
					"type": "address"
				}
			],
			"name": "ProofOfLifeConfirmed",
			"type": "event"
		},
		{
			"anonymous": false,
			"inputs": [
				{
					"indexed": true,
					"internalType": "address",
					"name": "testator",
					"type": "address"
				},
				{
					"indexed": false,
					"internalType": "uint256",
					"name": "lockedFunds",
					"type": "uint256"
				}
			],
			"name": "WillCreated",
			"type": "event"
		},
		{
			"anonymous": false,
			"inputs": [
				{
					"indexed": true,
					"internalType": "address",
					"name": "testator",
					"type": "address"
				}
			],
			"name": "WillExecuted",
			"type": "event"
		},
		{
			"inputs": [
				{
					"internalType": "address",
					"name": "user",
					"type": "address"
				}
			],
			"name": "getNotarizedWill",
			"outputs": [
				{
					"internalType": "string",
					"name": "",
					"type": "string"
				}
			],
			"stateMutability": "view",
			"type": "function"
		},
		{
			"inputs": [
				{
					"internalType": "address",
					"name": "user",
					"type": "address"
				},
				{
					"internalType": "address",
					"name": "_beneficiary",
					"type": "address"
				}
			],
			"name": "getSaleDeed",
			"outputs": [
				{
					"internalType": "string",
					"name": "",
					"type": "string"
				}
			],
			"stateMutability": "view",
			"type": "function"
		},
		{
			"inputs": [
				{
					"internalType": "address",
					"name": "",
					"type": "address"
				}
			],
			"name": "hasWill",
			"outputs": [
				{
					"internalType": "bool",
					"name": "",
					"type": "bool"
				}
			],
			"stateMutability": "view",
			"type": "function"
		}
	],
	"storageLayout": {
		"storage": [
			{
				"astId": 30,
				"contract": "MultiWillContract.sol:MultiWillContract",
				"label": "wills",
				"offset": 0,
				"slot": "0",
				"type": "t_mapping(t_address,t_struct(Will)25_storage)"
			},
			{
				"astId": 34,
				"contract": "MultiWillContract.sol:MultiWillContract",
				"label": "hasWill",
				"offset": 0,
				"slot": "1",
				"type": "t_mapping(t_address,t_bool)"
			}
		],
		"types": {
			"t_address": {
				"encoding": "inplace",
				"label": "address",
				"numberOfBytes": "20"
			},
			"t_address_payable": {
				"encoding": "inplace",
				"label": "address payable",
				"numberOfBytes": "20"
			},
			"t_array(t_struct(Beneficiary)8_storage)dyn_storage": {
				"base": "t_struct(Beneficiary)8_storage",
				"encoding": "dynamic_array",
				"label": "struct MultiWillContract.Beneficiary[]",
				"numberOfBytes": "32"
			},
			"t_bool": {
				"encoding": "inplace",
				"label": "bool",
				"numberOfBytes": "1"
			},
			"t_mapping(t_address,t_bool)": {
				"encoding": "mapping",
				"key": "t_address",
				"label": "mapping(address => bool)",
				"numberOfBytes": "32",
				"value": "t_bool"
			},
			"t_mapping(t_address,t_struct(Will)25_storage)": {
				"encoding": "mapping",
				"key": "t_address",
				"label": "mapping(address => struct MultiWillContract.Will)",
				"numberOfBytes": "32",
				"value": "t_struct(Will)25_storage"
			},
			"t_string_storage": {
				"encoding": "bytes",
				"label": "string",
				"numberOfBytes": "32"
			},
			"t_struct(Beneficiary)8_storage": {
				"encoding": "inplace",
				"label": "struct MultiWillContract.Beneficiary",
				"members": [
					{
						"astId": 3,
						"contract": "MultiWillContract.sol:MultiWillContract",
						"label": "wallet",
						"offset": 0,
						"slot": "0",
						"type": "t_address_payable"
					},
					{
						"astId": 5,
						"contract": "MultiWillContract.sol:MultiWillContract",
						"label": "percentage",
						"offset": 0,
						"slot": "1",
						"type": "t_uint256"
					},
					{
						"astId": 7,
						"contract": "MultiWillContract.sol:MultiWillContract",
						"label": "saleDeedIpfsHash",
						"offset": 0,
						"slot": "2",
						"type": "t_string_storage"
					}
				],
				"numberOfBytes": "96"
			},
			"t_struct(Will)25_storage": {
				"encoding": "inplace",
				"label": "struct MultiWillContract.Will",
				"members": [
					{
						"astId": 10,
						"contract": "MultiWillContract.sol:MultiWillContract",
						"label": "testator",
						"offset": 0,
						"slot": "0",
						"type": "t_address"
					},
					{
						"astId": 12,
						"contract": "MultiWillContract.sol:MultiWillContract",
						"label": "totalLocked",
						"offset": 0,
						"slot": "1",
						"type": "t_uint256"
					},
					{
						"astId": 14,
						"contract": "MultiWillContract.sol:MultiWillContract",
						"label": "lastAliveTime",
						"offset": 0,
						"slot": "2",
						"type": "t_uint256"
					},
					{
						"astId": 16,
						"contract": "MultiWillContract.sol:MultiWillContract",
						"label": "proofOfLifeInterval",
						"offset": 0,
						"slot": "3",
						"type": "t_uint256"
					},
					{
						"astId": 18,
						"contract": "MultiWillContract.sol:MultiWillContract",
						"label": "isDeceased",
						"offset": 0,
						"slot": "4",
						"type": "t_bool"
					},
					{
						"astId": 20,
						"contract": "MultiWillContract.sol:MultiWillContract",
						"label": "notarizedWillIpfsHash",
						"offset": 0,
						"slot": "5",
						"type": "t_string_storage"
					},
					{
						"astId": 24,
						"contract": "MultiWillContract.sol:MultiWillContract",
						"label": "beneficiaries",
						"offset": 0,
						"slot": "6",
						"type": "t_array(t_struct(Beneficiary)8_storage)dyn_storage"
					}
				],
				"numberOfBytes": "224"
			},
			"t_uint256": {
				"encoding": "inplace",
				"label": "uint256",
				"numberOfBytes": "32"
			}
		}
	},
	"web3Deploy": "var multiwillcontractContract = new web3.eth.Contract([{\"anonymous\":false,\"inputs\":[{\"indexed\":true,\"internalType\":\"address\",\"name\":\"testator\",\"type\":\"address\"}],\"name\":\"ProofOfLifeConfirmed\",\"type\":\"event\"},{\"anonymous\":false,\"inputs\":[{\"indexed\":true,\"internalType\":\"address\",\"name\":\"testator\",\"type\":\"address\"},{\"indexed\":false,\"internalType\":\"uint256\",\"name\":\"lockedFunds\",\"type\":\"uint256\"}],\"name\":\"WillCreated\",\"type\":\"event\"},{\"anonymous\":false,\"inputs\":[{\"indexed\":true,\"internalType\":\"address\",\"name\":\"testator\",\"type\":\"address\"}],\"name\":\"WillExecuted\",\"type\":\"event\"},{\"inputs\":[{\"internalType\":\"address payable\",\"name\":\"_wallet\",\"type\":\"address\"},{\"internalType\":\"uint256\",\"name\":\"_percentage\",\"type\":\"uint256\"},{\"internalType\":\"string\",\"name\":\"_saleDeedIpfsHash\",\"type\":\"string\"}],\"name\":\"addBeneficiary\",\"outputs\":[],\"stateMutability\":\"nonpayable\",\"type\":\"function\"},{\"inputs\":[{\"internalType\":\"address\",\"name\":\"user\",\"type\":\"address\"}],\"name\":\"checkDeath\",\"outputs\":[],\"stateMutability\":\"nonpayable\",\"type\":\"function\"},{\"inputs\":[],\"name\":\"confirmAlive\",\"outputs\":[],\"stateMutability\":\"nonpayable\",\"type\":\"function\"},{\"inputs\":[{\"internalType\":\"uint256\",\"name\":\"_proofOfLifeInterval\",\"type\":\"uint256\"},{\"internalType\":\"string\",\"name\":\"_notarizedWillIpfsHash\",\"type\":\"string\"}],\"name\":\"createWill\",\"outputs\":[],\"stateMutability\":\"payable\",\"type\":\"function\"},{\"inputs\":[{\"internalType\":\"address\",\"name\":\"user\",\"type\":\"address\"}],\"name\":\"getNotarizedWill\",\"outputs\":[{\"internalType\":\"string\",\"name\":\"\",\"type\":\"string\"}],\"stateMutability\":\"view\",\"type\":\"function\"},{\"inputs\":[{\"internalType\":\"address\",\"name\":\"user\",\"type\":\"address\"},{\"internalType\":\"address\",\"name\":\"_beneficiary\",\"type\":\"address\"}],\"name\":\"getSaleDeed\",\"outputs\":[{\"internalType\":\"string\",\"name\":\"\",\"type\":\"string\"}],\"stateMutability\":\"view\",\"type\":\"function\"},{\"inputs\":[{\"internalType\":\"address\",\"name\":\"\",\"type\":\"address\"}],\"name\":\"hasWill\",\"outputs\":[{\"internalType\":\"bool\",\"name\":\"\",\"type\":\"bool\"}],\"stateMutability\":\"view\",\"type\":\"function\"}]);\nvar multiwillcontract = multiwillcontractContract.deploy({\n     data: '0x6080604052348015600e575f80fd5b506120408061001c5f395ff3fe60806040526004361061006f575f3560e01c8063935a619e1161004d578063935a619e146100ed578063c20162d414610115578063cf80103514610151578063e7fcc9181461016d5761006f565b806352218d9014610073578063549cc7b81461009b5780636f9b65f0146100d7575b5f80fd5b34801561007e575f80fd5b50610099600480360381019061009491906113ea565b6101a9565b005b3480156100a6575f80fd5b506100c160048036038101906100bc91906113ea565b6103a3565b6040516100ce919061142f565b60405180910390f35b3480156100e2575f80fd5b506100eb6103c0565b005b3480156100f8575f80fd5b50610113600480360381019061010e91906115f2565b6104d2565b005b348015610120575f80fd5b5061013b6004803603810190610136919061165e565b6107c4565b60405161014891906116fc565b60405180910390f35b61016b6004803603810190610166919061171c565b610b15565b005b348015610178575f80fd5b50610193600480360381019061018e91906113ea565b610e72565b6040516101a091906116fc565b60405180910390f35b60015f8273ffffffffffffffffffffffffffffffffffffffff1673ffffffffffffffffffffffffffffffffffffffff1681526020019081526020015f205f9054906101000a900460ff16610232576040517f08c379a0000000000000000000000000000000000000000000000000000000008152600401610229906117c0565b60405180910390fd5b5f808273ffffffffffffffffffffffffffffffffffffffff1673ffffffffffffffffffffffffffffffffffffffff1681526020019081526020015f20600301545f808373ffffffffffffffffffffffffffffffffffffffff1673ffffffffffffffffffffffffffffffffffffffff1681526020019081526020015f20600201546102bc919061180b565b42116102fd576040517f08c379a00000000000000000000000000000000000000000000000000000000081526004016102f490611888565b60405180910390fd5b60015f808373ffffffffffffffffffffffffffffffffffffffff1673ffffffffffffffffffffffffffffffffffffffff1681526020019081526020015f206004015f6101000a81548160ff02191690831515021790555061035d81611055565b8073ffffffffffffffffffffffffffffffffffffffff167f16346f65adf8d84422b57ad74cb5607bf6c9e55c3c1fea66344057e5bba8a7ee60405160405180910390a250565b6001602052805f5260405f205f915054906101000a900460ff1681565b60015f3373ffffffffffffffffffffffffffffffffffffffff1673ffffffffffffffffffffffffffffffffffffffff1681526020019081526020015f205f9054906101000a900460ff16610449576040517f08c379a0000000000000000000000000000000000000000000000000000000008152600401610440906117c0565b60405180910390fd5b425f803373ffffffffffffffffffffffffffffffffffffffff1673ffffffffffffffffffffffffffffffffffffffff1681526020019081526020015f20600201819055503373ffffffffffffffffffffffffffffffffffffffff167f59646f34b02235d7a2502144ec7804574d19422c78dbd9b73b2f04d6b7286a9660405160405180910390a2565b60015f3373ffffffffffffffffffffffffffffffffffffffff1673ffffffffffffffffffffffffffffffffffffffff1681526020019081526020015f205f9054906101000a900460ff1661055b576040517f08c379a0000000000000000000000000000000000000000000000000000000008152600401610552906118f0565b60405180910390fd5b5f8211801561056b575060648211155b6105aa576040517f08c379a00000000000000000000000000000000000000000000000000000000081526004016105a190611958565b60405180910390fd5b5f805b5f803373ffffffffffffffffffffffffffffffffffffffff1673ffffffffffffffffffffffffffffffffffffffff1681526020019081526020015f2060060180549050811015610672575f803373ffffffffffffffffffffffffffffffffffffffff1673ffffffffffffffffffffffffffffffffffffffff1681526020019081526020015f20600601818154811061064857610647611976565b5b905f5260205f2090600302016001015482610663919061180b565b915080806001019150506105ad565b5060648382610681919061180b565b11156106c2576040517f08c379a00000000000000000000000000000000000000000000000000000000081526004016106b9906119ed565b60405180910390fd5b5f803373ffffffffffffffffffffffffffffffffffffffff1673ffffffffffffffffffffffffffffffffffffffff1681526020019081526020015f2060060160405180606001604052808673ffffffffffffffffffffffffffffffffffffffff16815260200185815260200184815250908060018154018082558091505060019003905f5260205f2090600302015f909190919091505f820151815f015f6101000a81548173ffffffffffffffffffffffffffffffffffffffff021916908373ffffffffffffffffffffffffffffffffffffffff1602179055506020820151816001015560408201518160020190816107bb9190611c05565b50505050505050565b606060015f8473ffffffffffffffffffffffffffffffffffffffff1673ffffffffffffffffffffffffffffffffffffffff1681526020019081526020015f205f9054906101000a900460ff1661084f576040517f08c379a0000000000000000000000000000000000000000000000000000000008152600401610846906117c0565b60405180910390fd5b5f808473ffffffffffffffffffffffffffffffffffffffff1673ffffffffffffffffffffffffffffffffffffffff1681526020019081526020015f206004015f9054906101000a900460ff166108da576040517f08c379a00000000000000000000000000000000000000000000000000000000081526004016108d190611d1e565b60405180910390fd5b5f5b5f808573ffffffffffffffffffffffffffffffffffffffff1673ffffffffffffffffffffffffffffffffffffffff1681526020019081526020015f2060060180549050811015610ad3578273ffffffffffffffffffffffffffffffffffffffff165f808673ffffffffffffffffffffffffffffffffffffffff1673ffffffffffffffffffffffffffffffffffffffff1681526020019081526020015f20600601828154811061098e5761098d611976565b5b905f5260205f2090600302015f015f9054906101000a900473ffffffffffffffffffffffffffffffffffffffff1673ffffffffffffffffffffffffffffffffffffffff1603610ac6575f808573ffffffffffffffffffffffffffffffffffffffff1673ffffffffffffffffffffffffffffffffffffffff1681526020019081526020015f206006018181548110610a2857610a27611976565b5b905f5260205f2090600302016002018054610a4290611a38565b80601f0160208091040260200160405190810160405280929190818152602001828054610a6e90611a38565b8015610ab95780601f10610a9057610100808354040283529160200191610ab9565b820191905f5260205f20905b815481529060010190602001808311610a9c57829003601f168201915b5050505050915050610b0f565b80806001019150506108dc565b506040517f08c379a0000000000000000000000000000000000000000000000000000000008152600401610b0690611d86565b60405180910390fd5b92915050565b60015f3373ffffffffffffffffffffffffffffffffffffffff1673ffffffffffffffffffffffffffffffffffffffff1681526020019081526020015f205f9054906101000a900460ff1615610b9f576040517f08c379a0000000000000000000000000000000000000000000000000000000008152600401610b9690611dee565b60405180910390fd5b5f3411610be1576040517f08c379a0000000000000000000000000000000000000000000000000000000008152600401610bd890611e56565b60405180910390fd5b335f803373ffffffffffffffffffffffffffffffffffffffff1673ffffffffffffffffffffffffffffffffffffffff1681526020019081526020015f205f015f6101000a81548173ffffffffffffffffffffffffffffffffffffffff021916908373ffffffffffffffffffffffffffffffffffffffff160217905550345f803373ffffffffffffffffffffffffffffffffffffffff1673ffffffffffffffffffffffffffffffffffffffff1681526020019081526020015f2060010181905550425f803373ffffffffffffffffffffffffffffffffffffffff1673ffffffffffffffffffffffffffffffffffffffff1681526020019081526020015f2060020181905550815f803373ffffffffffffffffffffffffffffffffffffffff1673ffffffffffffffffffffffffffffffffffffffff1681526020019081526020015f20600301819055505f805f3373ffffffffffffffffffffffffffffffffffffffff1673ffffffffffffffffffffffffffffffffffffffff1681526020019081526020015f206004015f6101000a81548160ff021916908315150217905550805f803373ffffffffffffffffffffffffffffffffffffffff1673ffffffffffffffffffffffffffffffffffffffff1681526020019081526020015f206005019081610dcb9190611c05565b506001805f3373ffffffffffffffffffffffffffffffffffffffff1673ffffffffffffffffffffffffffffffffffffffff1681526020019081526020015f205f6101000a81548160ff0219169083151502179055503373ffffffffffffffffffffffffffffffffffffffff167fd40dc4a639c90600691397f655099adba04d6b763ef2122630edd47c09f1b6f934604051610e669190611e83565b60405180910390a25050565b606060015f8373ffffffffffffffffffffffffffffffffffffffff1673ffffffffffffffffffffffffffffffffffffffff1681526020019081526020015f205f9054906101000a900460ff16610efd576040517f08c379a0000000000000000000000000000000000000000000000000000000008152600401610ef4906117c0565b60405180910390fd5b5f808373ffffffffffffffffffffffffffffffffffffffff1673ffffffffffffffffffffffffffffffffffffffff1681526020019081526020015f206004015f9054906101000a900460ff16610f88576040517f08c379a0000000000000000000000000000000000000000000000000000000008152600401610f7f90611d1e565b60405180910390fd5b5f808373ffffffffffffffffffffffffffffffffffffffff1673ffffffffffffffffffffffffffffffffffffffff1681526020019081526020015f206005018054610fd290611a38565b80601f0160208091040260200160405190810160405280929190818152602001828054610ffe90611a38565b80156110495780601f1061102057610100808354040283529160200191611049565b820191905f5260205f20905b81548152906001019060200180831161102c57829003601f168201915b50505050509050919050565b5f808273ffffffffffffffffffffffffffffffffffffffff1673ffffffffffffffffffffffffffffffffffffffff1681526020019081526020015f206004015f9054906101000a900460ff166110e0576040517f08c379a00000000000000000000000000000000000000000000000000000000081526004016110d790611ee6565b60405180910390fd5b5f805f8373ffffffffffffffffffffffffffffffffffffffff1673ffffffffffffffffffffffffffffffffffffffff1681526020019081526020015f206001015411611161576040517f08c379a000000000000000000000000000000000000000000000000000000000815260040161115890611f4e565b60405180910390fd5b5f5b5f808373ffffffffffffffffffffffffffffffffffffffff1673ffffffffffffffffffffffffffffffffffffffff1681526020019081526020015f2060060180549050811015611337575f60645f808573ffffffffffffffffffffffffffffffffffffffff1673ffffffffffffffffffffffffffffffffffffffff1681526020019081526020015f20600601838154811061120157611200611976565b5b905f5260205f209060030201600101545f808673ffffffffffffffffffffffffffffffffffffffff1673ffffffffffffffffffffffffffffffffffffffff1681526020019081526020015f206001015461125b9190611f6c565b6112659190611fda565b90505f808473ffffffffffffffffffffffffffffffffffffffff1673ffffffffffffffffffffffffffffffffffffffff1681526020019081526020015f2060060182815481106112b8576112b7611976565b5b905f5260205f2090600302015f015f9054906101000a900473ffffffffffffffffffffffffffffffffffffffff1673ffffffffffffffffffffffffffffffffffffffff166108fc8290811502906040515f60405180830381858888f19350505050158015611328573d5f803e3d5ffd5b50508080600101915050611163565b505f805f8373ffffffffffffffffffffffffffffffffffffffff1673ffffffffffffffffffffffffffffffffffffffff1681526020019081526020015f206001018190555050565b5f604051905090565b5f80fd5b5f80fd5b5f73ffffffffffffffffffffffffffffffffffffffff82169050919050565b5f6113b982611390565b9050919050565b6113c9816113af565b81146113d3575f80fd5b50565b5f813590506113e4816113c0565b92915050565b5f602082840312156113ff576113fe611388565b5b5f61140c848285016113d6565b91505092915050565b5f8115159050919050565b61142981611415565b82525050565b5f6020820190506114425f830184611420565b92915050565b5f61145282611390565b9050919050565b61146281611448565b811461146c575f80fd5b50565b5f8135905061147d81611459565b92915050565b5f819050919050565b61149581611483565b811461149f575f80fd5b50565b5f813590506114b08161148c565b92915050565b5f80fd5b5f80fd5b5f601f19601f8301169050919050565b7f4e487b71000000000000000000000000000000000000000000000000000000005f52604160045260245ffd5b611504826114be565b810181811067ffffffffffffffff82111715611523576115226114ce565b5b80604052505050565b5f61153561137f565b905061154182826114fb565b919050565b5f67ffffffffffffffff8211156115605761155f6114ce565b5b611569826114be565b9050602081019050919050565b828183375f83830152505050565b5f61159661159184611546565b61152c565b9050828152602081018484840111156115b2576115b16114ba565b5b6115bd848285611576565b509392505050565b5f82601f8301126115d9576115d86114b6565b5b81356115e9848260208601611584565b91505092915050565b5f805f6060848603121561160957611608611388565b5b5f6116168682870161146f565b9350506020611627868287016114a2565b925050604084013567ffffffffffffffff8111156116485761164761138c565b5b611654868287016115c5565b9150509250925092565b5f806040838503121561167457611673611388565b5b5f611681858286016113d6565b9250506020611692858286016113d6565b9150509250929050565b5f81519050919050565b5f82825260208201905092915050565b8281835e5f83830152505050565b5f6116ce8261169c565b6116d881856116a6565b93506116e88185602086016116b6565b6116f1816114be565b840191505092915050565b5f6020820190508181035f83015261171481846116c4565b905092915050565b5f806040838503121561173257611731611388565b5b5f61173f858286016114a2565b925050602083013567ffffffffffffffff8111156117605761175f61138c565b5b61176c858286016115c5565b9150509250929050565b7f4e6f2077696c6c20666f756e64210000000000000000000000000000000000005f82015250565b5f6117aa600e836116a6565b91506117b582611776565b602082019050919050565b5f6020820190508181035f8301526117d78161179e565b9050919050565b7f4e487b71000000000000000000000000000000000000000000000000000000005f52601160045260245ffd5b5f61181582611483565b915061182083611483565b9250828201905080821115611838576118376117de565b5b92915050565b7f4f776e6572206973207374696c6c20616c6976652100000000000000000000005f82015250565b5f6118726015836116a6565b915061187d8261183e565b602082019050919050565b5f6020820190508181035f83015261189f81611866565b9050919050565b7f596f75206e65656420746f2063726561746520612077696c6c206669727374005f82015250565b5f6118da601f836116a6565b91506118e5826118a6565b602082019050919050565b5f6020820190508181035f830152611907816118ce565b9050919050565b7f496e76616c69642070657263656e7461676500000000000000000000000000005f82015250565b5f6119426012836116a6565b915061194d8261190e565b602082019050919050565b5f6020820190508181035f83015261196f81611936565b9050919050565b7f4e487b71000000000000000000000000000000000000000000000000000000005f52603260045260245ffd5b7f546f74616c20616c6c6f636174696f6e206578636565647320313030250000005f82015250565b5f6119d7601d836116a6565b91506119e2826119a3565b602082019050919050565b5f6020820190508181035f830152611a04816119cb565b9050919050565b7f4e487b71000000000000000000000000000000000000000000000000000000005f52602260045260245ffd5b5f6002820490506001821680611a4f57607f821691505b602082108103611a6257611a61611a0b565b5b50919050565b5f819050815f5260205f209050919050565b5f6020601f8301049050919050565b5f82821b905092915050565b5f60088302611ac47fffffffffffffffffffffffffffffffffffffffffffffffffffffffffffffffff82611a89565b611ace8683611a89565b95508019841693508086168417925050509392505050565b5f819050919050565b5f611b09611b04611aff84611483565b611ae6565b611483565b9050919050565b5f819050919050565b611b2283611aef565b611b36611b2e82611b10565b848454611a95565b825550505050565b5f90565b611b4a611b3e565b611b55818484611b19565b505050565b5b81811015611b7857611b6d5f82611b42565b600181019050611b5b565b5050565b601f821115611bbd57611b8e81611a68565b611b9784611a7a565b81016020851015611ba6578190505b611bba611bb285611a7a565b830182611b5a565b50505b505050565b5f82821c905092915050565b5f611bdd5f1984600802611bc2565b1980831691505092915050565b5f611bf58383611bce565b9150826002028217905092915050565b611c0e8261169c565b67ffffffffffffffff811115611c2757611c266114ce565b5b611c318254611a38565b611c3c828285611b7c565b5f60209050601f831160018114611c6d575f8415611c5b578287015190505b611c658582611bea565b865550611ccc565b601f198416611c7b86611a68565b5f5b82811015611ca257848901518255600182019150602085019450602081019050611c7d565b86831015611cbf5784890151611cbb601f891682611bce565b8355505b6001600288020188555050505b505050505050565b7f57696c6c20686173206e6f74206265656e2065786563757465642079657400005f82015250565b5f611d08601e836116a6565b9150611d1382611cd4565b602082019050919050565b5f6020820190508181035f830152611d3581611cfc565b9050919050565b7f42656e6566696369617279206e6f7420666f756e6400000000000000000000005f82015250565b5f611d706015836116a6565b9150611d7b82611d3c565b602082019050919050565b5f6020820190508181035f830152611d9d81611d64565b9050919050565b7f596f7520616c7265616479206861766520612077696c6c2100000000000000005f82015250565b5f611dd86018836116a6565b9150611de382611da4565b602082019050919050565b5f6020820190508181035f830152611e0581611dcc565b9050919050565b7f4d757374206c6f636b20455448210000000000000000000000000000000000005f82015250565b5f611e40600e836116a6565b9150611e4b82611e0c565b602082019050919050565b5f6020820190508181035f830152611e6d81611e34565b9050919050565b611e7d81611483565b82525050565b5f602082019050611e965f830184611e74565b92915050565b7f57696c6c206e6f742065786563757465642079657400000000000000000000005f82015250565b5f611ed06015836116a6565b9150611edb82611e9c565b602082019050919050565b5f6020820190508181035f830152611efd81611ec4565b9050919050565b7f4e6f2045544820696e20636f6e747261637400000000000000000000000000005f82015250565b5f611f386012836116a6565b9150611f4382611f04565b602082019050919050565b5f6020820190508181035f830152611f6581611f2c565b9050919050565b5f611f7682611483565b9150611f8183611483565b9250828202611f8f81611483565b91508282048414831517611fa657611fa56117de565b5b5092915050565b7f4e487b71000000000000000000000000000000000000000000000000000000005f52601260045260245ffd5b5f611fe482611483565b9150611fef83611483565b925082611fff57611ffe611fad565b5b82820490509291505056fea26469706673582212205a5e73e1b3fe6127f2284f19aa71c531d7e6c910444e5cdc7821a59513209d0564736f6c634300081a0033', \n     arguments: [\n     ]\n}).send({\n     from: web3.eth.accounts[0], \n     gas: '4700000'\n   }, function (e, contract){\n    console.log(e, contract);\n    if (typeof contract.address !== 'undefined') {\n         console.log('Contract mined! address: ' + contract.address + ' transactionHash: ' + contract.transactionHash);\n    }\n })",
	"functionHashes": {
		"935a619e": "addBeneficiary(address,uint256,string)",
		"52218d90": "checkDeath(address)",
		"6f9b65f0": "confirmAlive()",
		"cf801035": "createWill(uint256,string)",
		"e7fcc918": "getNotarizedWill(address)",
		"c20162d4": "getSaleDeed(address,address)",
		"549cc7b8": "hasWill(address)"
	},
	"gasEstimates": {
		"Creation": {
			"codeDepositCost": "1651200",
			"executionCost": "1727",
			"totalCost": "1652927"
		},
		"External": {
			"addBeneficiary(address,uint256,string)": "infinite",
			"checkDeath(address)": "infinite",
			"confirmAlive()": "25793",
			"createWill(uint256,string)": "infinite",
			"getNotarizedWill(address)": "infinite",
			"getSaleDeed(address,address)": "infinite",
			"hasWill(address)": "2856"
		},
		"Internal": {
			"executeWill(address)": "infinite"
		}
	},
	"devdoc": {
		"kind": "dev",
		"methods": {
			"addBeneficiary(address,uint256,string)": {
				"details": "Adds a beneficiary to the caller's will.",
				"params": {
					"_percentage": "Share of ETH to be allocated.",
					"_saleDeedIpfsHash": "IPFS hash of the sale deed document assigned to the beneficiary.",
					"_wallet": "Address of the beneficiary."
				}
			},
			"checkDeath(address)": {
				"details": "Checks if a user's proof-of-life interval has expired and executes the will."
			},
			"confirmAlive()": {
				"details": "Allows the owner to confirm they are alive."
			},
			"createWill(uint256,string)": {
				"details": "Creates a new will for the sender.",
				"params": {
					"_notarizedWillIpfsHash": "IPFS hash of the notarized will document.",
					"_proofOfLifeInterval": "Time interval in seconds to confirm alive."
				}
			},
			"getNotarizedWill(address)": {
				"details": "Retrieves a user's notarized will IPFS hash."
			},
			"getSaleDeed(address,address)": {
				"details": "Retrieves a specific beneficiary's assigned sale deed."
			}
		},
		"version": 1
	},
	"userdoc": {
		"kind": "user",
		"methods": {},
		"version": 1
	},
	"Runtime Bytecode": {
		"immutableReferences": {},
		"linkReferences": {},
		"object": "60806040526004361061006f575f3560e01c8063935a619e1161004d578063935a619e146100ed578063c20162d414610115578063cf80103514610151578063e7fcc9181461016d5761006f565b806352218d9014610073578063549cc7b81461009b5780636f9b65f0146100d7575b5f80fd5b34801561007e575f80fd5b50610099600480360381019061009491906113ea565b6101a9565b005b3480156100a6575f80fd5b506100c160048036038101906100bc91906113ea565b6103a3565b6040516100ce919061142f565b60405180910390f35b3480156100e2575f80fd5b506100eb6103c0565b005b3480156100f8575f80fd5b50610113600480360381019061010e91906115f2565b6104d2565b005b348015610120575f80fd5b5061013b6004803603810190610136919061165e565b6107c4565b60405161014891906116fc565b60405180910390f35b61016b6004803603810190610166919061171c565b610b15565b005b348015610178575f80fd5b50610193600480360381019061018e91906113ea565b610e72565b6040516101a091906116fc565b60405180910390f35b60015f8273ffffffffffffffffffffffffffffffffffffffff1673ffffffffffffffffffffffffffffffffffffffff1681526020019081526020015f205f9054906101000a900460ff16610232576040517f08c379a0000000000000000000000000000000000000000000000000000000008152600401610229906117c0565b60405180910390fd5b5f808273ffffffffffffffffffffffffffffffffffffffff1673ffffffffffffffffffffffffffffffffffffffff1681526020019081526020015f20600301545f808373ffffffffffffffffffffffffffffffffffffffff1673ffffffffffffffffffffffffffffffffffffffff1681526020019081526020015f20600201546102bc919061180b565b42116102fd576040517f08c379a00000000000000000000000000000000000000000000000000000000081526004016102f490611888565b60405180910390fd5b60015f808373ffffffffffffffffffffffffffffffffffffffff1673ffffffffffffffffffffffffffffffffffffffff1681526020019081526020015f206004015f6101000a81548160ff02191690831515021790555061035d81611055565b8073ffffffffffffffffffffffffffffffffffffffff167f16346f65adf8d84422b57ad74cb5607bf6c9e55c3c1fea66344057e5bba8a7ee60405160405180910390a250565b6001602052805f5260405f205f915054906101000a900460ff1681565b60015f3373ffffffffffffffffffffffffffffffffffffffff1673ffffffffffffffffffffffffffffffffffffffff1681526020019081526020015f205f9054906101000a900460ff16610449576040517f08c379a0000000000000000000000000000000000000000000000000000000008152600401610440906117c0565b60405180910390fd5b425f803373ffffffffffffffffffffffffffffffffffffffff1673ffffffffffffffffffffffffffffffffffffffff1681526020019081526020015f20600201819055503373ffffffffffffffffffffffffffffffffffffffff167f59646f34b02235d7a2502144ec7804574d19422c78dbd9b73b2f04d6b7286a9660405160405180910390a2565b60015f3373ffffffffffffffffffffffffffffffffffffffff1673ffffffffffffffffffffffffffffffffffffffff1681526020019081526020015f205f9054906101000a900460ff1661055b576040517f08c379a0000000000000000000000000000000000000000000000000000000008152600401610552906118f0565b60405180910390fd5b5f8211801561056b575060648211155b6105aa576040517f08c379a00000000000000000000000000000000000000000000000000000000081526004016105a190611958565b60405180910390fd5b5f805b5f803373ffffffffffffffffffffffffffffffffffffffff1673ffffffffffffffffffffffffffffffffffffffff1681526020019081526020015f2060060180549050811015610672575f803373ffffffffffffffffffffffffffffffffffffffff1673ffffffffffffffffffffffffffffffffffffffff1681526020019081526020015f20600601818154811061064857610647611976565b5b905f5260205f2090600302016001015482610663919061180b565b915080806001019150506105ad565b5060648382610681919061180b565b11156106c2576040517f08c379a00000000000000000000000000000000000000000000000000000000081526004016106b9906119ed565b60405180910390fd5b5f803373ffffffffffffffffffffffffffffffffffffffff1673ffffffffffffffffffffffffffffffffffffffff1681526020019081526020015f2060060160405180606001604052808673ffffffffffffffffffffffffffffffffffffffff16815260200185815260200184815250908060018154018082558091505060019003905f5260205f2090600302015f909190919091505f820151815f015f6101000a81548173ffffffffffffffffffffffffffffffffffffffff021916908373ffffffffffffffffffffffffffffffffffffffff1602179055506020820151816001015560408201518160020190816107bb9190611c05565b50505050505050565b606060015f8473ffffffffffffffffffffffffffffffffffffffff1673ffffffffffffffffffffffffffffffffffffffff1681526020019081526020015f205f9054906101000a900460ff1661084f576040517f08c379a0000000000000000000000000000000000000000000000000000000008152600401610846906117c0565b60405180910390fd5b5f808473ffffffffffffffffffffffffffffffffffffffff1673ffffffffffffffffffffffffffffffffffffffff1681526020019081526020015f206004015f9054906101000a900460ff166108da576040517f08c379a00000000000000000000000000000000000000000000000000000000081526004016108d190611d1e565b60405180910390fd5b5f5b5f808573ffffffffffffffffffffffffffffffffffffffff1673ffffffffffffffffffffffffffffffffffffffff1681526020019081526020015f2060060180549050811015610ad3578273ffffffffffffffffffffffffffffffffffffffff165f808673ffffffffffffffffffffffffffffffffffffffff1673ffffffffffffffffffffffffffffffffffffffff1681526020019081526020015f20600601828154811061098e5761098d611976565b5b905f5260205f2090600302015f015f9054906101000a900473ffffffffffffffffffffffffffffffffffffffff1673ffffffffffffffffffffffffffffffffffffffff1603610ac6575f808573ffffffffffffffffffffffffffffffffffffffff1673ffffffffffffffffffffffffffffffffffffffff1681526020019081526020015f206006018181548110610a2857610a27611976565b5b905f5260205f2090600302016002018054610a4290611a38565b80601f0160208091040260200160405190810160405280929190818152602001828054610a6e90611a38565b8015610ab95780601f10610a9057610100808354040283529160200191610ab9565b820191905f5260205f20905b815481529060010190602001808311610a9c57829003601f168201915b5050505050915050610b0f565b80806001019150506108dc565b506040517f08c379a0000000000000000000000000000000000000000000000000000000008152600401610b0690611d86565b60405180910390fd5b92915050565b60015f3373ffffffffffffffffffffffffffffffffffffffff1673ffffffffffffffffffffffffffffffffffffffff1681526020019081526020015f205f9054906101000a900460ff1615610b9f576040517f08c379a0000000000000000000000000000000000000000000000000000000008152600401610b9690611dee565b60405180910390fd5b5f3411610be1576040517f08c379a0000000000000000000000000000000000000000000000000000000008152600401610bd890611e56565b60405180910390fd5b335f803373ffffffffffffffffffffffffffffffffffffffff1673ffffffffffffffffffffffffffffffffffffffff1681526020019081526020015f205f015f6101000a81548173ffffffffffffffffffffffffffffffffffffffff021916908373ffffffffffffffffffffffffffffffffffffffff160217905550345f803373ffffffffffffffffffffffffffffffffffffffff1673ffffffffffffffffffffffffffffffffffffffff1681526020019081526020015f2060010181905550425f803373ffffffffffffffffffffffffffffffffffffffff1673ffffffffffffffffffffffffffffffffffffffff1681526020019081526020015f2060020181905550815f803373ffffffffffffffffffffffffffffffffffffffff1673ffffffffffffffffffffffffffffffffffffffff1681526020019081526020015f20600301819055505f805f3373ffffffffffffffffffffffffffffffffffffffff1673ffffffffffffffffffffffffffffffffffffffff1681526020019081526020015f206004015f6101000a81548160ff021916908315150217905550805f803373ffffffffffffffffffffffffffffffffffffffff1673ffffffffffffffffffffffffffffffffffffffff1681526020019081526020015f206005019081610dcb9190611c05565b506001805f3373ffffffffffffffffffffffffffffffffffffffff1673ffffffffffffffffffffffffffffffffffffffff1681526020019081526020015f205f6101000a81548160ff0219169083151502179055503373ffffffffffffffffffffffffffffffffffffffff167fd40dc4a639c90600691397f655099adba04d6b763ef2122630edd47c09f1b6f934604051610e669190611e83565b60405180910390a25050565b606060015f8373ffffffffffffffffffffffffffffffffffffffff1673ffffffffffffffffffffffffffffffffffffffff1681526020019081526020015f205f9054906101000a900460ff16610efd576040517f08c379a0000000000000000000000000000000000000000000000000000000008152600401610ef4906117c0565b60405180910390fd5b5f808373ffffffffffffffffffffffffffffffffffffffff1673ffffffffffffffffffffffffffffffffffffffff1681526020019081526020015f206004015f9054906101000a900460ff16610f88576040517f08c379a0000000000000000000000000000000000000000000000000000000008152600401610f7f90611d1e565b60405180910390fd5b5f808373ffffffffffffffffffffffffffffffffffffffff1673ffffffffffffffffffffffffffffffffffffffff1681526020019081526020015f206005018054610fd290611a38565b80601f0160208091040260200160405190810160405280929190818152602001828054610ffe90611a38565b80156110495780601f1061102057610100808354040283529160200191611049565b820191905f5260205f20905b81548152906001019060200180831161102c57829003601f168201915b50505050509050919050565b5f808273ffffffffffffffffffffffffffffffffffffffff1673ffffffffffffffffffffffffffffffffffffffff1681526020019081526020015f206004015f9054906101000a900460ff166110e0576040517f08c379a00000000000000000000000000000000000000000000000000000000081526004016110d790611ee6565b60405180910390fd5b5f805f8373ffffffffffffffffffffffffffffffffffffffff1673ffffffffffffffffffffffffffffffffffffffff1681526020019081526020015f206001015411611161576040517f08c379a000000000000000000000000000000000000000000000000000000000815260040161115890611f4e565b60405180910390fd5b5f5b5f808373ffffffffffffffffffffffffffffffffffffffff1673ffffffffffffffffffffffffffffffffffffffff1681526020019081526020015f2060060180549050811015611337575f60645f808573ffffffffffffffffffffffffffffffffffffffff1673ffffffffffffffffffffffffffffffffffffffff1681526020019081526020015f20600601838154811061120157611200611976565b5b905f5260205f209060030201600101545f808673ffffffffffffffffffffffffffffffffffffffff1673ffffffffffffffffffffffffffffffffffffffff1681526020019081526020015f206001015461125b9190611f6c565b6112659190611fda565b90505f808473ffffffffffffffffffffffffffffffffffffffff1673ffffffffffffffffffffffffffffffffffffffff1681526020019081526020015f2060060182815481106112b8576112b7611976565b5b905f5260205f2090600302015f015f9054906101000a900473ffffffffffffffffffffffffffffffffffffffff1673ffffffffffffffffffffffffffffffffffffffff166108fc8290811502906040515f60405180830381858888f19350505050158015611328573d5f803e3d5ffd5b50508080600101915050611163565b505f805f8373ffffffffffffffffffffffffffffffffffffffff1673ffffffffffffffffffffffffffffffffffffffff1681526020019081526020015f206001018190555050565b5f604051905090565b5f80fd5b5f80fd5b5f73ffffffffffffffffffffffffffffffffffffffff82169050919050565b5f6113b982611390565b9050919050565b6113c9816113af565b81146113d3575f80fd5b50565b5f813590506113e4816113c0565b92915050565b5f602082840312156113ff576113fe611388565b5b5f61140c848285016113d6565b91505092915050565b5f8115159050919050565b61142981611415565b82525050565b5f6020820190506114425f830184611420565b92915050565b5f61145282611390565b9050919050565b61146281611448565b811461146c575f80fd5b50565b5f8135905061147d81611459565b92915050565b5f819050919050565b61149581611483565b811461149f575f80fd5b50565b5f813590506114b08161148c565b92915050565b5f80fd5b5f80fd5b5f601f19601f8301169050919050565b7f4e487b71000000000000000000000000000000000000000000000000000000005f52604160045260245ffd5b611504826114be565b810181811067ffffffffffffffff82111715611523576115226114ce565b5b80604052505050565b5f61153561137f565b905061154182826114fb565b919050565b5f67ffffffffffffffff8211156115605761155f6114ce565b5b611569826114be565b9050602081019050919050565b828183375f83830152505050565b5f61159661159184611546565b61152c565b9050828152602081018484840111156115b2576115b16114ba565b5b6115bd848285611576565b509392505050565b5f82601f8301126115d9576115d86114b6565b5b81356115e9848260208601611584565b91505092915050565b5f805f6060848603121561160957611608611388565b5b5f6116168682870161146f565b9350506020611627868287016114a2565b925050604084013567ffffffffffffffff8111156116485761164761138c565b5b611654868287016115c5565b9150509250925092565b5f806040838503121561167457611673611388565b5b5f611681858286016113d6565b9250506020611692858286016113d6565b9150509250929050565b5f81519050919050565b5f82825260208201905092915050565b8281835e5f83830152505050565b5f6116ce8261169c565b6116d881856116a6565b93506116e88185602086016116b6565b6116f1816114be565b840191505092915050565b5f6020820190508181035f83015261171481846116c4565b905092915050565b5f806040838503121561173257611731611388565b5b5f61173f858286016114a2565b925050602083013567ffffffffffffffff8111156117605761175f61138c565b5b61176c858286016115c5565b9150509250929050565b7f4e6f2077696c6c20666f756e64210000000000000000000000000000000000005f82015250565b5f6117aa600e836116a6565b91506117b582611776565b602082019050919050565b5f6020820190508181035f8301526117d78161179e565b9050919050565b7f4e487b71000000000000000000000000000000000000000000000000000000005f52601160045260245ffd5b5f61181582611483565b915061182083611483565b9250828201905080821115611838576118376117de565b5b92915050565b7f4f776e6572206973207374696c6c20616c6976652100000000000000000000005f82015250565b5f6118726015836116a6565b915061187d8261183e565b602082019050919050565b5f6020820190508181035f83015261189f81611866565b9050919050565b7f596f75206e65656420746f2063726561746520612077696c6c206669727374005f82015250565b5f6118da601f836116a6565b91506118e5826118a6565b602082019050919050565b5f6020820190508181035f830152611907816118ce565b9050919050565b7f496e76616c69642070657263656e7461676500000000000000000000000000005f82015250565b5f6119426012836116a6565b915061194d8261190e565b602082019050919050565b5f6020820190508181035f83015261196f81611936565b9050919050565b7f4e487b71000000000000000000000000000000000000000000000000000000005f52603260045260245ffd5b7f546f74616c20616c6c6f636174696f6e206578636565647320313030250000005f82015250565b5f6119d7601d836116a6565b91506119e2826119a3565b602082019050919050565b5f6020820190508181035f830152611a04816119cb565b9050919050565b7f4e487b71000000000000000000000000000000000000000000000000000000005f52602260045260245ffd5b5f6002820490506001821680611a4f57607f821691505b602082108103611a6257611a61611a0b565b5b50919050565b5f819050815f5260205f209050919050565b5f6020601f8301049050919050565b5f82821b905092915050565b5f60088302611ac47fffffffffffffffffffffffffffffffffffffffffffffffffffffffffffffffff82611a89565b611ace8683611a89565b95508019841693508086168417925050509392505050565b5f819050919050565b5f611b09611b04611aff84611483565b611ae6565b611483565b9050919050565b5f819050919050565b611b2283611aef565b611b36611b2e82611b10565b848454611a95565b825550505050565b5f90565b611b4a611b3e565b611b55818484611b19565b505050565b5b81811015611b7857611b6d5f82611b42565b600181019050611b5b565b5050565b601f821115611bbd57611b8e81611a68565b611b9784611a7a565b81016020851015611ba6578190505b611bba611bb285611a7a565b830182611b5a565b50505b505050565b5f82821c905092915050565b5f611bdd5f1984600802611bc2565b1980831691505092915050565b5f611bf58383611bce565b9150826002028217905092915050565b611c0e8261169c565b67ffffffffffffffff811115611c2757611c266114ce565b5b611c318254611a38565b611c3c828285611b7c565b5f60209050601f831160018114611c6d575f8415611c5b578287015190505b611c658582611bea565b865550611ccc565b601f198416611c7b86611a68565b5f5b82811015611ca257848901518255600182019150602085019450602081019050611c7d565b86831015611cbf5784890151611cbb601f891682611bce565b8355505b6001600288020188555050505b505050505050565b7f57696c6c20686173206e6f74206265656e2065786563757465642079657400005f82015250565b5f611d08601e836116a6565b9150611d1382611cd4565b602082019050919050565b5f6020820190508181035f830152611d3581611cfc565b9050919050565b7f42656e6566696369617279206e6f7420666f756e6400000000000000000000005f82015250565b5f611d706015836116a6565b9150611d7b82611d3c565b602082019050919050565b5f6020820190508181035f830152611d9d81611d64565b9050919050565b7f596f7520616c7265616479206861766520612077696c6c2100000000000000005f82015250565b5f611dd86018836116a6565b9150611de382611da4565b602082019050919050565b5f6020820190508181035f830152611e0581611dcc565b9050919050565b7f4d757374206c6f636b20455448210000000000000000000000000000000000005f82015250565b5f611e40600e836116a6565b9150611e4b82611e0c565b602082019050919050565b5f6020820190508181035f830152611e6d81611e34565b9050919050565b611e7d81611483565b82525050565b5f602082019050611e965f830184611e74565b92915050565b7f57696c6c206e6f742065786563757465642079657400000000000000000000005f82015250565b5f611ed06015836116a6565b9150611edb82611e9c565b602082019050919050565b5f6020820190508181035f830152611efd81611ec4565b9050919050565b7f4e6f2045544820696e20636f6e747261637400000000000000000000000000005f82015250565b5f611f386012836116a6565b9150611f4382611f04565b602082019050919050565b5f6020820190508181035f830152611f6581611f2c565b9050919050565b5f611f7682611483565b9150611f8183611483565b9250828202611f8f81611483565b91508282048414831517611fa657611fa56117de565b5b5092915050565b7f4e487b71000000000000000000000000000000000000000000000000000000005f52601260045260245ffd5b5f611fe482611483565b9150611fef83611483565b925082611fff57611ffe611fad565b5b82820490509291505056fea26469706673582212205a5e73e1b3fe6127f2284f19aa71c531d7e6c910444e5cdc7821a59513209d0564736f6c634300081a0033",
		"opcodes": "PUSH1 0x80 PUSH1 0x40 MSTORE PUSH1 0x4 CALLDATASIZE LT PUSH2 0x6F JUMPI PUSH0 CALLDATALOAD PUSH1 0xE0 SHR DUP1 PUSH4 0x935A619E GT PUSH2 0x4D JUMPI DUP1 PUSH4 0x935A619E EQ PUSH2 0xED JUMPI DUP1 PUSH4 0xC20162D4 EQ PUSH2 0x115 JUMPI DUP1 PUSH4 0xCF801035 EQ PUSH2 0x151 JUMPI DUP1 PUSH4 0xE7FCC918 EQ PUSH2 0x16D JUMPI PUSH2 0x6F JUMP JUMPDEST DUP1 PUSH4 0x52218D90 EQ PUSH2 0x73 JUMPI DUP1 PUSH4 0x549CC7B8 EQ PUSH2 0x9B JUMPI DUP1 PUSH4 0x6F9B65F0 EQ PUSH2 0xD7 JUMPI JUMPDEST PUSH0 DUP1 REVERT JUMPDEST CALLVALUE DUP1 ISZERO PUSH2 0x7E JUMPI PUSH0 DUP1 REVERT JUMPDEST POP PUSH2 0x99 PUSH1 0x4 DUP1 CALLDATASIZE SUB DUP2 ADD SWAP1 PUSH2 0x94 SWAP2 SWAP1 PUSH2 0x13EA JUMP JUMPDEST PUSH2 0x1A9 JUMP JUMPDEST STOP JUMPDEST CALLVALUE DUP1 ISZERO PUSH2 0xA6 JUMPI PUSH0 DUP1 REVERT JUMPDEST POP PUSH2 0xC1 PUSH1 0x4 DUP1 CALLDATASIZE SUB DUP2 ADD SWAP1 PUSH2 0xBC SWAP2 SWAP1 PUSH2 0x13EA JUMP JUMPDEST PUSH2 0x3A3 JUMP JUMPDEST PUSH1 0x40 MLOAD PUSH2 0xCE SWAP2 SWAP1 PUSH2 0x142F JUMP JUMPDEST PUSH1 0x40 MLOAD DUP1 SWAP2 SUB SWAP1 RETURN JUMPDEST CALLVALUE DUP1 ISZERO PUSH2 0xE2 JUMPI PUSH0 DUP1 REVERT JUMPDEST POP PUSH2 0xEB PUSH2 0x3C0 JUMP JUMPDEST STOP JUMPDEST CALLVALUE DUP1 ISZERO PUSH2 0xF8 JUMPI PUSH0 DUP1 REVERT JUMPDEST POP PUSH2 0x113 PUSH1 0x4 DUP1 CALLDATASIZE SUB DUP2 ADD SWAP1 PUSH2 0x10E SWAP2 SWAP1 PUSH2 0x15F2 JUMP JUMPDEST PUSH2 0x4D2 JUMP JUMPDEST STOP JUMPDEST CALLVALUE DUP1 ISZERO PUSH2 0x120 JUMPI PUSH0 DUP1 REVERT JUMPDEST POP PUSH2 0x13B PUSH1 0x4 DUP1 CALLDATASIZE SUB DUP2 ADD SWAP1 PUSH2 0x136 SWAP2 SWAP1 PUSH2 0x165E JUMP JUMPDEST PUSH2 0x7C4 JUMP JUMPDEST PUSH1 0x40 MLOAD PUSH2 0x148 SWAP2 SWAP1 PUSH2 0x16FC JUMP JUMPDEST PUSH1 0x40 MLOAD DUP1 SWAP2 SUB SWAP1 RETURN JUMPDEST PUSH2 0x16B PUSH1 0x4 DUP1 CALLDATASIZE SUB DUP2 ADD SWAP1 PUSH2 0x166 SWAP2 SWAP1 PUSH2 0x171C JUMP JUMPDEST PUSH2 0xB15 JUMP JUMPDEST STOP JUMPDEST CALLVALUE DUP1 ISZERO PUSH2 0x178 JUMPI PUSH0 DUP1 REVERT JUMPDEST POP PUSH2 0x193 PUSH1 0x4 DUP1 CALLDATASIZE SUB DUP2 ADD SWAP1 PUSH2 0x18E SWAP2 SWAP1 PUSH2 0x13EA JUMP JUMPDEST PUSH2 0xE72 JUMP JUMPDEST PUSH1 0x40 MLOAD PUSH2 0x1A0 SWAP2 SWAP1 PUSH2 0x16FC JUMP JUMPDEST PUSH1 0x40 MLOAD DUP1 SWAP2 SUB SWAP1 RETURN JUMPDEST PUSH1 0x1 PUSH0 DUP3 PUSH20 0xFFFFFFFFFFFFFFFFFFFFFFFFFFFFFFFFFFFFFFFF AND PUSH20 0xFFFFFFFFFFFFFFFFFFFFFFFFFFFFFFFFFFFFFFFF AND DUP2 MSTORE PUSH1 0x20 ADD SWAP1 DUP2 MSTORE PUSH1 0x20 ADD PUSH0 KECCAK256 PUSH0 SWAP1 SLOAD SWAP1 PUSH2 0x100 EXP SWAP1 DIV PUSH1 0xFF AND PUSH2 0x232 JUMPI PUSH1 0x40 MLOAD PUSH32 0x8C379A000000000000000000000000000000000000000000000000000000000 DUP2 MSTORE PUSH1 0x4 ADD PUSH2 0x229 SWAP1 PUSH2 0x17C0 JUMP JUMPDEST PUSH1 0x40 MLOAD DUP1 SWAP2 SUB SWAP1 REVERT JUMPDEST PUSH0 DUP1 DUP3 PUSH20 0xFFFFFFFFFFFFFFFFFFFFFFFFFFFFFFFFFFFFFFFF AND PUSH20 0xFFFFFFFFFFFFFFFFFFFFFFFFFFFFFFFFFFFFFFFF AND DUP2 MSTORE PUSH1 0x20 ADD SWAP1 DUP2 MSTORE PUSH1 0x20 ADD PUSH0 KECCAK256 PUSH1 0x3 ADD SLOAD PUSH0 DUP1 DUP4 PUSH20 0xFFFFFFFFFFFFFFFFFFFFFFFFFFFFFFFFFFFFFFFF AND PUSH20 0xFFFFFFFFFFFFFFFFFFFFFFFFFFFFFFFFFFFFFFFF AND DUP2 MSTORE PUSH1 0x20 ADD SWAP1 DUP2 MSTORE PUSH1 0x20 ADD PUSH0 KECCAK256 PUSH1 0x2 ADD SLOAD PUSH2 0x2BC SWAP2 SWAP1 PUSH2 0x180B JUMP JUMPDEST TIMESTAMP GT PUSH2 0x2FD JUMPI PUSH1 0x40 MLOAD PUSH32 0x8C379A000000000000000000000000000000000000000000000000000000000 DUP2 MSTORE PUSH1 0x4 ADD PUSH2 0x2F4 SWAP1 PUSH2 0x1888 JUMP JUMPDEST PUSH1 0x40 MLOAD DUP1 SWAP2 SUB SWAP1 REVERT JUMPDEST PUSH1 0x1 PUSH0 DUP1 DUP4 PUSH20 0xFFFFFFFFFFFFFFFFFFFFFFFFFFFFFFFFFFFFFFFF AND PUSH20 0xFFFFFFFFFFFFFFFFFFFFFFFFFFFFFFFFFFFFFFFF AND DUP2 MSTORE PUSH1 0x20 ADD SWAP1 DUP2 MSTORE PUSH1 0x20 ADD PUSH0 KECCAK256 PUSH1 0x4 ADD PUSH0 PUSH2 0x100 EXP DUP2 SLOAD DUP2 PUSH1 0xFF MUL NOT AND SWAP1 DUP4 ISZERO ISZERO MUL OR SWAP1 SSTORE POP PUSH2 0x35D DUP2 PUSH2 0x1055 JUMP JUMPDEST DUP1 PUSH20 0xFFFFFFFFFFFFFFFFFFFFFFFFFFFFFFFFFFFFFFFF AND PUSH32 0x16346F65ADF8D84422B57AD74CB5607BF6C9E55C3C1FEA66344057E5BBA8A7EE PUSH1 0x40 MLOAD PUSH1 0x40 MLOAD DUP1 SWAP2 SUB SWAP1 LOG2 POP JUMP JUMPDEST PUSH1 0x1 PUSH1 0x20 MSTORE DUP1 PUSH0 MSTORE PUSH1 0x40 PUSH0 KECCAK256 PUSH0 SWAP2 POP SLOAD SWAP1 PUSH2 0x100 EXP SWAP1 DIV PUSH1 0xFF AND DUP2 JUMP JUMPDEST PUSH1 0x1 PUSH0 CALLER PUSH20 0xFFFFFFFFFFFFFFFFFFFFFFFFFFFFFFFFFFFFFFFF AND PUSH20 0xFFFFFFFFFFFFFFFFFFFFFFFFFFFFFFFFFFFFFFFF AND DUP2 MSTORE PUSH1 0x20 ADD SWAP1 DUP2 MSTORE PUSH1 0x20 ADD PUSH0 KECCAK256 PUSH0 SWAP1 SLOAD SWAP1 PUSH2 0x100 EXP SWAP1 DIV PUSH1 0xFF AND PUSH2 0x449 JUMPI PUSH1 0x40 MLOAD PUSH32 0x8C379A000000000000000000000000000000000000000000000000000000000 DUP2 MSTORE PUSH1 0x4 ADD PUSH2 0x440 SWAP1 PUSH2 0x17C0 JUMP JUMPDEST PUSH1 0x40 MLOAD DUP1 SWAP2 SUB SWAP1 REVERT JUMPDEST TIMESTAMP PUSH0 DUP1 CALLER PUSH20 0xFFFFFFFFFFFFFFFFFFFFFFFFFFFFFFFFFFFFFFFF AND PUSH20 0xFFFFFFFFFFFFFFFFFFFFFFFFFFFFFFFFFFFFFFFF AND DUP2 MSTORE PUSH1 0x20 ADD SWAP1 DUP2 MSTORE PUSH1 0x20 ADD PUSH0 KECCAK256 PUSH1 0x2 ADD DUP2 SWAP1 SSTORE POP CALLER PUSH20 0xFFFFFFFFFFFFFFFFFFFFFFFFFFFFFFFFFFFFFFFF AND PUSH32 0x59646F34B02235D7A2502144EC7804574D19422C78DBD9B73B2F04D6B7286A96 PUSH1 0x40 MLOAD PUSH1 0x40 MLOAD DUP1 SWAP2 SUB SWAP1 LOG2 JUMP JUMPDEST PUSH1 0x1 PUSH0 CALLER PUSH20 0xFFFFFFFFFFFFFFFFFFFFFFFFFFFFFFFFFFFFFFFF AND PUSH20 0xFFFFFFFFFFFFFFFFFFFFFFFFFFFFFFFFFFFFFFFF AND DUP2 MSTORE PUSH1 0x20 ADD SWAP1 DUP2 MSTORE PUSH1 0x20 ADD PUSH0 KECCAK256 PUSH0 SWAP1 SLOAD SWAP1 PUSH2 0x100 EXP SWAP1 DIV PUSH1 0xFF AND PUSH2 0x55B JUMPI PUSH1 0x40 MLOAD PUSH32 0x8C379A000000000000000000000000000000000000000000000000000000000 DUP2 MSTORE PUSH1 0x4 ADD PUSH2 0x552 SWAP1 PUSH2 0x18F0 JUMP JUMPDEST PUSH1 0x40 MLOAD DUP1 SWAP2 SUB SWAP1 REVERT JUMPDEST PUSH0 DUP3 GT DUP1 ISZERO PUSH2 0x56B JUMPI POP PUSH1 0x64 DUP3 GT ISZERO JUMPDEST PUSH2 0x5AA JUMPI PUSH1 0x40 MLOAD PUSH32 0x8C379A000000000000000000000000000000000000000000000000000000000 DUP2 MSTORE PUSH1 0x4 ADD PUSH2 0x5A1 SWAP1 PUSH2 0x1958 JUMP JUMPDEST PUSH1 0x40 MLOAD DUP1 SWAP2 SUB SWAP1 REVERT JUMPDEST PUSH0 DUP1 JUMPDEST PUSH0 DUP1 CALLER PUSH20 0xFFFFFFFFFFFFFFFFFFFFFFFFFFFFFFFFFFFFFFFF AND PUSH20 0xFFFFFFFFFFFFFFFFFFFFFFFFFFFFFFFFFFFFFFFF AND DUP2 MSTORE PUSH1 0x20 ADD SWAP1 DUP2 MSTORE PUSH1 0x20 ADD PUSH0 KECCAK256 PUSH1 0x6 ADD DUP1 SLOAD SWAP1 POP DUP2 LT ISZERO PUSH2 0x672 JUMPI PUSH0 DUP1 CALLER PUSH20 0xFFFFFFFFFFFFFFFFFFFFFFFFFFFFFFFFFFFFFFFF AND PUSH20 0xFFFFFFFFFFFFFFFFFFFFFFFFFFFFFFFFFFFFFFFF AND DUP2 MSTORE PUSH1 0x20 ADD SWAP1 DUP2 MSTORE PUSH1 0x20 ADD PUSH0 KECCAK256 PUSH1 0x6 ADD DUP2 DUP2 SLOAD DUP2 LT PUSH2 0x648 JUMPI PUSH2 0x647 PUSH2 0x1976 JUMP JUMPDEST JUMPDEST SWAP1 PUSH0 MSTORE PUSH1 0x20 PUSH0 KECCAK256 SWAP1 PUSH1 0x3 MUL ADD PUSH1 0x1 ADD SLOAD DUP3 PUSH2 0x663 SWAP2 SWAP1 PUSH2 0x180B JUMP JUMPDEST SWAP2 POP DUP1 DUP1 PUSH1 0x1 ADD SWAP2 POP POP PUSH2 0x5AD JUMP JUMPDEST POP PUSH1 0x64 DUP4 DUP3 PUSH2 0x681 SWAP2 SWAP1 PUSH2 0x180B JUMP JUMPDEST GT ISZERO PUSH2 0x6C2 JUMPI PUSH1 0x40 MLOAD PUSH32 0x8C379A000000000000000000000000000000000000000000000000000000000 DUP2 MSTORE PUSH1 0x4 ADD PUSH2 0x6B9 SWAP1 PUSH2 0x19ED JUMP JUMPDEST PUSH1 0x40 MLOAD DUP1 SWAP2 SUB SWAP1 REVERT JUMPDEST PUSH0 DUP1 CALLER PUSH20 0xFFFFFFFFFFFFFFFFFFFFFFFFFFFFFFFFFFFFFFFF AND PUSH20 0xFFFFFFFFFFFFFFFFFFFFFFFFFFFFFFFFFFFFFFFF AND DUP2 MSTORE PUSH1 0x20 ADD SWAP1 DUP2 MSTORE PUSH1 0x20 ADD PUSH0 KECCAK256 PUSH1 0x6 ADD PUSH1 0x40 MLOAD DUP1 PUSH1 0x60 ADD PUSH1 0x40 MSTORE DUP1 DUP7 PUSH20 0xFFFFFFFFFFFFFFFFFFFFFFFFFFFFFFFFFFFFFFFF AND DUP2 MSTORE PUSH1 0x20 ADD DUP6 DUP2 MSTORE PUSH1 0x20 ADD DUP5 DUP2 MSTORE POP SWAP1 DUP1 PUSH1 0x1 DUP2 SLOAD ADD DUP1 DUP3 SSTORE DUP1 SWAP2 POP POP PUSH1 0x1 SWAP1 SUB SWAP1 PUSH0 MSTORE PUSH1 0x20 PUSH0 KECCAK256 SWAP1 PUSH1 0x3 MUL ADD PUSH0 SWAP1 SWAP2 SWAP1 SWAP2 SWAP1 SWAP2 POP PUSH0 DUP3 ADD MLOAD DUP2 PUSH0 ADD PUSH0 PUSH2 0x100 EXP DUP2 SLOAD DUP2 PUSH20 0xFFFFFFFFFFFFFFFFFFFFFFFFFFFFFFFFFFFFFFFF MUL NOT AND SWAP1 DUP4 PUSH20 0xFFFFFFFFFFFFFFFFFFFFFFFFFFFFFFFFFFFFFFFF AND MUL OR SWAP1 SSTORE POP PUSH1 0x20 DUP3 ADD MLOAD DUP2 PUSH1 0x1 ADD SSTORE PUSH1 0x40 DUP3 ADD MLOAD DUP2 PUSH1 0x2 ADD SWAP1 DUP2 PUSH2 0x7BB SWAP2 SWAP1 PUSH2 0x1C05 JUMP JUMPDEST POP POP POP POP POP POP POP JUMP JUMPDEST PUSH1 0x60 PUSH1 0x1 PUSH0 DUP5 PUSH20 0xFFFFFFFFFFFFFFFFFFFFFFFFFFFFFFFFFFFFFFFF AND PUSH20 0xFFFFFFFFFFFFFFFFFFFFFFFFFFFFFFFFFFFFFFFF AND DUP2 MSTORE PUSH1 0x20 ADD SWAP1 DUP2 MSTORE PUSH1 0x20 ADD PUSH0 KECCAK256 PUSH0 SWAP1 SLOAD SWAP1 PUSH2 0x100 EXP SWAP1 DIV PUSH1 0xFF AND PUSH2 0x84F JUMPI PUSH1 0x40 MLOAD PUSH32 0x8C379A000000000000000000000000000000000000000000000000000000000 DUP2 MSTORE PUSH1 0x4 ADD PUSH2 0x846 SWAP1 PUSH2 0x17C0 JUMP JUMPDEST PUSH1 0x40 MLOAD DUP1 SWAP2 SUB SWAP1 REVERT JUMPDEST PUSH0 DUP1 DUP5 PUSH20 0xFFFFFFFFFFFFFFFFFFFFFFFFFFFFFFFFFFFFFFFF AND PUSH20 0xFFFFFFFFFFFFFFFFFFFFFFFFFFFFFFFFFFFFFFFF AND DUP2 MSTORE PUSH1 0x20 ADD SWAP1 DUP2 MSTORE PUSH1 0x20 ADD PUSH0 KECCAK256 PUSH1 0x4 ADD PUSH0 SWAP1 SLOAD SWAP1 PUSH2 0x100 EXP SWAP1 DIV PUSH1 0xFF AND PUSH2 0x8DA JUMPI PUSH1 0x40 MLOAD PUSH32 0x8C379A000000000000000000000000000000000000000000000000000000000 DUP2 MSTORE PUSH1 0x4 ADD PUSH2 0x8D1 SWAP1 PUSH2 0x1D1E JUMP JUMPDEST PUSH1 0x40 MLOAD DUP1 SWAP2 SUB SWAP1 REVERT JUMPDEST PUSH0 JUMPDEST PUSH0 DUP1 DUP6 PUSH20 0xFFFFFFFFFFFFFFFFFFFFFFFFFFFFFFFFFFFFFFFF AND PUSH20 0xFFFFFFFFFFFFFFFFFFFFFFFFFFFFFFFFFFFFFFFF AND DUP2 MSTORE PUSH1 0x20 ADD SWAP1 DUP2 MSTORE PUSH1 0x20 ADD PUSH0 KECCAK256 PUSH1 0x6 ADD DUP1 SLOAD SWAP1 POP DUP2 LT ISZERO PUSH2 0xAD3 JUMPI DUP3 PUSH20 0xFFFFFFFFFFFFFFFFFFFFFFFFFFFFFFFFFFFFFFFF AND PUSH0 DUP1 DUP7 PUSH20 0xFFFFFFFFFFFFFFFFFFFFFFFFFFFFFFFFFFFFFFFF AND PUSH20 0xFFFFFFFFFFFFFFFFFFFFFFFFFFFFFFFFFFFFFFFF AND DUP2 MSTORE PUSH1 0x20 ADD SWAP1 DUP2 MSTORE PUSH1 0x20 ADD PUSH0 KECCAK256 PUSH1 0x6 ADD DUP3 DUP2 SLOAD DUP2 LT PUSH2 0x98E JUMPI PUSH2 0x98D PUSH2 0x1976 JUMP JUMPDEST JUMPDEST SWAP1 PUSH0 MSTORE PUSH1 0x20 PUSH0 KECCAK256 SWAP1 PUSH1 0x3 MUL ADD PUSH0 ADD PUSH0 SWAP1 SLOAD SWAP1 PUSH2 0x100 EXP SWAP1 DIV PUSH20 0xFFFFFFFFFFFFFFFFFFFFFFFFFFFFFFFFFFFFFFFF AND PUSH20 0xFFFFFFFFFFFFFFFFFFFFFFFFFFFFFFFFFFFFFFFF AND SUB PUSH2 0xAC6 JUMPI PUSH0 DUP1 DUP6 PUSH20 0xFFFFFFFFFFFFFFFFFFFFFFFFFFFFFFFFFFFFFFFF AND PUSH20 0xFFFFFFFFFFFFFFFFFFFFFFFFFFFFFFFFFFFFFFFF AND DUP2 MSTORE PUSH1 0x20 ADD SWAP1 DUP2 MSTORE PUSH1 0x20 ADD PUSH0 KECCAK256 PUSH1 0x6 ADD DUP2 DUP2 SLOAD DUP2 LT PUSH2 0xA28 JUMPI PUSH2 0xA27 PUSH2 0x1976 JUMP JUMPDEST JUMPDEST SWAP1 PUSH0 MSTORE PUSH1 0x20 PUSH0 KECCAK256 SWAP1 PUSH1 0x3 MUL ADD PUSH1 0x2 ADD DUP1 SLOAD PUSH2 0xA42 SWAP1 PUSH2 0x1A38 JUMP JUMPDEST DUP1 PUSH1 0x1F ADD PUSH1 0x20 DUP1 SWAP2 DIV MUL PUSH1 0x20 ADD PUSH1 0x40 MLOAD SWAP1 DUP2 ADD PUSH1 0x40 MSTORE DUP1 SWAP3 SWAP2 SWAP1 DUP2 DUP2 MSTORE PUSH1 0x20 ADD DUP3 DUP1 SLOAD PUSH2 0xA6E SWAP1 PUSH2 0x1A38 JUMP JUMPDEST DUP1 ISZERO PUSH2 0xAB9 JUMPI DUP1 PUSH1 0x1F LT PUSH2 0xA90 JUMPI PUSH2 0x100 DUP1 DUP4 SLOAD DIV MUL DUP4 MSTORE SWAP2 PUSH1 0x20 ADD SWAP2 PUSH2 0xAB9 JUMP JUMPDEST DUP3 ADD SWAP2 SWAP1 PUSH0 MSTORE PUSH1 0x20 PUSH0 KECCAK256 SWAP1 JUMPDEST DUP2 SLOAD DUP2 MSTORE SWAP1 PUSH1 0x1 ADD SWAP1 PUSH1 0x20 ADD DUP1 DUP4 GT PUSH2 0xA9C JUMPI DUP3 SWAP1 SUB PUSH1 0x1F AND DUP3 ADD SWAP2 JUMPDEST POP POP POP POP POP SWAP2 POP POP PUSH2 0xB0F JUMP JUMPDEST DUP1 DUP1 PUSH1 0x1 ADD SWAP2 POP POP PUSH2 0x8DC JUMP JUMPDEST POP PUSH1 0x40 MLOAD PUSH32 0x8C379A000000000000000000000000000000000000000000000000000000000 DUP2 MSTORE PUSH1 0x4 ADD PUSH2 0xB06 SWAP1 PUSH2 0x1D86 JUMP JUMPDEST PUSH1 0x40 MLOAD DUP1 SWAP2 SUB SWAP1 REVERT JUMPDEST SWAP3 SWAP2 POP POP JUMP JUMPDEST PUSH1 0x1 PUSH0 CALLER PUSH20 0xFFFFFFFFFFFFFFFFFFFFFFFFFFFFFFFFFFFFFFFF AND PUSH20 0xFFFFFFFFFFFFFFFFFFFFFFFFFFFFFFFFFFFFFFFF AND DUP2 MSTORE PUSH1 0x20 ADD SWAP1 DUP2 MSTORE PUSH1 0x20 ADD PUSH0 KECCAK256 PUSH0 SWAP1 SLOAD SWAP1 PUSH2 0x100 EXP SWAP1 DIV PUSH1 0xFF AND ISZERO PUSH2 0xB9F JUMPI PUSH1 0x40 MLOAD PUSH32 0x8C379A000000000000000000000000000000000000000000000000000000000 DUP2 MSTORE PUSH1 0x4 ADD PUSH2 0xB96 SWAP1 PUSH2 0x1DEE JUMP JUMPDEST PUSH1 0x40 MLOAD DUP1 SWAP2 SUB SWAP1 REVERT JUMPDEST PUSH0 CALLVALUE GT PUSH2 0xBE1 JUMPI PUSH1 0x40 MLOAD PUSH32 0x8C379A000000000000000000000000000000000000000000000000000000000 DUP2 MSTORE PUSH1 0x4 ADD PUSH2 0xBD8 SWAP1 PUSH2 0x1E56 JUMP JUMPDEST PUSH1 0x40 MLOAD DUP1 SWAP2 SUB SWAP1 REVERT JUMPDEST CALLER PUSH0 DUP1 CALLER PUSH20 0xFFFFFFFFFFFFFFFFFFFFFFFFFFFFFFFFFFFFFFFF AND PUSH20 0xFFFFFFFFFFFFFFFFFFFFFFFFFFFFFFFFFFFFFFFF AND DUP2 MSTORE PUSH1 0x20 ADD SWAP1 DUP2 MSTORE PUSH1 0x20 ADD PUSH0 KECCAK256 PUSH0 ADD PUSH0 PUSH2 0x100 EXP DUP2 SLOAD DUP2 PUSH20 0xFFFFFFFFFFFFFFFFFFFFFFFFFFFFFFFFFFFFFFFF MUL NOT AND SWAP1 DUP4 PUSH20 0xFFFFFFFFFFFFFFFFFFFFFFFFFFFFFFFFFFFFFFFF AND MUL OR SWAP1 SSTORE POP CALLVALUE PUSH0 DUP1 CALLER PUSH20 0xFFFFFFFFFFFFFFFFFFFFFFFFFFFFFFFFFFFFFFFF AND PUSH20 0xFFFFFFFFFFFFFFFFFFFFFFFFFFFFFFFFFFFFFFFF AND DUP2 MSTORE PUSH1 0x20 ADD SWAP1 DUP2 MSTORE PUSH1 0x20 ADD PUSH0 KECCAK256 PUSH1 0x1 ADD DUP2 SWAP1 SSTORE POP TIMESTAMP PUSH0 DUP1 CALLER PUSH20 0xFFFFFFFFFFFFFFFFFFFFFFFFFFFFFFFFFFFFFFFF AND PUSH20 0xFFFFFFFFFFFFFFFFFFFFFFFFFFFFFFFFFFFFFFFF AND DUP2 MSTORE PUSH1 0x20 ADD SWAP1 DUP2 MSTORE PUSH1 0x20 ADD PUSH0 KECCAK256 PUSH1 0x2 ADD DUP2 SWAP1 SSTORE POP DUP2 PUSH0 DUP1 CALLER PUSH20 0xFFFFFFFFFFFFFFFFFFFFFFFFFFFFFFFFFFFFFFFF AND PUSH20 0xFFFFFFFFFFFFFFFFFFFFFFFFFFFFFFFFFFFFFFFF AND DUP2 MSTORE PUSH1 0x20 ADD SWAP1 DUP2 MSTORE PUSH1 0x20 ADD PUSH0 KECCAK256 PUSH1 0x3 ADD DUP2 SWAP1 SSTORE POP PUSH0 DUP1 PUSH0 CALLER PUSH20 0xFFFFFFFFFFFFFFFFFFFFFFFFFFFFFFFFFFFFFFFF AND PUSH20 0xFFFFFFFFFFFFFFFFFFFFFFFFFFFFFFFFFFFFFFFF AND DUP2 MSTORE PUSH1 0x20 ADD SWAP1 DUP2 MSTORE PUSH1 0x20 ADD PUSH0 KECCAK256 PUSH1 0x4 ADD PUSH0 PUSH2 0x100 EXP DUP2 SLOAD DUP2 PUSH1 0xFF MUL NOT AND SWAP1 DUP4 ISZERO ISZERO MUL OR SWAP1 SSTORE POP DUP1 PUSH0 DUP1 CALLER PUSH20 0xFFFFFFFFFFFFFFFFFFFFFFFFFFFFFFFFFFFFFFFF AND PUSH20 0xFFFFFFFFFFFFFFFFFFFFFFFFFFFFFFFFFFFFFFFF AND DUP2 MSTORE PUSH1 0x20 ADD SWAP1 DUP2 MSTORE PUSH1 0x20 ADD PUSH0 KECCAK256 PUSH1 0x5 ADD SWAP1 DUP2 PUSH2 0xDCB SWAP2 SWAP1 PUSH2 0x1C05 JUMP JUMPDEST POP PUSH1 0x1 DUP1 PUSH0 CALLER PUSH20 0xFFFFFFFFFFFFFFFFFFFFFFFFFFFFFFFFFFFFFFFF AND PUSH20 0xFFFFFFFFFFFFFFFFFFFFFFFFFFFFFFFFFFFFFFFF AND DUP2 MSTORE PUSH1 0x20 ADD SWAP1 DUP2 MSTORE PUSH1 0x20 ADD PUSH0 KECCAK256 PUSH0 PUSH2 0x100 EXP DUP2 SLOAD DUP2 PUSH1 0xFF MUL NOT AND SWAP1 DUP4 ISZERO ISZERO MUL OR SWAP1 SSTORE POP CALLER PUSH20 0xFFFFFFFFFFFFFFFFFFFFFFFFFFFFFFFFFFFFFFFF AND PUSH32 0xD40DC4A639C90600691397F655099ADBA04D6B763EF2122630EDD47C09F1B6F9 CALLVALUE PUSH1 0x40 MLOAD PUSH2 0xE66 SWAP2 SWAP1 PUSH2 0x1E83 JUMP JUMPDEST PUSH1 0x40 MLOAD DUP1 SWAP2 SUB SWAP1 LOG2 POP POP JUMP JUMPDEST PUSH1 0x60 PUSH1 0x1 PUSH0 DUP4 PUSH20 0xFFFFFFFFFFFFFFFFFFFFFFFFFFFFFFFFFFFFFFFF AND PUSH20 0xFFFFFFFFFFFFFFFFFFFFFFFFFFFFFFFFFFFFFFFF AND DUP2 MSTORE PUSH1 0x20 ADD SWAP1 DUP2 MSTORE PUSH1 0x20 ADD PUSH0 KECCAK256 PUSH0 SWAP1 SLOAD SWAP1 PUSH2 0x100 EXP SWAP1 DIV PUSH1 0xFF AND PUSH2 0xEFD JUMPI PUSH1 0x40 MLOAD PUSH32 0x8C379A000000000000000000000000000000000000000000000000000000000 DUP2 MSTORE PUSH1 0x4 ADD PUSH2 0xEF4 SWAP1 PUSH2 0x17C0 JUMP JUMPDEST PUSH1 0x40 MLOAD DUP1 SWAP2 SUB SWAP1 REVERT JUMPDEST PUSH0 DUP1 DUP4 PUSH20 0xFFFFFFFFFFFFFFFFFFFFFFFFFFFFFFFFFFFFFFFF AND PUSH20 0xFFFFFFFFFFFFFFFFFFFFFFFFFFFFFFFFFFFFFFFF AND DUP2 MSTORE PUSH1 0x20 ADD SWAP1 DUP2 MSTORE PUSH1 0x20 ADD PUSH0 KECCAK256 PUSH1 0x4 ADD PUSH0 SWAP1 SLOAD SWAP1 PUSH2 0x100 EXP SWAP1 DIV PUSH1 0xFF AND PUSH2 0xF88 JUMPI PUSH1 0x40 MLOAD PUSH32 0x8C379A000000000000000000000000000000000000000000000000000000000 DUP2 MSTORE PUSH1 0x4 ADD PUSH2 0xF7F SWAP1 PUSH2 0x1D1E JUMP JUMPDEST PUSH1 0x40 MLOAD DUP1 SWAP2 SUB SWAP1 REVERT JUMPDEST PUSH0 DUP1 DUP4 PUSH20 0xFFFFFFFFFFFFFFFFFFFFFFFFFFFFFFFFFFFFFFFF AND PUSH20 0xFFFFFFFFFFFFFFFFFFFFFFFFFFFFFFFFFFFFFFFF AND DUP2 MSTORE PUSH1 0x20 ADD SWAP1 DUP2 MSTORE PUSH1 0x20 ADD PUSH0 KECCAK256 PUSH1 0x5 ADD DUP1 SLOAD PUSH2 0xFD2 SWAP1 PUSH2 0x1A38 JUMP JUMPDEST DUP1 PUSH1 0x1F ADD PUSH1 0x20 DUP1 SWAP2 DIV MUL PUSH1 0x20 ADD PUSH1 0x40 MLOAD SWAP1 DUP2 ADD PUSH1 0x40 MSTORE DUP1 SWAP3 SWAP2 SWAP1 DUP2 DUP2 MSTORE PUSH1 0x20 ADD DUP3 DUP1 SLOAD PUSH2 0xFFE SWAP1 PUSH2 0x1A38 JUMP JUMPDEST DUP1 ISZERO PUSH2 0x1049 JUMPI DUP1 PUSH1 0x1F LT PUSH2 0x1020 JUMPI PUSH2 0x100 DUP1 DUP4 SLOAD DIV MUL DUP4 MSTORE SWAP2 PUSH1 0x20 ADD SWAP2 PUSH2 0x1049 JUMP JUMPDEST DUP3 ADD SWAP2 SWAP1 PUSH0 MSTORE PUSH1 0x20 PUSH0 KECCAK256 SWAP1 JUMPDEST DUP2 SLOAD DUP2 MSTORE SWAP1 PUSH1 0x1 ADD SWAP1 PUSH1 0x20 ADD DUP1 DUP4 GT PUSH2 0x102C JUMPI DUP3 SWAP1 SUB PUSH1 0x1F AND DUP3 ADD SWAP2 JUMPDEST POP POP POP POP POP SWAP1 POP SWAP2 SWAP1 POP JUMP JUMPDEST PUSH0 DUP1 DUP3 PUSH20 0xFFFFFFFFFFFFFFFFFFFFFFFFFFFFFFFFFFFFFFFF AND PUSH20 0xFFFFFFFFFFFFFFFFFFFFFFFFFFFFFFFFFFFFFFFF AND DUP2 MSTORE PUSH1 0x20 ADD SWAP1 DUP2 MSTORE PUSH1 0x20 ADD PUSH0 KECCAK256 PUSH1 0x4 ADD PUSH0 SWAP1 SLOAD SWAP1 PUSH2 0x100 EXP SWAP1 DIV PUSH1 0xFF AND PUSH2 0x10E0 JUMPI PUSH1 0x40 MLOAD PUSH32 0x8C379A000000000000000000000000000000000000000000000000000000000 DUP2 MSTORE PUSH1 0x4 ADD PUSH2 0x10D7 SWAP1 PUSH2 0x1EE6 JUMP JUMPDEST PUSH1 0x40 MLOAD DUP1 SWAP2 SUB SWAP1 REVERT JUMPDEST PUSH0 DUP1 PUSH0 DUP4 PUSH20 0xFFFFFFFFFFFFFFFFFFFFFFFFFFFFFFFFFFFFFFFF AND PUSH20 0xFFFFFFFFFFFFFFFFFFFFFFFFFFFFFFFFFFFFFFFF AND DUP2 MSTORE PUSH1 0x20 ADD SWAP1 DUP2 MSTORE PUSH1 0x20 ADD PUSH0 KECCAK256 PUSH1 0x1 ADD SLOAD GT PUSH2 0x1161 JUMPI PUSH1 0x40 MLOAD PUSH32 0x8C379A000000000000000000000000000000000000000000000000000000000 DUP2 MSTORE PUSH1 0x4 ADD PUSH2 0x1158 SWAP1 PUSH2 0x1F4E JUMP JUMPDEST PUSH1 0x40 MLOAD DUP1 SWAP2 SUB SWAP1 REVERT JUMPDEST PUSH0 JUMPDEST PUSH0 DUP1 DUP4 PUSH20 0xFFFFFFFFFFFFFFFFFFFFFFFFFFFFFFFFFFFFFFFF AND PUSH20 0xFFFFFFFFFFFFFFFFFFFFFFFFFFFFFFFFFFFFFFFF AND DUP2 MSTORE PUSH1 0x20 ADD SWAP1 DUP2 MSTORE PUSH1 0x20 ADD PUSH0 KECCAK256 PUSH1 0x6 ADD DUP1 SLOAD SWAP1 POP DUP2 LT ISZERO PUSH2 0x1337 JUMPI PUSH0 PUSH1 0x64 PUSH0 DUP1 DUP6 PUSH20 0xFFFFFFFFFFFFFFFFFFFFFFFFFFFFFFFFFFFFFFFF AND PUSH20 0xFFFFFFFFFFFFFFFFFFFFFFFFFFFFFFFFFFFFFFFF AND DUP2 MSTORE PUSH1 0x20 ADD SWAP1 DUP2 MSTORE PUSH1 0x20 ADD PUSH0 KECCAK256 PUSH1 0x6 ADD DUP4 DUP2 SLOAD DUP2 LT PUSH2 0x1201 JUMPI PUSH2 0x1200 PUSH2 0x1976 JUMP JUMPDEST JUMPDEST SWAP1 PUSH0 MSTORE PUSH1 0x20 PUSH0 KECCAK256 SWAP1 PUSH1 0x3 MUL ADD PUSH1 0x1 ADD SLOAD PUSH0 DUP1 DUP7 PUSH20 0xFFFFFFFFFFFFFFFFFFFFFFFFFFFFFFFFFFFFFFFF AND PUSH20 0xFFFFFFFFFFFFFFFFFFFFFFFFFFFFFFFFFFFFFFFF AND DUP2 MSTORE PUSH1 0x20 ADD SWAP1 DUP2 MSTORE PUSH1 0x20 ADD PUSH0 KECCAK256 PUSH1 0x1 ADD SLOAD PUSH2 0x125B SWAP2 SWAP1 PUSH2 0x1F6C JUMP JUMPDEST PUSH2 0x1265 SWAP2 SWAP1 PUSH2 0x1FDA JUMP JUMPDEST SWAP1 POP PUSH0 DUP1 DUP5 PUSH20 0xFFFFFFFFFFFFFFFFFFFFFFFFFFFFFFFFFFFFFFFF AND PUSH20 0xFFFFFFFFFFFFFFFFFFFFFFFFFFFFFFFFFFFFFFFF AND DUP2 MSTORE PUSH1 0x20 ADD SWAP1 DUP2 MSTORE PUSH1 0x20 ADD PUSH0 KECCAK256 PUSH1 0x6 ADD DUP3 DUP2 SLOAD DUP2 LT PUSH2 0x12B8 JUMPI PUSH2 0x12B7 PUSH2 0x1976 JUMP JUMPDEST JUMPDEST SWAP1 PUSH0 MSTORE PUSH1 0x20 PUSH0 KECCAK256 SWAP1 PUSH1 0x3 MUL ADD PUSH0 ADD PUSH0 SWAP1 SLOAD SWAP1 PUSH2 0x100 EXP SWAP1 DIV PUSH20 0xFFFFFFFFFFFFFFFFFFFFFFFFFFFFFFFFFFFFFFFF AND PUSH20 0xFFFFFFFFFFFFFFFFFFFFFFFFFFFFFFFFFFFFFFFF AND PUSH2 0x8FC DUP3 SWAP1 DUP2 ISZERO MUL SWAP1 PUSH1 0x40 MLOAD PUSH0 PUSH1 0x40 MLOAD DUP1 DUP4 SUB DUP2 DUP6 DUP9 DUP9 CALL SWAP4 POP POP POP POP ISZERO DUP1 ISZERO PUSH2 0x1328 JUMPI RETURNDATASIZE PUSH0 DUP1 RETURNDATACOPY RETURNDATASIZE PUSH0 REVERT JUMPDEST POP POP DUP1 DUP1 PUSH1 0x1 ADD SWAP2 POP POP PUSH2 0x1163 JUMP JUMPDEST POP PUSH0 DUP1 PUSH0 DUP4 PUSH20 0xFFFFFFFFFFFFFFFFFFFFFFFFFFFFFFFFFFFFFFFF AND PUSH20 0xFFFFFFFFFFFFFFFFFFFFFFFFFFFFFFFFFFFFFFFF AND DUP2 MSTORE PUSH1 0x20 ADD SWAP1 DUP2 MSTORE PUSH1 0x20 ADD PUSH0 KECCAK256 PUSH1 0x1 ADD DUP2 SWAP1 SSTORE POP POP JUMP JUMPDEST PUSH0 PUSH1 0x40 MLOAD SWAP1 POP SWAP1 JUMP JUMPDEST PUSH0 DUP1 REVERT JUMPDEST PUSH0 DUP1 REVERT JUMPDEST PUSH0 PUSH20 0xFFFFFFFFFFFFFFFFFFFFFFFFFFFFFFFFFFFFFFFF DUP3 AND SWAP1 POP SWAP2 SWAP1 POP JUMP JUMPDEST PUSH0 PUSH2 0x13B9 DUP3 PUSH2 0x1390 JUMP JUMPDEST SWAP1 POP SWAP2 SWAP1 POP JUMP JUMPDEST PUSH2 0x13C9 DUP2 PUSH2 0x13AF JUMP JUMPDEST DUP2 EQ PUSH2 0x13D3 JUMPI PUSH0 DUP1 REVERT JUMPDEST POP JUMP JUMPDEST PUSH0 DUP2 CALLDATALOAD SWAP1 POP PUSH2 0x13E4 DUP2 PUSH2 0x13C0 JUMP JUMPDEST SWAP3 SWAP2 POP POP JUMP JUMPDEST PUSH0 PUSH1 0x20 DUP3 DUP5 SUB SLT ISZERO PUSH2 0x13FF JUMPI PUSH2 0x13FE PUSH2 0x1388 JUMP JUMPDEST JUMPDEST PUSH0 PUSH2 0x140C DUP5 DUP3 DUP6 ADD PUSH2 0x13D6 JUMP JUMPDEST SWAP2 POP POP SWAP3 SWAP2 POP POP JUMP JUMPDEST PUSH0 DUP2 ISZERO ISZERO SWAP1 POP SWAP2 SWAP1 POP JUMP JUMPDEST PUSH2 0x1429 DUP2 PUSH2 0x1415 JUMP JUMPDEST DUP3 MSTORE POP POP JUMP JUMPDEST PUSH0 PUSH1 0x20 DUP3 ADD SWAP1 POP PUSH2 0x1442 PUSH0 DUP4 ADD DUP5 PUSH2 0x1420 JUMP JUMPDEST SWAP3 SWAP2 POP POP JUMP JUMPDEST PUSH0 PUSH2 0x1452 DUP3 PUSH2 0x1390 JUMP JUMPDEST SWAP1 POP SWAP2 SWAP1 POP JUMP JUMPDEST PUSH2 0x1462 DUP2 PUSH2 0x1448 JUMP JUMPDEST DUP2 EQ PUSH2 0x146C JUMPI PUSH0 DUP1 REVERT JUMPDEST POP JUMP JUMPDEST PUSH0 DUP2 CALLDATALOAD SWAP1 POP PUSH2 0x147D DUP2 PUSH2 0x1459 JUMP JUMPDEST SWAP3 SWAP2 POP POP JUMP JUMPDEST PUSH0 DUP2 SWAP1 POP SWAP2 SWAP1 POP JUMP JUMPDEST PUSH2 0x1495 DUP2 PUSH2 0x1483 JUMP JUMPDEST DUP2 EQ PUSH2 0x149F JUMPI PUSH0 DUP1 REVERT JUMPDEST POP JUMP JUMPDEST PUSH0 DUP2 CALLDATALOAD SWAP1 POP PUSH2 0x14B0 DUP2 PUSH2 0x148C JUMP JUMPDEST SWAP3 SWAP2 POP POP JUMP JUMPDEST PUSH0 DUP1 REVERT JUMPDEST PUSH0 DUP1 REVERT JUMPDEST PUSH0 PUSH1 0x1F NOT PUSH1 0x1F DUP4 ADD AND SWAP1 POP SWAP2 SWAP1 POP JUMP JUMPDEST PUSH32 0x4E487B7100000000000000000000000000000000000000000000000000000000 PUSH0 MSTORE PUSH1 0x41 PUSH1 0x4 MSTORE PUSH1 0x24 PUSH0 REVERT JUMPDEST PUSH2 0x1504 DUP3 PUSH2 0x14BE JUMP JUMPDEST DUP2 ADD DUP2 DUP2 LT PUSH8 0xFFFFFFFFFFFFFFFF DUP3 GT OR ISZERO PUSH2 0x1523 JUMPI PUSH2 0x1522 PUSH2 0x14CE JUMP JUMPDEST JUMPDEST DUP1 PUSH1 0x40 MSTORE POP POP POP JUMP JUMPDEST PUSH0 PUSH2 0x1535 PUSH2 0x137F JUMP JUMPDEST SWAP1 POP PUSH2 0x1541 DUP3 DUP3 PUSH2 0x14FB JUMP JUMPDEST SWAP2 SWAP1 POP JUMP JUMPDEST PUSH0 PUSH8 0xFFFFFFFFFFFFFFFF DUP3 GT ISZERO PUSH2 0x1560 JUMPI PUSH2 0x155F PUSH2 0x14CE JUMP JUMPDEST JUMPDEST PUSH2 0x1569 DUP3 PUSH2 0x14BE JUMP JUMPDEST SWAP1 POP PUSH1 0x20 DUP2 ADD SWAP1 POP SWAP2 SWAP1 POP JUMP JUMPDEST DUP3 DUP2 DUP4 CALLDATACOPY PUSH0 DUP4 DUP4 ADD MSTORE POP POP POP JUMP JUMPDEST PUSH0 PUSH2 0x1596 PUSH2 0x1591 DUP5 PUSH2 0x1546 JUMP JUMPDEST PUSH2 0x152C JUMP JUMPDEST SWAP1 POP DUP3 DUP2 MSTORE PUSH1 0x20 DUP2 ADD DUP5 DUP5 DUP5 ADD GT ISZERO PUSH2 0x15B2 JUMPI PUSH2 0x15B1 PUSH2 0x14BA JUMP JUMPDEST JUMPDEST PUSH2 0x15BD DUP5 DUP3 DUP6 PUSH2 0x1576 JUMP JUMPDEST POP SWAP4 SWAP3 POP POP POP JUMP JUMPDEST PUSH0 DUP3 PUSH1 0x1F DUP4 ADD SLT PUSH2 0x15D9 JUMPI PUSH2 0x15D8 PUSH2 0x14B6 JUMP JUMPDEST JUMPDEST DUP2 CALLDATALOAD PUSH2 0x15E9 DUP5 DUP3 PUSH1 0x20 DUP7 ADD PUSH2 0x1584 JUMP JUMPDEST SWAP2 POP POP SWAP3 SWAP2 POP POP JUMP JUMPDEST PUSH0 DUP1 PUSH0 PUSH1 0x60 DUP5 DUP7 SUB SLT ISZERO PUSH2 0x1609 JUMPI PUSH2 0x1608 PUSH2 0x1388 JUMP JUMPDEST JUMPDEST PUSH0 PUSH2 0x1616 DUP7 DUP3 DUP8 ADD PUSH2 0x146F JUMP JUMPDEST SWAP4 POP POP PUSH1 0x20 PUSH2 0x1627 DUP7 DUP3 DUP8 ADD PUSH2 0x14A2 JUMP JUMPDEST SWAP3 POP POP PUSH1 0x40 DUP5 ADD CALLDATALOAD PUSH8 0xFFFFFFFFFFFFFFFF DUP2 GT ISZERO PUSH2 0x1648 JUMPI PUSH2 0x1647 PUSH2 0x138C JUMP JUMPDEST JUMPDEST PUSH2 0x1654 DUP7 DUP3 DUP8 ADD PUSH2 0x15C5 JUMP JUMPDEST SWAP2 POP POP SWAP3 POP SWAP3 POP SWAP3 JUMP JUMPDEST PUSH0 DUP1 PUSH1 0x40 DUP4 DUP6 SUB SLT ISZERO PUSH2 0x1674 JUMPI PUSH2 0x1673 PUSH2 0x1388 JUMP JUMPDEST JUMPDEST PUSH0 PUSH2 0x1681 DUP6 DUP3 DUP7 ADD PUSH2 0x13D6 JUMP JUMPDEST SWAP3 POP POP PUSH1 0x20 PUSH2 0x1692 DUP6 DUP3 DUP7 ADD PUSH2 0x13D6 JUMP JUMPDEST SWAP2 POP POP SWAP3 POP SWAP3 SWAP1 POP JUMP JUMPDEST PUSH0 DUP2 MLOAD SWAP1 POP SWAP2 SWAP1 POP JUMP JUMPDEST PUSH0 DUP3 DUP3 MSTORE PUSH1 0x20 DUP3 ADD SWAP1 POP SWAP3 SWAP2 POP POP JUMP JUMPDEST DUP3 DUP2 DUP4 MCOPY PUSH0 DUP4 DUP4 ADD MSTORE POP POP POP JUMP JUMPDEST PUSH0 PUSH2 0x16CE DUP3 PUSH2 0x169C JUMP JUMPDEST PUSH2 0x16D8 DUP2 DUP6 PUSH2 0x16A6 JUMP JUMPDEST SWAP4 POP PUSH2 0x16E8 DUP2 DUP6 PUSH1 0x20 DUP7 ADD PUSH2 0x16B6 JUMP JUMPDEST PUSH2 0x16F1 DUP2 PUSH2 0x14BE JUMP JUMPDEST DUP5 ADD SWAP2 POP POP SWAP3 SWAP2 POP POP JUMP JUMPDEST PUSH0 PUSH1 0x20 DUP3 ADD SWAP1 POP DUP2 DUP2 SUB PUSH0 DUP4 ADD MSTORE PUSH2 0x1714 DUP2 DUP5 PUSH2 0x16C4 JUMP JUMPDEST SWAP1 POP SWAP3 SWAP2 POP POP JUMP JUMPDEST PUSH0 DUP1 PUSH1 0x40 DUP4 DUP6 SUB SLT ISZERO PUSH2 0x1732 JUMPI PUSH2 0x1731 PUSH2 0x1388 JUMP JUMPDEST JUMPDEST PUSH0 PUSH2 0x173F DUP6 DUP3 DUP7 ADD PUSH2 0x14A2 JUMP JUMPDEST SWAP3 POP POP PUSH1 0x20 DUP4 ADD CALLDATALOAD PUSH8 0xFFFFFFFFFFFFFFFF DUP2 GT ISZERO PUSH2 0x1760 JUMPI PUSH2 0x175F PUSH2 0x138C JUMP JUMPDEST JUMPDEST PUSH2 0x176C DUP6 DUP3 DUP7 ADD PUSH2 0x15C5 JUMP JUMPDEST SWAP2 POP POP SWAP3 POP SWAP3 SWAP1 POP JUMP JUMPDEST PUSH32 0x4E6F2077696C6C20666F756E6421000000000000000000000000000000000000 PUSH0 DUP3 ADD MSTORE POP JUMP JUMPDEST PUSH0 PUSH2 0x17AA PUSH1 0xE DUP4 PUSH2 0x16A6 JUMP JUMPDEST SWAP2 POP PUSH2 0x17B5 DUP3 PUSH2 0x1776 JUMP JUMPDEST PUSH1 0x20 DUP3 ADD SWAP1 POP SWAP2 SWAP1 POP JUMP JUMPDEST PUSH0 PUSH1 0x20 DUP3 ADD SWAP1 POP DUP2 DUP2 SUB PUSH0 DUP4 ADD MSTORE PUSH2 0x17D7 DUP2 PUSH2 0x179E JUMP JUMPDEST SWAP1 POP SWAP2 SWAP1 POP JUMP JUMPDEST PUSH32 0x4E487B7100000000000000000000000000000000000000000000000000000000 PUSH0 MSTORE PUSH1 0x11 PUSH1 0x4 MSTORE PUSH1 0x24 PUSH0 REVERT JUMPDEST PUSH0 PUSH2 0x1815 DUP3 PUSH2 0x1483 JUMP JUMPDEST SWAP2 POP PUSH2 0x1820 DUP4 PUSH2 0x1483 JUMP JUMPDEST SWAP3 POP DUP3 DUP3 ADD SWAP1 POP DUP1 DUP3 GT ISZERO PUSH2 0x1838 JUMPI PUSH2 0x1837 PUSH2 0x17DE JUMP JUMPDEST JUMPDEST SWAP3 SWAP2 POP POP JUMP JUMPDEST PUSH32 0x4F776E6572206973207374696C6C20616C697665210000000000000000000000 PUSH0 DUP3 ADD MSTORE POP JUMP JUMPDEST PUSH0 PUSH2 0x1872 PUSH1 0x15 DUP4 PUSH2 0x16A6 JUMP JUMPDEST SWAP2 POP PUSH2 0x187D DUP3 PUSH2 0x183E JUMP JUMPDEST PUSH1 0x20 DUP3 ADD SWAP1 POP SWAP2 SWAP1 POP JUMP JUMPDEST PUSH0 PUSH1 0x20 DUP3 ADD SWAP1 POP DUP2 DUP2 SUB PUSH0 DUP4 ADD MSTORE PUSH2 0x189F DUP2 PUSH2 0x1866 JUMP JUMPDEST SWAP1 POP SWAP2 SWAP1 POP JUMP JUMPDEST PUSH32 0x596F75206E65656420746F2063726561746520612077696C6C20666972737400 PUSH0 DUP3 ADD MSTORE POP JUMP JUMPDEST PUSH0 PUSH2 0x18DA PUSH1 0x1F DUP4 PUSH2 0x16A6 JUMP JUMPDEST SWAP2 POP PUSH2 0x18E5 DUP3 PUSH2 0x18A6 JUMP JUMPDEST PUSH1 0x20 DUP3 ADD SWAP1 POP SWAP2 SWAP1 POP JUMP JUMPDEST PUSH0 PUSH1 0x20 DUP3 ADD SWAP1 POP DUP2 DUP2 SUB PUSH0 DUP4 ADD MSTORE PUSH2 0x1907 DUP2 PUSH2 0x18CE JUMP JUMPDEST SWAP1 POP SWAP2 SWAP1 POP JUMP JUMPDEST PUSH32 0x496E76616C69642070657263656E746167650000000000000000000000000000 PUSH0 DUP3 ADD MSTORE POP JUMP JUMPDEST PUSH0 PUSH2 0x1942 PUSH1 0x12 DUP4 PUSH2 0x16A6 JUMP JUMPDEST SWAP2 POP PUSH2 0x194D DUP3 PUSH2 0x190E JUMP JUMPDEST PUSH1 0x20 DUP3 ADD SWAP1 POP SWAP2 SWAP1 POP JUMP JUMPDEST PUSH0 PUSH1 0x20 DUP3 ADD SWAP1 POP DUP2 DUP2 SUB PUSH0 DUP4 ADD MSTORE PUSH2 0x196F DUP2 PUSH2 0x1936 JUMP JUMPDEST SWAP1 POP SWAP2 SWAP1 POP JUMP JUMPDEST PUSH32 0x4E487B7100000000000000000000000000000000000000000000000000000000 PUSH0 MSTORE PUSH1 0x32 PUSH1 0x4 MSTORE PUSH1 0x24 PUSH0 REVERT JUMPDEST PUSH32 0x546F74616C20616C6C6F636174696F6E20657863656564732031303025000000 PUSH0 DUP3 ADD MSTORE POP JUMP JUMPDEST PUSH0 PUSH2 0x19D7 PUSH1 0x1D DUP4 PUSH2 0x16A6 JUMP JUMPDEST SWAP2 POP PUSH2 0x19E2 DUP3 PUSH2 0x19A3 JUMP JUMPDEST PUSH1 0x20 DUP3 ADD SWAP1 POP SWAP2 SWAP1 POP JUMP JUMPDEST PUSH0 PUSH1 0x20 DUP3 ADD SWAP1 POP DUP2 DUP2 SUB PUSH0 DUP4 ADD MSTORE PUSH2 0x1A04 DUP2 PUSH2 0x19CB JUMP JUMPDEST SWAP1 POP SWAP2 SWAP1 POP JUMP JUMPDEST PUSH32 0x4E487B7100000000000000000000000000000000000000000000000000000000 PUSH0 MSTORE PUSH1 0x22 PUSH1 0x4 MSTORE PUSH1 0x24 PUSH0 REVERT JUMPDEST PUSH0 PUSH1 0x2 DUP3 DIV SWAP1 POP PUSH1 0x1 DUP3 AND DUP1 PUSH2 0x1A4F JUMPI PUSH1 0x7F DUP3 AND SWAP2 POP JUMPDEST PUSH1 0x20 DUP3 LT DUP2 SUB PUSH2 0x1A62 JUMPI PUSH2 0x1A61 PUSH2 0x1A0B JUMP JUMPDEST JUMPDEST POP SWAP2 SWAP1 POP JUMP JUMPDEST PUSH0 DUP2 SWAP1 POP DUP2 PUSH0 MSTORE PUSH1 0x20 PUSH0 KECCAK256 SWAP1 POP SWAP2 SWAP1 POP JUMP JUMPDEST PUSH0 PUSH1 0x20 PUSH1 0x1F DUP4 ADD DIV SWAP1 POP SWAP2 SWAP1 POP JUMP JUMPDEST PUSH0 DUP3 DUP3 SHL SWAP1 POP SWAP3 SWAP2 POP POP JUMP JUMPDEST PUSH0 PUSH1 0x8 DUP4 MUL PUSH2 0x1AC4 PUSH32 0xFFFFFFFFFFFFFFFFFFFFFFFFFFFFFFFFFFFFFFFFFFFFFFFFFFFFFFFFFFFFFFFF DUP3 PUSH2 0x1A89 JUMP JUMPDEST PUSH2 0x1ACE DUP7 DUP4 PUSH2 0x1A89 JUMP JUMPDEST SWAP6 POP DUP1 NOT DUP5 AND SWAP4 POP DUP1 DUP7 AND DUP5 OR SWAP3 POP POP POP SWAP4 SWAP3 POP POP POP JUMP JUMPDEST PUSH0 DUP2 SWAP1 POP SWAP2 SWAP1 POP JUMP JUMPDEST PUSH0 PUSH2 0x1B09 PUSH2 0x1B04 PUSH2 0x1AFF DUP5 PUSH2 0x1483 JUMP JUMPDEST PUSH2 0x1AE6 JUMP JUMPDEST PUSH2 0x1483 JUMP JUMPDEST SWAP1 POP SWAP2 SWAP1 POP JUMP JUMPDEST PUSH0 DUP2 SWAP1 POP SWAP2 SWAP1 POP JUMP JUMPDEST PUSH2 0x1B22 DUP4 PUSH2 0x1AEF JUMP JUMPDEST PUSH2 0x1B36 PUSH2 0x1B2E DUP3 PUSH2 0x1B10 JUMP JUMPDEST DUP5 DUP5 SLOAD PUSH2 0x1A95 JUMP JUMPDEST DUP3 SSTORE POP POP POP POP JUMP JUMPDEST PUSH0 SWAP1 JUMP JUMPDEST PUSH2 0x1B4A PUSH2 0x1B3E JUMP JUMPDEST PUSH2 0x1B55 DUP2 DUP5 DUP5 PUSH2 0x1B19 JUMP JUMPDEST POP POP POP JUMP JUMPDEST JUMPDEST DUP2 DUP2 LT ISZERO PUSH2 0x1B78 JUMPI PUSH2 0x1B6D PUSH0 DUP3 PUSH2 0x1B42 JUMP JUMPDEST PUSH1 0x1 DUP2 ADD SWAP1 POP PUSH2 0x1B5B JUMP JUMPDEST POP POP JUMP JUMPDEST PUSH1 0x1F DUP3 GT ISZERO PUSH2 0x1BBD JUMPI PUSH2 0x1B8E DUP2 PUSH2 0x1A68 JUMP JUMPDEST PUSH2 0x1B97 DUP5 PUSH2 0x1A7A JUMP JUMPDEST DUP2 ADD PUSH1 0x20 DUP6 LT ISZERO PUSH2 0x1BA6 JUMPI DUP2 SWAP1 POP JUMPDEST PUSH2 0x1BBA PUSH2 0x1BB2 DUP6 PUSH2 0x1A7A JUMP JUMPDEST DUP4 ADD DUP3 PUSH2 0x1B5A JUMP JUMPDEST POP POP JUMPDEST POP POP POP JUMP JUMPDEST PUSH0 DUP3 DUP3 SHR SWAP1 POP SWAP3 SWAP2 POP POP JUMP JUMPDEST PUSH0 PUSH2 0x1BDD PUSH0 NOT DUP5 PUSH1 0x8 MUL PUSH2 0x1BC2 JUMP JUMPDEST NOT DUP1 DUP4 AND SWAP2 POP POP SWAP3 SWAP2 POP POP JUMP JUMPDEST PUSH0 PUSH2 0x1BF5 DUP4 DUP4 PUSH2 0x1BCE JUMP JUMPDEST SWAP2 POP DUP3 PUSH1 0x2 MUL DUP3 OR SWAP1 POP SWAP3 SWAP2 POP POP JUMP JUMPDEST PUSH2 0x1C0E DUP3 PUSH2 0x169C JUMP JUMPDEST PUSH8 0xFFFFFFFFFFFFFFFF DUP2 GT ISZERO PUSH2 0x1C27 JUMPI PUSH2 0x1C26 PUSH2 0x14CE JUMP JUMPDEST JUMPDEST PUSH2 0x1C31 DUP3 SLOAD PUSH2 0x1A38 JUMP JUMPDEST PUSH2 0x1C3C DUP3 DUP3 DUP6 PUSH2 0x1B7C JUMP JUMPDEST PUSH0 PUSH1 0x20 SWAP1 POP PUSH1 0x1F DUP4 GT PUSH1 0x1 DUP2 EQ PUSH2 0x1C6D JUMPI PUSH0 DUP5 ISZERO PUSH2 0x1C5B JUMPI DUP3 DUP8 ADD MLOAD SWAP1 POP JUMPDEST PUSH2 0x1C65 DUP6 DUP3 PUSH2 0x1BEA JUMP JUMPDEST DUP7 SSTORE POP PUSH2 0x1CCC JUMP JUMPDEST PUSH1 0x1F NOT DUP5 AND PUSH2 0x1C7B DUP7 PUSH2 0x1A68 JUMP JUMPDEST PUSH0 JUMPDEST DUP3 DUP2 LT ISZERO PUSH2 0x1CA2 JUMPI DUP5 DUP10 ADD MLOAD DUP3 SSTORE PUSH1 0x1 DUP3 ADD SWAP2 POP PUSH1 0x20 DUP6 ADD SWAP5 POP PUSH1 0x20 DUP2 ADD SWAP1 POP PUSH2 0x1C7D JUMP JUMPDEST DUP7 DUP4 LT ISZERO PUSH2 0x1CBF JUMPI DUP5 DUP10 ADD MLOAD PUSH2 0x1CBB PUSH1 0x1F DUP10 AND DUP3 PUSH2 0x1BCE JUMP JUMPDEST DUP4 SSTORE POP JUMPDEST PUSH1 0x1 PUSH1 0x2 DUP9 MUL ADD DUP9 SSTORE POP POP POP JUMPDEST POP POP POP POP POP POP JUMP JUMPDEST PUSH32 0x57696C6C20686173206E6F74206265656E206578656375746564207965740000 PUSH0 DUP3 ADD MSTORE POP JUMP JUMPDEST PUSH0 PUSH2 0x1D08 PUSH1 0x1E DUP4 PUSH2 0x16A6 JUMP JUMPDEST SWAP2 POP PUSH2 0x1D13 DUP3 PUSH2 0x1CD4 JUMP JUMPDEST PUSH1 0x20 DUP3 ADD SWAP1 POP SWAP2 SWAP1 POP JUMP JUMPDEST PUSH0 PUSH1 0x20 DUP3 ADD SWAP1 POP DUP2 DUP2 SUB PUSH0 DUP4 ADD MSTORE PUSH2 0x1D35 DUP2 PUSH2 0x1CFC JUMP JUMPDEST SWAP1 POP SWAP2 SWAP1 POP JUMP JUMPDEST PUSH32 0x42656E6566696369617279206E6F7420666F756E640000000000000000000000 PUSH0 DUP3 ADD MSTORE POP JUMP JUMPDEST PUSH0 PUSH2 0x1D70 PUSH1 0x15 DUP4 PUSH2 0x16A6 JUMP JUMPDEST SWAP2 POP PUSH2 0x1D7B DUP3 PUSH2 0x1D3C JUMP JUMPDEST PUSH1 0x20 DUP3 ADD SWAP1 POP SWAP2 SWAP1 POP JUMP JUMPDEST PUSH0 PUSH1 0x20 DUP3 ADD SWAP1 POP DUP2 DUP2 SUB PUSH0 DUP4 ADD MSTORE PUSH2 0x1D9D DUP2 PUSH2 0x1D64 JUMP JUMPDEST SWAP1 POP SWAP2 SWAP1 POP JUMP JUMPDEST PUSH32 0x596F7520616C7265616479206861766520612077696C6C210000000000000000 PUSH0 DUP3 ADD MSTORE POP JUMP JUMPDEST PUSH0 PUSH2 0x1DD8 PUSH1 0x18 DUP4 PUSH2 0x16A6 JUMP JUMPDEST SWAP2 POP PUSH2 0x1DE3 DUP3 PUSH2 0x1DA4 JUMP JUMPDEST PUSH1 0x20 DUP3 ADD SWAP1 POP SWAP2 SWAP1 POP JUMP JUMPDEST PUSH0 PUSH1 0x20 DUP3 ADD SWAP1 POP DUP2 DUP2 SUB PUSH0 DUP4 ADD MSTORE PUSH2 0x1E05 DUP2 PUSH2 0x1DCC JUMP JUMPDEST SWAP1 POP SWAP2 SWAP1 POP JUMP JUMPDEST PUSH32 0x4D757374206C6F636B2045544821000000000000000000000000000000000000 PUSH0 DUP3 ADD MSTORE POP JUMP JUMPDEST PUSH0 PUSH2 0x1E40 PUSH1 0xE DUP4 PUSH2 0x16A6 JUMP JUMPDEST SWAP2 POP PUSH2 0x1E4B DUP3 PUSH2 0x1E0C JUMP JUMPDEST PUSH1 0x20 DUP3 ADD SWAP1 POP SWAP2 SWAP1 POP JUMP JUMPDEST PUSH0 PUSH1 0x20 DUP3 ADD SWAP1 POP DUP2 DUP2 SUB PUSH0 DUP4 ADD MSTORE PUSH2 0x1E6D DUP2 PUSH2 0x1E34 JUMP JUMPDEST SWAP1 POP SWAP2 SWAP1 POP JUMP JUMPDEST PUSH2 0x1E7D DUP2 PUSH2 0x1483 JUMP JUMPDEST DUP3 MSTORE POP POP JUMP JUMPDEST PUSH0 PUSH1 0x20 DUP3 ADD SWAP1 POP PUSH2 0x1E96 PUSH0 DUP4 ADD DUP5 PUSH2 0x1E74 JUMP JUMPDEST SWAP3 SWAP2 POP POP JUMP JUMPDEST PUSH32 0x57696C6C206E6F74206578656375746564207965740000000000000000000000 PUSH0 DUP3 ADD MSTORE POP JUMP JUMPDEST PUSH0 PUSH2 0x1ED0 PUSH1 0x15 DUP4 PUSH2 0x16A6 JUMP JUMPDEST SWAP2 POP PUSH2 0x1EDB DUP3 PUSH2 0x1E9C JUMP JUMPDEST PUSH1 0x20 DUP3 ADD SWAP1 POP SWAP2 SWAP1 POP JUMP JUMPDEST PUSH0 PUSH1 0x20 DUP3 ADD SWAP1 POP DUP2 DUP2 SUB PUSH0 DUP4 ADD MSTORE PUSH2 0x1EFD DUP2 PUSH2 0x1EC4 JUMP JUMPDEST SWAP1 POP SWAP2 SWAP1 POP JUMP JUMPDEST PUSH32 0x4E6F2045544820696E20636F6E74726163740000000000000000000000000000 PUSH0 DUP3 ADD MSTORE POP JUMP JUMPDEST PUSH0 PUSH2 0x1F38 PUSH1 0x12 DUP4 PUSH2 0x16A6 JUMP JUMPDEST SWAP2 POP PUSH2 0x1F43 DUP3 PUSH2 0x1F04 JUMP JUMPDEST PUSH1 0x20 DUP3 ADD SWAP1 POP SWAP2 SWAP1 POP JUMP JUMPDEST PUSH0 PUSH1 0x20 DUP3 ADD SWAP1 POP DUP2 DUP2 SUB PUSH0 DUP4 ADD MSTORE PUSH2 0x1F65 DUP2 PUSH2 0x1F2C JUMP JUMPDEST SWAP1 POP SWAP2 SWAP1 POP JUMP JUMPDEST PUSH0 PUSH2 0x1F76 DUP3 PUSH2 0x1483 JUMP JUMPDEST SWAP2 POP PUSH2 0x1F81 DUP4 PUSH2 0x1483 JUMP JUMPDEST SWAP3 POP DUP3 DUP3 MUL PUSH2 0x1F8F DUP2 PUSH2 0x1483 JUMP JUMPDEST SWAP2 POP DUP3 DUP3 DIV DUP5 EQ DUP4 ISZERO OR PUSH2 0x1FA6 JUMPI PUSH2 0x1FA5 PUSH2 0x17DE JUMP JUMPDEST JUMPDEST POP SWAP3 SWAP2 POP POP JUMP JUMPDEST PUSH32 0x4E487B7100000000000000000000000000000000000000000000000000000000 PUSH0 MSTORE PUSH1 0x12 PUSH1 0x4 MSTORE PUSH1 0x24 PUSH0 REVERT JUMPDEST PUSH0 PUSH2 0x1FE4 DUP3 PUSH2 0x1483 JUMP JUMPDEST SWAP2 POP PUSH2 0x1FEF DUP4 PUSH2 0x1483 JUMP JUMPDEST SWAP3 POP DUP3 PUSH2 0x1FFF JUMPI PUSH2 0x1FFE PUSH2 0x1FAD JUMP JUMPDEST JUMPDEST DUP3 DUP3 DIV SWAP1 POP SWAP3 SWAP2 POP POP JUMP INVALID LOG2 PUSH5 0x6970667358 0x22 SLT KECCAK256 GAS MCOPY PUSH20 0xE1B3FE6127F2284F19AA71C531D7E6C910444E5C 0xDC PUSH25 0x21A59513209D0564736F6C634300081A003300000000000000 "
	},
	"Assembly": ".code\n  PUSH 80\t\t\tcontract MultiWillContract {\\n...\n  PUSH 40\t\t\tcontract MultiWillContract {\\n...\n  MSTORE \t\t\tcontract MultiWillContract {\\n...\n  CALLVALUE \t\t\tcontract MultiWillContract {\\n...\n  DUP1 \t\t\tcontract MultiWillContract {\\n...\n  ISZERO \t\t\tcontract MultiWillContract {\\n...\n  PUSH [tag] 1\t\t\tcontract MultiWillContract {\\n...\n  JUMPI \t\t\tcontract MultiWillContract {\\n...\n  PUSH 0\t\t\tcontract MultiWillContract {\\n...\n  DUP1 \t\t\tcontract MultiWillContract {\\n...\n  REVERT \t\t\tcontract MultiWillContract {\\n...\ntag 1\t\t\tcontract MultiWillContract {\\n...\n  JUMPDEST \t\t\tcontract MultiWillContract {\\n...\n  POP \t\t\tcontract MultiWillContract {\\n...\n  PUSH #[$] 0000000000000000000000000000000000000000000000000000000000000000\t\t\tcontract MultiWillContract {\\n...\n  DUP1 \t\t\tcontract MultiWillContract {\\n...\n  PUSH [$] 0000000000000000000000000000000000000000000000000000000000000000\t\t\tcontract MultiWillContract {\\n...\n  PUSH 0\t\t\tcontract MultiWillContract {\\n...\n  CODECOPY \t\t\tcontract MultiWillContract {\\n...\n  PUSH 0\t\t\tcontract MultiWillContract {\\n...\n  RETURN \t\t\tcontract MultiWillContract {\\n...\n.data\n  0:\n    .code\n      PUSH 80\t\t\tcontract MultiWillContract {\\n...\n      PUSH 40\t\t\tcontract MultiWillContract {\\n...\n      MSTORE \t\t\tcontract MultiWillContract {\\n...\n      PUSH 4\t\t\tcontract MultiWillContract {\\n...\n      CALLDATASIZE \t\t\tcontract MultiWillContract {\\n...\n      LT \t\t\tcontract MultiWillContract {\\n...\n      PUSH [tag] 1\t\t\tcontract MultiWillContract {\\n...\n      JUMPI \t\t\tcontract MultiWillContract {\\n...\n      PUSH 0\t\t\tcontract MultiWillContract {\\n...\n      CALLDATALOAD \t\t\tcontract MultiWillContract {\\n...\n      PUSH E0\t\t\tcontract MultiWillContract {\\n...\n      SHR \t\t\tcontract MultiWillContract {\\n...\n      DUP1 \t\t\tcontract MultiWillContract {\\n...\n      PUSH 935A619E\t\t\tcontract MultiWillContract {\\n...\n      GT \t\t\tcontract MultiWillContract {\\n...\n      PUSH [tag] 9\t\t\tcontract MultiWillContract {\\n...\n      JUMPI \t\t\tcontract MultiWillContract {\\n...\n      DUP1 \t\t\tcontract MultiWillContract {\\n...\n      PUSH 935A619E\t\t\tcontract MultiWillContract {\\n...\n      EQ \t\t\tcontract MultiWillContract {\\n...\n      PUSH [tag] 5\t\t\tcontract MultiWillContract {\\n...\n      JUMPI \t\t\tcontract MultiWillContract {\\n...\n      DUP1 \t\t\tcontract MultiWillContract {\\n...\n      PUSH C20162D4\t\t\tcontract MultiWillContract {\\n...\n      EQ \t\t\tcontract MultiWillContract {\\n...\n      PUSH [tag] 6\t\t\tcontract MultiWillContract {\\n...\n      JUMPI \t\t\tcontract MultiWillContract {\\n...\n      DUP1 \t\t\tcontract MultiWillContract {\\n...\n      PUSH CF801035\t\t\tcontract MultiWillContract {\\n...\n      EQ \t\t\tcontract MultiWillContract {\\n...\n      PUSH [tag] 7\t\t\tcontract MultiWillContract {\\n...\n      JUMPI \t\t\tcontract MultiWillContract {\\n...\n      DUP1 \t\t\tcontract MultiWillContract {\\n...\n      PUSH E7FCC918\t\t\tcontract MultiWillContract {\\n...\n      EQ \t\t\tcontract MultiWillContract {\\n...\n      PUSH [tag] 8\t\t\tcontract MultiWillContract {\\n...\n      JUMPI \t\t\tcontract MultiWillContract {\\n...\n      PUSH [tag] 1\t\t\tcontract MultiWillContract {\\n...\n      JUMP \t\t\tcontract MultiWillContract {\\n...\n    tag 9\t\t\tcontract MultiWillContract {\\n...\n      JUMPDEST \t\t\tcontract MultiWillContract {\\n...\n      DUP1 \t\t\tcontract MultiWillContract {\\n...\n      PUSH 52218D90\t\t\tcontract MultiWillContract {\\n...\n      EQ \t\t\tcontract MultiWillContract {\\n...\n      PUSH [tag] 2\t\t\tcontract MultiWillContract {\\n...\n      JUMPI \t\t\tcontract MultiWillContract {\\n...\n      DUP1 \t\t\tcontract MultiWillContract {\\n...\n      PUSH 549CC7B8\t\t\tcontract MultiWillContract {\\n...\n      EQ \t\t\tcontract MultiWillContract {\\n...\n      PUSH [tag] 3\t\t\tcontract MultiWillContract {\\n...\n      JUMPI \t\t\tcontract MultiWillContract {\\n...\n      DUP1 \t\t\tcontract MultiWillContract {\\n...\n      PUSH 6F9B65F0\t\t\tcontract MultiWillContract {\\n...\n      EQ \t\t\tcontract MultiWillContract {\\n...\n      PUSH [tag] 4\t\t\tcontract MultiWillContract {\\n...\n      JUMPI \t\t\tcontract MultiWillContract {\\n...\n    tag 1\t\t\tcontract MultiWillContract {\\n...\n      JUMPDEST \t\t\tcontract MultiWillContract {\\n...\n      PUSH 0\t\t\tcontract MultiWillContract {\\n...\n      DUP1 \t\t\tcontract MultiWillContract {\\n...\n      REVERT \t\t\tcontract MultiWillContract {\\n...\n    tag 2\t\t\tfunction checkDeath(address us...\n      JUMPDEST \t\t\tfunction checkDeath(address us...\n      CALLVALUE \t\t\tfunction checkDeath(address us...\n      DUP1 \t\t\tfunction checkDeath(address us...\n      ISZERO \t\t\tfunction checkDeath(address us...\n      PUSH [tag] 10\t\t\tfunction checkDeath(address us...\n      JUMPI \t\t\tfunction checkDeath(address us...\n      PUSH 0\t\t\tfunction checkDeath(address us...\n      DUP1 \t\t\tfunction checkDeath(address us...\n      REVERT \t\t\tfunction checkDeath(address us...\n    tag 10\t\t\tfunction checkDeath(address us...\n      JUMPDEST \t\t\tfunction checkDeath(address us...\n      POP \t\t\tfunction checkDeath(address us...\n      PUSH [tag] 11\t\t\tfunction checkDeath(address us...\n      PUSH 4\t\t\tfunction checkDeath(address us...\n      DUP1 \t\t\tfunction checkDeath(address us...\n      CALLDATASIZE \t\t\tfunction checkDeath(address us...\n      SUB \t\t\tfunction checkDeath(address us...\n      DUP2 \t\t\tfunction checkDeath(address us...\n      ADD \t\t\tfunction checkDeath(address us...\n      SWAP1 \t\t\tfunction checkDeath(address us...\n      PUSH [tag] 12\t\t\tfunction checkDeath(address us...\n      SWAP2 \t\t\tfunction checkDeath(address us...\n      SWAP1 \t\t\tfunction checkDeath(address us...\n      PUSH [tag] 13\t\t\tfunction checkDeath(address us...\n      JUMP \t\t\tfunction checkDeath(address us...\n    tag 12\t\t\tfunction checkDeath(address us...\n      JUMPDEST \t\t\tfunction checkDeath(address us...\n      PUSH [tag] 14\t\t\tfunction checkDeath(address us...\n      JUMP \t\t\tfunction checkDeath(address us...\n    tag 11\t\t\tfunction checkDeath(address us...\n      JUMPDEST \t\t\tfunction checkDeath(address us...\n      STOP \t\t\tfunction checkDeath(address us...\n    tag 3\t\t\tmapping(address => bool) publi...\n      JUMPDEST \t\t\tmapping(address => bool) publi...\n      CALLVALUE \t\t\tmapping(address => bool) publi...\n      DUP1 \t\t\tmapping(address => bool) publi...\n      ISZERO \t\t\tmapping(address => bool) publi...\n      PUSH [tag] 15\t\t\tmapping(address => bool) publi...\n      JUMPI \t\t\tmapping(address => bool) publi...\n      PUSH 0\t\t\tmapping(address => bool) publi...\n      DUP1 \t\t\tmapping(address => bool) publi...\n      REVERT \t\t\tmapping(address => bool) publi...\n    tag 15\t\t\tmapping(address => bool) publi...\n      JUMPDEST \t\t\tmapping(address => bool) publi...\n      POP \t\t\tmapping(address => bool) publi...\n      PUSH [tag] 16\t\t\tmapping(address => bool) publi...\n      PUSH 4\t\t\tmapping(address => bool) publi...\n      DUP1 \t\t\tmapping(address => bool) publi...\n      CALLDATASIZE \t\t\tmapping(address => bool) publi...\n      SUB \t\t\tmapping(address => bool) publi...\n      DUP2 \t\t\tmapping(address => bool) publi...\n      ADD \t\t\tmapping(address => bool) publi...\n      SWAP1 \t\t\tmapping(address => bool) publi...\n      PUSH [tag] 17\t\t\tmapping(address => bool) publi...\n      SWAP2 \t\t\tmapping(address => bool) publi...\n      SWAP1 \t\t\tmapping(address => bool) publi...\n      PUSH [tag] 13\t\t\tmapping(address => bool) publi...\n      JUMP \t\t\tmapping(address => bool) publi...\n    tag 17\t\t\tmapping(address => bool) publi...\n      JUMPDEST \t\t\tmapping(address => bool) publi...\n      PUSH [tag] 18\t\t\tmapping(address => bool) publi...\n      JUMP \t\t\tmapping(address => bool) publi...\n    tag 16\t\t\tmapping(address => bool) publi...\n      JUMPDEST \t\t\tmapping(address => bool) publi...\n      PUSH 40\t\t\tmapping(address => bool) publi...\n      MLOAD \t\t\tmapping(address => bool) publi...\n      PUSH [tag] 19\t\t\tmapping(address => bool) publi...\n      SWAP2 \t\t\tmapping(address => bool) publi...\n      SWAP1 \t\t\tmapping(address => bool) publi...\n      PUSH [tag] 20\t\t\tmapping(address => bool) publi...\n      JUMP \t\t\tmapping(address => bool) publi...\n    tag 19\t\t\tmapping(address => bool) publi...\n      JUMPDEST \t\t\tmapping(address => bool) publi...\n      PUSH 40\t\t\tmapping(address => bool) publi...\n      MLOAD \t\t\tmapping(address => bool) publi...\n      DUP1 \t\t\tmapping(address => bool) publi...\n      SWAP2 \t\t\tmapping(address => bool) publi...\n      SUB \t\t\tmapping(address => bool) publi...\n      SWAP1 \t\t\tmapping(address => bool) publi...\n      RETURN \t\t\tmapping(address => bool) publi...\n    tag 4\t\t\tfunction confirmAlive() public...\n      JUMPDEST \t\t\tfunction confirmAlive() public...\n      CALLVALUE \t\t\tfunction confirmAlive() public...\n      DUP1 \t\t\tfunction confirmAlive() public...\n      ISZERO \t\t\tfunction confirmAlive() public...\n      PUSH [tag] 21\t\t\tfunction confirmAlive() public...\n      JUMPI \t\t\tfunction confirmAlive() public...\n      PUSH 0\t\t\tfunction confirmAlive() public...\n      DUP1 \t\t\tfunction confirmAlive() public...\n      REVERT \t\t\tfunction confirmAlive() public...\n    tag 21\t\t\tfunction confirmAlive() public...\n      JUMPDEST \t\t\tfunction confirmAlive() public...\n      POP \t\t\tfunction confirmAlive() public...\n      PUSH [tag] 22\t\t\tfunction confirmAlive() public...\n      PUSH [tag] 23\t\t\tfunction confirmAlive() public...\n      JUMP \t\t\tfunction confirmAlive() public...\n    tag 22\t\t\tfunction confirmAlive() public...\n      JUMPDEST \t\t\tfunction confirmAlive() public...\n      STOP \t\t\tfunction confirmAlive() public...\n    tag 5\t\t\tfunction addBeneficiary(addres...\n      JUMPDEST \t\t\tfunction addBeneficiary(addres...\n      CALLVALUE \t\t\tfunction addBeneficiary(addres...\n      DUP1 \t\t\tfunction addBeneficiary(addres...\n      ISZERO \t\t\tfunction addBeneficiary(addres...\n      PUSH [tag] 24\t\t\tfunction addBeneficiary(addres...\n      JUMPI \t\t\tfunction addBeneficiary(addres...\n      PUSH 0\t\t\tfunction addBeneficiary(addres...\n      DUP1 \t\t\tfunction addBeneficiary(addres...\n      REVERT \t\t\tfunction addBeneficiary(addres...\n    tag 24\t\t\tfunction addBeneficiary(addres...\n      JUMPDEST \t\t\tfunction addBeneficiary(addres...\n      POP \t\t\tfunction addBeneficiary(addres...\n      PUSH [tag] 25\t\t\tfunction addBeneficiary(addres...\n      PUSH 4\t\t\tfunction addBeneficiary(addres...\n      DUP1 \t\t\tfunction addBeneficiary(addres...\n      CALLDATASIZE \t\t\tfunction addBeneficiary(addres...\n      SUB \t\t\tfunction addBeneficiary(addres...\n      DUP2 \t\t\tfunction addBeneficiary(addres...\n      ADD \t\t\tfunction addBeneficiary(addres...\n      SWAP1 \t\t\tfunction addBeneficiary(addres...\n      PUSH [tag] 26\t\t\tfunction addBeneficiary(addres...\n      SWAP2 \t\t\tfunction addBeneficiary(addres...\n      SWAP1 \t\t\tfunction addBeneficiary(addres...\n      PUSH [tag] 27\t\t\tfunction addBeneficiary(addres...\n      JUMP \t\t\tfunction addBeneficiary(addres...\n    tag 26\t\t\tfunction addBeneficiary(addres...\n      JUMPDEST \t\t\tfunction addBeneficiary(addres...\n      PUSH [tag] 28\t\t\tfunction addBeneficiary(addres...\n      JUMP \t\t\tfunction addBeneficiary(addres...\n    tag 25\t\t\tfunction addBeneficiary(addres...\n      JUMPDEST \t\t\tfunction addBeneficiary(addres...\n      STOP \t\t\tfunction addBeneficiary(addres...\n    tag 6\t\t\tfunction getSaleDeed(address u...\n      JUMPDEST \t\t\tfunction getSaleDeed(address u...\n      CALLVALUE \t\t\tfunction getSaleDeed(address u...\n      DUP1 \t\t\tfunction getSaleDeed(address u...\n      ISZERO \t\t\tfunction getSaleDeed(address u...\n      PUSH [tag] 29\t\t\tfunction getSaleDeed(address u...\n      JUMPI \t\t\tfunction getSaleDeed(address u...\n      PUSH 0\t\t\tfunction getSaleDeed(address u...\n      DUP1 \t\t\tfunction getSaleDeed(address u...\n      REVERT \t\t\tfunction getSaleDeed(address u...\n    tag 29\t\t\tfunction getSaleDeed(address u...\n      JUMPDEST \t\t\tfunction getSaleDeed(address u...\n      POP \t\t\tfunction getSaleDeed(address u...\n      PUSH [tag] 30\t\t\tfunction getSaleDeed(address u...\n      PUSH 4\t\t\tfunction getSaleDeed(address u...\n      DUP1 \t\t\tfunction getSaleDeed(address u...\n      CALLDATASIZE \t\t\tfunction getSaleDeed(address u...\n      SUB \t\t\tfunction getSaleDeed(address u...\n      DUP2 \t\t\tfunction getSaleDeed(address u...\n      ADD \t\t\tfunction getSaleDeed(address u...\n      SWAP1 \t\t\tfunction getSaleDeed(address u...\n      PUSH [tag] 31\t\t\tfunction getSaleDeed(address u...\n      SWAP2 \t\t\tfunction getSaleDeed(address u...\n      SWAP1 \t\t\tfunction getSaleDeed(address u...\n      PUSH [tag] 32\t\t\tfunction getSaleDeed(address u...\n      JUMP \t\t\tfunction getSaleDeed(address u...\n    tag 31\t\t\tfunction getSaleDeed(address u...\n      JUMPDEST \t\t\tfunction getSaleDeed(address u...\n      PUSH [tag] 33\t\t\tfunction getSaleDeed(address u...\n      JUMP \t\t\tfunction getSaleDeed(address u...\n    tag 30\t\t\tfunction getSaleDeed(address u...\n      JUMPDEST \t\t\tfunction getSaleDeed(address u...\n      PUSH 40\t\t\tfunction getSaleDeed(address u...\n      MLOAD \t\t\tfunction getSaleDeed(address u...\n      PUSH [tag] 34\t\t\tfunction getSaleDeed(address u...\n      SWAP2 \t\t\tfunction getSaleDeed(address u...\n      SWAP1 \t\t\tfunction getSaleDeed(address u...\n      PUSH [tag] 35\t\t\tfunction getSaleDeed(address u...\n      JUMP \t\t\tfunction getSaleDeed(address u...\n    tag 34\t\t\tfunction getSaleDeed(address u...\n      JUMPDEST \t\t\tfunction getSaleDeed(address u...\n      PUSH 40\t\t\tfunction getSaleDeed(address u...\n      MLOAD \t\t\tfunction getSaleDeed(address u...\n      DUP1 \t\t\tfunction getSaleDeed(address u...\n      SWAP2 \t\t\tfunction getSaleDeed(address u...\n      SUB \t\t\tfunction getSaleDeed(address u...\n      SWAP1 \t\t\tfunction getSaleDeed(address u...\n      RETURN \t\t\tfunction getSaleDeed(address u...\n    tag 7\t\t\tfunction createWill(uint256 _p...\n      JUMPDEST \t\t\tfunction createWill(uint256 _p...\n      PUSH [tag] 36\t\t\tfunction createWill(uint256 _p...\n      PUSH 4\t\t\tfunction createWill(uint256 _p...\n      DUP1 \t\t\tfunction createWill(uint256 _p...\n      CALLDATASIZE \t\t\tfunction createWill(uint256 _p...\n      SUB \t\t\tfunction createWill(uint256 _p...\n      DUP2 \t\t\tfunction createWill(uint256 _p...\n      ADD \t\t\tfunction createWill(uint256 _p...\n      SWAP1 \t\t\tfunction createWill(uint256 _p...\n      PUSH [tag] 37\t\t\tfunction createWill(uint256 _p...\n      SWAP2 \t\t\tfunction createWill(uint256 _p...\n      SWAP1 \t\t\tfunction createWill(uint256 _p...\n      PUSH [tag] 38\t\t\tfunction createWill(uint256 _p...\n      JUMP \t\t\tfunction createWill(uint256 _p...\n    tag 37\t\t\tfunction createWill(uint256 _p...\n      JUMPDEST \t\t\tfunction createWill(uint256 _p...\n      PUSH [tag] 39\t\t\tfunction createWill(uint256 _p...\n      JUMP \t\t\tfunction createWill(uint256 _p...\n    tag 36\t\t\tfunction createWill(uint256 _p...\n      JUMPDEST \t\t\tfunction createWill(uint256 _p...\n      STOP \t\t\tfunction createWill(uint256 _p...\n    tag 8\t\t\tfunction getNotarizedWill(addr...\n      JUMPDEST \t\t\tfunction getNotarizedWill(addr...\n      CALLVALUE \t\t\tfunction getNotarizedWill(addr...\n      DUP1 \t\t\tfunction getNotarizedWill(addr...\n      ISZERO \t\t\tfunction getNotarizedWill(addr...\n      PUSH [tag] 40\t\t\tfunction getNotarizedWill(addr...\n      JUMPI \t\t\tfunction getNotarizedWill(addr...\n      PUSH 0\t\t\tfunction getNotarizedWill(addr...\n      DUP1 \t\t\tfunction getNotarizedWill(addr...\n      REVERT \t\t\tfunction getNotarizedWill(addr...\n    tag 40\t\t\tfunction getNotarizedWill(addr...\n      JUMPDEST \t\t\tfunction getNotarizedWill(addr...\n      POP \t\t\tfunction getNotarizedWill(addr...\n      PUSH [tag] 41\t\t\tfunction getNotarizedWill(addr...\n      PUSH 4\t\t\tfunction getNotarizedWill(addr...\n      DUP1 \t\t\tfunction getNotarizedWill(addr...\n      CALLDATASIZE \t\t\tfunction getNotarizedWill(addr...\n      SUB \t\t\tfunction getNotarizedWill(addr...\n      DUP2 \t\t\tfunction getNotarizedWill(addr...\n      ADD \t\t\tfunction getNotarizedWill(addr...\n      SWAP1 \t\t\tfunction getNotarizedWill(addr...\n      PUSH [tag] 42\t\t\tfunction getNotarizedWill(addr...\n      SWAP2 \t\t\tfunction getNotarizedWill(addr...\n      SWAP1 \t\t\tfunction getNotarizedWill(addr...\n      PUSH [tag] 13\t\t\tfunction getNotarizedWill(addr...\n      JUMP \t\t\tfunction getNotarizedWill(addr...\n    tag 42\t\t\tfunction getNotarizedWill(addr...\n      JUMPDEST \t\t\tfunction getNotarizedWill(addr...\n      PUSH [tag] 43\t\t\tfunction getNotarizedWill(addr...\n      JUMP \t\t\tfunction getNotarizedWill(addr...\n    tag 41\t\t\tfunction getNotarizedWill(addr...\n      JUMPDEST \t\t\tfunction getNotarizedWill(addr...\n      PUSH 40\t\t\tfunction getNotarizedWill(addr...\n      MLOAD \t\t\tfunction getNotarizedWill(addr...\n      PUSH [tag] 44\t\t\tfunction getNotarizedWill(addr...\n      SWAP2 \t\t\tfunction getNotarizedWill(addr...\n      SWAP1 \t\t\tfunction getNotarizedWill(addr...\n      PUSH [tag] 35\t\t\tfunction getNotarizedWill(addr...\n      JUMP \t\t\tfunction getNotarizedWill(addr...\n    tag 44\t\t\tfunction getNotarizedWill(addr...\n      JUMPDEST \t\t\tfunction getNotarizedWill(addr...\n      PUSH 40\t\t\tfunction getNotarizedWill(addr...\n      MLOAD \t\t\tfunction getNotarizedWill(addr...\n      DUP1 \t\t\tfunction getNotarizedWill(addr...\n      SWAP2 \t\t\tfunction getNotarizedWill(addr...\n      SUB \t\t\tfunction getNotarizedWill(addr...\n      SWAP1 \t\t\tfunction getNotarizedWill(addr...\n      RETURN \t\t\tfunction getNotarizedWill(addr...\n    tag 14\t\t\tfunction checkDeath(address us...\n      JUMPDEST \t\t\tfunction checkDeath(address us...\n      PUSH 1\t\t\thasWill\n      PUSH 0\t\t\thasWill[user]\n      DUP3 \t\t\tuser\n      PUSH FFFFFFFFFFFFFFFFFFFFFFFFFFFFFFFFFFFFFFFF\t\t\thasWill[user]\n      AND \t\t\thasWill[user]\n      PUSH FFFFFFFFFFFFFFFFFFFFFFFFFFFFFFFFFFFFFFFF\t\t\thasWill[user]\n      AND \t\t\thasWill[user]\n      DUP2 \t\t\thasWill[user]\n      MSTORE \t\t\thasWill[user]\n      PUSH 20\t\t\thasWill[user]\n      ADD \t\t\thasWill[user]\n      SWAP1 \t\t\thasWill[user]\n      DUP2 \t\t\thasWill[user]\n      MSTORE \t\t\thasWill[user]\n      PUSH 20\t\t\thasWill[user]\n      ADD \t\t\thasWill[user]\n      PUSH 0\t\t\thasWill[user]\n      KECCAK256 \t\t\thasWill[user]\n      PUSH 0\t\t\thasWill[user]\n      SWAP1 \t\t\thasWill[user]\n      SLOAD \t\t\thasWill[user]\n      SWAP1 \t\t\thasWill[user]\n      PUSH 100\t\t\thasWill[user]\n      EXP \t\t\thasWill[user]\n      SWAP1 \t\t\thasWill[user]\n      DIV \t\t\thasWill[user]\n      PUSH FF\t\t\thasWill[user]\n      AND \t\t\thasWill[user]\n      PUSH [tag] 46\t\t\trequire(hasWill[user], \"No wil...\n      JUMPI \t\t\trequire(hasWill[user], \"No wil...\n      PUSH 40\t\t\trequire(hasWill[user], \"No wil...\n      MLOAD \t\t\trequire(hasWill[user], \"No wil...\n      PUSH 8C379A000000000000000000000000000000000000000000000000000000000\t\t\trequire(hasWill[user], \"No wil...\n      DUP2 \t\t\trequire(hasWill[user], \"No wil...\n      MSTORE \t\t\trequire(hasWill[user], \"No wil...\n      PUSH 4\t\t\trequire(hasWill[user], \"No wil...\n      ADD \t\t\trequire(hasWill[user], \"No wil...\n      PUSH [tag] 47\t\t\trequire(hasWill[user], \"No wil...\n      SWAP1 \t\t\trequire(hasWill[user], \"No wil...\n      PUSH [tag] 48\t\t\trequire(hasWill[user], \"No wil...\n      JUMP \t\t\trequire(hasWill[user], \"No wil...\n    tag 47\t\t\trequire(hasWill[user], \"No wil...\n      JUMPDEST \t\t\trequire(hasWill[user], \"No wil...\n      PUSH 40\t\t\trequire(hasWill[user], \"No wil...\n      MLOAD \t\t\trequire(hasWill[user], \"No wil...\n      DUP1 \t\t\trequire(hasWill[user], \"No wil...\n      SWAP2 \t\t\trequire(hasWill[user], \"No wil...\n      SUB \t\t\trequire(hasWill[user], \"No wil...\n      SWAP1 \t\t\trequire(hasWill[user], \"No wil...\n      REVERT \t\t\trequire(hasWill[user], \"No wil...\n    tag 46\t\t\trequire(hasWill[user], \"No wil...\n      JUMPDEST \t\t\trequire(hasWill[user], \"No wil...\n      PUSH 0\t\t\twills\n      DUP1 \t\t\twills[user]\n      DUP3 \t\t\tuser\n      PUSH FFFFFFFFFFFFFFFFFFFFFFFFFFFFFFFFFFFFFFFF\t\t\twills[user]\n      AND \t\t\twills[user]\n      PUSH FFFFFFFFFFFFFFFFFFFFFFFFFFFFFFFFFFFFFFFF\t\t\twills[user]\n      AND \t\t\twills[user]\n      DUP2 \t\t\twills[user]\n      MSTORE \t\t\twills[user]\n      PUSH 20\t\t\twills[user]\n      ADD \t\t\twills[user]\n      SWAP1 \t\t\twills[user]\n      DUP2 \t\t\twills[user]\n      MSTORE \t\t\twills[user]\n      PUSH 20\t\t\twills[user]\n      ADD \t\t\twills[user]\n      PUSH 0\t\t\twills[user]\n      KECCAK256 \t\t\twills[user]\n      PUSH 3\t\t\twills[user].proofOfLifeInterva...\n      ADD \t\t\twills[user].proofOfLifeInterva...\n      SLOAD \t\t\twills[user].proofOfLifeInterva...\n      PUSH 0\t\t\twills\n      DUP1 \t\t\twills[user]\n      DUP4 \t\t\tuser\n      PUSH FFFFFFFFFFFFFFFFFFFFFFFFFFFFFFFFFFFFFFFF\t\t\twills[user]\n      AND \t\t\twills[user]\n      PUSH FFFFFFFFFFFFFFFFFFFFFFFFFFFFFFFFFFFFFFFF\t\t\twills[user]\n      AND \t\t\twills[user]\n      DUP2 \t\t\twills[user]\n      MSTORE \t\t\twills[user]\n      PUSH 20\t\t\twills[user]\n      ADD \t\t\twills[user]\n      SWAP1 \t\t\twills[user]\n      DUP2 \t\t\twills[user]\n      MSTORE \t\t\twills[user]\n      PUSH 20\t\t\twills[user]\n      ADD \t\t\twills[user]\n      PUSH 0\t\t\twills[user]\n      KECCAK256 \t\t\twills[user]\n      PUSH 2\t\t\twills[user].lastAliveTime\n      ADD \t\t\twills[user].lastAliveTime\n      SLOAD \t\t\twills[user].lastAliveTime\n      PUSH [tag] 49\t\t\twills[user].lastAliveTime + wi...\n      SWAP2 \t\t\twills[user].lastAliveTime + wi...\n      SWAP1 \t\t\twills[user].lastAliveTime + wi...\n      PUSH [tag] 50\t\t\twills[user].lastAliveTime + wi...\n      JUMP \t\t\twills[user].lastAliveTime + wi...\n    tag 49\t\t\twills[user].lastAliveTime + wi...\n      JUMPDEST \t\t\twills[user].lastAliveTime + wi...\n      TIMESTAMP \t\t\tblock.timestamp\n      GT \t\t\tblock.timestamp > wills[user]....\n      PUSH [tag] 51\t\t\trequire(block.timestamp > will...\n      JUMPI \t\t\trequire(block.timestamp > will...\n      PUSH 40\t\t\trequire(block.timestamp > will...\n      MLOAD \t\t\trequire(block.timestamp > will...\n      PUSH 8C379A000000000000000000000000000000000000000000000000000000000\t\t\trequire(block.timestamp > will...\n      DUP2 \t\t\trequire(block.timestamp > will...\n      MSTORE \t\t\trequire(block.timestamp > will...\n      PUSH 4\t\t\trequire(block.timestamp > will...\n      ADD \t\t\trequire(block.timestamp > will...\n      PUSH [tag] 52\t\t\trequire(block.timestamp > will...\n      SWAP1 \t\t\trequire(block.timestamp > will...\n      PUSH [tag] 53\t\t\trequire(block.timestamp > will...\n      JUMP \t\t\trequire(block.timestamp > will...\n    tag 52\t\t\trequire(block.timestamp > will...\n      JUMPDEST \t\t\trequire(block.timestamp > will...\n      PUSH 40\t\t\trequire(block.timestamp > will...\n      MLOAD \t\t\trequire(block.timestamp > will...\n      DUP1 \t\t\trequire(block.timestamp > will...\n      SWAP2 \t\t\trequire(block.timestamp > will...\n      SUB \t\t\trequire(block.timestamp > will...\n      SWAP1 \t\t\trequire(block.timestamp > will...\n      REVERT \t\t\trequire(block.timestamp > will...\n    tag 51\t\t\trequire(block.timestamp > will...\n      JUMPDEST \t\t\trequire(block.timestamp > will...\n      PUSH 1\t\t\ttrue\n      PUSH 0\t\t\twills\n      DUP1 \t\t\twills[user]\n      DUP4 \t\t\tuser\n      PUSH FFFFFFFFFFFFFFFFFFFFFFFFFFFFFFFFFFFFFFFF\t\t\twills[user]\n      AND \t\t\twills[user]\n      PUSH FFFFFFFFFFFFFFFFFFFFFFFFFFFFFFFFFFFFFFFF\t\t\twills[user]\n      AND \t\t\twills[user]\n      DUP2 \t\t\twills[user]\n      MSTORE \t\t\twills[user]\n      PUSH 20\t\t\twills[user]\n      ADD \t\t\twills[user]\n      SWAP1 \t\t\twills[user]\n      DUP2 \t\t\twills[user]\n      MSTORE \t\t\twills[user]\n      PUSH 20\t\t\twills[user]\n      ADD \t\t\twills[user]\n      PUSH 0\t\t\twills[user]\n      KECCAK256 \t\t\twills[user]\n      PUSH 4\t\t\twills[user].isDeceased\n      ADD \t\t\twills[user].isDeceased\n      PUSH 0\t\t\twills[user].isDeceased\n      PUSH 100\t\t\twills[user].isDeceased = true\n      EXP \t\t\twills[user].isDeceased = true\n      DUP2 \t\t\twills[user].isDeceased = true\n      SLOAD \t\t\twills[user].isDeceased = true\n      DUP2 \t\t\twills[user].isDeceased = true\n      PUSH FF\t\t\twills[user].isDeceased = true\n      MUL \t\t\twills[user].isDeceased = true\n      NOT \t\t\twills[user].isDeceased = true\n      AND \t\t\twills[user].isDeceased = true\n      SWAP1 \t\t\twills[user].isDeceased = true\n      DUP4 \t\t\twills[user].isDeceased = true\n      ISZERO \t\t\twills[user].isDeceased = true\n      ISZERO \t\t\twills[user].isDeceased = true\n      MUL \t\t\twills[user].isDeceased = true\n      OR \t\t\twills[user].isDeceased = true\n      SWAP1 \t\t\twills[user].isDeceased = true\n      SSTORE \t\t\twills[user].isDeceased = true\n      POP \t\t\twills[user].isDeceased = true\n      PUSH [tag] 54\t\t\texecuteWill(user)\n      DUP2 \t\t\tuser\n      PUSH [tag] 55\t\t\texecuteWill\n      JUMP \t\t\texecuteWill(user)\n    tag 54\t\t\texecuteWill(user)\n      JUMPDEST \t\t\texecuteWill(user)\n      DUP1 \t\t\tuser\n      PUSH FFFFFFFFFFFFFFFFFFFFFFFFFFFFFFFFFFFFFFFF\t\t\tWillExecuted(user)\n      AND \t\t\tWillExecuted(user)\n      PUSH 16346F65ADF8D84422B57AD74CB5607BF6C9E55C3C1FEA66344057E5BBA8A7EE\t\t\tWillExecuted(user)\n      PUSH 40\t\t\tWillExecuted(user)\n      MLOAD \t\t\tWillExecuted(user)\n      PUSH 40\t\t\tWillExecuted(user)\n      MLOAD \t\t\tWillExecuted(user)\n      DUP1 \t\t\tWillExecuted(user)\n      SWAP2 \t\t\tWillExecuted(user)\n      SUB \t\t\tWillExecuted(user)\n      SWAP1 \t\t\tWillExecuted(user)\n      LOG2 \t\t\tWillExecuted(user)\n      POP \t\t\tfunction checkDeath(address us...\n      JUMP \t\t\tfunction checkDeath(address us...\n    tag 18\t\t\tmapping(address => bool) publi...\n      JUMPDEST \t\t\tmapping(address => bool) publi...\n      PUSH 1\t\t\tmapping(address => bool) publi...\n      PUSH 20\t\t\tmapping(address => bool) publi...\n      MSTORE \t\t\tmapping(address => bool) publi...\n      DUP1 \t\t\tmapping(address => bool) publi...\n      PUSH 0\t\t\tmapping(address => bool) publi...\n      MSTORE \t\t\tmapping(address => bool) publi...\n      PUSH 40\t\t\tmapping(address => bool) publi...\n      PUSH 0\t\t\tmapping(address => bool) publi...\n      KECCAK256 \t\t\tmapping(address => bool) publi...\n      PUSH 0\t\t\tmapping(address => bool) publi...\n      SWAP2 \t\t\tmapping(address => bool) publi...\n      POP \t\t\tmapping(address => bool) publi...\n      SLOAD \t\t\tmapping(address => bool) publi...\n      SWAP1 \t\t\tmapping(address => bool) publi...\n      PUSH 100\t\t\tmapping(address => bool) publi...\n      EXP \t\t\tmapping(address => bool) publi...\n      SWAP1 \t\t\tmapping(address => bool) publi...\n      DIV \t\t\tmapping(address => bool) publi...\n      PUSH FF\t\t\tmapping(address => bool) publi...\n      AND \t\t\tmapping(address => bool) publi...\n      DUP2 \t\t\tmapping(address => bool) publi...\n      JUMP \t\t\tmapping(address => bool) publi...\n    tag 23\t\t\tfunction confirmAlive() public...\n      JUMPDEST \t\t\tfunction confirmAlive() public...\n      PUSH 1\t\t\thasWill\n      PUSH 0\t\t\thasWill[msg.sender]\n      CALLER \t\t\tmsg.sender\n      PUSH FFFFFFFFFFFFFFFFFFFFFFFFFFFFFFFFFFFFFFFF\t\t\thasWill[msg.sender]\n      AND \t\t\thasWill[msg.sender]\n      PUSH FFFFFFFFFFFFFFFFFFFFFFFFFFFFFFFFFFFFFFFF\t\t\thasWill[msg.sender]\n      AND \t\t\thasWill[msg.sender]\n      DUP2 \t\t\thasWill[msg.sender]\n      MSTORE \t\t\thasWill[msg.sender]\n      PUSH 20\t\t\thasWill[msg.sender]\n      ADD \t\t\thasWill[msg.sender]\n      SWAP1 \t\t\thasWill[msg.sender]\n      DUP2 \t\t\thasWill[msg.sender]\n      MSTORE \t\t\thasWill[msg.sender]\n      PUSH 20\t\t\thasWill[msg.sender]\n      ADD \t\t\thasWill[msg.sender]\n      PUSH 0\t\t\thasWill[msg.sender]\n      KECCAK256 \t\t\thasWill[msg.sender]\n      PUSH 0\t\t\thasWill[msg.sender]\n      SWAP1 \t\t\thasWill[msg.sender]\n      SLOAD \t\t\thasWill[msg.sender]\n      SWAP1 \t\t\thasWill[msg.sender]\n      PUSH 100\t\t\thasWill[msg.sender]\n      EXP \t\t\thasWill[msg.sender]\n      SWAP1 \t\t\thasWill[msg.sender]\n      DIV \t\t\thasWill[msg.sender]\n      PUSH FF\t\t\thasWill[msg.sender]\n      AND \t\t\thasWill[msg.sender]\n      PUSH [tag] 57\t\t\trequire(hasWill[msg.sender], \"...\n      JUMPI \t\t\trequire(hasWill[msg.sender], \"...\n      PUSH 40\t\t\trequire(hasWill[msg.sender], \"...\n      MLOAD \t\t\trequire(hasWill[msg.sender], \"...\n      PUSH 8C379A000000000000000000000000000000000000000000000000000000000\t\t\trequire(hasWill[msg.sender], \"...\n      DUP2 \t\t\trequire(hasWill[msg.sender], \"...\n      MSTORE \t\t\trequire(hasWill[msg.sender], \"...\n      PUSH 4\t\t\trequire(hasWill[msg.sender], \"...\n      ADD \t\t\trequire(hasWill[msg.sender], \"...\n      PUSH [tag] 58\t\t\trequire(hasWill[msg.sender], \"...\n      SWAP1 \t\t\trequire(hasWill[msg.sender], \"...\n      PUSH [tag] 48\t\t\trequire(hasWill[msg.sender], \"...\n      JUMP \t\t\trequire(hasWill[msg.sender], \"...\n    tag 58\t\t\trequire(hasWill[msg.sender], \"...\n      JUMPDEST \t\t\trequire(hasWill[msg.sender], \"...\n      PUSH 40\t\t\trequire(hasWill[msg.sender], \"...\n      MLOAD \t\t\trequire(hasWill[msg.sender], \"...\n      DUP1 \t\t\trequire(hasWill[msg.sender], \"...\n      SWAP2 \t\t\trequire(hasWill[msg.sender], \"...\n      SUB \t\t\trequire(hasWill[msg.sender], \"...\n      SWAP1 \t\t\trequire(hasWill[msg.sender], \"...\n      REVERT \t\t\trequire(hasWill[msg.sender], \"...\n    tag 57\t\t\trequire(hasWill[msg.sender], \"...\n      JUMPDEST \t\t\trequire(hasWill[msg.sender], \"...\n      TIMESTAMP \t\t\tblock.timestamp\n      PUSH 0\t\t\twills\n      DUP1 \t\t\twills[msg.sender]\n      CALLER \t\t\tmsg.sender\n      PUSH FFFFFFFFFFFFFFFFFFFFFFFFFFFFFFFFFFFFFFFF\t\t\twills[msg.sender]\n      AND \t\t\twills[msg.sender]\n      PUSH FFFFFFFFFFFFFFFFFFFFFFFFFFFFFFFFFFFFFFFF\t\t\twills[msg.sender]\n      AND \t\t\twills[msg.sender]\n      DUP2 \t\t\twills[msg.sender]\n      MSTORE \t\t\twills[msg.sender]\n      PUSH 20\t\t\twills[msg.sender]\n      ADD \t\t\twills[msg.sender]\n      SWAP1 \t\t\twills[msg.sender]\n      DUP2 \t\t\twills[msg.sender]\n      MSTORE \t\t\twills[msg.sender]\n      PUSH 20\t\t\twills[msg.sender]\n      ADD \t\t\twills[msg.sender]\n      PUSH 0\t\t\twills[msg.sender]\n      KECCAK256 \t\t\twills[msg.sender]\n      PUSH 2\t\t\twills[msg.sender].lastAliveTim...\n      ADD \t\t\twills[msg.sender].lastAliveTim...\n      DUP2 \t\t\twills[msg.sender].lastAliveTim...\n      SWAP1 \t\t\twills[msg.sender].lastAliveTim...\n      SSTORE \t\t\twills[msg.sender].lastAliveTim...\n      POP \t\t\twills[msg.sender].lastAliveTim...\n      CALLER \t\t\tmsg.sender\n      PUSH FFFFFFFFFFFFFFFFFFFFFFFFFFFFFFFFFFFFFFFF\t\t\tProofOfLifeConfirmed(msg.sende...\n      AND \t\t\tProofOfLifeConfirmed(msg.sende...\n      PUSH 59646F34B02235D7A2502144EC7804574D19422C78DBD9B73B2F04D6B7286A96\t\t\tProofOfLifeConfirmed(msg.sende...\n      PUSH 40\t\t\tProofOfLifeConfirmed(msg.sende...\n      MLOAD \t\t\tProofOfLifeConfirmed(msg.sende...\n      PUSH 40\t\t\tProofOfLifeConfirmed(msg.sende...\n      MLOAD \t\t\tProofOfLifeConfirmed(msg.sende...\n      DUP1 \t\t\tProofOfLifeConfirmed(msg.sende...\n      SWAP2 \t\t\tProofOfLifeConfirmed(msg.sende...\n      SUB \t\t\tProofOfLifeConfirmed(msg.sende...\n      SWAP1 \t\t\tProofOfLifeConfirmed(msg.sende...\n      LOG2 \t\t\tProofOfLifeConfirmed(msg.sende...\n      JUMP \t\t\tfunction confirmAlive() public...\n    tag 28\t\t\tfunction addBeneficiary(addres...\n      JUMPDEST \t\t\tfunction addBeneficiary(addres...\n      PUSH 1\t\t\thasWill\n      PUSH 0\t\t\thasWill[msg.sender]\n      CALLER \t\t\tmsg.sender\n      PUSH FFFFFFFFFFFFFFFFFFFFFFFFFFFFFFFFFFFFFFFF\t\t\thasWill[msg.sender]\n      AND \t\t\thasWill[msg.sender]\n      PUSH FFFFFFFFFFFFFFFFFFFFFFFFFFFFFFFFFFFFFFFF\t\t\thasWill[msg.sender]\n      AND \t\t\thasWill[msg.sender]\n      DUP2 \t\t\thasWill[msg.sender]\n      MSTORE \t\t\thasWill[msg.sender]\n      PUSH 20\t\t\thasWill[msg.sender]\n      ADD \t\t\thasWill[msg.sender]\n      SWAP1 \t\t\thasWill[msg.sender]\n      DUP2 \t\t\thasWill[msg.sender]\n      MSTORE \t\t\thasWill[msg.sender]\n      PUSH 20\t\t\thasWill[msg.sender]\n      ADD \t\t\thasWill[msg.sender]\n      PUSH 0\t\t\thasWill[msg.sender]\n      KECCAK256 \t\t\thasWill[msg.sender]\n      PUSH 0\t\t\thasWill[msg.sender]\n      SWAP1 \t\t\thasWill[msg.sender]\n      SLOAD \t\t\thasWill[msg.sender]\n      SWAP1 \t\t\thasWill[msg.sender]\n      PUSH 100\t\t\thasWill[msg.sender]\n      EXP \t\t\thasWill[msg.sender]\n      SWAP1 \t\t\thasWill[msg.sender]\n      DIV \t\t\thasWill[msg.sender]\n      PUSH FF\t\t\thasWill[msg.sender]\n      AND \t\t\thasWill[msg.sender]\n      PUSH [tag] 60\t\t\trequire(hasWill[msg.sender], \"...\n      JUMPI \t\t\trequire(hasWill[msg.sender], \"...\n      PUSH 40\t\t\trequire(hasWill[msg.sender], \"...\n      MLOAD \t\t\trequire(hasWill[msg.sender], \"...\n      PUSH 8C379A000000000000000000000000000000000000000000000000000000000\t\t\trequire(hasWill[msg.sender], \"...\n      DUP2 \t\t\trequire(hasWill[msg.sender], \"...\n      MSTORE \t\t\trequire(hasWill[msg.sender], \"...\n      PUSH 4\t\t\trequire(hasWill[msg.sender], \"...\n      ADD \t\t\trequire(hasWill[msg.sender], \"...\n      PUSH [tag] 61\t\t\trequire(hasWill[msg.sender], \"...\n      SWAP1 \t\t\trequire(hasWill[msg.sender], \"...\n      PUSH [tag] 62\t\t\trequire(hasWill[msg.sender], \"...\n      JUMP \t\t\trequire(hasWill[msg.sender], \"...\n    tag 61\t\t\trequire(hasWill[msg.sender], \"...\n      JUMPDEST \t\t\trequire(hasWill[msg.sender], \"...\n      PUSH 40\t\t\trequire(hasWill[msg.sender], \"...\n      MLOAD \t\t\trequire(hasWill[msg.sender], \"...\n      DUP1 \t\t\trequire(hasWill[msg.sender], \"...\n      SWAP2 \t\t\trequire(hasWill[msg.sender], \"...\n      SUB \t\t\trequire(hasWill[msg.sender], \"...\n      SWAP1 \t\t\trequire(hasWill[msg.sender], \"...\n      REVERT \t\t\trequire(hasWill[msg.sender], \"...\n    tag 60\t\t\trequire(hasWill[msg.sender], \"...\n      JUMPDEST \t\t\trequire(hasWill[msg.sender], \"...\n      PUSH 0\t\t\t0\n      DUP3 \t\t\t_percentage\n      GT \t\t\t_percentage > 0\n      DUP1 \t\t\t_percentage > 0 && _percentage...\n      ISZERO \t\t\t_percentage > 0 && _percentage...\n      PUSH [tag] 63\t\t\t_percentage > 0 && _percentage...\n      JUMPI \t\t\t_percentage > 0 && _percentage...\n      POP \t\t\t_percentage > 0 && _percentage...\n      PUSH 64\t\t\t100\n      DUP3 \t\t\t_percentage\n      GT \t\t\t_percentage <= 100\n      ISZERO \t\t\t_percentage <= 100\n    tag 63\t\t\t_percentage > 0 && _percentage...\n      JUMPDEST \t\t\t_percentage > 0 && _percentage...\n      PUSH [tag] 64\t\t\trequire(_percentage > 0 && _pe...\n      JUMPI \t\t\trequire(_percentage > 0 && _pe...\n      PUSH 40\t\t\trequire(_percentage > 0 && _pe...\n      MLOAD \t\t\trequire(_percentage > 0 && _pe...\n      PUSH 8C379A000000000000000000000000000000000000000000000000000000000\t\t\trequire(_percentage > 0 && _pe...\n      DUP2 \t\t\trequire(_percentage > 0 && _pe...\n      MSTORE \t\t\trequire(_percentage > 0 && _pe...\n      PUSH 4\t\t\trequire(_percentage > 0 && _pe...\n      ADD \t\t\trequire(_percentage > 0 && _pe...\n      PUSH [tag] 65\t\t\trequire(_percentage > 0 && _pe...\n      SWAP1 \t\t\trequire(_percentage > 0 && _pe...\n      PUSH [tag] 66\t\t\trequire(_percentage > 0 && _pe...\n      JUMP \t\t\trequire(_percentage > 0 && _pe...\n    tag 65\t\t\trequire(_percentage > 0 && _pe...\n      JUMPDEST \t\t\trequire(_percentage > 0 && _pe...\n      PUSH 40\t\t\trequire(_percentage > 0 && _pe...\n      MLOAD \t\t\trequire(_percentage > 0 && _pe...\n      DUP1 \t\t\trequire(_percentage > 0 && _pe...\n      SWAP2 \t\t\trequire(_percentage > 0 && _pe...\n      SUB \t\t\trequire(_percentage > 0 && _pe...\n      SWAP1 \t\t\trequire(_percentage > 0 && _pe...\n      REVERT \t\t\trequire(_percentage > 0 && _pe...\n    tag 64\t\t\trequire(_percentage > 0 && _pe...\n      JUMPDEST \t\t\trequire(_percentage > 0 && _pe...\n      PUSH 0\t\t\tuint256 totalPercentage\n      DUP1 \t\t\tuint i\n    tag 67\t\t\tfor (uint i = 0; i < wills[msg...\n      JUMPDEST \t\t\tfor (uint i = 0; i < wills[msg...\n      PUSH 0\t\t\twills\n      DUP1 \t\t\twills[msg.sender]\n      CALLER \t\t\tmsg.sender\n      PUSH FFFFFFFFFFFFFFFFFFFFFFFFFFFFFFFFFFFFFFFF\t\t\twills[msg.sender]\n      AND \t\t\twills[msg.sender]\n      PUSH FFFFFFFFFFFFFFFFFFFFFFFFFFFFFFFFFFFFFFFF\t\t\twills[msg.sender]\n      AND \t\t\twills[msg.sender]\n      DUP2 \t\t\twills[msg.sender]\n      MSTORE \t\t\twills[msg.sender]\n      PUSH 20\t\t\twills[msg.sender]\n      ADD \t\t\twills[msg.sender]\n      SWAP1 \t\t\twills[msg.sender]\n      DUP2 \t\t\twills[msg.sender]\n      MSTORE \t\t\twills[msg.sender]\n      PUSH 20\t\t\twills[msg.sender]\n      ADD \t\t\twills[msg.sender]\n      PUSH 0\t\t\twills[msg.sender]\n      KECCAK256 \t\t\twills[msg.sender]\n      PUSH 6\t\t\twills[msg.sender].beneficiarie...\n      ADD \t\t\twills[msg.sender].beneficiarie...\n      DUP1 \t\t\twills[msg.sender].beneficiarie...\n      SLOAD \t\t\twills[msg.sender].beneficiarie...\n      SWAP1 \t\t\twills[msg.sender].beneficiarie...\n      POP \t\t\twills[msg.sender].beneficiarie...\n      DUP2 \t\t\ti\n      LT \t\t\ti < wills[msg.sender].benefici...\n      ISZERO \t\t\tfor (uint i = 0; i < wills[msg...\n      PUSH [tag] 68\t\t\tfor (uint i = 0; i < wills[msg...\n      JUMPI \t\t\tfor (uint i = 0; i < wills[msg...\n      PUSH 0\t\t\twills\n      DUP1 \t\t\twills[msg.sender]\n      CALLER \t\t\tmsg.sender\n      PUSH FFFFFFFFFFFFFFFFFFFFFFFFFFFFFFFFFFFFFFFF\t\t\twills[msg.sender]\n      AND \t\t\twills[msg.sender]\n      PUSH FFFFFFFFFFFFFFFFFFFFFFFFFFFFFFFFFFFFFFFF\t\t\twills[msg.sender]\n      AND \t\t\twills[msg.sender]\n      DUP2 \t\t\twills[msg.sender]\n      MSTORE \t\t\twills[msg.sender]\n      PUSH 20\t\t\twills[msg.sender]\n      ADD \t\t\twills[msg.sender]\n      SWAP1 \t\t\twills[msg.sender]\n      DUP2 \t\t\twills[msg.sender]\n      MSTORE \t\t\twills[msg.sender]\n      PUSH 20\t\t\twills[msg.sender]\n      ADD \t\t\twills[msg.sender]\n      PUSH 0\t\t\twills[msg.sender]\n      KECCAK256 \t\t\twills[msg.sender]\n      PUSH 6\t\t\twills[msg.sender].beneficiarie...\n      ADD \t\t\twills[msg.sender].beneficiarie...\n      DUP2 \t\t\ti\n      DUP2 \t\t\twills[msg.sender].beneficiarie...\n      SLOAD \t\t\twills[msg.sender].beneficiarie...\n      DUP2 \t\t\twills[msg.sender].beneficiarie...\n      LT \t\t\twills[msg.sender].beneficiarie...\n      PUSH [tag] 70\t\t\twills[msg.sender].beneficiarie...\n      JUMPI \t\t\twills[msg.sender].beneficiarie...\n      PUSH [tag] 71\t\t\twills[msg.sender].beneficiarie...\n      PUSH [tag] 72\t\t\twills[msg.sender].beneficiarie...\n      JUMP \t\t\twills[msg.sender].beneficiarie...\n    tag 71\t\t\twills[msg.sender].beneficiarie...\n      JUMPDEST \t\t\twills[msg.sender].beneficiarie...\n    tag 70\t\t\twills[msg.sender].beneficiarie...\n      JUMPDEST \t\t\twills[msg.sender].beneficiarie...\n      SWAP1 \t\t\twills[msg.sender].beneficiarie...\n      PUSH 0\t\t\twills[msg.sender].beneficiarie...\n      MSTORE \t\t\twills[msg.sender].beneficiarie...\n      PUSH 20\t\t\twills[msg.sender].beneficiarie...\n      PUSH 0\t\t\twills[msg.sender].beneficiarie...\n      KECCAK256 \t\t\twills[msg.sender].beneficiarie...\n      SWAP1 \t\t\twills[msg.sender].beneficiarie...\n      PUSH 3\t\t\twills[msg.sender].beneficiarie...\n      MUL \t\t\twills[msg.sender].beneficiarie...\n      ADD \t\t\twills[msg.sender].beneficiarie...\n      PUSH 1\t\t\twills[msg.sender].beneficiarie...\n      ADD \t\t\twills[msg.sender].beneficiarie...\n      SLOAD \t\t\twills[msg.sender].beneficiarie...\n      DUP3 \t\t\ttotalPercentage += wills[msg.s...\n      PUSH [tag] 74\t\t\ttotalPercentage += wills[msg.s...\n      SWAP2 \t\t\ttotalPercentage += wills[msg.s...\n      SWAP1 \t\t\ttotalPercentage += wills[msg.s...\n      PUSH [tag] 50\t\t\ttotalPercentage += wills[msg.s...\n      JUMP \t\t\ttotalPercentage += wills[msg.s...\n    tag 74\t\t\ttotalPercentage += wills[msg.s...\n      JUMPDEST \t\t\ttotalPercentage += wills[msg.s...\n      SWAP2 \t\t\ttotalPercentage += wills[msg.s...\n      POP \t\t\ttotalPercentage += wills[msg.s...\n      DUP1 \t\t\ti++\n      DUP1 \t\t\ti++\n      PUSH 1\t\t\ti++\n      ADD \t\t\ti++\n      SWAP2 \t\t\ti++\n      POP \t\t\ti++\n      POP \t\t\ti++\n      PUSH [tag] 67\t\t\tfor (uint i = 0; i < wills[msg...\n      JUMP \t\t\tfor (uint i = 0; i < wills[msg...\n    tag 68\t\t\tfor (uint i = 0; i < wills[msg...\n      JUMPDEST \t\t\tfor (uint i = 0; i < wills[msg...\n      POP \t\t\tfor (uint i = 0; i < wills[msg...\n      PUSH 64\t\t\t100\n      DUP4 \t\t\t_percentage\n      DUP3 \t\t\ttotalPercentage\n      PUSH [tag] 75\t\t\ttotalPercentage + _percentage\n      SWAP2 \t\t\ttotalPercentage + _percentage\n      SWAP1 \t\t\ttotalPercentage + _percentage\n      PUSH [tag] 50\t\t\ttotalPercentage + _percentage\n      JUMP \t\t\ttotalPercentage + _percentage\n    tag 75\t\t\ttotalPercentage + _percentage\n      JUMPDEST \t\t\ttotalPercentage + _percentage\n      GT \t\t\ttotalPercentage + _percentage ...\n      ISZERO \t\t\ttotalPercentage + _percentage ...\n      PUSH [tag] 76\t\t\trequire(totalPercentage + _per...\n      JUMPI \t\t\trequire(totalPercentage + _per...\n      PUSH 40\t\t\trequire(totalPercentage + _per...\n      MLOAD \t\t\trequire(totalPercentage + _per...\n      PUSH 8C379A000000000000000000000000000000000000000000000000000000000\t\t\trequire(totalPercentage + _per...\n      DUP2 \t\t\trequire(totalPercentage + _per...\n      MSTORE \t\t\trequire(totalPercentage + _per...\n      PUSH 4\t\t\trequire(totalPercentage + _per...\n      ADD \t\t\trequire(totalPercentage + _per...\n      PUSH [tag] 77\t\t\trequire(totalPercentage + _per...\n      SWAP1 \t\t\trequire(totalPercentage + _per...\n      PUSH [tag] 78\t\t\trequire(totalPercentage + _per...\n      JUMP \t\t\trequire(totalPercentage + _per...\n    tag 77\t\t\trequire(totalPercentage + _per...\n      JUMPDEST \t\t\trequire(totalPercentage + _per...\n      PUSH 40\t\t\trequire(totalPercentage + _per...\n      MLOAD \t\t\trequire(totalPercentage + _per...\n      DUP1 \t\t\trequire(totalPercentage + _per...\n      SWAP2 \t\t\trequire(totalPercentage + _per...\n      SUB \t\t\trequire(totalPercentage + _per...\n      SWAP1 \t\t\trequire(totalPercentage + _per...\n      REVERT \t\t\trequire(totalPercentage + _per...\n    tag 76\t\t\trequire(totalPercentage + _per...\n      JUMPDEST \t\t\trequire(totalPercentage + _per...\n      PUSH 0\t\t\twills\n      DUP1 \t\t\twills[msg.sender]\n      CALLER \t\t\tmsg.sender\n      PUSH FFFFFFFFFFFFFFFFFFFFFFFFFFFFFFFFFFFFFFFF\t\t\twills[msg.sender]\n      AND \t\t\twills[msg.sender]\n      PUSH FFFFFFFFFFFFFFFFFFFFFFFFFFFFFFFFFFFFFFFF\t\t\twills[msg.sender]\n      AND \t\t\twills[msg.sender]\n      DUP2 \t\t\twills[msg.sender]\n      MSTORE \t\t\twills[msg.sender]\n      PUSH 20\t\t\twills[msg.sender]\n      ADD \t\t\twills[msg.sender]\n      SWAP1 \t\t\twills[msg.sender]\n      DUP2 \t\t\twills[msg.sender]\n      MSTORE \t\t\twills[msg.sender]\n      PUSH 20\t\t\twills[msg.sender]\n      ADD \t\t\twills[msg.sender]\n      PUSH 0\t\t\twills[msg.sender]\n      KECCAK256 \t\t\twills[msg.sender]\n      PUSH 6\t\t\twills[msg.sender].beneficiarie...\n      ADD \t\t\twills[msg.sender].beneficiarie...\n      PUSH 40\t\t\tBeneficiary(_wallet, _percenta...\n      MLOAD \t\t\tBeneficiary(_wallet, _percenta...\n      DUP1 \t\t\tBeneficiary(_wallet, _percenta...\n      PUSH 60\t\t\tBeneficiary(_wallet, _percenta...\n      ADD \t\t\tBeneficiary(_wallet, _percenta...\n      PUSH 40\t\t\tBeneficiary(_wallet, _percenta...\n      MSTORE \t\t\tBeneficiary(_wallet, _percenta...\n      DUP1 \t\t\tBeneficiary(_wallet, _percenta...\n      DUP7 \t\t\t_wallet\n      PUSH FFFFFFFFFFFFFFFFFFFFFFFFFFFFFFFFFFFFFFFF\t\t\tBeneficiary(_wallet, _percenta...\n      AND \t\t\tBeneficiary(_wallet, _percenta...\n      DUP2 \t\t\tBeneficiary(_wallet, _percenta...\n      MSTORE \t\t\tBeneficiary(_wallet, _percenta...\n      PUSH 20\t\t\tBeneficiary(_wallet, _percenta...\n      ADD \t\t\tBeneficiary(_wallet, _percenta...\n      DUP6 \t\t\t_percentage\n      DUP2 \t\t\tBeneficiary(_wallet, _percenta...\n      MSTORE \t\t\tBeneficiary(_wallet, _percenta...\n      PUSH 20\t\t\tBeneficiary(_wallet, _percenta...\n      ADD \t\t\tBeneficiary(_wallet, _percenta...\n      DUP5 \t\t\t_saleDeedIpfsHash\n      DUP2 \t\t\tBeneficiary(_wallet, _percenta...\n      MSTORE \t\t\tBeneficiary(_wallet, _percenta...\n      POP \t\t\tBeneficiary(_wallet, _percenta...\n      SWAP1 \t\t\twills[msg.sender].beneficiarie...\n      DUP1 \t\t\twills[msg.sender].beneficiarie...\n      PUSH 1\t\t\twills[msg.sender].beneficiarie...\n      DUP2 \t\t\twills[msg.sender].beneficiarie...\n      SLOAD \t\t\twills[msg.sender].beneficiarie...\n      ADD \t\t\twills[msg.sender].beneficiarie...\n      DUP1 \t\t\twills[msg.sender].beneficiarie...\n      DUP3 \t\t\twills[msg.sender].beneficiarie...\n      SSTORE \t\t\twills[msg.sender].beneficiarie...\n      DUP1 \t\t\twills[msg.sender].beneficiarie...\n      SWAP2 \t\t\twills[msg.sender].beneficiarie...\n      POP \t\t\twills[msg.sender].beneficiarie...\n      POP \t\t\twills[msg.sender].beneficiarie...\n      PUSH 1\t\t\twills[msg.sender].beneficiarie...\n      SWAP1 \t\t\twills[msg.sender].beneficiarie...\n      SUB \t\t\twills[msg.sender].beneficiarie...\n      SWAP1 \t\t\twills[msg.sender].beneficiarie...\n      PUSH 0\t\t\twills[msg.sender].beneficiarie...\n      MSTORE \t\t\twills[msg.sender].beneficiarie...\n      PUSH 20\t\t\twills[msg.sender].beneficiarie...\n      PUSH 0\t\t\twills[msg.sender].beneficiarie...\n      KECCAK256 \t\t\twills[msg.sender].beneficiarie...\n      SWAP1 \t\t\twills[msg.sender].beneficiarie...\n      PUSH 3\t\t\twills[msg.sender].beneficiarie...\n      MUL \t\t\twills[msg.sender].beneficiarie...\n      ADD \t\t\twills[msg.sender].beneficiarie...\n      PUSH 0\t\t\twills[msg.sender].beneficiarie...\n      SWAP1 \t\t\twills[msg.sender].beneficiarie...\n      SWAP2 \t\t\twills[msg.sender].beneficiarie...\n      SWAP1 \t\t\twills[msg.sender].beneficiarie...\n      SWAP2 \t\t\twills[msg.sender].beneficiarie...\n      SWAP1 \t\t\twills[msg.sender].beneficiarie...\n      SWAP2 \t\t\twills[msg.sender].beneficiarie...\n      POP \t\t\twills[msg.sender].beneficiarie...\n      PUSH 0\t\t\twills[msg.sender].beneficiarie...\n      DUP3 \t\t\twills[msg.sender].beneficiarie...\n      ADD \t\t\twills[msg.sender].beneficiarie...\n      MLOAD \t\t\twills[msg.sender].beneficiarie...\n      DUP2 \t\t\twills[msg.sender].beneficiarie...\n      PUSH 0\t\t\twills[msg.sender].beneficiarie...\n      ADD \t\t\twills[msg.sender].beneficiarie...\n      PUSH 0\t\t\twills[msg.sender].beneficiarie...\n      PUSH 100\t\t\twills[msg.sender].beneficiarie...\n      EXP \t\t\twills[msg.sender].beneficiarie...\n      DUP2 \t\t\twills[msg.sender].beneficiarie...\n      SLOAD \t\t\twills[msg.sender].beneficiarie...\n      DUP2 \t\t\twills[msg.sender].beneficiarie...\n      PUSH FFFFFFFFFFFFFFFFFFFFFFFFFFFFFFFFFFFFFFFF\t\t\twills[msg.sender].beneficiarie...\n      MUL \t\t\twills[msg.sender].beneficiarie...\n      NOT \t\t\twills[msg.sender].beneficiarie...\n      AND \t\t\twills[msg.sender].beneficiarie...\n      SWAP1 \t\t\twills[msg.sender].beneficiarie...\n      DUP4 \t\t\twills[msg.sender].beneficiarie...\n      PUSH FFFFFFFFFFFFFFFFFFFFFFFFFFFFFFFFFFFFFFFF\t\t\twills[msg.sender].beneficiarie...\n      AND \t\t\twills[msg.sender].beneficiarie...\n      MUL \t\t\twills[msg.sender].beneficiarie...\n      OR \t\t\twills[msg.sender].beneficiarie...\n      SWAP1 \t\t\twills[msg.sender].beneficiarie...\n      SSTORE \t\t\twills[msg.sender].beneficiarie...\n      POP \t\t\twills[msg.sender].beneficiarie...\n      PUSH 20\t\t\twills[msg.sender].beneficiarie...\n      DUP3 \t\t\twills[msg.sender].beneficiarie...\n      ADD \t\t\twills[msg.sender].beneficiarie...\n      MLOAD \t\t\twills[msg.sender].beneficiarie...\n      DUP2 \t\t\twills[msg.sender].beneficiarie...\n      PUSH 1\t\t\twills[msg.sender].beneficiarie...\n      ADD \t\t\twills[msg.sender].beneficiarie...\n      SSTORE \t\t\twills[msg.sender].beneficiarie...\n      PUSH 40\t\t\twills[msg.sender].beneficiarie...\n      DUP3 \t\t\twills[msg.sender].beneficiarie...\n      ADD \t\t\twills[msg.sender].beneficiarie...\n      MLOAD \t\t\twills[msg.sender].beneficiarie...\n      DUP2 \t\t\twills[msg.sender].beneficiarie...\n      PUSH 2\t\t\twills[msg.sender].beneficiarie...\n      ADD \t\t\twills[msg.sender].beneficiarie...\n      SWAP1 \t\t\twills[msg.sender].beneficiarie...\n      DUP2 \t\t\twills[msg.sender].beneficiarie...\n      PUSH [tag] 80\t\t\twills[msg.sender].beneficiarie...\n      SWAP2 \t\t\twills[msg.sender].beneficiarie...\n      SWAP1 \t\t\twills[msg.sender].beneficiarie...\n      PUSH [tag] 81\t\t\twills[msg.sender].beneficiarie...\n      JUMP \t\t\twills[msg.sender].beneficiarie...\n    tag 80\t\t\twills[msg.sender].beneficiarie...\n      JUMPDEST \t\t\twills[msg.sender].beneficiarie...\n      POP \t\t\twills[msg.sender].beneficiarie...\n      POP \t\t\twills[msg.sender].beneficiarie...\n      POP \t\t\twills[msg.sender].beneficiarie...\n      POP \t\t\t{\\n        require(hasWill[msg...\n      POP \t\t\tfunction addBeneficiary(addres...\n      POP \t\t\tfunction addBeneficiary(addres...\n      POP \t\t\tfunction addBeneficiary(addres...\n      JUMP \t\t\tfunction addBeneficiary(addres...\n    tag 33\t\t\tfunction getSaleDeed(address u...\n      JUMPDEST \t\t\tfunction getSaleDeed(address u...\n      PUSH 60\t\t\tstring memory\n      PUSH 1\t\t\thasWill\n      PUSH 0\t\t\thasWill[user]\n      DUP5 \t\t\tuser\n      PUSH FFFFFFFFFFFFFFFFFFFFFFFFFFFFFFFFFFFFFFFF\t\t\thasWill[user]\n      AND \t\t\thasWill[user]\n      PUSH FFFFFFFFFFFFFFFFFFFFFFFFFFFFFFFFFFFFFFFF\t\t\thasWill[user]\n      AND \t\t\thasWill[user]\n      DUP2 \t\t\thasWill[user]\n      MSTORE \t\t\thasWill[user]\n      PUSH 20\t\t\thasWill[user]\n      ADD \t\t\thasWill[user]\n      SWAP1 \t\t\thasWill[user]\n      DUP2 \t\t\thasWill[user]\n      MSTORE \t\t\thasWill[user]\n      PUSH 20\t\t\thasWill[user]\n      ADD \t\t\thasWill[user]\n      PUSH 0\t\t\thasWill[user]\n      KECCAK256 \t\t\thasWill[user]\n      PUSH 0\t\t\thasWill[user]\n      SWAP1 \t\t\thasWill[user]\n      SLOAD \t\t\thasWill[user]\n      SWAP1 \t\t\thasWill[user]\n      PUSH 100\t\t\thasWill[user]\n      EXP \t\t\thasWill[user]\n      SWAP1 \t\t\thasWill[user]\n      DIV \t\t\thasWill[user]\n      PUSH FF\t\t\thasWill[user]\n      AND \t\t\thasWill[user]\n      PUSH [tag] 83\t\t\trequire(hasWill[user], \"No wil...\n      JUMPI \t\t\trequire(hasWill[user], \"No wil...\n      PUSH 40\t\t\trequire(hasWill[user], \"No wil...\n      MLOAD \t\t\trequire(hasWill[user], \"No wil...\n      PUSH 8C379A000000000000000000000000000000000000000000000000000000000\t\t\trequire(hasWill[user], \"No wil...\n      DUP2 \t\t\trequire(hasWill[user], \"No wil...\n      MSTORE \t\t\trequire(hasWill[user], \"No wil...\n      PUSH 4\t\t\trequire(hasWill[user], \"No wil...\n      ADD \t\t\trequire(hasWill[user], \"No wil...\n      PUSH [tag] 84\t\t\trequire(hasWill[user], \"No wil...\n      SWAP1 \t\t\trequire(hasWill[user], \"No wil...\n      PUSH [tag] 48\t\t\trequire(hasWill[user], \"No wil...\n      JUMP \t\t\trequire(hasWill[user], \"No wil...\n    tag 84\t\t\trequire(hasWill[user], \"No wil...\n      JUMPDEST \t\t\trequire(hasWill[user], \"No wil...\n      PUSH 40\t\t\trequire(hasWill[user], \"No wil...\n      MLOAD \t\t\trequire(hasWill[user], \"No wil...\n      DUP1 \t\t\trequire(hasWill[user], \"No wil...\n      SWAP2 \t\t\trequire(hasWill[user], \"No wil...\n      SUB \t\t\trequire(hasWill[user], \"No wil...\n      SWAP1 \t\t\trequire(hasWill[user], \"No wil...\n      REVERT \t\t\trequire(hasWill[user], \"No wil...\n    tag 83\t\t\trequire(hasWill[user], \"No wil...\n      JUMPDEST \t\t\trequire(hasWill[user], \"No wil...\n      PUSH 0\t\t\twills\n      DUP1 \t\t\twills[user]\n      DUP5 \t\t\tuser\n      PUSH FFFFFFFFFFFFFFFFFFFFFFFFFFFFFFFFFFFFFFFF\t\t\twills[user]\n      AND \t\t\twills[user]\n      PUSH FFFFFFFFFFFFFFFFFFFFFFFFFFFFFFFFFFFFFFFF\t\t\twills[user]\n      AND \t\t\twills[user]\n      DUP2 \t\t\twills[user]\n      MSTORE \t\t\twills[user]\n      PUSH 20\t\t\twills[user]\n      ADD \t\t\twills[user]\n      SWAP1 \t\t\twills[user]\n      DUP2 \t\t\twills[user]\n      MSTORE \t\t\twills[user]\n      PUSH 20\t\t\twills[user]\n      ADD \t\t\twills[user]\n      PUSH 0\t\t\twills[user]\n      KECCAK256 \t\t\twills[user]\n      PUSH 4\t\t\twills[user].isDeceased\n      ADD \t\t\twills[user].isDeceased\n      PUSH 0\t\t\twills[user].isDeceased\n      SWAP1 \t\t\twills[user].isDeceased\n      SLOAD \t\t\twills[user].isDeceased\n      SWAP1 \t\t\twills[user].isDeceased\n      PUSH 100\t\t\twills[user].isDeceased\n      EXP \t\t\twills[user].isDeceased\n      SWAP1 \t\t\twills[user].isDeceased\n      DIV \t\t\twills[user].isDeceased\n      PUSH FF\t\t\twills[user].isDeceased\n      AND \t\t\twills[user].isDeceased\n      PUSH [tag] 85\t\t\trequire(wills[user].isDeceased...\n      JUMPI \t\t\trequire(wills[user].isDeceased...\n      PUSH 40\t\t\trequire(wills[user].isDeceased...\n      MLOAD \t\t\trequire(wills[user].isDeceased...\n      PUSH 8C379A000000000000000000000000000000000000000000000000000000000\t\t\trequire(wills[user].isDeceased...\n      DUP2 \t\t\trequire(wills[user].isDeceased...\n      MSTORE \t\t\trequire(wills[user].isDeceased...\n      PUSH 4\t\t\trequire(wills[user].isDeceased...\n      ADD \t\t\trequire(wills[user].isDeceased...\n      PUSH [tag] 86\t\t\trequire(wills[user].isDeceased...\n      SWAP1 \t\t\trequire(wills[user].isDeceased...\n      PUSH [tag] 87\t\t\trequire(wills[user].isDeceased...\n      JUMP \t\t\trequire(wills[user].isDeceased...\n    tag 86\t\t\trequire(wills[user].isDeceased...\n      JUMPDEST \t\t\trequire(wills[user].isDeceased...\n      PUSH 40\t\t\trequire(wills[user].isDeceased...\n      MLOAD \t\t\trequire(wills[user].isDeceased...\n      DUP1 \t\t\trequire(wills[user].isDeceased...\n      SWAP2 \t\t\trequire(wills[user].isDeceased...\n      SUB \t\t\trequire(wills[user].isDeceased...\n      SWAP1 \t\t\trequire(wills[user].isDeceased...\n      REVERT \t\t\trequire(wills[user].isDeceased...\n    tag 85\t\t\trequire(wills[user].isDeceased...\n      JUMPDEST \t\t\trequire(wills[user].isDeceased...\n      PUSH 0\t\t\tuint i\n    tag 88\t\t\tfor (uint i = 0; i < wills[use...\n      JUMPDEST \t\t\tfor (uint i = 0; i < wills[use...\n      PUSH 0\t\t\twills\n      DUP1 \t\t\twills[user]\n      DUP6 \t\t\tuser\n      PUSH FFFFFFFFFFFFFFFFFFFFFFFFFFFFFFFFFFFFFFFF\t\t\twills[user]\n      AND \t\t\twills[user]\n      PUSH FFFFFFFFFFFFFFFFFFFFFFFFFFFFFFFFFFFFFFFF\t\t\twills[user]\n      AND \t\t\twills[user]\n      DUP2 \t\t\twills[user]\n      MSTORE \t\t\twills[user]\n      PUSH 20\t\t\twills[user]\n      ADD \t\t\twills[user]\n      SWAP1 \t\t\twills[user]\n      DUP2 \t\t\twills[user]\n      MSTORE \t\t\twills[user]\n      PUSH 20\t\t\twills[user]\n      ADD \t\t\twills[user]\n      PUSH 0\t\t\twills[user]\n      KECCAK256 \t\t\twills[user]\n      PUSH 6\t\t\twills[user].beneficiaries\n      ADD \t\t\twills[user].beneficiaries\n      DUP1 \t\t\twills[user].beneficiaries.leng...\n      SLOAD \t\t\twills[user].beneficiaries.leng...\n      SWAP1 \t\t\twills[user].beneficiaries.leng...\n      POP \t\t\twills[user].beneficiaries.leng...\n      DUP2 \t\t\ti\n      LT \t\t\ti < wills[user].beneficiaries....\n      ISZERO \t\t\tfor (uint i = 0; i < wills[use...\n      PUSH [tag] 89\t\t\tfor (uint i = 0; i < wills[use...\n      JUMPI \t\t\tfor (uint i = 0; i < wills[use...\n      DUP3 \t\t\t_beneficiary\n      PUSH FFFFFFFFFFFFFFFFFFFFFFFFFFFFFFFFFFFFFFFF\t\t\twills[user].beneficiaries[i].w...\n      AND \t\t\twills[user].beneficiaries[i].w...\n      PUSH 0\t\t\twills\n      DUP1 \t\t\twills[user]\n      DUP7 \t\t\tuser\n      PUSH FFFFFFFFFFFFFFFFFFFFFFFFFFFFFFFFFFFFFFFF\t\t\twills[user]\n      AND \t\t\twills[user]\n      PUSH FFFFFFFFFFFFFFFFFFFFFFFFFFFFFFFFFFFFFFFF\t\t\twills[user]\n      AND \t\t\twills[user]\n      DUP2 \t\t\twills[user]\n      MSTORE \t\t\twills[user]\n      PUSH 20\t\t\twills[user]\n      ADD \t\t\twills[user]\n      SWAP1 \t\t\twills[user]\n      DUP2 \t\t\twills[user]\n      MSTORE \t\t\twills[user]\n      PUSH 20\t\t\twills[user]\n      ADD \t\t\twills[user]\n      PUSH 0\t\t\twills[user]\n      KECCAK256 \t\t\twills[user]\n      PUSH 6\t\t\twills[user].beneficiaries\n      ADD \t\t\twills[user].beneficiaries\n      DUP3 \t\t\ti\n      DUP2 \t\t\twills[user].beneficiaries[i]\n      SLOAD \t\t\twills[user].beneficiaries[i]\n      DUP2 \t\t\twills[user].beneficiaries[i]\n      LT \t\t\twills[user].beneficiaries[i]\n      PUSH [tag] 91\t\t\twills[user].beneficiaries[i]\n      JUMPI \t\t\twills[user].beneficiaries[i]\n      PUSH [tag] 92\t\t\twills[user].beneficiaries[i]\n      PUSH [tag] 72\t\t\twills[user].beneficiaries[i]\n      JUMP \t\t\twills[user].beneficiaries[i]\n    tag 92\t\t\twills[user].beneficiaries[i]\n      JUMPDEST \t\t\twills[user].beneficiaries[i]\n    tag 91\t\t\twills[user].beneficiaries[i]\n      JUMPDEST \t\t\twills[user].beneficiaries[i]\n      SWAP1 \t\t\twills[user].beneficiaries[i]\n      PUSH 0\t\t\twills[user].beneficiaries[i]\n      MSTORE \t\t\twills[user].beneficiaries[i]\n      PUSH 20\t\t\twills[user].beneficiaries[i]\n      PUSH 0\t\t\twills[user].beneficiaries[i]\n      KECCAK256 \t\t\twills[user].beneficiaries[i]\n      SWAP1 \t\t\twills[user].beneficiaries[i]\n      PUSH 3\t\t\twills[user].beneficiaries[i]\n      MUL \t\t\twills[user].beneficiaries[i]\n      ADD \t\t\twills[user].beneficiaries[i]\n      PUSH 0\t\t\twills[user].beneficiaries[i].w...\n      ADD \t\t\twills[user].beneficiaries[i].w...\n      PUSH 0\t\t\twills[user].beneficiaries[i].w...\n      SWAP1 \t\t\twills[user].beneficiaries[i].w...\n      SLOAD \t\t\twills[user].beneficiaries[i].w...\n      SWAP1 \t\t\twills[user].beneficiaries[i].w...\n      PUSH 100\t\t\twills[user].beneficiaries[i].w...\n      EXP \t\t\twills[user].beneficiaries[i].w...\n      SWAP1 \t\t\twills[user].beneficiaries[i].w...\n      DIV \t\t\twills[user].beneficiaries[i].w...\n      PUSH FFFFFFFFFFFFFFFFFFFFFFFFFFFFFFFFFFFFFFFF\t\t\twills[user].beneficiaries[i].w...\n      AND \t\t\twills[user].beneficiaries[i].w...\n      PUSH FFFFFFFFFFFFFFFFFFFFFFFFFFFFFFFFFFFFFFFF\t\t\twills[user].beneficiaries[i].w...\n      AND \t\t\twills[user].beneficiaries[i].w...\n      SUB \t\t\twills[user].beneficiaries[i].w...\n      PUSH [tag] 94\t\t\tif (wills[user].beneficiaries[...\n      JUMPI \t\t\tif (wills[user].beneficiaries[...\n      PUSH 0\t\t\twills\n      DUP1 \t\t\twills[user]\n      DUP6 \t\t\tuser\n      PUSH FFFFFFFFFFFFFFFFFFFFFFFFFFFFFFFFFFFFFFFF\t\t\twills[user]\n      AND \t\t\twills[user]\n      PUSH FFFFFFFFFFFFFFFFFFFFFFFFFFFFFFFFFFFFFFFF\t\t\twills[user]\n      AND \t\t\twills[user]\n      DUP2 \t\t\twills[user]\n      MSTORE \t\t\twills[user]\n      PUSH 20\t\t\twills[user]\n      ADD \t\t\twills[user]\n      SWAP1 \t\t\twills[user]\n      DUP2 \t\t\twills[user]\n      MSTORE \t\t\twills[user]\n      PUSH 20\t\t\twills[user]\n      ADD \t\t\twills[user]\n      PUSH 0\t\t\twills[user]\n      KECCAK256 \t\t\twills[user]\n      PUSH 6\t\t\twills[user].beneficiaries\n      ADD \t\t\twills[user].beneficiaries\n      DUP2 \t\t\ti\n      DUP2 \t\t\twills[user].beneficiaries[i]\n      SLOAD \t\t\twills[user].beneficiaries[i]\n      DUP2 \t\t\twills[user].beneficiaries[i]\n      LT \t\t\twills[user].beneficiaries[i]\n      PUSH [tag] 95\t\t\twills[user].beneficiaries[i]\n      JUMPI \t\t\twills[user].beneficiaries[i]\n      PUSH [tag] 96\t\t\twills[user].beneficiaries[i]\n      PUSH [tag] 72\t\t\twills[user].beneficiaries[i]\n      JUMP \t\t\twills[user].beneficiaries[i]\n    tag 96\t\t\twills[user].beneficiaries[i]\n      JUMPDEST \t\t\twills[user].beneficiaries[i]\n    tag 95\t\t\twills[user].beneficiaries[i]\n      JUMPDEST \t\t\twills[user].beneficiaries[i]\n      SWAP1 \t\t\twills[user].beneficiaries[i]\n      PUSH 0\t\t\twills[user].beneficiaries[i]\n      MSTORE \t\t\twills[user].beneficiaries[i]\n      PUSH 20\t\t\twills[user].beneficiaries[i]\n      PUSH 0\t\t\twills[user].beneficiaries[i]\n      KECCAK256 \t\t\twills[user].beneficiaries[i]\n      SWAP1 \t\t\twills[user].beneficiaries[i]\n      PUSH 3\t\t\twills[user].beneficiaries[i]\n      MUL \t\t\twills[user].beneficiaries[i]\n      ADD \t\t\twills[user].beneficiaries[i]\n      PUSH 2\t\t\twills[user].beneficiaries[i].s...\n      ADD \t\t\twills[user].beneficiaries[i].s...\n      DUP1 \t\t\treturn wills[user].beneficiari...\n      SLOAD \t\t\treturn wills[user].beneficiari...\n      PUSH [tag] 98\t\t\treturn wills[user].beneficiari...\n      SWAP1 \t\t\treturn wills[user].beneficiari...\n      PUSH [tag] 99\t\t\treturn wills[user].beneficiari...\n      JUMP \t\t\treturn wills[user].beneficiari...\n    tag 98\t\t\treturn wills[user].beneficiari...\n      JUMPDEST \t\t\treturn wills[user].beneficiari...\n      DUP1 \t\t\treturn wills[user].beneficiari...\n      PUSH 1F\t\t\treturn wills[user].beneficiari...\n      ADD \t\t\treturn wills[user].beneficiari...\n      PUSH 20\t\t\treturn wills[user].beneficiari...\n      DUP1 \t\t\treturn wills[user].beneficiari...\n      SWAP2 \t\t\treturn wills[user].beneficiari...\n      DIV \t\t\treturn wills[user].beneficiari...\n      MUL \t\t\treturn wills[user].beneficiari...\n      PUSH 20\t\t\treturn wills[user].beneficiari...\n      ADD \t\t\treturn wills[user].beneficiari...\n      PUSH 40\t\t\treturn wills[user].beneficiari...\n      MLOAD \t\t\treturn wills[user].beneficiari...\n      SWAP1 \t\t\treturn wills[user].beneficiari...\n      DUP2 \t\t\treturn wills[user].beneficiari...\n      ADD \t\t\treturn wills[user].beneficiari...\n      PUSH 40\t\t\treturn wills[user].beneficiari...\n      MSTORE \t\t\treturn wills[user].beneficiari...\n      DUP1 \t\t\treturn wills[user].beneficiari...\n      SWAP3 \t\t\treturn wills[user].beneficiari...\n      SWAP2 \t\t\treturn wills[user].beneficiari...\n      SWAP1 \t\t\treturn wills[user].beneficiari...\n      DUP2 \t\t\treturn wills[user].beneficiari...\n      DUP2 \t\t\treturn wills[user].beneficiari...\n      MSTORE \t\t\treturn wills[user].beneficiari...\n      PUSH 20\t\t\treturn wills[user].beneficiari...\n      ADD \t\t\treturn wills[user].beneficiari...\n      DUP3 \t\t\treturn wills[user].beneficiari...\n      DUP1 \t\t\treturn wills[user].beneficiari...\n      SLOAD \t\t\treturn wills[user].beneficiari...\n      PUSH [tag] 100\t\t\treturn wills[user].beneficiari...\n      SWAP1 \t\t\treturn wills[user].beneficiari...\n      PUSH [tag] 99\t\t\treturn wills[user].beneficiari...\n      JUMP \t\t\treturn wills[user].beneficiari...\n    tag 100\t\t\treturn wills[user].beneficiari...\n      JUMPDEST \t\t\treturn wills[user].beneficiari...\n      DUP1 \t\t\treturn wills[user].beneficiari...\n      ISZERO \t\t\treturn wills[user].beneficiari...\n      PUSH [tag] 101\t\t\treturn wills[user].beneficiari...\n      JUMPI \t\t\treturn wills[user].beneficiari...\n      DUP1 \t\t\treturn wills[user].beneficiari...\n      PUSH 1F\t\t\treturn wills[user].beneficiari...\n      LT \t\t\treturn wills[user].beneficiari...\n      PUSH [tag] 102\t\t\treturn wills[user].beneficiari...\n      JUMPI \t\t\treturn wills[user].beneficiari...\n      PUSH 100\t\t\treturn wills[user].beneficiari...\n      DUP1 \t\t\treturn wills[user].beneficiari...\n      DUP4 \t\t\treturn wills[user].beneficiari...\n      SLOAD \t\t\treturn wills[user].beneficiari...\n      DIV \t\t\treturn wills[user].beneficiari...\n      MUL \t\t\treturn wills[user].beneficiari...\n      DUP4 \t\t\treturn wills[user].beneficiari...\n      MSTORE \t\t\treturn wills[user].beneficiari...\n      SWAP2 \t\t\treturn wills[user].beneficiari...\n      PUSH 20\t\t\treturn wills[user].beneficiari...\n      ADD \t\t\treturn wills[user].beneficiari...\n      SWAP2 \t\t\treturn wills[user].beneficiari...\n      PUSH [tag] 101\t\t\treturn wills[user].beneficiari...\n      JUMP \t\t\treturn wills[user].beneficiari...\n    tag 102\t\t\treturn wills[user].beneficiari...\n      JUMPDEST \t\t\treturn wills[user].beneficiari...\n      DUP3 \t\t\treturn wills[user].beneficiari...\n      ADD \t\t\treturn wills[user].beneficiari...\n      SWAP2 \t\t\treturn wills[user].beneficiari...\n      SWAP1 \t\t\treturn wills[user].beneficiari...\n      PUSH 0\t\t\treturn wills[user].beneficiari...\n      MSTORE \t\t\treturn wills[user].beneficiari...\n      PUSH 20\t\t\treturn wills[user].beneficiari...\n      PUSH 0\t\t\treturn wills[user].beneficiari...\n      KECCAK256 \t\t\treturn wills[user].beneficiari...\n      SWAP1 \t\t\treturn wills[user].beneficiari...\n    tag 103\t\t\treturn wills[user].beneficiari...\n      JUMPDEST \t\t\treturn wills[user].beneficiari...\n      DUP2 \t\t\treturn wills[user].beneficiari...\n      SLOAD \t\t\treturn wills[user].beneficiari...\n      DUP2 \t\t\treturn wills[user].beneficiari...\n      MSTORE \t\t\treturn wills[user].beneficiari...\n      SWAP1 \t\t\treturn wills[user].beneficiari...\n      PUSH 1\t\t\treturn wills[user].beneficiari...\n      ADD \t\t\treturn wills[user].beneficiari...\n      SWAP1 \t\t\treturn wills[user].beneficiari...\n      PUSH 20\t\t\treturn wills[user].beneficiari...\n      ADD \t\t\treturn wills[user].beneficiari...\n      DUP1 \t\t\treturn wills[user].beneficiari...\n      DUP4 \t\t\treturn wills[user].beneficiari...\n      GT \t\t\treturn wills[user].beneficiari...\n      PUSH [tag] 103\t\t\treturn wills[user].beneficiari...\n      JUMPI \t\t\treturn wills[user].beneficiari...\n      DUP3 \t\t\treturn wills[user].beneficiari...\n      SWAP1 \t\t\treturn wills[user].beneficiari...\n      SUB \t\t\treturn wills[user].beneficiari...\n      PUSH 1F\t\t\treturn wills[user].beneficiari...\n      AND \t\t\treturn wills[user].beneficiari...\n      DUP3 \t\t\treturn wills[user].beneficiari...\n      ADD \t\t\treturn wills[user].beneficiari...\n      SWAP2 \t\t\treturn wills[user].beneficiari...\n    tag 101\t\t\treturn wills[user].beneficiari...\n      JUMPDEST \t\t\treturn wills[user].beneficiari...\n      POP \t\t\treturn wills[user].beneficiari...\n      POP \t\t\treturn wills[user].beneficiari...\n      POP \t\t\treturn wills[user].beneficiari...\n      POP \t\t\treturn wills[user].beneficiari...\n      POP \t\t\treturn wills[user].beneficiari...\n      SWAP2 \t\t\treturn wills[user].beneficiari...\n      POP \t\t\treturn wills[user].beneficiari...\n      POP \t\t\treturn wills[user].beneficiari...\n      PUSH [tag] 82\t\t\treturn wills[user].beneficiari...\n      JUMP \t\t\treturn wills[user].beneficiari...\n    tag 94\t\t\tif (wills[user].beneficiaries[...\n      JUMPDEST \t\t\tif (wills[user].beneficiaries[...\n      DUP1 \t\t\ti++\n      DUP1 \t\t\ti++\n      PUSH 1\t\t\ti++\n      ADD \t\t\ti++\n      SWAP2 \t\t\ti++\n      POP \t\t\ti++\n      POP \t\t\ti++\n      PUSH [tag] 88\t\t\tfor (uint i = 0; i < wills[use...\n      JUMP \t\t\tfor (uint i = 0; i < wills[use...\n    tag 89\t\t\tfor (uint i = 0; i < wills[use...\n      JUMPDEST \t\t\tfor (uint i = 0; i < wills[use...\n      POP \t\t\tfor (uint i = 0; i < wills[use...\n      PUSH 40\t\t\trevert(\"Beneficiary not found\"...\n      MLOAD \t\t\trevert(\"Beneficiary not found\"...\n      PUSH 8C379A000000000000000000000000000000000000000000000000000000000\t\t\trevert(\"Beneficiary not found\"...\n      DUP2 \t\t\trevert(\"Beneficiary not found\"...\n      MSTORE \t\t\trevert(\"Beneficiary not found\"...\n      PUSH 4\t\t\trevert(\"Beneficiary not found\"...\n      ADD \t\t\trevert(\"Beneficiary not found\"...\n      PUSH [tag] 104\t\t\trevert(\"Beneficiary not found\"...\n      SWAP1 \t\t\trevert(\"Beneficiary not found\"...\n      PUSH [tag] 105\t\t\trevert(\"Beneficiary not found\"...\n      JUMP \t\t\trevert(\"Beneficiary not found\"...\n    tag 104\t\t\trevert(\"Beneficiary not found\"...\n      JUMPDEST \t\t\trevert(\"Beneficiary not found\"...\n      PUSH 40\t\t\trevert(\"Beneficiary not found\"...\n      MLOAD \t\t\trevert(\"Beneficiary not found\"...\n      DUP1 \t\t\trevert(\"Beneficiary not found\"...\n      SWAP2 \t\t\trevert(\"Beneficiary not found\"...\n      SUB \t\t\trevert(\"Beneficiary not found\"...\n      SWAP1 \t\t\trevert(\"Beneficiary not found\"...\n      REVERT \t\t\trevert(\"Beneficiary not found\"...\n    tag 82\t\t\tfunction getSaleDeed(address u...\n      JUMPDEST \t\t\tfunction getSaleDeed(address u...\n      SWAP3 \t\t\tfunction getSaleDeed(address u...\n      SWAP2 \t\t\tfunction getSaleDeed(address u...\n      POP \t\t\tfunction getSaleDeed(address u...\n      POP \t\t\tfunction getSaleDeed(address u...\n      JUMP \t\t\tfunction getSaleDeed(address u...\n    tag 39\t\t\tfunction createWill(uint256 _p...\n      JUMPDEST \t\t\tfunction createWill(uint256 _p...\n      PUSH 1\t\t\thasWill\n      PUSH 0\t\t\thasWill[msg.sender]\n      CALLER \t\t\tmsg.sender\n      PUSH FFFFFFFFFFFFFFFFFFFFFFFFFFFFFFFFFFFFFFFF\t\t\thasWill[msg.sender]\n      AND \t\t\thasWill[msg.sender]\n      PUSH FFFFFFFFFFFFFFFFFFFFFFFFFFFFFFFFFFFFFFFF\t\t\thasWill[msg.sender]\n      AND \t\t\thasWill[msg.sender]\n      DUP2 \t\t\thasWill[msg.sender]\n      MSTORE \t\t\thasWill[msg.sender]\n      PUSH 20\t\t\thasWill[msg.sender]\n      ADD \t\t\thasWill[msg.sender]\n      SWAP1 \t\t\thasWill[msg.sender]\n      DUP2 \t\t\thasWill[msg.sender]\n      MSTORE \t\t\thasWill[msg.sender]\n      PUSH 20\t\t\thasWill[msg.sender]\n      ADD \t\t\thasWill[msg.sender]\n      PUSH 0\t\t\thasWill[msg.sender]\n      KECCAK256 \t\t\thasWill[msg.sender]\n      PUSH 0\t\t\thasWill[msg.sender]\n      SWAP1 \t\t\thasWill[msg.sender]\n      SLOAD \t\t\thasWill[msg.sender]\n      SWAP1 \t\t\thasWill[msg.sender]\n      PUSH 100\t\t\thasWill[msg.sender]\n      EXP \t\t\thasWill[msg.sender]\n      SWAP1 \t\t\thasWill[msg.sender]\n      DIV \t\t\thasWill[msg.sender]\n      PUSH FF\t\t\thasWill[msg.sender]\n      AND \t\t\thasWill[msg.sender]\n      ISZERO \t\t\t!hasWill[msg.sender]\n      PUSH [tag] 107\t\t\trequire(!hasWill[msg.sender], ...\n      JUMPI \t\t\trequire(!hasWill[msg.sender], ...\n      PUSH 40\t\t\trequire(!hasWill[msg.sender], ...\n      MLOAD \t\t\trequire(!hasWill[msg.sender], ...\n      PUSH 8C379A000000000000000000000000000000000000000000000000000000000\t\t\trequire(!hasWill[msg.sender], ...\n      DUP2 \t\t\trequire(!hasWill[msg.sender], ...\n      MSTORE \t\t\trequire(!hasWill[msg.sender], ...\n      PUSH 4\t\t\trequire(!hasWill[msg.sender], ...\n      ADD \t\t\trequire(!hasWill[msg.sender], ...\n      PUSH [tag] 108\t\t\trequire(!hasWill[msg.sender], ...\n      SWAP1 \t\t\trequire(!hasWill[msg.sender], ...\n      PUSH [tag] 109\t\t\trequire(!hasWill[msg.sender], ...\n      JUMP \t\t\trequire(!hasWill[msg.sender], ...\n    tag 108\t\t\trequire(!hasWill[msg.sender], ...\n      JUMPDEST \t\t\trequire(!hasWill[msg.sender], ...\n      PUSH 40\t\t\trequire(!hasWill[msg.sender], ...\n      MLOAD \t\t\trequire(!hasWill[msg.sender], ...\n      DUP1 \t\t\trequire(!hasWill[msg.sender], ...\n      SWAP2 \t\t\trequire(!hasWill[msg.sender], ...\n      SUB \t\t\trequire(!hasWill[msg.sender], ...\n      SWAP1 \t\t\trequire(!hasWill[msg.sender], ...\n      REVERT \t\t\trequire(!hasWill[msg.sender], ...\n    tag 107\t\t\trequire(!hasWill[msg.sender], ...\n      JUMPDEST \t\t\trequire(!hasWill[msg.sender], ...\n      PUSH 0\t\t\t0\n      CALLVALUE \t\t\tmsg.value\n      GT \t\t\tmsg.value > 0\n      PUSH [tag] 110\t\t\trequire(msg.value > 0, \"Must l...\n      JUMPI \t\t\trequire(msg.value > 0, \"Must l...\n      PUSH 40\t\t\trequire(msg.value > 0, \"Must l...\n      MLOAD \t\t\trequire(msg.value > 0, \"Must l...\n      PUSH 8C379A000000000000000000000000000000000000000000000000000000000\t\t\trequire(msg.value > 0, \"Must l...\n      DUP2 \t\t\trequire(msg.value > 0, \"Must l...\n      MSTORE \t\t\trequire(msg.value > 0, \"Must l...\n      PUSH 4\t\t\trequire(msg.value > 0, \"Must l...\n      ADD \t\t\trequire(msg.value > 0, \"Must l...\n      PUSH [tag] 111\t\t\trequire(msg.value > 0, \"Must l...\n      SWAP1 \t\t\trequire(msg.value > 0, \"Must l...\n      PUSH [tag] 112\t\t\trequire(msg.value > 0, \"Must l...\n      JUMP \t\t\trequire(msg.value > 0, \"Must l...\n    tag 111\t\t\trequire(msg.value > 0, \"Must l...\n      JUMPDEST \t\t\trequire(msg.value > 0, \"Must l...\n      PUSH 40\t\t\trequire(msg.value > 0, \"Must l...\n      MLOAD \t\t\trequire(msg.value > 0, \"Must l...\n      DUP1 \t\t\trequire(msg.value > 0, \"Must l...\n      SWAP2 \t\t\trequire(msg.value > 0, \"Must l...\n      SUB \t\t\trequire(msg.value > 0, \"Must l...\n      SWAP1 \t\t\trequire(msg.value > 0, \"Must l...\n      REVERT \t\t\trequire(msg.value > 0, \"Must l...\n    tag 110\t\t\trequire(msg.value > 0, \"Must l...\n      JUMPDEST \t\t\trequire(msg.value > 0, \"Must l...\n      CALLER \t\t\tmsg.sender\n      PUSH 0\t\t\twills\n      DUP1 \t\t\twills[msg.sender]\n      CALLER \t\t\tmsg.sender\n      PUSH FFFFFFFFFFFFFFFFFFFFFFFFFFFFFFFFFFFFFFFF\t\t\twills[msg.sender]\n      AND \t\t\twills[msg.sender]\n      PUSH FFFFFFFFFFFFFFFFFFFFFFFFFFFFFFFFFFFFFFFF\t\t\twills[msg.sender]\n      AND \t\t\twills[msg.sender]\n      DUP2 \t\t\twills[msg.sender]\n      MSTORE \t\t\twills[msg.sender]\n      PUSH 20\t\t\twills[msg.sender]\n      ADD \t\t\twills[msg.sender]\n      SWAP1 \t\t\twills[msg.sender]\n      DUP2 \t\t\twills[msg.sender]\n      MSTORE \t\t\twills[msg.sender]\n      PUSH 20\t\t\twills[msg.sender]\n      ADD \t\t\twills[msg.sender]\n      PUSH 0\t\t\twills[msg.sender]\n      KECCAK256 \t\t\twills[msg.sender]\n      PUSH 0\t\t\twills[msg.sender].testator\n      ADD \t\t\twills[msg.sender].testator\n      PUSH 0\t\t\twills[msg.sender].testator\n      PUSH 100\t\t\twills[msg.sender].testator = m...\n      EXP \t\t\twills[msg.sender].testator = m...\n      DUP2 \t\t\twills[msg.sender].testator = m...\n      SLOAD \t\t\twills[msg.sender].testator = m...\n      DUP2 \t\t\twills[msg.sender].testator = m...\n      PUSH FFFFFFFFFFFFFFFFFFFFFFFFFFFFFFFFFFFFFFFF\t\t\twills[msg.sender].testator = m...\n      MUL \t\t\twills[msg.sender].testator = m...\n      NOT \t\t\twills[msg.sender].testator = m...\n      AND \t\t\twills[msg.sender].testator = m...\n      SWAP1 \t\t\twills[msg.sender].testator = m...\n      DUP4 \t\t\twills[msg.sender].testator = m...\n      PUSH FFFFFFFFFFFFFFFFFFFFFFFFFFFFFFFFFFFFFFFF\t\t\twills[msg.sender].testator = m...\n      AND \t\t\twills[msg.sender].testator = m...\n      MUL \t\t\twills[msg.sender].testator = m...\n      OR \t\t\twills[msg.sender].testator = m...\n      SWAP1 \t\t\twills[msg.sender].testator = m...\n      SSTORE \t\t\twills[msg.sender].testator = m...\n      POP \t\t\twills[msg.sender].testator = m...\n      CALLVALUE \t\t\tmsg.value\n      PUSH 0\t\t\twills\n      DUP1 \t\t\twills[msg.sender]\n      CALLER \t\t\tmsg.sender\n      PUSH FFFFFFFFFFFFFFFFFFFFFFFFFFFFFFFFFFFFFFFF\t\t\twills[msg.sender]\n      AND \t\t\twills[msg.sender]\n      PUSH FFFFFFFFFFFFFFFFFFFFFFFFFFFFFFFFFFFFFFFF\t\t\twills[msg.sender]\n      AND \t\t\twills[msg.sender]\n      DUP2 \t\t\twills[msg.sender]\n      MSTORE \t\t\twills[msg.sender]\n      PUSH 20\t\t\twills[msg.sender]\n      ADD \t\t\twills[msg.sender]\n      SWAP1 \t\t\twills[msg.sender]\n      DUP2 \t\t\twills[msg.sender]\n      MSTORE \t\t\twills[msg.sender]\n      PUSH 20\t\t\twills[msg.sender]\n      ADD \t\t\twills[msg.sender]\n      PUSH 0\t\t\twills[msg.sender]\n      KECCAK256 \t\t\twills[msg.sender]\n      PUSH 1\t\t\twills[msg.sender].totalLocked\n      ADD \t\t\twills[msg.sender].totalLocked\n      DUP2 \t\t\twills[msg.sender].totalLocked ...\n      SWAP1 \t\t\twills[msg.sender].totalLocked ...\n      SSTORE \t\t\twills[msg.sender].totalLocked ...\n      POP \t\t\twills[msg.sender].totalLocked ...\n      TIMESTAMP \t\t\tblock.timestamp\n      PUSH 0\t\t\twills\n      DUP1 \t\t\twills[msg.sender]\n      CALLER \t\t\tmsg.sender\n      PUSH FFFFFFFFFFFFFFFFFFFFFFFFFFFFFFFFFFFFFFFF\t\t\twills[msg.sender]\n      AND \t\t\twills[msg.sender]\n      PUSH FFFFFFFFFFFFFFFFFFFFFFFFFFFFFFFFFFFFFFFF\t\t\twills[msg.sender]\n      AND \t\t\twills[msg.sender]\n      DUP2 \t\t\twills[msg.sender]\n      MSTORE \t\t\twills[msg.sender]\n      PUSH 20\t\t\twills[msg.sender]\n      ADD \t\t\twills[msg.sender]\n      SWAP1 \t\t\twills[msg.sender]\n      DUP2 \t\t\twills[msg.sender]\n      MSTORE \t\t\twills[msg.sender]\n      PUSH 20\t\t\twills[msg.sender]\n      ADD \t\t\twills[msg.sender]\n      PUSH 0\t\t\twills[msg.sender]\n      KECCAK256 \t\t\twills[msg.sender]\n      PUSH 2\t\t\twills[msg.sender].lastAliveTim...\n      ADD \t\t\twills[msg.sender].lastAliveTim...\n      DUP2 \t\t\twills[msg.sender].lastAliveTim...\n      SWAP1 \t\t\twills[msg.sender].lastAliveTim...\n      SSTORE \t\t\twills[msg.sender].lastAliveTim...\n      POP \t\t\twills[msg.sender].lastAliveTim...\n      DUP2 \t\t\t_proofOfLifeInterval\n      PUSH 0\t\t\twills\n      DUP1 \t\t\twills[msg.sender]\n      CALLER \t\t\tmsg.sender\n      PUSH FFFFFFFFFFFFFFFFFFFFFFFFFFFFFFFFFFFFFFFF\t\t\twills[msg.sender]\n      AND \t\t\twills[msg.sender]\n      PUSH FFFFFFFFFFFFFFFFFFFFFFFFFFFFFFFFFFFFFFFF\t\t\twills[msg.sender]\n      AND \t\t\twills[msg.sender]\n      DUP2 \t\t\twills[msg.sender]\n      MSTORE \t\t\twills[msg.sender]\n      PUSH 20\t\t\twills[msg.sender]\n      ADD \t\t\twills[msg.sender]\n      SWAP1 \t\t\twills[msg.sender]\n      DUP2 \t\t\twills[msg.sender]\n      MSTORE \t\t\twills[msg.sender]\n      PUSH 20\t\t\twills[msg.sender]\n      ADD \t\t\twills[msg.sender]\n      PUSH 0\t\t\twills[msg.sender]\n      KECCAK256 \t\t\twills[msg.sender]\n      PUSH 3\t\t\twills[msg.sender].proofOfLifeI...\n      ADD \t\t\twills[msg.sender].proofOfLifeI...\n      DUP2 \t\t\twills[msg.sender].proofOfLifeI...\n      SWAP1 \t\t\twills[msg.sender].proofOfLifeI...\n      SSTORE \t\t\twills[msg.sender].proofOfLifeI...\n      POP \t\t\twills[msg.sender].proofOfLifeI...\n      PUSH 0\t\t\tfalse\n      DUP1 \t\t\twills\n      PUSH 0\t\t\twills[msg.sender]\n      CALLER \t\t\tmsg.sender\n      PUSH FFFFFFFFFFFFFFFFFFFFFFFFFFFFFFFFFFFFFFFF\t\t\twills[msg.sender]\n      AND \t\t\twills[msg.sender]\n      PUSH FFFFFFFFFFFFFFFFFFFFFFFFFFFFFFFFFFFFFFFF\t\t\twills[msg.sender]\n      AND \t\t\twills[msg.sender]\n      DUP2 \t\t\twills[msg.sender]\n      MSTORE \t\t\twills[msg.sender]\n      PUSH 20\t\t\twills[msg.sender]\n      ADD \t\t\twills[msg.sender]\n      SWAP1 \t\t\twills[msg.sender]\n      DUP2 \t\t\twills[msg.sender]\n      MSTORE \t\t\twills[msg.sender]\n      PUSH 20\t\t\twills[msg.sender]\n      ADD \t\t\twills[msg.sender]\n      PUSH 0\t\t\twills[msg.sender]\n      KECCAK256 \t\t\twills[msg.sender]\n      PUSH 4\t\t\twills[msg.sender].isDeceased\n      ADD \t\t\twills[msg.sender].isDeceased\n      PUSH 0\t\t\twills[msg.sender].isDeceased\n      PUSH 100\t\t\twills[msg.sender].isDeceased =...\n      EXP \t\t\twills[msg.sender].isDeceased =...\n      DUP2 \t\t\twills[msg.sender].isDeceased =...\n      SLOAD \t\t\twills[msg.sender].isDeceased =...\n      DUP2 \t\t\twills[msg.sender].isDeceased =...\n      PUSH FF\t\t\twills[msg.sender].isDeceased =...\n      MUL \t\t\twills[msg.sender].isDeceased =...\n      NOT \t\t\twills[msg.sender].isDeceased =...\n      AND \t\t\twills[msg.sender].isDeceased =...\n      SWAP1 \t\t\twills[msg.sender].isDeceased =...\n      DUP4 \t\t\twills[msg.sender].isDeceased =...\n      ISZERO \t\t\twills[msg.sender].isDeceased =...\n      ISZERO \t\t\twills[msg.sender].isDeceased =...\n      MUL \t\t\twills[msg.sender].isDeceased =...\n      OR \t\t\twills[msg.sender].isDeceased =...\n      SWAP1 \t\t\twills[msg.sender].isDeceased =...\n      SSTORE \t\t\twills[msg.sender].isDeceased =...\n      POP \t\t\twills[msg.sender].isDeceased =...\n      DUP1 \t\t\t_notarizedWillIpfsHash\n      PUSH 0\t\t\twills\n      DUP1 \t\t\twills[msg.sender]\n      CALLER \t\t\tmsg.sender\n      PUSH FFFFFFFFFFFFFFFFFFFFFFFFFFFFFFFFFFFFFFFF\t\t\twills[msg.sender]\n      AND \t\t\twills[msg.sender]\n      PUSH FFFFFFFFFFFFFFFFFFFFFFFFFFFFFFFFFFFFFFFF\t\t\twills[msg.sender]\n      AND \t\t\twills[msg.sender]\n      DUP2 \t\t\twills[msg.sender]\n      MSTORE \t\t\twills[msg.sender]\n      PUSH 20\t\t\twills[msg.sender]\n      ADD \t\t\twills[msg.sender]\n      SWAP1 \t\t\twills[msg.sender]\n      DUP2 \t\t\twills[msg.sender]\n      MSTORE \t\t\twills[msg.sender]\n      PUSH 20\t\t\twills[msg.sender]\n      ADD \t\t\twills[msg.sender]\n      PUSH 0\t\t\twills[msg.sender]\n      KECCAK256 \t\t\twills[msg.sender]\n      PUSH 5\t\t\twills[msg.sender].notarizedWil...\n      ADD \t\t\twills[msg.sender].notarizedWil...\n      SWAP1 \t\t\twills[msg.sender].notarizedWil...\n      DUP2 \t\t\twills[msg.sender].notarizedWil...\n      PUSH [tag] 113\t\t\twills[msg.sender].notarizedWil...\n      SWAP2 \t\t\twills[msg.sender].notarizedWil...\n      SWAP1 \t\t\twills[msg.sender].notarizedWil...\n      PUSH [tag] 81\t\t\twills[msg.sender].notarizedWil...\n      JUMP \t\t\twills[msg.sender].notarizedWil...\n    tag 113\t\t\twills[msg.sender].notarizedWil...\n      JUMPDEST \t\t\twills[msg.sender].notarizedWil...\n      POP \t\t\twills[msg.sender].notarizedWil...\n      PUSH 1\t\t\ttrue\n      DUP1 \t\t\thasWill\n      PUSH 0\t\t\thasWill[msg.sender]\n      CALLER \t\t\tmsg.sender\n      PUSH FFFFFFFFFFFFFFFFFFFFFFFFFFFFFFFFFFFFFFFF\t\t\thasWill[msg.sender]\n      AND \t\t\thasWill[msg.sender]\n      PUSH FFFFFFFFFFFFFFFFFFFFFFFFFFFFFFFFFFFFFFFF\t\t\thasWill[msg.sender]\n      AND \t\t\thasWill[msg.sender]\n      DUP2 \t\t\thasWill[msg.sender]\n      MSTORE \t\t\thasWill[msg.sender]\n      PUSH 20\t\t\thasWill[msg.sender]\n      ADD \t\t\thasWill[msg.sender]\n      SWAP1 \t\t\thasWill[msg.sender]\n      DUP2 \t\t\thasWill[msg.sender]\n      MSTORE \t\t\thasWill[msg.sender]\n      PUSH 20\t\t\thasWill[msg.sender]\n      ADD \t\t\thasWill[msg.sender]\n      PUSH 0\t\t\thasWill[msg.sender]\n      KECCAK256 \t\t\thasWill[msg.sender]\n      PUSH 0\t\t\thasWill[msg.sender]\n      PUSH 100\t\t\thasWill[msg.sender] = true\n      EXP \t\t\thasWill[msg.sender] = true\n      DUP2 \t\t\thasWill[msg.sender] = true\n      SLOAD \t\t\thasWill[msg.sender] = true\n      DUP2 \t\t\thasWill[msg.sender] = true\n      PUSH FF\t\t\thasWill[msg.sender] = true\n      MUL \t\t\thasWill[msg.sender] = true\n      NOT \t\t\thasWill[msg.sender] = true\n      AND \t\t\thasWill[msg.sender] = true\n      SWAP1 \t\t\thasWill[msg.sender] = true\n      DUP4 \t\t\thasWill[msg.sender] = true\n      ISZERO \t\t\thasWill[msg.sender] = true\n      ISZERO \t\t\thasWill[msg.sender] = true\n      MUL \t\t\thasWill[msg.sender] = true\n      OR \t\t\thasWill[msg.sender] = true\n      SWAP1 \t\t\thasWill[msg.sender] = true\n      SSTORE \t\t\thasWill[msg.sender] = true\n      POP \t\t\thasWill[msg.sender] = true\n      CALLER \t\t\tmsg.sender\n      PUSH FFFFFFFFFFFFFFFFFFFFFFFFFFFFFFFFFFFFFFFF\t\t\tWillCreated(msg.sender, msg.va...\n      AND \t\t\tWillCreated(msg.sender, msg.va...\n      PUSH D40DC4A639C90600691397F655099ADBA04D6B763EF2122630EDD47C09F1B6F9\t\t\tWillCreated(msg.sender, msg.va...\n      CALLVALUE \t\t\tmsg.value\n      PUSH 40\t\t\tWillCreated(msg.sender, msg.va...\n      MLOAD \t\t\tWillCreated(msg.sender, msg.va...\n      PUSH [tag] 114\t\t\tWillCreated(msg.sender, msg.va...\n      SWAP2 \t\t\tWillCreated(msg.sender, msg.va...\n      SWAP1 \t\t\tWillCreated(msg.sender, msg.va...\n      PUSH [tag] 115\t\t\tWillCreated(msg.sender, msg.va...\n      JUMP \t\t\tWillCreated(msg.sender, msg.va...\n    tag 114\t\t\tWillCreated(msg.sender, msg.va...\n      JUMPDEST \t\t\tWillCreated(msg.sender, msg.va...\n      PUSH 40\t\t\tWillCreated(msg.sender, msg.va...\n      MLOAD \t\t\tWillCreated(msg.sender, msg.va...\n      DUP1 \t\t\tWillCreated(msg.sender, msg.va...\n      SWAP2 \t\t\tWillCreated(msg.sender, msg.va...\n      SUB \t\t\tWillCreated(msg.sender, msg.va...\n      SWAP1 \t\t\tWillCreated(msg.sender, msg.va...\n      LOG2 \t\t\tWillCreated(msg.sender, msg.va...\n      POP \t\t\tfunction createWill(uint256 _p...\n      POP \t\t\tfunction createWill(uint256 _p...\n      JUMP \t\t\tfunction createWill(uint256 _p...\n    tag 43\t\t\tfunction getNotarizedWill(addr...\n      JUMPDEST \t\t\tfunction getNotarizedWill(addr...\n      PUSH 60\t\t\tstring memory\n      PUSH 1\t\t\thasWill\n      PUSH 0\t\t\thasWill[user]\n      DUP4 \t\t\tuser\n      PUSH FFFFFFFFFFFFFFFFFFFFFFFFFFFFFFFFFFFFFFFF\t\t\thasWill[user]\n      AND \t\t\thasWill[user]\n      PUSH FFFFFFFFFFFFFFFFFFFFFFFFFFFFFFFFFFFFFFFF\t\t\thasWill[user]\n      AND \t\t\thasWill[user]\n      DUP2 \t\t\thasWill[user]\n      MSTORE \t\t\thasWill[user]\n      PUSH 20\t\t\thasWill[user]\n      ADD \t\t\thasWill[user]\n      SWAP1 \t\t\thasWill[user]\n      DUP2 \t\t\thasWill[user]\n      MSTORE \t\t\thasWill[user]\n      PUSH 20\t\t\thasWill[user]\n      ADD \t\t\thasWill[user]\n      PUSH 0\t\t\thasWill[user]\n      KECCAK256 \t\t\thasWill[user]\n      PUSH 0\t\t\thasWill[user]\n      SWAP1 \t\t\thasWill[user]\n      SLOAD \t\t\thasWill[user]\n      SWAP1 \t\t\thasWill[user]\n      PUSH 100\t\t\thasWill[user]\n      EXP \t\t\thasWill[user]\n      SWAP1 \t\t\thasWill[user]\n      DIV \t\t\thasWill[user]\n      PUSH FF\t\t\thasWill[user]\n      AND \t\t\thasWill[user]\n      PUSH [tag] 117\t\t\trequire(hasWill[user], \"No wil...\n      JUMPI \t\t\trequire(hasWill[user], \"No wil...\n      PUSH 40\t\t\trequire(hasWill[user], \"No wil...\n      MLOAD \t\t\trequire(hasWill[user], \"No wil...\n      PUSH 8C379A000000000000000000000000000000000000000000000000000000000\t\t\trequire(hasWill[user], \"No wil...\n      DUP2 \t\t\trequire(hasWill[user], \"No wil...\n      MSTORE \t\t\trequire(hasWill[user], \"No wil...\n      PUSH 4\t\t\trequire(hasWill[user], \"No wil...\n      ADD \t\t\trequire(hasWill[user], \"No wil...\n      PUSH [tag] 118\t\t\trequire(hasWill[user], \"No wil...\n      SWAP1 \t\t\trequire(hasWill[user], \"No wil...\n      PUSH [tag] 48\t\t\trequire(hasWill[user], \"No wil...\n      JUMP \t\t\trequire(hasWill[user], \"No wil...\n    tag 118\t\t\trequire(hasWill[user], \"No wil...\n      JUMPDEST \t\t\trequire(hasWill[user], \"No wil...\n      PUSH 40\t\t\trequire(hasWill[user], \"No wil...\n      MLOAD \t\t\trequire(hasWill[user], \"No wil...\n      DUP1 \t\t\trequire(hasWill[user], \"No wil...\n      SWAP2 \t\t\trequire(hasWill[user], \"No wil...\n      SUB \t\t\trequire(hasWill[user], \"No wil...\n      SWAP1 \t\t\trequire(hasWill[user], \"No wil...\n      REVERT \t\t\trequire(hasWill[user], \"No wil...\n    tag 117\t\t\trequire(hasWill[user], \"No wil...\n      JUMPDEST \t\t\trequire(hasWill[user], \"No wil...\n      PUSH 0\t\t\twills\n      DUP1 \t\t\twills[user]\n      DUP4 \t\t\tuser\n      PUSH FFFFFFFFFFFFFFFFFFFFFFFFFFFFFFFFFFFFFFFF\t\t\twills[user]\n      AND \t\t\twills[user]\n      PUSH FFFFFFFFFFFFFFFFFFFFFFFFFFFFFFFFFFFFFFFF\t\t\twills[user]\n      AND \t\t\twills[user]\n      DUP2 \t\t\twills[user]\n      MSTORE \t\t\twills[user]\n      PUSH 20\t\t\twills[user]\n      ADD \t\t\twills[user]\n      SWAP1 \t\t\twills[user]\n      DUP2 \t\t\twills[user]\n      MSTORE \t\t\twills[user]\n      PUSH 20\t\t\twills[user]\n      ADD \t\t\twills[user]\n      PUSH 0\t\t\twills[user]\n      KECCAK256 \t\t\twills[user]\n      PUSH 4\t\t\twills[user].isDeceased\n      ADD \t\t\twills[user].isDeceased\n      PUSH 0\t\t\twills[user].isDeceased\n      SWAP1 \t\t\twills[user].isDeceased\n      SLOAD \t\t\twills[user].isDeceased\n      SWAP1 \t\t\twills[user].isDeceased\n      PUSH 100\t\t\twills[user].isDeceased\n      EXP \t\t\twills[user].isDeceased\n      SWAP1 \t\t\twills[user].isDeceased\n      DIV \t\t\twills[user].isDeceased\n      PUSH FF\t\t\twills[user].isDeceased\n      AND \t\t\twills[user].isDeceased\n      PUSH [tag] 119\t\t\trequire(wills[user].isDeceased...\n      JUMPI \t\t\trequire(wills[user].isDeceased...\n      PUSH 40\t\t\trequire(wills[user].isDeceased...\n      MLOAD \t\t\trequire(wills[user].isDeceased...\n      PUSH 8C379A000000000000000000000000000000000000000000000000000000000\t\t\trequire(wills[user].isDeceased...\n      DUP2 \t\t\trequire(wills[user].isDeceased...\n      MSTORE \t\t\trequire(wills[user].isDeceased...\n      PUSH 4\t\t\trequire(wills[user].isDeceased...\n      ADD \t\t\trequire(wills[user].isDeceased...\n      PUSH [tag] 120\t\t\trequire(wills[user].isDeceased...\n      SWAP1 \t\t\trequire(wills[user].isDeceased...\n      PUSH [tag] 87\t\t\trequire(wills[user].isDeceased...\n      JUMP \t\t\trequire(wills[user].isDeceased...\n    tag 120\t\t\trequire(wills[user].isDeceased...\n      JUMPDEST \t\t\trequire(wills[user].isDeceased...\n      PUSH 40\t\t\trequire(wills[user].isDeceased...\n      MLOAD \t\t\trequire(wills[user].isDeceased...\n      DUP1 \t\t\trequire(wills[user].isDeceased...\n      SWAP2 \t\t\trequire(wills[user].isDeceased...\n      SUB \t\t\trequire(wills[user].isDeceased...\n      SWAP1 \t\t\trequire(wills[user].isDeceased...\n      REVERT \t\t\trequire(wills[user].isDeceased...\n    tag 119\t\t\trequire(wills[user].isDeceased...\n      JUMPDEST \t\t\trequire(wills[user].isDeceased...\n      PUSH 0\t\t\twills\n      DUP1 \t\t\twills[user]\n      DUP4 \t\t\tuser\n      PUSH FFFFFFFFFFFFFFFFFFFFFFFFFFFFFFFFFFFFFFFF\t\t\twills[user]\n      AND \t\t\twills[user]\n      PUSH FFFFFFFFFFFFFFFFFFFFFFFFFFFFFFFFFFFFFFFF\t\t\twills[user]\n      AND \t\t\twills[user]\n      DUP2 \t\t\twills[user]\n      MSTORE \t\t\twills[user]\n      PUSH 20\t\t\twills[user]\n      ADD \t\t\twills[user]\n      SWAP1 \t\t\twills[user]\n      DUP2 \t\t\twills[user]\n      MSTORE \t\t\twills[user]\n      PUSH 20\t\t\twills[user]\n      ADD \t\t\twills[user]\n      PUSH 0\t\t\twills[user]\n      KECCAK256 \t\t\twills[user]\n      PUSH 5\t\t\twills[user].notarizedWillIpfsH...\n      ADD \t\t\twills[user].notarizedWillIpfsH...\n      DUP1 \t\t\treturn wills[user].notarizedWi...\n      SLOAD \t\t\treturn wills[user].notarizedWi...\n      PUSH [tag] 121\t\t\treturn wills[user].notarizedWi...\n      SWAP1 \t\t\treturn wills[user].notarizedWi...\n      PUSH [tag] 99\t\t\treturn wills[user].notarizedWi...\n      JUMP \t\t\treturn wills[user].notarizedWi...\n    tag 121\t\t\treturn wills[user].notarizedWi...\n      JUMPDEST \t\t\treturn wills[user].notarizedWi...\n      DUP1 \t\t\treturn wills[user].notarizedWi...\n      PUSH 1F\t\t\treturn wills[user].notarizedWi...\n      ADD \t\t\treturn wills[user].notarizedWi...\n      PUSH 20\t\t\treturn wills[user].notarizedWi...\n      DUP1 \t\t\treturn wills[user].notarizedWi...\n      SWAP2 \t\t\treturn wills[user].notarizedWi...\n      DIV \t\t\treturn wills[user].notarizedWi...\n      MUL \t\t\treturn wills[user].notarizedWi...\n      PUSH 20\t\t\treturn wills[user].notarizedWi...\n      ADD \t\t\treturn wills[user].notarizedWi...\n      PUSH 40\t\t\treturn wills[user].notarizedWi...\n      MLOAD \t\t\treturn wills[user].notarizedWi...\n      SWAP1 \t\t\treturn wills[user].notarizedWi...\n      DUP2 \t\t\treturn wills[user].notarizedWi...\n      ADD \t\t\treturn wills[user].notarizedWi...\n      PUSH 40\t\t\treturn wills[user].notarizedWi...\n      MSTORE \t\t\treturn wills[user].notarizedWi...\n      DUP1 \t\t\treturn wills[user].notarizedWi...\n      SWAP3 \t\t\treturn wills[user].notarizedWi...\n      SWAP2 \t\t\treturn wills[user].notarizedWi...\n      SWAP1 \t\t\treturn wills[user].notarizedWi...\n      DUP2 \t\t\treturn wills[user].notarizedWi...\n      DUP2 \t\t\treturn wills[user].notarizedWi...\n      MSTORE \t\t\treturn wills[user].notarizedWi...\n      PUSH 20\t\t\treturn wills[user].notarizedWi...\n      ADD \t\t\treturn wills[user].notarizedWi...\n      DUP3 \t\t\treturn wills[user].notarizedWi...\n      DUP1 \t\t\treturn wills[user].notarizedWi...\n      SLOAD \t\t\treturn wills[user].notarizedWi...\n      PUSH [tag] 122\t\t\treturn wills[user].notarizedWi...\n      SWAP1 \t\t\treturn wills[user].notarizedWi...\n      PUSH [tag] 99\t\t\treturn wills[user].notarizedWi...\n      JUMP \t\t\treturn wills[user].notarizedWi...\n    tag 122\t\t\treturn wills[user].notarizedWi...\n      JUMPDEST \t\t\treturn wills[user].notarizedWi...\n      DUP1 \t\t\treturn wills[user].notarizedWi...\n      ISZERO \t\t\treturn wills[user].notarizedWi...\n      PUSH [tag] 123\t\t\treturn wills[user].notarizedWi...\n      JUMPI \t\t\treturn wills[user].notarizedWi...\n      DUP1 \t\t\treturn wills[user].notarizedWi...\n      PUSH 1F\t\t\treturn wills[user].notarizedWi...\n      LT \t\t\treturn wills[user].notarizedWi...\n      PUSH [tag] 124\t\t\treturn wills[user].notarizedWi...\n      JUMPI \t\t\treturn wills[user].notarizedWi...\n      PUSH 100\t\t\treturn wills[user].notarizedWi...\n      DUP1 \t\t\treturn wills[user].notarizedWi...\n      DUP4 \t\t\treturn wills[user].notarizedWi...\n      SLOAD \t\t\treturn wills[user].notarizedWi...\n      DIV \t\t\treturn wills[user].notarizedWi...\n      MUL \t\t\treturn wills[user].notarizedWi...\n      DUP4 \t\t\treturn wills[user].notarizedWi...\n      MSTORE \t\t\treturn wills[user].notarizedWi...\n      SWAP2 \t\t\treturn wills[user].notarizedWi...\n      PUSH 20\t\t\treturn wills[user].notarizedWi...\n      ADD \t\t\treturn wills[user].notarizedWi...\n      SWAP2 \t\t\treturn wills[user].notarizedWi...\n      PUSH [tag] 123\t\t\treturn wills[user].notarizedWi...\n      JUMP \t\t\treturn wills[user].notarizedWi...\n    tag 124\t\t\treturn wills[user].notarizedWi...\n      JUMPDEST \t\t\treturn wills[user].notarizedWi...\n      DUP3 \t\t\treturn wills[user].notarizedWi...\n      ADD \t\t\treturn wills[user].notarizedWi...\n      SWAP2 \t\t\treturn wills[user].notarizedWi...\n      SWAP1 \t\t\treturn wills[user].notarizedWi...\n      PUSH 0\t\t\treturn wills[user].notarizedWi...\n      MSTORE \t\t\treturn wills[user].notarizedWi...\n      PUSH 20\t\t\treturn wills[user].notarizedWi...\n      PUSH 0\t\t\treturn wills[user].notarizedWi...\n      KECCAK256 \t\t\treturn wills[user].notarizedWi...\n      SWAP1 \t\t\treturn wills[user].notarizedWi...\n    tag 125\t\t\treturn wills[user].notarizedWi...\n      JUMPDEST \t\t\treturn wills[user].notarizedWi...\n      DUP2 \t\t\treturn wills[user].notarizedWi...\n      SLOAD \t\t\treturn wills[user].notarizedWi...\n      DUP2 \t\t\treturn wills[user].notarizedWi...\n      MSTORE \t\t\treturn wills[user].notarizedWi...\n      SWAP1 \t\t\treturn wills[user].notarizedWi...\n      PUSH 1\t\t\treturn wills[user].notarizedWi...\n      ADD \t\t\treturn wills[user].notarizedWi...\n      SWAP1 \t\t\treturn wills[user].notarizedWi...\n      PUSH 20\t\t\treturn wills[user].notarizedWi...\n      ADD \t\t\treturn wills[user].notarizedWi...\n      DUP1 \t\t\treturn wills[user].notarizedWi...\n      DUP4 \t\t\treturn wills[user].notarizedWi...\n      GT \t\t\treturn wills[user].notarizedWi...\n      PUSH [tag] 125\t\t\treturn wills[user].notarizedWi...\n      JUMPI \t\t\treturn wills[user].notarizedWi...\n      DUP3 \t\t\treturn wills[user].notarizedWi...\n      SWAP1 \t\t\treturn wills[user].notarizedWi...\n      SUB \t\t\treturn wills[user].notarizedWi...\n      PUSH 1F\t\t\treturn wills[user].notarizedWi...\n      AND \t\t\treturn wills[user].notarizedWi...\n      DUP3 \t\t\treturn wills[user].notarizedWi...\n      ADD \t\t\treturn wills[user].notarizedWi...\n      SWAP2 \t\t\treturn wills[user].notarizedWi...\n    tag 123\t\t\treturn wills[user].notarizedWi...\n      JUMPDEST \t\t\treturn wills[user].notarizedWi...\n      POP \t\t\treturn wills[user].notarizedWi...\n      POP \t\t\treturn wills[user].notarizedWi...\n      POP \t\t\treturn wills[user].notarizedWi...\n      POP \t\t\treturn wills[user].notarizedWi...\n      POP \t\t\treturn wills[user].notarizedWi...\n      SWAP1 \t\t\treturn wills[user].notarizedWi...\n      POP \t\t\treturn wills[user].notarizedWi...\n      SWAP2 \t\t\tfunction getNotarizedWill(addr...\n      SWAP1 \t\t\tfunction getNotarizedWill(addr...\n      POP \t\t\tfunction getNotarizedWill(addr...\n      JUMP \t\t\tfunction getNotarizedWill(addr...\n    tag 55\t\t\tfunction executeWill(address u...\n      JUMPDEST \t\t\tfunction executeWill(address u...\n      PUSH 0\t\t\twills\n      DUP1 \t\t\twills[user]\n      DUP3 \t\t\tuser\n      PUSH FFFFFFFFFFFFFFFFFFFFFFFFFFFFFFFFFFFFFFFF\t\t\twills[user]\n      AND \t\t\twills[user]\n      PUSH FFFFFFFFFFFFFFFFFFFFFFFFFFFFFFFFFFFFFFFF\t\t\twills[user]\n      AND \t\t\twills[user]\n      DUP2 \t\t\twills[user]\n      MSTORE \t\t\twills[user]\n      PUSH 20\t\t\twills[user]\n      ADD \t\t\twills[user]\n      SWAP1 \t\t\twills[user]\n      DUP2 \t\t\twills[user]\n      MSTORE \t\t\twills[user]\n      PUSH 20\t\t\twills[user]\n      ADD \t\t\twills[user]\n      PUSH 0\t\t\twills[user]\n      KECCAK256 \t\t\twills[user]\n      PUSH 4\t\t\twills[user].isDeceased\n      ADD \t\t\twills[user].isDeceased\n      PUSH 0\t\t\twills[user].isDeceased\n      SWAP1 \t\t\twills[user].isDeceased\n      SLOAD \t\t\twills[user].isDeceased\n      SWAP1 \t\t\twills[user].isDeceased\n      PUSH 100\t\t\twills[user].isDeceased\n      EXP \t\t\twills[user].isDeceased\n      SWAP1 \t\t\twills[user].isDeceased\n      DIV \t\t\twills[user].isDeceased\n      PUSH FF\t\t\twills[user].isDeceased\n      AND \t\t\twills[user].isDeceased\n      PUSH [tag] 127\t\t\trequire(wills[user].isDeceased...\n      JUMPI \t\t\trequire(wills[user].isDeceased...\n      PUSH 40\t\t\trequire(wills[user].isDeceased...\n      MLOAD \t\t\trequire(wills[user].isDeceased...\n      PUSH 8C379A000000000000000000000000000000000000000000000000000000000\t\t\trequire(wills[user].isDeceased...\n      DUP2 \t\t\trequire(wills[user].isDeceased...\n      MSTORE \t\t\trequire(wills[user].isDeceased...\n      PUSH 4\t\t\trequire(wills[user].isDeceased...\n      ADD \t\t\trequire(wills[user].isDeceased...\n      PUSH [tag] 128\t\t\trequire(wills[user].isDeceased...\n      SWAP1 \t\t\trequire(wills[user].isDeceased...\n      PUSH [tag] 129\t\t\trequire(wills[user].isDeceased...\n      JUMP \t\t\trequire(wills[user].isDeceased...\n    tag 128\t\t\trequire(wills[user].isDeceased...\n      JUMPDEST \t\t\trequire(wills[user].isDeceased...\n      PUSH 40\t\t\trequire(wills[user].isDeceased...\n      MLOAD \t\t\trequire(wills[user].isDeceased...\n      DUP1 \t\t\trequire(wills[user].isDeceased...\n      SWAP2 \t\t\trequire(wills[user].isDeceased...\n      SUB \t\t\trequire(wills[user].isDeceased...\n      SWAP1 \t\t\trequire(wills[user].isDeceased...\n      REVERT \t\t\trequire(wills[user].isDeceased...\n    tag 127\t\t\trequire(wills[user].isDeceased...\n      JUMPDEST \t\t\trequire(wills[user].isDeceased...\n      PUSH 0\t\t\t0\n      DUP1 \t\t\twills\n      PUSH 0\t\t\twills[user]\n      DUP4 \t\t\tuser\n      PUSH FFFFFFFFFFFFFFFFFFFFFFFFFFFFFFFFFFFFFFFF\t\t\twills[user]\n      AND \t\t\twills[user]\n      PUSH FFFFFFFFFFFFFFFFFFFFFFFFFFFFFFFFFFFFFFFF\t\t\twills[user]\n      AND \t\t\twills[user]\n      DUP2 \t\t\twills[user]\n      MSTORE \t\t\twills[user]\n      PUSH 20\t\t\twills[user]\n      ADD \t\t\twills[user]\n      SWAP1 \t\t\twills[user]\n      DUP2 \t\t\twills[user]\n      MSTORE \t\t\twills[user]\n      PUSH 20\t\t\twills[user]\n      ADD \t\t\twills[user]\n      PUSH 0\t\t\twills[user]\n      KECCAK256 \t\t\twills[user]\n      PUSH 1\t\t\twills[user].totalLocked\n      ADD \t\t\twills[user].totalLocked\n      SLOAD \t\t\twills[user].totalLocked\n      GT \t\t\twills[user].totalLocked > 0\n      PUSH [tag] 130\t\t\trequire(wills[user].totalLocke...\n      JUMPI \t\t\trequire(wills[user].totalLocke...\n      PUSH 40\t\t\trequire(wills[user].totalLocke...\n      MLOAD \t\t\trequire(wills[user].totalLocke...\n      PUSH 8C379A000000000000000000000000000000000000000000000000000000000\t\t\trequire(wills[user].totalLocke...\n      DUP2 \t\t\trequire(wills[user].totalLocke...\n      MSTORE \t\t\trequire(wills[user].totalLocke...\n      PUSH 4\t\t\trequire(wills[user].totalLocke...\n      ADD \t\t\trequire(wills[user].totalLocke...\n      PUSH [tag] 131\t\t\trequire(wills[user].totalLocke...\n      SWAP1 \t\t\trequire(wills[user].totalLocke...\n      PUSH [tag] 132\t\t\trequire(wills[user].totalLocke...\n      JUMP \t\t\trequire(wills[user].totalLocke...\n    tag 131\t\t\trequire(wills[user].totalLocke...\n      JUMPDEST \t\t\trequire(wills[user].totalLocke...\n      PUSH 40\t\t\trequire(wills[user].totalLocke...\n      MLOAD \t\t\trequire(wills[user].totalLocke...\n      DUP1 \t\t\trequire(wills[user].totalLocke...\n      SWAP2 \t\t\trequire(wills[user].totalLocke...\n      SUB \t\t\trequire(wills[user].totalLocke...\n      SWAP1 \t\t\trequire(wills[user].totalLocke...\n      REVERT \t\t\trequire(wills[user].totalLocke...\n    tag 130\t\t\trequire(wills[user].totalLocke...\n      JUMPDEST \t\t\trequire(wills[user].totalLocke...\n      PUSH 0\t\t\tuint i\n    tag 133\t\t\tfor (uint i = 0; i < wills[use...\n      JUMPDEST \t\t\tfor (uint i = 0; i < wills[use...\n      PUSH 0\t\t\twills\n      DUP1 \t\t\twills[user]\n      DUP4 \t\t\tuser\n      PUSH FFFFFFFFFFFFFFFFFFFFFFFFFFFFFFFFFFFFFFFF\t\t\twills[user]\n      AND \t\t\twills[user]\n      PUSH FFFFFFFFFFFFFFFFFFFFFFFFFFFFFFFFFFFFFFFF\t\t\twills[user]\n      AND \t\t\twills[user]\n      DUP2 \t\t\twills[user]\n      MSTORE \t\t\twills[user]\n      PUSH 20\t\t\twills[user]\n      ADD \t\t\twills[user]\n      SWAP1 \t\t\twills[user]\n      DUP2 \t\t\twills[user]\n      MSTORE \t\t\twills[user]\n      PUSH 20\t\t\twills[user]\n      ADD \t\t\twills[user]\n      PUSH 0\t\t\twills[user]\n      KECCAK256 \t\t\twills[user]\n      PUSH 6\t\t\twills[user].beneficiaries\n      ADD \t\t\twills[user].beneficiaries\n      DUP1 \t\t\twills[user].beneficiaries.leng...\n      SLOAD \t\t\twills[user].beneficiaries.leng...\n      SWAP1 \t\t\twills[user].beneficiaries.leng...\n      POP \t\t\twills[user].beneficiaries.leng...\n      DUP2 \t\t\ti\n      LT \t\t\ti < wills[user].beneficiaries....\n      ISZERO \t\t\tfor (uint i = 0; i < wills[use...\n      PUSH [tag] 134\t\t\tfor (uint i = 0; i < wills[use...\n      JUMPI \t\t\tfor (uint i = 0; i < wills[use...\n      PUSH 0\t\t\tuint256 amount\n      PUSH 64\t\t\t100\n      PUSH 0\t\t\twills\n      DUP1 \t\t\twills[user]\n      DUP6 \t\t\tuser\n      PUSH FFFFFFFFFFFFFFFFFFFFFFFFFFFFFFFFFFFFFFFF\t\t\twills[user]\n      AND \t\t\twills[user]\n      PUSH FFFFFFFFFFFFFFFFFFFFFFFFFFFFFFFFFFFFFFFF\t\t\twills[user]\n      AND \t\t\twills[user]\n      DUP2 \t\t\twills[user]\n      MSTORE \t\t\twills[user]\n      PUSH 20\t\t\twills[user]\n      ADD \t\t\twills[user]\n      SWAP1 \t\t\twills[user]\n      DUP2 \t\t\twills[user]\n      MSTORE \t\t\twills[user]\n      PUSH 20\t\t\twills[user]\n      ADD \t\t\twills[user]\n      PUSH 0\t\t\twills[user]\n      KECCAK256 \t\t\twills[user]\n      PUSH 6\t\t\twills[user].beneficiaries\n      ADD \t\t\twills[user].beneficiaries\n      DUP4 \t\t\ti\n      DUP2 \t\t\twills[user].beneficiaries[i]\n      SLOAD \t\t\twills[user].beneficiaries[i]\n      DUP2 \t\t\twills[user].beneficiaries[i]\n      LT \t\t\twills[user].beneficiaries[i]\n      PUSH [tag] 136\t\t\twills[user].beneficiaries[i]\n      JUMPI \t\t\twills[user].beneficiaries[i]\n      PUSH [tag] 137\t\t\twills[user].beneficiaries[i]\n      PUSH [tag] 72\t\t\twills[user].beneficiaries[i]\n      JUMP \t\t\twills[user].beneficiaries[i]\n    tag 137\t\t\twills[user].beneficiaries[i]\n      JUMPDEST \t\t\twills[user].beneficiaries[i]\n    tag 136\t\t\twills[user].beneficiaries[i]\n      JUMPDEST \t\t\twills[user].beneficiaries[i]\n      SWAP1 \t\t\twills[user].beneficiaries[i]\n      PUSH 0\t\t\twills[user].beneficiaries[i]\n      MSTORE \t\t\twills[user].beneficiaries[i]\n      PUSH 20\t\t\twills[user].beneficiaries[i]\n      PUSH 0\t\t\twills[user].beneficiaries[i]\n      KECCAK256 \t\t\twills[user].beneficiaries[i]\n      SWAP1 \t\t\twills[user].beneficiaries[i]\n      PUSH 3\t\t\twills[user].beneficiaries[i]\n      MUL \t\t\twills[user].beneficiaries[i]\n      ADD \t\t\twills[user].beneficiaries[i]\n      PUSH 1\t\t\twills[user].beneficiaries[i].p...\n      ADD \t\t\twills[user].beneficiaries[i].p...\n      SLOAD \t\t\twills[user].beneficiaries[i].p...\n      PUSH 0\t\t\twills\n      DUP1 \t\t\twills[user]\n      DUP7 \t\t\tuser\n      PUSH FFFFFFFFFFFFFFFFFFFFFFFFFFFFFFFFFFFFFFFF\t\t\twills[user]\n      AND \t\t\twills[user]\n      PUSH FFFFFFFFFFFFFFFFFFFFFFFFFFFFFFFFFFFFFFFF\t\t\twills[user]\n      AND \t\t\twills[user]\n      DUP2 \t\t\twills[user]\n      MSTORE \t\t\twills[user]\n      PUSH 20\t\t\twills[user]\n      ADD \t\t\twills[user]\n      SWAP1 \t\t\twills[user]\n      DUP2 \t\t\twills[user]\n      MSTORE \t\t\twills[user]\n      PUSH 20\t\t\twills[user]\n      ADD \t\t\twills[user]\n      PUSH 0\t\t\twills[user]\n      KECCAK256 \t\t\twills[user]\n      PUSH 1\t\t\twills[user].totalLocked\n      ADD \t\t\twills[user].totalLocked\n      SLOAD \t\t\twills[user].totalLocked\n      PUSH [tag] 139\t\t\twills[user].totalLocked * will...\n      SWAP2 \t\t\twills[user].totalLocked * will...\n      SWAP1 \t\t\twills[user].totalLocked * will...\n      PUSH [tag] 140\t\t\twills[user].totalLocked * will...\n      JUMP \t\t\twills[user].totalLocked * will...\n    tag 139\t\t\twills[user].totalLocked * will...\n      JUMPDEST \t\t\twills[user].totalLocked * will...\n      PUSH [tag] 141\t\t\t(wills[user].totalLocked * wil...\n      SWAP2 \t\t\t(wills[user].totalLocked * wil...\n      SWAP1 \t\t\t(wills[user].totalLocked * wil...\n      PUSH [tag] 142\t\t\t(wills[user].totalLocked * wil...\n      JUMP \t\t\t(wills[user].totalLocked * wil...\n    tag 141\t\t\t(wills[user].totalLocked * wil...\n      JUMPDEST \t\t\t(wills[user].totalLocked * wil...\n      SWAP1 \t\t\tuint256 amount = (wills[user]....\n      POP \t\t\tuint256 amount = (wills[user]....\n      PUSH 0\t\t\twills\n      DUP1 \t\t\twills[user]\n      DUP5 \t\t\tuser\n      PUSH FFFFFFFFFFFFFFFFFFFFFFFFFFFFFFFFFFFFFFFF\t\t\twills[user]\n      AND \t\t\twills[user]\n      PUSH FFFFFFFFFFFFFFFFFFFFFFFFFFFFFFFFFFFFFFFF\t\t\twills[user]\n      AND \t\t\twills[user]\n      DUP2 \t\t\twills[user]\n      MSTORE \t\t\twills[user]\n      PUSH 20\t\t\twills[user]\n      ADD \t\t\twills[user]\n      SWAP1 \t\t\twills[user]\n      DUP2 \t\t\twills[user]\n      MSTORE \t\t\twills[user]\n      PUSH 20\t\t\twills[user]\n      ADD \t\t\twills[user]\n      PUSH 0\t\t\twills[user]\n      KECCAK256 \t\t\twills[user]\n      PUSH 6\t\t\twills[user].beneficiaries\n      ADD \t\t\twills[user].beneficiaries\n      DUP3 \t\t\ti\n      DUP2 \t\t\twills[user].beneficiaries[i]\n      SLOAD \t\t\twills[user].beneficiaries[i]\n      DUP2 \t\t\twills[user].beneficiaries[i]\n      LT \t\t\twills[user].beneficiaries[i]\n      PUSH [tag] 143\t\t\twills[user].beneficiaries[i]\n      JUMPI \t\t\twills[user].beneficiaries[i]\n      PUSH [tag] 144\t\t\twills[user].beneficiaries[i]\n      PUSH [tag] 72\t\t\twills[user].beneficiaries[i]\n      JUMP \t\t\twills[user].beneficiaries[i]\n    tag 144\t\t\twills[user].beneficiaries[i]\n      JUMPDEST \t\t\twills[user].beneficiaries[i]\n    tag 143\t\t\twills[user].beneficiaries[i]\n      JUMPDEST \t\t\twills[user].beneficiaries[i]\n      SWAP1 \t\t\twills[user].beneficiaries[i]\n      PUSH 0\t\t\twills[user].beneficiaries[i]\n      MSTORE \t\t\twills[user].beneficiaries[i]\n      PUSH 20\t\t\twills[user].beneficiaries[i]\n      PUSH 0\t\t\twills[user].beneficiaries[i]\n      KECCAK256 \t\t\twills[user].beneficiaries[i]\n      SWAP1 \t\t\twills[user].beneficiaries[i]\n      PUSH 3\t\t\twills[user].beneficiaries[i]\n      MUL \t\t\twills[user].beneficiaries[i]\n      ADD \t\t\twills[user].beneficiaries[i]\n      PUSH 0\t\t\twills[user].beneficiaries[i].w...\n      ADD \t\t\twills[user].beneficiaries[i].w...\n      PUSH 0\t\t\twills[user].beneficiaries[i].w...\n      SWAP1 \t\t\twills[user].beneficiaries[i].w...\n      SLOAD \t\t\twills[user].beneficiaries[i].w...\n      SWAP1 \t\t\twills[user].beneficiaries[i].w...\n      PUSH 100\t\t\twills[user].beneficiaries[i].w...\n      EXP \t\t\twills[user].beneficiaries[i].w...\n      SWAP1 \t\t\twills[user].beneficiaries[i].w...\n      DIV \t\t\twills[user].beneficiaries[i].w...\n      PUSH FFFFFFFFFFFFFFFFFFFFFFFFFFFFFFFFFFFFFFFF\t\t\twills[user].beneficiaries[i].w...\n      AND \t\t\twills[user].beneficiaries[i].w...\n      PUSH FFFFFFFFFFFFFFFFFFFFFFFFFFFFFFFFFFFFFFFF\t\t\twills[user].beneficiaries[i].w...\n      AND \t\t\twills[user].beneficiaries[i].w...\n      PUSH 8FC\t\t\twills[user].beneficiaries[i].w...\n      DUP3 \t\t\tamount\n      SWAP1 \t\t\twills[user].beneficiaries[i].w...\n      DUP2 \t\t\twills[user].beneficiaries[i].w...\n      ISZERO \t\t\twills[user].beneficiaries[i].w...\n      MUL \t\t\twills[user].beneficiaries[i].w...\n      SWAP1 \t\t\twills[user].beneficiaries[i].w...\n      PUSH 40\t\t\twills[user].beneficiaries[i].w...\n      MLOAD \t\t\twills[user].beneficiaries[i].w...\n      PUSH 0\t\t\twills[user].beneficiaries[i].w...\n      PUSH 40\t\t\twills[user].beneficiaries[i].w...\n      MLOAD \t\t\twills[user].beneficiaries[i].w...\n      DUP1 \t\t\twills[user].beneficiaries[i].w...\n      DUP4 \t\t\twills[user].beneficiaries[i].w...\n      SUB \t\t\twills[user].beneficiaries[i].w...\n      DUP2 \t\t\twills[user].beneficiaries[i].w...\n      DUP6 \t\t\twills[user].beneficiaries[i].w...\n      DUP9 \t\t\twills[user].beneficiaries[i].w...\n      DUP9 \t\t\twills[user].beneficiaries[i].w...\n      CALL \t\t\twills[user].beneficiaries[i].w...\n      SWAP4 \t\t\twills[user].beneficiaries[i].w...\n      POP \t\t\twills[user].beneficiaries[i].w...\n      POP \t\t\twills[user].beneficiaries[i].w...\n      POP \t\t\twills[user].beneficiaries[i].w...\n      POP \t\t\twills[user].beneficiaries[i].w...\n      ISZERO \t\t\twills[user].beneficiaries[i].w...\n      DUP1 \t\t\twills[user].beneficiaries[i].w...\n      ISZERO \t\t\twills[user].beneficiaries[i].w...\n      PUSH [tag] 147\t\t\twills[user].beneficiaries[i].w...\n      JUMPI \t\t\twills[user].beneficiaries[i].w...\n      RETURNDATASIZE \t\t\twills[user].beneficiaries[i].w...\n      PUSH 0\t\t\twills[user].beneficiaries[i].w...\n      DUP1 \t\t\twills[user].beneficiaries[i].w...\n      RETURNDATACOPY \t\t\twills[user].beneficiaries[i].w...\n      RETURNDATASIZE \t\t\twills[user].beneficiaries[i].w...\n      PUSH 0\t\t\twills[user].beneficiaries[i].w...\n      REVERT \t\t\twills[user].beneficiaries[i].w...\n    tag 147\t\t\twills[user].beneficiaries[i].w...\n      JUMPDEST \t\t\twills[user].beneficiaries[i].w...\n      POP \t\t\twills[user].beneficiaries[i].w...\n      POP \t\t\t{\\n            uint256 amount ...\n      DUP1 \t\t\ti++\n      DUP1 \t\t\ti++\n      PUSH 1\t\t\ti++\n      ADD \t\t\ti++\n      SWAP2 \t\t\ti++\n      POP \t\t\ti++\n      POP \t\t\ti++\n      PUSH [tag] 133\t\t\tfor (uint i = 0; i < wills[use...\n      JUMP \t\t\tfor (uint i = 0; i < wills[use...\n    tag 134\t\t\tfor (uint i = 0; i < wills[use...\n      JUMPDEST \t\t\tfor (uint i = 0; i < wills[use...\n      POP \t\t\tfor (uint i = 0; i < wills[use...\n      PUSH 0\t\t\t0\n      DUP1 \t\t\twills\n      PUSH 0\t\t\twills[user]\n      DUP4 \t\t\tuser\n      PUSH FFFFFFFFFFFFFFFFFFFFFFFFFFFFFFFFFFFFFFFF\t\t\twills[user]\n      AND \t\t\twills[user]\n      PUSH FFFFFFFFFFFFFFFFFFFFFFFFFFFFFFFFFFFFFFFF\t\t\twills[user]\n      AND \t\t\twills[user]\n      DUP2 \t\t\twills[user]\n      MSTORE \t\t\twills[user]\n      PUSH 20\t\t\twills[user]\n      ADD \t\t\twills[user]\n      SWAP1 \t\t\twills[user]\n      DUP2 \t\t\twills[user]\n      MSTORE \t\t\twills[user]\n      PUSH 20\t\t\twills[user]\n      ADD \t\t\twills[user]\n      PUSH 0\t\t\twills[user]\n      KECCAK256 \t\t\twills[user]\n      PUSH 1\t\t\twills[user].totalLocked\n      ADD \t\t\twills[user].totalLocked\n      DUP2 \t\t\twills[user].totalLocked = 0\n      SWAP1 \t\t\twills[user].totalLocked = 0\n      SSTORE \t\t\twills[user].totalLocked = 0\n      POP \t\t\twills[user].totalLocked = 0\n      POP \t\t\tfunction executeWill(address u...\n      JUMP \t\t\tfunction executeWill(address u...\n    tag 148\t\t\t-License-Identifier: MIT\\nprag...\n      JUMPDEST \t\t\t-License-Identifier: MIT\\nprag...\n      PUSH 0\t\t\tolidit\n      PUSH 40\t\t\til\n      MLOAD \t\t\tMultiWill\n      SWAP1 \t\t\t\\ncontract MultiWill\n      POP \t\t\t\\ncontract MultiWill\n      SWAP1 \t\t\t-License-Identifier: MIT\\nprag...\n      JUMP \t\t\t-License-Identifier: MIT\\nprag...\n    tag 149\t\t\t   struct Beneficiary {\\n     ...\n      JUMPDEST \t\t\t   struct Beneficiary {\\n     ...\n      PUSH 0\t\t\ta\n      DUP1 \t\t\te\n      REVERT \t\t\ton percentag\n    tag 150\t\t\tring saleDeedIpfsHash; // IPFS...\n      JUMPDEST \t\t\tring saleDeedIpfsHash; // IPFS...\n      PUSH 0\t\t\to\n      DUP1 \t\t\tt\n      REVERT \t\t\tess testator\n    tag 151\t\t\tnt256 totalLocked;\\n        ui...\n      JUMPDEST \t\t\tnt256 totalLocked;\\n        ui...\n      PUSH 0\t\t\tstAlive\n      PUSH FFFFFFFFFFFFFFFFFFFFFFFFFFFFFFFFFFFFFFFF\t\t\tInterval;\\n        bool isDece...\n      DUP3 \t\t\tfOfLi\n      AND \t\t\tproofOfLifeInterval;\\n        ...\n      SWAP1 \t\t\t   uint256 proofOfLifeInterval...\n      POP \t\t\t   uint256 proofOfLifeInterval...\n      SWAP2 \t\t\tnt256 totalLocked;\\n        ui...\n      SWAP1 \t\t\tnt256 totalLocked;\\n        ui...\n      POP \t\t\tnt256 totalLocked;\\n        ui...\n      JUMP \t\t\tnt256 totalLocked;\\n        ui...\n    tag 152\t\t\tizedWillIpfsHash;\\n        Ben...\n      JUMPDEST \t\t\tizedWillIpfsHash;\\n        Ben...\n      PUSH 0\t\t\t[] bene\n      PUSH [tag] 224\t\t\tmapping(address => Will)\n      DUP3 \t\t\t Will\n      PUSH [tag] 151\t\t\tmapping(address => Will)\n      JUMP \t\t\tmapping(address => Will)\n    tag 224\t\t\tmapping(address => Will)\n      JUMPDEST \t\t\tmapping(address => Will)\n      SWAP1 \t\t\t    }\\n\\n    mapping(address =...\n      POP \t\t\t    }\\n\\n    mapping(address =...\n      SWAP2 \t\t\tizedWillIpfsHash;\\n        Ben...\n      SWAP1 \t\t\tizedWillIpfsHash;\\n        Ben...\n      POP \t\t\tizedWillIpfsHash;\\n        Ben...\n      JUMP \t\t\tizedWillIpfsHash;\\n        Ben...\n    tag 153\t\t\tls;\\n    mapping(address => bo...\n      JUMPDEST \t\t\tls;\\n    mapping(address => bo...\n      PUSH [tag] 226\t\t\tddress indexed testator,\n      DUP2 \t\t\ttator\n      PUSH [tag] 152\t\t\tddress indexed testator,\n      JUMP \t\t\tddress indexed testator,\n    tag 226\t\t\tddress indexed testator,\n      JUMPDEST \t\t\tddress indexed testator,\n      DUP2 \t\t\teated\n      EQ \t\t\tlCreated(address indexed testa...\n      PUSH [tag] 227\t\t\t event WillCreated(address ind...\n      JUMPI \t\t\t event WillCreated(address ind...\n      PUSH 0\t\t\tF\n      DUP1 \t\t\tk\n      REVERT \t\t\t256 lockedFu\n    tag 227\t\t\t event WillCreated(address ind...\n      JUMPDEST \t\t\t event WillCreated(address ind...\n      POP \t\t\tls;\\n    mapping(address => bo...\n      JUMP \t\t\tls;\\n    mapping(address => bo...\n    tag 154\t\t\tt WillExecuted(address indexed...\n      JUMPDEST \t\t\tt WillExecuted(address indexed...\n      PUSH 0\t\t\tevent\n      DUP2 \t\t\texed t\n      CALLDATALOAD \t\t\td(address indexed te\n      SWAP1 \t\t\teConfirmed(address indexed te\n      POP \t\t\teConfirmed(address indexed te\n      PUSH [tag] 229\t\t\t\\n    /**\\n     * @dev Creates...\n      DUP2 \t\t\ts a n\n      PUSH [tag] 153\t\t\t\\n    /**\\n     * @dev Creates...\n      JUMP \t\t\t\\n    /**\\n     * @dev Creates...\n    tag 229\t\t\t\\n    /**\\n     * @dev Creates...\n      JUMPDEST \t\t\t\\n    /**\\n     * @dev Creates...\n      SWAP3 \t\t\tt WillExecuted(address indexed...\n      SWAP2 \t\t\tt WillExecuted(address indexed...\n      POP \t\t\tt WillExecuted(address indexed...\n      POP \t\t\tt WillExecuted(address indexed...\n      JUMP \t\t\tt WillExecuted(address indexed...\n    tag 13\t\t\the sender.\\n     * @param _pro...\n      JUMPDEST \t\t\the sender.\\n     * @param _pro...\n      PUSH 0\t\t\t in se\n      PUSH 20\t\t\tri\n      DUP3 \t\t\t@param _n\n      DUP5 \t\t\t.\\n     \n      SUB \t\t\tlive.\\n     * @param _no\n      SLT \t\t\trm alive.\\n     * @param _nota...\n      ISZERO \t\t\tnfirm alive.\\n     * @param _n...\n      PUSH [tag] 231\t\t\tnfirm alive.\\n     * @param _n...\n      JUMPI \t\t\tnfirm alive.\\n     * @param _n...\n      PUSH [tag] 232\t\t\tillIpfsHash IPFS hash of the n...\n      PUSH [tag] 149\t\t\tillIpfsHash IPFS hash of the n...\n      JUMP \t\t\tillIpfsHash IPFS hash of the n...\n    tag 232\t\t\tillIpfsHash IPFS hash of the n...\n      JUMPDEST \t\t\tillIpfsHash IPFS hash of the n...\n    tag 231\t\t\tnfirm alive.\\n     * @param _n...\n      JUMPDEST \t\t\tnfirm alive.\\n     * @param _n...\n      PUSH 0\t\t\tn\n      PUSH [tag] 233\t\t\tpfsHash) public payable {\\n   ...\n      DUP5 \t\t\tsWill[m\n      DUP3 \t\t\tquire(\n      DUP6 \t\t\t\\n        \n      ADD \t\t\tle {\\n        require(!\n      PUSH [tag] 154\t\t\tpfsHash) public payable {\\n   ...\n      JUMP \t\t\tpfsHash) public payable {\\n   ...\n    tag 233\t\t\tpfsHash) public payable {\\n   ...\n      JUMPDEST \t\t\tpfsHash) public payable {\\n   ...\n      SWAP2 \t\t\trizedWillIpfsHash) public paya...\n      POP \t\t\trizedWillIpfsHash) public paya...\n      POP \t\t\t56 _proofOfLifeInterval, strin...\n      SWAP3 \t\t\the sender.\\n     * @param _pro...\n      SWAP2 \t\t\the sender.\\n     * @param _pro...\n      POP \t\t\the sender.\\n     * @param _pro...\n      POP \t\t\the sender.\\n     * @param _pro...\n      JUMP \t\t\the sender.\\n     * @param _pro...\n    tag 155\t\t\t have a will!\");\\n        requ...\n      JUMPDEST \t\t\t have a will!\");\\n        requ...\n      PUSH 0\t\t\tsg.valu\n      DUP2 \t\t\tills[\n      ISZERO \t\t\t      wills[m\n      ISZERO \t\t\t\");\\n\\n        wills[ms\n      SWAP1 \t\t\tt lock ETH!\");\\n\\n        will...\n      POP \t\t\tt lock ETH!\");\\n\\n        will...\n      SWAP2 \t\t\t have a will!\");\\n        requ...\n      SWAP1 \t\t\t have a will!\");\\n        requ...\n      POP \t\t\t have a will!\");\\n        requ...\n      JUMP \t\t\t have a will!\");\\n        requ...\n    tag 156\t\t\tstator = msg.sender;\\n        ...\n      JUMPDEST \t\t\tstator = msg.sender;\\n        ...\n      PUSH [tag] 236\t\t\tills[msg.sender].last\n      DUP2 \t\t\t].las\n      PUSH [tag] 155\t\t\tills[msg.sender].last\n      JUMP \t\t\tills[msg.sender].last\n    tag 236\t\t\tills[msg.sender].last\n      JUMPDEST \t\t\tills[msg.sender].last\n      DUP3 \t\t\t   \n      MSTORE \t\t\te;\\n        wills[msg.sender]....\n      POP \t\t\tstator = msg.sender;\\n        ...\n      POP \t\t\tstator = msg.sender;\\n        ...\n      JUMP \t\t\tstator = msg.sender;\\n        ...\n    tag 20\t\t\tlock.timestamp;\\n        wills...\n      JUMPDEST \t\t\tlock.timestamp;\\n        wills...\n      PUSH 0\t\t\t    \n      PUSH 20\t\t\tfa\n      DUP3 \t\t\tDeceased \n      ADD \t\t\t].isDeceased = fal\n      SWAP1 \t\t\tg.sender].isDeceased = fal\n      POP \t\t\tg.sender].isDeceased = fal\n      PUSH [tag] 238\t\t\t  wills[msg.sender].notarizedW...\n      PUSH 0\t\t\tH\n      DUP4 \t\t\tzedWillIp\n      ADD \t\t\ttarizedWillIpfsHa\n      DUP5 \t\t\tash = \n      PUSH [tag] 156\t\t\t  wills[msg.sender].notarizedW...\n      JUMP \t\t\t  wills[msg.sender].notarizedW...\n    tag 238\t\t\t  wills[msg.sender].notarizedW...\n      JUMPDEST \t\t\t  wills[msg.sender].notarizedW...\n      SWAP3 \t\t\tlock.timestamp;\\n        wills...\n      SWAP2 \t\t\tlock.timestamp;\\n        wills...\n      POP \t\t\tlock.timestamp;\\n        wills...\n      POP \t\t\tlock.timestamp;\\n        wills...\n      JUMP \t\t\tlock.timestamp;\\n        wills...\n    tag 157\t\t\tsWill[msg.sender] = true;\\n\\n ...\n      JUMPDEST \t\t\tsWill[msg.sender] = true;\\n\\n ...\n      PUSH 0\t\t\treated(\n      PUSH [tag] 240\t\t\t;\\n    }\\n\\n    /**\\n     * \n      DUP3 \t\t\t    *\n      PUSH [tag] 151\t\t\t;\\n    }\\n\\n    /**\\n     * \n      JUMP \t\t\t;\\n    }\\n\\n    /**\\n     * \n    tag 240\t\t\t;\\n    }\\n\\n    /**\\n     * \n      JUMPDEST \t\t\t;\\n    }\\n\\n    /**\\n     * \n      SWAP1 \t\t\t msg.value);\\n    }\\n\\n    /**...\n      POP \t\t\t msg.value);\\n    }\\n\\n    /**...\n      SWAP2 \t\t\tsWill[msg.sender] = true;\\n\\n ...\n      SWAP1 \t\t\tsWill[msg.sender] = true;\\n\\n ...\n      POP \t\t\tsWill[msg.sender] = true;\\n\\n ...\n      JUMP \t\t\tsWill[msg.sender] = true;\\n\\n ...\n    tag 158\t\t\tbeneficiary to the caller's wi...\n      JUMPDEST \t\t\tbeneficiary to the caller's wi...\n      PUSH [tag] 242\t\t\ty.\\n     * @param _percentage ...\n      DUP2 \t\t\tge Sh\n      PUSH [tag] 157\t\t\ty.\\n     * @param _percentage ...\n      JUMP \t\t\ty.\\n     * @param _percentage ...\n    tag 242\t\t\ty.\\n     * @param _percentage ...\n      JUMPDEST \t\t\ty.\\n     * @param _percentage ...\n      DUP2 \t\t\tefici\n      EQ \t\t\tbeneficiary.\\n     * @param _p...\n      PUSH [tag] 243\t\t\tss of the beneficiary.\\n     *...\n      JUMPI \t\t\tss of the beneficiary.\\n     *...\n      PUSH 0\t\t\t \n      DUP1 \t\t\t \n      REVERT \t\t\t ETH to be a\n    tag 243\t\t\tss of the beneficiary.\\n     *...\n      JUMPDEST \t\t\tss of the beneficiary.\\n     *...\n      POP \t\t\tbeneficiary to the caller's wi...\n      JUMP \t\t\tbeneficiary to the caller's wi...\n    tag 159\t\t\t * @param _saleDeedIpfsHash IP...\n      JUMPDEST \t\t\t * @param _saleDeedIpfsHash IP...\n      PUSH 0\t\t\t docu\n      DUP2 \t\t\t\\n     \n      CALLDATALOAD \t\t\t beneficiary.\\n     *\n      SWAP1 \t\t\ted to the beneficiary.\\n     *\n      POP \t\t\ted to the beneficiary.\\n     *\n      PUSH [tag] 245\t\t\tction addBeneficiary(address p...\n      DUP2 \t\t\te _wa\n      PUSH [tag] 158\t\t\tction addBeneficiary(address p...\n      JUMP \t\t\tction addBeneficiary(address p...\n    tag 245\t\t\tction addBeneficiary(address p...\n      JUMPDEST \t\t\tction addBeneficiary(address p...\n      SWAP3 \t\t\t * @param _saleDeedIpfsHash IP...\n      SWAP2 \t\t\t * @param _saleDeedIpfsHash IP...\n      POP \t\t\t * @param _saleDeedIpfsHash IP...\n      POP \t\t\t * @param _saleDeedIpfsHash IP...\n      JUMP \t\t\t * @param _saleDeedIpfsHash IP...\n    tag 160\t\t\t _percentage, string memory _s...\n      JUMPDEST \t\t\t _percentage, string memory _s...\n      PUSH 0\t\t\tIpfsHas\n      DUP2 \t\t\tquire\n      SWAP1 \t\t\t\\n        require\n      POP \t\t\t\\n        require\n      SWAP2 \t\t\t _percentage, string memory _s...\n      SWAP1 \t\t\t _percentage, string memory _s...\n      POP \t\t\t _percentage, string memory _s...\n      JUMP \t\t\t _percentage, string memory _s...\n    tag 161\t\t\t.sender], \"You need to create ...\n      JUMPDEST \t\t\t.sender], \"You need to create ...\n      PUSH [tag] 248\t\t\t > 0 && _percentage <= 1\n      DUP2 \t\t\te <= \n      PUSH [tag] 160\t\t\t > 0 && _percentage <= 1\n      JUMP \t\t\t > 0 && _percentage <= 1\n    tag 248\t\t\t > 0 && _percentage <= 1\n      JUMPDEST \t\t\t > 0 && _percentage <= 1\n      DUP2 \t\t\tcenta\n      EQ \t\t\tpercentage > 0 && _percentage ...\n      PUSH [tag] 249\t\t\t require(_percentage > 0 && _p...\n      JUMPI \t\t\t require(_percentage > 0 && _p...\n      PUSH 0\t\t\tr\n      DUP1 \t\t\t \n      REVERT \t\t\tInvalid perc\n    tag 249\t\t\t require(_percentage > 0 && _p...\n      JUMPDEST \t\t\t require(_percentage > 0 && _p...\n      POP \t\t\t.sender], \"You need to create ...\n      JUMP \t\t\t.sender], \"You need to create ...\n    tag 162\t\t\t     uint256 totalPercentage =...\n      JUMPDEST \t\t\t     uint256 totalPercentage =...\n      PUSH 0\t\t\t(uint\n      DUP2 \t\t\teficia\n      CALLDATALOAD \t\t\tg.sender].beneficiar\n      SWAP1 \t\t\t wills[msg.sender].beneficiar\n      POP \t\t\t wills[msg.sender].beneficiar\n      PUSH [tag] 251\t\t\th; i++) {\\n            totalPe...\n      DUP2 \t\t\tPerce\n      PUSH [tag] 161\t\t\th; i++) {\\n            totalPe...\n      JUMP \t\t\th; i++) {\\n            totalPe...\n    tag 251\t\t\th; i++) {\\n            totalPe...\n      JUMPDEST \t\t\th; i++) {\\n            totalPe...\n      SWAP3 \t\t\t     uint256 totalPercentage =...\n      SWAP2 \t\t\t     uint256 totalPercentage =...\n      POP \t\t\t     uint256 totalPercentage =...\n      POP \t\t\t     uint256 totalPercentage =...\n      JUMP \t\t\t     uint256 totalPercentage =...\n    tag 163\t\t\ts[msg.sender].beneficiaries[i]...\n      JUMPDEST \t\t\ts[msg.sender].beneficiaries[i]...\n      PUSH 0\t\t\to\n      DUP1 \t\t\t \n      REVERT \t\t\t<= 100, \"Tot\n    tag 164\t\t\tn exceeds 100%\");\\n\\n        w...\n      JUMPDEST \t\t\tn exceeds 100%\");\\n\\n        w...\n      PUSH 0\t\t\tf\n      DUP1 \t\t\td\n      REVERT \t\t\tsaleDeedIpfs\n    tag 165\t\t\t}\\n\\n    /**\\n     * @dev Allo...\n      JUMPDEST \t\t\t}\\n\\n    /**\\n     * @dev Allo...\n      PUSH 0\t\t\to conf\n      PUSH 1F\t\t\tir\n      NOT \t\t\tconfirm\n      PUSH 1F\t\t\tti\n      DUP4 \t\t\t   fu\n      ADD \t\t\t*/\\n    functio\n      AND \t\t\t    */\\n    function confirmA\n      SWAP1 \t\t\te alive.\\n     */\\n    functio...\n      POP \t\t\te alive.\\n     */\\n    functio...\n      SWAP2 \t\t\t}\\n\\n    /**\\n     * @dev Allo...\n      SWAP1 \t\t\t}\\n\\n    /**\\n     * @dev Allo...\n      POP \t\t\t}\\n\\n    /**\\n     * @dev Allo...\n      JUMP \t\t\t}\\n\\n    /**\\n     * @dev Allo...\n    tag 166\t\t\tc {\\n        require(hasWill[m...\n      JUMPDEST \t\t\tc {\\n        require(hasWill[m...\n      PUSH 4E487B7100000000000000000000000000000000000000000000000000000000\t\t\tl found!\");\\n        wills[msg...\n      PUSH 0\t\t\tw\n      MSTORE \t\t\t], \"No will found!\");\\n       ...\n      PUSH 41\t\t\tnfir\n      PUSH 4\t\t\te\n      MSTORE \t\t\tofOfLifeConfirm\n      PUSH 24\t\t\t }\\n\\n\n      PUSH 0\t\t\t \n      REVERT \t\t\tnder);\\n    }\\n\\n \n    tag 167\t\t\t* @dev Checks if a user's proo...\n      JUMPDEST \t\t\t* @dev Checks if a user's proo...\n      PUSH [tag] 257\t\t\t\\n     */\\n    function check\n      DUP3 \t\t\tchec\n      PUSH [tag] 165\t\t\t\\n     */\\n    function check\n      JUMP \t\t\t\\n     */\\n    function check\n    tag 257\t\t\t\\n     */\\n    function check\n      JUMPDEST \t\t\t\\n     */\\n    function check\n      DUP2 \t\t\the wil\n      ADD \t\t\tes the will.\\n     */\\n    fun...\n      DUP2 \t\t\tmestam\n      DUP2 \t\t\tire(block.\n      LT \t\t\tequire(block.timestamp\n      PUSH FFFFFFFFFFFFFFFF\t\t\tl found!\");\\n      \n      DUP3 \t\t\ter], \"No w\n      GT \t\t\t[user], \"No will found!\");\\n  ...\n      OR \t\t\till[user], \"No will found!\");\\...\n      ISZERO \t\t\tasWill[user], \"No will found!\"...\n      PUSH [tag] 258\t\t\tasWill[user], \"No will found!\"...\n      JUMPI \t\t\tasWill[user], \"No will found!\"...\n      PUSH [tag] 259\t\t\tills[user].lastAli\n      PUSH [tag] 166\t\t\tills[user].lastAli\n      JUMP \t\t\tills[user].lastAli\n    tag 259\t\t\tills[user].lastAli\n      JUMPDEST \t\t\tills[user].lastAli\n    tag 258\t\t\tasWill[user], \"No will found!\"...\n      JUMPDEST \t\t\tasWill[user], \"No will found!\"...\n      DUP1 \t\t\troofOfLife\n      PUSH 40\t\t\tr]\n      MSTORE \t\t\tlls[user].proofOfLifeI\n      POP \t\t\terval has expired and executes...\n      POP \t\t\t* @dev Checks if a user's proo...\n      POP \t\t\t* @dev Checks if a user's proo...\n      JUMP \t\t\t* @dev Checks if a user's proo...\n    tag 168\t\t\tner is still alive!\");\\n\\n    ...\n      JUMPDEST \t\t\tner is still alive!\");\\n\\n    ...\n      PUSH 0\t\t\tlls[us\n      PUSH [tag] 261\t\t\t;\\n        executeWil\n      PUSH [tag] 148\t\t\t;\\n        executeWil\n      JUMP \t\t\t;\\n        executeWil\n    tag 261\t\t\t;\\n        executeWil\n      JUMPDEST \t\t\t;\\n        executeWil\n      SWAP1 \t\t\tsed = true;\\n        executeWi...\n      POP \t\t\tsed = true;\\n        executeWi...\n      PUSH [tag] 262\t\t\t        emit WillExecuted(user...\n      DUP3 \t\t\ter);\n      DUP3 \t\t\tcuted(\n      PUSH [tag] 167\t\t\t        emit WillExecuted(user...\n      JUMP \t\t\t        emit WillExecuted(user...\n    tag 262\t\t\t        emit WillExecuted(user...\n      JUMPDEST \t\t\t        emit WillExecuted(user...\n      SWAP2 \t\t\tner is still alive!\");\\n\\n    ...\n      SWAP1 \t\t\tner is still alive!\");\\n\\n    ...\n      POP \t\t\tner is still alive!\");\\n\\n    ...\n      JUMP \t\t\tner is still alive!\");\\n\\n    ...\n    tag 169\t\t\t**\\n     * @dev Executes a wil...\n      JUMPDEST \t\t\t**\\n     * @dev Executes a wil...\n      PUSH 0\t\t\tarie\n      PUSH FFFFFFFFFFFFFFFF\t\t\t        require(wi\n      DUP3 \t\t\ternal \n      GT \t\t\tinternal {\\n        require(wi...\n      ISZERO \t\t\tr) internal {\\n        require...\n      PUSH [tag] 264\t\t\tr) internal {\\n        require...\n      JUMPI \t\t\tr) internal {\\n        require...\n      PUSH [tag] 265\t\t\tuser].isDeceased, \n      PUSH [tag] 166\t\t\tuser].isDeceased, \n      JUMP \t\t\tuser].isDeceased, \n    tag 265\t\t\tuser].isDeceased, \n      JUMPDEST \t\t\tuser].isDeceased, \n    tag 264\t\t\tr) internal {\\n        require...\n      JUMPDEST \t\t\tr) internal {\\n        require...\n      PUSH [tag] 266\t\t\tet\");\\n        require(wills[u\n      DUP3 \t\t\twills[\n      PUSH [tag] 165\t\t\tet\");\\n        require(wills[u\n      JUMP \t\t\tet\");\\n        require(wills[u\n    tag 266\t\t\tet\");\\n        require(wills[u\n      JUMPDEST \t\t\tet\");\\n        require(wills[u\n      SWAP1 \t\t\tecuted yet\");\\n        require...\n      POP \t\t\tecuted yet\");\\n        require...\n      PUSH 20\t\t\tor (\n      DUP2 \t\t\t    \n      ADD \t\t\t\\n        for (u\n      SWAP1 \t\t\tract\");\\n\\n        for (u\n      POP \t\t\tract\");\\n\\n        for (u\n      SWAP2 \t\t\t**\\n     * @dev Executes a wil...\n      SWAP1 \t\t\t**\\n     * @dev Executes a wil...\n      POP \t\t\t**\\n     * @dev Executes a wil...\n      JUMP \t\t\t**\\n     * @dev Executes a wil...\n    tag 170\t\t\t< wills[user].beneficiaries.le...\n      JUMPDEST \t\t\t< wills[user].beneficiaries.le...\n      DUP3 \t\t\t wills\n      DUP2 \t\t\tked\n      DUP4 \t\t\talL\n      CALLDATACOPY \t\t\tlls[user].totalLocked * wills[\n      PUSH 0\t\t\t \n      DUP4 \t\t\trcenta\n      DUP4 \t\t\ti].\n      ADD \t\t\ties[i].percentag\n      MSTORE \t\t\teficiaries[i].percentage) /\n      POP \t\t\t< wills[user].beneficiaries.le...\n      POP \t\t\t< wills[user].beneficiaries.le...\n      POP \t\t\t< wills[user].beneficiaries.le...\n      JUMP \t\t\t< wills[user].beneficiaries.le...\n    tag 171\t\t\t     wills[user].beneficiaries...\n      JUMPDEST \t\t\t     wills[user].beneficiaries...\n      PUSH 0\t\t\twills\n      PUSH [tag] 269\t\t\t 0; // Clear locked funds afte...\n      PUSH [tag] 270\t\t\tked funds after execution\\n   ...\n      DUP5 \t\t\t    * \n      PUSH [tag] 169\t\t\tked funds after execution\\n   ...\n      JUMP \t\t\tked funds after execution\\n   ...\n    tag 270\t\t\tked funds after execution\\n   ...\n      JUMPDEST \t\t\tked funds after execution\\n   ...\n      PUSH [tag] 168\t\t\t 0; // Clear locked funds afte...\n      JUMP \t\t\t 0; // Clear locked funds afte...\n    tag 269\t\t\t 0; // Clear locked funds afte...\n      JUMPDEST \t\t\t 0; // Clear locked funds afte...\n      SWAP1 \t\t\tlLocked = 0; // Clear locked f...\n      POP \t\t\tlLocked = 0; // Clear locked f...\n      DUP3 \t\t\totariz\n      DUP2 \t\t\tser's\n      MSTORE \t\t\tves a user's notarize\n      PUSH 20\t\t\tunct\n      DUP2 \t\t\t/\\n   \n      ADD \t\t\t   */\\n    functi\n      DUP5 \t\t\t pu\n      DUP5 \t\t\tess us\n      DUP5 \t\t\t(ad\n      ADD \t\t\tWill(address use\n      GT \t\t\tzedWill(address user) pub\n      ISZERO \t\t\tarizedWill(address user) publi...\n      PUSH [tag] 271\t\t\tarizedWill(address user) publi...\n      JUMPI \t\t\tarizedWill(address user) publi...\n      PUSH [tag] 272\t\t\t view returns (string memory) ...\n      PUSH [tag] 164\t\t\t view returns (string memory) ...\n      JUMP \t\t\t view returns (string memory) ...\n    tag 272\t\t\t view returns (string memory) ...\n      JUMPDEST \t\t\t view returns (string memory) ...\n    tag 271\t\t\tarizedWill(address user) publi...\n      JUMPDEST \t\t\tarizedWill(address user) publi...\n      PUSH [tag] 273\t\t\trequire(wills[user].isDeceased...\n      DUP5 \t\t\teen ex\n      DUP3 \t\t\tnot\n      DUP6 \t\t\t ha\n      PUSH [tag] 170\t\t\trequire(wills[user].isDeceased...\n      JUMP \t\t\trequire(wills[user].isDeceased...\n    tag 273\t\t\trequire(wills[user].isDeceased...\n      JUMPDEST \t\t\trequire(wills[user].isDeceased...\n      POP \t\t\tuser].totalLocked = 0; // Clea...\n      SWAP4 \t\t\t     wills[user].beneficiaries...\n      SWAP3 \t\t\t     wills[user].beneficiaries...\n      POP \t\t\t     wills[user].beneficiaries...\n      POP \t\t\t     wills[user].beneficiaries...\n      POP \t\t\t     wills[user].beneficiaries...\n      JUMP \t\t\t     wills[user].beneficiaries...\n    tag 172\t\t\tn wills[user].notarizedWillIpf...\n      JUMPDEST \t\t\tn wills[user].notarizedWillIpf...\n      PUSH 0\t\t\t * @d\n      DUP3 \t\t\ted \n      PUSH 1F\t\t\t ass\n      DUP4 \t\t\ticiary\n      ADD \t\t\teneficiary's assi\n      SLT \t\t\tic beneficiary's assigned s\n      PUSH [tag] 275\t\t\ts a specific beneficiary's ass...\n      JUMPI \t\t\ts a specific beneficiary's ass...\n      PUSH [tag] 276\t\t\tdeed.\\n     */\\n    function g...\n      PUSH [tag] 163\t\t\tdeed.\\n     */\\n    function g...\n      JUMP \t\t\tdeed.\\n     */\\n    function g...\n    tag 276\t\t\tdeed.\\n     */\\n    function g...\n      JUMPDEST \t\t\tdeed.\\n     */\\n    function g...\n    tag 275\t\t\ts a specific beneficiary's ass...\n      JUMPDEST \t\t\ts a specific beneficiary's ass...\n      DUP2 \t\t\t    re\n      CALLDATALOAD \t\t\temory) {\\n        req\n      PUSH [tag] 277\t\t\t, \"No will found!\");\\n        ...\n      DUP5 \t\t\tbee\n      DUP3 \t\t\thas no\n      PUSH 20\t\t\t \"Wi\n      DUP7 \t\t\tecease\n      ADD \t\t\t.isDeceased, \"Wil\n      PUSH [tag] 171\t\t\t, \"No will found!\");\\n        ...\n      JUMP \t\t\t, \"No will found!\");\\n        ...\n    tag 277\t\t\t, \"No will found!\");\\n        ...\n      JUMPDEST \t\t\t, \"No will found!\");\\n        ...\n      SWAP2 \t\t\till[user], \"No will found!\");\\...\n      POP \t\t\till[user], \"No will found!\");\\...\n      POP \t\t\tv Retrieves a specific benefic...\n      SWAP3 \t\t\tn wills[user].notarizedWillIpf...\n      SWAP2 \t\t\tn wills[user].notarizedWillIpf...\n      POP \t\t\tn wills[user].notarizedWillIpf...\n      POP \t\t\tn wills[user].notarizedWillIpf...\n      JUMP \t\t\tn wills[user].notarizedWillIpf...\n    tag 27\t\t\tt\");\\n\\n        for (uint i = ...\n      JUMPDEST \t\t\tt\");\\n\\n        for (uint i = ...\n      PUSH 0\t\t\tls[use\n      DUP1 \t\t\t.benef\n      PUSH 0\t\t\tiaries\n      PUSH 60\t\t\t  \n      DUP5 \t\t\t         \n      DUP7 \t\t\tiary) {\n      SUB \t\t\teficiary) {\\n           \n      SLT \t\t\t_beneficiary) {\\n             ...\n      ISZERO \t\t\t== _beneficiary) {\\n          ...\n      PUSH [tag] 279\t\t\t== _beneficiary) {\\n          ...\n      JUMPI \t\t\t== _beneficiary) {\\n          ...\n      PUSH [tag] 280\t\t\turn wills[user].beneficiaries[...\n      PUSH [tag] 149\t\t\turn wills[user].beneficiaries[...\n      JUMP \t\t\turn wills[user].beneficiaries[...\n    tag 280\t\t\turn wills[user].beneficiaries[...\n      JUMPDEST \t\t\turn wills[user].beneficiaries[...\n    tag 279\t\t\t== _beneficiary) {\\n          ...\n      JUMPDEST \t\t\t== _beneficiary) {\\n          ...\n      PUSH 0\t\t\t}\n      PUSH [tag] 281\t\t\t\n      DUP7 \t\t\t\n      DUP3 \t\t\t\n      DUP8 \t\t\t\n      ADD \t\t\t\n      PUSH [tag] 159\t\t\t\n      JUMP \t\t\t\n    tag 281\t\t\t\n      JUMPDEST \t\t\t\n      SWAP4 \t\t\t\n      POP \t\t\t\n      POP \t\t\tBeneficiary not found\");\\n    ...\n      PUSH 20\t\t\t\n      PUSH [tag] 282\t\t\t\n      DUP7 \t\t\t\n      DUP3 \t\t\t\n      DUP8 \t\t\t\n      ADD \t\t\t\n      PUSH [tag] 162\t\t\t\n      JUMP \t\t\t\n    tag 282\t\t\t\n      JUMPDEST \t\t\t\n      SWAP3 \t\t\t\n      POP \t\t\t\n      POP \t\t\t\n      PUSH 40\t\t\t\n      DUP5 \t\t\t\n      ADD \t\t\t\n      CALLDATALOAD \t\t\t\n      PUSH FFFFFFFFFFFFFFFF\t\t\t\n      DUP2 \t\t\t\n      GT \t\t\t\n      ISZERO \t\t\t\n      PUSH [tag] 283\t\t\t\n      JUMPI \t\t\t\n      PUSH [tag] 284\t\t\t\n      PUSH [tag] 150\t\t\t\n      JUMP \t\t\t\n    tag 284\t\t\t\n      JUMPDEST \t\t\t\n    tag 283\t\t\t\n      JUMPDEST \t\t\t\n      PUSH [tag] 285\t\t\t\n      DUP7 \t\t\t\n      DUP3 \t\t\t\n      DUP8 \t\t\t\n      ADD \t\t\t\n      PUSH [tag] 172\t\t\t\n      JUMP \t\t\t\n    tag 285\t\t\t\n      JUMPDEST \t\t\t\n      SWAP2 \t\t\t\n      POP \t\t\t\n      POP \t\t\t\n      SWAP3 \t\t\tt\");\\n\\n        for (uint i = ...\n      POP \t\t\tt\");\\n\\n        for (uint i = ...\n      SWAP3 \t\t\tt\");\\n\\n        for (uint i = ...\n      POP \t\t\tt\");\\n\\n        for (uint i = ...\n      SWAP3 \t\t\tt\");\\n\\n        for (uint i = ...\n      JUMP \t\t\tt\");\\n\\n        for (uint i = ...\n    tag 32\t\t\t\n      JUMPDEST \t\t\t\n      PUSH 0\t\t\t\n      DUP1 \t\t\t\n      PUSH 40\t\t\t\n      DUP4 \t\t\t\n      DUP6 \t\t\t\n      SUB \t\t\t\n      SLT \t\t\t\n      ISZERO \t\t\t\n      PUSH [tag] 287\t\t\t\n      JUMPI \t\t\t\n      PUSH [tag] 288\t\t\t\n      PUSH [tag] 149\t\t\t\n      JUMP \t\t\t\n    tag 288\t\t\t\n      JUMPDEST \t\t\t\n    tag 287\t\t\t\n      JUMPDEST \t\t\t\n      PUSH 0\t\t\t\n      PUSH [tag] 289\t\t\t\n      DUP6 \t\t\t\n      DUP3 \t\t\t\n      DUP7 \t\t\t\n      ADD \t\t\t\n      PUSH [tag] 154\t\t\t\n      JUMP \t\t\t\n    tag 289\t\t\t\n      JUMPDEST \t\t\t\n      SWAP3 \t\t\t\n      POP \t\t\t\n      POP \t\t\t\n      PUSH 20\t\t\t\n      PUSH [tag] 290\t\t\t\n      DUP6 \t\t\t\n      DUP3 \t\t\t\n      DUP7 \t\t\t\n      ADD \t\t\t\n      PUSH [tag] 154\t\t\t\n      JUMP \t\t\t\n    tag 290\t\t\t\n      JUMPDEST \t\t\t\n      SWAP2 \t\t\t\n      POP \t\t\t\n      POP \t\t\t\n      SWAP3 \t\t\t\n      POP \t\t\t\n      SWAP3 \t\t\t\n      SWAP1 \t\t\t\n      POP \t\t\t\n      JUMP \t\t\t\n    tag 173\t\t\t\n      JUMPDEST \t\t\t\n      PUSH 0\t\t\t\n      DUP2 \t\t\t\n      MLOAD \t\t\t\n      SWAP1 \t\t\t\n      POP \t\t\t\n      SWAP2 \t\t\t\n      SWAP1 \t\t\t\n      POP \t\t\t\n      JUMP \t\t\t\n    tag 174\t\t\t\n      JUMPDEST \t\t\t\n      PUSH 0\t\t\t\n      DUP3 \t\t\t\n      DUP3 \t\t\t\n      MSTORE \t\t\t\n      PUSH 20\t\t\t\n      DUP3 \t\t\t\n      ADD \t\t\t\n      SWAP1 \t\t\t\n      POP \t\t\t\n      SWAP3 \t\t\t\n      SWAP2 \t\t\t\n      POP \t\t\t\n      POP \t\t\t\n      JUMP \t\t\t\n    tag 175\t\t\t\n      JUMPDEST \t\t\t\n      DUP3 \t\t\t\n      DUP2 \t\t\t\n      DUP4 \t\t\t\n      MCOPY \t\t\t\n      PUSH 0\t\t\t\n      DUP4 \t\t\t\n      DUP4 \t\t\t\n      ADD \t\t\t\n      MSTORE \t\t\t\n      POP \t\t\t\n      POP \t\t\t\n      POP \t\t\t\n      JUMP \t\t\t\n    tag 176\t\t\t\n      JUMPDEST \t\t\t\n      PUSH 0\t\t\t\n      PUSH [tag] 295\t\t\t\n      DUP3 \t\t\t\n      PUSH [tag] 173\t\t\t\n      JUMP \t\t\t\n    tag 295\t\t\t\n      JUMPDEST \t\t\t\n      PUSH [tag] 296\t\t\t\n      DUP2 \t\t\t\n      DUP6 \t\t\t\n      PUSH [tag] 174\t\t\t\n      JUMP \t\t\t\n    tag 296\t\t\t\n      JUMPDEST \t\t\t\n      SWAP4 \t\t\t\n      POP \t\t\t\n      PUSH [tag] 297\t\t\t\n      DUP2 \t\t\t\n      DUP6 \t\t\t\n      PUSH 20\t\t\t\n      DUP7 \t\t\t\n      ADD \t\t\t\n      PUSH [tag] 175\t\t\t\n      JUMP \t\t\t\n    tag 297\t\t\t\n      JUMPDEST \t\t\t\n      PUSH [tag] 298\t\t\t\n      DUP2 \t\t\t\n      PUSH [tag] 165\t\t\t\n      JUMP \t\t\t\n    tag 298\t\t\t\n      JUMPDEST \t\t\t\n      DUP5 \t\t\t\n      ADD \t\t\t\n      SWAP2 \t\t\t\n      POP \t\t\t\n      POP \t\t\t\n      SWAP3 \t\t\t\n      SWAP2 \t\t\t\n      POP \t\t\t\n      POP \t\t\t\n      JUMP \t\t\t\n    tag 35\t\t\t\n      JUMPDEST \t\t\t\n      PUSH 0\t\t\t\n      PUSH 20\t\t\t\n      DUP3 \t\t\t\n      ADD \t\t\t\n      SWAP1 \t\t\t\n      POP \t\t\t\n      DUP2 \t\t\t\n      DUP2 \t\t\t\n      SUB \t\t\t\n      PUSH 0\t\t\t\n      DUP4 \t\t\t\n      ADD \t\t\t\n      MSTORE \t\t\t\n      PUSH [tag] 300\t\t\t\n      DUP2 \t\t\t\n      DUP5 \t\t\t\n      PUSH [tag] 176\t\t\t\n      JUMP \t\t\t\n    tag 300\t\t\t\n      JUMPDEST \t\t\t\n      SWAP1 \t\t\t\n      POP \t\t\t\n      SWAP3 \t\t\t\n      SWAP2 \t\t\t\n      POP \t\t\t\n      POP \t\t\t\n      JUMP \t\t\t\n    tag 38\t\t\t\n      JUMPDEST \t\t\t\n      PUSH 0\t\t\t\n      DUP1 \t\t\t\n      PUSH 40\t\t\t\n      DUP4 \t\t\t\n      DUP6 \t\t\t\n      SUB \t\t\t\n      SLT \t\t\t\n      ISZERO \t\t\t\n      PUSH [tag] 302\t\t\t\n      JUMPI \t\t\t\n      PUSH [tag] 303\t\t\t\n      PUSH [tag] 149\t\t\t\n      JUMP \t\t\t\n    tag 303\t\t\t\n      JUMPDEST \t\t\t\n    tag 302\t\t\t\n      JUMPDEST \t\t\t\n      PUSH 0\t\t\t\n      PUSH [tag] 304\t\t\t\n      DUP6 \t\t\t\n      DUP3 \t\t\t\n      DUP7 \t\t\t\n      ADD \t\t\t\n      PUSH [tag] 162\t\t\t\n      JUMP \t\t\t\n    tag 304\t\t\t\n      JUMPDEST \t\t\t\n      SWAP3 \t\t\t\n      POP \t\t\t\n      POP \t\t\t\n      PUSH 20\t\t\t\n      DUP4 \t\t\t\n      ADD \t\t\t\n      CALLDATALOAD \t\t\t\n      PUSH FFFFFFFFFFFFFFFF\t\t\t\n      DUP2 \t\t\t\n      GT \t\t\t\n      ISZERO \t\t\t\n      PUSH [tag] 305\t\t\t\n      JUMPI \t\t\t\n      PUSH [tag] 306\t\t\t\n      PUSH [tag] 150\t\t\t\n      JUMP \t\t\t\n    tag 306\t\t\t\n      JUMPDEST \t\t\t\n    tag 305\t\t\t\n      JUMPDEST \t\t\t\n      PUSH [tag] 307\t\t\t\n      DUP6 \t\t\t\n      DUP3 \t\t\t\n      DUP7 \t\t\t\n      ADD \t\t\t\n      PUSH [tag] 172\t\t\t\n      JUMP \t\t\t\n    tag 307\t\t\t\n      JUMPDEST \t\t\t\n      SWAP2 \t\t\t\n      POP \t\t\t\n      POP \t\t\t\n      SWAP3 \t\t\t\n      POP \t\t\t\n      SWAP3 \t\t\t\n      SWAP1 \t\t\t\n      POP \t\t\t\n      JUMP \t\t\t\n    tag 177\t\t\t\n      JUMPDEST \t\t\t\n      PUSH 4E6F2077696C6C20666F756E6421000000000000000000000000000000000000\t\t\t\n      PUSH 0\t\t\t\n      DUP3 \t\t\t\n      ADD \t\t\t\n      MSTORE \t\t\t\n      POP \t\t\t\n      JUMP \t\t\t\n    tag 178\t\t\t\n      JUMPDEST \t\t\t\n      PUSH 0\t\t\t\n      PUSH [tag] 310\t\t\t\n      PUSH E\t\t\t\n      DUP4 \t\t\t\n      PUSH [tag] 174\t\t\t\n      JUMP \t\t\t\n    tag 310\t\t\t\n      JUMPDEST \t\t\t\n      SWAP2 \t\t\t\n      POP \t\t\t\n      PUSH [tag] 311\t\t\t\n      DUP3 \t\t\t\n      PUSH [tag] 177\t\t\t\n      JUMP \t\t\t\n    tag 311\t\t\t\n      JUMPDEST \t\t\t\n      PUSH 20\t\t\t\n      DUP3 \t\t\t\n      ADD \t\t\t\n      SWAP1 \t\t\t\n      POP \t\t\t\n      SWAP2 \t\t\t\n      SWAP1 \t\t\t\n      POP \t\t\t\n      JUMP \t\t\t\n    tag 48\t\t\t\n      JUMPDEST \t\t\t\n      PUSH 0\t\t\t\n      PUSH 20\t\t\t\n      DUP3 \t\t\t\n      ADD \t\t\t\n      SWAP1 \t\t\t\n      POP \t\t\t\n      DUP2 \t\t\t\n      DUP2 \t\t\t\n      SUB \t\t\t\n      PUSH 0\t\t\t\n      DUP4 \t\t\t\n      ADD \t\t\t\n      MSTORE \t\t\t\n      PUSH [tag] 313\t\t\t\n      DUP2 \t\t\t\n      PUSH [tag] 178\t\t\t\n      JUMP \t\t\t\n    tag 313\t\t\t\n      JUMPDEST \t\t\t\n      SWAP1 \t\t\t\n      POP \t\t\t\n      SWAP2 \t\t\t\n      SWAP1 \t\t\t\n      POP \t\t\t\n      JUMP \t\t\t\n    tag 179\t\t\t\n      JUMPDEST \t\t\t\n      PUSH 4E487B7100000000000000000000000000000000000000000000000000000000\t\t\t\n      PUSH 0\t\t\t\n      MSTORE \t\t\t\n      PUSH 11\t\t\t\n      PUSH 4\t\t\t\n      MSTORE \t\t\t\n      PUSH 24\t\t\t\n      PUSH 0\t\t\t\n      REVERT \t\t\t\n    tag 50\t\t\t\n      JUMPDEST \t\t\t\n      PUSH 0\t\t\t\n      PUSH [tag] 316\t\t\t\n      DUP3 \t\t\t\n      PUSH [tag] 160\t\t\t\n      JUMP \t\t\t\n    tag 316\t\t\t\n      JUMPDEST \t\t\t\n      SWAP2 \t\t\t\n      POP \t\t\t\n      PUSH [tag] 317\t\t\t\n      DUP4 \t\t\t\n      PUSH [tag] 160\t\t\t\n      JUMP \t\t\t\n    tag 317\t\t\t\n      JUMPDEST \t\t\t\n      SWAP3 \t\t\t\n      POP \t\t\t\n      DUP3 \t\t\t\n      DUP3 \t\t\t\n      ADD \t\t\t\n      SWAP1 \t\t\t\n      POP \t\t\t\n      DUP1 \t\t\t\n      DUP3 \t\t\t\n      GT \t\t\t\n      ISZERO \t\t\t\n      PUSH [tag] 318\t\t\t\n      JUMPI \t\t\t\n      PUSH [tag] 319\t\t\t\n      PUSH [tag] 179\t\t\t\n      JUMP \t\t\t\n    tag 319\t\t\t\n      JUMPDEST \t\t\t\n    tag 318\t\t\t\n      JUMPDEST \t\t\t\n      SWAP3 \t\t\t\n      SWAP2 \t\t\t\n      POP \t\t\t\n      POP \t\t\t\n      JUMP \t\t\t\n    tag 180\t\t\t\n      JUMPDEST \t\t\t\n      PUSH 4F776E6572206973207374696C6C20616C697665210000000000000000000000\t\t\t\n      PUSH 0\t\t\t\n      DUP3 \t\t\t\n      ADD \t\t\t\n      MSTORE \t\t\t\n      POP \t\t\t\n      JUMP \t\t\t\n    tag 181\t\t\t\n      JUMPDEST \t\t\t\n      PUSH 0\t\t\t\n      PUSH [tag] 322\t\t\t\n      PUSH 15\t\t\t\n      DUP4 \t\t\t\n      PUSH [tag] 174\t\t\t\n      JUMP \t\t\t\n    tag 322\t\t\t\n      JUMPDEST \t\t\t\n      SWAP2 \t\t\t\n      POP \t\t\t\n      PUSH [tag] 323\t\t\t\n      DUP3 \t\t\t\n      PUSH [tag] 180\t\t\t\n      JUMP \t\t\t\n    tag 323\t\t\t\n      JUMPDEST \t\t\t\n      PUSH 20\t\t\t\n      DUP3 \t\t\t\n      ADD \t\t\t\n      SWAP1 \t\t\t\n      POP \t\t\t\n      SWAP2 \t\t\t\n      SWAP1 \t\t\t\n      POP \t\t\t\n      JUMP \t\t\t\n    tag 53\t\t\t\n      JUMPDEST \t\t\t\n      PUSH 0\t\t\t\n      PUSH 20\t\t\t\n      DUP3 \t\t\t\n      ADD \t\t\t\n      SWAP1 \t\t\t\n      POP \t\t\t\n      DUP2 \t\t\t\n      DUP2 \t\t\t\n      SUB \t\t\t\n      PUSH 0\t\t\t\n      DUP4 \t\t\t\n      ADD \t\t\t\n      MSTORE \t\t\t\n      PUSH [tag] 325\t\t\t\n      DUP2 \t\t\t\n      PUSH [tag] 181\t\t\t\n      JUMP \t\t\t\n    tag 325\t\t\t\n      JUMPDEST \t\t\t\n      SWAP1 \t\t\t\n      POP \t\t\t\n      SWAP2 \t\t\t\n      SWAP1 \t\t\t\n      POP \t\t\t\n      JUMP \t\t\t\n    tag 182\t\t\t\n      JUMPDEST \t\t\t\n      PUSH 596F75206E65656420746F2063726561746520612077696C6C20666972737400\t\t\t\n      PUSH 0\t\t\t\n      DUP3 \t\t\t\n      ADD \t\t\t\n      MSTORE \t\t\t\n      POP \t\t\t\n      JUMP \t\t\t\n    tag 183\t\t\t\n      JUMPDEST \t\t\t\n      PUSH 0\t\t\t\n      PUSH [tag] 328\t\t\t\n      PUSH 1F\t\t\t\n      DUP4 \t\t\t\n      PUSH [tag] 174\t\t\t\n      JUMP \t\t\t\n    tag 328\t\t\t\n      JUMPDEST \t\t\t\n      SWAP2 \t\t\t\n      POP \t\t\t\n      PUSH [tag] 329\t\t\t\n      DUP3 \t\t\t\n      PUSH [tag] 182\t\t\t\n      JUMP \t\t\t\n    tag 329\t\t\t\n      JUMPDEST \t\t\t\n      PUSH 20\t\t\t\n      DUP3 \t\t\t\n      ADD \t\t\t\n      SWAP1 \t\t\t\n      POP \t\t\t\n      SWAP2 \t\t\t\n      SWAP1 \t\t\t\n      POP \t\t\t\n      JUMP \t\t\t\n    tag 62\t\t\t\n      JUMPDEST \t\t\t\n      PUSH 0\t\t\t\n      PUSH 20\t\t\t\n      DUP3 \t\t\t\n      ADD \t\t\t\n      SWAP1 \t\t\t\n      POP \t\t\t\n      DUP2 \t\t\t\n      DUP2 \t\t\t\n      SUB \t\t\t\n      PUSH 0\t\t\t\n      DUP4 \t\t\t\n      ADD \t\t\t\n      MSTORE \t\t\t\n      PUSH [tag] 331\t\t\t\n      DUP2 \t\t\t\n      PUSH [tag] 183\t\t\t\n      JUMP \t\t\t\n    tag 331\t\t\t\n      JUMPDEST \t\t\t\n      SWAP1 \t\t\t\n      POP \t\t\t\n      SWAP2 \t\t\t\n      SWAP1 \t\t\t\n      POP \t\t\t\n      JUMP \t\t\t\n    tag 184\t\t\t\n      JUMPDEST \t\t\t\n      PUSH 496E76616C69642070657263656E746167650000000000000000000000000000\t\t\t\n      PUSH 0\t\t\t\n      DUP3 \t\t\t\n      ADD \t\t\t\n      MSTORE \t\t\t\n      POP \t\t\t\n      JUMP \t\t\t\n    tag 185\t\t\t\n      JUMPDEST \t\t\t\n      PUSH 0\t\t\t\n      PUSH [tag] 334\t\t\t\n      PUSH 12\t\t\t\n      DUP4 \t\t\t\n      PUSH [tag] 174\t\t\t\n      JUMP \t\t\t\n    tag 334\t\t\t\n      JUMPDEST \t\t\t\n      SWAP2 \t\t\t\n      POP \t\t\t\n      PUSH [tag] 335\t\t\t\n      DUP3 \t\t\t\n      PUSH [tag] 184\t\t\t\n      JUMP \t\t\t\n    tag 335\t\t\t\n      JUMPDEST \t\t\t\n      PUSH 20\t\t\t\n      DUP3 \t\t\t\n      ADD \t\t\t\n      SWAP1 \t\t\t\n      POP \t\t\t\n      SWAP2 \t\t\t\n      SWAP1 \t\t\t\n      POP \t\t\t\n      JUMP \t\t\t\n    tag 66\t\t\t\n      JUMPDEST \t\t\t\n      PUSH 0\t\t\t\n      PUSH 20\t\t\t\n      DUP3 \t\t\t\n      ADD \t\t\t\n      SWAP1 \t\t\t\n      POP \t\t\t\n      DUP2 \t\t\t\n      DUP2 \t\t\t\n      SUB \t\t\t\n      PUSH 0\t\t\t\n      DUP4 \t\t\t\n      ADD \t\t\t\n      MSTORE \t\t\t\n      PUSH [tag] 337\t\t\t\n      DUP2 \t\t\t\n      PUSH [tag] 185\t\t\t\n      JUMP \t\t\t\n    tag 337\t\t\t\n      JUMPDEST \t\t\t\n      SWAP1 \t\t\t\n      POP \t\t\t\n      SWAP2 \t\t\t\n      SWAP1 \t\t\t\n      POP \t\t\t\n      JUMP \t\t\t\n    tag 72\t\t\t\n      JUMPDEST \t\t\t\n      PUSH 4E487B7100000000000000000000000000000000000000000000000000000000\t\t\t\n      PUSH 0\t\t\t\n      MSTORE \t\t\t\n      PUSH 32\t\t\t\n      PUSH 4\t\t\t\n      MSTORE \t\t\t\n      PUSH 24\t\t\t\n      PUSH 0\t\t\t\n      REVERT \t\t\t\n    tag 186\t\t\t\n      JUMPDEST \t\t\t\n      PUSH 546F74616C20616C6C6F636174696F6E20657863656564732031303025000000\t\t\t\n      PUSH 0\t\t\t\n      DUP3 \t\t\t\n      ADD \t\t\t\n      MSTORE \t\t\t\n      POP \t\t\t\n      JUMP \t\t\t\n    tag 187\t\t\t\n      JUMPDEST \t\t\t\n      PUSH 0\t\t\t\n      PUSH [tag] 341\t\t\t\n      PUSH 1D\t\t\t\n      DUP4 \t\t\t\n      PUSH [tag] 174\t\t\t\n      JUMP \t\t\t\n    tag 341\t\t\t\n      JUMPDEST \t\t\t\n      SWAP2 \t\t\t\n      POP \t\t\t\n      PUSH [tag] 342\t\t\t\n      DUP3 \t\t\t\n      PUSH [tag] 186\t\t\t\n      JUMP \t\t\t\n    tag 342\t\t\t\n      JUMPDEST \t\t\t\n      PUSH 20\t\t\t\n      DUP3 \t\t\t\n      ADD \t\t\t\n      SWAP1 \t\t\t\n      POP \t\t\t\n      SWAP2 \t\t\t\n      SWAP1 \t\t\t\n      POP \t\t\t\n      JUMP \t\t\t\n    tag 78\t\t\t\n      JUMPDEST \t\t\t\n      PUSH 0\t\t\t\n      PUSH 20\t\t\t\n      DUP3 \t\t\t\n      ADD \t\t\t\n      SWAP1 \t\t\t\n      POP \t\t\t\n      DUP2 \t\t\t\n      DUP2 \t\t\t\n      SUB \t\t\t\n      PUSH 0\t\t\t\n      DUP4 \t\t\t\n      ADD \t\t\t\n      MSTORE \t\t\t\n      PUSH [tag] 344\t\t\t\n      DUP2 \t\t\t\n      PUSH [tag] 187\t\t\t\n      JUMP \t\t\t\n    tag 344\t\t\t\n      JUMPDEST \t\t\t\n      SWAP1 \t\t\t\n      POP \t\t\t\n      SWAP2 \t\t\t\n      SWAP1 \t\t\t\n      POP \t\t\t\n      JUMP \t\t\t\n    tag 188\t\t\t\n      JUMPDEST \t\t\t\n      PUSH 4E487B7100000000000000000000000000000000000000000000000000000000\t\t\t\n      PUSH 0\t\t\t\n      MSTORE \t\t\t\n      PUSH 22\t\t\t\n      PUSH 4\t\t\t\n      MSTORE \t\t\t\n      PUSH 24\t\t\t\n      PUSH 0\t\t\t\n      REVERT \t\t\t\n    tag 99\t\t\t\n      JUMPDEST \t\t\t\n      PUSH 0\t\t\t\n      PUSH 2\t\t\t\n      DUP3 \t\t\t\n      DIV \t\t\t\n      SWAP1 \t\t\t\n      POP \t\t\t\n      PUSH 1\t\t\t\n      DUP3 \t\t\t\n      AND \t\t\t\n      DUP1 \t\t\t\n      PUSH [tag] 347\t\t\t\n      JUMPI \t\t\t\n      PUSH 7F\t\t\t\n      DUP3 \t\t\t\n      AND \t\t\t\n      SWAP2 \t\t\t\n      POP \t\t\t\n    tag 347\t\t\t\n      JUMPDEST \t\t\t\n      PUSH 20\t\t\t\n      DUP3 \t\t\t\n      LT \t\t\t\n      DUP2 \t\t\t\n      SUB \t\t\t\n      PUSH [tag] 348\t\t\t\n      JUMPI \t\t\t\n      PUSH [tag] 349\t\t\t\n      PUSH [tag] 188\t\t\t\n      JUMP \t\t\t\n    tag 349\t\t\t\n      JUMPDEST \t\t\t\n    tag 348\t\t\t\n      JUMPDEST \t\t\t\n      POP \t\t\t\n      SWAP2 \t\t\t\n      SWAP1 \t\t\t\n      POP \t\t\t\n      JUMP \t\t\t\n    tag 189\t\t\t\n      JUMPDEST \t\t\t\n      PUSH 0\t\t\t\n      DUP2 \t\t\t\n      SWAP1 \t\t\t\n      POP \t\t\t\n      DUP2 \t\t\t\n      PUSH 0\t\t\t\n      MSTORE \t\t\t\n      PUSH 20\t\t\t\n      PUSH 0\t\t\t\n      KECCAK256 \t\t\t\n      SWAP1 \t\t\t\n      POP \t\t\t\n      SWAP2 \t\t\t\n      SWAP1 \t\t\t\n      POP \t\t\t\n      JUMP \t\t\t\n    tag 190\t\t\t\n      JUMPDEST \t\t\t\n      PUSH 0\t\t\t\n      PUSH 20\t\t\t\n      PUSH 1F\t\t\t\n      DUP4 \t\t\t\n      ADD \t\t\t\n      DIV \t\t\t\n      SWAP1 \t\t\t\n      POP \t\t\t\n      SWAP2 \t\t\t\n      SWAP1 \t\t\t\n      POP \t\t\t\n      JUMP \t\t\t\n    tag 191\t\t\t\n      JUMPDEST \t\t\t\n      PUSH 0\t\t\t\n      DUP3 \t\t\t\n      DUP3 \t\t\t\n      SHL \t\t\t\n      SWAP1 \t\t\t\n      POP \t\t\t\n      SWAP3 \t\t\t\n      SWAP2 \t\t\t\n      POP \t\t\t\n      POP \t\t\t\n      JUMP \t\t\t\n    tag 192\t\t\t\n      JUMPDEST \t\t\t\n      PUSH 0\t\t\t\n      PUSH 8\t\t\t\n      DUP4 \t\t\t\n      MUL \t\t\t\n      PUSH [tag] 354\t\t\t\n      PUSH FFFFFFFFFFFFFFFFFFFFFFFFFFFFFFFFFFFFFFFFFFFFFFFFFFFFFFFFFFFFFFFF\t\t\t\n      DUP3 \t\t\t\n      PUSH [tag] 191\t\t\t\n      JUMP \t\t\t\n    tag 354\t\t\t\n      JUMPDEST \t\t\t\n      PUSH [tag] 355\t\t\t\n      DUP7 \t\t\t\n      DUP4 \t\t\t\n      PUSH [tag] 191\t\t\t\n      JUMP \t\t\t\n    tag 355\t\t\t\n      JUMPDEST \t\t\t\n      SWAP6 \t\t\t\n      POP \t\t\t\n      DUP1 \t\t\t\n      NOT \t\t\t\n      DUP5 \t\t\t\n      AND \t\t\t\n      SWAP4 \t\t\t\n      POP \t\t\t\n      DUP1 \t\t\t\n      DUP7 \t\t\t\n      AND \t\t\t\n      DUP5 \t\t\t\n      OR \t\t\t\n      SWAP3 \t\t\t\n      POP \t\t\t\n      POP \t\t\t\n      POP \t\t\t\n      SWAP4 \t\t\t\n      SWAP3 \t\t\t\n      POP \t\t\t\n      POP \t\t\t\n      POP \t\t\t\n      JUMP \t\t\t\n    tag 193\t\t\t\n      JUMPDEST \t\t\t\n      PUSH 0\t\t\t\n      DUP2 \t\t\t\n      SWAP1 \t\t\t\n      POP \t\t\t\n      SWAP2 \t\t\t\n      SWAP1 \t\t\t\n      POP \t\t\t\n      JUMP \t\t\t\n    tag 194\t\t\t\n      JUMPDEST \t\t\t\n      PUSH 0\t\t\t\n      PUSH [tag] 358\t\t\t\n      PUSH [tag] 359\t\t\t\n      PUSH [tag] 360\t\t\t\n      DUP5 \t\t\t\n      PUSH [tag] 160\t\t\t\n      JUMP \t\t\t\n    tag 360\t\t\t\n      JUMPDEST \t\t\t\n      PUSH [tag] 193\t\t\t\n      JUMP \t\t\t\n    tag 359\t\t\t\n      JUMPDEST \t\t\t\n      PUSH [tag] 160\t\t\t\n      JUMP \t\t\t\n    tag 358\t\t\t\n      JUMPDEST \t\t\t\n      SWAP1 \t\t\t\n      POP \t\t\t\n      SWAP2 \t\t\t\n      SWAP1 \t\t\t\n      POP \t\t\t\n      JUMP \t\t\t\n    tag 195\t\t\t\n      JUMPDEST \t\t\t\n      PUSH 0\t\t\t\n      DUP2 \t\t\t\n      SWAP1 \t\t\t\n      POP \t\t\t\n      SWAP2 \t\t\t\n      SWAP1 \t\t\t\n      POP \t\t\t\n      JUMP \t\t\t\n    tag 196\t\t\t\n      JUMPDEST \t\t\t\n      PUSH [tag] 363\t\t\t\n      DUP4 \t\t\t\n      PUSH [tag] 194\t\t\t\n      JUMP \t\t\t\n    tag 363\t\t\t\n      JUMPDEST \t\t\t\n      PUSH [tag] 364\t\t\t\n      PUSH [tag] 365\t\t\t\n      DUP3 \t\t\t\n      PUSH [tag] 195\t\t\t\n      JUMP \t\t\t\n    tag 365\t\t\t\n      JUMPDEST \t\t\t\n      DUP5 \t\t\t\n      DUP5 \t\t\t\n      SLOAD \t\t\t\n      PUSH [tag] 192\t\t\t\n      JUMP \t\t\t\n    tag 364\t\t\t\n      JUMPDEST \t\t\t\n      DUP3 \t\t\t\n      SSTORE \t\t\t\n      POP \t\t\t\n      POP \t\t\t\n      POP \t\t\t\n      POP \t\t\t\n      JUMP \t\t\t\n    tag 197\t\t\t\n      JUMPDEST \t\t\t\n      PUSH 0\t\t\t\n      SWAP1 \t\t\t\n      JUMP \t\t\t\n    tag 198\t\t\t\n      JUMPDEST \t\t\t\n      PUSH [tag] 368\t\t\t\n      PUSH [tag] 197\t\t\t\n      JUMP \t\t\t\n    tag 368\t\t\t\n      JUMPDEST \t\t\t\n      PUSH [tag] 369\t\t\t\n      DUP2 \t\t\t\n      DUP5 \t\t\t\n      DUP5 \t\t\t\n      PUSH [tag] 196\t\t\t\n      JUMP \t\t\t\n    tag 369\t\t\t\n      JUMPDEST \t\t\t\n      POP \t\t\t\n      POP \t\t\t\n      POP \t\t\t\n      JUMP \t\t\t\n    tag 199\t\t\t\n      JUMPDEST \t\t\t\n    tag 371\t\t\t\n      JUMPDEST \t\t\t\n      DUP2 \t\t\t\n      DUP2 \t\t\t\n      LT \t\t\t\n      ISZERO \t\t\t\n      PUSH [tag] 373\t\t\t\n      JUMPI \t\t\t\n      PUSH [tag] 374\t\t\t\n      PUSH 0\t\t\t\n      DUP3 \t\t\t\n      PUSH [tag] 198\t\t\t\n      JUMP \t\t\t\n    tag 374\t\t\t\n      JUMPDEST \t\t\t\n      PUSH 1\t\t\t\n      DUP2 \t\t\t\n      ADD \t\t\t\n      SWAP1 \t\t\t\n      POP \t\t\t\n      PUSH [tag] 371\t\t\t\n      JUMP \t\t\t\n    tag 373\t\t\t\n      JUMPDEST \t\t\t\n      POP \t\t\t\n      POP \t\t\t\n      JUMP \t\t\t\n    tag 200\t\t\t\n      JUMPDEST \t\t\t\n      PUSH 1F\t\t\t\n      DUP3 \t\t\t\n      GT \t\t\t\n      ISZERO \t\t\t\n      PUSH [tag] 376\t\t\t\n      JUMPI \t\t\t\n      PUSH [tag] 377\t\t\t\n      DUP2 \t\t\t\n      PUSH [tag] 189\t\t\t\n      JUMP \t\t\t\n    tag 377\t\t\t\n      JUMPDEST \t\t\t\n      PUSH [tag] 378\t\t\t\n      DUP5 \t\t\t\n      PUSH [tag] 190\t\t\t\n      JUMP \t\t\t\n    tag 378\t\t\t\n      JUMPDEST \t\t\t\n      DUP2 \t\t\t\n      ADD \t\t\t\n      PUSH 20\t\t\t\n      DUP6 \t\t\t\n      LT \t\t\t\n      ISZERO \t\t\t\n      PUSH [tag] 379\t\t\t\n      JUMPI \t\t\t\n      DUP2 \t\t\t\n      SWAP1 \t\t\t\n      POP \t\t\t\n    tag 379\t\t\t\n      JUMPDEST \t\t\t\n      PUSH [tag] 380\t\t\t\n      PUSH [tag] 381\t\t\t\n      DUP6 \t\t\t\n      PUSH [tag] 190\t\t\t\n      JUMP \t\t\t\n    tag 381\t\t\t\n      JUMPDEST \t\t\t\n      DUP4 \t\t\t\n      ADD \t\t\t\n      DUP3 \t\t\t\n      PUSH [tag] 199\t\t\t\n      JUMP \t\t\t\n    tag 380\t\t\t\n      JUMPDEST \t\t\t\n      POP \t\t\t\n      POP \t\t\t\n    tag 376\t\t\t\n      JUMPDEST \t\t\t\n      POP \t\t\t\n      POP \t\t\t\n      POP \t\t\t\n      JUMP \t\t\t\n    tag 201\t\t\t\n      JUMPDEST \t\t\t\n      PUSH 0\t\t\t\n      DUP3 \t\t\t\n      DUP3 \t\t\t\n      SHR \t\t\t\n      SWAP1 \t\t\t\n      POP \t\t\t\n      SWAP3 \t\t\t\n      SWAP2 \t\t\t\n      POP \t\t\t\n      POP \t\t\t\n      JUMP \t\t\t\n    tag 202\t\t\t\n      JUMPDEST \t\t\t\n      PUSH 0\t\t\t\n      PUSH [tag] 384\t\t\t\n      PUSH 0\t\t\t\n      NOT \t\t\t\n      DUP5 \t\t\t\n      PUSH 8\t\t\t\n      MUL \t\t\t\n      PUSH [tag] 201\t\t\t\n      JUMP \t\t\t\n    tag 384\t\t\t\n      JUMPDEST \t\t\t\n      NOT \t\t\t\n      DUP1 \t\t\t\n      DUP4 \t\t\t\n      AND \t\t\t\n      SWAP2 \t\t\t\n      POP \t\t\t\n      POP \t\t\t\n      SWAP3 \t\t\t\n      SWAP2 \t\t\t\n      POP \t\t\t\n      POP \t\t\t\n      JUMP \t\t\t\n    tag 203\t\t\t\n      JUMPDEST \t\t\t\n      PUSH 0\t\t\t\n      PUSH [tag] 386\t\t\t\n      DUP4 \t\t\t\n      DUP4 \t\t\t\n      PUSH [tag] 202\t\t\t\n      JUMP \t\t\t\n    tag 386\t\t\t\n      JUMPDEST \t\t\t\n      SWAP2 \t\t\t\n      POP \t\t\t\n      DUP3 \t\t\t\n      PUSH 2\t\t\t\n      MUL \t\t\t\n      DUP3 \t\t\t\n      OR \t\t\t\n      SWAP1 \t\t\t\n      POP \t\t\t\n      SWAP3 \t\t\t\n      SWAP2 \t\t\t\n      POP \t\t\t\n      POP \t\t\t\n      JUMP \t\t\t\n    tag 81\t\t\t\n      JUMPDEST \t\t\t\n      PUSH [tag] 388\t\t\t\n      DUP3 \t\t\t\n      PUSH [tag] 173\t\t\t\n      JUMP \t\t\t\n    tag 388\t\t\t\n      JUMPDEST \t\t\t\n      PUSH FFFFFFFFFFFFFFFF\t\t\t\n      DUP2 \t\t\t\n      GT \t\t\t\n      ISZERO \t\t\t\n      PUSH [tag] 389\t\t\t\n      JUMPI \t\t\t\n      PUSH [tag] 390\t\t\t\n      PUSH [tag] 166\t\t\t\n      JUMP \t\t\t\n    tag 390\t\t\t\n      JUMPDEST \t\t\t\n    tag 389\t\t\t\n      JUMPDEST \t\t\t\n      PUSH [tag] 391\t\t\t\n      DUP3 \t\t\t\n      SLOAD \t\t\t\n      PUSH [tag] 99\t\t\t\n      JUMP \t\t\t\n    tag 391\t\t\t\n      JUMPDEST \t\t\t\n      PUSH [tag] 392\t\t\t\n      DUP3 \t\t\t\n      DUP3 \t\t\t\n      DUP6 \t\t\t\n      PUSH [tag] 200\t\t\t\n      JUMP \t\t\t\n    tag 392\t\t\t\n      JUMPDEST \t\t\t\n      PUSH 0\t\t\t\n      PUSH 20\t\t\t\n      SWAP1 \t\t\t\n      POP \t\t\t\n      PUSH 1F\t\t\t\n      DUP4 \t\t\t\n      GT \t\t\t\n      PUSH 1\t\t\t\n      DUP2 \t\t\t\n      EQ \t\t\t\n      PUSH [tag] 394\t\t\t\n      JUMPI \t\t\t\n      PUSH 0\t\t\t\n      DUP5 \t\t\t\n      ISZERO \t\t\t\n      PUSH [tag] 395\t\t\t\n      JUMPI \t\t\t\n      DUP3 \t\t\t\n      DUP8 \t\t\t\n      ADD \t\t\t\n      MLOAD \t\t\t\n      SWAP1 \t\t\t\n      POP \t\t\t\n    tag 395\t\t\t\n      JUMPDEST \t\t\t\n      PUSH [tag] 396\t\t\t\n      DUP6 \t\t\t\n      DUP3 \t\t\t\n      PUSH [tag] 203\t\t\t\n      JUMP \t\t\t\n    tag 396\t\t\t\n      JUMPDEST \t\t\t\n      DUP7 \t\t\t\n      SSTORE \t\t\t\n      POP \t\t\t\n      PUSH [tag] 393\t\t\t\n      JUMP \t\t\t\n    tag 394\t\t\t\n      JUMPDEST \t\t\t\n      PUSH 1F\t\t\t\n      NOT \t\t\t\n      DUP5 \t\t\t\n      AND \t\t\t\n      PUSH [tag] 397\t\t\t\n      DUP7 \t\t\t\n      PUSH [tag] 189\t\t\t\n      JUMP \t\t\t\n    tag 397\t\t\t\n      JUMPDEST \t\t\t\n      PUSH 0\t\t\t\n    tag 398\t\t\t\n      JUMPDEST \t\t\t\n      DUP3 \t\t\t\n      DUP2 \t\t\t\n      LT \t\t\t\n      ISZERO \t\t\t\n      PUSH [tag] 400\t\t\t\n      JUMPI \t\t\t\n      DUP5 \t\t\t\n      DUP10 \t\t\t\n      ADD \t\t\t\n      MLOAD \t\t\t\n      DUP3 \t\t\t\n      SSTORE \t\t\t\n      PUSH 1\t\t\t\n      DUP3 \t\t\t\n      ADD \t\t\t\n      SWAP2 \t\t\t\n      POP \t\t\t\n      PUSH 20\t\t\t\n      DUP6 \t\t\t\n      ADD \t\t\t\n      SWAP5 \t\t\t\n      POP \t\t\t\n      PUSH 20\t\t\t\n      DUP2 \t\t\t\n      ADD \t\t\t\n      SWAP1 \t\t\t\n      POP \t\t\t\n      PUSH [tag] 398\t\t\t\n      JUMP \t\t\t\n    tag 400\t\t\t\n      JUMPDEST \t\t\t\n      DUP7 \t\t\t\n      DUP4 \t\t\t\n      LT \t\t\t\n      ISZERO \t\t\t\n      PUSH [tag] 401\t\t\t\n      JUMPI \t\t\t\n      DUP5 \t\t\t\n      DUP10 \t\t\t\n      ADD \t\t\t\n      MLOAD \t\t\t\n      PUSH [tag] 402\t\t\t\n      PUSH 1F\t\t\t\n      DUP10 \t\t\t\n      AND \t\t\t\n      DUP3 \t\t\t\n      PUSH [tag] 202\t\t\t\n      JUMP \t\t\t\n    tag 402\t\t\t\n      JUMPDEST \t\t\t\n      DUP4 \t\t\t\n      SSTORE \t\t\t\n      POP \t\t\t\n    tag 401\t\t\t\n      JUMPDEST \t\t\t\n      PUSH 1\t\t\t\n      PUSH 2\t\t\t\n      DUP9 \t\t\t\n      MUL \t\t\t\n      ADD \t\t\t\n      DUP9 \t\t\t\n      SSTORE \t\t\t\n      POP \t\t\t\n      POP \t\t\t\n      POP \t\t\t\n    tag 393\t\t\t\n      JUMPDEST \t\t\t\n      POP \t\t\t\n      POP \t\t\t\n      POP \t\t\t\n      POP \t\t\t\n      POP \t\t\t\n      POP \t\t\t\n      JUMP \t\t\t\n    tag 204\t\t\t\n      JUMPDEST \t\t\t\n      PUSH 57696C6C20686173206E6F74206265656E206578656375746564207965740000\t\t\t\n      PUSH 0\t\t\t\n      DUP3 \t\t\t\n      ADD \t\t\t\n      MSTORE \t\t\t\n      POP \t\t\t\n      JUMP \t\t\t\n    tag 205\t\t\t\n      JUMPDEST \t\t\t\n      PUSH 0\t\t\t\n      PUSH [tag] 405\t\t\t\n      PUSH 1E\t\t\t\n      DUP4 \t\t\t\n      PUSH [tag] 174\t\t\t\n      JUMP \t\t\t\n    tag 405\t\t\t\n      JUMPDEST \t\t\t\n      SWAP2 \t\t\t\n      POP \t\t\t\n      PUSH [tag] 406\t\t\t\n      DUP3 \t\t\t\n      PUSH [tag] 204\t\t\t\n      JUMP \t\t\t\n    tag 406\t\t\t\n      JUMPDEST \t\t\t\n      PUSH 20\t\t\t\n      DUP3 \t\t\t\n      ADD \t\t\t\n      SWAP1 \t\t\t\n      POP \t\t\t\n      SWAP2 \t\t\t\n      SWAP1 \t\t\t\n      POP \t\t\t\n      JUMP \t\t\t\n    tag 87\t\t\t\n      JUMPDEST \t\t\t\n      PUSH 0\t\t\t\n      PUSH 20\t\t\t\n      DUP3 \t\t\t\n      ADD \t\t\t\n      SWAP1 \t\t\t\n      POP \t\t\t\n      DUP2 \t\t\t\n      DUP2 \t\t\t\n      SUB \t\t\t\n      PUSH 0\t\t\t\n      DUP4 \t\t\t\n      ADD \t\t\t\n      MSTORE \t\t\t\n      PUSH [tag] 408\t\t\t\n      DUP2 \t\t\t\n      PUSH [tag] 205\t\t\t\n      JUMP \t\t\t\n    tag 408\t\t\t\n      JUMPDEST \t\t\t\n      SWAP1 \t\t\t\n      POP \t\t\t\n      SWAP2 \t\t\t\n      SWAP1 \t\t\t\n      POP \t\t\t\n      JUMP \t\t\t\n    tag 206\t\t\t\n      JUMPDEST \t\t\t\n      PUSH 42656E6566696369617279206E6F7420666F756E640000000000000000000000\t\t\t\n      PUSH 0\t\t\t\n      DUP3 \t\t\t\n      ADD \t\t\t\n      MSTORE \t\t\t\n      POP \t\t\t\n      JUMP \t\t\t\n    tag 207\t\t\t\n      JUMPDEST \t\t\t\n      PUSH 0\t\t\t\n      PUSH [tag] 411\t\t\t\n      PUSH 15\t\t\t\n      DUP4 \t\t\t\n      PUSH [tag] 174\t\t\t\n      JUMP \t\t\t\n    tag 411\t\t\t\n      JUMPDEST \t\t\t\n      SWAP2 \t\t\t\n      POP \t\t\t\n      PUSH [tag] 412\t\t\t\n      DUP3 \t\t\t\n      PUSH [tag] 206\t\t\t\n      JUMP \t\t\t\n    tag 412\t\t\t\n      JUMPDEST \t\t\t\n      PUSH 20\t\t\t\n      DUP3 \t\t\t\n      ADD \t\t\t\n      SWAP1 \t\t\t\n      POP \t\t\t\n      SWAP2 \t\t\t\n      SWAP1 \t\t\t\n      POP \t\t\t\n      JUMP \t\t\t\n    tag 105\t\t\t\n      JUMPDEST \t\t\t\n      PUSH 0\t\t\t\n      PUSH 20\t\t\t\n      DUP3 \t\t\t\n      ADD \t\t\t\n      SWAP1 \t\t\t\n      POP \t\t\t\n      DUP2 \t\t\t\n      DUP2 \t\t\t\n      SUB \t\t\t\n      PUSH 0\t\t\t\n      DUP4 \t\t\t\n      ADD \t\t\t\n      MSTORE \t\t\t\n      PUSH [tag] 414\t\t\t\n      DUP2 \t\t\t\n      PUSH [tag] 207\t\t\t\n      JUMP \t\t\t\n    tag 414\t\t\t\n      JUMPDEST \t\t\t\n      SWAP1 \t\t\t\n      POP \t\t\t\n      SWAP2 \t\t\t\n      SWAP1 \t\t\t\n      POP \t\t\t\n      JUMP \t\t\t\n    tag 208\t\t\t\n      JUMPDEST \t\t\t\n      PUSH 596F7520616C7265616479206861766520612077696C6C210000000000000000\t\t\t\n      PUSH 0\t\t\t\n      DUP3 \t\t\t\n      ADD \t\t\t\n      MSTORE \t\t\t\n      POP \t\t\t\n      JUMP \t\t\t\n    tag 209\t\t\t\n      JUMPDEST \t\t\t\n      PUSH 0\t\t\t\n      PUSH [tag] 417\t\t\t\n      PUSH 18\t\t\t\n      DUP4 \t\t\t\n      PUSH [tag] 174\t\t\t\n      JUMP \t\t\t\n    tag 417\t\t\t\n      JUMPDEST \t\t\t\n      SWAP2 \t\t\t\n      POP \t\t\t\n      PUSH [tag] 418\t\t\t\n      DUP3 \t\t\t\n      PUSH [tag] 208\t\t\t\n      JUMP \t\t\t\n    tag 418\t\t\t\n      JUMPDEST \t\t\t\n      PUSH 20\t\t\t\n      DUP3 \t\t\t\n      ADD \t\t\t\n      SWAP1 \t\t\t\n      POP \t\t\t\n      SWAP2 \t\t\t\n      SWAP1 \t\t\t\n      POP \t\t\t\n      JUMP \t\t\t\n    tag 109\t\t\t\n      JUMPDEST \t\t\t\n      PUSH 0\t\t\t\n      PUSH 20\t\t\t\n      DUP3 \t\t\t\n      ADD \t\t\t\n      SWAP1 \t\t\t\n      POP \t\t\t\n      DUP2 \t\t\t\n      DUP2 \t\t\t\n      SUB \t\t\t\n      PUSH 0\t\t\t\n      DUP4 \t\t\t\n      ADD \t\t\t\n      MSTORE \t\t\t\n      PUSH [tag] 420\t\t\t\n      DUP2 \t\t\t\n      PUSH [tag] 209\t\t\t\n      JUMP \t\t\t\n    tag 420\t\t\t\n      JUMPDEST \t\t\t\n      SWAP1 \t\t\t\n      POP \t\t\t\n      SWAP2 \t\t\t\n      SWAP1 \t\t\t\n      POP \t\t\t\n      JUMP \t\t\t\n    tag 210\t\t\t\n      JUMPDEST \t\t\t\n      PUSH 4D757374206C6F636B2045544821000000000000000000000000000000000000\t\t\t\n      PUSH 0\t\t\t\n      DUP3 \t\t\t\n      ADD \t\t\t\n      MSTORE \t\t\t\n      POP \t\t\t\n      JUMP \t\t\t\n    tag 211\t\t\t\n      JUMPDEST \t\t\t\n      PUSH 0\t\t\t\n      PUSH [tag] 423\t\t\t\n      PUSH E\t\t\t\n      DUP4 \t\t\t\n      PUSH [tag] 174\t\t\t\n      JUMP \t\t\t\n    tag 423\t\t\t\n      JUMPDEST \t\t\t\n      SWAP2 \t\t\t\n      POP \t\t\t\n      PUSH [tag] 424\t\t\t\n      DUP3 \t\t\t\n      PUSH [tag] 210\t\t\t\n      JUMP \t\t\t\n    tag 424\t\t\t\n      JUMPDEST \t\t\t\n      PUSH 20\t\t\t\n      DUP3 \t\t\t\n      ADD \t\t\t\n      SWAP1 \t\t\t\n      POP \t\t\t\n      SWAP2 \t\t\t\n      SWAP1 \t\t\t\n      POP \t\t\t\n      JUMP \t\t\t\n    tag 112\t\t\t\n      JUMPDEST \t\t\t\n      PUSH 0\t\t\t\n      PUSH 20\t\t\t\n      DUP3 \t\t\t\n      ADD \t\t\t\n      SWAP1 \t\t\t\n      POP \t\t\t\n      DUP2 \t\t\t\n      DUP2 \t\t\t\n      SUB \t\t\t\n      PUSH 0\t\t\t\n      DUP4 \t\t\t\n      ADD \t\t\t\n      MSTORE \t\t\t\n      PUSH [tag] 426\t\t\t\n      DUP2 \t\t\t\n      PUSH [tag] 211\t\t\t\n      JUMP \t\t\t\n    tag 426\t\t\t\n      JUMPDEST \t\t\t\n      SWAP1 \t\t\t\n      POP \t\t\t\n      SWAP2 \t\t\t\n      SWAP1 \t\t\t\n      POP \t\t\t\n      JUMP \t\t\t\n    tag 212\t\t\t\n      JUMPDEST \t\t\t\n      PUSH [tag] 428\t\t\t\n      DUP2 \t\t\t\n      PUSH [tag] 160\t\t\t\n      JUMP \t\t\t\n    tag 428\t\t\t\n      JUMPDEST \t\t\t\n      DUP3 \t\t\t\n      MSTORE \t\t\t\n      POP \t\t\t\n      POP \t\t\t\n      JUMP \t\t\t\n    tag 115\t\t\t\n      JUMPDEST \t\t\t\n      PUSH 0\t\t\t\n      PUSH 20\t\t\t\n      DUP3 \t\t\t\n      ADD \t\t\t\n      SWAP1 \t\t\t\n      POP \t\t\t\n      PUSH [tag] 430\t\t\t\n      PUSH 0\t\t\t\n      DUP4 \t\t\t\n      ADD \t\t\t\n      DUP5 \t\t\t\n      PUSH [tag] 212\t\t\t\n      JUMP \t\t\t\n    tag 430\t\t\t\n      JUMPDEST \t\t\t\n      SWAP3 \t\t\t\n      SWAP2 \t\t\t\n      POP \t\t\t\n      POP \t\t\t\n      JUMP \t\t\t\n    tag 213\t\t\t\n      JUMPDEST \t\t\t\n      PUSH 57696C6C206E6F74206578656375746564207965740000000000000000000000\t\t\t\n      PUSH 0\t\t\t\n      DUP3 \t\t\t\n      ADD \t\t\t\n      MSTORE \t\t\t\n      POP \t\t\t\n      JUMP \t\t\t\n    tag 214\t\t\t\n      JUMPDEST \t\t\t\n      PUSH 0\t\t\t\n      PUSH [tag] 433\t\t\t\n      PUSH 15\t\t\t\n      DUP4 \t\t\t\n      PUSH [tag] 174\t\t\t\n      JUMP \t\t\t\n    tag 433\t\t\t\n      JUMPDEST \t\t\t\n      SWAP2 \t\t\t\n      POP \t\t\t\n      PUSH [tag] 434\t\t\t\n      DUP3 \t\t\t\n      PUSH [tag] 213\t\t\t\n      JUMP \t\t\t\n    tag 434\t\t\t\n      JUMPDEST \t\t\t\n      PUSH 20\t\t\t\n      DUP3 \t\t\t\n      ADD \t\t\t\n      SWAP1 \t\t\t\n      POP \t\t\t\n      SWAP2 \t\t\t\n      SWAP1 \t\t\t\n      POP \t\t\t\n      JUMP \t\t\t\n    tag 129\t\t\t\n      JUMPDEST \t\t\t\n      PUSH 0\t\t\t\n      PUSH 20\t\t\t\n      DUP3 \t\t\t\n      ADD \t\t\t\n      SWAP1 \t\t\t\n      POP \t\t\t\n      DUP2 \t\t\t\n      DUP2 \t\t\t\n      SUB \t\t\t\n      PUSH 0\t\t\t\n      DUP4 \t\t\t\n      ADD \t\t\t\n      MSTORE \t\t\t\n      PUSH [tag] 436\t\t\t\n      DUP2 \t\t\t\n      PUSH [tag] 214\t\t\t\n      JUMP \t\t\t\n    tag 436\t\t\t\n      JUMPDEST \t\t\t\n      SWAP1 \t\t\t\n      POP \t\t\t\n      SWAP2 \t\t\t\n      SWAP1 \t\t\t\n      POP \t\t\t\n      JUMP \t\t\t\n    tag 215\t\t\t\n      JUMPDEST \t\t\t\n      PUSH 4E6F2045544820696E20636F6E74726163740000000000000000000000000000\t\t\t\n      PUSH 0\t\t\t\n      DUP3 \t\t\t\n      ADD \t\t\t\n      MSTORE \t\t\t\n      POP \t\t\t\n      JUMP \t\t\t\n    tag 216\t\t\t\n      JUMPDEST \t\t\t\n      PUSH 0\t\t\t\n      PUSH [tag] 439\t\t\t\n      PUSH 12\t\t\t\n      DUP4 \t\t\t\n      PUSH [tag] 174\t\t\t\n      JUMP \t\t\t\n    tag 439\t\t\t\n      JUMPDEST \t\t\t\n      SWAP2 \t\t\t\n      POP \t\t\t\n      PUSH [tag] 440\t\t\t\n      DUP3 \t\t\t\n      PUSH [tag] 215\t\t\t\n      JUMP \t\t\t\n    tag 440\t\t\t\n      JUMPDEST \t\t\t\n      PUSH 20\t\t\t\n      DUP3 \t\t\t\n      ADD \t\t\t\n      SWAP1 \t\t\t\n      POP \t\t\t\n      SWAP2 \t\t\t\n      SWAP1 \t\t\t\n      POP \t\t\t\n      JUMP \t\t\t\n    tag 132\t\t\t\n      JUMPDEST \t\t\t\n      PUSH 0\t\t\t\n      PUSH 20\t\t\t\n      DUP3 \t\t\t\n      ADD \t\t\t\n      SWAP1 \t\t\t\n      POP \t\t\t\n      DUP2 \t\t\t\n      DUP2 \t\t\t\n      SUB \t\t\t\n      PUSH 0\t\t\t\n      DUP4 \t\t\t\n      ADD \t\t\t\n      MSTORE \t\t\t\n      PUSH [tag] 442\t\t\t\n      DUP2 \t\t\t\n      PUSH [tag] 216\t\t\t\n      JUMP \t\t\t\n    tag 442\t\t\t\n      JUMPDEST \t\t\t\n      SWAP1 \t\t\t\n      POP \t\t\t\n      SWAP2 \t\t\t\n      SWAP1 \t\t\t\n      POP \t\t\t\n      JUMP \t\t\t\n    tag 140\t\t\t\n      JUMPDEST \t\t\t\n      PUSH 0\t\t\t\n      PUSH [tag] 444\t\t\t\n      DUP3 \t\t\t\n      PUSH [tag] 160\t\t\t\n      JUMP \t\t\t\n    tag 444\t\t\t\n      JUMPDEST \t\t\t\n      SWAP2 \t\t\t\n      POP \t\t\t\n      PUSH [tag] 445\t\t\t\n      DUP4 \t\t\t\n      PUSH [tag] 160\t\t\t\n      JUMP \t\t\t\n    tag 445\t\t\t\n      JUMPDEST \t\t\t\n      SWAP3 \t\t\t\n      POP \t\t\t\n      DUP3 \t\t\t\n      DUP3 \t\t\t\n      MUL \t\t\t\n      PUSH [tag] 446\t\t\t\n      DUP2 \t\t\t\n      PUSH [tag] 160\t\t\t\n      JUMP \t\t\t\n    tag 446\t\t\t\n      JUMPDEST \t\t\t\n      SWAP2 \t\t\t\n      POP \t\t\t\n      DUP3 \t\t\t\n      DUP3 \t\t\t\n      DIV \t\t\t\n      DUP5 \t\t\t\n      EQ \t\t\t\n      DUP4 \t\t\t\n      ISZERO \t\t\t\n      OR \t\t\t\n      PUSH [tag] 447\t\t\t\n      JUMPI \t\t\t\n      PUSH [tag] 448\t\t\t\n      PUSH [tag] 179\t\t\t\n      JUMP \t\t\t\n    tag 448\t\t\t\n      JUMPDEST \t\t\t\n    tag 447\t\t\t\n      JUMPDEST \t\t\t\n      POP \t\t\t\n      SWAP3 \t\t\t\n      SWAP2 \t\t\t\n      POP \t\t\t\n      POP \t\t\t\n      JUMP \t\t\t\n    tag 217\t\t\t\n      JUMPDEST \t\t\t\n      PUSH 4E487B7100000000000000000000000000000000000000000000000000000000\t\t\t\n      PUSH 0\t\t\t\n      MSTORE \t\t\t\n      PUSH 12\t\t\t\n      PUSH 4\t\t\t\n      MSTORE \t\t\t\n      PUSH 24\t\t\t\n      PUSH 0\t\t\t\n      REVERT \t\t\t\n    tag 142\t\t\t\n      JUMPDEST \t\t\t\n      PUSH 0\t\t\t\n      PUSH [tag] 451\t\t\t\n      DUP3 \t\t\t\n      PUSH [tag] 160\t\t\t\n      JUMP \t\t\t\n    tag 451\t\t\t\n      JUMPDEST \t\t\t\n      SWAP2 \t\t\t\n      POP \t\t\t\n      PUSH [tag] 452\t\t\t\n      DUP4 \t\t\t\n      PUSH [tag] 160\t\t\t\n      JUMP \t\t\t\n    tag 452\t\t\t\n      JUMPDEST \t\t\t\n      SWAP3 \t\t\t\n      POP \t\t\t\n      DUP3 \t\t\t\n      PUSH [tag] 453\t\t\t\n      JUMPI \t\t\t\n      PUSH [tag] 454\t\t\t\n      PUSH [tag] 217\t\t\t\n      JUMP \t\t\t\n    tag 454\t\t\t\n      JUMPDEST \t\t\t\n    tag 453\t\t\t\n      JUMPDEST \t\t\t\n      DUP3 \t\t\t\n      DUP3 \t\t\t\n      DIV \t\t\t\n      SWAP1 \t\t\t\n      POP \t\t\t\n      SWAP3 \t\t\t\n      SWAP2 \t\t\t\n      POP \t\t\t\n      POP \t\t\t\n      JUMP \t\t\t\n    .data\n"
}