{
	"compilerInput": "{\"language\":\"Solidity\",\"sources\":{\"MultiWillContract.sol\":{\"content\":\"// SPDX-License-Identifier: MIT\\npragma solidity ^0.8.19;\\n\\ncontract MultiWillContract {\\n    struct Beneficiary {\\n        address payable wallet;\\n        uint256 percentage;\\n        string saleDeedIpfsHash;\\n        string email;\\n    }\\n\\n    struct Will {\\n        address testator;\\n        string firstName;\\n        string lastName;\\n        uint256 totalLocked;\\n        uint256 lastAliveTime;\\n        uint256 proofOfLifeInterval;\\n        bool isDeceased;\\n        string transactionHash; // ✅ Store actual transaction hash\\n        Beneficiary[] beneficiaries;\\n    }\\n\\n    mapping(address => Will) private wills;\\n    mapping(address => bool) public hasWill;\\n\\n    event WillCreated(address indexed testator, uint256 lockedFunds, string transactionHash);\\n    event BeneficiaryAdded(address indexed testator, address beneficiary, uint256 percentage);\\n    event WillExecuted(address indexed testator);\\n    event FundsDisbursed(address indexed beneficiary, uint256 amount, string saleDeedIpfsHash, string email);\\n\\n    /**\\n     * @dev Creates a new will for the sender.\\n     * @param _firstName First name of the testator.\\n     * @param _lastName Last name of the testator.\\n     * @param _txnHash Transaction hash passed from the frontend.\\n     */\\n    function createWill(\\n        string memory _firstName,\\n        string memory _lastName,\\n        string memory _txnHash\\n    ) public payable {\\n        require(!hasWill[msg.sender], \\\"You already have a will!\\\");\\n        require(msg.value > 0, \\\"Must lock ETH!\\\");\\n\\n        // Store will details\\n        wills[msg.sender].testator = msg.sender;\\n        wills[msg.sender].firstName = _firstName;\\n        wills[msg.sender].lastName = _lastName;\\n        wills[msg.sender].totalLocked = msg.value;\\n        wills[msg.sender].lastAliveTime = block.timestamp;\\n        wills[msg.sender].proofOfLifeInterval = 365 days;\\n        wills[msg.sender].isDeceased = false;\\n        wills[msg.sender].transactionHash = _txnHash; // ✅ Store actual transaction hash\\n\\n        hasWill[msg.sender] = true;\\n\\n        emit WillCreated(msg.sender, msg.value, _txnHash);\\n    }\\n\\n    /**\\n     * @dev Adds a beneficiary to the caller's will.\\n     * @param _wallet Address of the beneficiary.\\n     * @param _percentage Share of ETH to be allocated.\\n     * @param _saleDeedIpfsHash IPFS hash of the sale deed document assigned to the beneficiary.\\n     * @param _email Email of the beneficiary.\\n     */\\n    function addBeneficiary(\\n        address payable _wallet,\\n        uint256 _percentage,\\n        string memory _saleDeedIpfsHash,\\n        string memory _email\\n    ) public {\\n        require(hasWill[msg.sender], \\\"You need to create a will first\\\");\\n        require(_wallet != address(0), \\\"Invalid wallet address\\\");\\n        require(_percentage > 0 && _percentage <= 100, \\\"Invalid percentage\\\");\\n\\n        uint256 totalPercentage = 0;\\n        for (uint i = 0; i < wills[msg.sender].beneficiaries.length; i++) {\\n            totalPercentage += wills[msg.sender].beneficiaries[i].percentage;\\n        }\\n        require(totalPercentage + _percentage <= 100, \\\"Total allocation exceeds 100%\\\");\\n\\n        wills[msg.sender].beneficiaries.push(\\n            Beneficiary(_wallet, _percentage, _saleDeedIpfsHash, _email)\\n        );\\n\\n        emit BeneficiaryAdded(msg.sender, _wallet, _percentage);\\n    }\\n\\n    /**\\n     * @dev Confirms the testator is alive.\\n     */\\n    function confirmAlive() public {\\n        require(hasWill[msg.sender], \\\"You have not created a will\\\");\\n        require(!wills[msg.sender].isDeceased, \\\"Will already executed!\\\");\\n\\n        wills[msg.sender].lastAliveTime = block.timestamp;\\n    }\\n\\n    /**\\n     * @dev Executes the will by distributing ETH and notifying beneficiaries.\\n     */\\n    function executeWill(address user) public {\\n        require(hasWill[user], \\\"No will found!\\\");\\n        require(block.timestamp > wills[user].lastAliveTime + wills[user].proofOfLifeInterval, \\\"Owner is still alive!\\\");\\n        require(!wills[user].isDeceased, \\\"Will already executed!\\\");\\n\\n        wills[user].isDeceased = true;\\n\\n        uint256 totalLocked = wills[user].totalLocked;\\n        require(totalLocked > 0, \\\"No ETH to distribute\\\");\\n\\n        for (uint i = 0; i < wills[user].beneficiaries.length; i++) {\\n            Beneficiary storage beneficiary = wills[user].beneficiaries[i];\\n\\n            uint256 amount = (totalLocked * beneficiary.percentage) / 100;\\n            beneficiary.wallet.transfer(amount);\\n\\n            emit FundsDisbursed(beneficiary.wallet, amount, beneficiary.saleDeedIpfsHash, beneficiary.email);\\n        }\\n\\n        wills[user].totalLocked = 0;\\n        emit WillExecuted(user);\\n    }\\n\\n    /**\\n     * @dev Retrieves the transaction hash of a user's will.\\n     */\\n    function getWillTransactionHash(address user) public view returns (string memory) {\\n        require(hasWill[user], \\\"No will found!\\\");\\n        return wills[user].transactionHash;\\n    }\\n\\n    /**\\n     * @dev Checks if the will has already been executed.\\n     */\\n    function isWillExecuted(address user) public view returns (bool) {\\n        require(hasWill[user], \\\"No will found!\\\");\\n        return wills[user].isDeceased;\\n    }\\n}\\n\"}},\"settings\":{\"optimizer\":{\"enabled\":false,\"runs\":200},\"outputSelection\":{\"*\":{\"\":[\"ast\"],\"*\":[\"abi\",\"metadata\",\"devdoc\",\"userdoc\",\"storageLayout\",\"evm.legacyAssembly\",\"evm.bytecode\",\"evm.deployedBytecode\",\"evm.methodIdentifiers\",\"evm.gasEstimates\",\"evm.assembly\"]}},\"remappings\":[]}}",
	"name": "MultiWillContract",
	"bytecode": {
		"linkReferences": {},
		"object": "6080604052348015600e575f80fd5b506120728061001c5f395ff3fe60806040526004361061006f575f3560e01c8063549cc7b81161004d578063549cc7b8146100f35780636f9b65f01461012f578063e7dda55514610145578063e854d135146101815761006f565b8063203be4fb14610073578063293afa9e146100af5780634ebde6d3146100cb575b5f80fd5b34801561007e575f80fd5b506100996004803603810190610094919061128e565b6101a9565b6040516100a69190611329565b60405180910390f35b6100c960048036038101906100c49190611475565b610301565b005b3480156100d6575f80fd5b506100f160048036038101906100ec9190611587565b6106ff565b005b3480156100fe575f80fd5b506101196004803603810190610114919061128e565b610acc565b604051610126919061163d565b60405180910390f35b34801561013a575f80fd5b50610143610ae9565b005b348015610150575f80fd5b5061016b6004803603810190610166919061128e565b610c44565b604051610178919061163d565b60405180910390f35b34801561018c575f80fd5b506101a760048036038101906101a2919061128e565b610d21565b005b606060015f8373ffffffffffffffffffffffffffffffffffffffff1673ffffffffffffffffffffffffffffffffffffffff1681526020019081526020015f205f9054906101000a900460ff16610234576040517f08c379a000000000000000000000000000000000000000000000000000000000815260040161022b906116a0565b60405180910390fd5b5f808373ffffffffffffffffffffffffffffffffffffffff1673ffffffffffffffffffffffffffffffffffffffff1681526020019081526020015f20600701805461027e906116eb565b80601f01602080910402602001604051908101604052809291908181526020018280546102aa906116eb565b80156102f55780601f106102cc576101008083540402835291602001916102f5565b820191905f5260205f20905b8154815290600101906020018083116102d857829003601f168201915b50505050509050919050565b60015f3373ffffffffffffffffffffffffffffffffffffffff1673ffffffffffffffffffffffffffffffffffffffff1681526020019081526020015f205f9054906101000a900460ff161561038b576040517f08c379a000000000000000000000000000000000000000000000000000000000815260040161038290611765565b60405180910390fd5b5f34116103cd576040517f08c379a00000000000000000000000000000000000000000000000000000000081526004016103c4906117cd565b60405180910390fd5b335f803373ffffffffffffffffffffffffffffffffffffffff1673ffffffffffffffffffffffffffffffffffffffff1681526020019081526020015f205f015f6101000a81548173ffffffffffffffffffffffffffffffffffffffff021916908373ffffffffffffffffffffffffffffffffffffffff160217905550825f803373ffffffffffffffffffffffffffffffffffffffff1673ffffffffffffffffffffffffffffffffffffffff1681526020019081526020015f2060010190816104959190611988565b50815f803373ffffffffffffffffffffffffffffffffffffffff1673ffffffffffffffffffffffffffffffffffffffff1681526020019081526020015f2060020190816104e29190611988565b50345f803373ffffffffffffffffffffffffffffffffffffffff1673ffffffffffffffffffffffffffffffffffffffff1681526020019081526020015f2060030181905550425f803373ffffffffffffffffffffffffffffffffffffffff1673ffffffffffffffffffffffffffffffffffffffff1681526020019081526020015f20600401819055506301e133805f803373ffffffffffffffffffffffffffffffffffffffff1673ffffffffffffffffffffffffffffffffffffffff1681526020019081526020015f20600501819055505f805f3373ffffffffffffffffffffffffffffffffffffffff1673ffffffffffffffffffffffffffffffffffffffff1681526020019081526020015f206006015f6101000a81548160ff021916908315150217905550805f803373ffffffffffffffffffffffffffffffffffffffff1673ffffffffffffffffffffffffffffffffffffffff1681526020019081526020015f2060070190816106559190611988565b506001805f3373ffffffffffffffffffffffffffffffffffffffff1673ffffffffffffffffffffffffffffffffffffffff1681526020019081526020015f205f6101000a81548160ff0219169083151502179055503373ffffffffffffffffffffffffffffffffffffffff167fca05e37fc67c80782e9fb53d79d942aabd6358450ac35ffb3fd610b48745e24c34836040516106f2929190611a66565b60405180910390a2505050565b60015f3373ffffffffffffffffffffffffffffffffffffffff1673ffffffffffffffffffffffffffffffffffffffff1681526020019081526020015f205f9054906101000a900460ff16610788576040517f08c379a000000000000000000000000000000000000000000000000000000000815260040161077f90611ade565b60405180910390fd5b5f73ffffffffffffffffffffffffffffffffffffffff168473ffffffffffffffffffffffffffffffffffffffff16036107f6576040517f08c379a00000000000000000000000000000000000000000000000000000000081526004016107ed90611b46565b60405180910390fd5b5f83118015610806575060648311155b610845576040517f08c379a000000000000000000000000000000000000000000000000000000000815260040161083c90611bae565b60405180910390fd5b5f805b5f803373ffffffffffffffffffffffffffffffffffffffff1673ffffffffffffffffffffffffffffffffffffffff1681526020019081526020015f206008018054905081101561090d575f803373ffffffffffffffffffffffffffffffffffffffff1673ffffffffffffffffffffffffffffffffffffffff1681526020019081526020015f2060080181815481106108e3576108e2611bcc565b5b905f5260205f20906004020160010154826108fe9190611c26565b91508080600101915050610848565b506064848261091c9190611c26565b111561095d576040517f08c379a000000000000000000000000000000000000000000000000000000000815260040161095490611ca3565b60405180910390fd5b5f803373ffffffffffffffffffffffffffffffffffffffff1673ffffffffffffffffffffffffffffffffffffffff1681526020019081526020015f2060080160405180608001604052808773ffffffffffffffffffffffffffffffffffffffff16815260200186815260200185815260200184815250908060018154018082558091505060019003905f5260205f2090600402015f909190919091505f820151815f015f6101000a81548173ffffffffffffffffffffffffffffffffffffffff021916908373ffffffffffffffffffffffffffffffffffffffff160217905550602082015181600101556040820151816002019081610a5c9190611988565b506060820151816003019081610a729190611988565b5050503373ffffffffffffffffffffffffffffffffffffffff167f5d081d791b64899adab031015397ef8d7600501212ef97573b9e50f8c9bb6d9b8686604051610abd929190611d13565b60405180910390a25050505050565b6001602052805f5260405f205f915054906101000a900460ff1681565b60015f3373ffffffffffffffffffffffffffffffffffffffff1673ffffffffffffffffffffffffffffffffffffffff1681526020019081526020015f205f9054906101000a900460ff16610b72576040517f08c379a0000000000000000000000000000000000000000000000000000000008152600401610b6990611d84565b60405180910390fd5b5f803373ffffffffffffffffffffffffffffffffffffffff1673ffffffffffffffffffffffffffffffffffffffff1681526020019081526020015f206006015f9054906101000a900460ff1615610bfe576040517f08c379a0000000000000000000000000000000000000000000000000000000008152600401610bf590611dec565b60405180910390fd5b425f803373ffffffffffffffffffffffffffffffffffffffff1673ffffffffffffffffffffffffffffffffffffffff1681526020019081526020015f2060040181905550565b5f60015f8373ffffffffffffffffffffffffffffffffffffffff1673ffffffffffffffffffffffffffffffffffffffff1681526020019081526020015f205f9054906101000a900460ff16610cce576040517f08c379a0000000000000000000000000000000000000000000000000000000008152600401610cc5906116a0565b60405180910390fd5b5f808373ffffffffffffffffffffffffffffffffffffffff1673ffffffffffffffffffffffffffffffffffffffff1681526020019081526020015f206006015f9054906101000a900460ff169050919050565b60015f8273ffffffffffffffffffffffffffffffffffffffff1673ffffffffffffffffffffffffffffffffffffffff1681526020019081526020015f205f9054906101000a900460ff16610daa576040517f08c379a0000000000000000000000000000000000000000000000000000000008152600401610da1906116a0565b60405180910390fd5b5f808273ffffffffffffffffffffffffffffffffffffffff1673ffffffffffffffffffffffffffffffffffffffff1681526020019081526020015f20600501545f808373ffffffffffffffffffffffffffffffffffffffff1673ffffffffffffffffffffffffffffffffffffffff1681526020019081526020015f2060040154610e349190611c26565b4211610e75576040517f08c379a0000000000000000000000000000000000000000000000000000000008152600401610e6c90611e54565b60405180910390fd5b5f808273ffffffffffffffffffffffffffffffffffffffff1673ffffffffffffffffffffffffffffffffffffffff1681526020019081526020015f206006015f9054906101000a900460ff1615610f01576040517f08c379a0000000000000000000000000000000000000000000000000000000008152600401610ef890611dec565b60405180910390fd5b60015f808373ffffffffffffffffffffffffffffffffffffffff1673ffffffffffffffffffffffffffffffffffffffff1681526020019081526020015f206006015f6101000a81548160ff0219169083151502179055505f805f8373ffffffffffffffffffffffffffffffffffffffff1673ffffffffffffffffffffffffffffffffffffffff1681526020019081526020015f206003015490505f8111610fdd576040517f08c379a0000000000000000000000000000000000000000000000000000000008152600401610fd490611ebc565b60405180910390fd5b5f5b5f808473ffffffffffffffffffffffffffffffffffffffff1673ffffffffffffffffffffffffffffffffffffffff1681526020019081526020015f2060080180549050811015611197575f805f8573ffffffffffffffffffffffffffffffffffffffff1673ffffffffffffffffffffffffffffffffffffffff1681526020019081526020015f20600801828154811061107b5761107a611bcc565b5b905f5260205f20906004020190505f606482600101548561109c9190611eda565b6110a69190611f48565b9050815f015f9054906101000a900473ffffffffffffffffffffffffffffffffffffffff1673ffffffffffffffffffffffffffffffffffffffff166108fc8290811502906040515f60405180830381858888f1935050505015801561110d573d5f803e3d5ffd5b50815f015f9054906101000a900473ffffffffffffffffffffffffffffffffffffffff1673ffffffffffffffffffffffffffffffffffffffff167fceb720b06c310edc215bee81670832bb918ba1199f401716364414ddb9b816a782846002018560030160405161118093929190611ff9565b60405180910390a250508080600101915050610fdf565b505f805f8473ffffffffffffffffffffffffffffffffffffffff1673ffffffffffffffffffffffffffffffffffffffff1681526020019081526020015f20600301819055508173ffffffffffffffffffffffffffffffffffffffff167f16346f65adf8d84422b57ad74cb5607bf6c9e55c3c1fea66344057e5bba8a7ee60405160405180910390a25050565b5f604051905090565b5f80fd5b5f80fd5b5f73ffffffffffffffffffffffffffffffffffffffff82169050919050565b5f61125d82611234565b9050919050565b61126d81611253565b8114611277575f80fd5b50565b5f8135905061128881611264565b92915050565b5f602082840312156112a3576112a261122c565b5b5f6112b08482850161127a565b91505092915050565b5f81519050919050565b5f82825260208201905092915050565b8281835e5f83830152505050565b5f601f19601f8301169050919050565b5f6112fb826112b9565b61130581856112c3565b93506113158185602086016112d3565b61131e816112e1565b840191505092915050565b5f6020820190508181035f83015261134181846112f1565b905092915050565b5f80fd5b5f80fd5b7f4e487b71000000000000000000000000000000000000000000000000000000005f52604160045260245ffd5b611387826112e1565b810181811067ffffffffffffffff821117156113a6576113a5611351565b5b80604052505050565b5f6113b8611223565b90506113c4828261137e565b919050565b5f67ffffffffffffffff8211156113e3576113e2611351565b5b6113ec826112e1565b9050602081019050919050565b828183375f83830152505050565b5f611419611414846113c9565b6113af565b9050828152602081018484840111156114355761143461134d565b5b6114408482856113f9565b509392505050565b5f82601f83011261145c5761145b611349565b5b813561146c848260208601611407565b91505092915050565b5f805f6060848603121561148c5761148b61122c565b5b5f84013567ffffffffffffffff8111156114a9576114a8611230565b5b6114b586828701611448565b935050602084013567ffffffffffffffff8111156114d6576114d5611230565b5b6114e286828701611448565b925050604084013567ffffffffffffffff81111561150357611502611230565b5b61150f86828701611448565b9150509250925092565b5f61152382611234565b9050919050565b61153381611519565b811461153d575f80fd5b50565b5f8135905061154e8161152a565b92915050565b5f819050919050565b61156681611554565b8114611570575f80fd5b50565b5f813590506115818161155d565b92915050565b5f805f806080858703121561159f5761159e61122c565b5b5f6115ac87828801611540565b94505060206115bd87828801611573565b935050604085013567ffffffffffffffff8111156115de576115dd611230565b5b6115ea87828801611448565b925050606085013567ffffffffffffffff81111561160b5761160a611230565b5b61161787828801611448565b91505092959194509250565b5f8115159050919050565b61163781611623565b82525050565b5f6020820190506116505f83018461162e565b92915050565b7f4e6f2077696c6c20666f756e64210000000000000000000000000000000000005f82015250565b5f61168a600e836112c3565b915061169582611656565b602082019050919050565b5f6020820190508181035f8301526116b78161167e565b9050919050565b7f4e487b71000000000000000000000000000000000000000000000000000000005f52602260045260245ffd5b5f600282049050600182168061170257607f821691505b602082108103611715576117146116be565b5b50919050565b7f596f7520616c7265616479206861766520612077696c6c2100000000000000005f82015250565b5f61174f6018836112c3565b915061175a8261171b565b602082019050919050565b5f6020820190508181035f83015261177c81611743565b9050919050565b7f4d757374206c6f636b20455448210000000000000000000000000000000000005f82015250565b5f6117b7600e836112c3565b91506117c282611783565b602082019050919050565b5f6020820190508181035f8301526117e4816117ab565b9050919050565b5f819050815f5260205f209050919050565b5f6020601f8301049050919050565b5f82821b905092915050565b5f600883026118477fffffffffffffffffffffffffffffffffffffffffffffffffffffffffffffffff8261180c565b611851868361180c565b95508019841693508086168417925050509392505050565b5f819050919050565b5f61188c61188761188284611554565b611869565b611554565b9050919050565b5f819050919050565b6118a583611872565b6118b96118b182611893565b848454611818565b825550505050565b5f90565b6118cd6118c1565b6118d881848461189c565b505050565b5b818110156118fb576118f05f826118c5565b6001810190506118de565b5050565b601f82111561194057611911816117eb565b61191a846117fd565b81016020851015611929578190505b61193d611935856117fd565b8301826118dd565b50505b505050565b5f82821c905092915050565b5f6119605f1984600802611945565b1980831691505092915050565b5f6119788383611951565b9150826002028217905092915050565b611991826112b9565b67ffffffffffffffff8111156119aa576119a9611351565b5b6119b482546116eb565b6119bf8282856118ff565b5f60209050601f8311600181146119f0575f84156119de578287015190505b6119e8858261196d565b865550611a4f565b601f1984166119fe866117eb565b5f5b82811015611a2557848901518255600182019150602085019450602081019050611a00565b86831015611a425784890151611a3e601f891682611951565b8355505b6001600288020188555050505b505050505050565b611a6081611554565b82525050565b5f604082019050611a795f830185611a57565b8181036020830152611a8b81846112f1565b90509392505050565b7f596f75206e65656420746f2063726561746520612077696c6c206669727374005f82015250565b5f611ac8601f836112c3565b9150611ad382611a94565b602082019050919050565b5f6020820190508181035f830152611af581611abc565b9050919050565b7f496e76616c69642077616c6c65742061646472657373000000000000000000005f82015250565b5f611b306016836112c3565b9150611b3b82611afc565b602082019050919050565b5f6020820190508181035f830152611b5d81611b24565b9050919050565b7f496e76616c69642070657263656e7461676500000000000000000000000000005f82015250565b5f611b986012836112c3565b9150611ba382611b64565b602082019050919050565b5f6020820190508181035f830152611bc581611b8c565b9050919050565b7f4e487b71000000000000000000000000000000000000000000000000000000005f52603260045260245ffd5b7f4e487b71000000000000000000000000000000000000000000000000000000005f52601160045260245ffd5b5f611c3082611554565b9150611c3b83611554565b9250828201905080821115611c5357611c52611bf9565b5b92915050565b7f546f74616c20616c6c6f636174696f6e206578636565647320313030250000005f82015250565b5f611c8d601d836112c3565b9150611c9882611c59565b602082019050919050565b5f6020820190508181035f830152611cba81611c81565b9050919050565b5f611cdb611cd6611cd184611234565b611869565b611234565b9050919050565b5f611cec82611cc1565b9050919050565b5f611cfd82611ce2565b9050919050565b611d0d81611cf3565b82525050565b5f604082019050611d265f830185611d04565b611d336020830184611a57565b9392505050565b7f596f752068617665206e6f74206372656174656420612077696c6c00000000005f82015250565b5f611d6e601b836112c3565b9150611d7982611d3a565b602082019050919050565b5f6020820190508181035f830152611d9b81611d62565b9050919050565b7f57696c6c20616c726561647920657865637574656421000000000000000000005f82015250565b5f611dd66016836112c3565b9150611de182611da2565b602082019050919050565b5f6020820190508181035f830152611e0381611dca565b9050919050565b7f4f776e6572206973207374696c6c20616c6976652100000000000000000000005f82015250565b5f611e3e6015836112c3565b9150611e4982611e0a565b602082019050919050565b5f6020820190508181035f830152611e6b81611e32565b9050919050565b7f4e6f2045544820746f20646973747269627574650000000000000000000000005f82015250565b5f611ea66014836112c3565b9150611eb182611e72565b602082019050919050565b5f6020820190508181035f830152611ed381611e9a565b9050919050565b5f611ee482611554565b9150611eef83611554565b9250828202611efd81611554565b91508282048414831517611f1457611f13611bf9565b5b5092915050565b7f4e487b71000000000000000000000000000000000000000000000000000000005f52601260045260245ffd5b5f611f5282611554565b9150611f5d83611554565b925082611f6d57611f6c611f1b565b5b828204905092915050565b5f8154611f84816116eb565b611f8e81866112c3565b9450600182165f8114611fa85760018114611fbe57611ff0565b60ff198316865281151560200286019350611ff0565b611fc7856117eb565b5f5b83811015611fe857815481890152600182019150602081019050611fc9565b808801955050505b50505092915050565b5f60608201905061200c5f830186611a57565b818103602083015261201e8185611f78565b905081810360408301526120328184611f78565b905094935050505056fea26469706673582212206707c7e3c89b7dae27a5eee9953152fc0db187dca4840c15a7b19d3b0782facd64736f6c634300081a0033",
		"opcodes": "PUSH1 0x80 PUSH1 0x40 MSTORE CALLVALUE DUP1 ISZERO PUSH1 0xE JUMPI PUSH0 DUP1 REVERT JUMPDEST POP PUSH2 0x2072 DUP1 PUSH2 0x1C PUSH0 CODECOPY PUSH0 RETURN INVALID PUSH1 0x80 PUSH1 0x40 MSTORE PUSH1 0x4 CALLDATASIZE LT PUSH2 0x6F JUMPI PUSH0 CALLDATALOAD PUSH1 0xE0 SHR DUP1 PUSH4 0x549CC7B8 GT PUSH2 0x4D JUMPI DUP1 PUSH4 0x549CC7B8 EQ PUSH2 0xF3 JUMPI DUP1 PUSH4 0x6F9B65F0 EQ PUSH2 0x12F JUMPI DUP1 PUSH4 0xE7DDA555 EQ PUSH2 0x145 JUMPI DUP1 PUSH4 0xE854D135 EQ PUSH2 0x181 JUMPI PUSH2 0x6F JUMP JUMPDEST DUP1 PUSH4 0x203BE4FB EQ PUSH2 0x73 JUMPI DUP1 PUSH4 0x293AFA9E EQ PUSH2 0xAF JUMPI DUP1 PUSH4 0x4EBDE6D3 EQ PUSH2 0xCB JUMPI JUMPDEST PUSH0 DUP1 REVERT JUMPDEST CALLVALUE DUP1 ISZERO PUSH2 0x7E JUMPI PUSH0 DUP1 REVERT JUMPDEST POP PUSH2 0x99 PUSH1 0x4 DUP1 CALLDATASIZE SUB DUP2 ADD SWAP1 PUSH2 0x94 SWAP2 SWAP1 PUSH2 0x128E JUMP JUMPDEST PUSH2 0x1A9 JUMP JUMPDEST PUSH1 0x40 MLOAD PUSH2 0xA6 SWAP2 SWAP1 PUSH2 0x1329 JUMP JUMPDEST PUSH1 0x40 MLOAD DUP1 SWAP2 SUB SWAP1 RETURN JUMPDEST PUSH2 0xC9 PUSH1 0x4 DUP1 CALLDATASIZE SUB DUP2 ADD SWAP1 PUSH2 0xC4 SWAP2 SWAP1 PUSH2 0x1475 JUMP JUMPDEST PUSH2 0x301 JUMP JUMPDEST STOP JUMPDEST CALLVALUE DUP1 ISZERO PUSH2 0xD6 JUMPI PUSH0 DUP1 REVERT JUMPDEST POP PUSH2 0xF1 PUSH1 0x4 DUP1 CALLDATASIZE SUB DUP2 ADD SWAP1 PUSH2 0xEC SWAP2 SWAP1 PUSH2 0x1587 JUMP JUMPDEST PUSH2 0x6FF JUMP JUMPDEST STOP JUMPDEST CALLVALUE DUP1 ISZERO PUSH2 0xFE JUMPI PUSH0 DUP1 REVERT JUMPDEST POP PUSH2 0x119 PUSH1 0x4 DUP1 CALLDATASIZE SUB DUP2 ADD SWAP1 PUSH2 0x114 SWAP2 SWAP1 PUSH2 0x128E JUMP JUMPDEST PUSH2 0xACC JUMP JUMPDEST PUSH1 0x40 MLOAD PUSH2 0x126 SWAP2 SWAP1 PUSH2 0x163D JUMP JUMPDEST PUSH1 0x40 MLOAD DUP1 SWAP2 SUB SWAP1 RETURN JUMPDEST CALLVALUE DUP1 ISZERO PUSH2 0x13A JUMPI PUSH0 DUP1 REVERT JUMPDEST POP PUSH2 0x143 PUSH2 0xAE9 JUMP JUMPDEST STOP JUMPDEST CALLVALUE DUP1 ISZERO PUSH2 0x150 JUMPI PUSH0 DUP1 REVERT JUMPDEST POP PUSH2 0x16B PUSH1 0x4 DUP1 CALLDATASIZE SUB DUP2 ADD SWAP1 PUSH2 0x166 SWAP2 SWAP1 PUSH2 0x128E JUMP JUMPDEST PUSH2 0xC44 JUMP JUMPDEST PUSH1 0x40 MLOAD PUSH2 0x178 SWAP2 SWAP1 PUSH2 0x163D JUMP JUMPDEST PUSH1 0x40 MLOAD DUP1 SWAP2 SUB SWAP1 RETURN JUMPDEST CALLVALUE DUP1 ISZERO PUSH2 0x18C JUMPI PUSH0 DUP1 REVERT JUMPDEST POP PUSH2 0x1A7 PUSH1 0x4 DUP1 CALLDATASIZE SUB DUP2 ADD SWAP1 PUSH2 0x1A2 SWAP2 SWAP1 PUSH2 0x128E JUMP JUMPDEST PUSH2 0xD21 JUMP JUMPDEST STOP JUMPDEST PUSH1 0x60 PUSH1 0x1 PUSH0 DUP4 PUSH20 0xFFFFFFFFFFFFFFFFFFFFFFFFFFFFFFFFFFFFFFFF AND PUSH20 0xFFFFFFFFFFFFFFFFFFFFFFFFFFFFFFFFFFFFFFFF AND DUP2 MSTORE PUSH1 0x20 ADD SWAP1 DUP2 MSTORE PUSH1 0x20 ADD PUSH0 KECCAK256 PUSH0 SWAP1 SLOAD SWAP1 PUSH2 0x100 EXP SWAP1 DIV PUSH1 0xFF AND PUSH2 0x234 JUMPI PUSH1 0x40 MLOAD PUSH32 0x8C379A000000000000000000000000000000000000000000000000000000000 DUP2 MSTORE PUSH1 0x4 ADD PUSH2 0x22B SWAP1 PUSH2 0x16A0 JUMP JUMPDEST PUSH1 0x40 MLOAD DUP1 SWAP2 SUB SWAP1 REVERT JUMPDEST PUSH0 DUP1 DUP4 PUSH20 0xFFFFFFFFFFFFFFFFFFFFFFFFFFFFFFFFFFFFFFFF AND PUSH20 0xFFFFFFFFFFFFFFFFFFFFFFFFFFFFFFFFFFFFFFFF AND DUP2 MSTORE PUSH1 0x20 ADD SWAP1 DUP2 MSTORE PUSH1 0x20 ADD PUSH0 KECCAK256 PUSH1 0x7 ADD DUP1 SLOAD PUSH2 0x27E SWAP1 PUSH2 0x16EB JUMP JUMPDEST DUP1 PUSH1 0x1F ADD PUSH1 0x20 DUP1 SWAP2 DIV MUL PUSH1 0x20 ADD PUSH1 0x40 MLOAD SWAP1 DUP2 ADD PUSH1 0x40 MSTORE DUP1 SWAP3 SWAP2 SWAP1 DUP2 DUP2 MSTORE PUSH1 0x20 ADD DUP3 DUP1 SLOAD PUSH2 0x2AA SWAP1 PUSH2 0x16EB JUMP JUMPDEST DUP1 ISZERO PUSH2 0x2F5 JUMPI DUP1 PUSH1 0x1F LT PUSH2 0x2CC JUMPI PUSH2 0x100 DUP1 DUP4 SLOAD DIV MUL DUP4 MSTORE SWAP2 PUSH1 0x20 ADD SWAP2 PUSH2 0x2F5 JUMP JUMPDEST DUP3 ADD SWAP2 SWAP1 PUSH0 MSTORE PUSH1 0x20 PUSH0 KECCAK256 SWAP1 JUMPDEST DUP2 SLOAD DUP2 MSTORE SWAP1 PUSH1 0x1 ADD SWAP1 PUSH1 0x20 ADD DUP1 DUP4 GT PUSH2 0x2D8 JUMPI DUP3 SWAP1 SUB PUSH1 0x1F AND DUP3 ADD SWAP2 JUMPDEST POP POP POP POP POP SWAP1 POP SWAP2 SWAP1 POP JUMP JUMPDEST PUSH1 0x1 PUSH0 CALLER PUSH20 0xFFFFFFFFFFFFFFFFFFFFFFFFFFFFFFFFFFFFFFFF AND PUSH20 0xFFFFFFFFFFFFFFFFFFFFFFFFFFFFFFFFFFFFFFFF AND DUP2 MSTORE PUSH1 0x20 ADD SWAP1 DUP2 MSTORE PUSH1 0x20 ADD PUSH0 KECCAK256 PUSH0 SWAP1 SLOAD SWAP1 PUSH2 0x100 EXP SWAP1 DIV PUSH1 0xFF AND ISZERO PUSH2 0x38B JUMPI PUSH1 0x40 MLOAD PUSH32 0x8C379A000000000000000000000000000000000000000000000000000000000 DUP2 MSTORE PUSH1 0x4 ADD PUSH2 0x382 SWAP1 PUSH2 0x1765 JUMP JUMPDEST PUSH1 0x40 MLOAD DUP1 SWAP2 SUB SWAP1 REVERT JUMPDEST PUSH0 CALLVALUE GT PUSH2 0x3CD JUMPI PUSH1 0x40 MLOAD PUSH32 0x8C379A000000000000000000000000000000000000000000000000000000000 DUP2 MSTORE PUSH1 0x4 ADD PUSH2 0x3C4 SWAP1 PUSH2 0x17CD JUMP JUMPDEST PUSH1 0x40 MLOAD DUP1 SWAP2 SUB SWAP1 REVERT JUMPDEST CALLER PUSH0 DUP1 CALLER PUSH20 0xFFFFFFFFFFFFFFFFFFFFFFFFFFFFFFFFFFFFFFFF AND PUSH20 0xFFFFFFFFFFFFFFFFFFFFFFFFFFFFFFFFFFFFFFFF AND DUP2 MSTORE PUSH1 0x20 ADD SWAP1 DUP2 MSTORE PUSH1 0x20 ADD PUSH0 KECCAK256 PUSH0 ADD PUSH0 PUSH2 0x100 EXP DUP2 SLOAD DUP2 PUSH20 0xFFFFFFFFFFFFFFFFFFFFFFFFFFFFFFFFFFFFFFFF MUL NOT AND SWAP1 DUP4 PUSH20 0xFFFFFFFFFFFFFFFFFFFFFFFFFFFFFFFFFFFFFFFF AND MUL OR SWAP1 SSTORE POP DUP3 PUSH0 DUP1 CALLER PUSH20 0xFFFFFFFFFFFFFFFFFFFFFFFFFFFFFFFFFFFFFFFF AND PUSH20 0xFFFFFFFFFFFFFFFFFFFFFFFFFFFFFFFFFFFFFFFF AND DUP2 MSTORE PUSH1 0x20 ADD SWAP1 DUP2 MSTORE PUSH1 0x20 ADD PUSH0 KECCAK256 PUSH1 0x1 ADD SWAP1 DUP2 PUSH2 0x495 SWAP2 SWAP1 PUSH2 0x1988 JUMP JUMPDEST POP DUP2 PUSH0 DUP1 CALLER PUSH20 0xFFFFFFFFFFFFFFFFFFFFFFFFFFFFFFFFFFFFFFFF AND PUSH20 0xFFFFFFFFFFFFFFFFFFFFFFFFFFFFFFFFFFFFFFFF AND DUP2 MSTORE PUSH1 0x20 ADD SWAP1 DUP2 MSTORE PUSH1 0x20 ADD PUSH0 KECCAK256 PUSH1 0x2 ADD SWAP1 DUP2 PUSH2 0x4E2 SWAP2 SWAP1 PUSH2 0x1988 JUMP JUMPDEST POP CALLVALUE PUSH0 DUP1 CALLER PUSH20 0xFFFFFFFFFFFFFFFFFFFFFFFFFFFFFFFFFFFFFFFF AND PUSH20 0xFFFFFFFFFFFFFFFFFFFFFFFFFFFFFFFFFFFFFFFF AND DUP2 MSTORE PUSH1 0x20 ADD SWAP1 DUP2 MSTORE PUSH1 0x20 ADD PUSH0 KECCAK256 PUSH1 0x3 ADD DUP2 SWAP1 SSTORE POP TIMESTAMP PUSH0 DUP1 CALLER PUSH20 0xFFFFFFFFFFFFFFFFFFFFFFFFFFFFFFFFFFFFFFFF AND PUSH20 0xFFFFFFFFFFFFFFFFFFFFFFFFFFFFFFFFFFFFFFFF AND DUP2 MSTORE PUSH1 0x20 ADD SWAP1 DUP2 MSTORE PUSH1 0x20 ADD PUSH0 KECCAK256 PUSH1 0x4 ADD DUP2 SWAP1 SSTORE POP PUSH4 0x1E13380 PUSH0 DUP1 CALLER PUSH20 0xFFFFFFFFFFFFFFFFFFFFFFFFFFFFFFFFFFFFFFFF AND PUSH20 0xFFFFFFFFFFFFFFFFFFFFFFFFFFFFFFFFFFFFFFFF AND DUP2 MSTORE PUSH1 0x20 ADD SWAP1 DUP2 MSTORE PUSH1 0x20 ADD PUSH0 KECCAK256 PUSH1 0x5 ADD DUP2 SWAP1 SSTORE POP PUSH0 DUP1 PUSH0 CALLER PUSH20 0xFFFFFFFFFFFFFFFFFFFFFFFFFFFFFFFFFFFFFFFF AND PUSH20 0xFFFFFFFFFFFFFFFFFFFFFFFFFFFFFFFFFFFFFFFF AND DUP2 MSTORE PUSH1 0x20 ADD SWAP1 DUP2 MSTORE PUSH1 0x20 ADD PUSH0 KECCAK256 PUSH1 0x6 ADD PUSH0 PUSH2 0x100 EXP DUP2 SLOAD DUP2 PUSH1 0xFF MUL NOT AND SWAP1 DUP4 ISZERO ISZERO MUL OR SWAP1 SSTORE POP DUP1 PUSH0 DUP1 CALLER PUSH20 0xFFFFFFFFFFFFFFFFFFFFFFFFFFFFFFFFFFFFFFFF AND PUSH20 0xFFFFFFFFFFFFFFFFFFFFFFFFFFFFFFFFFFFFFFFF AND DUP2 MSTORE PUSH1 0x20 ADD SWAP1 DUP2 MSTORE PUSH1 0x20 ADD PUSH0 KECCAK256 PUSH1 0x7 ADD SWAP1 DUP2 PUSH2 0x655 SWAP2 SWAP1 PUSH2 0x1988 JUMP JUMPDEST POP PUSH1 0x1 DUP1 PUSH0 CALLER PUSH20 0xFFFFFFFFFFFFFFFFFFFFFFFFFFFFFFFFFFFFFFFF AND PUSH20 0xFFFFFFFFFFFFFFFFFFFFFFFFFFFFFFFFFFFFFFFF AND DUP2 MSTORE PUSH1 0x20 ADD SWAP1 DUP2 MSTORE PUSH1 0x20 ADD PUSH0 KECCAK256 PUSH0 PUSH2 0x100 EXP DUP2 SLOAD DUP2 PUSH1 0xFF MUL NOT AND SWAP1 DUP4 ISZERO ISZERO MUL OR SWAP1 SSTORE POP CALLER PUSH20 0xFFFFFFFFFFFFFFFFFFFFFFFFFFFFFFFFFFFFFFFF AND PUSH32 0xCA05E37FC67C80782E9FB53D79D942AABD6358450AC35FFB3FD610B48745E24C CALLVALUE DUP4 PUSH1 0x40 MLOAD PUSH2 0x6F2 SWAP3 SWAP2 SWAP1 PUSH2 0x1A66 JUMP JUMPDEST PUSH1 0x40 MLOAD DUP1 SWAP2 SUB SWAP1 LOG2 POP POP POP JUMP JUMPDEST PUSH1 0x1 PUSH0 CALLER PUSH20 0xFFFFFFFFFFFFFFFFFFFFFFFFFFFFFFFFFFFFFFFF AND PUSH20 0xFFFFFFFFFFFFFFFFFFFFFFFFFFFFFFFFFFFFFFFF AND DUP2 MSTORE PUSH1 0x20 ADD SWAP1 DUP2 MSTORE PUSH1 0x20 ADD PUSH0 KECCAK256 PUSH0 SWAP1 SLOAD SWAP1 PUSH2 0x100 EXP SWAP1 DIV PUSH1 0xFF AND PUSH2 0x788 JUMPI PUSH1 0x40 MLOAD PUSH32 0x8C379A000000000000000000000000000000000000000000000000000000000 DUP2 MSTORE PUSH1 0x4 ADD PUSH2 0x77F SWAP1 PUSH2 0x1ADE JUMP JUMPDEST PUSH1 0x40 MLOAD DUP1 SWAP2 SUB SWAP1 REVERT JUMPDEST PUSH0 PUSH20 0xFFFFFFFFFFFFFFFFFFFFFFFFFFFFFFFFFFFFFFFF AND DUP5 PUSH20 0xFFFFFFFFFFFFFFFFFFFFFFFFFFFFFFFFFFFFFFFF AND SUB PUSH2 0x7F6 JUMPI PUSH1 0x40 MLOAD PUSH32 0x8C379A000000000000000000000000000000000000000000000000000000000 DUP2 MSTORE PUSH1 0x4 ADD PUSH2 0x7ED SWAP1 PUSH2 0x1B46 JUMP JUMPDEST PUSH1 0x40 MLOAD DUP1 SWAP2 SUB SWAP1 REVERT JUMPDEST PUSH0 DUP4 GT DUP1 ISZERO PUSH2 0x806 JUMPI POP PUSH1 0x64 DUP4 GT ISZERO JUMPDEST PUSH2 0x845 JUMPI PUSH1 0x40 MLOAD PUSH32 0x8C379A000000000000000000000000000000000000000000000000000000000 DUP2 MSTORE PUSH1 0x4 ADD PUSH2 0x83C SWAP1 PUSH2 0x1BAE JUMP JUMPDEST PUSH1 0x40 MLOAD DUP1 SWAP2 SUB SWAP1 REVERT JUMPDEST PUSH0 DUP1 JUMPDEST PUSH0 DUP1 CALLER PUSH20 0xFFFFFFFFFFFFFFFFFFFFFFFFFFFFFFFFFFFFFFFF AND PUSH20 0xFFFFFFFFFFFFFFFFFFFFFFFFFFFFFFFFFFFFFFFF AND DUP2 MSTORE PUSH1 0x20 ADD SWAP1 DUP2 MSTORE PUSH1 0x20 ADD PUSH0 KECCAK256 PUSH1 0x8 ADD DUP1 SLOAD SWAP1 POP DUP2 LT ISZERO PUSH2 0x90D JUMPI PUSH0 DUP1 CALLER PUSH20 0xFFFFFFFFFFFFFFFFFFFFFFFFFFFFFFFFFFFFFFFF AND PUSH20 0xFFFFFFFFFFFFFFFFFFFFFFFFFFFFFFFFFFFFFFFF AND DUP2 MSTORE PUSH1 0x20 ADD SWAP1 DUP2 MSTORE PUSH1 0x20 ADD PUSH0 KECCAK256 PUSH1 0x8 ADD DUP2 DUP2 SLOAD DUP2 LT PUSH2 0x8E3 JUMPI PUSH2 0x8E2 PUSH2 0x1BCC JUMP JUMPDEST JUMPDEST SWAP1 PUSH0 MSTORE PUSH1 0x20 PUSH0 KECCAK256 SWAP1 PUSH1 0x4 MUL ADD PUSH1 0x1 ADD SLOAD DUP3 PUSH2 0x8FE SWAP2 SWAP1 PUSH2 0x1C26 JUMP JUMPDEST SWAP2 POP DUP1 DUP1 PUSH1 0x1 ADD SWAP2 POP POP PUSH2 0x848 JUMP JUMPDEST POP PUSH1 0x64 DUP5 DUP3 PUSH2 0x91C SWAP2 SWAP1 PUSH2 0x1C26 JUMP JUMPDEST GT ISZERO PUSH2 0x95D JUMPI PUSH1 0x40 MLOAD PUSH32 0x8C379A000000000000000000000000000000000000000000000000000000000 DUP2 MSTORE PUSH1 0x4 ADD PUSH2 0x954 SWAP1 PUSH2 0x1CA3 JUMP JUMPDEST PUSH1 0x40 MLOAD DUP1 SWAP2 SUB SWAP1 REVERT JUMPDEST PUSH0 DUP1 CALLER PUSH20 0xFFFFFFFFFFFFFFFFFFFFFFFFFFFFFFFFFFFFFFFF AND PUSH20 0xFFFFFFFFFFFFFFFFFFFFFFFFFFFFFFFFFFFFFFFF AND DUP2 MSTORE PUSH1 0x20 ADD SWAP1 DUP2 MSTORE PUSH1 0x20 ADD PUSH0 KECCAK256 PUSH1 0x8 ADD PUSH1 0x40 MLOAD DUP1 PUSH1 0x80 ADD PUSH1 0x40 MSTORE DUP1 DUP8 PUSH20 0xFFFFFFFFFFFFFFFFFFFFFFFFFFFFFFFFFFFFFFFF AND DUP2 MSTORE PUSH1 0x20 ADD DUP7 DUP2 MSTORE PUSH1 0x20 ADD DUP6 DUP2 MSTORE PUSH1 0x20 ADD DUP5 DUP2 MSTORE POP SWAP1 DUP1 PUSH1 0x1 DUP2 SLOAD ADD DUP1 DUP3 SSTORE DUP1 SWAP2 POP POP PUSH1 0x1 SWAP1 SUB SWAP1 PUSH0 MSTORE PUSH1 0x20 PUSH0 KECCAK256 SWAP1 PUSH1 0x4 MUL ADD PUSH0 SWAP1 SWAP2 SWAP1 SWAP2 SWAP1 SWAP2 POP PUSH0 DUP3 ADD MLOAD DUP2 PUSH0 ADD PUSH0 PUSH2 0x100 EXP DUP2 SLOAD DUP2 PUSH20 0xFFFFFFFFFFFFFFFFFFFFFFFFFFFFFFFFFFFFFFFF MUL NOT AND SWAP1 DUP4 PUSH20 0xFFFFFFFFFFFFFFFFFFFFFFFFFFFFFFFFFFFFFFFF AND MUL OR SWAP1 SSTORE POP PUSH1 0x20 DUP3 ADD MLOAD DUP2 PUSH1 0x1 ADD SSTORE PUSH1 0x40 DUP3 ADD MLOAD DUP2 PUSH1 0x2 ADD SWAP1 DUP2 PUSH2 0xA5C SWAP2 SWAP1 PUSH2 0x1988 JUMP JUMPDEST POP PUSH1 0x60 DUP3 ADD MLOAD DUP2 PUSH1 0x3 ADD SWAP1 DUP2 PUSH2 0xA72 SWAP2 SWAP1 PUSH2 0x1988 JUMP JUMPDEST POP POP POP CALLER PUSH20 0xFFFFFFFFFFFFFFFFFFFFFFFFFFFFFFFFFFFFFFFF AND PUSH32 0x5D081D791B64899ADAB031015397EF8D7600501212EF97573B9E50F8C9BB6D9B DUP7 DUP7 PUSH1 0x40 MLOAD PUSH2 0xABD SWAP3 SWAP2 SWAP1 PUSH2 0x1D13 JUMP JUMPDEST PUSH1 0x40 MLOAD DUP1 SWAP2 SUB SWAP1 LOG2 POP POP POP POP POP JUMP JUMPDEST PUSH1 0x1 PUSH1 0x20 MSTORE DUP1 PUSH0 MSTORE PUSH1 0x40 PUSH0 KECCAK256 PUSH0 SWAP2 POP SLOAD SWAP1 PUSH2 0x100 EXP SWAP1 DIV PUSH1 0xFF AND DUP2 JUMP JUMPDEST PUSH1 0x1 PUSH0 CALLER PUSH20 0xFFFFFFFFFFFFFFFFFFFFFFFFFFFFFFFFFFFFFFFF AND PUSH20 0xFFFFFFFFFFFFFFFFFFFFFFFFFFFFFFFFFFFFFFFF AND DUP2 MSTORE PUSH1 0x20 ADD SWAP1 DUP2 MSTORE PUSH1 0x20 ADD PUSH0 KECCAK256 PUSH0 SWAP1 SLOAD SWAP1 PUSH2 0x100 EXP SWAP1 DIV PUSH1 0xFF AND PUSH2 0xB72 JUMPI PUSH1 0x40 MLOAD PUSH32 0x8C379A000000000000000000000000000000000000000000000000000000000 DUP2 MSTORE PUSH1 0x4 ADD PUSH2 0xB69 SWAP1 PUSH2 0x1D84 JUMP JUMPDEST PUSH1 0x40 MLOAD DUP1 SWAP2 SUB SWAP1 REVERT JUMPDEST PUSH0 DUP1 CALLER PUSH20 0xFFFFFFFFFFFFFFFFFFFFFFFFFFFFFFFFFFFFFFFF AND PUSH20 0xFFFFFFFFFFFFFFFFFFFFFFFFFFFFFFFFFFFFFFFF AND DUP2 MSTORE PUSH1 0x20 ADD SWAP1 DUP2 MSTORE PUSH1 0x20 ADD PUSH0 KECCAK256 PUSH1 0x6 ADD PUSH0 SWAP1 SLOAD SWAP1 PUSH2 0x100 EXP SWAP1 DIV PUSH1 0xFF AND ISZERO PUSH2 0xBFE JUMPI PUSH1 0x40 MLOAD PUSH32 0x8C379A000000000000000000000000000000000000000000000000000000000 DUP2 MSTORE PUSH1 0x4 ADD PUSH2 0xBF5 SWAP1 PUSH2 0x1DEC JUMP JUMPDEST PUSH1 0x40 MLOAD DUP1 SWAP2 SUB SWAP1 REVERT JUMPDEST TIMESTAMP PUSH0 DUP1 CALLER PUSH20 0xFFFFFFFFFFFFFFFFFFFFFFFFFFFFFFFFFFFFFFFF AND PUSH20 0xFFFFFFFFFFFFFFFFFFFFFFFFFFFFFFFFFFFFFFFF AND DUP2 MSTORE PUSH1 0x20 ADD SWAP1 DUP2 MSTORE PUSH1 0x20 ADD PUSH0 KECCAK256 PUSH1 0x4 ADD DUP2 SWAP1 SSTORE POP JUMP JUMPDEST PUSH0 PUSH1 0x1 PUSH0 DUP4 PUSH20 0xFFFFFFFFFFFFFFFFFFFFFFFFFFFFFFFFFFFFFFFF AND PUSH20 0xFFFFFFFFFFFFFFFFFFFFFFFFFFFFFFFFFFFFFFFF AND DUP2 MSTORE PUSH1 0x20 ADD SWAP1 DUP2 MSTORE PUSH1 0x20 ADD PUSH0 KECCAK256 PUSH0 SWAP1 SLOAD SWAP1 PUSH2 0x100 EXP SWAP1 DIV PUSH1 0xFF AND PUSH2 0xCCE JUMPI PUSH1 0x40 MLOAD PUSH32 0x8C379A000000000000000000000000000000000000000000000000000000000 DUP2 MSTORE PUSH1 0x4 ADD PUSH2 0xCC5 SWAP1 PUSH2 0x16A0 JUMP JUMPDEST PUSH1 0x40 MLOAD DUP1 SWAP2 SUB SWAP1 REVERT JUMPDEST PUSH0 DUP1 DUP4 PUSH20 0xFFFFFFFFFFFFFFFFFFFFFFFFFFFFFFFFFFFFFFFF AND PUSH20 0xFFFFFFFFFFFFFFFFFFFFFFFFFFFFFFFFFFFFFFFF AND DUP2 MSTORE PUSH1 0x20 ADD SWAP1 DUP2 MSTORE PUSH1 0x20 ADD PUSH0 KECCAK256 PUSH1 0x6 ADD PUSH0 SWAP1 SLOAD SWAP1 PUSH2 0x100 EXP SWAP1 DIV PUSH1 0xFF AND SWAP1 POP SWAP2 SWAP1 POP JUMP JUMPDEST PUSH1 0x1 PUSH0 DUP3 PUSH20 0xFFFFFFFFFFFFFFFFFFFFFFFFFFFFFFFFFFFFFFFF AND PUSH20 0xFFFFFFFFFFFFFFFFFFFFFFFFFFFFFFFFFFFFFFFF AND DUP2 MSTORE PUSH1 0x20 ADD SWAP1 DUP2 MSTORE PUSH1 0x20 ADD PUSH0 KECCAK256 PUSH0 SWAP1 SLOAD SWAP1 PUSH2 0x100 EXP SWAP1 DIV PUSH1 0xFF AND PUSH2 0xDAA JUMPI PUSH1 0x40 MLOAD PUSH32 0x8C379A000000000000000000000000000000000000000000000000000000000 DUP2 MSTORE PUSH1 0x4 ADD PUSH2 0xDA1 SWAP1 PUSH2 0x16A0 JUMP JUMPDEST PUSH1 0x40 MLOAD DUP1 SWAP2 SUB SWAP1 REVERT JUMPDEST PUSH0 DUP1 DUP3 PUSH20 0xFFFFFFFFFFFFFFFFFFFFFFFFFFFFFFFFFFFFFFFF AND PUSH20 0xFFFFFFFFFFFFFFFFFFFFFFFFFFFFFFFFFFFFFFFF AND DUP2 MSTORE PUSH1 0x20 ADD SWAP1 DUP2 MSTORE PUSH1 0x20 ADD PUSH0 KECCAK256 PUSH1 0x5 ADD SLOAD PUSH0 DUP1 DUP4 PUSH20 0xFFFFFFFFFFFFFFFFFFFFFFFFFFFFFFFFFFFFFFFF AND PUSH20 0xFFFFFFFFFFFFFFFFFFFFFFFFFFFFFFFFFFFFFFFF AND DUP2 MSTORE PUSH1 0x20 ADD SWAP1 DUP2 MSTORE PUSH1 0x20 ADD PUSH0 KECCAK256 PUSH1 0x4 ADD SLOAD PUSH2 0xE34 SWAP2 SWAP1 PUSH2 0x1C26 JUMP JUMPDEST TIMESTAMP GT PUSH2 0xE75 JUMPI PUSH1 0x40 MLOAD PUSH32 0x8C379A000000000000000000000000000000000000000000000000000000000 DUP2 MSTORE PUSH1 0x4 ADD PUSH2 0xE6C SWAP1 PUSH2 0x1E54 JUMP JUMPDEST PUSH1 0x40 MLOAD DUP1 SWAP2 SUB SWAP1 REVERT JUMPDEST PUSH0 DUP1 DUP3 PUSH20 0xFFFFFFFFFFFFFFFFFFFFFFFFFFFFFFFFFFFFFFFF AND PUSH20 0xFFFFFFFFFFFFFFFFFFFFFFFFFFFFFFFFFFFFFFFF AND DUP2 MSTORE PUSH1 0x20 ADD SWAP1 DUP2 MSTORE PUSH1 0x20 ADD PUSH0 KECCAK256 PUSH1 0x6 ADD PUSH0 SWAP1 SLOAD SWAP1 PUSH2 0x100 EXP SWAP1 DIV PUSH1 0xFF AND ISZERO PUSH2 0xF01 JUMPI PUSH1 0x40 MLOAD PUSH32 0x8C379A000000000000000000000000000000000000000000000000000000000 DUP2 MSTORE PUSH1 0x4 ADD PUSH2 0xEF8 SWAP1 PUSH2 0x1DEC JUMP JUMPDEST PUSH1 0x40 MLOAD DUP1 SWAP2 SUB SWAP1 REVERT JUMPDEST PUSH1 0x1 PUSH0 DUP1 DUP4 PUSH20 0xFFFFFFFFFFFFFFFFFFFFFFFFFFFFFFFFFFFFFFFF AND PUSH20 0xFFFFFFFFFFFFFFFFFFFFFFFFFFFFFFFFFFFFFFFF AND DUP2 MSTORE PUSH1 0x20 ADD SWAP1 DUP2 MSTORE PUSH1 0x20 ADD PUSH0 KECCAK256 PUSH1 0x6 ADD PUSH0 PUSH2 0x100 EXP DUP2 SLOAD DUP2 PUSH1 0xFF MUL NOT AND SWAP1 DUP4 ISZERO ISZERO MUL OR SWAP1 SSTORE POP PUSH0 DUP1 PUSH0 DUP4 PUSH20 0xFFFFFFFFFFFFFFFFFFFFFFFFFFFFFFFFFFFFFFFF AND PUSH20 0xFFFFFFFFFFFFFFFFFFFFFFFFFFFFFFFFFFFFFFFF AND DUP2 MSTORE PUSH1 0x20 ADD SWAP1 DUP2 MSTORE PUSH1 0x20 ADD PUSH0 KECCAK256 PUSH1 0x3 ADD SLOAD SWAP1 POP PUSH0 DUP2 GT PUSH2 0xFDD JUMPI PUSH1 0x40 MLOAD PUSH32 0x8C379A000000000000000000000000000000000000000000000000000000000 DUP2 MSTORE PUSH1 0x4 ADD PUSH2 0xFD4 SWAP1 PUSH2 0x1EBC JUMP JUMPDEST PUSH1 0x40 MLOAD DUP1 SWAP2 SUB SWAP1 REVERT JUMPDEST PUSH0 JUMPDEST PUSH0 DUP1 DUP5 PUSH20 0xFFFFFFFFFFFFFFFFFFFFFFFFFFFFFFFFFFFFFFFF AND PUSH20 0xFFFFFFFFFFFFFFFFFFFFFFFFFFFFFFFFFFFFFFFF AND DUP2 MSTORE PUSH1 0x20 ADD SWAP1 DUP2 MSTORE PUSH1 0x20 ADD PUSH0 KECCAK256 PUSH1 0x8 ADD DUP1 SLOAD SWAP1 POP DUP2 LT ISZERO PUSH2 0x1197 JUMPI PUSH0 DUP1 PUSH0 DUP6 PUSH20 0xFFFFFFFFFFFFFFFFFFFFFFFFFFFFFFFFFFFFFFFF AND PUSH20 0xFFFFFFFFFFFFFFFFFFFFFFFFFFFFFFFFFFFFFFFF AND DUP2 MSTORE PUSH1 0x20 ADD SWAP1 DUP2 MSTORE PUSH1 0x20 ADD PUSH0 KECCAK256 PUSH1 0x8 ADD DUP3 DUP2 SLOAD DUP2 LT PUSH2 0x107B JUMPI PUSH2 0x107A PUSH2 0x1BCC JUMP JUMPDEST JUMPDEST SWAP1 PUSH0 MSTORE PUSH1 0x20 PUSH0 KECCAK256 SWAP1 PUSH1 0x4 MUL ADD SWAP1 POP PUSH0 PUSH1 0x64 DUP3 PUSH1 0x1 ADD SLOAD DUP6 PUSH2 0x109C SWAP2 SWAP1 PUSH2 0x1EDA JUMP JUMPDEST PUSH2 0x10A6 SWAP2 SWAP1 PUSH2 0x1F48 JUMP JUMPDEST SWAP1 POP DUP2 PUSH0 ADD PUSH0 SWAP1 SLOAD SWAP1 PUSH2 0x100 EXP SWAP1 DIV PUSH20 0xFFFFFFFFFFFFFFFFFFFFFFFFFFFFFFFFFFFFFFFF AND PUSH20 0xFFFFFFFFFFFFFFFFFFFFFFFFFFFFFFFFFFFFFFFF AND PUSH2 0x8FC DUP3 SWAP1 DUP2 ISZERO MUL SWAP1 PUSH1 0x40 MLOAD PUSH0 PUSH1 0x40 MLOAD DUP1 DUP4 SUB DUP2 DUP6 DUP9 DUP9 CALL SWAP4 POP POP POP POP ISZERO DUP1 ISZERO PUSH2 0x110D JUMPI RETURNDATASIZE PUSH0 DUP1 RETURNDATACOPY RETURNDATASIZE PUSH0 REVERT JUMPDEST POP DUP2 PUSH0 ADD PUSH0 SWAP1 SLOAD SWAP1 PUSH2 0x100 EXP SWAP1 DIV PUSH20 0xFFFFFFFFFFFFFFFFFFFFFFFFFFFFFFFFFFFFFFFF AND PUSH20 0xFFFFFFFFFFFFFFFFFFFFFFFFFFFFFFFFFFFFFFFF AND PUSH32 0xCEB720B06C310EDC215BEE81670832BB918BA1199F401716364414DDB9B816A7 DUP3 DUP5 PUSH1 0x2 ADD DUP6 PUSH1 0x3 ADD PUSH1 0x40 MLOAD PUSH2 0x1180 SWAP4 SWAP3 SWAP2 SWAP1 PUSH2 0x1FF9 JUMP JUMPDEST PUSH1 0x40 MLOAD DUP1 SWAP2 SUB SWAP1 LOG2 POP POP DUP1 DUP1 PUSH1 0x1 ADD SWAP2 POP POP PUSH2 0xFDF JUMP JUMPDEST POP PUSH0 DUP1 PUSH0 DUP5 PUSH20 0xFFFFFFFFFFFFFFFFFFFFFFFFFFFFFFFFFFFFFFFF AND PUSH20 0xFFFFFFFFFFFFFFFFFFFFFFFFFFFFFFFFFFFFFFFF AND DUP2 MSTORE PUSH1 0x20 ADD SWAP1 DUP2 MSTORE PUSH1 0x20 ADD PUSH0 KECCAK256 PUSH1 0x3 ADD DUP2 SWAP1 SSTORE POP DUP2 PUSH20 0xFFFFFFFFFFFFFFFFFFFFFFFFFFFFFFFFFFFFFFFF AND PUSH32 0x16346F65ADF8D84422B57AD74CB5607BF6C9E55C3C1FEA66344057E5BBA8A7EE PUSH1 0x40 MLOAD PUSH1 0x40 MLOAD DUP1 SWAP2 SUB SWAP1 LOG2 POP POP JUMP JUMPDEST PUSH0 PUSH1 0x40 MLOAD SWAP1 POP SWAP1 JUMP JUMPDEST PUSH0 DUP1 REVERT JUMPDEST PUSH0 DUP1 REVERT JUMPDEST PUSH0 PUSH20 0xFFFFFFFFFFFFFFFFFFFFFFFFFFFFFFFFFFFFFFFF DUP3 AND SWAP1 POP SWAP2 SWAP1 POP JUMP JUMPDEST PUSH0 PUSH2 0x125D DUP3 PUSH2 0x1234 JUMP JUMPDEST SWAP1 POP SWAP2 SWAP1 POP JUMP JUMPDEST PUSH2 0x126D DUP2 PUSH2 0x1253 JUMP JUMPDEST DUP2 EQ PUSH2 0x1277 JUMPI PUSH0 DUP1 REVERT JUMPDEST POP JUMP JUMPDEST PUSH0 DUP2 CALLDATALOAD SWAP1 POP PUSH2 0x1288 DUP2 PUSH2 0x1264 JUMP JUMPDEST SWAP3 SWAP2 POP POP JUMP JUMPDEST PUSH0 PUSH1 0x20 DUP3 DUP5 SUB SLT ISZERO PUSH2 0x12A3 JUMPI PUSH2 0x12A2 PUSH2 0x122C JUMP JUMPDEST JUMPDEST PUSH0 PUSH2 0x12B0 DUP5 DUP3 DUP6 ADD PUSH2 0x127A JUMP JUMPDEST SWAP2 POP POP SWAP3 SWAP2 POP POP JUMP JUMPDEST PUSH0 DUP2 MLOAD SWAP1 POP SWAP2 SWAP1 POP JUMP JUMPDEST PUSH0 DUP3 DUP3 MSTORE PUSH1 0x20 DUP3 ADD SWAP1 POP SWAP3 SWAP2 POP POP JUMP JUMPDEST DUP3 DUP2 DUP4 MCOPY PUSH0 DUP4 DUP4 ADD MSTORE POP POP POP JUMP JUMPDEST PUSH0 PUSH1 0x1F NOT PUSH1 0x1F DUP4 ADD AND SWAP1 POP SWAP2 SWAP1 POP JUMP JUMPDEST PUSH0 PUSH2 0x12FB DUP3 PUSH2 0x12B9 JUMP JUMPDEST PUSH2 0x1305 DUP2 DUP6 PUSH2 0x12C3 JUMP JUMPDEST SWAP4 POP PUSH2 0x1315 DUP2 DUP6 PUSH1 0x20 DUP7 ADD PUSH2 0x12D3 JUMP JUMPDEST PUSH2 0x131E DUP2 PUSH2 0x12E1 JUMP JUMPDEST DUP5 ADD SWAP2 POP POP SWAP3 SWAP2 POP POP JUMP JUMPDEST PUSH0 PUSH1 0x20 DUP3 ADD SWAP1 POP DUP2 DUP2 SUB PUSH0 DUP4 ADD MSTORE PUSH2 0x1341 DUP2 DUP5 PUSH2 0x12F1 JUMP JUMPDEST SWAP1 POP SWAP3 SWAP2 POP POP JUMP JUMPDEST PUSH0 DUP1 REVERT JUMPDEST PUSH0 DUP1 REVERT JUMPDEST PUSH32 0x4E487B7100000000000000000000000000000000000000000000000000000000 PUSH0 MSTORE PUSH1 0x41 PUSH1 0x4 MSTORE PUSH1 0x24 PUSH0 REVERT JUMPDEST PUSH2 0x1387 DUP3 PUSH2 0x12E1 JUMP JUMPDEST DUP2 ADD DUP2 DUP2 LT PUSH8 0xFFFFFFFFFFFFFFFF DUP3 GT OR ISZERO PUSH2 0x13A6 JUMPI PUSH2 0x13A5 PUSH2 0x1351 JUMP JUMPDEST JUMPDEST DUP1 PUSH1 0x40 MSTORE POP POP POP JUMP JUMPDEST PUSH0 PUSH2 0x13B8 PUSH2 0x1223 JUMP JUMPDEST SWAP1 POP PUSH2 0x13C4 DUP3 DUP3 PUSH2 0x137E JUMP JUMPDEST SWAP2 SWAP1 POP JUMP JUMPDEST PUSH0 PUSH8 0xFFFFFFFFFFFFFFFF DUP3 GT ISZERO PUSH2 0x13E3 JUMPI PUSH2 0x13E2 PUSH2 0x1351 JUMP JUMPDEST JUMPDEST PUSH2 0x13EC DUP3 PUSH2 0x12E1 JUMP JUMPDEST SWAP1 POP PUSH1 0x20 DUP2 ADD SWAP1 POP SWAP2 SWAP1 POP JUMP JUMPDEST DUP3 DUP2 DUP4 CALLDATACOPY PUSH0 DUP4 DUP4 ADD MSTORE POP POP POP JUMP JUMPDEST PUSH0 PUSH2 0x1419 PUSH2 0x1414 DUP5 PUSH2 0x13C9 JUMP JUMPDEST PUSH2 0x13AF JUMP JUMPDEST SWAP1 POP DUP3 DUP2 MSTORE PUSH1 0x20 DUP2 ADD DUP5 DUP5 DUP5 ADD GT ISZERO PUSH2 0x1435 JUMPI PUSH2 0x1434 PUSH2 0x134D JUMP JUMPDEST JUMPDEST PUSH2 0x1440 DUP5 DUP3 DUP6 PUSH2 0x13F9 JUMP JUMPDEST POP SWAP4 SWAP3 POP POP POP JUMP JUMPDEST PUSH0 DUP3 PUSH1 0x1F DUP4 ADD SLT PUSH2 0x145C JUMPI PUSH2 0x145B PUSH2 0x1349 JUMP JUMPDEST JUMPDEST DUP2 CALLDATALOAD PUSH2 0x146C DUP5 DUP3 PUSH1 0x20 DUP7 ADD PUSH2 0x1407 JUMP JUMPDEST SWAP2 POP POP SWAP3 SWAP2 POP POP JUMP JUMPDEST PUSH0 DUP1 PUSH0 PUSH1 0x60 DUP5 DUP7 SUB SLT ISZERO PUSH2 0x148C JUMPI PUSH2 0x148B PUSH2 0x122C JUMP JUMPDEST JUMPDEST PUSH0 DUP5 ADD CALLDATALOAD PUSH8 0xFFFFFFFFFFFFFFFF DUP2 GT ISZERO PUSH2 0x14A9 JUMPI PUSH2 0x14A8 PUSH2 0x1230 JUMP JUMPDEST JUMPDEST PUSH2 0x14B5 DUP7 DUP3 DUP8 ADD PUSH2 0x1448 JUMP JUMPDEST SWAP4 POP POP PUSH1 0x20 DUP5 ADD CALLDATALOAD PUSH8 0xFFFFFFFFFFFFFFFF DUP2 GT ISZERO PUSH2 0x14D6 JUMPI PUSH2 0x14D5 PUSH2 0x1230 JUMP JUMPDEST JUMPDEST PUSH2 0x14E2 DUP7 DUP3 DUP8 ADD PUSH2 0x1448 JUMP JUMPDEST SWAP3 POP POP PUSH1 0x40 DUP5 ADD CALLDATALOAD PUSH8 0xFFFFFFFFFFFFFFFF DUP2 GT ISZERO PUSH2 0x1503 JUMPI PUSH2 0x1502 PUSH2 0x1230 JUMP JUMPDEST JUMPDEST PUSH2 0x150F DUP7 DUP3 DUP8 ADD PUSH2 0x1448 JUMP JUMPDEST SWAP2 POP POP SWAP3 POP SWAP3 POP SWAP3 JUMP JUMPDEST PUSH0 PUSH2 0x1523 DUP3 PUSH2 0x1234 JUMP JUMPDEST SWAP1 POP SWAP2 SWAP1 POP JUMP JUMPDEST PUSH2 0x1533 DUP2 PUSH2 0x1519 JUMP JUMPDEST DUP2 EQ PUSH2 0x153D JUMPI PUSH0 DUP1 REVERT JUMPDEST POP JUMP JUMPDEST PUSH0 DUP2 CALLDATALOAD SWAP1 POP PUSH2 0x154E DUP2 PUSH2 0x152A JUMP JUMPDEST SWAP3 SWAP2 POP POP JUMP JUMPDEST PUSH0 DUP2 SWAP1 POP SWAP2 SWAP1 POP JUMP JUMPDEST PUSH2 0x1566 DUP2 PUSH2 0x1554 JUMP JUMPDEST DUP2 EQ PUSH2 0x1570 JUMPI PUSH0 DUP1 REVERT JUMPDEST POP JUMP JUMPDEST PUSH0 DUP2 CALLDATALOAD SWAP1 POP PUSH2 0x1581 DUP2 PUSH2 0x155D JUMP JUMPDEST SWAP3 SWAP2 POP POP JUMP JUMPDEST PUSH0 DUP1 PUSH0 DUP1 PUSH1 0x80 DUP6 DUP8 SUB SLT ISZERO PUSH2 0x159F JUMPI PUSH2 0x159E PUSH2 0x122C JUMP JUMPDEST JUMPDEST PUSH0 PUSH2 0x15AC DUP8 DUP3 DUP9 ADD PUSH2 0x1540 JUMP JUMPDEST SWAP5 POP POP PUSH1 0x20 PUSH2 0x15BD DUP8 DUP3 DUP9 ADD PUSH2 0x1573 JUMP JUMPDEST SWAP4 POP POP PUSH1 0x40 DUP6 ADD CALLDATALOAD PUSH8 0xFFFFFFFFFFFFFFFF DUP2 GT ISZERO PUSH2 0x15DE JUMPI PUSH2 0x15DD PUSH2 0x1230 JUMP JUMPDEST JUMPDEST PUSH2 0x15EA DUP8 DUP3 DUP9 ADD PUSH2 0x1448 JUMP JUMPDEST SWAP3 POP POP PUSH1 0x60 DUP6 ADD CALLDATALOAD PUSH8 0xFFFFFFFFFFFFFFFF DUP2 GT ISZERO PUSH2 0x160B JUMPI PUSH2 0x160A PUSH2 0x1230 JUMP JUMPDEST JUMPDEST PUSH2 0x1617 DUP8 DUP3 DUP9 ADD PUSH2 0x1448 JUMP JUMPDEST SWAP2 POP POP SWAP3 SWAP6 SWAP2 SWAP5 POP SWAP3 POP JUMP JUMPDEST PUSH0 DUP2 ISZERO ISZERO SWAP1 POP SWAP2 SWAP1 POP JUMP JUMPDEST PUSH2 0x1637 DUP2 PUSH2 0x1623 JUMP JUMPDEST DUP3 MSTORE POP POP JUMP JUMPDEST PUSH0 PUSH1 0x20 DUP3 ADD SWAP1 POP PUSH2 0x1650 PUSH0 DUP4 ADD DUP5 PUSH2 0x162E JUMP JUMPDEST SWAP3 SWAP2 POP POP JUMP JUMPDEST PUSH32 0x4E6F2077696C6C20666F756E6421000000000000000000000000000000000000 PUSH0 DUP3 ADD MSTORE POP JUMP JUMPDEST PUSH0 PUSH2 0x168A PUSH1 0xE DUP4 PUSH2 0x12C3 JUMP JUMPDEST SWAP2 POP PUSH2 0x1695 DUP3 PUSH2 0x1656 JUMP JUMPDEST PUSH1 0x20 DUP3 ADD SWAP1 POP SWAP2 SWAP1 POP JUMP JUMPDEST PUSH0 PUSH1 0x20 DUP3 ADD SWAP1 POP DUP2 DUP2 SUB PUSH0 DUP4 ADD MSTORE PUSH2 0x16B7 DUP2 PUSH2 0x167E JUMP JUMPDEST SWAP1 POP SWAP2 SWAP1 POP JUMP JUMPDEST PUSH32 0x4E487B7100000000000000000000000000000000000000000000000000000000 PUSH0 MSTORE PUSH1 0x22 PUSH1 0x4 MSTORE PUSH1 0x24 PUSH0 REVERT JUMPDEST PUSH0 PUSH1 0x2 DUP3 DIV SWAP1 POP PUSH1 0x1 DUP3 AND DUP1 PUSH2 0x1702 JUMPI PUSH1 0x7F DUP3 AND SWAP2 POP JUMPDEST PUSH1 0x20 DUP3 LT DUP2 SUB PUSH2 0x1715 JUMPI PUSH2 0x1714 PUSH2 0x16BE JUMP JUMPDEST JUMPDEST POP SWAP2 SWAP1 POP JUMP JUMPDEST PUSH32 0x596F7520616C7265616479206861766520612077696C6C210000000000000000 PUSH0 DUP3 ADD MSTORE POP JUMP JUMPDEST PUSH0 PUSH2 0x174F PUSH1 0x18 DUP4 PUSH2 0x12C3 JUMP JUMPDEST SWAP2 POP PUSH2 0x175A DUP3 PUSH2 0x171B JUMP JUMPDEST PUSH1 0x20 DUP3 ADD SWAP1 POP SWAP2 SWAP1 POP JUMP JUMPDEST PUSH0 PUSH1 0x20 DUP3 ADD SWAP1 POP DUP2 DUP2 SUB PUSH0 DUP4 ADD MSTORE PUSH2 0x177C DUP2 PUSH2 0x1743 JUMP JUMPDEST SWAP1 POP SWAP2 SWAP1 POP JUMP JUMPDEST PUSH32 0x4D757374206C6F636B2045544821000000000000000000000000000000000000 PUSH0 DUP3 ADD MSTORE POP JUMP JUMPDEST PUSH0 PUSH2 0x17B7 PUSH1 0xE DUP4 PUSH2 0x12C3 JUMP JUMPDEST SWAP2 POP PUSH2 0x17C2 DUP3 PUSH2 0x1783 JUMP JUMPDEST PUSH1 0x20 DUP3 ADD SWAP1 POP SWAP2 SWAP1 POP JUMP JUMPDEST PUSH0 PUSH1 0x20 DUP3 ADD SWAP1 POP DUP2 DUP2 SUB PUSH0 DUP4 ADD MSTORE PUSH2 0x17E4 DUP2 PUSH2 0x17AB JUMP JUMPDEST SWAP1 POP SWAP2 SWAP1 POP JUMP JUMPDEST PUSH0 DUP2 SWAP1 POP DUP2 PUSH0 MSTORE PUSH1 0x20 PUSH0 KECCAK256 SWAP1 POP SWAP2 SWAP1 POP JUMP JUMPDEST PUSH0 PUSH1 0x20 PUSH1 0x1F DUP4 ADD DIV SWAP1 POP SWAP2 SWAP1 POP JUMP JUMPDEST PUSH0 DUP3 DUP3 SHL SWAP1 POP SWAP3 SWAP2 POP POP JUMP JUMPDEST PUSH0 PUSH1 0x8 DUP4 MUL PUSH2 0x1847 PUSH32 0xFFFFFFFFFFFFFFFFFFFFFFFFFFFFFFFFFFFFFFFFFFFFFFFFFFFFFFFFFFFFFFFF DUP3 PUSH2 0x180C JUMP JUMPDEST PUSH2 0x1851 DUP7 DUP4 PUSH2 0x180C JUMP JUMPDEST SWAP6 POP DUP1 NOT DUP5 AND SWAP4 POP DUP1 DUP7 AND DUP5 OR SWAP3 POP POP POP SWAP4 SWAP3 POP POP POP JUMP JUMPDEST PUSH0 DUP2 SWAP1 POP SWAP2 SWAP1 POP JUMP JUMPDEST PUSH0 PUSH2 0x188C PUSH2 0x1887 PUSH2 0x1882 DUP5 PUSH2 0x1554 JUMP JUMPDEST PUSH2 0x1869 JUMP JUMPDEST PUSH2 0x1554 JUMP JUMPDEST SWAP1 POP SWAP2 SWAP1 POP JUMP JUMPDEST PUSH0 DUP2 SWAP1 POP SWAP2 SWAP1 POP JUMP JUMPDEST PUSH2 0x18A5 DUP4 PUSH2 0x1872 JUMP JUMPDEST PUSH2 0x18B9 PUSH2 0x18B1 DUP3 PUSH2 0x1893 JUMP JUMPDEST DUP5 DUP5 SLOAD PUSH2 0x1818 JUMP JUMPDEST DUP3 SSTORE POP POP POP POP JUMP JUMPDEST PUSH0 SWAP1 JUMP JUMPDEST PUSH2 0x18CD PUSH2 0x18C1 JUMP JUMPDEST PUSH2 0x18D8 DUP2 DUP5 DUP5 PUSH2 0x189C JUMP JUMPDEST POP POP POP JUMP JUMPDEST JUMPDEST DUP2 DUP2 LT ISZERO PUSH2 0x18FB JUMPI PUSH2 0x18F0 PUSH0 DUP3 PUSH2 0x18C5 JUMP JUMPDEST PUSH1 0x1 DUP2 ADD SWAP1 POP PUSH2 0x18DE JUMP JUMPDEST POP POP JUMP JUMPDEST PUSH1 0x1F DUP3 GT ISZERO PUSH2 0x1940 JUMPI PUSH2 0x1911 DUP2 PUSH2 0x17EB JUMP JUMPDEST PUSH2 0x191A DUP5 PUSH2 0x17FD JUMP JUMPDEST DUP2 ADD PUSH1 0x20 DUP6 LT ISZERO PUSH2 0x1929 JUMPI DUP2 SWAP1 POP JUMPDEST PUSH2 0x193D PUSH2 0x1935 DUP6 PUSH2 0x17FD JUMP JUMPDEST DUP4 ADD DUP3 PUSH2 0x18DD JUMP JUMPDEST POP POP JUMPDEST POP POP POP JUMP JUMPDEST PUSH0 DUP3 DUP3 SHR SWAP1 POP SWAP3 SWAP2 POP POP JUMP JUMPDEST PUSH0 PUSH2 0x1960 PUSH0 NOT DUP5 PUSH1 0x8 MUL PUSH2 0x1945 JUMP JUMPDEST NOT DUP1 DUP4 AND SWAP2 POP POP SWAP3 SWAP2 POP POP JUMP JUMPDEST PUSH0 PUSH2 0x1978 DUP4 DUP4 PUSH2 0x1951 JUMP JUMPDEST SWAP2 POP DUP3 PUSH1 0x2 MUL DUP3 OR SWAP1 POP SWAP3 SWAP2 POP POP JUMP JUMPDEST PUSH2 0x1991 DUP3 PUSH2 0x12B9 JUMP JUMPDEST PUSH8 0xFFFFFFFFFFFFFFFF DUP2 GT ISZERO PUSH2 0x19AA JUMPI PUSH2 0x19A9 PUSH2 0x1351 JUMP JUMPDEST JUMPDEST PUSH2 0x19B4 DUP3 SLOAD PUSH2 0x16EB JUMP JUMPDEST PUSH2 0x19BF DUP3 DUP3 DUP6 PUSH2 0x18FF JUMP JUMPDEST PUSH0 PUSH1 0x20 SWAP1 POP PUSH1 0x1F DUP4 GT PUSH1 0x1 DUP2 EQ PUSH2 0x19F0 JUMPI PUSH0 DUP5 ISZERO PUSH2 0x19DE JUMPI DUP3 DUP8 ADD MLOAD SWAP1 POP JUMPDEST PUSH2 0x19E8 DUP6 DUP3 PUSH2 0x196D JUMP JUMPDEST DUP7 SSTORE POP PUSH2 0x1A4F JUMP JUMPDEST PUSH1 0x1F NOT DUP5 AND PUSH2 0x19FE DUP7 PUSH2 0x17EB JUMP JUMPDEST PUSH0 JUMPDEST DUP3 DUP2 LT ISZERO PUSH2 0x1A25 JUMPI DUP5 DUP10 ADD MLOAD DUP3 SSTORE PUSH1 0x1 DUP3 ADD SWAP2 POP PUSH1 0x20 DUP6 ADD SWAP5 POP PUSH1 0x20 DUP2 ADD SWAP1 POP PUSH2 0x1A00 JUMP JUMPDEST DUP7 DUP4 LT ISZERO PUSH2 0x1A42 JUMPI DUP5 DUP10 ADD MLOAD PUSH2 0x1A3E PUSH1 0x1F DUP10 AND DUP3 PUSH2 0x1951 JUMP JUMPDEST DUP4 SSTORE POP JUMPDEST PUSH1 0x1 PUSH1 0x2 DUP9 MUL ADD DUP9 SSTORE POP POP POP JUMPDEST POP POP POP POP POP POP JUMP JUMPDEST PUSH2 0x1A60 DUP2 PUSH2 0x1554 JUMP JUMPDEST DUP3 MSTORE POP POP JUMP JUMPDEST PUSH0 PUSH1 0x40 DUP3 ADD SWAP1 POP PUSH2 0x1A79 PUSH0 DUP4 ADD DUP6 PUSH2 0x1A57 JUMP JUMPDEST DUP2 DUP2 SUB PUSH1 0x20 DUP4 ADD MSTORE PUSH2 0x1A8B DUP2 DUP5 PUSH2 0x12F1 JUMP JUMPDEST SWAP1 POP SWAP4 SWAP3 POP POP POP JUMP JUMPDEST PUSH32 0x596F75206E65656420746F2063726561746520612077696C6C20666972737400 PUSH0 DUP3 ADD MSTORE POP JUMP JUMPDEST PUSH0 PUSH2 0x1AC8 PUSH1 0x1F DUP4 PUSH2 0x12C3 JUMP JUMPDEST SWAP2 POP PUSH2 0x1AD3 DUP3 PUSH2 0x1A94 JUMP JUMPDEST PUSH1 0x20 DUP3 ADD SWAP1 POP SWAP2 SWAP1 POP JUMP JUMPDEST PUSH0 PUSH1 0x20 DUP3 ADD SWAP1 POP DUP2 DUP2 SUB PUSH0 DUP4 ADD MSTORE PUSH2 0x1AF5 DUP2 PUSH2 0x1ABC JUMP JUMPDEST SWAP1 POP SWAP2 SWAP1 POP JUMP JUMPDEST PUSH32 0x496E76616C69642077616C6C6574206164647265737300000000000000000000 PUSH0 DUP3 ADD MSTORE POP JUMP JUMPDEST PUSH0 PUSH2 0x1B30 PUSH1 0x16 DUP4 PUSH2 0x12C3 JUMP JUMPDEST SWAP2 POP PUSH2 0x1B3B DUP3 PUSH2 0x1AFC JUMP JUMPDEST PUSH1 0x20 DUP3 ADD SWAP1 POP SWAP2 SWAP1 POP JUMP JUMPDEST PUSH0 PUSH1 0x20 DUP3 ADD SWAP1 POP DUP2 DUP2 SUB PUSH0 DUP4 ADD MSTORE PUSH2 0x1B5D DUP2 PUSH2 0x1B24 JUMP JUMPDEST SWAP1 POP SWAP2 SWAP1 POP JUMP JUMPDEST PUSH32 0x496E76616C69642070657263656E746167650000000000000000000000000000 PUSH0 DUP3 ADD MSTORE POP JUMP JUMPDEST PUSH0 PUSH2 0x1B98 PUSH1 0x12 DUP4 PUSH2 0x12C3 JUMP JUMPDEST SWAP2 POP PUSH2 0x1BA3 DUP3 PUSH2 0x1B64 JUMP JUMPDEST PUSH1 0x20 DUP3 ADD SWAP1 POP SWAP2 SWAP1 POP JUMP JUMPDEST PUSH0 PUSH1 0x20 DUP3 ADD SWAP1 POP DUP2 DUP2 SUB PUSH0 DUP4 ADD MSTORE PUSH2 0x1BC5 DUP2 PUSH2 0x1B8C JUMP JUMPDEST SWAP1 POP SWAP2 SWAP1 POP JUMP JUMPDEST PUSH32 0x4E487B7100000000000000000000000000000000000000000000000000000000 PUSH0 MSTORE PUSH1 0x32 PUSH1 0x4 MSTORE PUSH1 0x24 PUSH0 REVERT JUMPDEST PUSH32 0x4E487B7100000000000000000000000000000000000000000000000000000000 PUSH0 MSTORE PUSH1 0x11 PUSH1 0x4 MSTORE PUSH1 0x24 PUSH0 REVERT JUMPDEST PUSH0 PUSH2 0x1C30 DUP3 PUSH2 0x1554 JUMP JUMPDEST SWAP2 POP PUSH2 0x1C3B DUP4 PUSH2 0x1554 JUMP JUMPDEST SWAP3 POP DUP3 DUP3 ADD SWAP1 POP DUP1 DUP3 GT ISZERO PUSH2 0x1C53 JUMPI PUSH2 0x1C52 PUSH2 0x1BF9 JUMP JUMPDEST JUMPDEST SWAP3 SWAP2 POP POP JUMP JUMPDEST PUSH32 0x546F74616C20616C6C6F636174696F6E20657863656564732031303025000000 PUSH0 DUP3 ADD MSTORE POP JUMP JUMPDEST PUSH0 PUSH2 0x1C8D PUSH1 0x1D DUP4 PUSH2 0x12C3 JUMP JUMPDEST SWAP2 POP PUSH2 0x1C98 DUP3 PUSH2 0x1C59 JUMP JUMPDEST PUSH1 0x20 DUP3 ADD SWAP1 POP SWAP2 SWAP1 POP JUMP JUMPDEST PUSH0 PUSH1 0x20 DUP3 ADD SWAP1 POP DUP2 DUP2 SUB PUSH0 DUP4 ADD MSTORE PUSH2 0x1CBA DUP2 PUSH2 0x1C81 JUMP JUMPDEST SWAP1 POP SWAP2 SWAP1 POP JUMP JUMPDEST PUSH0 PUSH2 0x1CDB PUSH2 0x1CD6 PUSH2 0x1CD1 DUP5 PUSH2 0x1234 JUMP JUMPDEST PUSH2 0x1869 JUMP JUMPDEST PUSH2 0x1234 JUMP JUMPDEST SWAP1 POP SWAP2 SWAP1 POP JUMP JUMPDEST PUSH0 PUSH2 0x1CEC DUP3 PUSH2 0x1CC1 JUMP JUMPDEST SWAP1 POP SWAP2 SWAP1 POP JUMP JUMPDEST PUSH0 PUSH2 0x1CFD DUP3 PUSH2 0x1CE2 JUMP JUMPDEST SWAP1 POP SWAP2 SWAP1 POP JUMP JUMPDEST PUSH2 0x1D0D DUP2 PUSH2 0x1CF3 JUMP JUMPDEST DUP3 MSTORE POP POP JUMP JUMPDEST PUSH0 PUSH1 0x40 DUP3 ADD SWAP1 POP PUSH2 0x1D26 PUSH0 DUP4 ADD DUP6 PUSH2 0x1D04 JUMP JUMPDEST PUSH2 0x1D33 PUSH1 0x20 DUP4 ADD DUP5 PUSH2 0x1A57 JUMP JUMPDEST SWAP4 SWAP3 POP POP POP JUMP JUMPDEST PUSH32 0x596F752068617665206E6F74206372656174656420612077696C6C0000000000 PUSH0 DUP3 ADD MSTORE POP JUMP JUMPDEST PUSH0 PUSH2 0x1D6E PUSH1 0x1B DUP4 PUSH2 0x12C3 JUMP JUMPDEST SWAP2 POP PUSH2 0x1D79 DUP3 PUSH2 0x1D3A JUMP JUMPDEST PUSH1 0x20 DUP3 ADD SWAP1 POP SWAP2 SWAP1 POP JUMP JUMPDEST PUSH0 PUSH1 0x20 DUP3 ADD SWAP1 POP DUP2 DUP2 SUB PUSH0 DUP4 ADD MSTORE PUSH2 0x1D9B DUP2 PUSH2 0x1D62 JUMP JUMPDEST SWAP1 POP SWAP2 SWAP1 POP JUMP JUMPDEST PUSH32 0x57696C6C20616C72656164792065786563757465642100000000000000000000 PUSH0 DUP3 ADD MSTORE POP JUMP JUMPDEST PUSH0 PUSH2 0x1DD6 PUSH1 0x16 DUP4 PUSH2 0x12C3 JUMP JUMPDEST SWAP2 POP PUSH2 0x1DE1 DUP3 PUSH2 0x1DA2 JUMP JUMPDEST PUSH1 0x20 DUP3 ADD SWAP1 POP SWAP2 SWAP1 POP JUMP JUMPDEST PUSH0 PUSH1 0x20 DUP3 ADD SWAP1 POP DUP2 DUP2 SUB PUSH0 DUP4 ADD MSTORE PUSH2 0x1E03 DUP2 PUSH2 0x1DCA JUMP JUMPDEST SWAP1 POP SWAP2 SWAP1 POP JUMP JUMPDEST PUSH32 0x4F776E6572206973207374696C6C20616C697665210000000000000000000000 PUSH0 DUP3 ADD MSTORE POP JUMP JUMPDEST PUSH0 PUSH2 0x1E3E PUSH1 0x15 DUP4 PUSH2 0x12C3 JUMP JUMPDEST SWAP2 POP PUSH2 0x1E49 DUP3 PUSH2 0x1E0A JUMP JUMPDEST PUSH1 0x20 DUP3 ADD SWAP1 POP SWAP2 SWAP1 POP JUMP JUMPDEST PUSH0 PUSH1 0x20 DUP3 ADD SWAP1 POP DUP2 DUP2 SUB PUSH0 DUP4 ADD MSTORE PUSH2 0x1E6B DUP2 PUSH2 0x1E32 JUMP JUMPDEST SWAP1 POP SWAP2 SWAP1 POP JUMP JUMPDEST PUSH32 0x4E6F2045544820746F2064697374726962757465000000000000000000000000 PUSH0 DUP3 ADD MSTORE POP JUMP JUMPDEST PUSH0 PUSH2 0x1EA6 PUSH1 0x14 DUP4 PUSH2 0x12C3 JUMP JUMPDEST SWAP2 POP PUSH2 0x1EB1 DUP3 PUSH2 0x1E72 JUMP JUMPDEST PUSH1 0x20 DUP3 ADD SWAP1 POP SWAP2 SWAP1 POP JUMP JUMPDEST PUSH0 PUSH1 0x20 DUP3 ADD SWAP1 POP DUP2 DUP2 SUB PUSH0 DUP4 ADD MSTORE PUSH2 0x1ED3 DUP2 PUSH2 0x1E9A JUMP JUMPDEST SWAP1 POP SWAP2 SWAP1 POP JUMP JUMPDEST PUSH0 PUSH2 0x1EE4 DUP3 PUSH2 0x1554 JUMP JUMPDEST SWAP2 POP PUSH2 0x1EEF DUP4 PUSH2 0x1554 JUMP JUMPDEST SWAP3 POP DUP3 DUP3 MUL PUSH2 0x1EFD DUP2 PUSH2 0x1554 JUMP JUMPDEST SWAP2 POP DUP3 DUP3 DIV DUP5 EQ DUP4 ISZERO OR PUSH2 0x1F14 JUMPI PUSH2 0x1F13 PUSH2 0x1BF9 JUMP JUMPDEST JUMPDEST POP SWAP3 SWAP2 POP POP JUMP JUMPDEST PUSH32 0x4E487B7100000000000000000000000000000000000000000000000000000000 PUSH0 MSTORE PUSH1 0x12 PUSH1 0x4 MSTORE PUSH1 0x24 PUSH0 REVERT JUMPDEST PUSH0 PUSH2 0x1F52 DUP3 PUSH2 0x1554 JUMP JUMPDEST SWAP2 POP PUSH2 0x1F5D DUP4 PUSH2 0x1554 JUMP JUMPDEST SWAP3 POP DUP3 PUSH2 0x1F6D JUMPI PUSH2 0x1F6C PUSH2 0x1F1B JUMP JUMPDEST JUMPDEST DUP3 DUP3 DIV SWAP1 POP SWAP3 SWAP2 POP POP JUMP JUMPDEST PUSH0 DUP2 SLOAD PUSH2 0x1F84 DUP2 PUSH2 0x16EB JUMP JUMPDEST PUSH2 0x1F8E DUP2 DUP7 PUSH2 0x12C3 JUMP JUMPDEST SWAP5 POP PUSH1 0x1 DUP3 AND PUSH0 DUP2 EQ PUSH2 0x1FA8 JUMPI PUSH1 0x1 DUP2 EQ PUSH2 0x1FBE JUMPI PUSH2 0x1FF0 JUMP JUMPDEST PUSH1 0xFF NOT DUP4 AND DUP7 MSTORE DUP2 ISZERO ISZERO PUSH1 0x20 MUL DUP7 ADD SWAP4 POP PUSH2 0x1FF0 JUMP JUMPDEST PUSH2 0x1FC7 DUP6 PUSH2 0x17EB JUMP JUMPDEST PUSH0 JUMPDEST DUP4 DUP2 LT ISZERO PUSH2 0x1FE8 JUMPI DUP2 SLOAD DUP2 DUP10 ADD MSTORE PUSH1 0x1 DUP3 ADD SWAP2 POP PUSH1 0x20 DUP2 ADD SWAP1 POP PUSH2 0x1FC9 JUMP JUMPDEST DUP1 DUP9 ADD SWAP6 POP POP POP JUMPDEST POP POP POP SWAP3 SWAP2 POP POP JUMP JUMPDEST PUSH0 PUSH1 0x60 DUP3 ADD SWAP1 POP PUSH2 0x200C PUSH0 DUP4 ADD DUP7 PUSH2 0x1A57 JUMP JUMPDEST DUP2 DUP2 SUB PUSH1 0x20 DUP4 ADD MSTORE PUSH2 0x201E DUP2 DUP6 PUSH2 0x1F78 JUMP JUMPDEST SWAP1 POP DUP2 DUP2 SUB PUSH1 0x40 DUP4 ADD MSTORE PUSH2 0x2032 DUP2 DUP5 PUSH2 0x1F78 JUMP JUMPDEST SWAP1 POP SWAP5 SWAP4 POP POP POP POP JUMP INVALID LOG2 PUSH5 0x6970667358 0x22 SLT KECCAK256 PUSH8 0x7C7E3C89B7DAE27 0xA5 0xEE 0xE9 SWAP6 BALANCE MSTORE 0xFC 0xD 0xB1 DUP8 0xDC LOG4 DUP5 0xC ISZERO 0xA7 0xB1 SWAP14 EXTCODESIZE SMOD DUP3 STATICCALL 0xCD PUSH5 0x736F6C6343 STOP ADDMOD BYTE STOP CALLER "
	},
	"abi": [
		{
			"inputs": [
				{
					"internalType": "address payable",
					"name": "_wallet",
					"type": "address"
				},
				{
					"internalType": "uint256",
					"name": "_percentage",
					"type": "uint256"
				},
				{
					"internalType": "string",
					"name": "_saleDeedIpfsHash",
					"type": "string"
				},
				{
					"internalType": "string",
					"name": "_email",
					"type": "string"
				}
			],
			"name": "addBeneficiary",
			"outputs": [],
			"stateMutability": "nonpayable",
			"type": "function"
		},
		{
			"anonymous": false,
			"inputs": [
				{
					"indexed": true,
					"internalType": "address",
					"name": "testator",
					"type": "address"
				},
				{
					"indexed": false,
					"internalType": "address",
					"name": "beneficiary",
					"type": "address"
				},
				{
					"indexed": false,
					"internalType": "uint256",
					"name": "percentage",
					"type": "uint256"
				}
			],
			"name": "BeneficiaryAdded",
			"type": "event"
		},
		{
			"inputs": [],
			"name": "confirmAlive",
			"outputs": [],
			"stateMutability": "nonpayable",
			"type": "function"
		},
		{
			"inputs": [
				{
					"internalType": "string",
					"name": "_firstName",
					"type": "string"
				},
				{
					"internalType": "string",
					"name": "_lastName",
					"type": "string"
				},
				{
					"internalType": "string",
					"name": "_txnHash",
					"type": "string"
				}
			],
			"name": "createWill",
			"outputs": [],
			"stateMutability": "payable",
			"type": "function"
		},
		{
			"inputs": [
				{
					"internalType": "address",
					"name": "user",
					"type": "address"
				}
			],
			"name": "executeWill",
			"outputs": [],
			"stateMutability": "nonpayable",
			"type": "function"
		},
		{
			"anonymous": false,
			"inputs": [
				{
					"indexed": true,
					"internalType": "address",
					"name": "beneficiary",
					"type": "address"
				},
				{
					"indexed": false,
					"internalType": "uint256",
					"name": "amount",
					"type": "uint256"
				},
				{
					"indexed": false,
					"internalType": "string",
					"name": "saleDeedIpfsHash",
					"type": "string"
				},
				{
					"indexed": false,
					"internalType": "string",
					"name": "email",
					"type": "string"
				}
			],
			"name": "FundsDisbursed",
			"type": "event"
		},
		{
			"anonymous": false,
			"inputs": [
				{
					"indexed": true,
					"internalType": "address",
					"name": "testator",
					"type": "address"
				},
				{
					"indexed": false,
					"internalType": "uint256",
					"name": "lockedFunds",
					"type": "uint256"
				},
				{
					"indexed": false,
					"internalType": "string",
					"name": "transactionHash",
					"type": "string"
				}
			],
			"name": "WillCreated",
			"type": "event"
		},
		{
			"anonymous": false,
			"inputs": [
				{
					"indexed": true,
					"internalType": "address",
					"name": "testator",
					"type": "address"
				}
			],
			"name": "WillExecuted",
			"type": "event"
		},
		{
			"inputs": [
				{
					"internalType": "address",
					"name": "user",
					"type": "address"
				}
			],
			"name": "getWillTransactionHash",
			"outputs": [
				{
					"internalType": "string",
					"name": "",
					"type": "string"
				}
			],
			"stateMutability": "view",
			"type": "function"
		},
		{
			"inputs": [
				{
					"internalType": "address",
					"name": "",
					"type": "address"
				}
			],
			"name": "hasWill",
			"outputs": [
				{
					"internalType": "bool",
					"name": "",
					"type": "bool"
				}
			],
			"stateMutability": "view",
			"type": "function"
		},
		{
			"inputs": [
				{
					"internalType": "address",
					"name": "user",
					"type": "address"
				}
			],
			"name": "isWillExecuted",
			"outputs": [
				{
					"internalType": "bool",
					"name": "",
					"type": "bool"
				}
			],
			"stateMutability": "view",
			"type": "function"
		}
	],
	"storageLayout": {
		"storage": [
			{
				"astId": 36,
				"contract": "MultiWillContract.sol:MultiWillContract",
				"label": "wills",
				"offset": 0,
				"slot": "0",
				"type": "t_mapping(t_address,t_struct(Will)31_storage)"
			},
			{
				"astId": 40,
				"contract": "MultiWillContract.sol:MultiWillContract",
				"label": "hasWill",
				"offset": 0,
				"slot": "1",
				"type": "t_mapping(t_address,t_bool)"
			}
		],
		"types": {
			"t_address": {
				"encoding": "inplace",
				"label": "address",
				"numberOfBytes": "20"
			},
			"t_address_payable": {
				"encoding": "inplace",
				"label": "address payable",
				"numberOfBytes": "20"
			},
			"t_array(t_struct(Beneficiary)10_storage)dyn_storage": {
				"base": "t_struct(Beneficiary)10_storage",
				"encoding": "dynamic_array",
				"label": "struct MultiWillContract.Beneficiary[]",
				"numberOfBytes": "32"
			},
			"t_bool": {
				"encoding": "inplace",
				"label": "bool",
				"numberOfBytes": "1"
			},
			"t_mapping(t_address,t_bool)": {
				"encoding": "mapping",
				"key": "t_address",
				"label": "mapping(address => bool)",
				"numberOfBytes": "32",
				"value": "t_bool"
			},
			"t_mapping(t_address,t_struct(Will)31_storage)": {
				"encoding": "mapping",
				"key": "t_address",
				"label": "mapping(address => struct MultiWillContract.Will)",
				"numberOfBytes": "32",
				"value": "t_struct(Will)31_storage"
			},
			"t_string_storage": {
				"encoding": "bytes",
				"label": "string",
				"numberOfBytes": "32"
			},
			"t_struct(Beneficiary)10_storage": {
				"encoding": "inplace",
				"label": "struct MultiWillContract.Beneficiary",
				"members": [
					{
						"astId": 3,
						"contract": "MultiWillContract.sol:MultiWillContract",
						"label": "wallet",
						"offset": 0,
						"slot": "0",
						"type": "t_address_payable"
					},
					{
						"astId": 5,
						"contract": "MultiWillContract.sol:MultiWillContract",
						"label": "percentage",
						"offset": 0,
						"slot": "1",
						"type": "t_uint256"
					},
					{
						"astId": 7,
						"contract": "MultiWillContract.sol:MultiWillContract",
						"label": "saleDeedIpfsHash",
						"offset": 0,
						"slot": "2",
						"type": "t_string_storage"
					},
					{
						"astId": 9,
						"contract": "MultiWillContract.sol:MultiWillContract",
						"label": "email",
						"offset": 0,
						"slot": "3",
						"type": "t_string_storage"
					}
				],
				"numberOfBytes": "128"
			},
			"t_struct(Will)31_storage": {
				"encoding": "inplace",
				"label": "struct MultiWillContract.Will",
				"members": [
					{
						"astId": 12,
						"contract": "MultiWillContract.sol:MultiWillContract",
						"label": "testator",
						"offset": 0,
						"slot": "0",
						"type": "t_address"
					},
					{
						"astId": 14,
						"contract": "MultiWillContract.sol:MultiWillContract",
						"label": "firstName",
						"offset": 0,
						"slot": "1",
						"type": "t_string_storage"
					},
					{
						"astId": 16,
						"contract": "MultiWillContract.sol:MultiWillContract",
						"label": "lastName",
						"offset": 0,
						"slot": "2",
						"type": "t_string_storage"
					},
					{
						"astId": 18,
						"contract": "MultiWillContract.sol:MultiWillContract",
						"label": "totalLocked",
						"offset": 0,
						"slot": "3",
						"type": "t_uint256"
					},
					{
						"astId": 20,
						"contract": "MultiWillContract.sol:MultiWillContract",
						"label": "lastAliveTime",
						"offset": 0,
						"slot": "4",
						"type": "t_uint256"
					},
					{
						"astId": 22,
						"contract": "MultiWillContract.sol:MultiWillContract",
						"label": "proofOfLifeInterval",
						"offset": 0,
						"slot": "5",
						"type": "t_uint256"
					},
					{
						"astId": 24,
						"contract": "MultiWillContract.sol:MultiWillContract",
						"label": "isDeceased",
						"offset": 0,
						"slot": "6",
						"type": "t_bool"
					},
					{
						"astId": 26,
						"contract": "MultiWillContract.sol:MultiWillContract",
						"label": "transactionHash",
						"offset": 0,
						"slot": "7",
						"type": "t_string_storage"
					},
					{
						"astId": 30,
						"contract": "MultiWillContract.sol:MultiWillContract",
						"label": "beneficiaries",
						"offset": 0,
						"slot": "8",
						"type": "t_array(t_struct(Beneficiary)10_storage)dyn_storage"
					}
				],
				"numberOfBytes": "288"
			},
			"t_uint256": {
				"encoding": "inplace",
				"label": "uint256",
				"numberOfBytes": "32"
			}
		}
	},
	"web3Deploy": "var multiwillcontractContract = new web3.eth.Contract([{\"anonymous\":false,\"inputs\":[{\"indexed\":true,\"internalType\":\"address\",\"name\":\"testator\",\"type\":\"address\"},{\"indexed\":false,\"internalType\":\"address\",\"name\":\"beneficiary\",\"type\":\"address\"},{\"indexed\":false,\"internalType\":\"uint256\",\"name\":\"percentage\",\"type\":\"uint256\"}],\"name\":\"BeneficiaryAdded\",\"type\":\"event\"},{\"anonymous\":false,\"inputs\":[{\"indexed\":true,\"internalType\":\"address\",\"name\":\"beneficiary\",\"type\":\"address\"},{\"indexed\":false,\"internalType\":\"uint256\",\"name\":\"amount\",\"type\":\"uint256\"},{\"indexed\":false,\"internalType\":\"string\",\"name\":\"saleDeedIpfsHash\",\"type\":\"string\"},{\"indexed\":false,\"internalType\":\"string\",\"name\":\"email\",\"type\":\"string\"}],\"name\":\"FundsDisbursed\",\"type\":\"event\"},{\"anonymous\":false,\"inputs\":[{\"indexed\":true,\"internalType\":\"address\",\"name\":\"testator\",\"type\":\"address\"},{\"indexed\":false,\"internalType\":\"uint256\",\"name\":\"lockedFunds\",\"type\":\"uint256\"},{\"indexed\":false,\"internalType\":\"string\",\"name\":\"transactionHash\",\"type\":\"string\"}],\"name\":\"WillCreated\",\"type\":\"event\"},{\"anonymous\":false,\"inputs\":[{\"indexed\":true,\"internalType\":\"address\",\"name\":\"testator\",\"type\":\"address\"}],\"name\":\"WillExecuted\",\"type\":\"event\"},{\"inputs\":[{\"internalType\":\"address payable\",\"name\":\"_wallet\",\"type\":\"address\"},{\"internalType\":\"uint256\",\"name\":\"_percentage\",\"type\":\"uint256\"},{\"internalType\":\"string\",\"name\":\"_saleDeedIpfsHash\",\"type\":\"string\"},{\"internalType\":\"string\",\"name\":\"_email\",\"type\":\"string\"}],\"name\":\"addBeneficiary\",\"outputs\":[],\"stateMutability\":\"nonpayable\",\"type\":\"function\"},{\"inputs\":[],\"name\":\"confirmAlive\",\"outputs\":[],\"stateMutability\":\"nonpayable\",\"type\":\"function\"},{\"inputs\":[{\"internalType\":\"string\",\"name\":\"_firstName\",\"type\":\"string\"},{\"internalType\":\"string\",\"name\":\"_lastName\",\"type\":\"string\"},{\"internalType\":\"string\",\"name\":\"_txnHash\",\"type\":\"string\"}],\"name\":\"createWill\",\"outputs\":[],\"stateMutability\":\"payable\",\"type\":\"function\"},{\"inputs\":[{\"internalType\":\"address\",\"name\":\"user\",\"type\":\"address\"}],\"name\":\"executeWill\",\"outputs\":[],\"stateMutability\":\"nonpayable\",\"type\":\"function\"},{\"inputs\":[{\"internalType\":\"address\",\"name\":\"user\",\"type\":\"address\"}],\"name\":\"getWillTransactionHash\",\"outputs\":[{\"internalType\":\"string\",\"name\":\"\",\"type\":\"string\"}],\"stateMutability\":\"view\",\"type\":\"function\"},{\"inputs\":[{\"internalType\":\"address\",\"name\":\"\",\"type\":\"address\"}],\"name\":\"hasWill\",\"outputs\":[{\"internalType\":\"bool\",\"name\":\"\",\"type\":\"bool\"}],\"stateMutability\":\"view\",\"type\":\"function\"},{\"inputs\":[{\"internalType\":\"address\",\"name\":\"user\",\"type\":\"address\"}],\"name\":\"isWillExecuted\",\"outputs\":[{\"internalType\":\"bool\",\"name\":\"\",\"type\":\"bool\"}],\"stateMutability\":\"view\",\"type\":\"function\"}]);\nvar multiwillcontract = multiwillcontractContract.deploy({\n     data: '0x6080604052348015600e575f80fd5b506120728061001c5f395ff3fe60806040526004361061006f575f3560e01c8063549cc7b81161004d578063549cc7b8146100f35780636f9b65f01461012f578063e7dda55514610145578063e854d135146101815761006f565b8063203be4fb14610073578063293afa9e146100af5780634ebde6d3146100cb575b5f80fd5b34801561007e575f80fd5b506100996004803603810190610094919061128e565b6101a9565b6040516100a69190611329565b60405180910390f35b6100c960048036038101906100c49190611475565b610301565b005b3480156100d6575f80fd5b506100f160048036038101906100ec9190611587565b6106ff565b005b3480156100fe575f80fd5b506101196004803603810190610114919061128e565b610acc565b604051610126919061163d565b60405180910390f35b34801561013a575f80fd5b50610143610ae9565b005b348015610150575f80fd5b5061016b6004803603810190610166919061128e565b610c44565b604051610178919061163d565b60405180910390f35b34801561018c575f80fd5b506101a760048036038101906101a2919061128e565b610d21565b005b606060015f8373ffffffffffffffffffffffffffffffffffffffff1673ffffffffffffffffffffffffffffffffffffffff1681526020019081526020015f205f9054906101000a900460ff16610234576040517f08c379a000000000000000000000000000000000000000000000000000000000815260040161022b906116a0565b60405180910390fd5b5f808373ffffffffffffffffffffffffffffffffffffffff1673ffffffffffffffffffffffffffffffffffffffff1681526020019081526020015f20600701805461027e906116eb565b80601f01602080910402602001604051908101604052809291908181526020018280546102aa906116eb565b80156102f55780601f106102cc576101008083540402835291602001916102f5565b820191905f5260205f20905b8154815290600101906020018083116102d857829003601f168201915b50505050509050919050565b60015f3373ffffffffffffffffffffffffffffffffffffffff1673ffffffffffffffffffffffffffffffffffffffff1681526020019081526020015f205f9054906101000a900460ff161561038b576040517f08c379a000000000000000000000000000000000000000000000000000000000815260040161038290611765565b60405180910390fd5b5f34116103cd576040517f08c379a00000000000000000000000000000000000000000000000000000000081526004016103c4906117cd565b60405180910390fd5b335f803373ffffffffffffffffffffffffffffffffffffffff1673ffffffffffffffffffffffffffffffffffffffff1681526020019081526020015f205f015f6101000a81548173ffffffffffffffffffffffffffffffffffffffff021916908373ffffffffffffffffffffffffffffffffffffffff160217905550825f803373ffffffffffffffffffffffffffffffffffffffff1673ffffffffffffffffffffffffffffffffffffffff1681526020019081526020015f2060010190816104959190611988565b50815f803373ffffffffffffffffffffffffffffffffffffffff1673ffffffffffffffffffffffffffffffffffffffff1681526020019081526020015f2060020190816104e29190611988565b50345f803373ffffffffffffffffffffffffffffffffffffffff1673ffffffffffffffffffffffffffffffffffffffff1681526020019081526020015f2060030181905550425f803373ffffffffffffffffffffffffffffffffffffffff1673ffffffffffffffffffffffffffffffffffffffff1681526020019081526020015f20600401819055506301e133805f803373ffffffffffffffffffffffffffffffffffffffff1673ffffffffffffffffffffffffffffffffffffffff1681526020019081526020015f20600501819055505f805f3373ffffffffffffffffffffffffffffffffffffffff1673ffffffffffffffffffffffffffffffffffffffff1681526020019081526020015f206006015f6101000a81548160ff021916908315150217905550805f803373ffffffffffffffffffffffffffffffffffffffff1673ffffffffffffffffffffffffffffffffffffffff1681526020019081526020015f2060070190816106559190611988565b506001805f3373ffffffffffffffffffffffffffffffffffffffff1673ffffffffffffffffffffffffffffffffffffffff1681526020019081526020015f205f6101000a81548160ff0219169083151502179055503373ffffffffffffffffffffffffffffffffffffffff167fca05e37fc67c80782e9fb53d79d942aabd6358450ac35ffb3fd610b48745e24c34836040516106f2929190611a66565b60405180910390a2505050565b60015f3373ffffffffffffffffffffffffffffffffffffffff1673ffffffffffffffffffffffffffffffffffffffff1681526020019081526020015f205f9054906101000a900460ff16610788576040517f08c379a000000000000000000000000000000000000000000000000000000000815260040161077f90611ade565b60405180910390fd5b5f73ffffffffffffffffffffffffffffffffffffffff168473ffffffffffffffffffffffffffffffffffffffff16036107f6576040517f08c379a00000000000000000000000000000000000000000000000000000000081526004016107ed90611b46565b60405180910390fd5b5f83118015610806575060648311155b610845576040517f08c379a000000000000000000000000000000000000000000000000000000000815260040161083c90611bae565b60405180910390fd5b5f805b5f803373ffffffffffffffffffffffffffffffffffffffff1673ffffffffffffffffffffffffffffffffffffffff1681526020019081526020015f206008018054905081101561090d575f803373ffffffffffffffffffffffffffffffffffffffff1673ffffffffffffffffffffffffffffffffffffffff1681526020019081526020015f2060080181815481106108e3576108e2611bcc565b5b905f5260205f20906004020160010154826108fe9190611c26565b91508080600101915050610848565b506064848261091c9190611c26565b111561095d576040517f08c379a000000000000000000000000000000000000000000000000000000000815260040161095490611ca3565b60405180910390fd5b5f803373ffffffffffffffffffffffffffffffffffffffff1673ffffffffffffffffffffffffffffffffffffffff1681526020019081526020015f2060080160405180608001604052808773ffffffffffffffffffffffffffffffffffffffff16815260200186815260200185815260200184815250908060018154018082558091505060019003905f5260205f2090600402015f909190919091505f820151815f015f6101000a81548173ffffffffffffffffffffffffffffffffffffffff021916908373ffffffffffffffffffffffffffffffffffffffff160217905550602082015181600101556040820151816002019081610a5c9190611988565b506060820151816003019081610a729190611988565b5050503373ffffffffffffffffffffffffffffffffffffffff167f5d081d791b64899adab031015397ef8d7600501212ef97573b9e50f8c9bb6d9b8686604051610abd929190611d13565b60405180910390a25050505050565b6001602052805f5260405f205f915054906101000a900460ff1681565b60015f3373ffffffffffffffffffffffffffffffffffffffff1673ffffffffffffffffffffffffffffffffffffffff1681526020019081526020015f205f9054906101000a900460ff16610b72576040517f08c379a0000000000000000000000000000000000000000000000000000000008152600401610b6990611d84565b60405180910390fd5b5f803373ffffffffffffffffffffffffffffffffffffffff1673ffffffffffffffffffffffffffffffffffffffff1681526020019081526020015f206006015f9054906101000a900460ff1615610bfe576040517f08c379a0000000000000000000000000000000000000000000000000000000008152600401610bf590611dec565b60405180910390fd5b425f803373ffffffffffffffffffffffffffffffffffffffff1673ffffffffffffffffffffffffffffffffffffffff1681526020019081526020015f2060040181905550565b5f60015f8373ffffffffffffffffffffffffffffffffffffffff1673ffffffffffffffffffffffffffffffffffffffff1681526020019081526020015f205f9054906101000a900460ff16610cce576040517f08c379a0000000000000000000000000000000000000000000000000000000008152600401610cc5906116a0565b60405180910390fd5b5f808373ffffffffffffffffffffffffffffffffffffffff1673ffffffffffffffffffffffffffffffffffffffff1681526020019081526020015f206006015f9054906101000a900460ff169050919050565b60015f8273ffffffffffffffffffffffffffffffffffffffff1673ffffffffffffffffffffffffffffffffffffffff1681526020019081526020015f205f9054906101000a900460ff16610daa576040517f08c379a0000000000000000000000000000000000000000000000000000000008152600401610da1906116a0565b60405180910390fd5b5f808273ffffffffffffffffffffffffffffffffffffffff1673ffffffffffffffffffffffffffffffffffffffff1681526020019081526020015f20600501545f808373ffffffffffffffffffffffffffffffffffffffff1673ffffffffffffffffffffffffffffffffffffffff1681526020019081526020015f2060040154610e349190611c26565b4211610e75576040517f08c379a0000000000000000000000000000000000000000000000000000000008152600401610e6c90611e54565b60405180910390fd5b5f808273ffffffffffffffffffffffffffffffffffffffff1673ffffffffffffffffffffffffffffffffffffffff1681526020019081526020015f206006015f9054906101000a900460ff1615610f01576040517f08c379a0000000000000000000000000000000000000000000000000000000008152600401610ef890611dec565b60405180910390fd5b60015f808373ffffffffffffffffffffffffffffffffffffffff1673ffffffffffffffffffffffffffffffffffffffff1681526020019081526020015f206006015f6101000a81548160ff0219169083151502179055505f805f8373ffffffffffffffffffffffffffffffffffffffff1673ffffffffffffffffffffffffffffffffffffffff1681526020019081526020015f206003015490505f8111610fdd576040517f08c379a0000000000000000000000000000000000000000000000000000000008152600401610fd490611ebc565b60405180910390fd5b5f5b5f808473ffffffffffffffffffffffffffffffffffffffff1673ffffffffffffffffffffffffffffffffffffffff1681526020019081526020015f2060080180549050811015611197575f805f8573ffffffffffffffffffffffffffffffffffffffff1673ffffffffffffffffffffffffffffffffffffffff1681526020019081526020015f20600801828154811061107b5761107a611bcc565b5b905f5260205f20906004020190505f606482600101548561109c9190611eda565b6110a69190611f48565b9050815f015f9054906101000a900473ffffffffffffffffffffffffffffffffffffffff1673ffffffffffffffffffffffffffffffffffffffff166108fc8290811502906040515f60405180830381858888f1935050505015801561110d573d5f803e3d5ffd5b50815f015f9054906101000a900473ffffffffffffffffffffffffffffffffffffffff1673ffffffffffffffffffffffffffffffffffffffff167fceb720b06c310edc215bee81670832bb918ba1199f401716364414ddb9b816a782846002018560030160405161118093929190611ff9565b60405180910390a250508080600101915050610fdf565b505f805f8473ffffffffffffffffffffffffffffffffffffffff1673ffffffffffffffffffffffffffffffffffffffff1681526020019081526020015f20600301819055508173ffffffffffffffffffffffffffffffffffffffff167f16346f65adf8d84422b57ad74cb5607bf6c9e55c3c1fea66344057e5bba8a7ee60405160405180910390a25050565b5f604051905090565b5f80fd5b5f80fd5b5f73ffffffffffffffffffffffffffffffffffffffff82169050919050565b5f61125d82611234565b9050919050565b61126d81611253565b8114611277575f80fd5b50565b5f8135905061128881611264565b92915050565b5f602082840312156112a3576112a261122c565b5b5f6112b08482850161127a565b91505092915050565b5f81519050919050565b5f82825260208201905092915050565b8281835e5f83830152505050565b5f601f19601f8301169050919050565b5f6112fb826112b9565b61130581856112c3565b93506113158185602086016112d3565b61131e816112e1565b840191505092915050565b5f6020820190508181035f83015261134181846112f1565b905092915050565b5f80fd5b5f80fd5b7f4e487b71000000000000000000000000000000000000000000000000000000005f52604160045260245ffd5b611387826112e1565b810181811067ffffffffffffffff821117156113a6576113a5611351565b5b80604052505050565b5f6113b8611223565b90506113c4828261137e565b919050565b5f67ffffffffffffffff8211156113e3576113e2611351565b5b6113ec826112e1565b9050602081019050919050565b828183375f83830152505050565b5f611419611414846113c9565b6113af565b9050828152602081018484840111156114355761143461134d565b5b6114408482856113f9565b509392505050565b5f82601f83011261145c5761145b611349565b5b813561146c848260208601611407565b91505092915050565b5f805f6060848603121561148c5761148b61122c565b5b5f84013567ffffffffffffffff8111156114a9576114a8611230565b5b6114b586828701611448565b935050602084013567ffffffffffffffff8111156114d6576114d5611230565b5b6114e286828701611448565b925050604084013567ffffffffffffffff81111561150357611502611230565b5b61150f86828701611448565b9150509250925092565b5f61152382611234565b9050919050565b61153381611519565b811461153d575f80fd5b50565b5f8135905061154e8161152a565b92915050565b5f819050919050565b61156681611554565b8114611570575f80fd5b50565b5f813590506115818161155d565b92915050565b5f805f806080858703121561159f5761159e61122c565b5b5f6115ac87828801611540565b94505060206115bd87828801611573565b935050604085013567ffffffffffffffff8111156115de576115dd611230565b5b6115ea87828801611448565b925050606085013567ffffffffffffffff81111561160b5761160a611230565b5b61161787828801611448565b91505092959194509250565b5f8115159050919050565b61163781611623565b82525050565b5f6020820190506116505f83018461162e565b92915050565b7f4e6f2077696c6c20666f756e64210000000000000000000000000000000000005f82015250565b5f61168a600e836112c3565b915061169582611656565b602082019050919050565b5f6020820190508181035f8301526116b78161167e565b9050919050565b7f4e487b71000000000000000000000000000000000000000000000000000000005f52602260045260245ffd5b5f600282049050600182168061170257607f821691505b602082108103611715576117146116be565b5b50919050565b7f596f7520616c7265616479206861766520612077696c6c2100000000000000005f82015250565b5f61174f6018836112c3565b915061175a8261171b565b602082019050919050565b5f6020820190508181035f83015261177c81611743565b9050919050565b7f4d757374206c6f636b20455448210000000000000000000000000000000000005f82015250565b5f6117b7600e836112c3565b91506117c282611783565b602082019050919050565b5f6020820190508181035f8301526117e4816117ab565b9050919050565b5f819050815f5260205f209050919050565b5f6020601f8301049050919050565b5f82821b905092915050565b5f600883026118477fffffffffffffffffffffffffffffffffffffffffffffffffffffffffffffffff8261180c565b611851868361180c565b95508019841693508086168417925050509392505050565b5f819050919050565b5f61188c61188761188284611554565b611869565b611554565b9050919050565b5f819050919050565b6118a583611872565b6118b96118b182611893565b848454611818565b825550505050565b5f90565b6118cd6118c1565b6118d881848461189c565b505050565b5b818110156118fb576118f05f826118c5565b6001810190506118de565b5050565b601f82111561194057611911816117eb565b61191a846117fd565b81016020851015611929578190505b61193d611935856117fd565b8301826118dd565b50505b505050565b5f82821c905092915050565b5f6119605f1984600802611945565b1980831691505092915050565b5f6119788383611951565b9150826002028217905092915050565b611991826112b9565b67ffffffffffffffff8111156119aa576119a9611351565b5b6119b482546116eb565b6119bf8282856118ff565b5f60209050601f8311600181146119f0575f84156119de578287015190505b6119e8858261196d565b865550611a4f565b601f1984166119fe866117eb565b5f5b82811015611a2557848901518255600182019150602085019450602081019050611a00565b86831015611a425784890151611a3e601f891682611951565b8355505b6001600288020188555050505b505050505050565b611a6081611554565b82525050565b5f604082019050611a795f830185611a57565b8181036020830152611a8b81846112f1565b90509392505050565b7f596f75206e65656420746f2063726561746520612077696c6c206669727374005f82015250565b5f611ac8601f836112c3565b9150611ad382611a94565b602082019050919050565b5f6020820190508181035f830152611af581611abc565b9050919050565b7f496e76616c69642077616c6c65742061646472657373000000000000000000005f82015250565b5f611b306016836112c3565b9150611b3b82611afc565b602082019050919050565b5f6020820190508181035f830152611b5d81611b24565b9050919050565b7f496e76616c69642070657263656e7461676500000000000000000000000000005f82015250565b5f611b986012836112c3565b9150611ba382611b64565b602082019050919050565b5f6020820190508181035f830152611bc581611b8c565b9050919050565b7f4e487b71000000000000000000000000000000000000000000000000000000005f52603260045260245ffd5b7f4e487b71000000000000000000000000000000000000000000000000000000005f52601160045260245ffd5b5f611c3082611554565b9150611c3b83611554565b9250828201905080821115611c5357611c52611bf9565b5b92915050565b7f546f74616c20616c6c6f636174696f6e206578636565647320313030250000005f82015250565b5f611c8d601d836112c3565b9150611c9882611c59565b602082019050919050565b5f6020820190508181035f830152611cba81611c81565b9050919050565b5f611cdb611cd6611cd184611234565b611869565b611234565b9050919050565b5f611cec82611cc1565b9050919050565b5f611cfd82611ce2565b9050919050565b611d0d81611cf3565b82525050565b5f604082019050611d265f830185611d04565b611d336020830184611a57565b9392505050565b7f596f752068617665206e6f74206372656174656420612077696c6c00000000005f82015250565b5f611d6e601b836112c3565b9150611d7982611d3a565b602082019050919050565b5f6020820190508181035f830152611d9b81611d62565b9050919050565b7f57696c6c20616c726561647920657865637574656421000000000000000000005f82015250565b5f611dd66016836112c3565b9150611de182611da2565b602082019050919050565b5f6020820190508181035f830152611e0381611dca565b9050919050565b7f4f776e6572206973207374696c6c20616c6976652100000000000000000000005f82015250565b5f611e3e6015836112c3565b9150611e4982611e0a565b602082019050919050565b5f6020820190508181035f830152611e6b81611e32565b9050919050565b7f4e6f2045544820746f20646973747269627574650000000000000000000000005f82015250565b5f611ea66014836112c3565b9150611eb182611e72565b602082019050919050565b5f6020820190508181035f830152611ed381611e9a565b9050919050565b5f611ee482611554565b9150611eef83611554565b9250828202611efd81611554565b91508282048414831517611f1457611f13611bf9565b5b5092915050565b7f4e487b71000000000000000000000000000000000000000000000000000000005f52601260045260245ffd5b5f611f5282611554565b9150611f5d83611554565b925082611f6d57611f6c611f1b565b5b828204905092915050565b5f8154611f84816116eb565b611f8e81866112c3565b9450600182165f8114611fa85760018114611fbe57611ff0565b60ff198316865281151560200286019350611ff0565b611fc7856117eb565b5f5b83811015611fe857815481890152600182019150602081019050611fc9565b808801955050505b50505092915050565b5f60608201905061200c5f830186611a57565b818103602083015261201e8185611f78565b905081810360408301526120328184611f78565b905094935050505056fea26469706673582212206707c7e3c89b7dae27a5eee9953152fc0db187dca4840c15a7b19d3b0782facd64736f6c634300081a0033', \n     arguments: [\n     ]\n}).send({\n     from: web3.eth.accounts[0], \n     gas: '4700000'\n   }, function (e, contract){\n    console.log(e, contract);\n    if (typeof contract.address !== 'undefined') {\n         console.log('Contract mined! address: ' + contract.address + ' transactionHash: ' + contract.transactionHash);\n    }\n })",
	"functionHashes": {
		"4ebde6d3": "addBeneficiary(address,uint256,string,string)",
		"6f9b65f0": "confirmAlive()",
		"293afa9e": "createWill(string,string,string)",
		"e854d135": "executeWill(address)",
		"203be4fb": "getWillTransactionHash(address)",
		"549cc7b8": "hasWill(address)",
		"e7dda555": "isWillExecuted(address)"
	},
	"gasEstimates": {
		"Creation": {
			"codeDepositCost": "1661200",
			"executionCost": "1741",
			"totalCost": "1662941"
		},
		"External": {
			"addBeneficiary(address,uint256,string,string)": "infinite",
			"confirmAlive()": "26858",
			"createWill(string,string,string)": "infinite",
			"executeWill(address)": "infinite",
			"getWillTransactionHash(address)": "infinite",
			"hasWill(address)": "2833",
			"isWillExecuted(address)": "5160"
		}
	},
	"devdoc": {
		"kind": "dev",
		"methods": {
			"addBeneficiary(address,uint256,string,string)": {
				"details": "Adds a beneficiary to the caller's will.",
				"params": {
					"_email": "Email of the beneficiary.",
					"_percentage": "Share of ETH to be allocated.",
					"_saleDeedIpfsHash": "IPFS hash of the sale deed document assigned to the beneficiary.",
					"_wallet": "Address of the beneficiary."
				}
			},
			"confirmAlive()": {
				"details": "Confirms the testator is alive."
			},
			"createWill(string,string,string)": {
				"details": "Creates a new will for the sender.",
				"params": {
					"_firstName": "First name of the testator.",
					"_lastName": "Last name of the testator.",
					"_txnHash": "Transaction hash passed from the frontend."
				}
			},
			"executeWill(address)": {
				"details": "Executes the will by distributing ETH and notifying beneficiaries."
			},
			"getWillTransactionHash(address)": {
				"details": "Retrieves the transaction hash of a user's will."
			},
			"isWillExecuted(address)": {
				"details": "Checks if the will has already been executed."
			}
		},
		"version": 1
	},
	"userdoc": {
		"kind": "user",
		"methods": {},
		"version": 1
	},
	"Runtime Bytecode": {
		"immutableReferences": {},
		"linkReferences": {},
		"object": "60806040526004361061006f575f3560e01c8063549cc7b81161004d578063549cc7b8146100f35780636f9b65f01461012f578063e7dda55514610145578063e854d135146101815761006f565b8063203be4fb14610073578063293afa9e146100af5780634ebde6d3146100cb575b5f80fd5b34801561007e575f80fd5b506100996004803603810190610094919061128e565b6101a9565b6040516100a69190611329565b60405180910390f35b6100c960048036038101906100c49190611475565b610301565b005b3480156100d6575f80fd5b506100f160048036038101906100ec9190611587565b6106ff565b005b3480156100fe575f80fd5b506101196004803603810190610114919061128e565b610acc565b604051610126919061163d565b60405180910390f35b34801561013a575f80fd5b50610143610ae9565b005b348015610150575f80fd5b5061016b6004803603810190610166919061128e565b610c44565b604051610178919061163d565b60405180910390f35b34801561018c575f80fd5b506101a760048036038101906101a2919061128e565b610d21565b005b606060015f8373ffffffffffffffffffffffffffffffffffffffff1673ffffffffffffffffffffffffffffffffffffffff1681526020019081526020015f205f9054906101000a900460ff16610234576040517f08c379a000000000000000000000000000000000000000000000000000000000815260040161022b906116a0565b60405180910390fd5b5f808373ffffffffffffffffffffffffffffffffffffffff1673ffffffffffffffffffffffffffffffffffffffff1681526020019081526020015f20600701805461027e906116eb565b80601f01602080910402602001604051908101604052809291908181526020018280546102aa906116eb565b80156102f55780601f106102cc576101008083540402835291602001916102f5565b820191905f5260205f20905b8154815290600101906020018083116102d857829003601f168201915b50505050509050919050565b60015f3373ffffffffffffffffffffffffffffffffffffffff1673ffffffffffffffffffffffffffffffffffffffff1681526020019081526020015f205f9054906101000a900460ff161561038b576040517f08c379a000000000000000000000000000000000000000000000000000000000815260040161038290611765565b60405180910390fd5b5f34116103cd576040517f08c379a00000000000000000000000000000000000000000000000000000000081526004016103c4906117cd565b60405180910390fd5b335f803373ffffffffffffffffffffffffffffffffffffffff1673ffffffffffffffffffffffffffffffffffffffff1681526020019081526020015f205f015f6101000a81548173ffffffffffffffffffffffffffffffffffffffff021916908373ffffffffffffffffffffffffffffffffffffffff160217905550825f803373ffffffffffffffffffffffffffffffffffffffff1673ffffffffffffffffffffffffffffffffffffffff1681526020019081526020015f2060010190816104959190611988565b50815f803373ffffffffffffffffffffffffffffffffffffffff1673ffffffffffffffffffffffffffffffffffffffff1681526020019081526020015f2060020190816104e29190611988565b50345f803373ffffffffffffffffffffffffffffffffffffffff1673ffffffffffffffffffffffffffffffffffffffff1681526020019081526020015f2060030181905550425f803373ffffffffffffffffffffffffffffffffffffffff1673ffffffffffffffffffffffffffffffffffffffff1681526020019081526020015f20600401819055506301e133805f803373ffffffffffffffffffffffffffffffffffffffff1673ffffffffffffffffffffffffffffffffffffffff1681526020019081526020015f20600501819055505f805f3373ffffffffffffffffffffffffffffffffffffffff1673ffffffffffffffffffffffffffffffffffffffff1681526020019081526020015f206006015f6101000a81548160ff021916908315150217905550805f803373ffffffffffffffffffffffffffffffffffffffff1673ffffffffffffffffffffffffffffffffffffffff1681526020019081526020015f2060070190816106559190611988565b506001805f3373ffffffffffffffffffffffffffffffffffffffff1673ffffffffffffffffffffffffffffffffffffffff1681526020019081526020015f205f6101000a81548160ff0219169083151502179055503373ffffffffffffffffffffffffffffffffffffffff167fca05e37fc67c80782e9fb53d79d942aabd6358450ac35ffb3fd610b48745e24c34836040516106f2929190611a66565b60405180910390a2505050565b60015f3373ffffffffffffffffffffffffffffffffffffffff1673ffffffffffffffffffffffffffffffffffffffff1681526020019081526020015f205f9054906101000a900460ff16610788576040517f08c379a000000000000000000000000000000000000000000000000000000000815260040161077f90611ade565b60405180910390fd5b5f73ffffffffffffffffffffffffffffffffffffffff168473ffffffffffffffffffffffffffffffffffffffff16036107f6576040517f08c379a00000000000000000000000000000000000000000000000000000000081526004016107ed90611b46565b60405180910390fd5b5f83118015610806575060648311155b610845576040517f08c379a000000000000000000000000000000000000000000000000000000000815260040161083c90611bae565b60405180910390fd5b5f805b5f803373ffffffffffffffffffffffffffffffffffffffff1673ffffffffffffffffffffffffffffffffffffffff1681526020019081526020015f206008018054905081101561090d575f803373ffffffffffffffffffffffffffffffffffffffff1673ffffffffffffffffffffffffffffffffffffffff1681526020019081526020015f2060080181815481106108e3576108e2611bcc565b5b905f5260205f20906004020160010154826108fe9190611c26565b91508080600101915050610848565b506064848261091c9190611c26565b111561095d576040517f08c379a000000000000000000000000000000000000000000000000000000000815260040161095490611ca3565b60405180910390fd5b5f803373ffffffffffffffffffffffffffffffffffffffff1673ffffffffffffffffffffffffffffffffffffffff1681526020019081526020015f2060080160405180608001604052808773ffffffffffffffffffffffffffffffffffffffff16815260200186815260200185815260200184815250908060018154018082558091505060019003905f5260205f2090600402015f909190919091505f820151815f015f6101000a81548173ffffffffffffffffffffffffffffffffffffffff021916908373ffffffffffffffffffffffffffffffffffffffff160217905550602082015181600101556040820151816002019081610a5c9190611988565b506060820151816003019081610a729190611988565b5050503373ffffffffffffffffffffffffffffffffffffffff167f5d081d791b64899adab031015397ef8d7600501212ef97573b9e50f8c9bb6d9b8686604051610abd929190611d13565b60405180910390a25050505050565b6001602052805f5260405f205f915054906101000a900460ff1681565b60015f3373ffffffffffffffffffffffffffffffffffffffff1673ffffffffffffffffffffffffffffffffffffffff1681526020019081526020015f205f9054906101000a900460ff16610b72576040517f08c379a0000000000000000000000000000000000000000000000000000000008152600401610b6990611d84565b60405180910390fd5b5f803373ffffffffffffffffffffffffffffffffffffffff1673ffffffffffffffffffffffffffffffffffffffff1681526020019081526020015f206006015f9054906101000a900460ff1615610bfe576040517f08c379a0000000000000000000000000000000000000000000000000000000008152600401610bf590611dec565b60405180910390fd5b425f803373ffffffffffffffffffffffffffffffffffffffff1673ffffffffffffffffffffffffffffffffffffffff1681526020019081526020015f2060040181905550565b5f60015f8373ffffffffffffffffffffffffffffffffffffffff1673ffffffffffffffffffffffffffffffffffffffff1681526020019081526020015f205f9054906101000a900460ff16610cce576040517f08c379a0000000000000000000000000000000000000000000000000000000008152600401610cc5906116a0565b60405180910390fd5b5f808373ffffffffffffffffffffffffffffffffffffffff1673ffffffffffffffffffffffffffffffffffffffff1681526020019081526020015f206006015f9054906101000a900460ff169050919050565b60015f8273ffffffffffffffffffffffffffffffffffffffff1673ffffffffffffffffffffffffffffffffffffffff1681526020019081526020015f205f9054906101000a900460ff16610daa576040517f08c379a0000000000000000000000000000000000000000000000000000000008152600401610da1906116a0565b60405180910390fd5b5f808273ffffffffffffffffffffffffffffffffffffffff1673ffffffffffffffffffffffffffffffffffffffff1681526020019081526020015f20600501545f808373ffffffffffffffffffffffffffffffffffffffff1673ffffffffffffffffffffffffffffffffffffffff1681526020019081526020015f2060040154610e349190611c26565b4211610e75576040517f08c379a0000000000000000000000000000000000000000000000000000000008152600401610e6c90611e54565b60405180910390fd5b5f808273ffffffffffffffffffffffffffffffffffffffff1673ffffffffffffffffffffffffffffffffffffffff1681526020019081526020015f206006015f9054906101000a900460ff1615610f01576040517f08c379a0000000000000000000000000000000000000000000000000000000008152600401610ef890611dec565b60405180910390fd5b60015f808373ffffffffffffffffffffffffffffffffffffffff1673ffffffffffffffffffffffffffffffffffffffff1681526020019081526020015f206006015f6101000a81548160ff0219169083151502179055505f805f8373ffffffffffffffffffffffffffffffffffffffff1673ffffffffffffffffffffffffffffffffffffffff1681526020019081526020015f206003015490505f8111610fdd576040517f08c379a0000000000000000000000000000000000000000000000000000000008152600401610fd490611ebc565b60405180910390fd5b5f5b5f808473ffffffffffffffffffffffffffffffffffffffff1673ffffffffffffffffffffffffffffffffffffffff1681526020019081526020015f2060080180549050811015611197575f805f8573ffffffffffffffffffffffffffffffffffffffff1673ffffffffffffffffffffffffffffffffffffffff1681526020019081526020015f20600801828154811061107b5761107a611bcc565b5b905f5260205f20906004020190505f606482600101548561109c9190611eda565b6110a69190611f48565b9050815f015f9054906101000a900473ffffffffffffffffffffffffffffffffffffffff1673ffffffffffffffffffffffffffffffffffffffff166108fc8290811502906040515f60405180830381858888f1935050505015801561110d573d5f803e3d5ffd5b50815f015f9054906101000a900473ffffffffffffffffffffffffffffffffffffffff1673ffffffffffffffffffffffffffffffffffffffff167fceb720b06c310edc215bee81670832bb918ba1199f401716364414ddb9b816a782846002018560030160405161118093929190611ff9565b60405180910390a250508080600101915050610fdf565b505f805f8473ffffffffffffffffffffffffffffffffffffffff1673ffffffffffffffffffffffffffffffffffffffff1681526020019081526020015f20600301819055508173ffffffffffffffffffffffffffffffffffffffff167f16346f65adf8d84422b57ad74cb5607bf6c9e55c3c1fea66344057e5bba8a7ee60405160405180910390a25050565b5f604051905090565b5f80fd5b5f80fd5b5f73ffffffffffffffffffffffffffffffffffffffff82169050919050565b5f61125d82611234565b9050919050565b61126d81611253565b8114611277575f80fd5b50565b5f8135905061128881611264565b92915050565b5f602082840312156112a3576112a261122c565b5b5f6112b08482850161127a565b91505092915050565b5f81519050919050565b5f82825260208201905092915050565b8281835e5f83830152505050565b5f601f19601f8301169050919050565b5f6112fb826112b9565b61130581856112c3565b93506113158185602086016112d3565b61131e816112e1565b840191505092915050565b5f6020820190508181035f83015261134181846112f1565b905092915050565b5f80fd5b5f80fd5b7f4e487b71000000000000000000000000000000000000000000000000000000005f52604160045260245ffd5b611387826112e1565b810181811067ffffffffffffffff821117156113a6576113a5611351565b5b80604052505050565b5f6113b8611223565b90506113c4828261137e565b919050565b5f67ffffffffffffffff8211156113e3576113e2611351565b5b6113ec826112e1565b9050602081019050919050565b828183375f83830152505050565b5f611419611414846113c9565b6113af565b9050828152602081018484840111156114355761143461134d565b5b6114408482856113f9565b509392505050565b5f82601f83011261145c5761145b611349565b5b813561146c848260208601611407565b91505092915050565b5f805f6060848603121561148c5761148b61122c565b5b5f84013567ffffffffffffffff8111156114a9576114a8611230565b5b6114b586828701611448565b935050602084013567ffffffffffffffff8111156114d6576114d5611230565b5b6114e286828701611448565b925050604084013567ffffffffffffffff81111561150357611502611230565b5b61150f86828701611448565b9150509250925092565b5f61152382611234565b9050919050565b61153381611519565b811461153d575f80fd5b50565b5f8135905061154e8161152a565b92915050565b5f819050919050565b61156681611554565b8114611570575f80fd5b50565b5f813590506115818161155d565b92915050565b5f805f806080858703121561159f5761159e61122c565b5b5f6115ac87828801611540565b94505060206115bd87828801611573565b935050604085013567ffffffffffffffff8111156115de576115dd611230565b5b6115ea87828801611448565b925050606085013567ffffffffffffffff81111561160b5761160a611230565b5b61161787828801611448565b91505092959194509250565b5f8115159050919050565b61163781611623565b82525050565b5f6020820190506116505f83018461162e565b92915050565b7f4e6f2077696c6c20666f756e64210000000000000000000000000000000000005f82015250565b5f61168a600e836112c3565b915061169582611656565b602082019050919050565b5f6020820190508181035f8301526116b78161167e565b9050919050565b7f4e487b71000000000000000000000000000000000000000000000000000000005f52602260045260245ffd5b5f600282049050600182168061170257607f821691505b602082108103611715576117146116be565b5b50919050565b7f596f7520616c7265616479206861766520612077696c6c2100000000000000005f82015250565b5f61174f6018836112c3565b915061175a8261171b565b602082019050919050565b5f6020820190508181035f83015261177c81611743565b9050919050565b7f4d757374206c6f636b20455448210000000000000000000000000000000000005f82015250565b5f6117b7600e836112c3565b91506117c282611783565b602082019050919050565b5f6020820190508181035f8301526117e4816117ab565b9050919050565b5f819050815f5260205f209050919050565b5f6020601f8301049050919050565b5f82821b905092915050565b5f600883026118477fffffffffffffffffffffffffffffffffffffffffffffffffffffffffffffffff8261180c565b611851868361180c565b95508019841693508086168417925050509392505050565b5f819050919050565b5f61188c61188761188284611554565b611869565b611554565b9050919050565b5f819050919050565b6118a583611872565b6118b96118b182611893565b848454611818565b825550505050565b5f90565b6118cd6118c1565b6118d881848461189c565b505050565b5b818110156118fb576118f05f826118c5565b6001810190506118de565b5050565b601f82111561194057611911816117eb565b61191a846117fd565b81016020851015611929578190505b61193d611935856117fd565b8301826118dd565b50505b505050565b5f82821c905092915050565b5f6119605f1984600802611945565b1980831691505092915050565b5f6119788383611951565b9150826002028217905092915050565b611991826112b9565b67ffffffffffffffff8111156119aa576119a9611351565b5b6119b482546116eb565b6119bf8282856118ff565b5f60209050601f8311600181146119f0575f84156119de578287015190505b6119e8858261196d565b865550611a4f565b601f1984166119fe866117eb565b5f5b82811015611a2557848901518255600182019150602085019450602081019050611a00565b86831015611a425784890151611a3e601f891682611951565b8355505b6001600288020188555050505b505050505050565b611a6081611554565b82525050565b5f604082019050611a795f830185611a57565b8181036020830152611a8b81846112f1565b90509392505050565b7f596f75206e65656420746f2063726561746520612077696c6c206669727374005f82015250565b5f611ac8601f836112c3565b9150611ad382611a94565b602082019050919050565b5f6020820190508181035f830152611af581611abc565b9050919050565b7f496e76616c69642077616c6c65742061646472657373000000000000000000005f82015250565b5f611b306016836112c3565b9150611b3b82611afc565b602082019050919050565b5f6020820190508181035f830152611b5d81611b24565b9050919050565b7f496e76616c69642070657263656e7461676500000000000000000000000000005f82015250565b5f611b986012836112c3565b9150611ba382611b64565b602082019050919050565b5f6020820190508181035f830152611bc581611b8c565b9050919050565b7f4e487b71000000000000000000000000000000000000000000000000000000005f52603260045260245ffd5b7f4e487b71000000000000000000000000000000000000000000000000000000005f52601160045260245ffd5b5f611c3082611554565b9150611c3b83611554565b9250828201905080821115611c5357611c52611bf9565b5b92915050565b7f546f74616c20616c6c6f636174696f6e206578636565647320313030250000005f82015250565b5f611c8d601d836112c3565b9150611c9882611c59565b602082019050919050565b5f6020820190508181035f830152611cba81611c81565b9050919050565b5f611cdb611cd6611cd184611234565b611869565b611234565b9050919050565b5f611cec82611cc1565b9050919050565b5f611cfd82611ce2565b9050919050565b611d0d81611cf3565b82525050565b5f604082019050611d265f830185611d04565b611d336020830184611a57565b9392505050565b7f596f752068617665206e6f74206372656174656420612077696c6c00000000005f82015250565b5f611d6e601b836112c3565b9150611d7982611d3a565b602082019050919050565b5f6020820190508181035f830152611d9b81611d62565b9050919050565b7f57696c6c20616c726561647920657865637574656421000000000000000000005f82015250565b5f611dd66016836112c3565b9150611de182611da2565b602082019050919050565b5f6020820190508181035f830152611e0381611dca565b9050919050565b7f4f776e6572206973207374696c6c20616c6976652100000000000000000000005f82015250565b5f611e3e6015836112c3565b9150611e4982611e0a565b602082019050919050565b5f6020820190508181035f830152611e6b81611e32565b9050919050565b7f4e6f2045544820746f20646973747269627574650000000000000000000000005f82015250565b5f611ea66014836112c3565b9150611eb182611e72565b602082019050919050565b5f6020820190508181035f830152611ed381611e9a565b9050919050565b5f611ee482611554565b9150611eef83611554565b9250828202611efd81611554565b91508282048414831517611f1457611f13611bf9565b5b5092915050565b7f4e487b71000000000000000000000000000000000000000000000000000000005f52601260045260245ffd5b5f611f5282611554565b9150611f5d83611554565b925082611f6d57611f6c611f1b565b5b828204905092915050565b5f8154611f84816116eb565b611f8e81866112c3565b9450600182165f8114611fa85760018114611fbe57611ff0565b60ff198316865281151560200286019350611ff0565b611fc7856117eb565b5f5b83811015611fe857815481890152600182019150602081019050611fc9565b808801955050505b50505092915050565b5f60608201905061200c5f830186611a57565b818103602083015261201e8185611f78565b905081810360408301526120328184611f78565b905094935050505056fea26469706673582212206707c7e3c89b7dae27a5eee9953152fc0db187dca4840c15a7b19d3b0782facd64736f6c634300081a0033",
		"opcodes": "PUSH1 0x80 PUSH1 0x40 MSTORE PUSH1 0x4 CALLDATASIZE LT PUSH2 0x6F JUMPI PUSH0 CALLDATALOAD PUSH1 0xE0 SHR DUP1 PUSH4 0x549CC7B8 GT PUSH2 0x4D JUMPI DUP1 PUSH4 0x549CC7B8 EQ PUSH2 0xF3 JUMPI DUP1 PUSH4 0x6F9B65F0 EQ PUSH2 0x12F JUMPI DUP1 PUSH4 0xE7DDA555 EQ PUSH2 0x145 JUMPI DUP1 PUSH4 0xE854D135 EQ PUSH2 0x181 JUMPI PUSH2 0x6F JUMP JUMPDEST DUP1 PUSH4 0x203BE4FB EQ PUSH2 0x73 JUMPI DUP1 PUSH4 0x293AFA9E EQ PUSH2 0xAF JUMPI DUP1 PUSH4 0x4EBDE6D3 EQ PUSH2 0xCB JUMPI JUMPDEST PUSH0 DUP1 REVERT JUMPDEST CALLVALUE DUP1 ISZERO PUSH2 0x7E JUMPI PUSH0 DUP1 REVERT JUMPDEST POP PUSH2 0x99 PUSH1 0x4 DUP1 CALLDATASIZE SUB DUP2 ADD SWAP1 PUSH2 0x94 SWAP2 SWAP1 PUSH2 0x128E JUMP JUMPDEST PUSH2 0x1A9 JUMP JUMPDEST PUSH1 0x40 MLOAD PUSH2 0xA6 SWAP2 SWAP1 PUSH2 0x1329 JUMP JUMPDEST PUSH1 0x40 MLOAD DUP1 SWAP2 SUB SWAP1 RETURN JUMPDEST PUSH2 0xC9 PUSH1 0x4 DUP1 CALLDATASIZE SUB DUP2 ADD SWAP1 PUSH2 0xC4 SWAP2 SWAP1 PUSH2 0x1475 JUMP JUMPDEST PUSH2 0x301 JUMP JUMPDEST STOP JUMPDEST CALLVALUE DUP1 ISZERO PUSH2 0xD6 JUMPI PUSH0 DUP1 REVERT JUMPDEST POP PUSH2 0xF1 PUSH1 0x4 DUP1 CALLDATASIZE SUB DUP2 ADD SWAP1 PUSH2 0xEC SWAP2 SWAP1 PUSH2 0x1587 JUMP JUMPDEST PUSH2 0x6FF JUMP JUMPDEST STOP JUMPDEST CALLVALUE DUP1 ISZERO PUSH2 0xFE JUMPI PUSH0 DUP1 REVERT JUMPDEST POP PUSH2 0x119 PUSH1 0x4 DUP1 CALLDATASIZE SUB DUP2 ADD SWAP1 PUSH2 0x114 SWAP2 SWAP1 PUSH2 0x128E JUMP JUMPDEST PUSH2 0xACC JUMP JUMPDEST PUSH1 0x40 MLOAD PUSH2 0x126 SWAP2 SWAP1 PUSH2 0x163D JUMP JUMPDEST PUSH1 0x40 MLOAD DUP1 SWAP2 SUB SWAP1 RETURN JUMPDEST CALLVALUE DUP1 ISZERO PUSH2 0x13A JUMPI PUSH0 DUP1 REVERT JUMPDEST POP PUSH2 0x143 PUSH2 0xAE9 JUMP JUMPDEST STOP JUMPDEST CALLVALUE DUP1 ISZERO PUSH2 0x150 JUMPI PUSH0 DUP1 REVERT JUMPDEST POP PUSH2 0x16B PUSH1 0x4 DUP1 CALLDATASIZE SUB DUP2 ADD SWAP1 PUSH2 0x166 SWAP2 SWAP1 PUSH2 0x128E JUMP JUMPDEST PUSH2 0xC44 JUMP JUMPDEST PUSH1 0x40 MLOAD PUSH2 0x178 SWAP2 SWAP1 PUSH2 0x163D JUMP JUMPDEST PUSH1 0x40 MLOAD DUP1 SWAP2 SUB SWAP1 RETURN JUMPDEST CALLVALUE DUP1 ISZERO PUSH2 0x18C JUMPI PUSH0 DUP1 REVERT JUMPDEST POP PUSH2 0x1A7 PUSH1 0x4 DUP1 CALLDATASIZE SUB DUP2 ADD SWAP1 PUSH2 0x1A2 SWAP2 SWAP1 PUSH2 0x128E JUMP JUMPDEST PUSH2 0xD21 JUMP JUMPDEST STOP JUMPDEST PUSH1 0x60 PUSH1 0x1 PUSH0 DUP4 PUSH20 0xFFFFFFFFFFFFFFFFFFFFFFFFFFFFFFFFFFFFFFFF AND PUSH20 0xFFFFFFFFFFFFFFFFFFFFFFFFFFFFFFFFFFFFFFFF AND DUP2 MSTORE PUSH1 0x20 ADD SWAP1 DUP2 MSTORE PUSH1 0x20 ADD PUSH0 KECCAK256 PUSH0 SWAP1 SLOAD SWAP1 PUSH2 0x100 EXP SWAP1 DIV PUSH1 0xFF AND PUSH2 0x234 JUMPI PUSH1 0x40 MLOAD PUSH32 0x8C379A000000000000000000000000000000000000000000000000000000000 DUP2 MSTORE PUSH1 0x4 ADD PUSH2 0x22B SWAP1 PUSH2 0x16A0 JUMP JUMPDEST PUSH1 0x40 MLOAD DUP1 SWAP2 SUB SWAP1 REVERT JUMPDEST PUSH0 DUP1 DUP4 PUSH20 0xFFFFFFFFFFFFFFFFFFFFFFFFFFFFFFFFFFFFFFFF AND PUSH20 0xFFFFFFFFFFFFFFFFFFFFFFFFFFFFFFFFFFFFFFFF AND DUP2 MSTORE PUSH1 0x20 ADD SWAP1 DUP2 MSTORE PUSH1 0x20 ADD PUSH0 KECCAK256 PUSH1 0x7 ADD DUP1 SLOAD PUSH2 0x27E SWAP1 PUSH2 0x16EB JUMP JUMPDEST DUP1 PUSH1 0x1F ADD PUSH1 0x20 DUP1 SWAP2 DIV MUL PUSH1 0x20 ADD PUSH1 0x40 MLOAD SWAP1 DUP2 ADD PUSH1 0x40 MSTORE DUP1 SWAP3 SWAP2 SWAP1 DUP2 DUP2 MSTORE PUSH1 0x20 ADD DUP3 DUP1 SLOAD PUSH2 0x2AA SWAP1 PUSH2 0x16EB JUMP JUMPDEST DUP1 ISZERO PUSH2 0x2F5 JUMPI DUP1 PUSH1 0x1F LT PUSH2 0x2CC JUMPI PUSH2 0x100 DUP1 DUP4 SLOAD DIV MUL DUP4 MSTORE SWAP2 PUSH1 0x20 ADD SWAP2 PUSH2 0x2F5 JUMP JUMPDEST DUP3 ADD SWAP2 SWAP1 PUSH0 MSTORE PUSH1 0x20 PUSH0 KECCAK256 SWAP1 JUMPDEST DUP2 SLOAD DUP2 MSTORE SWAP1 PUSH1 0x1 ADD SWAP1 PUSH1 0x20 ADD DUP1 DUP4 GT PUSH2 0x2D8 JUMPI DUP3 SWAP1 SUB PUSH1 0x1F AND DUP3 ADD SWAP2 JUMPDEST POP POP POP POP POP SWAP1 POP SWAP2 SWAP1 POP JUMP JUMPDEST PUSH1 0x1 PUSH0 CALLER PUSH20 0xFFFFFFFFFFFFFFFFFFFFFFFFFFFFFFFFFFFFFFFF AND PUSH20 0xFFFFFFFFFFFFFFFFFFFFFFFFFFFFFFFFFFFFFFFF AND DUP2 MSTORE PUSH1 0x20 ADD SWAP1 DUP2 MSTORE PUSH1 0x20 ADD PUSH0 KECCAK256 PUSH0 SWAP1 SLOAD SWAP1 PUSH2 0x100 EXP SWAP1 DIV PUSH1 0xFF AND ISZERO PUSH2 0x38B JUMPI PUSH1 0x40 MLOAD PUSH32 0x8C379A000000000000000000000000000000000000000000000000000000000 DUP2 MSTORE PUSH1 0x4 ADD PUSH2 0x382 SWAP1 PUSH2 0x1765 JUMP JUMPDEST PUSH1 0x40 MLOAD DUP1 SWAP2 SUB SWAP1 REVERT JUMPDEST PUSH0 CALLVALUE GT PUSH2 0x3CD JUMPI PUSH1 0x40 MLOAD PUSH32 0x8C379A000000000000000000000000000000000000000000000000000000000 DUP2 MSTORE PUSH1 0x4 ADD PUSH2 0x3C4 SWAP1 PUSH2 0x17CD JUMP JUMPDEST PUSH1 0x40 MLOAD DUP1 SWAP2 SUB SWAP1 REVERT JUMPDEST CALLER PUSH0 DUP1 CALLER PUSH20 0xFFFFFFFFFFFFFFFFFFFFFFFFFFFFFFFFFFFFFFFF AND PUSH20 0xFFFFFFFFFFFFFFFFFFFFFFFFFFFFFFFFFFFFFFFF AND DUP2 MSTORE PUSH1 0x20 ADD SWAP1 DUP2 MSTORE PUSH1 0x20 ADD PUSH0 KECCAK256 PUSH0 ADD PUSH0 PUSH2 0x100 EXP DUP2 SLOAD DUP2 PUSH20 0xFFFFFFFFFFFFFFFFFFFFFFFFFFFFFFFFFFFFFFFF MUL NOT AND SWAP1 DUP4 PUSH20 0xFFFFFFFFFFFFFFFFFFFFFFFFFFFFFFFFFFFFFFFF AND MUL OR SWAP1 SSTORE POP DUP3 PUSH0 DUP1 CALLER PUSH20 0xFFFFFFFFFFFFFFFFFFFFFFFFFFFFFFFFFFFFFFFF AND PUSH20 0xFFFFFFFFFFFFFFFFFFFFFFFFFFFFFFFFFFFFFFFF AND DUP2 MSTORE PUSH1 0x20 ADD SWAP1 DUP2 MSTORE PUSH1 0x20 ADD PUSH0 KECCAK256 PUSH1 0x1 ADD SWAP1 DUP2 PUSH2 0x495 SWAP2 SWAP1 PUSH2 0x1988 JUMP JUMPDEST POP DUP2 PUSH0 DUP1 CALLER PUSH20 0xFFFFFFFFFFFFFFFFFFFFFFFFFFFFFFFFFFFFFFFF AND PUSH20 0xFFFFFFFFFFFFFFFFFFFFFFFFFFFFFFFFFFFFFFFF AND DUP2 MSTORE PUSH1 0x20 ADD SWAP1 DUP2 MSTORE PUSH1 0x20 ADD PUSH0 KECCAK256 PUSH1 0x2 ADD SWAP1 DUP2 PUSH2 0x4E2 SWAP2 SWAP1 PUSH2 0x1988 JUMP JUMPDEST POP CALLVALUE PUSH0 DUP1 CALLER PUSH20 0xFFFFFFFFFFFFFFFFFFFFFFFFFFFFFFFFFFFFFFFF AND PUSH20 0xFFFFFFFFFFFFFFFFFFFFFFFFFFFFFFFFFFFFFFFF AND DUP2 MSTORE PUSH1 0x20 ADD SWAP1 DUP2 MSTORE PUSH1 0x20 ADD PUSH0 KECCAK256 PUSH1 0x3 ADD DUP2 SWAP1 SSTORE POP TIMESTAMP PUSH0 DUP1 CALLER PUSH20 0xFFFFFFFFFFFFFFFFFFFFFFFFFFFFFFFFFFFFFFFF AND PUSH20 0xFFFFFFFFFFFFFFFFFFFFFFFFFFFFFFFFFFFFFFFF AND DUP2 MSTORE PUSH1 0x20 ADD SWAP1 DUP2 MSTORE PUSH1 0x20 ADD PUSH0 KECCAK256 PUSH1 0x4 ADD DUP2 SWAP1 SSTORE POP PUSH4 0x1E13380 PUSH0 DUP1 CALLER PUSH20 0xFFFFFFFFFFFFFFFFFFFFFFFFFFFFFFFFFFFFFFFF AND PUSH20 0xFFFFFFFFFFFFFFFFFFFFFFFFFFFFFFFFFFFFFFFF AND DUP2 MSTORE PUSH1 0x20 ADD SWAP1 DUP2 MSTORE PUSH1 0x20 ADD PUSH0 KECCAK256 PUSH1 0x5 ADD DUP2 SWAP1 SSTORE POP PUSH0 DUP1 PUSH0 CALLER PUSH20 0xFFFFFFFFFFFFFFFFFFFFFFFFFFFFFFFFFFFFFFFF AND PUSH20 0xFFFFFFFFFFFFFFFFFFFFFFFFFFFFFFFFFFFFFFFF AND DUP2 MSTORE PUSH1 0x20 ADD SWAP1 DUP2 MSTORE PUSH1 0x20 ADD PUSH0 KECCAK256 PUSH1 0x6 ADD PUSH0 PUSH2 0x100 EXP DUP2 SLOAD DUP2 PUSH1 0xFF MUL NOT AND SWAP1 DUP4 ISZERO ISZERO MUL OR SWAP1 SSTORE POP DUP1 PUSH0 DUP1 CALLER PUSH20 0xFFFFFFFFFFFFFFFFFFFFFFFFFFFFFFFFFFFFFFFF AND PUSH20 0xFFFFFFFFFFFFFFFFFFFFFFFFFFFFFFFFFFFFFFFF AND DUP2 MSTORE PUSH1 0x20 ADD SWAP1 DUP2 MSTORE PUSH1 0x20 ADD PUSH0 KECCAK256 PUSH1 0x7 ADD SWAP1 DUP2 PUSH2 0x655 SWAP2 SWAP1 PUSH2 0x1988 JUMP JUMPDEST POP PUSH1 0x1 DUP1 PUSH0 CALLER PUSH20 0xFFFFFFFFFFFFFFFFFFFFFFFFFFFFFFFFFFFFFFFF AND PUSH20 0xFFFFFFFFFFFFFFFFFFFFFFFFFFFFFFFFFFFFFFFF AND DUP2 MSTORE PUSH1 0x20 ADD SWAP1 DUP2 MSTORE PUSH1 0x20 ADD PUSH0 KECCAK256 PUSH0 PUSH2 0x100 EXP DUP2 SLOAD DUP2 PUSH1 0xFF MUL NOT AND SWAP1 DUP4 ISZERO ISZERO MUL OR SWAP1 SSTORE POP CALLER PUSH20 0xFFFFFFFFFFFFFFFFFFFFFFFFFFFFFFFFFFFFFFFF AND PUSH32 0xCA05E37FC67C80782E9FB53D79D942AABD6358450AC35FFB3FD610B48745E24C CALLVALUE DUP4 PUSH1 0x40 MLOAD PUSH2 0x6F2 SWAP3 SWAP2 SWAP1 PUSH2 0x1A66 JUMP JUMPDEST PUSH1 0x40 MLOAD DUP1 SWAP2 SUB SWAP1 LOG2 POP POP POP JUMP JUMPDEST PUSH1 0x1 PUSH0 CALLER PUSH20 0xFFFFFFFFFFFFFFFFFFFFFFFFFFFFFFFFFFFFFFFF AND PUSH20 0xFFFFFFFFFFFFFFFFFFFFFFFFFFFFFFFFFFFFFFFF AND DUP2 MSTORE PUSH1 0x20 ADD SWAP1 DUP2 MSTORE PUSH1 0x20 ADD PUSH0 KECCAK256 PUSH0 SWAP1 SLOAD SWAP1 PUSH2 0x100 EXP SWAP1 DIV PUSH1 0xFF AND PUSH2 0x788 JUMPI PUSH1 0x40 MLOAD PUSH32 0x8C379A000000000000000000000000000000000000000000000000000000000 DUP2 MSTORE PUSH1 0x4 ADD PUSH2 0x77F SWAP1 PUSH2 0x1ADE JUMP JUMPDEST PUSH1 0x40 MLOAD DUP1 SWAP2 SUB SWAP1 REVERT JUMPDEST PUSH0 PUSH20 0xFFFFFFFFFFFFFFFFFFFFFFFFFFFFFFFFFFFFFFFF AND DUP5 PUSH20 0xFFFFFFFFFFFFFFFFFFFFFFFFFFFFFFFFFFFFFFFF AND SUB PUSH2 0x7F6 JUMPI PUSH1 0x40 MLOAD PUSH32 0x8C379A000000000000000000000000000000000000000000000000000000000 DUP2 MSTORE PUSH1 0x4 ADD PUSH2 0x7ED SWAP1 PUSH2 0x1B46 JUMP JUMPDEST PUSH1 0x40 MLOAD DUP1 SWAP2 SUB SWAP1 REVERT JUMPDEST PUSH0 DUP4 GT DUP1 ISZERO PUSH2 0x806 JUMPI POP PUSH1 0x64 DUP4 GT ISZERO JUMPDEST PUSH2 0x845 JUMPI PUSH1 0x40 MLOAD PUSH32 0x8C379A000000000000000000000000000000000000000000000000000000000 DUP2 MSTORE PUSH1 0x4 ADD PUSH2 0x83C SWAP1 PUSH2 0x1BAE JUMP JUMPDEST PUSH1 0x40 MLOAD DUP1 SWAP2 SUB SWAP1 REVERT JUMPDEST PUSH0 DUP1 JUMPDEST PUSH0 DUP1 CALLER PUSH20 0xFFFFFFFFFFFFFFFFFFFFFFFFFFFFFFFFFFFFFFFF AND PUSH20 0xFFFFFFFFFFFFFFFFFFFFFFFFFFFFFFFFFFFFFFFF AND DUP2 MSTORE PUSH1 0x20 ADD SWAP1 DUP2 MSTORE PUSH1 0x20 ADD PUSH0 KECCAK256 PUSH1 0x8 ADD DUP1 SLOAD SWAP1 POP DUP2 LT ISZERO PUSH2 0x90D JUMPI PUSH0 DUP1 CALLER PUSH20 0xFFFFFFFFFFFFFFFFFFFFFFFFFFFFFFFFFFFFFFFF AND PUSH20 0xFFFFFFFFFFFFFFFFFFFFFFFFFFFFFFFFFFFFFFFF AND DUP2 MSTORE PUSH1 0x20 ADD SWAP1 DUP2 MSTORE PUSH1 0x20 ADD PUSH0 KECCAK256 PUSH1 0x8 ADD DUP2 DUP2 SLOAD DUP2 LT PUSH2 0x8E3 JUMPI PUSH2 0x8E2 PUSH2 0x1BCC JUMP JUMPDEST JUMPDEST SWAP1 PUSH0 MSTORE PUSH1 0x20 PUSH0 KECCAK256 SWAP1 PUSH1 0x4 MUL ADD PUSH1 0x1 ADD SLOAD DUP3 PUSH2 0x8FE SWAP2 SWAP1 PUSH2 0x1C26 JUMP JUMPDEST SWAP2 POP DUP1 DUP1 PUSH1 0x1 ADD SWAP2 POP POP PUSH2 0x848 JUMP JUMPDEST POP PUSH1 0x64 DUP5 DUP3 PUSH2 0x91C SWAP2 SWAP1 PUSH2 0x1C26 JUMP JUMPDEST GT ISZERO PUSH2 0x95D JUMPI PUSH1 0x40 MLOAD PUSH32 0x8C379A000000000000000000000000000000000000000000000000000000000 DUP2 MSTORE PUSH1 0x4 ADD PUSH2 0x954 SWAP1 PUSH2 0x1CA3 JUMP JUMPDEST PUSH1 0x40 MLOAD DUP1 SWAP2 SUB SWAP1 REVERT JUMPDEST PUSH0 DUP1 CALLER PUSH20 0xFFFFFFFFFFFFFFFFFFFFFFFFFFFFFFFFFFFFFFFF AND PUSH20 0xFFFFFFFFFFFFFFFFFFFFFFFFFFFFFFFFFFFFFFFF AND DUP2 MSTORE PUSH1 0x20 ADD SWAP1 DUP2 MSTORE PUSH1 0x20 ADD PUSH0 KECCAK256 PUSH1 0x8 ADD PUSH1 0x40 MLOAD DUP1 PUSH1 0x80 ADD PUSH1 0x40 MSTORE DUP1 DUP8 PUSH20 0xFFFFFFFFFFFFFFFFFFFFFFFFFFFFFFFFFFFFFFFF AND DUP2 MSTORE PUSH1 0x20 ADD DUP7 DUP2 MSTORE PUSH1 0x20 ADD DUP6 DUP2 MSTORE PUSH1 0x20 ADD DUP5 DUP2 MSTORE POP SWAP1 DUP1 PUSH1 0x1 DUP2 SLOAD ADD DUP1 DUP3 SSTORE DUP1 SWAP2 POP POP PUSH1 0x1 SWAP1 SUB SWAP1 PUSH0 MSTORE PUSH1 0x20 PUSH0 KECCAK256 SWAP1 PUSH1 0x4 MUL ADD PUSH0 SWAP1 SWAP2 SWAP1 SWAP2 SWAP1 SWAP2 POP PUSH0 DUP3 ADD MLOAD DUP2 PUSH0 ADD PUSH0 PUSH2 0x100 EXP DUP2 SLOAD DUP2 PUSH20 0xFFFFFFFFFFFFFFFFFFFFFFFFFFFFFFFFFFFFFFFF MUL NOT AND SWAP1 DUP4 PUSH20 0xFFFFFFFFFFFFFFFFFFFFFFFFFFFFFFFFFFFFFFFF AND MUL OR SWAP1 SSTORE POP PUSH1 0x20 DUP3 ADD MLOAD DUP2 PUSH1 0x1 ADD SSTORE PUSH1 0x40 DUP3 ADD MLOAD DUP2 PUSH1 0x2 ADD SWAP1 DUP2 PUSH2 0xA5C SWAP2 SWAP1 PUSH2 0x1988 JUMP JUMPDEST POP PUSH1 0x60 DUP3 ADD MLOAD DUP2 PUSH1 0x3 ADD SWAP1 DUP2 PUSH2 0xA72 SWAP2 SWAP1 PUSH2 0x1988 JUMP JUMPDEST POP POP POP CALLER PUSH20 0xFFFFFFFFFFFFFFFFFFFFFFFFFFFFFFFFFFFFFFFF AND PUSH32 0x5D081D791B64899ADAB031015397EF8D7600501212EF97573B9E50F8C9BB6D9B DUP7 DUP7 PUSH1 0x40 MLOAD PUSH2 0xABD SWAP3 SWAP2 SWAP1 PUSH2 0x1D13 JUMP JUMPDEST PUSH1 0x40 MLOAD DUP1 SWAP2 SUB SWAP1 LOG2 POP POP POP POP POP JUMP JUMPDEST PUSH1 0x1 PUSH1 0x20 MSTORE DUP1 PUSH0 MSTORE PUSH1 0x40 PUSH0 KECCAK256 PUSH0 SWAP2 POP SLOAD SWAP1 PUSH2 0x100 EXP SWAP1 DIV PUSH1 0xFF AND DUP2 JUMP JUMPDEST PUSH1 0x1 PUSH0 CALLER PUSH20 0xFFFFFFFFFFFFFFFFFFFFFFFFFFFFFFFFFFFFFFFF AND PUSH20 0xFFFFFFFFFFFFFFFFFFFFFFFFFFFFFFFFFFFFFFFF AND DUP2 MSTORE PUSH1 0x20 ADD SWAP1 DUP2 MSTORE PUSH1 0x20 ADD PUSH0 KECCAK256 PUSH0 SWAP1 SLOAD SWAP1 PUSH2 0x100 EXP SWAP1 DIV PUSH1 0xFF AND PUSH2 0xB72 JUMPI PUSH1 0x40 MLOAD PUSH32 0x8C379A000000000000000000000000000000000000000000000000000000000 DUP2 MSTORE PUSH1 0x4 ADD PUSH2 0xB69 SWAP1 PUSH2 0x1D84 JUMP JUMPDEST PUSH1 0x40 MLOAD DUP1 SWAP2 SUB SWAP1 REVERT JUMPDEST PUSH0 DUP1 CALLER PUSH20 0xFFFFFFFFFFFFFFFFFFFFFFFFFFFFFFFFFFFFFFFF AND PUSH20 0xFFFFFFFFFFFFFFFFFFFFFFFFFFFFFFFFFFFFFFFF AND DUP2 MSTORE PUSH1 0x20 ADD SWAP1 DUP2 MSTORE PUSH1 0x20 ADD PUSH0 KECCAK256 PUSH1 0x6 ADD PUSH0 SWAP1 SLOAD SWAP1 PUSH2 0x100 EXP SWAP1 DIV PUSH1 0xFF AND ISZERO PUSH2 0xBFE JUMPI PUSH1 0x40 MLOAD PUSH32 0x8C379A000000000000000000000000000000000000000000000000000000000 DUP2 MSTORE PUSH1 0x4 ADD PUSH2 0xBF5 SWAP1 PUSH2 0x1DEC JUMP JUMPDEST PUSH1 0x40 MLOAD DUP1 SWAP2 SUB SWAP1 REVERT JUMPDEST TIMESTAMP PUSH0 DUP1 CALLER PUSH20 0xFFFFFFFFFFFFFFFFFFFFFFFFFFFFFFFFFFFFFFFF AND PUSH20 0xFFFFFFFFFFFFFFFFFFFFFFFFFFFFFFFFFFFFFFFF AND DUP2 MSTORE PUSH1 0x20 ADD SWAP1 DUP2 MSTORE PUSH1 0x20 ADD PUSH0 KECCAK256 PUSH1 0x4 ADD DUP2 SWAP1 SSTORE POP JUMP JUMPDEST PUSH0 PUSH1 0x1 PUSH0 DUP4 PUSH20 0xFFFFFFFFFFFFFFFFFFFFFFFFFFFFFFFFFFFFFFFF AND PUSH20 0xFFFFFFFFFFFFFFFFFFFFFFFFFFFFFFFFFFFFFFFF AND DUP2 MSTORE PUSH1 0x20 ADD SWAP1 DUP2 MSTORE PUSH1 0x20 ADD PUSH0 KECCAK256 PUSH0 SWAP1 SLOAD SWAP1 PUSH2 0x100 EXP SWAP1 DIV PUSH1 0xFF AND PUSH2 0xCCE JUMPI PUSH1 0x40 MLOAD PUSH32 0x8C379A000000000000000000000000000000000000000000000000000000000 DUP2 MSTORE PUSH1 0x4 ADD PUSH2 0xCC5 SWAP1 PUSH2 0x16A0 JUMP JUMPDEST PUSH1 0x40 MLOAD DUP1 SWAP2 SUB SWAP1 REVERT JUMPDEST PUSH0 DUP1 DUP4 PUSH20 0xFFFFFFFFFFFFFFFFFFFFFFFFFFFFFFFFFFFFFFFF AND PUSH20 0xFFFFFFFFFFFFFFFFFFFFFFFFFFFFFFFFFFFFFFFF AND DUP2 MSTORE PUSH1 0x20 ADD SWAP1 DUP2 MSTORE PUSH1 0x20 ADD PUSH0 KECCAK256 PUSH1 0x6 ADD PUSH0 SWAP1 SLOAD SWAP1 PUSH2 0x100 EXP SWAP1 DIV PUSH1 0xFF AND SWAP1 POP SWAP2 SWAP1 POP JUMP JUMPDEST PUSH1 0x1 PUSH0 DUP3 PUSH20 0xFFFFFFFFFFFFFFFFFFFFFFFFFFFFFFFFFFFFFFFF AND PUSH20 0xFFFFFFFFFFFFFFFFFFFFFFFFFFFFFFFFFFFFFFFF AND DUP2 MSTORE PUSH1 0x20 ADD SWAP1 DUP2 MSTORE PUSH1 0x20 ADD PUSH0 KECCAK256 PUSH0 SWAP1 SLOAD SWAP1 PUSH2 0x100 EXP SWAP1 DIV PUSH1 0xFF AND PUSH2 0xDAA JUMPI PUSH1 0x40 MLOAD PUSH32 0x8C379A000000000000000000000000000000000000000000000000000000000 DUP2 MSTORE PUSH1 0x4 ADD PUSH2 0xDA1 SWAP1 PUSH2 0x16A0 JUMP JUMPDEST PUSH1 0x40 MLOAD DUP1 SWAP2 SUB SWAP1 REVERT JUMPDEST PUSH0 DUP1 DUP3 PUSH20 0xFFFFFFFFFFFFFFFFFFFFFFFFFFFFFFFFFFFFFFFF AND PUSH20 0xFFFFFFFFFFFFFFFFFFFFFFFFFFFFFFFFFFFFFFFF AND DUP2 MSTORE PUSH1 0x20 ADD SWAP1 DUP2 MSTORE PUSH1 0x20 ADD PUSH0 KECCAK256 PUSH1 0x5 ADD SLOAD PUSH0 DUP1 DUP4 PUSH20 0xFFFFFFFFFFFFFFFFFFFFFFFFFFFFFFFFFFFFFFFF AND PUSH20 0xFFFFFFFFFFFFFFFFFFFFFFFFFFFFFFFFFFFFFFFF AND DUP2 MSTORE PUSH1 0x20 ADD SWAP1 DUP2 MSTORE PUSH1 0x20 ADD PUSH0 KECCAK256 PUSH1 0x4 ADD SLOAD PUSH2 0xE34 SWAP2 SWAP1 PUSH2 0x1C26 JUMP JUMPDEST TIMESTAMP GT PUSH2 0xE75 JUMPI PUSH1 0x40 MLOAD PUSH32 0x8C379A000000000000000000000000000000000000000000000000000000000 DUP2 MSTORE PUSH1 0x4 ADD PUSH2 0xE6C SWAP1 PUSH2 0x1E54 JUMP JUMPDEST PUSH1 0x40 MLOAD DUP1 SWAP2 SUB SWAP1 REVERT JUMPDEST PUSH0 DUP1 DUP3 PUSH20 0xFFFFFFFFFFFFFFFFFFFFFFFFFFFFFFFFFFFFFFFF AND PUSH20 0xFFFFFFFFFFFFFFFFFFFFFFFFFFFFFFFFFFFFFFFF AND DUP2 MSTORE PUSH1 0x20 ADD SWAP1 DUP2 MSTORE PUSH1 0x20 ADD PUSH0 KECCAK256 PUSH1 0x6 ADD PUSH0 SWAP1 SLOAD SWAP1 PUSH2 0x100 EXP SWAP1 DIV PUSH1 0xFF AND ISZERO PUSH2 0xF01 JUMPI PUSH1 0x40 MLOAD PUSH32 0x8C379A000000000000000000000000000000000000000000000000000000000 DUP2 MSTORE PUSH1 0x4 ADD PUSH2 0xEF8 SWAP1 PUSH2 0x1DEC JUMP JUMPDEST PUSH1 0x40 MLOAD DUP1 SWAP2 SUB SWAP1 REVERT JUMPDEST PUSH1 0x1 PUSH0 DUP1 DUP4 PUSH20 0xFFFFFFFFFFFFFFFFFFFFFFFFFFFFFFFFFFFFFFFF AND PUSH20 0xFFFFFFFFFFFFFFFFFFFFFFFFFFFFFFFFFFFFFFFF AND DUP2 MSTORE PUSH1 0x20 ADD SWAP1 DUP2 MSTORE PUSH1 0x20 ADD PUSH0 KECCAK256 PUSH1 0x6 ADD PUSH0 PUSH2 0x100 EXP DUP2 SLOAD DUP2 PUSH1 0xFF MUL NOT AND SWAP1 DUP4 ISZERO ISZERO MUL OR SWAP1 SSTORE POP PUSH0 DUP1 PUSH0 DUP4 PUSH20 0xFFFFFFFFFFFFFFFFFFFFFFFFFFFFFFFFFFFFFFFF AND PUSH20 0xFFFFFFFFFFFFFFFFFFFFFFFFFFFFFFFFFFFFFFFF AND DUP2 MSTORE PUSH1 0x20 ADD SWAP1 DUP2 MSTORE PUSH1 0x20 ADD PUSH0 KECCAK256 PUSH1 0x3 ADD SLOAD SWAP1 POP PUSH0 DUP2 GT PUSH2 0xFDD JUMPI PUSH1 0x40 MLOAD PUSH32 0x8C379A000000000000000000000000000000000000000000000000000000000 DUP2 MSTORE PUSH1 0x4 ADD PUSH2 0xFD4 SWAP1 PUSH2 0x1EBC JUMP JUMPDEST PUSH1 0x40 MLOAD DUP1 SWAP2 SUB SWAP1 REVERT JUMPDEST PUSH0 JUMPDEST PUSH0 DUP1 DUP5 PUSH20 0xFFFFFFFFFFFFFFFFFFFFFFFFFFFFFFFFFFFFFFFF AND PUSH20 0xFFFFFFFFFFFFFFFFFFFFFFFFFFFFFFFFFFFFFFFF AND DUP2 MSTORE PUSH1 0x20 ADD SWAP1 DUP2 MSTORE PUSH1 0x20 ADD PUSH0 KECCAK256 PUSH1 0x8 ADD DUP1 SLOAD SWAP1 POP DUP2 LT ISZERO PUSH2 0x1197 JUMPI PUSH0 DUP1 PUSH0 DUP6 PUSH20 0xFFFFFFFFFFFFFFFFFFFFFFFFFFFFFFFFFFFFFFFF AND PUSH20 0xFFFFFFFFFFFFFFFFFFFFFFFFFFFFFFFFFFFFFFFF AND DUP2 MSTORE PUSH1 0x20 ADD SWAP1 DUP2 MSTORE PUSH1 0x20 ADD PUSH0 KECCAK256 PUSH1 0x8 ADD DUP3 DUP2 SLOAD DUP2 LT PUSH2 0x107B JUMPI PUSH2 0x107A PUSH2 0x1BCC JUMP JUMPDEST JUMPDEST SWAP1 PUSH0 MSTORE PUSH1 0x20 PUSH0 KECCAK256 SWAP1 PUSH1 0x4 MUL ADD SWAP1 POP PUSH0 PUSH1 0x64 DUP3 PUSH1 0x1 ADD SLOAD DUP6 PUSH2 0x109C SWAP2 SWAP1 PUSH2 0x1EDA JUMP JUMPDEST PUSH2 0x10A6 SWAP2 SWAP1 PUSH2 0x1F48 JUMP JUMPDEST SWAP1 POP DUP2 PUSH0 ADD PUSH0 SWAP1 SLOAD SWAP1 PUSH2 0x100 EXP SWAP1 DIV PUSH20 0xFFFFFFFFFFFFFFFFFFFFFFFFFFFFFFFFFFFFFFFF AND PUSH20 0xFFFFFFFFFFFFFFFFFFFFFFFFFFFFFFFFFFFFFFFF AND PUSH2 0x8FC DUP3 SWAP1 DUP2 ISZERO MUL SWAP1 PUSH1 0x40 MLOAD PUSH0 PUSH1 0x40 MLOAD DUP1 DUP4 SUB DUP2 DUP6 DUP9 DUP9 CALL SWAP4 POP POP POP POP ISZERO DUP1 ISZERO PUSH2 0x110D JUMPI RETURNDATASIZE PUSH0 DUP1 RETURNDATACOPY RETURNDATASIZE PUSH0 REVERT JUMPDEST POP DUP2 PUSH0 ADD PUSH0 SWAP1 SLOAD SWAP1 PUSH2 0x100 EXP SWAP1 DIV PUSH20 0xFFFFFFFFFFFFFFFFFFFFFFFFFFFFFFFFFFFFFFFF AND PUSH20 0xFFFFFFFFFFFFFFFFFFFFFFFFFFFFFFFFFFFFFFFF AND PUSH32 0xCEB720B06C310EDC215BEE81670832BB918BA1199F401716364414DDB9B816A7 DUP3 DUP5 PUSH1 0x2 ADD DUP6 PUSH1 0x3 ADD PUSH1 0x40 MLOAD PUSH2 0x1180 SWAP4 SWAP3 SWAP2 SWAP1 PUSH2 0x1FF9 JUMP JUMPDEST PUSH1 0x40 MLOAD DUP1 SWAP2 SUB SWAP1 LOG2 POP POP DUP1 DUP1 PUSH1 0x1 ADD SWAP2 POP POP PUSH2 0xFDF JUMP JUMPDEST POP PUSH0 DUP1 PUSH0 DUP5 PUSH20 0xFFFFFFFFFFFFFFFFFFFFFFFFFFFFFFFFFFFFFFFF AND PUSH20 0xFFFFFFFFFFFFFFFFFFFFFFFFFFFFFFFFFFFFFFFF AND DUP2 MSTORE PUSH1 0x20 ADD SWAP1 DUP2 MSTORE PUSH1 0x20 ADD PUSH0 KECCAK256 PUSH1 0x3 ADD DUP2 SWAP1 SSTORE POP DUP2 PUSH20 0xFFFFFFFFFFFFFFFFFFFFFFFFFFFFFFFFFFFFFFFF AND PUSH32 0x16346F65ADF8D84422B57AD74CB5607BF6C9E55C3C1FEA66344057E5BBA8A7EE PUSH1 0x40 MLOAD PUSH1 0x40 MLOAD DUP1 SWAP2 SUB SWAP1 LOG2 POP POP JUMP JUMPDEST PUSH0 PUSH1 0x40 MLOAD SWAP1 POP SWAP1 JUMP JUMPDEST PUSH0 DUP1 REVERT JUMPDEST PUSH0 DUP1 REVERT JUMPDEST PUSH0 PUSH20 0xFFFFFFFFFFFFFFFFFFFFFFFFFFFFFFFFFFFFFFFF DUP3 AND SWAP1 POP SWAP2 SWAP1 POP JUMP JUMPDEST PUSH0 PUSH2 0x125D DUP3 PUSH2 0x1234 JUMP JUMPDEST SWAP1 POP SWAP2 SWAP1 POP JUMP JUMPDEST PUSH2 0x126D DUP2 PUSH2 0x1253 JUMP JUMPDEST DUP2 EQ PUSH2 0x1277 JUMPI PUSH0 DUP1 REVERT JUMPDEST POP JUMP JUMPDEST PUSH0 DUP2 CALLDATALOAD SWAP1 POP PUSH2 0x1288 DUP2 PUSH2 0x1264 JUMP JUMPDEST SWAP3 SWAP2 POP POP JUMP JUMPDEST PUSH0 PUSH1 0x20 DUP3 DUP5 SUB SLT ISZERO PUSH2 0x12A3 JUMPI PUSH2 0x12A2 PUSH2 0x122C JUMP JUMPDEST JUMPDEST PUSH0 PUSH2 0x12B0 DUP5 DUP3 DUP6 ADD PUSH2 0x127A JUMP JUMPDEST SWAP2 POP POP SWAP3 SWAP2 POP POP JUMP JUMPDEST PUSH0 DUP2 MLOAD SWAP1 POP SWAP2 SWAP1 POP JUMP JUMPDEST PUSH0 DUP3 DUP3 MSTORE PUSH1 0x20 DUP3 ADD SWAP1 POP SWAP3 SWAP2 POP POP JUMP JUMPDEST DUP3 DUP2 DUP4 MCOPY PUSH0 DUP4 DUP4 ADD MSTORE POP POP POP JUMP JUMPDEST PUSH0 PUSH1 0x1F NOT PUSH1 0x1F DUP4 ADD AND SWAP1 POP SWAP2 SWAP1 POP JUMP JUMPDEST PUSH0 PUSH2 0x12FB DUP3 PUSH2 0x12B9 JUMP JUMPDEST PUSH2 0x1305 DUP2 DUP6 PUSH2 0x12C3 JUMP JUMPDEST SWAP4 POP PUSH2 0x1315 DUP2 DUP6 PUSH1 0x20 DUP7 ADD PUSH2 0x12D3 JUMP JUMPDEST PUSH2 0x131E DUP2 PUSH2 0x12E1 JUMP JUMPDEST DUP5 ADD SWAP2 POP POP SWAP3 SWAP2 POP POP JUMP JUMPDEST PUSH0 PUSH1 0x20 DUP3 ADD SWAP1 POP DUP2 DUP2 SUB PUSH0 DUP4 ADD MSTORE PUSH2 0x1341 DUP2 DUP5 PUSH2 0x12F1 JUMP JUMPDEST SWAP1 POP SWAP3 SWAP2 POP POP JUMP JUMPDEST PUSH0 DUP1 REVERT JUMPDEST PUSH0 DUP1 REVERT JUMPDEST PUSH32 0x4E487B7100000000000000000000000000000000000000000000000000000000 PUSH0 MSTORE PUSH1 0x41 PUSH1 0x4 MSTORE PUSH1 0x24 PUSH0 REVERT JUMPDEST PUSH2 0x1387 DUP3 PUSH2 0x12E1 JUMP JUMPDEST DUP2 ADD DUP2 DUP2 LT PUSH8 0xFFFFFFFFFFFFFFFF DUP3 GT OR ISZERO PUSH2 0x13A6 JUMPI PUSH2 0x13A5 PUSH2 0x1351 JUMP JUMPDEST JUMPDEST DUP1 PUSH1 0x40 MSTORE POP POP POP JUMP JUMPDEST PUSH0 PUSH2 0x13B8 PUSH2 0x1223 JUMP JUMPDEST SWAP1 POP PUSH2 0x13C4 DUP3 DUP3 PUSH2 0x137E JUMP JUMPDEST SWAP2 SWAP1 POP JUMP JUMPDEST PUSH0 PUSH8 0xFFFFFFFFFFFFFFFF DUP3 GT ISZERO PUSH2 0x13E3 JUMPI PUSH2 0x13E2 PUSH2 0x1351 JUMP JUMPDEST JUMPDEST PUSH2 0x13EC DUP3 PUSH2 0x12E1 JUMP JUMPDEST SWAP1 POP PUSH1 0x20 DUP2 ADD SWAP1 POP SWAP2 SWAP1 POP JUMP JUMPDEST DUP3 DUP2 DUP4 CALLDATACOPY PUSH0 DUP4 DUP4 ADD MSTORE POP POP POP JUMP JUMPDEST PUSH0 PUSH2 0x1419 PUSH2 0x1414 DUP5 PUSH2 0x13C9 JUMP JUMPDEST PUSH2 0x13AF JUMP JUMPDEST SWAP1 POP DUP3 DUP2 MSTORE PUSH1 0x20 DUP2 ADD DUP5 DUP5 DUP5 ADD GT ISZERO PUSH2 0x1435 JUMPI PUSH2 0x1434 PUSH2 0x134D JUMP JUMPDEST JUMPDEST PUSH2 0x1440 DUP5 DUP3 DUP6 PUSH2 0x13F9 JUMP JUMPDEST POP SWAP4 SWAP3 POP POP POP JUMP JUMPDEST PUSH0 DUP3 PUSH1 0x1F DUP4 ADD SLT PUSH2 0x145C JUMPI PUSH2 0x145B PUSH2 0x1349 JUMP JUMPDEST JUMPDEST DUP2 CALLDATALOAD PUSH2 0x146C DUP5 DUP3 PUSH1 0x20 DUP7 ADD PUSH2 0x1407 JUMP JUMPDEST SWAP2 POP POP SWAP3 SWAP2 POP POP JUMP JUMPDEST PUSH0 DUP1 PUSH0 PUSH1 0x60 DUP5 DUP7 SUB SLT ISZERO PUSH2 0x148C JUMPI PUSH2 0x148B PUSH2 0x122C JUMP JUMPDEST JUMPDEST PUSH0 DUP5 ADD CALLDATALOAD PUSH8 0xFFFFFFFFFFFFFFFF DUP2 GT ISZERO PUSH2 0x14A9 JUMPI PUSH2 0x14A8 PUSH2 0x1230 JUMP JUMPDEST JUMPDEST PUSH2 0x14B5 DUP7 DUP3 DUP8 ADD PUSH2 0x1448 JUMP JUMPDEST SWAP4 POP POP PUSH1 0x20 DUP5 ADD CALLDATALOAD PUSH8 0xFFFFFFFFFFFFFFFF DUP2 GT ISZERO PUSH2 0x14D6 JUMPI PUSH2 0x14D5 PUSH2 0x1230 JUMP JUMPDEST JUMPDEST PUSH2 0x14E2 DUP7 DUP3 DUP8 ADD PUSH2 0x1448 JUMP JUMPDEST SWAP3 POP POP PUSH1 0x40 DUP5 ADD CALLDATALOAD PUSH8 0xFFFFFFFFFFFFFFFF DUP2 GT ISZERO PUSH2 0x1503 JUMPI PUSH2 0x1502 PUSH2 0x1230 JUMP JUMPDEST JUMPDEST PUSH2 0x150F DUP7 DUP3 DUP8 ADD PUSH2 0x1448 JUMP JUMPDEST SWAP2 POP POP SWAP3 POP SWAP3 POP SWAP3 JUMP JUMPDEST PUSH0 PUSH2 0x1523 DUP3 PUSH2 0x1234 JUMP JUMPDEST SWAP1 POP SWAP2 SWAP1 POP JUMP JUMPDEST PUSH2 0x1533 DUP2 PUSH2 0x1519 JUMP JUMPDEST DUP2 EQ PUSH2 0x153D JUMPI PUSH0 DUP1 REVERT JUMPDEST POP JUMP JUMPDEST PUSH0 DUP2 CALLDATALOAD SWAP1 POP PUSH2 0x154E DUP2 PUSH2 0x152A JUMP JUMPDEST SWAP3 SWAP2 POP POP JUMP JUMPDEST PUSH0 DUP2 SWAP1 POP SWAP2 SWAP1 POP JUMP JUMPDEST PUSH2 0x1566 DUP2 PUSH2 0x1554 JUMP JUMPDEST DUP2 EQ PUSH2 0x1570 JUMPI PUSH0 DUP1 REVERT JUMPDEST POP JUMP JUMPDEST PUSH0 DUP2 CALLDATALOAD SWAP1 POP PUSH2 0x1581 DUP2 PUSH2 0x155D JUMP JUMPDEST SWAP3 SWAP2 POP POP JUMP JUMPDEST PUSH0 DUP1 PUSH0 DUP1 PUSH1 0x80 DUP6 DUP8 SUB SLT ISZERO PUSH2 0x159F JUMPI PUSH2 0x159E PUSH2 0x122C JUMP JUMPDEST JUMPDEST PUSH0 PUSH2 0x15AC DUP8 DUP3 DUP9 ADD PUSH2 0x1540 JUMP JUMPDEST SWAP5 POP POP PUSH1 0x20 PUSH2 0x15BD DUP8 DUP3 DUP9 ADD PUSH2 0x1573 JUMP JUMPDEST SWAP4 POP POP PUSH1 0x40 DUP6 ADD CALLDATALOAD PUSH8 0xFFFFFFFFFFFFFFFF DUP2 GT ISZERO PUSH2 0x15DE JUMPI PUSH2 0x15DD PUSH2 0x1230 JUMP JUMPDEST JUMPDEST PUSH2 0x15EA DUP8 DUP3 DUP9 ADD PUSH2 0x1448 JUMP JUMPDEST SWAP3 POP POP PUSH1 0x60 DUP6 ADD CALLDATALOAD PUSH8 0xFFFFFFFFFFFFFFFF DUP2 GT ISZERO PUSH2 0x160B JUMPI PUSH2 0x160A PUSH2 0x1230 JUMP JUMPDEST JUMPDEST PUSH2 0x1617 DUP8 DUP3 DUP9 ADD PUSH2 0x1448 JUMP JUMPDEST SWAP2 POP POP SWAP3 SWAP6 SWAP2 SWAP5 POP SWAP3 POP JUMP JUMPDEST PUSH0 DUP2 ISZERO ISZERO SWAP1 POP SWAP2 SWAP1 POP JUMP JUMPDEST PUSH2 0x1637 DUP2 PUSH2 0x1623 JUMP JUMPDEST DUP3 MSTORE POP POP JUMP JUMPDEST PUSH0 PUSH1 0x20 DUP3 ADD SWAP1 POP PUSH2 0x1650 PUSH0 DUP4 ADD DUP5 PUSH2 0x162E JUMP JUMPDEST SWAP3 SWAP2 POP POP JUMP JUMPDEST PUSH32 0x4E6F2077696C6C20666F756E6421000000000000000000000000000000000000 PUSH0 DUP3 ADD MSTORE POP JUMP JUMPDEST PUSH0 PUSH2 0x168A PUSH1 0xE DUP4 PUSH2 0x12C3 JUMP JUMPDEST SWAP2 POP PUSH2 0x1695 DUP3 PUSH2 0x1656 JUMP JUMPDEST PUSH1 0x20 DUP3 ADD SWAP1 POP SWAP2 SWAP1 POP JUMP JUMPDEST PUSH0 PUSH1 0x20 DUP3 ADD SWAP1 POP DUP2 DUP2 SUB PUSH0 DUP4 ADD MSTORE PUSH2 0x16B7 DUP2 PUSH2 0x167E JUMP JUMPDEST SWAP1 POP SWAP2 SWAP1 POP JUMP JUMPDEST PUSH32 0x4E487B7100000000000000000000000000000000000000000000000000000000 PUSH0 MSTORE PUSH1 0x22 PUSH1 0x4 MSTORE PUSH1 0x24 PUSH0 REVERT JUMPDEST PUSH0 PUSH1 0x2 DUP3 DIV SWAP1 POP PUSH1 0x1 DUP3 AND DUP1 PUSH2 0x1702 JUMPI PUSH1 0x7F DUP3 AND SWAP2 POP JUMPDEST PUSH1 0x20 DUP3 LT DUP2 SUB PUSH2 0x1715 JUMPI PUSH2 0x1714 PUSH2 0x16BE JUMP JUMPDEST JUMPDEST POP SWAP2 SWAP1 POP JUMP JUMPDEST PUSH32 0x596F7520616C7265616479206861766520612077696C6C210000000000000000 PUSH0 DUP3 ADD MSTORE POP JUMP JUMPDEST PUSH0 PUSH2 0x174F PUSH1 0x18 DUP4 PUSH2 0x12C3 JUMP JUMPDEST SWAP2 POP PUSH2 0x175A DUP3 PUSH2 0x171B JUMP JUMPDEST PUSH1 0x20 DUP3 ADD SWAP1 POP SWAP2 SWAP1 POP JUMP JUMPDEST PUSH0 PUSH1 0x20 DUP3 ADD SWAP1 POP DUP2 DUP2 SUB PUSH0 DUP4 ADD MSTORE PUSH2 0x177C DUP2 PUSH2 0x1743 JUMP JUMPDEST SWAP1 POP SWAP2 SWAP1 POP JUMP JUMPDEST PUSH32 0x4D757374206C6F636B2045544821000000000000000000000000000000000000 PUSH0 DUP3 ADD MSTORE POP JUMP JUMPDEST PUSH0 PUSH2 0x17B7 PUSH1 0xE DUP4 PUSH2 0x12C3 JUMP JUMPDEST SWAP2 POP PUSH2 0x17C2 DUP3 PUSH2 0x1783 JUMP JUMPDEST PUSH1 0x20 DUP3 ADD SWAP1 POP SWAP2 SWAP1 POP JUMP JUMPDEST PUSH0 PUSH1 0x20 DUP3 ADD SWAP1 POP DUP2 DUP2 SUB PUSH0 DUP4 ADD MSTORE PUSH2 0x17E4 DUP2 PUSH2 0x17AB JUMP JUMPDEST SWAP1 POP SWAP2 SWAP1 POP JUMP JUMPDEST PUSH0 DUP2 SWAP1 POP DUP2 PUSH0 MSTORE PUSH1 0x20 PUSH0 KECCAK256 SWAP1 POP SWAP2 SWAP1 POP JUMP JUMPDEST PUSH0 PUSH1 0x20 PUSH1 0x1F DUP4 ADD DIV SWAP1 POP SWAP2 SWAP1 POP JUMP JUMPDEST PUSH0 DUP3 DUP3 SHL SWAP1 POP SWAP3 SWAP2 POP POP JUMP JUMPDEST PUSH0 PUSH1 0x8 DUP4 MUL PUSH2 0x1847 PUSH32 0xFFFFFFFFFFFFFFFFFFFFFFFFFFFFFFFFFFFFFFFFFFFFFFFFFFFFFFFFFFFFFFFF DUP3 PUSH2 0x180C JUMP JUMPDEST PUSH2 0x1851 DUP7 DUP4 PUSH2 0x180C JUMP JUMPDEST SWAP6 POP DUP1 NOT DUP5 AND SWAP4 POP DUP1 DUP7 AND DUP5 OR SWAP3 POP POP POP SWAP4 SWAP3 POP POP POP JUMP JUMPDEST PUSH0 DUP2 SWAP1 POP SWAP2 SWAP1 POP JUMP JUMPDEST PUSH0 PUSH2 0x188C PUSH2 0x1887 PUSH2 0x1882 DUP5 PUSH2 0x1554 JUMP JUMPDEST PUSH2 0x1869 JUMP JUMPDEST PUSH2 0x1554 JUMP JUMPDEST SWAP1 POP SWAP2 SWAP1 POP JUMP JUMPDEST PUSH0 DUP2 SWAP1 POP SWAP2 SWAP1 POP JUMP JUMPDEST PUSH2 0x18A5 DUP4 PUSH2 0x1872 JUMP JUMPDEST PUSH2 0x18B9 PUSH2 0x18B1 DUP3 PUSH2 0x1893 JUMP JUMPDEST DUP5 DUP5 SLOAD PUSH2 0x1818 JUMP JUMPDEST DUP3 SSTORE POP POP POP POP JUMP JUMPDEST PUSH0 SWAP1 JUMP JUMPDEST PUSH2 0x18CD PUSH2 0x18C1 JUMP JUMPDEST PUSH2 0x18D8 DUP2 DUP5 DUP5 PUSH2 0x189C JUMP JUMPDEST POP POP POP JUMP JUMPDEST JUMPDEST DUP2 DUP2 LT ISZERO PUSH2 0x18FB JUMPI PUSH2 0x18F0 PUSH0 DUP3 PUSH2 0x18C5 JUMP JUMPDEST PUSH1 0x1 DUP2 ADD SWAP1 POP PUSH2 0x18DE JUMP JUMPDEST POP POP JUMP JUMPDEST PUSH1 0x1F DUP3 GT ISZERO PUSH2 0x1940 JUMPI PUSH2 0x1911 DUP2 PUSH2 0x17EB JUMP JUMPDEST PUSH2 0x191A DUP5 PUSH2 0x17FD JUMP JUMPDEST DUP2 ADD PUSH1 0x20 DUP6 LT ISZERO PUSH2 0x1929 JUMPI DUP2 SWAP1 POP JUMPDEST PUSH2 0x193D PUSH2 0x1935 DUP6 PUSH2 0x17FD JUMP JUMPDEST DUP4 ADD DUP3 PUSH2 0x18DD JUMP JUMPDEST POP POP JUMPDEST POP POP POP JUMP JUMPDEST PUSH0 DUP3 DUP3 SHR SWAP1 POP SWAP3 SWAP2 POP POP JUMP JUMPDEST PUSH0 PUSH2 0x1960 PUSH0 NOT DUP5 PUSH1 0x8 MUL PUSH2 0x1945 JUMP JUMPDEST NOT DUP1 DUP4 AND SWAP2 POP POP SWAP3 SWAP2 POP POP JUMP JUMPDEST PUSH0 PUSH2 0x1978 DUP4 DUP4 PUSH2 0x1951 JUMP JUMPDEST SWAP2 POP DUP3 PUSH1 0x2 MUL DUP3 OR SWAP1 POP SWAP3 SWAP2 POP POP JUMP JUMPDEST PUSH2 0x1991 DUP3 PUSH2 0x12B9 JUMP JUMPDEST PUSH8 0xFFFFFFFFFFFFFFFF DUP2 GT ISZERO PUSH2 0x19AA JUMPI PUSH2 0x19A9 PUSH2 0x1351 JUMP JUMPDEST JUMPDEST PUSH2 0x19B4 DUP3 SLOAD PUSH2 0x16EB JUMP JUMPDEST PUSH2 0x19BF DUP3 DUP3 DUP6 PUSH2 0x18FF JUMP JUMPDEST PUSH0 PUSH1 0x20 SWAP1 POP PUSH1 0x1F DUP4 GT PUSH1 0x1 DUP2 EQ PUSH2 0x19F0 JUMPI PUSH0 DUP5 ISZERO PUSH2 0x19DE JUMPI DUP3 DUP8 ADD MLOAD SWAP1 POP JUMPDEST PUSH2 0x19E8 DUP6 DUP3 PUSH2 0x196D JUMP JUMPDEST DUP7 SSTORE POP PUSH2 0x1A4F JUMP JUMPDEST PUSH1 0x1F NOT DUP5 AND PUSH2 0x19FE DUP7 PUSH2 0x17EB JUMP JUMPDEST PUSH0 JUMPDEST DUP3 DUP2 LT ISZERO PUSH2 0x1A25 JUMPI DUP5 DUP10 ADD MLOAD DUP3 SSTORE PUSH1 0x1 DUP3 ADD SWAP2 POP PUSH1 0x20 DUP6 ADD SWAP5 POP PUSH1 0x20 DUP2 ADD SWAP1 POP PUSH2 0x1A00 JUMP JUMPDEST DUP7 DUP4 LT ISZERO PUSH2 0x1A42 JUMPI DUP5 DUP10 ADD MLOAD PUSH2 0x1A3E PUSH1 0x1F DUP10 AND DUP3 PUSH2 0x1951 JUMP JUMPDEST DUP4 SSTORE POP JUMPDEST PUSH1 0x1 PUSH1 0x2 DUP9 MUL ADD DUP9 SSTORE POP POP POP JUMPDEST POP POP POP POP POP POP JUMP JUMPDEST PUSH2 0x1A60 DUP2 PUSH2 0x1554 JUMP JUMPDEST DUP3 MSTORE POP POP JUMP JUMPDEST PUSH0 PUSH1 0x40 DUP3 ADD SWAP1 POP PUSH2 0x1A79 PUSH0 DUP4 ADD DUP6 PUSH2 0x1A57 JUMP JUMPDEST DUP2 DUP2 SUB PUSH1 0x20 DUP4 ADD MSTORE PUSH2 0x1A8B DUP2 DUP5 PUSH2 0x12F1 JUMP JUMPDEST SWAP1 POP SWAP4 SWAP3 POP POP POP JUMP JUMPDEST PUSH32 0x596F75206E65656420746F2063726561746520612077696C6C20666972737400 PUSH0 DUP3 ADD MSTORE POP JUMP JUMPDEST PUSH0 PUSH2 0x1AC8 PUSH1 0x1F DUP4 PUSH2 0x12C3 JUMP JUMPDEST SWAP2 POP PUSH2 0x1AD3 DUP3 PUSH2 0x1A94 JUMP JUMPDEST PUSH1 0x20 DUP3 ADD SWAP1 POP SWAP2 SWAP1 POP JUMP JUMPDEST PUSH0 PUSH1 0x20 DUP3 ADD SWAP1 POP DUP2 DUP2 SUB PUSH0 DUP4 ADD MSTORE PUSH2 0x1AF5 DUP2 PUSH2 0x1ABC JUMP JUMPDEST SWAP1 POP SWAP2 SWAP1 POP JUMP JUMPDEST PUSH32 0x496E76616C69642077616C6C6574206164647265737300000000000000000000 PUSH0 DUP3 ADD MSTORE POP JUMP JUMPDEST PUSH0 PUSH2 0x1B30 PUSH1 0x16 DUP4 PUSH2 0x12C3 JUMP JUMPDEST SWAP2 POP PUSH2 0x1B3B DUP3 PUSH2 0x1AFC JUMP JUMPDEST PUSH1 0x20 DUP3 ADD SWAP1 POP SWAP2 SWAP1 POP JUMP JUMPDEST PUSH0 PUSH1 0x20 DUP3 ADD SWAP1 POP DUP2 DUP2 SUB PUSH0 DUP4 ADD MSTORE PUSH2 0x1B5D DUP2 PUSH2 0x1B24 JUMP JUMPDEST SWAP1 POP SWAP2 SWAP1 POP JUMP JUMPDEST PUSH32 0x496E76616C69642070657263656E746167650000000000000000000000000000 PUSH0 DUP3 ADD MSTORE POP JUMP JUMPDEST PUSH0 PUSH2 0x1B98 PUSH1 0x12 DUP4 PUSH2 0x12C3 JUMP JUMPDEST SWAP2 POP PUSH2 0x1BA3 DUP3 PUSH2 0x1B64 JUMP JUMPDEST PUSH1 0x20 DUP3 ADD SWAP1 POP SWAP2 SWAP1 POP JUMP JUMPDEST PUSH0 PUSH1 0x20 DUP3 ADD SWAP1 POP DUP2 DUP2 SUB PUSH0 DUP4 ADD MSTORE PUSH2 0x1BC5 DUP2 PUSH2 0x1B8C JUMP JUMPDEST SWAP1 POP SWAP2 SWAP1 POP JUMP JUMPDEST PUSH32 0x4E487B7100000000000000000000000000000000000000000000000000000000 PUSH0 MSTORE PUSH1 0x32 PUSH1 0x4 MSTORE PUSH1 0x24 PUSH0 REVERT JUMPDEST PUSH32 0x4E487B7100000000000000000000000000000000000000000000000000000000 PUSH0 MSTORE PUSH1 0x11 PUSH1 0x4 MSTORE PUSH1 0x24 PUSH0 REVERT JUMPDEST PUSH0 PUSH2 0x1C30 DUP3 PUSH2 0x1554 JUMP JUMPDEST SWAP2 POP PUSH2 0x1C3B DUP4 PUSH2 0x1554 JUMP JUMPDEST SWAP3 POP DUP3 DUP3 ADD SWAP1 POP DUP1 DUP3 GT ISZERO PUSH2 0x1C53 JUMPI PUSH2 0x1C52 PUSH2 0x1BF9 JUMP JUMPDEST JUMPDEST SWAP3 SWAP2 POP POP JUMP JUMPDEST PUSH32 0x546F74616C20616C6C6F636174696F6E20657863656564732031303025000000 PUSH0 DUP3 ADD MSTORE POP JUMP JUMPDEST PUSH0 PUSH2 0x1C8D PUSH1 0x1D DUP4 PUSH2 0x12C3 JUMP JUMPDEST SWAP2 POP PUSH2 0x1C98 DUP3 PUSH2 0x1C59 JUMP JUMPDEST PUSH1 0x20 DUP3 ADD SWAP1 POP SWAP2 SWAP1 POP JUMP JUMPDEST PUSH0 PUSH1 0x20 DUP3 ADD SWAP1 POP DUP2 DUP2 SUB PUSH0 DUP4 ADD MSTORE PUSH2 0x1CBA DUP2 PUSH2 0x1C81 JUMP JUMPDEST SWAP1 POP SWAP2 SWAP1 POP JUMP JUMPDEST PUSH0 PUSH2 0x1CDB PUSH2 0x1CD6 PUSH2 0x1CD1 DUP5 PUSH2 0x1234 JUMP JUMPDEST PUSH2 0x1869 JUMP JUMPDEST PUSH2 0x1234 JUMP JUMPDEST SWAP1 POP SWAP2 SWAP1 POP JUMP JUMPDEST PUSH0 PUSH2 0x1CEC DUP3 PUSH2 0x1CC1 JUMP JUMPDEST SWAP1 POP SWAP2 SWAP1 POP JUMP JUMPDEST PUSH0 PUSH2 0x1CFD DUP3 PUSH2 0x1CE2 JUMP JUMPDEST SWAP1 POP SWAP2 SWAP1 POP JUMP JUMPDEST PUSH2 0x1D0D DUP2 PUSH2 0x1CF3 JUMP JUMPDEST DUP3 MSTORE POP POP JUMP JUMPDEST PUSH0 PUSH1 0x40 DUP3 ADD SWAP1 POP PUSH2 0x1D26 PUSH0 DUP4 ADD DUP6 PUSH2 0x1D04 JUMP JUMPDEST PUSH2 0x1D33 PUSH1 0x20 DUP4 ADD DUP5 PUSH2 0x1A57 JUMP JUMPDEST SWAP4 SWAP3 POP POP POP JUMP JUMPDEST PUSH32 0x596F752068617665206E6F74206372656174656420612077696C6C0000000000 PUSH0 DUP3 ADD MSTORE POP JUMP JUMPDEST PUSH0 PUSH2 0x1D6E PUSH1 0x1B DUP4 PUSH2 0x12C3 JUMP JUMPDEST SWAP2 POP PUSH2 0x1D79 DUP3 PUSH2 0x1D3A JUMP JUMPDEST PUSH1 0x20 DUP3 ADD SWAP1 POP SWAP2 SWAP1 POP JUMP JUMPDEST PUSH0 PUSH1 0x20 DUP3 ADD SWAP1 POP DUP2 DUP2 SUB PUSH0 DUP4 ADD MSTORE PUSH2 0x1D9B DUP2 PUSH2 0x1D62 JUMP JUMPDEST SWAP1 POP SWAP2 SWAP1 POP JUMP JUMPDEST PUSH32 0x57696C6C20616C72656164792065786563757465642100000000000000000000 PUSH0 DUP3 ADD MSTORE POP JUMP JUMPDEST PUSH0 PUSH2 0x1DD6 PUSH1 0x16 DUP4 PUSH2 0x12C3 JUMP JUMPDEST SWAP2 POP PUSH2 0x1DE1 DUP3 PUSH2 0x1DA2 JUMP JUMPDEST PUSH1 0x20 DUP3 ADD SWAP1 POP SWAP2 SWAP1 POP JUMP JUMPDEST PUSH0 PUSH1 0x20 DUP3 ADD SWAP1 POP DUP2 DUP2 SUB PUSH0 DUP4 ADD MSTORE PUSH2 0x1E03 DUP2 PUSH2 0x1DCA JUMP JUMPDEST SWAP1 POP SWAP2 SWAP1 POP JUMP JUMPDEST PUSH32 0x4F776E6572206973207374696C6C20616C697665210000000000000000000000 PUSH0 DUP3 ADD MSTORE POP JUMP JUMPDEST PUSH0 PUSH2 0x1E3E PUSH1 0x15 DUP4 PUSH2 0x12C3 JUMP JUMPDEST SWAP2 POP PUSH2 0x1E49 DUP3 PUSH2 0x1E0A JUMP JUMPDEST PUSH1 0x20 DUP3 ADD SWAP1 POP SWAP2 SWAP1 POP JUMP JUMPDEST PUSH0 PUSH1 0x20 DUP3 ADD SWAP1 POP DUP2 DUP2 SUB PUSH0 DUP4 ADD MSTORE PUSH2 0x1E6B DUP2 PUSH2 0x1E32 JUMP JUMPDEST SWAP1 POP SWAP2 SWAP1 POP JUMP JUMPDEST PUSH32 0x4E6F2045544820746F2064697374726962757465000000000000000000000000 PUSH0 DUP3 ADD MSTORE POP JUMP JUMPDEST PUSH0 PUSH2 0x1EA6 PUSH1 0x14 DUP4 PUSH2 0x12C3 JUMP JUMPDEST SWAP2 POP PUSH2 0x1EB1 DUP3 PUSH2 0x1E72 JUMP JUMPDEST PUSH1 0x20 DUP3 ADD SWAP1 POP SWAP2 SWAP1 POP JUMP JUMPDEST PUSH0 PUSH1 0x20 DUP3 ADD SWAP1 POP DUP2 DUP2 SUB PUSH0 DUP4 ADD MSTORE PUSH2 0x1ED3 DUP2 PUSH2 0x1E9A JUMP JUMPDEST SWAP1 POP SWAP2 SWAP1 POP JUMP JUMPDEST PUSH0 PUSH2 0x1EE4 DUP3 PUSH2 0x1554 JUMP JUMPDEST SWAP2 POP PUSH2 0x1EEF DUP4 PUSH2 0x1554 JUMP JUMPDEST SWAP3 POP DUP3 DUP3 MUL PUSH2 0x1EFD DUP2 PUSH2 0x1554 JUMP JUMPDEST SWAP2 POP DUP3 DUP3 DIV DUP5 EQ DUP4 ISZERO OR PUSH2 0x1F14 JUMPI PUSH2 0x1F13 PUSH2 0x1BF9 JUMP JUMPDEST JUMPDEST POP SWAP3 SWAP2 POP POP JUMP JUMPDEST PUSH32 0x4E487B7100000000000000000000000000000000000000000000000000000000 PUSH0 MSTORE PUSH1 0x12 PUSH1 0x4 MSTORE PUSH1 0x24 PUSH0 REVERT JUMPDEST PUSH0 PUSH2 0x1F52 DUP3 PUSH2 0x1554 JUMP JUMPDEST SWAP2 POP PUSH2 0x1F5D DUP4 PUSH2 0x1554 JUMP JUMPDEST SWAP3 POP DUP3 PUSH2 0x1F6D JUMPI PUSH2 0x1F6C PUSH2 0x1F1B JUMP JUMPDEST JUMPDEST DUP3 DUP3 DIV SWAP1 POP SWAP3 SWAP2 POP POP JUMP JUMPDEST PUSH0 DUP2 SLOAD PUSH2 0x1F84 DUP2 PUSH2 0x16EB JUMP JUMPDEST PUSH2 0x1F8E DUP2 DUP7 PUSH2 0x12C3 JUMP JUMPDEST SWAP5 POP PUSH1 0x1 DUP3 AND PUSH0 DUP2 EQ PUSH2 0x1FA8 JUMPI PUSH1 0x1 DUP2 EQ PUSH2 0x1FBE JUMPI PUSH2 0x1FF0 JUMP JUMPDEST PUSH1 0xFF NOT DUP4 AND DUP7 MSTORE DUP2 ISZERO ISZERO PUSH1 0x20 MUL DUP7 ADD SWAP4 POP PUSH2 0x1FF0 JUMP JUMPDEST PUSH2 0x1FC7 DUP6 PUSH2 0x17EB JUMP JUMPDEST PUSH0 JUMPDEST DUP4 DUP2 LT ISZERO PUSH2 0x1FE8 JUMPI DUP2 SLOAD DUP2 DUP10 ADD MSTORE PUSH1 0x1 DUP3 ADD SWAP2 POP PUSH1 0x20 DUP2 ADD SWAP1 POP PUSH2 0x1FC9 JUMP JUMPDEST DUP1 DUP9 ADD SWAP6 POP POP POP JUMPDEST POP POP POP SWAP3 SWAP2 POP POP JUMP JUMPDEST PUSH0 PUSH1 0x60 DUP3 ADD SWAP1 POP PUSH2 0x200C PUSH0 DUP4 ADD DUP7 PUSH2 0x1A57 JUMP JUMPDEST DUP2 DUP2 SUB PUSH1 0x20 DUP4 ADD MSTORE PUSH2 0x201E DUP2 DUP6 PUSH2 0x1F78 JUMP JUMPDEST SWAP1 POP DUP2 DUP2 SUB PUSH1 0x40 DUP4 ADD MSTORE PUSH2 0x2032 DUP2 DUP5 PUSH2 0x1F78 JUMP JUMPDEST SWAP1 POP SWAP5 SWAP4 POP POP POP POP JUMP INVALID LOG2 PUSH5 0x6970667358 0x22 SLT KECCAK256 PUSH8 0x7C7E3C89B7DAE27 0xA5 0xEE 0xE9 SWAP6 BALANCE MSTORE 0xFC 0xD 0xB1 DUP8 0xDC LOG4 DUP5 0xC ISZERO 0xA7 0xB1 SWAP14 EXTCODESIZE SMOD DUP3 STATICCALL 0xCD PUSH5 0x736F6C6343 STOP ADDMOD BYTE STOP CALLER "
	},
	"Assembly": ".code\n  PUSH 80\t\t\tcontract MultiWillContract {\\n...\n  PUSH 40\t\t\tcontract MultiWillContract {\\n...\n  MSTORE \t\t\tcontract MultiWillContract {\\n...\n  CALLVALUE \t\t\tcontract MultiWillContract {\\n...\n  DUP1 \t\t\tcontract MultiWillContract {\\n...\n  ISZERO \t\t\tcontract MultiWillContract {\\n...\n  PUSH [tag] 1\t\t\tcontract MultiWillContract {\\n...\n  JUMPI \t\t\tcontract MultiWillContract {\\n...\n  PUSH 0\t\t\tcontract MultiWillContract {\\n...\n  DUP1 \t\t\tcontract MultiWillContract {\\n...\n  REVERT \t\t\tcontract MultiWillContract {\\n...\ntag 1\t\t\tcontract MultiWillContract {\\n...\n  JUMPDEST \t\t\tcontract MultiWillContract {\\n...\n  POP \t\t\tcontract MultiWillContract {\\n...\n  PUSH #[$] 0000000000000000000000000000000000000000000000000000000000000000\t\t\tcontract MultiWillContract {\\n...\n  DUP1 \t\t\tcontract MultiWillContract {\\n...\n  PUSH [$] 0000000000000000000000000000000000000000000000000000000000000000\t\t\tcontract MultiWillContract {\\n...\n  PUSH 0\t\t\tcontract MultiWillContract {\\n...\n  CODECOPY \t\t\tcontract MultiWillContract {\\n...\n  PUSH 0\t\t\tcontract MultiWillContract {\\n...\n  RETURN \t\t\tcontract MultiWillContract {\\n...\n.data\n  0:\n    .code\n      PUSH 80\t\t\tcontract MultiWillContract {\\n...\n      PUSH 40\t\t\tcontract MultiWillContract {\\n...\n      MSTORE \t\t\tcontract MultiWillContract {\\n...\n      PUSH 4\t\t\tcontract MultiWillContract {\\n...\n      CALLDATASIZE \t\t\tcontract MultiWillContract {\\n...\n      LT \t\t\tcontract MultiWillContract {\\n...\n      PUSH [tag] 1\t\t\tcontract MultiWillContract {\\n...\n      JUMPI \t\t\tcontract MultiWillContract {\\n...\n      PUSH 0\t\t\tcontract MultiWillContract {\\n...\n      CALLDATALOAD \t\t\tcontract MultiWillContract {\\n...\n      PUSH E0\t\t\tcontract MultiWillContract {\\n...\n      SHR \t\t\tcontract MultiWillContract {\\n...\n      DUP1 \t\t\tcontract MultiWillContract {\\n...\n      PUSH 549CC7B8\t\t\tcontract MultiWillContract {\\n...\n      GT \t\t\tcontract MultiWillContract {\\n...\n      PUSH [tag] 9\t\t\tcontract MultiWillContract {\\n...\n      JUMPI \t\t\tcontract MultiWillContract {\\n...\n      DUP1 \t\t\tcontract MultiWillContract {\\n...\n      PUSH 549CC7B8\t\t\tcontract MultiWillContract {\\n...\n      EQ \t\t\tcontract MultiWillContract {\\n...\n      PUSH [tag] 5\t\t\tcontract MultiWillContract {\\n...\n      JUMPI \t\t\tcontract MultiWillContract {\\n...\n      DUP1 \t\t\tcontract MultiWillContract {\\n...\n      PUSH 6F9B65F0\t\t\tcontract MultiWillContract {\\n...\n      EQ \t\t\tcontract MultiWillContract {\\n...\n      PUSH [tag] 6\t\t\tcontract MultiWillContract {\\n...\n      JUMPI \t\t\tcontract MultiWillContract {\\n...\n      DUP1 \t\t\tcontract MultiWillContract {\\n...\n      PUSH E7DDA555\t\t\tcontract MultiWillContract {\\n...\n      EQ \t\t\tcontract MultiWillContract {\\n...\n      PUSH [tag] 7\t\t\tcontract MultiWillContract {\\n...\n      JUMPI \t\t\tcontract MultiWillContract {\\n...\n      DUP1 \t\t\tcontract MultiWillContract {\\n...\n      PUSH E854D135\t\t\tcontract MultiWillContract {\\n...\n      EQ \t\t\tcontract MultiWillContract {\\n...\n      PUSH [tag] 8\t\t\tcontract MultiWillContract {\\n...\n      JUMPI \t\t\tcontract MultiWillContract {\\n...\n      PUSH [tag] 1\t\t\tcontract MultiWillContract {\\n...\n      JUMP \t\t\tcontract MultiWillContract {\\n...\n    tag 9\t\t\tcontract MultiWillContract {\\n...\n      JUMPDEST \t\t\tcontract MultiWillContract {\\n...\n      DUP1 \t\t\tcontract MultiWillContract {\\n...\n      PUSH 203BE4FB\t\t\tcontract MultiWillContract {\\n...\n      EQ \t\t\tcontract MultiWillContract {\\n...\n      PUSH [tag] 2\t\t\tcontract MultiWillContract {\\n...\n      JUMPI \t\t\tcontract MultiWillContract {\\n...\n      DUP1 \t\t\tcontract MultiWillContract {\\n...\n      PUSH 293AFA9E\t\t\tcontract MultiWillContract {\\n...\n      EQ \t\t\tcontract MultiWillContract {\\n...\n      PUSH [tag] 3\t\t\tcontract MultiWillContract {\\n...\n      JUMPI \t\t\tcontract MultiWillContract {\\n...\n      DUP1 \t\t\tcontract MultiWillContract {\\n...\n      PUSH 4EBDE6D3\t\t\tcontract MultiWillContract {\\n...\n      EQ \t\t\tcontract MultiWillContract {\\n...\n      PUSH [tag] 4\t\t\tcontract MultiWillContract {\\n...\n      JUMPI \t\t\tcontract MultiWillContract {\\n...\n    tag 1\t\t\tcontract MultiWillContract {\\n...\n      JUMPDEST \t\t\tcontract MultiWillContract {\\n...\n      PUSH 0\t\t\tcontract MultiWillContract {\\n...\n      DUP1 \t\t\tcontract MultiWillContract {\\n...\n      REVERT \t\t\tcontract MultiWillContract {\\n...\n    tag 2\t\t\ttion getWillTransactionHash(ad...\n      JUMPDEST \t\t\ttion getWillTransactionHash(ad...\n      CALLVALUE \t\t\ttion getWillTransactionHash(ad...\n      DUP1 \t\t\ttion getWillTransactionHash(ad...\n      ISZERO \t\t\ttion getWillTransactionHash(ad...\n      PUSH [tag] 10\t\t\ttion getWillTransactionHash(ad...\n      JUMPI \t\t\ttion getWillTransactionHash(ad...\n      PUSH 0\t\t\ttion getWillTransactionHash(ad...\n      DUP1 \t\t\ttion getWillTransactionHash(ad...\n      REVERT \t\t\ttion getWillTransactionHash(ad...\n    tag 10\t\t\ttion getWillTransactionHash(ad...\n      JUMPDEST \t\t\ttion getWillTransactionHash(ad...\n      POP \t\t\ttion getWillTransactionHash(ad...\n      PUSH [tag] 11\t\t\ttion getWillTransactionHash(ad...\n      PUSH 4\t\t\ttion getWillTransactionHash(ad...\n      DUP1 \t\t\ttion getWillTransactionHash(ad...\n      CALLDATASIZE \t\t\ttion getWillTransactionHash(ad...\n      SUB \t\t\ttion getWillTransactionHash(ad...\n      DUP2 \t\t\ttion getWillTransactionHash(ad...\n      ADD \t\t\ttion getWillTransactionHash(ad...\n      SWAP1 \t\t\ttion getWillTransactionHash(ad...\n      PUSH [tag] 12\t\t\ttion getWillTransactionHash(ad...\n      SWAP2 \t\t\ttion getWillTransactionHash(ad...\n      SWAP1 \t\t\ttion getWillTransactionHash(ad...\n      PUSH [tag] 13\t\t\ttion getWillTransactionHash(ad...\n      JUMP \t\t\ttion getWillTransactionHash(ad...\n    tag 12\t\t\ttion getWillTransactionHash(ad...\n      JUMPDEST \t\t\ttion getWillTransactionHash(ad...\n      PUSH [tag] 14\t\t\ttion getWillTransactionHash(ad...\n      JUMP \t\t\ttion getWillTransactionHash(ad...\n    tag 11\t\t\ttion getWillTransactionHash(ad...\n      JUMPDEST \t\t\ttion getWillTransactionHash(ad...\n      PUSH 40\t\t\ttion getWillTransactionHash(ad...\n      MLOAD \t\t\ttion getWillTransactionHash(ad...\n      PUSH [tag] 15\t\t\ttion getWillTransactionHash(ad...\n      SWAP2 \t\t\ttion getWillTransactionHash(ad...\n      SWAP1 \t\t\ttion getWillTransactionHash(ad...\n      PUSH [tag] 16\t\t\ttion getWillTransactionHash(ad...\n      JUMP \t\t\ttion getWillTransactionHash(ad...\n    tag 15\t\t\ttion getWillTransactionHash(ad...\n      JUMPDEST \t\t\ttion getWillTransactionHash(ad...\n      PUSH 40\t\t\ttion getWillTransactionHash(ad...\n      MLOAD \t\t\ttion getWillTransactionHash(ad...\n      DUP1 \t\t\ttion getWillTransactionHash(ad...\n      SWAP2 \t\t\ttion getWillTransactionHash(ad...\n      SUB \t\t\ttion getWillTransactionHash(ad...\n      SWAP1 \t\t\ttion getWillTransactionHash(ad...\n      RETURN \t\t\ttion getWillTransactionHash(ad...\n    tag 3\t\t\tnction createWill(\\n        st...\n      JUMPDEST \t\t\tnction createWill(\\n        st...\n      PUSH [tag] 17\t\t\tnction createWill(\\n        st...\n      PUSH 4\t\t\tnction createWill(\\n        st...\n      DUP1 \t\t\tnction createWill(\\n        st...\n      CALLDATASIZE \t\t\tnction createWill(\\n        st...\n      SUB \t\t\tnction createWill(\\n        st...\n      DUP2 \t\t\tnction createWill(\\n        st...\n      ADD \t\t\tnction createWill(\\n        st...\n      SWAP1 \t\t\tnction createWill(\\n        st...\n      PUSH [tag] 18\t\t\tnction createWill(\\n        st...\n      SWAP2 \t\t\tnction createWill(\\n        st...\n      SWAP1 \t\t\tnction createWill(\\n        st...\n      PUSH [tag] 19\t\t\tnction createWill(\\n        st...\n      JUMP \t\t\tnction createWill(\\n        st...\n    tag 18\t\t\tnction createWill(\\n        st...\n      JUMPDEST \t\t\tnction createWill(\\n        st...\n      PUSH [tag] 20\t\t\tnction createWill(\\n        st...\n      JUMP \t\t\tnction createWill(\\n        st...\n    tag 17\t\t\tnction createWill(\\n        st...\n      JUMPDEST \t\t\tnction createWill(\\n        st...\n      STOP \t\t\tnction createWill(\\n        st...\n    tag 4\t\t\ttion addBeneficiary(\\n        ...\n      JUMPDEST \t\t\ttion addBeneficiary(\\n        ...\n      CALLVALUE \t\t\ttion addBeneficiary(\\n        ...\n      DUP1 \t\t\ttion addBeneficiary(\\n        ...\n      ISZERO \t\t\ttion addBeneficiary(\\n        ...\n      PUSH [tag] 21\t\t\ttion addBeneficiary(\\n        ...\n      JUMPI \t\t\ttion addBeneficiary(\\n        ...\n      PUSH 0\t\t\ttion addBeneficiary(\\n        ...\n      DUP1 \t\t\ttion addBeneficiary(\\n        ...\n      REVERT \t\t\ttion addBeneficiary(\\n        ...\n    tag 21\t\t\ttion addBeneficiary(\\n        ...\n      JUMPDEST \t\t\ttion addBeneficiary(\\n        ...\n      POP \t\t\ttion addBeneficiary(\\n        ...\n      PUSH [tag] 22\t\t\ttion addBeneficiary(\\n        ...\n      PUSH 4\t\t\ttion addBeneficiary(\\n        ...\n      DUP1 \t\t\ttion addBeneficiary(\\n        ...\n      CALLDATASIZE \t\t\ttion addBeneficiary(\\n        ...\n      SUB \t\t\ttion addBeneficiary(\\n        ...\n      DUP2 \t\t\ttion addBeneficiary(\\n        ...\n      ADD \t\t\ttion addBeneficiary(\\n        ...\n      SWAP1 \t\t\ttion addBeneficiary(\\n        ...\n      PUSH [tag] 23\t\t\ttion addBeneficiary(\\n        ...\n      SWAP2 \t\t\ttion addBeneficiary(\\n        ...\n      SWAP1 \t\t\ttion addBeneficiary(\\n        ...\n      PUSH [tag] 24\t\t\ttion addBeneficiary(\\n        ...\n      JUMP \t\t\ttion addBeneficiary(\\n        ...\n    tag 23\t\t\ttion addBeneficiary(\\n        ...\n      JUMPDEST \t\t\ttion addBeneficiary(\\n        ...\n      PUSH [tag] 25\t\t\ttion addBeneficiary(\\n        ...\n      JUMP \t\t\ttion addBeneficiary(\\n        ...\n    tag 22\t\t\ttion addBeneficiary(\\n        ...\n      JUMPDEST \t\t\ttion addBeneficiary(\\n        ...\n      STOP \t\t\ttion addBeneficiary(\\n        ...\n    tag 5\t\t\tpping(address => bool) public ...\n      JUMPDEST \t\t\tpping(address => bool) public ...\n      CALLVALUE \t\t\tpping(address => bool) public ...\n      DUP1 \t\t\tpping(address => bool) public ...\n      ISZERO \t\t\tpping(address => bool) public ...\n      PUSH [tag] 26\t\t\tpping(address => bool) public ...\n      JUMPI \t\t\tpping(address => bool) public ...\n      PUSH 0\t\t\tpping(address => bool) public ...\n      DUP1 \t\t\tpping(address => bool) public ...\n      REVERT \t\t\tpping(address => bool) public ...\n    tag 26\t\t\tpping(address => bool) public ...\n      JUMPDEST \t\t\tpping(address => bool) public ...\n      POP \t\t\tpping(address => bool) public ...\n      PUSH [tag] 27\t\t\tpping(address => bool) public ...\n      PUSH 4\t\t\tpping(address => bool) public ...\n      DUP1 \t\t\tpping(address => bool) public ...\n      CALLDATASIZE \t\t\tpping(address => bool) public ...\n      SUB \t\t\tpping(address => bool) public ...\n      DUP2 \t\t\tpping(address => bool) public ...\n      ADD \t\t\tpping(address => bool) public ...\n      SWAP1 \t\t\tpping(address => bool) public ...\n      PUSH [tag] 28\t\t\tpping(address => bool) public ...\n      SWAP2 \t\t\tpping(address => bool) public ...\n      SWAP1 \t\t\tpping(address => bool) public ...\n      PUSH [tag] 13\t\t\tpping(address => bool) public ...\n      JUMP \t\t\tpping(address => bool) public ...\n    tag 28\t\t\tpping(address => bool) public ...\n      JUMPDEST \t\t\tpping(address => bool) public ...\n      PUSH [tag] 29\t\t\tpping(address => bool) public ...\n      JUMP \t\t\tpping(address => bool) public ...\n    tag 27\t\t\tpping(address => bool) public ...\n      JUMPDEST \t\t\tpping(address => bool) public ...\n      PUSH 40\t\t\tpping(address => bool) public ...\n      MLOAD \t\t\tpping(address => bool) public ...\n      PUSH [tag] 30\t\t\tpping(address => bool) public ...\n      SWAP2 \t\t\tpping(address => bool) public ...\n      SWAP1 \t\t\tpping(address => bool) public ...\n      PUSH [tag] 31\t\t\tpping(address => bool) public ...\n      JUMP \t\t\tpping(address => bool) public ...\n    tag 30\t\t\tpping(address => bool) public ...\n      JUMPDEST \t\t\tpping(address => bool) public ...\n      PUSH 40\t\t\tpping(address => bool) public ...\n      MLOAD \t\t\tpping(address => bool) public ...\n      DUP1 \t\t\tpping(address => bool) public ...\n      SWAP2 \t\t\tpping(address => bool) public ...\n      SUB \t\t\tpping(address => bool) public ...\n      SWAP1 \t\t\tpping(address => bool) public ...\n      RETURN \t\t\tpping(address => bool) public ...\n    tag 6\t\t\ttion confirmAlive() public {\\n...\n      JUMPDEST \t\t\ttion confirmAlive() public {\\n...\n      CALLVALUE \t\t\ttion confirmAlive() public {\\n...\n      DUP1 \t\t\ttion confirmAlive() public {\\n...\n      ISZERO \t\t\ttion confirmAlive() public {\\n...\n      PUSH [tag] 32\t\t\ttion confirmAlive() public {\\n...\n      JUMPI \t\t\ttion confirmAlive() public {\\n...\n      PUSH 0\t\t\ttion confirmAlive() public {\\n...\n      DUP1 \t\t\ttion confirmAlive() public {\\n...\n      REVERT \t\t\ttion confirmAlive() public {\\n...\n    tag 32\t\t\ttion confirmAlive() public {\\n...\n      JUMPDEST \t\t\ttion confirmAlive() public {\\n...\n      POP \t\t\ttion confirmAlive() public {\\n...\n      PUSH [tag] 33\t\t\ttion confirmAlive() public {\\n...\n      PUSH [tag] 34\t\t\ttion confirmAlive() public {\\n...\n      JUMP \t\t\ttion confirmAlive() public {\\n...\n    tag 33\t\t\ttion confirmAlive() public {\\n...\n      JUMPDEST \t\t\ttion confirmAlive() public {\\n...\n      STOP \t\t\ttion confirmAlive() public {\\n...\n    tag 7\t\t\ttion isWillExecuted(address us...\n      JUMPDEST \t\t\ttion isWillExecuted(address us...\n      CALLVALUE \t\t\ttion isWillExecuted(address us...\n      DUP1 \t\t\ttion isWillExecuted(address us...\n      ISZERO \t\t\ttion isWillExecuted(address us...\n      PUSH [tag] 35\t\t\ttion isWillExecuted(address us...\n      JUMPI \t\t\ttion isWillExecuted(address us...\n      PUSH 0\t\t\ttion isWillExecuted(address us...\n      DUP1 \t\t\ttion isWillExecuted(address us...\n      REVERT \t\t\ttion isWillExecuted(address us...\n    tag 35\t\t\ttion isWillExecuted(address us...\n      JUMPDEST \t\t\ttion isWillExecuted(address us...\n      POP \t\t\ttion isWillExecuted(address us...\n      PUSH [tag] 36\t\t\ttion isWillExecuted(address us...\n      PUSH 4\t\t\ttion isWillExecuted(address us...\n      DUP1 \t\t\ttion isWillExecuted(address us...\n      CALLDATASIZE \t\t\ttion isWillExecuted(address us...\n      SUB \t\t\ttion isWillExecuted(address us...\n      DUP2 \t\t\ttion isWillExecuted(address us...\n      ADD \t\t\ttion isWillExecuted(address us...\n      SWAP1 \t\t\ttion isWillExecuted(address us...\n      PUSH [tag] 37\t\t\ttion isWillExecuted(address us...\n      SWAP2 \t\t\ttion isWillExecuted(address us...\n      SWAP1 \t\t\ttion isWillExecuted(address us...\n      PUSH [tag] 13\t\t\ttion isWillExecuted(address us...\n      JUMP \t\t\ttion isWillExecuted(address us...\n    tag 37\t\t\ttion isWillExecuted(address us...\n      JUMPDEST \t\t\ttion isWillExecuted(address us...\n      PUSH [tag] 38\t\t\ttion isWillExecuted(address us...\n      JUMP \t\t\ttion isWillExecuted(address us...\n    tag 36\t\t\ttion isWillExecuted(address us...\n      JUMPDEST \t\t\ttion isWillExecuted(address us...\n      PUSH 40\t\t\ttion isWillExecuted(address us...\n      MLOAD \t\t\ttion isWillExecuted(address us...\n      PUSH [tag] 39\t\t\ttion isWillExecuted(address us...\n      SWAP2 \t\t\ttion isWillExecuted(address us...\n      SWAP1 \t\t\ttion isWillExecuted(address us...\n      PUSH [tag] 31\t\t\ttion isWillExecuted(address us...\n      JUMP \t\t\ttion isWillExecuted(address us...\n    tag 39\t\t\ttion isWillExecuted(address us...\n      JUMPDEST \t\t\ttion isWillExecuted(address us...\n      PUSH 40\t\t\ttion isWillExecuted(address us...\n      MLOAD \t\t\ttion isWillExecuted(address us...\n      DUP1 \t\t\ttion isWillExecuted(address us...\n      SWAP2 \t\t\ttion isWillExecuted(address us...\n      SUB \t\t\ttion isWillExecuted(address us...\n      SWAP1 \t\t\ttion isWillExecuted(address us...\n      RETURN \t\t\ttion isWillExecuted(address us...\n    tag 8\t\t\ttion executeWill(address user)...\n      JUMPDEST \t\t\ttion executeWill(address user)...\n      CALLVALUE \t\t\ttion executeWill(address user)...\n      DUP1 \t\t\ttion executeWill(address user)...\n      ISZERO \t\t\ttion executeWill(address user)...\n      PUSH [tag] 40\t\t\ttion executeWill(address user)...\n      JUMPI \t\t\ttion executeWill(address user)...\n      PUSH 0\t\t\ttion executeWill(address user)...\n      DUP1 \t\t\ttion executeWill(address user)...\n      REVERT \t\t\ttion executeWill(address user)...\n    tag 40\t\t\ttion executeWill(address user)...\n      JUMPDEST \t\t\ttion executeWill(address user)...\n      POP \t\t\ttion executeWill(address user)...\n      PUSH [tag] 41\t\t\ttion executeWill(address user)...\n      PUSH 4\t\t\ttion executeWill(address user)...\n      DUP1 \t\t\ttion executeWill(address user)...\n      CALLDATASIZE \t\t\ttion executeWill(address user)...\n      SUB \t\t\ttion executeWill(address user)...\n      DUP2 \t\t\ttion executeWill(address user)...\n      ADD \t\t\ttion executeWill(address user)...\n      SWAP1 \t\t\ttion executeWill(address user)...\n      PUSH [tag] 42\t\t\ttion executeWill(address user)...\n      SWAP2 \t\t\ttion executeWill(address user)...\n      SWAP1 \t\t\ttion executeWill(address user)...\n      PUSH [tag] 13\t\t\ttion executeWill(address user)...\n      JUMP \t\t\ttion executeWill(address user)...\n    tag 42\t\t\ttion executeWill(address user)...\n      JUMPDEST \t\t\ttion executeWill(address user)...\n      PUSH [tag] 43\t\t\ttion executeWill(address user)...\n      JUMP \t\t\ttion executeWill(address user)...\n    tag 41\t\t\ttion executeWill(address user)...\n      JUMPDEST \t\t\ttion executeWill(address user)...\n      STOP \t\t\ttion executeWill(address user)...\n    tag 14\t\t\ttion getWillTransactionHash(ad...\n      JUMPDEST \t\t\ttion getWillTransactionHash(ad...\n      PUSH 60\t\t\tng memory) {\\n\n      PUSH 1\t\t\till[use\n      PUSH 0\t\t\till[user], \"N\n      DUP4 \t\t\t], \"\n      PUSH FFFFFFFFFFFFFFFFFFFFFFFFFFFFFFFFFFFFFFFF\t\t\till[user], \"N\n      AND \t\t\till[user], \"N\n      PUSH FFFFFFFFFFFFFFFFFFFFFFFFFFFFFFFFFFFFFFFF\t\t\till[user], \"N\n      AND \t\t\till[user], \"N\n      DUP2 \t\t\till[user], \"N\n      MSTORE \t\t\till[user], \"N\n      PUSH 20\t\t\till[user], \"N\n      ADD \t\t\till[user], \"N\n      SWAP1 \t\t\till[user], \"N\n      DUP2 \t\t\till[user], \"N\n      MSTORE \t\t\till[user], \"N\n      PUSH 20\t\t\till[user], \"N\n      ADD \t\t\till[user], \"N\n      PUSH 0\t\t\till[user], \"N\n      KECCAK256 \t\t\till[user], \"N\n      PUSH 0\t\t\till[user], \"N\n      SWAP1 \t\t\till[user], \"N\n      SLOAD \t\t\till[user], \"N\n      SWAP1 \t\t\till[user], \"N\n      PUSH 100\t\t\till[user], \"N\n      EXP \t\t\till[user], \"N\n      SWAP1 \t\t\till[user], \"N\n      DIV \t\t\till[user], \"N\n      PUSH FF\t\t\till[user], \"N\n      AND \t\t\till[user], \"N\n      PUSH [tag] 45\t\t\tire(hasWill[user], \"No will fo...\n      JUMPI \t\t\tire(hasWill[user], \"No will fo...\n      PUSH 40\t\t\tire(hasWill[user], \"No will fo...\n      MLOAD \t\t\tire(hasWill[user], \"No will fo...\n      PUSH 8C379A000000000000000000000000000000000000000000000000000000000\t\t\tire(hasWill[user], \"No will fo...\n      DUP2 \t\t\tire(hasWill[user], \"No will fo...\n      MSTORE \t\t\tire(hasWill[user], \"No will fo...\n      PUSH 4\t\t\tire(hasWill[user], \"No will fo...\n      ADD \t\t\tire(hasWill[user], \"No will fo...\n      PUSH [tag] 46\t\t\tire(hasWill[user], \"No will fo...\n      SWAP1 \t\t\tire(hasWill[user], \"No will fo...\n      PUSH [tag] 47\t\t\tire(hasWill[user], \"No will fo...\n      JUMP \t\t\tire(hasWill[user], \"No will fo...\n    tag 46\t\t\tire(hasWill[user], \"No will fo...\n      JUMPDEST \t\t\tire(hasWill[user], \"No will fo...\n      PUSH 40\t\t\tire(hasWill[user], \"No will fo...\n      MLOAD \t\t\tire(hasWill[user], \"No will fo...\n      DUP1 \t\t\tire(hasWill[user], \"No will fo...\n      SWAP2 \t\t\tire(hasWill[user], \"No will fo...\n      SUB \t\t\tire(hasWill[user], \"No will fo...\n      SWAP1 \t\t\tire(hasWill[user], \"No will fo...\n      REVERT \t\t\tire(hasWill[user], \"No will fo...\n    tag 45\t\t\tire(hasWill[user], \"No will fo...\n      JUMPDEST \t\t\tire(hasWill[user], \"No will fo...\n      PUSH 0\t\t\ts[use\n      DUP1 \t\t\ts[user].tra\n      DUP4 \t\t\t].tr\n      PUSH FFFFFFFFFFFFFFFFFFFFFFFFFFFFFFFFFFFFFFFF\t\t\ts[user].tra\n      AND \t\t\ts[user].tra\n      PUSH FFFFFFFFFFFFFFFFFFFFFFFFFFFFFFFFFFFFFFFF\t\t\ts[user].tra\n      AND \t\t\ts[user].tra\n      DUP2 \t\t\ts[user].tra\n      MSTORE \t\t\ts[user].tra\n      PUSH 20\t\t\ts[user].tra\n      ADD \t\t\ts[user].tra\n      SWAP1 \t\t\ts[user].tra\n      DUP2 \t\t\ts[user].tra\n      MSTORE \t\t\ts[user].tra\n      PUSH 20\t\t\ts[user].tra\n      ADD \t\t\ts[user].tra\n      PUSH 0\t\t\ts[user].tra\n      KECCAK256 \t\t\ts[user].tra\n      PUSH 7\t\t\ts[user].transactionHash;\\n  \n      ADD \t\t\ts[user].transactionHash;\\n  \n      DUP1 \t\t\trn wills[user].transactionHash...\n      SLOAD \t\t\trn wills[user].transactionHash...\n      PUSH [tag] 48\t\t\trn wills[user].transactionHash...\n      SWAP1 \t\t\trn wills[user].transactionHash...\n      PUSH [tag] 49\t\t\trn wills[user].transactionHash...\n      JUMP \t\t\trn wills[user].transactionHash...\n    tag 48\t\t\trn wills[user].transactionHash...\n      JUMPDEST \t\t\trn wills[user].transactionHash...\n      DUP1 \t\t\trn wills[user].transactionHash...\n      PUSH 1F\t\t\trn wills[user].transactionHash...\n      ADD \t\t\trn wills[user].transactionHash...\n      PUSH 20\t\t\trn wills[user].transactionHash...\n      DUP1 \t\t\trn wills[user].transactionHash...\n      SWAP2 \t\t\trn wills[user].transactionHash...\n      DIV \t\t\trn wills[user].transactionHash...\n      MUL \t\t\trn wills[user].transactionHash...\n      PUSH 20\t\t\trn wills[user].transactionHash...\n      ADD \t\t\trn wills[user].transactionHash...\n      PUSH 40\t\t\trn wills[user].transactionHash...\n      MLOAD \t\t\trn wills[user].transactionHash...\n      SWAP1 \t\t\trn wills[user].transactionHash...\n      DUP2 \t\t\trn wills[user].transactionHash...\n      ADD \t\t\trn wills[user].transactionHash...\n      PUSH 40\t\t\trn wills[user].transactionHash...\n      MSTORE \t\t\trn wills[user].transactionHash...\n      DUP1 \t\t\trn wills[user].transactionHash...\n      SWAP3 \t\t\trn wills[user].transactionHash...\n      SWAP2 \t\t\trn wills[user].transactionHash...\n      SWAP1 \t\t\trn wills[user].transactionHash...\n      DUP2 \t\t\trn wills[user].transactionHash...\n      DUP2 \t\t\trn wills[user].transactionHash...\n      MSTORE \t\t\trn wills[user].transactionHash...\n      PUSH 20\t\t\trn wills[user].transactionHash...\n      ADD \t\t\trn wills[user].transactionHash...\n      DUP3 \t\t\trn wills[user].transactionHash...\n      DUP1 \t\t\trn wills[user].transactionHash...\n      SLOAD \t\t\trn wills[user].transactionHash...\n      PUSH [tag] 50\t\t\trn wills[user].transactionHash...\n      SWAP1 \t\t\trn wills[user].transactionHash...\n      PUSH [tag] 49\t\t\trn wills[user].transactionHash...\n      JUMP \t\t\trn wills[user].transactionHash...\n    tag 50\t\t\trn wills[user].transactionHash...\n      JUMPDEST \t\t\trn wills[user].transactionHash...\n      DUP1 \t\t\trn wills[user].transactionHash...\n      ISZERO \t\t\trn wills[user].transactionHash...\n      PUSH [tag] 51\t\t\trn wills[user].transactionHash...\n      JUMPI \t\t\trn wills[user].transactionHash...\n      DUP1 \t\t\trn wills[user].transactionHash...\n      PUSH 1F\t\t\trn wills[user].transactionHash...\n      LT \t\t\trn wills[user].transactionHash...\n      PUSH [tag] 52\t\t\trn wills[user].transactionHash...\n      JUMPI \t\t\trn wills[user].transactionHash...\n      PUSH 100\t\t\trn wills[user].transactionHash...\n      DUP1 \t\t\trn wills[user].transactionHash...\n      DUP4 \t\t\trn wills[user].transactionHash...\n      SLOAD \t\t\trn wills[user].transactionHash...\n      DIV \t\t\trn wills[user].transactionHash...\n      MUL \t\t\trn wills[user].transactionHash...\n      DUP4 \t\t\trn wills[user].transactionHash...\n      MSTORE \t\t\trn wills[user].transactionHash...\n      SWAP2 \t\t\trn wills[user].transactionHash...\n      PUSH 20\t\t\trn wills[user].transactionHash...\n      ADD \t\t\trn wills[user].transactionHash...\n      SWAP2 \t\t\trn wills[user].transactionHash...\n      PUSH [tag] 51\t\t\trn wills[user].transactionHash...\n      JUMP \t\t\trn wills[user].transactionHash...\n    tag 52\t\t\trn wills[user].transactionHash...\n      JUMPDEST \t\t\trn wills[user].transactionHash...\n      DUP3 \t\t\trn wills[user].transactionHash...\n      ADD \t\t\trn wills[user].transactionHash...\n      SWAP2 \t\t\trn wills[user].transactionHash...\n      SWAP1 \t\t\trn wills[user].transactionHash...\n      PUSH 0\t\t\trn wills[user].transactionHash...\n      MSTORE \t\t\trn wills[user].transactionHash...\n      PUSH 20\t\t\trn wills[user].transactionHash...\n      PUSH 0\t\t\trn wills[user].transactionHash...\n      KECCAK256 \t\t\trn wills[user].transactionHash...\n      SWAP1 \t\t\trn wills[user].transactionHash...\n    tag 53\t\t\trn wills[user].transactionHash...\n      JUMPDEST \t\t\trn wills[user].transactionHash...\n      DUP2 \t\t\trn wills[user].transactionHash...\n      SLOAD \t\t\trn wills[user].transactionHash...\n      DUP2 \t\t\trn wills[user].transactionHash...\n      MSTORE \t\t\trn wills[user].transactionHash...\n      SWAP1 \t\t\trn wills[user].transactionHash...\n      PUSH 1\t\t\trn wills[user].transactionHash...\n      ADD \t\t\trn wills[user].transactionHash...\n      SWAP1 \t\t\trn wills[user].transactionHash...\n      PUSH 20\t\t\trn wills[user].transactionHash...\n      ADD \t\t\trn wills[user].transactionHash...\n      DUP1 \t\t\trn wills[user].transactionHash...\n      DUP4 \t\t\trn wills[user].transactionHash...\n      GT \t\t\trn wills[user].transactionHash...\n      PUSH [tag] 53\t\t\trn wills[user].transactionHash...\n      JUMPI \t\t\trn wills[user].transactionHash...\n      DUP3 \t\t\trn wills[user].transactionHash...\n      SWAP1 \t\t\trn wills[user].transactionHash...\n      SUB \t\t\trn wills[user].transactionHash...\n      PUSH 1F\t\t\trn wills[user].transactionHash...\n      AND \t\t\trn wills[user].transactionHash...\n      DUP3 \t\t\trn wills[user].transactionHash...\n      ADD \t\t\trn wills[user].transactionHash...\n      SWAP2 \t\t\trn wills[user].transactionHash...\n    tag 51\t\t\trn wills[user].transactionHash...\n      JUMPDEST \t\t\trn wills[user].transactionHash...\n      POP \t\t\trn wills[user].transactionHash...\n      POP \t\t\trn wills[user].transactionHash...\n      POP \t\t\trn wills[user].transactionHash...\n      POP \t\t\trn wills[user].transactionHash...\n      POP \t\t\trn wills[user].transactionHash...\n      SWAP1 \t\t\trn wills[user].transactionHash...\n      POP \t\t\trn wills[user].transactionHash...\n      SWAP2 \t\t\ttion getWillTransactionHash(ad...\n      SWAP1 \t\t\ttion getWillTransactionHash(ad...\n      POP \t\t\ttion getWillTransactionHash(ad...\n      JUMP \t\t\ttion getWillTransactionHash(ad...\n    tag 20\t\t\tnction createWill(\\n        st...\n      JUMPDEST \t\t\tnction createWill(\\n        st...\n      PUSH 1\t\t\tsWill[m\n      PUSH 0\t\t\tsWill[msg.sender], \n      CALLER \t\t\tg.sender],\n      PUSH FFFFFFFFFFFFFFFFFFFFFFFFFFFFFFFFFFFFFFFF\t\t\tsWill[msg.sender], \n      AND \t\t\tsWill[msg.sender], \n      PUSH FFFFFFFFFFFFFFFFFFFFFFFFFFFFFFFFFFFFFFFF\t\t\tsWill[msg.sender], \n      AND \t\t\tsWill[msg.sender], \n      DUP2 \t\t\tsWill[msg.sender], \n      MSTORE \t\t\tsWill[msg.sender], \n      PUSH 20\t\t\tsWill[msg.sender], \n      ADD \t\t\tsWill[msg.sender], \n      SWAP1 \t\t\tsWill[msg.sender], \n      DUP2 \t\t\tsWill[msg.sender], \n      MSTORE \t\t\tsWill[msg.sender], \n      PUSH 20\t\t\tsWill[msg.sender], \n      ADD \t\t\tsWill[msg.sender], \n      PUSH 0\t\t\tsWill[msg.sender], \n      KECCAK256 \t\t\tsWill[msg.sender], \n      PUSH 0\t\t\tsWill[msg.sender], \n      SWAP1 \t\t\tsWill[msg.sender], \n      SLOAD \t\t\tsWill[msg.sender], \n      SWAP1 \t\t\tsWill[msg.sender], \n      PUSH 100\t\t\tsWill[msg.sender], \n      EXP \t\t\tsWill[msg.sender], \n      SWAP1 \t\t\tsWill[msg.sender], \n      DIV \t\t\tsWill[msg.sender], \n      PUSH FF\t\t\tsWill[msg.sender], \n      AND \t\t\tsWill[msg.sender], \n      ISZERO \t\t\tasWill[msg.sender], \n      PUSH [tag] 55\t\t\tquire(!hasWill[msg.sender], \"Y...\n      JUMPI \t\t\tquire(!hasWill[msg.sender], \"Y...\n      PUSH 40\t\t\tquire(!hasWill[msg.sender], \"Y...\n      MLOAD \t\t\tquire(!hasWill[msg.sender], \"Y...\n      PUSH 8C379A000000000000000000000000000000000000000000000000000000000\t\t\tquire(!hasWill[msg.sender], \"Y...\n      DUP2 \t\t\tquire(!hasWill[msg.sender], \"Y...\n      MSTORE \t\t\tquire(!hasWill[msg.sender], \"Y...\n      PUSH 4\t\t\tquire(!hasWill[msg.sender], \"Y...\n      ADD \t\t\tquire(!hasWill[msg.sender], \"Y...\n      PUSH [tag] 56\t\t\tquire(!hasWill[msg.sender], \"Y...\n      SWAP1 \t\t\tquire(!hasWill[msg.sender], \"Y...\n      PUSH [tag] 57\t\t\tquire(!hasWill[msg.sender], \"Y...\n      JUMP \t\t\tquire(!hasWill[msg.sender], \"Y...\n    tag 56\t\t\tquire(!hasWill[msg.sender], \"Y...\n      JUMPDEST \t\t\tquire(!hasWill[msg.sender], \"Y...\n      PUSH 40\t\t\tquire(!hasWill[msg.sender], \"Y...\n      MLOAD \t\t\tquire(!hasWill[msg.sender], \"Y...\n      DUP1 \t\t\tquire(!hasWill[msg.sender], \"Y...\n      SWAP2 \t\t\tquire(!hasWill[msg.sender], \"Y...\n      SUB \t\t\tquire(!hasWill[msg.sender], \"Y...\n      SWAP1 \t\t\tquire(!hasWill[msg.sender], \"Y...\n      REVERT \t\t\tquire(!hasWill[msg.sender], \"Y...\n    tag 55\t\t\tquire(!hasWill[msg.sender], \"Y...\n      JUMPDEST \t\t\tquire(!hasWill[msg.sender], \"Y...\n      PUSH 0\t\t\t \n      CALLVALUE \t\t\tg.value >\n      GT \t\t\tg.value > 0, \n      PUSH [tag] 58\t\t\tquire(msg.value > 0, \"Must loc...\n      JUMPI \t\t\tquire(msg.value > 0, \"Must loc...\n      PUSH 40\t\t\tquire(msg.value > 0, \"Must loc...\n      MLOAD \t\t\tquire(msg.value > 0, \"Must loc...\n      PUSH 8C379A000000000000000000000000000000000000000000000000000000000\t\t\tquire(msg.value > 0, \"Must loc...\n      DUP2 \t\t\tquire(msg.value > 0, \"Must loc...\n      MSTORE \t\t\tquire(msg.value > 0, \"Must loc...\n      PUSH 4\t\t\tquire(msg.value > 0, \"Must loc...\n      ADD \t\t\tquire(msg.value > 0, \"Must loc...\n      PUSH [tag] 59\t\t\tquire(msg.value > 0, \"Must loc...\n      SWAP1 \t\t\tquire(msg.value > 0, \"Must loc...\n      PUSH [tag] 60\t\t\tquire(msg.value > 0, \"Must loc...\n      JUMP \t\t\tquire(msg.value > 0, \"Must loc...\n    tag 59\t\t\tquire(msg.value > 0, \"Must loc...\n      JUMPDEST \t\t\tquire(msg.value > 0, \"Must loc...\n      PUSH 40\t\t\tquire(msg.value > 0, \"Must loc...\n      MLOAD \t\t\tquire(msg.value > 0, \"Must loc...\n      DUP1 \t\t\tquire(msg.value > 0, \"Must loc...\n      SWAP2 \t\t\tquire(msg.value > 0, \"Must loc...\n      SUB \t\t\tquire(msg.value > 0, \"Must loc...\n      SWAP1 \t\t\tquire(msg.value > 0, \"Must loc...\n      REVERT \t\t\tquire(msg.value > 0, \"Must loc...\n    tag 58\t\t\tquire(msg.value > 0, \"Must loc...\n      JUMPDEST \t\t\tquire(msg.value > 0, \"Must loc...\n      CALLER \t\t\tg.sender;\\n\n      PUSH 0\t\t\tlls[m\n      DUP1 \t\t\tlls[msg.sender].t\n      CALLER \t\t\tg.sender].\n      PUSH FFFFFFFFFFFFFFFFFFFFFFFFFFFFFFFFFFFFFFFF\t\t\tlls[msg.sender].t\n      AND \t\t\tlls[msg.sender].t\n      PUSH FFFFFFFFFFFFFFFFFFFFFFFFFFFFFFFFFFFFFFFF\t\t\tlls[msg.sender].t\n      AND \t\t\tlls[msg.sender].t\n      DUP2 \t\t\tlls[msg.sender].t\n      MSTORE \t\t\tlls[msg.sender].t\n      PUSH 20\t\t\tlls[msg.sender].t\n      ADD \t\t\tlls[msg.sender].t\n      SWAP1 \t\t\tlls[msg.sender].t\n      DUP2 \t\t\tlls[msg.sender].t\n      MSTORE \t\t\tlls[msg.sender].t\n      PUSH 20\t\t\tlls[msg.sender].t\n      ADD \t\t\tlls[msg.sender].t\n      PUSH 0\t\t\tlls[msg.sender].t\n      KECCAK256 \t\t\tlls[msg.sender].t\n      PUSH 0\t\t\tlls[msg.sender].testator =\n      ADD \t\t\tlls[msg.sender].testator =\n      PUSH 0\t\t\tlls[msg.sender].testator =\n      PUSH 100\t\t\tlls[msg.sender].testator = msg...\n      EXP \t\t\tlls[msg.sender].testator = msg...\n      DUP2 \t\t\tlls[msg.sender].testator = msg...\n      SLOAD \t\t\tlls[msg.sender].testator = msg...\n      DUP2 \t\t\tlls[msg.sender].testator = msg...\n      PUSH FFFFFFFFFFFFFFFFFFFFFFFFFFFFFFFFFFFFFFFF\t\t\tlls[msg.sender].testator = msg...\n      MUL \t\t\tlls[msg.sender].testator = msg...\n      NOT \t\t\tlls[msg.sender].testator = msg...\n      AND \t\t\tlls[msg.sender].testator = msg...\n      SWAP1 \t\t\tlls[msg.sender].testator = msg...\n      DUP4 \t\t\tlls[msg.sender].testator = msg...\n      PUSH FFFFFFFFFFFFFFFFFFFFFFFFFFFFFFFFFFFFFFFF\t\t\tlls[msg.sender].testator = msg...\n      AND \t\t\tlls[msg.sender].testator = msg...\n      MUL \t\t\tlls[msg.sender].testator = msg...\n      OR \t\t\tlls[msg.sender].testator = msg...\n      SWAP1 \t\t\tlls[msg.sender].testator = msg...\n      SSTORE \t\t\tlls[msg.sender].testator = msg...\n      POP \t\t\tlls[msg.sender].testator = msg...\n      DUP3 \t\t\tirstName;\\n\n      PUSH 0\t\t\tlls[m\n      DUP1 \t\t\tlls[msg.sender].f\n      CALLER \t\t\tg.sender].\n      PUSH FFFFFFFFFFFFFFFFFFFFFFFFFFFFFFFFFFFFFFFF\t\t\tlls[msg.sender].f\n      AND \t\t\tlls[msg.sender].f\n      PUSH FFFFFFFFFFFFFFFFFFFFFFFFFFFFFFFFFFFFFFFF\t\t\tlls[msg.sender].f\n      AND \t\t\tlls[msg.sender].f\n      DUP2 \t\t\tlls[msg.sender].f\n      MSTORE \t\t\tlls[msg.sender].f\n      PUSH 20\t\t\tlls[msg.sender].f\n      ADD \t\t\tlls[msg.sender].f\n      SWAP1 \t\t\tlls[msg.sender].f\n      DUP2 \t\t\tlls[msg.sender].f\n      MSTORE \t\t\tlls[msg.sender].f\n      PUSH 20\t\t\tlls[msg.sender].f\n      ADD \t\t\tlls[msg.sender].f\n      PUSH 0\t\t\tlls[msg.sender].f\n      KECCAK256 \t\t\tlls[msg.sender].f\n      PUSH 1\t\t\tlls[msg.sender].firstName =\n      ADD \t\t\tlls[msg.sender].firstName =\n      SWAP1 \t\t\tlls[msg.sender].firstName = _f...\n      DUP2 \t\t\tlls[msg.sender].firstName = _f...\n      PUSH [tag] 61\t\t\tlls[msg.sender].firstName = _f...\n      SWAP2 \t\t\tlls[msg.sender].firstName = _f...\n      SWAP1 \t\t\tlls[msg.sender].firstName = _f...\n      PUSH [tag] 62\t\t\tlls[msg.sender].firstName = _f...\n      JUMP \t\t\tlls[msg.sender].firstName = _f...\n    tag 61\t\t\tlls[msg.sender].firstName = _f...\n      JUMPDEST \t\t\tlls[msg.sender].firstName = _f...\n      POP \t\t\tlls[msg.sender].firstName = _f...\n      DUP2 \t\t\tastName;\\n\n      PUSH 0\t\t\tlls[m\n      DUP1 \t\t\tlls[msg.sender].l\n      CALLER \t\t\tg.sender].\n      PUSH FFFFFFFFFFFFFFFFFFFFFFFFFFFFFFFFFFFFFFFF\t\t\tlls[msg.sender].l\n      AND \t\t\tlls[msg.sender].l\n      PUSH FFFFFFFFFFFFFFFFFFFFFFFFFFFFFFFFFFFFFFFF\t\t\tlls[msg.sender].l\n      AND \t\t\tlls[msg.sender].l\n      DUP2 \t\t\tlls[msg.sender].l\n      MSTORE \t\t\tlls[msg.sender].l\n      PUSH 20\t\t\tlls[msg.sender].l\n      ADD \t\t\tlls[msg.sender].l\n      SWAP1 \t\t\tlls[msg.sender].l\n      DUP2 \t\t\tlls[msg.sender].l\n      MSTORE \t\t\tlls[msg.sender].l\n      PUSH 20\t\t\tlls[msg.sender].l\n      ADD \t\t\tlls[msg.sender].l\n      PUSH 0\t\t\tlls[msg.sender].l\n      KECCAK256 \t\t\tlls[msg.sender].l\n      PUSH 2\t\t\tlls[msg.sender].lastName =\n      ADD \t\t\tlls[msg.sender].lastName =\n      SWAP1 \t\t\tlls[msg.sender].lastName = _la...\n      DUP2 \t\t\tlls[msg.sender].lastName = _la...\n      PUSH [tag] 63\t\t\tlls[msg.sender].lastName = _la...\n      SWAP2 \t\t\tlls[msg.sender].lastName = _la...\n      SWAP1 \t\t\tlls[msg.sender].lastName = _la...\n      PUSH [tag] 62\t\t\tlls[msg.sender].lastName = _la...\n      JUMP \t\t\tlls[msg.sender].lastName = _la...\n    tag 63\t\t\tlls[msg.sender].lastName = _la...\n      JUMPDEST \t\t\tlls[msg.sender].lastName = _la...\n      POP \t\t\tlls[msg.sender].lastName = _la...\n      CALLVALUE \t\t\tg.value;\\n\n      PUSH 0\t\t\tlls[m\n      DUP1 \t\t\tlls[msg.sender].t\n      CALLER \t\t\tg.sender].\n      PUSH FFFFFFFFFFFFFFFFFFFFFFFFFFFFFFFFFFFFFFFF\t\t\tlls[msg.sender].t\n      AND \t\t\tlls[msg.sender].t\n      PUSH FFFFFFFFFFFFFFFFFFFFFFFFFFFFFFFFFFFFFFFF\t\t\tlls[msg.sender].t\n      AND \t\t\tlls[msg.sender].t\n      DUP2 \t\t\tlls[msg.sender].t\n      MSTORE \t\t\tlls[msg.sender].t\n      PUSH 20\t\t\tlls[msg.sender].t\n      ADD \t\t\tlls[msg.sender].t\n      SWAP1 \t\t\tlls[msg.sender].t\n      DUP2 \t\t\tlls[msg.sender].t\n      MSTORE \t\t\tlls[msg.sender].t\n      PUSH 20\t\t\tlls[msg.sender].t\n      ADD \t\t\tlls[msg.sender].t\n      PUSH 0\t\t\tlls[msg.sender].t\n      KECCAK256 \t\t\tlls[msg.sender].t\n      PUSH 3\t\t\tlls[msg.sender].totalLocked =\n      ADD \t\t\tlls[msg.sender].totalLocked =\n      DUP2 \t\t\tlls[msg.sender].totalLocked = ...\n      SWAP1 \t\t\tlls[msg.sender].totalLocked = ...\n      SSTORE \t\t\tlls[msg.sender].totalLocked = ...\n      POP \t\t\tlls[msg.sender].totalLocked = ...\n      TIMESTAMP \t\t\tock.timestamp;\\n\n      PUSH 0\t\t\tlls[m\n      DUP1 \t\t\tlls[msg.sender].l\n      CALLER \t\t\tg.sender].\n      PUSH FFFFFFFFFFFFFFFFFFFFFFFFFFFFFFFFFFFFFFFF\t\t\tlls[msg.sender].l\n      AND \t\t\tlls[msg.sender].l\n      PUSH FFFFFFFFFFFFFFFFFFFFFFFFFFFFFFFFFFFFFFFF\t\t\tlls[msg.sender].l\n      AND \t\t\tlls[msg.sender].l\n      DUP2 \t\t\tlls[msg.sender].l\n      MSTORE \t\t\tlls[msg.sender].l\n      PUSH 20\t\t\tlls[msg.sender].l\n      ADD \t\t\tlls[msg.sender].l\n      SWAP1 \t\t\tlls[msg.sender].l\n      DUP2 \t\t\tlls[msg.sender].l\n      MSTORE \t\t\tlls[msg.sender].l\n      PUSH 20\t\t\tlls[msg.sender].l\n      ADD \t\t\tlls[msg.sender].l\n      PUSH 0\t\t\tlls[msg.sender].l\n      KECCAK256 \t\t\tlls[msg.sender].l\n      PUSH 4\t\t\tlls[msg.sender].lastAliveTime ...\n      ADD \t\t\tlls[msg.sender].lastAliveTime ...\n      DUP2 \t\t\tlls[msg.sender].lastAliveTime ...\n      SWAP1 \t\t\tlls[msg.sender].lastAliveTime ...\n      SSTORE \t\t\tlls[msg.sender].lastAliveTime ...\n      POP \t\t\tlls[msg.sender].lastAliveTime ...\n      PUSH 1E13380\t\t\t5 days;\\n\n      PUSH 0\t\t\tlls[m\n      DUP1 \t\t\tlls[msg.sender].p\n      CALLER \t\t\tg.sender].\n      PUSH FFFFFFFFFFFFFFFFFFFFFFFFFFFFFFFFFFFFFFFF\t\t\tlls[msg.sender].p\n      AND \t\t\tlls[msg.sender].p\n      PUSH FFFFFFFFFFFFFFFFFFFFFFFFFFFFFFFFFFFFFFFF\t\t\tlls[msg.sender].p\n      AND \t\t\tlls[msg.sender].p\n      DUP2 \t\t\tlls[msg.sender].p\n      MSTORE \t\t\tlls[msg.sender].p\n      PUSH 20\t\t\tlls[msg.sender].p\n      ADD \t\t\tlls[msg.sender].p\n      SWAP1 \t\t\tlls[msg.sender].p\n      DUP2 \t\t\tlls[msg.sender].p\n      MSTORE \t\t\tlls[msg.sender].p\n      PUSH 20\t\t\tlls[msg.sender].p\n      ADD \t\t\tlls[msg.sender].p\n      PUSH 0\t\t\tlls[msg.sender].p\n      KECCAK256 \t\t\tlls[msg.sender].p\n      PUSH 5\t\t\tlls[msg.sender].proofOfLifeInt...\n      ADD \t\t\tlls[msg.sender].proofOfLifeInt...\n      DUP2 \t\t\tlls[msg.sender].proofOfLifeInt...\n      SWAP1 \t\t\tlls[msg.sender].proofOfLifeInt...\n      SSTORE \t\t\tlls[msg.sender].proofOfLifeInt...\n      POP \t\t\tlls[msg.sender].proofOfLifeInt...\n      PUSH 0\t\t\tlse;\\n\n      DUP1 \t\t\tlls[m\n      PUSH 0\t\t\tlls[msg.sender].i\n      CALLER \t\t\tg.sender].\n      PUSH FFFFFFFFFFFFFFFFFFFFFFFFFFFFFFFFFFFFFFFF\t\t\tlls[msg.sender].i\n      AND \t\t\tlls[msg.sender].i\n      PUSH FFFFFFFFFFFFFFFFFFFFFFFFFFFFFFFFFFFFFFFF\t\t\tlls[msg.sender].i\n      AND \t\t\tlls[msg.sender].i\n      DUP2 \t\t\tlls[msg.sender].i\n      MSTORE \t\t\tlls[msg.sender].i\n      PUSH 20\t\t\tlls[msg.sender].i\n      ADD \t\t\tlls[msg.sender].i\n      SWAP1 \t\t\tlls[msg.sender].i\n      DUP2 \t\t\tlls[msg.sender].i\n      MSTORE \t\t\tlls[msg.sender].i\n      PUSH 20\t\t\tlls[msg.sender].i\n      ADD \t\t\tlls[msg.sender].i\n      PUSH 0\t\t\tlls[msg.sender].i\n      KECCAK256 \t\t\tlls[msg.sender].i\n      PUSH 6\t\t\tlls[msg.sender].isDeceased =\n      ADD \t\t\tlls[msg.sender].isDeceased =\n      PUSH 0\t\t\tlls[msg.sender].isDeceased =\n      PUSH 100\t\t\tlls[msg.sender].isDeceased = f...\n      EXP \t\t\tlls[msg.sender].isDeceased = f...\n      DUP2 \t\t\tlls[msg.sender].isDeceased = f...\n      SLOAD \t\t\tlls[msg.sender].isDeceased = f...\n      DUP2 \t\t\tlls[msg.sender].isDeceased = f...\n      PUSH FF\t\t\tlls[msg.sender].isDeceased = f...\n      MUL \t\t\tlls[msg.sender].isDeceased = f...\n      NOT \t\t\tlls[msg.sender].isDeceased = f...\n      AND \t\t\tlls[msg.sender].isDeceased = f...\n      SWAP1 \t\t\tlls[msg.sender].isDeceased = f...\n      DUP4 \t\t\tlls[msg.sender].isDeceased = f...\n      ISZERO \t\t\tlls[msg.sender].isDeceased = f...\n      ISZERO \t\t\tlls[msg.sender].isDeceased = f...\n      MUL \t\t\tlls[msg.sender].isDeceased = f...\n      OR \t\t\tlls[msg.sender].isDeceased = f...\n      SWAP1 \t\t\tlls[msg.sender].isDeceased = f...\n      SSTORE \t\t\tlls[msg.sender].isDeceased = f...\n      POP \t\t\tlls[msg.sender].isDeceased = f...\n      DUP1 \t\t\txnHash; \n      PUSH 0\t\t\tlls[m\n      DUP1 \t\t\tlls[msg.sender].t\n      CALLER \t\t\tg.sender].\n      PUSH FFFFFFFFFFFFFFFFFFFFFFFFFFFFFFFFFFFFFFFF\t\t\tlls[msg.sender].t\n      AND \t\t\tlls[msg.sender].t\n      PUSH FFFFFFFFFFFFFFFFFFFFFFFFFFFFFFFFFFFFFFFF\t\t\tlls[msg.sender].t\n      AND \t\t\tlls[msg.sender].t\n      DUP2 \t\t\tlls[msg.sender].t\n      MSTORE \t\t\tlls[msg.sender].t\n      PUSH 20\t\t\tlls[msg.sender].t\n      ADD \t\t\tlls[msg.sender].t\n      SWAP1 \t\t\tlls[msg.sender].t\n      DUP2 \t\t\tlls[msg.sender].t\n      MSTORE \t\t\tlls[msg.sender].t\n      PUSH 20\t\t\tlls[msg.sender].t\n      ADD \t\t\tlls[msg.sender].t\n      PUSH 0\t\t\tlls[msg.sender].t\n      KECCAK256 \t\t\tlls[msg.sender].t\n      PUSH 7\t\t\tlls[msg.sender].transactionHas...\n      ADD \t\t\tlls[msg.sender].transactionHas...\n      SWAP1 \t\t\tlls[msg.sender].transactionHas...\n      DUP2 \t\t\tlls[msg.sender].transactionHas...\n      PUSH [tag] 64\t\t\tlls[msg.sender].transactionHas...\n      SWAP2 \t\t\tlls[msg.sender].transactionHas...\n      SWAP1 \t\t\tlls[msg.sender].transactionHas...\n      PUSH [tag] 62\t\t\tlls[msg.sender].transactionHas...\n      JUMP \t\t\tlls[msg.sender].transactionHas...\n    tag 64\t\t\tlls[msg.sender].transactionHas...\n      JUMPDEST \t\t\tlls[msg.sender].transactionHas...\n      POP \t\t\tlls[msg.sender].transactionHas...\n      PUSH 1\t\t\t;\\n\\n \n      DUP1 \t\t\till[msg\n      PUSH 0\t\t\till[msg.sender] = t\n      CALLER \t\t\tsender] = \n      PUSH FFFFFFFFFFFFFFFFFFFFFFFFFFFFFFFFFFFFFFFF\t\t\till[msg.sender] = t\n      AND \t\t\till[msg.sender] = t\n      PUSH FFFFFFFFFFFFFFFFFFFFFFFFFFFFFFFFFFFFFFFF\t\t\till[msg.sender] = t\n      AND \t\t\till[msg.sender] = t\n      DUP2 \t\t\till[msg.sender] = t\n      MSTORE \t\t\till[msg.sender] = t\n      PUSH 20\t\t\till[msg.sender] = t\n      ADD \t\t\till[msg.sender] = t\n      SWAP1 \t\t\till[msg.sender] = t\n      DUP2 \t\t\till[msg.sender] = t\n      MSTORE \t\t\till[msg.sender] = t\n      PUSH 20\t\t\till[msg.sender] = t\n      ADD \t\t\till[msg.sender] = t\n      PUSH 0\t\t\till[msg.sender] = t\n      KECCAK256 \t\t\till[msg.sender] = t\n      PUSH 0\t\t\till[msg.sender] = t\n      PUSH 100\t\t\till[msg.sender] = true;\\n\\n \n      EXP \t\t\till[msg.sender] = true;\\n\\n \n      DUP2 \t\t\till[msg.sender] = true;\\n\\n \n      SLOAD \t\t\till[msg.sender] = true;\\n\\n \n      DUP2 \t\t\till[msg.sender] = true;\\n\\n \n      PUSH FF\t\t\till[msg.sender] = true;\\n\\n \n      MUL \t\t\till[msg.sender] = true;\\n\\n \n      NOT \t\t\till[msg.sender] = true;\\n\\n \n      AND \t\t\till[msg.sender] = true;\\n\\n \n      SWAP1 \t\t\till[msg.sender] = true;\\n\\n \n      DUP4 \t\t\till[msg.sender] = true;\\n\\n \n      ISZERO \t\t\till[msg.sender] = true;\\n\\n \n      ISZERO \t\t\till[msg.sender] = true;\\n\\n \n      MUL \t\t\till[msg.sender] = true;\\n\\n \n      OR \t\t\till[msg.sender] = true;\\n\\n \n      SWAP1 \t\t\till[msg.sender] = true;\\n\\n \n      SSTORE \t\t\till[msg.sender] = true;\\n\\n \n      POP \t\t\till[msg.sender] = true;\\n\\n \n      CALLER \t\t\tsender, ms\n      PUSH FFFFFFFFFFFFFFFFFFFFFFFFFFFFFFFFFFFFFFFF\t\t\tCreated(msg.sender, msg.value,...\n      AND \t\t\tCreated(msg.sender, msg.value,...\n      PUSH CA05E37FC67C80782E9FB53D79D942AABD6358450AC35FFB3FD610B48745E24C\t\t\tCreated(msg.sender, msg.value,...\n      CALLVALUE \t\t\tvalue, _t\n      DUP4 \t\t\tHash);\\n \n      PUSH 40\t\t\tCreated(msg.sender, msg.value,...\n      MLOAD \t\t\tCreated(msg.sender, msg.value,...\n      PUSH [tag] 65\t\t\tCreated(msg.sender, msg.value,...\n      SWAP3 \t\t\tCreated(msg.sender, msg.value,...\n      SWAP2 \t\t\tCreated(msg.sender, msg.value,...\n      SWAP1 \t\t\tCreated(msg.sender, msg.value,...\n      PUSH [tag] 66\t\t\tCreated(msg.sender, msg.value,...\n      JUMP \t\t\tCreated(msg.sender, msg.value,...\n    tag 65\t\t\tCreated(msg.sender, msg.value,...\n      JUMPDEST \t\t\tCreated(msg.sender, msg.value,...\n      PUSH 40\t\t\tCreated(msg.sender, msg.value,...\n      MLOAD \t\t\tCreated(msg.sender, msg.value,...\n      DUP1 \t\t\tCreated(msg.sender, msg.value,...\n      SWAP2 \t\t\tCreated(msg.sender, msg.value,...\n      SUB \t\t\tCreated(msg.sender, msg.value,...\n      SWAP1 \t\t\tCreated(msg.sender, msg.value,...\n      LOG2 \t\t\tCreated(msg.sender, msg.value,...\n      POP \t\t\tnction createWill(\\n        st...\n      POP \t\t\tnction createWill(\\n        st...\n      POP \t\t\tnction createWill(\\n        st...\n      JUMP \t\t\tnction createWill(\\n        st...\n    tag 25\t\t\ttion addBeneficiary(\\n        ...\n      JUMPDEST \t\t\ttion addBeneficiary(\\n        ...\n      PUSH 1\t\t\till[msg\n      PUSH 0\t\t\till[msg.sender], \"Y\n      CALLER \t\t\tsender], \"\n      PUSH FFFFFFFFFFFFFFFFFFFFFFFFFFFFFFFFFFFFFFFF\t\t\till[msg.sender], \"Y\n      AND \t\t\till[msg.sender], \"Y\n      PUSH FFFFFFFFFFFFFFFFFFFFFFFFFFFFFFFFFFFFFFFF\t\t\till[msg.sender], \"Y\n      AND \t\t\till[msg.sender], \"Y\n      DUP2 \t\t\till[msg.sender], \"Y\n      MSTORE \t\t\till[msg.sender], \"Y\n      PUSH 20\t\t\till[msg.sender], \"Y\n      ADD \t\t\till[msg.sender], \"Y\n      SWAP1 \t\t\till[msg.sender], \"Y\n      DUP2 \t\t\till[msg.sender], \"Y\n      MSTORE \t\t\till[msg.sender], \"Y\n      PUSH 20\t\t\till[msg.sender], \"Y\n      ADD \t\t\till[msg.sender], \"Y\n      PUSH 0\t\t\till[msg.sender], \"Y\n      KECCAK256 \t\t\till[msg.sender], \"Y\n      PUSH 0\t\t\till[msg.sender], \"Y\n      SWAP1 \t\t\till[msg.sender], \"Y\n      SLOAD \t\t\till[msg.sender], \"Y\n      SWAP1 \t\t\till[msg.sender], \"Y\n      PUSH 100\t\t\till[msg.sender], \"Y\n      EXP \t\t\till[msg.sender], \"Y\n      SWAP1 \t\t\till[msg.sender], \"Y\n      DIV \t\t\till[msg.sender], \"Y\n      PUSH FF\t\t\till[msg.sender], \"Y\n      AND \t\t\till[msg.sender], \"Y\n      PUSH [tag] 68\t\t\tire(hasWill[msg.sender], \"You ...\n      JUMPI \t\t\tire(hasWill[msg.sender], \"You ...\n      PUSH 40\t\t\tire(hasWill[msg.sender], \"You ...\n      MLOAD \t\t\tire(hasWill[msg.sender], \"You ...\n      PUSH 8C379A000000000000000000000000000000000000000000000000000000000\t\t\tire(hasWill[msg.sender], \"You ...\n      DUP2 \t\t\tire(hasWill[msg.sender], \"You ...\n      MSTORE \t\t\tire(hasWill[msg.sender], \"You ...\n      PUSH 4\t\t\tire(hasWill[msg.sender], \"You ...\n      ADD \t\t\tire(hasWill[msg.sender], \"You ...\n      PUSH [tag] 69\t\t\tire(hasWill[msg.sender], \"You ...\n      SWAP1 \t\t\tire(hasWill[msg.sender], \"You ...\n      PUSH [tag] 70\t\t\tire(hasWill[msg.sender], \"You ...\n      JUMP \t\t\tire(hasWill[msg.sender], \"You ...\n    tag 69\t\t\tire(hasWill[msg.sender], \"You ...\n      JUMPDEST \t\t\tire(hasWill[msg.sender], \"You ...\n      PUSH 40\t\t\tire(hasWill[msg.sender], \"You ...\n      MLOAD \t\t\tire(hasWill[msg.sender], \"You ...\n      DUP1 \t\t\tire(hasWill[msg.sender], \"You ...\n      SWAP2 \t\t\tire(hasWill[msg.sender], \"You ...\n      SUB \t\t\tire(hasWill[msg.sender], \"You ...\n      SWAP1 \t\t\tire(hasWill[msg.sender], \"You ...\n      REVERT \t\t\tire(hasWill[msg.sender], \"You ...\n    tag 68\t\t\tire(hasWill[msg.sender], \"You ...\n      JUMPDEST \t\t\tire(hasWill[msg.sender], \"You ...\n      PUSH 0\t\t\t\"\n      PUSH FFFFFFFFFFFFFFFFFFFFFFFFFFFFFFFFFFFFFFFF\t\t\tlet != address(0), \"I\n      AND \t\t\tlet != address(0), \"I\n      DUP5 \t\t\tlet != \n      PUSH FFFFFFFFFFFFFFFFFFFFFFFFFFFFFFFFFFFFFFFF\t\t\tlet != address(0), \"I\n      AND \t\t\tlet != address(0), \"I\n      SUB \t\t\tlet != address(0), \"I\n      PUSH [tag] 71\t\t\tire(_wallet != address(0), \"In...\n      JUMPI \t\t\tire(_wallet != address(0), \"In...\n      PUSH 40\t\t\tire(_wallet != address(0), \"In...\n      MLOAD \t\t\tire(_wallet != address(0), \"In...\n      PUSH 8C379A000000000000000000000000000000000000000000000000000000000\t\t\tire(_wallet != address(0), \"In...\n      DUP2 \t\t\tire(_wallet != address(0), \"In...\n      MSTORE \t\t\tire(_wallet != address(0), \"In...\n      PUSH 4\t\t\tire(_wallet != address(0), \"In...\n      ADD \t\t\tire(_wallet != address(0), \"In...\n      PUSH [tag] 72\t\t\tire(_wallet != address(0), \"In...\n      SWAP1 \t\t\tire(_wallet != address(0), \"In...\n      PUSH [tag] 73\t\t\tire(_wallet != address(0), \"In...\n      JUMP \t\t\tire(_wallet != address(0), \"In...\n    tag 72\t\t\tire(_wallet != address(0), \"In...\n      JUMPDEST \t\t\tire(_wallet != address(0), \"In...\n      PUSH 40\t\t\tire(_wallet != address(0), \"In...\n      MLOAD \t\t\tire(_wallet != address(0), \"In...\n      DUP1 \t\t\tire(_wallet != address(0), \"In...\n      SWAP2 \t\t\tire(_wallet != address(0), \"In...\n      SUB \t\t\tire(_wallet != address(0), \"In...\n      SWAP1 \t\t\tire(_wallet != address(0), \"In...\n      REVERT \t\t\tire(_wallet != address(0), \"In...\n    tag 71\t\t\tire(_wallet != address(0), \"In...\n      JUMPDEST \t\t\tire(_wallet != address(0), \"In...\n      PUSH 0\t\t\t \n      DUP4 \t\t\tcentage > 0\n      GT \t\t\tcentage > 0 && \n      DUP1 \t\t\tcentage > 0 && _percentage <= ...\n      ISZERO \t\t\tcentage > 0 && _percentage <= ...\n      PUSH [tag] 74\t\t\tcentage > 0 && _percentage <= ...\n      JUMPI \t\t\tcentage > 0 && _percentage <= ...\n      POP \t\t\tcentage > 0 && _percentage <= ...\n      PUSH 64\t\t\t \"I\n      DUP4 \t\t\tcentage <= \n      GT \t\t\tcentage <= 100, \"I\n      ISZERO \t\t\tcentage <= 100, \"I\n    tag 74\t\t\tcentage > 0 && _percentage <= ...\n      JUMPDEST \t\t\tcentage > 0 && _percentage <= ...\n      PUSH [tag] 75\t\t\tire(_percentage > 0 && _percen...\n      JUMPI \t\t\tire(_percentage > 0 && _percen...\n      PUSH 40\t\t\tire(_percentage > 0 && _percen...\n      MLOAD \t\t\tire(_percentage > 0 && _percen...\n      PUSH 8C379A000000000000000000000000000000000000000000000000000000000\t\t\tire(_percentage > 0 && _percen...\n      DUP2 \t\t\tire(_percentage > 0 && _percen...\n      MSTORE \t\t\tire(_percentage > 0 && _percen...\n      PUSH 4\t\t\tire(_percentage > 0 && _percen...\n      ADD \t\t\tire(_percentage > 0 && _percen...\n      PUSH [tag] 76\t\t\tire(_percentage > 0 && _percen...\n      SWAP1 \t\t\tire(_percentage > 0 && _percen...\n      PUSH [tag] 77\t\t\tire(_percentage > 0 && _percen...\n      JUMP \t\t\tire(_percentage > 0 && _percen...\n    tag 76\t\t\tire(_percentage > 0 && _percen...\n      JUMPDEST \t\t\tire(_percentage > 0 && _percen...\n      PUSH 40\t\t\tire(_percentage > 0 && _percen...\n      MLOAD \t\t\tire(_percentage > 0 && _percen...\n      DUP1 \t\t\tire(_percentage > 0 && _percen...\n      SWAP2 \t\t\tire(_percentage > 0 && _percen...\n      SUB \t\t\tire(_percentage > 0 && _percen...\n      SWAP1 \t\t\tire(_percentage > 0 && _percen...\n      REVERT \t\t\tire(_percentage > 0 && _percen...\n    tag 75\t\t\tire(_percentage > 0 && _percen...\n      JUMPDEST \t\t\tire(_percentage > 0 && _percen...\n      PUSH 0\t\t\t256 totalPercentage = 0\n      DUP1 \t\t\t i = 0\n    tag 78\t\t\t(uint i = 0; i < wills[msg.sen...\n      JUMPDEST \t\t\t(uint i = 0; i < wills[msg.sen...\n      PUSH 0\t\t\ts[msg\n      DUP1 \t\t\ts[msg.sender].ben\n      CALLER \t\t\tsender].be\n      PUSH FFFFFFFFFFFFFFFFFFFFFFFFFFFFFFFFFFFFFFFF\t\t\ts[msg.sender].ben\n      AND \t\t\ts[msg.sender].ben\n      PUSH FFFFFFFFFFFFFFFFFFFFFFFFFFFFFFFFFFFFFFFF\t\t\ts[msg.sender].ben\n      AND \t\t\ts[msg.sender].ben\n      DUP2 \t\t\ts[msg.sender].ben\n      MSTORE \t\t\ts[msg.sender].ben\n      PUSH 20\t\t\ts[msg.sender].ben\n      ADD \t\t\ts[msg.sender].ben\n      SWAP1 \t\t\ts[msg.sender].ben\n      DUP2 \t\t\ts[msg.sender].ben\n      MSTORE \t\t\ts[msg.sender].ben\n      PUSH 20\t\t\ts[msg.sender].ben\n      ADD \t\t\ts[msg.sender].ben\n      PUSH 0\t\t\ts[msg.sender].ben\n      KECCAK256 \t\t\ts[msg.sender].ben\n      PUSH 8\t\t\ts[msg.sender].beneficiaries.le...\n      ADD \t\t\ts[msg.sender].beneficiaries.le...\n      DUP1 \t\t\ts[msg.sender].beneficiaries.le...\n      SLOAD \t\t\ts[msg.sender].beneficiaries.le...\n      SWAP1 \t\t\ts[msg.sender].beneficiaries.le...\n      POP \t\t\ts[msg.sender].beneficiaries.le...\n      DUP2 \t\t\tw\n      LT \t\t\twills[msg.sender].beneficiarie...\n      ISZERO \t\t\t(uint i = 0; i < wills[msg.sen...\n      PUSH [tag] 79\t\t\t(uint i = 0; i < wills[msg.sen...\n      JUMPI \t\t\t(uint i = 0; i < wills[msg.sen...\n      PUSH 0\t\t\ts[msg\n      DUP1 \t\t\ts[msg.sender].ben\n      CALLER \t\t\tsender].be\n      PUSH FFFFFFFFFFFFFFFFFFFFFFFFFFFFFFFFFFFFFFFF\t\t\ts[msg.sender].ben\n      AND \t\t\ts[msg.sender].ben\n      PUSH FFFFFFFFFFFFFFFFFFFFFFFFFFFFFFFFFFFFFFFF\t\t\ts[msg.sender].ben\n      AND \t\t\ts[msg.sender].ben\n      DUP2 \t\t\ts[msg.sender].ben\n      MSTORE \t\t\ts[msg.sender].ben\n      PUSH 20\t\t\ts[msg.sender].ben\n      ADD \t\t\ts[msg.sender].ben\n      SWAP1 \t\t\ts[msg.sender].ben\n      DUP2 \t\t\ts[msg.sender].ben\n      MSTORE \t\t\ts[msg.sender].ben\n      PUSH 20\t\t\ts[msg.sender].ben\n      ADD \t\t\ts[msg.sender].ben\n      PUSH 0\t\t\ts[msg.sender].ben\n      KECCAK256 \t\t\ts[msg.sender].ben\n      PUSH 8\t\t\ts[msg.sender].beneficiaries[i]...\n      ADD \t\t\ts[msg.sender].beneficiaries[i]...\n      DUP2 \t\t\te\n      DUP2 \t\t\ts[msg.sender].beneficiaries[i]...\n      SLOAD \t\t\ts[msg.sender].beneficiaries[i]...\n      DUP2 \t\t\ts[msg.sender].beneficiaries[i]...\n      LT \t\t\ts[msg.sender].beneficiaries[i]...\n      PUSH [tag] 81\t\t\ts[msg.sender].beneficiaries[i]...\n      JUMPI \t\t\ts[msg.sender].beneficiaries[i]...\n      PUSH [tag] 82\t\t\ts[msg.sender].beneficiaries[i]...\n      PUSH [tag] 83\t\t\ts[msg.sender].beneficiaries[i]...\n      JUMP \t\t\ts[msg.sender].beneficiaries[i]...\n    tag 82\t\t\ts[msg.sender].beneficiaries[i]...\n      JUMPDEST \t\t\ts[msg.sender].beneficiaries[i]...\n    tag 81\t\t\ts[msg.sender].beneficiaries[i]...\n      JUMPDEST \t\t\ts[msg.sender].beneficiaries[i]...\n      SWAP1 \t\t\ts[msg.sender].beneficiaries[i]...\n      PUSH 0\t\t\ts[msg.sender].beneficiaries[i]...\n      MSTORE \t\t\ts[msg.sender].beneficiaries[i]...\n      PUSH 20\t\t\ts[msg.sender].beneficiaries[i]...\n      PUSH 0\t\t\ts[msg.sender].beneficiaries[i]...\n      KECCAK256 \t\t\ts[msg.sender].beneficiaries[i]...\n      SWAP1 \t\t\ts[msg.sender].beneficiaries[i]...\n      PUSH 4\t\t\ts[msg.sender].beneficiaries[i]...\n      MUL \t\t\ts[msg.sender].beneficiaries[i]...\n      ADD \t\t\ts[msg.sender].beneficiaries[i]...\n      PUSH 1\t\t\ts[msg.sender].beneficiaries[i]...\n      ADD \t\t\ts[msg.sender].beneficiaries[i]...\n      SLOAD \t\t\ts[msg.sender].beneficiaries[i]...\n      DUP3 \t\t\tlPercentage += wills[msg.sende...\n      PUSH [tag] 85\t\t\tlPercentage += wills[msg.sende...\n      SWAP2 \t\t\tlPercentage += wills[msg.sende...\n      SWAP1 \t\t\tlPercentage += wills[msg.sende...\n      PUSH [tag] 86\t\t\tlPercentage += wills[msg.sende...\n      JUMP \t\t\tlPercentage += wills[msg.sende...\n    tag 85\t\t\tlPercentage += wills[msg.sende...\n      JUMPDEST \t\t\tlPercentage += wills[msg.sende...\n      SWAP2 \t\t\tlPercentage += wills[msg.sende...\n      POP \t\t\tlPercentage += wills[msg.sende...\n      DUP1 \t\t\t {\\n\n      DUP1 \t\t\t {\\n\n      PUSH 1\t\t\t {\\n\n      ADD \t\t\t {\\n\n      SWAP2 \t\t\t {\\n\n      POP \t\t\t {\\n\n      POP \t\t\t {\\n\n      PUSH [tag] 78\t\t\t(uint i = 0; i < wills[msg.sen...\n      JUMP \t\t\t(uint i = 0; i < wills[msg.sen...\n    tag 79\t\t\t(uint i = 0; i < wills[msg.sen...\n      JUMPDEST \t\t\t(uint i = 0; i < wills[msg.sen...\n      POP \t\t\t(uint i = 0; i < wills[msg.sen...\n      PUSH 64\t\t\t \"T\n      DUP5 \t\t\tcentage <= \n      DUP3 \t\t\tlPercentage + _\n      PUSH [tag] 87\t\t\tlPercentage + _percentage <= \n      SWAP2 \t\t\tlPercentage + _percentage <= \n      SWAP1 \t\t\tlPercentage + _percentage <= \n      PUSH [tag] 86\t\t\tlPercentage + _percentage <= \n      JUMP \t\t\tlPercentage + _percentage <= \n    tag 87\t\t\tlPercentage + _percentage <= \n      JUMPDEST \t\t\tlPercentage + _percentage <= \n      GT \t\t\tlPercentage + _percentage <= 1...\n      ISZERO \t\t\tlPercentage + _percentage <= 1...\n      PUSH [tag] 88\t\t\tire(totalPercentage + _percent...\n      JUMPI \t\t\tire(totalPercentage + _percent...\n      PUSH 40\t\t\tire(totalPercentage + _percent...\n      MLOAD \t\t\tire(totalPercentage + _percent...\n      PUSH 8C379A000000000000000000000000000000000000000000000000000000000\t\t\tire(totalPercentage + _percent...\n      DUP2 \t\t\tire(totalPercentage + _percent...\n      MSTORE \t\t\tire(totalPercentage + _percent...\n      PUSH 4\t\t\tire(totalPercentage + _percent...\n      ADD \t\t\tire(totalPercentage + _percent...\n      PUSH [tag] 89\t\t\tire(totalPercentage + _percent...\n      SWAP1 \t\t\tire(totalPercentage + _percent...\n      PUSH [tag] 90\t\t\tire(totalPercentage + _percent...\n      JUMP \t\t\tire(totalPercentage + _percent...\n    tag 89\t\t\tire(totalPercentage + _percent...\n      JUMPDEST \t\t\tire(totalPercentage + _percent...\n      PUSH 40\t\t\tire(totalPercentage + _percent...\n      MLOAD \t\t\tire(totalPercentage + _percent...\n      DUP1 \t\t\tire(totalPercentage + _percent...\n      SWAP2 \t\t\tire(totalPercentage + _percent...\n      SUB \t\t\tire(totalPercentage + _percent...\n      SWAP1 \t\t\tire(totalPercentage + _percent...\n      REVERT \t\t\tire(totalPercentage + _percent...\n    tag 88\t\t\tire(totalPercentage + _percent...\n      JUMPDEST \t\t\tire(totalPercentage + _percent...\n      PUSH 0\t\t\ts[msg\n      DUP1 \t\t\ts[msg.sender].ben\n      CALLER \t\t\tsender].be\n      PUSH FFFFFFFFFFFFFFFFFFFFFFFFFFFFFFFFFFFFFFFF\t\t\ts[msg.sender].ben\n      AND \t\t\ts[msg.sender].ben\n      PUSH FFFFFFFFFFFFFFFFFFFFFFFFFFFFFFFFFFFFFFFF\t\t\ts[msg.sender].ben\n      AND \t\t\ts[msg.sender].ben\n      DUP2 \t\t\ts[msg.sender].ben\n      MSTORE \t\t\ts[msg.sender].ben\n      PUSH 20\t\t\ts[msg.sender].ben\n      ADD \t\t\ts[msg.sender].ben\n      SWAP1 \t\t\ts[msg.sender].ben\n      DUP2 \t\t\ts[msg.sender].ben\n      MSTORE \t\t\ts[msg.sender].ben\n      PUSH 20\t\t\ts[msg.sender].ben\n      ADD \t\t\ts[msg.sender].ben\n      PUSH 0\t\t\ts[msg.sender].ben\n      KECCAK256 \t\t\ts[msg.sender].ben\n      PUSH 8\t\t\ts[msg.sender].beneficiaries.pu...\n      ADD \t\t\ts[msg.sender].beneficiaries.pu...\n      PUSH 40\t\t\tficiary(_wallet, _percentage, ...\n      MLOAD \t\t\tficiary(_wallet, _percentage, ...\n      DUP1 \t\t\tficiary(_wallet, _percentage, ...\n      PUSH 80\t\t\tficiary(_wallet, _percentage, ...\n      ADD \t\t\tficiary(_wallet, _percentage, ...\n      PUSH 40\t\t\tficiary(_wallet, _percentage, ...\n      MSTORE \t\t\tficiary(_wallet, _percentage, ...\n      DUP1 \t\t\tficiary(_wallet, _percentage, ...\n      DUP8 \t\t\tlet, _p\n      PUSH FFFFFFFFFFFFFFFFFFFFFFFFFFFFFFFFFFFFFFFF\t\t\tficiary(_wallet, _percentage, ...\n      AND \t\t\tficiary(_wallet, _percentage, ...\n      DUP2 \t\t\tficiary(_wallet, _percentage, ...\n      MSTORE \t\t\tficiary(_wallet, _percentage, ...\n      PUSH 20\t\t\tficiary(_wallet, _percentage, ...\n      ADD \t\t\tficiary(_wallet, _percentage, ...\n      DUP7 \t\t\tcentage, _s\n      DUP2 \t\t\tficiary(_wallet, _percentage, ...\n      MSTORE \t\t\tficiary(_wallet, _percentage, ...\n      PUSH 20\t\t\tficiary(_wallet, _percentage, ...\n      ADD \t\t\tficiary(_wallet, _percentage, ...\n      DUP6 \t\t\teDeedIpfsHash, _e\n      DUP2 \t\t\tficiary(_wallet, _percentage, ...\n      MSTORE \t\t\tficiary(_wallet, _percentage, ...\n      PUSH 20\t\t\tficiary(_wallet, _percentage, ...\n      ADD \t\t\tficiary(_wallet, _percentage, ...\n      DUP5 \t\t\til)\\n  \n      DUP2 \t\t\tficiary(_wallet, _percentage, ...\n      MSTORE \t\t\tficiary(_wallet, _percentage, ...\n      POP \t\t\tficiary(_wallet, _percentage, ...\n      SWAP1 \t\t\ts[msg.sender].beneficiaries.pu...\n      DUP1 \t\t\ts[msg.sender].beneficiaries.pu...\n      PUSH 1\t\t\ts[msg.sender].beneficiaries.pu...\n      DUP2 \t\t\ts[msg.sender].beneficiaries.pu...\n      SLOAD \t\t\ts[msg.sender].beneficiaries.pu...\n      ADD \t\t\ts[msg.sender].beneficiaries.pu...\n      DUP1 \t\t\ts[msg.sender].beneficiaries.pu...\n      DUP3 \t\t\ts[msg.sender].beneficiaries.pu...\n      SSTORE \t\t\ts[msg.sender].beneficiaries.pu...\n      DUP1 \t\t\ts[msg.sender].beneficiaries.pu...\n      SWAP2 \t\t\ts[msg.sender].beneficiaries.pu...\n      POP \t\t\ts[msg.sender].beneficiaries.pu...\n      POP \t\t\ts[msg.sender].beneficiaries.pu...\n      PUSH 1\t\t\ts[msg.sender].beneficiaries.pu...\n      SWAP1 \t\t\ts[msg.sender].beneficiaries.pu...\n      SUB \t\t\ts[msg.sender].beneficiaries.pu...\n      SWAP1 \t\t\ts[msg.sender].beneficiaries.pu...\n      PUSH 0\t\t\ts[msg.sender].beneficiaries.pu...\n      MSTORE \t\t\ts[msg.sender].beneficiaries.pu...\n      PUSH 20\t\t\ts[msg.sender].beneficiaries.pu...\n      PUSH 0\t\t\ts[msg.sender].beneficiaries.pu...\n      KECCAK256 \t\t\ts[msg.sender].beneficiaries.pu...\n      SWAP1 \t\t\ts[msg.sender].beneficiaries.pu...\n      PUSH 4\t\t\ts[msg.sender].beneficiaries.pu...\n      MUL \t\t\ts[msg.sender].beneficiaries.pu...\n      ADD \t\t\ts[msg.sender].beneficiaries.pu...\n      PUSH 0\t\t\ts[msg.sender].beneficiaries.pu...\n      SWAP1 \t\t\ts[msg.sender].beneficiaries.pu...\n      SWAP2 \t\t\ts[msg.sender].beneficiaries.pu...\n      SWAP1 \t\t\ts[msg.sender].beneficiaries.pu...\n      SWAP2 \t\t\ts[msg.sender].beneficiaries.pu...\n      SWAP1 \t\t\ts[msg.sender].beneficiaries.pu...\n      SWAP2 \t\t\ts[msg.sender].beneficiaries.pu...\n      POP \t\t\ts[msg.sender].beneficiaries.pu...\n      PUSH 0\t\t\ts[msg.sender].beneficiaries.pu...\n      DUP3 \t\t\ts[msg.sender].beneficiaries.pu...\n      ADD \t\t\ts[msg.sender].beneficiaries.pu...\n      MLOAD \t\t\ts[msg.sender].beneficiaries.pu...\n      DUP2 \t\t\ts[msg.sender].beneficiaries.pu...\n      PUSH 0\t\t\ts[msg.sender].beneficiaries.pu...\n      ADD \t\t\ts[msg.sender].beneficiaries.pu...\n      PUSH 0\t\t\ts[msg.sender].beneficiaries.pu...\n      PUSH 100\t\t\ts[msg.sender].beneficiaries.pu...\n      EXP \t\t\ts[msg.sender].beneficiaries.pu...\n      DUP2 \t\t\ts[msg.sender].beneficiaries.pu...\n      SLOAD \t\t\ts[msg.sender].beneficiaries.pu...\n      DUP2 \t\t\ts[msg.sender].beneficiaries.pu...\n      PUSH FFFFFFFFFFFFFFFFFFFFFFFFFFFFFFFFFFFFFFFF\t\t\ts[msg.sender].beneficiaries.pu...\n      MUL \t\t\ts[msg.sender].beneficiaries.pu...\n      NOT \t\t\ts[msg.sender].beneficiaries.pu...\n      AND \t\t\ts[msg.sender].beneficiaries.pu...\n      SWAP1 \t\t\ts[msg.sender].beneficiaries.pu...\n      DUP4 \t\t\ts[msg.sender].beneficiaries.pu...\n      PUSH FFFFFFFFFFFFFFFFFFFFFFFFFFFFFFFFFFFFFFFF\t\t\ts[msg.sender].beneficiaries.pu...\n      AND \t\t\ts[msg.sender].beneficiaries.pu...\n      MUL \t\t\ts[msg.sender].beneficiaries.pu...\n      OR \t\t\ts[msg.sender].beneficiaries.pu...\n      SWAP1 \t\t\ts[msg.sender].beneficiaries.pu...\n      SSTORE \t\t\ts[msg.sender].beneficiaries.pu...\n      POP \t\t\ts[msg.sender].beneficiaries.pu...\n      PUSH 20\t\t\ts[msg.sender].beneficiaries.pu...\n      DUP3 \t\t\ts[msg.sender].beneficiaries.pu...\n      ADD \t\t\ts[msg.sender].beneficiaries.pu...\n      MLOAD \t\t\ts[msg.sender].beneficiaries.pu...\n      DUP2 \t\t\ts[msg.sender].beneficiaries.pu...\n      PUSH 1\t\t\ts[msg.sender].beneficiaries.pu...\n      ADD \t\t\ts[msg.sender].beneficiaries.pu...\n      SSTORE \t\t\ts[msg.sender].beneficiaries.pu...\n      PUSH 40\t\t\ts[msg.sender].beneficiaries.pu...\n      DUP3 \t\t\ts[msg.sender].beneficiaries.pu...\n      ADD \t\t\ts[msg.sender].beneficiaries.pu...\n      MLOAD \t\t\ts[msg.sender].beneficiaries.pu...\n      DUP2 \t\t\ts[msg.sender].beneficiaries.pu...\n      PUSH 2\t\t\ts[msg.sender].beneficiaries.pu...\n      ADD \t\t\ts[msg.sender].beneficiaries.pu...\n      SWAP1 \t\t\ts[msg.sender].beneficiaries.pu...\n      DUP2 \t\t\ts[msg.sender].beneficiaries.pu...\n      PUSH [tag] 92\t\t\ts[msg.sender].beneficiaries.pu...\n      SWAP2 \t\t\ts[msg.sender].beneficiaries.pu...\n      SWAP1 \t\t\ts[msg.sender].beneficiaries.pu...\n      PUSH [tag] 62\t\t\ts[msg.sender].beneficiaries.pu...\n      JUMP \t\t\ts[msg.sender].beneficiaries.pu...\n    tag 92\t\t\ts[msg.sender].beneficiaries.pu...\n      JUMPDEST \t\t\ts[msg.sender].beneficiaries.pu...\n      POP \t\t\ts[msg.sender].beneficiaries.pu...\n      PUSH 60\t\t\ts[msg.sender].beneficiaries.pu...\n      DUP3 \t\t\ts[msg.sender].beneficiaries.pu...\n      ADD \t\t\ts[msg.sender].beneficiaries.pu...\n      MLOAD \t\t\ts[msg.sender].beneficiaries.pu...\n      DUP2 \t\t\ts[msg.sender].beneficiaries.pu...\n      PUSH 3\t\t\ts[msg.sender].beneficiaries.pu...\n      ADD \t\t\ts[msg.sender].beneficiaries.pu...\n      SWAP1 \t\t\ts[msg.sender].beneficiaries.pu...\n      DUP2 \t\t\ts[msg.sender].beneficiaries.pu...\n      PUSH [tag] 93\t\t\ts[msg.sender].beneficiaries.pu...\n      SWAP2 \t\t\ts[msg.sender].beneficiaries.pu...\n      SWAP1 \t\t\ts[msg.sender].beneficiaries.pu...\n      PUSH [tag] 62\t\t\ts[msg.sender].beneficiaries.pu...\n      JUMP \t\t\ts[msg.sender].beneficiaries.pu...\n    tag 93\t\t\ts[msg.sender].beneficiaries.pu...\n      JUMPDEST \t\t\ts[msg.sender].beneficiaries.pu...\n      POP \t\t\ts[msg.sender].beneficiaries.pu...\n      POP \t\t\ts[msg.sender].beneficiaries.pu...\n      POP \t\t\ts[msg.sender].beneficiaries.pu...\n      CALLER \t\t\tsender, _w\n      PUSH FFFFFFFFFFFFFFFFFFFFFFFFFFFFFFFFFFFFFFFF\t\t\tficiaryAdded(msg.sender, _wall...\n      AND \t\t\tficiaryAdded(msg.sender, _wall...\n      PUSH 5D081D791B64899ADAB031015397EF8D7600501212EF97573B9E50F8C9BB6D9B\t\t\tficiaryAdded(msg.sender, _wall...\n      DUP7 \t\t\tlet, _p\n      DUP7 \t\t\tcentage);\\n \n      PUSH 40\t\t\tficiaryAdded(msg.sender, _wall...\n      MLOAD \t\t\tficiaryAdded(msg.sender, _wall...\n      PUSH [tag] 94\t\t\tficiaryAdded(msg.sender, _wall...\n      SWAP3 \t\t\tficiaryAdded(msg.sender, _wall...\n      SWAP2 \t\t\tficiaryAdded(msg.sender, _wall...\n      SWAP1 \t\t\tficiaryAdded(msg.sender, _wall...\n      PUSH [tag] 95\t\t\tficiaryAdded(msg.sender, _wall...\n      JUMP \t\t\tficiaryAdded(msg.sender, _wall...\n    tag 94\t\t\tficiaryAdded(msg.sender, _wall...\n      JUMPDEST \t\t\tficiaryAdded(msg.sender, _wall...\n      PUSH 40\t\t\tficiaryAdded(msg.sender, _wall...\n      MLOAD \t\t\tficiaryAdded(msg.sender, _wall...\n      DUP1 \t\t\tficiaryAdded(msg.sender, _wall...\n      SWAP2 \t\t\tficiaryAdded(msg.sender, _wall...\n      SUB \t\t\tficiaryAdded(msg.sender, _wall...\n      SWAP1 \t\t\tficiaryAdded(msg.sender, _wall...\n      LOG2 \t\t\tficiaryAdded(msg.sender, _wall...\n      POP \t\t\t      require(hasWill[msg.send...\n      POP \t\t\ttion addBeneficiary(\\n        ...\n      POP \t\t\ttion addBeneficiary(\\n        ...\n      POP \t\t\ttion addBeneficiary(\\n        ...\n      POP \t\t\ttion addBeneficiary(\\n        ...\n      JUMP \t\t\ttion addBeneficiary(\\n        ...\n    tag 29\t\t\tpping(address => bool) public ...\n      JUMPDEST \t\t\tpping(address => bool) public ...\n      PUSH 1\t\t\tpping(address => bool) public ...\n      PUSH 20\t\t\tpping(address => bool) public ...\n      MSTORE \t\t\tpping(address => bool) public ...\n      DUP1 \t\t\tpping(address => bool) public ...\n      PUSH 0\t\t\tpping(address => bool) public ...\n      MSTORE \t\t\tpping(address => bool) public ...\n      PUSH 40\t\t\tpping(address => bool) public ...\n      PUSH 0\t\t\tpping(address => bool) public ...\n      KECCAK256 \t\t\tpping(address => bool) public ...\n      PUSH 0\t\t\tpping(address => bool) public ...\n      SWAP2 \t\t\tpping(address => bool) public ...\n      POP \t\t\tpping(address => bool) public ...\n      SLOAD \t\t\tpping(address => bool) public ...\n      SWAP1 \t\t\tpping(address => bool) public ...\n      PUSH 100\t\t\tpping(address => bool) public ...\n      EXP \t\t\tpping(address => bool) public ...\n      SWAP1 \t\t\tpping(address => bool) public ...\n      DIV \t\t\tpping(address => bool) public ...\n      PUSH FF\t\t\tpping(address => bool) public ...\n      AND \t\t\tpping(address => bool) public ...\n      DUP2 \t\t\tpping(address => bool) public ...\n      JUMP \t\t\tpping(address => bool) public ...\n    tag 34\t\t\ttion confirmAlive() public {\\n...\n      JUMPDEST \t\t\ttion confirmAlive() public {\\n...\n      PUSH 1\t\t\till[msg\n      PUSH 0\t\t\till[msg.sender], \"Y\n      CALLER \t\t\tsender], \"\n      PUSH FFFFFFFFFFFFFFFFFFFFFFFFFFFFFFFFFFFFFFFF\t\t\till[msg.sender], \"Y\n      AND \t\t\till[msg.sender], \"Y\n      PUSH FFFFFFFFFFFFFFFFFFFFFFFFFFFFFFFFFFFFFFFF\t\t\till[msg.sender], \"Y\n      AND \t\t\till[msg.sender], \"Y\n      DUP2 \t\t\till[msg.sender], \"Y\n      MSTORE \t\t\till[msg.sender], \"Y\n      PUSH 20\t\t\till[msg.sender], \"Y\n      ADD \t\t\till[msg.sender], \"Y\n      SWAP1 \t\t\till[msg.sender], \"Y\n      DUP2 \t\t\till[msg.sender], \"Y\n      MSTORE \t\t\till[msg.sender], \"Y\n      PUSH 20\t\t\till[msg.sender], \"Y\n      ADD \t\t\till[msg.sender], \"Y\n      PUSH 0\t\t\till[msg.sender], \"Y\n      KECCAK256 \t\t\till[msg.sender], \"Y\n      PUSH 0\t\t\till[msg.sender], \"Y\n      SWAP1 \t\t\till[msg.sender], \"Y\n      SLOAD \t\t\till[msg.sender], \"Y\n      SWAP1 \t\t\till[msg.sender], \"Y\n      PUSH 100\t\t\till[msg.sender], \"Y\n      EXP \t\t\till[msg.sender], \"Y\n      SWAP1 \t\t\till[msg.sender], \"Y\n      DIV \t\t\till[msg.sender], \"Y\n      PUSH FF\t\t\till[msg.sender], \"Y\n      AND \t\t\till[msg.sender], \"Y\n      PUSH [tag] 97\t\t\tire(hasWill[msg.sender], \"You ...\n      JUMPI \t\t\tire(hasWill[msg.sender], \"You ...\n      PUSH 40\t\t\tire(hasWill[msg.sender], \"You ...\n      MLOAD \t\t\tire(hasWill[msg.sender], \"You ...\n      PUSH 8C379A000000000000000000000000000000000000000000000000000000000\t\t\tire(hasWill[msg.sender], \"You ...\n      DUP2 \t\t\tire(hasWill[msg.sender], \"You ...\n      MSTORE \t\t\tire(hasWill[msg.sender], \"You ...\n      PUSH 4\t\t\tire(hasWill[msg.sender], \"You ...\n      ADD \t\t\tire(hasWill[msg.sender], \"You ...\n      PUSH [tag] 98\t\t\tire(hasWill[msg.sender], \"You ...\n      SWAP1 \t\t\tire(hasWill[msg.sender], \"You ...\n      PUSH [tag] 99\t\t\tire(hasWill[msg.sender], \"You ...\n      JUMP \t\t\tire(hasWill[msg.sender], \"You ...\n    tag 98\t\t\tire(hasWill[msg.sender], \"You ...\n      JUMPDEST \t\t\tire(hasWill[msg.sender], \"You ...\n      PUSH 40\t\t\tire(hasWill[msg.sender], \"You ...\n      MLOAD \t\t\tire(hasWill[msg.sender], \"You ...\n      DUP1 \t\t\tire(hasWill[msg.sender], \"You ...\n      SWAP2 \t\t\tire(hasWill[msg.sender], \"You ...\n      SUB \t\t\tire(hasWill[msg.sender], \"You ...\n      SWAP1 \t\t\tire(hasWill[msg.sender], \"You ...\n      REVERT \t\t\tire(hasWill[msg.sender], \"You ...\n    tag 97\t\t\tire(hasWill[msg.sender], \"You ...\n      JUMPDEST \t\t\tire(hasWill[msg.sender], \"You ...\n      PUSH 0\t\t\ts[msg\n      DUP1 \t\t\ts[msg.sender].isD\n      CALLER \t\t\tsender].is\n      PUSH FFFFFFFFFFFFFFFFFFFFFFFFFFFFFFFFFFFFFFFF\t\t\ts[msg.sender].isD\n      AND \t\t\ts[msg.sender].isD\n      PUSH FFFFFFFFFFFFFFFFFFFFFFFFFFFFFFFFFFFFFFFF\t\t\ts[msg.sender].isD\n      AND \t\t\ts[msg.sender].isD\n      DUP2 \t\t\ts[msg.sender].isD\n      MSTORE \t\t\ts[msg.sender].isD\n      PUSH 20\t\t\ts[msg.sender].isD\n      ADD \t\t\ts[msg.sender].isD\n      SWAP1 \t\t\ts[msg.sender].isD\n      DUP2 \t\t\ts[msg.sender].isD\n      MSTORE \t\t\ts[msg.sender].isD\n      PUSH 20\t\t\ts[msg.sender].isD\n      ADD \t\t\ts[msg.sender].isD\n      PUSH 0\t\t\ts[msg.sender].isD\n      KECCAK256 \t\t\ts[msg.sender].isD\n      PUSH 6\t\t\ts[msg.sender].isDeceased, \"W\n      ADD \t\t\ts[msg.sender].isDeceased, \"W\n      PUSH 0\t\t\ts[msg.sender].isDeceased, \"W\n      SWAP1 \t\t\ts[msg.sender].isDeceased, \"W\n      SLOAD \t\t\ts[msg.sender].isDeceased, \"W\n      SWAP1 \t\t\ts[msg.sender].isDeceased, \"W\n      PUSH 100\t\t\ts[msg.sender].isDeceased, \"W\n      EXP \t\t\ts[msg.sender].isDeceased, \"W\n      SWAP1 \t\t\ts[msg.sender].isDeceased, \"W\n      DIV \t\t\ts[msg.sender].isDeceased, \"W\n      PUSH FF\t\t\ts[msg.sender].isDeceased, \"W\n      AND \t\t\ts[msg.sender].isDeceased, \"W\n      ISZERO \t\t\tls[msg.sender].isDeceased, \"W\n      PUSH [tag] 100\t\t\tire(!wills[msg.sender].isDecea...\n      JUMPI \t\t\tire(!wills[msg.sender].isDecea...\n      PUSH 40\t\t\tire(!wills[msg.sender].isDecea...\n      MLOAD \t\t\tire(!wills[msg.sender].isDecea...\n      PUSH 8C379A000000000000000000000000000000000000000000000000000000000\t\t\tire(!wills[msg.sender].isDecea...\n      DUP2 \t\t\tire(!wills[msg.sender].isDecea...\n      MSTORE \t\t\tire(!wills[msg.sender].isDecea...\n      PUSH 4\t\t\tire(!wills[msg.sender].isDecea...\n      ADD \t\t\tire(!wills[msg.sender].isDecea...\n      PUSH [tag] 101\t\t\tire(!wills[msg.sender].isDecea...\n      SWAP1 \t\t\tire(!wills[msg.sender].isDecea...\n      PUSH [tag] 102\t\t\tire(!wills[msg.sender].isDecea...\n      JUMP \t\t\tire(!wills[msg.sender].isDecea...\n    tag 101\t\t\tire(!wills[msg.sender].isDecea...\n      JUMPDEST \t\t\tire(!wills[msg.sender].isDecea...\n      PUSH 40\t\t\tire(!wills[msg.sender].isDecea...\n      MLOAD \t\t\tire(!wills[msg.sender].isDecea...\n      DUP1 \t\t\tire(!wills[msg.sender].isDecea...\n      SWAP2 \t\t\tire(!wills[msg.sender].isDecea...\n      SUB \t\t\tire(!wills[msg.sender].isDecea...\n      SWAP1 \t\t\tire(!wills[msg.sender].isDecea...\n      REVERT \t\t\tire(!wills[msg.sender].isDecea...\n    tag 100\t\t\tire(!wills[msg.sender].isDecea...\n      JUMPDEST \t\t\tire(!wills[msg.sender].isDecea...\n      TIMESTAMP \t\t\tk.timestamp;\\n  \n      PUSH 0\t\t\ts[msg\n      DUP1 \t\t\ts[msg.sender].las\n      CALLER \t\t\tsender].la\n      PUSH FFFFFFFFFFFFFFFFFFFFFFFFFFFFFFFFFFFFFFFF\t\t\ts[msg.sender].las\n      AND \t\t\ts[msg.sender].las\n      PUSH FFFFFFFFFFFFFFFFFFFFFFFFFFFFFFFFFFFFFFFF\t\t\ts[msg.sender].las\n      AND \t\t\ts[msg.sender].las\n      DUP2 \t\t\ts[msg.sender].las\n      MSTORE \t\t\ts[msg.sender].las\n      PUSH 20\t\t\ts[msg.sender].las\n      ADD \t\t\ts[msg.sender].las\n      SWAP1 \t\t\ts[msg.sender].las\n      DUP2 \t\t\ts[msg.sender].las\n      MSTORE \t\t\ts[msg.sender].las\n      PUSH 20\t\t\ts[msg.sender].las\n      ADD \t\t\ts[msg.sender].las\n      PUSH 0\t\t\ts[msg.sender].las\n      KECCAK256 \t\t\ts[msg.sender].las\n      PUSH 4\t\t\ts[msg.sender].lastAliveTime = ...\n      ADD \t\t\ts[msg.sender].lastAliveTime = ...\n      DUP2 \t\t\ts[msg.sender].lastAliveTime = ...\n      SWAP1 \t\t\ts[msg.sender].lastAliveTime = ...\n      SSTORE \t\t\ts[msg.sender].lastAliveTime = ...\n      POP \t\t\ts[msg.sender].lastAliveTime = ...\n      JUMP \t\t\ttion confirmAlive() public {\\n...\n    tag 38\t\t\ttion isWillExecuted(address us...\n      JUMPDEST \t\t\ttion isWillExecuted(address us...\n      PUSH 0\t\t\t) {\\n\n      PUSH 1\t\t\till[use\n      PUSH 0\t\t\till[user], \"N\n      DUP4 \t\t\t], \"\n      PUSH FFFFFFFFFFFFFFFFFFFFFFFFFFFFFFFFFFFFFFFF\t\t\till[user], \"N\n      AND \t\t\till[user], \"N\n      PUSH FFFFFFFFFFFFFFFFFFFFFFFFFFFFFFFFFFFFFFFF\t\t\till[user], \"N\n      AND \t\t\till[user], \"N\n      DUP2 \t\t\till[user], \"N\n      MSTORE \t\t\till[user], \"N\n      PUSH 20\t\t\till[user], \"N\n      ADD \t\t\till[user], \"N\n      SWAP1 \t\t\till[user], \"N\n      DUP2 \t\t\till[user], \"N\n      MSTORE \t\t\till[user], \"N\n      PUSH 20\t\t\till[user], \"N\n      ADD \t\t\till[user], \"N\n      PUSH 0\t\t\till[user], \"N\n      KECCAK256 \t\t\till[user], \"N\n      PUSH 0\t\t\till[user], \"N\n      SWAP1 \t\t\till[user], \"N\n      SLOAD \t\t\till[user], \"N\n      SWAP1 \t\t\till[user], \"N\n      PUSH 100\t\t\till[user], \"N\n      EXP \t\t\till[user], \"N\n      SWAP1 \t\t\till[user], \"N\n      DIV \t\t\till[user], \"N\n      PUSH FF\t\t\till[user], \"N\n      AND \t\t\till[user], \"N\n      PUSH [tag] 104\t\t\tire(hasWill[user], \"No will fo...\n      JUMPI \t\t\tire(hasWill[user], \"No will fo...\n      PUSH 40\t\t\tire(hasWill[user], \"No will fo...\n      MLOAD \t\t\tire(hasWill[user], \"No will fo...\n      PUSH 8C379A000000000000000000000000000000000000000000000000000000000\t\t\tire(hasWill[user], \"No will fo...\n      DUP2 \t\t\tire(hasWill[user], \"No will fo...\n      MSTORE \t\t\tire(hasWill[user], \"No will fo...\n      PUSH 4\t\t\tire(hasWill[user], \"No will fo...\n      ADD \t\t\tire(hasWill[user], \"No will fo...\n      PUSH [tag] 105\t\t\tire(hasWill[user], \"No will fo...\n      SWAP1 \t\t\tire(hasWill[user], \"No will fo...\n      PUSH [tag] 47\t\t\tire(hasWill[user], \"No will fo...\n      JUMP \t\t\tire(hasWill[user], \"No will fo...\n    tag 105\t\t\tire(hasWill[user], \"No will fo...\n      JUMPDEST \t\t\tire(hasWill[user], \"No will fo...\n      PUSH 40\t\t\tire(hasWill[user], \"No will fo...\n      MLOAD \t\t\tire(hasWill[user], \"No will fo...\n      DUP1 \t\t\tire(hasWill[user], \"No will fo...\n      SWAP2 \t\t\tire(hasWill[user], \"No will fo...\n      SUB \t\t\tire(hasWill[user], \"No will fo...\n      SWAP1 \t\t\tire(hasWill[user], \"No will fo...\n      REVERT \t\t\tire(hasWill[user], \"No will fo...\n    tag 104\t\t\tire(hasWill[user], \"No will fo...\n      JUMPDEST \t\t\tire(hasWill[user], \"No will fo...\n      PUSH 0\t\t\ts[use\n      DUP1 \t\t\ts[user].isD\n      DUP4 \t\t\t].is\n      PUSH FFFFFFFFFFFFFFFFFFFFFFFFFFFFFFFFFFFFFFFF\t\t\ts[user].isD\n      AND \t\t\ts[user].isD\n      PUSH FFFFFFFFFFFFFFFFFFFFFFFFFFFFFFFFFFFFFFFF\t\t\ts[user].isD\n      AND \t\t\ts[user].isD\n      DUP2 \t\t\ts[user].isD\n      MSTORE \t\t\ts[user].isD\n      PUSH 20\t\t\ts[user].isD\n      ADD \t\t\ts[user].isD\n      SWAP1 \t\t\ts[user].isD\n      DUP2 \t\t\ts[user].isD\n      MSTORE \t\t\ts[user].isD\n      PUSH 20\t\t\ts[user].isD\n      ADD \t\t\ts[user].isD\n      PUSH 0\t\t\ts[user].isD\n      KECCAK256 \t\t\ts[user].isD\n      PUSH 6\t\t\ts[user].isDeceased;\\n  \n      ADD \t\t\ts[user].isDeceased;\\n  \n      PUSH 0\t\t\ts[user].isDeceased;\\n  \n      SWAP1 \t\t\ts[user].isDeceased;\\n  \n      SLOAD \t\t\ts[user].isDeceased;\\n  \n      SWAP1 \t\t\ts[user].isDeceased;\\n  \n      PUSH 100\t\t\ts[user].isDeceased;\\n  \n      EXP \t\t\ts[user].isDeceased;\\n  \n      SWAP1 \t\t\ts[user].isDeceased;\\n  \n      DIV \t\t\ts[user].isDeceased;\\n  \n      PUSH FF\t\t\ts[user].isDeceased;\\n  \n      AND \t\t\ts[user].isDeceased;\\n  \n      SWAP1 \t\t\trn wills[user].isDeceased;\\n  \n      POP \t\t\trn wills[user].isDeceased;\\n  \n      SWAP2 \t\t\ttion isWillExecuted(address us...\n      SWAP1 \t\t\ttion isWillExecuted(address us...\n      POP \t\t\ttion isWillExecuted(address us...\n      JUMP \t\t\ttion isWillExecuted(address us...\n    tag 43\t\t\ttion executeWill(address user)...\n      JUMPDEST \t\t\ttion executeWill(address user)...\n      PUSH 1\t\t\till[use\n      PUSH 0\t\t\till[user], \"N\n      DUP3 \t\t\t], \"\n      PUSH FFFFFFFFFFFFFFFFFFFFFFFFFFFFFFFFFFFFFFFF\t\t\till[user], \"N\n      AND \t\t\till[user], \"N\n      PUSH FFFFFFFFFFFFFFFFFFFFFFFFFFFFFFFFFFFFFFFF\t\t\till[user], \"N\n      AND \t\t\till[user], \"N\n      DUP2 \t\t\till[user], \"N\n      MSTORE \t\t\till[user], \"N\n      PUSH 20\t\t\till[user], \"N\n      ADD \t\t\till[user], \"N\n      SWAP1 \t\t\till[user], \"N\n      DUP2 \t\t\till[user], \"N\n      MSTORE \t\t\till[user], \"N\n      PUSH 20\t\t\till[user], \"N\n      ADD \t\t\till[user], \"N\n      PUSH 0\t\t\till[user], \"N\n      KECCAK256 \t\t\till[user], \"N\n      PUSH 0\t\t\till[user], \"N\n      SWAP1 \t\t\till[user], \"N\n      SLOAD \t\t\till[user], \"N\n      SWAP1 \t\t\till[user], \"N\n      PUSH 100\t\t\till[user], \"N\n      EXP \t\t\till[user], \"N\n      SWAP1 \t\t\till[user], \"N\n      DIV \t\t\till[user], \"N\n      PUSH FF\t\t\till[user], \"N\n      AND \t\t\till[user], \"N\n      PUSH [tag] 107\t\t\tire(hasWill[user], \"No will fo...\n      JUMPI \t\t\tire(hasWill[user], \"No will fo...\n      PUSH 40\t\t\tire(hasWill[user], \"No will fo...\n      MLOAD \t\t\tire(hasWill[user], \"No will fo...\n      PUSH 8C379A000000000000000000000000000000000000000000000000000000000\t\t\tire(hasWill[user], \"No will fo...\n      DUP2 \t\t\tire(hasWill[user], \"No will fo...\n      MSTORE \t\t\tire(hasWill[user], \"No will fo...\n      PUSH 4\t\t\tire(hasWill[user], \"No will fo...\n      ADD \t\t\tire(hasWill[user], \"No will fo...\n      PUSH [tag] 108\t\t\tire(hasWill[user], \"No will fo...\n      SWAP1 \t\t\tire(hasWill[user], \"No will fo...\n      PUSH [tag] 47\t\t\tire(hasWill[user], \"No will fo...\n      JUMP \t\t\tire(hasWill[user], \"No will fo...\n    tag 108\t\t\tire(hasWill[user], \"No will fo...\n      JUMPDEST \t\t\tire(hasWill[user], \"No will fo...\n      PUSH 40\t\t\tire(hasWill[user], \"No will fo...\n      MLOAD \t\t\tire(hasWill[user], \"No will fo...\n      DUP1 \t\t\tire(hasWill[user], \"No will fo...\n      SWAP2 \t\t\tire(hasWill[user], \"No will fo...\n      SUB \t\t\tire(hasWill[user], \"No will fo...\n      SWAP1 \t\t\tire(hasWill[user], \"No will fo...\n      REVERT \t\t\tire(hasWill[user], \"No will fo...\n    tag 107\t\t\tire(hasWill[user], \"No will fo...\n      JUMPDEST \t\t\tire(hasWill[user], \"No will fo...\n      PUSH 0\t\t\ts[use\n      DUP1 \t\t\ts[user].pro\n      DUP3 \t\t\t].pr\n      PUSH FFFFFFFFFFFFFFFFFFFFFFFFFFFFFFFFFFFFFFFF\t\t\ts[user].pro\n      AND \t\t\ts[user].pro\n      PUSH FFFFFFFFFFFFFFFFFFFFFFFFFFFFFFFFFFFFFFFF\t\t\ts[user].pro\n      AND \t\t\ts[user].pro\n      DUP2 \t\t\ts[user].pro\n      MSTORE \t\t\ts[user].pro\n      PUSH 20\t\t\ts[user].pro\n      ADD \t\t\ts[user].pro\n      SWAP1 \t\t\ts[user].pro\n      DUP2 \t\t\ts[user].pro\n      MSTORE \t\t\ts[user].pro\n      PUSH 20\t\t\ts[user].pro\n      ADD \t\t\ts[user].pro\n      PUSH 0\t\t\ts[user].pro\n      KECCAK256 \t\t\ts[user].pro\n      PUSH 5\t\t\ts[user].proofOfLifeInterval, \"...\n      ADD \t\t\ts[user].proofOfLifeInterval, \"...\n      SLOAD \t\t\ts[user].proofOfLifeInterval, \"...\n      PUSH 0\t\t\ts[use\n      DUP1 \t\t\ts[user].las\n      DUP4 \t\t\t].la\n      PUSH FFFFFFFFFFFFFFFFFFFFFFFFFFFFFFFFFFFFFFFF\t\t\ts[user].las\n      AND \t\t\ts[user].las\n      PUSH FFFFFFFFFFFFFFFFFFFFFFFFFFFFFFFFFFFFFFFF\t\t\ts[user].las\n      AND \t\t\ts[user].las\n      DUP2 \t\t\ts[user].las\n      MSTORE \t\t\ts[user].las\n      PUSH 20\t\t\ts[user].las\n      ADD \t\t\ts[user].las\n      SWAP1 \t\t\ts[user].las\n      DUP2 \t\t\ts[user].las\n      MSTORE \t\t\ts[user].las\n      PUSH 20\t\t\ts[user].las\n      ADD \t\t\ts[user].las\n      PUSH 0\t\t\ts[user].las\n      KECCAK256 \t\t\ts[user].las\n      PUSH 4\t\t\ts[user].lastAliveTime + w\n      ADD \t\t\ts[user].lastAliveTime + w\n      SLOAD \t\t\ts[user].lastAliveTime + w\n      PUSH [tag] 109\t\t\ts[user].lastAliveTime + wills[...\n      SWAP2 \t\t\ts[user].lastAliveTime + wills[...\n      SWAP1 \t\t\ts[user].lastAliveTime + wills[...\n      PUSH [tag] 86\t\t\ts[user].lastAliveTime + wills[...\n      JUMP \t\t\ts[user].lastAliveTime + wills[...\n    tag 109\t\t\ts[user].lastAliveTime + wills[...\n      JUMPDEST \t\t\ts[user].lastAliveTime + wills[...\n      TIMESTAMP \t\t\tk.timestamp > w\n      GT \t\t\tk.timestamp > wills[user].last...\n      PUSH [tag] 110\t\t\tire(block.timestamp > wills[us...\n      JUMPI \t\t\tire(block.timestamp > wills[us...\n      PUSH 40\t\t\tire(block.timestamp > wills[us...\n      MLOAD \t\t\tire(block.timestamp > wills[us...\n      PUSH 8C379A000000000000000000000000000000000000000000000000000000000\t\t\tire(block.timestamp > wills[us...\n      DUP2 \t\t\tire(block.timestamp > wills[us...\n      MSTORE \t\t\tire(block.timestamp > wills[us...\n      PUSH 4\t\t\tire(block.timestamp > wills[us...\n      ADD \t\t\tire(block.timestamp > wills[us...\n      PUSH [tag] 111\t\t\tire(block.timestamp > wills[us...\n      SWAP1 \t\t\tire(block.timestamp > wills[us...\n      PUSH [tag] 112\t\t\tire(block.timestamp > wills[us...\n      JUMP \t\t\tire(block.timestamp > wills[us...\n    tag 111\t\t\tire(block.timestamp > wills[us...\n      JUMPDEST \t\t\tire(block.timestamp > wills[us...\n      PUSH 40\t\t\tire(block.timestamp > wills[us...\n      MLOAD \t\t\tire(block.timestamp > wills[us...\n      DUP1 \t\t\tire(block.timestamp > wills[us...\n      SWAP2 \t\t\tire(block.timestamp > wills[us...\n      SUB \t\t\tire(block.timestamp > wills[us...\n      SWAP1 \t\t\tire(block.timestamp > wills[us...\n      REVERT \t\t\tire(block.timestamp > wills[us...\n    tag 110\t\t\tire(block.timestamp > wills[us...\n      JUMPDEST \t\t\tire(block.timestamp > wills[us...\n      PUSH 0\t\t\ts[use\n      DUP1 \t\t\ts[user].isD\n      DUP3 \t\t\t].is\n      PUSH FFFFFFFFFFFFFFFFFFFFFFFFFFFFFFFFFFFFFFFF\t\t\ts[user].isD\n      AND \t\t\ts[user].isD\n      PUSH FFFFFFFFFFFFFFFFFFFFFFFFFFFFFFFFFFFFFFFF\t\t\ts[user].isD\n      AND \t\t\ts[user].isD\n      DUP2 \t\t\ts[user].isD\n      MSTORE \t\t\ts[user].isD\n      PUSH 20\t\t\ts[user].isD\n      ADD \t\t\ts[user].isD\n      SWAP1 \t\t\ts[user].isD\n      DUP2 \t\t\ts[user].isD\n      MSTORE \t\t\ts[user].isD\n      PUSH 20\t\t\ts[user].isD\n      ADD \t\t\ts[user].isD\n      PUSH 0\t\t\ts[user].isD\n      KECCAK256 \t\t\ts[user].isD\n      PUSH 6\t\t\ts[user].isDeceased, \"W\n      ADD \t\t\ts[user].isDeceased, \"W\n      PUSH 0\t\t\ts[user].isDeceased, \"W\n      SWAP1 \t\t\ts[user].isDeceased, \"W\n      SLOAD \t\t\ts[user].isDeceased, \"W\n      SWAP1 \t\t\ts[user].isDeceased, \"W\n      PUSH 100\t\t\ts[user].isDeceased, \"W\n      EXP \t\t\ts[user].isDeceased, \"W\n      SWAP1 \t\t\ts[user].isDeceased, \"W\n      DIV \t\t\ts[user].isDeceased, \"W\n      PUSH FF\t\t\ts[user].isDeceased, \"W\n      AND \t\t\ts[user].isDeceased, \"W\n      ISZERO \t\t\tls[user].isDeceased, \"W\n      PUSH [tag] 113\t\t\tire(!wills[user].isDeceased, \"...\n      JUMPI \t\t\tire(!wills[user].isDeceased, \"...\n      PUSH 40\t\t\tire(!wills[user].isDeceased, \"...\n      MLOAD \t\t\tire(!wills[user].isDeceased, \"...\n      PUSH 8C379A000000000000000000000000000000000000000000000000000000000\t\t\tire(!wills[user].isDeceased, \"...\n      DUP2 \t\t\tire(!wills[user].isDeceased, \"...\n      MSTORE \t\t\tire(!wills[user].isDeceased, \"...\n      PUSH 4\t\t\tire(!wills[user].isDeceased, \"...\n      ADD \t\t\tire(!wills[user].isDeceased, \"...\n      PUSH [tag] 114\t\t\tire(!wills[user].isDeceased, \"...\n      SWAP1 \t\t\tire(!wills[user].isDeceased, \"...\n      PUSH [tag] 102\t\t\tire(!wills[user].isDeceased, \"...\n      JUMP \t\t\tire(!wills[user].isDeceased, \"...\n    tag 114\t\t\tire(!wills[user].isDeceased, \"...\n      JUMPDEST \t\t\tire(!wills[user].isDeceased, \"...\n      PUSH 40\t\t\tire(!wills[user].isDeceased, \"...\n      MLOAD \t\t\tire(!wills[user].isDeceased, \"...\n      DUP1 \t\t\tire(!wills[user].isDeceased, \"...\n      SWAP2 \t\t\tire(!wills[user].isDeceased, \"...\n      SUB \t\t\tire(!wills[user].isDeceased, \"...\n      SWAP1 \t\t\tire(!wills[user].isDeceased, \"...\n      REVERT \t\t\tire(!wills[user].isDeceased, \"...\n    tag 113\t\t\tire(!wills[user].isDeceased, \"...\n      JUMPDEST \t\t\tire(!wills[user].isDeceased, \"...\n      PUSH 1\t\t\t;\\n\\n \n      PUSH 0\t\t\ts[use\n      DUP1 \t\t\ts[user].isD\n      DUP4 \t\t\t].is\n      PUSH FFFFFFFFFFFFFFFFFFFFFFFFFFFFFFFFFFFFFFFF\t\t\ts[user].isD\n      AND \t\t\ts[user].isD\n      PUSH FFFFFFFFFFFFFFFFFFFFFFFFFFFFFFFFFFFFFFFF\t\t\ts[user].isD\n      AND \t\t\ts[user].isD\n      DUP2 \t\t\ts[user].isD\n      MSTORE \t\t\ts[user].isD\n      PUSH 20\t\t\ts[user].isD\n      ADD \t\t\ts[user].isD\n      SWAP1 \t\t\ts[user].isD\n      DUP2 \t\t\ts[user].isD\n      MSTORE \t\t\ts[user].isD\n      PUSH 20\t\t\ts[user].isD\n      ADD \t\t\ts[user].isD\n      PUSH 0\t\t\ts[user].isD\n      KECCAK256 \t\t\ts[user].isD\n      PUSH 6\t\t\ts[user].isDeceased = t\n      ADD \t\t\ts[user].isDeceased = t\n      PUSH 0\t\t\ts[user].isDeceased = t\n      PUSH 100\t\t\ts[user].isDeceased = true;\\n\\n...\n      EXP \t\t\ts[user].isDeceased = true;\\n\\n...\n      DUP2 \t\t\ts[user].isDeceased = true;\\n\\n...\n      SLOAD \t\t\ts[user].isDeceased = true;\\n\\n...\n      DUP2 \t\t\ts[user].isDeceased = true;\\n\\n...\n      PUSH FF\t\t\ts[user].isDeceased = true;\\n\\n...\n      MUL \t\t\ts[user].isDeceased = true;\\n\\n...\n      NOT \t\t\ts[user].isDeceased = true;\\n\\n...\n      AND \t\t\ts[user].isDeceased = true;\\n\\n...\n      SWAP1 \t\t\ts[user].isDeceased = true;\\n\\n...\n      DUP4 \t\t\ts[user].isDeceased = true;\\n\\n...\n      ISZERO \t\t\ts[user].isDeceased = true;\\n\\n...\n      ISZERO \t\t\ts[user].isDeceased = true;\\n\\n...\n      MUL \t\t\ts[user].isDeceased = true;\\n\\n...\n      OR \t\t\ts[user].isDeceased = true;\\n\\n...\n      SWAP1 \t\t\ts[user].isDeceased = true;\\n\\n...\n      SSTORE \t\t\ts[user].isDeceased = true;\\n\\n...\n      POP \t\t\ts[user].isDeceased = true;\\n\\n...\n      PUSH 0\t\t\t256 totalLocked = w\n      DUP1 \t\t\ts[use\n      PUSH 0\t\t\ts[user].tot\n      DUP4 \t\t\t].to\n      PUSH FFFFFFFFFFFFFFFFFFFFFFFFFFFFFFFFFFFFFFFF\t\t\ts[user].tot\n      AND \t\t\ts[user].tot\n      PUSH FFFFFFFFFFFFFFFFFFFFFFFFFFFFFFFFFFFFFFFF\t\t\ts[user].tot\n      AND \t\t\ts[user].tot\n      DUP2 \t\t\ts[user].tot\n      MSTORE \t\t\ts[user].tot\n      PUSH 20\t\t\ts[user].tot\n      ADD \t\t\ts[user].tot\n      SWAP1 \t\t\ts[user].tot\n      DUP2 \t\t\ts[user].tot\n      MSTORE \t\t\ts[user].tot\n      PUSH 20\t\t\ts[user].tot\n      ADD \t\t\ts[user].tot\n      PUSH 0\t\t\ts[user].tot\n      KECCAK256 \t\t\ts[user].tot\n      PUSH 3\t\t\ts[user].totalLocked;\\n  \n      ADD \t\t\ts[user].totalLocked;\\n  \n      SLOAD \t\t\ts[user].totalLocked;\\n  \n      SWAP1 \t\t\t256 totalLocked = wills[user]....\n      POP \t\t\t256 totalLocked = wills[user]....\n      PUSH 0\t\t\tN\n      DUP2 \t\t\tlLocked > 0\n      GT \t\t\tlLocked > 0, \"N\n      PUSH [tag] 115\t\t\tire(totalLocked > 0, \"No ETH t...\n      JUMPI \t\t\tire(totalLocked > 0, \"No ETH t...\n      PUSH 40\t\t\tire(totalLocked > 0, \"No ETH t...\n      MLOAD \t\t\tire(totalLocked > 0, \"No ETH t...\n      PUSH 8C379A000000000000000000000000000000000000000000000000000000000\t\t\tire(totalLocked > 0, \"No ETH t...\n      DUP2 \t\t\tire(totalLocked > 0, \"No ETH t...\n      MSTORE \t\t\tire(totalLocked > 0, \"No ETH t...\n      PUSH 4\t\t\tire(totalLocked > 0, \"No ETH t...\n      ADD \t\t\tire(totalLocked > 0, \"No ETH t...\n      PUSH [tag] 116\t\t\tire(totalLocked > 0, \"No ETH t...\n      SWAP1 \t\t\tire(totalLocked > 0, \"No ETH t...\n      PUSH [tag] 117\t\t\tire(totalLocked > 0, \"No ETH t...\n      JUMP \t\t\tire(totalLocked > 0, \"No ETH t...\n    tag 116\t\t\tire(totalLocked > 0, \"No ETH t...\n      JUMPDEST \t\t\tire(totalLocked > 0, \"No ETH t...\n      PUSH 40\t\t\tire(totalLocked > 0, \"No ETH t...\n      MLOAD \t\t\tire(totalLocked > 0, \"No ETH t...\n      DUP1 \t\t\tire(totalLocked > 0, \"No ETH t...\n      SWAP2 \t\t\tire(totalLocked > 0, \"No ETH t...\n      SUB \t\t\tire(totalLocked > 0, \"No ETH t...\n      SWAP1 \t\t\tire(totalLocked > 0, \"No ETH t...\n      REVERT \t\t\tire(totalLocked > 0, \"No ETH t...\n    tag 115\t\t\tire(totalLocked > 0, \"No ETH t...\n      JUMPDEST \t\t\tire(totalLocked > 0, \"No ETH t...\n      PUSH 0\t\t\t i = 0\n    tag 118\t\t\t(uint i = 0; i < wills[user].b...\n      JUMPDEST \t\t\t(uint i = 0; i < wills[user].b...\n      PUSH 0\t\t\ts[use\n      DUP1 \t\t\ts[user].ben\n      DUP5 \t\t\t].be\n      PUSH FFFFFFFFFFFFFFFFFFFFFFFFFFFFFFFFFFFFFFFF\t\t\ts[user].ben\n      AND \t\t\ts[user].ben\n      PUSH FFFFFFFFFFFFFFFFFFFFFFFFFFFFFFFFFFFFFFFF\t\t\ts[user].ben\n      AND \t\t\ts[user].ben\n      DUP2 \t\t\ts[user].ben\n      MSTORE \t\t\ts[user].ben\n      PUSH 20\t\t\ts[user].ben\n      ADD \t\t\ts[user].ben\n      SWAP1 \t\t\ts[user].ben\n      DUP2 \t\t\ts[user].ben\n      MSTORE \t\t\ts[user].ben\n      PUSH 20\t\t\ts[user].ben\n      ADD \t\t\ts[user].ben\n      PUSH 0\t\t\ts[user].ben\n      KECCAK256 \t\t\ts[user].ben\n      PUSH 8\t\t\ts[user].beneficiaries.len\n      ADD \t\t\ts[user].beneficiaries.len\n      DUP1 \t\t\ts[user].beneficiaries.length; ...\n      SLOAD \t\t\ts[user].beneficiaries.length; ...\n      SWAP1 \t\t\ts[user].beneficiaries.length; ...\n      POP \t\t\ts[user].beneficiaries.length; ...\n      DUP2 \t\t\tw\n      LT \t\t\twills[user].beneficiaries.leng...\n      ISZERO \t\t\t(uint i = 0; i < wills[user].b...\n      PUSH [tag] 119\t\t\t(uint i = 0; i < wills[user].b...\n      JUMPI \t\t\t(uint i = 0; i < wills[user].b...\n      PUSH 0\t\t\tficiary storage beneficiary = ...\n      DUP1 \t\t\ts[use\n      PUSH 0\t\t\ts[user].ben\n      DUP6 \t\t\t].be\n      PUSH FFFFFFFFFFFFFFFFFFFFFFFFFFFFFFFFFFFFFFFF\t\t\ts[user].ben\n      AND \t\t\ts[user].ben\n      PUSH FFFFFFFFFFFFFFFFFFFFFFFFFFFFFFFFFFFFFFFF\t\t\ts[user].ben\n      AND \t\t\ts[user].ben\n      DUP2 \t\t\ts[user].ben\n      MSTORE \t\t\ts[user].ben\n      PUSH 20\t\t\ts[user].ben\n      ADD \t\t\ts[user].ben\n      SWAP1 \t\t\ts[user].ben\n      DUP2 \t\t\ts[user].ben\n      MSTORE \t\t\ts[user].ben\n      PUSH 20\t\t\ts[user].ben\n      ADD \t\t\ts[user].ben\n      PUSH 0\t\t\ts[user].ben\n      KECCAK256 \t\t\ts[user].ben\n      PUSH 8\t\t\ts[user].beneficiaries[i];\n      ADD \t\t\ts[user].beneficiaries[i];\n      DUP3 \t\t\t\\n\n      DUP2 \t\t\ts[user].beneficiaries[i];\\n\\n \n      SLOAD \t\t\ts[user].beneficiaries[i];\\n\\n \n      DUP2 \t\t\ts[user].beneficiaries[i];\\n\\n \n      LT \t\t\ts[user].beneficiaries[i];\\n\\n \n      PUSH [tag] 121\t\t\ts[user].beneficiaries[i];\\n\\n \n      JUMPI \t\t\ts[user].beneficiaries[i];\\n\\n \n      PUSH [tag] 122\t\t\ts[user].beneficiaries[i];\\n\\n \n      PUSH [tag] 83\t\t\ts[user].beneficiaries[i];\\n\\n \n      JUMP \t\t\ts[user].beneficiaries[i];\\n\\n \n    tag 122\t\t\ts[user].beneficiaries[i];\\n\\n \n      JUMPDEST \t\t\ts[user].beneficiaries[i];\\n\\n \n    tag 121\t\t\ts[user].beneficiaries[i];\\n\\n \n      JUMPDEST \t\t\ts[user].beneficiaries[i];\\n\\n \n      SWAP1 \t\t\ts[user].beneficiaries[i];\\n\\n \n      PUSH 0\t\t\ts[user].beneficiaries[i];\\n\\n \n      MSTORE \t\t\ts[user].beneficiaries[i];\\n\\n \n      PUSH 20\t\t\ts[user].beneficiaries[i];\\n\\n \n      PUSH 0\t\t\ts[user].beneficiaries[i];\\n\\n \n      KECCAK256 \t\t\ts[user].beneficiaries[i];\\n\\n \n      SWAP1 \t\t\ts[user].beneficiaries[i];\\n\\n \n      PUSH 4\t\t\ts[user].beneficiaries[i];\\n\\n \n      MUL \t\t\ts[user].beneficiaries[i];\\n\\n \n      ADD \t\t\ts[user].beneficiaries[i];\\n\\n \n      SWAP1 \t\t\tficiary storage beneficiary = ...\n      POP \t\t\tficiary storage beneficiary = ...\n      PUSH 0\t\t\t256 amount = (\n      PUSH 64\t\t\t\\n  \n      DUP3 \t\t\tficiary.per\n      PUSH 1\t\t\tficiary.percentage) / \n      ADD \t\t\tficiary.percentage) / \n      SLOAD \t\t\tficiary.percentage) / \n      DUP6 \t\t\tlLocked * b\n      PUSH [tag] 124\t\t\tlLocked * beneficiary.percenta...\n      SWAP2 \t\t\tlLocked * beneficiary.percenta...\n      SWAP1 \t\t\tlLocked * beneficiary.percenta...\n      PUSH [tag] 125\t\t\tlLocked * beneficiary.percenta...\n      JUMP \t\t\tlLocked * beneficiary.percenta...\n    tag 124\t\t\tlLocked * beneficiary.percenta...\n      JUMPDEST \t\t\tlLocked * beneficiary.percenta...\n      PUSH [tag] 126\t\t\talLocked * beneficiary.percent...\n      SWAP2 \t\t\talLocked * beneficiary.percent...\n      SWAP1 \t\t\talLocked * beneficiary.percent...\n      PUSH [tag] 127\t\t\talLocked * beneficiary.percent...\n      JUMP \t\t\talLocked * beneficiary.percent...\n    tag 126\t\t\talLocked * beneficiary.percent...\n      JUMPDEST \t\t\talLocked * beneficiary.percent...\n      SWAP1 \t\t\t256 amount = (totalLocked * be...\n      POP \t\t\t256 amount = (totalLocked * be...\n      DUP2 \t\t\tficiary.wal\n      PUSH 0\t\t\tficiary.wallet.tra\n      ADD \t\t\tficiary.wallet.tra\n      PUSH 0\t\t\tficiary.wallet.tra\n      SWAP1 \t\t\tficiary.wallet.tra\n      SLOAD \t\t\tficiary.wallet.tra\n      SWAP1 \t\t\tficiary.wallet.tra\n      PUSH 100\t\t\tficiary.wallet.tra\n      EXP \t\t\tficiary.wallet.tra\n      SWAP1 \t\t\tficiary.wallet.tra\n      DIV \t\t\tficiary.wallet.tra\n      PUSH FFFFFFFFFFFFFFFFFFFFFFFFFFFFFFFFFFFFFFFF\t\t\tficiary.wallet.tra\n      AND \t\t\tficiary.wallet.tra\n      PUSH FFFFFFFFFFFFFFFFFFFFFFFFFFFFFFFFFFFFFFFF\t\t\tficiary.wallet.transfer(amo\n      AND \t\t\tficiary.wallet.transfer(amo\n      PUSH 8FC\t\t\tficiary.wallet.transfer(amount...\n      DUP3 \t\t\tnt);\\n\\n\n      SWAP1 \t\t\tficiary.wallet.transfer(amount...\n      DUP2 \t\t\tficiary.wallet.transfer(amount...\n      ISZERO \t\t\tficiary.wallet.transfer(amount...\n      MUL \t\t\tficiary.wallet.transfer(amount...\n      SWAP1 \t\t\tficiary.wallet.transfer(amount...\n      PUSH 40\t\t\tficiary.wallet.transfer(amount...\n      MLOAD \t\t\tficiary.wallet.transfer(amount...\n      PUSH 0\t\t\tficiary.wallet.transfer(amount...\n      PUSH 40\t\t\tficiary.wallet.transfer(amount...\n      MLOAD \t\t\tficiary.wallet.transfer(amount...\n      DUP1 \t\t\tficiary.wallet.transfer(amount...\n      DUP4 \t\t\tficiary.wallet.transfer(amount...\n      SUB \t\t\tficiary.wallet.transfer(amount...\n      DUP2 \t\t\tficiary.wallet.transfer(amount...\n      DUP6 \t\t\tficiary.wallet.transfer(amount...\n      DUP9 \t\t\tficiary.wallet.transfer(amount...\n      DUP9 \t\t\tficiary.wallet.transfer(amount...\n      CALL \t\t\tficiary.wallet.transfer(amount...\n      SWAP4 \t\t\tficiary.wallet.transfer(amount...\n      POP \t\t\tficiary.wallet.transfer(amount...\n      POP \t\t\tficiary.wallet.transfer(amount...\n      POP \t\t\tficiary.wallet.transfer(amount...\n      POP \t\t\tficiary.wallet.transfer(amount...\n      ISZERO \t\t\tficiary.wallet.transfer(amount...\n      DUP1 \t\t\tficiary.wallet.transfer(amount...\n      ISZERO \t\t\tficiary.wallet.transfer(amount...\n      PUSH [tag] 129\t\t\tficiary.wallet.transfer(amount...\n      JUMPI \t\t\tficiary.wallet.transfer(amount...\n      RETURNDATASIZE \t\t\tficiary.wallet.transfer(amount...\n      PUSH 0\t\t\tficiary.wallet.transfer(amount...\n      DUP1 \t\t\tficiary.wallet.transfer(amount...\n      RETURNDATACOPY \t\t\tficiary.wallet.transfer(amount...\n      RETURNDATASIZE \t\t\tficiary.wallet.transfer(amount...\n      PUSH 0\t\t\tficiary.wallet.transfer(amount...\n      REVERT \t\t\tficiary.wallet.transfer(amount...\n    tag 129\t\t\tficiary.wallet.transfer(amount...\n      JUMPDEST \t\t\tficiary.wallet.transfer(amount...\n      POP \t\t\tficiary.wallet.transfer(amount...\n      DUP2 \t\t\tficiary.wal\n      PUSH 0\t\t\tficiary.wallet, am\n      ADD \t\t\tficiary.wallet, am\n      PUSH 0\t\t\tficiary.wallet, am\n      SWAP1 \t\t\tficiary.wallet, am\n      SLOAD \t\t\tficiary.wallet, am\n      SWAP1 \t\t\tficiary.wallet, am\n      PUSH 100\t\t\tficiary.wallet, am\n      EXP \t\t\tficiary.wallet, am\n      SWAP1 \t\t\tficiary.wallet, am\n      DIV \t\t\tficiary.wallet, am\n      PUSH FFFFFFFFFFFFFFFFFFFFFFFFFFFFFFFFFFFFFFFF\t\t\tficiary.wallet, am\n      AND \t\t\tficiary.wallet, am\n      PUSH FFFFFFFFFFFFFFFFFFFFFFFFFFFFFFFFFFFFFFFF\t\t\tsDisbursed(beneficiary.wallet,...\n      AND \t\t\tsDisbursed(beneficiary.wallet,...\n      PUSH CEB720B06C310EDC215BEE81670832BB918BA1199F401716364414DDB9B816A7\t\t\tsDisbursed(beneficiary.wallet,...\n      DUP3 \t\t\tnt, be\n      DUP5 \t\t\tficiary.sal\n      PUSH 2\t\t\tficiary.saleDeedIpfsHash, be\n      ADD \t\t\tficiary.saleDeedIpfsHash, be\n      DUP6 \t\t\tficiary.ema\n      PUSH 3\t\t\tficiary.email);\\n \n      ADD \t\t\tficiary.email);\\n \n      PUSH 40\t\t\tsDisbursed(beneficiary.wallet,...\n      MLOAD \t\t\tsDisbursed(beneficiary.wallet,...\n      PUSH [tag] 130\t\t\tsDisbursed(beneficiary.wallet,...\n      SWAP4 \t\t\tsDisbursed(beneficiary.wallet,...\n      SWAP3 \t\t\tsDisbursed(beneficiary.wallet,...\n      SWAP2 \t\t\tsDisbursed(beneficiary.wallet,...\n      SWAP1 \t\t\tsDisbursed(beneficiary.wallet,...\n      PUSH [tag] 131\t\t\tsDisbursed(beneficiary.wallet,...\n      JUMP \t\t\tsDisbursed(beneficiary.wallet,...\n    tag 130\t\t\tsDisbursed(beneficiary.wallet,...\n      JUMPDEST \t\t\tsDisbursed(beneficiary.wallet,...\n      PUSH 40\t\t\tsDisbursed(beneficiary.wallet,...\n      MLOAD \t\t\tsDisbursed(beneficiary.wallet,...\n      DUP1 \t\t\tsDisbursed(beneficiary.wallet,...\n      SWAP2 \t\t\tsDisbursed(beneficiary.wallet,...\n      SUB \t\t\tsDisbursed(beneficiary.wallet,...\n      SWAP1 \t\t\tsDisbursed(beneficiary.wallet,...\n      LOG2 \t\t\tsDisbursed(beneficiary.wallet,...\n      POP \t\t\t          Beneficiary storage ...\n      POP \t\t\t          Beneficiary storage ...\n      DUP1 \t\t\t {\\n\n      DUP1 \t\t\t {\\n\n      PUSH 1\t\t\t {\\n\n      ADD \t\t\t {\\n\n      SWAP2 \t\t\t {\\n\n      POP \t\t\t {\\n\n      POP \t\t\t {\\n\n      PUSH [tag] 118\t\t\t(uint i = 0; i < wills[user].b...\n      JUMP \t\t\t(uint i = 0; i < wills[user].b...\n    tag 119\t\t\t(uint i = 0; i < wills[user].b...\n      JUMPDEST \t\t\t(uint i = 0; i < wills[user].b...\n      POP \t\t\t(uint i = 0; i < wills[user].b...\n      PUSH 0\t\t\t \n      DUP1 \t\t\ts[use\n      PUSH 0\t\t\ts[user].tot\n      DUP5 \t\t\t].to\n      PUSH FFFFFFFFFFFFFFFFFFFFFFFFFFFFFFFFFFFFFFFF\t\t\ts[user].tot\n      AND \t\t\ts[user].tot\n      PUSH FFFFFFFFFFFFFFFFFFFFFFFFFFFFFFFFFFFFFFFF\t\t\ts[user].tot\n      AND \t\t\ts[user].tot\n      DUP2 \t\t\ts[user].tot\n      MSTORE \t\t\ts[user].tot\n      PUSH 20\t\t\ts[user].tot\n      ADD \t\t\ts[user].tot\n      SWAP1 \t\t\ts[user].tot\n      DUP2 \t\t\ts[user].tot\n      MSTORE \t\t\ts[user].tot\n      PUSH 20\t\t\ts[user].tot\n      ADD \t\t\ts[user].tot\n      PUSH 0\t\t\ts[user].tot\n      KECCAK256 \t\t\ts[user].tot\n      PUSH 3\t\t\ts[user].totalLocked = 0\n      ADD \t\t\ts[user].totalLocked = 0\n      DUP2 \t\t\ts[user].totalLocked = 0;\\n  \n      SWAP1 \t\t\ts[user].totalLocked = 0;\\n  \n      SSTORE \t\t\ts[user].totalLocked = 0;\\n  \n      POP \t\t\ts[user].totalLocked = 0;\\n  \n      DUP2 \t\t\t);\\n \n      PUSH FFFFFFFFFFFFFFFFFFFFFFFFFFFFFFFFFFFFFFFF\t\t\tExecuted(user);\\n  \n      AND \t\t\tExecuted(user);\\n  \n      PUSH 16346F65ADF8D84422B57AD74CB5607BF6C9E55C3C1FEA66344057E5BBA8A7EE\t\t\tExecuted(user);\\n  \n      PUSH 40\t\t\tExecuted(user);\\n  \n      MLOAD \t\t\tExecuted(user);\\n  \n      PUSH 40\t\t\tExecuted(user);\\n  \n      MLOAD \t\t\tExecuted(user);\\n  \n      DUP1 \t\t\tExecuted(user);\\n  \n      SWAP2 \t\t\tExecuted(user);\\n  \n      SUB \t\t\tExecuted(user);\\n  \n      SWAP1 \t\t\tExecuted(user);\\n  \n      LOG2 \t\t\tExecuted(user);\\n  \n      POP \t\t\t      require(hasWill[user], \"...\n      POP \t\t\ttion executeWill(address user)...\n      JUMP \t\t\ttion executeWill(address user)...\n    tag 132\t\t\t-License-Identifier: MIT\\nprag...\n      JUMPDEST \t\t\t-License-Identifier: MIT\\nprag...\n      PUSH 0\t\t\tolidit\n      PUSH 40\t\t\til\n      MLOAD \t\t\tMultiWill\n      SWAP1 \t\t\t\\ncontract MultiWill\n      POP \t\t\t\\ncontract MultiWill\n      SWAP1 \t\t\t-License-Identifier: MIT\\nprag...\n      JUMP \t\t\t-License-Identifier: MIT\\nprag...\n    tag 133\t\t\t   struct Beneficiary {\\n     ...\n      JUMPDEST \t\t\t   struct Beneficiary {\\n     ...\n      PUSH 0\t\t\tf\n      DUP1 \t\t\td\n      REVERT \t\t\tsaleDeedIpfs\n    tag 134\t\t\t  string email;\\n    }\\n\\n    ...\n      JUMPDEST \t\t\t  string email;\\n    }\\n\\n    ...\n      PUSH 0\t\t\ta\n      DUP1 \t\t\tg\n      REVERT \t\t\t  string las\n    tag 135\t\t\t   uint256 totalLocked;\\n     ...\n      JUMPDEST \t\t\t   uint256 totalLocked;\\n     ...\n      PUSH 0\t\t\t56 last\n      PUSH FFFFFFFFFFFFFFFFFFFFFFFFFFFFFFFFFFFFFFFF\t\t\tfLifeInterval;\\n        bool i...\n      DUP3 \t\t\t proo\n      AND \t\t\tt256 proofOfLifeInterval;\\n   ...\n      SWAP1 \t\t\t        uint256 proofOfLifeInt...\n      POP \t\t\t        uint256 proofOfLifeInt...\n      SWAP2 \t\t\t   uint256 totalLocked;\\n     ...\n      SWAP1 \t\t\t   uint256 totalLocked;\\n     ...\n      POP \t\t\t   uint256 totalLocked;\\n     ...\n      JUMP \t\t\t   uint256 totalLocked;\\n     ...\n    tag 136\t\t\ttransactionHash; // ✅ Store ac...\n      JUMPDEST \t\t\ttransactionHash; // ✅ Store ac...\n      PUSH 0\t\t\tansacti\n      PUSH [tag] 213\t\t\tciary[] beneficiaries;\\n \n      DUP3 \t\t\ties;\\n\n      PUSH [tag] 135\t\t\tciary[] beneficiaries;\\n \n      JUMP \t\t\tciary[] beneficiaries;\\n \n    tag 213\t\t\tciary[] beneficiaries;\\n \n      JUMPDEST \t\t\tciary[] beneficiaries;\\n \n      SWAP1 \t\t\t     Beneficiary[] beneficiari...\n      POP \t\t\t     Beneficiary[] beneficiari...\n      SWAP2 \t\t\ttransactionHash; // ✅ Store ac...\n      SWAP1 \t\t\ttransactionHash; // ✅ Store ac...\n      POP \t\t\ttransactionHash; // ✅ Store ac...\n      JUMP \t\t\ttransactionHash; // ✅ Store ac...\n    tag 137\t\t\tpping(address => Will) private...\n      JUMPDEST \t\t\tpping(address => Will) private...\n      PUSH [tag] 215\t\t\t hasWill;\\n\\n    event Wil\n      DUP2 \t\t\tnt Wi\n      PUSH [tag] 136\t\t\t hasWill;\\n\\n    event Wil\n      JUMP \t\t\t hasWill;\\n\\n    event Wil\n    tag 215\t\t\t hasWill;\\n\\n    event Wil\n      JUMPDEST \t\t\t hasWill;\\n\\n    event Wil\n      DUP2 \t\t\t publ\n      EQ \t\t\tol) public hasWill;\\n\\n    eve...\n      PUSH [tag] 216\t\t\tress => bool) public hasWill;\\...\n      JUMPI \t\t\tress => bool) public hasWill;\\...\n      PUSH 0\t\t\ts\n      DUP1 \t\t\tr\n      REVERT \t\t\tted(address \n    tag 216\t\t\tress => bool) public hasWill;\\...\n      JUMPDEST \t\t\tress => bool) public hasWill;\\...\n      POP \t\t\tpping(address => Will) private...\n      JUMP \t\t\tpping(address => Will) private...\n    tag 138\t\t\tor, uint256 lockedFunds, strin...\n      JUMPDEST \t\t\tor, uint256 lockedFunds, strin...\n      PUSH 0\t\t\th);\\n \n      DUP2 \t\t\t index\n      CALLDATALOAD \t\t\tAdded(address indexe\n      SWAP1 \t\t\tneficiaryAdded(address indexe\n      POP \t\t\tneficiaryAdded(address indexe\n      PUSH [tag] 218\t\t\tr, address beneficiary, uint25...\n      DUP2 \t\t\tt256 \n      PUSH [tag] 137\t\t\tr, address beneficiary, uint25...\n      JUMP \t\t\tr, address beneficiary, uint25...\n    tag 218\t\t\tr, address beneficiary, uint25...\n      JUMPDEST \t\t\tr, address beneficiary, uint25...\n      SWAP3 \t\t\tor, uint256 lockedFunds, strin...\n      SWAP2 \t\t\tor, uint256 lockedFunds, strin...\n      POP \t\t\tor, uint256 lockedFunds, strin...\n      POP \t\t\tor, uint256 lockedFunds, strin...\n      JUMP \t\t\tor, uint256 lockedFunds, strin...\n    tag 13\t\t\t    event WillExecuted(address...\n      JUMPDEST \t\t\t    event WillExecuted(address...\n      PUSH 0\t\t\t Funds\n      PUSH 20\t\t\t25\n      DUP3 \t\t\ticiary, u\n      DUP5 \t\t\txed ben\n      SUB \t\t\tindexed beneficiary, ui\n      SLT \t\t\tess indexed beneficiary, uint2...\n      ISZERO \t\t\tddress indexed beneficiary, ui...\n      PUSH [tag] 220\t\t\tddress indexed beneficiary, ui...\n      JUMPI \t\t\tddress indexed beneficiary, ui...\n      PUSH [tag] 221\t\t\tount, string saleDeedIpfsHash,...\n      PUSH [tag] 133\t\t\tount, string saleDeedIpfsHash,...\n      JUMP \t\t\tount, string saleDeedIpfsHash,...\n    tag 221\t\t\tount, string saleDeedIpfsHash,...\n      JUMPDEST \t\t\tount, string saleDeedIpfsHash,...\n    tag 220\t\t\tddress indexed beneficiary, ui...\n      JUMPDEST \t\t\tddress indexed beneficiary, ui...\n      PUSH 0\t\t\ts\n      PUSH [tag] 222\t\t\ttestator.\\n     * @param _last...\n      DUP5 \t\t\tf the t\n      DUP3 \t\t\tst nam\n      DUP6 \t\t\tlastName \n      ADD \t\t\tam _lastName Last name\n      PUSH [tag] 138\t\t\ttestator.\\n     * @param _last...\n      JUMP \t\t\ttestator.\\n     * @param _last...\n    tag 222\t\t\ttestator.\\n     * @param _last...\n      JUMPDEST \t\t\ttestator.\\n     * @param _last...\n      SWAP2 \t\t\tme of the testator.\\n     * @p...\n      POP \t\t\tme of the testator.\\n     * @p...\n      POP \t\t\the sender.\\n     * @param _fir...\n      SWAP3 \t\t\t    event WillExecuted(address...\n      SWAP2 \t\t\t    event WillExecuted(address...\n      POP \t\t\t    event WillExecuted(address...\n      POP \t\t\t    event WillExecuted(address...\n      JUMP \t\t\t    event WillExecuted(address...\n    tag 139\t\t\ttxnHash Transaction hash passe...\n      JUMPDEST \t\t\ttxnHash Transaction hash passe...\n      PUSH 0\t\t\t    */\n      DUP2 \t\t\t     \n      MLOAD \t\t\tll(\\n        \n      SWAP1 \t\t\tn createWill(\\n        \n      POP \t\t\tn createWill(\\n        \n      SWAP2 \t\t\ttxnHash Transaction hash passe...\n      SWAP1 \t\t\ttxnHash Transaction hash passe...\n      POP \t\t\ttxnHash Transaction hash passe...\n      JUMP \t\t\ttxnHash Transaction hash passe...\n    tag 140\t\t\t _firstName,\\n        string m...\n      JUMPDEST \t\t\t _firstName,\\n        string m...\n      PUSH 0\t\t\tublic payab\n      DUP3 \t\t\tasWill\n      DUP3 \t\t\tre(\n      MSTORE \t\t\t  require(!hasWill[\n      PUSH 20\t\t\twill\n      DUP3 \t\t\tve \n      ADD \t\t\ty have a will!\n      SWAP1 \t\t\tr], \"You already have a will!\n      POP \t\t\tr], \"You already have a will!\n      SWAP3 \t\t\t _firstName,\\n        string m...\n      SWAP2 \t\t\t _firstName,\\n        string m...\n      POP \t\t\t _firstName,\\n        string m...\n      POP \t\t\t _firstName,\\n        string m...\n      JUMP \t\t\t _firstName,\\n        string m...\n    tag 141\t\t\trequire(msg.value > 0, \"Must l...\n      JUMPDEST \t\t\trequire(msg.value > 0, \"Must l...\n      DUP3 \t\t\tg.send\n      DUP2 \t\t\tls[\n      DUP4 \t\t\t  w\n      MCOPY \t\t\t        wills[msg.sende\n      PUSH 0\t\t\tw\n      DUP4 \t\t\t\\n     \n      DUP4 \t\t\tnde\n      ADD \t\t\tg.sender;\\n      \n      MSTORE \t\t\tor = msg.sender;\\n        wi\n      POP \t\t\trequire(msg.value > 0, \"Must l...\n      POP \t\t\trequire(msg.value > 0, \"Must l...\n      POP \t\t\trequire(msg.value > 0, \"Must l...\n      JUMP \t\t\trequire(msg.value > 0, \"Must l...\n    tag 142\t\t\tr].firstName = _firstName;\\n  ...\n      JUMPDEST \t\t\tr].firstName = _firstName;\\n  ...\n      PUSH 0\t\t\tmsg.se\n      PUSH 1F\t\t\t.s\n      NOT \t\t\t[msg.se\n      PUSH 1F\t\t\twi\n      DUP4 \t\t\t     \n      ADD \t\t\te;\\n        wil\n      AND \t\t\ttName;\\n        wills[msg.sen\n      SWAP1 \t\t\tame = _lastName;\\n        will...\n      POP \t\t\tame = _lastName;\\n        will...\n      SWAP2 \t\t\tr].firstName = _firstName;\\n  ...\n      SWAP1 \t\t\tr].firstName = _firstName;\\n  ...\n      POP \t\t\tr].firstName = _firstName;\\n  ...\n      JUMP \t\t\tr].firstName = _firstName;\\n  ...\n    tag 143\t\t\tcked = msg.value;\\n        wil...\n      JUMPDEST \t\t\tcked = msg.value;\\n        wil...\n      PUSH 0\t\t\tls[\n      PUSH [tag] 228\t\t\tterval = 365 days;\\n        wi...\n      DUP3 \t\t\tmsg.s\n      PUSH [tag] 139\t\t\tterval = 365 days;\\n        wi...\n      JUMP \t\t\tterval = 365 days;\\n        wi...\n    tag 228\t\t\tterval = 365 days;\\n        wi...\n      JUMPDEST \t\t\tterval = 365 days;\\n        wi...\n      PUSH [tag] 229\t\t\t = false;\\n        wills[msg.s...\n      DUP2 \t\t\t// ✅ S\n      DUP6 \t\t\tash\n      PUSH [tag] 140\t\t\t = false;\\n        wills[msg.s...\n      JUMP \t\t\t = false;\\n        wills[msg.s...\n    tag 229\t\t\t = false;\\n        wills[msg.s...\n      JUMPDEST \t\t\t = false;\\n        wills[msg.s...\n      SWAP4 \t\t\teceased = false;\\n        will...\n      POP \t\t\teceased = false;\\n        will...\n      PUSH [tag] 230\t\t\tl transaction hash\\n\\n        ...\n      DUP2 \t\t\t      \n      DUP6 \t\t\te;\\n\n      PUSH 20\t\t\t] = \n      DUP7 \t\t\t.send\n      ADD \t\t\t[msg.sender] = t\n      PUSH [tag] 141\t\t\tl transaction hash\\n\\n        ...\n      JUMP \t\t\tl transaction hash\\n\\n        ...\n    tag 230\t\t\tl transaction hash\\n\\n        ...\n      JUMPDEST \t\t\tl transaction hash\\n\\n        ...\n      PUSH [tag] 231\t\t\ter, msg.value, _txnHash);\\n   \n      DUP2 \t\t\th);\\n  \n      PUSH [tag] 142\t\t\ter, msg.value, _txnHash);\\n   \n      JUMP \t\t\ter, msg.value, _txnHash);\\n   \n    tag 231\t\t\ter, msg.value, _txnHash);\\n   \n      JUMPDEST \t\t\ter, msg.value, _txnHash);\\n   \n      DUP5 \t\t\t.se\n      ADD \t\t\t(msg.sender, msg.value, _txnHa...\n      SWAP2 \t\t\tCreated(msg.sender, msg.value,...\n      POP \t\t\tCreated(msg.sender, msg.value,...\n      POP \t\t\tsg.sender].proofOfLifeInterval...\n      SWAP3 \t\t\tcked = msg.value;\\n        wil...\n      SWAP2 \t\t\tcked = msg.value;\\n        wil...\n      POP \t\t\tcked = msg.value;\\n        wil...\n      POP \t\t\tcked = msg.value;\\n        wil...\n      JUMP \t\t\tcked = msg.value;\\n        wil...\n    tag 16\t\t\t    * @dev Adds a beneficiary ...\n      JUMPDEST \t\t\t    * @dev Adds a beneficiary ...\n      PUSH 0\t\t\tam _\n      PUSH 20\t\t\tca\n      DUP3 \t\t\t to be al\n      ADD \t\t\t ETH to be allocat\n      SWAP1 \t\t\tShare of ETH to be allocat\n      POP \t\t\tShare of ETH to be allocat\n      DUP2 \t\t\tof the sa\n      DUP2 \t\t\t has\n      SUB \t\t\tIPFS hash of the sal\n      PUSH 0\t\t\ta\n      DUP4 \t\t\tleDeedIpf\n      ADD \t\t\t _saleDeedIpfsHas\n      MSTORE \t\t\t @param _saleDeedIpfsHash IPFS...\n      PUSH [tag] 233\t\t\tsigned to the beneficiary.\\n  ...\n      DUP2 \t\t\t\\n   \n      DUP5 \t\t\teficia\n      PUSH [tag] 143\t\t\tsigned to the beneficiary.\\n  ...\n      JUMP \t\t\tsigned to the beneficiary.\\n  ...\n    tag 233\t\t\tsigned to the beneficiary.\\n  ...\n      JUMPDEST \t\t\tsigned to the beneficiary.\\n  ...\n      SWAP1 \t\t\tument assigned to the benefici...\n      POP \t\t\tument assigned to the benefici...\n      SWAP3 \t\t\t    * @dev Adds a beneficiary ...\n      SWAP2 \t\t\t    * @dev Adds a beneficiary ...\n      POP \t\t\t    * @dev Adds a beneficiary ...\n      POP \t\t\t    * @dev Adds a beneficiary ...\n      JUMP \t\t\t    * @dev Adds a beneficiary ...\n    tag 144\t\t\tion addBeneficiary(\\n        a...\n      JUMPDEST \t\t\tion addBeneficiary(\\n        a...\n      PUSH 0\t\t\tD\n      DUP1 \t\t\ta\n      REVERT \t\t\tmory _saleDe\n    tag 145\t\t\t        string memory _email\\n...\n      JUMPDEST \t\t\t        string memory _email\\n...\n      PUSH 0\t\t\ti\n      DUP1 \t\t\tl\n      REVERT \t\t\te a will fir\n    tag 146\t\t\t  require(_wallet != address(0...\n      JUMPDEST \t\t\t  require(_wallet != address(0...\n      PUSH 4E487B7100000000000000000000000000000000000000000000000000000000\t\t\t address\");\\n        require(_...\n      PUSH 0\t\t\tl\n      MSTORE \t\t\tlid wallet address\");\\n       ...\n      PUSH 41\t\t\t  ui\n      PUSH 4\t\t\t \n      MSTORE \t\t\t);\\n\\n        uin\n      PUSH 24\t\t\te = \n      PUSH 0\t\t\tt\n      REVERT \t\t\tlPercentage = 0\n    tag 147\t\t\tr (uint i = 0; i < wills[msg.s...\n      JUMPDEST \t\t\tr (uint i = 0; i < wills[msg.s...\n      PUSH [tag] 238\t\t\tPercentage += wills[msg.sen\n      DUP3 \t\t\tg.se\n      PUSH [tag] 142\t\t\tPercentage += wills[msg.sen\n      JUMP \t\t\tPercentage += wills[msg.sen\n    tag 238\t\t\tPercentage += wills[msg.sen\n      JUMPDEST \t\t\tPercentage += wills[msg.sen\n      DUP2 \t\t\t   tot\n      ADD \t\t\t       totalPercentage += will...\n      DUP2 \t\t\tl allo\n      DUP2 \t\t\t= 100, \"To\n      LT \t\t\te <= 100, \"Total alloc\n      PUSH FFFFFFFFFFFFFFFF\t\t\trcentage + _percen\n      DUP3 \t\t\tuire(total\n      GT \t\t\trequire(totalPercentage + _per...\n      OR \t\t\t   require(totalPercentage + _...\n      ISZERO \t\t\t      require(totalPercentage ...\n      PUSH [tag] 239\t\t\t      require(totalPercentage ...\n      JUMPI \t\t\t      require(totalPercentage ...\n      PUSH [tag] 240\t\t\tn exceeds 100%\");\\n\n      PUSH [tag] 146\t\t\tn exceeds 100%\");\\n\n      JUMP \t\t\tn exceeds 100%\");\\n\n    tag 240\t\t\tn exceeds 100%\");\\n\n      JUMPDEST \t\t\tn exceeds 100%\");\\n\n    tag 239\t\t\t      require(totalPercentage ...\n      JUMPDEST \t\t\t      require(totalPercentage ...\n      DUP1 \t\t\tder].benef\n      PUSH 40\t\t\t.s\n      MSTORE \t\t\tlls[msg.sender].benefi\n      POP \t\t\tciaries.length; i++) {\\n      ...\n      POP \t\t\tr (uint i = 0; i < wills[msg.s...\n      POP \t\t\tr (uint i = 0; i < wills[msg.s...\n      JUMP \t\t\tr (uint i = 0; i < wills[msg.s...\n    tag 148\t\t\t(\\n            Beneficiary(_wa...\n      JUMPDEST \t\t\t(\\n            Beneficiary(_wa...\n      PUSH 0\t\t\t _perc\n      PUSH [tag] 242\t\t\tHash, _email)\\n      \n      PUSH [tag] 132\t\t\tHash, _email)\\n      \n      JUMP \t\t\tHash, _email)\\n      \n    tag 242\t\t\tHash, _email)\\n      \n      JUMPDEST \t\t\tHash, _email)\\n      \n      SWAP1 \t\t\tleDeedIpfsHash, _email)\\n     ...\n      POP \t\t\tleDeedIpfsHash, _email)\\n     ...\n      PUSH [tag] 243\t\t\t     emit BeneficiaryAdded(msg...\n      DUP3 \t\t\tsg.s\n      DUP3 \t\t\tyAdded\n      PUSH [tag] 147\t\t\t     emit BeneficiaryAdded(msg...\n      JUMP \t\t\t     emit BeneficiaryAdded(msg...\n    tag 243\t\t\t     emit BeneficiaryAdded(msg...\n      JUMPDEST \t\t\t     emit BeneficiaryAdded(msg...\n      SWAP2 \t\t\t(\\n            Beneficiary(_wa...\n      SWAP1 \t\t\t(\\n            Beneficiary(_wa...\n      POP \t\t\t(\\n            Beneficiary(_wa...\n      JUMP \t\t\t(\\n            Beneficiary(_wa...\n    tag 149\t\t\tt, _percentage);\\n    }\\n\\n   ...\n      JUMPDEST \t\t\tt, _percentage);\\n    }\\n\\n   ...\n      PUSH 0\t\t\ttor \n      PUSH FFFFFFFFFFFFFFFF\t\t\tder], \"You have no\n      DUP3 \t\t\t[msg.s\n      GT \t\t\till[msg.sender], \"You have not\n      ISZERO \t\t\tasWill[msg.sender], \"You have ...\n      PUSH [tag] 245\t\t\tasWill[msg.sender], \"You have ...\n      JUMPI \t\t\tasWill[msg.sender], \"You have ...\n      PUSH [tag] 246\t\t\teated a will\");\\n  \n      PUSH [tag] 146\t\t\teated a will\");\\n  \n      JUMP \t\t\teated a will\");\\n  \n    tag 246\t\t\teated a will\");\\n  \n      JUMPDEST \t\t\teated a will\");\\n  \n    tag 245\t\t\tasWill[msg.sender], \"You have ...\n      JUMPDEST \t\t\tasWill[msg.sender], \"You have ...\n      PUSH [tag] 247\t\t\t[msg.sender].isDeceased, \"Wil\n      DUP3 \t\t\td, \"Wi\n      PUSH [tag] 142\t\t\t[msg.sender].isDeceased, \"Wil\n      JUMP \t\t\t[msg.sender].isDeceased, \"Wil\n    tag 247\t\t\t[msg.sender].isDeceased, \"Wil\n      JUMPDEST \t\t\t[msg.sender].isDeceased, \"Wil\n      SWAP1 \t\t\te(!wills[msg.sender].isDecease...\n      POP \t\t\te(!wills[msg.sender].isDecease...\n      PUSH 20\t\t\tlive\n      DUP2 \t\t\t.las\n      ADD \t\t\tder].lastAliveT\n      SWAP1 \t\t\t[msg.sender].lastAliveT\n      POP \t\t\t[msg.sender].lastAliveT\n      SWAP2 \t\t\tt, _percentage);\\n    }\\n\\n   ...\n      SWAP1 \t\t\tt, _percentage);\\n    }\\n\\n   ...\n      POP \t\t\tt, _percentage);\\n    }\\n\\n   ...\n      JUMP \t\t\tt, _percentage);\\n    }\\n\\n   ...\n    tag 150\t\t\timestamp;\\n    }\\n\\n    /**\\n ...\n      JUMPDEST \t\t\timestamp;\\n    }\\n\\n    /**\\n ...\n      DUP3 \t\t\tries.\\n\n      DUP2 \t\t\tfic\n      DUP4 \t\t\t be\n      CALLDATACOPY \t\t\tand notifying beneficiaries.\\n...\n      PUSH 0\t\t\td\n      DUP4 \t\t\tteWill\n      DUP4 \t\t\texe\n      ADD \t\t\tion executeWill(\n      MSTORE \t\t\t  function executeWill(addr\n      POP \t\t\timestamp;\\n    }\\n\\n    /**\\n ...\n      POP \t\t\timestamp;\\n    }\\n\\n    /**\\n ...\n      POP \t\t\timestamp;\\n    }\\n\\n    /**\\n ...\n      JUMP \t\t\timestamp;\\n    }\\n\\n    /**\\n ...\n    tag 151\t\t\tlic {\\n        require(hasWill...\n      JUMPDEST \t\t\tlic {\\n        require(hasWill...\n      PUSH 0\t\t\ttimes\n      PUSH [tag] 250\t\t\tastAliveTime + wills[user].pro...\n      PUSH [tag] 251\t\t\tills[user].proofOfLifeInterval...\n      DUP5 \t\t\tstill \n      PUSH [tag] 149\t\t\tills[user].proofOfLifeInterval...\n      JUMP \t\t\tills[user].proofOfLifeInterval...\n    tag 251\t\t\tills[user].proofOfLifeInterval...\n      JUMPDEST \t\t\tills[user].proofOfLifeInterval...\n      PUSH [tag] 148\t\t\tastAliveTime + wills[user].pro...\n      JUMP \t\t\tastAliveTime + wills[user].pro...\n    tag 250\t\t\tastAliveTime + wills[user].pro...\n      JUMPDEST \t\t\tastAliveTime + wills[user].pro...\n      SWAP1 \t\t\ts[user].lastAliveTime + wills[...\n      POP \t\t\ts[user].lastAliveTime + wills[...\n      DUP3 \t\t\t(!will\n      DUP2 \t\t\trequi\n      MSTORE \t\t\t       require(!wills\n      PUSH 20\t\t\ty ex\n      DUP2 \t\t\t alre\n      ADD \t\t\tWill already exe\n      DUP5 \t\t\tDec\n      DUP5 \t\t\t[user]\n      DUP5 \t\t\twil\n      ADD \t\t\t    wills[user].\n      GT \t\t\t       wills[user].isDece\n      ISZERO \t\t\t\\n\\n        wills[user].isDece...\n      PUSH [tag] 252\t\t\t\\n\\n        wills[user].isDece...\n      JUMPI \t\t\t\\n\\n        wills[user].isDece...\n      PUSH [tag] 253\t\t\td = true;\\n\\n        uint256 t...\n      PUSH [tag] 145\t\t\td = true;\\n\\n        uint256 t...\n      JUMP \t\t\td = true;\\n\\n        uint256 t...\n    tag 253\t\t\td = true;\\n\\n        uint256 t...\n      JUMPDEST \t\t\td = true;\\n\\n        uint256 t...\n    tag 252\t\t\t\\n\\n        wills[user].isDece...\n      JUMPDEST \t\t\t\\n\\n        wills[user].isDece...\n      PUSH [tag] 254\t\t\tked > 0, \"No ETH to distribute...\n      DUP5 \t\t\t(uint \n      DUP3 \t\t\t fo\n      DUP6 \t\t\t   \n      PUSH [tag] 150\t\t\tked > 0, \"No ETH to distribute...\n      JUMP \t\t\tked > 0, \"No ETH to distribute...\n    tag 254\t\t\tked > 0, \"No ETH to distribute...\n      JUMPDEST \t\t\tked > 0, \"No ETH to distribute...\n      POP \t\t\tamp > wills[user].lastAliveTim...\n      SWAP4 \t\t\tlic {\\n        require(hasWill...\n      SWAP3 \t\t\tlic {\\n        require(hasWill...\n      POP \t\t\tlic {\\n        require(hasWill...\n      POP \t\t\tlic {\\n        require(hasWill...\n      POP \t\t\tlic {\\n        require(hasWill...\n      JUMP \t\t\tlic {\\n        require(hasWill...\n    tag 152\t\t\tficiaries.length; i++) {\\n    ...\n      JUMPDEST \t\t\tficiaries.length; i++) {\\n    ...\n      PUSH 0\t\t\t bene\n      DUP3 \t\t\t   \n      PUSH 1F\t\t\t];\\n\\n\n      DUP4 \t\t\tiaries\n      ADD \t\t\teficiaries[i];\\n\\n \n      SLT \t\t\t.beneficiaries[i];\\n\\n       \n      PUSH [tag] 256\t\t\tills[user].beneficiaries[i];\\n...\n      JUMPI \t\t\tills[user].beneficiaries[i];\\n...\n      PUSH [tag] 257\t\t\t uint256 amount = (totalLocked...\n      PUSH [tag] 144\t\t\t uint256 amount = (totalLocked...\n      JUMP \t\t\t uint256 amount = (totalLocked...\n    tag 257\t\t\t uint256 amount = (totalLocked...\n      JUMPDEST \t\t\t uint256 amount = (totalLocked...\n    tag 256\t\t\tills[user].beneficiaries[i];\\n...\n      JUMPDEST \t\t\tills[user].beneficiaries[i];\\n...\n      DUP2 \t\t\t      \n      CALLDATALOAD \t\t\tamount);\\n\\n          \n      PUSH [tag] 258\t\t\tsed(beneficiary.wallet, amount...\n      DUP5 \t\t\tmai\n      DUP3 \t\t\ticiary\n      PUSH 20\t\t\t, be\n      DUP7 \t\t\tIpfsHa\n      ADD \t\t\tDeedIpfsHash, ben\n      PUSH [tag] 151\t\t\tsed(beneficiary.wallet, amount...\n      JUMP \t\t\tsed(beneficiary.wallet, amount...\n    tag 258\t\t\tsed(beneficiary.wallet, amount...\n      JUMPDEST \t\t\tsed(beneficiary.wallet, amount...\n      SWAP2 \t\t\tndsDisbursed(beneficiary.walle...\n      POP \t\t\tndsDisbursed(beneficiary.walle...\n      POP \t\t\ticiary = wills[user].beneficia...\n      SWAP3 \t\t\tficiaries.length; i++) {\\n    ...\n      SWAP2 \t\t\tficiaries.length; i++) {\\n    ...\n      POP \t\t\tficiaries.length; i++) {\\n    ...\n      POP \t\t\tficiaries.length; i++) {\\n    ...\n      JUMP \t\t\tficiaries.length; i++) {\\n    ...\n    tag 19\t\t\t\\n\\n        wills[user].totalL...\n      JUMPDEST \t\t\t\\n\\n        wills[user].totalL...\n      PUSH 0\t\t\ts the \n      DUP1 \t\t\tansact\n      PUSH 0\t\t\tn hash\n      PUSH 60\t\t\tWi\n      DUP5 \t\t\tfunction \n      DUP7 \t\t\t  */\\n  \n      SUB \t\t\t\\n     */\\n    function g\n      SLT \t\t\till.\\n     */\\n    function ge...\n      ISZERO \t\t\ts will.\\n     */\\n    function...\n      PUSH [tag] 260\t\t\ts will.\\n     */\\n    function...\n      JUMPI \t\t\ts will.\\n     */\\n    function...\n      PUSH [tag] 261\t\t\tansactionHash(address user) pu...\n      PUSH [tag] 133\t\t\tansactionHash(address user) pu...\n      JUMP \t\t\tansactionHash(address user) pu...\n    tag 261\t\t\tansactionHash(address user) pu...\n      JUMPDEST \t\t\tansactionHash(address user) pu...\n    tag 260\t\t\ts will.\\n     */\\n    function...\n      JUMPDEST \t\t\ts will.\\n     */\\n    function...\n      PUSH 0\t\t\ta\n      DUP5 \t\t\tuser].tra\n      ADD \t\t\tlls[user].transac\n      CALLDATALOAD \t\t\t    return wills[user].transac...\n      PUSH FFFFFFFFFFFFFFFF\t\t\t  * @dev Checks if\n      DUP2 \t\t\t /**\\n \n      GT \t\t\t    /**\\n     * @dev Checks if...\n      ISZERO \t\t\t}\\n\\n    /**\\n     * @dev Chec...\n      PUSH [tag] 262\t\t\t}\\n\\n    /**\\n     * @dev Chec...\n      JUMPI \t\t\t}\\n\\n    /**\\n     * @dev Chec...\n      PUSH [tag] 263\t\t\t will has already been execute...\n      PUSH [tag] 134\t\t\t will has already been execute...\n      JUMP \t\t\t will has already been execute...\n    tag 263\t\t\t will has already been execute...\n      JUMPDEST \t\t\t will has already been execute...\n    tag 262\t\t\t}\\n\\n    /**\\n     * @dev Chec...\n      JUMPDEST \t\t\t}\\n\\n    /**\\n     * @dev Chec...\n      PUSH [tag] 264\t\t\tool) {\\n        require(hasWil...\n      DUP7 \t\t\t;\\n     \n      DUP3 \t\t\t found\n      DUP8 \t\t\t], \"No wi\n      ADD \t\t\tuser], \"No will found!\n      PUSH [tag] 152\t\t\tool) {\\n        require(hasWil...\n      JUMP \t\t\tool) {\\n        require(hasWil...\n    tag 264\t\t\tool) {\\n        require(hasWil...\n      JUMPDEST \t\t\tool) {\\n        require(hasWil...\n      SWAP4 \t\t\treturns (bool) {\\n        requ...\n      POP \t\t\treturns (bool) {\\n        requ...\n      POP \t\t\tser], \"No will found!\");\\n    ...\n      PUSH 20\t\t\t\n      DUP5 \t\t\t\n      ADD \t\t\t\n      CALLDATALOAD \t\t\t\n      PUSH FFFFFFFFFFFFFFFF\t\t\t\n      DUP2 \t\t\t\n      GT \t\t\t\n      ISZERO \t\t\t\n      PUSH [tag] 265\t\t\t\n      JUMPI \t\t\t\n      PUSH [tag] 266\t\t\t\n      PUSH [tag] 134\t\t\t\n      JUMP \t\t\t\n    tag 266\t\t\t\n      JUMPDEST \t\t\t\n    tag 265\t\t\t\n      JUMPDEST \t\t\t\n      PUSH [tag] 267\t\t\t\n      DUP7 \t\t\t\n      DUP3 \t\t\t\n      DUP8 \t\t\t\n      ADD \t\t\t\n      PUSH [tag] 152\t\t\t\n      JUMP \t\t\t\n    tag 267\t\t\t\n      JUMPDEST \t\t\t\n      SWAP3 \t\t\t\n      POP \t\t\t\n      POP \t\t\t.isDeceased;\\n    }\\n}\\n\n      PUSH 40\t\t\t\n      DUP5 \t\t\t\n      ADD \t\t\t\n      CALLDATALOAD \t\t\t\n      PUSH FFFFFFFFFFFFFFFF\t\t\t\n      DUP2 \t\t\t\n      GT \t\t\t\n      ISZERO \t\t\t\n      PUSH [tag] 268\t\t\t\n      JUMPI \t\t\t\n      PUSH [tag] 269\t\t\t\n      PUSH [tag] 134\t\t\t\n      JUMP \t\t\t\n    tag 269\t\t\t\n      JUMPDEST \t\t\t\n    tag 268\t\t\t\n      JUMPDEST \t\t\t\n      PUSH [tag] 270\t\t\t\n      DUP7 \t\t\t\n      DUP3 \t\t\t\n      DUP8 \t\t\t\n      ADD \t\t\t\n      PUSH [tag] 152\t\t\t\n      JUMP \t\t\t\n    tag 270\t\t\t\n      JUMPDEST \t\t\t\n      SWAP2 \t\t\t\n      POP \t\t\t\n      POP \t\t\t\n      SWAP3 \t\t\t\\n\\n        wills[user].totalL...\n      POP \t\t\t\\n\\n        wills[user].totalL...\n      SWAP3 \t\t\t\\n\\n        wills[user].totalL...\n      POP \t\t\t\\n\\n        wills[user].totalL...\n      SWAP3 \t\t\t\\n\\n        wills[user].totalL...\n      JUMP \t\t\t\\n\\n        wills[user].totalL...\n    tag 153\t\t\t\n      JUMPDEST \t\t\t\n      PUSH 0\t\t\t\n      PUSH [tag] 272\t\t\t\n      DUP3 \t\t\t\n      PUSH [tag] 135\t\t\t\n      JUMP \t\t\t\n    tag 272\t\t\t\n      JUMPDEST \t\t\t\n      SWAP1 \t\t\t\n      POP \t\t\t\n      SWAP2 \t\t\t\n      SWAP1 \t\t\t\n      POP \t\t\t\n      JUMP \t\t\t\n    tag 154\t\t\t\n      JUMPDEST \t\t\t\n      PUSH [tag] 274\t\t\t\n      DUP2 \t\t\t\n      PUSH [tag] 153\t\t\t\n      JUMP \t\t\t\n    tag 274\t\t\t\n      JUMPDEST \t\t\t\n      DUP2 \t\t\t\n      EQ \t\t\t\n      PUSH [tag] 275\t\t\t\n      JUMPI \t\t\t\n      PUSH 0\t\t\t\n      DUP1 \t\t\t\n      REVERT \t\t\t\n    tag 275\t\t\t\n      JUMPDEST \t\t\t\n      POP \t\t\t\n      JUMP \t\t\t\n    tag 155\t\t\t\n      JUMPDEST \t\t\t\n      PUSH 0\t\t\t\n      DUP2 \t\t\t\n      CALLDATALOAD \t\t\t\n      SWAP1 \t\t\t\n      POP \t\t\t\n      PUSH [tag] 277\t\t\t\n      DUP2 \t\t\t\n      PUSH [tag] 154\t\t\t\n      JUMP \t\t\t\n    tag 277\t\t\t\n      JUMPDEST \t\t\t\n      SWAP3 \t\t\t\n      SWAP2 \t\t\t\n      POP \t\t\t\n      POP \t\t\t\n      JUMP \t\t\t\n    tag 156\t\t\t\n      JUMPDEST \t\t\t\n      PUSH 0\t\t\t\n      DUP2 \t\t\t\n      SWAP1 \t\t\t\n      POP \t\t\t\n      SWAP2 \t\t\t\n      SWAP1 \t\t\t\n      POP \t\t\t\n      JUMP \t\t\t\n    tag 157\t\t\t\n      JUMPDEST \t\t\t\n      PUSH [tag] 280\t\t\t\n      DUP2 \t\t\t\n      PUSH [tag] 156\t\t\t\n      JUMP \t\t\t\n    tag 280\t\t\t\n      JUMPDEST \t\t\t\n      DUP2 \t\t\t\n      EQ \t\t\t\n      PUSH [tag] 281\t\t\t\n      JUMPI \t\t\t\n      PUSH 0\t\t\t\n      DUP1 \t\t\t\n      REVERT \t\t\t\n    tag 281\t\t\t\n      JUMPDEST \t\t\t\n      POP \t\t\t\n      JUMP \t\t\t\n    tag 158\t\t\t\n      JUMPDEST \t\t\t\n      PUSH 0\t\t\t\n      DUP2 \t\t\t\n      CALLDATALOAD \t\t\t\n      SWAP1 \t\t\t\n      POP \t\t\t\n      PUSH [tag] 283\t\t\t\n      DUP2 \t\t\t\n      PUSH [tag] 157\t\t\t\n      JUMP \t\t\t\n    tag 283\t\t\t\n      JUMPDEST \t\t\t\n      SWAP3 \t\t\t\n      SWAP2 \t\t\t\n      POP \t\t\t\n      POP \t\t\t\n      JUMP \t\t\t\n    tag 24\t\t\t\n      JUMPDEST \t\t\t\n      PUSH 0\t\t\t\n      DUP1 \t\t\t\n      PUSH 0\t\t\t\n      DUP1 \t\t\t\n      PUSH 80\t\t\t\n      DUP6 \t\t\t\n      DUP8 \t\t\t\n      SUB \t\t\t\n      SLT \t\t\t\n      ISZERO \t\t\t\n      PUSH [tag] 285\t\t\t\n      JUMPI \t\t\t\n      PUSH [tag] 286\t\t\t\n      PUSH [tag] 133\t\t\t\n      JUMP \t\t\t\n    tag 286\t\t\t\n      JUMPDEST \t\t\t\n    tag 285\t\t\t\n      JUMPDEST \t\t\t\n      PUSH 0\t\t\t\n      PUSH [tag] 287\t\t\t\n      DUP8 \t\t\t\n      DUP3 \t\t\t\n      DUP9 \t\t\t\n      ADD \t\t\t\n      PUSH [tag] 155\t\t\t\n      JUMP \t\t\t\n    tag 287\t\t\t\n      JUMPDEST \t\t\t\n      SWAP5 \t\t\t\n      POP \t\t\t\n      POP \t\t\t\n      PUSH 20\t\t\t\n      PUSH [tag] 288\t\t\t\n      DUP8 \t\t\t\n      DUP3 \t\t\t\n      DUP9 \t\t\t\n      ADD \t\t\t\n      PUSH [tag] 158\t\t\t\n      JUMP \t\t\t\n    tag 288\t\t\t\n      JUMPDEST \t\t\t\n      SWAP4 \t\t\t\n      POP \t\t\t\n      POP \t\t\t\n      PUSH 40\t\t\t\n      DUP6 \t\t\t\n      ADD \t\t\t\n      CALLDATALOAD \t\t\t\n      PUSH FFFFFFFFFFFFFFFF\t\t\t\n      DUP2 \t\t\t\n      GT \t\t\t\n      ISZERO \t\t\t\n      PUSH [tag] 289\t\t\t\n      JUMPI \t\t\t\n      PUSH [tag] 290\t\t\t\n      PUSH [tag] 134\t\t\t\n      JUMP \t\t\t\n    tag 290\t\t\t\n      JUMPDEST \t\t\t\n    tag 289\t\t\t\n      JUMPDEST \t\t\t\n      PUSH [tag] 291\t\t\t\n      DUP8 \t\t\t\n      DUP3 \t\t\t\n      DUP9 \t\t\t\n      ADD \t\t\t\n      PUSH [tag] 152\t\t\t\n      JUMP \t\t\t\n    tag 291\t\t\t\n      JUMPDEST \t\t\t\n      SWAP3 \t\t\t\n      POP \t\t\t\n      POP \t\t\t\n      PUSH 60\t\t\t\n      DUP6 \t\t\t\n      ADD \t\t\t\n      CALLDATALOAD \t\t\t\n      PUSH FFFFFFFFFFFFFFFF\t\t\t\n      DUP2 \t\t\t\n      GT \t\t\t\n      ISZERO \t\t\t\n      PUSH [tag] 292\t\t\t\n      JUMPI \t\t\t\n      PUSH [tag] 293\t\t\t\n      PUSH [tag] 134\t\t\t\n      JUMP \t\t\t\n    tag 293\t\t\t\n      JUMPDEST \t\t\t\n    tag 292\t\t\t\n      JUMPDEST \t\t\t\n      PUSH [tag] 294\t\t\t\n      DUP8 \t\t\t\n      DUP3 \t\t\t\n      DUP9 \t\t\t\n      ADD \t\t\t\n      PUSH [tag] 152\t\t\t\n      JUMP \t\t\t\n    tag 294\t\t\t\n      JUMPDEST \t\t\t\n      SWAP2 \t\t\t\n      POP \t\t\t\n      POP \t\t\t\n      SWAP3 \t\t\t\n      SWAP6 \t\t\t\n      SWAP2 \t\t\t\n      SWAP5 \t\t\t\n      POP \t\t\t\n      SWAP3 \t\t\t\n      POP \t\t\t\n      JUMP \t\t\t\n    tag 159\t\t\t\n      JUMPDEST \t\t\t\n      PUSH 0\t\t\t\n      DUP2 \t\t\t\n      ISZERO \t\t\t\n      ISZERO \t\t\t\n      SWAP1 \t\t\t\n      POP \t\t\t\n      SWAP2 \t\t\t\n      SWAP1 \t\t\t\n      POP \t\t\t\n      JUMP \t\t\t\n    tag 160\t\t\t\n      JUMPDEST \t\t\t\n      PUSH [tag] 297\t\t\t\n      DUP2 \t\t\t\n      PUSH [tag] 159\t\t\t\n      JUMP \t\t\t\n    tag 297\t\t\t\n      JUMPDEST \t\t\t\n      DUP3 \t\t\t\n      MSTORE \t\t\t\n      POP \t\t\t\n      POP \t\t\t\n      JUMP \t\t\t\n    tag 31\t\t\t\n      JUMPDEST \t\t\t\n      PUSH 0\t\t\t\n      PUSH 20\t\t\t\n      DUP3 \t\t\t\n      ADD \t\t\t\n      SWAP1 \t\t\t\n      POP \t\t\t\n      PUSH [tag] 299\t\t\t\n      PUSH 0\t\t\t\n      DUP4 \t\t\t\n      ADD \t\t\t\n      DUP5 \t\t\t\n      PUSH [tag] 160\t\t\t\n      JUMP \t\t\t\n    tag 299\t\t\t\n      JUMPDEST \t\t\t\n      SWAP3 \t\t\t\n      SWAP2 \t\t\t\n      POP \t\t\t\n      POP \t\t\t\n      JUMP \t\t\t\n    tag 161\t\t\t\n      JUMPDEST \t\t\t\n      PUSH 4E6F2077696C6C20666F756E6421000000000000000000000000000000000000\t\t\t\n      PUSH 0\t\t\t\n      DUP3 \t\t\t\n      ADD \t\t\t\n      MSTORE \t\t\t\n      POP \t\t\t\n      JUMP \t\t\t\n    tag 162\t\t\t\n      JUMPDEST \t\t\t\n      PUSH 0\t\t\t\n      PUSH [tag] 302\t\t\t\n      PUSH E\t\t\t\n      DUP4 \t\t\t\n      PUSH [tag] 140\t\t\t\n      JUMP \t\t\t\n    tag 302\t\t\t\n      JUMPDEST \t\t\t\n      SWAP2 \t\t\t\n      POP \t\t\t\n      PUSH [tag] 303\t\t\t\n      DUP3 \t\t\t\n      PUSH [tag] 161\t\t\t\n      JUMP \t\t\t\n    tag 303\t\t\t\n      JUMPDEST \t\t\t\n      PUSH 20\t\t\t\n      DUP3 \t\t\t\n      ADD \t\t\t\n      SWAP1 \t\t\t\n      POP \t\t\t\n      SWAP2 \t\t\t\n      SWAP1 \t\t\t\n      POP \t\t\t\n      JUMP \t\t\t\n    tag 47\t\t\t\n      JUMPDEST \t\t\t\n      PUSH 0\t\t\t\n      PUSH 20\t\t\t\n      DUP3 \t\t\t\n      ADD \t\t\t\n      SWAP1 \t\t\t\n      POP \t\t\t\n      DUP2 \t\t\t\n      DUP2 \t\t\t\n      SUB \t\t\t\n      PUSH 0\t\t\t\n      DUP4 \t\t\t\n      ADD \t\t\t\n      MSTORE \t\t\t\n      PUSH [tag] 305\t\t\t\n      DUP2 \t\t\t\n      PUSH [tag] 162\t\t\t\n      JUMP \t\t\t\n    tag 305\t\t\t\n      JUMPDEST \t\t\t\n      SWAP1 \t\t\t\n      POP \t\t\t\n      SWAP2 \t\t\t\n      SWAP1 \t\t\t\n      POP \t\t\t\n      JUMP \t\t\t\n    tag 163\t\t\t\n      JUMPDEST \t\t\t\n      PUSH 4E487B7100000000000000000000000000000000000000000000000000000000\t\t\t\n      PUSH 0\t\t\t\n      MSTORE \t\t\t\n      PUSH 22\t\t\t\n      PUSH 4\t\t\t\n      MSTORE \t\t\t\n      PUSH 24\t\t\t\n      PUSH 0\t\t\t\n      REVERT \t\t\t\n    tag 49\t\t\t\n      JUMPDEST \t\t\t\n      PUSH 0\t\t\t\n      PUSH 2\t\t\t\n      DUP3 \t\t\t\n      DIV \t\t\t\n      SWAP1 \t\t\t\n      POP \t\t\t\n      PUSH 1\t\t\t\n      DUP3 \t\t\t\n      AND \t\t\t\n      DUP1 \t\t\t\n      PUSH [tag] 308\t\t\t\n      JUMPI \t\t\t\n      PUSH 7F\t\t\t\n      DUP3 \t\t\t\n      AND \t\t\t\n      SWAP2 \t\t\t\n      POP \t\t\t\n    tag 308\t\t\t\n      JUMPDEST \t\t\t\n      PUSH 20\t\t\t\n      DUP3 \t\t\t\n      LT \t\t\t\n      DUP2 \t\t\t\n      SUB \t\t\t\n      PUSH [tag] 309\t\t\t\n      JUMPI \t\t\t\n      PUSH [tag] 310\t\t\t\n      PUSH [tag] 163\t\t\t\n      JUMP \t\t\t\n    tag 310\t\t\t\n      JUMPDEST \t\t\t\n    tag 309\t\t\t\n      JUMPDEST \t\t\t\n      POP \t\t\t\n      SWAP2 \t\t\t\n      SWAP1 \t\t\t\n      POP \t\t\t\n      JUMP \t\t\t\n    tag 164\t\t\t\n      JUMPDEST \t\t\t\n      PUSH 596F7520616C7265616479206861766520612077696C6C210000000000000000\t\t\t\n      PUSH 0\t\t\t\n      DUP3 \t\t\t\n      ADD \t\t\t\n      MSTORE \t\t\t\n      POP \t\t\t\n      JUMP \t\t\t\n    tag 165\t\t\t\n      JUMPDEST \t\t\t\n      PUSH 0\t\t\t\n      PUSH [tag] 313\t\t\t\n      PUSH 18\t\t\t\n      DUP4 \t\t\t\n      PUSH [tag] 140\t\t\t\n      JUMP \t\t\t\n    tag 313\t\t\t\n      JUMPDEST \t\t\t\n      SWAP2 \t\t\t\n      POP \t\t\t\n      PUSH [tag] 314\t\t\t\n      DUP3 \t\t\t\n      PUSH [tag] 164\t\t\t\n      JUMP \t\t\t\n    tag 314\t\t\t\n      JUMPDEST \t\t\t\n      PUSH 20\t\t\t\n      DUP3 \t\t\t\n      ADD \t\t\t\n      SWAP1 \t\t\t\n      POP \t\t\t\n      SWAP2 \t\t\t\n      SWAP1 \t\t\t\n      POP \t\t\t\n      JUMP \t\t\t\n    tag 57\t\t\t\n      JUMPDEST \t\t\t\n      PUSH 0\t\t\t\n      PUSH 20\t\t\t\n      DUP3 \t\t\t\n      ADD \t\t\t\n      SWAP1 \t\t\t\n      POP \t\t\t\n      DUP2 \t\t\t\n      DUP2 \t\t\t\n      SUB \t\t\t\n      PUSH 0\t\t\t\n      DUP4 \t\t\t\n      ADD \t\t\t\n      MSTORE \t\t\t\n      PUSH [tag] 316\t\t\t\n      DUP2 \t\t\t\n      PUSH [tag] 165\t\t\t\n      JUMP \t\t\t\n    tag 316\t\t\t\n      JUMPDEST \t\t\t\n      SWAP1 \t\t\t\n      POP \t\t\t\n      SWAP2 \t\t\t\n      SWAP1 \t\t\t\n      POP \t\t\t\n      JUMP \t\t\t\n    tag 166\t\t\t\n      JUMPDEST \t\t\t\n      PUSH 4D757374206C6F636B2045544821000000000000000000000000000000000000\t\t\t\n      PUSH 0\t\t\t\n      DUP3 \t\t\t\n      ADD \t\t\t\n      MSTORE \t\t\t\n      POP \t\t\t\n      JUMP \t\t\t\n    tag 167\t\t\t\n      JUMPDEST \t\t\t\n      PUSH 0\t\t\t\n      PUSH [tag] 319\t\t\t\n      PUSH E\t\t\t\n      DUP4 \t\t\t\n      PUSH [tag] 140\t\t\t\n      JUMP \t\t\t\n    tag 319\t\t\t\n      JUMPDEST \t\t\t\n      SWAP2 \t\t\t\n      POP \t\t\t\n      PUSH [tag] 320\t\t\t\n      DUP3 \t\t\t\n      PUSH [tag] 166\t\t\t\n      JUMP \t\t\t\n    tag 320\t\t\t\n      JUMPDEST \t\t\t\n      PUSH 20\t\t\t\n      DUP3 \t\t\t\n      ADD \t\t\t\n      SWAP1 \t\t\t\n      POP \t\t\t\n      SWAP2 \t\t\t\n      SWAP1 \t\t\t\n      POP \t\t\t\n      JUMP \t\t\t\n    tag 60\t\t\t\n      JUMPDEST \t\t\t\n      PUSH 0\t\t\t\n      PUSH 20\t\t\t\n      DUP3 \t\t\t\n      ADD \t\t\t\n      SWAP1 \t\t\t\n      POP \t\t\t\n      DUP2 \t\t\t\n      DUP2 \t\t\t\n      SUB \t\t\t\n      PUSH 0\t\t\t\n      DUP4 \t\t\t\n      ADD \t\t\t\n      MSTORE \t\t\t\n      PUSH [tag] 322\t\t\t\n      DUP2 \t\t\t\n      PUSH [tag] 167\t\t\t\n      JUMP \t\t\t\n    tag 322\t\t\t\n      JUMPDEST \t\t\t\n      SWAP1 \t\t\t\n      POP \t\t\t\n      SWAP2 \t\t\t\n      SWAP1 \t\t\t\n      POP \t\t\t\n      JUMP \t\t\t\n    tag 168\t\t\t\n      JUMPDEST \t\t\t\n      PUSH 0\t\t\t\n      DUP2 \t\t\t\n      SWAP1 \t\t\t\n      POP \t\t\t\n      DUP2 \t\t\t\n      PUSH 0\t\t\t\n      MSTORE \t\t\t\n      PUSH 20\t\t\t\n      PUSH 0\t\t\t\n      KECCAK256 \t\t\t\n      SWAP1 \t\t\t\n      POP \t\t\t\n      SWAP2 \t\t\t\n      SWAP1 \t\t\t\n      POP \t\t\t\n      JUMP \t\t\t\n    tag 169\t\t\t\n      JUMPDEST \t\t\t\n      PUSH 0\t\t\t\n      PUSH 20\t\t\t\n      PUSH 1F\t\t\t\n      DUP4 \t\t\t\n      ADD \t\t\t\n      DIV \t\t\t\n      SWAP1 \t\t\t\n      POP \t\t\t\n      SWAP2 \t\t\t\n      SWAP1 \t\t\t\n      POP \t\t\t\n      JUMP \t\t\t\n    tag 170\t\t\t\n      JUMPDEST \t\t\t\n      PUSH 0\t\t\t\n      DUP3 \t\t\t\n      DUP3 \t\t\t\n      SHL \t\t\t\n      SWAP1 \t\t\t\n      POP \t\t\t\n      SWAP3 \t\t\t\n      SWAP2 \t\t\t\n      POP \t\t\t\n      POP \t\t\t\n      JUMP \t\t\t\n    tag 171\t\t\t\n      JUMPDEST \t\t\t\n      PUSH 0\t\t\t\n      PUSH 8\t\t\t\n      DUP4 \t\t\t\n      MUL \t\t\t\n      PUSH [tag] 327\t\t\t\n      PUSH FFFFFFFFFFFFFFFFFFFFFFFFFFFFFFFFFFFFFFFFFFFFFFFFFFFFFFFFFFFFFFFF\t\t\t\n      DUP3 \t\t\t\n      PUSH [tag] 170\t\t\t\n      JUMP \t\t\t\n    tag 327\t\t\t\n      JUMPDEST \t\t\t\n      PUSH [tag] 328\t\t\t\n      DUP7 \t\t\t\n      DUP4 \t\t\t\n      PUSH [tag] 170\t\t\t\n      JUMP \t\t\t\n    tag 328\t\t\t\n      JUMPDEST \t\t\t\n      SWAP6 \t\t\t\n      POP \t\t\t\n      DUP1 \t\t\t\n      NOT \t\t\t\n      DUP5 \t\t\t\n      AND \t\t\t\n      SWAP4 \t\t\t\n      POP \t\t\t\n      DUP1 \t\t\t\n      DUP7 \t\t\t\n      AND \t\t\t\n      DUP5 \t\t\t\n      OR \t\t\t\n      SWAP3 \t\t\t\n      POP \t\t\t\n      POP \t\t\t\n      POP \t\t\t\n      SWAP4 \t\t\t\n      SWAP3 \t\t\t\n      POP \t\t\t\n      POP \t\t\t\n      POP \t\t\t\n      JUMP \t\t\t\n    tag 172\t\t\t\n      JUMPDEST \t\t\t\n      PUSH 0\t\t\t\n      DUP2 \t\t\t\n      SWAP1 \t\t\t\n      POP \t\t\t\n      SWAP2 \t\t\t\n      SWAP1 \t\t\t\n      POP \t\t\t\n      JUMP \t\t\t\n    tag 173\t\t\t\n      JUMPDEST \t\t\t\n      PUSH 0\t\t\t\n      PUSH [tag] 331\t\t\t\n      PUSH [tag] 332\t\t\t\n      PUSH [tag] 333\t\t\t\n      DUP5 \t\t\t\n      PUSH [tag] 156\t\t\t\n      JUMP \t\t\t\n    tag 333\t\t\t\n      JUMPDEST \t\t\t\n      PUSH [tag] 172\t\t\t\n      JUMP \t\t\t\n    tag 332\t\t\t\n      JUMPDEST \t\t\t\n      PUSH [tag] 156\t\t\t\n      JUMP \t\t\t\n    tag 331\t\t\t\n      JUMPDEST \t\t\t\n      SWAP1 \t\t\t\n      POP \t\t\t\n      SWAP2 \t\t\t\n      SWAP1 \t\t\t\n      POP \t\t\t\n      JUMP \t\t\t\n    tag 174\t\t\t\n      JUMPDEST \t\t\t\n      PUSH 0\t\t\t\n      DUP2 \t\t\t\n      SWAP1 \t\t\t\n      POP \t\t\t\n      SWAP2 \t\t\t\n      SWAP1 \t\t\t\n      POP \t\t\t\n      JUMP \t\t\t\n    tag 175\t\t\t\n      JUMPDEST \t\t\t\n      PUSH [tag] 336\t\t\t\n      DUP4 \t\t\t\n      PUSH [tag] 173\t\t\t\n      JUMP \t\t\t\n    tag 336\t\t\t\n      JUMPDEST \t\t\t\n      PUSH [tag] 337\t\t\t\n      PUSH [tag] 338\t\t\t\n      DUP3 \t\t\t\n      PUSH [tag] 174\t\t\t\n      JUMP \t\t\t\n    tag 338\t\t\t\n      JUMPDEST \t\t\t\n      DUP5 \t\t\t\n      DUP5 \t\t\t\n      SLOAD \t\t\t\n      PUSH [tag] 171\t\t\t\n      JUMP \t\t\t\n    tag 337\t\t\t\n      JUMPDEST \t\t\t\n      DUP3 \t\t\t\n      SSTORE \t\t\t\n      POP \t\t\t\n      POP \t\t\t\n      POP \t\t\t\n      POP \t\t\t\n      JUMP \t\t\t\n    tag 176\t\t\t\n      JUMPDEST \t\t\t\n      PUSH 0\t\t\t\n      SWAP1 \t\t\t\n      JUMP \t\t\t\n    tag 177\t\t\t\n      JUMPDEST \t\t\t\n      PUSH [tag] 341\t\t\t\n      PUSH [tag] 176\t\t\t\n      JUMP \t\t\t\n    tag 341\t\t\t\n      JUMPDEST \t\t\t\n      PUSH [tag] 342\t\t\t\n      DUP2 \t\t\t\n      DUP5 \t\t\t\n      DUP5 \t\t\t\n      PUSH [tag] 175\t\t\t\n      JUMP \t\t\t\n    tag 342\t\t\t\n      JUMPDEST \t\t\t\n      POP \t\t\t\n      POP \t\t\t\n      POP \t\t\t\n      JUMP \t\t\t\n    tag 178\t\t\t\n      JUMPDEST \t\t\t\n    tag 344\t\t\t\n      JUMPDEST \t\t\t\n      DUP2 \t\t\t\n      DUP2 \t\t\t\n      LT \t\t\t\n      ISZERO \t\t\t\n      PUSH [tag] 346\t\t\t\n      JUMPI \t\t\t\n      PUSH [tag] 347\t\t\t\n      PUSH 0\t\t\t\n      DUP3 \t\t\t\n      PUSH [tag] 177\t\t\t\n      JUMP \t\t\t\n    tag 347\t\t\t\n      JUMPDEST \t\t\t\n      PUSH 1\t\t\t\n      DUP2 \t\t\t\n      ADD \t\t\t\n      SWAP1 \t\t\t\n      POP \t\t\t\n      PUSH [tag] 344\t\t\t\n      JUMP \t\t\t\n    tag 346\t\t\t\n      JUMPDEST \t\t\t\n      POP \t\t\t\n      POP \t\t\t\n      JUMP \t\t\t\n    tag 179\t\t\t\n      JUMPDEST \t\t\t\n      PUSH 1F\t\t\t\n      DUP3 \t\t\t\n      GT \t\t\t\n      ISZERO \t\t\t\n      PUSH [tag] 349\t\t\t\n      JUMPI \t\t\t\n      PUSH [tag] 350\t\t\t\n      DUP2 \t\t\t\n      PUSH [tag] 168\t\t\t\n      JUMP \t\t\t\n    tag 350\t\t\t\n      JUMPDEST \t\t\t\n      PUSH [tag] 351\t\t\t\n      DUP5 \t\t\t\n      PUSH [tag] 169\t\t\t\n      JUMP \t\t\t\n    tag 351\t\t\t\n      JUMPDEST \t\t\t\n      DUP2 \t\t\t\n      ADD \t\t\t\n      PUSH 20\t\t\t\n      DUP6 \t\t\t\n      LT \t\t\t\n      ISZERO \t\t\t\n      PUSH [tag] 352\t\t\t\n      JUMPI \t\t\t\n      DUP2 \t\t\t\n      SWAP1 \t\t\t\n      POP \t\t\t\n    tag 352\t\t\t\n      JUMPDEST \t\t\t\n      PUSH [tag] 353\t\t\t\n      PUSH [tag] 354\t\t\t\n      DUP6 \t\t\t\n      PUSH [tag] 169\t\t\t\n      JUMP \t\t\t\n    tag 354\t\t\t\n      JUMPDEST \t\t\t\n      DUP4 \t\t\t\n      ADD \t\t\t\n      DUP3 \t\t\t\n      PUSH [tag] 178\t\t\t\n      JUMP \t\t\t\n    tag 353\t\t\t\n      JUMPDEST \t\t\t\n      POP \t\t\t\n      POP \t\t\t\n    tag 349\t\t\t\n      JUMPDEST \t\t\t\n      POP \t\t\t\n      POP \t\t\t\n      POP \t\t\t\n      JUMP \t\t\t\n    tag 180\t\t\t\n      JUMPDEST \t\t\t\n      PUSH 0\t\t\t\n      DUP3 \t\t\t\n      DUP3 \t\t\t\n      SHR \t\t\t\n      SWAP1 \t\t\t\n      POP \t\t\t\n      SWAP3 \t\t\t\n      SWAP2 \t\t\t\n      POP \t\t\t\n      POP \t\t\t\n      JUMP \t\t\t\n    tag 181\t\t\t\n      JUMPDEST \t\t\t\n      PUSH 0\t\t\t\n      PUSH [tag] 357\t\t\t\n      PUSH 0\t\t\t\n      NOT \t\t\t\n      DUP5 \t\t\t\n      PUSH 8\t\t\t\n      MUL \t\t\t\n      PUSH [tag] 180\t\t\t\n      JUMP \t\t\t\n    tag 357\t\t\t\n      JUMPDEST \t\t\t\n      NOT \t\t\t\n      DUP1 \t\t\t\n      DUP4 \t\t\t\n      AND \t\t\t\n      SWAP2 \t\t\t\n      POP \t\t\t\n      POP \t\t\t\n      SWAP3 \t\t\t\n      SWAP2 \t\t\t\n      POP \t\t\t\n      POP \t\t\t\n      JUMP \t\t\t\n    tag 182\t\t\t\n      JUMPDEST \t\t\t\n      PUSH 0\t\t\t\n      PUSH [tag] 359\t\t\t\n      DUP4 \t\t\t\n      DUP4 \t\t\t\n      PUSH [tag] 181\t\t\t\n      JUMP \t\t\t\n    tag 359\t\t\t\n      JUMPDEST \t\t\t\n      SWAP2 \t\t\t\n      POP \t\t\t\n      DUP3 \t\t\t\n      PUSH 2\t\t\t\n      MUL \t\t\t\n      DUP3 \t\t\t\n      OR \t\t\t\n      SWAP1 \t\t\t\n      POP \t\t\t\n      SWAP3 \t\t\t\n      SWAP2 \t\t\t\n      POP \t\t\t\n      POP \t\t\t\n      JUMP \t\t\t\n    tag 62\t\t\t\n      JUMPDEST \t\t\t\n      PUSH [tag] 361\t\t\t\n      DUP3 \t\t\t\n      PUSH [tag] 139\t\t\t\n      JUMP \t\t\t\n    tag 361\t\t\t\n      JUMPDEST \t\t\t\n      PUSH FFFFFFFFFFFFFFFF\t\t\t\n      DUP2 \t\t\t\n      GT \t\t\t\n      ISZERO \t\t\t\n      PUSH [tag] 362\t\t\t\n      JUMPI \t\t\t\n      PUSH [tag] 363\t\t\t\n      PUSH [tag] 146\t\t\t\n      JUMP \t\t\t\n    tag 363\t\t\t\n      JUMPDEST \t\t\t\n    tag 362\t\t\t\n      JUMPDEST \t\t\t\n      PUSH [tag] 364\t\t\t\n      DUP3 \t\t\t\n      SLOAD \t\t\t\n      PUSH [tag] 49\t\t\t\n      JUMP \t\t\t\n    tag 364\t\t\t\n      JUMPDEST \t\t\t\n      PUSH [tag] 365\t\t\t\n      DUP3 \t\t\t\n      DUP3 \t\t\t\n      DUP6 \t\t\t\n      PUSH [tag] 179\t\t\t\n      JUMP \t\t\t\n    tag 365\t\t\t\n      JUMPDEST \t\t\t\n      PUSH 0\t\t\t\n      PUSH 20\t\t\t\n      SWAP1 \t\t\t\n      POP \t\t\t\n      PUSH 1F\t\t\t\n      DUP4 \t\t\t\n      GT \t\t\t\n      PUSH 1\t\t\t\n      DUP2 \t\t\t\n      EQ \t\t\t\n      PUSH [tag] 367\t\t\t\n      JUMPI \t\t\t\n      PUSH 0\t\t\t\n      DUP5 \t\t\t\n      ISZERO \t\t\t\n      PUSH [tag] 368\t\t\t\n      JUMPI \t\t\t\n      DUP3 \t\t\t\n      DUP8 \t\t\t\n      ADD \t\t\t\n      MLOAD \t\t\t\n      SWAP1 \t\t\t\n      POP \t\t\t\n    tag 368\t\t\t\n      JUMPDEST \t\t\t\n      PUSH [tag] 369\t\t\t\n      DUP6 \t\t\t\n      DUP3 \t\t\t\n      PUSH [tag] 182\t\t\t\n      JUMP \t\t\t\n    tag 369\t\t\t\n      JUMPDEST \t\t\t\n      DUP7 \t\t\t\n      SSTORE \t\t\t\n      POP \t\t\t\n      PUSH [tag] 366\t\t\t\n      JUMP \t\t\t\n    tag 367\t\t\t\n      JUMPDEST \t\t\t\n      PUSH 1F\t\t\t\n      NOT \t\t\t\n      DUP5 \t\t\t\n      AND \t\t\t\n      PUSH [tag] 370\t\t\t\n      DUP7 \t\t\t\n      PUSH [tag] 168\t\t\t\n      JUMP \t\t\t\n    tag 370\t\t\t\n      JUMPDEST \t\t\t\n      PUSH 0\t\t\t\n    tag 371\t\t\t\n      JUMPDEST \t\t\t\n      DUP3 \t\t\t\n      DUP2 \t\t\t\n      LT \t\t\t\n      ISZERO \t\t\t\n      PUSH [tag] 373\t\t\t\n      JUMPI \t\t\t\n      DUP5 \t\t\t\n      DUP10 \t\t\t\n      ADD \t\t\t\n      MLOAD \t\t\t\n      DUP3 \t\t\t\n      SSTORE \t\t\t\n      PUSH 1\t\t\t\n      DUP3 \t\t\t\n      ADD \t\t\t\n      SWAP2 \t\t\t\n      POP \t\t\t\n      PUSH 20\t\t\t\n      DUP6 \t\t\t\n      ADD \t\t\t\n      SWAP5 \t\t\t\n      POP \t\t\t\n      PUSH 20\t\t\t\n      DUP2 \t\t\t\n      ADD \t\t\t\n      SWAP1 \t\t\t\n      POP \t\t\t\n      PUSH [tag] 371\t\t\t\n      JUMP \t\t\t\n    tag 373\t\t\t\n      JUMPDEST \t\t\t\n      DUP7 \t\t\t\n      DUP4 \t\t\t\n      LT \t\t\t\n      ISZERO \t\t\t\n      PUSH [tag] 374\t\t\t\n      JUMPI \t\t\t\n      DUP5 \t\t\t\n      DUP10 \t\t\t\n      ADD \t\t\t\n      MLOAD \t\t\t\n      PUSH [tag] 375\t\t\t\n      PUSH 1F\t\t\t\n      DUP10 \t\t\t\n      AND \t\t\t\n      DUP3 \t\t\t\n      PUSH [tag] 181\t\t\t\n      JUMP \t\t\t\n    tag 375\t\t\t\n      JUMPDEST \t\t\t\n      DUP4 \t\t\t\n      SSTORE \t\t\t\n      POP \t\t\t\n    tag 374\t\t\t\n      JUMPDEST \t\t\t\n      PUSH 1\t\t\t\n      PUSH 2\t\t\t\n      DUP9 \t\t\t\n      MUL \t\t\t\n      ADD \t\t\t\n      DUP9 \t\t\t\n      SSTORE \t\t\t\n      POP \t\t\t\n      POP \t\t\t\n      POP \t\t\t\n    tag 366\t\t\t\n      JUMPDEST \t\t\t\n      POP \t\t\t\n      POP \t\t\t\n      POP \t\t\t\n      POP \t\t\t\n      POP \t\t\t\n      POP \t\t\t\n      JUMP \t\t\t\n    tag 183\t\t\t\n      JUMPDEST \t\t\t\n      PUSH [tag] 377\t\t\t\n      DUP2 \t\t\t\n      PUSH [tag] 156\t\t\t\n      JUMP \t\t\t\n    tag 377\t\t\t\n      JUMPDEST \t\t\t\n      DUP3 \t\t\t\n      MSTORE \t\t\t\n      POP \t\t\t\n      POP \t\t\t\n      JUMP \t\t\t\n    tag 66\t\t\t\n      JUMPDEST \t\t\t\n      PUSH 0\t\t\t\n      PUSH 40\t\t\t\n      DUP3 \t\t\t\n      ADD \t\t\t\n      SWAP1 \t\t\t\n      POP \t\t\t\n      PUSH [tag] 379\t\t\t\n      PUSH 0\t\t\t\n      DUP4 \t\t\t\n      ADD \t\t\t\n      DUP6 \t\t\t\n      PUSH [tag] 183\t\t\t\n      JUMP \t\t\t\n    tag 379\t\t\t\n      JUMPDEST \t\t\t\n      DUP2 \t\t\t\n      DUP2 \t\t\t\n      SUB \t\t\t\n      PUSH 20\t\t\t\n      DUP4 \t\t\t\n      ADD \t\t\t\n      MSTORE \t\t\t\n      PUSH [tag] 380\t\t\t\n      DUP2 \t\t\t\n      DUP5 \t\t\t\n      PUSH [tag] 143\t\t\t\n      JUMP \t\t\t\n    tag 380\t\t\t\n      JUMPDEST \t\t\t\n      SWAP1 \t\t\t\n      POP \t\t\t\n      SWAP4 \t\t\t\n      SWAP3 \t\t\t\n      POP \t\t\t\n      POP \t\t\t\n      POP \t\t\t\n      JUMP \t\t\t\n    tag 184\t\t\t\n      JUMPDEST \t\t\t\n      PUSH 596F75206E65656420746F2063726561746520612077696C6C20666972737400\t\t\t\n      PUSH 0\t\t\t\n      DUP3 \t\t\t\n      ADD \t\t\t\n      MSTORE \t\t\t\n      POP \t\t\t\n      JUMP \t\t\t\n    tag 185\t\t\t\n      JUMPDEST \t\t\t\n      PUSH 0\t\t\t\n      PUSH [tag] 383\t\t\t\n      PUSH 1F\t\t\t\n      DUP4 \t\t\t\n      PUSH [tag] 140\t\t\t\n      JUMP \t\t\t\n    tag 383\t\t\t\n      JUMPDEST \t\t\t\n      SWAP2 \t\t\t\n      POP \t\t\t\n      PUSH [tag] 384\t\t\t\n      DUP3 \t\t\t\n      PUSH [tag] 184\t\t\t\n      JUMP \t\t\t\n    tag 384\t\t\t\n      JUMPDEST \t\t\t\n      PUSH 20\t\t\t\n      DUP3 \t\t\t\n      ADD \t\t\t\n      SWAP1 \t\t\t\n      POP \t\t\t\n      SWAP2 \t\t\t\n      SWAP1 \t\t\t\n      POP \t\t\t\n      JUMP \t\t\t\n    tag 70\t\t\t\n      JUMPDEST \t\t\t\n      PUSH 0\t\t\t\n      PUSH 20\t\t\t\n      DUP3 \t\t\t\n      ADD \t\t\t\n      SWAP1 \t\t\t\n      POP \t\t\t\n      DUP2 \t\t\t\n      DUP2 \t\t\t\n      SUB \t\t\t\n      PUSH 0\t\t\t\n      DUP4 \t\t\t\n      ADD \t\t\t\n      MSTORE \t\t\t\n      PUSH [tag] 386\t\t\t\n      DUP2 \t\t\t\n      PUSH [tag] 185\t\t\t\n      JUMP \t\t\t\n    tag 386\t\t\t\n      JUMPDEST \t\t\t\n      SWAP1 \t\t\t\n      POP \t\t\t\n      SWAP2 \t\t\t\n      SWAP1 \t\t\t\n      POP \t\t\t\n      JUMP \t\t\t\n    tag 186\t\t\t\n      JUMPDEST \t\t\t\n      PUSH 496E76616C69642077616C6C6574206164647265737300000000000000000000\t\t\t\n      PUSH 0\t\t\t\n      DUP3 \t\t\t\n      ADD \t\t\t\n      MSTORE \t\t\t\n      POP \t\t\t\n      JUMP \t\t\t\n    tag 187\t\t\t\n      JUMPDEST \t\t\t\n      PUSH 0\t\t\t\n      PUSH [tag] 389\t\t\t\n      PUSH 16\t\t\t\n      DUP4 \t\t\t\n      PUSH [tag] 140\t\t\t\n      JUMP \t\t\t\n    tag 389\t\t\t\n      JUMPDEST \t\t\t\n      SWAP2 \t\t\t\n      POP \t\t\t\n      PUSH [tag] 390\t\t\t\n      DUP3 \t\t\t\n      PUSH [tag] 186\t\t\t\n      JUMP \t\t\t\n    tag 390\t\t\t\n      JUMPDEST \t\t\t\n      PUSH 20\t\t\t\n      DUP3 \t\t\t\n      ADD \t\t\t\n      SWAP1 \t\t\t\n      POP \t\t\t\n      SWAP2 \t\t\t\n      SWAP1 \t\t\t\n      POP \t\t\t\n      JUMP \t\t\t\n    tag 73\t\t\t\n      JUMPDEST \t\t\t\n      PUSH 0\t\t\t\n      PUSH 20\t\t\t\n      DUP3 \t\t\t\n      ADD \t\t\t\n      SWAP1 \t\t\t\n      POP \t\t\t\n      DUP2 \t\t\t\n      DUP2 \t\t\t\n      SUB \t\t\t\n      PUSH 0\t\t\t\n      DUP4 \t\t\t\n      ADD \t\t\t\n      MSTORE \t\t\t\n      PUSH [tag] 392\t\t\t\n      DUP2 \t\t\t\n      PUSH [tag] 187\t\t\t\n      JUMP \t\t\t\n    tag 392\t\t\t\n      JUMPDEST \t\t\t\n      SWAP1 \t\t\t\n      POP \t\t\t\n      SWAP2 \t\t\t\n      SWAP1 \t\t\t\n      POP \t\t\t\n      JUMP \t\t\t\n    tag 188\t\t\t\n      JUMPDEST \t\t\t\n      PUSH 496E76616C69642070657263656E746167650000000000000000000000000000\t\t\t\n      PUSH 0\t\t\t\n      DUP3 \t\t\t\n      ADD \t\t\t\n      MSTORE \t\t\t\n      POP \t\t\t\n      JUMP \t\t\t\n    tag 189\t\t\t\n      JUMPDEST \t\t\t\n      PUSH 0\t\t\t\n      PUSH [tag] 395\t\t\t\n      PUSH 12\t\t\t\n      DUP4 \t\t\t\n      PUSH [tag] 140\t\t\t\n      JUMP \t\t\t\n    tag 395\t\t\t\n      JUMPDEST \t\t\t\n      SWAP2 \t\t\t\n      POP \t\t\t\n      PUSH [tag] 396\t\t\t\n      DUP3 \t\t\t\n      PUSH [tag] 188\t\t\t\n      JUMP \t\t\t\n    tag 396\t\t\t\n      JUMPDEST \t\t\t\n      PUSH 20\t\t\t\n      DUP3 \t\t\t\n      ADD \t\t\t\n      SWAP1 \t\t\t\n      POP \t\t\t\n      SWAP2 \t\t\t\n      SWAP1 \t\t\t\n      POP \t\t\t\n      JUMP \t\t\t\n    tag 77\t\t\t\n      JUMPDEST \t\t\t\n      PUSH 0\t\t\t\n      PUSH 20\t\t\t\n      DUP3 \t\t\t\n      ADD \t\t\t\n      SWAP1 \t\t\t\n      POP \t\t\t\n      DUP2 \t\t\t\n      DUP2 \t\t\t\n      SUB \t\t\t\n      PUSH 0\t\t\t\n      DUP4 \t\t\t\n      ADD \t\t\t\n      MSTORE \t\t\t\n      PUSH [tag] 398\t\t\t\n      DUP2 \t\t\t\n      PUSH [tag] 189\t\t\t\n      JUMP \t\t\t\n    tag 398\t\t\t\n      JUMPDEST \t\t\t\n      SWAP1 \t\t\t\n      POP \t\t\t\n      SWAP2 \t\t\t\n      SWAP1 \t\t\t\n      POP \t\t\t\n      JUMP \t\t\t\n    tag 83\t\t\t\n      JUMPDEST \t\t\t\n      PUSH 4E487B7100000000000000000000000000000000000000000000000000000000\t\t\t\n      PUSH 0\t\t\t\n      MSTORE \t\t\t\n      PUSH 32\t\t\t\n      PUSH 4\t\t\t\n      MSTORE \t\t\t\n      PUSH 24\t\t\t\n      PUSH 0\t\t\t\n      REVERT \t\t\t\n    tag 190\t\t\t\n      JUMPDEST \t\t\t\n      PUSH 4E487B7100000000000000000000000000000000000000000000000000000000\t\t\t\n      PUSH 0\t\t\t\n      MSTORE \t\t\t\n      PUSH 11\t\t\t\n      PUSH 4\t\t\t\n      MSTORE \t\t\t\n      PUSH 24\t\t\t\n      PUSH 0\t\t\t\n      REVERT \t\t\t\n    tag 86\t\t\t\n      JUMPDEST \t\t\t\n      PUSH 0\t\t\t\n      PUSH [tag] 402\t\t\t\n      DUP3 \t\t\t\n      PUSH [tag] 156\t\t\t\n      JUMP \t\t\t\n    tag 402\t\t\t\n      JUMPDEST \t\t\t\n      SWAP2 \t\t\t\n      POP \t\t\t\n      PUSH [tag] 403\t\t\t\n      DUP4 \t\t\t\n      PUSH [tag] 156\t\t\t\n      JUMP \t\t\t\n    tag 403\t\t\t\n      JUMPDEST \t\t\t\n      SWAP3 \t\t\t\n      POP \t\t\t\n      DUP3 \t\t\t\n      DUP3 \t\t\t\n      ADD \t\t\t\n      SWAP1 \t\t\t\n      POP \t\t\t\n      DUP1 \t\t\t\n      DUP3 \t\t\t\n      GT \t\t\t\n      ISZERO \t\t\t\n      PUSH [tag] 404\t\t\t\n      JUMPI \t\t\t\n      PUSH [tag] 405\t\t\t\n      PUSH [tag] 190\t\t\t\n      JUMP \t\t\t\n    tag 405\t\t\t\n      JUMPDEST \t\t\t\n    tag 404\t\t\t\n      JUMPDEST \t\t\t\n      SWAP3 \t\t\t\n      SWAP2 \t\t\t\n      POP \t\t\t\n      POP \t\t\t\n      JUMP \t\t\t\n    tag 191\t\t\t\n      JUMPDEST \t\t\t\n      PUSH 546F74616C20616C6C6F636174696F6E20657863656564732031303025000000\t\t\t\n      PUSH 0\t\t\t\n      DUP3 \t\t\t\n      ADD \t\t\t\n      MSTORE \t\t\t\n      POP \t\t\t\n      JUMP \t\t\t\n    tag 192\t\t\t\n      JUMPDEST \t\t\t\n      PUSH 0\t\t\t\n      PUSH [tag] 408\t\t\t\n      PUSH 1D\t\t\t\n      DUP4 \t\t\t\n      PUSH [tag] 140\t\t\t\n      JUMP \t\t\t\n    tag 408\t\t\t\n      JUMPDEST \t\t\t\n      SWAP2 \t\t\t\n      POP \t\t\t\n      PUSH [tag] 409\t\t\t\n      DUP3 \t\t\t\n      PUSH [tag] 191\t\t\t\n      JUMP \t\t\t\n    tag 409\t\t\t\n      JUMPDEST \t\t\t\n      PUSH 20\t\t\t\n      DUP3 \t\t\t\n      ADD \t\t\t\n      SWAP1 \t\t\t\n      POP \t\t\t\n      SWAP2 \t\t\t\n      SWAP1 \t\t\t\n      POP \t\t\t\n      JUMP \t\t\t\n    tag 90\t\t\t\n      JUMPDEST \t\t\t\n      PUSH 0\t\t\t\n      PUSH 20\t\t\t\n      DUP3 \t\t\t\n      ADD \t\t\t\n      SWAP1 \t\t\t\n      POP \t\t\t\n      DUP2 \t\t\t\n      DUP2 \t\t\t\n      SUB \t\t\t\n      PUSH 0\t\t\t\n      DUP4 \t\t\t\n      ADD \t\t\t\n      MSTORE \t\t\t\n      PUSH [tag] 411\t\t\t\n      DUP2 \t\t\t\n      PUSH [tag] 192\t\t\t\n      JUMP \t\t\t\n    tag 411\t\t\t\n      JUMPDEST \t\t\t\n      SWAP1 \t\t\t\n      POP \t\t\t\n      SWAP2 \t\t\t\n      SWAP1 \t\t\t\n      POP \t\t\t\n      JUMP \t\t\t\n    tag 193\t\t\t\n      JUMPDEST \t\t\t\n      PUSH 0\t\t\t\n      PUSH [tag] 413\t\t\t\n      PUSH [tag] 414\t\t\t\n      PUSH [tag] 415\t\t\t\n      DUP5 \t\t\t\n      PUSH [tag] 135\t\t\t\n      JUMP \t\t\t\n    tag 415\t\t\t\n      JUMPDEST \t\t\t\n      PUSH [tag] 172\t\t\t\n      JUMP \t\t\t\n    tag 414\t\t\t\n      JUMPDEST \t\t\t\n      PUSH [tag] 135\t\t\t\n      JUMP \t\t\t\n    tag 413\t\t\t\n      JUMPDEST \t\t\t\n      SWAP1 \t\t\t\n      POP \t\t\t\n      SWAP2 \t\t\t\n      SWAP1 \t\t\t\n      POP \t\t\t\n      JUMP \t\t\t\n    tag 194\t\t\t\n      JUMPDEST \t\t\t\n      PUSH 0\t\t\t\n      PUSH [tag] 417\t\t\t\n      DUP3 \t\t\t\n      PUSH [tag] 193\t\t\t\n      JUMP \t\t\t\n    tag 417\t\t\t\n      JUMPDEST \t\t\t\n      SWAP1 \t\t\t\n      POP \t\t\t\n      SWAP2 \t\t\t\n      SWAP1 \t\t\t\n      POP \t\t\t\n      JUMP \t\t\t\n    tag 195\t\t\t\n      JUMPDEST \t\t\t\n      PUSH 0\t\t\t\n      PUSH [tag] 419\t\t\t\n      DUP3 \t\t\t\n      PUSH [tag] 194\t\t\t\n      JUMP \t\t\t\n    tag 419\t\t\t\n      JUMPDEST \t\t\t\n      SWAP1 \t\t\t\n      POP \t\t\t\n      SWAP2 \t\t\t\n      SWAP1 \t\t\t\n      POP \t\t\t\n      JUMP \t\t\t\n    tag 196\t\t\t\n      JUMPDEST \t\t\t\n      PUSH [tag] 421\t\t\t\n      DUP2 \t\t\t\n      PUSH [tag] 195\t\t\t\n      JUMP \t\t\t\n    tag 421\t\t\t\n      JUMPDEST \t\t\t\n      DUP3 \t\t\t\n      MSTORE \t\t\t\n      POP \t\t\t\n      POP \t\t\t\n      JUMP \t\t\t\n    tag 95\t\t\t\n      JUMPDEST \t\t\t\n      PUSH 0\t\t\t\n      PUSH 40\t\t\t\n      DUP3 \t\t\t\n      ADD \t\t\t\n      SWAP1 \t\t\t\n      POP \t\t\t\n      PUSH [tag] 423\t\t\t\n      PUSH 0\t\t\t\n      DUP4 \t\t\t\n      ADD \t\t\t\n      DUP6 \t\t\t\n      PUSH [tag] 196\t\t\t\n      JUMP \t\t\t\n    tag 423\t\t\t\n      JUMPDEST \t\t\t\n      PUSH [tag] 424\t\t\t\n      PUSH 20\t\t\t\n      DUP4 \t\t\t\n      ADD \t\t\t\n      DUP5 \t\t\t\n      PUSH [tag] 183\t\t\t\n      JUMP \t\t\t\n    tag 424\t\t\t\n      JUMPDEST \t\t\t\n      SWAP4 \t\t\t\n      SWAP3 \t\t\t\n      POP \t\t\t\n      POP \t\t\t\n      POP \t\t\t\n      JUMP \t\t\t\n    tag 197\t\t\t\n      JUMPDEST \t\t\t\n      PUSH 596F752068617665206E6F74206372656174656420612077696C6C0000000000\t\t\t\n      PUSH 0\t\t\t\n      DUP3 \t\t\t\n      ADD \t\t\t\n      MSTORE \t\t\t\n      POP \t\t\t\n      JUMP \t\t\t\n    tag 198\t\t\t\n      JUMPDEST \t\t\t\n      PUSH 0\t\t\t\n      PUSH [tag] 427\t\t\t\n      PUSH 1B\t\t\t\n      DUP4 \t\t\t\n      PUSH [tag] 140\t\t\t\n      JUMP \t\t\t\n    tag 427\t\t\t\n      JUMPDEST \t\t\t\n      SWAP2 \t\t\t\n      POP \t\t\t\n      PUSH [tag] 428\t\t\t\n      DUP3 \t\t\t\n      PUSH [tag] 197\t\t\t\n      JUMP \t\t\t\n    tag 428\t\t\t\n      JUMPDEST \t\t\t\n      PUSH 20\t\t\t\n      DUP3 \t\t\t\n      ADD \t\t\t\n      SWAP1 \t\t\t\n      POP \t\t\t\n      SWAP2 \t\t\t\n      SWAP1 \t\t\t\n      POP \t\t\t\n      JUMP \t\t\t\n    tag 99\t\t\t\n      JUMPDEST \t\t\t\n      PUSH 0\t\t\t\n      PUSH 20\t\t\t\n      DUP3 \t\t\t\n      ADD \t\t\t\n      SWAP1 \t\t\t\n      POP \t\t\t\n      DUP2 \t\t\t\n      DUP2 \t\t\t\n      SUB \t\t\t\n      PUSH 0\t\t\t\n      DUP4 \t\t\t\n      ADD \t\t\t\n      MSTORE \t\t\t\n      PUSH [tag] 430\t\t\t\n      DUP2 \t\t\t\n      PUSH [tag] 198\t\t\t\n      JUMP \t\t\t\n    tag 430\t\t\t\n      JUMPDEST \t\t\t\n      SWAP1 \t\t\t\n      POP \t\t\t\n      SWAP2 \t\t\t\n      SWAP1 \t\t\t\n      POP \t\t\t\n      JUMP \t\t\t\n    tag 199\t\t\t\n      JUMPDEST \t\t\t\n      PUSH 57696C6C20616C72656164792065786563757465642100000000000000000000\t\t\t\n      PUSH 0\t\t\t\n      DUP3 \t\t\t\n      ADD \t\t\t\n      MSTORE \t\t\t\n      POP \t\t\t\n      JUMP \t\t\t\n    tag 200\t\t\t\n      JUMPDEST \t\t\t\n      PUSH 0\t\t\t\n      PUSH [tag] 433\t\t\t\n      PUSH 16\t\t\t\n      DUP4 \t\t\t\n      PUSH [tag] 140\t\t\t\n      JUMP \t\t\t\n    tag 433\t\t\t\n      JUMPDEST \t\t\t\n      SWAP2 \t\t\t\n      POP \t\t\t\n      PUSH [tag] 434\t\t\t\n      DUP3 \t\t\t\n      PUSH [tag] 199\t\t\t\n      JUMP \t\t\t\n    tag 434\t\t\t\n      JUMPDEST \t\t\t\n      PUSH 20\t\t\t\n      DUP3 \t\t\t\n      ADD \t\t\t\n      SWAP1 \t\t\t\n      POP \t\t\t\n      SWAP2 \t\t\t\n      SWAP1 \t\t\t\n      POP \t\t\t\n      JUMP \t\t\t\n    tag 102\t\t\t\n      JUMPDEST \t\t\t\n      PUSH 0\t\t\t\n      PUSH 20\t\t\t\n      DUP3 \t\t\t\n      ADD \t\t\t\n      SWAP1 \t\t\t\n      POP \t\t\t\n      DUP2 \t\t\t\n      DUP2 \t\t\t\n      SUB \t\t\t\n      PUSH 0\t\t\t\n      DUP4 \t\t\t\n      ADD \t\t\t\n      MSTORE \t\t\t\n      PUSH [tag] 436\t\t\t\n      DUP2 \t\t\t\n      PUSH [tag] 200\t\t\t\n      JUMP \t\t\t\n    tag 436\t\t\t\n      JUMPDEST \t\t\t\n      SWAP1 \t\t\t\n      POP \t\t\t\n      SWAP2 \t\t\t\n      SWAP1 \t\t\t\n      POP \t\t\t\n      JUMP \t\t\t\n    tag 201\t\t\t\n      JUMPDEST \t\t\t\n      PUSH 4F776E6572206973207374696C6C20616C697665210000000000000000000000\t\t\t\n      PUSH 0\t\t\t\n      DUP3 \t\t\t\n      ADD \t\t\t\n      MSTORE \t\t\t\n      POP \t\t\t\n      JUMP \t\t\t\n    tag 202\t\t\t\n      JUMPDEST \t\t\t\n      PUSH 0\t\t\t\n      PUSH [tag] 439\t\t\t\n      PUSH 15\t\t\t\n      DUP4 \t\t\t\n      PUSH [tag] 140\t\t\t\n      JUMP \t\t\t\n    tag 439\t\t\t\n      JUMPDEST \t\t\t\n      SWAP2 \t\t\t\n      POP \t\t\t\n      PUSH [tag] 440\t\t\t\n      DUP3 \t\t\t\n      PUSH [tag] 201\t\t\t\n      JUMP \t\t\t\n    tag 440\t\t\t\n      JUMPDEST \t\t\t\n      PUSH 20\t\t\t\n      DUP3 \t\t\t\n      ADD \t\t\t\n      SWAP1 \t\t\t\n      POP \t\t\t\n      SWAP2 \t\t\t\n      SWAP1 \t\t\t\n      POP \t\t\t\n      JUMP \t\t\t\n    tag 112\t\t\t\n      JUMPDEST \t\t\t\n      PUSH 0\t\t\t\n      PUSH 20\t\t\t\n      DUP3 \t\t\t\n      ADD \t\t\t\n      SWAP1 \t\t\t\n      POP \t\t\t\n      DUP2 \t\t\t\n      DUP2 \t\t\t\n      SUB \t\t\t\n      PUSH 0\t\t\t\n      DUP4 \t\t\t\n      ADD \t\t\t\n      MSTORE \t\t\t\n      PUSH [tag] 442\t\t\t\n      DUP2 \t\t\t\n      PUSH [tag] 202\t\t\t\n      JUMP \t\t\t\n    tag 442\t\t\t\n      JUMPDEST \t\t\t\n      SWAP1 \t\t\t\n      POP \t\t\t\n      SWAP2 \t\t\t\n      SWAP1 \t\t\t\n      POP \t\t\t\n      JUMP \t\t\t\n    tag 203\t\t\t\n      JUMPDEST \t\t\t\n      PUSH 4E6F2045544820746F2064697374726962757465000000000000000000000000\t\t\t\n      PUSH 0\t\t\t\n      DUP3 \t\t\t\n      ADD \t\t\t\n      MSTORE \t\t\t\n      POP \t\t\t\n      JUMP \t\t\t\n    tag 204\t\t\t\n      JUMPDEST \t\t\t\n      PUSH 0\t\t\t\n      PUSH [tag] 445\t\t\t\n      PUSH 14\t\t\t\n      DUP4 \t\t\t\n      PUSH [tag] 140\t\t\t\n      JUMP \t\t\t\n    tag 445\t\t\t\n      JUMPDEST \t\t\t\n      SWAP2 \t\t\t\n      POP \t\t\t\n      PUSH [tag] 446\t\t\t\n      DUP3 \t\t\t\n      PUSH [tag] 203\t\t\t\n      JUMP \t\t\t\n    tag 446\t\t\t\n      JUMPDEST \t\t\t\n      PUSH 20\t\t\t\n      DUP3 \t\t\t\n      ADD \t\t\t\n      SWAP1 \t\t\t\n      POP \t\t\t\n      SWAP2 \t\t\t\n      SWAP1 \t\t\t\n      POP \t\t\t\n      JUMP \t\t\t\n    tag 117\t\t\t\n      JUMPDEST \t\t\t\n      PUSH 0\t\t\t\n      PUSH 20\t\t\t\n      DUP3 \t\t\t\n      ADD \t\t\t\n      SWAP1 \t\t\t\n      POP \t\t\t\n      DUP2 \t\t\t\n      DUP2 \t\t\t\n      SUB \t\t\t\n      PUSH 0\t\t\t\n      DUP4 \t\t\t\n      ADD \t\t\t\n      MSTORE \t\t\t\n      PUSH [tag] 448\t\t\t\n      DUP2 \t\t\t\n      PUSH [tag] 204\t\t\t\n      JUMP \t\t\t\n    tag 448\t\t\t\n      JUMPDEST \t\t\t\n      SWAP1 \t\t\t\n      POP \t\t\t\n      SWAP2 \t\t\t\n      SWAP1 \t\t\t\n      POP \t\t\t\n      JUMP \t\t\t\n    tag 125\t\t\t\n      JUMPDEST \t\t\t\n      PUSH 0\t\t\t\n      PUSH [tag] 450\t\t\t\n      DUP3 \t\t\t\n      PUSH [tag] 156\t\t\t\n      JUMP \t\t\t\n    tag 450\t\t\t\n      JUMPDEST \t\t\t\n      SWAP2 \t\t\t\n      POP \t\t\t\n      PUSH [tag] 451\t\t\t\n      DUP4 \t\t\t\n      PUSH [tag] 156\t\t\t\n      JUMP \t\t\t\n    tag 451\t\t\t\n      JUMPDEST \t\t\t\n      SWAP3 \t\t\t\n      POP \t\t\t\n      DUP3 \t\t\t\n      DUP3 \t\t\t\n      MUL \t\t\t\n      PUSH [tag] 452\t\t\t\n      DUP2 \t\t\t\n      PUSH [tag] 156\t\t\t\n      JUMP \t\t\t\n    tag 452\t\t\t\n      JUMPDEST \t\t\t\n      SWAP2 \t\t\t\n      POP \t\t\t\n      DUP3 \t\t\t\n      DUP3 \t\t\t\n      DIV \t\t\t\n      DUP5 \t\t\t\n      EQ \t\t\t\n      DUP4 \t\t\t\n      ISZERO \t\t\t\n      OR \t\t\t\n      PUSH [tag] 453\t\t\t\n      JUMPI \t\t\t\n      PUSH [tag] 454\t\t\t\n      PUSH [tag] 190\t\t\t\n      JUMP \t\t\t\n    tag 454\t\t\t\n      JUMPDEST \t\t\t\n    tag 453\t\t\t\n      JUMPDEST \t\t\t\n      POP \t\t\t\n      SWAP3 \t\t\t\n      SWAP2 \t\t\t\n      POP \t\t\t\n      POP \t\t\t\n      JUMP \t\t\t\n    tag 205\t\t\t\n      JUMPDEST \t\t\t\n      PUSH 4E487B7100000000000000000000000000000000000000000000000000000000\t\t\t\n      PUSH 0\t\t\t\n      MSTORE \t\t\t\n      PUSH 12\t\t\t\n      PUSH 4\t\t\t\n      MSTORE \t\t\t\n      PUSH 24\t\t\t\n      PUSH 0\t\t\t\n      REVERT \t\t\t\n    tag 127\t\t\t\n      JUMPDEST \t\t\t\n      PUSH 0\t\t\t\n      PUSH [tag] 457\t\t\t\n      DUP3 \t\t\t\n      PUSH [tag] 156\t\t\t\n      JUMP \t\t\t\n    tag 457\t\t\t\n      JUMPDEST \t\t\t\n      SWAP2 \t\t\t\n      POP \t\t\t\n      PUSH [tag] 458\t\t\t\n      DUP4 \t\t\t\n      PUSH [tag] 156\t\t\t\n      JUMP \t\t\t\n    tag 458\t\t\t\n      JUMPDEST \t\t\t\n      SWAP3 \t\t\t\n      POP \t\t\t\n      DUP3 \t\t\t\n      PUSH [tag] 459\t\t\t\n      JUMPI \t\t\t\n      PUSH [tag] 460\t\t\t\n      PUSH [tag] 205\t\t\t\n      JUMP \t\t\t\n    tag 460\t\t\t\n      JUMPDEST \t\t\t\n    tag 459\t\t\t\n      JUMPDEST \t\t\t\n      DUP3 \t\t\t\n      DUP3 \t\t\t\n      DIV \t\t\t\n      SWAP1 \t\t\t\n      POP \t\t\t\n      SWAP3 \t\t\t\n      SWAP2 \t\t\t\n      POP \t\t\t\n      POP \t\t\t\n      JUMP \t\t\t\n    tag 206\t\t\t\n      JUMPDEST \t\t\t\n      PUSH 0\t\t\t\n      DUP2 \t\t\t\n      SLOAD \t\t\t\n      PUSH [tag] 462\t\t\t\n      DUP2 \t\t\t\n      PUSH [tag] 49\t\t\t\n      JUMP \t\t\t\n    tag 462\t\t\t\n      JUMPDEST \t\t\t\n      PUSH [tag] 463\t\t\t\n      DUP2 \t\t\t\n      DUP7 \t\t\t\n      PUSH [tag] 140\t\t\t\n      JUMP \t\t\t\n    tag 463\t\t\t\n      JUMPDEST \t\t\t\n      SWAP5 \t\t\t\n      POP \t\t\t\n      PUSH 1\t\t\t\n      DUP3 \t\t\t\n      AND \t\t\t\n      PUSH 0\t\t\t\n      DUP2 \t\t\t\n      EQ \t\t\t\n      PUSH [tag] 465\t\t\t\n      JUMPI \t\t\t\n      PUSH 1\t\t\t\n      DUP2 \t\t\t\n      EQ \t\t\t\n      PUSH [tag] 466\t\t\t\n      JUMPI \t\t\t\n      PUSH [tag] 464\t\t\t\n      JUMP \t\t\t\n    tag 465\t\t\t\n      JUMPDEST \t\t\t\n      PUSH FF\t\t\t\n      NOT \t\t\t\n      DUP4 \t\t\t\n      AND \t\t\t\n      DUP7 \t\t\t\n      MSTORE \t\t\t\n      DUP2 \t\t\t\n      ISZERO \t\t\t\n      ISZERO \t\t\t\n      PUSH 20\t\t\t\n      MUL \t\t\t\n      DUP7 \t\t\t\n      ADD \t\t\t\n      SWAP4 \t\t\t\n      POP \t\t\t\n      PUSH [tag] 464\t\t\t\n      JUMP \t\t\t\n    tag 466\t\t\t\n      JUMPDEST \t\t\t\n      PUSH [tag] 467\t\t\t\n      DUP6 \t\t\t\n      PUSH [tag] 168\t\t\t\n      JUMP \t\t\t\n    tag 467\t\t\t\n      JUMPDEST \t\t\t\n      PUSH 0\t\t\t\n    tag 468\t\t\t\n      JUMPDEST \t\t\t\n      DUP4 \t\t\t\n      DUP2 \t\t\t\n      LT \t\t\t\n      ISZERO \t\t\t\n      PUSH [tag] 470\t\t\t\n      JUMPI \t\t\t\n      DUP2 \t\t\t\n      SLOAD \t\t\t\n      DUP2 \t\t\t\n      DUP10 \t\t\t\n      ADD \t\t\t\n      MSTORE \t\t\t\n      PUSH 1\t\t\t\n      DUP3 \t\t\t\n      ADD \t\t\t\n      SWAP2 \t\t\t\n      POP \t\t\t\n      PUSH 20\t\t\t\n      DUP2 \t\t\t\n      ADD \t\t\t\n      SWAP1 \t\t\t\n      POP \t\t\t\n      PUSH [tag] 468\t\t\t\n      JUMP \t\t\t\n    tag 470\t\t\t\n      JUMPDEST \t\t\t\n      DUP1 \t\t\t\n      DUP9 \t\t\t\n      ADD \t\t\t\n      SWAP6 \t\t\t\n      POP \t\t\t\n      POP \t\t\t\n      POP \t\t\t\n    tag 464\t\t\t\n      JUMPDEST \t\t\t\n      POP \t\t\t\n      POP \t\t\t\n      POP \t\t\t\n      SWAP3 \t\t\t\n      SWAP2 \t\t\t\n      POP \t\t\t\n      POP \t\t\t\n      JUMP \t\t\t\n    tag 131\t\t\t\n      JUMPDEST \t\t\t\n      PUSH 0\t\t\t\n      PUSH 60\t\t\t\n      DUP3 \t\t\t\n      ADD \t\t\t\n      SWAP1 \t\t\t\n      POP \t\t\t\n      PUSH [tag] 472\t\t\t\n      PUSH 0\t\t\t\n      DUP4 \t\t\t\n      ADD \t\t\t\n      DUP7 \t\t\t\n      PUSH [tag] 183\t\t\t\n      JUMP \t\t\t\n    tag 472\t\t\t\n      JUMPDEST \t\t\t\n      DUP2 \t\t\t\n      DUP2 \t\t\t\n      SUB \t\t\t\n      PUSH 20\t\t\t\n      DUP4 \t\t\t\n      ADD \t\t\t\n      MSTORE \t\t\t\n      PUSH [tag] 473\t\t\t\n      DUP2 \t\t\t\n      DUP6 \t\t\t\n      PUSH [tag] 206\t\t\t\n      JUMP \t\t\t\n    tag 473\t\t\t\n      JUMPDEST \t\t\t\n      SWAP1 \t\t\t\n      POP \t\t\t\n      DUP2 \t\t\t\n      DUP2 \t\t\t\n      SUB \t\t\t\n      PUSH 40\t\t\t\n      DUP4 \t\t\t\n      ADD \t\t\t\n      MSTORE \t\t\t\n      PUSH [tag] 474\t\t\t\n      DUP2 \t\t\t\n      DUP5 \t\t\t\n      PUSH [tag] 206\t\t\t\n      JUMP \t\t\t\n    tag 474\t\t\t\n      JUMPDEST \t\t\t\n      SWAP1 \t\t\t\n      POP \t\t\t\n      SWAP5 \t\t\t\n      SWAP4 \t\t\t\n      POP \t\t\t\n      POP \t\t\t\n      POP \t\t\t\n      POP \t\t\t\n      JUMP \t\t\t\n    .data\n"
}