{
	"compilerInput": "{\"language\":\"Solidity\",\"sources\":{\"MultiWillContract.sol\":{\"content\":\"// SPDX-License-Identifier: MIT\\npragma solidity ^0.8.19;\\n\\ncontract MultiWillContract {\\n    struct Beneficiary {\\n        address payable wallet;\\n        uint256 percentage; // ETH allocation percentage\\n        string saleDeedIpfsHash; // IPFS hash of the assigned sale deed\\n        string email; // Beneficiary's email\\n    }\\n\\n    struct Will {\\n        address testator;\\n        string firstName;\\n        string lastName;\\n        string testatorEmail;\\n        uint256 totalLocked;\\n        uint256 lastAliveTime;\\n        uint256 proofOfLifeInterval;\\n        bool isDeceased;\\n        string notarizedWillIpfsHash;\\n        Beneficiary[] beneficiaries;\\n    }\\n\\n    mapping(address => Will) private wills;\\n    mapping(address => bool) public hasWill;\\n\\n    event WillCreated(address indexed testator, uint256 lockedFunds);\\n    event WillExecuted(address indexed testator);\\n    event FundsDisbursed(address indexed beneficiary, uint256 amount, string saleDeedIpfsHash, string email, string txnId);\\n\\n    /**\\n     * @dev Creates a new will for the sender.\\n     * @param _firstName First name of the testator.\\n     * @param _lastName Last name of the testator.\\n     * @param _testatorEmail Email of the testator.\\n     * @param _proofOfLifeInterval Time interval in seconds to confirm alive.\\n     * @param _notarizedWillIpfsHash IPFS hash of the notarized will document.\\n     */\\n    function createWill(\\n        string memory _firstName,\\n        string memory _lastName,\\n        string memory _testatorEmail,\\n        uint256 _proofOfLifeInterval,\\n        string memory _notarizedWillIpfsHash\\n    ) public payable {\\n        require(!hasWill[msg.sender], \\\"You already have a will!\\\");\\n        require(msg.value > 0, \\\"Must lock ETH!\\\");\\n\\n        wills[msg.sender].testator = msg.sender;\\n        wills[msg.sender].firstName = _firstName;\\n        wills[msg.sender].lastName = _lastName;\\n        wills[msg.sender].testatorEmail = _testatorEmail;\\n        wills[msg.sender].totalLocked = msg.value;\\n        wills[msg.sender].lastAliveTime = block.timestamp;\\n        wills[msg.sender].proofOfLifeInterval = _proofOfLifeInterval;\\n        wills[msg.sender].isDeceased = false;\\n        wills[msg.sender].notarizedWillIpfsHash = _notarizedWillIpfsHash;\\n        hasWill[msg.sender] = true;\\n\\n        emit WillCreated(msg.sender, msg.value);\\n    }\\n\\n    /**\\n     * @dev Adds a beneficiary to the caller's will.\\n     * @param _wallet Address of the beneficiary.\\n     * @param _percentage Share of ETH to be allocated.\\n     * @param _saleDeedIpfsHash IPFS hash of the sale deed document assigned to the beneficiary.\\n     * @param _email Email of the beneficiary.\\n     */\\n    function addBeneficiary(\\n        address payable _wallet,\\n        uint256 _percentage,\\n        string memory _saleDeedIpfsHash,\\n        string memory _email\\n    ) public {\\n        require(hasWill[msg.sender], \\\"You need to create a will first\\\");\\n        require(_percentage > 0 && _percentage <= 100, \\\"Invalid percentage\\\");\\n\\n        uint256 totalPercentage = 0;\\n        for (uint i = 0; i < wills[msg.sender].beneficiaries.length; i++) {\\n            totalPercentage += wills[msg.sender].beneficiaries[i].percentage;\\n        }\\n        require(totalPercentage + _percentage <= 100, \\\"Total allocation exceeds 100%\\\");\\n\\n        wills[msg.sender].beneficiaries.push(\\n            Beneficiary(_wallet, _percentage, _saleDeedIpfsHash, _email)\\n        );\\n    }\\n\\n    /**\\n     * @dev Executes the will by distributing ETH and triggering email notifications.\\n     */\\n    function executeWill(address user) public {\\n        require(hasWill[user], \\\"No will found!\\\");\\n        require(block.timestamp > wills[user].lastAliveTime + wills[user].proofOfLifeInterval, \\\"Owner is still alive!\\\");\\n        require(!wills[user].isDeceased, \\\"Will already executed!\\\");\\n\\n        wills[user].isDeceased = true;\\n\\n        for (uint i = 0; i < wills[user].beneficiaries.length; i++) {\\n            Beneficiary storage beneficiary = wills[user].beneficiaries[i];\\n\\n            uint256 amount = (wills[user].totalLocked * beneficiary.percentage) / 100;\\n            beneficiary.wallet.transfer(amount);\\n\\n            // Emit event with transaction details (used by backend to send emails)\\n            emit FundsDisbursed(beneficiary.wallet, amount, beneficiary.saleDeedIpfsHash, beneficiary.email, \\\"\\\"); \\n        }\\n\\n        wills[user].totalLocked = 0;\\n        emit WillExecuted(user);\\n    }\\n}\\n\"}},\"settings\":{\"optimizer\":{\"enabled\":false,\"runs\":200},\"outputSelection\":{\"*\":{\"\":[\"ast\"],\"*\":[\"abi\",\"metadata\",\"devdoc\",\"userdoc\",\"storageLayout\",\"evm.legacyAssembly\",\"evm.bytecode\",\"evm.deployedBytecode\",\"evm.methodIdentifiers\",\"evm.gasEstimates\",\"evm.assembly\"]}},\"remappings\":[]}}",
	"name": "MultiWillContract",
	"bytecode": {
		"linkReferences": {},
		"object": "6080604052348015600e575f80fd5b506119b48061001c5f395ff3fe60806040526004361061003e575f3560e01c80634ebde6d314610042578063549cc7b81461006a578063dd958b12146100a6578063e854d135146100c2575b5f80fd5b34801561004d575f80fd5b5061006860048036038101906100639190610ef2565b6100ea565b005b348015610075575f80fd5b50610090600480360381019061008b9190610fc9565b6103f9565b60405161009d919061100e565b60405180910390f35b6100c060048036038101906100bb9190611027565b610416565b005b3480156100cd575f80fd5b506100e860048036038101906100e39190610fc9565b61085d565b005b60015f3373ffffffffffffffffffffffffffffffffffffffff1673ffffffffffffffffffffffffffffffffffffffff1681526020019081526020015f205f9054906101000a900460ff16610173576040517f08c379a000000000000000000000000000000000000000000000000000000000815260040161016a90611168565b60405180910390fd5b5f83118015610183575060648311155b6101c2576040517f08c379a00000000000000000000000000000000000000000000000000000000081526004016101b9906111d0565b60405180910390fd5b5f805b5f803373ffffffffffffffffffffffffffffffffffffffff1673ffffffffffffffffffffffffffffffffffffffff1681526020019081526020015f206009018054905081101561028a575f803373ffffffffffffffffffffffffffffffffffffffff1673ffffffffffffffffffffffffffffffffffffffff1681526020019081526020015f2060090181815481106102605761025f6111ee565b5b905f5260205f209060040201600101548261027b9190611248565b915080806001019150506101c5565b50606484826102999190611248565b11156102da576040517f08c379a00000000000000000000000000000000000000000000000000000000081526004016102d1906112c5565b60405180910390fd5b5f803373ffffffffffffffffffffffffffffffffffffffff1673ffffffffffffffffffffffffffffffffffffffff1681526020019081526020015f2060090160405180608001604052808773ffffffffffffffffffffffffffffffffffffffff16815260200186815260200185815260200184815250908060018154018082558091505060019003905f5260205f2090600402015f909190919091505f820151815f015f6101000a81548173ffffffffffffffffffffffffffffffffffffffff021916908373ffffffffffffffffffffffffffffffffffffffff1602179055506020820151816001015560408201518160020190816103d991906114e7565b5060608201518160030190816103ef91906114e7565b5050505050505050565b6001602052805f5260405f205f915054906101000a900460ff1681565b60015f3373ffffffffffffffffffffffffffffffffffffffff1673ffffffffffffffffffffffffffffffffffffffff1681526020019081526020015f205f9054906101000a900460ff16156104a0576040517f08c379a000000000000000000000000000000000000000000000000000000000815260040161049790611600565b60405180910390fd5b5f34116104e2576040517f08c379a00000000000000000000000000000000000000000000000000000000081526004016104d990611668565b60405180910390fd5b335f803373ffffffffffffffffffffffffffffffffffffffff1673ffffffffffffffffffffffffffffffffffffffff1681526020019081526020015f205f015f6101000a81548173ffffffffffffffffffffffffffffffffffffffff021916908373ffffffffffffffffffffffffffffffffffffffff160217905550845f803373ffffffffffffffffffffffffffffffffffffffff1673ffffffffffffffffffffffffffffffffffffffff1681526020019081526020015f2060010190816105aa91906114e7565b50835f803373ffffffffffffffffffffffffffffffffffffffff1673ffffffffffffffffffffffffffffffffffffffff1681526020019081526020015f2060020190816105f791906114e7565b50825f803373ffffffffffffffffffffffffffffffffffffffff1673ffffffffffffffffffffffffffffffffffffffff1681526020019081526020015f20600301908161064491906114e7565b50345f803373ffffffffffffffffffffffffffffffffffffffff1673ffffffffffffffffffffffffffffffffffffffff1681526020019081526020015f2060040181905550425f803373ffffffffffffffffffffffffffffffffffffffff1673ffffffffffffffffffffffffffffffffffffffff1681526020019081526020015f2060050181905550815f803373ffffffffffffffffffffffffffffffffffffffff1673ffffffffffffffffffffffffffffffffffffffff1681526020019081526020015f20600601819055505f805f3373ffffffffffffffffffffffffffffffffffffffff1673ffffffffffffffffffffffffffffffffffffffff1681526020019081526020015f206007015f6101000a81548160ff021916908315150217905550805f803373ffffffffffffffffffffffffffffffffffffffff1673ffffffffffffffffffffffffffffffffffffffff1681526020019081526020015f2060080190816107b391906114e7565b506001805f3373ffffffffffffffffffffffffffffffffffffffff1673ffffffffffffffffffffffffffffffffffffffff1681526020019081526020015f205f6101000a81548160ff0219169083151502179055503373ffffffffffffffffffffffffffffffffffffffff167fd40dc4a639c90600691397f655099adba04d6b763ef2122630edd47c09f1b6f93460405161084e9190611695565b60405180910390a25050505050565b60015f8273ffffffffffffffffffffffffffffffffffffffff1673ffffffffffffffffffffffffffffffffffffffff1681526020019081526020015f205f9054906101000a900460ff166108e6576040517f08c379a00000000000000000000000000000000000000000000000000000000081526004016108dd906116f8565b60405180910390fd5b5f808273ffffffffffffffffffffffffffffffffffffffff1673ffffffffffffffffffffffffffffffffffffffff1681526020019081526020015f20600601545f808373ffffffffffffffffffffffffffffffffffffffff1673ffffffffffffffffffffffffffffffffffffffff1681526020019081526020015f20600501546109709190611248565b42116109b1576040517f08c379a00000000000000000000000000000000000000000000000000000000081526004016109a890611760565b60405180910390fd5b5f808273ffffffffffffffffffffffffffffffffffffffff1673ffffffffffffffffffffffffffffffffffffffff1681526020019081526020015f206007015f9054906101000a900460ff1615610a3d576040517f08c379a0000000000000000000000000000000000000000000000000000000008152600401610a34906117c8565b60405180910390fd5b60015f808373ffffffffffffffffffffffffffffffffffffffff1673ffffffffffffffffffffffffffffffffffffffff1681526020019081526020015f206007015f6101000a81548160ff0219169083151502179055505f5b5f808373ffffffffffffffffffffffffffffffffffffffff1673ffffffffffffffffffffffffffffffffffffffff1681526020019081526020015f2060090180549050811015610c8d575f805f8473ffffffffffffffffffffffffffffffffffffffff1673ffffffffffffffffffffffffffffffffffffffff1681526020019081526020015f206009018281548110610b3257610b316111ee565b5b905f5260205f20906004020190505f606482600101545f808773ffffffffffffffffffffffffffffffffffffffff1673ffffffffffffffffffffffffffffffffffffffff1681526020019081526020015f2060040154610b9291906117e6565b610b9c9190611854565b9050815f015f9054906101000a900473ffffffffffffffffffffffffffffffffffffffff1673ffffffffffffffffffffffffffffffffffffffff166108fc8290811502906040515f60405180830381858888f19350505050158015610c03573d5f803e3d5ffd5b50815f015f9054906101000a900473ffffffffffffffffffffffffffffffffffffffff1673ffffffffffffffffffffffffffffffffffffffff167f263d976337b68011634fb07c07212194969a5f466acefb29ee0bc9dae990bf06828460020185600301604051610c7693929190611928565b60405180910390a250508080600101915050610a96565b505f805f8373ffffffffffffffffffffffffffffffffffffffff1673ffffffffffffffffffffffffffffffffffffffff1681526020019081526020015f20600401819055508073ffffffffffffffffffffffffffffffffffffffff167f16346f65adf8d84422b57ad74cb5607bf6c9e55c3c1fea66344057e5bba8a7ee60405160405180910390a250565b5f604051905090565b5f80fd5b5f80fd5b5f73ffffffffffffffffffffffffffffffffffffffff82169050919050565b5f610d5282610d29565b9050919050565b610d6281610d48565b8114610d6c575f80fd5b50565b5f81359050610d7d81610d59565b92915050565b5f819050919050565b610d9581610d83565b8114610d9f575f80fd5b50565b5f81359050610db081610d8c565b92915050565b5f80fd5b5f80fd5b5f601f19601f8301169050919050565b7f4e487b71000000000000000000000000000000000000000000000000000000005f52604160045260245ffd5b610e0482610dbe565b810181811067ffffffffffffffff82111715610e2357610e22610dce565b5b80604052505050565b5f610e35610d18565b9050610e418282610dfb565b919050565b5f67ffffffffffffffff821115610e6057610e5f610dce565b5b610e6982610dbe565b9050602081019050919050565b828183375f83830152505050565b5f610e96610e9184610e46565b610e2c565b905082815260208101848484011115610eb257610eb1610dba565b5b610ebd848285610e76565b509392505050565b5f82601f830112610ed957610ed8610db6565b5b8135610ee9848260208601610e84565b91505092915050565b5f805f8060808587031215610f0a57610f09610d21565b5b5f610f1787828801610d6f565b9450506020610f2887828801610da2565b935050604085013567ffffffffffffffff811115610f4957610f48610d25565b5b610f5587828801610ec5565b925050606085013567ffffffffffffffff811115610f7657610f75610d25565b5b610f8287828801610ec5565b91505092959194509250565b5f610f9882610d29565b9050919050565b610fa881610f8e565b8114610fb2575f80fd5b50565b5f81359050610fc381610f9f565b92915050565b5f60208284031215610fde57610fdd610d21565b5b5f610feb84828501610fb5565b91505092915050565b5f8115159050919050565b61100881610ff4565b82525050565b5f6020820190506110215f830184610fff565b92915050565b5f805f805f60a086880312156110405761103f610d21565b5b5f86013567ffffffffffffffff81111561105d5761105c610d25565b5b61106988828901610ec5565b955050602086013567ffffffffffffffff81111561108a57611089610d25565b5b61109688828901610ec5565b945050604086013567ffffffffffffffff8111156110b7576110b6610d25565b5b6110c388828901610ec5565b93505060606110d488828901610da2565b925050608086013567ffffffffffffffff8111156110f5576110f4610d25565b5b61110188828901610ec5565b9150509295509295909350565b5f82825260208201905092915050565b7f596f75206e65656420746f2063726561746520612077696c6c206669727374005f82015250565b5f611152601f8361110e565b915061115d8261111e565b602082019050919050565b5f6020820190508181035f83015261117f81611146565b9050919050565b7f496e76616c69642070657263656e7461676500000000000000000000000000005f82015250565b5f6111ba60128361110e565b91506111c582611186565b602082019050919050565b5f6020820190508181035f8301526111e7816111ae565b9050919050565b7f4e487b71000000000000000000000000000000000000000000000000000000005f52603260045260245ffd5b7f4e487b71000000000000000000000000000000000000000000000000000000005f52601160045260245ffd5b5f61125282610d83565b915061125d83610d83565b92508282019050808211156112755761127461121b565b5b92915050565b7f546f74616c20616c6c6f636174696f6e206578636565647320313030250000005f82015250565b5f6112af601d8361110e565b91506112ba8261127b565b602082019050919050565b5f6020820190508181035f8301526112dc816112a3565b9050919050565b5f81519050919050565b7f4e487b71000000000000000000000000000000000000000000000000000000005f52602260045260245ffd5b5f600282049050600182168061133157607f821691505b602082108103611344576113436112ed565b5b50919050565b5f819050815f5260205f209050919050565b5f6020601f8301049050919050565b5f82821b905092915050565b5f600883026113a67fffffffffffffffffffffffffffffffffffffffffffffffffffffffffffffffff8261136b565b6113b0868361136b565b95508019841693508086168417925050509392505050565b5f819050919050565b5f6113eb6113e66113e184610d83565b6113c8565b610d83565b9050919050565b5f819050919050565b611404836113d1565b611418611410826113f2565b848454611377565b825550505050565b5f90565b61142c611420565b6114378184846113fb565b505050565b5b8181101561145a5761144f5f82611424565b60018101905061143d565b5050565b601f82111561149f576114708161134a565b6114798461135c565b81016020851015611488578190505b61149c6114948561135c565b83018261143c565b50505b505050565b5f82821c905092915050565b5f6114bf5f19846008026114a4565b1980831691505092915050565b5f6114d783836114b0565b9150826002028217905092915050565b6114f0826112e3565b67ffffffffffffffff81111561150957611508610dce565b5b611513825461131a565b61151e82828561145e565b5f60209050601f83116001811461154f575f841561153d578287015190505b61154785826114cc565b8655506115ae565b601f19841661155d8661134a565b5f5b828110156115845784890151825560018201915060208501945060208101905061155f565b868310156115a1578489015161159d601f8916826114b0565b8355505b6001600288020188555050505b505050505050565b7f596f7520616c7265616479206861766520612077696c6c2100000000000000005f82015250565b5f6115ea60188361110e565b91506115f5826115b6565b602082019050919050565b5f6020820190508181035f830152611617816115de565b9050919050565b7f4d757374206c6f636b20455448210000000000000000000000000000000000005f82015250565b5f611652600e8361110e565b915061165d8261161e565b602082019050919050565b5f6020820190508181035f83015261167f81611646565b9050919050565b61168f81610d83565b82525050565b5f6020820190506116a85f830184611686565b92915050565b7f4e6f2077696c6c20666f756e64210000000000000000000000000000000000005f82015250565b5f6116e2600e8361110e565b91506116ed826116ae565b602082019050919050565b5f6020820190508181035f83015261170f816116d6565b9050919050565b7f4f776e6572206973207374696c6c20616c6976652100000000000000000000005f82015250565b5f61174a60158361110e565b915061175582611716565b602082019050919050565b5f6020820190508181035f8301526117778161173e565b9050919050565b7f57696c6c20616c726561647920657865637574656421000000000000000000005f82015250565b5f6117b260168361110e565b91506117bd8261177e565b602082019050919050565b5f6020820190508181035f8301526117df816117a6565b9050919050565b5f6117f082610d83565b91506117fb83610d83565b925082820261180981610d83565b915082820484148315176118205761181f61121b565b5b5092915050565b7f4e487b71000000000000000000000000000000000000000000000000000000005f52601260045260245ffd5b5f61185e82610d83565b915061186983610d83565b92508261187957611878611827565b5b828204905092915050565b5f81546118908161131a565b61189a818661110e565b9450600182165f81146118b457600181146118ca576118fc565b60ff1983168652811515602002860193506118fc565b6118d38561134a565b5f5b838110156118f4578154818901526001820191506020810190506118d5565b808801955050505b50505092915050565b50565b5f6119135f8361110e565b915061191e82611905565b5f82019050919050565b5f60808201905061193b5f830186611686565b818103602083015261194d8185611884565b905081810360408301526119618184611884565b9050818103606083015261197481611908565b905094935050505056fea26469706673582212204c22eb30293805f6bafdc8666266f52e161112a572ec5754099ab07c54f8fa2364736f6c634300081a0033",
		"opcodes": "PUSH1 0x80 PUSH1 0x40 MSTORE CALLVALUE DUP1 ISZERO PUSH1 0xE JUMPI PUSH0 DUP1 REVERT JUMPDEST POP PUSH2 0x19B4 DUP1 PUSH2 0x1C PUSH0 CODECOPY PUSH0 RETURN INVALID PUSH1 0x80 PUSH1 0x40 MSTORE PUSH1 0x4 CALLDATASIZE LT PUSH2 0x3E JUMPI PUSH0 CALLDATALOAD PUSH1 0xE0 SHR DUP1 PUSH4 0x4EBDE6D3 EQ PUSH2 0x42 JUMPI DUP1 PUSH4 0x549CC7B8 EQ PUSH2 0x6A JUMPI DUP1 PUSH4 0xDD958B12 EQ PUSH2 0xA6 JUMPI DUP1 PUSH4 0xE854D135 EQ PUSH2 0xC2 JUMPI JUMPDEST PUSH0 DUP1 REVERT JUMPDEST CALLVALUE DUP1 ISZERO PUSH2 0x4D JUMPI PUSH0 DUP1 REVERT JUMPDEST POP PUSH2 0x68 PUSH1 0x4 DUP1 CALLDATASIZE SUB DUP2 ADD SWAP1 PUSH2 0x63 SWAP2 SWAP1 PUSH2 0xEF2 JUMP JUMPDEST PUSH2 0xEA JUMP JUMPDEST STOP JUMPDEST CALLVALUE DUP1 ISZERO PUSH2 0x75 JUMPI PUSH0 DUP1 REVERT JUMPDEST POP PUSH2 0x90 PUSH1 0x4 DUP1 CALLDATASIZE SUB DUP2 ADD SWAP1 PUSH2 0x8B SWAP2 SWAP1 PUSH2 0xFC9 JUMP JUMPDEST PUSH2 0x3F9 JUMP JUMPDEST PUSH1 0x40 MLOAD PUSH2 0x9D SWAP2 SWAP1 PUSH2 0x100E JUMP JUMPDEST PUSH1 0x40 MLOAD DUP1 SWAP2 SUB SWAP1 RETURN JUMPDEST PUSH2 0xC0 PUSH1 0x4 DUP1 CALLDATASIZE SUB DUP2 ADD SWAP1 PUSH2 0xBB SWAP2 SWAP1 PUSH2 0x1027 JUMP JUMPDEST PUSH2 0x416 JUMP JUMPDEST STOP JUMPDEST CALLVALUE DUP1 ISZERO PUSH2 0xCD JUMPI PUSH0 DUP1 REVERT JUMPDEST POP PUSH2 0xE8 PUSH1 0x4 DUP1 CALLDATASIZE SUB DUP2 ADD SWAP1 PUSH2 0xE3 SWAP2 SWAP1 PUSH2 0xFC9 JUMP JUMPDEST PUSH2 0x85D JUMP JUMPDEST STOP JUMPDEST PUSH1 0x1 PUSH0 CALLER PUSH20 0xFFFFFFFFFFFFFFFFFFFFFFFFFFFFFFFFFFFFFFFF AND PUSH20 0xFFFFFFFFFFFFFFFFFFFFFFFFFFFFFFFFFFFFFFFF AND DUP2 MSTORE PUSH1 0x20 ADD SWAP1 DUP2 MSTORE PUSH1 0x20 ADD PUSH0 KECCAK256 PUSH0 SWAP1 SLOAD SWAP1 PUSH2 0x100 EXP SWAP1 DIV PUSH1 0xFF AND PUSH2 0x173 JUMPI PUSH1 0x40 MLOAD PUSH32 0x8C379A000000000000000000000000000000000000000000000000000000000 DUP2 MSTORE PUSH1 0x4 ADD PUSH2 0x16A SWAP1 PUSH2 0x1168 JUMP JUMPDEST PUSH1 0x40 MLOAD DUP1 SWAP2 SUB SWAP1 REVERT JUMPDEST PUSH0 DUP4 GT DUP1 ISZERO PUSH2 0x183 JUMPI POP PUSH1 0x64 DUP4 GT ISZERO JUMPDEST PUSH2 0x1C2 JUMPI PUSH1 0x40 MLOAD PUSH32 0x8C379A000000000000000000000000000000000000000000000000000000000 DUP2 MSTORE PUSH1 0x4 ADD PUSH2 0x1B9 SWAP1 PUSH2 0x11D0 JUMP JUMPDEST PUSH1 0x40 MLOAD DUP1 SWAP2 SUB SWAP1 REVERT JUMPDEST PUSH0 DUP1 JUMPDEST PUSH0 DUP1 CALLER PUSH20 0xFFFFFFFFFFFFFFFFFFFFFFFFFFFFFFFFFFFFFFFF AND PUSH20 0xFFFFFFFFFFFFFFFFFFFFFFFFFFFFFFFFFFFFFFFF AND DUP2 MSTORE PUSH1 0x20 ADD SWAP1 DUP2 MSTORE PUSH1 0x20 ADD PUSH0 KECCAK256 PUSH1 0x9 ADD DUP1 SLOAD SWAP1 POP DUP2 LT ISZERO PUSH2 0x28A JUMPI PUSH0 DUP1 CALLER PUSH20 0xFFFFFFFFFFFFFFFFFFFFFFFFFFFFFFFFFFFFFFFF AND PUSH20 0xFFFFFFFFFFFFFFFFFFFFFFFFFFFFFFFFFFFFFFFF AND DUP2 MSTORE PUSH1 0x20 ADD SWAP1 DUP2 MSTORE PUSH1 0x20 ADD PUSH0 KECCAK256 PUSH1 0x9 ADD DUP2 DUP2 SLOAD DUP2 LT PUSH2 0x260 JUMPI PUSH2 0x25F PUSH2 0x11EE JUMP JUMPDEST JUMPDEST SWAP1 PUSH0 MSTORE PUSH1 0x20 PUSH0 KECCAK256 SWAP1 PUSH1 0x4 MUL ADD PUSH1 0x1 ADD SLOAD DUP3 PUSH2 0x27B SWAP2 SWAP1 PUSH2 0x1248 JUMP JUMPDEST SWAP2 POP DUP1 DUP1 PUSH1 0x1 ADD SWAP2 POP POP PUSH2 0x1C5 JUMP JUMPDEST POP PUSH1 0x64 DUP5 DUP3 PUSH2 0x299 SWAP2 SWAP1 PUSH2 0x1248 JUMP JUMPDEST GT ISZERO PUSH2 0x2DA JUMPI PUSH1 0x40 MLOAD PUSH32 0x8C379A000000000000000000000000000000000000000000000000000000000 DUP2 MSTORE PUSH1 0x4 ADD PUSH2 0x2D1 SWAP1 PUSH2 0x12C5 JUMP JUMPDEST PUSH1 0x40 MLOAD DUP1 SWAP2 SUB SWAP1 REVERT JUMPDEST PUSH0 DUP1 CALLER PUSH20 0xFFFFFFFFFFFFFFFFFFFFFFFFFFFFFFFFFFFFFFFF AND PUSH20 0xFFFFFFFFFFFFFFFFFFFFFFFFFFFFFFFFFFFFFFFF AND DUP2 MSTORE PUSH1 0x20 ADD SWAP1 DUP2 MSTORE PUSH1 0x20 ADD PUSH0 KECCAK256 PUSH1 0x9 ADD PUSH1 0x40 MLOAD DUP1 PUSH1 0x80 ADD PUSH1 0x40 MSTORE DUP1 DUP8 PUSH20 0xFFFFFFFFFFFFFFFFFFFFFFFFFFFFFFFFFFFFFFFF AND DUP2 MSTORE PUSH1 0x20 ADD DUP7 DUP2 MSTORE PUSH1 0x20 ADD DUP6 DUP2 MSTORE PUSH1 0x20 ADD DUP5 DUP2 MSTORE POP SWAP1 DUP1 PUSH1 0x1 DUP2 SLOAD ADD DUP1 DUP3 SSTORE DUP1 SWAP2 POP POP PUSH1 0x1 SWAP1 SUB SWAP1 PUSH0 MSTORE PUSH1 0x20 PUSH0 KECCAK256 SWAP1 PUSH1 0x4 MUL ADD PUSH0 SWAP1 SWAP2 SWAP1 SWAP2 SWAP1 SWAP2 POP PUSH0 DUP3 ADD MLOAD DUP2 PUSH0 ADD PUSH0 PUSH2 0x100 EXP DUP2 SLOAD DUP2 PUSH20 0xFFFFFFFFFFFFFFFFFFFFFFFFFFFFFFFFFFFFFFFF MUL NOT AND SWAP1 DUP4 PUSH20 0xFFFFFFFFFFFFFFFFFFFFFFFFFFFFFFFFFFFFFFFF AND MUL OR SWAP1 SSTORE POP PUSH1 0x20 DUP3 ADD MLOAD DUP2 PUSH1 0x1 ADD SSTORE PUSH1 0x40 DUP3 ADD MLOAD DUP2 PUSH1 0x2 ADD SWAP1 DUP2 PUSH2 0x3D9 SWAP2 SWAP1 PUSH2 0x14E7 JUMP JUMPDEST POP PUSH1 0x60 DUP3 ADD MLOAD DUP2 PUSH1 0x3 ADD SWAP1 DUP2 PUSH2 0x3EF SWAP2 SWAP1 PUSH2 0x14E7 JUMP JUMPDEST POP POP POP POP POP POP POP POP JUMP JUMPDEST PUSH1 0x1 PUSH1 0x20 MSTORE DUP1 PUSH0 MSTORE PUSH1 0x40 PUSH0 KECCAK256 PUSH0 SWAP2 POP SLOAD SWAP1 PUSH2 0x100 EXP SWAP1 DIV PUSH1 0xFF AND DUP2 JUMP JUMPDEST PUSH1 0x1 PUSH0 CALLER PUSH20 0xFFFFFFFFFFFFFFFFFFFFFFFFFFFFFFFFFFFFFFFF AND PUSH20 0xFFFFFFFFFFFFFFFFFFFFFFFFFFFFFFFFFFFFFFFF AND DUP2 MSTORE PUSH1 0x20 ADD SWAP1 DUP2 MSTORE PUSH1 0x20 ADD PUSH0 KECCAK256 PUSH0 SWAP1 SLOAD SWAP1 PUSH2 0x100 EXP SWAP1 DIV PUSH1 0xFF AND ISZERO PUSH2 0x4A0 JUMPI PUSH1 0x40 MLOAD PUSH32 0x8C379A000000000000000000000000000000000000000000000000000000000 DUP2 MSTORE PUSH1 0x4 ADD PUSH2 0x497 SWAP1 PUSH2 0x1600 JUMP JUMPDEST PUSH1 0x40 MLOAD DUP1 SWAP2 SUB SWAP1 REVERT JUMPDEST PUSH0 CALLVALUE GT PUSH2 0x4E2 JUMPI PUSH1 0x40 MLOAD PUSH32 0x8C379A000000000000000000000000000000000000000000000000000000000 DUP2 MSTORE PUSH1 0x4 ADD PUSH2 0x4D9 SWAP1 PUSH2 0x1668 JUMP JUMPDEST PUSH1 0x40 MLOAD DUP1 SWAP2 SUB SWAP1 REVERT JUMPDEST CALLER PUSH0 DUP1 CALLER PUSH20 0xFFFFFFFFFFFFFFFFFFFFFFFFFFFFFFFFFFFFFFFF AND PUSH20 0xFFFFFFFFFFFFFFFFFFFFFFFFFFFFFFFFFFFFFFFF AND DUP2 MSTORE PUSH1 0x20 ADD SWAP1 DUP2 MSTORE PUSH1 0x20 ADD PUSH0 KECCAK256 PUSH0 ADD PUSH0 PUSH2 0x100 EXP DUP2 SLOAD DUP2 PUSH20 0xFFFFFFFFFFFFFFFFFFFFFFFFFFFFFFFFFFFFFFFF MUL NOT AND SWAP1 DUP4 PUSH20 0xFFFFFFFFFFFFFFFFFFFFFFFFFFFFFFFFFFFFFFFF AND MUL OR SWAP1 SSTORE POP DUP5 PUSH0 DUP1 CALLER PUSH20 0xFFFFFFFFFFFFFFFFFFFFFFFFFFFFFFFFFFFFFFFF AND PUSH20 0xFFFFFFFFFFFFFFFFFFFFFFFFFFFFFFFFFFFFFFFF AND DUP2 MSTORE PUSH1 0x20 ADD SWAP1 DUP2 MSTORE PUSH1 0x20 ADD PUSH0 KECCAK256 PUSH1 0x1 ADD SWAP1 DUP2 PUSH2 0x5AA SWAP2 SWAP1 PUSH2 0x14E7 JUMP JUMPDEST POP DUP4 PUSH0 DUP1 CALLER PUSH20 0xFFFFFFFFFFFFFFFFFFFFFFFFFFFFFFFFFFFFFFFF AND PUSH20 0xFFFFFFFFFFFFFFFFFFFFFFFFFFFFFFFFFFFFFFFF AND DUP2 MSTORE PUSH1 0x20 ADD SWAP1 DUP2 MSTORE PUSH1 0x20 ADD PUSH0 KECCAK256 PUSH1 0x2 ADD SWAP1 DUP2 PUSH2 0x5F7 SWAP2 SWAP1 PUSH2 0x14E7 JUMP JUMPDEST POP DUP3 PUSH0 DUP1 CALLER PUSH20 0xFFFFFFFFFFFFFFFFFFFFFFFFFFFFFFFFFFFFFFFF AND PUSH20 0xFFFFFFFFFFFFFFFFFFFFFFFFFFFFFFFFFFFFFFFF AND DUP2 MSTORE PUSH1 0x20 ADD SWAP1 DUP2 MSTORE PUSH1 0x20 ADD PUSH0 KECCAK256 PUSH1 0x3 ADD SWAP1 DUP2 PUSH2 0x644 SWAP2 SWAP1 PUSH2 0x14E7 JUMP JUMPDEST POP CALLVALUE PUSH0 DUP1 CALLER PUSH20 0xFFFFFFFFFFFFFFFFFFFFFFFFFFFFFFFFFFFFFFFF AND PUSH20 0xFFFFFFFFFFFFFFFFFFFFFFFFFFFFFFFFFFFFFFFF AND DUP2 MSTORE PUSH1 0x20 ADD SWAP1 DUP2 MSTORE PUSH1 0x20 ADD PUSH0 KECCAK256 PUSH1 0x4 ADD DUP2 SWAP1 SSTORE POP TIMESTAMP PUSH0 DUP1 CALLER PUSH20 0xFFFFFFFFFFFFFFFFFFFFFFFFFFFFFFFFFFFFFFFF AND PUSH20 0xFFFFFFFFFFFFFFFFFFFFFFFFFFFFFFFFFFFFFFFF AND DUP2 MSTORE PUSH1 0x20 ADD SWAP1 DUP2 MSTORE PUSH1 0x20 ADD PUSH0 KECCAK256 PUSH1 0x5 ADD DUP2 SWAP1 SSTORE POP DUP2 PUSH0 DUP1 CALLER PUSH20 0xFFFFFFFFFFFFFFFFFFFFFFFFFFFFFFFFFFFFFFFF AND PUSH20 0xFFFFFFFFFFFFFFFFFFFFFFFFFFFFFFFFFFFFFFFF AND DUP2 MSTORE PUSH1 0x20 ADD SWAP1 DUP2 MSTORE PUSH1 0x20 ADD PUSH0 KECCAK256 PUSH1 0x6 ADD DUP2 SWAP1 SSTORE POP PUSH0 DUP1 PUSH0 CALLER PUSH20 0xFFFFFFFFFFFFFFFFFFFFFFFFFFFFFFFFFFFFFFFF AND PUSH20 0xFFFFFFFFFFFFFFFFFFFFFFFFFFFFFFFFFFFFFFFF AND DUP2 MSTORE PUSH1 0x20 ADD SWAP1 DUP2 MSTORE PUSH1 0x20 ADD PUSH0 KECCAK256 PUSH1 0x7 ADD PUSH0 PUSH2 0x100 EXP DUP2 SLOAD DUP2 PUSH1 0xFF MUL NOT AND SWAP1 DUP4 ISZERO ISZERO MUL OR SWAP1 SSTORE POP DUP1 PUSH0 DUP1 CALLER PUSH20 0xFFFFFFFFFFFFFFFFFFFFFFFFFFFFFFFFFFFFFFFF AND PUSH20 0xFFFFFFFFFFFFFFFFFFFFFFFFFFFFFFFFFFFFFFFF AND DUP2 MSTORE PUSH1 0x20 ADD SWAP1 DUP2 MSTORE PUSH1 0x20 ADD PUSH0 KECCAK256 PUSH1 0x8 ADD SWAP1 DUP2 PUSH2 0x7B3 SWAP2 SWAP1 PUSH2 0x14E7 JUMP JUMPDEST POP PUSH1 0x1 DUP1 PUSH0 CALLER PUSH20 0xFFFFFFFFFFFFFFFFFFFFFFFFFFFFFFFFFFFFFFFF AND PUSH20 0xFFFFFFFFFFFFFFFFFFFFFFFFFFFFFFFFFFFFFFFF AND DUP2 MSTORE PUSH1 0x20 ADD SWAP1 DUP2 MSTORE PUSH1 0x20 ADD PUSH0 KECCAK256 PUSH0 PUSH2 0x100 EXP DUP2 SLOAD DUP2 PUSH1 0xFF MUL NOT AND SWAP1 DUP4 ISZERO ISZERO MUL OR SWAP1 SSTORE POP CALLER PUSH20 0xFFFFFFFFFFFFFFFFFFFFFFFFFFFFFFFFFFFFFFFF AND PUSH32 0xD40DC4A639C90600691397F655099ADBA04D6B763EF2122630EDD47C09F1B6F9 CALLVALUE PUSH1 0x40 MLOAD PUSH2 0x84E SWAP2 SWAP1 PUSH2 0x1695 JUMP JUMPDEST PUSH1 0x40 MLOAD DUP1 SWAP2 SUB SWAP1 LOG2 POP POP POP POP POP JUMP JUMPDEST PUSH1 0x1 PUSH0 DUP3 PUSH20 0xFFFFFFFFFFFFFFFFFFFFFFFFFFFFFFFFFFFFFFFF AND PUSH20 0xFFFFFFFFFFFFFFFFFFFFFFFFFFFFFFFFFFFFFFFF AND DUP2 MSTORE PUSH1 0x20 ADD SWAP1 DUP2 MSTORE PUSH1 0x20 ADD PUSH0 KECCAK256 PUSH0 SWAP1 SLOAD SWAP1 PUSH2 0x100 EXP SWAP1 DIV PUSH1 0xFF AND PUSH2 0x8E6 JUMPI PUSH1 0x40 MLOAD PUSH32 0x8C379A000000000000000000000000000000000000000000000000000000000 DUP2 MSTORE PUSH1 0x4 ADD PUSH2 0x8DD SWAP1 PUSH2 0x16F8 JUMP JUMPDEST PUSH1 0x40 MLOAD DUP1 SWAP2 SUB SWAP1 REVERT JUMPDEST PUSH0 DUP1 DUP3 PUSH20 0xFFFFFFFFFFFFFFFFFFFFFFFFFFFFFFFFFFFFFFFF AND PUSH20 0xFFFFFFFFFFFFFFFFFFFFFFFFFFFFFFFFFFFFFFFF AND DUP2 MSTORE PUSH1 0x20 ADD SWAP1 DUP2 MSTORE PUSH1 0x20 ADD PUSH0 KECCAK256 PUSH1 0x6 ADD SLOAD PUSH0 DUP1 DUP4 PUSH20 0xFFFFFFFFFFFFFFFFFFFFFFFFFFFFFFFFFFFFFFFF AND PUSH20 0xFFFFFFFFFFFFFFFFFFFFFFFFFFFFFFFFFFFFFFFF AND DUP2 MSTORE PUSH1 0x20 ADD SWAP1 DUP2 MSTORE PUSH1 0x20 ADD PUSH0 KECCAK256 PUSH1 0x5 ADD SLOAD PUSH2 0x970 SWAP2 SWAP1 PUSH2 0x1248 JUMP JUMPDEST TIMESTAMP GT PUSH2 0x9B1 JUMPI PUSH1 0x40 MLOAD PUSH32 0x8C379A000000000000000000000000000000000000000000000000000000000 DUP2 MSTORE PUSH1 0x4 ADD PUSH2 0x9A8 SWAP1 PUSH2 0x1760 JUMP JUMPDEST PUSH1 0x40 MLOAD DUP1 SWAP2 SUB SWAP1 REVERT JUMPDEST PUSH0 DUP1 DUP3 PUSH20 0xFFFFFFFFFFFFFFFFFFFFFFFFFFFFFFFFFFFFFFFF AND PUSH20 0xFFFFFFFFFFFFFFFFFFFFFFFFFFFFFFFFFFFFFFFF AND DUP2 MSTORE PUSH1 0x20 ADD SWAP1 DUP2 MSTORE PUSH1 0x20 ADD PUSH0 KECCAK256 PUSH1 0x7 ADD PUSH0 SWAP1 SLOAD SWAP1 PUSH2 0x100 EXP SWAP1 DIV PUSH1 0xFF AND ISZERO PUSH2 0xA3D JUMPI PUSH1 0x40 MLOAD PUSH32 0x8C379A000000000000000000000000000000000000000000000000000000000 DUP2 MSTORE PUSH1 0x4 ADD PUSH2 0xA34 SWAP1 PUSH2 0x17C8 JUMP JUMPDEST PUSH1 0x40 MLOAD DUP1 SWAP2 SUB SWAP1 REVERT JUMPDEST PUSH1 0x1 PUSH0 DUP1 DUP4 PUSH20 0xFFFFFFFFFFFFFFFFFFFFFFFFFFFFFFFFFFFFFFFF AND PUSH20 0xFFFFFFFFFFFFFFFFFFFFFFFFFFFFFFFFFFFFFFFF AND DUP2 MSTORE PUSH1 0x20 ADD SWAP1 DUP2 MSTORE PUSH1 0x20 ADD PUSH0 KECCAK256 PUSH1 0x7 ADD PUSH0 PUSH2 0x100 EXP DUP2 SLOAD DUP2 PUSH1 0xFF MUL NOT AND SWAP1 DUP4 ISZERO ISZERO MUL OR SWAP1 SSTORE POP PUSH0 JUMPDEST PUSH0 DUP1 DUP4 PUSH20 0xFFFFFFFFFFFFFFFFFFFFFFFFFFFFFFFFFFFFFFFF AND PUSH20 0xFFFFFFFFFFFFFFFFFFFFFFFFFFFFFFFFFFFFFFFF AND DUP2 MSTORE PUSH1 0x20 ADD SWAP1 DUP2 MSTORE PUSH1 0x20 ADD PUSH0 KECCAK256 PUSH1 0x9 ADD DUP1 SLOAD SWAP1 POP DUP2 LT ISZERO PUSH2 0xC8D JUMPI PUSH0 DUP1 PUSH0 DUP5 PUSH20 0xFFFFFFFFFFFFFFFFFFFFFFFFFFFFFFFFFFFFFFFF AND PUSH20 0xFFFFFFFFFFFFFFFFFFFFFFFFFFFFFFFFFFFFFFFF AND DUP2 MSTORE PUSH1 0x20 ADD SWAP1 DUP2 MSTORE PUSH1 0x20 ADD PUSH0 KECCAK256 PUSH1 0x9 ADD DUP3 DUP2 SLOAD DUP2 LT PUSH2 0xB32 JUMPI PUSH2 0xB31 PUSH2 0x11EE JUMP JUMPDEST JUMPDEST SWAP1 PUSH0 MSTORE PUSH1 0x20 PUSH0 KECCAK256 SWAP1 PUSH1 0x4 MUL ADD SWAP1 POP PUSH0 PUSH1 0x64 DUP3 PUSH1 0x1 ADD SLOAD PUSH0 DUP1 DUP8 PUSH20 0xFFFFFFFFFFFFFFFFFFFFFFFFFFFFFFFFFFFFFFFF AND PUSH20 0xFFFFFFFFFFFFFFFFFFFFFFFFFFFFFFFFFFFFFFFF AND DUP2 MSTORE PUSH1 0x20 ADD SWAP1 DUP2 MSTORE PUSH1 0x20 ADD PUSH0 KECCAK256 PUSH1 0x4 ADD SLOAD PUSH2 0xB92 SWAP2 SWAP1 PUSH2 0x17E6 JUMP JUMPDEST PUSH2 0xB9C SWAP2 SWAP1 PUSH2 0x1854 JUMP JUMPDEST SWAP1 POP DUP2 PUSH0 ADD PUSH0 SWAP1 SLOAD SWAP1 PUSH2 0x100 EXP SWAP1 DIV PUSH20 0xFFFFFFFFFFFFFFFFFFFFFFFFFFFFFFFFFFFFFFFF AND PUSH20 0xFFFFFFFFFFFFFFFFFFFFFFFFFFFFFFFFFFFFFFFF AND PUSH2 0x8FC DUP3 SWAP1 DUP2 ISZERO MUL SWAP1 PUSH1 0x40 MLOAD PUSH0 PUSH1 0x40 MLOAD DUP1 DUP4 SUB DUP2 DUP6 DUP9 DUP9 CALL SWAP4 POP POP POP POP ISZERO DUP1 ISZERO PUSH2 0xC03 JUMPI RETURNDATASIZE PUSH0 DUP1 RETURNDATACOPY RETURNDATASIZE PUSH0 REVERT JUMPDEST POP DUP2 PUSH0 ADD PUSH0 SWAP1 SLOAD SWAP1 PUSH2 0x100 EXP SWAP1 DIV PUSH20 0xFFFFFFFFFFFFFFFFFFFFFFFFFFFFFFFFFFFFFFFF AND PUSH20 0xFFFFFFFFFFFFFFFFFFFFFFFFFFFFFFFFFFFFFFFF AND PUSH32 0x263D976337B68011634FB07C07212194969A5F466ACEFB29EE0BC9DAE990BF06 DUP3 DUP5 PUSH1 0x2 ADD DUP6 PUSH1 0x3 ADD PUSH1 0x40 MLOAD PUSH2 0xC76 SWAP4 SWAP3 SWAP2 SWAP1 PUSH2 0x1928 JUMP JUMPDEST PUSH1 0x40 MLOAD DUP1 SWAP2 SUB SWAP1 LOG2 POP POP DUP1 DUP1 PUSH1 0x1 ADD SWAP2 POP POP PUSH2 0xA96 JUMP JUMPDEST POP PUSH0 DUP1 PUSH0 DUP4 PUSH20 0xFFFFFFFFFFFFFFFFFFFFFFFFFFFFFFFFFFFFFFFF AND PUSH20 0xFFFFFFFFFFFFFFFFFFFFFFFFFFFFFFFFFFFFFFFF AND DUP2 MSTORE PUSH1 0x20 ADD SWAP1 DUP2 MSTORE PUSH1 0x20 ADD PUSH0 KECCAK256 PUSH1 0x4 ADD DUP2 SWAP1 SSTORE POP DUP1 PUSH20 0xFFFFFFFFFFFFFFFFFFFFFFFFFFFFFFFFFFFFFFFF AND PUSH32 0x16346F65ADF8D84422B57AD74CB5607BF6C9E55C3C1FEA66344057E5BBA8A7EE PUSH1 0x40 MLOAD PUSH1 0x40 MLOAD DUP1 SWAP2 SUB SWAP1 LOG2 POP JUMP JUMPDEST PUSH0 PUSH1 0x40 MLOAD SWAP1 POP SWAP1 JUMP JUMPDEST PUSH0 DUP1 REVERT JUMPDEST PUSH0 DUP1 REVERT JUMPDEST PUSH0 PUSH20 0xFFFFFFFFFFFFFFFFFFFFFFFFFFFFFFFFFFFFFFFF DUP3 AND SWAP1 POP SWAP2 SWAP1 POP JUMP JUMPDEST PUSH0 PUSH2 0xD52 DUP3 PUSH2 0xD29 JUMP JUMPDEST SWAP1 POP SWAP2 SWAP1 POP JUMP JUMPDEST PUSH2 0xD62 DUP2 PUSH2 0xD48 JUMP JUMPDEST DUP2 EQ PUSH2 0xD6C JUMPI PUSH0 DUP1 REVERT JUMPDEST POP JUMP JUMPDEST PUSH0 DUP2 CALLDATALOAD SWAP1 POP PUSH2 0xD7D DUP2 PUSH2 0xD59 JUMP JUMPDEST SWAP3 SWAP2 POP POP JUMP JUMPDEST PUSH0 DUP2 SWAP1 POP SWAP2 SWAP1 POP JUMP JUMPDEST PUSH2 0xD95 DUP2 PUSH2 0xD83 JUMP JUMPDEST DUP2 EQ PUSH2 0xD9F JUMPI PUSH0 DUP1 REVERT JUMPDEST POP JUMP JUMPDEST PUSH0 DUP2 CALLDATALOAD SWAP1 POP PUSH2 0xDB0 DUP2 PUSH2 0xD8C JUMP JUMPDEST SWAP3 SWAP2 POP POP JUMP JUMPDEST PUSH0 DUP1 REVERT JUMPDEST PUSH0 DUP1 REVERT JUMPDEST PUSH0 PUSH1 0x1F NOT PUSH1 0x1F DUP4 ADD AND SWAP1 POP SWAP2 SWAP1 POP JUMP JUMPDEST PUSH32 0x4E487B7100000000000000000000000000000000000000000000000000000000 PUSH0 MSTORE PUSH1 0x41 PUSH1 0x4 MSTORE PUSH1 0x24 PUSH0 REVERT JUMPDEST PUSH2 0xE04 DUP3 PUSH2 0xDBE JUMP JUMPDEST DUP2 ADD DUP2 DUP2 LT PUSH8 0xFFFFFFFFFFFFFFFF DUP3 GT OR ISZERO PUSH2 0xE23 JUMPI PUSH2 0xE22 PUSH2 0xDCE JUMP JUMPDEST JUMPDEST DUP1 PUSH1 0x40 MSTORE POP POP POP JUMP JUMPDEST PUSH0 PUSH2 0xE35 PUSH2 0xD18 JUMP JUMPDEST SWAP1 POP PUSH2 0xE41 DUP3 DUP3 PUSH2 0xDFB JUMP JUMPDEST SWAP2 SWAP1 POP JUMP JUMPDEST PUSH0 PUSH8 0xFFFFFFFFFFFFFFFF DUP3 GT ISZERO PUSH2 0xE60 JUMPI PUSH2 0xE5F PUSH2 0xDCE JUMP JUMPDEST JUMPDEST PUSH2 0xE69 DUP3 PUSH2 0xDBE JUMP JUMPDEST SWAP1 POP PUSH1 0x20 DUP2 ADD SWAP1 POP SWAP2 SWAP1 POP JUMP JUMPDEST DUP3 DUP2 DUP4 CALLDATACOPY PUSH0 DUP4 DUP4 ADD MSTORE POP POP POP JUMP JUMPDEST PUSH0 PUSH2 0xE96 PUSH2 0xE91 DUP5 PUSH2 0xE46 JUMP JUMPDEST PUSH2 0xE2C JUMP JUMPDEST SWAP1 POP DUP3 DUP2 MSTORE PUSH1 0x20 DUP2 ADD DUP5 DUP5 DUP5 ADD GT ISZERO PUSH2 0xEB2 JUMPI PUSH2 0xEB1 PUSH2 0xDBA JUMP JUMPDEST JUMPDEST PUSH2 0xEBD DUP5 DUP3 DUP6 PUSH2 0xE76 JUMP JUMPDEST POP SWAP4 SWAP3 POP POP POP JUMP JUMPDEST PUSH0 DUP3 PUSH1 0x1F DUP4 ADD SLT PUSH2 0xED9 JUMPI PUSH2 0xED8 PUSH2 0xDB6 JUMP JUMPDEST JUMPDEST DUP2 CALLDATALOAD PUSH2 0xEE9 DUP5 DUP3 PUSH1 0x20 DUP7 ADD PUSH2 0xE84 JUMP JUMPDEST SWAP2 POP POP SWAP3 SWAP2 POP POP JUMP JUMPDEST PUSH0 DUP1 PUSH0 DUP1 PUSH1 0x80 DUP6 DUP8 SUB SLT ISZERO PUSH2 0xF0A JUMPI PUSH2 0xF09 PUSH2 0xD21 JUMP JUMPDEST JUMPDEST PUSH0 PUSH2 0xF17 DUP8 DUP3 DUP9 ADD PUSH2 0xD6F JUMP JUMPDEST SWAP5 POP POP PUSH1 0x20 PUSH2 0xF28 DUP8 DUP3 DUP9 ADD PUSH2 0xDA2 JUMP JUMPDEST SWAP4 POP POP PUSH1 0x40 DUP6 ADD CALLDATALOAD PUSH8 0xFFFFFFFFFFFFFFFF DUP2 GT ISZERO PUSH2 0xF49 JUMPI PUSH2 0xF48 PUSH2 0xD25 JUMP JUMPDEST JUMPDEST PUSH2 0xF55 DUP8 DUP3 DUP9 ADD PUSH2 0xEC5 JUMP JUMPDEST SWAP3 POP POP PUSH1 0x60 DUP6 ADD CALLDATALOAD PUSH8 0xFFFFFFFFFFFFFFFF DUP2 GT ISZERO PUSH2 0xF76 JUMPI PUSH2 0xF75 PUSH2 0xD25 JUMP JUMPDEST JUMPDEST PUSH2 0xF82 DUP8 DUP3 DUP9 ADD PUSH2 0xEC5 JUMP JUMPDEST SWAP2 POP POP SWAP3 SWAP6 SWAP2 SWAP5 POP SWAP3 POP JUMP JUMPDEST PUSH0 PUSH2 0xF98 DUP3 PUSH2 0xD29 JUMP JUMPDEST SWAP1 POP SWAP2 SWAP1 POP JUMP JUMPDEST PUSH2 0xFA8 DUP2 PUSH2 0xF8E JUMP JUMPDEST DUP2 EQ PUSH2 0xFB2 JUMPI PUSH0 DUP1 REVERT JUMPDEST POP JUMP JUMPDEST PUSH0 DUP2 CALLDATALOAD SWAP1 POP PUSH2 0xFC3 DUP2 PUSH2 0xF9F JUMP JUMPDEST SWAP3 SWAP2 POP POP JUMP JUMPDEST PUSH0 PUSH1 0x20 DUP3 DUP5 SUB SLT ISZERO PUSH2 0xFDE JUMPI PUSH2 0xFDD PUSH2 0xD21 JUMP JUMPDEST JUMPDEST PUSH0 PUSH2 0xFEB DUP5 DUP3 DUP6 ADD PUSH2 0xFB5 JUMP JUMPDEST SWAP2 POP POP SWAP3 SWAP2 POP POP JUMP JUMPDEST PUSH0 DUP2 ISZERO ISZERO SWAP1 POP SWAP2 SWAP1 POP JUMP JUMPDEST PUSH2 0x1008 DUP2 PUSH2 0xFF4 JUMP JUMPDEST DUP3 MSTORE POP POP JUMP JUMPDEST PUSH0 PUSH1 0x20 DUP3 ADD SWAP1 POP PUSH2 0x1021 PUSH0 DUP4 ADD DUP5 PUSH2 0xFFF JUMP JUMPDEST SWAP3 SWAP2 POP POP JUMP JUMPDEST PUSH0 DUP1 PUSH0 DUP1 PUSH0 PUSH1 0xA0 DUP7 DUP9 SUB SLT ISZERO PUSH2 0x1040 JUMPI PUSH2 0x103F PUSH2 0xD21 JUMP JUMPDEST JUMPDEST PUSH0 DUP7 ADD CALLDATALOAD PUSH8 0xFFFFFFFFFFFFFFFF DUP2 GT ISZERO PUSH2 0x105D JUMPI PUSH2 0x105C PUSH2 0xD25 JUMP JUMPDEST JUMPDEST PUSH2 0x1069 DUP9 DUP3 DUP10 ADD PUSH2 0xEC5 JUMP JUMPDEST SWAP6 POP POP PUSH1 0x20 DUP7 ADD CALLDATALOAD PUSH8 0xFFFFFFFFFFFFFFFF DUP2 GT ISZERO PUSH2 0x108A JUMPI PUSH2 0x1089 PUSH2 0xD25 JUMP JUMPDEST JUMPDEST PUSH2 0x1096 DUP9 DUP3 DUP10 ADD PUSH2 0xEC5 JUMP JUMPDEST SWAP5 POP POP PUSH1 0x40 DUP7 ADD CALLDATALOAD PUSH8 0xFFFFFFFFFFFFFFFF DUP2 GT ISZERO PUSH2 0x10B7 JUMPI PUSH2 0x10B6 PUSH2 0xD25 JUMP JUMPDEST JUMPDEST PUSH2 0x10C3 DUP9 DUP3 DUP10 ADD PUSH2 0xEC5 JUMP JUMPDEST SWAP4 POP POP PUSH1 0x60 PUSH2 0x10D4 DUP9 DUP3 DUP10 ADD PUSH2 0xDA2 JUMP JUMPDEST SWAP3 POP POP PUSH1 0x80 DUP7 ADD CALLDATALOAD PUSH8 0xFFFFFFFFFFFFFFFF DUP2 GT ISZERO PUSH2 0x10F5 JUMPI PUSH2 0x10F4 PUSH2 0xD25 JUMP JUMPDEST JUMPDEST PUSH2 0x1101 DUP9 DUP3 DUP10 ADD PUSH2 0xEC5 JUMP JUMPDEST SWAP2 POP POP SWAP3 SWAP6 POP SWAP3 SWAP6 SWAP1 SWAP4 POP JUMP JUMPDEST PUSH0 DUP3 DUP3 MSTORE PUSH1 0x20 DUP3 ADD SWAP1 POP SWAP3 SWAP2 POP POP JUMP JUMPDEST PUSH32 0x596F75206E65656420746F2063726561746520612077696C6C20666972737400 PUSH0 DUP3 ADD MSTORE POP JUMP JUMPDEST PUSH0 PUSH2 0x1152 PUSH1 0x1F DUP4 PUSH2 0x110E JUMP JUMPDEST SWAP2 POP PUSH2 0x115D DUP3 PUSH2 0x111E JUMP JUMPDEST PUSH1 0x20 DUP3 ADD SWAP1 POP SWAP2 SWAP1 POP JUMP JUMPDEST PUSH0 PUSH1 0x20 DUP3 ADD SWAP1 POP DUP2 DUP2 SUB PUSH0 DUP4 ADD MSTORE PUSH2 0x117F DUP2 PUSH2 0x1146 JUMP JUMPDEST SWAP1 POP SWAP2 SWAP1 POP JUMP JUMPDEST PUSH32 0x496E76616C69642070657263656E746167650000000000000000000000000000 PUSH0 DUP3 ADD MSTORE POP JUMP JUMPDEST PUSH0 PUSH2 0x11BA PUSH1 0x12 DUP4 PUSH2 0x110E JUMP JUMPDEST SWAP2 POP PUSH2 0x11C5 DUP3 PUSH2 0x1186 JUMP JUMPDEST PUSH1 0x20 DUP3 ADD SWAP1 POP SWAP2 SWAP1 POP JUMP JUMPDEST PUSH0 PUSH1 0x20 DUP3 ADD SWAP1 POP DUP2 DUP2 SUB PUSH0 DUP4 ADD MSTORE PUSH2 0x11E7 DUP2 PUSH2 0x11AE JUMP JUMPDEST SWAP1 POP SWAP2 SWAP1 POP JUMP JUMPDEST PUSH32 0x4E487B7100000000000000000000000000000000000000000000000000000000 PUSH0 MSTORE PUSH1 0x32 PUSH1 0x4 MSTORE PUSH1 0x24 PUSH0 REVERT JUMPDEST PUSH32 0x4E487B7100000000000000000000000000000000000000000000000000000000 PUSH0 MSTORE PUSH1 0x11 PUSH1 0x4 MSTORE PUSH1 0x24 PUSH0 REVERT JUMPDEST PUSH0 PUSH2 0x1252 DUP3 PUSH2 0xD83 JUMP JUMPDEST SWAP2 POP PUSH2 0x125D DUP4 PUSH2 0xD83 JUMP JUMPDEST SWAP3 POP DUP3 DUP3 ADD SWAP1 POP DUP1 DUP3 GT ISZERO PUSH2 0x1275 JUMPI PUSH2 0x1274 PUSH2 0x121B JUMP JUMPDEST JUMPDEST SWAP3 SWAP2 POP POP JUMP JUMPDEST PUSH32 0x546F74616C20616C6C6F636174696F6E20657863656564732031303025000000 PUSH0 DUP3 ADD MSTORE POP JUMP JUMPDEST PUSH0 PUSH2 0x12AF PUSH1 0x1D DUP4 PUSH2 0x110E JUMP JUMPDEST SWAP2 POP PUSH2 0x12BA DUP3 PUSH2 0x127B JUMP JUMPDEST PUSH1 0x20 DUP3 ADD SWAP1 POP SWAP2 SWAP1 POP JUMP JUMPDEST PUSH0 PUSH1 0x20 DUP3 ADD SWAP1 POP DUP2 DUP2 SUB PUSH0 DUP4 ADD MSTORE PUSH2 0x12DC DUP2 PUSH2 0x12A3 JUMP JUMPDEST SWAP1 POP SWAP2 SWAP1 POP JUMP JUMPDEST PUSH0 DUP2 MLOAD SWAP1 POP SWAP2 SWAP1 POP JUMP JUMPDEST PUSH32 0x4E487B7100000000000000000000000000000000000000000000000000000000 PUSH0 MSTORE PUSH1 0x22 PUSH1 0x4 MSTORE PUSH1 0x24 PUSH0 REVERT JUMPDEST PUSH0 PUSH1 0x2 DUP3 DIV SWAP1 POP PUSH1 0x1 DUP3 AND DUP1 PUSH2 0x1331 JUMPI PUSH1 0x7F DUP3 AND SWAP2 POP JUMPDEST PUSH1 0x20 DUP3 LT DUP2 SUB PUSH2 0x1344 JUMPI PUSH2 0x1343 PUSH2 0x12ED JUMP JUMPDEST JUMPDEST POP SWAP2 SWAP1 POP JUMP JUMPDEST PUSH0 DUP2 SWAP1 POP DUP2 PUSH0 MSTORE PUSH1 0x20 PUSH0 KECCAK256 SWAP1 POP SWAP2 SWAP1 POP JUMP JUMPDEST PUSH0 PUSH1 0x20 PUSH1 0x1F DUP4 ADD DIV SWAP1 POP SWAP2 SWAP1 POP JUMP JUMPDEST PUSH0 DUP3 DUP3 SHL SWAP1 POP SWAP3 SWAP2 POP POP JUMP JUMPDEST PUSH0 PUSH1 0x8 DUP4 MUL PUSH2 0x13A6 PUSH32 0xFFFFFFFFFFFFFFFFFFFFFFFFFFFFFFFFFFFFFFFFFFFFFFFFFFFFFFFFFFFFFFFF DUP3 PUSH2 0x136B JUMP JUMPDEST PUSH2 0x13B0 DUP7 DUP4 PUSH2 0x136B JUMP JUMPDEST SWAP6 POP DUP1 NOT DUP5 AND SWAP4 POP DUP1 DUP7 AND DUP5 OR SWAP3 POP POP POP SWAP4 SWAP3 POP POP POP JUMP JUMPDEST PUSH0 DUP2 SWAP1 POP SWAP2 SWAP1 POP JUMP JUMPDEST PUSH0 PUSH2 0x13EB PUSH2 0x13E6 PUSH2 0x13E1 DUP5 PUSH2 0xD83 JUMP JUMPDEST PUSH2 0x13C8 JUMP JUMPDEST PUSH2 0xD83 JUMP JUMPDEST SWAP1 POP SWAP2 SWAP1 POP JUMP JUMPDEST PUSH0 DUP2 SWAP1 POP SWAP2 SWAP1 POP JUMP JUMPDEST PUSH2 0x1404 DUP4 PUSH2 0x13D1 JUMP JUMPDEST PUSH2 0x1418 PUSH2 0x1410 DUP3 PUSH2 0x13F2 JUMP JUMPDEST DUP5 DUP5 SLOAD PUSH2 0x1377 JUMP JUMPDEST DUP3 SSTORE POP POP POP POP JUMP JUMPDEST PUSH0 SWAP1 JUMP JUMPDEST PUSH2 0x142C PUSH2 0x1420 JUMP JUMPDEST PUSH2 0x1437 DUP2 DUP5 DUP5 PUSH2 0x13FB JUMP JUMPDEST POP POP POP JUMP JUMPDEST JUMPDEST DUP2 DUP2 LT ISZERO PUSH2 0x145A JUMPI PUSH2 0x144F PUSH0 DUP3 PUSH2 0x1424 JUMP JUMPDEST PUSH1 0x1 DUP2 ADD SWAP1 POP PUSH2 0x143D JUMP JUMPDEST POP POP JUMP JUMPDEST PUSH1 0x1F DUP3 GT ISZERO PUSH2 0x149F JUMPI PUSH2 0x1470 DUP2 PUSH2 0x134A JUMP JUMPDEST PUSH2 0x1479 DUP5 PUSH2 0x135C JUMP JUMPDEST DUP2 ADD PUSH1 0x20 DUP6 LT ISZERO PUSH2 0x1488 JUMPI DUP2 SWAP1 POP JUMPDEST PUSH2 0x149C PUSH2 0x1494 DUP6 PUSH2 0x135C JUMP JUMPDEST DUP4 ADD DUP3 PUSH2 0x143C JUMP JUMPDEST POP POP JUMPDEST POP POP POP JUMP JUMPDEST PUSH0 DUP3 DUP3 SHR SWAP1 POP SWAP3 SWAP2 POP POP JUMP JUMPDEST PUSH0 PUSH2 0x14BF PUSH0 NOT DUP5 PUSH1 0x8 MUL PUSH2 0x14A4 JUMP JUMPDEST NOT DUP1 DUP4 AND SWAP2 POP POP SWAP3 SWAP2 POP POP JUMP JUMPDEST PUSH0 PUSH2 0x14D7 DUP4 DUP4 PUSH2 0x14B0 JUMP JUMPDEST SWAP2 POP DUP3 PUSH1 0x2 MUL DUP3 OR SWAP1 POP SWAP3 SWAP2 POP POP JUMP JUMPDEST PUSH2 0x14F0 DUP3 PUSH2 0x12E3 JUMP JUMPDEST PUSH8 0xFFFFFFFFFFFFFFFF DUP2 GT ISZERO PUSH2 0x1509 JUMPI PUSH2 0x1508 PUSH2 0xDCE JUMP JUMPDEST JUMPDEST PUSH2 0x1513 DUP3 SLOAD PUSH2 0x131A JUMP JUMPDEST PUSH2 0x151E DUP3 DUP3 DUP6 PUSH2 0x145E JUMP JUMPDEST PUSH0 PUSH1 0x20 SWAP1 POP PUSH1 0x1F DUP4 GT PUSH1 0x1 DUP2 EQ PUSH2 0x154F JUMPI PUSH0 DUP5 ISZERO PUSH2 0x153D JUMPI DUP3 DUP8 ADD MLOAD SWAP1 POP JUMPDEST PUSH2 0x1547 DUP6 DUP3 PUSH2 0x14CC JUMP JUMPDEST DUP7 SSTORE POP PUSH2 0x15AE JUMP JUMPDEST PUSH1 0x1F NOT DUP5 AND PUSH2 0x155D DUP7 PUSH2 0x134A JUMP JUMPDEST PUSH0 JUMPDEST DUP3 DUP2 LT ISZERO PUSH2 0x1584 JUMPI DUP5 DUP10 ADD MLOAD DUP3 SSTORE PUSH1 0x1 DUP3 ADD SWAP2 POP PUSH1 0x20 DUP6 ADD SWAP5 POP PUSH1 0x20 DUP2 ADD SWAP1 POP PUSH2 0x155F JUMP JUMPDEST DUP7 DUP4 LT ISZERO PUSH2 0x15A1 JUMPI DUP5 DUP10 ADD MLOAD PUSH2 0x159D PUSH1 0x1F DUP10 AND DUP3 PUSH2 0x14B0 JUMP JUMPDEST DUP4 SSTORE POP JUMPDEST PUSH1 0x1 PUSH1 0x2 DUP9 MUL ADD DUP9 SSTORE POP POP POP JUMPDEST POP POP POP POP POP POP JUMP JUMPDEST PUSH32 0x596F7520616C7265616479206861766520612077696C6C210000000000000000 PUSH0 DUP3 ADD MSTORE POP JUMP JUMPDEST PUSH0 PUSH2 0x15EA PUSH1 0x18 DUP4 PUSH2 0x110E JUMP JUMPDEST SWAP2 POP PUSH2 0x15F5 DUP3 PUSH2 0x15B6 JUMP JUMPDEST PUSH1 0x20 DUP3 ADD SWAP1 POP SWAP2 SWAP1 POP JUMP JUMPDEST PUSH0 PUSH1 0x20 DUP3 ADD SWAP1 POP DUP2 DUP2 SUB PUSH0 DUP4 ADD MSTORE PUSH2 0x1617 DUP2 PUSH2 0x15DE JUMP JUMPDEST SWAP1 POP SWAP2 SWAP1 POP JUMP JUMPDEST PUSH32 0x4D757374206C6F636B2045544821000000000000000000000000000000000000 PUSH0 DUP3 ADD MSTORE POP JUMP JUMPDEST PUSH0 PUSH2 0x1652 PUSH1 0xE DUP4 PUSH2 0x110E JUMP JUMPDEST SWAP2 POP PUSH2 0x165D DUP3 PUSH2 0x161E JUMP JUMPDEST PUSH1 0x20 DUP3 ADD SWAP1 POP SWAP2 SWAP1 POP JUMP JUMPDEST PUSH0 PUSH1 0x20 DUP3 ADD SWAP1 POP DUP2 DUP2 SUB PUSH0 DUP4 ADD MSTORE PUSH2 0x167F DUP2 PUSH2 0x1646 JUMP JUMPDEST SWAP1 POP SWAP2 SWAP1 POP JUMP JUMPDEST PUSH2 0x168F DUP2 PUSH2 0xD83 JUMP JUMPDEST DUP3 MSTORE POP POP JUMP JUMPDEST PUSH0 PUSH1 0x20 DUP3 ADD SWAP1 POP PUSH2 0x16A8 PUSH0 DUP4 ADD DUP5 PUSH2 0x1686 JUMP JUMPDEST SWAP3 SWAP2 POP POP JUMP JUMPDEST PUSH32 0x4E6F2077696C6C20666F756E6421000000000000000000000000000000000000 PUSH0 DUP3 ADD MSTORE POP JUMP JUMPDEST PUSH0 PUSH2 0x16E2 PUSH1 0xE DUP4 PUSH2 0x110E JUMP JUMPDEST SWAP2 POP PUSH2 0x16ED DUP3 PUSH2 0x16AE JUMP JUMPDEST PUSH1 0x20 DUP3 ADD SWAP1 POP SWAP2 SWAP1 POP JUMP JUMPDEST PUSH0 PUSH1 0x20 DUP3 ADD SWAP1 POP DUP2 DUP2 SUB PUSH0 DUP4 ADD MSTORE PUSH2 0x170F DUP2 PUSH2 0x16D6 JUMP JUMPDEST SWAP1 POP SWAP2 SWAP1 POP JUMP JUMPDEST PUSH32 0x4F776E6572206973207374696C6C20616C697665210000000000000000000000 PUSH0 DUP3 ADD MSTORE POP JUMP JUMPDEST PUSH0 PUSH2 0x174A PUSH1 0x15 DUP4 PUSH2 0x110E JUMP JUMPDEST SWAP2 POP PUSH2 0x1755 DUP3 PUSH2 0x1716 JUMP JUMPDEST PUSH1 0x20 DUP3 ADD SWAP1 POP SWAP2 SWAP1 POP JUMP JUMPDEST PUSH0 PUSH1 0x20 DUP3 ADD SWAP1 POP DUP2 DUP2 SUB PUSH0 DUP4 ADD MSTORE PUSH2 0x1777 DUP2 PUSH2 0x173E JUMP JUMPDEST SWAP1 POP SWAP2 SWAP1 POP JUMP JUMPDEST PUSH32 0x57696C6C20616C72656164792065786563757465642100000000000000000000 PUSH0 DUP3 ADD MSTORE POP JUMP JUMPDEST PUSH0 PUSH2 0x17B2 PUSH1 0x16 DUP4 PUSH2 0x110E JUMP JUMPDEST SWAP2 POP PUSH2 0x17BD DUP3 PUSH2 0x177E JUMP JUMPDEST PUSH1 0x20 DUP3 ADD SWAP1 POP SWAP2 SWAP1 POP JUMP JUMPDEST PUSH0 PUSH1 0x20 DUP3 ADD SWAP1 POP DUP2 DUP2 SUB PUSH0 DUP4 ADD MSTORE PUSH2 0x17DF DUP2 PUSH2 0x17A6 JUMP JUMPDEST SWAP1 POP SWAP2 SWAP1 POP JUMP JUMPDEST PUSH0 PUSH2 0x17F0 DUP3 PUSH2 0xD83 JUMP JUMPDEST SWAP2 POP PUSH2 0x17FB DUP4 PUSH2 0xD83 JUMP JUMPDEST SWAP3 POP DUP3 DUP3 MUL PUSH2 0x1809 DUP2 PUSH2 0xD83 JUMP JUMPDEST SWAP2 POP DUP3 DUP3 DIV DUP5 EQ DUP4 ISZERO OR PUSH2 0x1820 JUMPI PUSH2 0x181F PUSH2 0x121B JUMP JUMPDEST JUMPDEST POP SWAP3 SWAP2 POP POP JUMP JUMPDEST PUSH32 0x4E487B7100000000000000000000000000000000000000000000000000000000 PUSH0 MSTORE PUSH1 0x12 PUSH1 0x4 MSTORE PUSH1 0x24 PUSH0 REVERT JUMPDEST PUSH0 PUSH2 0x185E DUP3 PUSH2 0xD83 JUMP JUMPDEST SWAP2 POP PUSH2 0x1869 DUP4 PUSH2 0xD83 JUMP JUMPDEST SWAP3 POP DUP3 PUSH2 0x1879 JUMPI PUSH2 0x1878 PUSH2 0x1827 JUMP JUMPDEST JUMPDEST DUP3 DUP3 DIV SWAP1 POP SWAP3 SWAP2 POP POP JUMP JUMPDEST PUSH0 DUP2 SLOAD PUSH2 0x1890 DUP2 PUSH2 0x131A JUMP JUMPDEST PUSH2 0x189A DUP2 DUP7 PUSH2 0x110E JUMP JUMPDEST SWAP5 POP PUSH1 0x1 DUP3 AND PUSH0 DUP2 EQ PUSH2 0x18B4 JUMPI PUSH1 0x1 DUP2 EQ PUSH2 0x18CA JUMPI PUSH2 0x18FC JUMP JUMPDEST PUSH1 0xFF NOT DUP4 AND DUP7 MSTORE DUP2 ISZERO ISZERO PUSH1 0x20 MUL DUP7 ADD SWAP4 POP PUSH2 0x18FC JUMP JUMPDEST PUSH2 0x18D3 DUP6 PUSH2 0x134A JUMP JUMPDEST PUSH0 JUMPDEST DUP4 DUP2 LT ISZERO PUSH2 0x18F4 JUMPI DUP2 SLOAD DUP2 DUP10 ADD MSTORE PUSH1 0x1 DUP3 ADD SWAP2 POP PUSH1 0x20 DUP2 ADD SWAP1 POP PUSH2 0x18D5 JUMP JUMPDEST DUP1 DUP9 ADD SWAP6 POP POP POP JUMPDEST POP POP POP SWAP3 SWAP2 POP POP JUMP JUMPDEST POP JUMP JUMPDEST PUSH0 PUSH2 0x1913 PUSH0 DUP4 PUSH2 0x110E JUMP JUMPDEST SWAP2 POP PUSH2 0x191E DUP3 PUSH2 0x1905 JUMP JUMPDEST PUSH0 DUP3 ADD SWAP1 POP SWAP2 SWAP1 POP JUMP JUMPDEST PUSH0 PUSH1 0x80 DUP3 ADD SWAP1 POP PUSH2 0x193B PUSH0 DUP4 ADD DUP7 PUSH2 0x1686 JUMP JUMPDEST DUP2 DUP2 SUB PUSH1 0x20 DUP4 ADD MSTORE PUSH2 0x194D DUP2 DUP6 PUSH2 0x1884 JUMP JUMPDEST SWAP1 POP DUP2 DUP2 SUB PUSH1 0x40 DUP4 ADD MSTORE PUSH2 0x1961 DUP2 DUP5 PUSH2 0x1884 JUMP JUMPDEST SWAP1 POP DUP2 DUP2 SUB PUSH1 0x60 DUP4 ADD MSTORE PUSH2 0x1974 DUP2 PUSH2 0x1908 JUMP JUMPDEST SWAP1 POP SWAP5 SWAP4 POP POP POP POP JUMP INVALID LOG2 PUSH5 0x6970667358 0x22 SLT KECCAK256 0x4C 0x22 0xEB ADDRESS 0x29 CODESIZE SDIV 0xF6 0xBA REVERT 0xC8 PUSH7 0x6266F52E161112 0xA5 PUSH19 0xEC5754099AB07C54F8FA2364736F6C63430008 BYTE STOP CALLER "
	},
	"abi": [
		{
			"anonymous": false,
			"inputs": [
				{
					"indexed": true,
					"internalType": "address",
					"name": "beneficiary",
					"type": "address"
				},
				{
					"indexed": false,
					"internalType": "uint256",
					"name": "amount",
					"type": "uint256"
				},
				{
					"indexed": false,
					"internalType": "string",
					"name": "saleDeedIpfsHash",
					"type": "string"
				},
				{
					"indexed": false,
					"internalType": "string",
					"name": "email",
					"type": "string"
				},
				{
					"indexed": false,
					"internalType": "string",
					"name": "txnId",
					"type": "string"
				}
			],
			"name": "FundsDisbursed",
			"type": "event"
		},
		{
			"anonymous": false,
			"inputs": [
				{
					"indexed": true,
					"internalType": "address",
					"name": "testator",
					"type": "address"
				},
				{
					"indexed": false,
					"internalType": "uint256",
					"name": "lockedFunds",
					"type": "uint256"
				}
			],
			"name": "WillCreated",
			"type": "event"
		},
		{
			"anonymous": false,
			"inputs": [
				{
					"indexed": true,
					"internalType": "address",
					"name": "testator",
					"type": "address"
				}
			],
			"name": "WillExecuted",
			"type": "event"
		},
		{
			"inputs": [
				{
					"internalType": "address payable",
					"name": "_wallet",
					"type": "address"
				},
				{
					"internalType": "uint256",
					"name": "_percentage",
					"type": "uint256"
				},
				{
					"internalType": "string",
					"name": "_saleDeedIpfsHash",
					"type": "string"
				},
				{
					"internalType": "string",
					"name": "_email",
					"type": "string"
				}
			],
			"name": "addBeneficiary",
			"outputs": [],
			"stateMutability": "nonpayable",
			"type": "function"
		},
		{
			"inputs": [
				{
					"internalType": "string",
					"name": "_firstName",
					"type": "string"
				},
				{
					"internalType": "string",
					"name": "_lastName",
					"type": "string"
				},
				{
					"internalType": "string",
					"name": "_testatorEmail",
					"type": "string"
				},
				{
					"internalType": "uint256",
					"name": "_proofOfLifeInterval",
					"type": "uint256"
				},
				{
					"internalType": "string",
					"name": "_notarizedWillIpfsHash",
					"type": "string"
				}
			],
			"name": "createWill",
			"outputs": [],
			"stateMutability": "payable",
			"type": "function"
		},
		{
			"inputs": [
				{
					"internalType": "address",
					"name": "user",
					"type": "address"
				}
			],
			"name": "executeWill",
			"outputs": [],
			"stateMutability": "nonpayable",
			"type": "function"
		},
		{
			"inputs": [
				{
					"internalType": "address",
					"name": "",
					"type": "address"
				}
			],
			"name": "hasWill",
			"outputs": [
				{
					"internalType": "bool",
					"name": "",
					"type": "bool"
				}
			],
			"stateMutability": "view",
			"type": "function"
		}
	],
	"storageLayout": {
		"storage": [
			{
				"astId": 38,
				"contract": "MultiWillContract.sol:MultiWillContract",
				"label": "wills",
				"offset": 0,
				"slot": "0",
				"type": "t_mapping(t_address,t_struct(Will)33_storage)"
			},
			{
				"astId": 42,
				"contract": "MultiWillContract.sol:MultiWillContract",
				"label": "hasWill",
				"offset": 0,
				"slot": "1",
				"type": "t_mapping(t_address,t_bool)"
			}
		],
		"types": {
			"t_address": {
				"encoding": "inplace",
				"label": "address",
				"numberOfBytes": "20"
			},
			"t_address_payable": {
				"encoding": "inplace",
				"label": "address payable",
				"numberOfBytes": "20"
			},
			"t_array(t_struct(Beneficiary)10_storage)dyn_storage": {
				"base": "t_struct(Beneficiary)10_storage",
				"encoding": "dynamic_array",
				"label": "struct MultiWillContract.Beneficiary[]",
				"numberOfBytes": "32"
			},
			"t_bool": {
				"encoding": "inplace",
				"label": "bool",
				"numberOfBytes": "1"
			},
			"t_mapping(t_address,t_bool)": {
				"encoding": "mapping",
				"key": "t_address",
				"label": "mapping(address => bool)",
				"numberOfBytes": "32",
				"value": "t_bool"
			},
			"t_mapping(t_address,t_struct(Will)33_storage)": {
				"encoding": "mapping",
				"key": "t_address",
				"label": "mapping(address => struct MultiWillContract.Will)",
				"numberOfBytes": "32",
				"value": "t_struct(Will)33_storage"
			},
			"t_string_storage": {
				"encoding": "bytes",
				"label": "string",
				"numberOfBytes": "32"
			},
			"t_struct(Beneficiary)10_storage": {
				"encoding": "inplace",
				"label": "struct MultiWillContract.Beneficiary",
				"members": [
					{
						"astId": 3,
						"contract": "MultiWillContract.sol:MultiWillContract",
						"label": "wallet",
						"offset": 0,
						"slot": "0",
						"type": "t_address_payable"
					},
					{
						"astId": 5,
						"contract": "MultiWillContract.sol:MultiWillContract",
						"label": "percentage",
						"offset": 0,
						"slot": "1",
						"type": "t_uint256"
					},
					{
						"astId": 7,
						"contract": "MultiWillContract.sol:MultiWillContract",
						"label": "saleDeedIpfsHash",
						"offset": 0,
						"slot": "2",
						"type": "t_string_storage"
					},
					{
						"astId": 9,
						"contract": "MultiWillContract.sol:MultiWillContract",
						"label": "email",
						"offset": 0,
						"slot": "3",
						"type": "t_string_storage"
					}
				],
				"numberOfBytes": "128"
			},
			"t_struct(Will)33_storage": {
				"encoding": "inplace",
				"label": "struct MultiWillContract.Will",
				"members": [
					{
						"astId": 12,
						"contract": "MultiWillContract.sol:MultiWillContract",
						"label": "testator",
						"offset": 0,
						"slot": "0",
						"type": "t_address"
					},
					{
						"astId": 14,
						"contract": "MultiWillContract.sol:MultiWillContract",
						"label": "firstName",
						"offset": 0,
						"slot": "1",
						"type": "t_string_storage"
					},
					{
						"astId": 16,
						"contract": "MultiWillContract.sol:MultiWillContract",
						"label": "lastName",
						"offset": 0,
						"slot": "2",
						"type": "t_string_storage"
					},
					{
						"astId": 18,
						"contract": "MultiWillContract.sol:MultiWillContract",
						"label": "testatorEmail",
						"offset": 0,
						"slot": "3",
						"type": "t_string_storage"
					},
					{
						"astId": 20,
						"contract": "MultiWillContract.sol:MultiWillContract",
						"label": "totalLocked",
						"offset": 0,
						"slot": "4",
						"type": "t_uint256"
					},
					{
						"astId": 22,
						"contract": "MultiWillContract.sol:MultiWillContract",
						"label": "lastAliveTime",
						"offset": 0,
						"slot": "5",
						"type": "t_uint256"
					},
					{
						"astId": 24,
						"contract": "MultiWillContract.sol:MultiWillContract",
						"label": "proofOfLifeInterval",
						"offset": 0,
						"slot": "6",
						"type": "t_uint256"
					},
					{
						"astId": 26,
						"contract": "MultiWillContract.sol:MultiWillContract",
						"label": "isDeceased",
						"offset": 0,
						"slot": "7",
						"type": "t_bool"
					},
					{
						"astId": 28,
						"contract": "MultiWillContract.sol:MultiWillContract",
						"label": "notarizedWillIpfsHash",
						"offset": 0,
						"slot": "8",
						"type": "t_string_storage"
					},
					{
						"astId": 32,
						"contract": "MultiWillContract.sol:MultiWillContract",
						"label": "beneficiaries",
						"offset": 0,
						"slot": "9",
						"type": "t_array(t_struct(Beneficiary)10_storage)dyn_storage"
					}
				],
				"numberOfBytes": "320"
			},
			"t_uint256": {
				"encoding": "inplace",
				"label": "uint256",
				"numberOfBytes": "32"
			}
		}
	},
	"web3Deploy": "var multiwillcontractContract = new web3.eth.Contract([{\"anonymous\":false,\"inputs\":[{\"indexed\":true,\"internalType\":\"address\",\"name\":\"beneficiary\",\"type\":\"address\"},{\"indexed\":false,\"internalType\":\"uint256\",\"name\":\"amount\",\"type\":\"uint256\"},{\"indexed\":false,\"internalType\":\"string\",\"name\":\"saleDeedIpfsHash\",\"type\":\"string\"},{\"indexed\":false,\"internalType\":\"string\",\"name\":\"email\",\"type\":\"string\"},{\"indexed\":false,\"internalType\":\"string\",\"name\":\"txnId\",\"type\":\"string\"}],\"name\":\"FundsDisbursed\",\"type\":\"event\"},{\"anonymous\":false,\"inputs\":[{\"indexed\":true,\"internalType\":\"address\",\"name\":\"testator\",\"type\":\"address\"},{\"indexed\":false,\"internalType\":\"uint256\",\"name\":\"lockedFunds\",\"type\":\"uint256\"}],\"name\":\"WillCreated\",\"type\":\"event\"},{\"anonymous\":false,\"inputs\":[{\"indexed\":true,\"internalType\":\"address\",\"name\":\"testator\",\"type\":\"address\"}],\"name\":\"WillExecuted\",\"type\":\"event\"},{\"inputs\":[{\"internalType\":\"address payable\",\"name\":\"_wallet\",\"type\":\"address\"},{\"internalType\":\"uint256\",\"name\":\"_percentage\",\"type\":\"uint256\"},{\"internalType\":\"string\",\"name\":\"_saleDeedIpfsHash\",\"type\":\"string\"},{\"internalType\":\"string\",\"name\":\"_email\",\"type\":\"string\"}],\"name\":\"addBeneficiary\",\"outputs\":[],\"stateMutability\":\"nonpayable\",\"type\":\"function\"},{\"inputs\":[{\"internalType\":\"string\",\"name\":\"_firstName\",\"type\":\"string\"},{\"internalType\":\"string\",\"name\":\"_lastName\",\"type\":\"string\"},{\"internalType\":\"string\",\"name\":\"_testatorEmail\",\"type\":\"string\"},{\"internalType\":\"uint256\",\"name\":\"_proofOfLifeInterval\",\"type\":\"uint256\"},{\"internalType\":\"string\",\"name\":\"_notarizedWillIpfsHash\",\"type\":\"string\"}],\"name\":\"createWill\",\"outputs\":[],\"stateMutability\":\"payable\",\"type\":\"function\"},{\"inputs\":[{\"internalType\":\"address\",\"name\":\"user\",\"type\":\"address\"}],\"name\":\"executeWill\",\"outputs\":[],\"stateMutability\":\"nonpayable\",\"type\":\"function\"},{\"inputs\":[{\"internalType\":\"address\",\"name\":\"\",\"type\":\"address\"}],\"name\":\"hasWill\",\"outputs\":[{\"internalType\":\"bool\",\"name\":\"\",\"type\":\"bool\"}],\"stateMutability\":\"view\",\"type\":\"function\"}]);\nvar multiwillcontract = multiwillcontractContract.deploy({\n     data: '0x6080604052348015600e575f80fd5b506119b48061001c5f395ff3fe60806040526004361061003e575f3560e01c80634ebde6d314610042578063549cc7b81461006a578063dd958b12146100a6578063e854d135146100c2575b5f80fd5b34801561004d575f80fd5b5061006860048036038101906100639190610ef2565b6100ea565b005b348015610075575f80fd5b50610090600480360381019061008b9190610fc9565b6103f9565b60405161009d919061100e565b60405180910390f35b6100c060048036038101906100bb9190611027565b610416565b005b3480156100cd575f80fd5b506100e860048036038101906100e39190610fc9565b61085d565b005b60015f3373ffffffffffffffffffffffffffffffffffffffff1673ffffffffffffffffffffffffffffffffffffffff1681526020019081526020015f205f9054906101000a900460ff16610173576040517f08c379a000000000000000000000000000000000000000000000000000000000815260040161016a90611168565b60405180910390fd5b5f83118015610183575060648311155b6101c2576040517f08c379a00000000000000000000000000000000000000000000000000000000081526004016101b9906111d0565b60405180910390fd5b5f805b5f803373ffffffffffffffffffffffffffffffffffffffff1673ffffffffffffffffffffffffffffffffffffffff1681526020019081526020015f206009018054905081101561028a575f803373ffffffffffffffffffffffffffffffffffffffff1673ffffffffffffffffffffffffffffffffffffffff1681526020019081526020015f2060090181815481106102605761025f6111ee565b5b905f5260205f209060040201600101548261027b9190611248565b915080806001019150506101c5565b50606484826102999190611248565b11156102da576040517f08c379a00000000000000000000000000000000000000000000000000000000081526004016102d1906112c5565b60405180910390fd5b5f803373ffffffffffffffffffffffffffffffffffffffff1673ffffffffffffffffffffffffffffffffffffffff1681526020019081526020015f2060090160405180608001604052808773ffffffffffffffffffffffffffffffffffffffff16815260200186815260200185815260200184815250908060018154018082558091505060019003905f5260205f2090600402015f909190919091505f820151815f015f6101000a81548173ffffffffffffffffffffffffffffffffffffffff021916908373ffffffffffffffffffffffffffffffffffffffff1602179055506020820151816001015560408201518160020190816103d991906114e7565b5060608201518160030190816103ef91906114e7565b5050505050505050565b6001602052805f5260405f205f915054906101000a900460ff1681565b60015f3373ffffffffffffffffffffffffffffffffffffffff1673ffffffffffffffffffffffffffffffffffffffff1681526020019081526020015f205f9054906101000a900460ff16156104a0576040517f08c379a000000000000000000000000000000000000000000000000000000000815260040161049790611600565b60405180910390fd5b5f34116104e2576040517f08c379a00000000000000000000000000000000000000000000000000000000081526004016104d990611668565b60405180910390fd5b335f803373ffffffffffffffffffffffffffffffffffffffff1673ffffffffffffffffffffffffffffffffffffffff1681526020019081526020015f205f015f6101000a81548173ffffffffffffffffffffffffffffffffffffffff021916908373ffffffffffffffffffffffffffffffffffffffff160217905550845f803373ffffffffffffffffffffffffffffffffffffffff1673ffffffffffffffffffffffffffffffffffffffff1681526020019081526020015f2060010190816105aa91906114e7565b50835f803373ffffffffffffffffffffffffffffffffffffffff1673ffffffffffffffffffffffffffffffffffffffff1681526020019081526020015f2060020190816105f791906114e7565b50825f803373ffffffffffffffffffffffffffffffffffffffff1673ffffffffffffffffffffffffffffffffffffffff1681526020019081526020015f20600301908161064491906114e7565b50345f803373ffffffffffffffffffffffffffffffffffffffff1673ffffffffffffffffffffffffffffffffffffffff1681526020019081526020015f2060040181905550425f803373ffffffffffffffffffffffffffffffffffffffff1673ffffffffffffffffffffffffffffffffffffffff1681526020019081526020015f2060050181905550815f803373ffffffffffffffffffffffffffffffffffffffff1673ffffffffffffffffffffffffffffffffffffffff1681526020019081526020015f20600601819055505f805f3373ffffffffffffffffffffffffffffffffffffffff1673ffffffffffffffffffffffffffffffffffffffff1681526020019081526020015f206007015f6101000a81548160ff021916908315150217905550805f803373ffffffffffffffffffffffffffffffffffffffff1673ffffffffffffffffffffffffffffffffffffffff1681526020019081526020015f2060080190816107b391906114e7565b506001805f3373ffffffffffffffffffffffffffffffffffffffff1673ffffffffffffffffffffffffffffffffffffffff1681526020019081526020015f205f6101000a81548160ff0219169083151502179055503373ffffffffffffffffffffffffffffffffffffffff167fd40dc4a639c90600691397f655099adba04d6b763ef2122630edd47c09f1b6f93460405161084e9190611695565b60405180910390a25050505050565b60015f8273ffffffffffffffffffffffffffffffffffffffff1673ffffffffffffffffffffffffffffffffffffffff1681526020019081526020015f205f9054906101000a900460ff166108e6576040517f08c379a00000000000000000000000000000000000000000000000000000000081526004016108dd906116f8565b60405180910390fd5b5f808273ffffffffffffffffffffffffffffffffffffffff1673ffffffffffffffffffffffffffffffffffffffff1681526020019081526020015f20600601545f808373ffffffffffffffffffffffffffffffffffffffff1673ffffffffffffffffffffffffffffffffffffffff1681526020019081526020015f20600501546109709190611248565b42116109b1576040517f08c379a00000000000000000000000000000000000000000000000000000000081526004016109a890611760565b60405180910390fd5b5f808273ffffffffffffffffffffffffffffffffffffffff1673ffffffffffffffffffffffffffffffffffffffff1681526020019081526020015f206007015f9054906101000a900460ff1615610a3d576040517f08c379a0000000000000000000000000000000000000000000000000000000008152600401610a34906117c8565b60405180910390fd5b60015f808373ffffffffffffffffffffffffffffffffffffffff1673ffffffffffffffffffffffffffffffffffffffff1681526020019081526020015f206007015f6101000a81548160ff0219169083151502179055505f5b5f808373ffffffffffffffffffffffffffffffffffffffff1673ffffffffffffffffffffffffffffffffffffffff1681526020019081526020015f2060090180549050811015610c8d575f805f8473ffffffffffffffffffffffffffffffffffffffff1673ffffffffffffffffffffffffffffffffffffffff1681526020019081526020015f206009018281548110610b3257610b316111ee565b5b905f5260205f20906004020190505f606482600101545f808773ffffffffffffffffffffffffffffffffffffffff1673ffffffffffffffffffffffffffffffffffffffff1681526020019081526020015f2060040154610b9291906117e6565b610b9c9190611854565b9050815f015f9054906101000a900473ffffffffffffffffffffffffffffffffffffffff1673ffffffffffffffffffffffffffffffffffffffff166108fc8290811502906040515f60405180830381858888f19350505050158015610c03573d5f803e3d5ffd5b50815f015f9054906101000a900473ffffffffffffffffffffffffffffffffffffffff1673ffffffffffffffffffffffffffffffffffffffff167f263d976337b68011634fb07c07212194969a5f466acefb29ee0bc9dae990bf06828460020185600301604051610c7693929190611928565b60405180910390a250508080600101915050610a96565b505f805f8373ffffffffffffffffffffffffffffffffffffffff1673ffffffffffffffffffffffffffffffffffffffff1681526020019081526020015f20600401819055508073ffffffffffffffffffffffffffffffffffffffff167f16346f65adf8d84422b57ad74cb5607bf6c9e55c3c1fea66344057e5bba8a7ee60405160405180910390a250565b5f604051905090565b5f80fd5b5f80fd5b5f73ffffffffffffffffffffffffffffffffffffffff82169050919050565b5f610d5282610d29565b9050919050565b610d6281610d48565b8114610d6c575f80fd5b50565b5f81359050610d7d81610d59565b92915050565b5f819050919050565b610d9581610d83565b8114610d9f575f80fd5b50565b5f81359050610db081610d8c565b92915050565b5f80fd5b5f80fd5b5f601f19601f8301169050919050565b7f4e487b71000000000000000000000000000000000000000000000000000000005f52604160045260245ffd5b610e0482610dbe565b810181811067ffffffffffffffff82111715610e2357610e22610dce565b5b80604052505050565b5f610e35610d18565b9050610e418282610dfb565b919050565b5f67ffffffffffffffff821115610e6057610e5f610dce565b5b610e6982610dbe565b9050602081019050919050565b828183375f83830152505050565b5f610e96610e9184610e46565b610e2c565b905082815260208101848484011115610eb257610eb1610dba565b5b610ebd848285610e76565b509392505050565b5f82601f830112610ed957610ed8610db6565b5b8135610ee9848260208601610e84565b91505092915050565b5f805f8060808587031215610f0a57610f09610d21565b5b5f610f1787828801610d6f565b9450506020610f2887828801610da2565b935050604085013567ffffffffffffffff811115610f4957610f48610d25565b5b610f5587828801610ec5565b925050606085013567ffffffffffffffff811115610f7657610f75610d25565b5b610f8287828801610ec5565b91505092959194509250565b5f610f9882610d29565b9050919050565b610fa881610f8e565b8114610fb2575f80fd5b50565b5f81359050610fc381610f9f565b92915050565b5f60208284031215610fde57610fdd610d21565b5b5f610feb84828501610fb5565b91505092915050565b5f8115159050919050565b61100881610ff4565b82525050565b5f6020820190506110215f830184610fff565b92915050565b5f805f805f60a086880312156110405761103f610d21565b5b5f86013567ffffffffffffffff81111561105d5761105c610d25565b5b61106988828901610ec5565b955050602086013567ffffffffffffffff81111561108a57611089610d25565b5b61109688828901610ec5565b945050604086013567ffffffffffffffff8111156110b7576110b6610d25565b5b6110c388828901610ec5565b93505060606110d488828901610da2565b925050608086013567ffffffffffffffff8111156110f5576110f4610d25565b5b61110188828901610ec5565b9150509295509295909350565b5f82825260208201905092915050565b7f596f75206e65656420746f2063726561746520612077696c6c206669727374005f82015250565b5f611152601f8361110e565b915061115d8261111e565b602082019050919050565b5f6020820190508181035f83015261117f81611146565b9050919050565b7f496e76616c69642070657263656e7461676500000000000000000000000000005f82015250565b5f6111ba60128361110e565b91506111c582611186565b602082019050919050565b5f6020820190508181035f8301526111e7816111ae565b9050919050565b7f4e487b71000000000000000000000000000000000000000000000000000000005f52603260045260245ffd5b7f4e487b71000000000000000000000000000000000000000000000000000000005f52601160045260245ffd5b5f61125282610d83565b915061125d83610d83565b92508282019050808211156112755761127461121b565b5b92915050565b7f546f74616c20616c6c6f636174696f6e206578636565647320313030250000005f82015250565b5f6112af601d8361110e565b91506112ba8261127b565b602082019050919050565b5f6020820190508181035f8301526112dc816112a3565b9050919050565b5f81519050919050565b7f4e487b71000000000000000000000000000000000000000000000000000000005f52602260045260245ffd5b5f600282049050600182168061133157607f821691505b602082108103611344576113436112ed565b5b50919050565b5f819050815f5260205f209050919050565b5f6020601f8301049050919050565b5f82821b905092915050565b5f600883026113a67fffffffffffffffffffffffffffffffffffffffffffffffffffffffffffffffff8261136b565b6113b0868361136b565b95508019841693508086168417925050509392505050565b5f819050919050565b5f6113eb6113e66113e184610d83565b6113c8565b610d83565b9050919050565b5f819050919050565b611404836113d1565b611418611410826113f2565b848454611377565b825550505050565b5f90565b61142c611420565b6114378184846113fb565b505050565b5b8181101561145a5761144f5f82611424565b60018101905061143d565b5050565b601f82111561149f576114708161134a565b6114798461135c565b81016020851015611488578190505b61149c6114948561135c565b83018261143c565b50505b505050565b5f82821c905092915050565b5f6114bf5f19846008026114a4565b1980831691505092915050565b5f6114d783836114b0565b9150826002028217905092915050565b6114f0826112e3565b67ffffffffffffffff81111561150957611508610dce565b5b611513825461131a565b61151e82828561145e565b5f60209050601f83116001811461154f575f841561153d578287015190505b61154785826114cc565b8655506115ae565b601f19841661155d8661134a565b5f5b828110156115845784890151825560018201915060208501945060208101905061155f565b868310156115a1578489015161159d601f8916826114b0565b8355505b6001600288020188555050505b505050505050565b7f596f7520616c7265616479206861766520612077696c6c2100000000000000005f82015250565b5f6115ea60188361110e565b91506115f5826115b6565b602082019050919050565b5f6020820190508181035f830152611617816115de565b9050919050565b7f4d757374206c6f636b20455448210000000000000000000000000000000000005f82015250565b5f611652600e8361110e565b915061165d8261161e565b602082019050919050565b5f6020820190508181035f83015261167f81611646565b9050919050565b61168f81610d83565b82525050565b5f6020820190506116a85f830184611686565b92915050565b7f4e6f2077696c6c20666f756e64210000000000000000000000000000000000005f82015250565b5f6116e2600e8361110e565b91506116ed826116ae565b602082019050919050565b5f6020820190508181035f83015261170f816116d6565b9050919050565b7f4f776e6572206973207374696c6c20616c6976652100000000000000000000005f82015250565b5f61174a60158361110e565b915061175582611716565b602082019050919050565b5f6020820190508181035f8301526117778161173e565b9050919050565b7f57696c6c20616c726561647920657865637574656421000000000000000000005f82015250565b5f6117b260168361110e565b91506117bd8261177e565b602082019050919050565b5f6020820190508181035f8301526117df816117a6565b9050919050565b5f6117f082610d83565b91506117fb83610d83565b925082820261180981610d83565b915082820484148315176118205761181f61121b565b5b5092915050565b7f4e487b71000000000000000000000000000000000000000000000000000000005f52601260045260245ffd5b5f61185e82610d83565b915061186983610d83565b92508261187957611878611827565b5b828204905092915050565b5f81546118908161131a565b61189a818661110e565b9450600182165f81146118b457600181146118ca576118fc565b60ff1983168652811515602002860193506118fc565b6118d38561134a565b5f5b838110156118f4578154818901526001820191506020810190506118d5565b808801955050505b50505092915050565b50565b5f6119135f8361110e565b915061191e82611905565b5f82019050919050565b5f60808201905061193b5f830186611686565b818103602083015261194d8185611884565b905081810360408301526119618184611884565b9050818103606083015261197481611908565b905094935050505056fea26469706673582212204c22eb30293805f6bafdc8666266f52e161112a572ec5754099ab07c54f8fa2364736f6c634300081a0033', \n     arguments: [\n     ]\n}).send({\n     from: web3.eth.accounts[0], \n     gas: '4700000'\n   }, function (e, contract){\n    console.log(e, contract);\n    if (typeof contract.address !== 'undefined') {\n         console.log('Contract mined! address: ' + contract.address + ' transactionHash: ' + contract.transactionHash);\n    }\n })",
	"functionHashes": {
		"4ebde6d3": "addBeneficiary(address,uint256,string,string)",
		"dd958b12": "createWill(string,string,string,uint256,string)",
		"e854d135": "executeWill(address)",
		"549cc7b8": "hasWill(address)"
	},
	"gasEstimates": {
		"Creation": {
			"codeDepositCost": "1316000",
			"executionCost": "1367",
			"totalCost": "1317367"
		},
		"External": {
			"addBeneficiary(address,uint256,string,string)": "infinite",
			"createWill(string,string,string,uint256,string)": "infinite",
			"executeWill(address)": "infinite",
			"hasWill(address)": "2833"
		}
	},
	"devdoc": {
		"kind": "dev",
		"methods": {
			"addBeneficiary(address,uint256,string,string)": {
				"details": "Adds a beneficiary to the caller's will.",
				"params": {
					"_email": "Email of the beneficiary.",
					"_percentage": "Share of ETH to be allocated.",
					"_saleDeedIpfsHash": "IPFS hash of the sale deed document assigned to the beneficiary.",
					"_wallet": "Address of the beneficiary."
				}
			},
			"createWill(string,string,string,uint256,string)": {
				"details": "Creates a new will for the sender.",
				"params": {
					"_firstName": "First name of the testator.",
					"_lastName": "Last name of the testator.",
					"_notarizedWillIpfsHash": "IPFS hash of the notarized will document.",
					"_proofOfLifeInterval": "Time interval in seconds to confirm alive.",
					"_testatorEmail": "Email of the testator."
				}
			},
			"executeWill(address)": {
				"details": "Executes the will by distributing ETH and triggering email notifications."
			}
		},
		"version": 1
	},
	"userdoc": {
		"kind": "user",
		"methods": {},
		"version": 1
	},
	"Runtime Bytecode": {
		"immutableReferences": {},
		"linkReferences": {},
		"object": "60806040526004361061003e575f3560e01c80634ebde6d314610042578063549cc7b81461006a578063dd958b12146100a6578063e854d135146100c2575b5f80fd5b34801561004d575f80fd5b5061006860048036038101906100639190610ef2565b6100ea565b005b348015610075575f80fd5b50610090600480360381019061008b9190610fc9565b6103f9565b60405161009d919061100e565b60405180910390f35b6100c060048036038101906100bb9190611027565b610416565b005b3480156100cd575f80fd5b506100e860048036038101906100e39190610fc9565b61085d565b005b60015f3373ffffffffffffffffffffffffffffffffffffffff1673ffffffffffffffffffffffffffffffffffffffff1681526020019081526020015f205f9054906101000a900460ff16610173576040517f08c379a000000000000000000000000000000000000000000000000000000000815260040161016a90611168565b60405180910390fd5b5f83118015610183575060648311155b6101c2576040517f08c379a00000000000000000000000000000000000000000000000000000000081526004016101b9906111d0565b60405180910390fd5b5f805b5f803373ffffffffffffffffffffffffffffffffffffffff1673ffffffffffffffffffffffffffffffffffffffff1681526020019081526020015f206009018054905081101561028a575f803373ffffffffffffffffffffffffffffffffffffffff1673ffffffffffffffffffffffffffffffffffffffff1681526020019081526020015f2060090181815481106102605761025f6111ee565b5b905f5260205f209060040201600101548261027b9190611248565b915080806001019150506101c5565b50606484826102999190611248565b11156102da576040517f08c379a00000000000000000000000000000000000000000000000000000000081526004016102d1906112c5565b60405180910390fd5b5f803373ffffffffffffffffffffffffffffffffffffffff1673ffffffffffffffffffffffffffffffffffffffff1681526020019081526020015f2060090160405180608001604052808773ffffffffffffffffffffffffffffffffffffffff16815260200186815260200185815260200184815250908060018154018082558091505060019003905f5260205f2090600402015f909190919091505f820151815f015f6101000a81548173ffffffffffffffffffffffffffffffffffffffff021916908373ffffffffffffffffffffffffffffffffffffffff1602179055506020820151816001015560408201518160020190816103d991906114e7565b5060608201518160030190816103ef91906114e7565b5050505050505050565b6001602052805f5260405f205f915054906101000a900460ff1681565b60015f3373ffffffffffffffffffffffffffffffffffffffff1673ffffffffffffffffffffffffffffffffffffffff1681526020019081526020015f205f9054906101000a900460ff16156104a0576040517f08c379a000000000000000000000000000000000000000000000000000000000815260040161049790611600565b60405180910390fd5b5f34116104e2576040517f08c379a00000000000000000000000000000000000000000000000000000000081526004016104d990611668565b60405180910390fd5b335f803373ffffffffffffffffffffffffffffffffffffffff1673ffffffffffffffffffffffffffffffffffffffff1681526020019081526020015f205f015f6101000a81548173ffffffffffffffffffffffffffffffffffffffff021916908373ffffffffffffffffffffffffffffffffffffffff160217905550845f803373ffffffffffffffffffffffffffffffffffffffff1673ffffffffffffffffffffffffffffffffffffffff1681526020019081526020015f2060010190816105aa91906114e7565b50835f803373ffffffffffffffffffffffffffffffffffffffff1673ffffffffffffffffffffffffffffffffffffffff1681526020019081526020015f2060020190816105f791906114e7565b50825f803373ffffffffffffffffffffffffffffffffffffffff1673ffffffffffffffffffffffffffffffffffffffff1681526020019081526020015f20600301908161064491906114e7565b50345f803373ffffffffffffffffffffffffffffffffffffffff1673ffffffffffffffffffffffffffffffffffffffff1681526020019081526020015f2060040181905550425f803373ffffffffffffffffffffffffffffffffffffffff1673ffffffffffffffffffffffffffffffffffffffff1681526020019081526020015f2060050181905550815f803373ffffffffffffffffffffffffffffffffffffffff1673ffffffffffffffffffffffffffffffffffffffff1681526020019081526020015f20600601819055505f805f3373ffffffffffffffffffffffffffffffffffffffff1673ffffffffffffffffffffffffffffffffffffffff1681526020019081526020015f206007015f6101000a81548160ff021916908315150217905550805f803373ffffffffffffffffffffffffffffffffffffffff1673ffffffffffffffffffffffffffffffffffffffff1681526020019081526020015f2060080190816107b391906114e7565b506001805f3373ffffffffffffffffffffffffffffffffffffffff1673ffffffffffffffffffffffffffffffffffffffff1681526020019081526020015f205f6101000a81548160ff0219169083151502179055503373ffffffffffffffffffffffffffffffffffffffff167fd40dc4a639c90600691397f655099adba04d6b763ef2122630edd47c09f1b6f93460405161084e9190611695565b60405180910390a25050505050565b60015f8273ffffffffffffffffffffffffffffffffffffffff1673ffffffffffffffffffffffffffffffffffffffff1681526020019081526020015f205f9054906101000a900460ff166108e6576040517f08c379a00000000000000000000000000000000000000000000000000000000081526004016108dd906116f8565b60405180910390fd5b5f808273ffffffffffffffffffffffffffffffffffffffff1673ffffffffffffffffffffffffffffffffffffffff1681526020019081526020015f20600601545f808373ffffffffffffffffffffffffffffffffffffffff1673ffffffffffffffffffffffffffffffffffffffff1681526020019081526020015f20600501546109709190611248565b42116109b1576040517f08c379a00000000000000000000000000000000000000000000000000000000081526004016109a890611760565b60405180910390fd5b5f808273ffffffffffffffffffffffffffffffffffffffff1673ffffffffffffffffffffffffffffffffffffffff1681526020019081526020015f206007015f9054906101000a900460ff1615610a3d576040517f08c379a0000000000000000000000000000000000000000000000000000000008152600401610a34906117c8565b60405180910390fd5b60015f808373ffffffffffffffffffffffffffffffffffffffff1673ffffffffffffffffffffffffffffffffffffffff1681526020019081526020015f206007015f6101000a81548160ff0219169083151502179055505f5b5f808373ffffffffffffffffffffffffffffffffffffffff1673ffffffffffffffffffffffffffffffffffffffff1681526020019081526020015f2060090180549050811015610c8d575f805f8473ffffffffffffffffffffffffffffffffffffffff1673ffffffffffffffffffffffffffffffffffffffff1681526020019081526020015f206009018281548110610b3257610b316111ee565b5b905f5260205f20906004020190505f606482600101545f808773ffffffffffffffffffffffffffffffffffffffff1673ffffffffffffffffffffffffffffffffffffffff1681526020019081526020015f2060040154610b9291906117e6565b610b9c9190611854565b9050815f015f9054906101000a900473ffffffffffffffffffffffffffffffffffffffff1673ffffffffffffffffffffffffffffffffffffffff166108fc8290811502906040515f60405180830381858888f19350505050158015610c03573d5f803e3d5ffd5b50815f015f9054906101000a900473ffffffffffffffffffffffffffffffffffffffff1673ffffffffffffffffffffffffffffffffffffffff167f263d976337b68011634fb07c07212194969a5f466acefb29ee0bc9dae990bf06828460020185600301604051610c7693929190611928565b60405180910390a250508080600101915050610a96565b505f805f8373ffffffffffffffffffffffffffffffffffffffff1673ffffffffffffffffffffffffffffffffffffffff1681526020019081526020015f20600401819055508073ffffffffffffffffffffffffffffffffffffffff167f16346f65adf8d84422b57ad74cb5607bf6c9e55c3c1fea66344057e5bba8a7ee60405160405180910390a250565b5f604051905090565b5f80fd5b5f80fd5b5f73ffffffffffffffffffffffffffffffffffffffff82169050919050565b5f610d5282610d29565b9050919050565b610d6281610d48565b8114610d6c575f80fd5b50565b5f81359050610d7d81610d59565b92915050565b5f819050919050565b610d9581610d83565b8114610d9f575f80fd5b50565b5f81359050610db081610d8c565b92915050565b5f80fd5b5f80fd5b5f601f19601f8301169050919050565b7f4e487b71000000000000000000000000000000000000000000000000000000005f52604160045260245ffd5b610e0482610dbe565b810181811067ffffffffffffffff82111715610e2357610e22610dce565b5b80604052505050565b5f610e35610d18565b9050610e418282610dfb565b919050565b5f67ffffffffffffffff821115610e6057610e5f610dce565b5b610e6982610dbe565b9050602081019050919050565b828183375f83830152505050565b5f610e96610e9184610e46565b610e2c565b905082815260208101848484011115610eb257610eb1610dba565b5b610ebd848285610e76565b509392505050565b5f82601f830112610ed957610ed8610db6565b5b8135610ee9848260208601610e84565b91505092915050565b5f805f8060808587031215610f0a57610f09610d21565b5b5f610f1787828801610d6f565b9450506020610f2887828801610da2565b935050604085013567ffffffffffffffff811115610f4957610f48610d25565b5b610f5587828801610ec5565b925050606085013567ffffffffffffffff811115610f7657610f75610d25565b5b610f8287828801610ec5565b91505092959194509250565b5f610f9882610d29565b9050919050565b610fa881610f8e565b8114610fb2575f80fd5b50565b5f81359050610fc381610f9f565b92915050565b5f60208284031215610fde57610fdd610d21565b5b5f610feb84828501610fb5565b91505092915050565b5f8115159050919050565b61100881610ff4565b82525050565b5f6020820190506110215f830184610fff565b92915050565b5f805f805f60a086880312156110405761103f610d21565b5b5f86013567ffffffffffffffff81111561105d5761105c610d25565b5b61106988828901610ec5565b955050602086013567ffffffffffffffff81111561108a57611089610d25565b5b61109688828901610ec5565b945050604086013567ffffffffffffffff8111156110b7576110b6610d25565b5b6110c388828901610ec5565b93505060606110d488828901610da2565b925050608086013567ffffffffffffffff8111156110f5576110f4610d25565b5b61110188828901610ec5565b9150509295509295909350565b5f82825260208201905092915050565b7f596f75206e65656420746f2063726561746520612077696c6c206669727374005f82015250565b5f611152601f8361110e565b915061115d8261111e565b602082019050919050565b5f6020820190508181035f83015261117f81611146565b9050919050565b7f496e76616c69642070657263656e7461676500000000000000000000000000005f82015250565b5f6111ba60128361110e565b91506111c582611186565b602082019050919050565b5f6020820190508181035f8301526111e7816111ae565b9050919050565b7f4e487b71000000000000000000000000000000000000000000000000000000005f52603260045260245ffd5b7f4e487b71000000000000000000000000000000000000000000000000000000005f52601160045260245ffd5b5f61125282610d83565b915061125d83610d83565b92508282019050808211156112755761127461121b565b5b92915050565b7f546f74616c20616c6c6f636174696f6e206578636565647320313030250000005f82015250565b5f6112af601d8361110e565b91506112ba8261127b565b602082019050919050565b5f6020820190508181035f8301526112dc816112a3565b9050919050565b5f81519050919050565b7f4e487b71000000000000000000000000000000000000000000000000000000005f52602260045260245ffd5b5f600282049050600182168061133157607f821691505b602082108103611344576113436112ed565b5b50919050565b5f819050815f5260205f209050919050565b5f6020601f8301049050919050565b5f82821b905092915050565b5f600883026113a67fffffffffffffffffffffffffffffffffffffffffffffffffffffffffffffffff8261136b565b6113b0868361136b565b95508019841693508086168417925050509392505050565b5f819050919050565b5f6113eb6113e66113e184610d83565b6113c8565b610d83565b9050919050565b5f819050919050565b611404836113d1565b611418611410826113f2565b848454611377565b825550505050565b5f90565b61142c611420565b6114378184846113fb565b505050565b5b8181101561145a5761144f5f82611424565b60018101905061143d565b5050565b601f82111561149f576114708161134a565b6114798461135c565b81016020851015611488578190505b61149c6114948561135c565b83018261143c565b50505b505050565b5f82821c905092915050565b5f6114bf5f19846008026114a4565b1980831691505092915050565b5f6114d783836114b0565b9150826002028217905092915050565b6114f0826112e3565b67ffffffffffffffff81111561150957611508610dce565b5b611513825461131a565b61151e82828561145e565b5f60209050601f83116001811461154f575f841561153d578287015190505b61154785826114cc565b8655506115ae565b601f19841661155d8661134a565b5f5b828110156115845784890151825560018201915060208501945060208101905061155f565b868310156115a1578489015161159d601f8916826114b0565b8355505b6001600288020188555050505b505050505050565b7f596f7520616c7265616479206861766520612077696c6c2100000000000000005f82015250565b5f6115ea60188361110e565b91506115f5826115b6565b602082019050919050565b5f6020820190508181035f830152611617816115de565b9050919050565b7f4d757374206c6f636b20455448210000000000000000000000000000000000005f82015250565b5f611652600e8361110e565b915061165d8261161e565b602082019050919050565b5f6020820190508181035f83015261167f81611646565b9050919050565b61168f81610d83565b82525050565b5f6020820190506116a85f830184611686565b92915050565b7f4e6f2077696c6c20666f756e64210000000000000000000000000000000000005f82015250565b5f6116e2600e8361110e565b91506116ed826116ae565b602082019050919050565b5f6020820190508181035f83015261170f816116d6565b9050919050565b7f4f776e6572206973207374696c6c20616c6976652100000000000000000000005f82015250565b5f61174a60158361110e565b915061175582611716565b602082019050919050565b5f6020820190508181035f8301526117778161173e565b9050919050565b7f57696c6c20616c726561647920657865637574656421000000000000000000005f82015250565b5f6117b260168361110e565b91506117bd8261177e565b602082019050919050565b5f6020820190508181035f8301526117df816117a6565b9050919050565b5f6117f082610d83565b91506117fb83610d83565b925082820261180981610d83565b915082820484148315176118205761181f61121b565b5b5092915050565b7f4e487b71000000000000000000000000000000000000000000000000000000005f52601260045260245ffd5b5f61185e82610d83565b915061186983610d83565b92508261187957611878611827565b5b828204905092915050565b5f81546118908161131a565b61189a818661110e565b9450600182165f81146118b457600181146118ca576118fc565b60ff1983168652811515602002860193506118fc565b6118d38561134a565b5f5b838110156118f4578154818901526001820191506020810190506118d5565b808801955050505b50505092915050565b50565b5f6119135f8361110e565b915061191e82611905565b5f82019050919050565b5f60808201905061193b5f830186611686565b818103602083015261194d8185611884565b905081810360408301526119618184611884565b9050818103606083015261197481611908565b905094935050505056fea26469706673582212204c22eb30293805f6bafdc8666266f52e161112a572ec5754099ab07c54f8fa2364736f6c634300081a0033",
		"opcodes": "PUSH1 0x80 PUSH1 0x40 MSTORE PUSH1 0x4 CALLDATASIZE LT PUSH2 0x3E JUMPI PUSH0 CALLDATALOAD PUSH1 0xE0 SHR DUP1 PUSH4 0x4EBDE6D3 EQ PUSH2 0x42 JUMPI DUP1 PUSH4 0x549CC7B8 EQ PUSH2 0x6A JUMPI DUP1 PUSH4 0xDD958B12 EQ PUSH2 0xA6 JUMPI DUP1 PUSH4 0xE854D135 EQ PUSH2 0xC2 JUMPI JUMPDEST PUSH0 DUP1 REVERT JUMPDEST CALLVALUE DUP1 ISZERO PUSH2 0x4D JUMPI PUSH0 DUP1 REVERT JUMPDEST POP PUSH2 0x68 PUSH1 0x4 DUP1 CALLDATASIZE SUB DUP2 ADD SWAP1 PUSH2 0x63 SWAP2 SWAP1 PUSH2 0xEF2 JUMP JUMPDEST PUSH2 0xEA JUMP JUMPDEST STOP JUMPDEST CALLVALUE DUP1 ISZERO PUSH2 0x75 JUMPI PUSH0 DUP1 REVERT JUMPDEST POP PUSH2 0x90 PUSH1 0x4 DUP1 CALLDATASIZE SUB DUP2 ADD SWAP1 PUSH2 0x8B SWAP2 SWAP1 PUSH2 0xFC9 JUMP JUMPDEST PUSH2 0x3F9 JUMP JUMPDEST PUSH1 0x40 MLOAD PUSH2 0x9D SWAP2 SWAP1 PUSH2 0x100E JUMP JUMPDEST PUSH1 0x40 MLOAD DUP1 SWAP2 SUB SWAP1 RETURN JUMPDEST PUSH2 0xC0 PUSH1 0x4 DUP1 CALLDATASIZE SUB DUP2 ADD SWAP1 PUSH2 0xBB SWAP2 SWAP1 PUSH2 0x1027 JUMP JUMPDEST PUSH2 0x416 JUMP JUMPDEST STOP JUMPDEST CALLVALUE DUP1 ISZERO PUSH2 0xCD JUMPI PUSH0 DUP1 REVERT JUMPDEST POP PUSH2 0xE8 PUSH1 0x4 DUP1 CALLDATASIZE SUB DUP2 ADD SWAP1 PUSH2 0xE3 SWAP2 SWAP1 PUSH2 0xFC9 JUMP JUMPDEST PUSH2 0x85D JUMP JUMPDEST STOP JUMPDEST PUSH1 0x1 PUSH0 CALLER PUSH20 0xFFFFFFFFFFFFFFFFFFFFFFFFFFFFFFFFFFFFFFFF AND PUSH20 0xFFFFFFFFFFFFFFFFFFFFFFFFFFFFFFFFFFFFFFFF AND DUP2 MSTORE PUSH1 0x20 ADD SWAP1 DUP2 MSTORE PUSH1 0x20 ADD PUSH0 KECCAK256 PUSH0 SWAP1 SLOAD SWAP1 PUSH2 0x100 EXP SWAP1 DIV PUSH1 0xFF AND PUSH2 0x173 JUMPI PUSH1 0x40 MLOAD PUSH32 0x8C379A000000000000000000000000000000000000000000000000000000000 DUP2 MSTORE PUSH1 0x4 ADD PUSH2 0x16A SWAP1 PUSH2 0x1168 JUMP JUMPDEST PUSH1 0x40 MLOAD DUP1 SWAP2 SUB SWAP1 REVERT JUMPDEST PUSH0 DUP4 GT DUP1 ISZERO PUSH2 0x183 JUMPI POP PUSH1 0x64 DUP4 GT ISZERO JUMPDEST PUSH2 0x1C2 JUMPI PUSH1 0x40 MLOAD PUSH32 0x8C379A000000000000000000000000000000000000000000000000000000000 DUP2 MSTORE PUSH1 0x4 ADD PUSH2 0x1B9 SWAP1 PUSH2 0x11D0 JUMP JUMPDEST PUSH1 0x40 MLOAD DUP1 SWAP2 SUB SWAP1 REVERT JUMPDEST PUSH0 DUP1 JUMPDEST PUSH0 DUP1 CALLER PUSH20 0xFFFFFFFFFFFFFFFFFFFFFFFFFFFFFFFFFFFFFFFF AND PUSH20 0xFFFFFFFFFFFFFFFFFFFFFFFFFFFFFFFFFFFFFFFF AND DUP2 MSTORE PUSH1 0x20 ADD SWAP1 DUP2 MSTORE PUSH1 0x20 ADD PUSH0 KECCAK256 PUSH1 0x9 ADD DUP1 SLOAD SWAP1 POP DUP2 LT ISZERO PUSH2 0x28A JUMPI PUSH0 DUP1 CALLER PUSH20 0xFFFFFFFFFFFFFFFFFFFFFFFFFFFFFFFFFFFFFFFF AND PUSH20 0xFFFFFFFFFFFFFFFFFFFFFFFFFFFFFFFFFFFFFFFF AND DUP2 MSTORE PUSH1 0x20 ADD SWAP1 DUP2 MSTORE PUSH1 0x20 ADD PUSH0 KECCAK256 PUSH1 0x9 ADD DUP2 DUP2 SLOAD DUP2 LT PUSH2 0x260 JUMPI PUSH2 0x25F PUSH2 0x11EE JUMP JUMPDEST JUMPDEST SWAP1 PUSH0 MSTORE PUSH1 0x20 PUSH0 KECCAK256 SWAP1 PUSH1 0x4 MUL ADD PUSH1 0x1 ADD SLOAD DUP3 PUSH2 0x27B SWAP2 SWAP1 PUSH2 0x1248 JUMP JUMPDEST SWAP2 POP DUP1 DUP1 PUSH1 0x1 ADD SWAP2 POP POP PUSH2 0x1C5 JUMP JUMPDEST POP PUSH1 0x64 DUP5 DUP3 PUSH2 0x299 SWAP2 SWAP1 PUSH2 0x1248 JUMP JUMPDEST GT ISZERO PUSH2 0x2DA JUMPI PUSH1 0x40 MLOAD PUSH32 0x8C379A000000000000000000000000000000000000000000000000000000000 DUP2 MSTORE PUSH1 0x4 ADD PUSH2 0x2D1 SWAP1 PUSH2 0x12C5 JUMP JUMPDEST PUSH1 0x40 MLOAD DUP1 SWAP2 SUB SWAP1 REVERT JUMPDEST PUSH0 DUP1 CALLER PUSH20 0xFFFFFFFFFFFFFFFFFFFFFFFFFFFFFFFFFFFFFFFF AND PUSH20 0xFFFFFFFFFFFFFFFFFFFFFFFFFFFFFFFFFFFFFFFF AND DUP2 MSTORE PUSH1 0x20 ADD SWAP1 DUP2 MSTORE PUSH1 0x20 ADD PUSH0 KECCAK256 PUSH1 0x9 ADD PUSH1 0x40 MLOAD DUP1 PUSH1 0x80 ADD PUSH1 0x40 MSTORE DUP1 DUP8 PUSH20 0xFFFFFFFFFFFFFFFFFFFFFFFFFFFFFFFFFFFFFFFF AND DUP2 MSTORE PUSH1 0x20 ADD DUP7 DUP2 MSTORE PUSH1 0x20 ADD DUP6 DUP2 MSTORE PUSH1 0x20 ADD DUP5 DUP2 MSTORE POP SWAP1 DUP1 PUSH1 0x1 DUP2 SLOAD ADD DUP1 DUP3 SSTORE DUP1 SWAP2 POP POP PUSH1 0x1 SWAP1 SUB SWAP1 PUSH0 MSTORE PUSH1 0x20 PUSH0 KECCAK256 SWAP1 PUSH1 0x4 MUL ADD PUSH0 SWAP1 SWAP2 SWAP1 SWAP2 SWAP1 SWAP2 POP PUSH0 DUP3 ADD MLOAD DUP2 PUSH0 ADD PUSH0 PUSH2 0x100 EXP DUP2 SLOAD DUP2 PUSH20 0xFFFFFFFFFFFFFFFFFFFFFFFFFFFFFFFFFFFFFFFF MUL NOT AND SWAP1 DUP4 PUSH20 0xFFFFFFFFFFFFFFFFFFFFFFFFFFFFFFFFFFFFFFFF AND MUL OR SWAP1 SSTORE POP PUSH1 0x20 DUP3 ADD MLOAD DUP2 PUSH1 0x1 ADD SSTORE PUSH1 0x40 DUP3 ADD MLOAD DUP2 PUSH1 0x2 ADD SWAP1 DUP2 PUSH2 0x3D9 SWAP2 SWAP1 PUSH2 0x14E7 JUMP JUMPDEST POP PUSH1 0x60 DUP3 ADD MLOAD DUP2 PUSH1 0x3 ADD SWAP1 DUP2 PUSH2 0x3EF SWAP2 SWAP1 PUSH2 0x14E7 JUMP JUMPDEST POP POP POP POP POP POP POP POP JUMP JUMPDEST PUSH1 0x1 PUSH1 0x20 MSTORE DUP1 PUSH0 MSTORE PUSH1 0x40 PUSH0 KECCAK256 PUSH0 SWAP2 POP SLOAD SWAP1 PUSH2 0x100 EXP SWAP1 DIV PUSH1 0xFF AND DUP2 JUMP JUMPDEST PUSH1 0x1 PUSH0 CALLER PUSH20 0xFFFFFFFFFFFFFFFFFFFFFFFFFFFFFFFFFFFFFFFF AND PUSH20 0xFFFFFFFFFFFFFFFFFFFFFFFFFFFFFFFFFFFFFFFF AND DUP2 MSTORE PUSH1 0x20 ADD SWAP1 DUP2 MSTORE PUSH1 0x20 ADD PUSH0 KECCAK256 PUSH0 SWAP1 SLOAD SWAP1 PUSH2 0x100 EXP SWAP1 DIV PUSH1 0xFF AND ISZERO PUSH2 0x4A0 JUMPI PUSH1 0x40 MLOAD PUSH32 0x8C379A000000000000000000000000000000000000000000000000000000000 DUP2 MSTORE PUSH1 0x4 ADD PUSH2 0x497 SWAP1 PUSH2 0x1600 JUMP JUMPDEST PUSH1 0x40 MLOAD DUP1 SWAP2 SUB SWAP1 REVERT JUMPDEST PUSH0 CALLVALUE GT PUSH2 0x4E2 JUMPI PUSH1 0x40 MLOAD PUSH32 0x8C379A000000000000000000000000000000000000000000000000000000000 DUP2 MSTORE PUSH1 0x4 ADD PUSH2 0x4D9 SWAP1 PUSH2 0x1668 JUMP JUMPDEST PUSH1 0x40 MLOAD DUP1 SWAP2 SUB SWAP1 REVERT JUMPDEST CALLER PUSH0 DUP1 CALLER PUSH20 0xFFFFFFFFFFFFFFFFFFFFFFFFFFFFFFFFFFFFFFFF AND PUSH20 0xFFFFFFFFFFFFFFFFFFFFFFFFFFFFFFFFFFFFFFFF AND DUP2 MSTORE PUSH1 0x20 ADD SWAP1 DUP2 MSTORE PUSH1 0x20 ADD PUSH0 KECCAK256 PUSH0 ADD PUSH0 PUSH2 0x100 EXP DUP2 SLOAD DUP2 PUSH20 0xFFFFFFFFFFFFFFFFFFFFFFFFFFFFFFFFFFFFFFFF MUL NOT AND SWAP1 DUP4 PUSH20 0xFFFFFFFFFFFFFFFFFFFFFFFFFFFFFFFFFFFFFFFF AND MUL OR SWAP1 SSTORE POP DUP5 PUSH0 DUP1 CALLER PUSH20 0xFFFFFFFFFFFFFFFFFFFFFFFFFFFFFFFFFFFFFFFF AND PUSH20 0xFFFFFFFFFFFFFFFFFFFFFFFFFFFFFFFFFFFFFFFF AND DUP2 MSTORE PUSH1 0x20 ADD SWAP1 DUP2 MSTORE PUSH1 0x20 ADD PUSH0 KECCAK256 PUSH1 0x1 ADD SWAP1 DUP2 PUSH2 0x5AA SWAP2 SWAP1 PUSH2 0x14E7 JUMP JUMPDEST POP DUP4 PUSH0 DUP1 CALLER PUSH20 0xFFFFFFFFFFFFFFFFFFFFFFFFFFFFFFFFFFFFFFFF AND PUSH20 0xFFFFFFFFFFFFFFFFFFFFFFFFFFFFFFFFFFFFFFFF AND DUP2 MSTORE PUSH1 0x20 ADD SWAP1 DUP2 MSTORE PUSH1 0x20 ADD PUSH0 KECCAK256 PUSH1 0x2 ADD SWAP1 DUP2 PUSH2 0x5F7 SWAP2 SWAP1 PUSH2 0x14E7 JUMP JUMPDEST POP DUP3 PUSH0 DUP1 CALLER PUSH20 0xFFFFFFFFFFFFFFFFFFFFFFFFFFFFFFFFFFFFFFFF AND PUSH20 0xFFFFFFFFFFFFFFFFFFFFFFFFFFFFFFFFFFFFFFFF AND DUP2 MSTORE PUSH1 0x20 ADD SWAP1 DUP2 MSTORE PUSH1 0x20 ADD PUSH0 KECCAK256 PUSH1 0x3 ADD SWAP1 DUP2 PUSH2 0x644 SWAP2 SWAP1 PUSH2 0x14E7 JUMP JUMPDEST POP CALLVALUE PUSH0 DUP1 CALLER PUSH20 0xFFFFFFFFFFFFFFFFFFFFFFFFFFFFFFFFFFFFFFFF AND PUSH20 0xFFFFFFFFFFFFFFFFFFFFFFFFFFFFFFFFFFFFFFFF AND DUP2 MSTORE PUSH1 0x20 ADD SWAP1 DUP2 MSTORE PUSH1 0x20 ADD PUSH0 KECCAK256 PUSH1 0x4 ADD DUP2 SWAP1 SSTORE POP TIMESTAMP PUSH0 DUP1 CALLER PUSH20 0xFFFFFFFFFFFFFFFFFFFFFFFFFFFFFFFFFFFFFFFF AND PUSH20 0xFFFFFFFFFFFFFFFFFFFFFFFFFFFFFFFFFFFFFFFF AND DUP2 MSTORE PUSH1 0x20 ADD SWAP1 DUP2 MSTORE PUSH1 0x20 ADD PUSH0 KECCAK256 PUSH1 0x5 ADD DUP2 SWAP1 SSTORE POP DUP2 PUSH0 DUP1 CALLER PUSH20 0xFFFFFFFFFFFFFFFFFFFFFFFFFFFFFFFFFFFFFFFF AND PUSH20 0xFFFFFFFFFFFFFFFFFFFFFFFFFFFFFFFFFFFFFFFF AND DUP2 MSTORE PUSH1 0x20 ADD SWAP1 DUP2 MSTORE PUSH1 0x20 ADD PUSH0 KECCAK256 PUSH1 0x6 ADD DUP2 SWAP1 SSTORE POP PUSH0 DUP1 PUSH0 CALLER PUSH20 0xFFFFFFFFFFFFFFFFFFFFFFFFFFFFFFFFFFFFFFFF AND PUSH20 0xFFFFFFFFFFFFFFFFFFFFFFFFFFFFFFFFFFFFFFFF AND DUP2 MSTORE PUSH1 0x20 ADD SWAP1 DUP2 MSTORE PUSH1 0x20 ADD PUSH0 KECCAK256 PUSH1 0x7 ADD PUSH0 PUSH2 0x100 EXP DUP2 SLOAD DUP2 PUSH1 0xFF MUL NOT AND SWAP1 DUP4 ISZERO ISZERO MUL OR SWAP1 SSTORE POP DUP1 PUSH0 DUP1 CALLER PUSH20 0xFFFFFFFFFFFFFFFFFFFFFFFFFFFFFFFFFFFFFFFF AND PUSH20 0xFFFFFFFFFFFFFFFFFFFFFFFFFFFFFFFFFFFFFFFF AND DUP2 MSTORE PUSH1 0x20 ADD SWAP1 DUP2 MSTORE PUSH1 0x20 ADD PUSH0 KECCAK256 PUSH1 0x8 ADD SWAP1 DUP2 PUSH2 0x7B3 SWAP2 SWAP1 PUSH2 0x14E7 JUMP JUMPDEST POP PUSH1 0x1 DUP1 PUSH0 CALLER PUSH20 0xFFFFFFFFFFFFFFFFFFFFFFFFFFFFFFFFFFFFFFFF AND PUSH20 0xFFFFFFFFFFFFFFFFFFFFFFFFFFFFFFFFFFFFFFFF AND DUP2 MSTORE PUSH1 0x20 ADD SWAP1 DUP2 MSTORE PUSH1 0x20 ADD PUSH0 KECCAK256 PUSH0 PUSH2 0x100 EXP DUP2 SLOAD DUP2 PUSH1 0xFF MUL NOT AND SWAP1 DUP4 ISZERO ISZERO MUL OR SWAP1 SSTORE POP CALLER PUSH20 0xFFFFFFFFFFFFFFFFFFFFFFFFFFFFFFFFFFFFFFFF AND PUSH32 0xD40DC4A639C90600691397F655099ADBA04D6B763EF2122630EDD47C09F1B6F9 CALLVALUE PUSH1 0x40 MLOAD PUSH2 0x84E SWAP2 SWAP1 PUSH2 0x1695 JUMP JUMPDEST PUSH1 0x40 MLOAD DUP1 SWAP2 SUB SWAP1 LOG2 POP POP POP POP POP JUMP JUMPDEST PUSH1 0x1 PUSH0 DUP3 PUSH20 0xFFFFFFFFFFFFFFFFFFFFFFFFFFFFFFFFFFFFFFFF AND PUSH20 0xFFFFFFFFFFFFFFFFFFFFFFFFFFFFFFFFFFFFFFFF AND DUP2 MSTORE PUSH1 0x20 ADD SWAP1 DUP2 MSTORE PUSH1 0x20 ADD PUSH0 KECCAK256 PUSH0 SWAP1 SLOAD SWAP1 PUSH2 0x100 EXP SWAP1 DIV PUSH1 0xFF AND PUSH2 0x8E6 JUMPI PUSH1 0x40 MLOAD PUSH32 0x8C379A000000000000000000000000000000000000000000000000000000000 DUP2 MSTORE PUSH1 0x4 ADD PUSH2 0x8DD SWAP1 PUSH2 0x16F8 JUMP JUMPDEST PUSH1 0x40 MLOAD DUP1 SWAP2 SUB SWAP1 REVERT JUMPDEST PUSH0 DUP1 DUP3 PUSH20 0xFFFFFFFFFFFFFFFFFFFFFFFFFFFFFFFFFFFFFFFF AND PUSH20 0xFFFFFFFFFFFFFFFFFFFFFFFFFFFFFFFFFFFFFFFF AND DUP2 MSTORE PUSH1 0x20 ADD SWAP1 DUP2 MSTORE PUSH1 0x20 ADD PUSH0 KECCAK256 PUSH1 0x6 ADD SLOAD PUSH0 DUP1 DUP4 PUSH20 0xFFFFFFFFFFFFFFFFFFFFFFFFFFFFFFFFFFFFFFFF AND PUSH20 0xFFFFFFFFFFFFFFFFFFFFFFFFFFFFFFFFFFFFFFFF AND DUP2 MSTORE PUSH1 0x20 ADD SWAP1 DUP2 MSTORE PUSH1 0x20 ADD PUSH0 KECCAK256 PUSH1 0x5 ADD SLOAD PUSH2 0x970 SWAP2 SWAP1 PUSH2 0x1248 JUMP JUMPDEST TIMESTAMP GT PUSH2 0x9B1 JUMPI PUSH1 0x40 MLOAD PUSH32 0x8C379A000000000000000000000000000000000000000000000000000000000 DUP2 MSTORE PUSH1 0x4 ADD PUSH2 0x9A8 SWAP1 PUSH2 0x1760 JUMP JUMPDEST PUSH1 0x40 MLOAD DUP1 SWAP2 SUB SWAP1 REVERT JUMPDEST PUSH0 DUP1 DUP3 PUSH20 0xFFFFFFFFFFFFFFFFFFFFFFFFFFFFFFFFFFFFFFFF AND PUSH20 0xFFFFFFFFFFFFFFFFFFFFFFFFFFFFFFFFFFFFFFFF AND DUP2 MSTORE PUSH1 0x20 ADD SWAP1 DUP2 MSTORE PUSH1 0x20 ADD PUSH0 KECCAK256 PUSH1 0x7 ADD PUSH0 SWAP1 SLOAD SWAP1 PUSH2 0x100 EXP SWAP1 DIV PUSH1 0xFF AND ISZERO PUSH2 0xA3D JUMPI PUSH1 0x40 MLOAD PUSH32 0x8C379A000000000000000000000000000000000000000000000000000000000 DUP2 MSTORE PUSH1 0x4 ADD PUSH2 0xA34 SWAP1 PUSH2 0x17C8 JUMP JUMPDEST PUSH1 0x40 MLOAD DUP1 SWAP2 SUB SWAP1 REVERT JUMPDEST PUSH1 0x1 PUSH0 DUP1 DUP4 PUSH20 0xFFFFFFFFFFFFFFFFFFFFFFFFFFFFFFFFFFFFFFFF AND PUSH20 0xFFFFFFFFFFFFFFFFFFFFFFFFFFFFFFFFFFFFFFFF AND DUP2 MSTORE PUSH1 0x20 ADD SWAP1 DUP2 MSTORE PUSH1 0x20 ADD PUSH0 KECCAK256 PUSH1 0x7 ADD PUSH0 PUSH2 0x100 EXP DUP2 SLOAD DUP2 PUSH1 0xFF MUL NOT AND SWAP1 DUP4 ISZERO ISZERO MUL OR SWAP1 SSTORE POP PUSH0 JUMPDEST PUSH0 DUP1 DUP4 PUSH20 0xFFFFFFFFFFFFFFFFFFFFFFFFFFFFFFFFFFFFFFFF AND PUSH20 0xFFFFFFFFFFFFFFFFFFFFFFFFFFFFFFFFFFFFFFFF AND DUP2 MSTORE PUSH1 0x20 ADD SWAP1 DUP2 MSTORE PUSH1 0x20 ADD PUSH0 KECCAK256 PUSH1 0x9 ADD DUP1 SLOAD SWAP1 POP DUP2 LT ISZERO PUSH2 0xC8D JUMPI PUSH0 DUP1 PUSH0 DUP5 PUSH20 0xFFFFFFFFFFFFFFFFFFFFFFFFFFFFFFFFFFFFFFFF AND PUSH20 0xFFFFFFFFFFFFFFFFFFFFFFFFFFFFFFFFFFFFFFFF AND DUP2 MSTORE PUSH1 0x20 ADD SWAP1 DUP2 MSTORE PUSH1 0x20 ADD PUSH0 KECCAK256 PUSH1 0x9 ADD DUP3 DUP2 SLOAD DUP2 LT PUSH2 0xB32 JUMPI PUSH2 0xB31 PUSH2 0x11EE JUMP JUMPDEST JUMPDEST SWAP1 PUSH0 MSTORE PUSH1 0x20 PUSH0 KECCAK256 SWAP1 PUSH1 0x4 MUL ADD SWAP1 POP PUSH0 PUSH1 0x64 DUP3 PUSH1 0x1 ADD SLOAD PUSH0 DUP1 DUP8 PUSH20 0xFFFFFFFFFFFFFFFFFFFFFFFFFFFFFFFFFFFFFFFF AND PUSH20 0xFFFFFFFFFFFFFFFFFFFFFFFFFFFFFFFFFFFFFFFF AND DUP2 MSTORE PUSH1 0x20 ADD SWAP1 DUP2 MSTORE PUSH1 0x20 ADD PUSH0 KECCAK256 PUSH1 0x4 ADD SLOAD PUSH2 0xB92 SWAP2 SWAP1 PUSH2 0x17E6 JUMP JUMPDEST PUSH2 0xB9C SWAP2 SWAP1 PUSH2 0x1854 JUMP JUMPDEST SWAP1 POP DUP2 PUSH0 ADD PUSH0 SWAP1 SLOAD SWAP1 PUSH2 0x100 EXP SWAP1 DIV PUSH20 0xFFFFFFFFFFFFFFFFFFFFFFFFFFFFFFFFFFFFFFFF AND PUSH20 0xFFFFFFFFFFFFFFFFFFFFFFFFFFFFFFFFFFFFFFFF AND PUSH2 0x8FC DUP3 SWAP1 DUP2 ISZERO MUL SWAP1 PUSH1 0x40 MLOAD PUSH0 PUSH1 0x40 MLOAD DUP1 DUP4 SUB DUP2 DUP6 DUP9 DUP9 CALL SWAP4 POP POP POP POP ISZERO DUP1 ISZERO PUSH2 0xC03 JUMPI RETURNDATASIZE PUSH0 DUP1 RETURNDATACOPY RETURNDATASIZE PUSH0 REVERT JUMPDEST POP DUP2 PUSH0 ADD PUSH0 SWAP1 SLOAD SWAP1 PUSH2 0x100 EXP SWAP1 DIV PUSH20 0xFFFFFFFFFFFFFFFFFFFFFFFFFFFFFFFFFFFFFFFF AND PUSH20 0xFFFFFFFFFFFFFFFFFFFFFFFFFFFFFFFFFFFFFFFF AND PUSH32 0x263D976337B68011634FB07C07212194969A5F466ACEFB29EE0BC9DAE990BF06 DUP3 DUP5 PUSH1 0x2 ADD DUP6 PUSH1 0x3 ADD PUSH1 0x40 MLOAD PUSH2 0xC76 SWAP4 SWAP3 SWAP2 SWAP1 PUSH2 0x1928 JUMP JUMPDEST PUSH1 0x40 MLOAD DUP1 SWAP2 SUB SWAP1 LOG2 POP POP DUP1 DUP1 PUSH1 0x1 ADD SWAP2 POP POP PUSH2 0xA96 JUMP JUMPDEST POP PUSH0 DUP1 PUSH0 DUP4 PUSH20 0xFFFFFFFFFFFFFFFFFFFFFFFFFFFFFFFFFFFFFFFF AND PUSH20 0xFFFFFFFFFFFFFFFFFFFFFFFFFFFFFFFFFFFFFFFF AND DUP2 MSTORE PUSH1 0x20 ADD SWAP1 DUP2 MSTORE PUSH1 0x20 ADD PUSH0 KECCAK256 PUSH1 0x4 ADD DUP2 SWAP1 SSTORE POP DUP1 PUSH20 0xFFFFFFFFFFFFFFFFFFFFFFFFFFFFFFFFFFFFFFFF AND PUSH32 0x16346F65ADF8D84422B57AD74CB5607BF6C9E55C3C1FEA66344057E5BBA8A7EE PUSH1 0x40 MLOAD PUSH1 0x40 MLOAD DUP1 SWAP2 SUB SWAP1 LOG2 POP JUMP JUMPDEST PUSH0 PUSH1 0x40 MLOAD SWAP1 POP SWAP1 JUMP JUMPDEST PUSH0 DUP1 REVERT JUMPDEST PUSH0 DUP1 REVERT JUMPDEST PUSH0 PUSH20 0xFFFFFFFFFFFFFFFFFFFFFFFFFFFFFFFFFFFFFFFF DUP3 AND SWAP1 POP SWAP2 SWAP1 POP JUMP JUMPDEST PUSH0 PUSH2 0xD52 DUP3 PUSH2 0xD29 JUMP JUMPDEST SWAP1 POP SWAP2 SWAP1 POP JUMP JUMPDEST PUSH2 0xD62 DUP2 PUSH2 0xD48 JUMP JUMPDEST DUP2 EQ PUSH2 0xD6C JUMPI PUSH0 DUP1 REVERT JUMPDEST POP JUMP JUMPDEST PUSH0 DUP2 CALLDATALOAD SWAP1 POP PUSH2 0xD7D DUP2 PUSH2 0xD59 JUMP JUMPDEST SWAP3 SWAP2 POP POP JUMP JUMPDEST PUSH0 DUP2 SWAP1 POP SWAP2 SWAP1 POP JUMP JUMPDEST PUSH2 0xD95 DUP2 PUSH2 0xD83 JUMP JUMPDEST DUP2 EQ PUSH2 0xD9F JUMPI PUSH0 DUP1 REVERT JUMPDEST POP JUMP JUMPDEST PUSH0 DUP2 CALLDATALOAD SWAP1 POP PUSH2 0xDB0 DUP2 PUSH2 0xD8C JUMP JUMPDEST SWAP3 SWAP2 POP POP JUMP JUMPDEST PUSH0 DUP1 REVERT JUMPDEST PUSH0 DUP1 REVERT JUMPDEST PUSH0 PUSH1 0x1F NOT PUSH1 0x1F DUP4 ADD AND SWAP1 POP SWAP2 SWAP1 POP JUMP JUMPDEST PUSH32 0x4E487B7100000000000000000000000000000000000000000000000000000000 PUSH0 MSTORE PUSH1 0x41 PUSH1 0x4 MSTORE PUSH1 0x24 PUSH0 REVERT JUMPDEST PUSH2 0xE04 DUP3 PUSH2 0xDBE JUMP JUMPDEST DUP2 ADD DUP2 DUP2 LT PUSH8 0xFFFFFFFFFFFFFFFF DUP3 GT OR ISZERO PUSH2 0xE23 JUMPI PUSH2 0xE22 PUSH2 0xDCE JUMP JUMPDEST JUMPDEST DUP1 PUSH1 0x40 MSTORE POP POP POP JUMP JUMPDEST PUSH0 PUSH2 0xE35 PUSH2 0xD18 JUMP JUMPDEST SWAP1 POP PUSH2 0xE41 DUP3 DUP3 PUSH2 0xDFB JUMP JUMPDEST SWAP2 SWAP1 POP JUMP JUMPDEST PUSH0 PUSH8 0xFFFFFFFFFFFFFFFF DUP3 GT ISZERO PUSH2 0xE60 JUMPI PUSH2 0xE5F PUSH2 0xDCE JUMP JUMPDEST JUMPDEST PUSH2 0xE69 DUP3 PUSH2 0xDBE JUMP JUMPDEST SWAP1 POP PUSH1 0x20 DUP2 ADD SWAP1 POP SWAP2 SWAP1 POP JUMP JUMPDEST DUP3 DUP2 DUP4 CALLDATACOPY PUSH0 DUP4 DUP4 ADD MSTORE POP POP POP JUMP JUMPDEST PUSH0 PUSH2 0xE96 PUSH2 0xE91 DUP5 PUSH2 0xE46 JUMP JUMPDEST PUSH2 0xE2C JUMP JUMPDEST SWAP1 POP DUP3 DUP2 MSTORE PUSH1 0x20 DUP2 ADD DUP5 DUP5 DUP5 ADD GT ISZERO PUSH2 0xEB2 JUMPI PUSH2 0xEB1 PUSH2 0xDBA JUMP JUMPDEST JUMPDEST PUSH2 0xEBD DUP5 DUP3 DUP6 PUSH2 0xE76 JUMP JUMPDEST POP SWAP4 SWAP3 POP POP POP JUMP JUMPDEST PUSH0 DUP3 PUSH1 0x1F DUP4 ADD SLT PUSH2 0xED9 JUMPI PUSH2 0xED8 PUSH2 0xDB6 JUMP JUMPDEST JUMPDEST DUP2 CALLDATALOAD PUSH2 0xEE9 DUP5 DUP3 PUSH1 0x20 DUP7 ADD PUSH2 0xE84 JUMP JUMPDEST SWAP2 POP POP SWAP3 SWAP2 POP POP JUMP JUMPDEST PUSH0 DUP1 PUSH0 DUP1 PUSH1 0x80 DUP6 DUP8 SUB SLT ISZERO PUSH2 0xF0A JUMPI PUSH2 0xF09 PUSH2 0xD21 JUMP JUMPDEST JUMPDEST PUSH0 PUSH2 0xF17 DUP8 DUP3 DUP9 ADD PUSH2 0xD6F JUMP JUMPDEST SWAP5 POP POP PUSH1 0x20 PUSH2 0xF28 DUP8 DUP3 DUP9 ADD PUSH2 0xDA2 JUMP JUMPDEST SWAP4 POP POP PUSH1 0x40 DUP6 ADD CALLDATALOAD PUSH8 0xFFFFFFFFFFFFFFFF DUP2 GT ISZERO PUSH2 0xF49 JUMPI PUSH2 0xF48 PUSH2 0xD25 JUMP JUMPDEST JUMPDEST PUSH2 0xF55 DUP8 DUP3 DUP9 ADD PUSH2 0xEC5 JUMP JUMPDEST SWAP3 POP POP PUSH1 0x60 DUP6 ADD CALLDATALOAD PUSH8 0xFFFFFFFFFFFFFFFF DUP2 GT ISZERO PUSH2 0xF76 JUMPI PUSH2 0xF75 PUSH2 0xD25 JUMP JUMPDEST JUMPDEST PUSH2 0xF82 DUP8 DUP3 DUP9 ADD PUSH2 0xEC5 JUMP JUMPDEST SWAP2 POP POP SWAP3 SWAP6 SWAP2 SWAP5 POP SWAP3 POP JUMP JUMPDEST PUSH0 PUSH2 0xF98 DUP3 PUSH2 0xD29 JUMP JUMPDEST SWAP1 POP SWAP2 SWAP1 POP JUMP JUMPDEST PUSH2 0xFA8 DUP2 PUSH2 0xF8E JUMP JUMPDEST DUP2 EQ PUSH2 0xFB2 JUMPI PUSH0 DUP1 REVERT JUMPDEST POP JUMP JUMPDEST PUSH0 DUP2 CALLDATALOAD SWAP1 POP PUSH2 0xFC3 DUP2 PUSH2 0xF9F JUMP JUMPDEST SWAP3 SWAP2 POP POP JUMP JUMPDEST PUSH0 PUSH1 0x20 DUP3 DUP5 SUB SLT ISZERO PUSH2 0xFDE JUMPI PUSH2 0xFDD PUSH2 0xD21 JUMP JUMPDEST JUMPDEST PUSH0 PUSH2 0xFEB DUP5 DUP3 DUP6 ADD PUSH2 0xFB5 JUMP JUMPDEST SWAP2 POP POP SWAP3 SWAP2 POP POP JUMP JUMPDEST PUSH0 DUP2 ISZERO ISZERO SWAP1 POP SWAP2 SWAP1 POP JUMP JUMPDEST PUSH2 0x1008 DUP2 PUSH2 0xFF4 JUMP JUMPDEST DUP3 MSTORE POP POP JUMP JUMPDEST PUSH0 PUSH1 0x20 DUP3 ADD SWAP1 POP PUSH2 0x1021 PUSH0 DUP4 ADD DUP5 PUSH2 0xFFF JUMP JUMPDEST SWAP3 SWAP2 POP POP JUMP JUMPDEST PUSH0 DUP1 PUSH0 DUP1 PUSH0 PUSH1 0xA0 DUP7 DUP9 SUB SLT ISZERO PUSH2 0x1040 JUMPI PUSH2 0x103F PUSH2 0xD21 JUMP JUMPDEST JUMPDEST PUSH0 DUP7 ADD CALLDATALOAD PUSH8 0xFFFFFFFFFFFFFFFF DUP2 GT ISZERO PUSH2 0x105D JUMPI PUSH2 0x105C PUSH2 0xD25 JUMP JUMPDEST JUMPDEST PUSH2 0x1069 DUP9 DUP3 DUP10 ADD PUSH2 0xEC5 JUMP JUMPDEST SWAP6 POP POP PUSH1 0x20 DUP7 ADD CALLDATALOAD PUSH8 0xFFFFFFFFFFFFFFFF DUP2 GT ISZERO PUSH2 0x108A JUMPI PUSH2 0x1089 PUSH2 0xD25 JUMP JUMPDEST JUMPDEST PUSH2 0x1096 DUP9 DUP3 DUP10 ADD PUSH2 0xEC5 JUMP JUMPDEST SWAP5 POP POP PUSH1 0x40 DUP7 ADD CALLDATALOAD PUSH8 0xFFFFFFFFFFFFFFFF DUP2 GT ISZERO PUSH2 0x10B7 JUMPI PUSH2 0x10B6 PUSH2 0xD25 JUMP JUMPDEST JUMPDEST PUSH2 0x10C3 DUP9 DUP3 DUP10 ADD PUSH2 0xEC5 JUMP JUMPDEST SWAP4 POP POP PUSH1 0x60 PUSH2 0x10D4 DUP9 DUP3 DUP10 ADD PUSH2 0xDA2 JUMP JUMPDEST SWAP3 POP POP PUSH1 0x80 DUP7 ADD CALLDATALOAD PUSH8 0xFFFFFFFFFFFFFFFF DUP2 GT ISZERO PUSH2 0x10F5 JUMPI PUSH2 0x10F4 PUSH2 0xD25 JUMP JUMPDEST JUMPDEST PUSH2 0x1101 DUP9 DUP3 DUP10 ADD PUSH2 0xEC5 JUMP JUMPDEST SWAP2 POP POP SWAP3 SWAP6 POP SWAP3 SWAP6 SWAP1 SWAP4 POP JUMP JUMPDEST PUSH0 DUP3 DUP3 MSTORE PUSH1 0x20 DUP3 ADD SWAP1 POP SWAP3 SWAP2 POP POP JUMP JUMPDEST PUSH32 0x596F75206E65656420746F2063726561746520612077696C6C20666972737400 PUSH0 DUP3 ADD MSTORE POP JUMP JUMPDEST PUSH0 PUSH2 0x1152 PUSH1 0x1F DUP4 PUSH2 0x110E JUMP JUMPDEST SWAP2 POP PUSH2 0x115D DUP3 PUSH2 0x111E JUMP JUMPDEST PUSH1 0x20 DUP3 ADD SWAP1 POP SWAP2 SWAP1 POP JUMP JUMPDEST PUSH0 PUSH1 0x20 DUP3 ADD SWAP1 POP DUP2 DUP2 SUB PUSH0 DUP4 ADD MSTORE PUSH2 0x117F DUP2 PUSH2 0x1146 JUMP JUMPDEST SWAP1 POP SWAP2 SWAP1 POP JUMP JUMPDEST PUSH32 0x496E76616C69642070657263656E746167650000000000000000000000000000 PUSH0 DUP3 ADD MSTORE POP JUMP JUMPDEST PUSH0 PUSH2 0x11BA PUSH1 0x12 DUP4 PUSH2 0x110E JUMP JUMPDEST SWAP2 POP PUSH2 0x11C5 DUP3 PUSH2 0x1186 JUMP JUMPDEST PUSH1 0x20 DUP3 ADD SWAP1 POP SWAP2 SWAP1 POP JUMP JUMPDEST PUSH0 PUSH1 0x20 DUP3 ADD SWAP1 POP DUP2 DUP2 SUB PUSH0 DUP4 ADD MSTORE PUSH2 0x11E7 DUP2 PUSH2 0x11AE JUMP JUMPDEST SWAP1 POP SWAP2 SWAP1 POP JUMP JUMPDEST PUSH32 0x4E487B7100000000000000000000000000000000000000000000000000000000 PUSH0 MSTORE PUSH1 0x32 PUSH1 0x4 MSTORE PUSH1 0x24 PUSH0 REVERT JUMPDEST PUSH32 0x4E487B7100000000000000000000000000000000000000000000000000000000 PUSH0 MSTORE PUSH1 0x11 PUSH1 0x4 MSTORE PUSH1 0x24 PUSH0 REVERT JUMPDEST PUSH0 PUSH2 0x1252 DUP3 PUSH2 0xD83 JUMP JUMPDEST SWAP2 POP PUSH2 0x125D DUP4 PUSH2 0xD83 JUMP JUMPDEST SWAP3 POP DUP3 DUP3 ADD SWAP1 POP DUP1 DUP3 GT ISZERO PUSH2 0x1275 JUMPI PUSH2 0x1274 PUSH2 0x121B JUMP JUMPDEST JUMPDEST SWAP3 SWAP2 POP POP JUMP JUMPDEST PUSH32 0x546F74616C20616C6C6F636174696F6E20657863656564732031303025000000 PUSH0 DUP3 ADD MSTORE POP JUMP JUMPDEST PUSH0 PUSH2 0x12AF PUSH1 0x1D DUP4 PUSH2 0x110E JUMP JUMPDEST SWAP2 POP PUSH2 0x12BA DUP3 PUSH2 0x127B JUMP JUMPDEST PUSH1 0x20 DUP3 ADD SWAP1 POP SWAP2 SWAP1 POP JUMP JUMPDEST PUSH0 PUSH1 0x20 DUP3 ADD SWAP1 POP DUP2 DUP2 SUB PUSH0 DUP4 ADD MSTORE PUSH2 0x12DC DUP2 PUSH2 0x12A3 JUMP JUMPDEST SWAP1 POP SWAP2 SWAP1 POP JUMP JUMPDEST PUSH0 DUP2 MLOAD SWAP1 POP SWAP2 SWAP1 POP JUMP JUMPDEST PUSH32 0x4E487B7100000000000000000000000000000000000000000000000000000000 PUSH0 MSTORE PUSH1 0x22 PUSH1 0x4 MSTORE PUSH1 0x24 PUSH0 REVERT JUMPDEST PUSH0 PUSH1 0x2 DUP3 DIV SWAP1 POP PUSH1 0x1 DUP3 AND DUP1 PUSH2 0x1331 JUMPI PUSH1 0x7F DUP3 AND SWAP2 POP JUMPDEST PUSH1 0x20 DUP3 LT DUP2 SUB PUSH2 0x1344 JUMPI PUSH2 0x1343 PUSH2 0x12ED JUMP JUMPDEST JUMPDEST POP SWAP2 SWAP1 POP JUMP JUMPDEST PUSH0 DUP2 SWAP1 POP DUP2 PUSH0 MSTORE PUSH1 0x20 PUSH0 KECCAK256 SWAP1 POP SWAP2 SWAP1 POP JUMP JUMPDEST PUSH0 PUSH1 0x20 PUSH1 0x1F DUP4 ADD DIV SWAP1 POP SWAP2 SWAP1 POP JUMP JUMPDEST PUSH0 DUP3 DUP3 SHL SWAP1 POP SWAP3 SWAP2 POP POP JUMP JUMPDEST PUSH0 PUSH1 0x8 DUP4 MUL PUSH2 0x13A6 PUSH32 0xFFFFFFFFFFFFFFFFFFFFFFFFFFFFFFFFFFFFFFFFFFFFFFFFFFFFFFFFFFFFFFFF DUP3 PUSH2 0x136B JUMP JUMPDEST PUSH2 0x13B0 DUP7 DUP4 PUSH2 0x136B JUMP JUMPDEST SWAP6 POP DUP1 NOT DUP5 AND SWAP4 POP DUP1 DUP7 AND DUP5 OR SWAP3 POP POP POP SWAP4 SWAP3 POP POP POP JUMP JUMPDEST PUSH0 DUP2 SWAP1 POP SWAP2 SWAP1 POP JUMP JUMPDEST PUSH0 PUSH2 0x13EB PUSH2 0x13E6 PUSH2 0x13E1 DUP5 PUSH2 0xD83 JUMP JUMPDEST PUSH2 0x13C8 JUMP JUMPDEST PUSH2 0xD83 JUMP JUMPDEST SWAP1 POP SWAP2 SWAP1 POP JUMP JUMPDEST PUSH0 DUP2 SWAP1 POP SWAP2 SWAP1 POP JUMP JUMPDEST PUSH2 0x1404 DUP4 PUSH2 0x13D1 JUMP JUMPDEST PUSH2 0x1418 PUSH2 0x1410 DUP3 PUSH2 0x13F2 JUMP JUMPDEST DUP5 DUP5 SLOAD PUSH2 0x1377 JUMP JUMPDEST DUP3 SSTORE POP POP POP POP JUMP JUMPDEST PUSH0 SWAP1 JUMP JUMPDEST PUSH2 0x142C PUSH2 0x1420 JUMP JUMPDEST PUSH2 0x1437 DUP2 DUP5 DUP5 PUSH2 0x13FB JUMP JUMPDEST POP POP POP JUMP JUMPDEST JUMPDEST DUP2 DUP2 LT ISZERO PUSH2 0x145A JUMPI PUSH2 0x144F PUSH0 DUP3 PUSH2 0x1424 JUMP JUMPDEST PUSH1 0x1 DUP2 ADD SWAP1 POP PUSH2 0x143D JUMP JUMPDEST POP POP JUMP JUMPDEST PUSH1 0x1F DUP3 GT ISZERO PUSH2 0x149F JUMPI PUSH2 0x1470 DUP2 PUSH2 0x134A JUMP JUMPDEST PUSH2 0x1479 DUP5 PUSH2 0x135C JUMP JUMPDEST DUP2 ADD PUSH1 0x20 DUP6 LT ISZERO PUSH2 0x1488 JUMPI DUP2 SWAP1 POP JUMPDEST PUSH2 0x149C PUSH2 0x1494 DUP6 PUSH2 0x135C JUMP JUMPDEST DUP4 ADD DUP3 PUSH2 0x143C JUMP JUMPDEST POP POP JUMPDEST POP POP POP JUMP JUMPDEST PUSH0 DUP3 DUP3 SHR SWAP1 POP SWAP3 SWAP2 POP POP JUMP JUMPDEST PUSH0 PUSH2 0x14BF PUSH0 NOT DUP5 PUSH1 0x8 MUL PUSH2 0x14A4 JUMP JUMPDEST NOT DUP1 DUP4 AND SWAP2 POP POP SWAP3 SWAP2 POP POP JUMP JUMPDEST PUSH0 PUSH2 0x14D7 DUP4 DUP4 PUSH2 0x14B0 JUMP JUMPDEST SWAP2 POP DUP3 PUSH1 0x2 MUL DUP3 OR SWAP1 POP SWAP3 SWAP2 POP POP JUMP JUMPDEST PUSH2 0x14F0 DUP3 PUSH2 0x12E3 JUMP JUMPDEST PUSH8 0xFFFFFFFFFFFFFFFF DUP2 GT ISZERO PUSH2 0x1509 JUMPI PUSH2 0x1508 PUSH2 0xDCE JUMP JUMPDEST JUMPDEST PUSH2 0x1513 DUP3 SLOAD PUSH2 0x131A JUMP JUMPDEST PUSH2 0x151E DUP3 DUP3 DUP6 PUSH2 0x145E JUMP JUMPDEST PUSH0 PUSH1 0x20 SWAP1 POP PUSH1 0x1F DUP4 GT PUSH1 0x1 DUP2 EQ PUSH2 0x154F JUMPI PUSH0 DUP5 ISZERO PUSH2 0x153D JUMPI DUP3 DUP8 ADD MLOAD SWAP1 POP JUMPDEST PUSH2 0x1547 DUP6 DUP3 PUSH2 0x14CC JUMP JUMPDEST DUP7 SSTORE POP PUSH2 0x15AE JUMP JUMPDEST PUSH1 0x1F NOT DUP5 AND PUSH2 0x155D DUP7 PUSH2 0x134A JUMP JUMPDEST PUSH0 JUMPDEST DUP3 DUP2 LT ISZERO PUSH2 0x1584 JUMPI DUP5 DUP10 ADD MLOAD DUP3 SSTORE PUSH1 0x1 DUP3 ADD SWAP2 POP PUSH1 0x20 DUP6 ADD SWAP5 POP PUSH1 0x20 DUP2 ADD SWAP1 POP PUSH2 0x155F JUMP JUMPDEST DUP7 DUP4 LT ISZERO PUSH2 0x15A1 JUMPI DUP5 DUP10 ADD MLOAD PUSH2 0x159D PUSH1 0x1F DUP10 AND DUP3 PUSH2 0x14B0 JUMP JUMPDEST DUP4 SSTORE POP JUMPDEST PUSH1 0x1 PUSH1 0x2 DUP9 MUL ADD DUP9 SSTORE POP POP POP JUMPDEST POP POP POP POP POP POP JUMP JUMPDEST PUSH32 0x596F7520616C7265616479206861766520612077696C6C210000000000000000 PUSH0 DUP3 ADD MSTORE POP JUMP JUMPDEST PUSH0 PUSH2 0x15EA PUSH1 0x18 DUP4 PUSH2 0x110E JUMP JUMPDEST SWAP2 POP PUSH2 0x15F5 DUP3 PUSH2 0x15B6 JUMP JUMPDEST PUSH1 0x20 DUP3 ADD SWAP1 POP SWAP2 SWAP1 POP JUMP JUMPDEST PUSH0 PUSH1 0x20 DUP3 ADD SWAP1 POP DUP2 DUP2 SUB PUSH0 DUP4 ADD MSTORE PUSH2 0x1617 DUP2 PUSH2 0x15DE JUMP JUMPDEST SWAP1 POP SWAP2 SWAP1 POP JUMP JUMPDEST PUSH32 0x4D757374206C6F636B2045544821000000000000000000000000000000000000 PUSH0 DUP3 ADD MSTORE POP JUMP JUMPDEST PUSH0 PUSH2 0x1652 PUSH1 0xE DUP4 PUSH2 0x110E JUMP JUMPDEST SWAP2 POP PUSH2 0x165D DUP3 PUSH2 0x161E JUMP JUMPDEST PUSH1 0x20 DUP3 ADD SWAP1 POP SWAP2 SWAP1 POP JUMP JUMPDEST PUSH0 PUSH1 0x20 DUP3 ADD SWAP1 POP DUP2 DUP2 SUB PUSH0 DUP4 ADD MSTORE PUSH2 0x167F DUP2 PUSH2 0x1646 JUMP JUMPDEST SWAP1 POP SWAP2 SWAP1 POP JUMP JUMPDEST PUSH2 0x168F DUP2 PUSH2 0xD83 JUMP JUMPDEST DUP3 MSTORE POP POP JUMP JUMPDEST PUSH0 PUSH1 0x20 DUP3 ADD SWAP1 POP PUSH2 0x16A8 PUSH0 DUP4 ADD DUP5 PUSH2 0x1686 JUMP JUMPDEST SWAP3 SWAP2 POP POP JUMP JUMPDEST PUSH32 0x4E6F2077696C6C20666F756E6421000000000000000000000000000000000000 PUSH0 DUP3 ADD MSTORE POP JUMP JUMPDEST PUSH0 PUSH2 0x16E2 PUSH1 0xE DUP4 PUSH2 0x110E JUMP JUMPDEST SWAP2 POP PUSH2 0x16ED DUP3 PUSH2 0x16AE JUMP JUMPDEST PUSH1 0x20 DUP3 ADD SWAP1 POP SWAP2 SWAP1 POP JUMP JUMPDEST PUSH0 PUSH1 0x20 DUP3 ADD SWAP1 POP DUP2 DUP2 SUB PUSH0 DUP4 ADD MSTORE PUSH2 0x170F DUP2 PUSH2 0x16D6 JUMP JUMPDEST SWAP1 POP SWAP2 SWAP1 POP JUMP JUMPDEST PUSH32 0x4F776E6572206973207374696C6C20616C697665210000000000000000000000 PUSH0 DUP3 ADD MSTORE POP JUMP JUMPDEST PUSH0 PUSH2 0x174A PUSH1 0x15 DUP4 PUSH2 0x110E JUMP JUMPDEST SWAP2 POP PUSH2 0x1755 DUP3 PUSH2 0x1716 JUMP JUMPDEST PUSH1 0x20 DUP3 ADD SWAP1 POP SWAP2 SWAP1 POP JUMP JUMPDEST PUSH0 PUSH1 0x20 DUP3 ADD SWAP1 POP DUP2 DUP2 SUB PUSH0 DUP4 ADD MSTORE PUSH2 0x1777 DUP2 PUSH2 0x173E JUMP JUMPDEST SWAP1 POP SWAP2 SWAP1 POP JUMP JUMPDEST PUSH32 0x57696C6C20616C72656164792065786563757465642100000000000000000000 PUSH0 DUP3 ADD MSTORE POP JUMP JUMPDEST PUSH0 PUSH2 0x17B2 PUSH1 0x16 DUP4 PUSH2 0x110E JUMP JUMPDEST SWAP2 POP PUSH2 0x17BD DUP3 PUSH2 0x177E JUMP JUMPDEST PUSH1 0x20 DUP3 ADD SWAP1 POP SWAP2 SWAP1 POP JUMP JUMPDEST PUSH0 PUSH1 0x20 DUP3 ADD SWAP1 POP DUP2 DUP2 SUB PUSH0 DUP4 ADD MSTORE PUSH2 0x17DF DUP2 PUSH2 0x17A6 JUMP JUMPDEST SWAP1 POP SWAP2 SWAP1 POP JUMP JUMPDEST PUSH0 PUSH2 0x17F0 DUP3 PUSH2 0xD83 JUMP JUMPDEST SWAP2 POP PUSH2 0x17FB DUP4 PUSH2 0xD83 JUMP JUMPDEST SWAP3 POP DUP3 DUP3 MUL PUSH2 0x1809 DUP2 PUSH2 0xD83 JUMP JUMPDEST SWAP2 POP DUP3 DUP3 DIV DUP5 EQ DUP4 ISZERO OR PUSH2 0x1820 JUMPI PUSH2 0x181F PUSH2 0x121B JUMP JUMPDEST JUMPDEST POP SWAP3 SWAP2 POP POP JUMP JUMPDEST PUSH32 0x4E487B7100000000000000000000000000000000000000000000000000000000 PUSH0 MSTORE PUSH1 0x12 PUSH1 0x4 MSTORE PUSH1 0x24 PUSH0 REVERT JUMPDEST PUSH0 PUSH2 0x185E DUP3 PUSH2 0xD83 JUMP JUMPDEST SWAP2 POP PUSH2 0x1869 DUP4 PUSH2 0xD83 JUMP JUMPDEST SWAP3 POP DUP3 PUSH2 0x1879 JUMPI PUSH2 0x1878 PUSH2 0x1827 JUMP JUMPDEST JUMPDEST DUP3 DUP3 DIV SWAP1 POP SWAP3 SWAP2 POP POP JUMP JUMPDEST PUSH0 DUP2 SLOAD PUSH2 0x1890 DUP2 PUSH2 0x131A JUMP JUMPDEST PUSH2 0x189A DUP2 DUP7 PUSH2 0x110E JUMP JUMPDEST SWAP5 POP PUSH1 0x1 DUP3 AND PUSH0 DUP2 EQ PUSH2 0x18B4 JUMPI PUSH1 0x1 DUP2 EQ PUSH2 0x18CA JUMPI PUSH2 0x18FC JUMP JUMPDEST PUSH1 0xFF NOT DUP4 AND DUP7 MSTORE DUP2 ISZERO ISZERO PUSH1 0x20 MUL DUP7 ADD SWAP4 POP PUSH2 0x18FC JUMP JUMPDEST PUSH2 0x18D3 DUP6 PUSH2 0x134A JUMP JUMPDEST PUSH0 JUMPDEST DUP4 DUP2 LT ISZERO PUSH2 0x18F4 JUMPI DUP2 SLOAD DUP2 DUP10 ADD MSTORE PUSH1 0x1 DUP3 ADD SWAP2 POP PUSH1 0x20 DUP2 ADD SWAP1 POP PUSH2 0x18D5 JUMP JUMPDEST DUP1 DUP9 ADD SWAP6 POP POP POP JUMPDEST POP POP POP SWAP3 SWAP2 POP POP JUMP JUMPDEST POP JUMP JUMPDEST PUSH0 PUSH2 0x1913 PUSH0 DUP4 PUSH2 0x110E JUMP JUMPDEST SWAP2 POP PUSH2 0x191E DUP3 PUSH2 0x1905 JUMP JUMPDEST PUSH0 DUP3 ADD SWAP1 POP SWAP2 SWAP1 POP JUMP JUMPDEST PUSH0 PUSH1 0x80 DUP3 ADD SWAP1 POP PUSH2 0x193B PUSH0 DUP4 ADD DUP7 PUSH2 0x1686 JUMP JUMPDEST DUP2 DUP2 SUB PUSH1 0x20 DUP4 ADD MSTORE PUSH2 0x194D DUP2 DUP6 PUSH2 0x1884 JUMP JUMPDEST SWAP1 POP DUP2 DUP2 SUB PUSH1 0x40 DUP4 ADD MSTORE PUSH2 0x1961 DUP2 DUP5 PUSH2 0x1884 JUMP JUMPDEST SWAP1 POP DUP2 DUP2 SUB PUSH1 0x60 DUP4 ADD MSTORE PUSH2 0x1974 DUP2 PUSH2 0x1908 JUMP JUMPDEST SWAP1 POP SWAP5 SWAP4 POP POP POP POP JUMP INVALID LOG2 PUSH5 0x6970667358 0x22 SLT KECCAK256 0x4C 0x22 0xEB ADDRESS 0x29 CODESIZE SDIV 0xF6 0xBA REVERT 0xC8 PUSH7 0x6266F52E161112 0xA5 PUSH19 0xEC5754099AB07C54F8FA2364736F6C63430008 BYTE STOP CALLER "
	},
	"Assembly": ".code\n  PUSH 80\t\t\tcontract MultiWillContract {\\n...\n  PUSH 40\t\t\tcontract MultiWillContract {\\n...\n  MSTORE \t\t\tcontract MultiWillContract {\\n...\n  CALLVALUE \t\t\tcontract MultiWillContract {\\n...\n  DUP1 \t\t\tcontract MultiWillContract {\\n...\n  ISZERO \t\t\tcontract MultiWillContract {\\n...\n  PUSH [tag] 1\t\t\tcontract MultiWillContract {\\n...\n  JUMPI \t\t\tcontract MultiWillContract {\\n...\n  PUSH 0\t\t\tcontract MultiWillContract {\\n...\n  DUP1 \t\t\tcontract MultiWillContract {\\n...\n  REVERT \t\t\tcontract MultiWillContract {\\n...\ntag 1\t\t\tcontract MultiWillContract {\\n...\n  JUMPDEST \t\t\tcontract MultiWillContract {\\n...\n  POP \t\t\tcontract MultiWillContract {\\n...\n  PUSH #[$] 0000000000000000000000000000000000000000000000000000000000000000\t\t\tcontract MultiWillContract {\\n...\n  DUP1 \t\t\tcontract MultiWillContract {\\n...\n  PUSH [$] 0000000000000000000000000000000000000000000000000000000000000000\t\t\tcontract MultiWillContract {\\n...\n  PUSH 0\t\t\tcontract MultiWillContract {\\n...\n  CODECOPY \t\t\tcontract MultiWillContract {\\n...\n  PUSH 0\t\t\tcontract MultiWillContract {\\n...\n  RETURN \t\t\tcontract MultiWillContract {\\n...\n.data\n  0:\n    .code\n      PUSH 80\t\t\tcontract MultiWillContract {\\n...\n      PUSH 40\t\t\tcontract MultiWillContract {\\n...\n      MSTORE \t\t\tcontract MultiWillContract {\\n...\n      PUSH 4\t\t\tcontract MultiWillContract {\\n...\n      CALLDATASIZE \t\t\tcontract MultiWillContract {\\n...\n      LT \t\t\tcontract MultiWillContract {\\n...\n      PUSH [tag] 1\t\t\tcontract MultiWillContract {\\n...\n      JUMPI \t\t\tcontract MultiWillContract {\\n...\n      PUSH 0\t\t\tcontract MultiWillContract {\\n...\n      CALLDATALOAD \t\t\tcontract MultiWillContract {\\n...\n      PUSH E0\t\t\tcontract MultiWillContract {\\n...\n      SHR \t\t\tcontract MultiWillContract {\\n...\n      DUP1 \t\t\tcontract MultiWillContract {\\n...\n      PUSH 4EBDE6D3\t\t\tcontract MultiWillContract {\\n...\n      EQ \t\t\tcontract MultiWillContract {\\n...\n      PUSH [tag] 2\t\t\tcontract MultiWillContract {\\n...\n      JUMPI \t\t\tcontract MultiWillContract {\\n...\n      DUP1 \t\t\tcontract MultiWillContract {\\n...\n      PUSH 549CC7B8\t\t\tcontract MultiWillContract {\\n...\n      EQ \t\t\tcontract MultiWillContract {\\n...\n      PUSH [tag] 3\t\t\tcontract MultiWillContract {\\n...\n      JUMPI \t\t\tcontract MultiWillContract {\\n...\n      DUP1 \t\t\tcontract MultiWillContract {\\n...\n      PUSH DD958B12\t\t\tcontract MultiWillContract {\\n...\n      EQ \t\t\tcontract MultiWillContract {\\n...\n      PUSH [tag] 4\t\t\tcontract MultiWillContract {\\n...\n      JUMPI \t\t\tcontract MultiWillContract {\\n...\n      DUP1 \t\t\tcontract MultiWillContract {\\n...\n      PUSH E854D135\t\t\tcontract MultiWillContract {\\n...\n      EQ \t\t\tcontract MultiWillContract {\\n...\n      PUSH [tag] 5\t\t\tcontract MultiWillContract {\\n...\n      JUMPI \t\t\tcontract MultiWillContract {\\n...\n    tag 1\t\t\tcontract MultiWillContract {\\n...\n      JUMPDEST \t\t\tcontract MultiWillContract {\\n...\n      PUSH 0\t\t\tcontract MultiWillContract {\\n...\n      DUP1 \t\t\tcontract MultiWillContract {\\n...\n      REVERT \t\t\tcontract MultiWillContract {\\n...\n    tag 2\t\t\tfunction addBeneficiary(\\n    ...\n      JUMPDEST \t\t\tfunction addBeneficiary(\\n    ...\n      CALLVALUE \t\t\tfunction addBeneficiary(\\n    ...\n      DUP1 \t\t\tfunction addBeneficiary(\\n    ...\n      ISZERO \t\t\tfunction addBeneficiary(\\n    ...\n      PUSH [tag] 6\t\t\tfunction addBeneficiary(\\n    ...\n      JUMPI \t\t\tfunction addBeneficiary(\\n    ...\n      PUSH 0\t\t\tfunction addBeneficiary(\\n    ...\n      DUP1 \t\t\tfunction addBeneficiary(\\n    ...\n      REVERT \t\t\tfunction addBeneficiary(\\n    ...\n    tag 6\t\t\tfunction addBeneficiary(\\n    ...\n      JUMPDEST \t\t\tfunction addBeneficiary(\\n    ...\n      POP \t\t\tfunction addBeneficiary(\\n    ...\n      PUSH [tag] 7\t\t\tfunction addBeneficiary(\\n    ...\n      PUSH 4\t\t\tfunction addBeneficiary(\\n    ...\n      DUP1 \t\t\tfunction addBeneficiary(\\n    ...\n      CALLDATASIZE \t\t\tfunction addBeneficiary(\\n    ...\n      SUB \t\t\tfunction addBeneficiary(\\n    ...\n      DUP2 \t\t\tfunction addBeneficiary(\\n    ...\n      ADD \t\t\tfunction addBeneficiary(\\n    ...\n      SWAP1 \t\t\tfunction addBeneficiary(\\n    ...\n      PUSH [tag] 8\t\t\tfunction addBeneficiary(\\n    ...\n      SWAP2 \t\t\tfunction addBeneficiary(\\n    ...\n      SWAP1 \t\t\tfunction addBeneficiary(\\n    ...\n      PUSH [tag] 9\t\t\tfunction addBeneficiary(\\n    ...\n      JUMP \t\t\tfunction addBeneficiary(\\n    ...\n    tag 8\t\t\tfunction addBeneficiary(\\n    ...\n      JUMPDEST \t\t\tfunction addBeneficiary(\\n    ...\n      PUSH [tag] 10\t\t\tfunction addBeneficiary(\\n    ...\n      JUMP \t\t\tfunction addBeneficiary(\\n    ...\n    tag 7\t\t\tfunction addBeneficiary(\\n    ...\n      JUMPDEST \t\t\tfunction addBeneficiary(\\n    ...\n      STOP \t\t\tfunction addBeneficiary(\\n    ...\n    tag 3\t\t\tmapping(address => bool) publi...\n      JUMPDEST \t\t\tmapping(address => bool) publi...\n      CALLVALUE \t\t\tmapping(address => bool) publi...\n      DUP1 \t\t\tmapping(address => bool) publi...\n      ISZERO \t\t\tmapping(address => bool) publi...\n      PUSH [tag] 11\t\t\tmapping(address => bool) publi...\n      JUMPI \t\t\tmapping(address => bool) publi...\n      PUSH 0\t\t\tmapping(address => bool) publi...\n      DUP1 \t\t\tmapping(address => bool) publi...\n      REVERT \t\t\tmapping(address => bool) publi...\n    tag 11\t\t\tmapping(address => bool) publi...\n      JUMPDEST \t\t\tmapping(address => bool) publi...\n      POP \t\t\tmapping(address => bool) publi...\n      PUSH [tag] 12\t\t\tmapping(address => bool) publi...\n      PUSH 4\t\t\tmapping(address => bool) publi...\n      DUP1 \t\t\tmapping(address => bool) publi...\n      CALLDATASIZE \t\t\tmapping(address => bool) publi...\n      SUB \t\t\tmapping(address => bool) publi...\n      DUP2 \t\t\tmapping(address => bool) publi...\n      ADD \t\t\tmapping(address => bool) publi...\n      SWAP1 \t\t\tmapping(address => bool) publi...\n      PUSH [tag] 13\t\t\tmapping(address => bool) publi...\n      SWAP2 \t\t\tmapping(address => bool) publi...\n      SWAP1 \t\t\tmapping(address => bool) publi...\n      PUSH [tag] 14\t\t\tmapping(address => bool) publi...\n      JUMP \t\t\tmapping(address => bool) publi...\n    tag 13\t\t\tmapping(address => bool) publi...\n      JUMPDEST \t\t\tmapping(address => bool) publi...\n      PUSH [tag] 15\t\t\tmapping(address => bool) publi...\n      JUMP \t\t\tmapping(address => bool) publi...\n    tag 12\t\t\tmapping(address => bool) publi...\n      JUMPDEST \t\t\tmapping(address => bool) publi...\n      PUSH 40\t\t\tmapping(address => bool) publi...\n      MLOAD \t\t\tmapping(address => bool) publi...\n      PUSH [tag] 16\t\t\tmapping(address => bool) publi...\n      SWAP2 \t\t\tmapping(address => bool) publi...\n      SWAP1 \t\t\tmapping(address => bool) publi...\n      PUSH [tag] 17\t\t\tmapping(address => bool) publi...\n      JUMP \t\t\tmapping(address => bool) publi...\n    tag 16\t\t\tmapping(address => bool) publi...\n      JUMPDEST \t\t\tmapping(address => bool) publi...\n      PUSH 40\t\t\tmapping(address => bool) publi...\n      MLOAD \t\t\tmapping(address => bool) publi...\n      DUP1 \t\t\tmapping(address => bool) publi...\n      SWAP2 \t\t\tmapping(address => bool) publi...\n      SUB \t\t\tmapping(address => bool) publi...\n      SWAP1 \t\t\tmapping(address => bool) publi...\n      RETURN \t\t\tmapping(address => bool) publi...\n    tag 4\t\t\tfunction createWill(\\n        ...\n      JUMPDEST \t\t\tfunction createWill(\\n        ...\n      PUSH [tag] 18\t\t\tfunction createWill(\\n        ...\n      PUSH 4\t\t\tfunction createWill(\\n        ...\n      DUP1 \t\t\tfunction createWill(\\n        ...\n      CALLDATASIZE \t\t\tfunction createWill(\\n        ...\n      SUB \t\t\tfunction createWill(\\n        ...\n      DUP2 \t\t\tfunction createWill(\\n        ...\n      ADD \t\t\tfunction createWill(\\n        ...\n      SWAP1 \t\t\tfunction createWill(\\n        ...\n      PUSH [tag] 19\t\t\tfunction createWill(\\n        ...\n      SWAP2 \t\t\tfunction createWill(\\n        ...\n      SWAP1 \t\t\tfunction createWill(\\n        ...\n      PUSH [tag] 20\t\t\tfunction createWill(\\n        ...\n      JUMP \t\t\tfunction createWill(\\n        ...\n    tag 19\t\t\tfunction createWill(\\n        ...\n      JUMPDEST \t\t\tfunction createWill(\\n        ...\n      PUSH [tag] 21\t\t\tfunction createWill(\\n        ...\n      JUMP \t\t\tfunction createWill(\\n        ...\n    tag 18\t\t\tfunction createWill(\\n        ...\n      JUMPDEST \t\t\tfunction createWill(\\n        ...\n      STOP \t\t\tfunction createWill(\\n        ...\n    tag 5\t\t\tfunction executeWill(address u...\n      JUMPDEST \t\t\tfunction executeWill(address u...\n      CALLVALUE \t\t\tfunction executeWill(address u...\n      DUP1 \t\t\tfunction executeWill(address u...\n      ISZERO \t\t\tfunction executeWill(address u...\n      PUSH [tag] 22\t\t\tfunction executeWill(address u...\n      JUMPI \t\t\tfunction executeWill(address u...\n      PUSH 0\t\t\tfunction executeWill(address u...\n      DUP1 \t\t\tfunction executeWill(address u...\n      REVERT \t\t\tfunction executeWill(address u...\n    tag 22\t\t\tfunction executeWill(address u...\n      JUMPDEST \t\t\tfunction executeWill(address u...\n      POP \t\t\tfunction executeWill(address u...\n      PUSH [tag] 23\t\t\tfunction executeWill(address u...\n      PUSH 4\t\t\tfunction executeWill(address u...\n      DUP1 \t\t\tfunction executeWill(address u...\n      CALLDATASIZE \t\t\tfunction executeWill(address u...\n      SUB \t\t\tfunction executeWill(address u...\n      DUP2 \t\t\tfunction executeWill(address u...\n      ADD \t\t\tfunction executeWill(address u...\n      SWAP1 \t\t\tfunction executeWill(address u...\n      PUSH [tag] 24\t\t\tfunction executeWill(address u...\n      SWAP2 \t\t\tfunction executeWill(address u...\n      SWAP1 \t\t\tfunction executeWill(address u...\n      PUSH [tag] 14\t\t\tfunction executeWill(address u...\n      JUMP \t\t\tfunction executeWill(address u...\n    tag 24\t\t\tfunction executeWill(address u...\n      JUMPDEST \t\t\tfunction executeWill(address u...\n      PUSH [tag] 25\t\t\tfunction executeWill(address u...\n      JUMP \t\t\tfunction executeWill(address u...\n    tag 23\t\t\tfunction executeWill(address u...\n      JUMPDEST \t\t\tfunction executeWill(address u...\n      STOP \t\t\tfunction executeWill(address u...\n    tag 10\t\t\tfunction addBeneficiary(\\n    ...\n      JUMPDEST \t\t\tfunction addBeneficiary(\\n    ...\n      PUSH 1\t\t\thasWill\n      PUSH 0\t\t\thasWill[msg.sender]\n      CALLER \t\t\tmsg.sender\n      PUSH FFFFFFFFFFFFFFFFFFFFFFFFFFFFFFFFFFFFFFFF\t\t\thasWill[msg.sender]\n      AND \t\t\thasWill[msg.sender]\n      PUSH FFFFFFFFFFFFFFFFFFFFFFFFFFFFFFFFFFFFFFFF\t\t\thasWill[msg.sender]\n      AND \t\t\thasWill[msg.sender]\n      DUP2 \t\t\thasWill[msg.sender]\n      MSTORE \t\t\thasWill[msg.sender]\n      PUSH 20\t\t\thasWill[msg.sender]\n      ADD \t\t\thasWill[msg.sender]\n      SWAP1 \t\t\thasWill[msg.sender]\n      DUP2 \t\t\thasWill[msg.sender]\n      MSTORE \t\t\thasWill[msg.sender]\n      PUSH 20\t\t\thasWill[msg.sender]\n      ADD \t\t\thasWill[msg.sender]\n      PUSH 0\t\t\thasWill[msg.sender]\n      KECCAK256 \t\t\thasWill[msg.sender]\n      PUSH 0\t\t\thasWill[msg.sender]\n      SWAP1 \t\t\thasWill[msg.sender]\n      SLOAD \t\t\thasWill[msg.sender]\n      SWAP1 \t\t\thasWill[msg.sender]\n      PUSH 100\t\t\thasWill[msg.sender]\n      EXP \t\t\thasWill[msg.sender]\n      SWAP1 \t\t\thasWill[msg.sender]\n      DIV \t\t\thasWill[msg.sender]\n      PUSH FF\t\t\thasWill[msg.sender]\n      AND \t\t\thasWill[msg.sender]\n      PUSH [tag] 27\t\t\trequire(hasWill[msg.sender], \"...\n      JUMPI \t\t\trequire(hasWill[msg.sender], \"...\n      PUSH 40\t\t\trequire(hasWill[msg.sender], \"...\n      MLOAD \t\t\trequire(hasWill[msg.sender], \"...\n      PUSH 8C379A000000000000000000000000000000000000000000000000000000000\t\t\trequire(hasWill[msg.sender], \"...\n      DUP2 \t\t\trequire(hasWill[msg.sender], \"...\n      MSTORE \t\t\trequire(hasWill[msg.sender], \"...\n      PUSH 4\t\t\trequire(hasWill[msg.sender], \"...\n      ADD \t\t\trequire(hasWill[msg.sender], \"...\n      PUSH [tag] 28\t\t\trequire(hasWill[msg.sender], \"...\n      SWAP1 \t\t\trequire(hasWill[msg.sender], \"...\n      PUSH [tag] 29\t\t\trequire(hasWill[msg.sender], \"...\n      JUMP \t\t\trequire(hasWill[msg.sender], \"...\n    tag 28\t\t\trequire(hasWill[msg.sender], \"...\n      JUMPDEST \t\t\trequire(hasWill[msg.sender], \"...\n      PUSH 40\t\t\trequire(hasWill[msg.sender], \"...\n      MLOAD \t\t\trequire(hasWill[msg.sender], \"...\n      DUP1 \t\t\trequire(hasWill[msg.sender], \"...\n      SWAP2 \t\t\trequire(hasWill[msg.sender], \"...\n      SUB \t\t\trequire(hasWill[msg.sender], \"...\n      SWAP1 \t\t\trequire(hasWill[msg.sender], \"...\n      REVERT \t\t\trequire(hasWill[msg.sender], \"...\n    tag 27\t\t\trequire(hasWill[msg.sender], \"...\n      JUMPDEST \t\t\trequire(hasWill[msg.sender], \"...\n      PUSH 0\t\t\t0\n      DUP4 \t\t\t_percentage\n      GT \t\t\t_percentage > 0\n      DUP1 \t\t\t_percentage > 0 && _percentage...\n      ISZERO \t\t\t_percentage > 0 && _percentage...\n      PUSH [tag] 30\t\t\t_percentage > 0 && _percentage...\n      JUMPI \t\t\t_percentage > 0 && _percentage...\n      POP \t\t\t_percentage > 0 && _percentage...\n      PUSH 64\t\t\t100\n      DUP4 \t\t\t_percentage\n      GT \t\t\t_percentage <= 100\n      ISZERO \t\t\t_percentage <= 100\n    tag 30\t\t\t_percentage > 0 && _percentage...\n      JUMPDEST \t\t\t_percentage > 0 && _percentage...\n      PUSH [tag] 31\t\t\trequire(_percentage > 0 && _pe...\n      JUMPI \t\t\trequire(_percentage > 0 && _pe...\n      PUSH 40\t\t\trequire(_percentage > 0 && _pe...\n      MLOAD \t\t\trequire(_percentage > 0 && _pe...\n      PUSH 8C379A000000000000000000000000000000000000000000000000000000000\t\t\trequire(_percentage > 0 && _pe...\n      DUP2 \t\t\trequire(_percentage > 0 && _pe...\n      MSTORE \t\t\trequire(_percentage > 0 && _pe...\n      PUSH 4\t\t\trequire(_percentage > 0 && _pe...\n      ADD \t\t\trequire(_percentage > 0 && _pe...\n      PUSH [tag] 32\t\t\trequire(_percentage > 0 && _pe...\n      SWAP1 \t\t\trequire(_percentage > 0 && _pe...\n      PUSH [tag] 33\t\t\trequire(_percentage > 0 && _pe...\n      JUMP \t\t\trequire(_percentage > 0 && _pe...\n    tag 32\t\t\trequire(_percentage > 0 && _pe...\n      JUMPDEST \t\t\trequire(_percentage > 0 && _pe...\n      PUSH 40\t\t\trequire(_percentage > 0 && _pe...\n      MLOAD \t\t\trequire(_percentage > 0 && _pe...\n      DUP1 \t\t\trequire(_percentage > 0 && _pe...\n      SWAP2 \t\t\trequire(_percentage > 0 && _pe...\n      SUB \t\t\trequire(_percentage > 0 && _pe...\n      SWAP1 \t\t\trequire(_percentage > 0 && _pe...\n      REVERT \t\t\trequire(_percentage > 0 && _pe...\n    tag 31\t\t\trequire(_percentage > 0 && _pe...\n      JUMPDEST \t\t\trequire(_percentage > 0 && _pe...\n      PUSH 0\t\t\tuint256 totalPercentage\n      DUP1 \t\t\tuint i\n    tag 34\t\t\tfor (uint i = 0; i < wills[msg...\n      JUMPDEST \t\t\tfor (uint i = 0; i < wills[msg...\n      PUSH 0\t\t\twills\n      DUP1 \t\t\twills[msg.sender]\n      CALLER \t\t\tmsg.sender\n      PUSH FFFFFFFFFFFFFFFFFFFFFFFFFFFFFFFFFFFFFFFF\t\t\twills[msg.sender]\n      AND \t\t\twills[msg.sender]\n      PUSH FFFFFFFFFFFFFFFFFFFFFFFFFFFFFFFFFFFFFFFF\t\t\twills[msg.sender]\n      AND \t\t\twills[msg.sender]\n      DUP2 \t\t\twills[msg.sender]\n      MSTORE \t\t\twills[msg.sender]\n      PUSH 20\t\t\twills[msg.sender]\n      ADD \t\t\twills[msg.sender]\n      SWAP1 \t\t\twills[msg.sender]\n      DUP2 \t\t\twills[msg.sender]\n      MSTORE \t\t\twills[msg.sender]\n      PUSH 20\t\t\twills[msg.sender]\n      ADD \t\t\twills[msg.sender]\n      PUSH 0\t\t\twills[msg.sender]\n      KECCAK256 \t\t\twills[msg.sender]\n      PUSH 9\t\t\twills[msg.sender].beneficiarie...\n      ADD \t\t\twills[msg.sender].beneficiarie...\n      DUP1 \t\t\twills[msg.sender].beneficiarie...\n      SLOAD \t\t\twills[msg.sender].beneficiarie...\n      SWAP1 \t\t\twills[msg.sender].beneficiarie...\n      POP \t\t\twills[msg.sender].beneficiarie...\n      DUP2 \t\t\ti\n      LT \t\t\ti < wills[msg.sender].benefici...\n      ISZERO \t\t\tfor (uint i = 0; i < wills[msg...\n      PUSH [tag] 35\t\t\tfor (uint i = 0; i < wills[msg...\n      JUMPI \t\t\tfor (uint i = 0; i < wills[msg...\n      PUSH 0\t\t\twills\n      DUP1 \t\t\twills[msg.sender]\n      CALLER \t\t\tmsg.sender\n      PUSH FFFFFFFFFFFFFFFFFFFFFFFFFFFFFFFFFFFFFFFF\t\t\twills[msg.sender]\n      AND \t\t\twills[msg.sender]\n      PUSH FFFFFFFFFFFFFFFFFFFFFFFFFFFFFFFFFFFFFFFF\t\t\twills[msg.sender]\n      AND \t\t\twills[msg.sender]\n      DUP2 \t\t\twills[msg.sender]\n      MSTORE \t\t\twills[msg.sender]\n      PUSH 20\t\t\twills[msg.sender]\n      ADD \t\t\twills[msg.sender]\n      SWAP1 \t\t\twills[msg.sender]\n      DUP2 \t\t\twills[msg.sender]\n      MSTORE \t\t\twills[msg.sender]\n      PUSH 20\t\t\twills[msg.sender]\n      ADD \t\t\twills[msg.sender]\n      PUSH 0\t\t\twills[msg.sender]\n      KECCAK256 \t\t\twills[msg.sender]\n      PUSH 9\t\t\twills[msg.sender].beneficiarie...\n      ADD \t\t\twills[msg.sender].beneficiarie...\n      DUP2 \t\t\ti\n      DUP2 \t\t\twills[msg.sender].beneficiarie...\n      SLOAD \t\t\twills[msg.sender].beneficiarie...\n      DUP2 \t\t\twills[msg.sender].beneficiarie...\n      LT \t\t\twills[msg.sender].beneficiarie...\n      PUSH [tag] 37\t\t\twills[msg.sender].beneficiarie...\n      JUMPI \t\t\twills[msg.sender].beneficiarie...\n      PUSH [tag] 38\t\t\twills[msg.sender].beneficiarie...\n      PUSH [tag] 39\t\t\twills[msg.sender].beneficiarie...\n      JUMP \t\t\twills[msg.sender].beneficiarie...\n    tag 38\t\t\twills[msg.sender].beneficiarie...\n      JUMPDEST \t\t\twills[msg.sender].beneficiarie...\n    tag 37\t\t\twills[msg.sender].beneficiarie...\n      JUMPDEST \t\t\twills[msg.sender].beneficiarie...\n      SWAP1 \t\t\twills[msg.sender].beneficiarie...\n      PUSH 0\t\t\twills[msg.sender].beneficiarie...\n      MSTORE \t\t\twills[msg.sender].beneficiarie...\n      PUSH 20\t\t\twills[msg.sender].beneficiarie...\n      PUSH 0\t\t\twills[msg.sender].beneficiarie...\n      KECCAK256 \t\t\twills[msg.sender].beneficiarie...\n      SWAP1 \t\t\twills[msg.sender].beneficiarie...\n      PUSH 4\t\t\twills[msg.sender].beneficiarie...\n      MUL \t\t\twills[msg.sender].beneficiarie...\n      ADD \t\t\twills[msg.sender].beneficiarie...\n      PUSH 1\t\t\twills[msg.sender].beneficiarie...\n      ADD \t\t\twills[msg.sender].beneficiarie...\n      SLOAD \t\t\twills[msg.sender].beneficiarie...\n      DUP3 \t\t\ttotalPercentage += wills[msg.s...\n      PUSH [tag] 41\t\t\ttotalPercentage += wills[msg.s...\n      SWAP2 \t\t\ttotalPercentage += wills[msg.s...\n      SWAP1 \t\t\ttotalPercentage += wills[msg.s...\n      PUSH [tag] 42\t\t\ttotalPercentage += wills[msg.s...\n      JUMP \t\t\ttotalPercentage += wills[msg.s...\n    tag 41\t\t\ttotalPercentage += wills[msg.s...\n      JUMPDEST \t\t\ttotalPercentage += wills[msg.s...\n      SWAP2 \t\t\ttotalPercentage += wills[msg.s...\n      POP \t\t\ttotalPercentage += wills[msg.s...\n      DUP1 \t\t\ti++\n      DUP1 \t\t\ti++\n      PUSH 1\t\t\ti++\n      ADD \t\t\ti++\n      SWAP2 \t\t\ti++\n      POP \t\t\ti++\n      POP \t\t\ti++\n      PUSH [tag] 34\t\t\tfor (uint i = 0; i < wills[msg...\n      JUMP \t\t\tfor (uint i = 0; i < wills[msg...\n    tag 35\t\t\tfor (uint i = 0; i < wills[msg...\n      JUMPDEST \t\t\tfor (uint i = 0; i < wills[msg...\n      POP \t\t\tfor (uint i = 0; i < wills[msg...\n      PUSH 64\t\t\t100\n      DUP5 \t\t\t_percentage\n      DUP3 \t\t\ttotalPercentage\n      PUSH [tag] 43\t\t\ttotalPercentage + _percentage\n      SWAP2 \t\t\ttotalPercentage + _percentage\n      SWAP1 \t\t\ttotalPercentage + _percentage\n      PUSH [tag] 42\t\t\ttotalPercentage + _percentage\n      JUMP \t\t\ttotalPercentage + _percentage\n    tag 43\t\t\ttotalPercentage + _percentage\n      JUMPDEST \t\t\ttotalPercentage + _percentage\n      GT \t\t\ttotalPercentage + _percentage ...\n      ISZERO \t\t\ttotalPercentage + _percentage ...\n      PUSH [tag] 44\t\t\trequire(totalPercentage + _per...\n      JUMPI \t\t\trequire(totalPercentage + _per...\n      PUSH 40\t\t\trequire(totalPercentage + _per...\n      MLOAD \t\t\trequire(totalPercentage + _per...\n      PUSH 8C379A000000000000000000000000000000000000000000000000000000000\t\t\trequire(totalPercentage + _per...\n      DUP2 \t\t\trequire(totalPercentage + _per...\n      MSTORE \t\t\trequire(totalPercentage + _per...\n      PUSH 4\t\t\trequire(totalPercentage + _per...\n      ADD \t\t\trequire(totalPercentage + _per...\n      PUSH [tag] 45\t\t\trequire(totalPercentage + _per...\n      SWAP1 \t\t\trequire(totalPercentage + _per...\n      PUSH [tag] 46\t\t\trequire(totalPercentage + _per...\n      JUMP \t\t\trequire(totalPercentage + _per...\n    tag 45\t\t\trequire(totalPercentage + _per...\n      JUMPDEST \t\t\trequire(totalPercentage + _per...\n      PUSH 40\t\t\trequire(totalPercentage + _per...\n      MLOAD \t\t\trequire(totalPercentage + _per...\n      DUP1 \t\t\trequire(totalPercentage + _per...\n      SWAP2 \t\t\trequire(totalPercentage + _per...\n      SUB \t\t\trequire(totalPercentage + _per...\n      SWAP1 \t\t\trequire(totalPercentage + _per...\n      REVERT \t\t\trequire(totalPercentage + _per...\n    tag 44\t\t\trequire(totalPercentage + _per...\n      JUMPDEST \t\t\trequire(totalPercentage + _per...\n      PUSH 0\t\t\twills\n      DUP1 \t\t\twills[msg.sender]\n      CALLER \t\t\tmsg.sender\n      PUSH FFFFFFFFFFFFFFFFFFFFFFFFFFFFFFFFFFFFFFFF\t\t\twills[msg.sender]\n      AND \t\t\twills[msg.sender]\n      PUSH FFFFFFFFFFFFFFFFFFFFFFFFFFFFFFFFFFFFFFFF\t\t\twills[msg.sender]\n      AND \t\t\twills[msg.sender]\n      DUP2 \t\t\twills[msg.sender]\n      MSTORE \t\t\twills[msg.sender]\n      PUSH 20\t\t\twills[msg.sender]\n      ADD \t\t\twills[msg.sender]\n      SWAP1 \t\t\twills[msg.sender]\n      DUP2 \t\t\twills[msg.sender]\n      MSTORE \t\t\twills[msg.sender]\n      PUSH 20\t\t\twills[msg.sender]\n      ADD \t\t\twills[msg.sender]\n      PUSH 0\t\t\twills[msg.sender]\n      KECCAK256 \t\t\twills[msg.sender]\n      PUSH 9\t\t\twills[msg.sender].beneficiarie...\n      ADD \t\t\twills[msg.sender].beneficiarie...\n      PUSH 40\t\t\tBeneficiary(_wallet, _percenta...\n      MLOAD \t\t\tBeneficiary(_wallet, _percenta...\n      DUP1 \t\t\tBeneficiary(_wallet, _percenta...\n      PUSH 80\t\t\tBeneficiary(_wallet, _percenta...\n      ADD \t\t\tBeneficiary(_wallet, _percenta...\n      PUSH 40\t\t\tBeneficiary(_wallet, _percenta...\n      MSTORE \t\t\tBeneficiary(_wallet, _percenta...\n      DUP1 \t\t\tBeneficiary(_wallet, _percenta...\n      DUP8 \t\t\t_wallet\n      PUSH FFFFFFFFFFFFFFFFFFFFFFFFFFFFFFFFFFFFFFFF\t\t\tBeneficiary(_wallet, _percenta...\n      AND \t\t\tBeneficiary(_wallet, _percenta...\n      DUP2 \t\t\tBeneficiary(_wallet, _percenta...\n      MSTORE \t\t\tBeneficiary(_wallet, _percenta...\n      PUSH 20\t\t\tBeneficiary(_wallet, _percenta...\n      ADD \t\t\tBeneficiary(_wallet, _percenta...\n      DUP7 \t\t\t_percentage\n      DUP2 \t\t\tBeneficiary(_wallet, _percenta...\n      MSTORE \t\t\tBeneficiary(_wallet, _percenta...\n      PUSH 20\t\t\tBeneficiary(_wallet, _percenta...\n      ADD \t\t\tBeneficiary(_wallet, _percenta...\n      DUP6 \t\t\t_saleDeedIpfsHash\n      DUP2 \t\t\tBeneficiary(_wallet, _percenta...\n      MSTORE \t\t\tBeneficiary(_wallet, _percenta...\n      PUSH 20\t\t\tBeneficiary(_wallet, _percenta...\n      ADD \t\t\tBeneficiary(_wallet, _percenta...\n      DUP5 \t\t\t_email\n      DUP2 \t\t\tBeneficiary(_wallet, _percenta...\n      MSTORE \t\t\tBeneficiary(_wallet, _percenta...\n      POP \t\t\tBeneficiary(_wallet, _percenta...\n      SWAP1 \t\t\twills[msg.sender].beneficiarie...\n      DUP1 \t\t\twills[msg.sender].beneficiarie...\n      PUSH 1\t\t\twills[msg.sender].beneficiarie...\n      DUP2 \t\t\twills[msg.sender].beneficiarie...\n      SLOAD \t\t\twills[msg.sender].beneficiarie...\n      ADD \t\t\twills[msg.sender].beneficiarie...\n      DUP1 \t\t\twills[msg.sender].beneficiarie...\n      DUP3 \t\t\twills[msg.sender].beneficiarie...\n      SSTORE \t\t\twills[msg.sender].beneficiarie...\n      DUP1 \t\t\twills[msg.sender].beneficiarie...\n      SWAP2 \t\t\twills[msg.sender].beneficiarie...\n      POP \t\t\twills[msg.sender].beneficiarie...\n      POP \t\t\twills[msg.sender].beneficiarie...\n      PUSH 1\t\t\twills[msg.sender].beneficiarie...\n      SWAP1 \t\t\twills[msg.sender].beneficiarie...\n      SUB \t\t\twills[msg.sender].beneficiarie...\n      SWAP1 \t\t\twills[msg.sender].beneficiarie...\n      PUSH 0\t\t\twills[msg.sender].beneficiarie...\n      MSTORE \t\t\twills[msg.sender].beneficiarie...\n      PUSH 20\t\t\twills[msg.sender].beneficiarie...\n      PUSH 0\t\t\twills[msg.sender].beneficiarie...\n      KECCAK256 \t\t\twills[msg.sender].beneficiarie...\n      SWAP1 \t\t\twills[msg.sender].beneficiarie...\n      PUSH 4\t\t\twills[msg.sender].beneficiarie...\n      MUL \t\t\twills[msg.sender].beneficiarie...\n      ADD \t\t\twills[msg.sender].beneficiarie...\n      PUSH 0\t\t\twills[msg.sender].beneficiarie...\n      SWAP1 \t\t\twills[msg.sender].beneficiarie...\n      SWAP2 \t\t\twills[msg.sender].beneficiarie...\n      SWAP1 \t\t\twills[msg.sender].beneficiarie...\n      SWAP2 \t\t\twills[msg.sender].beneficiarie...\n      SWAP1 \t\t\twills[msg.sender].beneficiarie...\n      SWAP2 \t\t\twills[msg.sender].beneficiarie...\n      POP \t\t\twills[msg.sender].beneficiarie...\n      PUSH 0\t\t\twills[msg.sender].beneficiarie...\n      DUP3 \t\t\twills[msg.sender].beneficiarie...\n      ADD \t\t\twills[msg.sender].beneficiarie...\n      MLOAD \t\t\twills[msg.sender].beneficiarie...\n      DUP2 \t\t\twills[msg.sender].beneficiarie...\n      PUSH 0\t\t\twills[msg.sender].beneficiarie...\n      ADD \t\t\twills[msg.sender].beneficiarie...\n      PUSH 0\t\t\twills[msg.sender].beneficiarie...\n      PUSH 100\t\t\twills[msg.sender].beneficiarie...\n      EXP \t\t\twills[msg.sender].beneficiarie...\n      DUP2 \t\t\twills[msg.sender].beneficiarie...\n      SLOAD \t\t\twills[msg.sender].beneficiarie...\n      DUP2 \t\t\twills[msg.sender].beneficiarie...\n      PUSH FFFFFFFFFFFFFFFFFFFFFFFFFFFFFFFFFFFFFFFF\t\t\twills[msg.sender].beneficiarie...\n      MUL \t\t\twills[msg.sender].beneficiarie...\n      NOT \t\t\twills[msg.sender].beneficiarie...\n      AND \t\t\twills[msg.sender].beneficiarie...\n      SWAP1 \t\t\twills[msg.sender].beneficiarie...\n      DUP4 \t\t\twills[msg.sender].beneficiarie...\n      PUSH FFFFFFFFFFFFFFFFFFFFFFFFFFFFFFFFFFFFFFFF\t\t\twills[msg.sender].beneficiarie...\n      AND \t\t\twills[msg.sender].beneficiarie...\n      MUL \t\t\twills[msg.sender].beneficiarie...\n      OR \t\t\twills[msg.sender].beneficiarie...\n      SWAP1 \t\t\twills[msg.sender].beneficiarie...\n      SSTORE \t\t\twills[msg.sender].beneficiarie...\n      POP \t\t\twills[msg.sender].beneficiarie...\n      PUSH 20\t\t\twills[msg.sender].beneficiarie...\n      DUP3 \t\t\twills[msg.sender].beneficiarie...\n      ADD \t\t\twills[msg.sender].beneficiarie...\n      MLOAD \t\t\twills[msg.sender].beneficiarie...\n      DUP2 \t\t\twills[msg.sender].beneficiarie...\n      PUSH 1\t\t\twills[msg.sender].beneficiarie...\n      ADD \t\t\twills[msg.sender].beneficiarie...\n      SSTORE \t\t\twills[msg.sender].beneficiarie...\n      PUSH 40\t\t\twills[msg.sender].beneficiarie...\n      DUP3 \t\t\twills[msg.sender].beneficiarie...\n      ADD \t\t\twills[msg.sender].beneficiarie...\n      MLOAD \t\t\twills[msg.sender].beneficiarie...\n      DUP2 \t\t\twills[msg.sender].beneficiarie...\n      PUSH 2\t\t\twills[msg.sender].beneficiarie...\n      ADD \t\t\twills[msg.sender].beneficiarie...\n      SWAP1 \t\t\twills[msg.sender].beneficiarie...\n      DUP2 \t\t\twills[msg.sender].beneficiarie...\n      PUSH [tag] 48\t\t\twills[msg.sender].beneficiarie...\n      SWAP2 \t\t\twills[msg.sender].beneficiarie...\n      SWAP1 \t\t\twills[msg.sender].beneficiarie...\n      PUSH [tag] 49\t\t\twills[msg.sender].beneficiarie...\n      JUMP \t\t\twills[msg.sender].beneficiarie...\n    tag 48\t\t\twills[msg.sender].beneficiarie...\n      JUMPDEST \t\t\twills[msg.sender].beneficiarie...\n      POP \t\t\twills[msg.sender].beneficiarie...\n      PUSH 60\t\t\twills[msg.sender].beneficiarie...\n      DUP3 \t\t\twills[msg.sender].beneficiarie...\n      ADD \t\t\twills[msg.sender].beneficiarie...\n      MLOAD \t\t\twills[msg.sender].beneficiarie...\n      DUP2 \t\t\twills[msg.sender].beneficiarie...\n      PUSH 3\t\t\twills[msg.sender].beneficiarie...\n      ADD \t\t\twills[msg.sender].beneficiarie...\n      SWAP1 \t\t\twills[msg.sender].beneficiarie...\n      DUP2 \t\t\twills[msg.sender].beneficiarie...\n      PUSH [tag] 50\t\t\twills[msg.sender].beneficiarie...\n      SWAP2 \t\t\twills[msg.sender].beneficiarie...\n      SWAP1 \t\t\twills[msg.sender].beneficiarie...\n      PUSH [tag] 49\t\t\twills[msg.sender].beneficiarie...\n      JUMP \t\t\twills[msg.sender].beneficiarie...\n    tag 50\t\t\twills[msg.sender].beneficiarie...\n      JUMPDEST \t\t\twills[msg.sender].beneficiarie...\n      POP \t\t\twills[msg.sender].beneficiarie...\n      POP \t\t\twills[msg.sender].beneficiarie...\n      POP \t\t\twills[msg.sender].beneficiarie...\n      POP \t\t\t{\\n        require(hasWill[msg...\n      POP \t\t\tfunction addBeneficiary(\\n    ...\n      POP \t\t\tfunction addBeneficiary(\\n    ...\n      POP \t\t\tfunction addBeneficiary(\\n    ...\n      POP \t\t\tfunction addBeneficiary(\\n    ...\n      JUMP \t\t\tfunction addBeneficiary(\\n    ...\n    tag 15\t\t\tmapping(address => bool) publi...\n      JUMPDEST \t\t\tmapping(address => bool) publi...\n      PUSH 1\t\t\tmapping(address => bool) publi...\n      PUSH 20\t\t\tmapping(address => bool) publi...\n      MSTORE \t\t\tmapping(address => bool) publi...\n      DUP1 \t\t\tmapping(address => bool) publi...\n      PUSH 0\t\t\tmapping(address => bool) publi...\n      MSTORE \t\t\tmapping(address => bool) publi...\n      PUSH 40\t\t\tmapping(address => bool) publi...\n      PUSH 0\t\t\tmapping(address => bool) publi...\n      KECCAK256 \t\t\tmapping(address => bool) publi...\n      PUSH 0\t\t\tmapping(address => bool) publi...\n      SWAP2 \t\t\tmapping(address => bool) publi...\n      POP \t\t\tmapping(address => bool) publi...\n      SLOAD \t\t\tmapping(address => bool) publi...\n      SWAP1 \t\t\tmapping(address => bool) publi...\n      PUSH 100\t\t\tmapping(address => bool) publi...\n      EXP \t\t\tmapping(address => bool) publi...\n      SWAP1 \t\t\tmapping(address => bool) publi...\n      DIV \t\t\tmapping(address => bool) publi...\n      PUSH FF\t\t\tmapping(address => bool) publi...\n      AND \t\t\tmapping(address => bool) publi...\n      DUP2 \t\t\tmapping(address => bool) publi...\n      JUMP \t\t\tmapping(address => bool) publi...\n    tag 21\t\t\tfunction createWill(\\n        ...\n      JUMPDEST \t\t\tfunction createWill(\\n        ...\n      PUSH 1\t\t\thasWill\n      PUSH 0\t\t\thasWill[msg.sender]\n      CALLER \t\t\tmsg.sender\n      PUSH FFFFFFFFFFFFFFFFFFFFFFFFFFFFFFFFFFFFFFFF\t\t\thasWill[msg.sender]\n      AND \t\t\thasWill[msg.sender]\n      PUSH FFFFFFFFFFFFFFFFFFFFFFFFFFFFFFFFFFFFFFFF\t\t\thasWill[msg.sender]\n      AND \t\t\thasWill[msg.sender]\n      DUP2 \t\t\thasWill[msg.sender]\n      MSTORE \t\t\thasWill[msg.sender]\n      PUSH 20\t\t\thasWill[msg.sender]\n      ADD \t\t\thasWill[msg.sender]\n      SWAP1 \t\t\thasWill[msg.sender]\n      DUP2 \t\t\thasWill[msg.sender]\n      MSTORE \t\t\thasWill[msg.sender]\n      PUSH 20\t\t\thasWill[msg.sender]\n      ADD \t\t\thasWill[msg.sender]\n      PUSH 0\t\t\thasWill[msg.sender]\n      KECCAK256 \t\t\thasWill[msg.sender]\n      PUSH 0\t\t\thasWill[msg.sender]\n      SWAP1 \t\t\thasWill[msg.sender]\n      SLOAD \t\t\thasWill[msg.sender]\n      SWAP1 \t\t\thasWill[msg.sender]\n      PUSH 100\t\t\thasWill[msg.sender]\n      EXP \t\t\thasWill[msg.sender]\n      SWAP1 \t\t\thasWill[msg.sender]\n      DIV \t\t\thasWill[msg.sender]\n      PUSH FF\t\t\thasWill[msg.sender]\n      AND \t\t\thasWill[msg.sender]\n      ISZERO \t\t\t!hasWill[msg.sender]\n      PUSH [tag] 52\t\t\trequire(!hasWill[msg.sender], ...\n      JUMPI \t\t\trequire(!hasWill[msg.sender], ...\n      PUSH 40\t\t\trequire(!hasWill[msg.sender], ...\n      MLOAD \t\t\trequire(!hasWill[msg.sender], ...\n      PUSH 8C379A000000000000000000000000000000000000000000000000000000000\t\t\trequire(!hasWill[msg.sender], ...\n      DUP2 \t\t\trequire(!hasWill[msg.sender], ...\n      MSTORE \t\t\trequire(!hasWill[msg.sender], ...\n      PUSH 4\t\t\trequire(!hasWill[msg.sender], ...\n      ADD \t\t\trequire(!hasWill[msg.sender], ...\n      PUSH [tag] 53\t\t\trequire(!hasWill[msg.sender], ...\n      SWAP1 \t\t\trequire(!hasWill[msg.sender], ...\n      PUSH [tag] 54\t\t\trequire(!hasWill[msg.sender], ...\n      JUMP \t\t\trequire(!hasWill[msg.sender], ...\n    tag 53\t\t\trequire(!hasWill[msg.sender], ...\n      JUMPDEST \t\t\trequire(!hasWill[msg.sender], ...\n      PUSH 40\t\t\trequire(!hasWill[msg.sender], ...\n      MLOAD \t\t\trequire(!hasWill[msg.sender], ...\n      DUP1 \t\t\trequire(!hasWill[msg.sender], ...\n      SWAP2 \t\t\trequire(!hasWill[msg.sender], ...\n      SUB \t\t\trequire(!hasWill[msg.sender], ...\n      SWAP1 \t\t\trequire(!hasWill[msg.sender], ...\n      REVERT \t\t\trequire(!hasWill[msg.sender], ...\n    tag 52\t\t\trequire(!hasWill[msg.sender], ...\n      JUMPDEST \t\t\trequire(!hasWill[msg.sender], ...\n      PUSH 0\t\t\t0\n      CALLVALUE \t\t\tmsg.value\n      GT \t\t\tmsg.value > 0\n      PUSH [tag] 55\t\t\trequire(msg.value > 0, \"Must l...\n      JUMPI \t\t\trequire(msg.value > 0, \"Must l...\n      PUSH 40\t\t\trequire(msg.value > 0, \"Must l...\n      MLOAD \t\t\trequire(msg.value > 0, \"Must l...\n      PUSH 8C379A000000000000000000000000000000000000000000000000000000000\t\t\trequire(msg.value > 0, \"Must l...\n      DUP2 \t\t\trequire(msg.value > 0, \"Must l...\n      MSTORE \t\t\trequire(msg.value > 0, \"Must l...\n      PUSH 4\t\t\trequire(msg.value > 0, \"Must l...\n      ADD \t\t\trequire(msg.value > 0, \"Must l...\n      PUSH [tag] 56\t\t\trequire(msg.value > 0, \"Must l...\n      SWAP1 \t\t\trequire(msg.value > 0, \"Must l...\n      PUSH [tag] 57\t\t\trequire(msg.value > 0, \"Must l...\n      JUMP \t\t\trequire(msg.value > 0, \"Must l...\n    tag 56\t\t\trequire(msg.value > 0, \"Must l...\n      JUMPDEST \t\t\trequire(msg.value > 0, \"Must l...\n      PUSH 40\t\t\trequire(msg.value > 0, \"Must l...\n      MLOAD \t\t\trequire(msg.value > 0, \"Must l...\n      DUP1 \t\t\trequire(msg.value > 0, \"Must l...\n      SWAP2 \t\t\trequire(msg.value > 0, \"Must l...\n      SUB \t\t\trequire(msg.value > 0, \"Must l...\n      SWAP1 \t\t\trequire(msg.value > 0, \"Must l...\n      REVERT \t\t\trequire(msg.value > 0, \"Must l...\n    tag 55\t\t\trequire(msg.value > 0, \"Must l...\n      JUMPDEST \t\t\trequire(msg.value > 0, \"Must l...\n      CALLER \t\t\tmsg.sender\n      PUSH 0\t\t\twills\n      DUP1 \t\t\twills[msg.sender]\n      CALLER \t\t\tmsg.sender\n      PUSH FFFFFFFFFFFFFFFFFFFFFFFFFFFFFFFFFFFFFFFF\t\t\twills[msg.sender]\n      AND \t\t\twills[msg.sender]\n      PUSH FFFFFFFFFFFFFFFFFFFFFFFFFFFFFFFFFFFFFFFF\t\t\twills[msg.sender]\n      AND \t\t\twills[msg.sender]\n      DUP2 \t\t\twills[msg.sender]\n      MSTORE \t\t\twills[msg.sender]\n      PUSH 20\t\t\twills[msg.sender]\n      ADD \t\t\twills[msg.sender]\n      SWAP1 \t\t\twills[msg.sender]\n      DUP2 \t\t\twills[msg.sender]\n      MSTORE \t\t\twills[msg.sender]\n      PUSH 20\t\t\twills[msg.sender]\n      ADD \t\t\twills[msg.sender]\n      PUSH 0\t\t\twills[msg.sender]\n      KECCAK256 \t\t\twills[msg.sender]\n      PUSH 0\t\t\twills[msg.sender].testator\n      ADD \t\t\twills[msg.sender].testator\n      PUSH 0\t\t\twills[msg.sender].testator\n      PUSH 100\t\t\twills[msg.sender].testator = m...\n      EXP \t\t\twills[msg.sender].testator = m...\n      DUP2 \t\t\twills[msg.sender].testator = m...\n      SLOAD \t\t\twills[msg.sender].testator = m...\n      DUP2 \t\t\twills[msg.sender].testator = m...\n      PUSH FFFFFFFFFFFFFFFFFFFFFFFFFFFFFFFFFFFFFFFF\t\t\twills[msg.sender].testator = m...\n      MUL \t\t\twills[msg.sender].testator = m...\n      NOT \t\t\twills[msg.sender].testator = m...\n      AND \t\t\twills[msg.sender].testator = m...\n      SWAP1 \t\t\twills[msg.sender].testator = m...\n      DUP4 \t\t\twills[msg.sender].testator = m...\n      PUSH FFFFFFFFFFFFFFFFFFFFFFFFFFFFFFFFFFFFFFFF\t\t\twills[msg.sender].testator = m...\n      AND \t\t\twills[msg.sender].testator = m...\n      MUL \t\t\twills[msg.sender].testator = m...\n      OR \t\t\twills[msg.sender].testator = m...\n      SWAP1 \t\t\twills[msg.sender].testator = m...\n      SSTORE \t\t\twills[msg.sender].testator = m...\n      POP \t\t\twills[msg.sender].testator = m...\n      DUP5 \t\t\t_firstName\n      PUSH 0\t\t\twills\n      DUP1 \t\t\twills[msg.sender]\n      CALLER \t\t\tmsg.sender\n      PUSH FFFFFFFFFFFFFFFFFFFFFFFFFFFFFFFFFFFFFFFF\t\t\twills[msg.sender]\n      AND \t\t\twills[msg.sender]\n      PUSH FFFFFFFFFFFFFFFFFFFFFFFFFFFFFFFFFFFFFFFF\t\t\twills[msg.sender]\n      AND \t\t\twills[msg.sender]\n      DUP2 \t\t\twills[msg.sender]\n      MSTORE \t\t\twills[msg.sender]\n      PUSH 20\t\t\twills[msg.sender]\n      ADD \t\t\twills[msg.sender]\n      SWAP1 \t\t\twills[msg.sender]\n      DUP2 \t\t\twills[msg.sender]\n      MSTORE \t\t\twills[msg.sender]\n      PUSH 20\t\t\twills[msg.sender]\n      ADD \t\t\twills[msg.sender]\n      PUSH 0\t\t\twills[msg.sender]\n      KECCAK256 \t\t\twills[msg.sender]\n      PUSH 1\t\t\twills[msg.sender].firstName\n      ADD \t\t\twills[msg.sender].firstName\n      SWAP1 \t\t\twills[msg.sender].firstName = ...\n      DUP2 \t\t\twills[msg.sender].firstName = ...\n      PUSH [tag] 58\t\t\twills[msg.sender].firstName = ...\n      SWAP2 \t\t\twills[msg.sender].firstName = ...\n      SWAP1 \t\t\twills[msg.sender].firstName = ...\n      PUSH [tag] 49\t\t\twills[msg.sender].firstName = ...\n      JUMP \t\t\twills[msg.sender].firstName = ...\n    tag 58\t\t\twills[msg.sender].firstName = ...\n      JUMPDEST \t\t\twills[msg.sender].firstName = ...\n      POP \t\t\twills[msg.sender].firstName = ...\n      DUP4 \t\t\t_lastName\n      PUSH 0\t\t\twills\n      DUP1 \t\t\twills[msg.sender]\n      CALLER \t\t\tmsg.sender\n      PUSH FFFFFFFFFFFFFFFFFFFFFFFFFFFFFFFFFFFFFFFF\t\t\twills[msg.sender]\n      AND \t\t\twills[msg.sender]\n      PUSH FFFFFFFFFFFFFFFFFFFFFFFFFFFFFFFFFFFFFFFF\t\t\twills[msg.sender]\n      AND \t\t\twills[msg.sender]\n      DUP2 \t\t\twills[msg.sender]\n      MSTORE \t\t\twills[msg.sender]\n      PUSH 20\t\t\twills[msg.sender]\n      ADD \t\t\twills[msg.sender]\n      SWAP1 \t\t\twills[msg.sender]\n      DUP2 \t\t\twills[msg.sender]\n      MSTORE \t\t\twills[msg.sender]\n      PUSH 20\t\t\twills[msg.sender]\n      ADD \t\t\twills[msg.sender]\n      PUSH 0\t\t\twills[msg.sender]\n      KECCAK256 \t\t\twills[msg.sender]\n      PUSH 2\t\t\twills[msg.sender].lastName\n      ADD \t\t\twills[msg.sender].lastName\n      SWAP1 \t\t\twills[msg.sender].lastName = _...\n      DUP2 \t\t\twills[msg.sender].lastName = _...\n      PUSH [tag] 59\t\t\twills[msg.sender].lastName = _...\n      SWAP2 \t\t\twills[msg.sender].lastName = _...\n      SWAP1 \t\t\twills[msg.sender].lastName = _...\n      PUSH [tag] 49\t\t\twills[msg.sender].lastName = _...\n      JUMP \t\t\twills[msg.sender].lastName = _...\n    tag 59\t\t\twills[msg.sender].lastName = _...\n      JUMPDEST \t\t\twills[msg.sender].lastName = _...\n      POP \t\t\twills[msg.sender].lastName = _...\n      DUP3 \t\t\t_testatorEmail\n      PUSH 0\t\t\twills\n      DUP1 \t\t\twills[msg.sender]\n      CALLER \t\t\tmsg.sender\n      PUSH FFFFFFFFFFFFFFFFFFFFFFFFFFFFFFFFFFFFFFFF\t\t\twills[msg.sender]\n      AND \t\t\twills[msg.sender]\n      PUSH FFFFFFFFFFFFFFFFFFFFFFFFFFFFFFFFFFFFFFFF\t\t\twills[msg.sender]\n      AND \t\t\twills[msg.sender]\n      DUP2 \t\t\twills[msg.sender]\n      MSTORE \t\t\twills[msg.sender]\n      PUSH 20\t\t\twills[msg.sender]\n      ADD \t\t\twills[msg.sender]\n      SWAP1 \t\t\twills[msg.sender]\n      DUP2 \t\t\twills[msg.sender]\n      MSTORE \t\t\twills[msg.sender]\n      PUSH 20\t\t\twills[msg.sender]\n      ADD \t\t\twills[msg.sender]\n      PUSH 0\t\t\twills[msg.sender]\n      KECCAK256 \t\t\twills[msg.sender]\n      PUSH 3\t\t\twills[msg.sender].testatorEmai...\n      ADD \t\t\twills[msg.sender].testatorEmai...\n      SWAP1 \t\t\twills[msg.sender].testatorEmai...\n      DUP2 \t\t\twills[msg.sender].testatorEmai...\n      PUSH [tag] 60\t\t\twills[msg.sender].testatorEmai...\n      SWAP2 \t\t\twills[msg.sender].testatorEmai...\n      SWAP1 \t\t\twills[msg.sender].testatorEmai...\n      PUSH [tag] 49\t\t\twills[msg.sender].testatorEmai...\n      JUMP \t\t\twills[msg.sender].testatorEmai...\n    tag 60\t\t\twills[msg.sender].testatorEmai...\n      JUMPDEST \t\t\twills[msg.sender].testatorEmai...\n      POP \t\t\twills[msg.sender].testatorEmai...\n      CALLVALUE \t\t\tmsg.value\n      PUSH 0\t\t\twills\n      DUP1 \t\t\twills[msg.sender]\n      CALLER \t\t\tmsg.sender\n      PUSH FFFFFFFFFFFFFFFFFFFFFFFFFFFFFFFFFFFFFFFF\t\t\twills[msg.sender]\n      AND \t\t\twills[msg.sender]\n      PUSH FFFFFFFFFFFFFFFFFFFFFFFFFFFFFFFFFFFFFFFF\t\t\twills[msg.sender]\n      AND \t\t\twills[msg.sender]\n      DUP2 \t\t\twills[msg.sender]\n      MSTORE \t\t\twills[msg.sender]\n      PUSH 20\t\t\twills[msg.sender]\n      ADD \t\t\twills[msg.sender]\n      SWAP1 \t\t\twills[msg.sender]\n      DUP2 \t\t\twills[msg.sender]\n      MSTORE \t\t\twills[msg.sender]\n      PUSH 20\t\t\twills[msg.sender]\n      ADD \t\t\twills[msg.sender]\n      PUSH 0\t\t\twills[msg.sender]\n      KECCAK256 \t\t\twills[msg.sender]\n      PUSH 4\t\t\twills[msg.sender].totalLocked\n      ADD \t\t\twills[msg.sender].totalLocked\n      DUP2 \t\t\twills[msg.sender].totalLocked ...\n      SWAP1 \t\t\twills[msg.sender].totalLocked ...\n      SSTORE \t\t\twills[msg.sender].totalLocked ...\n      POP \t\t\twills[msg.sender].totalLocked ...\n      TIMESTAMP \t\t\tblock.timestamp\n      PUSH 0\t\t\twills\n      DUP1 \t\t\twills[msg.sender]\n      CALLER \t\t\tmsg.sender\n      PUSH FFFFFFFFFFFFFFFFFFFFFFFFFFFFFFFFFFFFFFFF\t\t\twills[msg.sender]\n      AND \t\t\twills[msg.sender]\n      PUSH FFFFFFFFFFFFFFFFFFFFFFFFFFFFFFFFFFFFFFFF\t\t\twills[msg.sender]\n      AND \t\t\twills[msg.sender]\n      DUP2 \t\t\twills[msg.sender]\n      MSTORE \t\t\twills[msg.sender]\n      PUSH 20\t\t\twills[msg.sender]\n      ADD \t\t\twills[msg.sender]\n      SWAP1 \t\t\twills[msg.sender]\n      DUP2 \t\t\twills[msg.sender]\n      MSTORE \t\t\twills[msg.sender]\n      PUSH 20\t\t\twills[msg.sender]\n      ADD \t\t\twills[msg.sender]\n      PUSH 0\t\t\twills[msg.sender]\n      KECCAK256 \t\t\twills[msg.sender]\n      PUSH 5\t\t\twills[msg.sender].lastAliveTim...\n      ADD \t\t\twills[msg.sender].lastAliveTim...\n      DUP2 \t\t\twills[msg.sender].lastAliveTim...\n      SWAP1 \t\t\twills[msg.sender].lastAliveTim...\n      SSTORE \t\t\twills[msg.sender].lastAliveTim...\n      POP \t\t\twills[msg.sender].lastAliveTim...\n      DUP2 \t\t\t_proofOfLifeInterval\n      PUSH 0\t\t\twills\n      DUP1 \t\t\twills[msg.sender]\n      CALLER \t\t\tmsg.sender\n      PUSH FFFFFFFFFFFFFFFFFFFFFFFFFFFFFFFFFFFFFFFF\t\t\twills[msg.sender]\n      AND \t\t\twills[msg.sender]\n      PUSH FFFFFFFFFFFFFFFFFFFFFFFFFFFFFFFFFFFFFFFF\t\t\twills[msg.sender]\n      AND \t\t\twills[msg.sender]\n      DUP2 \t\t\twills[msg.sender]\n      MSTORE \t\t\twills[msg.sender]\n      PUSH 20\t\t\twills[msg.sender]\n      ADD \t\t\twills[msg.sender]\n      SWAP1 \t\t\twills[msg.sender]\n      DUP2 \t\t\twills[msg.sender]\n      MSTORE \t\t\twills[msg.sender]\n      PUSH 20\t\t\twills[msg.sender]\n      ADD \t\t\twills[msg.sender]\n      PUSH 0\t\t\twills[msg.sender]\n      KECCAK256 \t\t\twills[msg.sender]\n      PUSH 6\t\t\twills[msg.sender].proofOfLifeI...\n      ADD \t\t\twills[msg.sender].proofOfLifeI...\n      DUP2 \t\t\twills[msg.sender].proofOfLifeI...\n      SWAP1 \t\t\twills[msg.sender].proofOfLifeI...\n      SSTORE \t\t\twills[msg.sender].proofOfLifeI...\n      POP \t\t\twills[msg.sender].proofOfLifeI...\n      PUSH 0\t\t\tfalse\n      DUP1 \t\t\twills\n      PUSH 0\t\t\twills[msg.sender]\n      CALLER \t\t\tmsg.sender\n      PUSH FFFFFFFFFFFFFFFFFFFFFFFFFFFFFFFFFFFFFFFF\t\t\twills[msg.sender]\n      AND \t\t\twills[msg.sender]\n      PUSH FFFFFFFFFFFFFFFFFFFFFFFFFFFFFFFFFFFFFFFF\t\t\twills[msg.sender]\n      AND \t\t\twills[msg.sender]\n      DUP2 \t\t\twills[msg.sender]\n      MSTORE \t\t\twills[msg.sender]\n      PUSH 20\t\t\twills[msg.sender]\n      ADD \t\t\twills[msg.sender]\n      SWAP1 \t\t\twills[msg.sender]\n      DUP2 \t\t\twills[msg.sender]\n      MSTORE \t\t\twills[msg.sender]\n      PUSH 20\t\t\twills[msg.sender]\n      ADD \t\t\twills[msg.sender]\n      PUSH 0\t\t\twills[msg.sender]\n      KECCAK256 \t\t\twills[msg.sender]\n      PUSH 7\t\t\twills[msg.sender].isDeceased\n      ADD \t\t\twills[msg.sender].isDeceased\n      PUSH 0\t\t\twills[msg.sender].isDeceased\n      PUSH 100\t\t\twills[msg.sender].isDeceased =...\n      EXP \t\t\twills[msg.sender].isDeceased =...\n      DUP2 \t\t\twills[msg.sender].isDeceased =...\n      SLOAD \t\t\twills[msg.sender].isDeceased =...\n      DUP2 \t\t\twills[msg.sender].isDeceased =...\n      PUSH FF\t\t\twills[msg.sender].isDeceased =...\n      MUL \t\t\twills[msg.sender].isDeceased =...\n      NOT \t\t\twills[msg.sender].isDeceased =...\n      AND \t\t\twills[msg.sender].isDeceased =...\n      SWAP1 \t\t\twills[msg.sender].isDeceased =...\n      DUP4 \t\t\twills[msg.sender].isDeceased =...\n      ISZERO \t\t\twills[msg.sender].isDeceased =...\n      ISZERO \t\t\twills[msg.sender].isDeceased =...\n      MUL \t\t\twills[msg.sender].isDeceased =...\n      OR \t\t\twills[msg.sender].isDeceased =...\n      SWAP1 \t\t\twills[msg.sender].isDeceased =...\n      SSTORE \t\t\twills[msg.sender].isDeceased =...\n      POP \t\t\twills[msg.sender].isDeceased =...\n      DUP1 \t\t\t_notarizedWillIpfsHash\n      PUSH 0\t\t\twills\n      DUP1 \t\t\twills[msg.sender]\n      CALLER \t\t\tmsg.sender\n      PUSH FFFFFFFFFFFFFFFFFFFFFFFFFFFFFFFFFFFFFFFF\t\t\twills[msg.sender]\n      AND \t\t\twills[msg.sender]\n      PUSH FFFFFFFFFFFFFFFFFFFFFFFFFFFFFFFFFFFFFFFF\t\t\twills[msg.sender]\n      AND \t\t\twills[msg.sender]\n      DUP2 \t\t\twills[msg.sender]\n      MSTORE \t\t\twills[msg.sender]\n      PUSH 20\t\t\twills[msg.sender]\n      ADD \t\t\twills[msg.sender]\n      SWAP1 \t\t\twills[msg.sender]\n      DUP2 \t\t\twills[msg.sender]\n      MSTORE \t\t\twills[msg.sender]\n      PUSH 20\t\t\twills[msg.sender]\n      ADD \t\t\twills[msg.sender]\n      PUSH 0\t\t\twills[msg.sender]\n      KECCAK256 \t\t\twills[msg.sender]\n      PUSH 8\t\t\twills[msg.sender].notarizedWil...\n      ADD \t\t\twills[msg.sender].notarizedWil...\n      SWAP1 \t\t\twills[msg.sender].notarizedWil...\n      DUP2 \t\t\twills[msg.sender].notarizedWil...\n      PUSH [tag] 61\t\t\twills[msg.sender].notarizedWil...\n      SWAP2 \t\t\twills[msg.sender].notarizedWil...\n      SWAP1 \t\t\twills[msg.sender].notarizedWil...\n      PUSH [tag] 49\t\t\twills[msg.sender].notarizedWil...\n      JUMP \t\t\twills[msg.sender].notarizedWil...\n    tag 61\t\t\twills[msg.sender].notarizedWil...\n      JUMPDEST \t\t\twills[msg.sender].notarizedWil...\n      POP \t\t\twills[msg.sender].notarizedWil...\n      PUSH 1\t\t\ttrue\n      DUP1 \t\t\thasWill\n      PUSH 0\t\t\thasWill[msg.sender]\n      CALLER \t\t\tmsg.sender\n      PUSH FFFFFFFFFFFFFFFFFFFFFFFFFFFFFFFFFFFFFFFF\t\t\thasWill[msg.sender]\n      AND \t\t\thasWill[msg.sender]\n      PUSH FFFFFFFFFFFFFFFFFFFFFFFFFFFFFFFFFFFFFFFF\t\t\thasWill[msg.sender]\n      AND \t\t\thasWill[msg.sender]\n      DUP2 \t\t\thasWill[msg.sender]\n      MSTORE \t\t\thasWill[msg.sender]\n      PUSH 20\t\t\thasWill[msg.sender]\n      ADD \t\t\thasWill[msg.sender]\n      SWAP1 \t\t\thasWill[msg.sender]\n      DUP2 \t\t\thasWill[msg.sender]\n      MSTORE \t\t\thasWill[msg.sender]\n      PUSH 20\t\t\thasWill[msg.sender]\n      ADD \t\t\thasWill[msg.sender]\n      PUSH 0\t\t\thasWill[msg.sender]\n      KECCAK256 \t\t\thasWill[msg.sender]\n      PUSH 0\t\t\thasWill[msg.sender]\n      PUSH 100\t\t\thasWill[msg.sender] = true\n      EXP \t\t\thasWill[msg.sender] = true\n      DUP2 \t\t\thasWill[msg.sender] = true\n      SLOAD \t\t\thasWill[msg.sender] = true\n      DUP2 \t\t\thasWill[msg.sender] = true\n      PUSH FF\t\t\thasWill[msg.sender] = true\n      MUL \t\t\thasWill[msg.sender] = true\n      NOT \t\t\thasWill[msg.sender] = true\n      AND \t\t\thasWill[msg.sender] = true\n      SWAP1 \t\t\thasWill[msg.sender] = true\n      DUP4 \t\t\thasWill[msg.sender] = true\n      ISZERO \t\t\thasWill[msg.sender] = true\n      ISZERO \t\t\thasWill[msg.sender] = true\n      MUL \t\t\thasWill[msg.sender] = true\n      OR \t\t\thasWill[msg.sender] = true\n      SWAP1 \t\t\thasWill[msg.sender] = true\n      SSTORE \t\t\thasWill[msg.sender] = true\n      POP \t\t\thasWill[msg.sender] = true\n      CALLER \t\t\tmsg.sender\n      PUSH FFFFFFFFFFFFFFFFFFFFFFFFFFFFFFFFFFFFFFFF\t\t\tWillCreated(msg.sender, msg.va...\n      AND \t\t\tWillCreated(msg.sender, msg.va...\n      PUSH D40DC4A639C90600691397F655099ADBA04D6B763EF2122630EDD47C09F1B6F9\t\t\tWillCreated(msg.sender, msg.va...\n      CALLVALUE \t\t\tmsg.value\n      PUSH 40\t\t\tWillCreated(msg.sender, msg.va...\n      MLOAD \t\t\tWillCreated(msg.sender, msg.va...\n      PUSH [tag] 62\t\t\tWillCreated(msg.sender, msg.va...\n      SWAP2 \t\t\tWillCreated(msg.sender, msg.va...\n      SWAP1 \t\t\tWillCreated(msg.sender, msg.va...\n      PUSH [tag] 63\t\t\tWillCreated(msg.sender, msg.va...\n      JUMP \t\t\tWillCreated(msg.sender, msg.va...\n    tag 62\t\t\tWillCreated(msg.sender, msg.va...\n      JUMPDEST \t\t\tWillCreated(msg.sender, msg.va...\n      PUSH 40\t\t\tWillCreated(msg.sender, msg.va...\n      MLOAD \t\t\tWillCreated(msg.sender, msg.va...\n      DUP1 \t\t\tWillCreated(msg.sender, msg.va...\n      SWAP2 \t\t\tWillCreated(msg.sender, msg.va...\n      SUB \t\t\tWillCreated(msg.sender, msg.va...\n      SWAP1 \t\t\tWillCreated(msg.sender, msg.va...\n      LOG2 \t\t\tWillCreated(msg.sender, msg.va...\n      POP \t\t\tfunction createWill(\\n        ...\n      POP \t\t\tfunction createWill(\\n        ...\n      POP \t\t\tfunction createWill(\\n        ...\n      POP \t\t\tfunction createWill(\\n        ...\n      POP \t\t\tfunction createWill(\\n        ...\n      JUMP \t\t\tfunction createWill(\\n        ...\n    tag 25\t\t\tfunction executeWill(address u...\n      JUMPDEST \t\t\tfunction executeWill(address u...\n      PUSH 1\t\t\thasWill\n      PUSH 0\t\t\thasWill[user]\n      DUP3 \t\t\tuser\n      PUSH FFFFFFFFFFFFFFFFFFFFFFFFFFFFFFFFFFFFFFFF\t\t\thasWill[user]\n      AND \t\t\thasWill[user]\n      PUSH FFFFFFFFFFFFFFFFFFFFFFFFFFFFFFFFFFFFFFFF\t\t\thasWill[user]\n      AND \t\t\thasWill[user]\n      DUP2 \t\t\thasWill[user]\n      MSTORE \t\t\thasWill[user]\n      PUSH 20\t\t\thasWill[user]\n      ADD \t\t\thasWill[user]\n      SWAP1 \t\t\thasWill[user]\n      DUP2 \t\t\thasWill[user]\n      MSTORE \t\t\thasWill[user]\n      PUSH 20\t\t\thasWill[user]\n      ADD \t\t\thasWill[user]\n      PUSH 0\t\t\thasWill[user]\n      KECCAK256 \t\t\thasWill[user]\n      PUSH 0\t\t\thasWill[user]\n      SWAP1 \t\t\thasWill[user]\n      SLOAD \t\t\thasWill[user]\n      SWAP1 \t\t\thasWill[user]\n      PUSH 100\t\t\thasWill[user]\n      EXP \t\t\thasWill[user]\n      SWAP1 \t\t\thasWill[user]\n      DIV \t\t\thasWill[user]\n      PUSH FF\t\t\thasWill[user]\n      AND \t\t\thasWill[user]\n      PUSH [tag] 65\t\t\trequire(hasWill[user], \"No wil...\n      JUMPI \t\t\trequire(hasWill[user], \"No wil...\n      PUSH 40\t\t\trequire(hasWill[user], \"No wil...\n      MLOAD \t\t\trequire(hasWill[user], \"No wil...\n      PUSH 8C379A000000000000000000000000000000000000000000000000000000000\t\t\trequire(hasWill[user], \"No wil...\n      DUP2 \t\t\trequire(hasWill[user], \"No wil...\n      MSTORE \t\t\trequire(hasWill[user], \"No wil...\n      PUSH 4\t\t\trequire(hasWill[user], \"No wil...\n      ADD \t\t\trequire(hasWill[user], \"No wil...\n      PUSH [tag] 66\t\t\trequire(hasWill[user], \"No wil...\n      SWAP1 \t\t\trequire(hasWill[user], \"No wil...\n      PUSH [tag] 67\t\t\trequire(hasWill[user], \"No wil...\n      JUMP \t\t\trequire(hasWill[user], \"No wil...\n    tag 66\t\t\trequire(hasWill[user], \"No wil...\n      JUMPDEST \t\t\trequire(hasWill[user], \"No wil...\n      PUSH 40\t\t\trequire(hasWill[user], \"No wil...\n      MLOAD \t\t\trequire(hasWill[user], \"No wil...\n      DUP1 \t\t\trequire(hasWill[user], \"No wil...\n      SWAP2 \t\t\trequire(hasWill[user], \"No wil...\n      SUB \t\t\trequire(hasWill[user], \"No wil...\n      SWAP1 \t\t\trequire(hasWill[user], \"No wil...\n      REVERT \t\t\trequire(hasWill[user], \"No wil...\n    tag 65\t\t\trequire(hasWill[user], \"No wil...\n      JUMPDEST \t\t\trequire(hasWill[user], \"No wil...\n      PUSH 0\t\t\twills\n      DUP1 \t\t\twills[user]\n      DUP3 \t\t\tuser\n      PUSH FFFFFFFFFFFFFFFFFFFFFFFFFFFFFFFFFFFFFFFF\t\t\twills[user]\n      AND \t\t\twills[user]\n      PUSH FFFFFFFFFFFFFFFFFFFFFFFFFFFFFFFFFFFFFFFF\t\t\twills[user]\n      AND \t\t\twills[user]\n      DUP2 \t\t\twills[user]\n      MSTORE \t\t\twills[user]\n      PUSH 20\t\t\twills[user]\n      ADD \t\t\twills[user]\n      SWAP1 \t\t\twills[user]\n      DUP2 \t\t\twills[user]\n      MSTORE \t\t\twills[user]\n      PUSH 20\t\t\twills[user]\n      ADD \t\t\twills[user]\n      PUSH 0\t\t\twills[user]\n      KECCAK256 \t\t\twills[user]\n      PUSH 6\t\t\twills[user].proofOfLifeInterva...\n      ADD \t\t\twills[user].proofOfLifeInterva...\n      SLOAD \t\t\twills[user].proofOfLifeInterva...\n      PUSH 0\t\t\twills\n      DUP1 \t\t\twills[user]\n      DUP4 \t\t\tuser\n      PUSH FFFFFFFFFFFFFFFFFFFFFFFFFFFFFFFFFFFFFFFF\t\t\twills[user]\n      AND \t\t\twills[user]\n      PUSH FFFFFFFFFFFFFFFFFFFFFFFFFFFFFFFFFFFFFFFF\t\t\twills[user]\n      AND \t\t\twills[user]\n      DUP2 \t\t\twills[user]\n      MSTORE \t\t\twills[user]\n      PUSH 20\t\t\twills[user]\n      ADD \t\t\twills[user]\n      SWAP1 \t\t\twills[user]\n      DUP2 \t\t\twills[user]\n      MSTORE \t\t\twills[user]\n      PUSH 20\t\t\twills[user]\n      ADD \t\t\twills[user]\n      PUSH 0\t\t\twills[user]\n      KECCAK256 \t\t\twills[user]\n      PUSH 5\t\t\twills[user].lastAliveTime\n      ADD \t\t\twills[user].lastAliveTime\n      SLOAD \t\t\twills[user].lastAliveTime\n      PUSH [tag] 68\t\t\twills[user].lastAliveTime + wi...\n      SWAP2 \t\t\twills[user].lastAliveTime + wi...\n      SWAP1 \t\t\twills[user].lastAliveTime + wi...\n      PUSH [tag] 42\t\t\twills[user].lastAliveTime + wi...\n      JUMP \t\t\twills[user].lastAliveTime + wi...\n    tag 68\t\t\twills[user].lastAliveTime + wi...\n      JUMPDEST \t\t\twills[user].lastAliveTime + wi...\n      TIMESTAMP \t\t\tblock.timestamp\n      GT \t\t\tblock.timestamp > wills[user]....\n      PUSH [tag] 69\t\t\trequire(block.timestamp > will...\n      JUMPI \t\t\trequire(block.timestamp > will...\n      PUSH 40\t\t\trequire(block.timestamp > will...\n      MLOAD \t\t\trequire(block.timestamp > will...\n      PUSH 8C379A000000000000000000000000000000000000000000000000000000000\t\t\trequire(block.timestamp > will...\n      DUP2 \t\t\trequire(block.timestamp > will...\n      MSTORE \t\t\trequire(block.timestamp > will...\n      PUSH 4\t\t\trequire(block.timestamp > will...\n      ADD \t\t\trequire(block.timestamp > will...\n      PUSH [tag] 70\t\t\trequire(block.timestamp > will...\n      SWAP1 \t\t\trequire(block.timestamp > will...\n      PUSH [tag] 71\t\t\trequire(block.timestamp > will...\n      JUMP \t\t\trequire(block.timestamp > will...\n    tag 70\t\t\trequire(block.timestamp > will...\n      JUMPDEST \t\t\trequire(block.timestamp > will...\n      PUSH 40\t\t\trequire(block.timestamp > will...\n      MLOAD \t\t\trequire(block.timestamp > will...\n      DUP1 \t\t\trequire(block.timestamp > will...\n      SWAP2 \t\t\trequire(block.timestamp > will...\n      SUB \t\t\trequire(block.timestamp > will...\n      SWAP1 \t\t\trequire(block.timestamp > will...\n      REVERT \t\t\trequire(block.timestamp > will...\n    tag 69\t\t\trequire(block.timestamp > will...\n      JUMPDEST \t\t\trequire(block.timestamp > will...\n      PUSH 0\t\t\twills\n      DUP1 \t\t\twills[user]\n      DUP3 \t\t\tuser\n      PUSH FFFFFFFFFFFFFFFFFFFFFFFFFFFFFFFFFFFFFFFF\t\t\twills[user]\n      AND \t\t\twills[user]\n      PUSH FFFFFFFFFFFFFFFFFFFFFFFFFFFFFFFFFFFFFFFF\t\t\twills[user]\n      AND \t\t\twills[user]\n      DUP2 \t\t\twills[user]\n      MSTORE \t\t\twills[user]\n      PUSH 20\t\t\twills[user]\n      ADD \t\t\twills[user]\n      SWAP1 \t\t\twills[user]\n      DUP2 \t\t\twills[user]\n      MSTORE \t\t\twills[user]\n      PUSH 20\t\t\twills[user]\n      ADD \t\t\twills[user]\n      PUSH 0\t\t\twills[user]\n      KECCAK256 \t\t\twills[user]\n      PUSH 7\t\t\twills[user].isDeceased\n      ADD \t\t\twills[user].isDeceased\n      PUSH 0\t\t\twills[user].isDeceased\n      SWAP1 \t\t\twills[user].isDeceased\n      SLOAD \t\t\twills[user].isDeceased\n      SWAP1 \t\t\twills[user].isDeceased\n      PUSH 100\t\t\twills[user].isDeceased\n      EXP \t\t\twills[user].isDeceased\n      SWAP1 \t\t\twills[user].isDeceased\n      DIV \t\t\twills[user].isDeceased\n      PUSH FF\t\t\twills[user].isDeceased\n      AND \t\t\twills[user].isDeceased\n      ISZERO \t\t\t!wills[user].isDeceased\n      PUSH [tag] 72\t\t\trequire(!wills[user].isDecease...\n      JUMPI \t\t\trequire(!wills[user].isDecease...\n      PUSH 40\t\t\trequire(!wills[user].isDecease...\n      MLOAD \t\t\trequire(!wills[user].isDecease...\n      PUSH 8C379A000000000000000000000000000000000000000000000000000000000\t\t\trequire(!wills[user].isDecease...\n      DUP2 \t\t\trequire(!wills[user].isDecease...\n      MSTORE \t\t\trequire(!wills[user].isDecease...\n      PUSH 4\t\t\trequire(!wills[user].isDecease...\n      ADD \t\t\trequire(!wills[user].isDecease...\n      PUSH [tag] 73\t\t\trequire(!wills[user].isDecease...\n      SWAP1 \t\t\trequire(!wills[user].isDecease...\n      PUSH [tag] 74\t\t\trequire(!wills[user].isDecease...\n      JUMP \t\t\trequire(!wills[user].isDecease...\n    tag 73\t\t\trequire(!wills[user].isDecease...\n      JUMPDEST \t\t\trequire(!wills[user].isDecease...\n      PUSH 40\t\t\trequire(!wills[user].isDecease...\n      MLOAD \t\t\trequire(!wills[user].isDecease...\n      DUP1 \t\t\trequire(!wills[user].isDecease...\n      SWAP2 \t\t\trequire(!wills[user].isDecease...\n      SUB \t\t\trequire(!wills[user].isDecease...\n      SWAP1 \t\t\trequire(!wills[user].isDecease...\n      REVERT \t\t\trequire(!wills[user].isDecease...\n    tag 72\t\t\trequire(!wills[user].isDecease...\n      JUMPDEST \t\t\trequire(!wills[user].isDecease...\n      PUSH 1\t\t\ttrue\n      PUSH 0\t\t\twills\n      DUP1 \t\t\twills[user]\n      DUP4 \t\t\tuser\n      PUSH FFFFFFFFFFFFFFFFFFFFFFFFFFFFFFFFFFFFFFFF\t\t\twills[user]\n      AND \t\t\twills[user]\n      PUSH FFFFFFFFFFFFFFFFFFFFFFFFFFFFFFFFFFFFFFFF\t\t\twills[user]\n      AND \t\t\twills[user]\n      DUP2 \t\t\twills[user]\n      MSTORE \t\t\twills[user]\n      PUSH 20\t\t\twills[user]\n      ADD \t\t\twills[user]\n      SWAP1 \t\t\twills[user]\n      DUP2 \t\t\twills[user]\n      MSTORE \t\t\twills[user]\n      PUSH 20\t\t\twills[user]\n      ADD \t\t\twills[user]\n      PUSH 0\t\t\twills[user]\n      KECCAK256 \t\t\twills[user]\n      PUSH 7\t\t\twills[user].isDeceased\n      ADD \t\t\twills[user].isDeceased\n      PUSH 0\t\t\twills[user].isDeceased\n      PUSH 100\t\t\twills[user].isDeceased = true\n      EXP \t\t\twills[user].isDeceased = true\n      DUP2 \t\t\twills[user].isDeceased = true\n      SLOAD \t\t\twills[user].isDeceased = true\n      DUP2 \t\t\twills[user].isDeceased = true\n      PUSH FF\t\t\twills[user].isDeceased = true\n      MUL \t\t\twills[user].isDeceased = true\n      NOT \t\t\twills[user].isDeceased = true\n      AND \t\t\twills[user].isDeceased = true\n      SWAP1 \t\t\twills[user].isDeceased = true\n      DUP4 \t\t\twills[user].isDeceased = true\n      ISZERO \t\t\twills[user].isDeceased = true\n      ISZERO \t\t\twills[user].isDeceased = true\n      MUL \t\t\twills[user].isDeceased = true\n      OR \t\t\twills[user].isDeceased = true\n      SWAP1 \t\t\twills[user].isDeceased = true\n      SSTORE \t\t\twills[user].isDeceased = true\n      POP \t\t\twills[user].isDeceased = true\n      PUSH 0\t\t\tuint i\n    tag 75\t\t\tfor (uint i = 0; i < wills[use...\n      JUMPDEST \t\t\tfor (uint i = 0; i < wills[use...\n      PUSH 0\t\t\twills\n      DUP1 \t\t\twills[user]\n      DUP4 \t\t\tuser\n      PUSH FFFFFFFFFFFFFFFFFFFFFFFFFFFFFFFFFFFFFFFF\t\t\twills[user]\n      AND \t\t\twills[user]\n      PUSH FFFFFFFFFFFFFFFFFFFFFFFFFFFFFFFFFFFFFFFF\t\t\twills[user]\n      AND \t\t\twills[user]\n      DUP2 \t\t\twills[user]\n      MSTORE \t\t\twills[user]\n      PUSH 20\t\t\twills[user]\n      ADD \t\t\twills[user]\n      SWAP1 \t\t\twills[user]\n      DUP2 \t\t\twills[user]\n      MSTORE \t\t\twills[user]\n      PUSH 20\t\t\twills[user]\n      ADD \t\t\twills[user]\n      PUSH 0\t\t\twills[user]\n      KECCAK256 \t\t\twills[user]\n      PUSH 9\t\t\twills[user].beneficiaries\n      ADD \t\t\twills[user].beneficiaries\n      DUP1 \t\t\twills[user].beneficiaries.leng...\n      SLOAD \t\t\twills[user].beneficiaries.leng...\n      SWAP1 \t\t\twills[user].beneficiaries.leng...\n      POP \t\t\twills[user].beneficiaries.leng...\n      DUP2 \t\t\ti\n      LT \t\t\ti < wills[user].beneficiaries....\n      ISZERO \t\t\tfor (uint i = 0; i < wills[use...\n      PUSH [tag] 76\t\t\tfor (uint i = 0; i < wills[use...\n      JUMPI \t\t\tfor (uint i = 0; i < wills[use...\n      PUSH 0\t\t\tBeneficiary storage beneficiar...\n      DUP1 \t\t\twills\n      PUSH 0\t\t\twills[user]\n      DUP5 \t\t\tuser\n      PUSH FFFFFFFFFFFFFFFFFFFFFFFFFFFFFFFFFFFFFFFF\t\t\twills[user]\n      AND \t\t\twills[user]\n      PUSH FFFFFFFFFFFFFFFFFFFFFFFFFFFFFFFFFFFFFFFF\t\t\twills[user]\n      AND \t\t\twills[user]\n      DUP2 \t\t\twills[user]\n      MSTORE \t\t\twills[user]\n      PUSH 20\t\t\twills[user]\n      ADD \t\t\twills[user]\n      SWAP1 \t\t\twills[user]\n      DUP2 \t\t\twills[user]\n      MSTORE \t\t\twills[user]\n      PUSH 20\t\t\twills[user]\n      ADD \t\t\twills[user]\n      PUSH 0\t\t\twills[user]\n      KECCAK256 \t\t\twills[user]\n      PUSH 9\t\t\twills[user].beneficiaries\n      ADD \t\t\twills[user].beneficiaries\n      DUP3 \t\t\ti\n      DUP2 \t\t\twills[user].beneficiaries[i]\n      SLOAD \t\t\twills[user].beneficiaries[i]\n      DUP2 \t\t\twills[user].beneficiaries[i]\n      LT \t\t\twills[user].beneficiaries[i]\n      PUSH [tag] 78\t\t\twills[user].beneficiaries[i]\n      JUMPI \t\t\twills[user].beneficiaries[i]\n      PUSH [tag] 79\t\t\twills[user].beneficiaries[i]\n      PUSH [tag] 39\t\t\twills[user].beneficiaries[i]\n      JUMP \t\t\twills[user].beneficiaries[i]\n    tag 79\t\t\twills[user].beneficiaries[i]\n      JUMPDEST \t\t\twills[user].beneficiaries[i]\n    tag 78\t\t\twills[user].beneficiaries[i]\n      JUMPDEST \t\t\twills[user].beneficiaries[i]\n      SWAP1 \t\t\twills[user].beneficiaries[i]\n      PUSH 0\t\t\twills[user].beneficiaries[i]\n      MSTORE \t\t\twills[user].beneficiaries[i]\n      PUSH 20\t\t\twills[user].beneficiaries[i]\n      PUSH 0\t\t\twills[user].beneficiaries[i]\n      KECCAK256 \t\t\twills[user].beneficiaries[i]\n      SWAP1 \t\t\twills[user].beneficiaries[i]\n      PUSH 4\t\t\twills[user].beneficiaries[i]\n      MUL \t\t\twills[user].beneficiaries[i]\n      ADD \t\t\twills[user].beneficiaries[i]\n      SWAP1 \t\t\tBeneficiary storage beneficiar...\n      POP \t\t\tBeneficiary storage beneficiar...\n      PUSH 0\t\t\tuint256 amount\n      PUSH 64\t\t\t100\n      DUP3 \t\t\tbeneficiary\n      PUSH 1\t\t\tbeneficiary.percentage\n      ADD \t\t\tbeneficiary.percentage\n      SLOAD \t\t\tbeneficiary.percentage\n      PUSH 0\t\t\twills\n      DUP1 \t\t\twills[user]\n      DUP8 \t\t\tuser\n      PUSH FFFFFFFFFFFFFFFFFFFFFFFFFFFFFFFFFFFFFFFF\t\t\twills[user]\n      AND \t\t\twills[user]\n      PUSH FFFFFFFFFFFFFFFFFFFFFFFFFFFFFFFFFFFFFFFF\t\t\twills[user]\n      AND \t\t\twills[user]\n      DUP2 \t\t\twills[user]\n      MSTORE \t\t\twills[user]\n      PUSH 20\t\t\twills[user]\n      ADD \t\t\twills[user]\n      SWAP1 \t\t\twills[user]\n      DUP2 \t\t\twills[user]\n      MSTORE \t\t\twills[user]\n      PUSH 20\t\t\twills[user]\n      ADD \t\t\twills[user]\n      PUSH 0\t\t\twills[user]\n      KECCAK256 \t\t\twills[user]\n      PUSH 4\t\t\twills[user].totalLocked\n      ADD \t\t\twills[user].totalLocked\n      SLOAD \t\t\twills[user].totalLocked\n      PUSH [tag] 81\t\t\twills[user].totalLocked * bene...\n      SWAP2 \t\t\twills[user].totalLocked * bene...\n      SWAP1 \t\t\twills[user].totalLocked * bene...\n      PUSH [tag] 82\t\t\twills[user].totalLocked * bene...\n      JUMP \t\t\twills[user].totalLocked * bene...\n    tag 81\t\t\twills[user].totalLocked * bene...\n      JUMPDEST \t\t\twills[user].totalLocked * bene...\n      PUSH [tag] 83\t\t\t(wills[user].totalLocked * ben...\n      SWAP2 \t\t\t(wills[user].totalLocked * ben...\n      SWAP1 \t\t\t(wills[user].totalLocked * ben...\n      PUSH [tag] 84\t\t\t(wills[user].totalLocked * ben...\n      JUMP \t\t\t(wills[user].totalLocked * ben...\n    tag 83\t\t\t(wills[user].totalLocked * ben...\n      JUMPDEST \t\t\t(wills[user].totalLocked * ben...\n      SWAP1 \t\t\tuint256 amount = (wills[user]....\n      POP \t\t\tuint256 amount = (wills[user]....\n      DUP2 \t\t\tbeneficiary\n      PUSH 0\t\t\tbeneficiary.wallet\n      ADD \t\t\tbeneficiary.wallet\n      PUSH 0\t\t\tbeneficiary.wallet\n      SWAP1 \t\t\tbeneficiary.wallet\n      SLOAD \t\t\tbeneficiary.wallet\n      SWAP1 \t\t\tbeneficiary.wallet\n      PUSH 100\t\t\tbeneficiary.wallet\n      EXP \t\t\tbeneficiary.wallet\n      SWAP1 \t\t\tbeneficiary.wallet\n      DIV \t\t\tbeneficiary.wallet\n      PUSH FFFFFFFFFFFFFFFFFFFFFFFFFFFFFFFFFFFFFFFF\t\t\tbeneficiary.wallet\n      AND \t\t\tbeneficiary.wallet\n      PUSH FFFFFFFFFFFFFFFFFFFFFFFFFFFFFFFFFFFFFFFF\t\t\tbeneficiary.wallet.transfer\n      AND \t\t\tbeneficiary.wallet.transfer\n      PUSH 8FC\t\t\tbeneficiary.wallet.transfer(am...\n      DUP3 \t\t\tamount\n      SWAP1 \t\t\tbeneficiary.wallet.transfer(am...\n      DUP2 \t\t\tbeneficiary.wallet.transfer(am...\n      ISZERO \t\t\tbeneficiary.wallet.transfer(am...\n      MUL \t\t\tbeneficiary.wallet.transfer(am...\n      SWAP1 \t\t\tbeneficiary.wallet.transfer(am...\n      PUSH 40\t\t\tbeneficiary.wallet.transfer(am...\n      MLOAD \t\t\tbeneficiary.wallet.transfer(am...\n      PUSH 0\t\t\tbeneficiary.wallet.transfer(am...\n      PUSH 40\t\t\tbeneficiary.wallet.transfer(am...\n      MLOAD \t\t\tbeneficiary.wallet.transfer(am...\n      DUP1 \t\t\tbeneficiary.wallet.transfer(am...\n      DUP4 \t\t\tbeneficiary.wallet.transfer(am...\n      SUB \t\t\tbeneficiary.wallet.transfer(am...\n      DUP2 \t\t\tbeneficiary.wallet.transfer(am...\n      DUP6 \t\t\tbeneficiary.wallet.transfer(am...\n      DUP9 \t\t\tbeneficiary.wallet.transfer(am...\n      DUP9 \t\t\tbeneficiary.wallet.transfer(am...\n      CALL \t\t\tbeneficiary.wallet.transfer(am...\n      SWAP4 \t\t\tbeneficiary.wallet.transfer(am...\n      POP \t\t\tbeneficiary.wallet.transfer(am...\n      POP \t\t\tbeneficiary.wallet.transfer(am...\n      POP \t\t\tbeneficiary.wallet.transfer(am...\n      POP \t\t\tbeneficiary.wallet.transfer(am...\n      ISZERO \t\t\tbeneficiary.wallet.transfer(am...\n      DUP1 \t\t\tbeneficiary.wallet.transfer(am...\n      ISZERO \t\t\tbeneficiary.wallet.transfer(am...\n      PUSH [tag] 86\t\t\tbeneficiary.wallet.transfer(am...\n      JUMPI \t\t\tbeneficiary.wallet.transfer(am...\n      RETURNDATASIZE \t\t\tbeneficiary.wallet.transfer(am...\n      PUSH 0\t\t\tbeneficiary.wallet.transfer(am...\n      DUP1 \t\t\tbeneficiary.wallet.transfer(am...\n      RETURNDATACOPY \t\t\tbeneficiary.wallet.transfer(am...\n      RETURNDATASIZE \t\t\tbeneficiary.wallet.transfer(am...\n      PUSH 0\t\t\tbeneficiary.wallet.transfer(am...\n      REVERT \t\t\tbeneficiary.wallet.transfer(am...\n    tag 86\t\t\tbeneficiary.wallet.transfer(am...\n      JUMPDEST \t\t\tbeneficiary.wallet.transfer(am...\n      POP \t\t\tbeneficiary.wallet.transfer(am...\n      DUP2 \t\t\tbeneficiary\n      PUSH 0\t\t\tbeneficiary.wallet\n      ADD \t\t\tbeneficiary.wallet\n      PUSH 0\t\t\tbeneficiary.wallet\n      SWAP1 \t\t\tbeneficiary.wallet\n      SLOAD \t\t\tbeneficiary.wallet\n      SWAP1 \t\t\tbeneficiary.wallet\n      PUSH 100\t\t\tbeneficiary.wallet\n      EXP \t\t\tbeneficiary.wallet\n      SWAP1 \t\t\tbeneficiary.wallet\n      DIV \t\t\tbeneficiary.wallet\n      PUSH FFFFFFFFFFFFFFFFFFFFFFFFFFFFFFFFFFFFFFFF\t\t\tbeneficiary.wallet\n      AND \t\t\tbeneficiary.wallet\n      PUSH FFFFFFFFFFFFFFFFFFFFFFFFFFFFFFFFFFFFFFFF\t\t\tFundsDisbursed(beneficiary.wal...\n      AND \t\t\tFundsDisbursed(beneficiary.wal...\n      PUSH 263D976337B68011634FB07C07212194969A5F466ACEFB29EE0BC9DAE990BF06\t\t\tFundsDisbursed(beneficiary.wal...\n      DUP3 \t\t\tamount\n      DUP5 \t\t\tbeneficiary\n      PUSH 2\t\t\tbeneficiary.saleDeedIpfsHash\n      ADD \t\t\tbeneficiary.saleDeedIpfsHash\n      DUP6 \t\t\tbeneficiary\n      PUSH 3\t\t\tbeneficiary.email\n      ADD \t\t\tbeneficiary.email\n      PUSH 40\t\t\tFundsDisbursed(beneficiary.wal...\n      MLOAD \t\t\tFundsDisbursed(beneficiary.wal...\n      PUSH [tag] 87\t\t\tFundsDisbursed(beneficiary.wal...\n      SWAP4 \t\t\tFundsDisbursed(beneficiary.wal...\n      SWAP3 \t\t\tFundsDisbursed(beneficiary.wal...\n      SWAP2 \t\t\tFundsDisbursed(beneficiary.wal...\n      SWAP1 \t\t\tFundsDisbursed(beneficiary.wal...\n      PUSH [tag] 88\t\t\tFundsDisbursed(beneficiary.wal...\n      JUMP \t\t\tFundsDisbursed(beneficiary.wal...\n    tag 87\t\t\tFundsDisbursed(beneficiary.wal...\n      JUMPDEST \t\t\tFundsDisbursed(beneficiary.wal...\n      PUSH 40\t\t\tFundsDisbursed(beneficiary.wal...\n      MLOAD \t\t\tFundsDisbursed(beneficiary.wal...\n      DUP1 \t\t\tFundsDisbursed(beneficiary.wal...\n      SWAP2 \t\t\tFundsDisbursed(beneficiary.wal...\n      SUB \t\t\tFundsDisbursed(beneficiary.wal...\n      SWAP1 \t\t\tFundsDisbursed(beneficiary.wal...\n      LOG2 \t\t\tFundsDisbursed(beneficiary.wal...\n      POP \t\t\t{\\n            Beneficiary sto...\n      POP \t\t\t{\\n            Beneficiary sto...\n      DUP1 \t\t\ti++\n      DUP1 \t\t\ti++\n      PUSH 1\t\t\ti++\n      ADD \t\t\ti++\n      SWAP2 \t\t\ti++\n      POP \t\t\ti++\n      POP \t\t\ti++\n      PUSH [tag] 75\t\t\tfor (uint i = 0; i < wills[use...\n      JUMP \t\t\tfor (uint i = 0; i < wills[use...\n    tag 76\t\t\tfor (uint i = 0; i < wills[use...\n      JUMPDEST \t\t\tfor (uint i = 0; i < wills[use...\n      POP \t\t\tfor (uint i = 0; i < wills[use...\n      PUSH 0\t\t\t0\n      DUP1 \t\t\twills\n      PUSH 0\t\t\twills[user]\n      DUP4 \t\t\tuser\n      PUSH FFFFFFFFFFFFFFFFFFFFFFFFFFFFFFFFFFFFFFFF\t\t\twills[user]\n      AND \t\t\twills[user]\n      PUSH FFFFFFFFFFFFFFFFFFFFFFFFFFFFFFFFFFFFFFFF\t\t\twills[user]\n      AND \t\t\twills[user]\n      DUP2 \t\t\twills[user]\n      MSTORE \t\t\twills[user]\n      PUSH 20\t\t\twills[user]\n      ADD \t\t\twills[user]\n      SWAP1 \t\t\twills[user]\n      DUP2 \t\t\twills[user]\n      MSTORE \t\t\twills[user]\n      PUSH 20\t\t\twills[user]\n      ADD \t\t\twills[user]\n      PUSH 0\t\t\twills[user]\n      KECCAK256 \t\t\twills[user]\n      PUSH 4\t\t\twills[user].totalLocked\n      ADD \t\t\twills[user].totalLocked\n      DUP2 \t\t\twills[user].totalLocked = 0\n      SWAP1 \t\t\twills[user].totalLocked = 0\n      SSTORE \t\t\twills[user].totalLocked = 0\n      POP \t\t\twills[user].totalLocked = 0\n      DUP1 \t\t\tuser\n      PUSH FFFFFFFFFFFFFFFFFFFFFFFFFFFFFFFFFFFFFFFF\t\t\tWillExecuted(user)\n      AND \t\t\tWillExecuted(user)\n      PUSH 16346F65ADF8D84422B57AD74CB5607BF6C9E55C3C1FEA66344057E5BBA8A7EE\t\t\tWillExecuted(user)\n      PUSH 40\t\t\tWillExecuted(user)\n      MLOAD \t\t\tWillExecuted(user)\n      PUSH 40\t\t\tWillExecuted(user)\n      MLOAD \t\t\tWillExecuted(user)\n      DUP1 \t\t\tWillExecuted(user)\n      SWAP2 \t\t\tWillExecuted(user)\n      SUB \t\t\tWillExecuted(user)\n      SWAP1 \t\t\tWillExecuted(user)\n      LOG2 \t\t\tWillExecuted(user)\n      POP \t\t\tfunction executeWill(address u...\n      JUMP \t\t\tfunction executeWill(address u...\n    tag 89\t\t\t-License-Identifier: MIT\\nprag...\n      JUMPDEST \t\t\t-License-Identifier: MIT\\nprag...\n      PUSH 0\t\t\tolidit\n      PUSH 40\t\t\til\n      MLOAD \t\t\tMultiWill\n      SWAP1 \t\t\t\\ncontract MultiWill\n      POP \t\t\t\\ncontract MultiWill\n      SWAP1 \t\t\t-License-Identifier: MIT\\nprag...\n      JUMP \t\t\t-License-Identifier: MIT\\nprag...\n    tag 90\t\t\t   struct Beneficiary {\\n     ...\n      JUMPDEST \t\t\t   struct Beneficiary {\\n     ...\n      PUSH 0\t\t\ta\n      DUP1 \t\t\te\n      REVERT \t\t\ton percentag\n    tag 91\t\t\tring saleDeedIpfsHash; // IPFS...\n      JUMPDEST \t\t\tring saleDeedIpfsHash; // IPFS...\n      PUSH 0\t\t\t \n      DUP1 \t\t\t\\n\n      REVERT \t\t\ts email\\n    \n    tag 92\t\t\tt Will {\\n        address test...\n      JUMPDEST \t\t\tt Will {\\n        address test...\n      PUSH 0\t\t\t      s\n      PUSH FFFFFFFFFFFFFFFFFFFFFFFFFFFFFFFFFFFFFFFF\t\t\tastName;\\n        string testa...\n      DUP3 \t\t\ttring\n      AND \t\t\t   string lastName;\\n        s...\n      SWAP1 \t\t\tName;\\n        string lastName...\n      POP \t\t\tName;\\n        string lastName...\n      SWAP2 \t\t\tt Will {\\n        address test...\n      SWAP1 \t\t\tt Will {\\n        address test...\n      POP \t\t\tt Will {\\n        address test...\n      JUMP \t\t\tt Will {\\n        address test...\n    tag 93\t\t\ttotalLocked;\\n        uint256 ...\n      JUMPDEST \t\t\ttotalLocked;\\n        uint256 ...\n      PUSH 0\t\t\t       \n      PUSH [tag] 161\t\t\terval;\\n        bool isDe\n      DUP3 \t\t\tl isD\n      PUSH [tag] 92\t\t\terval;\\n        bool isDe\n      JUMP \t\t\terval;\\n        bool isDe\n    tag 161\t\t\terval;\\n        bool isDe\n      JUMPDEST \t\t\terval;\\n        bool isDe\n      SWAP1 \t\t\tofOfLifeInterval;\\n        boo...\n      POP \t\t\tofOfLifeInterval;\\n        boo...\n      SWAP2 \t\t\ttotalLocked;\\n        uint256 ...\n      SWAP1 \t\t\ttotalLocked;\\n        uint256 ...\n      POP \t\t\ttotalLocked;\\n        uint256 ...\n      JUMP \t\t\ttotalLocked;\\n        uint256 ...\n    tag 94\t\t\t    string notarizedWillIpfsHa...\n      JUMPDEST \t\t\t    string notarizedWillIpfsHa...\n      PUSH [tag] 163\t\t\t mapping(address => Will) priv...\n      DUP2 \t\t\tpriva\n      PUSH [tag] 93\t\t\t mapping(address => Will) priv...\n      JUMP \t\t\t mapping(address => Will) priv...\n    tag 163\t\t\t mapping(address => Will) priv...\n      JUMPDEST \t\t\t mapping(address => Will) priv...\n      DUP2 \t\t\t }\\n\\n \n      EQ \t\t\t    }\\n\\n    mapping(address =...\n      PUSH [tag] 164\t\t\ticiaries;\\n    }\\n\\n    mappin...\n      JUMPI \t\t\ticiaries;\\n    }\\n\\n    mappin...\n      PUSH 0\t\t\tp\n      DUP1 \t\t\t \n      REVERT \t\t\tls;\\n    mapp\n    tag 164\t\t\ticiaries;\\n    }\\n\\n    mappin...\n      JUMPDEST \t\t\ticiaries;\\n    }\\n\\n    mappin...\n      POP \t\t\t    string notarizedWillIpfsHa...\n      JUMP \t\t\t    string notarizedWillIpfsHa...\n    tag 95\t\t\t bool) public hasWill;\\n\\n    ...\n      JUMPDEST \t\t\t bool) public hasWill;\\n\\n    ...\n      PUSH 0\t\t\tindex\n      DUP2 \t\t\t;\\n    \n      CALLDATALOAD \t\t\t lockedFunds);\\n    e\n      SWAP1 \t\t\t, uint256 lockedFunds);\\n    e\n      POP \t\t\t, uint256 lockedFunds);\\n    e\n      PUSH [tag] 166\t\t\tExecuted(address indexed testa...\n      DUP2 \t\t\t\\n    \n      PUSH [tag] 94\t\t\tExecuted(address indexed testa...\n      JUMP \t\t\tExecuted(address indexed testa...\n    tag 166\t\t\tExecuted(address indexed testa...\n      JUMPDEST \t\t\tExecuted(address indexed testa...\n      SWAP3 \t\t\t bool) public hasWill;\\n\\n    ...\n      SWAP2 \t\t\t bool) public hasWill;\\n\\n    ...\n      POP \t\t\t bool) public hasWill;\\n\\n    ...\n      POP \t\t\t bool) public hasWill;\\n\\n    ...\n      JUMP \t\t\t bool) public hasWill;\\n\\n    ...\n    tag 96\t\t\tsbursed(address indexed benefi...\n      JUMPDEST \t\t\tsbursed(address indexed benefi...\n      PUSH 0\t\t\tuint256\n      DUP2 \t\t\tedIpf\n      SWAP1 \t\t\tring saleDeedIpf\n      POP \t\t\tring saleDeedIpf\n      SWAP2 \t\t\tsbursed(address indexed benefi...\n      SWAP1 \t\t\tsbursed(address indexed benefi...\n      POP \t\t\tsbursed(address indexed benefi...\n      JUMP \t\t\tsbursed(address indexed benefi...\n    tag 97\t\t\tg email, string txnId);\\n\\n   ...\n      JUMPDEST \t\t\tg email, string txnId);\\n\\n   ...\n      PUSH [tag] 169\t\t\tender.\\n     * @param _fi\n      DUP2 \t\t\tam _f\n      PUSH [tag] 96\t\t\tender.\\n     * @param _fi\n      JUMP \t\t\tender.\\n     * @param _fi\n    tag 169\t\t\tender.\\n     * @param _fi\n      JUMPDEST \t\t\tender.\\n     * @param _fi\n      DUP2 \t\t\tr the\n      EQ \t\t\t for the sender.\\n     * @para...\n      PUSH [tag] 170\t\t\ta new will for the sender.\\n  ...\n      JUMPI \t\t\ta new will for the sender.\\n  ...\n      PUSH 0\t\t\ta\n      DUP1 \t\t\tt\n      REVERT \t\t\tme First nam\n    tag 170\t\t\ta new will for the sender.\\n  ...\n      JUMPDEST \t\t\ta new will for the sender.\\n  ...\n      POP \t\t\tg email, string txnId);\\n\\n   ...\n      JUMP \t\t\tg email, string txnId);\\n\\n   ...\n    tag 98\t\t\ttor.\\n     * @param _lastName ...\n      JUMPDEST \t\t\ttor.\\n     * @param _lastName ...\n      PUSH 0\t\t\ttesta\n      DUP2 \t\t\t Email\n      CALLDATALOAD \t\t\ttestatorEmail Email \n      SWAP1 \t\t\t @param _testatorEmail Email \n      POP \t\t\t @param _testatorEmail Email \n      PUSH [tag] 172\t\t\tstator.\\n     * @param _proofO...\n      DUP2 \t\t\tfOfLi\n      PUSH [tag] 97\t\t\tstator.\\n     * @param _proofO...\n      JUMP \t\t\tstator.\\n     * @param _proofO...\n    tag 172\t\t\tstator.\\n     * @param _proofO...\n      JUMPDEST \t\t\tstator.\\n     * @param _proofO...\n      SWAP3 \t\t\ttor.\\n     * @param _lastName ...\n      SWAP2 \t\t\ttor.\\n     * @param _lastName ...\n      POP \t\t\ttor.\\n     * @param _lastName ...\n      POP \t\t\ttor.\\n     * @param _lastName ...\n      JUMP \t\t\ttor.\\n     * @param _lastName ...\n    tag 99\t\t\tme interval in seconds to conf...\n      JUMPDEST \t\t\tme interval in seconds to conf...\n      PUSH 0\t\t\t \n      DUP1 \t\t\ti\n      REVERT \t\t\trized will d\n    tag 100\t\t\t  */\\n    function createWill(...\n      JUMPDEST \t\t\t  */\\n    function createWill(...\n      PUSH 0\t\t\tn\n      DUP1 \t\t\tt\n      REVERT \t\t\t      string\n    tag 101\t\t\ttatorEmail,\\n        uint256 _...\n      JUMPDEST \t\t\ttatorEmail,\\n        uint256 _...\n      PUSH 0\t\t\tnterva\n      PUSH 1F\t\t\tsh\n      NOT \t\t\tfsHash\\n\n      PUSH 1F\t\t\til\n      DUP4 \t\t\tarize\n      ADD \t\t\t_notarizedWill\n      AND \t\t\tory _notarizedWillIpfsHash\\n \n      SWAP1 \t\t\tstring memory _notarizedWillIp...\n      POP \t\t\tstring memory _notarizedWillIp...\n      SWAP2 \t\t\ttatorEmail,\\n        uint256 _...\n      SWAP1 \t\t\ttatorEmail,\\n        uint256 _...\n      POP \t\t\ttatorEmail,\\n        uint256 _...\n      JUMP \t\t\ttatorEmail,\\n        uint256 _...\n    tag 102\t\t\tpayable {\\n        require(!ha...\n      JUMPDEST \t\t\tpayable {\\n        require(!ha...\n      PUSH 4E487B7100000000000000000000000000000000000000000000000000000000\t\t\t\"You already have a will!\");\\n...\n      PUSH 0\t\t\t]\n      MSTORE \t\t\t.sender], \"You already have a ...\n      PUSH 41\t\t\t.sen\n      PUSH 4\t\t\tm\n      MSTORE \t\t\t wills[msg.send\n      PUSH 24\t\t\tsend\n      PUSH 0\t\t\ts\n      REVERT \t\t\ttor = msg.sende\n    tag 103\t\t\tills[msg.sender].firstName = _...\n      JUMPDEST \t\t\tills[msg.sender].firstName = _...\n      PUSH [tag] 178\t\t\tName;\\n        wills[msg.sen\n      DUP3 \t\t\tg.se\n      PUSH [tag] 101\t\t\tName;\\n        wills[msg.sen\n      JUMP \t\t\tName;\\n        wills[msg.sen\n    tag 178\t\t\tName;\\n        wills[msg.sen\n      JUMPDEST \t\t\tName;\\n        wills[msg.sen\n      DUP2 \t\t\t = _la\n      ADD \t\t\tName = _lastName;\\n        wil...\n      DUP2 \t\t\tsg.sen\n      DUP2 \t\t\t     wills\n      LT \t\t\t        wills[msg.send\n      PUSH FFFFFFFFFFFFFFFF\t\t\tlLocked = msg.valu\n      DUP3 \t\t\tsender].to\n      GT \t\t\tsg.sender].totalLocked = msg.v...\n      OR \t\t\ts[msg.sender].totalLocked = ms...\n      ISZERO \t\t\tills[msg.sender].totalLocked =...\n      PUSH [tag] 179\t\t\tills[msg.sender].totalLocked =...\n      JUMPI \t\t\tills[msg.sender].totalLocked =...\n      PUSH [tag] 180\t\t\tlastAliveTime = bl\n      PUSH [tag] 102\t\t\tlastAliveTime = bl\n      JUMP \t\t\tlastAliveTime = bl\n    tag 180\t\t\tlastAliveTime = bl\n      JUMPDEST \t\t\tlastAliveTime = bl\n    tag 179\t\t\tills[msg.sender].totalLocked =...\n      JUMPDEST \t\t\tills[msg.sender].totalLocked =...\n      DUP1 \t\t\t wills[msg\n      PUSH 40\t\t\t  \n      MSTORE \t\t\tmp;\\n        wills[msg.\n      POP \t\t\t      wills[msg.sender].lastNa...\n      POP \t\t\tills[msg.sender].firstName = _...\n      POP \t\t\tills[msg.sender].firstName = _...\n      JUMP \t\t\tills[msg.sender].firstName = _...\n    tag 104\t\t\tfOfLifeInterval = _proofOfLife...\n      JUMPDEST \t\t\tfOfLifeInterval = _proofOfLife...\n      PUSH 0\t\t\trval;\\n\n      PUSH [tag] 182\t\t\tder].isDeceased = fa\n      PUSH [tag] 89\t\t\tder].isDeceased = fa\n      JUMP \t\t\tder].isDeceased = fa\n    tag 182\t\t\tder].isDeceased = fa\n      JUMPDEST \t\t\tder].isDeceased = fa\n      SWAP1 \t\t\tls[msg.sender].isDeceased = fa\n      POP \t\t\tls[msg.sender].isDeceased = fa\n      PUSH [tag] 183\t\t\t    wills[msg.sender].notarize...\n      DUP3 \t\t\tzedW\n      DUP3 \t\t\t].nota\n      PUSH [tag] 103\t\t\t    wills[msg.sender].notarize...\n      JUMP \t\t\t    wills[msg.sender].notarize...\n    tag 183\t\t\t    wills[msg.sender].notarize...\n      JUMPDEST \t\t\t    wills[msg.sender].notarize...\n      SWAP2 \t\t\tfOfLifeInterval = _proofOfLife...\n      SWAP1 \t\t\tfOfLifeInterval = _proofOfLife...\n      POP \t\t\tfOfLifeInterval = _proofOfLife...\n      JUMP \t\t\tfOfLifeInterval = _proofOfLife...\n    tag 105\t\t\t _notarizedWillIpfsHash;\\n    ...\n      JUMPDEST \t\t\t _notarizedWillIpfsHash;\\n    ...\n      PUSH 0\t\t\t    \n      PUSH FFFFFFFFFFFFFFFF\t\t\tiary to the caller\n      DUP3 \t\t\t benef\n      GT \t\t\ts a beneficiary to the caller'\n      ISZERO \t\t\tAdds a beneficiary to the call...\n      PUSH [tag] 185\t\t\tAdds a beneficiary to the call...\n      JUMPI \t\t\tAdds a beneficiary to the call...\n      PUSH [tag] 186\t\t\till.\\n     * @param\n      PUSH [tag] 102\t\t\till.\\n     * @param\n      JUMP \t\t\till.\\n     * @param\n    tag 186\t\t\till.\\n     * @param\n      JUMPDEST \t\t\till.\\n     * @param\n    tag 185\t\t\tAdds a beneficiary to the call...\n      JUMPDEST \t\t\tAdds a beneficiary to the call...\n      PUSH [tag] 187\t\t\tthe beneficiary.\\n     * @para\n      DUP3 \t\t\t* @par\n      PUSH [tag] 101\t\t\tthe beneficiary.\\n     * @para\n      JUMP \t\t\tthe beneficiary.\\n     * @para\n    tag 187\t\t\tthe beneficiary.\\n     * @para\n      JUMPDEST \t\t\tthe beneficiary.\\n     * @para\n      SWAP1 \t\t\tress of the beneficiary.\\n    ...\n      POP \t\t\tress of the beneficiary.\\n    ...\n      PUSH 20\t\t\tam _\n      DUP2 \t\t\t* @p\n      ADD \t\t\t    * @param _s\n      SWAP1 \t\t\tcated.\\n     * @param _s\n      POP \t\t\tcated.\\n     * @param _s\n      SWAP2 \t\t\t _notarizedWillIpfsHash;\\n    ...\n      SWAP1 \t\t\t _notarizedWillIpfsHash;\\n    ...\n      POP \t\t\t _notarizedWillIpfsHash;\\n    ...\n      JUMP \t\t\t _notarizedWillIpfsHash;\\n    ...\n    tag 106\t\t\tsh IPFS hash of the sale deed ...\n      JUMPDEST \t\t\tsh IPFS hash of the sale deed ...\n      DUP3 \t\t\tthe be\n      DUP2 \t\t\tl o\n      DUP4 \t\t\t Em\n      CALLDATACOPY \t\t\t@param _email Email of the ben\n      PUSH 0\t\t\tB\n      DUP4 \t\t\tction \n      DUP4 \t\t\t  f\n      ADD \t\t\t/\\n    function a\n      MSTORE \t\t\t\\n     */\\n    function addBe\n      POP \t\t\tsh IPFS hash of the sale deed ...\n      POP \t\t\tsh IPFS hash of the sale deed ...\n      POP \t\t\tsh IPFS hash of the sale deed ...\n      JUMP \t\t\tsh IPFS hash of the sale deed ...\n    tag 107\t\t\t      address payable _wallet,...\n      JUMPDEST \t\t\t      address payable _wallet,...\n      PUSH 0\t\t\tory _\n      PUSH [tag] 190\t\t\t      string memory _email\\n  ...\n      PUSH [tag] 191\t\t\tory _email\\n    ) public {\\n  ...\n      DUP5 \t\t\thasWil\n      PUSH [tag] 105\t\t\tory _email\\n    ) public {\\n  ...\n      JUMP \t\t\tory _email\\n    ) public {\\n  ...\n    tag 191\t\t\tory _email\\n    ) public {\\n  ...\n      JUMPDEST \t\t\tory _email\\n    ) public {\\n  ...\n      PUSH [tag] 104\t\t\t      string memory _email\\n  ...\n      JUMP \t\t\t      string memory _email\\n  ...\n    tag 190\t\t\t      string memory _email\\n  ...\n      JUMPDEST \t\t\t      string memory _email\\n  ...\n      SWAP1 \t\t\tsHash,\\n        string memory ...\n      POP \t\t\tsHash,\\n        string memory ...\n      DUP3 \t\t\tto cre\n      DUP2 \t\t\tu nee\n      MSTORE \t\t\tr], \"You need to crea\n      PUSH 20\t\t\tire(\n      DUP2 \t\t\t   re\n      ADD \t\t\t       require(_\n      DUP5 \t\t\t100\n      DUP5 \t\t\tntage \n      DUP5 \t\t\tper\n      ADD \t\t\t&& _percentage <\n      GT \t\t\t 0 && _percentage <= 100,\n      ISZERO \t\t\te > 0 && _percentage <= 100, \"...\n      PUSH [tag] 192\t\t\te > 0 && _percentage <= 100, \"...\n      JUMPI \t\t\te > 0 && _percentage <= 100, \"...\n      PUSH [tag] 193\t\t\tnvalid percentage\");\\n\\n      ...\n      PUSH [tag] 100\t\t\tnvalid percentage\");\\n\\n      ...\n      JUMP \t\t\tnvalid percentage\");\\n\\n      ...\n    tag 193\t\t\tnvalid percentage\");\\n\\n      ...\n      JUMPDEST \t\t\tnvalid percentage\");\\n\\n      ...\n    tag 192\t\t\te > 0 && _percentage <= 100, \"...\n      JUMPDEST \t\t\te > 0 && _percentage <= 100, \"...\n      PUSH [tag] 194\t\t\tlls[msg.sender].beneficiaries....\n      DUP5 \t\t\t      \n      DUP3 \t\t\t {\\n\n      DUP6 \t\t\t i+\n      PUSH [tag] 106\t\t\tlls[msg.sender].beneficiaries....\n      JUMP \t\t\tlls[msg.sender].beneficiaries....\n    tag 194\t\t\tlls[msg.sender].beneficiaries....\n      JUMPDEST \t\t\tlls[msg.sender].beneficiaries....\n      POP \t\t\taleDeedIpfsHash,\\n        stri...\n      SWAP4 \t\t\t      address payable _wallet,...\n      SWAP3 \t\t\t      address payable _wallet,...\n      POP \t\t\t      address payable _wallet,...\n      POP \t\t\t      address payable _wallet,...\n      POP \t\t\t      address payable _wallet,...\n      JUMP \t\t\t      address payable _wallet,...\n    tag 108\t\t\ts[msg.sender].beneficiaries[i]...\n      JUMPDEST \t\t\ts[msg.sender].beneficiaries[i]...\n      PUSH 0\t\t\t     \n      DUP3 \t\t\t, \"\n      PUSH 1F\t\t\t <= \n      DUP4 \t\t\trcenta\n      ADD \t\t\t _percentage <= 1\n      SLT \t\t\tge + _percentage <= 100, \"T\n      PUSH [tag] 196\t\t\talPercentage + _percentage <= ...\n      JUMPI \t\t\talPercentage + _percentage <= ...\n      PUSH [tag] 197\t\t\t allocation exceeds 100%\");\\n\\...\n      PUSH [tag] 99\t\t\t allocation exceeds 100%\");\\n\\...\n      JUMP \t\t\t allocation exceeds 100%\");\\n\\...\n    tag 197\t\t\t allocation exceeds 100%\");\\n\\...\n      JUMPDEST \t\t\t allocation exceeds 100%\");\\n\\...\n    tag 196\t\t\talPercentage + _percentage <= ...\n      JUMPDEST \t\t\talPercentage + _percentage <= ...\n      DUP2 \t\t\tge, _s\n      CALLDATALOAD \t\t\tet, _percentage, _sa\n      PUSH [tag] 198\t\t\tmail)\\n        );\\n    }\\n\\n  ...\n      DUP5 \t\t\tng \n      DUP3 \t\t\tstribu\n      PUSH 20\t\t\tl by\n      DUP7 \t\t\t the w\n      ADD \t\t\tutes the will by \n      PUSH [tag] 107\t\t\tmail)\\n        );\\n    }\\n\\n  ...\n      JUMP \t\t\tmail)\\n        );\\n    }\\n\\n  ...\n    tag 198\t\t\tmail)\\n        );\\n    }\\n\\n  ...\n      JUMPDEST \t\t\tmail)\\n        );\\n    }\\n\\n  ...\n      SWAP2 \t\t\tsHash, _email)\\n        );\\n  ...\n      POP \t\t\tsHash, _email)\\n        );\\n  ...\n      POP \t\t\tequire(totalPercentage + _perc...\n      SWAP3 \t\t\ts[msg.sender].beneficiaries[i]...\n      SWAP2 \t\t\ts[msg.sender].beneficiaries[i]...\n      POP \t\t\ts[msg.sender].beneficiaries[i]...\n      POP \t\t\ts[msg.sender].beneficiaries[i]...\n      JUMP \t\t\ts[msg.sender].beneficiaries[i]...\n    tag 9\t\t\tering email notifications.\\n  ...\n      JUMPDEST \t\t\tering email notifications.\\n  ...\n      PUSH 0\t\t\t\"No wi\n      DUP1 \t\t\t found\n      PUSH 0\t\t\t);\\n   \n      DUP1 \t\t\t   req\n      PUSH 80\t\t\teTi\n      DUP6 \t\t\ter].lastA\n      DUP8 \t\t\t wills[\n      SUB \t\t\tmp > wills[user].lastAl\n      SLT \t\t\testamp > wills[user].lastAlive...\n      ISZERO \t\t\ttimestamp > wills[user].lastAl...\n      PUSH [tag] 200\t\t\ttimestamp > wills[user].lastAl...\n      JUMPI \t\t\ttimestamp > wills[user].lastAl...\n      PUSH [tag] 201\t\t\t wills[user].proofOfLifeInterv...\n      PUSH [tag] 90\t\t\t wills[user].proofOfLifeInterv...\n      JUMP \t\t\t wills[user].proofOfLifeInterv...\n    tag 201\t\t\t wills[user].proofOfLifeInterv...\n      JUMPDEST \t\t\t wills[user].proofOfLifeInterv...\n    tag 200\t\t\ttimestamp > wills[user].lastAl...\n      JUMPDEST \t\t\ttimestamp > wills[user].lastAl...\n      PUSH 0\t\t\tt\n      PUSH [tag] 202\t\t\ter].isDeceased = true;\\n\\n    ...\n      DUP8 \t\t\twills[u\n      DUP3 \t\t\t= 0; i\n      DUP9 \t\t\tor (uint \n      ADD \t\t\t   for (uint i = 0; i \n      PUSH [tag] 95\t\t\ter].isDeceased = true;\\n\\n    ...\n      JUMP \t\t\ter].isDeceased = true;\\n\\n    ...\n    tag 202\t\t\ter].isDeceased = true;\\n\\n    ...\n      JUMPDEST \t\t\ter].isDeceased = true;\\n\\n    ...\n      SWAP5 \t\t\t  wills[user].isDeceased = tru...\n      POP \t\t\t  wills[user].isDeceased = tru...\n      POP \t\t\tDeceased, \"Will already execut...\n      PUSH 20\t\t\tfi\n      PUSH [tag] 203\t\t\ty = wills[user].beneficiaries[...\n      DUP8 \t\t\t  uint2\n      DUP3 \t\t\t      \n      DUP9 \t\t\tries[i];\\n\n      ADD \t\t\ticiaries[i];\\n\\n        \n      PUSH [tag] 98\t\t\ty = wills[user].beneficiaries[...\n      JUMP \t\t\ty = wills[user].beneficiaries[...\n    tag 203\t\t\ty = wills[user].beneficiaries[...\n      JUMPDEST \t\t\ty = wills[user].beneficiaries[...\n      SWAP4 \t\t\tbeneficiary = wills[user].bene...\n      POP \t\t\tbeneficiary = wills[user].bene...\n      POP \t\t\tngth; i++) {\\n            Bene...\n      PUSH 40\t\t\t  \n      DUP6 \t\t\t0;\\n      \n      ADD \t\t\t/ 100;\\n           \n      CALLDATALOAD \t\t\t.percentage) / 100;\\n         ...\n      PUSH FFFFFFFFFFFFFFFF\t\t\t(amount);\\n\\n       \n      DUP2 \t\t\ttransf\n      GT \t\t\tet.transfer(amount);\\n\\n      ...\n      ISZERO \t\t\tallet.transfer(amount);\\n\\n   ...\n      PUSH [tag] 204\t\t\tallet.transfer(amount);\\n\\n   ...\n      JUMPI \t\t\tallet.transfer(amount);\\n\\n   ...\n      PUSH [tag] 205\t\t\t // Emit event with transactio...\n      PUSH [tag] 91\t\t\t // Emit event with transactio...\n      JUMP \t\t\t // Emit event with transactio...\n    tag 205\t\t\t // Emit event with transactio...\n      JUMPDEST \t\t\t // Emit event with transactio...\n    tag 204\t\t\tallet.transfer(amount);\\n\\n   ...\n      JUMPDEST \t\t\tallet.transfer(amount);\\n\\n   ...\n      PUSH [tag] 206\t\t\tbeneficiary.wallet, amount, be...\n      DUP8 \t\t\th, bene\n      DUP3 \t\t\tedIpfs\n      DUP9 \t\t\tiary.sale\n      ADD \t\t\teficiary.saleDeedIpfsH\n      PUSH [tag] 108\t\t\tbeneficiary.wallet, amount, be...\n      JUMP \t\t\tbeneficiary.wallet, amount, be...\n    tag 206\t\t\tbeneficiary.wallet, amount, be...\n      JUMPDEST \t\t\tbeneficiary.wallet, amount, be...\n      SWAP3 \t\t\tDisbursed(beneficiary.wallet, ...\n      POP \t\t\tDisbursed(beneficiary.wallet, ...\n      POP \t\t\ter].totalLocked * beneficiary....\n      PUSH 60\t\t\tmi\n      DUP6 \t\t\t;\\n       \n      ADD \t\t\t = 0;\\n        emit\n      CALLDATALOAD \t\t\t].totalLocked = 0;\\n        em...\n      PUSH FFFFFFFFFFFFFFFF\t\t\t\\n\n      DUP2 \t\t\t\\n    }\n      GT \t\t\tr);\\n    }\\n}\\n\n      ISZERO \t\t\tuser);\\n    }\\n}\\n\n      PUSH [tag] 207\t\t\tuser);\\n    }\\n}\\n\n      JUMPI \t\t\tuser);\\n    }\\n}\\n\n      PUSH [tag] 208\t\t\t\n      PUSH [tag] 91\t\t\t\n      JUMP \t\t\t\n    tag 208\t\t\t\n      JUMPDEST \t\t\t\n    tag 207\t\t\tuser);\\n    }\\n}\\n\n      JUMPDEST \t\t\tuser);\\n    }\\n}\\n\n      PUSH [tag] 209\t\t\t\n      DUP8 \t\t\t\n      DUP3 \t\t\t\n      DUP9 \t\t\t\n      ADD \t\t\t\n      PUSH [tag] 108\t\t\t\n      JUMP \t\t\t\n    tag 209\t\t\t\n      JUMPDEST \t\t\t\n      SWAP2 \t\t\t\n      POP \t\t\t\n      POP \t\t\t        }\\n\\n        wills[use...\n      SWAP3 \t\t\tering email notifications.\\n  ...\n      SWAP6 \t\t\tering email notifications.\\n  ...\n      SWAP2 \t\t\tering email notifications.\\n  ...\n      SWAP5 \t\t\tering email notifications.\\n  ...\n      POP \t\t\tering email notifications.\\n  ...\n      SWAP3 \t\t\tering email notifications.\\n  ...\n      POP \t\t\tering email notifications.\\n  ...\n      JUMP \t\t\tering email notifications.\\n  ...\n    tag 109\t\t\t\n      JUMPDEST \t\t\t\n      PUSH 0\t\t\t\n      PUSH [tag] 211\t\t\t\n      DUP3 \t\t\t\n      PUSH [tag] 92\t\t\t\n      JUMP \t\t\t\n    tag 211\t\t\t\n      JUMPDEST \t\t\t\n      SWAP1 \t\t\t\n      POP \t\t\t\n      SWAP2 \t\t\t\n      SWAP1 \t\t\t\n      POP \t\t\t\n      JUMP \t\t\t\n    tag 110\t\t\t\n      JUMPDEST \t\t\t\n      PUSH [tag] 213\t\t\t\n      DUP2 \t\t\t\n      PUSH [tag] 109\t\t\t\n      JUMP \t\t\t\n    tag 213\t\t\t\n      JUMPDEST \t\t\t\n      DUP2 \t\t\t\n      EQ \t\t\t\n      PUSH [tag] 214\t\t\t\n      JUMPI \t\t\t\n      PUSH 0\t\t\t\n      DUP1 \t\t\t\n      REVERT \t\t\t\n    tag 214\t\t\t\n      JUMPDEST \t\t\t\n      POP \t\t\t\n      JUMP \t\t\t\n    tag 111\t\t\t\n      JUMPDEST \t\t\t\n      PUSH 0\t\t\t\n      DUP2 \t\t\t\n      CALLDATALOAD \t\t\t\n      SWAP1 \t\t\t\n      POP \t\t\t\n      PUSH [tag] 216\t\t\t\n      DUP2 \t\t\t\n      PUSH [tag] 110\t\t\t\n      JUMP \t\t\t\n    tag 216\t\t\t\n      JUMPDEST \t\t\t\n      SWAP3 \t\t\t\n      SWAP2 \t\t\t\n      POP \t\t\t\n      POP \t\t\t\n      JUMP \t\t\t\n    tag 14\t\t\t\n      JUMPDEST \t\t\t\n      PUSH 0\t\t\t\n      PUSH 20\t\t\t\n      DUP3 \t\t\t\n      DUP5 \t\t\t\n      SUB \t\t\t\n      SLT \t\t\t\n      ISZERO \t\t\t\n      PUSH [tag] 218\t\t\t\n      JUMPI \t\t\t\n      PUSH [tag] 219\t\t\t\n      PUSH [tag] 90\t\t\t\n      JUMP \t\t\t\n    tag 219\t\t\t\n      JUMPDEST \t\t\t\n    tag 218\t\t\t\n      JUMPDEST \t\t\t\n      PUSH 0\t\t\t\n      PUSH [tag] 220\t\t\t\n      DUP5 \t\t\t\n      DUP3 \t\t\t\n      DUP6 \t\t\t\n      ADD \t\t\t\n      PUSH [tag] 111\t\t\t\n      JUMP \t\t\t\n    tag 220\t\t\t\n      JUMPDEST \t\t\t\n      SWAP2 \t\t\t\n      POP \t\t\t\n      POP \t\t\t\n      SWAP3 \t\t\t\n      SWAP2 \t\t\t\n      POP \t\t\t\n      POP \t\t\t\n      JUMP \t\t\t\n    tag 112\t\t\t\n      JUMPDEST \t\t\t\n      PUSH 0\t\t\t\n      DUP2 \t\t\t\n      ISZERO \t\t\t\n      ISZERO \t\t\t\n      SWAP1 \t\t\t\n      POP \t\t\t\n      SWAP2 \t\t\t\n      SWAP1 \t\t\t\n      POP \t\t\t\n      JUMP \t\t\t\n    tag 113\t\t\t\n      JUMPDEST \t\t\t\n      PUSH [tag] 223\t\t\t\n      DUP2 \t\t\t\n      PUSH [tag] 112\t\t\t\n      JUMP \t\t\t\n    tag 223\t\t\t\n      JUMPDEST \t\t\t\n      DUP3 \t\t\t\n      MSTORE \t\t\t\n      POP \t\t\t\n      POP \t\t\t\n      JUMP \t\t\t\n    tag 17\t\t\t\n      JUMPDEST \t\t\t\n      PUSH 0\t\t\t\n      PUSH 20\t\t\t\n      DUP3 \t\t\t\n      ADD \t\t\t\n      SWAP1 \t\t\t\n      POP \t\t\t\n      PUSH [tag] 225\t\t\t\n      PUSH 0\t\t\t\n      DUP4 \t\t\t\n      ADD \t\t\t\n      DUP5 \t\t\t\n      PUSH [tag] 113\t\t\t\n      JUMP \t\t\t\n    tag 225\t\t\t\n      JUMPDEST \t\t\t\n      SWAP3 \t\t\t\n      SWAP2 \t\t\t\n      POP \t\t\t\n      POP \t\t\t\n      JUMP \t\t\t\n    tag 20\t\t\t\n      JUMPDEST \t\t\t\n      PUSH 0\t\t\t\n      DUP1 \t\t\t\n      PUSH 0\t\t\t\n      DUP1 \t\t\t\n      PUSH 0\t\t\t\n      PUSH A0\t\t\t\n      DUP7 \t\t\t\n      DUP9 \t\t\t\n      SUB \t\t\t\n      SLT \t\t\t\n      ISZERO \t\t\t\n      PUSH [tag] 227\t\t\t\n      JUMPI \t\t\t\n      PUSH [tag] 228\t\t\t\n      PUSH [tag] 90\t\t\t\n      JUMP \t\t\t\n    tag 228\t\t\t\n      JUMPDEST \t\t\t\n    tag 227\t\t\t\n      JUMPDEST \t\t\t\n      PUSH 0\t\t\t\n      DUP7 \t\t\t\n      ADD \t\t\t\n      CALLDATALOAD \t\t\t\n      PUSH FFFFFFFFFFFFFFFF\t\t\t\n      DUP2 \t\t\t\n      GT \t\t\t\n      ISZERO \t\t\t\n      PUSH [tag] 229\t\t\t\n      JUMPI \t\t\t\n      PUSH [tag] 230\t\t\t\n      PUSH [tag] 91\t\t\t\n      JUMP \t\t\t\n    tag 230\t\t\t\n      JUMPDEST \t\t\t\n    tag 229\t\t\t\n      JUMPDEST \t\t\t\n      PUSH [tag] 231\t\t\t\n      DUP9 \t\t\t\n      DUP3 \t\t\t\n      DUP10 \t\t\t\n      ADD \t\t\t\n      PUSH [tag] 108\t\t\t\n      JUMP \t\t\t\n    tag 231\t\t\t\n      JUMPDEST \t\t\t\n      SWAP6 \t\t\t\n      POP \t\t\t\n      POP \t\t\t\n      PUSH 20\t\t\t\n      DUP7 \t\t\t\n      ADD \t\t\t\n      CALLDATALOAD \t\t\t\n      PUSH FFFFFFFFFFFFFFFF\t\t\t\n      DUP2 \t\t\t\n      GT \t\t\t\n      ISZERO \t\t\t\n      PUSH [tag] 232\t\t\t\n      JUMPI \t\t\t\n      PUSH [tag] 233\t\t\t\n      PUSH [tag] 91\t\t\t\n      JUMP \t\t\t\n    tag 233\t\t\t\n      JUMPDEST \t\t\t\n    tag 232\t\t\t\n      JUMPDEST \t\t\t\n      PUSH [tag] 234\t\t\t\n      DUP9 \t\t\t\n      DUP3 \t\t\t\n      DUP10 \t\t\t\n      ADD \t\t\t\n      PUSH [tag] 108\t\t\t\n      JUMP \t\t\t\n    tag 234\t\t\t\n      JUMPDEST \t\t\t\n      SWAP5 \t\t\t\n      POP \t\t\t\n      POP \t\t\t\n      PUSH 40\t\t\t\n      DUP7 \t\t\t\n      ADD \t\t\t\n      CALLDATALOAD \t\t\t\n      PUSH FFFFFFFFFFFFFFFF\t\t\t\n      DUP2 \t\t\t\n      GT \t\t\t\n      ISZERO \t\t\t\n      PUSH [tag] 235\t\t\t\n      JUMPI \t\t\t\n      PUSH [tag] 236\t\t\t\n      PUSH [tag] 91\t\t\t\n      JUMP \t\t\t\n    tag 236\t\t\t\n      JUMPDEST \t\t\t\n    tag 235\t\t\t\n      JUMPDEST \t\t\t\n      PUSH [tag] 237\t\t\t\n      DUP9 \t\t\t\n      DUP3 \t\t\t\n      DUP10 \t\t\t\n      ADD \t\t\t\n      PUSH [tag] 108\t\t\t\n      JUMP \t\t\t\n    tag 237\t\t\t\n      JUMPDEST \t\t\t\n      SWAP4 \t\t\t\n      POP \t\t\t\n      POP \t\t\t\n      PUSH 60\t\t\t\n      PUSH [tag] 238\t\t\t\n      DUP9 \t\t\t\n      DUP3 \t\t\t\n      DUP10 \t\t\t\n      ADD \t\t\t\n      PUSH [tag] 98\t\t\t\n      JUMP \t\t\t\n    tag 238\t\t\t\n      JUMPDEST \t\t\t\n      SWAP3 \t\t\t\n      POP \t\t\t\n      POP \t\t\t\n      PUSH 80\t\t\t\n      DUP7 \t\t\t\n      ADD \t\t\t\n      CALLDATALOAD \t\t\t\n      PUSH FFFFFFFFFFFFFFFF\t\t\t\n      DUP2 \t\t\t\n      GT \t\t\t\n      ISZERO \t\t\t\n      PUSH [tag] 239\t\t\t\n      JUMPI \t\t\t\n      PUSH [tag] 240\t\t\t\n      PUSH [tag] 91\t\t\t\n      JUMP \t\t\t\n    tag 240\t\t\t\n      JUMPDEST \t\t\t\n    tag 239\t\t\t\n      JUMPDEST \t\t\t\n      PUSH [tag] 241\t\t\t\n      DUP9 \t\t\t\n      DUP3 \t\t\t\n      DUP10 \t\t\t\n      ADD \t\t\t\n      PUSH [tag] 108\t\t\t\n      JUMP \t\t\t\n    tag 241\t\t\t\n      JUMPDEST \t\t\t\n      SWAP2 \t\t\t\n      POP \t\t\t\n      POP \t\t\t\n      SWAP3 \t\t\t\n      SWAP6 \t\t\t\n      POP \t\t\t\n      SWAP3 \t\t\t\n      SWAP6 \t\t\t\n      SWAP1 \t\t\t\n      SWAP4 \t\t\t\n      POP \t\t\t\n      JUMP \t\t\t\n    tag 114\t\t\t\n      JUMPDEST \t\t\t\n      PUSH 0\t\t\t\n      DUP3 \t\t\t\n      DUP3 \t\t\t\n      MSTORE \t\t\t\n      PUSH 20\t\t\t\n      DUP3 \t\t\t\n      ADD \t\t\t\n      SWAP1 \t\t\t\n      POP \t\t\t\n      SWAP3 \t\t\t\n      SWAP2 \t\t\t\n      POP \t\t\t\n      POP \t\t\t\n      JUMP \t\t\t\n    tag 115\t\t\t\n      JUMPDEST \t\t\t\n      PUSH 596F75206E65656420746F2063726561746520612077696C6C20666972737400\t\t\t\n      PUSH 0\t\t\t\n      DUP3 \t\t\t\n      ADD \t\t\t\n      MSTORE \t\t\t\n      POP \t\t\t\n      JUMP \t\t\t\n    tag 116\t\t\t\n      JUMPDEST \t\t\t\n      PUSH 0\t\t\t\n      PUSH [tag] 245\t\t\t\n      PUSH 1F\t\t\t\n      DUP4 \t\t\t\n      PUSH [tag] 114\t\t\t\n      JUMP \t\t\t\n    tag 245\t\t\t\n      JUMPDEST \t\t\t\n      SWAP2 \t\t\t\n      POP \t\t\t\n      PUSH [tag] 246\t\t\t\n      DUP3 \t\t\t\n      PUSH [tag] 115\t\t\t\n      JUMP \t\t\t\n    tag 246\t\t\t\n      JUMPDEST \t\t\t\n      PUSH 20\t\t\t\n      DUP3 \t\t\t\n      ADD \t\t\t\n      SWAP1 \t\t\t\n      POP \t\t\t\n      SWAP2 \t\t\t\n      SWAP1 \t\t\t\n      POP \t\t\t\n      JUMP \t\t\t\n    tag 29\t\t\t\n      JUMPDEST \t\t\t\n      PUSH 0\t\t\t\n      PUSH 20\t\t\t\n      DUP3 \t\t\t\n      ADD \t\t\t\n      SWAP1 \t\t\t\n      POP \t\t\t\n      DUP2 \t\t\t\n      DUP2 \t\t\t\n      SUB \t\t\t\n      PUSH 0\t\t\t\n      DUP4 \t\t\t\n      ADD \t\t\t\n      MSTORE \t\t\t\n      PUSH [tag] 248\t\t\t\n      DUP2 \t\t\t\n      PUSH [tag] 116\t\t\t\n      JUMP \t\t\t\n    tag 248\t\t\t\n      JUMPDEST \t\t\t\n      SWAP1 \t\t\t\n      POP \t\t\t\n      SWAP2 \t\t\t\n      SWAP1 \t\t\t\n      POP \t\t\t\n      JUMP \t\t\t\n    tag 117\t\t\t\n      JUMPDEST \t\t\t\n      PUSH 496E76616C69642070657263656E746167650000000000000000000000000000\t\t\t\n      PUSH 0\t\t\t\n      DUP3 \t\t\t\n      ADD \t\t\t\n      MSTORE \t\t\t\n      POP \t\t\t\n      JUMP \t\t\t\n    tag 118\t\t\t\n      JUMPDEST \t\t\t\n      PUSH 0\t\t\t\n      PUSH [tag] 251\t\t\t\n      PUSH 12\t\t\t\n      DUP4 \t\t\t\n      PUSH [tag] 114\t\t\t\n      JUMP \t\t\t\n    tag 251\t\t\t\n      JUMPDEST \t\t\t\n      SWAP2 \t\t\t\n      POP \t\t\t\n      PUSH [tag] 252\t\t\t\n      DUP3 \t\t\t\n      PUSH [tag] 117\t\t\t\n      JUMP \t\t\t\n    tag 252\t\t\t\n      JUMPDEST \t\t\t\n      PUSH 20\t\t\t\n      DUP3 \t\t\t\n      ADD \t\t\t\n      SWAP1 \t\t\t\n      POP \t\t\t\n      SWAP2 \t\t\t\n      SWAP1 \t\t\t\n      POP \t\t\t\n      JUMP \t\t\t\n    tag 33\t\t\t\n      JUMPDEST \t\t\t\n      PUSH 0\t\t\t\n      PUSH 20\t\t\t\n      DUP3 \t\t\t\n      ADD \t\t\t\n      SWAP1 \t\t\t\n      POP \t\t\t\n      DUP2 \t\t\t\n      DUP2 \t\t\t\n      SUB \t\t\t\n      PUSH 0\t\t\t\n      DUP4 \t\t\t\n      ADD \t\t\t\n      MSTORE \t\t\t\n      PUSH [tag] 254\t\t\t\n      DUP2 \t\t\t\n      PUSH [tag] 118\t\t\t\n      JUMP \t\t\t\n    tag 254\t\t\t\n      JUMPDEST \t\t\t\n      SWAP1 \t\t\t\n      POP \t\t\t\n      SWAP2 \t\t\t\n      SWAP1 \t\t\t\n      POP \t\t\t\n      JUMP \t\t\t\n    tag 39\t\t\t\n      JUMPDEST \t\t\t\n      PUSH 4E487B7100000000000000000000000000000000000000000000000000000000\t\t\t\n      PUSH 0\t\t\t\n      MSTORE \t\t\t\n      PUSH 32\t\t\t\n      PUSH 4\t\t\t\n      MSTORE \t\t\t\n      PUSH 24\t\t\t\n      PUSH 0\t\t\t\n      REVERT \t\t\t\n    tag 119\t\t\t\n      JUMPDEST \t\t\t\n      PUSH 4E487B7100000000000000000000000000000000000000000000000000000000\t\t\t\n      PUSH 0\t\t\t\n      MSTORE \t\t\t\n      PUSH 11\t\t\t\n      PUSH 4\t\t\t\n      MSTORE \t\t\t\n      PUSH 24\t\t\t\n      PUSH 0\t\t\t\n      REVERT \t\t\t\n    tag 42\t\t\t\n      JUMPDEST \t\t\t\n      PUSH 0\t\t\t\n      PUSH [tag] 258\t\t\t\n      DUP3 \t\t\t\n      PUSH [tag] 96\t\t\t\n      JUMP \t\t\t\n    tag 258\t\t\t\n      JUMPDEST \t\t\t\n      SWAP2 \t\t\t\n      POP \t\t\t\n      PUSH [tag] 259\t\t\t\n      DUP4 \t\t\t\n      PUSH [tag] 96\t\t\t\n      JUMP \t\t\t\n    tag 259\t\t\t\n      JUMPDEST \t\t\t\n      SWAP3 \t\t\t\n      POP \t\t\t\n      DUP3 \t\t\t\n      DUP3 \t\t\t\n      ADD \t\t\t\n      SWAP1 \t\t\t\n      POP \t\t\t\n      DUP1 \t\t\t\n      DUP3 \t\t\t\n      GT \t\t\t\n      ISZERO \t\t\t\n      PUSH [tag] 260\t\t\t\n      JUMPI \t\t\t\n      PUSH [tag] 261\t\t\t\n      PUSH [tag] 119\t\t\t\n      JUMP \t\t\t\n    tag 261\t\t\t\n      JUMPDEST \t\t\t\n    tag 260\t\t\t\n      JUMPDEST \t\t\t\n      SWAP3 \t\t\t\n      SWAP2 \t\t\t\n      POP \t\t\t\n      POP \t\t\t\n      JUMP \t\t\t\n    tag 120\t\t\t\n      JUMPDEST \t\t\t\n      PUSH 546F74616C20616C6C6F636174696F6E20657863656564732031303025000000\t\t\t\n      PUSH 0\t\t\t\n      DUP3 \t\t\t\n      ADD \t\t\t\n      MSTORE \t\t\t\n      POP \t\t\t\n      JUMP \t\t\t\n    tag 121\t\t\t\n      JUMPDEST \t\t\t\n      PUSH 0\t\t\t\n      PUSH [tag] 264\t\t\t\n      PUSH 1D\t\t\t\n      DUP4 \t\t\t\n      PUSH [tag] 114\t\t\t\n      JUMP \t\t\t\n    tag 264\t\t\t\n      JUMPDEST \t\t\t\n      SWAP2 \t\t\t\n      POP \t\t\t\n      PUSH [tag] 265\t\t\t\n      DUP3 \t\t\t\n      PUSH [tag] 120\t\t\t\n      JUMP \t\t\t\n    tag 265\t\t\t\n      JUMPDEST \t\t\t\n      PUSH 20\t\t\t\n      DUP3 \t\t\t\n      ADD \t\t\t\n      SWAP1 \t\t\t\n      POP \t\t\t\n      SWAP2 \t\t\t\n      SWAP1 \t\t\t\n      POP \t\t\t\n      JUMP \t\t\t\n    tag 46\t\t\t\n      JUMPDEST \t\t\t\n      PUSH 0\t\t\t\n      PUSH 20\t\t\t\n      DUP3 \t\t\t\n      ADD \t\t\t\n      SWAP1 \t\t\t\n      POP \t\t\t\n      DUP2 \t\t\t\n      DUP2 \t\t\t\n      SUB \t\t\t\n      PUSH 0\t\t\t\n      DUP4 \t\t\t\n      ADD \t\t\t\n      MSTORE \t\t\t\n      PUSH [tag] 267\t\t\t\n      DUP2 \t\t\t\n      PUSH [tag] 121\t\t\t\n      JUMP \t\t\t\n    tag 267\t\t\t\n      JUMPDEST \t\t\t\n      SWAP1 \t\t\t\n      POP \t\t\t\n      SWAP2 \t\t\t\n      SWAP1 \t\t\t\n      POP \t\t\t\n      JUMP \t\t\t\n    tag 122\t\t\t\n      JUMPDEST \t\t\t\n      PUSH 0\t\t\t\n      DUP2 \t\t\t\n      MLOAD \t\t\t\n      SWAP1 \t\t\t\n      POP \t\t\t\n      SWAP2 \t\t\t\n      SWAP1 \t\t\t\n      POP \t\t\t\n      JUMP \t\t\t\n    tag 123\t\t\t\n      JUMPDEST \t\t\t\n      PUSH 4E487B7100000000000000000000000000000000000000000000000000000000\t\t\t\n      PUSH 0\t\t\t\n      MSTORE \t\t\t\n      PUSH 22\t\t\t\n      PUSH 4\t\t\t\n      MSTORE \t\t\t\n      PUSH 24\t\t\t\n      PUSH 0\t\t\t\n      REVERT \t\t\t\n    tag 124\t\t\t\n      JUMPDEST \t\t\t\n      PUSH 0\t\t\t\n      PUSH 2\t\t\t\n      DUP3 \t\t\t\n      DIV \t\t\t\n      SWAP1 \t\t\t\n      POP \t\t\t\n      PUSH 1\t\t\t\n      DUP3 \t\t\t\n      AND \t\t\t\n      DUP1 \t\t\t\n      PUSH [tag] 271\t\t\t\n      JUMPI \t\t\t\n      PUSH 7F\t\t\t\n      DUP3 \t\t\t\n      AND \t\t\t\n      SWAP2 \t\t\t\n      POP \t\t\t\n    tag 271\t\t\t\n      JUMPDEST \t\t\t\n      PUSH 20\t\t\t\n      DUP3 \t\t\t\n      LT \t\t\t\n      DUP2 \t\t\t\n      SUB \t\t\t\n      PUSH [tag] 272\t\t\t\n      JUMPI \t\t\t\n      PUSH [tag] 273\t\t\t\n      PUSH [tag] 123\t\t\t\n      JUMP \t\t\t\n    tag 273\t\t\t\n      JUMPDEST \t\t\t\n    tag 272\t\t\t\n      JUMPDEST \t\t\t\n      POP \t\t\t\n      SWAP2 \t\t\t\n      SWAP1 \t\t\t\n      POP \t\t\t\n      JUMP \t\t\t\n    tag 125\t\t\t\n      JUMPDEST \t\t\t\n      PUSH 0\t\t\t\n      DUP2 \t\t\t\n      SWAP1 \t\t\t\n      POP \t\t\t\n      DUP2 \t\t\t\n      PUSH 0\t\t\t\n      MSTORE \t\t\t\n      PUSH 20\t\t\t\n      PUSH 0\t\t\t\n      KECCAK256 \t\t\t\n      SWAP1 \t\t\t\n      POP \t\t\t\n      SWAP2 \t\t\t\n      SWAP1 \t\t\t\n      POP \t\t\t\n      JUMP \t\t\t\n    tag 126\t\t\t\n      JUMPDEST \t\t\t\n      PUSH 0\t\t\t\n      PUSH 20\t\t\t\n      PUSH 1F\t\t\t\n      DUP4 \t\t\t\n      ADD \t\t\t\n      DIV \t\t\t\n      SWAP1 \t\t\t\n      POP \t\t\t\n      SWAP2 \t\t\t\n      SWAP1 \t\t\t\n      POP \t\t\t\n      JUMP \t\t\t\n    tag 127\t\t\t\n      JUMPDEST \t\t\t\n      PUSH 0\t\t\t\n      DUP3 \t\t\t\n      DUP3 \t\t\t\n      SHL \t\t\t\n      SWAP1 \t\t\t\n      POP \t\t\t\n      SWAP3 \t\t\t\n      SWAP2 \t\t\t\n      POP \t\t\t\n      POP \t\t\t\n      JUMP \t\t\t\n    tag 128\t\t\t\n      JUMPDEST \t\t\t\n      PUSH 0\t\t\t\n      PUSH 8\t\t\t\n      DUP4 \t\t\t\n      MUL \t\t\t\n      PUSH [tag] 278\t\t\t\n      PUSH FFFFFFFFFFFFFFFFFFFFFFFFFFFFFFFFFFFFFFFFFFFFFFFFFFFFFFFFFFFFFFFF\t\t\t\n      DUP3 \t\t\t\n      PUSH [tag] 127\t\t\t\n      JUMP \t\t\t\n    tag 278\t\t\t\n      JUMPDEST \t\t\t\n      PUSH [tag] 279\t\t\t\n      DUP7 \t\t\t\n      DUP4 \t\t\t\n      PUSH [tag] 127\t\t\t\n      JUMP \t\t\t\n    tag 279\t\t\t\n      JUMPDEST \t\t\t\n      SWAP6 \t\t\t\n      POP \t\t\t\n      DUP1 \t\t\t\n      NOT \t\t\t\n      DUP5 \t\t\t\n      AND \t\t\t\n      SWAP4 \t\t\t\n      POP \t\t\t\n      DUP1 \t\t\t\n      DUP7 \t\t\t\n      AND \t\t\t\n      DUP5 \t\t\t\n      OR \t\t\t\n      SWAP3 \t\t\t\n      POP \t\t\t\n      POP \t\t\t\n      POP \t\t\t\n      SWAP4 \t\t\t\n      SWAP3 \t\t\t\n      POP \t\t\t\n      POP \t\t\t\n      POP \t\t\t\n      JUMP \t\t\t\n    tag 129\t\t\t\n      JUMPDEST \t\t\t\n      PUSH 0\t\t\t\n      DUP2 \t\t\t\n      SWAP1 \t\t\t\n      POP \t\t\t\n      SWAP2 \t\t\t\n      SWAP1 \t\t\t\n      POP \t\t\t\n      JUMP \t\t\t\n    tag 130\t\t\t\n      JUMPDEST \t\t\t\n      PUSH 0\t\t\t\n      PUSH [tag] 282\t\t\t\n      PUSH [tag] 283\t\t\t\n      PUSH [tag] 284\t\t\t\n      DUP5 \t\t\t\n      PUSH [tag] 96\t\t\t\n      JUMP \t\t\t\n    tag 284\t\t\t\n      JUMPDEST \t\t\t\n      PUSH [tag] 129\t\t\t\n      JUMP \t\t\t\n    tag 283\t\t\t\n      JUMPDEST \t\t\t\n      PUSH [tag] 96\t\t\t\n      JUMP \t\t\t\n    tag 282\t\t\t\n      JUMPDEST \t\t\t\n      SWAP1 \t\t\t\n      POP \t\t\t\n      SWAP2 \t\t\t\n      SWAP1 \t\t\t\n      POP \t\t\t\n      JUMP \t\t\t\n    tag 131\t\t\t\n      JUMPDEST \t\t\t\n      PUSH 0\t\t\t\n      DUP2 \t\t\t\n      SWAP1 \t\t\t\n      POP \t\t\t\n      SWAP2 \t\t\t\n      SWAP1 \t\t\t\n      POP \t\t\t\n      JUMP \t\t\t\n    tag 132\t\t\t\n      JUMPDEST \t\t\t\n      PUSH [tag] 287\t\t\t\n      DUP4 \t\t\t\n      PUSH [tag] 130\t\t\t\n      JUMP \t\t\t\n    tag 287\t\t\t\n      JUMPDEST \t\t\t\n      PUSH [tag] 288\t\t\t\n      PUSH [tag] 289\t\t\t\n      DUP3 \t\t\t\n      PUSH [tag] 131\t\t\t\n      JUMP \t\t\t\n    tag 289\t\t\t\n      JUMPDEST \t\t\t\n      DUP5 \t\t\t\n      DUP5 \t\t\t\n      SLOAD \t\t\t\n      PUSH [tag] 128\t\t\t\n      JUMP \t\t\t\n    tag 288\t\t\t\n      JUMPDEST \t\t\t\n      DUP3 \t\t\t\n      SSTORE \t\t\t\n      POP \t\t\t\n      POP \t\t\t\n      POP \t\t\t\n      POP \t\t\t\n      JUMP \t\t\t\n    tag 133\t\t\t\n      JUMPDEST \t\t\t\n      PUSH 0\t\t\t\n      SWAP1 \t\t\t\n      JUMP \t\t\t\n    tag 134\t\t\t\n      JUMPDEST \t\t\t\n      PUSH [tag] 292\t\t\t\n      PUSH [tag] 133\t\t\t\n      JUMP \t\t\t\n    tag 292\t\t\t\n      JUMPDEST \t\t\t\n      PUSH [tag] 293\t\t\t\n      DUP2 \t\t\t\n      DUP5 \t\t\t\n      DUP5 \t\t\t\n      PUSH [tag] 132\t\t\t\n      JUMP \t\t\t\n    tag 293\t\t\t\n      JUMPDEST \t\t\t\n      POP \t\t\t\n      POP \t\t\t\n      POP \t\t\t\n      JUMP \t\t\t\n    tag 135\t\t\t\n      JUMPDEST \t\t\t\n    tag 295\t\t\t\n      JUMPDEST \t\t\t\n      DUP2 \t\t\t\n      DUP2 \t\t\t\n      LT \t\t\t\n      ISZERO \t\t\t\n      PUSH [tag] 297\t\t\t\n      JUMPI \t\t\t\n      PUSH [tag] 298\t\t\t\n      PUSH 0\t\t\t\n      DUP3 \t\t\t\n      PUSH [tag] 134\t\t\t\n      JUMP \t\t\t\n    tag 298\t\t\t\n      JUMPDEST \t\t\t\n      PUSH 1\t\t\t\n      DUP2 \t\t\t\n      ADD \t\t\t\n      SWAP1 \t\t\t\n      POP \t\t\t\n      PUSH [tag] 295\t\t\t\n      JUMP \t\t\t\n    tag 297\t\t\t\n      JUMPDEST \t\t\t\n      POP \t\t\t\n      POP \t\t\t\n      JUMP \t\t\t\n    tag 136\t\t\t\n      JUMPDEST \t\t\t\n      PUSH 1F\t\t\t\n      DUP3 \t\t\t\n      GT \t\t\t\n      ISZERO \t\t\t\n      PUSH [tag] 300\t\t\t\n      JUMPI \t\t\t\n      PUSH [tag] 301\t\t\t\n      DUP2 \t\t\t\n      PUSH [tag] 125\t\t\t\n      JUMP \t\t\t\n    tag 301\t\t\t\n      JUMPDEST \t\t\t\n      PUSH [tag] 302\t\t\t\n      DUP5 \t\t\t\n      PUSH [tag] 126\t\t\t\n      JUMP \t\t\t\n    tag 302\t\t\t\n      JUMPDEST \t\t\t\n      DUP2 \t\t\t\n      ADD \t\t\t\n      PUSH 20\t\t\t\n      DUP6 \t\t\t\n      LT \t\t\t\n      ISZERO \t\t\t\n      PUSH [tag] 303\t\t\t\n      JUMPI \t\t\t\n      DUP2 \t\t\t\n      SWAP1 \t\t\t\n      POP \t\t\t\n    tag 303\t\t\t\n      JUMPDEST \t\t\t\n      PUSH [tag] 304\t\t\t\n      PUSH [tag] 305\t\t\t\n      DUP6 \t\t\t\n      PUSH [tag] 126\t\t\t\n      JUMP \t\t\t\n    tag 305\t\t\t\n      JUMPDEST \t\t\t\n      DUP4 \t\t\t\n      ADD \t\t\t\n      DUP3 \t\t\t\n      PUSH [tag] 135\t\t\t\n      JUMP \t\t\t\n    tag 304\t\t\t\n      JUMPDEST \t\t\t\n      POP \t\t\t\n      POP \t\t\t\n    tag 300\t\t\t\n      JUMPDEST \t\t\t\n      POP \t\t\t\n      POP \t\t\t\n      POP \t\t\t\n      JUMP \t\t\t\n    tag 137\t\t\t\n      JUMPDEST \t\t\t\n      PUSH 0\t\t\t\n      DUP3 \t\t\t\n      DUP3 \t\t\t\n      SHR \t\t\t\n      SWAP1 \t\t\t\n      POP \t\t\t\n      SWAP3 \t\t\t\n      SWAP2 \t\t\t\n      POP \t\t\t\n      POP \t\t\t\n      JUMP \t\t\t\n    tag 138\t\t\t\n      JUMPDEST \t\t\t\n      PUSH 0\t\t\t\n      PUSH [tag] 308\t\t\t\n      PUSH 0\t\t\t\n      NOT \t\t\t\n      DUP5 \t\t\t\n      PUSH 8\t\t\t\n      MUL \t\t\t\n      PUSH [tag] 137\t\t\t\n      JUMP \t\t\t\n    tag 308\t\t\t\n      JUMPDEST \t\t\t\n      NOT \t\t\t\n      DUP1 \t\t\t\n      DUP4 \t\t\t\n      AND \t\t\t\n      SWAP2 \t\t\t\n      POP \t\t\t\n      POP \t\t\t\n      SWAP3 \t\t\t\n      SWAP2 \t\t\t\n      POP \t\t\t\n      POP \t\t\t\n      JUMP \t\t\t\n    tag 139\t\t\t\n      JUMPDEST \t\t\t\n      PUSH 0\t\t\t\n      PUSH [tag] 310\t\t\t\n      DUP4 \t\t\t\n      DUP4 \t\t\t\n      PUSH [tag] 138\t\t\t\n      JUMP \t\t\t\n    tag 310\t\t\t\n      JUMPDEST \t\t\t\n      SWAP2 \t\t\t\n      POP \t\t\t\n      DUP3 \t\t\t\n      PUSH 2\t\t\t\n      MUL \t\t\t\n      DUP3 \t\t\t\n      OR \t\t\t\n      SWAP1 \t\t\t\n      POP \t\t\t\n      SWAP3 \t\t\t\n      SWAP2 \t\t\t\n      POP \t\t\t\n      POP \t\t\t\n      JUMP \t\t\t\n    tag 49\t\t\t\n      JUMPDEST \t\t\t\n      PUSH [tag] 312\t\t\t\n      DUP3 \t\t\t\n      PUSH [tag] 122\t\t\t\n      JUMP \t\t\t\n    tag 312\t\t\t\n      JUMPDEST \t\t\t\n      PUSH FFFFFFFFFFFFFFFF\t\t\t\n      DUP2 \t\t\t\n      GT \t\t\t\n      ISZERO \t\t\t\n      PUSH [tag] 313\t\t\t\n      JUMPI \t\t\t\n      PUSH [tag] 314\t\t\t\n      PUSH [tag] 102\t\t\t\n      JUMP \t\t\t\n    tag 314\t\t\t\n      JUMPDEST \t\t\t\n    tag 313\t\t\t\n      JUMPDEST \t\t\t\n      PUSH [tag] 315\t\t\t\n      DUP3 \t\t\t\n      SLOAD \t\t\t\n      PUSH [tag] 124\t\t\t\n      JUMP \t\t\t\n    tag 315\t\t\t\n      JUMPDEST \t\t\t\n      PUSH [tag] 316\t\t\t\n      DUP3 \t\t\t\n      DUP3 \t\t\t\n      DUP6 \t\t\t\n      PUSH [tag] 136\t\t\t\n      JUMP \t\t\t\n    tag 316\t\t\t\n      JUMPDEST \t\t\t\n      PUSH 0\t\t\t\n      PUSH 20\t\t\t\n      SWAP1 \t\t\t\n      POP \t\t\t\n      PUSH 1F\t\t\t\n      DUP4 \t\t\t\n      GT \t\t\t\n      PUSH 1\t\t\t\n      DUP2 \t\t\t\n      EQ \t\t\t\n      PUSH [tag] 318\t\t\t\n      JUMPI \t\t\t\n      PUSH 0\t\t\t\n      DUP5 \t\t\t\n      ISZERO \t\t\t\n      PUSH [tag] 319\t\t\t\n      JUMPI \t\t\t\n      DUP3 \t\t\t\n      DUP8 \t\t\t\n      ADD \t\t\t\n      MLOAD \t\t\t\n      SWAP1 \t\t\t\n      POP \t\t\t\n    tag 319\t\t\t\n      JUMPDEST \t\t\t\n      PUSH [tag] 320\t\t\t\n      DUP6 \t\t\t\n      DUP3 \t\t\t\n      PUSH [tag] 139\t\t\t\n      JUMP \t\t\t\n    tag 320\t\t\t\n      JUMPDEST \t\t\t\n      DUP7 \t\t\t\n      SSTORE \t\t\t\n      POP \t\t\t\n      PUSH [tag] 317\t\t\t\n      JUMP \t\t\t\n    tag 318\t\t\t\n      JUMPDEST \t\t\t\n      PUSH 1F\t\t\t\n      NOT \t\t\t\n      DUP5 \t\t\t\n      AND \t\t\t\n      PUSH [tag] 321\t\t\t\n      DUP7 \t\t\t\n      PUSH [tag] 125\t\t\t\n      JUMP \t\t\t\n    tag 321\t\t\t\n      JUMPDEST \t\t\t\n      PUSH 0\t\t\t\n    tag 322\t\t\t\n      JUMPDEST \t\t\t\n      DUP3 \t\t\t\n      DUP2 \t\t\t\n      LT \t\t\t\n      ISZERO \t\t\t\n      PUSH [tag] 324\t\t\t\n      JUMPI \t\t\t\n      DUP5 \t\t\t\n      DUP10 \t\t\t\n      ADD \t\t\t\n      MLOAD \t\t\t\n      DUP3 \t\t\t\n      SSTORE \t\t\t\n      PUSH 1\t\t\t\n      DUP3 \t\t\t\n      ADD \t\t\t\n      SWAP2 \t\t\t\n      POP \t\t\t\n      PUSH 20\t\t\t\n      DUP6 \t\t\t\n      ADD \t\t\t\n      SWAP5 \t\t\t\n      POP \t\t\t\n      PUSH 20\t\t\t\n      DUP2 \t\t\t\n      ADD \t\t\t\n      SWAP1 \t\t\t\n      POP \t\t\t\n      PUSH [tag] 322\t\t\t\n      JUMP \t\t\t\n    tag 324\t\t\t\n      JUMPDEST \t\t\t\n      DUP7 \t\t\t\n      DUP4 \t\t\t\n      LT \t\t\t\n      ISZERO \t\t\t\n      PUSH [tag] 325\t\t\t\n      JUMPI \t\t\t\n      DUP5 \t\t\t\n      DUP10 \t\t\t\n      ADD \t\t\t\n      MLOAD \t\t\t\n      PUSH [tag] 326\t\t\t\n      PUSH 1F\t\t\t\n      DUP10 \t\t\t\n      AND \t\t\t\n      DUP3 \t\t\t\n      PUSH [tag] 138\t\t\t\n      JUMP \t\t\t\n    tag 326\t\t\t\n      JUMPDEST \t\t\t\n      DUP4 \t\t\t\n      SSTORE \t\t\t\n      POP \t\t\t\n    tag 325\t\t\t\n      JUMPDEST \t\t\t\n      PUSH 1\t\t\t\n      PUSH 2\t\t\t\n      DUP9 \t\t\t\n      MUL \t\t\t\n      ADD \t\t\t\n      DUP9 \t\t\t\n      SSTORE \t\t\t\n      POP \t\t\t\n      POP \t\t\t\n      POP \t\t\t\n    tag 317\t\t\t\n      JUMPDEST \t\t\t\n      POP \t\t\t\n      POP \t\t\t\n      POP \t\t\t\n      POP \t\t\t\n      POP \t\t\t\n      POP \t\t\t\n      JUMP \t\t\t\n    tag 140\t\t\t\n      JUMPDEST \t\t\t\n      PUSH 596F7520616C7265616479206861766520612077696C6C210000000000000000\t\t\t\n      PUSH 0\t\t\t\n      DUP3 \t\t\t\n      ADD \t\t\t\n      MSTORE \t\t\t\n      POP \t\t\t\n      JUMP \t\t\t\n    tag 141\t\t\t\n      JUMPDEST \t\t\t\n      PUSH 0\t\t\t\n      PUSH [tag] 329\t\t\t\n      PUSH 18\t\t\t\n      DUP4 \t\t\t\n      PUSH [tag] 114\t\t\t\n      JUMP \t\t\t\n    tag 329\t\t\t\n      JUMPDEST \t\t\t\n      SWAP2 \t\t\t\n      POP \t\t\t\n      PUSH [tag] 330\t\t\t\n      DUP3 \t\t\t\n      PUSH [tag] 140\t\t\t\n      JUMP \t\t\t\n    tag 330\t\t\t\n      JUMPDEST \t\t\t\n      PUSH 20\t\t\t\n      DUP3 \t\t\t\n      ADD \t\t\t\n      SWAP1 \t\t\t\n      POP \t\t\t\n      SWAP2 \t\t\t\n      SWAP1 \t\t\t\n      POP \t\t\t\n      JUMP \t\t\t\n    tag 54\t\t\t\n      JUMPDEST \t\t\t\n      PUSH 0\t\t\t\n      PUSH 20\t\t\t\n      DUP3 \t\t\t\n      ADD \t\t\t\n      SWAP1 \t\t\t\n      POP \t\t\t\n      DUP2 \t\t\t\n      DUP2 \t\t\t\n      SUB \t\t\t\n      PUSH 0\t\t\t\n      DUP4 \t\t\t\n      ADD \t\t\t\n      MSTORE \t\t\t\n      PUSH [tag] 332\t\t\t\n      DUP2 \t\t\t\n      PUSH [tag] 141\t\t\t\n      JUMP \t\t\t\n    tag 332\t\t\t\n      JUMPDEST \t\t\t\n      SWAP1 \t\t\t\n      POP \t\t\t\n      SWAP2 \t\t\t\n      SWAP1 \t\t\t\n      POP \t\t\t\n      JUMP \t\t\t\n    tag 142\t\t\t\n      JUMPDEST \t\t\t\n      PUSH 4D757374206C6F636B2045544821000000000000000000000000000000000000\t\t\t\n      PUSH 0\t\t\t\n      DUP3 \t\t\t\n      ADD \t\t\t\n      MSTORE \t\t\t\n      POP \t\t\t\n      JUMP \t\t\t\n    tag 143\t\t\t\n      JUMPDEST \t\t\t\n      PUSH 0\t\t\t\n      PUSH [tag] 335\t\t\t\n      PUSH E\t\t\t\n      DUP4 \t\t\t\n      PUSH [tag] 114\t\t\t\n      JUMP \t\t\t\n    tag 335\t\t\t\n      JUMPDEST \t\t\t\n      SWAP2 \t\t\t\n      POP \t\t\t\n      PUSH [tag] 336\t\t\t\n      DUP3 \t\t\t\n      PUSH [tag] 142\t\t\t\n      JUMP \t\t\t\n    tag 336\t\t\t\n      JUMPDEST \t\t\t\n      PUSH 20\t\t\t\n      DUP3 \t\t\t\n      ADD \t\t\t\n      SWAP1 \t\t\t\n      POP \t\t\t\n      SWAP2 \t\t\t\n      SWAP1 \t\t\t\n      POP \t\t\t\n      JUMP \t\t\t\n    tag 57\t\t\t\n      JUMPDEST \t\t\t\n      PUSH 0\t\t\t\n      PUSH 20\t\t\t\n      DUP3 \t\t\t\n      ADD \t\t\t\n      SWAP1 \t\t\t\n      POP \t\t\t\n      DUP2 \t\t\t\n      DUP2 \t\t\t\n      SUB \t\t\t\n      PUSH 0\t\t\t\n      DUP4 \t\t\t\n      ADD \t\t\t\n      MSTORE \t\t\t\n      PUSH [tag] 338\t\t\t\n      DUP2 \t\t\t\n      PUSH [tag] 143\t\t\t\n      JUMP \t\t\t\n    tag 338\t\t\t\n      JUMPDEST \t\t\t\n      SWAP1 \t\t\t\n      POP \t\t\t\n      SWAP2 \t\t\t\n      SWAP1 \t\t\t\n      POP \t\t\t\n      JUMP \t\t\t\n    tag 144\t\t\t\n      JUMPDEST \t\t\t\n      PUSH [tag] 340\t\t\t\n      DUP2 \t\t\t\n      PUSH [tag] 96\t\t\t\n      JUMP \t\t\t\n    tag 340\t\t\t\n      JUMPDEST \t\t\t\n      DUP3 \t\t\t\n      MSTORE \t\t\t\n      POP \t\t\t\n      POP \t\t\t\n      JUMP \t\t\t\n    tag 63\t\t\t\n      JUMPDEST \t\t\t\n      PUSH 0\t\t\t\n      PUSH 20\t\t\t\n      DUP3 \t\t\t\n      ADD \t\t\t\n      SWAP1 \t\t\t\n      POP \t\t\t\n      PUSH [tag] 342\t\t\t\n      PUSH 0\t\t\t\n      DUP4 \t\t\t\n      ADD \t\t\t\n      DUP5 \t\t\t\n      PUSH [tag] 144\t\t\t\n      JUMP \t\t\t\n    tag 342\t\t\t\n      JUMPDEST \t\t\t\n      SWAP3 \t\t\t\n      SWAP2 \t\t\t\n      POP \t\t\t\n      POP \t\t\t\n      JUMP \t\t\t\n    tag 145\t\t\t\n      JUMPDEST \t\t\t\n      PUSH 4E6F2077696C6C20666F756E6421000000000000000000000000000000000000\t\t\t\n      PUSH 0\t\t\t\n      DUP3 \t\t\t\n      ADD \t\t\t\n      MSTORE \t\t\t\n      POP \t\t\t\n      JUMP \t\t\t\n    tag 146\t\t\t\n      JUMPDEST \t\t\t\n      PUSH 0\t\t\t\n      PUSH [tag] 345\t\t\t\n      PUSH E\t\t\t\n      DUP4 \t\t\t\n      PUSH [tag] 114\t\t\t\n      JUMP \t\t\t\n    tag 345\t\t\t\n      JUMPDEST \t\t\t\n      SWAP2 \t\t\t\n      POP \t\t\t\n      PUSH [tag] 346\t\t\t\n      DUP3 \t\t\t\n      PUSH [tag] 145\t\t\t\n      JUMP \t\t\t\n    tag 346\t\t\t\n      JUMPDEST \t\t\t\n      PUSH 20\t\t\t\n      DUP3 \t\t\t\n      ADD \t\t\t\n      SWAP1 \t\t\t\n      POP \t\t\t\n      SWAP2 \t\t\t\n      SWAP1 \t\t\t\n      POP \t\t\t\n      JUMP \t\t\t\n    tag 67\t\t\t\n      JUMPDEST \t\t\t\n      PUSH 0\t\t\t\n      PUSH 20\t\t\t\n      DUP3 \t\t\t\n      ADD \t\t\t\n      SWAP1 \t\t\t\n      POP \t\t\t\n      DUP2 \t\t\t\n      DUP2 \t\t\t\n      SUB \t\t\t\n      PUSH 0\t\t\t\n      DUP4 \t\t\t\n      ADD \t\t\t\n      MSTORE \t\t\t\n      PUSH [tag] 348\t\t\t\n      DUP2 \t\t\t\n      PUSH [tag] 146\t\t\t\n      JUMP \t\t\t\n    tag 348\t\t\t\n      JUMPDEST \t\t\t\n      SWAP1 \t\t\t\n      POP \t\t\t\n      SWAP2 \t\t\t\n      SWAP1 \t\t\t\n      POP \t\t\t\n      JUMP \t\t\t\n    tag 147\t\t\t\n      JUMPDEST \t\t\t\n      PUSH 4F776E6572206973207374696C6C20616C697665210000000000000000000000\t\t\t\n      PUSH 0\t\t\t\n      DUP3 \t\t\t\n      ADD \t\t\t\n      MSTORE \t\t\t\n      POP \t\t\t\n      JUMP \t\t\t\n    tag 148\t\t\t\n      JUMPDEST \t\t\t\n      PUSH 0\t\t\t\n      PUSH [tag] 351\t\t\t\n      PUSH 15\t\t\t\n      DUP4 \t\t\t\n      PUSH [tag] 114\t\t\t\n      JUMP \t\t\t\n    tag 351\t\t\t\n      JUMPDEST \t\t\t\n      SWAP2 \t\t\t\n      POP \t\t\t\n      PUSH [tag] 352\t\t\t\n      DUP3 \t\t\t\n      PUSH [tag] 147\t\t\t\n      JUMP \t\t\t\n    tag 352\t\t\t\n      JUMPDEST \t\t\t\n      PUSH 20\t\t\t\n      DUP3 \t\t\t\n      ADD \t\t\t\n      SWAP1 \t\t\t\n      POP \t\t\t\n      SWAP2 \t\t\t\n      SWAP1 \t\t\t\n      POP \t\t\t\n      JUMP \t\t\t\n    tag 71\t\t\t\n      JUMPDEST \t\t\t\n      PUSH 0\t\t\t\n      PUSH 20\t\t\t\n      DUP3 \t\t\t\n      ADD \t\t\t\n      SWAP1 \t\t\t\n      POP \t\t\t\n      DUP2 \t\t\t\n      DUP2 \t\t\t\n      SUB \t\t\t\n      PUSH 0\t\t\t\n      DUP4 \t\t\t\n      ADD \t\t\t\n      MSTORE \t\t\t\n      PUSH [tag] 354\t\t\t\n      DUP2 \t\t\t\n      PUSH [tag] 148\t\t\t\n      JUMP \t\t\t\n    tag 354\t\t\t\n      JUMPDEST \t\t\t\n      SWAP1 \t\t\t\n      POP \t\t\t\n      SWAP2 \t\t\t\n      SWAP1 \t\t\t\n      POP \t\t\t\n      JUMP \t\t\t\n    tag 149\t\t\t\n      JUMPDEST \t\t\t\n      PUSH 57696C6C20616C72656164792065786563757465642100000000000000000000\t\t\t\n      PUSH 0\t\t\t\n      DUP3 \t\t\t\n      ADD \t\t\t\n      MSTORE \t\t\t\n      POP \t\t\t\n      JUMP \t\t\t\n    tag 150\t\t\t\n      JUMPDEST \t\t\t\n      PUSH 0\t\t\t\n      PUSH [tag] 357\t\t\t\n      PUSH 16\t\t\t\n      DUP4 \t\t\t\n      PUSH [tag] 114\t\t\t\n      JUMP \t\t\t\n    tag 357\t\t\t\n      JUMPDEST \t\t\t\n      SWAP2 \t\t\t\n      POP \t\t\t\n      PUSH [tag] 358\t\t\t\n      DUP3 \t\t\t\n      PUSH [tag] 149\t\t\t\n      JUMP \t\t\t\n    tag 358\t\t\t\n      JUMPDEST \t\t\t\n      PUSH 20\t\t\t\n      DUP3 \t\t\t\n      ADD \t\t\t\n      SWAP1 \t\t\t\n      POP \t\t\t\n      SWAP2 \t\t\t\n      SWAP1 \t\t\t\n      POP \t\t\t\n      JUMP \t\t\t\n    tag 74\t\t\t\n      JUMPDEST \t\t\t\n      PUSH 0\t\t\t\n      PUSH 20\t\t\t\n      DUP3 \t\t\t\n      ADD \t\t\t\n      SWAP1 \t\t\t\n      POP \t\t\t\n      DUP2 \t\t\t\n      DUP2 \t\t\t\n      SUB \t\t\t\n      PUSH 0\t\t\t\n      DUP4 \t\t\t\n      ADD \t\t\t\n      MSTORE \t\t\t\n      PUSH [tag] 360\t\t\t\n      DUP2 \t\t\t\n      PUSH [tag] 150\t\t\t\n      JUMP \t\t\t\n    tag 360\t\t\t\n      JUMPDEST \t\t\t\n      SWAP1 \t\t\t\n      POP \t\t\t\n      SWAP2 \t\t\t\n      SWAP1 \t\t\t\n      POP \t\t\t\n      JUMP \t\t\t\n    tag 82\t\t\t\n      JUMPDEST \t\t\t\n      PUSH 0\t\t\t\n      PUSH [tag] 362\t\t\t\n      DUP3 \t\t\t\n      PUSH [tag] 96\t\t\t\n      JUMP \t\t\t\n    tag 362\t\t\t\n      JUMPDEST \t\t\t\n      SWAP2 \t\t\t\n      POP \t\t\t\n      PUSH [tag] 363\t\t\t\n      DUP4 \t\t\t\n      PUSH [tag] 96\t\t\t\n      JUMP \t\t\t\n    tag 363\t\t\t\n      JUMPDEST \t\t\t\n      SWAP3 \t\t\t\n      POP \t\t\t\n      DUP3 \t\t\t\n      DUP3 \t\t\t\n      MUL \t\t\t\n      PUSH [tag] 364\t\t\t\n      DUP2 \t\t\t\n      PUSH [tag] 96\t\t\t\n      JUMP \t\t\t\n    tag 364\t\t\t\n      JUMPDEST \t\t\t\n      SWAP2 \t\t\t\n      POP \t\t\t\n      DUP3 \t\t\t\n      DUP3 \t\t\t\n      DIV \t\t\t\n      DUP5 \t\t\t\n      EQ \t\t\t\n      DUP4 \t\t\t\n      ISZERO \t\t\t\n      OR \t\t\t\n      PUSH [tag] 365\t\t\t\n      JUMPI \t\t\t\n      PUSH [tag] 366\t\t\t\n      PUSH [tag] 119\t\t\t\n      JUMP \t\t\t\n    tag 366\t\t\t\n      JUMPDEST \t\t\t\n    tag 365\t\t\t\n      JUMPDEST \t\t\t\n      POP \t\t\t\n      SWAP3 \t\t\t\n      SWAP2 \t\t\t\n      POP \t\t\t\n      POP \t\t\t\n      JUMP \t\t\t\n    tag 151\t\t\t\n      JUMPDEST \t\t\t\n      PUSH 4E487B7100000000000000000000000000000000000000000000000000000000\t\t\t\n      PUSH 0\t\t\t\n      MSTORE \t\t\t\n      PUSH 12\t\t\t\n      PUSH 4\t\t\t\n      MSTORE \t\t\t\n      PUSH 24\t\t\t\n      PUSH 0\t\t\t\n      REVERT \t\t\t\n    tag 84\t\t\t\n      JUMPDEST \t\t\t\n      PUSH 0\t\t\t\n      PUSH [tag] 369\t\t\t\n      DUP3 \t\t\t\n      PUSH [tag] 96\t\t\t\n      JUMP \t\t\t\n    tag 369\t\t\t\n      JUMPDEST \t\t\t\n      SWAP2 \t\t\t\n      POP \t\t\t\n      PUSH [tag] 370\t\t\t\n      DUP4 \t\t\t\n      PUSH [tag] 96\t\t\t\n      JUMP \t\t\t\n    tag 370\t\t\t\n      JUMPDEST \t\t\t\n      SWAP3 \t\t\t\n      POP \t\t\t\n      DUP3 \t\t\t\n      PUSH [tag] 371\t\t\t\n      JUMPI \t\t\t\n      PUSH [tag] 372\t\t\t\n      PUSH [tag] 151\t\t\t\n      JUMP \t\t\t\n    tag 372\t\t\t\n      JUMPDEST \t\t\t\n    tag 371\t\t\t\n      JUMPDEST \t\t\t\n      DUP3 \t\t\t\n      DUP3 \t\t\t\n      DIV \t\t\t\n      SWAP1 \t\t\t\n      POP \t\t\t\n      SWAP3 \t\t\t\n      SWAP2 \t\t\t\n      POP \t\t\t\n      POP \t\t\t\n      JUMP \t\t\t\n    tag 152\t\t\t\n      JUMPDEST \t\t\t\n      PUSH 0\t\t\t\n      DUP2 \t\t\t\n      SLOAD \t\t\t\n      PUSH [tag] 374\t\t\t\n      DUP2 \t\t\t\n      PUSH [tag] 124\t\t\t\n      JUMP \t\t\t\n    tag 374\t\t\t\n      JUMPDEST \t\t\t\n      PUSH [tag] 375\t\t\t\n      DUP2 \t\t\t\n      DUP7 \t\t\t\n      PUSH [tag] 114\t\t\t\n      JUMP \t\t\t\n    tag 375\t\t\t\n      JUMPDEST \t\t\t\n      SWAP5 \t\t\t\n      POP \t\t\t\n      PUSH 1\t\t\t\n      DUP3 \t\t\t\n      AND \t\t\t\n      PUSH 0\t\t\t\n      DUP2 \t\t\t\n      EQ \t\t\t\n      PUSH [tag] 377\t\t\t\n      JUMPI \t\t\t\n      PUSH 1\t\t\t\n      DUP2 \t\t\t\n      EQ \t\t\t\n      PUSH [tag] 378\t\t\t\n      JUMPI \t\t\t\n      PUSH [tag] 376\t\t\t\n      JUMP \t\t\t\n    tag 377\t\t\t\n      JUMPDEST \t\t\t\n      PUSH FF\t\t\t\n      NOT \t\t\t\n      DUP4 \t\t\t\n      AND \t\t\t\n      DUP7 \t\t\t\n      MSTORE \t\t\t\n      DUP2 \t\t\t\n      ISZERO \t\t\t\n      ISZERO \t\t\t\n      PUSH 20\t\t\t\n      MUL \t\t\t\n      DUP7 \t\t\t\n      ADD \t\t\t\n      SWAP4 \t\t\t\n      POP \t\t\t\n      PUSH [tag] 376\t\t\t\n      JUMP \t\t\t\n    tag 378\t\t\t\n      JUMPDEST \t\t\t\n      PUSH [tag] 379\t\t\t\n      DUP6 \t\t\t\n      PUSH [tag] 125\t\t\t\n      JUMP \t\t\t\n    tag 379\t\t\t\n      JUMPDEST \t\t\t\n      PUSH 0\t\t\t\n    tag 380\t\t\t\n      JUMPDEST \t\t\t\n      DUP4 \t\t\t\n      DUP2 \t\t\t\n      LT \t\t\t\n      ISZERO \t\t\t\n      PUSH [tag] 382\t\t\t\n      JUMPI \t\t\t\n      DUP2 \t\t\t\n      SLOAD \t\t\t\n      DUP2 \t\t\t\n      DUP10 \t\t\t\n      ADD \t\t\t\n      MSTORE \t\t\t\n      PUSH 1\t\t\t\n      DUP3 \t\t\t\n      ADD \t\t\t\n      SWAP2 \t\t\t\n      POP \t\t\t\n      PUSH 20\t\t\t\n      DUP2 \t\t\t\n      ADD \t\t\t\n      SWAP1 \t\t\t\n      POP \t\t\t\n      PUSH [tag] 380\t\t\t\n      JUMP \t\t\t\n    tag 382\t\t\t\n      JUMPDEST \t\t\t\n      DUP1 \t\t\t\n      DUP9 \t\t\t\n      ADD \t\t\t\n      SWAP6 \t\t\t\n      POP \t\t\t\n      POP \t\t\t\n      POP \t\t\t\n    tag 376\t\t\t\n      JUMPDEST \t\t\t\n      POP \t\t\t\n      POP \t\t\t\n      POP \t\t\t\n      SWAP3 \t\t\t\n      SWAP2 \t\t\t\n      POP \t\t\t\n      POP \t\t\t\n      JUMP \t\t\t\n    tag 153\t\t\t\n      JUMPDEST \t\t\t\n      POP \t\t\t\n      JUMP \t\t\t\n    tag 154\t\t\t\n      JUMPDEST \t\t\t\n      PUSH 0\t\t\t\n      PUSH [tag] 385\t\t\t\n      PUSH 0\t\t\t\n      DUP4 \t\t\t\n      PUSH [tag] 114\t\t\t\n      JUMP \t\t\t\n    tag 385\t\t\t\n      JUMPDEST \t\t\t\n      SWAP2 \t\t\t\n      POP \t\t\t\n      PUSH [tag] 386\t\t\t\n      DUP3 \t\t\t\n      PUSH [tag] 153\t\t\t\n      JUMP \t\t\t\n    tag 386\t\t\t\n      JUMPDEST \t\t\t\n      PUSH 0\t\t\t\n      DUP3 \t\t\t\n      ADD \t\t\t\n      SWAP1 \t\t\t\n      POP \t\t\t\n      SWAP2 \t\t\t\n      SWAP1 \t\t\t\n      POP \t\t\t\n      JUMP \t\t\t\n    tag 88\t\t\t\n      JUMPDEST \t\t\t\n      PUSH 0\t\t\t\n      PUSH 80\t\t\t\n      DUP3 \t\t\t\n      ADD \t\t\t\n      SWAP1 \t\t\t\n      POP \t\t\t\n      PUSH [tag] 388\t\t\t\n      PUSH 0\t\t\t\n      DUP4 \t\t\t\n      ADD \t\t\t\n      DUP7 \t\t\t\n      PUSH [tag] 144\t\t\t\n      JUMP \t\t\t\n    tag 388\t\t\t\n      JUMPDEST \t\t\t\n      DUP2 \t\t\t\n      DUP2 \t\t\t\n      SUB \t\t\t\n      PUSH 20\t\t\t\n      DUP4 \t\t\t\n      ADD \t\t\t\n      MSTORE \t\t\t\n      PUSH [tag] 389\t\t\t\n      DUP2 \t\t\t\n      DUP6 \t\t\t\n      PUSH [tag] 152\t\t\t\n      JUMP \t\t\t\n    tag 389\t\t\t\n      JUMPDEST \t\t\t\n      SWAP1 \t\t\t\n      POP \t\t\t\n      DUP2 \t\t\t\n      DUP2 \t\t\t\n      SUB \t\t\t\n      PUSH 40\t\t\t\n      DUP4 \t\t\t\n      ADD \t\t\t\n      MSTORE \t\t\t\n      PUSH [tag] 390\t\t\t\n      DUP2 \t\t\t\n      DUP5 \t\t\t\n      PUSH [tag] 152\t\t\t\n      JUMP \t\t\t\n    tag 390\t\t\t\n      JUMPDEST \t\t\t\n      SWAP1 \t\t\t\n      POP \t\t\t\n      DUP2 \t\t\t\n      DUP2 \t\t\t\n      SUB \t\t\t\n      PUSH 60\t\t\t\n      DUP4 \t\t\t\n      ADD \t\t\t\n      MSTORE \t\t\t\n      PUSH [tag] 391\t\t\t\n      DUP2 \t\t\t\n      PUSH [tag] 154\t\t\t\n      JUMP \t\t\t\n    tag 391\t\t\t\n      JUMPDEST \t\t\t\n      SWAP1 \t\t\t\n      POP \t\t\t\n      SWAP5 \t\t\t\n      SWAP4 \t\t\t\n      POP \t\t\t\n      POP \t\t\t\n      POP \t\t\t\n      POP \t\t\t\n      JUMP \t\t\t\n    .data\n"
}