{
	"compilerInput": "{\"language\":\"Solidity\",\"sources\":{\"contract.sol\":{\"content\":\"// SPDX-License-Identifier: MIT\\npragma solidity ^0.8.19;\\n\\ncontract MultiWillContract {\\n    struct Beneficiary {\\n        address payable wallet;\\n        uint256 percentage;\\n        string saleDeedIpfsHash;\\n        string email;\\n    }\\n\\n    struct Will {\\n        address testator;\\n        string firstName;\\n        string lastName;\\n        uint256 totalLocked;\\n        uint256 lastAliveTime;\\n        uint256 proofOfLifeInterval;\\n        bool isDeceased;\\n        Beneficiary[] beneficiaries;\\n    }\\n\\n    mapping(address => Will) private wills;\\n    mapping(address => bool) public hasWill;\\n\\n    event WillCreated(address indexed testator, uint256 lockedFunds);\\n    event BeneficiaryAdded(address indexed testator, address beneficiary, uint256 percentage);\\n    event WillExecuted(address indexed testator);\\n    event FundsDisbursed(address indexed beneficiary, uint256 amount, string saleDeedIpfsHash, string email);\\n\\n    /**\\n     * @dev Creates a new will for the sender.\\n     * @param _firstName First name of the testator.\\n     * @param _lastName Last name of the testator.\\n     */\\n    function createWill(\\n        string memory _firstName,\\n        string memory _lastName\\n    ) public payable {\\n        require(!hasWill[msg.sender], \\\"You already have a will!\\\");\\n        require(msg.value > 0, \\\"Must lock ETH!\\\");\\n\\n        // Store will details\\n        wills[msg.sender].testator = msg.sender;\\n        wills[msg.sender].firstName = _firstName;\\n        wills[msg.sender].lastName = _lastName;\\n        wills[msg.sender].totalLocked = msg.value; // Store locked ETH amount\\n        wills[msg.sender].lastAliveTime = block.timestamp;\\n        wills[msg.sender].proofOfLifeInterval = 365 days;\\n        wills[msg.sender].isDeceased = false;\\n\\n        hasWill[msg.sender] = true;\\n\\n        emit WillCreated(msg.sender, msg.value);\\n    }\\n\\n    /**\\n     * @dev Adds a beneficiary to the caller's will.\\n     * @param _wallet Address of the beneficiary.\\n     * @param _percentage Share of ETH to be allocated.\\n     * @param _saleDeedIpfsHash IPFS hash of the sale deed document assigned to the beneficiary.\\n     * @param _email Email of the beneficiary.\\n     */\\n    function addBeneficiary(\\n        address payable _wallet,\\n        uint256 _percentage,\\n        string memory _saleDeedIpfsHash,\\n        string memory _email\\n    ) public {\\n        require(hasWill[msg.sender], \\\"You need to create a will first\\\");\\n        require(_wallet != address(0), \\\"Invalid wallet address\\\");\\n        require(_percentage > 0 && _percentage <= 100, \\\"Invalid percentage\\\");\\n\\n        uint256 totalPercentage = 0;\\n        for (uint i = 0; i < wills[msg.sender].beneficiaries.length; i++) {\\n            totalPercentage += wills[msg.sender].beneficiaries[i].percentage;\\n        }\\n        require(totalPercentage + _percentage <= 100, \\\"Total allocation exceeds 100%\\\");\\n\\n        wills[msg.sender].beneficiaries.push(\\n            Beneficiary(_wallet, _percentage, _saleDeedIpfsHash, _email)\\n        );\\n\\n        emit BeneficiaryAdded(msg.sender, _wallet, _percentage);\\n    }\\n\\n    /**\\n     * @dev Confirms the testator is alive.\\n     */\\n    function confirmAlive() public {\\n        require(hasWill[msg.sender], \\\"You have not created a will\\\");\\n        require(!wills[msg.sender].isDeceased, \\\"Will already executed!\\\");\\n\\n        wills[msg.sender].lastAliveTime = block.timestamp;\\n    }\\n\\n    /**\\n     * @dev Executes the will by distributing ETH and notifying beneficiaries.\\n     */\\n    function executeWill(address user) public {\\n        require(hasWill[user], \\\"No will found!\\\");\\n        require(block.timestamp > wills[user].lastAliveTime + wills[user].proofOfLifeInterval, \\\"Owner is still alive!\\\");\\n        require(!wills[user].isDeceased, \\\"Will already executed!\\\");\\n\\n        wills[user].isDeceased = true;\\n\\n        uint256 totalLocked = wills[user].totalLocked;\\n        require(totalLocked > 0, \\\"No ETH to distribute\\\");\\n\\n        for (uint i = 0; i < wills[user].beneficiaries.length; i++) {\\n            Beneficiary storage beneficiary = wills[user].beneficiaries[i];\\n\\n            uint256 amount = (totalLocked * beneficiary.percentage) / 100;\\n\\n            if (address(this).balance >= amount) {\\n                beneficiary.wallet.transfer(amount);\\n                emit FundsDisbursed(beneficiary.wallet, amount, beneficiary.saleDeedIpfsHash, beneficiary.email);\\n            } else {\\n                emit FundsDisbursed(beneficiary.wallet, 0, beneficiary.saleDeedIpfsHash, beneficiary.email);\\n            }\\n        }\\n\\n        wills[user].totalLocked = 0;\\n        emit WillExecuted(user);\\n    }\\n\\n    /**\\n     * @dev Retrieves the total number of beneficiaries in the user's will.\\n     */\\n    function getBeneficiaryCount(address user) public view returns (uint256) {\\n        require(hasWill[user], \\\"No will found!\\\");\\n        return wills[user].beneficiaries.length;\\n    }\\n\\n    /**\\n     * @dev Retrieves the locked ETH amount in the will.\\n     */\\n    function getLockedFunds(address user) public view returns (uint256) {\\n        require(hasWill[user], \\\"No will found!\\\");\\n        return wills[user].totalLocked;\\n    }\\n\\n    /**\\n     * @dev Checks if the will has already been executed.\\n     */\\n    function isWillExecuted(address user) public view returns (bool) {\\n        require(hasWill[user], \\\"No will found!\\\");\\n        return wills[user].isDeceased;\\n    }\\n}\\n\"}},\"settings\":{\"optimizer\":{\"enabled\":false,\"runs\":200},\"outputSelection\":{\"*\":{\"\":[\"ast\"],\"*\":[\"abi\",\"metadata\",\"devdoc\",\"userdoc\",\"storageLayout\",\"evm.legacyAssembly\",\"evm.bytecode\",\"evm.deployedBytecode\",\"evm.methodIdentifiers\",\"evm.gasEstimates\",\"evm.assembly\"]}},\"remappings\":[]}}",
	"name": "MultiWillContract",
	"bytecode": {
		"linkReferences": {},
		"object": "6080604052348015600e575f80fd5b506121108061001c5f395ff3fe60806040526004361061007a575f3560e01c8063a7f01e4d1161004d578063a7f01e4d14610134578063b0daeb1c14610170578063e7dda5551461018c578063e854d135146101c85761007a565b80632423c7f31461007e5780634ebde6d3146100ba578063549cc7b8146100e25780636f9b65f01461011e575b5f80fd5b348015610089575f80fd5b506100a4600480360381019061009f9190611359565b6101f0565b6040516100b1919061139c565b60405180910390f35b3480156100c5575f80fd5b506100e060048036038101906100db9190611556565b6102c4565b005b3480156100ed575f80fd5b5061010860048036038101906101039190611359565b610691565b604051610115919061160c565b60405180910390f35b348015610129575f80fd5b506101326106ae565b005b34801561013f575f80fd5b5061015a60048036038101906101559190611359565b610809565b604051610167919061139c565b60405180910390f35b61018a60048036038101906101859190611625565b6108da565b005b348015610197575f80fd5b506101b260048036038101906101ad9190611359565b610c88565b6040516101bf919061160c565b60405180910390f35b3480156101d3575f80fd5b506101ee60048036038101906101e99190611359565b610d65565b005b5f60015f8373ffffffffffffffffffffffffffffffffffffffff1673ffffffffffffffffffffffffffffffffffffffff1681526020019081526020015f205f9054906101000a900460ff1661027a576040517f08c379a0000000000000000000000000000000000000000000000000000000008152600401610271906116f5565b60405180910390fd5b5f808373ffffffffffffffffffffffffffffffffffffffff1673ffffffffffffffffffffffffffffffffffffffff1681526020019081526020015f20600701805490509050919050565b60015f3373ffffffffffffffffffffffffffffffffffffffff1673ffffffffffffffffffffffffffffffffffffffff1681526020019081526020015f205f9054906101000a900460ff1661034d576040517f08c379a00000000000000000000000000000000000000000000000000000000081526004016103449061175d565b60405180910390fd5b5f73ffffffffffffffffffffffffffffffffffffffff168473ffffffffffffffffffffffffffffffffffffffff16036103bb576040517f08c379a00000000000000000000000000000000000000000000000000000000081526004016103b2906117c5565b60405180910390fd5b5f831180156103cb575060648311155b61040a576040517f08c379a00000000000000000000000000000000000000000000000000000000081526004016104019061182d565b60405180910390fd5b5f805b5f803373ffffffffffffffffffffffffffffffffffffffff1673ffffffffffffffffffffffffffffffffffffffff1681526020019081526020015f20600701805490508110156104d2575f803373ffffffffffffffffffffffffffffffffffffffff1673ffffffffffffffffffffffffffffffffffffffff1681526020019081526020015f2060070181815481106104a8576104a761184b565b5b905f5260205f20906004020160010154826104c391906118a5565b9150808060010191505061040d565b50606484826104e191906118a5565b1115610522576040517f08c379a000000000000000000000000000000000000000000000000000000000815260040161051990611922565b60405180910390fd5b5f803373ffffffffffffffffffffffffffffffffffffffff1673ffffffffffffffffffffffffffffffffffffffff1681526020019081526020015f2060070160405180608001604052808773ffffffffffffffffffffffffffffffffffffffff16815260200186815260200185815260200184815250908060018154018082558091505060019003905f5260205f2090600402015f909190919091505f820151815f015f6101000a81548173ffffffffffffffffffffffffffffffffffffffff021916908373ffffffffffffffffffffffffffffffffffffffff1602179055506020820151816001015560408201518160020190816106219190611b44565b5060608201518160030190816106379190611b44565b5050503373ffffffffffffffffffffffffffffffffffffffff167f5d081d791b64899adab031015397ef8d7600501212ef97573b9e50f8c9bb6d9b8686604051610682929190611c65565b60405180910390a25050505050565b6001602052805f5260405f205f915054906101000a900460ff1681565b60015f3373ffffffffffffffffffffffffffffffffffffffff1673ffffffffffffffffffffffffffffffffffffffff1681526020019081526020015f205f9054906101000a900460ff16610737576040517f08c379a000000000000000000000000000000000000000000000000000000000815260040161072e90611cd6565b60405180910390fd5b5f803373ffffffffffffffffffffffffffffffffffffffff1673ffffffffffffffffffffffffffffffffffffffff1681526020019081526020015f206006015f9054906101000a900460ff16156107c3576040517f08c379a00000000000000000000000000000000000000000000000000000000081526004016107ba90611d3e565b60405180910390fd5b425f803373ffffffffffffffffffffffffffffffffffffffff1673ffffffffffffffffffffffffffffffffffffffff1681526020019081526020015f2060040181905550565b5f60015f8373ffffffffffffffffffffffffffffffffffffffff1673ffffffffffffffffffffffffffffffffffffffff1681526020019081526020015f205f9054906101000a900460ff16610893576040517f08c379a000000000000000000000000000000000000000000000000000000000815260040161088a906116f5565b60405180910390fd5b5f808373ffffffffffffffffffffffffffffffffffffffff1673ffffffffffffffffffffffffffffffffffffffff1681526020019081526020015f20600301549050919050565b60015f3373ffffffffffffffffffffffffffffffffffffffff1673ffffffffffffffffffffffffffffffffffffffff1681526020019081526020015f205f9054906101000a900460ff1615610964576040517f08c379a000000000000000000000000000000000000000000000000000000000815260040161095b90611da6565b60405180910390fd5b5f34116109a6576040517f08c379a000000000000000000000000000000000000000000000000000000000815260040161099d90611e0e565b60405180910390fd5b335f803373ffffffffffffffffffffffffffffffffffffffff1673ffffffffffffffffffffffffffffffffffffffff1681526020019081526020015f205f015f6101000a81548173ffffffffffffffffffffffffffffffffffffffff021916908373ffffffffffffffffffffffffffffffffffffffff160217905550815f803373ffffffffffffffffffffffffffffffffffffffff1673ffffffffffffffffffffffffffffffffffffffff1681526020019081526020015f206001019081610a6e9190611b44565b50805f803373ffffffffffffffffffffffffffffffffffffffff1673ffffffffffffffffffffffffffffffffffffffff1681526020019081526020015f206002019081610abb9190611b44565b50345f803373ffffffffffffffffffffffffffffffffffffffff1673ffffffffffffffffffffffffffffffffffffffff1681526020019081526020015f2060030181905550425f803373ffffffffffffffffffffffffffffffffffffffff1673ffffffffffffffffffffffffffffffffffffffff1681526020019081526020015f20600401819055506301e133805f803373ffffffffffffffffffffffffffffffffffffffff1673ffffffffffffffffffffffffffffffffffffffff1681526020019081526020015f20600501819055505f805f3373ffffffffffffffffffffffffffffffffffffffff1673ffffffffffffffffffffffffffffffffffffffff1681526020019081526020015f206006015f6101000a81548160ff0219169083151502179055506001805f3373ffffffffffffffffffffffffffffffffffffffff1673ffffffffffffffffffffffffffffffffffffffff1681526020019081526020015f205f6101000a81548160ff0219169083151502179055503373ffffffffffffffffffffffffffffffffffffffff167fd40dc4a639c90600691397f655099adba04d6b763ef2122630edd47c09f1b6f934604051610c7c919061139c565b60405180910390a25050565b5f60015f8373ffffffffffffffffffffffffffffffffffffffff1673ffffffffffffffffffffffffffffffffffffffff1681526020019081526020015f205f9054906101000a900460ff16610d12576040517f08c379a0000000000000000000000000000000000000000000000000000000008152600401610d09906116f5565b60405180910390fd5b5f808373ffffffffffffffffffffffffffffffffffffffff1673ffffffffffffffffffffffffffffffffffffffff1681526020019081526020015f206006015f9054906101000a900460ff169050919050565b60015f8273ffffffffffffffffffffffffffffffffffffffff1673ffffffffffffffffffffffffffffffffffffffff1681526020019081526020015f205f9054906101000a900460ff16610dee576040517f08c379a0000000000000000000000000000000000000000000000000000000008152600401610de5906116f5565b60405180910390fd5b5f808273ffffffffffffffffffffffffffffffffffffffff1673ffffffffffffffffffffffffffffffffffffffff1681526020019081526020015f20600501545f808373ffffffffffffffffffffffffffffffffffffffff1673ffffffffffffffffffffffffffffffffffffffff1681526020019081526020015f2060040154610e7891906118a5565b4211610eb9576040517f08c379a0000000000000000000000000000000000000000000000000000000008152600401610eb090611e76565b60405180910390fd5b5f808273ffffffffffffffffffffffffffffffffffffffff1673ffffffffffffffffffffffffffffffffffffffff1681526020019081526020015f206006015f9054906101000a900460ff1615610f45576040517f08c379a0000000000000000000000000000000000000000000000000000000008152600401610f3c90611d3e565b60405180910390fd5b60015f808373ffffffffffffffffffffffffffffffffffffffff1673ffffffffffffffffffffffffffffffffffffffff1681526020019081526020015f206006015f6101000a81548160ff0219169083151502179055505f805f8373ffffffffffffffffffffffffffffffffffffffff1673ffffffffffffffffffffffffffffffffffffffff1681526020019081526020015f206003015490505f8111611021576040517f08c379a000000000000000000000000000000000000000000000000000000000815260040161101890611ede565b60405180910390fd5b5f5b5f808473ffffffffffffffffffffffffffffffffffffffff1673ffffffffffffffffffffffffffffffffffffffff1681526020019081526020015f2060070180549050811015611262575f805f8573ffffffffffffffffffffffffffffffffffffffff1673ffffffffffffffffffffffffffffffffffffffff1681526020019081526020015f2060070182815481106110bf576110be61184b565b5b905f5260205f20906004020190505f60648260010154856110e09190611efc565b6110ea9190611f6a565b90508047106111d857815f015f9054906101000a900473ffffffffffffffffffffffffffffffffffffffff1673ffffffffffffffffffffffffffffffffffffffff166108fc8290811502906040515f60405180830381858888f19350505050158015611158573d5f803e3d5ffd5b50815f015f9054906101000a900473ffffffffffffffffffffffffffffffffffffffff1673ffffffffffffffffffffffffffffffffffffffff167fceb720b06c310edc215bee81670832bb918ba1199f401716364414ddb9b816a78284600201856003016040516111cb9392919061201b565b60405180910390a2611253565b815f015f9054906101000a900473ffffffffffffffffffffffffffffffffffffffff1673ffffffffffffffffffffffffffffffffffffffff167fceb720b06c310edc215bee81670832bb918ba1199f401716364414ddb9b816a75f846002018560030160405161124a93929190612097565b60405180910390a25b50508080600101915050611023565b505f805f8473ffffffffffffffffffffffffffffffffffffffff1673ffffffffffffffffffffffffffffffffffffffff1681526020019081526020015f20600301819055508173ffffffffffffffffffffffffffffffffffffffff167f16346f65adf8d84422b57ad74cb5607bf6c9e55c3c1fea66344057e5bba8a7ee60405160405180910390a25050565b5f604051905090565b5f80fd5b5f80fd5b5f73ffffffffffffffffffffffffffffffffffffffff82169050919050565b5f611328826112ff565b9050919050565b6113388161131e565b8114611342575f80fd5b50565b5f813590506113538161132f565b92915050565b5f6020828403121561136e5761136d6112f7565b5b5f61137b84828501611345565b91505092915050565b5f819050919050565b61139681611384565b82525050565b5f6020820190506113af5f83018461138d565b92915050565b5f6113bf826112ff565b9050919050565b6113cf816113b5565b81146113d9575f80fd5b50565b5f813590506113ea816113c6565b92915050565b6113f981611384565b8114611403575f80fd5b50565b5f81359050611414816113f0565b92915050565b5f80fd5b5f80fd5b5f601f19601f8301169050919050565b7f4e487b71000000000000000000000000000000000000000000000000000000005f52604160045260245ffd5b61146882611422565b810181811067ffffffffffffffff8211171561148757611486611432565b5b80604052505050565b5f6114996112ee565b90506114a5828261145f565b919050565b5f67ffffffffffffffff8211156114c4576114c3611432565b5b6114cd82611422565b9050602081019050919050565b828183375f83830152505050565b5f6114fa6114f5846114aa565b611490565b9050828152602081018484840111156115165761151561141e565b5b6115218482856114da565b509392505050565b5f82601f83011261153d5761153c61141a565b5b813561154d8482602086016114e8565b91505092915050565b5f805f806080858703121561156e5761156d6112f7565b5b5f61157b878288016113dc565b945050602061158c87828801611406565b935050604085013567ffffffffffffffff8111156115ad576115ac6112fb565b5b6115b987828801611529565b925050606085013567ffffffffffffffff8111156115da576115d96112fb565b5b6115e687828801611529565b91505092959194509250565b5f8115159050919050565b611606816115f2565b82525050565b5f60208201905061161f5f8301846115fd565b92915050565b5f806040838503121561163b5761163a6112f7565b5b5f83013567ffffffffffffffff811115611658576116576112fb565b5b61166485828601611529565b925050602083013567ffffffffffffffff811115611685576116846112fb565b5b61169185828601611529565b9150509250929050565b5f82825260208201905092915050565b7f4e6f2077696c6c20666f756e64210000000000000000000000000000000000005f82015250565b5f6116df600e8361169b565b91506116ea826116ab565b602082019050919050565b5f6020820190508181035f83015261170c816116d3565b9050919050565b7f596f75206e65656420746f2063726561746520612077696c6c206669727374005f82015250565b5f611747601f8361169b565b915061175282611713565b602082019050919050565b5f6020820190508181035f8301526117748161173b565b9050919050565b7f496e76616c69642077616c6c65742061646472657373000000000000000000005f82015250565b5f6117af60168361169b565b91506117ba8261177b565b602082019050919050565b5f6020820190508181035f8301526117dc816117a3565b9050919050565b7f496e76616c69642070657263656e7461676500000000000000000000000000005f82015250565b5f61181760128361169b565b9150611822826117e3565b602082019050919050565b5f6020820190508181035f8301526118448161180b565b9050919050565b7f4e487b71000000000000000000000000000000000000000000000000000000005f52603260045260245ffd5b7f4e487b71000000000000000000000000000000000000000000000000000000005f52601160045260245ffd5b5f6118af82611384565b91506118ba83611384565b92508282019050808211156118d2576118d1611878565b5b92915050565b7f546f74616c20616c6c6f636174696f6e206578636565647320313030250000005f82015250565b5f61190c601d8361169b565b9150611917826118d8565b602082019050919050565b5f6020820190508181035f83015261193981611900565b9050919050565b5f81519050919050565b7f4e487b71000000000000000000000000000000000000000000000000000000005f52602260045260245ffd5b5f600282049050600182168061198e57607f821691505b6020821081036119a1576119a061194a565b5b50919050565b5f819050815f5260205f209050919050565b5f6020601f8301049050919050565b5f82821b905092915050565b5f60088302611a037fffffffffffffffffffffffffffffffffffffffffffffffffffffffffffffffff826119c8565b611a0d86836119c8565b95508019841693508086168417925050509392505050565b5f819050919050565b5f611a48611a43611a3e84611384565b611a25565b611384565b9050919050565b5f819050919050565b611a6183611a2e565b611a75611a6d82611a4f565b8484546119d4565b825550505050565b5f90565b611a89611a7d565b611a94818484611a58565b505050565b5b81811015611ab757611aac5f82611a81565b600181019050611a9a565b5050565b601f821115611afc57611acd816119a7565b611ad6846119b9565b81016020851015611ae5578190505b611af9611af1856119b9565b830182611a99565b50505b505050565b5f82821c905092915050565b5f611b1c5f1984600802611b01565b1980831691505092915050565b5f611b348383611b0d565b9150826002028217905092915050565b611b4d82611940565b67ffffffffffffffff811115611b6657611b65611432565b5b611b708254611977565b611b7b828285611abb565b5f60209050601f831160018114611bac575f8415611b9a578287015190505b611ba48582611b29565b865550611c0b565b601f198416611bba866119a7565b5f5b82811015611be157848901518255600182019150602085019450602081019050611bbc565b86831015611bfe5784890151611bfa601f891682611b0d565b8355505b6001600288020188555050505b505050505050565b5f611c2d611c28611c23846112ff565b611a25565b6112ff565b9050919050565b5f611c3e82611c13565b9050919050565b5f611c4f82611c34565b9050919050565b611c5f81611c45565b82525050565b5f604082019050611c785f830185611c56565b611c85602083018461138d565b9392505050565b7f596f752068617665206e6f74206372656174656420612077696c6c00000000005f82015250565b5f611cc0601b8361169b565b9150611ccb82611c8c565b602082019050919050565b5f6020820190508181035f830152611ced81611cb4565b9050919050565b7f57696c6c20616c726561647920657865637574656421000000000000000000005f82015250565b5f611d2860168361169b565b9150611d3382611cf4565b602082019050919050565b5f6020820190508181035f830152611d5581611d1c565b9050919050565b7f596f7520616c7265616479206861766520612077696c6c2100000000000000005f82015250565b5f611d9060188361169b565b9150611d9b82611d5c565b602082019050919050565b5f6020820190508181035f830152611dbd81611d84565b9050919050565b7f4d757374206c6f636b20455448210000000000000000000000000000000000005f82015250565b5f611df8600e8361169b565b9150611e0382611dc4565b602082019050919050565b5f6020820190508181035f830152611e2581611dec565b9050919050565b7f4f776e6572206973207374696c6c20616c6976652100000000000000000000005f82015250565b5f611e6060158361169b565b9150611e6b82611e2c565b602082019050919050565b5f6020820190508181035f830152611e8d81611e54565b9050919050565b7f4e6f2045544820746f20646973747269627574650000000000000000000000005f82015250565b5f611ec860148361169b565b9150611ed382611e94565b602082019050919050565b5f6020820190508181035f830152611ef581611ebc565b9050919050565b5f611f0682611384565b9150611f1183611384565b9250828202611f1f81611384565b91508282048414831517611f3657611f35611878565b5b5092915050565b7f4e487b71000000000000000000000000000000000000000000000000000000005f52601260045260245ffd5b5f611f7482611384565b9150611f7f83611384565b925082611f8f57611f8e611f3d565b5b828204905092915050565b5f8154611fa681611977565b611fb0818661169b565b9450600182165f8114611fca5760018114611fe057612012565b60ff198316865281151560200286019350612012565b611fe9856119a7565b5f5b8381101561200a57815481890152600182019150602081019050611feb565b808801955050505b50505092915050565b5f60608201905061202e5f83018661138d565b81810360208301526120408185611f9a565b905081810360408301526120548184611f9a565b9050949350505050565b5f819050919050565b5f61208161207c6120778461205e565b611a25565b611384565b9050919050565b61209181612067565b82525050565b5f6060820190506120aa5f830186612088565b81810360208301526120bc8185611f9a565b905081810360408301526120d08184611f9a565b905094935050505056fea264697066735822122055aef94ffa6988c435b541108d631fb6810861fe396ce53ff720bd6280c28fc164736f6c634300081a0033",
		"opcodes": "PUSH1 0x80 PUSH1 0x40 MSTORE CALLVALUE DUP1 ISZERO PUSH1 0xE JUMPI PUSH0 DUP1 REVERT JUMPDEST POP PUSH2 0x2110 DUP1 PUSH2 0x1C PUSH0 CODECOPY PUSH0 RETURN INVALID PUSH1 0x80 PUSH1 0x40 MSTORE PUSH1 0x4 CALLDATASIZE LT PUSH2 0x7A JUMPI PUSH0 CALLDATALOAD PUSH1 0xE0 SHR DUP1 PUSH4 0xA7F01E4D GT PUSH2 0x4D JUMPI DUP1 PUSH4 0xA7F01E4D EQ PUSH2 0x134 JUMPI DUP1 PUSH4 0xB0DAEB1C EQ PUSH2 0x170 JUMPI DUP1 PUSH4 0xE7DDA555 EQ PUSH2 0x18C JUMPI DUP1 PUSH4 0xE854D135 EQ PUSH2 0x1C8 JUMPI PUSH2 0x7A JUMP JUMPDEST DUP1 PUSH4 0x2423C7F3 EQ PUSH2 0x7E JUMPI DUP1 PUSH4 0x4EBDE6D3 EQ PUSH2 0xBA JUMPI DUP1 PUSH4 0x549CC7B8 EQ PUSH2 0xE2 JUMPI DUP1 PUSH4 0x6F9B65F0 EQ PUSH2 0x11E JUMPI JUMPDEST PUSH0 DUP1 REVERT JUMPDEST CALLVALUE DUP1 ISZERO PUSH2 0x89 JUMPI PUSH0 DUP1 REVERT JUMPDEST POP PUSH2 0xA4 PUSH1 0x4 DUP1 CALLDATASIZE SUB DUP2 ADD SWAP1 PUSH2 0x9F SWAP2 SWAP1 PUSH2 0x1359 JUMP JUMPDEST PUSH2 0x1F0 JUMP JUMPDEST PUSH1 0x40 MLOAD PUSH2 0xB1 SWAP2 SWAP1 PUSH2 0x139C JUMP JUMPDEST PUSH1 0x40 MLOAD DUP1 SWAP2 SUB SWAP1 RETURN JUMPDEST CALLVALUE DUP1 ISZERO PUSH2 0xC5 JUMPI PUSH0 DUP1 REVERT JUMPDEST POP PUSH2 0xE0 PUSH1 0x4 DUP1 CALLDATASIZE SUB DUP2 ADD SWAP1 PUSH2 0xDB SWAP2 SWAP1 PUSH2 0x1556 JUMP JUMPDEST PUSH2 0x2C4 JUMP JUMPDEST STOP JUMPDEST CALLVALUE DUP1 ISZERO PUSH2 0xED JUMPI PUSH0 DUP1 REVERT JUMPDEST POP PUSH2 0x108 PUSH1 0x4 DUP1 CALLDATASIZE SUB DUP2 ADD SWAP1 PUSH2 0x103 SWAP2 SWAP1 PUSH2 0x1359 JUMP JUMPDEST PUSH2 0x691 JUMP JUMPDEST PUSH1 0x40 MLOAD PUSH2 0x115 SWAP2 SWAP1 PUSH2 0x160C JUMP JUMPDEST PUSH1 0x40 MLOAD DUP1 SWAP2 SUB SWAP1 RETURN JUMPDEST CALLVALUE DUP1 ISZERO PUSH2 0x129 JUMPI PUSH0 DUP1 REVERT JUMPDEST POP PUSH2 0x132 PUSH2 0x6AE JUMP JUMPDEST STOP JUMPDEST CALLVALUE DUP1 ISZERO PUSH2 0x13F JUMPI PUSH0 DUP1 REVERT JUMPDEST POP PUSH2 0x15A PUSH1 0x4 DUP1 CALLDATASIZE SUB DUP2 ADD SWAP1 PUSH2 0x155 SWAP2 SWAP1 PUSH2 0x1359 JUMP JUMPDEST PUSH2 0x809 JUMP JUMPDEST PUSH1 0x40 MLOAD PUSH2 0x167 SWAP2 SWAP1 PUSH2 0x139C JUMP JUMPDEST PUSH1 0x40 MLOAD DUP1 SWAP2 SUB SWAP1 RETURN JUMPDEST PUSH2 0x18A PUSH1 0x4 DUP1 CALLDATASIZE SUB DUP2 ADD SWAP1 PUSH2 0x185 SWAP2 SWAP1 PUSH2 0x1625 JUMP JUMPDEST PUSH2 0x8DA JUMP JUMPDEST STOP JUMPDEST CALLVALUE DUP1 ISZERO PUSH2 0x197 JUMPI PUSH0 DUP1 REVERT JUMPDEST POP PUSH2 0x1B2 PUSH1 0x4 DUP1 CALLDATASIZE SUB DUP2 ADD SWAP1 PUSH2 0x1AD SWAP2 SWAP1 PUSH2 0x1359 JUMP JUMPDEST PUSH2 0xC88 JUMP JUMPDEST PUSH1 0x40 MLOAD PUSH2 0x1BF SWAP2 SWAP1 PUSH2 0x160C JUMP JUMPDEST PUSH1 0x40 MLOAD DUP1 SWAP2 SUB SWAP1 RETURN JUMPDEST CALLVALUE DUP1 ISZERO PUSH2 0x1D3 JUMPI PUSH0 DUP1 REVERT JUMPDEST POP PUSH2 0x1EE PUSH1 0x4 DUP1 CALLDATASIZE SUB DUP2 ADD SWAP1 PUSH2 0x1E9 SWAP2 SWAP1 PUSH2 0x1359 JUMP JUMPDEST PUSH2 0xD65 JUMP JUMPDEST STOP JUMPDEST PUSH0 PUSH1 0x1 PUSH0 DUP4 PUSH20 0xFFFFFFFFFFFFFFFFFFFFFFFFFFFFFFFFFFFFFFFF AND PUSH20 0xFFFFFFFFFFFFFFFFFFFFFFFFFFFFFFFFFFFFFFFF AND DUP2 MSTORE PUSH1 0x20 ADD SWAP1 DUP2 MSTORE PUSH1 0x20 ADD PUSH0 KECCAK256 PUSH0 SWAP1 SLOAD SWAP1 PUSH2 0x100 EXP SWAP1 DIV PUSH1 0xFF AND PUSH2 0x27A JUMPI PUSH1 0x40 MLOAD PUSH32 0x8C379A000000000000000000000000000000000000000000000000000000000 DUP2 MSTORE PUSH1 0x4 ADD PUSH2 0x271 SWAP1 PUSH2 0x16F5 JUMP JUMPDEST PUSH1 0x40 MLOAD DUP1 SWAP2 SUB SWAP1 REVERT JUMPDEST PUSH0 DUP1 DUP4 PUSH20 0xFFFFFFFFFFFFFFFFFFFFFFFFFFFFFFFFFFFFFFFF AND PUSH20 0xFFFFFFFFFFFFFFFFFFFFFFFFFFFFFFFFFFFFFFFF AND DUP2 MSTORE PUSH1 0x20 ADD SWAP1 DUP2 MSTORE PUSH1 0x20 ADD PUSH0 KECCAK256 PUSH1 0x7 ADD DUP1 SLOAD SWAP1 POP SWAP1 POP SWAP2 SWAP1 POP JUMP JUMPDEST PUSH1 0x1 PUSH0 CALLER PUSH20 0xFFFFFFFFFFFFFFFFFFFFFFFFFFFFFFFFFFFFFFFF AND PUSH20 0xFFFFFFFFFFFFFFFFFFFFFFFFFFFFFFFFFFFFFFFF AND DUP2 MSTORE PUSH1 0x20 ADD SWAP1 DUP2 MSTORE PUSH1 0x20 ADD PUSH0 KECCAK256 PUSH0 SWAP1 SLOAD SWAP1 PUSH2 0x100 EXP SWAP1 DIV PUSH1 0xFF AND PUSH2 0x34D JUMPI PUSH1 0x40 MLOAD PUSH32 0x8C379A000000000000000000000000000000000000000000000000000000000 DUP2 MSTORE PUSH1 0x4 ADD PUSH2 0x344 SWAP1 PUSH2 0x175D JUMP JUMPDEST PUSH1 0x40 MLOAD DUP1 SWAP2 SUB SWAP1 REVERT JUMPDEST PUSH0 PUSH20 0xFFFFFFFFFFFFFFFFFFFFFFFFFFFFFFFFFFFFFFFF AND DUP5 PUSH20 0xFFFFFFFFFFFFFFFFFFFFFFFFFFFFFFFFFFFFFFFF AND SUB PUSH2 0x3BB JUMPI PUSH1 0x40 MLOAD PUSH32 0x8C379A000000000000000000000000000000000000000000000000000000000 DUP2 MSTORE PUSH1 0x4 ADD PUSH2 0x3B2 SWAP1 PUSH2 0x17C5 JUMP JUMPDEST PUSH1 0x40 MLOAD DUP1 SWAP2 SUB SWAP1 REVERT JUMPDEST PUSH0 DUP4 GT DUP1 ISZERO PUSH2 0x3CB JUMPI POP PUSH1 0x64 DUP4 GT ISZERO JUMPDEST PUSH2 0x40A JUMPI PUSH1 0x40 MLOAD PUSH32 0x8C379A000000000000000000000000000000000000000000000000000000000 DUP2 MSTORE PUSH1 0x4 ADD PUSH2 0x401 SWAP1 PUSH2 0x182D JUMP JUMPDEST PUSH1 0x40 MLOAD DUP1 SWAP2 SUB SWAP1 REVERT JUMPDEST PUSH0 DUP1 JUMPDEST PUSH0 DUP1 CALLER PUSH20 0xFFFFFFFFFFFFFFFFFFFFFFFFFFFFFFFFFFFFFFFF AND PUSH20 0xFFFFFFFFFFFFFFFFFFFFFFFFFFFFFFFFFFFFFFFF AND DUP2 MSTORE PUSH1 0x20 ADD SWAP1 DUP2 MSTORE PUSH1 0x20 ADD PUSH0 KECCAK256 PUSH1 0x7 ADD DUP1 SLOAD SWAP1 POP DUP2 LT ISZERO PUSH2 0x4D2 JUMPI PUSH0 DUP1 CALLER PUSH20 0xFFFFFFFFFFFFFFFFFFFFFFFFFFFFFFFFFFFFFFFF AND PUSH20 0xFFFFFFFFFFFFFFFFFFFFFFFFFFFFFFFFFFFFFFFF AND DUP2 MSTORE PUSH1 0x20 ADD SWAP1 DUP2 MSTORE PUSH1 0x20 ADD PUSH0 KECCAK256 PUSH1 0x7 ADD DUP2 DUP2 SLOAD DUP2 LT PUSH2 0x4A8 JUMPI PUSH2 0x4A7 PUSH2 0x184B JUMP JUMPDEST JUMPDEST SWAP1 PUSH0 MSTORE PUSH1 0x20 PUSH0 KECCAK256 SWAP1 PUSH1 0x4 MUL ADD PUSH1 0x1 ADD SLOAD DUP3 PUSH2 0x4C3 SWAP2 SWAP1 PUSH2 0x18A5 JUMP JUMPDEST SWAP2 POP DUP1 DUP1 PUSH1 0x1 ADD SWAP2 POP POP PUSH2 0x40D JUMP JUMPDEST POP PUSH1 0x64 DUP5 DUP3 PUSH2 0x4E1 SWAP2 SWAP1 PUSH2 0x18A5 JUMP JUMPDEST GT ISZERO PUSH2 0x522 JUMPI PUSH1 0x40 MLOAD PUSH32 0x8C379A000000000000000000000000000000000000000000000000000000000 DUP2 MSTORE PUSH1 0x4 ADD PUSH2 0x519 SWAP1 PUSH2 0x1922 JUMP JUMPDEST PUSH1 0x40 MLOAD DUP1 SWAP2 SUB SWAP1 REVERT JUMPDEST PUSH0 DUP1 CALLER PUSH20 0xFFFFFFFFFFFFFFFFFFFFFFFFFFFFFFFFFFFFFFFF AND PUSH20 0xFFFFFFFFFFFFFFFFFFFFFFFFFFFFFFFFFFFFFFFF AND DUP2 MSTORE PUSH1 0x20 ADD SWAP1 DUP2 MSTORE PUSH1 0x20 ADD PUSH0 KECCAK256 PUSH1 0x7 ADD PUSH1 0x40 MLOAD DUP1 PUSH1 0x80 ADD PUSH1 0x40 MSTORE DUP1 DUP8 PUSH20 0xFFFFFFFFFFFFFFFFFFFFFFFFFFFFFFFFFFFFFFFF AND DUP2 MSTORE PUSH1 0x20 ADD DUP7 DUP2 MSTORE PUSH1 0x20 ADD DUP6 DUP2 MSTORE PUSH1 0x20 ADD DUP5 DUP2 MSTORE POP SWAP1 DUP1 PUSH1 0x1 DUP2 SLOAD ADD DUP1 DUP3 SSTORE DUP1 SWAP2 POP POP PUSH1 0x1 SWAP1 SUB SWAP1 PUSH0 MSTORE PUSH1 0x20 PUSH0 KECCAK256 SWAP1 PUSH1 0x4 MUL ADD PUSH0 SWAP1 SWAP2 SWAP1 SWAP2 SWAP1 SWAP2 POP PUSH0 DUP3 ADD MLOAD DUP2 PUSH0 ADD PUSH0 PUSH2 0x100 EXP DUP2 SLOAD DUP2 PUSH20 0xFFFFFFFFFFFFFFFFFFFFFFFFFFFFFFFFFFFFFFFF MUL NOT AND SWAP1 DUP4 PUSH20 0xFFFFFFFFFFFFFFFFFFFFFFFFFFFFFFFFFFFFFFFF AND MUL OR SWAP1 SSTORE POP PUSH1 0x20 DUP3 ADD MLOAD DUP2 PUSH1 0x1 ADD SSTORE PUSH1 0x40 DUP3 ADD MLOAD DUP2 PUSH1 0x2 ADD SWAP1 DUP2 PUSH2 0x621 SWAP2 SWAP1 PUSH2 0x1B44 JUMP JUMPDEST POP PUSH1 0x60 DUP3 ADD MLOAD DUP2 PUSH1 0x3 ADD SWAP1 DUP2 PUSH2 0x637 SWAP2 SWAP1 PUSH2 0x1B44 JUMP JUMPDEST POP POP POP CALLER PUSH20 0xFFFFFFFFFFFFFFFFFFFFFFFFFFFFFFFFFFFFFFFF AND PUSH32 0x5D081D791B64899ADAB031015397EF8D7600501212EF97573B9E50F8C9BB6D9B DUP7 DUP7 PUSH1 0x40 MLOAD PUSH2 0x682 SWAP3 SWAP2 SWAP1 PUSH2 0x1C65 JUMP JUMPDEST PUSH1 0x40 MLOAD DUP1 SWAP2 SUB SWAP1 LOG2 POP POP POP POP POP JUMP JUMPDEST PUSH1 0x1 PUSH1 0x20 MSTORE DUP1 PUSH0 MSTORE PUSH1 0x40 PUSH0 KECCAK256 PUSH0 SWAP2 POP SLOAD SWAP1 PUSH2 0x100 EXP SWAP1 DIV PUSH1 0xFF AND DUP2 JUMP JUMPDEST PUSH1 0x1 PUSH0 CALLER PUSH20 0xFFFFFFFFFFFFFFFFFFFFFFFFFFFFFFFFFFFFFFFF AND PUSH20 0xFFFFFFFFFFFFFFFFFFFFFFFFFFFFFFFFFFFFFFFF AND DUP2 MSTORE PUSH1 0x20 ADD SWAP1 DUP2 MSTORE PUSH1 0x20 ADD PUSH0 KECCAK256 PUSH0 SWAP1 SLOAD SWAP1 PUSH2 0x100 EXP SWAP1 DIV PUSH1 0xFF AND PUSH2 0x737 JUMPI PUSH1 0x40 MLOAD PUSH32 0x8C379A000000000000000000000000000000000000000000000000000000000 DUP2 MSTORE PUSH1 0x4 ADD PUSH2 0x72E SWAP1 PUSH2 0x1CD6 JUMP JUMPDEST PUSH1 0x40 MLOAD DUP1 SWAP2 SUB SWAP1 REVERT JUMPDEST PUSH0 DUP1 CALLER PUSH20 0xFFFFFFFFFFFFFFFFFFFFFFFFFFFFFFFFFFFFFFFF AND PUSH20 0xFFFFFFFFFFFFFFFFFFFFFFFFFFFFFFFFFFFFFFFF AND DUP2 MSTORE PUSH1 0x20 ADD SWAP1 DUP2 MSTORE PUSH1 0x20 ADD PUSH0 KECCAK256 PUSH1 0x6 ADD PUSH0 SWAP1 SLOAD SWAP1 PUSH2 0x100 EXP SWAP1 DIV PUSH1 0xFF AND ISZERO PUSH2 0x7C3 JUMPI PUSH1 0x40 MLOAD PUSH32 0x8C379A000000000000000000000000000000000000000000000000000000000 DUP2 MSTORE PUSH1 0x4 ADD PUSH2 0x7BA SWAP1 PUSH2 0x1D3E JUMP JUMPDEST PUSH1 0x40 MLOAD DUP1 SWAP2 SUB SWAP1 REVERT JUMPDEST TIMESTAMP PUSH0 DUP1 CALLER PUSH20 0xFFFFFFFFFFFFFFFFFFFFFFFFFFFFFFFFFFFFFFFF AND PUSH20 0xFFFFFFFFFFFFFFFFFFFFFFFFFFFFFFFFFFFFFFFF AND DUP2 MSTORE PUSH1 0x20 ADD SWAP1 DUP2 MSTORE PUSH1 0x20 ADD PUSH0 KECCAK256 PUSH1 0x4 ADD DUP2 SWAP1 SSTORE POP JUMP JUMPDEST PUSH0 PUSH1 0x1 PUSH0 DUP4 PUSH20 0xFFFFFFFFFFFFFFFFFFFFFFFFFFFFFFFFFFFFFFFF AND PUSH20 0xFFFFFFFFFFFFFFFFFFFFFFFFFFFFFFFFFFFFFFFF AND DUP2 MSTORE PUSH1 0x20 ADD SWAP1 DUP2 MSTORE PUSH1 0x20 ADD PUSH0 KECCAK256 PUSH0 SWAP1 SLOAD SWAP1 PUSH2 0x100 EXP SWAP1 DIV PUSH1 0xFF AND PUSH2 0x893 JUMPI PUSH1 0x40 MLOAD PUSH32 0x8C379A000000000000000000000000000000000000000000000000000000000 DUP2 MSTORE PUSH1 0x4 ADD PUSH2 0x88A SWAP1 PUSH2 0x16F5 JUMP JUMPDEST PUSH1 0x40 MLOAD DUP1 SWAP2 SUB SWAP1 REVERT JUMPDEST PUSH0 DUP1 DUP4 PUSH20 0xFFFFFFFFFFFFFFFFFFFFFFFFFFFFFFFFFFFFFFFF AND PUSH20 0xFFFFFFFFFFFFFFFFFFFFFFFFFFFFFFFFFFFFFFFF AND DUP2 MSTORE PUSH1 0x20 ADD SWAP1 DUP2 MSTORE PUSH1 0x20 ADD PUSH0 KECCAK256 PUSH1 0x3 ADD SLOAD SWAP1 POP SWAP2 SWAP1 POP JUMP JUMPDEST PUSH1 0x1 PUSH0 CALLER PUSH20 0xFFFFFFFFFFFFFFFFFFFFFFFFFFFFFFFFFFFFFFFF AND PUSH20 0xFFFFFFFFFFFFFFFFFFFFFFFFFFFFFFFFFFFFFFFF AND DUP2 MSTORE PUSH1 0x20 ADD SWAP1 DUP2 MSTORE PUSH1 0x20 ADD PUSH0 KECCAK256 PUSH0 SWAP1 SLOAD SWAP1 PUSH2 0x100 EXP SWAP1 DIV PUSH1 0xFF AND ISZERO PUSH2 0x964 JUMPI PUSH1 0x40 MLOAD PUSH32 0x8C379A000000000000000000000000000000000000000000000000000000000 DUP2 MSTORE PUSH1 0x4 ADD PUSH2 0x95B SWAP1 PUSH2 0x1DA6 JUMP JUMPDEST PUSH1 0x40 MLOAD DUP1 SWAP2 SUB SWAP1 REVERT JUMPDEST PUSH0 CALLVALUE GT PUSH2 0x9A6 JUMPI PUSH1 0x40 MLOAD PUSH32 0x8C379A000000000000000000000000000000000000000000000000000000000 DUP2 MSTORE PUSH1 0x4 ADD PUSH2 0x99D SWAP1 PUSH2 0x1E0E JUMP JUMPDEST PUSH1 0x40 MLOAD DUP1 SWAP2 SUB SWAP1 REVERT JUMPDEST CALLER PUSH0 DUP1 CALLER PUSH20 0xFFFFFFFFFFFFFFFFFFFFFFFFFFFFFFFFFFFFFFFF AND PUSH20 0xFFFFFFFFFFFFFFFFFFFFFFFFFFFFFFFFFFFFFFFF AND DUP2 MSTORE PUSH1 0x20 ADD SWAP1 DUP2 MSTORE PUSH1 0x20 ADD PUSH0 KECCAK256 PUSH0 ADD PUSH0 PUSH2 0x100 EXP DUP2 SLOAD DUP2 PUSH20 0xFFFFFFFFFFFFFFFFFFFFFFFFFFFFFFFFFFFFFFFF MUL NOT AND SWAP1 DUP4 PUSH20 0xFFFFFFFFFFFFFFFFFFFFFFFFFFFFFFFFFFFFFFFF AND MUL OR SWAP1 SSTORE POP DUP2 PUSH0 DUP1 CALLER PUSH20 0xFFFFFFFFFFFFFFFFFFFFFFFFFFFFFFFFFFFFFFFF AND PUSH20 0xFFFFFFFFFFFFFFFFFFFFFFFFFFFFFFFFFFFFFFFF AND DUP2 MSTORE PUSH1 0x20 ADD SWAP1 DUP2 MSTORE PUSH1 0x20 ADD PUSH0 KECCAK256 PUSH1 0x1 ADD SWAP1 DUP2 PUSH2 0xA6E SWAP2 SWAP1 PUSH2 0x1B44 JUMP JUMPDEST POP DUP1 PUSH0 DUP1 CALLER PUSH20 0xFFFFFFFFFFFFFFFFFFFFFFFFFFFFFFFFFFFFFFFF AND PUSH20 0xFFFFFFFFFFFFFFFFFFFFFFFFFFFFFFFFFFFFFFFF AND DUP2 MSTORE PUSH1 0x20 ADD SWAP1 DUP2 MSTORE PUSH1 0x20 ADD PUSH0 KECCAK256 PUSH1 0x2 ADD SWAP1 DUP2 PUSH2 0xABB SWAP2 SWAP1 PUSH2 0x1B44 JUMP JUMPDEST POP CALLVALUE PUSH0 DUP1 CALLER PUSH20 0xFFFFFFFFFFFFFFFFFFFFFFFFFFFFFFFFFFFFFFFF AND PUSH20 0xFFFFFFFFFFFFFFFFFFFFFFFFFFFFFFFFFFFFFFFF AND DUP2 MSTORE PUSH1 0x20 ADD SWAP1 DUP2 MSTORE PUSH1 0x20 ADD PUSH0 KECCAK256 PUSH1 0x3 ADD DUP2 SWAP1 SSTORE POP TIMESTAMP PUSH0 DUP1 CALLER PUSH20 0xFFFFFFFFFFFFFFFFFFFFFFFFFFFFFFFFFFFFFFFF AND PUSH20 0xFFFFFFFFFFFFFFFFFFFFFFFFFFFFFFFFFFFFFFFF AND DUP2 MSTORE PUSH1 0x20 ADD SWAP1 DUP2 MSTORE PUSH1 0x20 ADD PUSH0 KECCAK256 PUSH1 0x4 ADD DUP2 SWAP1 SSTORE POP PUSH4 0x1E13380 PUSH0 DUP1 CALLER PUSH20 0xFFFFFFFFFFFFFFFFFFFFFFFFFFFFFFFFFFFFFFFF AND PUSH20 0xFFFFFFFFFFFFFFFFFFFFFFFFFFFFFFFFFFFFFFFF AND DUP2 MSTORE PUSH1 0x20 ADD SWAP1 DUP2 MSTORE PUSH1 0x20 ADD PUSH0 KECCAK256 PUSH1 0x5 ADD DUP2 SWAP1 SSTORE POP PUSH0 DUP1 PUSH0 CALLER PUSH20 0xFFFFFFFFFFFFFFFFFFFFFFFFFFFFFFFFFFFFFFFF AND PUSH20 0xFFFFFFFFFFFFFFFFFFFFFFFFFFFFFFFFFFFFFFFF AND DUP2 MSTORE PUSH1 0x20 ADD SWAP1 DUP2 MSTORE PUSH1 0x20 ADD PUSH0 KECCAK256 PUSH1 0x6 ADD PUSH0 PUSH2 0x100 EXP DUP2 SLOAD DUP2 PUSH1 0xFF MUL NOT AND SWAP1 DUP4 ISZERO ISZERO MUL OR SWAP1 SSTORE POP PUSH1 0x1 DUP1 PUSH0 CALLER PUSH20 0xFFFFFFFFFFFFFFFFFFFFFFFFFFFFFFFFFFFFFFFF AND PUSH20 0xFFFFFFFFFFFFFFFFFFFFFFFFFFFFFFFFFFFFFFFF AND DUP2 MSTORE PUSH1 0x20 ADD SWAP1 DUP2 MSTORE PUSH1 0x20 ADD PUSH0 KECCAK256 PUSH0 PUSH2 0x100 EXP DUP2 SLOAD DUP2 PUSH1 0xFF MUL NOT AND SWAP1 DUP4 ISZERO ISZERO MUL OR SWAP1 SSTORE POP CALLER PUSH20 0xFFFFFFFFFFFFFFFFFFFFFFFFFFFFFFFFFFFFFFFF AND PUSH32 0xD40DC4A639C90600691397F655099ADBA04D6B763EF2122630EDD47C09F1B6F9 CALLVALUE PUSH1 0x40 MLOAD PUSH2 0xC7C SWAP2 SWAP1 PUSH2 0x139C JUMP JUMPDEST PUSH1 0x40 MLOAD DUP1 SWAP2 SUB SWAP1 LOG2 POP POP JUMP JUMPDEST PUSH0 PUSH1 0x1 PUSH0 DUP4 PUSH20 0xFFFFFFFFFFFFFFFFFFFFFFFFFFFFFFFFFFFFFFFF AND PUSH20 0xFFFFFFFFFFFFFFFFFFFFFFFFFFFFFFFFFFFFFFFF AND DUP2 MSTORE PUSH1 0x20 ADD SWAP1 DUP2 MSTORE PUSH1 0x20 ADD PUSH0 KECCAK256 PUSH0 SWAP1 SLOAD SWAP1 PUSH2 0x100 EXP SWAP1 DIV PUSH1 0xFF AND PUSH2 0xD12 JUMPI PUSH1 0x40 MLOAD PUSH32 0x8C379A000000000000000000000000000000000000000000000000000000000 DUP2 MSTORE PUSH1 0x4 ADD PUSH2 0xD09 SWAP1 PUSH2 0x16F5 JUMP JUMPDEST PUSH1 0x40 MLOAD DUP1 SWAP2 SUB SWAP1 REVERT JUMPDEST PUSH0 DUP1 DUP4 PUSH20 0xFFFFFFFFFFFFFFFFFFFFFFFFFFFFFFFFFFFFFFFF AND PUSH20 0xFFFFFFFFFFFFFFFFFFFFFFFFFFFFFFFFFFFFFFFF AND DUP2 MSTORE PUSH1 0x20 ADD SWAP1 DUP2 MSTORE PUSH1 0x20 ADD PUSH0 KECCAK256 PUSH1 0x6 ADD PUSH0 SWAP1 SLOAD SWAP1 PUSH2 0x100 EXP SWAP1 DIV PUSH1 0xFF AND SWAP1 POP SWAP2 SWAP1 POP JUMP JUMPDEST PUSH1 0x1 PUSH0 DUP3 PUSH20 0xFFFFFFFFFFFFFFFFFFFFFFFFFFFFFFFFFFFFFFFF AND PUSH20 0xFFFFFFFFFFFFFFFFFFFFFFFFFFFFFFFFFFFFFFFF AND DUP2 MSTORE PUSH1 0x20 ADD SWAP1 DUP2 MSTORE PUSH1 0x20 ADD PUSH0 KECCAK256 PUSH0 SWAP1 SLOAD SWAP1 PUSH2 0x100 EXP SWAP1 DIV PUSH1 0xFF AND PUSH2 0xDEE JUMPI PUSH1 0x40 MLOAD PUSH32 0x8C379A000000000000000000000000000000000000000000000000000000000 DUP2 MSTORE PUSH1 0x4 ADD PUSH2 0xDE5 SWAP1 PUSH2 0x16F5 JUMP JUMPDEST PUSH1 0x40 MLOAD DUP1 SWAP2 SUB SWAP1 REVERT JUMPDEST PUSH0 DUP1 DUP3 PUSH20 0xFFFFFFFFFFFFFFFFFFFFFFFFFFFFFFFFFFFFFFFF AND PUSH20 0xFFFFFFFFFFFFFFFFFFFFFFFFFFFFFFFFFFFFFFFF AND DUP2 MSTORE PUSH1 0x20 ADD SWAP1 DUP2 MSTORE PUSH1 0x20 ADD PUSH0 KECCAK256 PUSH1 0x5 ADD SLOAD PUSH0 DUP1 DUP4 PUSH20 0xFFFFFFFFFFFFFFFFFFFFFFFFFFFFFFFFFFFFFFFF AND PUSH20 0xFFFFFFFFFFFFFFFFFFFFFFFFFFFFFFFFFFFFFFFF AND DUP2 MSTORE PUSH1 0x20 ADD SWAP1 DUP2 MSTORE PUSH1 0x20 ADD PUSH0 KECCAK256 PUSH1 0x4 ADD SLOAD PUSH2 0xE78 SWAP2 SWAP1 PUSH2 0x18A5 JUMP JUMPDEST TIMESTAMP GT PUSH2 0xEB9 JUMPI PUSH1 0x40 MLOAD PUSH32 0x8C379A000000000000000000000000000000000000000000000000000000000 DUP2 MSTORE PUSH1 0x4 ADD PUSH2 0xEB0 SWAP1 PUSH2 0x1E76 JUMP JUMPDEST PUSH1 0x40 MLOAD DUP1 SWAP2 SUB SWAP1 REVERT JUMPDEST PUSH0 DUP1 DUP3 PUSH20 0xFFFFFFFFFFFFFFFFFFFFFFFFFFFFFFFFFFFFFFFF AND PUSH20 0xFFFFFFFFFFFFFFFFFFFFFFFFFFFFFFFFFFFFFFFF AND DUP2 MSTORE PUSH1 0x20 ADD SWAP1 DUP2 MSTORE PUSH1 0x20 ADD PUSH0 KECCAK256 PUSH1 0x6 ADD PUSH0 SWAP1 SLOAD SWAP1 PUSH2 0x100 EXP SWAP1 DIV PUSH1 0xFF AND ISZERO PUSH2 0xF45 JUMPI PUSH1 0x40 MLOAD PUSH32 0x8C379A000000000000000000000000000000000000000000000000000000000 DUP2 MSTORE PUSH1 0x4 ADD PUSH2 0xF3C SWAP1 PUSH2 0x1D3E JUMP JUMPDEST PUSH1 0x40 MLOAD DUP1 SWAP2 SUB SWAP1 REVERT JUMPDEST PUSH1 0x1 PUSH0 DUP1 DUP4 PUSH20 0xFFFFFFFFFFFFFFFFFFFFFFFFFFFFFFFFFFFFFFFF AND PUSH20 0xFFFFFFFFFFFFFFFFFFFFFFFFFFFFFFFFFFFFFFFF AND DUP2 MSTORE PUSH1 0x20 ADD SWAP1 DUP2 MSTORE PUSH1 0x20 ADD PUSH0 KECCAK256 PUSH1 0x6 ADD PUSH0 PUSH2 0x100 EXP DUP2 SLOAD DUP2 PUSH1 0xFF MUL NOT AND SWAP1 DUP4 ISZERO ISZERO MUL OR SWAP1 SSTORE POP PUSH0 DUP1 PUSH0 DUP4 PUSH20 0xFFFFFFFFFFFFFFFFFFFFFFFFFFFFFFFFFFFFFFFF AND PUSH20 0xFFFFFFFFFFFFFFFFFFFFFFFFFFFFFFFFFFFFFFFF AND DUP2 MSTORE PUSH1 0x20 ADD SWAP1 DUP2 MSTORE PUSH1 0x20 ADD PUSH0 KECCAK256 PUSH1 0x3 ADD SLOAD SWAP1 POP PUSH0 DUP2 GT PUSH2 0x1021 JUMPI PUSH1 0x40 MLOAD PUSH32 0x8C379A000000000000000000000000000000000000000000000000000000000 DUP2 MSTORE PUSH1 0x4 ADD PUSH2 0x1018 SWAP1 PUSH2 0x1EDE JUMP JUMPDEST PUSH1 0x40 MLOAD DUP1 SWAP2 SUB SWAP1 REVERT JUMPDEST PUSH0 JUMPDEST PUSH0 DUP1 DUP5 PUSH20 0xFFFFFFFFFFFFFFFFFFFFFFFFFFFFFFFFFFFFFFFF AND PUSH20 0xFFFFFFFFFFFFFFFFFFFFFFFFFFFFFFFFFFFFFFFF AND DUP2 MSTORE PUSH1 0x20 ADD SWAP1 DUP2 MSTORE PUSH1 0x20 ADD PUSH0 KECCAK256 PUSH1 0x7 ADD DUP1 SLOAD SWAP1 POP DUP2 LT ISZERO PUSH2 0x1262 JUMPI PUSH0 DUP1 PUSH0 DUP6 PUSH20 0xFFFFFFFFFFFFFFFFFFFFFFFFFFFFFFFFFFFFFFFF AND PUSH20 0xFFFFFFFFFFFFFFFFFFFFFFFFFFFFFFFFFFFFFFFF AND DUP2 MSTORE PUSH1 0x20 ADD SWAP1 DUP2 MSTORE PUSH1 0x20 ADD PUSH0 KECCAK256 PUSH1 0x7 ADD DUP3 DUP2 SLOAD DUP2 LT PUSH2 0x10BF JUMPI PUSH2 0x10BE PUSH2 0x184B JUMP JUMPDEST JUMPDEST SWAP1 PUSH0 MSTORE PUSH1 0x20 PUSH0 KECCAK256 SWAP1 PUSH1 0x4 MUL ADD SWAP1 POP PUSH0 PUSH1 0x64 DUP3 PUSH1 0x1 ADD SLOAD DUP6 PUSH2 0x10E0 SWAP2 SWAP1 PUSH2 0x1EFC JUMP JUMPDEST PUSH2 0x10EA SWAP2 SWAP1 PUSH2 0x1F6A JUMP JUMPDEST SWAP1 POP DUP1 SELFBALANCE LT PUSH2 0x11D8 JUMPI DUP2 PUSH0 ADD PUSH0 SWAP1 SLOAD SWAP1 PUSH2 0x100 EXP SWAP1 DIV PUSH20 0xFFFFFFFFFFFFFFFFFFFFFFFFFFFFFFFFFFFFFFFF AND PUSH20 0xFFFFFFFFFFFFFFFFFFFFFFFFFFFFFFFFFFFFFFFF AND PUSH2 0x8FC DUP3 SWAP1 DUP2 ISZERO MUL SWAP1 PUSH1 0x40 MLOAD PUSH0 PUSH1 0x40 MLOAD DUP1 DUP4 SUB DUP2 DUP6 DUP9 DUP9 CALL SWAP4 POP POP POP POP ISZERO DUP1 ISZERO PUSH2 0x1158 JUMPI RETURNDATASIZE PUSH0 DUP1 RETURNDATACOPY RETURNDATASIZE PUSH0 REVERT JUMPDEST POP DUP2 PUSH0 ADD PUSH0 SWAP1 SLOAD SWAP1 PUSH2 0x100 EXP SWAP1 DIV PUSH20 0xFFFFFFFFFFFFFFFFFFFFFFFFFFFFFFFFFFFFFFFF AND PUSH20 0xFFFFFFFFFFFFFFFFFFFFFFFFFFFFFFFFFFFFFFFF AND PUSH32 0xCEB720B06C310EDC215BEE81670832BB918BA1199F401716364414DDB9B816A7 DUP3 DUP5 PUSH1 0x2 ADD DUP6 PUSH1 0x3 ADD PUSH1 0x40 MLOAD PUSH2 0x11CB SWAP4 SWAP3 SWAP2 SWAP1 PUSH2 0x201B JUMP JUMPDEST PUSH1 0x40 MLOAD DUP1 SWAP2 SUB SWAP1 LOG2 PUSH2 0x1253 JUMP JUMPDEST DUP2 PUSH0 ADD PUSH0 SWAP1 SLOAD SWAP1 PUSH2 0x100 EXP SWAP1 DIV PUSH20 0xFFFFFFFFFFFFFFFFFFFFFFFFFFFFFFFFFFFFFFFF AND PUSH20 0xFFFFFFFFFFFFFFFFFFFFFFFFFFFFFFFFFFFFFFFF AND PUSH32 0xCEB720B06C310EDC215BEE81670832BB918BA1199F401716364414DDB9B816A7 PUSH0 DUP5 PUSH1 0x2 ADD DUP6 PUSH1 0x3 ADD PUSH1 0x40 MLOAD PUSH2 0x124A SWAP4 SWAP3 SWAP2 SWAP1 PUSH2 0x2097 JUMP JUMPDEST PUSH1 0x40 MLOAD DUP1 SWAP2 SUB SWAP1 LOG2 JUMPDEST POP POP DUP1 DUP1 PUSH1 0x1 ADD SWAP2 POP POP PUSH2 0x1023 JUMP JUMPDEST POP PUSH0 DUP1 PUSH0 DUP5 PUSH20 0xFFFFFFFFFFFFFFFFFFFFFFFFFFFFFFFFFFFFFFFF AND PUSH20 0xFFFFFFFFFFFFFFFFFFFFFFFFFFFFFFFFFFFFFFFF AND DUP2 MSTORE PUSH1 0x20 ADD SWAP1 DUP2 MSTORE PUSH1 0x20 ADD PUSH0 KECCAK256 PUSH1 0x3 ADD DUP2 SWAP1 SSTORE POP DUP2 PUSH20 0xFFFFFFFFFFFFFFFFFFFFFFFFFFFFFFFFFFFFFFFF AND PUSH32 0x16346F65ADF8D84422B57AD74CB5607BF6C9E55C3C1FEA66344057E5BBA8A7EE PUSH1 0x40 MLOAD PUSH1 0x40 MLOAD DUP1 SWAP2 SUB SWAP1 LOG2 POP POP JUMP JUMPDEST PUSH0 PUSH1 0x40 MLOAD SWAP1 POP SWAP1 JUMP JUMPDEST PUSH0 DUP1 REVERT JUMPDEST PUSH0 DUP1 REVERT JUMPDEST PUSH0 PUSH20 0xFFFFFFFFFFFFFFFFFFFFFFFFFFFFFFFFFFFFFFFF DUP3 AND SWAP1 POP SWAP2 SWAP1 POP JUMP JUMPDEST PUSH0 PUSH2 0x1328 DUP3 PUSH2 0x12FF JUMP JUMPDEST SWAP1 POP SWAP2 SWAP1 POP JUMP JUMPDEST PUSH2 0x1338 DUP2 PUSH2 0x131E JUMP JUMPDEST DUP2 EQ PUSH2 0x1342 JUMPI PUSH0 DUP1 REVERT JUMPDEST POP JUMP JUMPDEST PUSH0 DUP2 CALLDATALOAD SWAP1 POP PUSH2 0x1353 DUP2 PUSH2 0x132F JUMP JUMPDEST SWAP3 SWAP2 POP POP JUMP JUMPDEST PUSH0 PUSH1 0x20 DUP3 DUP5 SUB SLT ISZERO PUSH2 0x136E JUMPI PUSH2 0x136D PUSH2 0x12F7 JUMP JUMPDEST JUMPDEST PUSH0 PUSH2 0x137B DUP5 DUP3 DUP6 ADD PUSH2 0x1345 JUMP JUMPDEST SWAP2 POP POP SWAP3 SWAP2 POP POP JUMP JUMPDEST PUSH0 DUP2 SWAP1 POP SWAP2 SWAP1 POP JUMP JUMPDEST PUSH2 0x1396 DUP2 PUSH2 0x1384 JUMP JUMPDEST DUP3 MSTORE POP POP JUMP JUMPDEST PUSH0 PUSH1 0x20 DUP3 ADD SWAP1 POP PUSH2 0x13AF PUSH0 DUP4 ADD DUP5 PUSH2 0x138D JUMP JUMPDEST SWAP3 SWAP2 POP POP JUMP JUMPDEST PUSH0 PUSH2 0x13BF DUP3 PUSH2 0x12FF JUMP JUMPDEST SWAP1 POP SWAP2 SWAP1 POP JUMP JUMPDEST PUSH2 0x13CF DUP2 PUSH2 0x13B5 JUMP JUMPDEST DUP2 EQ PUSH2 0x13D9 JUMPI PUSH0 DUP1 REVERT JUMPDEST POP JUMP JUMPDEST PUSH0 DUP2 CALLDATALOAD SWAP1 POP PUSH2 0x13EA DUP2 PUSH2 0x13C6 JUMP JUMPDEST SWAP3 SWAP2 POP POP JUMP JUMPDEST PUSH2 0x13F9 DUP2 PUSH2 0x1384 JUMP JUMPDEST DUP2 EQ PUSH2 0x1403 JUMPI PUSH0 DUP1 REVERT JUMPDEST POP JUMP JUMPDEST PUSH0 DUP2 CALLDATALOAD SWAP1 POP PUSH2 0x1414 DUP2 PUSH2 0x13F0 JUMP JUMPDEST SWAP3 SWAP2 POP POP JUMP JUMPDEST PUSH0 DUP1 REVERT JUMPDEST PUSH0 DUP1 REVERT JUMPDEST PUSH0 PUSH1 0x1F NOT PUSH1 0x1F DUP4 ADD AND SWAP1 POP SWAP2 SWAP1 POP JUMP JUMPDEST PUSH32 0x4E487B7100000000000000000000000000000000000000000000000000000000 PUSH0 MSTORE PUSH1 0x41 PUSH1 0x4 MSTORE PUSH1 0x24 PUSH0 REVERT JUMPDEST PUSH2 0x1468 DUP3 PUSH2 0x1422 JUMP JUMPDEST DUP2 ADD DUP2 DUP2 LT PUSH8 0xFFFFFFFFFFFFFFFF DUP3 GT OR ISZERO PUSH2 0x1487 JUMPI PUSH2 0x1486 PUSH2 0x1432 JUMP JUMPDEST JUMPDEST DUP1 PUSH1 0x40 MSTORE POP POP POP JUMP JUMPDEST PUSH0 PUSH2 0x1499 PUSH2 0x12EE JUMP JUMPDEST SWAP1 POP PUSH2 0x14A5 DUP3 DUP3 PUSH2 0x145F JUMP JUMPDEST SWAP2 SWAP1 POP JUMP JUMPDEST PUSH0 PUSH8 0xFFFFFFFFFFFFFFFF DUP3 GT ISZERO PUSH2 0x14C4 JUMPI PUSH2 0x14C3 PUSH2 0x1432 JUMP JUMPDEST JUMPDEST PUSH2 0x14CD DUP3 PUSH2 0x1422 JUMP JUMPDEST SWAP1 POP PUSH1 0x20 DUP2 ADD SWAP1 POP SWAP2 SWAP1 POP JUMP JUMPDEST DUP3 DUP2 DUP4 CALLDATACOPY PUSH0 DUP4 DUP4 ADD MSTORE POP POP POP JUMP JUMPDEST PUSH0 PUSH2 0x14FA PUSH2 0x14F5 DUP5 PUSH2 0x14AA JUMP JUMPDEST PUSH2 0x1490 JUMP JUMPDEST SWAP1 POP DUP3 DUP2 MSTORE PUSH1 0x20 DUP2 ADD DUP5 DUP5 DUP5 ADD GT ISZERO PUSH2 0x1516 JUMPI PUSH2 0x1515 PUSH2 0x141E JUMP JUMPDEST JUMPDEST PUSH2 0x1521 DUP5 DUP3 DUP6 PUSH2 0x14DA JUMP JUMPDEST POP SWAP4 SWAP3 POP POP POP JUMP JUMPDEST PUSH0 DUP3 PUSH1 0x1F DUP4 ADD SLT PUSH2 0x153D JUMPI PUSH2 0x153C PUSH2 0x141A JUMP JUMPDEST JUMPDEST DUP2 CALLDATALOAD PUSH2 0x154D DUP5 DUP3 PUSH1 0x20 DUP7 ADD PUSH2 0x14E8 JUMP JUMPDEST SWAP2 POP POP SWAP3 SWAP2 POP POP JUMP JUMPDEST PUSH0 DUP1 PUSH0 DUP1 PUSH1 0x80 DUP6 DUP8 SUB SLT ISZERO PUSH2 0x156E JUMPI PUSH2 0x156D PUSH2 0x12F7 JUMP JUMPDEST JUMPDEST PUSH0 PUSH2 0x157B DUP8 DUP3 DUP9 ADD PUSH2 0x13DC JUMP JUMPDEST SWAP5 POP POP PUSH1 0x20 PUSH2 0x158C DUP8 DUP3 DUP9 ADD PUSH2 0x1406 JUMP JUMPDEST SWAP4 POP POP PUSH1 0x40 DUP6 ADD CALLDATALOAD PUSH8 0xFFFFFFFFFFFFFFFF DUP2 GT ISZERO PUSH2 0x15AD JUMPI PUSH2 0x15AC PUSH2 0x12FB JUMP JUMPDEST JUMPDEST PUSH2 0x15B9 DUP8 DUP3 DUP9 ADD PUSH2 0x1529 JUMP JUMPDEST SWAP3 POP POP PUSH1 0x60 DUP6 ADD CALLDATALOAD PUSH8 0xFFFFFFFFFFFFFFFF DUP2 GT ISZERO PUSH2 0x15DA JUMPI PUSH2 0x15D9 PUSH2 0x12FB JUMP JUMPDEST JUMPDEST PUSH2 0x15E6 DUP8 DUP3 DUP9 ADD PUSH2 0x1529 JUMP JUMPDEST SWAP2 POP POP SWAP3 SWAP6 SWAP2 SWAP5 POP SWAP3 POP JUMP JUMPDEST PUSH0 DUP2 ISZERO ISZERO SWAP1 POP SWAP2 SWAP1 POP JUMP JUMPDEST PUSH2 0x1606 DUP2 PUSH2 0x15F2 JUMP JUMPDEST DUP3 MSTORE POP POP JUMP JUMPDEST PUSH0 PUSH1 0x20 DUP3 ADD SWAP1 POP PUSH2 0x161F PUSH0 DUP4 ADD DUP5 PUSH2 0x15FD JUMP JUMPDEST SWAP3 SWAP2 POP POP JUMP JUMPDEST PUSH0 DUP1 PUSH1 0x40 DUP4 DUP6 SUB SLT ISZERO PUSH2 0x163B JUMPI PUSH2 0x163A PUSH2 0x12F7 JUMP JUMPDEST JUMPDEST PUSH0 DUP4 ADD CALLDATALOAD PUSH8 0xFFFFFFFFFFFFFFFF DUP2 GT ISZERO PUSH2 0x1658 JUMPI PUSH2 0x1657 PUSH2 0x12FB JUMP JUMPDEST JUMPDEST PUSH2 0x1664 DUP6 DUP3 DUP7 ADD PUSH2 0x1529 JUMP JUMPDEST SWAP3 POP POP PUSH1 0x20 DUP4 ADD CALLDATALOAD PUSH8 0xFFFFFFFFFFFFFFFF DUP2 GT ISZERO PUSH2 0x1685 JUMPI PUSH2 0x1684 PUSH2 0x12FB JUMP JUMPDEST JUMPDEST PUSH2 0x1691 DUP6 DUP3 DUP7 ADD PUSH2 0x1529 JUMP JUMPDEST SWAP2 POP POP SWAP3 POP SWAP3 SWAP1 POP JUMP JUMPDEST PUSH0 DUP3 DUP3 MSTORE PUSH1 0x20 DUP3 ADD SWAP1 POP SWAP3 SWAP2 POP POP JUMP JUMPDEST PUSH32 0x4E6F2077696C6C20666F756E6421000000000000000000000000000000000000 PUSH0 DUP3 ADD MSTORE POP JUMP JUMPDEST PUSH0 PUSH2 0x16DF PUSH1 0xE DUP4 PUSH2 0x169B JUMP JUMPDEST SWAP2 POP PUSH2 0x16EA DUP3 PUSH2 0x16AB JUMP JUMPDEST PUSH1 0x20 DUP3 ADD SWAP1 POP SWAP2 SWAP1 POP JUMP JUMPDEST PUSH0 PUSH1 0x20 DUP3 ADD SWAP1 POP DUP2 DUP2 SUB PUSH0 DUP4 ADD MSTORE PUSH2 0x170C DUP2 PUSH2 0x16D3 JUMP JUMPDEST SWAP1 POP SWAP2 SWAP1 POP JUMP JUMPDEST PUSH32 0x596F75206E65656420746F2063726561746520612077696C6C20666972737400 PUSH0 DUP3 ADD MSTORE POP JUMP JUMPDEST PUSH0 PUSH2 0x1747 PUSH1 0x1F DUP4 PUSH2 0x169B JUMP JUMPDEST SWAP2 POP PUSH2 0x1752 DUP3 PUSH2 0x1713 JUMP JUMPDEST PUSH1 0x20 DUP3 ADD SWAP1 POP SWAP2 SWAP1 POP JUMP JUMPDEST PUSH0 PUSH1 0x20 DUP3 ADD SWAP1 POP DUP2 DUP2 SUB PUSH0 DUP4 ADD MSTORE PUSH2 0x1774 DUP2 PUSH2 0x173B JUMP JUMPDEST SWAP1 POP SWAP2 SWAP1 POP JUMP JUMPDEST PUSH32 0x496E76616C69642077616C6C6574206164647265737300000000000000000000 PUSH0 DUP3 ADD MSTORE POP JUMP JUMPDEST PUSH0 PUSH2 0x17AF PUSH1 0x16 DUP4 PUSH2 0x169B JUMP JUMPDEST SWAP2 POP PUSH2 0x17BA DUP3 PUSH2 0x177B JUMP JUMPDEST PUSH1 0x20 DUP3 ADD SWAP1 POP SWAP2 SWAP1 POP JUMP JUMPDEST PUSH0 PUSH1 0x20 DUP3 ADD SWAP1 POP DUP2 DUP2 SUB PUSH0 DUP4 ADD MSTORE PUSH2 0x17DC DUP2 PUSH2 0x17A3 JUMP JUMPDEST SWAP1 POP SWAP2 SWAP1 POP JUMP JUMPDEST PUSH32 0x496E76616C69642070657263656E746167650000000000000000000000000000 PUSH0 DUP3 ADD MSTORE POP JUMP JUMPDEST PUSH0 PUSH2 0x1817 PUSH1 0x12 DUP4 PUSH2 0x169B JUMP JUMPDEST SWAP2 POP PUSH2 0x1822 DUP3 PUSH2 0x17E3 JUMP JUMPDEST PUSH1 0x20 DUP3 ADD SWAP1 POP SWAP2 SWAP1 POP JUMP JUMPDEST PUSH0 PUSH1 0x20 DUP3 ADD SWAP1 POP DUP2 DUP2 SUB PUSH0 DUP4 ADD MSTORE PUSH2 0x1844 DUP2 PUSH2 0x180B JUMP JUMPDEST SWAP1 POP SWAP2 SWAP1 POP JUMP JUMPDEST PUSH32 0x4E487B7100000000000000000000000000000000000000000000000000000000 PUSH0 MSTORE PUSH1 0x32 PUSH1 0x4 MSTORE PUSH1 0x24 PUSH0 REVERT JUMPDEST PUSH32 0x4E487B7100000000000000000000000000000000000000000000000000000000 PUSH0 MSTORE PUSH1 0x11 PUSH1 0x4 MSTORE PUSH1 0x24 PUSH0 REVERT JUMPDEST PUSH0 PUSH2 0x18AF DUP3 PUSH2 0x1384 JUMP JUMPDEST SWAP2 POP PUSH2 0x18BA DUP4 PUSH2 0x1384 JUMP JUMPDEST SWAP3 POP DUP3 DUP3 ADD SWAP1 POP DUP1 DUP3 GT ISZERO PUSH2 0x18D2 JUMPI PUSH2 0x18D1 PUSH2 0x1878 JUMP JUMPDEST JUMPDEST SWAP3 SWAP2 POP POP JUMP JUMPDEST PUSH32 0x546F74616C20616C6C6F636174696F6E20657863656564732031303025000000 PUSH0 DUP3 ADD MSTORE POP JUMP JUMPDEST PUSH0 PUSH2 0x190C PUSH1 0x1D DUP4 PUSH2 0x169B JUMP JUMPDEST SWAP2 POP PUSH2 0x1917 DUP3 PUSH2 0x18D8 JUMP JUMPDEST PUSH1 0x20 DUP3 ADD SWAP1 POP SWAP2 SWAP1 POP JUMP JUMPDEST PUSH0 PUSH1 0x20 DUP3 ADD SWAP1 POP DUP2 DUP2 SUB PUSH0 DUP4 ADD MSTORE PUSH2 0x1939 DUP2 PUSH2 0x1900 JUMP JUMPDEST SWAP1 POP SWAP2 SWAP1 POP JUMP JUMPDEST PUSH0 DUP2 MLOAD SWAP1 POP SWAP2 SWAP1 POP JUMP JUMPDEST PUSH32 0x4E487B7100000000000000000000000000000000000000000000000000000000 PUSH0 MSTORE PUSH1 0x22 PUSH1 0x4 MSTORE PUSH1 0x24 PUSH0 REVERT JUMPDEST PUSH0 PUSH1 0x2 DUP3 DIV SWAP1 POP PUSH1 0x1 DUP3 AND DUP1 PUSH2 0x198E JUMPI PUSH1 0x7F DUP3 AND SWAP2 POP JUMPDEST PUSH1 0x20 DUP3 LT DUP2 SUB PUSH2 0x19A1 JUMPI PUSH2 0x19A0 PUSH2 0x194A JUMP JUMPDEST JUMPDEST POP SWAP2 SWAP1 POP JUMP JUMPDEST PUSH0 DUP2 SWAP1 POP DUP2 PUSH0 MSTORE PUSH1 0x20 PUSH0 KECCAK256 SWAP1 POP SWAP2 SWAP1 POP JUMP JUMPDEST PUSH0 PUSH1 0x20 PUSH1 0x1F DUP4 ADD DIV SWAP1 POP SWAP2 SWAP1 POP JUMP JUMPDEST PUSH0 DUP3 DUP3 SHL SWAP1 POP SWAP3 SWAP2 POP POP JUMP JUMPDEST PUSH0 PUSH1 0x8 DUP4 MUL PUSH2 0x1A03 PUSH32 0xFFFFFFFFFFFFFFFFFFFFFFFFFFFFFFFFFFFFFFFFFFFFFFFFFFFFFFFFFFFFFFFF DUP3 PUSH2 0x19C8 JUMP JUMPDEST PUSH2 0x1A0D DUP7 DUP4 PUSH2 0x19C8 JUMP JUMPDEST SWAP6 POP DUP1 NOT DUP5 AND SWAP4 POP DUP1 DUP7 AND DUP5 OR SWAP3 POP POP POP SWAP4 SWAP3 POP POP POP JUMP JUMPDEST PUSH0 DUP2 SWAP1 POP SWAP2 SWAP1 POP JUMP JUMPDEST PUSH0 PUSH2 0x1A48 PUSH2 0x1A43 PUSH2 0x1A3E DUP5 PUSH2 0x1384 JUMP JUMPDEST PUSH2 0x1A25 JUMP JUMPDEST PUSH2 0x1384 JUMP JUMPDEST SWAP1 POP SWAP2 SWAP1 POP JUMP JUMPDEST PUSH0 DUP2 SWAP1 POP SWAP2 SWAP1 POP JUMP JUMPDEST PUSH2 0x1A61 DUP4 PUSH2 0x1A2E JUMP JUMPDEST PUSH2 0x1A75 PUSH2 0x1A6D DUP3 PUSH2 0x1A4F JUMP JUMPDEST DUP5 DUP5 SLOAD PUSH2 0x19D4 JUMP JUMPDEST DUP3 SSTORE POP POP POP POP JUMP JUMPDEST PUSH0 SWAP1 JUMP JUMPDEST PUSH2 0x1A89 PUSH2 0x1A7D JUMP JUMPDEST PUSH2 0x1A94 DUP2 DUP5 DUP5 PUSH2 0x1A58 JUMP JUMPDEST POP POP POP JUMP JUMPDEST JUMPDEST DUP2 DUP2 LT ISZERO PUSH2 0x1AB7 JUMPI PUSH2 0x1AAC PUSH0 DUP3 PUSH2 0x1A81 JUMP JUMPDEST PUSH1 0x1 DUP2 ADD SWAP1 POP PUSH2 0x1A9A JUMP JUMPDEST POP POP JUMP JUMPDEST PUSH1 0x1F DUP3 GT ISZERO PUSH2 0x1AFC JUMPI PUSH2 0x1ACD DUP2 PUSH2 0x19A7 JUMP JUMPDEST PUSH2 0x1AD6 DUP5 PUSH2 0x19B9 JUMP JUMPDEST DUP2 ADD PUSH1 0x20 DUP6 LT ISZERO PUSH2 0x1AE5 JUMPI DUP2 SWAP1 POP JUMPDEST PUSH2 0x1AF9 PUSH2 0x1AF1 DUP6 PUSH2 0x19B9 JUMP JUMPDEST DUP4 ADD DUP3 PUSH2 0x1A99 JUMP JUMPDEST POP POP JUMPDEST POP POP POP JUMP JUMPDEST PUSH0 DUP3 DUP3 SHR SWAP1 POP SWAP3 SWAP2 POP POP JUMP JUMPDEST PUSH0 PUSH2 0x1B1C PUSH0 NOT DUP5 PUSH1 0x8 MUL PUSH2 0x1B01 JUMP JUMPDEST NOT DUP1 DUP4 AND SWAP2 POP POP SWAP3 SWAP2 POP POP JUMP JUMPDEST PUSH0 PUSH2 0x1B34 DUP4 DUP4 PUSH2 0x1B0D JUMP JUMPDEST SWAP2 POP DUP3 PUSH1 0x2 MUL DUP3 OR SWAP1 POP SWAP3 SWAP2 POP POP JUMP JUMPDEST PUSH2 0x1B4D DUP3 PUSH2 0x1940 JUMP JUMPDEST PUSH8 0xFFFFFFFFFFFFFFFF DUP2 GT ISZERO PUSH2 0x1B66 JUMPI PUSH2 0x1B65 PUSH2 0x1432 JUMP JUMPDEST JUMPDEST PUSH2 0x1B70 DUP3 SLOAD PUSH2 0x1977 JUMP JUMPDEST PUSH2 0x1B7B DUP3 DUP3 DUP6 PUSH2 0x1ABB JUMP JUMPDEST PUSH0 PUSH1 0x20 SWAP1 POP PUSH1 0x1F DUP4 GT PUSH1 0x1 DUP2 EQ PUSH2 0x1BAC JUMPI PUSH0 DUP5 ISZERO PUSH2 0x1B9A JUMPI DUP3 DUP8 ADD MLOAD SWAP1 POP JUMPDEST PUSH2 0x1BA4 DUP6 DUP3 PUSH2 0x1B29 JUMP JUMPDEST DUP7 SSTORE POP PUSH2 0x1C0B JUMP JUMPDEST PUSH1 0x1F NOT DUP5 AND PUSH2 0x1BBA DUP7 PUSH2 0x19A7 JUMP JUMPDEST PUSH0 JUMPDEST DUP3 DUP2 LT ISZERO PUSH2 0x1BE1 JUMPI DUP5 DUP10 ADD MLOAD DUP3 SSTORE PUSH1 0x1 DUP3 ADD SWAP2 POP PUSH1 0x20 DUP6 ADD SWAP5 POP PUSH1 0x20 DUP2 ADD SWAP1 POP PUSH2 0x1BBC JUMP JUMPDEST DUP7 DUP4 LT ISZERO PUSH2 0x1BFE JUMPI DUP5 DUP10 ADD MLOAD PUSH2 0x1BFA PUSH1 0x1F DUP10 AND DUP3 PUSH2 0x1B0D JUMP JUMPDEST DUP4 SSTORE POP JUMPDEST PUSH1 0x1 PUSH1 0x2 DUP9 MUL ADD DUP9 SSTORE POP POP POP JUMPDEST POP POP POP POP POP POP JUMP JUMPDEST PUSH0 PUSH2 0x1C2D PUSH2 0x1C28 PUSH2 0x1C23 DUP5 PUSH2 0x12FF JUMP JUMPDEST PUSH2 0x1A25 JUMP JUMPDEST PUSH2 0x12FF JUMP JUMPDEST SWAP1 POP SWAP2 SWAP1 POP JUMP JUMPDEST PUSH0 PUSH2 0x1C3E DUP3 PUSH2 0x1C13 JUMP JUMPDEST SWAP1 POP SWAP2 SWAP1 POP JUMP JUMPDEST PUSH0 PUSH2 0x1C4F DUP3 PUSH2 0x1C34 JUMP JUMPDEST SWAP1 POP SWAP2 SWAP1 POP JUMP JUMPDEST PUSH2 0x1C5F DUP2 PUSH2 0x1C45 JUMP JUMPDEST DUP3 MSTORE POP POP JUMP JUMPDEST PUSH0 PUSH1 0x40 DUP3 ADD SWAP1 POP PUSH2 0x1C78 PUSH0 DUP4 ADD DUP6 PUSH2 0x1C56 JUMP JUMPDEST PUSH2 0x1C85 PUSH1 0x20 DUP4 ADD DUP5 PUSH2 0x138D JUMP JUMPDEST SWAP4 SWAP3 POP POP POP JUMP JUMPDEST PUSH32 0x596F752068617665206E6F74206372656174656420612077696C6C0000000000 PUSH0 DUP3 ADD MSTORE POP JUMP JUMPDEST PUSH0 PUSH2 0x1CC0 PUSH1 0x1B DUP4 PUSH2 0x169B JUMP JUMPDEST SWAP2 POP PUSH2 0x1CCB DUP3 PUSH2 0x1C8C JUMP JUMPDEST PUSH1 0x20 DUP3 ADD SWAP1 POP SWAP2 SWAP1 POP JUMP JUMPDEST PUSH0 PUSH1 0x20 DUP3 ADD SWAP1 POP DUP2 DUP2 SUB PUSH0 DUP4 ADD MSTORE PUSH2 0x1CED DUP2 PUSH2 0x1CB4 JUMP JUMPDEST SWAP1 POP SWAP2 SWAP1 POP JUMP JUMPDEST PUSH32 0x57696C6C20616C72656164792065786563757465642100000000000000000000 PUSH0 DUP3 ADD MSTORE POP JUMP JUMPDEST PUSH0 PUSH2 0x1D28 PUSH1 0x16 DUP4 PUSH2 0x169B JUMP JUMPDEST SWAP2 POP PUSH2 0x1D33 DUP3 PUSH2 0x1CF4 JUMP JUMPDEST PUSH1 0x20 DUP3 ADD SWAP1 POP SWAP2 SWAP1 POP JUMP JUMPDEST PUSH0 PUSH1 0x20 DUP3 ADD SWAP1 POP DUP2 DUP2 SUB PUSH0 DUP4 ADD MSTORE PUSH2 0x1D55 DUP2 PUSH2 0x1D1C JUMP JUMPDEST SWAP1 POP SWAP2 SWAP1 POP JUMP JUMPDEST PUSH32 0x596F7520616C7265616479206861766520612077696C6C210000000000000000 PUSH0 DUP3 ADD MSTORE POP JUMP JUMPDEST PUSH0 PUSH2 0x1D90 PUSH1 0x18 DUP4 PUSH2 0x169B JUMP JUMPDEST SWAP2 POP PUSH2 0x1D9B DUP3 PUSH2 0x1D5C JUMP JUMPDEST PUSH1 0x20 DUP3 ADD SWAP1 POP SWAP2 SWAP1 POP JUMP JUMPDEST PUSH0 PUSH1 0x20 DUP3 ADD SWAP1 POP DUP2 DUP2 SUB PUSH0 DUP4 ADD MSTORE PUSH2 0x1DBD DUP2 PUSH2 0x1D84 JUMP JUMPDEST SWAP1 POP SWAP2 SWAP1 POP JUMP JUMPDEST PUSH32 0x4D757374206C6F636B2045544821000000000000000000000000000000000000 PUSH0 DUP3 ADD MSTORE POP JUMP JUMPDEST PUSH0 PUSH2 0x1DF8 PUSH1 0xE DUP4 PUSH2 0x169B JUMP JUMPDEST SWAP2 POP PUSH2 0x1E03 DUP3 PUSH2 0x1DC4 JUMP JUMPDEST PUSH1 0x20 DUP3 ADD SWAP1 POP SWAP2 SWAP1 POP JUMP JUMPDEST PUSH0 PUSH1 0x20 DUP3 ADD SWAP1 POP DUP2 DUP2 SUB PUSH0 DUP4 ADD MSTORE PUSH2 0x1E25 DUP2 PUSH2 0x1DEC JUMP JUMPDEST SWAP1 POP SWAP2 SWAP1 POP JUMP JUMPDEST PUSH32 0x4F776E6572206973207374696C6C20616C697665210000000000000000000000 PUSH0 DUP3 ADD MSTORE POP JUMP JUMPDEST PUSH0 PUSH2 0x1E60 PUSH1 0x15 DUP4 PUSH2 0x169B JUMP JUMPDEST SWAP2 POP PUSH2 0x1E6B DUP3 PUSH2 0x1E2C JUMP JUMPDEST PUSH1 0x20 DUP3 ADD SWAP1 POP SWAP2 SWAP1 POP JUMP JUMPDEST PUSH0 PUSH1 0x20 DUP3 ADD SWAP1 POP DUP2 DUP2 SUB PUSH0 DUP4 ADD MSTORE PUSH2 0x1E8D DUP2 PUSH2 0x1E54 JUMP JUMPDEST SWAP1 POP SWAP2 SWAP1 POP JUMP JUMPDEST PUSH32 0x4E6F2045544820746F2064697374726962757465000000000000000000000000 PUSH0 DUP3 ADD MSTORE POP JUMP JUMPDEST PUSH0 PUSH2 0x1EC8 PUSH1 0x14 DUP4 PUSH2 0x169B JUMP JUMPDEST SWAP2 POP PUSH2 0x1ED3 DUP3 PUSH2 0x1E94 JUMP JUMPDEST PUSH1 0x20 DUP3 ADD SWAP1 POP SWAP2 SWAP1 POP JUMP JUMPDEST PUSH0 PUSH1 0x20 DUP3 ADD SWAP1 POP DUP2 DUP2 SUB PUSH0 DUP4 ADD MSTORE PUSH2 0x1EF5 DUP2 PUSH2 0x1EBC JUMP JUMPDEST SWAP1 POP SWAP2 SWAP1 POP JUMP JUMPDEST PUSH0 PUSH2 0x1F06 DUP3 PUSH2 0x1384 JUMP JUMPDEST SWAP2 POP PUSH2 0x1F11 DUP4 PUSH2 0x1384 JUMP JUMPDEST SWAP3 POP DUP3 DUP3 MUL PUSH2 0x1F1F DUP2 PUSH2 0x1384 JUMP JUMPDEST SWAP2 POP DUP3 DUP3 DIV DUP5 EQ DUP4 ISZERO OR PUSH2 0x1F36 JUMPI PUSH2 0x1F35 PUSH2 0x1878 JUMP JUMPDEST JUMPDEST POP SWAP3 SWAP2 POP POP JUMP JUMPDEST PUSH32 0x4E487B7100000000000000000000000000000000000000000000000000000000 PUSH0 MSTORE PUSH1 0x12 PUSH1 0x4 MSTORE PUSH1 0x24 PUSH0 REVERT JUMPDEST PUSH0 PUSH2 0x1F74 DUP3 PUSH2 0x1384 JUMP JUMPDEST SWAP2 POP PUSH2 0x1F7F DUP4 PUSH2 0x1384 JUMP JUMPDEST SWAP3 POP DUP3 PUSH2 0x1F8F JUMPI PUSH2 0x1F8E PUSH2 0x1F3D JUMP JUMPDEST JUMPDEST DUP3 DUP3 DIV SWAP1 POP SWAP3 SWAP2 POP POP JUMP JUMPDEST PUSH0 DUP2 SLOAD PUSH2 0x1FA6 DUP2 PUSH2 0x1977 JUMP JUMPDEST PUSH2 0x1FB0 DUP2 DUP7 PUSH2 0x169B JUMP JUMPDEST SWAP5 POP PUSH1 0x1 DUP3 AND PUSH0 DUP2 EQ PUSH2 0x1FCA JUMPI PUSH1 0x1 DUP2 EQ PUSH2 0x1FE0 JUMPI PUSH2 0x2012 JUMP JUMPDEST PUSH1 0xFF NOT DUP4 AND DUP7 MSTORE DUP2 ISZERO ISZERO PUSH1 0x20 MUL DUP7 ADD SWAP4 POP PUSH2 0x2012 JUMP JUMPDEST PUSH2 0x1FE9 DUP6 PUSH2 0x19A7 JUMP JUMPDEST PUSH0 JUMPDEST DUP4 DUP2 LT ISZERO PUSH2 0x200A JUMPI DUP2 SLOAD DUP2 DUP10 ADD MSTORE PUSH1 0x1 DUP3 ADD SWAP2 POP PUSH1 0x20 DUP2 ADD SWAP1 POP PUSH2 0x1FEB JUMP JUMPDEST DUP1 DUP9 ADD SWAP6 POP POP POP JUMPDEST POP POP POP SWAP3 SWAP2 POP POP JUMP JUMPDEST PUSH0 PUSH1 0x60 DUP3 ADD SWAP1 POP PUSH2 0x202E PUSH0 DUP4 ADD DUP7 PUSH2 0x138D JUMP JUMPDEST DUP2 DUP2 SUB PUSH1 0x20 DUP4 ADD MSTORE PUSH2 0x2040 DUP2 DUP6 PUSH2 0x1F9A JUMP JUMPDEST SWAP1 POP DUP2 DUP2 SUB PUSH1 0x40 DUP4 ADD MSTORE PUSH2 0x2054 DUP2 DUP5 PUSH2 0x1F9A JUMP JUMPDEST SWAP1 POP SWAP5 SWAP4 POP POP POP POP JUMP JUMPDEST PUSH0 DUP2 SWAP1 POP SWAP2 SWAP1 POP JUMP JUMPDEST PUSH0 PUSH2 0x2081 PUSH2 0x207C PUSH2 0x2077 DUP5 PUSH2 0x205E JUMP JUMPDEST PUSH2 0x1A25 JUMP JUMPDEST PUSH2 0x1384 JUMP JUMPDEST SWAP1 POP SWAP2 SWAP1 POP JUMP JUMPDEST PUSH2 0x2091 DUP2 PUSH2 0x2067 JUMP JUMPDEST DUP3 MSTORE POP POP JUMP JUMPDEST PUSH0 PUSH1 0x60 DUP3 ADD SWAP1 POP PUSH2 0x20AA PUSH0 DUP4 ADD DUP7 PUSH2 0x2088 JUMP JUMPDEST DUP2 DUP2 SUB PUSH1 0x20 DUP4 ADD MSTORE PUSH2 0x20BC DUP2 DUP6 PUSH2 0x1F9A JUMP JUMPDEST SWAP1 POP DUP2 DUP2 SUB PUSH1 0x40 DUP4 ADD MSTORE PUSH2 0x20D0 DUP2 DUP5 PUSH2 0x1F9A JUMP JUMPDEST SWAP1 POP SWAP5 SWAP4 POP POP POP POP JUMP INVALID LOG2 PUSH5 0x6970667358 0x22 SLT KECCAK256 SSTORE 0xAE 0xF9 0x4F STATICCALL PUSH10 0x88C435B541108D631FB6 DUP2 ADDMOD PUSH2 0xFE39 PUSH13 0xE53FF720BD6280C28FC164736F PUSH13 0x634300081A0033000000000000 "
	},
	"abi": [
		{
			"anonymous": false,
			"inputs": [
				{
					"indexed": true,
					"internalType": "address",
					"name": "testator",
					"type": "address"
				},
				{
					"indexed": false,
					"internalType": "address",
					"name": "beneficiary",
					"type": "address"
				},
				{
					"indexed": false,
					"internalType": "uint256",
					"name": "percentage",
					"type": "uint256"
				}
			],
			"name": "BeneficiaryAdded",
			"type": "event"
		},
		{
			"anonymous": false,
			"inputs": [
				{
					"indexed": true,
					"internalType": "address",
					"name": "beneficiary",
					"type": "address"
				},
				{
					"indexed": false,
					"internalType": "uint256",
					"name": "amount",
					"type": "uint256"
				},
				{
					"indexed": false,
					"internalType": "string",
					"name": "saleDeedIpfsHash",
					"type": "string"
				},
				{
					"indexed": false,
					"internalType": "string",
					"name": "email",
					"type": "string"
				}
			],
			"name": "FundsDisbursed",
			"type": "event"
		},
		{
			"anonymous": false,
			"inputs": [
				{
					"indexed": true,
					"internalType": "address",
					"name": "testator",
					"type": "address"
				},
				{
					"indexed": false,
					"internalType": "uint256",
					"name": "lockedFunds",
					"type": "uint256"
				}
			],
			"name": "WillCreated",
			"type": "event"
		},
		{
			"anonymous": false,
			"inputs": [
				{
					"indexed": true,
					"internalType": "address",
					"name": "testator",
					"type": "address"
				}
			],
			"name": "WillExecuted",
			"type": "event"
		},
		{
			"inputs": [
				{
					"internalType": "address payable",
					"name": "_wallet",
					"type": "address"
				},
				{
					"internalType": "uint256",
					"name": "_percentage",
					"type": "uint256"
				},
				{
					"internalType": "string",
					"name": "_saleDeedIpfsHash",
					"type": "string"
				},
				{
					"internalType": "string",
					"name": "_email",
					"type": "string"
				}
			],
			"name": "addBeneficiary",
			"outputs": [],
			"stateMutability": "nonpayable",
			"type": "function"
		},
		{
			"inputs": [],
			"name": "confirmAlive",
			"outputs": [],
			"stateMutability": "nonpayable",
			"type": "function"
		},
		{
			"inputs": [
				{
					"internalType": "string",
					"name": "_firstName",
					"type": "string"
				},
				{
					"internalType": "string",
					"name": "_lastName",
					"type": "string"
				}
			],
			"name": "createWill",
			"outputs": [],
			"stateMutability": "payable",
			"type": "function"
		},
		{
			"inputs": [
				{
					"internalType": "address",
					"name": "user",
					"type": "address"
				}
			],
			"name": "executeWill",
			"outputs": [],
			"stateMutability": "nonpayable",
			"type": "function"
		},
		{
			"inputs": [
				{
					"internalType": "address",
					"name": "user",
					"type": "address"
				}
			],
			"name": "getBeneficiaryCount",
			"outputs": [
				{
					"internalType": "uint256",
					"name": "",
					"type": "uint256"
				}
			],
			"stateMutability": "view",
			"type": "function"
		},
		{
			"inputs": [
				{
					"internalType": "address",
					"name": "user",
					"type": "address"
				}
			],
			"name": "getLockedFunds",
			"outputs": [
				{
					"internalType": "uint256",
					"name": "",
					"type": "uint256"
				}
			],
			"stateMutability": "view",
			"type": "function"
		},
		{
			"inputs": [
				{
					"internalType": "address",
					"name": "",
					"type": "address"
				}
			],
			"name": "hasWill",
			"outputs": [
				{
					"internalType": "bool",
					"name": "",
					"type": "bool"
				}
			],
			"stateMutability": "view",
			"type": "function"
		},
		{
			"inputs": [
				{
					"internalType": "address",
					"name": "user",
					"type": "address"
				}
			],
			"name": "isWillExecuted",
			"outputs": [
				{
					"internalType": "bool",
					"name": "",
					"type": "bool"
				}
			],
			"stateMutability": "view",
			"type": "function"
		}
	],
	"storageLayout": {
		"storage": [
			{
				"astId": 34,
				"contract": "contract.sol:MultiWillContract",
				"label": "wills",
				"offset": 0,
				"slot": "0",
				"type": "t_mapping(t_address,t_struct(Will)29_storage)"
			},
			{
				"astId": 38,
				"contract": "contract.sol:MultiWillContract",
				"label": "hasWill",
				"offset": 0,
				"slot": "1",
				"type": "t_mapping(t_address,t_bool)"
			}
		],
		"types": {
			"t_address": {
				"encoding": "inplace",
				"label": "address",
				"numberOfBytes": "20"
			},
			"t_address_payable": {
				"encoding": "inplace",
				"label": "address payable",
				"numberOfBytes": "20"
			},
			"t_array(t_struct(Beneficiary)10_storage)dyn_storage": {
				"base": "t_struct(Beneficiary)10_storage",
				"encoding": "dynamic_array",
				"label": "struct MultiWillContract.Beneficiary[]",
				"numberOfBytes": "32"
			},
			"t_bool": {
				"encoding": "inplace",
				"label": "bool",
				"numberOfBytes": "1"
			},
			"t_mapping(t_address,t_bool)": {
				"encoding": "mapping",
				"key": "t_address",
				"label": "mapping(address => bool)",
				"numberOfBytes": "32",
				"value": "t_bool"
			},
			"t_mapping(t_address,t_struct(Will)29_storage)": {
				"encoding": "mapping",
				"key": "t_address",
				"label": "mapping(address => struct MultiWillContract.Will)",
				"numberOfBytes": "32",
				"value": "t_struct(Will)29_storage"
			},
			"t_string_storage": {
				"encoding": "bytes",
				"label": "string",
				"numberOfBytes": "32"
			},
			"t_struct(Beneficiary)10_storage": {
				"encoding": "inplace",
				"label": "struct MultiWillContract.Beneficiary",
				"members": [
					{
						"astId": 3,
						"contract": "contract.sol:MultiWillContract",
						"label": "wallet",
						"offset": 0,
						"slot": "0",
						"type": "t_address_payable"
					},
					{
						"astId": 5,
						"contract": "contract.sol:MultiWillContract",
						"label": "percentage",
						"offset": 0,
						"slot": "1",
						"type": "t_uint256"
					},
					{
						"astId": 7,
						"contract": "contract.sol:MultiWillContract",
						"label": "saleDeedIpfsHash",
						"offset": 0,
						"slot": "2",
						"type": "t_string_storage"
					},
					{
						"astId": 9,
						"contract": "contract.sol:MultiWillContract",
						"label": "email",
						"offset": 0,
						"slot": "3",
						"type": "t_string_storage"
					}
				],
				"numberOfBytes": "128"
			},
			"t_struct(Will)29_storage": {
				"encoding": "inplace",
				"label": "struct MultiWillContract.Will",
				"members": [
					{
						"astId": 12,
						"contract": "contract.sol:MultiWillContract",
						"label": "testator",
						"offset": 0,
						"slot": "0",
						"type": "t_address"
					},
					{
						"astId": 14,
						"contract": "contract.sol:MultiWillContract",
						"label": "firstName",
						"offset": 0,
						"slot": "1",
						"type": "t_string_storage"
					},
					{
						"astId": 16,
						"contract": "contract.sol:MultiWillContract",
						"label": "lastName",
						"offset": 0,
						"slot": "2",
						"type": "t_string_storage"
					},
					{
						"astId": 18,
						"contract": "contract.sol:MultiWillContract",
						"label": "totalLocked",
						"offset": 0,
						"slot": "3",
						"type": "t_uint256"
					},
					{
						"astId": 20,
						"contract": "contract.sol:MultiWillContract",
						"label": "lastAliveTime",
						"offset": 0,
						"slot": "4",
						"type": "t_uint256"
					},
					{
						"astId": 22,
						"contract": "contract.sol:MultiWillContract",
						"label": "proofOfLifeInterval",
						"offset": 0,
						"slot": "5",
						"type": "t_uint256"
					},
					{
						"astId": 24,
						"contract": "contract.sol:MultiWillContract",
						"label": "isDeceased",
						"offset": 0,
						"slot": "6",
						"type": "t_bool"
					},
					{
						"astId": 28,
						"contract": "contract.sol:MultiWillContract",
						"label": "beneficiaries",
						"offset": 0,
						"slot": "7",
						"type": "t_array(t_struct(Beneficiary)10_storage)dyn_storage"
					}
				],
				"numberOfBytes": "256"
			},
			"t_uint256": {
				"encoding": "inplace",
				"label": "uint256",
				"numberOfBytes": "32"
			}
		}
	},
	"web3Deploy": "var multiwillcontractContract = new web3.eth.Contract([{\"anonymous\":false,\"inputs\":[{\"indexed\":true,\"internalType\":\"address\",\"name\":\"testator\",\"type\":\"address\"},{\"indexed\":false,\"internalType\":\"address\",\"name\":\"beneficiary\",\"type\":\"address\"},{\"indexed\":false,\"internalType\":\"uint256\",\"name\":\"percentage\",\"type\":\"uint256\"}],\"name\":\"BeneficiaryAdded\",\"type\":\"event\"},{\"anonymous\":false,\"inputs\":[{\"indexed\":true,\"internalType\":\"address\",\"name\":\"beneficiary\",\"type\":\"address\"},{\"indexed\":false,\"internalType\":\"uint256\",\"name\":\"amount\",\"type\":\"uint256\"},{\"indexed\":false,\"internalType\":\"string\",\"name\":\"saleDeedIpfsHash\",\"type\":\"string\"},{\"indexed\":false,\"internalType\":\"string\",\"name\":\"email\",\"type\":\"string\"}],\"name\":\"FundsDisbursed\",\"type\":\"event\"},{\"anonymous\":false,\"inputs\":[{\"indexed\":true,\"internalType\":\"address\",\"name\":\"testator\",\"type\":\"address\"},{\"indexed\":false,\"internalType\":\"uint256\",\"name\":\"lockedFunds\",\"type\":\"uint256\"}],\"name\":\"WillCreated\",\"type\":\"event\"},{\"anonymous\":false,\"inputs\":[{\"indexed\":true,\"internalType\":\"address\",\"name\":\"testator\",\"type\":\"address\"}],\"name\":\"WillExecuted\",\"type\":\"event\"},{\"inputs\":[{\"internalType\":\"address payable\",\"name\":\"_wallet\",\"type\":\"address\"},{\"internalType\":\"uint256\",\"name\":\"_percentage\",\"type\":\"uint256\"},{\"internalType\":\"string\",\"name\":\"_saleDeedIpfsHash\",\"type\":\"string\"},{\"internalType\":\"string\",\"name\":\"_email\",\"type\":\"string\"}],\"name\":\"addBeneficiary\",\"outputs\":[],\"stateMutability\":\"nonpayable\",\"type\":\"function\"},{\"inputs\":[],\"name\":\"confirmAlive\",\"outputs\":[],\"stateMutability\":\"nonpayable\",\"type\":\"function\"},{\"inputs\":[{\"internalType\":\"string\",\"name\":\"_firstName\",\"type\":\"string\"},{\"internalType\":\"string\",\"name\":\"_lastName\",\"type\":\"string\"}],\"name\":\"createWill\",\"outputs\":[],\"stateMutability\":\"payable\",\"type\":\"function\"},{\"inputs\":[{\"internalType\":\"address\",\"name\":\"user\",\"type\":\"address\"}],\"name\":\"executeWill\",\"outputs\":[],\"stateMutability\":\"nonpayable\",\"type\":\"function\"},{\"inputs\":[{\"internalType\":\"address\",\"name\":\"user\",\"type\":\"address\"}],\"name\":\"getBeneficiaryCount\",\"outputs\":[{\"internalType\":\"uint256\",\"name\":\"\",\"type\":\"uint256\"}],\"stateMutability\":\"view\",\"type\":\"function\"},{\"inputs\":[{\"internalType\":\"address\",\"name\":\"user\",\"type\":\"address\"}],\"name\":\"getLockedFunds\",\"outputs\":[{\"internalType\":\"uint256\",\"name\":\"\",\"type\":\"uint256\"}],\"stateMutability\":\"view\",\"type\":\"function\"},{\"inputs\":[{\"internalType\":\"address\",\"name\":\"\",\"type\":\"address\"}],\"name\":\"hasWill\",\"outputs\":[{\"internalType\":\"bool\",\"name\":\"\",\"type\":\"bool\"}],\"stateMutability\":\"view\",\"type\":\"function\"},{\"inputs\":[{\"internalType\":\"address\",\"name\":\"user\",\"type\":\"address\"}],\"name\":\"isWillExecuted\",\"outputs\":[{\"internalType\":\"bool\",\"name\":\"\",\"type\":\"bool\"}],\"stateMutability\":\"view\",\"type\":\"function\"}]);\nvar multiwillcontract = multiwillcontractContract.deploy({\n     data: '0x6080604052348015600e575f80fd5b506121108061001c5f395ff3fe60806040526004361061007a575f3560e01c8063a7f01e4d1161004d578063a7f01e4d14610134578063b0daeb1c14610170578063e7dda5551461018c578063e854d135146101c85761007a565b80632423c7f31461007e5780634ebde6d3146100ba578063549cc7b8146100e25780636f9b65f01461011e575b5f80fd5b348015610089575f80fd5b506100a4600480360381019061009f9190611359565b6101f0565b6040516100b1919061139c565b60405180910390f35b3480156100c5575f80fd5b506100e060048036038101906100db9190611556565b6102c4565b005b3480156100ed575f80fd5b5061010860048036038101906101039190611359565b610691565b604051610115919061160c565b60405180910390f35b348015610129575f80fd5b506101326106ae565b005b34801561013f575f80fd5b5061015a60048036038101906101559190611359565b610809565b604051610167919061139c565b60405180910390f35b61018a60048036038101906101859190611625565b6108da565b005b348015610197575f80fd5b506101b260048036038101906101ad9190611359565b610c88565b6040516101bf919061160c565b60405180910390f35b3480156101d3575f80fd5b506101ee60048036038101906101e99190611359565b610d65565b005b5f60015f8373ffffffffffffffffffffffffffffffffffffffff1673ffffffffffffffffffffffffffffffffffffffff1681526020019081526020015f205f9054906101000a900460ff1661027a576040517f08c379a0000000000000000000000000000000000000000000000000000000008152600401610271906116f5565b60405180910390fd5b5f808373ffffffffffffffffffffffffffffffffffffffff1673ffffffffffffffffffffffffffffffffffffffff1681526020019081526020015f20600701805490509050919050565b60015f3373ffffffffffffffffffffffffffffffffffffffff1673ffffffffffffffffffffffffffffffffffffffff1681526020019081526020015f205f9054906101000a900460ff1661034d576040517f08c379a00000000000000000000000000000000000000000000000000000000081526004016103449061175d565b60405180910390fd5b5f73ffffffffffffffffffffffffffffffffffffffff168473ffffffffffffffffffffffffffffffffffffffff16036103bb576040517f08c379a00000000000000000000000000000000000000000000000000000000081526004016103b2906117c5565b60405180910390fd5b5f831180156103cb575060648311155b61040a576040517f08c379a00000000000000000000000000000000000000000000000000000000081526004016104019061182d565b60405180910390fd5b5f805b5f803373ffffffffffffffffffffffffffffffffffffffff1673ffffffffffffffffffffffffffffffffffffffff1681526020019081526020015f20600701805490508110156104d2575f803373ffffffffffffffffffffffffffffffffffffffff1673ffffffffffffffffffffffffffffffffffffffff1681526020019081526020015f2060070181815481106104a8576104a761184b565b5b905f5260205f20906004020160010154826104c391906118a5565b9150808060010191505061040d565b50606484826104e191906118a5565b1115610522576040517f08c379a000000000000000000000000000000000000000000000000000000000815260040161051990611922565b60405180910390fd5b5f803373ffffffffffffffffffffffffffffffffffffffff1673ffffffffffffffffffffffffffffffffffffffff1681526020019081526020015f2060070160405180608001604052808773ffffffffffffffffffffffffffffffffffffffff16815260200186815260200185815260200184815250908060018154018082558091505060019003905f5260205f2090600402015f909190919091505f820151815f015f6101000a81548173ffffffffffffffffffffffffffffffffffffffff021916908373ffffffffffffffffffffffffffffffffffffffff1602179055506020820151816001015560408201518160020190816106219190611b44565b5060608201518160030190816106379190611b44565b5050503373ffffffffffffffffffffffffffffffffffffffff167f5d081d791b64899adab031015397ef8d7600501212ef97573b9e50f8c9bb6d9b8686604051610682929190611c65565b60405180910390a25050505050565b6001602052805f5260405f205f915054906101000a900460ff1681565b60015f3373ffffffffffffffffffffffffffffffffffffffff1673ffffffffffffffffffffffffffffffffffffffff1681526020019081526020015f205f9054906101000a900460ff16610737576040517f08c379a000000000000000000000000000000000000000000000000000000000815260040161072e90611cd6565b60405180910390fd5b5f803373ffffffffffffffffffffffffffffffffffffffff1673ffffffffffffffffffffffffffffffffffffffff1681526020019081526020015f206006015f9054906101000a900460ff16156107c3576040517f08c379a00000000000000000000000000000000000000000000000000000000081526004016107ba90611d3e565b60405180910390fd5b425f803373ffffffffffffffffffffffffffffffffffffffff1673ffffffffffffffffffffffffffffffffffffffff1681526020019081526020015f2060040181905550565b5f60015f8373ffffffffffffffffffffffffffffffffffffffff1673ffffffffffffffffffffffffffffffffffffffff1681526020019081526020015f205f9054906101000a900460ff16610893576040517f08c379a000000000000000000000000000000000000000000000000000000000815260040161088a906116f5565b60405180910390fd5b5f808373ffffffffffffffffffffffffffffffffffffffff1673ffffffffffffffffffffffffffffffffffffffff1681526020019081526020015f20600301549050919050565b60015f3373ffffffffffffffffffffffffffffffffffffffff1673ffffffffffffffffffffffffffffffffffffffff1681526020019081526020015f205f9054906101000a900460ff1615610964576040517f08c379a000000000000000000000000000000000000000000000000000000000815260040161095b90611da6565b60405180910390fd5b5f34116109a6576040517f08c379a000000000000000000000000000000000000000000000000000000000815260040161099d90611e0e565b60405180910390fd5b335f803373ffffffffffffffffffffffffffffffffffffffff1673ffffffffffffffffffffffffffffffffffffffff1681526020019081526020015f205f015f6101000a81548173ffffffffffffffffffffffffffffffffffffffff021916908373ffffffffffffffffffffffffffffffffffffffff160217905550815f803373ffffffffffffffffffffffffffffffffffffffff1673ffffffffffffffffffffffffffffffffffffffff1681526020019081526020015f206001019081610a6e9190611b44565b50805f803373ffffffffffffffffffffffffffffffffffffffff1673ffffffffffffffffffffffffffffffffffffffff1681526020019081526020015f206002019081610abb9190611b44565b50345f803373ffffffffffffffffffffffffffffffffffffffff1673ffffffffffffffffffffffffffffffffffffffff1681526020019081526020015f2060030181905550425f803373ffffffffffffffffffffffffffffffffffffffff1673ffffffffffffffffffffffffffffffffffffffff1681526020019081526020015f20600401819055506301e133805f803373ffffffffffffffffffffffffffffffffffffffff1673ffffffffffffffffffffffffffffffffffffffff1681526020019081526020015f20600501819055505f805f3373ffffffffffffffffffffffffffffffffffffffff1673ffffffffffffffffffffffffffffffffffffffff1681526020019081526020015f206006015f6101000a81548160ff0219169083151502179055506001805f3373ffffffffffffffffffffffffffffffffffffffff1673ffffffffffffffffffffffffffffffffffffffff1681526020019081526020015f205f6101000a81548160ff0219169083151502179055503373ffffffffffffffffffffffffffffffffffffffff167fd40dc4a639c90600691397f655099adba04d6b763ef2122630edd47c09f1b6f934604051610c7c919061139c565b60405180910390a25050565b5f60015f8373ffffffffffffffffffffffffffffffffffffffff1673ffffffffffffffffffffffffffffffffffffffff1681526020019081526020015f205f9054906101000a900460ff16610d12576040517f08c379a0000000000000000000000000000000000000000000000000000000008152600401610d09906116f5565b60405180910390fd5b5f808373ffffffffffffffffffffffffffffffffffffffff1673ffffffffffffffffffffffffffffffffffffffff1681526020019081526020015f206006015f9054906101000a900460ff169050919050565b60015f8273ffffffffffffffffffffffffffffffffffffffff1673ffffffffffffffffffffffffffffffffffffffff1681526020019081526020015f205f9054906101000a900460ff16610dee576040517f08c379a0000000000000000000000000000000000000000000000000000000008152600401610de5906116f5565b60405180910390fd5b5f808273ffffffffffffffffffffffffffffffffffffffff1673ffffffffffffffffffffffffffffffffffffffff1681526020019081526020015f20600501545f808373ffffffffffffffffffffffffffffffffffffffff1673ffffffffffffffffffffffffffffffffffffffff1681526020019081526020015f2060040154610e7891906118a5565b4211610eb9576040517f08c379a0000000000000000000000000000000000000000000000000000000008152600401610eb090611e76565b60405180910390fd5b5f808273ffffffffffffffffffffffffffffffffffffffff1673ffffffffffffffffffffffffffffffffffffffff1681526020019081526020015f206006015f9054906101000a900460ff1615610f45576040517f08c379a0000000000000000000000000000000000000000000000000000000008152600401610f3c90611d3e565b60405180910390fd5b60015f808373ffffffffffffffffffffffffffffffffffffffff1673ffffffffffffffffffffffffffffffffffffffff1681526020019081526020015f206006015f6101000a81548160ff0219169083151502179055505f805f8373ffffffffffffffffffffffffffffffffffffffff1673ffffffffffffffffffffffffffffffffffffffff1681526020019081526020015f206003015490505f8111611021576040517f08c379a000000000000000000000000000000000000000000000000000000000815260040161101890611ede565b60405180910390fd5b5f5b5f808473ffffffffffffffffffffffffffffffffffffffff1673ffffffffffffffffffffffffffffffffffffffff1681526020019081526020015f2060070180549050811015611262575f805f8573ffffffffffffffffffffffffffffffffffffffff1673ffffffffffffffffffffffffffffffffffffffff1681526020019081526020015f2060070182815481106110bf576110be61184b565b5b905f5260205f20906004020190505f60648260010154856110e09190611efc565b6110ea9190611f6a565b90508047106111d857815f015f9054906101000a900473ffffffffffffffffffffffffffffffffffffffff1673ffffffffffffffffffffffffffffffffffffffff166108fc8290811502906040515f60405180830381858888f19350505050158015611158573d5f803e3d5ffd5b50815f015f9054906101000a900473ffffffffffffffffffffffffffffffffffffffff1673ffffffffffffffffffffffffffffffffffffffff167fceb720b06c310edc215bee81670832bb918ba1199f401716364414ddb9b816a78284600201856003016040516111cb9392919061201b565b60405180910390a2611253565b815f015f9054906101000a900473ffffffffffffffffffffffffffffffffffffffff1673ffffffffffffffffffffffffffffffffffffffff167fceb720b06c310edc215bee81670832bb918ba1199f401716364414ddb9b816a75f846002018560030160405161124a93929190612097565b60405180910390a25b50508080600101915050611023565b505f805f8473ffffffffffffffffffffffffffffffffffffffff1673ffffffffffffffffffffffffffffffffffffffff1681526020019081526020015f20600301819055508173ffffffffffffffffffffffffffffffffffffffff167f16346f65adf8d84422b57ad74cb5607bf6c9e55c3c1fea66344057e5bba8a7ee60405160405180910390a25050565b5f604051905090565b5f80fd5b5f80fd5b5f73ffffffffffffffffffffffffffffffffffffffff82169050919050565b5f611328826112ff565b9050919050565b6113388161131e565b8114611342575f80fd5b50565b5f813590506113538161132f565b92915050565b5f6020828403121561136e5761136d6112f7565b5b5f61137b84828501611345565b91505092915050565b5f819050919050565b61139681611384565b82525050565b5f6020820190506113af5f83018461138d565b92915050565b5f6113bf826112ff565b9050919050565b6113cf816113b5565b81146113d9575f80fd5b50565b5f813590506113ea816113c6565b92915050565b6113f981611384565b8114611403575f80fd5b50565b5f81359050611414816113f0565b92915050565b5f80fd5b5f80fd5b5f601f19601f8301169050919050565b7f4e487b71000000000000000000000000000000000000000000000000000000005f52604160045260245ffd5b61146882611422565b810181811067ffffffffffffffff8211171561148757611486611432565b5b80604052505050565b5f6114996112ee565b90506114a5828261145f565b919050565b5f67ffffffffffffffff8211156114c4576114c3611432565b5b6114cd82611422565b9050602081019050919050565b828183375f83830152505050565b5f6114fa6114f5846114aa565b611490565b9050828152602081018484840111156115165761151561141e565b5b6115218482856114da565b509392505050565b5f82601f83011261153d5761153c61141a565b5b813561154d8482602086016114e8565b91505092915050565b5f805f806080858703121561156e5761156d6112f7565b5b5f61157b878288016113dc565b945050602061158c87828801611406565b935050604085013567ffffffffffffffff8111156115ad576115ac6112fb565b5b6115b987828801611529565b925050606085013567ffffffffffffffff8111156115da576115d96112fb565b5b6115e687828801611529565b91505092959194509250565b5f8115159050919050565b611606816115f2565b82525050565b5f60208201905061161f5f8301846115fd565b92915050565b5f806040838503121561163b5761163a6112f7565b5b5f83013567ffffffffffffffff811115611658576116576112fb565b5b61166485828601611529565b925050602083013567ffffffffffffffff811115611685576116846112fb565b5b61169185828601611529565b9150509250929050565b5f82825260208201905092915050565b7f4e6f2077696c6c20666f756e64210000000000000000000000000000000000005f82015250565b5f6116df600e8361169b565b91506116ea826116ab565b602082019050919050565b5f6020820190508181035f83015261170c816116d3565b9050919050565b7f596f75206e65656420746f2063726561746520612077696c6c206669727374005f82015250565b5f611747601f8361169b565b915061175282611713565b602082019050919050565b5f6020820190508181035f8301526117748161173b565b9050919050565b7f496e76616c69642077616c6c65742061646472657373000000000000000000005f82015250565b5f6117af60168361169b565b91506117ba8261177b565b602082019050919050565b5f6020820190508181035f8301526117dc816117a3565b9050919050565b7f496e76616c69642070657263656e7461676500000000000000000000000000005f82015250565b5f61181760128361169b565b9150611822826117e3565b602082019050919050565b5f6020820190508181035f8301526118448161180b565b9050919050565b7f4e487b71000000000000000000000000000000000000000000000000000000005f52603260045260245ffd5b7f4e487b71000000000000000000000000000000000000000000000000000000005f52601160045260245ffd5b5f6118af82611384565b91506118ba83611384565b92508282019050808211156118d2576118d1611878565b5b92915050565b7f546f74616c20616c6c6f636174696f6e206578636565647320313030250000005f82015250565b5f61190c601d8361169b565b9150611917826118d8565b602082019050919050565b5f6020820190508181035f83015261193981611900565b9050919050565b5f81519050919050565b7f4e487b71000000000000000000000000000000000000000000000000000000005f52602260045260245ffd5b5f600282049050600182168061198e57607f821691505b6020821081036119a1576119a061194a565b5b50919050565b5f819050815f5260205f209050919050565b5f6020601f8301049050919050565b5f82821b905092915050565b5f60088302611a037fffffffffffffffffffffffffffffffffffffffffffffffffffffffffffffffff826119c8565b611a0d86836119c8565b95508019841693508086168417925050509392505050565b5f819050919050565b5f611a48611a43611a3e84611384565b611a25565b611384565b9050919050565b5f819050919050565b611a6183611a2e565b611a75611a6d82611a4f565b8484546119d4565b825550505050565b5f90565b611a89611a7d565b611a94818484611a58565b505050565b5b81811015611ab757611aac5f82611a81565b600181019050611a9a565b5050565b601f821115611afc57611acd816119a7565b611ad6846119b9565b81016020851015611ae5578190505b611af9611af1856119b9565b830182611a99565b50505b505050565b5f82821c905092915050565b5f611b1c5f1984600802611b01565b1980831691505092915050565b5f611b348383611b0d565b9150826002028217905092915050565b611b4d82611940565b67ffffffffffffffff811115611b6657611b65611432565b5b611b708254611977565b611b7b828285611abb565b5f60209050601f831160018114611bac575f8415611b9a578287015190505b611ba48582611b29565b865550611c0b565b601f198416611bba866119a7565b5f5b82811015611be157848901518255600182019150602085019450602081019050611bbc565b86831015611bfe5784890151611bfa601f891682611b0d565b8355505b6001600288020188555050505b505050505050565b5f611c2d611c28611c23846112ff565b611a25565b6112ff565b9050919050565b5f611c3e82611c13565b9050919050565b5f611c4f82611c34565b9050919050565b611c5f81611c45565b82525050565b5f604082019050611c785f830185611c56565b611c85602083018461138d565b9392505050565b7f596f752068617665206e6f74206372656174656420612077696c6c00000000005f82015250565b5f611cc0601b8361169b565b9150611ccb82611c8c565b602082019050919050565b5f6020820190508181035f830152611ced81611cb4565b9050919050565b7f57696c6c20616c726561647920657865637574656421000000000000000000005f82015250565b5f611d2860168361169b565b9150611d3382611cf4565b602082019050919050565b5f6020820190508181035f830152611d5581611d1c565b9050919050565b7f596f7520616c7265616479206861766520612077696c6c2100000000000000005f82015250565b5f611d9060188361169b565b9150611d9b82611d5c565b602082019050919050565b5f6020820190508181035f830152611dbd81611d84565b9050919050565b7f4d757374206c6f636b20455448210000000000000000000000000000000000005f82015250565b5f611df8600e8361169b565b9150611e0382611dc4565b602082019050919050565b5f6020820190508181035f830152611e2581611dec565b9050919050565b7f4f776e6572206973207374696c6c20616c6976652100000000000000000000005f82015250565b5f611e6060158361169b565b9150611e6b82611e2c565b602082019050919050565b5f6020820190508181035f830152611e8d81611e54565b9050919050565b7f4e6f2045544820746f20646973747269627574650000000000000000000000005f82015250565b5f611ec860148361169b565b9150611ed382611e94565b602082019050919050565b5f6020820190508181035f830152611ef581611ebc565b9050919050565b5f611f0682611384565b9150611f1183611384565b9250828202611f1f81611384565b91508282048414831517611f3657611f35611878565b5b5092915050565b7f4e487b71000000000000000000000000000000000000000000000000000000005f52601260045260245ffd5b5f611f7482611384565b9150611f7f83611384565b925082611f8f57611f8e611f3d565b5b828204905092915050565b5f8154611fa681611977565b611fb0818661169b565b9450600182165f8114611fca5760018114611fe057612012565b60ff198316865281151560200286019350612012565b611fe9856119a7565b5f5b8381101561200a57815481890152600182019150602081019050611feb565b808801955050505b50505092915050565b5f60608201905061202e5f83018661138d565b81810360208301526120408185611f9a565b905081810360408301526120548184611f9a565b9050949350505050565b5f819050919050565b5f61208161207c6120778461205e565b611a25565b611384565b9050919050565b61209181612067565b82525050565b5f6060820190506120aa5f830186612088565b81810360208301526120bc8185611f9a565b905081810360408301526120d08184611f9a565b905094935050505056fea264697066735822122055aef94ffa6988c435b541108d631fb6810861fe396ce53ff720bd6280c28fc164736f6c634300081a0033', \n     arguments: [\n     ]\n}).send({\n     from: web3.eth.accounts[0], \n     gas: '4700000'\n   }, function (e, contract){\n    console.log(e, contract);\n    if (typeof contract.address !== 'undefined') {\n         console.log('Contract mined! address: ' + contract.address + ' transactionHash: ' + contract.transactionHash);\n    }\n })",
	"functionHashes": {
		"4ebde6d3": "addBeneficiary(address,uint256,string,string)",
		"6f9b65f0": "confirmAlive()",
		"b0daeb1c": "createWill(string,string)",
		"e854d135": "executeWill(address)",
		"2423c7f3": "getBeneficiaryCount(address)",
		"a7f01e4d": "getLockedFunds(address)",
		"549cc7b8": "hasWill(address)",
		"e7dda555": "isWillExecuted(address)"
	},
	"gasEstimates": {
		"Creation": {
			"codeDepositCost": "1692800",
			"executionCost": "1776",
			"totalCost": "1694576"
		},
		"External": {
			"addBeneficiary(address,uint256,string,string)": "infinite",
			"confirmAlive()": "26903",
			"createWill(string,string)": "infinite",
			"executeWill(address)": "infinite",
			"getBeneficiaryCount(address)": "5084",
			"getLockedFunds(address)": "5075",
			"hasWill(address)": "2878",
			"isWillExecuted(address)": "5160"
		}
	},
	"devdoc": {
		"kind": "dev",
		"methods": {
			"addBeneficiary(address,uint256,string,string)": {
				"details": "Adds a beneficiary to the caller's will.",
				"params": {
					"_email": "Email of the beneficiary.",
					"_percentage": "Share of ETH to be allocated.",
					"_saleDeedIpfsHash": "IPFS hash of the sale deed document assigned to the beneficiary.",
					"_wallet": "Address of the beneficiary."
				}
			},
			"confirmAlive()": {
				"details": "Confirms the testator is alive."
			},
			"createWill(string,string)": {
				"details": "Creates a new will for the sender.",
				"params": {
					"_firstName": "First name of the testator.",
					"_lastName": "Last name of the testator."
				}
			},
			"executeWill(address)": {
				"details": "Executes the will by distributing ETH and notifying beneficiaries."
			},
			"getBeneficiaryCount(address)": {
				"details": "Retrieves the total number of beneficiaries in the user's will."
			},
			"getLockedFunds(address)": {
				"details": "Retrieves the locked ETH amount in the will."
			},
			"isWillExecuted(address)": {
				"details": "Checks if the will has already been executed."
			}
		},
		"version": 1
	},
	"userdoc": {
		"kind": "user",
		"methods": {},
		"version": 1
	},
	"Runtime Bytecode": {
		"immutableReferences": {},
		"linkReferences": {},
		"object": "60806040526004361061007a575f3560e01c8063a7f01e4d1161004d578063a7f01e4d14610134578063b0daeb1c14610170578063e7dda5551461018c578063e854d135146101c85761007a565b80632423c7f31461007e5780634ebde6d3146100ba578063549cc7b8146100e25780636f9b65f01461011e575b5f80fd5b348015610089575f80fd5b506100a4600480360381019061009f9190611359565b6101f0565b6040516100b1919061139c565b60405180910390f35b3480156100c5575f80fd5b506100e060048036038101906100db9190611556565b6102c4565b005b3480156100ed575f80fd5b5061010860048036038101906101039190611359565b610691565b604051610115919061160c565b60405180910390f35b348015610129575f80fd5b506101326106ae565b005b34801561013f575f80fd5b5061015a60048036038101906101559190611359565b610809565b604051610167919061139c565b60405180910390f35b61018a60048036038101906101859190611625565b6108da565b005b348015610197575f80fd5b506101b260048036038101906101ad9190611359565b610c88565b6040516101bf919061160c565b60405180910390f35b3480156101d3575f80fd5b506101ee60048036038101906101e99190611359565b610d65565b005b5f60015f8373ffffffffffffffffffffffffffffffffffffffff1673ffffffffffffffffffffffffffffffffffffffff1681526020019081526020015f205f9054906101000a900460ff1661027a576040517f08c379a0000000000000000000000000000000000000000000000000000000008152600401610271906116f5565b60405180910390fd5b5f808373ffffffffffffffffffffffffffffffffffffffff1673ffffffffffffffffffffffffffffffffffffffff1681526020019081526020015f20600701805490509050919050565b60015f3373ffffffffffffffffffffffffffffffffffffffff1673ffffffffffffffffffffffffffffffffffffffff1681526020019081526020015f205f9054906101000a900460ff1661034d576040517f08c379a00000000000000000000000000000000000000000000000000000000081526004016103449061175d565b60405180910390fd5b5f73ffffffffffffffffffffffffffffffffffffffff168473ffffffffffffffffffffffffffffffffffffffff16036103bb576040517f08c379a00000000000000000000000000000000000000000000000000000000081526004016103b2906117c5565b60405180910390fd5b5f831180156103cb575060648311155b61040a576040517f08c379a00000000000000000000000000000000000000000000000000000000081526004016104019061182d565b60405180910390fd5b5f805b5f803373ffffffffffffffffffffffffffffffffffffffff1673ffffffffffffffffffffffffffffffffffffffff1681526020019081526020015f20600701805490508110156104d2575f803373ffffffffffffffffffffffffffffffffffffffff1673ffffffffffffffffffffffffffffffffffffffff1681526020019081526020015f2060070181815481106104a8576104a761184b565b5b905f5260205f20906004020160010154826104c391906118a5565b9150808060010191505061040d565b50606484826104e191906118a5565b1115610522576040517f08c379a000000000000000000000000000000000000000000000000000000000815260040161051990611922565b60405180910390fd5b5f803373ffffffffffffffffffffffffffffffffffffffff1673ffffffffffffffffffffffffffffffffffffffff1681526020019081526020015f2060070160405180608001604052808773ffffffffffffffffffffffffffffffffffffffff16815260200186815260200185815260200184815250908060018154018082558091505060019003905f5260205f2090600402015f909190919091505f820151815f015f6101000a81548173ffffffffffffffffffffffffffffffffffffffff021916908373ffffffffffffffffffffffffffffffffffffffff1602179055506020820151816001015560408201518160020190816106219190611b44565b5060608201518160030190816106379190611b44565b5050503373ffffffffffffffffffffffffffffffffffffffff167f5d081d791b64899adab031015397ef8d7600501212ef97573b9e50f8c9bb6d9b8686604051610682929190611c65565b60405180910390a25050505050565b6001602052805f5260405f205f915054906101000a900460ff1681565b60015f3373ffffffffffffffffffffffffffffffffffffffff1673ffffffffffffffffffffffffffffffffffffffff1681526020019081526020015f205f9054906101000a900460ff16610737576040517f08c379a000000000000000000000000000000000000000000000000000000000815260040161072e90611cd6565b60405180910390fd5b5f803373ffffffffffffffffffffffffffffffffffffffff1673ffffffffffffffffffffffffffffffffffffffff1681526020019081526020015f206006015f9054906101000a900460ff16156107c3576040517f08c379a00000000000000000000000000000000000000000000000000000000081526004016107ba90611d3e565b60405180910390fd5b425f803373ffffffffffffffffffffffffffffffffffffffff1673ffffffffffffffffffffffffffffffffffffffff1681526020019081526020015f2060040181905550565b5f60015f8373ffffffffffffffffffffffffffffffffffffffff1673ffffffffffffffffffffffffffffffffffffffff1681526020019081526020015f205f9054906101000a900460ff16610893576040517f08c379a000000000000000000000000000000000000000000000000000000000815260040161088a906116f5565b60405180910390fd5b5f808373ffffffffffffffffffffffffffffffffffffffff1673ffffffffffffffffffffffffffffffffffffffff1681526020019081526020015f20600301549050919050565b60015f3373ffffffffffffffffffffffffffffffffffffffff1673ffffffffffffffffffffffffffffffffffffffff1681526020019081526020015f205f9054906101000a900460ff1615610964576040517f08c379a000000000000000000000000000000000000000000000000000000000815260040161095b90611da6565b60405180910390fd5b5f34116109a6576040517f08c379a000000000000000000000000000000000000000000000000000000000815260040161099d90611e0e565b60405180910390fd5b335f803373ffffffffffffffffffffffffffffffffffffffff1673ffffffffffffffffffffffffffffffffffffffff1681526020019081526020015f205f015f6101000a81548173ffffffffffffffffffffffffffffffffffffffff021916908373ffffffffffffffffffffffffffffffffffffffff160217905550815f803373ffffffffffffffffffffffffffffffffffffffff1673ffffffffffffffffffffffffffffffffffffffff1681526020019081526020015f206001019081610a6e9190611b44565b50805f803373ffffffffffffffffffffffffffffffffffffffff1673ffffffffffffffffffffffffffffffffffffffff1681526020019081526020015f206002019081610abb9190611b44565b50345f803373ffffffffffffffffffffffffffffffffffffffff1673ffffffffffffffffffffffffffffffffffffffff1681526020019081526020015f2060030181905550425f803373ffffffffffffffffffffffffffffffffffffffff1673ffffffffffffffffffffffffffffffffffffffff1681526020019081526020015f20600401819055506301e133805f803373ffffffffffffffffffffffffffffffffffffffff1673ffffffffffffffffffffffffffffffffffffffff1681526020019081526020015f20600501819055505f805f3373ffffffffffffffffffffffffffffffffffffffff1673ffffffffffffffffffffffffffffffffffffffff1681526020019081526020015f206006015f6101000a81548160ff0219169083151502179055506001805f3373ffffffffffffffffffffffffffffffffffffffff1673ffffffffffffffffffffffffffffffffffffffff1681526020019081526020015f205f6101000a81548160ff0219169083151502179055503373ffffffffffffffffffffffffffffffffffffffff167fd40dc4a639c90600691397f655099adba04d6b763ef2122630edd47c09f1b6f934604051610c7c919061139c565b60405180910390a25050565b5f60015f8373ffffffffffffffffffffffffffffffffffffffff1673ffffffffffffffffffffffffffffffffffffffff1681526020019081526020015f205f9054906101000a900460ff16610d12576040517f08c379a0000000000000000000000000000000000000000000000000000000008152600401610d09906116f5565b60405180910390fd5b5f808373ffffffffffffffffffffffffffffffffffffffff1673ffffffffffffffffffffffffffffffffffffffff1681526020019081526020015f206006015f9054906101000a900460ff169050919050565b60015f8273ffffffffffffffffffffffffffffffffffffffff1673ffffffffffffffffffffffffffffffffffffffff1681526020019081526020015f205f9054906101000a900460ff16610dee576040517f08c379a0000000000000000000000000000000000000000000000000000000008152600401610de5906116f5565b60405180910390fd5b5f808273ffffffffffffffffffffffffffffffffffffffff1673ffffffffffffffffffffffffffffffffffffffff1681526020019081526020015f20600501545f808373ffffffffffffffffffffffffffffffffffffffff1673ffffffffffffffffffffffffffffffffffffffff1681526020019081526020015f2060040154610e7891906118a5565b4211610eb9576040517f08c379a0000000000000000000000000000000000000000000000000000000008152600401610eb090611e76565b60405180910390fd5b5f808273ffffffffffffffffffffffffffffffffffffffff1673ffffffffffffffffffffffffffffffffffffffff1681526020019081526020015f206006015f9054906101000a900460ff1615610f45576040517f08c379a0000000000000000000000000000000000000000000000000000000008152600401610f3c90611d3e565b60405180910390fd5b60015f808373ffffffffffffffffffffffffffffffffffffffff1673ffffffffffffffffffffffffffffffffffffffff1681526020019081526020015f206006015f6101000a81548160ff0219169083151502179055505f805f8373ffffffffffffffffffffffffffffffffffffffff1673ffffffffffffffffffffffffffffffffffffffff1681526020019081526020015f206003015490505f8111611021576040517f08c379a000000000000000000000000000000000000000000000000000000000815260040161101890611ede565b60405180910390fd5b5f5b5f808473ffffffffffffffffffffffffffffffffffffffff1673ffffffffffffffffffffffffffffffffffffffff1681526020019081526020015f2060070180549050811015611262575f805f8573ffffffffffffffffffffffffffffffffffffffff1673ffffffffffffffffffffffffffffffffffffffff1681526020019081526020015f2060070182815481106110bf576110be61184b565b5b905f5260205f20906004020190505f60648260010154856110e09190611efc565b6110ea9190611f6a565b90508047106111d857815f015f9054906101000a900473ffffffffffffffffffffffffffffffffffffffff1673ffffffffffffffffffffffffffffffffffffffff166108fc8290811502906040515f60405180830381858888f19350505050158015611158573d5f803e3d5ffd5b50815f015f9054906101000a900473ffffffffffffffffffffffffffffffffffffffff1673ffffffffffffffffffffffffffffffffffffffff167fceb720b06c310edc215bee81670832bb918ba1199f401716364414ddb9b816a78284600201856003016040516111cb9392919061201b565b60405180910390a2611253565b815f015f9054906101000a900473ffffffffffffffffffffffffffffffffffffffff1673ffffffffffffffffffffffffffffffffffffffff167fceb720b06c310edc215bee81670832bb918ba1199f401716364414ddb9b816a75f846002018560030160405161124a93929190612097565b60405180910390a25b50508080600101915050611023565b505f805f8473ffffffffffffffffffffffffffffffffffffffff1673ffffffffffffffffffffffffffffffffffffffff1681526020019081526020015f20600301819055508173ffffffffffffffffffffffffffffffffffffffff167f16346f65adf8d84422b57ad74cb5607bf6c9e55c3c1fea66344057e5bba8a7ee60405160405180910390a25050565b5f604051905090565b5f80fd5b5f80fd5b5f73ffffffffffffffffffffffffffffffffffffffff82169050919050565b5f611328826112ff565b9050919050565b6113388161131e565b8114611342575f80fd5b50565b5f813590506113538161132f565b92915050565b5f6020828403121561136e5761136d6112f7565b5b5f61137b84828501611345565b91505092915050565b5f819050919050565b61139681611384565b82525050565b5f6020820190506113af5f83018461138d565b92915050565b5f6113bf826112ff565b9050919050565b6113cf816113b5565b81146113d9575f80fd5b50565b5f813590506113ea816113c6565b92915050565b6113f981611384565b8114611403575f80fd5b50565b5f81359050611414816113f0565b92915050565b5f80fd5b5f80fd5b5f601f19601f8301169050919050565b7f4e487b71000000000000000000000000000000000000000000000000000000005f52604160045260245ffd5b61146882611422565b810181811067ffffffffffffffff8211171561148757611486611432565b5b80604052505050565b5f6114996112ee565b90506114a5828261145f565b919050565b5f67ffffffffffffffff8211156114c4576114c3611432565b5b6114cd82611422565b9050602081019050919050565b828183375f83830152505050565b5f6114fa6114f5846114aa565b611490565b9050828152602081018484840111156115165761151561141e565b5b6115218482856114da565b509392505050565b5f82601f83011261153d5761153c61141a565b5b813561154d8482602086016114e8565b91505092915050565b5f805f806080858703121561156e5761156d6112f7565b5b5f61157b878288016113dc565b945050602061158c87828801611406565b935050604085013567ffffffffffffffff8111156115ad576115ac6112fb565b5b6115b987828801611529565b925050606085013567ffffffffffffffff8111156115da576115d96112fb565b5b6115e687828801611529565b91505092959194509250565b5f8115159050919050565b611606816115f2565b82525050565b5f60208201905061161f5f8301846115fd565b92915050565b5f806040838503121561163b5761163a6112f7565b5b5f83013567ffffffffffffffff811115611658576116576112fb565b5b61166485828601611529565b925050602083013567ffffffffffffffff811115611685576116846112fb565b5b61169185828601611529565b9150509250929050565b5f82825260208201905092915050565b7f4e6f2077696c6c20666f756e64210000000000000000000000000000000000005f82015250565b5f6116df600e8361169b565b91506116ea826116ab565b602082019050919050565b5f6020820190508181035f83015261170c816116d3565b9050919050565b7f596f75206e65656420746f2063726561746520612077696c6c206669727374005f82015250565b5f611747601f8361169b565b915061175282611713565b602082019050919050565b5f6020820190508181035f8301526117748161173b565b9050919050565b7f496e76616c69642077616c6c65742061646472657373000000000000000000005f82015250565b5f6117af60168361169b565b91506117ba8261177b565b602082019050919050565b5f6020820190508181035f8301526117dc816117a3565b9050919050565b7f496e76616c69642070657263656e7461676500000000000000000000000000005f82015250565b5f61181760128361169b565b9150611822826117e3565b602082019050919050565b5f6020820190508181035f8301526118448161180b565b9050919050565b7f4e487b71000000000000000000000000000000000000000000000000000000005f52603260045260245ffd5b7f4e487b71000000000000000000000000000000000000000000000000000000005f52601160045260245ffd5b5f6118af82611384565b91506118ba83611384565b92508282019050808211156118d2576118d1611878565b5b92915050565b7f546f74616c20616c6c6f636174696f6e206578636565647320313030250000005f82015250565b5f61190c601d8361169b565b9150611917826118d8565b602082019050919050565b5f6020820190508181035f83015261193981611900565b9050919050565b5f81519050919050565b7f4e487b71000000000000000000000000000000000000000000000000000000005f52602260045260245ffd5b5f600282049050600182168061198e57607f821691505b6020821081036119a1576119a061194a565b5b50919050565b5f819050815f5260205f209050919050565b5f6020601f8301049050919050565b5f82821b905092915050565b5f60088302611a037fffffffffffffffffffffffffffffffffffffffffffffffffffffffffffffffff826119c8565b611a0d86836119c8565b95508019841693508086168417925050509392505050565b5f819050919050565b5f611a48611a43611a3e84611384565b611a25565b611384565b9050919050565b5f819050919050565b611a6183611a2e565b611a75611a6d82611a4f565b8484546119d4565b825550505050565b5f90565b611a89611a7d565b611a94818484611a58565b505050565b5b81811015611ab757611aac5f82611a81565b600181019050611a9a565b5050565b601f821115611afc57611acd816119a7565b611ad6846119b9565b81016020851015611ae5578190505b611af9611af1856119b9565b830182611a99565b50505b505050565b5f82821c905092915050565b5f611b1c5f1984600802611b01565b1980831691505092915050565b5f611b348383611b0d565b9150826002028217905092915050565b611b4d82611940565b67ffffffffffffffff811115611b6657611b65611432565b5b611b708254611977565b611b7b828285611abb565b5f60209050601f831160018114611bac575f8415611b9a578287015190505b611ba48582611b29565b865550611c0b565b601f198416611bba866119a7565b5f5b82811015611be157848901518255600182019150602085019450602081019050611bbc565b86831015611bfe5784890151611bfa601f891682611b0d565b8355505b6001600288020188555050505b505050505050565b5f611c2d611c28611c23846112ff565b611a25565b6112ff565b9050919050565b5f611c3e82611c13565b9050919050565b5f611c4f82611c34565b9050919050565b611c5f81611c45565b82525050565b5f604082019050611c785f830185611c56565b611c85602083018461138d565b9392505050565b7f596f752068617665206e6f74206372656174656420612077696c6c00000000005f82015250565b5f611cc0601b8361169b565b9150611ccb82611c8c565b602082019050919050565b5f6020820190508181035f830152611ced81611cb4565b9050919050565b7f57696c6c20616c726561647920657865637574656421000000000000000000005f82015250565b5f611d2860168361169b565b9150611d3382611cf4565b602082019050919050565b5f6020820190508181035f830152611d5581611d1c565b9050919050565b7f596f7520616c7265616479206861766520612077696c6c2100000000000000005f82015250565b5f611d9060188361169b565b9150611d9b82611d5c565b602082019050919050565b5f6020820190508181035f830152611dbd81611d84565b9050919050565b7f4d757374206c6f636b20455448210000000000000000000000000000000000005f82015250565b5f611df8600e8361169b565b9150611e0382611dc4565b602082019050919050565b5f6020820190508181035f830152611e2581611dec565b9050919050565b7f4f776e6572206973207374696c6c20616c6976652100000000000000000000005f82015250565b5f611e6060158361169b565b9150611e6b82611e2c565b602082019050919050565b5f6020820190508181035f830152611e8d81611e54565b9050919050565b7f4e6f2045544820746f20646973747269627574650000000000000000000000005f82015250565b5f611ec860148361169b565b9150611ed382611e94565b602082019050919050565b5f6020820190508181035f830152611ef581611ebc565b9050919050565b5f611f0682611384565b9150611f1183611384565b9250828202611f1f81611384565b91508282048414831517611f3657611f35611878565b5b5092915050565b7f4e487b71000000000000000000000000000000000000000000000000000000005f52601260045260245ffd5b5f611f7482611384565b9150611f7f83611384565b925082611f8f57611f8e611f3d565b5b828204905092915050565b5f8154611fa681611977565b611fb0818661169b565b9450600182165f8114611fca5760018114611fe057612012565b60ff198316865281151560200286019350612012565b611fe9856119a7565b5f5b8381101561200a57815481890152600182019150602081019050611feb565b808801955050505b50505092915050565b5f60608201905061202e5f83018661138d565b81810360208301526120408185611f9a565b905081810360408301526120548184611f9a565b9050949350505050565b5f819050919050565b5f61208161207c6120778461205e565b611a25565b611384565b9050919050565b61209181612067565b82525050565b5f6060820190506120aa5f830186612088565b81810360208301526120bc8185611f9a565b905081810360408301526120d08184611f9a565b905094935050505056fea264697066735822122055aef94ffa6988c435b541108d631fb6810861fe396ce53ff720bd6280c28fc164736f6c634300081a0033",
		"opcodes": "PUSH1 0x80 PUSH1 0x40 MSTORE PUSH1 0x4 CALLDATASIZE LT PUSH2 0x7A JUMPI PUSH0 CALLDATALOAD PUSH1 0xE0 SHR DUP1 PUSH4 0xA7F01E4D GT PUSH2 0x4D JUMPI DUP1 PUSH4 0xA7F01E4D EQ PUSH2 0x134 JUMPI DUP1 PUSH4 0xB0DAEB1C EQ PUSH2 0x170 JUMPI DUP1 PUSH4 0xE7DDA555 EQ PUSH2 0x18C JUMPI DUP1 PUSH4 0xE854D135 EQ PUSH2 0x1C8 JUMPI PUSH2 0x7A JUMP JUMPDEST DUP1 PUSH4 0x2423C7F3 EQ PUSH2 0x7E JUMPI DUP1 PUSH4 0x4EBDE6D3 EQ PUSH2 0xBA JUMPI DUP1 PUSH4 0x549CC7B8 EQ PUSH2 0xE2 JUMPI DUP1 PUSH4 0x6F9B65F0 EQ PUSH2 0x11E JUMPI JUMPDEST PUSH0 DUP1 REVERT JUMPDEST CALLVALUE DUP1 ISZERO PUSH2 0x89 JUMPI PUSH0 DUP1 REVERT JUMPDEST POP PUSH2 0xA4 PUSH1 0x4 DUP1 CALLDATASIZE SUB DUP2 ADD SWAP1 PUSH2 0x9F SWAP2 SWAP1 PUSH2 0x1359 JUMP JUMPDEST PUSH2 0x1F0 JUMP JUMPDEST PUSH1 0x40 MLOAD PUSH2 0xB1 SWAP2 SWAP1 PUSH2 0x139C JUMP JUMPDEST PUSH1 0x40 MLOAD DUP1 SWAP2 SUB SWAP1 RETURN JUMPDEST CALLVALUE DUP1 ISZERO PUSH2 0xC5 JUMPI PUSH0 DUP1 REVERT JUMPDEST POP PUSH2 0xE0 PUSH1 0x4 DUP1 CALLDATASIZE SUB DUP2 ADD SWAP1 PUSH2 0xDB SWAP2 SWAP1 PUSH2 0x1556 JUMP JUMPDEST PUSH2 0x2C4 JUMP JUMPDEST STOP JUMPDEST CALLVALUE DUP1 ISZERO PUSH2 0xED JUMPI PUSH0 DUP1 REVERT JUMPDEST POP PUSH2 0x108 PUSH1 0x4 DUP1 CALLDATASIZE SUB DUP2 ADD SWAP1 PUSH2 0x103 SWAP2 SWAP1 PUSH2 0x1359 JUMP JUMPDEST PUSH2 0x691 JUMP JUMPDEST PUSH1 0x40 MLOAD PUSH2 0x115 SWAP2 SWAP1 PUSH2 0x160C JUMP JUMPDEST PUSH1 0x40 MLOAD DUP1 SWAP2 SUB SWAP1 RETURN JUMPDEST CALLVALUE DUP1 ISZERO PUSH2 0x129 JUMPI PUSH0 DUP1 REVERT JUMPDEST POP PUSH2 0x132 PUSH2 0x6AE JUMP JUMPDEST STOP JUMPDEST CALLVALUE DUP1 ISZERO PUSH2 0x13F JUMPI PUSH0 DUP1 REVERT JUMPDEST POP PUSH2 0x15A PUSH1 0x4 DUP1 CALLDATASIZE SUB DUP2 ADD SWAP1 PUSH2 0x155 SWAP2 SWAP1 PUSH2 0x1359 JUMP JUMPDEST PUSH2 0x809 JUMP JUMPDEST PUSH1 0x40 MLOAD PUSH2 0x167 SWAP2 SWAP1 PUSH2 0x139C JUMP JUMPDEST PUSH1 0x40 MLOAD DUP1 SWAP2 SUB SWAP1 RETURN JUMPDEST PUSH2 0x18A PUSH1 0x4 DUP1 CALLDATASIZE SUB DUP2 ADD SWAP1 PUSH2 0x185 SWAP2 SWAP1 PUSH2 0x1625 JUMP JUMPDEST PUSH2 0x8DA JUMP JUMPDEST STOP JUMPDEST CALLVALUE DUP1 ISZERO PUSH2 0x197 JUMPI PUSH0 DUP1 REVERT JUMPDEST POP PUSH2 0x1B2 PUSH1 0x4 DUP1 CALLDATASIZE SUB DUP2 ADD SWAP1 PUSH2 0x1AD SWAP2 SWAP1 PUSH2 0x1359 JUMP JUMPDEST PUSH2 0xC88 JUMP JUMPDEST PUSH1 0x40 MLOAD PUSH2 0x1BF SWAP2 SWAP1 PUSH2 0x160C JUMP JUMPDEST PUSH1 0x40 MLOAD DUP1 SWAP2 SUB SWAP1 RETURN JUMPDEST CALLVALUE DUP1 ISZERO PUSH2 0x1D3 JUMPI PUSH0 DUP1 REVERT JUMPDEST POP PUSH2 0x1EE PUSH1 0x4 DUP1 CALLDATASIZE SUB DUP2 ADD SWAP1 PUSH2 0x1E9 SWAP2 SWAP1 PUSH2 0x1359 JUMP JUMPDEST PUSH2 0xD65 JUMP JUMPDEST STOP JUMPDEST PUSH0 PUSH1 0x1 PUSH0 DUP4 PUSH20 0xFFFFFFFFFFFFFFFFFFFFFFFFFFFFFFFFFFFFFFFF AND PUSH20 0xFFFFFFFFFFFFFFFFFFFFFFFFFFFFFFFFFFFFFFFF AND DUP2 MSTORE PUSH1 0x20 ADD SWAP1 DUP2 MSTORE PUSH1 0x20 ADD PUSH0 KECCAK256 PUSH0 SWAP1 SLOAD SWAP1 PUSH2 0x100 EXP SWAP1 DIV PUSH1 0xFF AND PUSH2 0x27A JUMPI PUSH1 0x40 MLOAD PUSH32 0x8C379A000000000000000000000000000000000000000000000000000000000 DUP2 MSTORE PUSH1 0x4 ADD PUSH2 0x271 SWAP1 PUSH2 0x16F5 JUMP JUMPDEST PUSH1 0x40 MLOAD DUP1 SWAP2 SUB SWAP1 REVERT JUMPDEST PUSH0 DUP1 DUP4 PUSH20 0xFFFFFFFFFFFFFFFFFFFFFFFFFFFFFFFFFFFFFFFF AND PUSH20 0xFFFFFFFFFFFFFFFFFFFFFFFFFFFFFFFFFFFFFFFF AND DUP2 MSTORE PUSH1 0x20 ADD SWAP1 DUP2 MSTORE PUSH1 0x20 ADD PUSH0 KECCAK256 PUSH1 0x7 ADD DUP1 SLOAD SWAP1 POP SWAP1 POP SWAP2 SWAP1 POP JUMP JUMPDEST PUSH1 0x1 PUSH0 CALLER PUSH20 0xFFFFFFFFFFFFFFFFFFFFFFFFFFFFFFFFFFFFFFFF AND PUSH20 0xFFFFFFFFFFFFFFFFFFFFFFFFFFFFFFFFFFFFFFFF AND DUP2 MSTORE PUSH1 0x20 ADD SWAP1 DUP2 MSTORE PUSH1 0x20 ADD PUSH0 KECCAK256 PUSH0 SWAP1 SLOAD SWAP1 PUSH2 0x100 EXP SWAP1 DIV PUSH1 0xFF AND PUSH2 0x34D JUMPI PUSH1 0x40 MLOAD PUSH32 0x8C379A000000000000000000000000000000000000000000000000000000000 DUP2 MSTORE PUSH1 0x4 ADD PUSH2 0x344 SWAP1 PUSH2 0x175D JUMP JUMPDEST PUSH1 0x40 MLOAD DUP1 SWAP2 SUB SWAP1 REVERT JUMPDEST PUSH0 PUSH20 0xFFFFFFFFFFFFFFFFFFFFFFFFFFFFFFFFFFFFFFFF AND DUP5 PUSH20 0xFFFFFFFFFFFFFFFFFFFFFFFFFFFFFFFFFFFFFFFF AND SUB PUSH2 0x3BB JUMPI PUSH1 0x40 MLOAD PUSH32 0x8C379A000000000000000000000000000000000000000000000000000000000 DUP2 MSTORE PUSH1 0x4 ADD PUSH2 0x3B2 SWAP1 PUSH2 0x17C5 JUMP JUMPDEST PUSH1 0x40 MLOAD DUP1 SWAP2 SUB SWAP1 REVERT JUMPDEST PUSH0 DUP4 GT DUP1 ISZERO PUSH2 0x3CB JUMPI POP PUSH1 0x64 DUP4 GT ISZERO JUMPDEST PUSH2 0x40A JUMPI PUSH1 0x40 MLOAD PUSH32 0x8C379A000000000000000000000000000000000000000000000000000000000 DUP2 MSTORE PUSH1 0x4 ADD PUSH2 0x401 SWAP1 PUSH2 0x182D JUMP JUMPDEST PUSH1 0x40 MLOAD DUP1 SWAP2 SUB SWAP1 REVERT JUMPDEST PUSH0 DUP1 JUMPDEST PUSH0 DUP1 CALLER PUSH20 0xFFFFFFFFFFFFFFFFFFFFFFFFFFFFFFFFFFFFFFFF AND PUSH20 0xFFFFFFFFFFFFFFFFFFFFFFFFFFFFFFFFFFFFFFFF AND DUP2 MSTORE PUSH1 0x20 ADD SWAP1 DUP2 MSTORE PUSH1 0x20 ADD PUSH0 KECCAK256 PUSH1 0x7 ADD DUP1 SLOAD SWAP1 POP DUP2 LT ISZERO PUSH2 0x4D2 JUMPI PUSH0 DUP1 CALLER PUSH20 0xFFFFFFFFFFFFFFFFFFFFFFFFFFFFFFFFFFFFFFFF AND PUSH20 0xFFFFFFFFFFFFFFFFFFFFFFFFFFFFFFFFFFFFFFFF AND DUP2 MSTORE PUSH1 0x20 ADD SWAP1 DUP2 MSTORE PUSH1 0x20 ADD PUSH0 KECCAK256 PUSH1 0x7 ADD DUP2 DUP2 SLOAD DUP2 LT PUSH2 0x4A8 JUMPI PUSH2 0x4A7 PUSH2 0x184B JUMP JUMPDEST JUMPDEST SWAP1 PUSH0 MSTORE PUSH1 0x20 PUSH0 KECCAK256 SWAP1 PUSH1 0x4 MUL ADD PUSH1 0x1 ADD SLOAD DUP3 PUSH2 0x4C3 SWAP2 SWAP1 PUSH2 0x18A5 JUMP JUMPDEST SWAP2 POP DUP1 DUP1 PUSH1 0x1 ADD SWAP2 POP POP PUSH2 0x40D JUMP JUMPDEST POP PUSH1 0x64 DUP5 DUP3 PUSH2 0x4E1 SWAP2 SWAP1 PUSH2 0x18A5 JUMP JUMPDEST GT ISZERO PUSH2 0x522 JUMPI PUSH1 0x40 MLOAD PUSH32 0x8C379A000000000000000000000000000000000000000000000000000000000 DUP2 MSTORE PUSH1 0x4 ADD PUSH2 0x519 SWAP1 PUSH2 0x1922 JUMP JUMPDEST PUSH1 0x40 MLOAD DUP1 SWAP2 SUB SWAP1 REVERT JUMPDEST PUSH0 DUP1 CALLER PUSH20 0xFFFFFFFFFFFFFFFFFFFFFFFFFFFFFFFFFFFFFFFF AND PUSH20 0xFFFFFFFFFFFFFFFFFFFFFFFFFFFFFFFFFFFFFFFF AND DUP2 MSTORE PUSH1 0x20 ADD SWAP1 DUP2 MSTORE PUSH1 0x20 ADD PUSH0 KECCAK256 PUSH1 0x7 ADD PUSH1 0x40 MLOAD DUP1 PUSH1 0x80 ADD PUSH1 0x40 MSTORE DUP1 DUP8 PUSH20 0xFFFFFFFFFFFFFFFFFFFFFFFFFFFFFFFFFFFFFFFF AND DUP2 MSTORE PUSH1 0x20 ADD DUP7 DUP2 MSTORE PUSH1 0x20 ADD DUP6 DUP2 MSTORE PUSH1 0x20 ADD DUP5 DUP2 MSTORE POP SWAP1 DUP1 PUSH1 0x1 DUP2 SLOAD ADD DUP1 DUP3 SSTORE DUP1 SWAP2 POP POP PUSH1 0x1 SWAP1 SUB SWAP1 PUSH0 MSTORE PUSH1 0x20 PUSH0 KECCAK256 SWAP1 PUSH1 0x4 MUL ADD PUSH0 SWAP1 SWAP2 SWAP1 SWAP2 SWAP1 SWAP2 POP PUSH0 DUP3 ADD MLOAD DUP2 PUSH0 ADD PUSH0 PUSH2 0x100 EXP DUP2 SLOAD DUP2 PUSH20 0xFFFFFFFFFFFFFFFFFFFFFFFFFFFFFFFFFFFFFFFF MUL NOT AND SWAP1 DUP4 PUSH20 0xFFFFFFFFFFFFFFFFFFFFFFFFFFFFFFFFFFFFFFFF AND MUL OR SWAP1 SSTORE POP PUSH1 0x20 DUP3 ADD MLOAD DUP2 PUSH1 0x1 ADD SSTORE PUSH1 0x40 DUP3 ADD MLOAD DUP2 PUSH1 0x2 ADD SWAP1 DUP2 PUSH2 0x621 SWAP2 SWAP1 PUSH2 0x1B44 JUMP JUMPDEST POP PUSH1 0x60 DUP3 ADD MLOAD DUP2 PUSH1 0x3 ADD SWAP1 DUP2 PUSH2 0x637 SWAP2 SWAP1 PUSH2 0x1B44 JUMP JUMPDEST POP POP POP CALLER PUSH20 0xFFFFFFFFFFFFFFFFFFFFFFFFFFFFFFFFFFFFFFFF AND PUSH32 0x5D081D791B64899ADAB031015397EF8D7600501212EF97573B9E50F8C9BB6D9B DUP7 DUP7 PUSH1 0x40 MLOAD PUSH2 0x682 SWAP3 SWAP2 SWAP1 PUSH2 0x1C65 JUMP JUMPDEST PUSH1 0x40 MLOAD DUP1 SWAP2 SUB SWAP1 LOG2 POP POP POP POP POP JUMP JUMPDEST PUSH1 0x1 PUSH1 0x20 MSTORE DUP1 PUSH0 MSTORE PUSH1 0x40 PUSH0 KECCAK256 PUSH0 SWAP2 POP SLOAD SWAP1 PUSH2 0x100 EXP SWAP1 DIV PUSH1 0xFF AND DUP2 JUMP JUMPDEST PUSH1 0x1 PUSH0 CALLER PUSH20 0xFFFFFFFFFFFFFFFFFFFFFFFFFFFFFFFFFFFFFFFF AND PUSH20 0xFFFFFFFFFFFFFFFFFFFFFFFFFFFFFFFFFFFFFFFF AND DUP2 MSTORE PUSH1 0x20 ADD SWAP1 DUP2 MSTORE PUSH1 0x20 ADD PUSH0 KECCAK256 PUSH0 SWAP1 SLOAD SWAP1 PUSH2 0x100 EXP SWAP1 DIV PUSH1 0xFF AND PUSH2 0x737 JUMPI PUSH1 0x40 MLOAD PUSH32 0x8C379A000000000000000000000000000000000000000000000000000000000 DUP2 MSTORE PUSH1 0x4 ADD PUSH2 0x72E SWAP1 PUSH2 0x1CD6 JUMP JUMPDEST PUSH1 0x40 MLOAD DUP1 SWAP2 SUB SWAP1 REVERT JUMPDEST PUSH0 DUP1 CALLER PUSH20 0xFFFFFFFFFFFFFFFFFFFFFFFFFFFFFFFFFFFFFFFF AND PUSH20 0xFFFFFFFFFFFFFFFFFFFFFFFFFFFFFFFFFFFFFFFF AND DUP2 MSTORE PUSH1 0x20 ADD SWAP1 DUP2 MSTORE PUSH1 0x20 ADD PUSH0 KECCAK256 PUSH1 0x6 ADD PUSH0 SWAP1 SLOAD SWAP1 PUSH2 0x100 EXP SWAP1 DIV PUSH1 0xFF AND ISZERO PUSH2 0x7C3 JUMPI PUSH1 0x40 MLOAD PUSH32 0x8C379A000000000000000000000000000000000000000000000000000000000 DUP2 MSTORE PUSH1 0x4 ADD PUSH2 0x7BA SWAP1 PUSH2 0x1D3E JUMP JUMPDEST PUSH1 0x40 MLOAD DUP1 SWAP2 SUB SWAP1 REVERT JUMPDEST TIMESTAMP PUSH0 DUP1 CALLER PUSH20 0xFFFFFFFFFFFFFFFFFFFFFFFFFFFFFFFFFFFFFFFF AND PUSH20 0xFFFFFFFFFFFFFFFFFFFFFFFFFFFFFFFFFFFFFFFF AND DUP2 MSTORE PUSH1 0x20 ADD SWAP1 DUP2 MSTORE PUSH1 0x20 ADD PUSH0 KECCAK256 PUSH1 0x4 ADD DUP2 SWAP1 SSTORE POP JUMP JUMPDEST PUSH0 PUSH1 0x1 PUSH0 DUP4 PUSH20 0xFFFFFFFFFFFFFFFFFFFFFFFFFFFFFFFFFFFFFFFF AND PUSH20 0xFFFFFFFFFFFFFFFFFFFFFFFFFFFFFFFFFFFFFFFF AND DUP2 MSTORE PUSH1 0x20 ADD SWAP1 DUP2 MSTORE PUSH1 0x20 ADD PUSH0 KECCAK256 PUSH0 SWAP1 SLOAD SWAP1 PUSH2 0x100 EXP SWAP1 DIV PUSH1 0xFF AND PUSH2 0x893 JUMPI PUSH1 0x40 MLOAD PUSH32 0x8C379A000000000000000000000000000000000000000000000000000000000 DUP2 MSTORE PUSH1 0x4 ADD PUSH2 0x88A SWAP1 PUSH2 0x16F5 JUMP JUMPDEST PUSH1 0x40 MLOAD DUP1 SWAP2 SUB SWAP1 REVERT JUMPDEST PUSH0 DUP1 DUP4 PUSH20 0xFFFFFFFFFFFFFFFFFFFFFFFFFFFFFFFFFFFFFFFF AND PUSH20 0xFFFFFFFFFFFFFFFFFFFFFFFFFFFFFFFFFFFFFFFF AND DUP2 MSTORE PUSH1 0x20 ADD SWAP1 DUP2 MSTORE PUSH1 0x20 ADD PUSH0 KECCAK256 PUSH1 0x3 ADD SLOAD SWAP1 POP SWAP2 SWAP1 POP JUMP JUMPDEST PUSH1 0x1 PUSH0 CALLER PUSH20 0xFFFFFFFFFFFFFFFFFFFFFFFFFFFFFFFFFFFFFFFF AND PUSH20 0xFFFFFFFFFFFFFFFFFFFFFFFFFFFFFFFFFFFFFFFF AND DUP2 MSTORE PUSH1 0x20 ADD SWAP1 DUP2 MSTORE PUSH1 0x20 ADD PUSH0 KECCAK256 PUSH0 SWAP1 SLOAD SWAP1 PUSH2 0x100 EXP SWAP1 DIV PUSH1 0xFF AND ISZERO PUSH2 0x964 JUMPI PUSH1 0x40 MLOAD PUSH32 0x8C379A000000000000000000000000000000000000000000000000000000000 DUP2 MSTORE PUSH1 0x4 ADD PUSH2 0x95B SWAP1 PUSH2 0x1DA6 JUMP JUMPDEST PUSH1 0x40 MLOAD DUP1 SWAP2 SUB SWAP1 REVERT JUMPDEST PUSH0 CALLVALUE GT PUSH2 0x9A6 JUMPI PUSH1 0x40 MLOAD PUSH32 0x8C379A000000000000000000000000000000000000000000000000000000000 DUP2 MSTORE PUSH1 0x4 ADD PUSH2 0x99D SWAP1 PUSH2 0x1E0E JUMP JUMPDEST PUSH1 0x40 MLOAD DUP1 SWAP2 SUB SWAP1 REVERT JUMPDEST CALLER PUSH0 DUP1 CALLER PUSH20 0xFFFFFFFFFFFFFFFFFFFFFFFFFFFFFFFFFFFFFFFF AND PUSH20 0xFFFFFFFFFFFFFFFFFFFFFFFFFFFFFFFFFFFFFFFF AND DUP2 MSTORE PUSH1 0x20 ADD SWAP1 DUP2 MSTORE PUSH1 0x20 ADD PUSH0 KECCAK256 PUSH0 ADD PUSH0 PUSH2 0x100 EXP DUP2 SLOAD DUP2 PUSH20 0xFFFFFFFFFFFFFFFFFFFFFFFFFFFFFFFFFFFFFFFF MUL NOT AND SWAP1 DUP4 PUSH20 0xFFFFFFFFFFFFFFFFFFFFFFFFFFFFFFFFFFFFFFFF AND MUL OR SWAP1 SSTORE POP DUP2 PUSH0 DUP1 CALLER PUSH20 0xFFFFFFFFFFFFFFFFFFFFFFFFFFFFFFFFFFFFFFFF AND PUSH20 0xFFFFFFFFFFFFFFFFFFFFFFFFFFFFFFFFFFFFFFFF AND DUP2 MSTORE PUSH1 0x20 ADD SWAP1 DUP2 MSTORE PUSH1 0x20 ADD PUSH0 KECCAK256 PUSH1 0x1 ADD SWAP1 DUP2 PUSH2 0xA6E SWAP2 SWAP1 PUSH2 0x1B44 JUMP JUMPDEST POP DUP1 PUSH0 DUP1 CALLER PUSH20 0xFFFFFFFFFFFFFFFFFFFFFFFFFFFFFFFFFFFFFFFF AND PUSH20 0xFFFFFFFFFFFFFFFFFFFFFFFFFFFFFFFFFFFFFFFF AND DUP2 MSTORE PUSH1 0x20 ADD SWAP1 DUP2 MSTORE PUSH1 0x20 ADD PUSH0 KECCAK256 PUSH1 0x2 ADD SWAP1 DUP2 PUSH2 0xABB SWAP2 SWAP1 PUSH2 0x1B44 JUMP JUMPDEST POP CALLVALUE PUSH0 DUP1 CALLER PUSH20 0xFFFFFFFFFFFFFFFFFFFFFFFFFFFFFFFFFFFFFFFF AND PUSH20 0xFFFFFFFFFFFFFFFFFFFFFFFFFFFFFFFFFFFFFFFF AND DUP2 MSTORE PUSH1 0x20 ADD SWAP1 DUP2 MSTORE PUSH1 0x20 ADD PUSH0 KECCAK256 PUSH1 0x3 ADD DUP2 SWAP1 SSTORE POP TIMESTAMP PUSH0 DUP1 CALLER PUSH20 0xFFFFFFFFFFFFFFFFFFFFFFFFFFFFFFFFFFFFFFFF AND PUSH20 0xFFFFFFFFFFFFFFFFFFFFFFFFFFFFFFFFFFFFFFFF AND DUP2 MSTORE PUSH1 0x20 ADD SWAP1 DUP2 MSTORE PUSH1 0x20 ADD PUSH0 KECCAK256 PUSH1 0x4 ADD DUP2 SWAP1 SSTORE POP PUSH4 0x1E13380 PUSH0 DUP1 CALLER PUSH20 0xFFFFFFFFFFFFFFFFFFFFFFFFFFFFFFFFFFFFFFFF AND PUSH20 0xFFFFFFFFFFFFFFFFFFFFFFFFFFFFFFFFFFFFFFFF AND DUP2 MSTORE PUSH1 0x20 ADD SWAP1 DUP2 MSTORE PUSH1 0x20 ADD PUSH0 KECCAK256 PUSH1 0x5 ADD DUP2 SWAP1 SSTORE POP PUSH0 DUP1 PUSH0 CALLER PUSH20 0xFFFFFFFFFFFFFFFFFFFFFFFFFFFFFFFFFFFFFFFF AND PUSH20 0xFFFFFFFFFFFFFFFFFFFFFFFFFFFFFFFFFFFFFFFF AND DUP2 MSTORE PUSH1 0x20 ADD SWAP1 DUP2 MSTORE PUSH1 0x20 ADD PUSH0 KECCAK256 PUSH1 0x6 ADD PUSH0 PUSH2 0x100 EXP DUP2 SLOAD DUP2 PUSH1 0xFF MUL NOT AND SWAP1 DUP4 ISZERO ISZERO MUL OR SWAP1 SSTORE POP PUSH1 0x1 DUP1 PUSH0 CALLER PUSH20 0xFFFFFFFFFFFFFFFFFFFFFFFFFFFFFFFFFFFFFFFF AND PUSH20 0xFFFFFFFFFFFFFFFFFFFFFFFFFFFFFFFFFFFFFFFF AND DUP2 MSTORE PUSH1 0x20 ADD SWAP1 DUP2 MSTORE PUSH1 0x20 ADD PUSH0 KECCAK256 PUSH0 PUSH2 0x100 EXP DUP2 SLOAD DUP2 PUSH1 0xFF MUL NOT AND SWAP1 DUP4 ISZERO ISZERO MUL OR SWAP1 SSTORE POP CALLER PUSH20 0xFFFFFFFFFFFFFFFFFFFFFFFFFFFFFFFFFFFFFFFF AND PUSH32 0xD40DC4A639C90600691397F655099ADBA04D6B763EF2122630EDD47C09F1B6F9 CALLVALUE PUSH1 0x40 MLOAD PUSH2 0xC7C SWAP2 SWAP1 PUSH2 0x139C JUMP JUMPDEST PUSH1 0x40 MLOAD DUP1 SWAP2 SUB SWAP1 LOG2 POP POP JUMP JUMPDEST PUSH0 PUSH1 0x1 PUSH0 DUP4 PUSH20 0xFFFFFFFFFFFFFFFFFFFFFFFFFFFFFFFFFFFFFFFF AND PUSH20 0xFFFFFFFFFFFFFFFFFFFFFFFFFFFFFFFFFFFFFFFF AND DUP2 MSTORE PUSH1 0x20 ADD SWAP1 DUP2 MSTORE PUSH1 0x20 ADD PUSH0 KECCAK256 PUSH0 SWAP1 SLOAD SWAP1 PUSH2 0x100 EXP SWAP1 DIV PUSH1 0xFF AND PUSH2 0xD12 JUMPI PUSH1 0x40 MLOAD PUSH32 0x8C379A000000000000000000000000000000000000000000000000000000000 DUP2 MSTORE PUSH1 0x4 ADD PUSH2 0xD09 SWAP1 PUSH2 0x16F5 JUMP JUMPDEST PUSH1 0x40 MLOAD DUP1 SWAP2 SUB SWAP1 REVERT JUMPDEST PUSH0 DUP1 DUP4 PUSH20 0xFFFFFFFFFFFFFFFFFFFFFFFFFFFFFFFFFFFFFFFF AND PUSH20 0xFFFFFFFFFFFFFFFFFFFFFFFFFFFFFFFFFFFFFFFF AND DUP2 MSTORE PUSH1 0x20 ADD SWAP1 DUP2 MSTORE PUSH1 0x20 ADD PUSH0 KECCAK256 PUSH1 0x6 ADD PUSH0 SWAP1 SLOAD SWAP1 PUSH2 0x100 EXP SWAP1 DIV PUSH1 0xFF AND SWAP1 POP SWAP2 SWAP1 POP JUMP JUMPDEST PUSH1 0x1 PUSH0 DUP3 PUSH20 0xFFFFFFFFFFFFFFFFFFFFFFFFFFFFFFFFFFFFFFFF AND PUSH20 0xFFFFFFFFFFFFFFFFFFFFFFFFFFFFFFFFFFFFFFFF AND DUP2 MSTORE PUSH1 0x20 ADD SWAP1 DUP2 MSTORE PUSH1 0x20 ADD PUSH0 KECCAK256 PUSH0 SWAP1 SLOAD SWAP1 PUSH2 0x100 EXP SWAP1 DIV PUSH1 0xFF AND PUSH2 0xDEE JUMPI PUSH1 0x40 MLOAD PUSH32 0x8C379A000000000000000000000000000000000000000000000000000000000 DUP2 MSTORE PUSH1 0x4 ADD PUSH2 0xDE5 SWAP1 PUSH2 0x16F5 JUMP JUMPDEST PUSH1 0x40 MLOAD DUP1 SWAP2 SUB SWAP1 REVERT JUMPDEST PUSH0 DUP1 DUP3 PUSH20 0xFFFFFFFFFFFFFFFFFFFFFFFFFFFFFFFFFFFFFFFF AND PUSH20 0xFFFFFFFFFFFFFFFFFFFFFFFFFFFFFFFFFFFFFFFF AND DUP2 MSTORE PUSH1 0x20 ADD SWAP1 DUP2 MSTORE PUSH1 0x20 ADD PUSH0 KECCAK256 PUSH1 0x5 ADD SLOAD PUSH0 DUP1 DUP4 PUSH20 0xFFFFFFFFFFFFFFFFFFFFFFFFFFFFFFFFFFFFFFFF AND PUSH20 0xFFFFFFFFFFFFFFFFFFFFFFFFFFFFFFFFFFFFFFFF AND DUP2 MSTORE PUSH1 0x20 ADD SWAP1 DUP2 MSTORE PUSH1 0x20 ADD PUSH0 KECCAK256 PUSH1 0x4 ADD SLOAD PUSH2 0xE78 SWAP2 SWAP1 PUSH2 0x18A5 JUMP JUMPDEST TIMESTAMP GT PUSH2 0xEB9 JUMPI PUSH1 0x40 MLOAD PUSH32 0x8C379A000000000000000000000000000000000000000000000000000000000 DUP2 MSTORE PUSH1 0x4 ADD PUSH2 0xEB0 SWAP1 PUSH2 0x1E76 JUMP JUMPDEST PUSH1 0x40 MLOAD DUP1 SWAP2 SUB SWAP1 REVERT JUMPDEST PUSH0 DUP1 DUP3 PUSH20 0xFFFFFFFFFFFFFFFFFFFFFFFFFFFFFFFFFFFFFFFF AND PUSH20 0xFFFFFFFFFFFFFFFFFFFFFFFFFFFFFFFFFFFFFFFF AND DUP2 MSTORE PUSH1 0x20 ADD SWAP1 DUP2 MSTORE PUSH1 0x20 ADD PUSH0 KECCAK256 PUSH1 0x6 ADD PUSH0 SWAP1 SLOAD SWAP1 PUSH2 0x100 EXP SWAP1 DIV PUSH1 0xFF AND ISZERO PUSH2 0xF45 JUMPI PUSH1 0x40 MLOAD PUSH32 0x8C379A000000000000000000000000000000000000000000000000000000000 DUP2 MSTORE PUSH1 0x4 ADD PUSH2 0xF3C SWAP1 PUSH2 0x1D3E JUMP JUMPDEST PUSH1 0x40 MLOAD DUP1 SWAP2 SUB SWAP1 REVERT JUMPDEST PUSH1 0x1 PUSH0 DUP1 DUP4 PUSH20 0xFFFFFFFFFFFFFFFFFFFFFFFFFFFFFFFFFFFFFFFF AND PUSH20 0xFFFFFFFFFFFFFFFFFFFFFFFFFFFFFFFFFFFFFFFF AND DUP2 MSTORE PUSH1 0x20 ADD SWAP1 DUP2 MSTORE PUSH1 0x20 ADD PUSH0 KECCAK256 PUSH1 0x6 ADD PUSH0 PUSH2 0x100 EXP DUP2 SLOAD DUP2 PUSH1 0xFF MUL NOT AND SWAP1 DUP4 ISZERO ISZERO MUL OR SWAP1 SSTORE POP PUSH0 DUP1 PUSH0 DUP4 PUSH20 0xFFFFFFFFFFFFFFFFFFFFFFFFFFFFFFFFFFFFFFFF AND PUSH20 0xFFFFFFFFFFFFFFFFFFFFFFFFFFFFFFFFFFFFFFFF AND DUP2 MSTORE PUSH1 0x20 ADD SWAP1 DUP2 MSTORE PUSH1 0x20 ADD PUSH0 KECCAK256 PUSH1 0x3 ADD SLOAD SWAP1 POP PUSH0 DUP2 GT PUSH2 0x1021 JUMPI PUSH1 0x40 MLOAD PUSH32 0x8C379A000000000000000000000000000000000000000000000000000000000 DUP2 MSTORE PUSH1 0x4 ADD PUSH2 0x1018 SWAP1 PUSH2 0x1EDE JUMP JUMPDEST PUSH1 0x40 MLOAD DUP1 SWAP2 SUB SWAP1 REVERT JUMPDEST PUSH0 JUMPDEST PUSH0 DUP1 DUP5 PUSH20 0xFFFFFFFFFFFFFFFFFFFFFFFFFFFFFFFFFFFFFFFF AND PUSH20 0xFFFFFFFFFFFFFFFFFFFFFFFFFFFFFFFFFFFFFFFF AND DUP2 MSTORE PUSH1 0x20 ADD SWAP1 DUP2 MSTORE PUSH1 0x20 ADD PUSH0 KECCAK256 PUSH1 0x7 ADD DUP1 SLOAD SWAP1 POP DUP2 LT ISZERO PUSH2 0x1262 JUMPI PUSH0 DUP1 PUSH0 DUP6 PUSH20 0xFFFFFFFFFFFFFFFFFFFFFFFFFFFFFFFFFFFFFFFF AND PUSH20 0xFFFFFFFFFFFFFFFFFFFFFFFFFFFFFFFFFFFFFFFF AND DUP2 MSTORE PUSH1 0x20 ADD SWAP1 DUP2 MSTORE PUSH1 0x20 ADD PUSH0 KECCAK256 PUSH1 0x7 ADD DUP3 DUP2 SLOAD DUP2 LT PUSH2 0x10BF JUMPI PUSH2 0x10BE PUSH2 0x184B JUMP JUMPDEST JUMPDEST SWAP1 PUSH0 MSTORE PUSH1 0x20 PUSH0 KECCAK256 SWAP1 PUSH1 0x4 MUL ADD SWAP1 POP PUSH0 PUSH1 0x64 DUP3 PUSH1 0x1 ADD SLOAD DUP6 PUSH2 0x10E0 SWAP2 SWAP1 PUSH2 0x1EFC JUMP JUMPDEST PUSH2 0x10EA SWAP2 SWAP1 PUSH2 0x1F6A JUMP JUMPDEST SWAP1 POP DUP1 SELFBALANCE LT PUSH2 0x11D8 JUMPI DUP2 PUSH0 ADD PUSH0 SWAP1 SLOAD SWAP1 PUSH2 0x100 EXP SWAP1 DIV PUSH20 0xFFFFFFFFFFFFFFFFFFFFFFFFFFFFFFFFFFFFFFFF AND PUSH20 0xFFFFFFFFFFFFFFFFFFFFFFFFFFFFFFFFFFFFFFFF AND PUSH2 0x8FC DUP3 SWAP1 DUP2 ISZERO MUL SWAP1 PUSH1 0x40 MLOAD PUSH0 PUSH1 0x40 MLOAD DUP1 DUP4 SUB DUP2 DUP6 DUP9 DUP9 CALL SWAP4 POP POP POP POP ISZERO DUP1 ISZERO PUSH2 0x1158 JUMPI RETURNDATASIZE PUSH0 DUP1 RETURNDATACOPY RETURNDATASIZE PUSH0 REVERT JUMPDEST POP DUP2 PUSH0 ADD PUSH0 SWAP1 SLOAD SWAP1 PUSH2 0x100 EXP SWAP1 DIV PUSH20 0xFFFFFFFFFFFFFFFFFFFFFFFFFFFFFFFFFFFFFFFF AND PUSH20 0xFFFFFFFFFFFFFFFFFFFFFFFFFFFFFFFFFFFFFFFF AND PUSH32 0xCEB720B06C310EDC215BEE81670832BB918BA1199F401716364414DDB9B816A7 DUP3 DUP5 PUSH1 0x2 ADD DUP6 PUSH1 0x3 ADD PUSH1 0x40 MLOAD PUSH2 0x11CB SWAP4 SWAP3 SWAP2 SWAP1 PUSH2 0x201B JUMP JUMPDEST PUSH1 0x40 MLOAD DUP1 SWAP2 SUB SWAP1 LOG2 PUSH2 0x1253 JUMP JUMPDEST DUP2 PUSH0 ADD PUSH0 SWAP1 SLOAD SWAP1 PUSH2 0x100 EXP SWAP1 DIV PUSH20 0xFFFFFFFFFFFFFFFFFFFFFFFFFFFFFFFFFFFFFFFF AND PUSH20 0xFFFFFFFFFFFFFFFFFFFFFFFFFFFFFFFFFFFFFFFF AND PUSH32 0xCEB720B06C310EDC215BEE81670832BB918BA1199F401716364414DDB9B816A7 PUSH0 DUP5 PUSH1 0x2 ADD DUP6 PUSH1 0x3 ADD PUSH1 0x40 MLOAD PUSH2 0x124A SWAP4 SWAP3 SWAP2 SWAP1 PUSH2 0x2097 JUMP JUMPDEST PUSH1 0x40 MLOAD DUP1 SWAP2 SUB SWAP1 LOG2 JUMPDEST POP POP DUP1 DUP1 PUSH1 0x1 ADD SWAP2 POP POP PUSH2 0x1023 JUMP JUMPDEST POP PUSH0 DUP1 PUSH0 DUP5 PUSH20 0xFFFFFFFFFFFFFFFFFFFFFFFFFFFFFFFFFFFFFFFF AND PUSH20 0xFFFFFFFFFFFFFFFFFFFFFFFFFFFFFFFFFFFFFFFF AND DUP2 MSTORE PUSH1 0x20 ADD SWAP1 DUP2 MSTORE PUSH1 0x20 ADD PUSH0 KECCAK256 PUSH1 0x3 ADD DUP2 SWAP1 SSTORE POP DUP2 PUSH20 0xFFFFFFFFFFFFFFFFFFFFFFFFFFFFFFFFFFFFFFFF AND PUSH32 0x16346F65ADF8D84422B57AD74CB5607BF6C9E55C3C1FEA66344057E5BBA8A7EE PUSH1 0x40 MLOAD PUSH1 0x40 MLOAD DUP1 SWAP2 SUB SWAP1 LOG2 POP POP JUMP JUMPDEST PUSH0 PUSH1 0x40 MLOAD SWAP1 POP SWAP1 JUMP JUMPDEST PUSH0 DUP1 REVERT JUMPDEST PUSH0 DUP1 REVERT JUMPDEST PUSH0 PUSH20 0xFFFFFFFFFFFFFFFFFFFFFFFFFFFFFFFFFFFFFFFF DUP3 AND SWAP1 POP SWAP2 SWAP1 POP JUMP JUMPDEST PUSH0 PUSH2 0x1328 DUP3 PUSH2 0x12FF JUMP JUMPDEST SWAP1 POP SWAP2 SWAP1 POP JUMP JUMPDEST PUSH2 0x1338 DUP2 PUSH2 0x131E JUMP JUMPDEST DUP2 EQ PUSH2 0x1342 JUMPI PUSH0 DUP1 REVERT JUMPDEST POP JUMP JUMPDEST PUSH0 DUP2 CALLDATALOAD SWAP1 POP PUSH2 0x1353 DUP2 PUSH2 0x132F JUMP JUMPDEST SWAP3 SWAP2 POP POP JUMP JUMPDEST PUSH0 PUSH1 0x20 DUP3 DUP5 SUB SLT ISZERO PUSH2 0x136E JUMPI PUSH2 0x136D PUSH2 0x12F7 JUMP JUMPDEST JUMPDEST PUSH0 PUSH2 0x137B DUP5 DUP3 DUP6 ADD PUSH2 0x1345 JUMP JUMPDEST SWAP2 POP POP SWAP3 SWAP2 POP POP JUMP JUMPDEST PUSH0 DUP2 SWAP1 POP SWAP2 SWAP1 POP JUMP JUMPDEST PUSH2 0x1396 DUP2 PUSH2 0x1384 JUMP JUMPDEST DUP3 MSTORE POP POP JUMP JUMPDEST PUSH0 PUSH1 0x20 DUP3 ADD SWAP1 POP PUSH2 0x13AF PUSH0 DUP4 ADD DUP5 PUSH2 0x138D JUMP JUMPDEST SWAP3 SWAP2 POP POP JUMP JUMPDEST PUSH0 PUSH2 0x13BF DUP3 PUSH2 0x12FF JUMP JUMPDEST SWAP1 POP SWAP2 SWAP1 POP JUMP JUMPDEST PUSH2 0x13CF DUP2 PUSH2 0x13B5 JUMP JUMPDEST DUP2 EQ PUSH2 0x13D9 JUMPI PUSH0 DUP1 REVERT JUMPDEST POP JUMP JUMPDEST PUSH0 DUP2 CALLDATALOAD SWAP1 POP PUSH2 0x13EA DUP2 PUSH2 0x13C6 JUMP JUMPDEST SWAP3 SWAP2 POP POP JUMP JUMPDEST PUSH2 0x13F9 DUP2 PUSH2 0x1384 JUMP JUMPDEST DUP2 EQ PUSH2 0x1403 JUMPI PUSH0 DUP1 REVERT JUMPDEST POP JUMP JUMPDEST PUSH0 DUP2 CALLDATALOAD SWAP1 POP PUSH2 0x1414 DUP2 PUSH2 0x13F0 JUMP JUMPDEST SWAP3 SWAP2 POP POP JUMP JUMPDEST PUSH0 DUP1 REVERT JUMPDEST PUSH0 DUP1 REVERT JUMPDEST PUSH0 PUSH1 0x1F NOT PUSH1 0x1F DUP4 ADD AND SWAP1 POP SWAP2 SWAP1 POP JUMP JUMPDEST PUSH32 0x4E487B7100000000000000000000000000000000000000000000000000000000 PUSH0 MSTORE PUSH1 0x41 PUSH1 0x4 MSTORE PUSH1 0x24 PUSH0 REVERT JUMPDEST PUSH2 0x1468 DUP3 PUSH2 0x1422 JUMP JUMPDEST DUP2 ADD DUP2 DUP2 LT PUSH8 0xFFFFFFFFFFFFFFFF DUP3 GT OR ISZERO PUSH2 0x1487 JUMPI PUSH2 0x1486 PUSH2 0x1432 JUMP JUMPDEST JUMPDEST DUP1 PUSH1 0x40 MSTORE POP POP POP JUMP JUMPDEST PUSH0 PUSH2 0x1499 PUSH2 0x12EE JUMP JUMPDEST SWAP1 POP PUSH2 0x14A5 DUP3 DUP3 PUSH2 0x145F JUMP JUMPDEST SWAP2 SWAP1 POP JUMP JUMPDEST PUSH0 PUSH8 0xFFFFFFFFFFFFFFFF DUP3 GT ISZERO PUSH2 0x14C4 JUMPI PUSH2 0x14C3 PUSH2 0x1432 JUMP JUMPDEST JUMPDEST PUSH2 0x14CD DUP3 PUSH2 0x1422 JUMP JUMPDEST SWAP1 POP PUSH1 0x20 DUP2 ADD SWAP1 POP SWAP2 SWAP1 POP JUMP JUMPDEST DUP3 DUP2 DUP4 CALLDATACOPY PUSH0 DUP4 DUP4 ADD MSTORE POP POP POP JUMP JUMPDEST PUSH0 PUSH2 0x14FA PUSH2 0x14F5 DUP5 PUSH2 0x14AA JUMP JUMPDEST PUSH2 0x1490 JUMP JUMPDEST SWAP1 POP DUP3 DUP2 MSTORE PUSH1 0x20 DUP2 ADD DUP5 DUP5 DUP5 ADD GT ISZERO PUSH2 0x1516 JUMPI PUSH2 0x1515 PUSH2 0x141E JUMP JUMPDEST JUMPDEST PUSH2 0x1521 DUP5 DUP3 DUP6 PUSH2 0x14DA JUMP JUMPDEST POP SWAP4 SWAP3 POP POP POP JUMP JUMPDEST PUSH0 DUP3 PUSH1 0x1F DUP4 ADD SLT PUSH2 0x153D JUMPI PUSH2 0x153C PUSH2 0x141A JUMP JUMPDEST JUMPDEST DUP2 CALLDATALOAD PUSH2 0x154D DUP5 DUP3 PUSH1 0x20 DUP7 ADD PUSH2 0x14E8 JUMP JUMPDEST SWAP2 POP POP SWAP3 SWAP2 POP POP JUMP JUMPDEST PUSH0 DUP1 PUSH0 DUP1 PUSH1 0x80 DUP6 DUP8 SUB SLT ISZERO PUSH2 0x156E JUMPI PUSH2 0x156D PUSH2 0x12F7 JUMP JUMPDEST JUMPDEST PUSH0 PUSH2 0x157B DUP8 DUP3 DUP9 ADD PUSH2 0x13DC JUMP JUMPDEST SWAP5 POP POP PUSH1 0x20 PUSH2 0x158C DUP8 DUP3 DUP9 ADD PUSH2 0x1406 JUMP JUMPDEST SWAP4 POP POP PUSH1 0x40 DUP6 ADD CALLDATALOAD PUSH8 0xFFFFFFFFFFFFFFFF DUP2 GT ISZERO PUSH2 0x15AD JUMPI PUSH2 0x15AC PUSH2 0x12FB JUMP JUMPDEST JUMPDEST PUSH2 0x15B9 DUP8 DUP3 DUP9 ADD PUSH2 0x1529 JUMP JUMPDEST SWAP3 POP POP PUSH1 0x60 DUP6 ADD CALLDATALOAD PUSH8 0xFFFFFFFFFFFFFFFF DUP2 GT ISZERO PUSH2 0x15DA JUMPI PUSH2 0x15D9 PUSH2 0x12FB JUMP JUMPDEST JUMPDEST PUSH2 0x15E6 DUP8 DUP3 DUP9 ADD PUSH2 0x1529 JUMP JUMPDEST SWAP2 POP POP SWAP3 SWAP6 SWAP2 SWAP5 POP SWAP3 POP JUMP JUMPDEST PUSH0 DUP2 ISZERO ISZERO SWAP1 POP SWAP2 SWAP1 POP JUMP JUMPDEST PUSH2 0x1606 DUP2 PUSH2 0x15F2 JUMP JUMPDEST DUP3 MSTORE POP POP JUMP JUMPDEST PUSH0 PUSH1 0x20 DUP3 ADD SWAP1 POP PUSH2 0x161F PUSH0 DUP4 ADD DUP5 PUSH2 0x15FD JUMP JUMPDEST SWAP3 SWAP2 POP POP JUMP JUMPDEST PUSH0 DUP1 PUSH1 0x40 DUP4 DUP6 SUB SLT ISZERO PUSH2 0x163B JUMPI PUSH2 0x163A PUSH2 0x12F7 JUMP JUMPDEST JUMPDEST PUSH0 DUP4 ADD CALLDATALOAD PUSH8 0xFFFFFFFFFFFFFFFF DUP2 GT ISZERO PUSH2 0x1658 JUMPI PUSH2 0x1657 PUSH2 0x12FB JUMP JUMPDEST JUMPDEST PUSH2 0x1664 DUP6 DUP3 DUP7 ADD PUSH2 0x1529 JUMP JUMPDEST SWAP3 POP POP PUSH1 0x20 DUP4 ADD CALLDATALOAD PUSH8 0xFFFFFFFFFFFFFFFF DUP2 GT ISZERO PUSH2 0x1685 JUMPI PUSH2 0x1684 PUSH2 0x12FB JUMP JUMPDEST JUMPDEST PUSH2 0x1691 DUP6 DUP3 DUP7 ADD PUSH2 0x1529 JUMP JUMPDEST SWAP2 POP POP SWAP3 POP SWAP3 SWAP1 POP JUMP JUMPDEST PUSH0 DUP3 DUP3 MSTORE PUSH1 0x20 DUP3 ADD SWAP1 POP SWAP3 SWAP2 POP POP JUMP JUMPDEST PUSH32 0x4E6F2077696C6C20666F756E6421000000000000000000000000000000000000 PUSH0 DUP3 ADD MSTORE POP JUMP JUMPDEST PUSH0 PUSH2 0x16DF PUSH1 0xE DUP4 PUSH2 0x169B JUMP JUMPDEST SWAP2 POP PUSH2 0x16EA DUP3 PUSH2 0x16AB JUMP JUMPDEST PUSH1 0x20 DUP3 ADD SWAP1 POP SWAP2 SWAP1 POP JUMP JUMPDEST PUSH0 PUSH1 0x20 DUP3 ADD SWAP1 POP DUP2 DUP2 SUB PUSH0 DUP4 ADD MSTORE PUSH2 0x170C DUP2 PUSH2 0x16D3 JUMP JUMPDEST SWAP1 POP SWAP2 SWAP1 POP JUMP JUMPDEST PUSH32 0x596F75206E65656420746F2063726561746520612077696C6C20666972737400 PUSH0 DUP3 ADD MSTORE POP JUMP JUMPDEST PUSH0 PUSH2 0x1747 PUSH1 0x1F DUP4 PUSH2 0x169B JUMP JUMPDEST SWAP2 POP PUSH2 0x1752 DUP3 PUSH2 0x1713 JUMP JUMPDEST PUSH1 0x20 DUP3 ADD SWAP1 POP SWAP2 SWAP1 POP JUMP JUMPDEST PUSH0 PUSH1 0x20 DUP3 ADD SWAP1 POP DUP2 DUP2 SUB PUSH0 DUP4 ADD MSTORE PUSH2 0x1774 DUP2 PUSH2 0x173B JUMP JUMPDEST SWAP1 POP SWAP2 SWAP1 POP JUMP JUMPDEST PUSH32 0x496E76616C69642077616C6C6574206164647265737300000000000000000000 PUSH0 DUP3 ADD MSTORE POP JUMP JUMPDEST PUSH0 PUSH2 0x17AF PUSH1 0x16 DUP4 PUSH2 0x169B JUMP JUMPDEST SWAP2 POP PUSH2 0x17BA DUP3 PUSH2 0x177B JUMP JUMPDEST PUSH1 0x20 DUP3 ADD SWAP1 POP SWAP2 SWAP1 POP JUMP JUMPDEST PUSH0 PUSH1 0x20 DUP3 ADD SWAP1 POP DUP2 DUP2 SUB PUSH0 DUP4 ADD MSTORE PUSH2 0x17DC DUP2 PUSH2 0x17A3 JUMP JUMPDEST SWAP1 POP SWAP2 SWAP1 POP JUMP JUMPDEST PUSH32 0x496E76616C69642070657263656E746167650000000000000000000000000000 PUSH0 DUP3 ADD MSTORE POP JUMP JUMPDEST PUSH0 PUSH2 0x1817 PUSH1 0x12 DUP4 PUSH2 0x169B JUMP JUMPDEST SWAP2 POP PUSH2 0x1822 DUP3 PUSH2 0x17E3 JUMP JUMPDEST PUSH1 0x20 DUP3 ADD SWAP1 POP SWAP2 SWAP1 POP JUMP JUMPDEST PUSH0 PUSH1 0x20 DUP3 ADD SWAP1 POP DUP2 DUP2 SUB PUSH0 DUP4 ADD MSTORE PUSH2 0x1844 DUP2 PUSH2 0x180B JUMP JUMPDEST SWAP1 POP SWAP2 SWAP1 POP JUMP JUMPDEST PUSH32 0x4E487B7100000000000000000000000000000000000000000000000000000000 PUSH0 MSTORE PUSH1 0x32 PUSH1 0x4 MSTORE PUSH1 0x24 PUSH0 REVERT JUMPDEST PUSH32 0x4E487B7100000000000000000000000000000000000000000000000000000000 PUSH0 MSTORE PUSH1 0x11 PUSH1 0x4 MSTORE PUSH1 0x24 PUSH0 REVERT JUMPDEST PUSH0 PUSH2 0x18AF DUP3 PUSH2 0x1384 JUMP JUMPDEST SWAP2 POP PUSH2 0x18BA DUP4 PUSH2 0x1384 JUMP JUMPDEST SWAP3 POP DUP3 DUP3 ADD SWAP1 POP DUP1 DUP3 GT ISZERO PUSH2 0x18D2 JUMPI PUSH2 0x18D1 PUSH2 0x1878 JUMP JUMPDEST JUMPDEST SWAP3 SWAP2 POP POP JUMP JUMPDEST PUSH32 0x546F74616C20616C6C6F636174696F6E20657863656564732031303025000000 PUSH0 DUP3 ADD MSTORE POP JUMP JUMPDEST PUSH0 PUSH2 0x190C PUSH1 0x1D DUP4 PUSH2 0x169B JUMP JUMPDEST SWAP2 POP PUSH2 0x1917 DUP3 PUSH2 0x18D8 JUMP JUMPDEST PUSH1 0x20 DUP3 ADD SWAP1 POP SWAP2 SWAP1 POP JUMP JUMPDEST PUSH0 PUSH1 0x20 DUP3 ADD SWAP1 POP DUP2 DUP2 SUB PUSH0 DUP4 ADD MSTORE PUSH2 0x1939 DUP2 PUSH2 0x1900 JUMP JUMPDEST SWAP1 POP SWAP2 SWAP1 POP JUMP JUMPDEST PUSH0 DUP2 MLOAD SWAP1 POP SWAP2 SWAP1 POP JUMP JUMPDEST PUSH32 0x4E487B7100000000000000000000000000000000000000000000000000000000 PUSH0 MSTORE PUSH1 0x22 PUSH1 0x4 MSTORE PUSH1 0x24 PUSH0 REVERT JUMPDEST PUSH0 PUSH1 0x2 DUP3 DIV SWAP1 POP PUSH1 0x1 DUP3 AND DUP1 PUSH2 0x198E JUMPI PUSH1 0x7F DUP3 AND SWAP2 POP JUMPDEST PUSH1 0x20 DUP3 LT DUP2 SUB PUSH2 0x19A1 JUMPI PUSH2 0x19A0 PUSH2 0x194A JUMP JUMPDEST JUMPDEST POP SWAP2 SWAP1 POP JUMP JUMPDEST PUSH0 DUP2 SWAP1 POP DUP2 PUSH0 MSTORE PUSH1 0x20 PUSH0 KECCAK256 SWAP1 POP SWAP2 SWAP1 POP JUMP JUMPDEST PUSH0 PUSH1 0x20 PUSH1 0x1F DUP4 ADD DIV SWAP1 POP SWAP2 SWAP1 POP JUMP JUMPDEST PUSH0 DUP3 DUP3 SHL SWAP1 POP SWAP3 SWAP2 POP POP JUMP JUMPDEST PUSH0 PUSH1 0x8 DUP4 MUL PUSH2 0x1A03 PUSH32 0xFFFFFFFFFFFFFFFFFFFFFFFFFFFFFFFFFFFFFFFFFFFFFFFFFFFFFFFFFFFFFFFF DUP3 PUSH2 0x19C8 JUMP JUMPDEST PUSH2 0x1A0D DUP7 DUP4 PUSH2 0x19C8 JUMP JUMPDEST SWAP6 POP DUP1 NOT DUP5 AND SWAP4 POP DUP1 DUP7 AND DUP5 OR SWAP3 POP POP POP SWAP4 SWAP3 POP POP POP JUMP JUMPDEST PUSH0 DUP2 SWAP1 POP SWAP2 SWAP1 POP JUMP JUMPDEST PUSH0 PUSH2 0x1A48 PUSH2 0x1A43 PUSH2 0x1A3E DUP5 PUSH2 0x1384 JUMP JUMPDEST PUSH2 0x1A25 JUMP JUMPDEST PUSH2 0x1384 JUMP JUMPDEST SWAP1 POP SWAP2 SWAP1 POP JUMP JUMPDEST PUSH0 DUP2 SWAP1 POP SWAP2 SWAP1 POP JUMP JUMPDEST PUSH2 0x1A61 DUP4 PUSH2 0x1A2E JUMP JUMPDEST PUSH2 0x1A75 PUSH2 0x1A6D DUP3 PUSH2 0x1A4F JUMP JUMPDEST DUP5 DUP5 SLOAD PUSH2 0x19D4 JUMP JUMPDEST DUP3 SSTORE POP POP POP POP JUMP JUMPDEST PUSH0 SWAP1 JUMP JUMPDEST PUSH2 0x1A89 PUSH2 0x1A7D JUMP JUMPDEST PUSH2 0x1A94 DUP2 DUP5 DUP5 PUSH2 0x1A58 JUMP JUMPDEST POP POP POP JUMP JUMPDEST JUMPDEST DUP2 DUP2 LT ISZERO PUSH2 0x1AB7 JUMPI PUSH2 0x1AAC PUSH0 DUP3 PUSH2 0x1A81 JUMP JUMPDEST PUSH1 0x1 DUP2 ADD SWAP1 POP PUSH2 0x1A9A JUMP JUMPDEST POP POP JUMP JUMPDEST PUSH1 0x1F DUP3 GT ISZERO PUSH2 0x1AFC JUMPI PUSH2 0x1ACD DUP2 PUSH2 0x19A7 JUMP JUMPDEST PUSH2 0x1AD6 DUP5 PUSH2 0x19B9 JUMP JUMPDEST DUP2 ADD PUSH1 0x20 DUP6 LT ISZERO PUSH2 0x1AE5 JUMPI DUP2 SWAP1 POP JUMPDEST PUSH2 0x1AF9 PUSH2 0x1AF1 DUP6 PUSH2 0x19B9 JUMP JUMPDEST DUP4 ADD DUP3 PUSH2 0x1A99 JUMP JUMPDEST POP POP JUMPDEST POP POP POP JUMP JUMPDEST PUSH0 DUP3 DUP3 SHR SWAP1 POP SWAP3 SWAP2 POP POP JUMP JUMPDEST PUSH0 PUSH2 0x1B1C PUSH0 NOT DUP5 PUSH1 0x8 MUL PUSH2 0x1B01 JUMP JUMPDEST NOT DUP1 DUP4 AND SWAP2 POP POP SWAP3 SWAP2 POP POP JUMP JUMPDEST PUSH0 PUSH2 0x1B34 DUP4 DUP4 PUSH2 0x1B0D JUMP JUMPDEST SWAP2 POP DUP3 PUSH1 0x2 MUL DUP3 OR SWAP1 POP SWAP3 SWAP2 POP POP JUMP JUMPDEST PUSH2 0x1B4D DUP3 PUSH2 0x1940 JUMP JUMPDEST PUSH8 0xFFFFFFFFFFFFFFFF DUP2 GT ISZERO PUSH2 0x1B66 JUMPI PUSH2 0x1B65 PUSH2 0x1432 JUMP JUMPDEST JUMPDEST PUSH2 0x1B70 DUP3 SLOAD PUSH2 0x1977 JUMP JUMPDEST PUSH2 0x1B7B DUP3 DUP3 DUP6 PUSH2 0x1ABB JUMP JUMPDEST PUSH0 PUSH1 0x20 SWAP1 POP PUSH1 0x1F DUP4 GT PUSH1 0x1 DUP2 EQ PUSH2 0x1BAC JUMPI PUSH0 DUP5 ISZERO PUSH2 0x1B9A JUMPI DUP3 DUP8 ADD MLOAD SWAP1 POP JUMPDEST PUSH2 0x1BA4 DUP6 DUP3 PUSH2 0x1B29 JUMP JUMPDEST DUP7 SSTORE POP PUSH2 0x1C0B JUMP JUMPDEST PUSH1 0x1F NOT DUP5 AND PUSH2 0x1BBA DUP7 PUSH2 0x19A7 JUMP JUMPDEST PUSH0 JUMPDEST DUP3 DUP2 LT ISZERO PUSH2 0x1BE1 JUMPI DUP5 DUP10 ADD MLOAD DUP3 SSTORE PUSH1 0x1 DUP3 ADD SWAP2 POP PUSH1 0x20 DUP6 ADD SWAP5 POP PUSH1 0x20 DUP2 ADD SWAP1 POP PUSH2 0x1BBC JUMP JUMPDEST DUP7 DUP4 LT ISZERO PUSH2 0x1BFE JUMPI DUP5 DUP10 ADD MLOAD PUSH2 0x1BFA PUSH1 0x1F DUP10 AND DUP3 PUSH2 0x1B0D JUMP JUMPDEST DUP4 SSTORE POP JUMPDEST PUSH1 0x1 PUSH1 0x2 DUP9 MUL ADD DUP9 SSTORE POP POP POP JUMPDEST POP POP POP POP POP POP JUMP JUMPDEST PUSH0 PUSH2 0x1C2D PUSH2 0x1C28 PUSH2 0x1C23 DUP5 PUSH2 0x12FF JUMP JUMPDEST PUSH2 0x1A25 JUMP JUMPDEST PUSH2 0x12FF JUMP JUMPDEST SWAP1 POP SWAP2 SWAP1 POP JUMP JUMPDEST PUSH0 PUSH2 0x1C3E DUP3 PUSH2 0x1C13 JUMP JUMPDEST SWAP1 POP SWAP2 SWAP1 POP JUMP JUMPDEST PUSH0 PUSH2 0x1C4F DUP3 PUSH2 0x1C34 JUMP JUMPDEST SWAP1 POP SWAP2 SWAP1 POP JUMP JUMPDEST PUSH2 0x1C5F DUP2 PUSH2 0x1C45 JUMP JUMPDEST DUP3 MSTORE POP POP JUMP JUMPDEST PUSH0 PUSH1 0x40 DUP3 ADD SWAP1 POP PUSH2 0x1C78 PUSH0 DUP4 ADD DUP6 PUSH2 0x1C56 JUMP JUMPDEST PUSH2 0x1C85 PUSH1 0x20 DUP4 ADD DUP5 PUSH2 0x138D JUMP JUMPDEST SWAP4 SWAP3 POP POP POP JUMP JUMPDEST PUSH32 0x596F752068617665206E6F74206372656174656420612077696C6C0000000000 PUSH0 DUP3 ADD MSTORE POP JUMP JUMPDEST PUSH0 PUSH2 0x1CC0 PUSH1 0x1B DUP4 PUSH2 0x169B JUMP JUMPDEST SWAP2 POP PUSH2 0x1CCB DUP3 PUSH2 0x1C8C JUMP JUMPDEST PUSH1 0x20 DUP3 ADD SWAP1 POP SWAP2 SWAP1 POP JUMP JUMPDEST PUSH0 PUSH1 0x20 DUP3 ADD SWAP1 POP DUP2 DUP2 SUB PUSH0 DUP4 ADD MSTORE PUSH2 0x1CED DUP2 PUSH2 0x1CB4 JUMP JUMPDEST SWAP1 POP SWAP2 SWAP1 POP JUMP JUMPDEST PUSH32 0x57696C6C20616C72656164792065786563757465642100000000000000000000 PUSH0 DUP3 ADD MSTORE POP JUMP JUMPDEST PUSH0 PUSH2 0x1D28 PUSH1 0x16 DUP4 PUSH2 0x169B JUMP JUMPDEST SWAP2 POP PUSH2 0x1D33 DUP3 PUSH2 0x1CF4 JUMP JUMPDEST PUSH1 0x20 DUP3 ADD SWAP1 POP SWAP2 SWAP1 POP JUMP JUMPDEST PUSH0 PUSH1 0x20 DUP3 ADD SWAP1 POP DUP2 DUP2 SUB PUSH0 DUP4 ADD MSTORE PUSH2 0x1D55 DUP2 PUSH2 0x1D1C JUMP JUMPDEST SWAP1 POP SWAP2 SWAP1 POP JUMP JUMPDEST PUSH32 0x596F7520616C7265616479206861766520612077696C6C210000000000000000 PUSH0 DUP3 ADD MSTORE POP JUMP JUMPDEST PUSH0 PUSH2 0x1D90 PUSH1 0x18 DUP4 PUSH2 0x169B JUMP JUMPDEST SWAP2 POP PUSH2 0x1D9B DUP3 PUSH2 0x1D5C JUMP JUMPDEST PUSH1 0x20 DUP3 ADD SWAP1 POP SWAP2 SWAP1 POP JUMP JUMPDEST PUSH0 PUSH1 0x20 DUP3 ADD SWAP1 POP DUP2 DUP2 SUB PUSH0 DUP4 ADD MSTORE PUSH2 0x1DBD DUP2 PUSH2 0x1D84 JUMP JUMPDEST SWAP1 POP SWAP2 SWAP1 POP JUMP JUMPDEST PUSH32 0x4D757374206C6F636B2045544821000000000000000000000000000000000000 PUSH0 DUP3 ADD MSTORE POP JUMP JUMPDEST PUSH0 PUSH2 0x1DF8 PUSH1 0xE DUP4 PUSH2 0x169B JUMP JUMPDEST SWAP2 POP PUSH2 0x1E03 DUP3 PUSH2 0x1DC4 JUMP JUMPDEST PUSH1 0x20 DUP3 ADD SWAP1 POP SWAP2 SWAP1 POP JUMP JUMPDEST PUSH0 PUSH1 0x20 DUP3 ADD SWAP1 POP DUP2 DUP2 SUB PUSH0 DUP4 ADD MSTORE PUSH2 0x1E25 DUP2 PUSH2 0x1DEC JUMP JUMPDEST SWAP1 POP SWAP2 SWAP1 POP JUMP JUMPDEST PUSH32 0x4F776E6572206973207374696C6C20616C697665210000000000000000000000 PUSH0 DUP3 ADD MSTORE POP JUMP JUMPDEST PUSH0 PUSH2 0x1E60 PUSH1 0x15 DUP4 PUSH2 0x169B JUMP JUMPDEST SWAP2 POP PUSH2 0x1E6B DUP3 PUSH2 0x1E2C JUMP JUMPDEST PUSH1 0x20 DUP3 ADD SWAP1 POP SWAP2 SWAP1 POP JUMP JUMPDEST PUSH0 PUSH1 0x20 DUP3 ADD SWAP1 POP DUP2 DUP2 SUB PUSH0 DUP4 ADD MSTORE PUSH2 0x1E8D DUP2 PUSH2 0x1E54 JUMP JUMPDEST SWAP1 POP SWAP2 SWAP1 POP JUMP JUMPDEST PUSH32 0x4E6F2045544820746F2064697374726962757465000000000000000000000000 PUSH0 DUP3 ADD MSTORE POP JUMP JUMPDEST PUSH0 PUSH2 0x1EC8 PUSH1 0x14 DUP4 PUSH2 0x169B JUMP JUMPDEST SWAP2 POP PUSH2 0x1ED3 DUP3 PUSH2 0x1E94 JUMP JUMPDEST PUSH1 0x20 DUP3 ADD SWAP1 POP SWAP2 SWAP1 POP JUMP JUMPDEST PUSH0 PUSH1 0x20 DUP3 ADD SWAP1 POP DUP2 DUP2 SUB PUSH0 DUP4 ADD MSTORE PUSH2 0x1EF5 DUP2 PUSH2 0x1EBC JUMP JUMPDEST SWAP1 POP SWAP2 SWAP1 POP JUMP JUMPDEST PUSH0 PUSH2 0x1F06 DUP3 PUSH2 0x1384 JUMP JUMPDEST SWAP2 POP PUSH2 0x1F11 DUP4 PUSH2 0x1384 JUMP JUMPDEST SWAP3 POP DUP3 DUP3 MUL PUSH2 0x1F1F DUP2 PUSH2 0x1384 JUMP JUMPDEST SWAP2 POP DUP3 DUP3 DIV DUP5 EQ DUP4 ISZERO OR PUSH2 0x1F36 JUMPI PUSH2 0x1F35 PUSH2 0x1878 JUMP JUMPDEST JUMPDEST POP SWAP3 SWAP2 POP POP JUMP JUMPDEST PUSH32 0x4E487B7100000000000000000000000000000000000000000000000000000000 PUSH0 MSTORE PUSH1 0x12 PUSH1 0x4 MSTORE PUSH1 0x24 PUSH0 REVERT JUMPDEST PUSH0 PUSH2 0x1F74 DUP3 PUSH2 0x1384 JUMP JUMPDEST SWAP2 POP PUSH2 0x1F7F DUP4 PUSH2 0x1384 JUMP JUMPDEST SWAP3 POP DUP3 PUSH2 0x1F8F JUMPI PUSH2 0x1F8E PUSH2 0x1F3D JUMP JUMPDEST JUMPDEST DUP3 DUP3 DIV SWAP1 POP SWAP3 SWAP2 POP POP JUMP JUMPDEST PUSH0 DUP2 SLOAD PUSH2 0x1FA6 DUP2 PUSH2 0x1977 JUMP JUMPDEST PUSH2 0x1FB0 DUP2 DUP7 PUSH2 0x169B JUMP JUMPDEST SWAP5 POP PUSH1 0x1 DUP3 AND PUSH0 DUP2 EQ PUSH2 0x1FCA JUMPI PUSH1 0x1 DUP2 EQ PUSH2 0x1FE0 JUMPI PUSH2 0x2012 JUMP JUMPDEST PUSH1 0xFF NOT DUP4 AND DUP7 MSTORE DUP2 ISZERO ISZERO PUSH1 0x20 MUL DUP7 ADD SWAP4 POP PUSH2 0x2012 JUMP JUMPDEST PUSH2 0x1FE9 DUP6 PUSH2 0x19A7 JUMP JUMPDEST PUSH0 JUMPDEST DUP4 DUP2 LT ISZERO PUSH2 0x200A JUMPI DUP2 SLOAD DUP2 DUP10 ADD MSTORE PUSH1 0x1 DUP3 ADD SWAP2 POP PUSH1 0x20 DUP2 ADD SWAP1 POP PUSH2 0x1FEB JUMP JUMPDEST DUP1 DUP9 ADD SWAP6 POP POP POP JUMPDEST POP POP POP SWAP3 SWAP2 POP POP JUMP JUMPDEST PUSH0 PUSH1 0x60 DUP3 ADD SWAP1 POP PUSH2 0x202E PUSH0 DUP4 ADD DUP7 PUSH2 0x138D JUMP JUMPDEST DUP2 DUP2 SUB PUSH1 0x20 DUP4 ADD MSTORE PUSH2 0x2040 DUP2 DUP6 PUSH2 0x1F9A JUMP JUMPDEST SWAP1 POP DUP2 DUP2 SUB PUSH1 0x40 DUP4 ADD MSTORE PUSH2 0x2054 DUP2 DUP5 PUSH2 0x1F9A JUMP JUMPDEST SWAP1 POP SWAP5 SWAP4 POP POP POP POP JUMP JUMPDEST PUSH0 DUP2 SWAP1 POP SWAP2 SWAP1 POP JUMP JUMPDEST PUSH0 PUSH2 0x2081 PUSH2 0x207C PUSH2 0x2077 DUP5 PUSH2 0x205E JUMP JUMPDEST PUSH2 0x1A25 JUMP JUMPDEST PUSH2 0x1384 JUMP JUMPDEST SWAP1 POP SWAP2 SWAP1 POP JUMP JUMPDEST PUSH2 0x2091 DUP2 PUSH2 0x2067 JUMP JUMPDEST DUP3 MSTORE POP POP JUMP JUMPDEST PUSH0 PUSH1 0x60 DUP3 ADD SWAP1 POP PUSH2 0x20AA PUSH0 DUP4 ADD DUP7 PUSH2 0x2088 JUMP JUMPDEST DUP2 DUP2 SUB PUSH1 0x20 DUP4 ADD MSTORE PUSH2 0x20BC DUP2 DUP6 PUSH2 0x1F9A JUMP JUMPDEST SWAP1 POP DUP2 DUP2 SUB PUSH1 0x40 DUP4 ADD MSTORE PUSH2 0x20D0 DUP2 DUP5 PUSH2 0x1F9A JUMP JUMPDEST SWAP1 POP SWAP5 SWAP4 POP POP POP POP JUMP INVALID LOG2 PUSH5 0x6970667358 0x22 SLT KECCAK256 SSTORE 0xAE 0xF9 0x4F STATICCALL PUSH10 0x88C435B541108D631FB6 DUP2 ADDMOD PUSH2 0xFE39 PUSH13 0xE53FF720BD6280C28FC164736F PUSH13 0x634300081A0033000000000000 "
	},
	"Assembly": ".code\n  PUSH 80\t\t\tcontract MultiWillContract {\\n...\n  PUSH 40\t\t\tcontract MultiWillContract {\\n...\n  MSTORE \t\t\tcontract MultiWillContract {\\n...\n  CALLVALUE \t\t\tcontract MultiWillContract {\\n...\n  DUP1 \t\t\tcontract MultiWillContract {\\n...\n  ISZERO \t\t\tcontract MultiWillContract {\\n...\n  PUSH [tag] 1\t\t\tcontract MultiWillContract {\\n...\n  JUMPI \t\t\tcontract MultiWillContract {\\n...\n  PUSH 0\t\t\tcontract MultiWillContract {\\n...\n  DUP1 \t\t\tcontract MultiWillContract {\\n...\n  REVERT \t\t\tcontract MultiWillContract {\\n...\ntag 1\t\t\tcontract MultiWillContract {\\n...\n  JUMPDEST \t\t\tcontract MultiWillContract {\\n...\n  POP \t\t\tcontract MultiWillContract {\\n...\n  PUSH #[$] 0000000000000000000000000000000000000000000000000000000000000000\t\t\tcontract MultiWillContract {\\n...\n  DUP1 \t\t\tcontract MultiWillContract {\\n...\n  PUSH [$] 0000000000000000000000000000000000000000000000000000000000000000\t\t\tcontract MultiWillContract {\\n...\n  PUSH 0\t\t\tcontract MultiWillContract {\\n...\n  CODECOPY \t\t\tcontract MultiWillContract {\\n...\n  PUSH 0\t\t\tcontract MultiWillContract {\\n...\n  RETURN \t\t\tcontract MultiWillContract {\\n...\n.data\n  0:\n    .code\n      PUSH 80\t\t\tcontract MultiWillContract {\\n...\n      PUSH 40\t\t\tcontract MultiWillContract {\\n...\n      MSTORE \t\t\tcontract MultiWillContract {\\n...\n      PUSH 4\t\t\tcontract MultiWillContract {\\n...\n      CALLDATASIZE \t\t\tcontract MultiWillContract {\\n...\n      LT \t\t\tcontract MultiWillContract {\\n...\n      PUSH [tag] 1\t\t\tcontract MultiWillContract {\\n...\n      JUMPI \t\t\tcontract MultiWillContract {\\n...\n      PUSH 0\t\t\tcontract MultiWillContract {\\n...\n      CALLDATALOAD \t\t\tcontract MultiWillContract {\\n...\n      PUSH E0\t\t\tcontract MultiWillContract {\\n...\n      SHR \t\t\tcontract MultiWillContract {\\n...\n      DUP1 \t\t\tcontract MultiWillContract {\\n...\n      PUSH A7F01E4D\t\t\tcontract MultiWillContract {\\n...\n      GT \t\t\tcontract MultiWillContract {\\n...\n      PUSH [tag] 10\t\t\tcontract MultiWillContract {\\n...\n      JUMPI \t\t\tcontract MultiWillContract {\\n...\n      DUP1 \t\t\tcontract MultiWillContract {\\n...\n      PUSH A7F01E4D\t\t\tcontract MultiWillContract {\\n...\n      EQ \t\t\tcontract MultiWillContract {\\n...\n      PUSH [tag] 6\t\t\tcontract MultiWillContract {\\n...\n      JUMPI \t\t\tcontract MultiWillContract {\\n...\n      DUP1 \t\t\tcontract MultiWillContract {\\n...\n      PUSH B0DAEB1C\t\t\tcontract MultiWillContract {\\n...\n      EQ \t\t\tcontract MultiWillContract {\\n...\n      PUSH [tag] 7\t\t\tcontract MultiWillContract {\\n...\n      JUMPI \t\t\tcontract MultiWillContract {\\n...\n      DUP1 \t\t\tcontract MultiWillContract {\\n...\n      PUSH E7DDA555\t\t\tcontract MultiWillContract {\\n...\n      EQ \t\t\tcontract MultiWillContract {\\n...\n      PUSH [tag] 8\t\t\tcontract MultiWillContract {\\n...\n      JUMPI \t\t\tcontract MultiWillContract {\\n...\n      DUP1 \t\t\tcontract MultiWillContract {\\n...\n      PUSH E854D135\t\t\tcontract MultiWillContract {\\n...\n      EQ \t\t\tcontract MultiWillContract {\\n...\n      PUSH [tag] 9\t\t\tcontract MultiWillContract {\\n...\n      JUMPI \t\t\tcontract MultiWillContract {\\n...\n      PUSH [tag] 1\t\t\tcontract MultiWillContract {\\n...\n      JUMP \t\t\tcontract MultiWillContract {\\n...\n    tag 10\t\t\tcontract MultiWillContract {\\n...\n      JUMPDEST \t\t\tcontract MultiWillContract {\\n...\n      DUP1 \t\t\tcontract MultiWillContract {\\n...\n      PUSH 2423C7F3\t\t\tcontract MultiWillContract {\\n...\n      EQ \t\t\tcontract MultiWillContract {\\n...\n      PUSH [tag] 2\t\t\tcontract MultiWillContract {\\n...\n      JUMPI \t\t\tcontract MultiWillContract {\\n...\n      DUP1 \t\t\tcontract MultiWillContract {\\n...\n      PUSH 4EBDE6D3\t\t\tcontract MultiWillContract {\\n...\n      EQ \t\t\tcontract MultiWillContract {\\n...\n      PUSH [tag] 3\t\t\tcontract MultiWillContract {\\n...\n      JUMPI \t\t\tcontract MultiWillContract {\\n...\n      DUP1 \t\t\tcontract MultiWillContract {\\n...\n      PUSH 549CC7B8\t\t\tcontract MultiWillContract {\\n...\n      EQ \t\t\tcontract MultiWillContract {\\n...\n      PUSH [tag] 4\t\t\tcontract MultiWillContract {\\n...\n      JUMPI \t\t\tcontract MultiWillContract {\\n...\n      DUP1 \t\t\tcontract MultiWillContract {\\n...\n      PUSH 6F9B65F0\t\t\tcontract MultiWillContract {\\n...\n      EQ \t\t\tcontract MultiWillContract {\\n...\n      PUSH [tag] 5\t\t\tcontract MultiWillContract {\\n...\n      JUMPI \t\t\tcontract MultiWillContract {\\n...\n    tag 1\t\t\tcontract MultiWillContract {\\n...\n      JUMPDEST \t\t\tcontract MultiWillContract {\\n...\n      PUSH 0\t\t\tcontract MultiWillContract {\\n...\n      DUP1 \t\t\tcontract MultiWillContract {\\n...\n      REVERT \t\t\tcontract MultiWillContract {\\n...\n    tag 2\t\t\tfunction getBeneficiaryCount(a...\n      JUMPDEST \t\t\tfunction getBeneficiaryCount(a...\n      CALLVALUE \t\t\tfunction getBeneficiaryCount(a...\n      DUP1 \t\t\tfunction getBeneficiaryCount(a...\n      ISZERO \t\t\tfunction getBeneficiaryCount(a...\n      PUSH [tag] 11\t\t\tfunction getBeneficiaryCount(a...\n      JUMPI \t\t\tfunction getBeneficiaryCount(a...\n      PUSH 0\t\t\tfunction getBeneficiaryCount(a...\n      DUP1 \t\t\tfunction getBeneficiaryCount(a...\n      REVERT \t\t\tfunction getBeneficiaryCount(a...\n    tag 11\t\t\tfunction getBeneficiaryCount(a...\n      JUMPDEST \t\t\tfunction getBeneficiaryCount(a...\n      POP \t\t\tfunction getBeneficiaryCount(a...\n      PUSH [tag] 12\t\t\tfunction getBeneficiaryCount(a...\n      PUSH 4\t\t\tfunction getBeneficiaryCount(a...\n      DUP1 \t\t\tfunction getBeneficiaryCount(a...\n      CALLDATASIZE \t\t\tfunction getBeneficiaryCount(a...\n      SUB \t\t\tfunction getBeneficiaryCount(a...\n      DUP2 \t\t\tfunction getBeneficiaryCount(a...\n      ADD \t\t\tfunction getBeneficiaryCount(a...\n      SWAP1 \t\t\tfunction getBeneficiaryCount(a...\n      PUSH [tag] 13\t\t\tfunction getBeneficiaryCount(a...\n      SWAP2 \t\t\tfunction getBeneficiaryCount(a...\n      SWAP1 \t\t\tfunction getBeneficiaryCount(a...\n      PUSH [tag] 14\t\t\tfunction getBeneficiaryCount(a...\n      JUMP \t\t\tfunction getBeneficiaryCount(a...\n    tag 13\t\t\tfunction getBeneficiaryCount(a...\n      JUMPDEST \t\t\tfunction getBeneficiaryCount(a...\n      PUSH [tag] 15\t\t\tfunction getBeneficiaryCount(a...\n      JUMP \t\t\tfunction getBeneficiaryCount(a...\n    tag 12\t\t\tfunction getBeneficiaryCount(a...\n      JUMPDEST \t\t\tfunction getBeneficiaryCount(a...\n      PUSH 40\t\t\tfunction getBeneficiaryCount(a...\n      MLOAD \t\t\tfunction getBeneficiaryCount(a...\n      PUSH [tag] 16\t\t\tfunction getBeneficiaryCount(a...\n      SWAP2 \t\t\tfunction getBeneficiaryCount(a...\n      SWAP1 \t\t\tfunction getBeneficiaryCount(a...\n      PUSH [tag] 17\t\t\tfunction getBeneficiaryCount(a...\n      JUMP \t\t\tfunction getBeneficiaryCount(a...\n    tag 16\t\t\tfunction getBeneficiaryCount(a...\n      JUMPDEST \t\t\tfunction getBeneficiaryCount(a...\n      PUSH 40\t\t\tfunction getBeneficiaryCount(a...\n      MLOAD \t\t\tfunction getBeneficiaryCount(a...\n      DUP1 \t\t\tfunction getBeneficiaryCount(a...\n      SWAP2 \t\t\tfunction getBeneficiaryCount(a...\n      SUB \t\t\tfunction getBeneficiaryCount(a...\n      SWAP1 \t\t\tfunction getBeneficiaryCount(a...\n      RETURN \t\t\tfunction getBeneficiaryCount(a...\n    tag 3\t\t\tfunction addBeneficiary(\\n    ...\n      JUMPDEST \t\t\tfunction addBeneficiary(\\n    ...\n      CALLVALUE \t\t\tfunction addBeneficiary(\\n    ...\n      DUP1 \t\t\tfunction addBeneficiary(\\n    ...\n      ISZERO \t\t\tfunction addBeneficiary(\\n    ...\n      PUSH [tag] 18\t\t\tfunction addBeneficiary(\\n    ...\n      JUMPI \t\t\tfunction addBeneficiary(\\n    ...\n      PUSH 0\t\t\tfunction addBeneficiary(\\n    ...\n      DUP1 \t\t\tfunction addBeneficiary(\\n    ...\n      REVERT \t\t\tfunction addBeneficiary(\\n    ...\n    tag 18\t\t\tfunction addBeneficiary(\\n    ...\n      JUMPDEST \t\t\tfunction addBeneficiary(\\n    ...\n      POP \t\t\tfunction addBeneficiary(\\n    ...\n      PUSH [tag] 19\t\t\tfunction addBeneficiary(\\n    ...\n      PUSH 4\t\t\tfunction addBeneficiary(\\n    ...\n      DUP1 \t\t\tfunction addBeneficiary(\\n    ...\n      CALLDATASIZE \t\t\tfunction addBeneficiary(\\n    ...\n      SUB \t\t\tfunction addBeneficiary(\\n    ...\n      DUP2 \t\t\tfunction addBeneficiary(\\n    ...\n      ADD \t\t\tfunction addBeneficiary(\\n    ...\n      SWAP1 \t\t\tfunction addBeneficiary(\\n    ...\n      PUSH [tag] 20\t\t\tfunction addBeneficiary(\\n    ...\n      SWAP2 \t\t\tfunction addBeneficiary(\\n    ...\n      SWAP1 \t\t\tfunction addBeneficiary(\\n    ...\n      PUSH [tag] 21\t\t\tfunction addBeneficiary(\\n    ...\n      JUMP \t\t\tfunction addBeneficiary(\\n    ...\n    tag 20\t\t\tfunction addBeneficiary(\\n    ...\n      JUMPDEST \t\t\tfunction addBeneficiary(\\n    ...\n      PUSH [tag] 22\t\t\tfunction addBeneficiary(\\n    ...\n      JUMP \t\t\tfunction addBeneficiary(\\n    ...\n    tag 19\t\t\tfunction addBeneficiary(\\n    ...\n      JUMPDEST \t\t\tfunction addBeneficiary(\\n    ...\n      STOP \t\t\tfunction addBeneficiary(\\n    ...\n    tag 4\t\t\tmapping(address => bool) publi...\n      JUMPDEST \t\t\tmapping(address => bool) publi...\n      CALLVALUE \t\t\tmapping(address => bool) publi...\n      DUP1 \t\t\tmapping(address => bool) publi...\n      ISZERO \t\t\tmapping(address => bool) publi...\n      PUSH [tag] 23\t\t\tmapping(address => bool) publi...\n      JUMPI \t\t\tmapping(address => bool) publi...\n      PUSH 0\t\t\tmapping(address => bool) publi...\n      DUP1 \t\t\tmapping(address => bool) publi...\n      REVERT \t\t\tmapping(address => bool) publi...\n    tag 23\t\t\tmapping(address => bool) publi...\n      JUMPDEST \t\t\tmapping(address => bool) publi...\n      POP \t\t\tmapping(address => bool) publi...\n      PUSH [tag] 24\t\t\tmapping(address => bool) publi...\n      PUSH 4\t\t\tmapping(address => bool) publi...\n      DUP1 \t\t\tmapping(address => bool) publi...\n      CALLDATASIZE \t\t\tmapping(address => bool) publi...\n      SUB \t\t\tmapping(address => bool) publi...\n      DUP2 \t\t\tmapping(address => bool) publi...\n      ADD \t\t\tmapping(address => bool) publi...\n      SWAP1 \t\t\tmapping(address => bool) publi...\n      PUSH [tag] 25\t\t\tmapping(address => bool) publi...\n      SWAP2 \t\t\tmapping(address => bool) publi...\n      SWAP1 \t\t\tmapping(address => bool) publi...\n      PUSH [tag] 14\t\t\tmapping(address => bool) publi...\n      JUMP \t\t\tmapping(address => bool) publi...\n    tag 25\t\t\tmapping(address => bool) publi...\n      JUMPDEST \t\t\tmapping(address => bool) publi...\n      PUSH [tag] 26\t\t\tmapping(address => bool) publi...\n      JUMP \t\t\tmapping(address => bool) publi...\n    tag 24\t\t\tmapping(address => bool) publi...\n      JUMPDEST \t\t\tmapping(address => bool) publi...\n      PUSH 40\t\t\tmapping(address => bool) publi...\n      MLOAD \t\t\tmapping(address => bool) publi...\n      PUSH [tag] 27\t\t\tmapping(address => bool) publi...\n      SWAP2 \t\t\tmapping(address => bool) publi...\n      SWAP1 \t\t\tmapping(address => bool) publi...\n      PUSH [tag] 28\t\t\tmapping(address => bool) publi...\n      JUMP \t\t\tmapping(address => bool) publi...\n    tag 27\t\t\tmapping(address => bool) publi...\n      JUMPDEST \t\t\tmapping(address => bool) publi...\n      PUSH 40\t\t\tmapping(address => bool) publi...\n      MLOAD \t\t\tmapping(address => bool) publi...\n      DUP1 \t\t\tmapping(address => bool) publi...\n      SWAP2 \t\t\tmapping(address => bool) publi...\n      SUB \t\t\tmapping(address => bool) publi...\n      SWAP1 \t\t\tmapping(address => bool) publi...\n      RETURN \t\t\tmapping(address => bool) publi...\n    tag 5\t\t\tfunction confirmAlive() public...\n      JUMPDEST \t\t\tfunction confirmAlive() public...\n      CALLVALUE \t\t\tfunction confirmAlive() public...\n      DUP1 \t\t\tfunction confirmAlive() public...\n      ISZERO \t\t\tfunction confirmAlive() public...\n      PUSH [tag] 29\t\t\tfunction confirmAlive() public...\n      JUMPI \t\t\tfunction confirmAlive() public...\n      PUSH 0\t\t\tfunction confirmAlive() public...\n      DUP1 \t\t\tfunction confirmAlive() public...\n      REVERT \t\t\tfunction confirmAlive() public...\n    tag 29\t\t\tfunction confirmAlive() public...\n      JUMPDEST \t\t\tfunction confirmAlive() public...\n      POP \t\t\tfunction confirmAlive() public...\n      PUSH [tag] 30\t\t\tfunction confirmAlive() public...\n      PUSH [tag] 31\t\t\tfunction confirmAlive() public...\n      JUMP \t\t\tfunction confirmAlive() public...\n    tag 30\t\t\tfunction confirmAlive() public...\n      JUMPDEST \t\t\tfunction confirmAlive() public...\n      STOP \t\t\tfunction confirmAlive() public...\n    tag 6\t\t\tfunction getLockedFunds(addres...\n      JUMPDEST \t\t\tfunction getLockedFunds(addres...\n      CALLVALUE \t\t\tfunction getLockedFunds(addres...\n      DUP1 \t\t\tfunction getLockedFunds(addres...\n      ISZERO \t\t\tfunction getLockedFunds(addres...\n      PUSH [tag] 32\t\t\tfunction getLockedFunds(addres...\n      JUMPI \t\t\tfunction getLockedFunds(addres...\n      PUSH 0\t\t\tfunction getLockedFunds(addres...\n      DUP1 \t\t\tfunction getLockedFunds(addres...\n      REVERT \t\t\tfunction getLockedFunds(addres...\n    tag 32\t\t\tfunction getLockedFunds(addres...\n      JUMPDEST \t\t\tfunction getLockedFunds(addres...\n      POP \t\t\tfunction getLockedFunds(addres...\n      PUSH [tag] 33\t\t\tfunction getLockedFunds(addres...\n      PUSH 4\t\t\tfunction getLockedFunds(addres...\n      DUP1 \t\t\tfunction getLockedFunds(addres...\n      CALLDATASIZE \t\t\tfunction getLockedFunds(addres...\n      SUB \t\t\tfunction getLockedFunds(addres...\n      DUP2 \t\t\tfunction getLockedFunds(addres...\n      ADD \t\t\tfunction getLockedFunds(addres...\n      SWAP1 \t\t\tfunction getLockedFunds(addres...\n      PUSH [tag] 34\t\t\tfunction getLockedFunds(addres...\n      SWAP2 \t\t\tfunction getLockedFunds(addres...\n      SWAP1 \t\t\tfunction getLockedFunds(addres...\n      PUSH [tag] 14\t\t\tfunction getLockedFunds(addres...\n      JUMP \t\t\tfunction getLockedFunds(addres...\n    tag 34\t\t\tfunction getLockedFunds(addres...\n      JUMPDEST \t\t\tfunction getLockedFunds(addres...\n      PUSH [tag] 35\t\t\tfunction getLockedFunds(addres...\n      JUMP \t\t\tfunction getLockedFunds(addres...\n    tag 33\t\t\tfunction getLockedFunds(addres...\n      JUMPDEST \t\t\tfunction getLockedFunds(addres...\n      PUSH 40\t\t\tfunction getLockedFunds(addres...\n      MLOAD \t\t\tfunction getLockedFunds(addres...\n      PUSH [tag] 36\t\t\tfunction getLockedFunds(addres...\n      SWAP2 \t\t\tfunction getLockedFunds(addres...\n      SWAP1 \t\t\tfunction getLockedFunds(addres...\n      PUSH [tag] 17\t\t\tfunction getLockedFunds(addres...\n      JUMP \t\t\tfunction getLockedFunds(addres...\n    tag 36\t\t\tfunction getLockedFunds(addres...\n      JUMPDEST \t\t\tfunction getLockedFunds(addres...\n      PUSH 40\t\t\tfunction getLockedFunds(addres...\n      MLOAD \t\t\tfunction getLockedFunds(addres...\n      DUP1 \t\t\tfunction getLockedFunds(addres...\n      SWAP2 \t\t\tfunction getLockedFunds(addres...\n      SUB \t\t\tfunction getLockedFunds(addres...\n      SWAP1 \t\t\tfunction getLockedFunds(addres...\n      RETURN \t\t\tfunction getLockedFunds(addres...\n    tag 7\t\t\tfunction createWill(\\n        ...\n      JUMPDEST \t\t\tfunction createWill(\\n        ...\n      PUSH [tag] 37\t\t\tfunction createWill(\\n        ...\n      PUSH 4\t\t\tfunction createWill(\\n        ...\n      DUP1 \t\t\tfunction createWill(\\n        ...\n      CALLDATASIZE \t\t\tfunction createWill(\\n        ...\n      SUB \t\t\tfunction createWill(\\n        ...\n      DUP2 \t\t\tfunction createWill(\\n        ...\n      ADD \t\t\tfunction createWill(\\n        ...\n      SWAP1 \t\t\tfunction createWill(\\n        ...\n      PUSH [tag] 38\t\t\tfunction createWill(\\n        ...\n      SWAP2 \t\t\tfunction createWill(\\n        ...\n      SWAP1 \t\t\tfunction createWill(\\n        ...\n      PUSH [tag] 39\t\t\tfunction createWill(\\n        ...\n      JUMP \t\t\tfunction createWill(\\n        ...\n    tag 38\t\t\tfunction createWill(\\n        ...\n      JUMPDEST \t\t\tfunction createWill(\\n        ...\n      PUSH [tag] 40\t\t\tfunction createWill(\\n        ...\n      JUMP \t\t\tfunction createWill(\\n        ...\n    tag 37\t\t\tfunction createWill(\\n        ...\n      JUMPDEST \t\t\tfunction createWill(\\n        ...\n      STOP \t\t\tfunction createWill(\\n        ...\n    tag 8\t\t\tfunction isWillExecuted(addres...\n      JUMPDEST \t\t\tfunction isWillExecuted(addres...\n      CALLVALUE \t\t\tfunction isWillExecuted(addres...\n      DUP1 \t\t\tfunction isWillExecuted(addres...\n      ISZERO \t\t\tfunction isWillExecuted(addres...\n      PUSH [tag] 41\t\t\tfunction isWillExecuted(addres...\n      JUMPI \t\t\tfunction isWillExecuted(addres...\n      PUSH 0\t\t\tfunction isWillExecuted(addres...\n      DUP1 \t\t\tfunction isWillExecuted(addres...\n      REVERT \t\t\tfunction isWillExecuted(addres...\n    tag 41\t\t\tfunction isWillExecuted(addres...\n      JUMPDEST \t\t\tfunction isWillExecuted(addres...\n      POP \t\t\tfunction isWillExecuted(addres...\n      PUSH [tag] 42\t\t\tfunction isWillExecuted(addres...\n      PUSH 4\t\t\tfunction isWillExecuted(addres...\n      DUP1 \t\t\tfunction isWillExecuted(addres...\n      CALLDATASIZE \t\t\tfunction isWillExecuted(addres...\n      SUB \t\t\tfunction isWillExecuted(addres...\n      DUP2 \t\t\tfunction isWillExecuted(addres...\n      ADD \t\t\tfunction isWillExecuted(addres...\n      SWAP1 \t\t\tfunction isWillExecuted(addres...\n      PUSH [tag] 43\t\t\tfunction isWillExecuted(addres...\n      SWAP2 \t\t\tfunction isWillExecuted(addres...\n      SWAP1 \t\t\tfunction isWillExecuted(addres...\n      PUSH [tag] 14\t\t\tfunction isWillExecuted(addres...\n      JUMP \t\t\tfunction isWillExecuted(addres...\n    tag 43\t\t\tfunction isWillExecuted(addres...\n      JUMPDEST \t\t\tfunction isWillExecuted(addres...\n      PUSH [tag] 44\t\t\tfunction isWillExecuted(addres...\n      JUMP \t\t\tfunction isWillExecuted(addres...\n    tag 42\t\t\tfunction isWillExecuted(addres...\n      JUMPDEST \t\t\tfunction isWillExecuted(addres...\n      PUSH 40\t\t\tfunction isWillExecuted(addres...\n      MLOAD \t\t\tfunction isWillExecuted(addres...\n      PUSH [tag] 45\t\t\tfunction isWillExecuted(addres...\n      SWAP2 \t\t\tfunction isWillExecuted(addres...\n      SWAP1 \t\t\tfunction isWillExecuted(addres...\n      PUSH [tag] 28\t\t\tfunction isWillExecuted(addres...\n      JUMP \t\t\tfunction isWillExecuted(addres...\n    tag 45\t\t\tfunction isWillExecuted(addres...\n      JUMPDEST \t\t\tfunction isWillExecuted(addres...\n      PUSH 40\t\t\tfunction isWillExecuted(addres...\n      MLOAD \t\t\tfunction isWillExecuted(addres...\n      DUP1 \t\t\tfunction isWillExecuted(addres...\n      SWAP2 \t\t\tfunction isWillExecuted(addres...\n      SUB \t\t\tfunction isWillExecuted(addres...\n      SWAP1 \t\t\tfunction isWillExecuted(addres...\n      RETURN \t\t\tfunction isWillExecuted(addres...\n    tag 9\t\t\tfunction executeWill(address u...\n      JUMPDEST \t\t\tfunction executeWill(address u...\n      CALLVALUE \t\t\tfunction executeWill(address u...\n      DUP1 \t\t\tfunction executeWill(address u...\n      ISZERO \t\t\tfunction executeWill(address u...\n      PUSH [tag] 46\t\t\tfunction executeWill(address u...\n      JUMPI \t\t\tfunction executeWill(address u...\n      PUSH 0\t\t\tfunction executeWill(address u...\n      DUP1 \t\t\tfunction executeWill(address u...\n      REVERT \t\t\tfunction executeWill(address u...\n    tag 46\t\t\tfunction executeWill(address u...\n      JUMPDEST \t\t\tfunction executeWill(address u...\n      POP \t\t\tfunction executeWill(address u...\n      PUSH [tag] 47\t\t\tfunction executeWill(address u...\n      PUSH 4\t\t\tfunction executeWill(address u...\n      DUP1 \t\t\tfunction executeWill(address u...\n      CALLDATASIZE \t\t\tfunction executeWill(address u...\n      SUB \t\t\tfunction executeWill(address u...\n      DUP2 \t\t\tfunction executeWill(address u...\n      ADD \t\t\tfunction executeWill(address u...\n      SWAP1 \t\t\tfunction executeWill(address u...\n      PUSH [tag] 48\t\t\tfunction executeWill(address u...\n      SWAP2 \t\t\tfunction executeWill(address u...\n      SWAP1 \t\t\tfunction executeWill(address u...\n      PUSH [tag] 14\t\t\tfunction executeWill(address u...\n      JUMP \t\t\tfunction executeWill(address u...\n    tag 48\t\t\tfunction executeWill(address u...\n      JUMPDEST \t\t\tfunction executeWill(address u...\n      PUSH [tag] 49\t\t\tfunction executeWill(address u...\n      JUMP \t\t\tfunction executeWill(address u...\n    tag 47\t\t\tfunction executeWill(address u...\n      JUMPDEST \t\t\tfunction executeWill(address u...\n      STOP \t\t\tfunction executeWill(address u...\n    tag 15\t\t\tfunction getBeneficiaryCount(a...\n      JUMPDEST \t\t\tfunction getBeneficiaryCount(a...\n      PUSH 0\t\t\tuint256\n      PUSH 1\t\t\thasWill\n      PUSH 0\t\t\thasWill[user]\n      DUP4 \t\t\tuser\n      PUSH FFFFFFFFFFFFFFFFFFFFFFFFFFFFFFFFFFFFFFFF\t\t\thasWill[user]\n      AND \t\t\thasWill[user]\n      PUSH FFFFFFFFFFFFFFFFFFFFFFFFFFFFFFFFFFFFFFFF\t\t\thasWill[user]\n      AND \t\t\thasWill[user]\n      DUP2 \t\t\thasWill[user]\n      MSTORE \t\t\thasWill[user]\n      PUSH 20\t\t\thasWill[user]\n      ADD \t\t\thasWill[user]\n      SWAP1 \t\t\thasWill[user]\n      DUP2 \t\t\thasWill[user]\n      MSTORE \t\t\thasWill[user]\n      PUSH 20\t\t\thasWill[user]\n      ADD \t\t\thasWill[user]\n      PUSH 0\t\t\thasWill[user]\n      KECCAK256 \t\t\thasWill[user]\n      PUSH 0\t\t\thasWill[user]\n      SWAP1 \t\t\thasWill[user]\n      SLOAD \t\t\thasWill[user]\n      SWAP1 \t\t\thasWill[user]\n      PUSH 100\t\t\thasWill[user]\n      EXP \t\t\thasWill[user]\n      SWAP1 \t\t\thasWill[user]\n      DIV \t\t\thasWill[user]\n      PUSH FF\t\t\thasWill[user]\n      AND \t\t\thasWill[user]\n      PUSH [tag] 51\t\t\trequire(hasWill[user], \"No wil...\n      JUMPI \t\t\trequire(hasWill[user], \"No wil...\n      PUSH 40\t\t\trequire(hasWill[user], \"No wil...\n      MLOAD \t\t\trequire(hasWill[user], \"No wil...\n      PUSH 8C379A000000000000000000000000000000000000000000000000000000000\t\t\trequire(hasWill[user], \"No wil...\n      DUP2 \t\t\trequire(hasWill[user], \"No wil...\n      MSTORE \t\t\trequire(hasWill[user], \"No wil...\n      PUSH 4\t\t\trequire(hasWill[user], \"No wil...\n      ADD \t\t\trequire(hasWill[user], \"No wil...\n      PUSH [tag] 52\t\t\trequire(hasWill[user], \"No wil...\n      SWAP1 \t\t\trequire(hasWill[user], \"No wil...\n      PUSH [tag] 53\t\t\trequire(hasWill[user], \"No wil...\n      JUMP \t\t\trequire(hasWill[user], \"No wil...\n    tag 52\t\t\trequire(hasWill[user], \"No wil...\n      JUMPDEST \t\t\trequire(hasWill[user], \"No wil...\n      PUSH 40\t\t\trequire(hasWill[user], \"No wil...\n      MLOAD \t\t\trequire(hasWill[user], \"No wil...\n      DUP1 \t\t\trequire(hasWill[user], \"No wil...\n      SWAP2 \t\t\trequire(hasWill[user], \"No wil...\n      SUB \t\t\trequire(hasWill[user], \"No wil...\n      SWAP1 \t\t\trequire(hasWill[user], \"No wil...\n      REVERT \t\t\trequire(hasWill[user], \"No wil...\n    tag 51\t\t\trequire(hasWill[user], \"No wil...\n      JUMPDEST \t\t\trequire(hasWill[user], \"No wil...\n      PUSH 0\t\t\twills\n      DUP1 \t\t\twills[user]\n      DUP4 \t\t\tuser\n      PUSH FFFFFFFFFFFFFFFFFFFFFFFFFFFFFFFFFFFFFFFF\t\t\twills[user]\n      AND \t\t\twills[user]\n      PUSH FFFFFFFFFFFFFFFFFFFFFFFFFFFFFFFFFFFFFFFF\t\t\twills[user]\n      AND \t\t\twills[user]\n      DUP2 \t\t\twills[user]\n      MSTORE \t\t\twills[user]\n      PUSH 20\t\t\twills[user]\n      ADD \t\t\twills[user]\n      SWAP1 \t\t\twills[user]\n      DUP2 \t\t\twills[user]\n      MSTORE \t\t\twills[user]\n      PUSH 20\t\t\twills[user]\n      ADD \t\t\twills[user]\n      PUSH 0\t\t\twills[user]\n      KECCAK256 \t\t\twills[user]\n      PUSH 7\t\t\twills[user].beneficiaries\n      ADD \t\t\twills[user].beneficiaries\n      DUP1 \t\t\twills[user].beneficiaries.leng...\n      SLOAD \t\t\twills[user].beneficiaries.leng...\n      SWAP1 \t\t\twills[user].beneficiaries.leng...\n      POP \t\t\twills[user].beneficiaries.leng...\n      SWAP1 \t\t\treturn wills[user].beneficiari...\n      POP \t\t\treturn wills[user].beneficiari...\n      SWAP2 \t\t\tfunction getBeneficiaryCount(a...\n      SWAP1 \t\t\tfunction getBeneficiaryCount(a...\n      POP \t\t\tfunction getBeneficiaryCount(a...\n      JUMP \t\t\tfunction getBeneficiaryCount(a...\n    tag 22\t\t\tfunction addBeneficiary(\\n    ...\n      JUMPDEST \t\t\tfunction addBeneficiary(\\n    ...\n      PUSH 1\t\t\thasWill\n      PUSH 0\t\t\thasWill[msg.sender]\n      CALLER \t\t\tmsg.sender\n      PUSH FFFFFFFFFFFFFFFFFFFFFFFFFFFFFFFFFFFFFFFF\t\t\thasWill[msg.sender]\n      AND \t\t\thasWill[msg.sender]\n      PUSH FFFFFFFFFFFFFFFFFFFFFFFFFFFFFFFFFFFFFFFF\t\t\thasWill[msg.sender]\n      AND \t\t\thasWill[msg.sender]\n      DUP2 \t\t\thasWill[msg.sender]\n      MSTORE \t\t\thasWill[msg.sender]\n      PUSH 20\t\t\thasWill[msg.sender]\n      ADD \t\t\thasWill[msg.sender]\n      SWAP1 \t\t\thasWill[msg.sender]\n      DUP2 \t\t\thasWill[msg.sender]\n      MSTORE \t\t\thasWill[msg.sender]\n      PUSH 20\t\t\thasWill[msg.sender]\n      ADD \t\t\thasWill[msg.sender]\n      PUSH 0\t\t\thasWill[msg.sender]\n      KECCAK256 \t\t\thasWill[msg.sender]\n      PUSH 0\t\t\thasWill[msg.sender]\n      SWAP1 \t\t\thasWill[msg.sender]\n      SLOAD \t\t\thasWill[msg.sender]\n      SWAP1 \t\t\thasWill[msg.sender]\n      PUSH 100\t\t\thasWill[msg.sender]\n      EXP \t\t\thasWill[msg.sender]\n      SWAP1 \t\t\thasWill[msg.sender]\n      DIV \t\t\thasWill[msg.sender]\n      PUSH FF\t\t\thasWill[msg.sender]\n      AND \t\t\thasWill[msg.sender]\n      PUSH [tag] 55\t\t\trequire(hasWill[msg.sender], \"...\n      JUMPI \t\t\trequire(hasWill[msg.sender], \"...\n      PUSH 40\t\t\trequire(hasWill[msg.sender], \"...\n      MLOAD \t\t\trequire(hasWill[msg.sender], \"...\n      PUSH 8C379A000000000000000000000000000000000000000000000000000000000\t\t\trequire(hasWill[msg.sender], \"...\n      DUP2 \t\t\trequire(hasWill[msg.sender], \"...\n      MSTORE \t\t\trequire(hasWill[msg.sender], \"...\n      PUSH 4\t\t\trequire(hasWill[msg.sender], \"...\n      ADD \t\t\trequire(hasWill[msg.sender], \"...\n      PUSH [tag] 56\t\t\trequire(hasWill[msg.sender], \"...\n      SWAP1 \t\t\trequire(hasWill[msg.sender], \"...\n      PUSH [tag] 57\t\t\trequire(hasWill[msg.sender], \"...\n      JUMP \t\t\trequire(hasWill[msg.sender], \"...\n    tag 56\t\t\trequire(hasWill[msg.sender], \"...\n      JUMPDEST \t\t\trequire(hasWill[msg.sender], \"...\n      PUSH 40\t\t\trequire(hasWill[msg.sender], \"...\n      MLOAD \t\t\trequire(hasWill[msg.sender], \"...\n      DUP1 \t\t\trequire(hasWill[msg.sender], \"...\n      SWAP2 \t\t\trequire(hasWill[msg.sender], \"...\n      SUB \t\t\trequire(hasWill[msg.sender], \"...\n      SWAP1 \t\t\trequire(hasWill[msg.sender], \"...\n      REVERT \t\t\trequire(hasWill[msg.sender], \"...\n    tag 55\t\t\trequire(hasWill[msg.sender], \"...\n      JUMPDEST \t\t\trequire(hasWill[msg.sender], \"...\n      PUSH 0\t\t\t0\n      PUSH FFFFFFFFFFFFFFFFFFFFFFFFFFFFFFFFFFFFFFFF\t\t\t_wallet != address(0)\n      AND \t\t\t_wallet != address(0)\n      DUP5 \t\t\t_wallet\n      PUSH FFFFFFFFFFFFFFFFFFFFFFFFFFFFFFFFFFFFFFFF\t\t\t_wallet != address(0)\n      AND \t\t\t_wallet != address(0)\n      SUB \t\t\t_wallet != address(0)\n      PUSH [tag] 58\t\t\trequire(_wallet != address(0),...\n      JUMPI \t\t\trequire(_wallet != address(0),...\n      PUSH 40\t\t\trequire(_wallet != address(0),...\n      MLOAD \t\t\trequire(_wallet != address(0),...\n      PUSH 8C379A000000000000000000000000000000000000000000000000000000000\t\t\trequire(_wallet != address(0),...\n      DUP2 \t\t\trequire(_wallet != address(0),...\n      MSTORE \t\t\trequire(_wallet != address(0),...\n      PUSH 4\t\t\trequire(_wallet != address(0),...\n      ADD \t\t\trequire(_wallet != address(0),...\n      PUSH [tag] 59\t\t\trequire(_wallet != address(0),...\n      SWAP1 \t\t\trequire(_wallet != address(0),...\n      PUSH [tag] 60\t\t\trequire(_wallet != address(0),...\n      JUMP \t\t\trequire(_wallet != address(0),...\n    tag 59\t\t\trequire(_wallet != address(0),...\n      JUMPDEST \t\t\trequire(_wallet != address(0),...\n      PUSH 40\t\t\trequire(_wallet != address(0),...\n      MLOAD \t\t\trequire(_wallet != address(0),...\n      DUP1 \t\t\trequire(_wallet != address(0),...\n      SWAP2 \t\t\trequire(_wallet != address(0),...\n      SUB \t\t\trequire(_wallet != address(0),...\n      SWAP1 \t\t\trequire(_wallet != address(0),...\n      REVERT \t\t\trequire(_wallet != address(0),...\n    tag 58\t\t\trequire(_wallet != address(0),...\n      JUMPDEST \t\t\trequire(_wallet != address(0),...\n      PUSH 0\t\t\t0\n      DUP4 \t\t\t_percentage\n      GT \t\t\t_percentage > 0\n      DUP1 \t\t\t_percentage > 0 && _percentage...\n      ISZERO \t\t\t_percentage > 0 && _percentage...\n      PUSH [tag] 61\t\t\t_percentage > 0 && _percentage...\n      JUMPI \t\t\t_percentage > 0 && _percentage...\n      POP \t\t\t_percentage > 0 && _percentage...\n      PUSH 64\t\t\t100\n      DUP4 \t\t\t_percentage\n      GT \t\t\t_percentage <= 100\n      ISZERO \t\t\t_percentage <= 100\n    tag 61\t\t\t_percentage > 0 && _percentage...\n      JUMPDEST \t\t\t_percentage > 0 && _percentage...\n      PUSH [tag] 62\t\t\trequire(_percentage > 0 && _pe...\n      JUMPI \t\t\trequire(_percentage > 0 && _pe...\n      PUSH 40\t\t\trequire(_percentage > 0 && _pe...\n      MLOAD \t\t\trequire(_percentage > 0 && _pe...\n      PUSH 8C379A000000000000000000000000000000000000000000000000000000000\t\t\trequire(_percentage > 0 && _pe...\n      DUP2 \t\t\trequire(_percentage > 0 && _pe...\n      MSTORE \t\t\trequire(_percentage > 0 && _pe...\n      PUSH 4\t\t\trequire(_percentage > 0 && _pe...\n      ADD \t\t\trequire(_percentage > 0 && _pe...\n      PUSH [tag] 63\t\t\trequire(_percentage > 0 && _pe...\n      SWAP1 \t\t\trequire(_percentage > 0 && _pe...\n      PUSH [tag] 64\t\t\trequire(_percentage > 0 && _pe...\n      JUMP \t\t\trequire(_percentage > 0 && _pe...\n    tag 63\t\t\trequire(_percentage > 0 && _pe...\n      JUMPDEST \t\t\trequire(_percentage > 0 && _pe...\n      PUSH 40\t\t\trequire(_percentage > 0 && _pe...\n      MLOAD \t\t\trequire(_percentage > 0 && _pe...\n      DUP1 \t\t\trequire(_percentage > 0 && _pe...\n      SWAP2 \t\t\trequire(_percentage > 0 && _pe...\n      SUB \t\t\trequire(_percentage > 0 && _pe...\n      SWAP1 \t\t\trequire(_percentage > 0 && _pe...\n      REVERT \t\t\trequire(_percentage > 0 && _pe...\n    tag 62\t\t\trequire(_percentage > 0 && _pe...\n      JUMPDEST \t\t\trequire(_percentage > 0 && _pe...\n      PUSH 0\t\t\tuint256 totalPercentage\n      DUP1 \t\t\tuint i\n    tag 65\t\t\tfor (uint i = 0; i < wills[msg...\n      JUMPDEST \t\t\tfor (uint i = 0; i < wills[msg...\n      PUSH 0\t\t\twills\n      DUP1 \t\t\twills[msg.sender]\n      CALLER \t\t\tmsg.sender\n      PUSH FFFFFFFFFFFFFFFFFFFFFFFFFFFFFFFFFFFFFFFF\t\t\twills[msg.sender]\n      AND \t\t\twills[msg.sender]\n      PUSH FFFFFFFFFFFFFFFFFFFFFFFFFFFFFFFFFFFFFFFF\t\t\twills[msg.sender]\n      AND \t\t\twills[msg.sender]\n      DUP2 \t\t\twills[msg.sender]\n      MSTORE \t\t\twills[msg.sender]\n      PUSH 20\t\t\twills[msg.sender]\n      ADD \t\t\twills[msg.sender]\n      SWAP1 \t\t\twills[msg.sender]\n      DUP2 \t\t\twills[msg.sender]\n      MSTORE \t\t\twills[msg.sender]\n      PUSH 20\t\t\twills[msg.sender]\n      ADD \t\t\twills[msg.sender]\n      PUSH 0\t\t\twills[msg.sender]\n      KECCAK256 \t\t\twills[msg.sender]\n      PUSH 7\t\t\twills[msg.sender].beneficiarie...\n      ADD \t\t\twills[msg.sender].beneficiarie...\n      DUP1 \t\t\twills[msg.sender].beneficiarie...\n      SLOAD \t\t\twills[msg.sender].beneficiarie...\n      SWAP1 \t\t\twills[msg.sender].beneficiarie...\n      POP \t\t\twills[msg.sender].beneficiarie...\n      DUP2 \t\t\ti\n      LT \t\t\ti < wills[msg.sender].benefici...\n      ISZERO \t\t\tfor (uint i = 0; i < wills[msg...\n      PUSH [tag] 66\t\t\tfor (uint i = 0; i < wills[msg...\n      JUMPI \t\t\tfor (uint i = 0; i < wills[msg...\n      PUSH 0\t\t\twills\n      DUP1 \t\t\twills[msg.sender]\n      CALLER \t\t\tmsg.sender\n      PUSH FFFFFFFFFFFFFFFFFFFFFFFFFFFFFFFFFFFFFFFF\t\t\twills[msg.sender]\n      AND \t\t\twills[msg.sender]\n      PUSH FFFFFFFFFFFFFFFFFFFFFFFFFFFFFFFFFFFFFFFF\t\t\twills[msg.sender]\n      AND \t\t\twills[msg.sender]\n      DUP2 \t\t\twills[msg.sender]\n      MSTORE \t\t\twills[msg.sender]\n      PUSH 20\t\t\twills[msg.sender]\n      ADD \t\t\twills[msg.sender]\n      SWAP1 \t\t\twills[msg.sender]\n      DUP2 \t\t\twills[msg.sender]\n      MSTORE \t\t\twills[msg.sender]\n      PUSH 20\t\t\twills[msg.sender]\n      ADD \t\t\twills[msg.sender]\n      PUSH 0\t\t\twills[msg.sender]\n      KECCAK256 \t\t\twills[msg.sender]\n      PUSH 7\t\t\twills[msg.sender].beneficiarie...\n      ADD \t\t\twills[msg.sender].beneficiarie...\n      DUP2 \t\t\ti\n      DUP2 \t\t\twills[msg.sender].beneficiarie...\n      SLOAD \t\t\twills[msg.sender].beneficiarie...\n      DUP2 \t\t\twills[msg.sender].beneficiarie...\n      LT \t\t\twills[msg.sender].beneficiarie...\n      PUSH [tag] 68\t\t\twills[msg.sender].beneficiarie...\n      JUMPI \t\t\twills[msg.sender].beneficiarie...\n      PUSH [tag] 69\t\t\twills[msg.sender].beneficiarie...\n      PUSH [tag] 70\t\t\twills[msg.sender].beneficiarie...\n      JUMP \t\t\twills[msg.sender].beneficiarie...\n    tag 69\t\t\twills[msg.sender].beneficiarie...\n      JUMPDEST \t\t\twills[msg.sender].beneficiarie...\n    tag 68\t\t\twills[msg.sender].beneficiarie...\n      JUMPDEST \t\t\twills[msg.sender].beneficiarie...\n      SWAP1 \t\t\twills[msg.sender].beneficiarie...\n      PUSH 0\t\t\twills[msg.sender].beneficiarie...\n      MSTORE \t\t\twills[msg.sender].beneficiarie...\n      PUSH 20\t\t\twills[msg.sender].beneficiarie...\n      PUSH 0\t\t\twills[msg.sender].beneficiarie...\n      KECCAK256 \t\t\twills[msg.sender].beneficiarie...\n      SWAP1 \t\t\twills[msg.sender].beneficiarie...\n      PUSH 4\t\t\twills[msg.sender].beneficiarie...\n      MUL \t\t\twills[msg.sender].beneficiarie...\n      ADD \t\t\twills[msg.sender].beneficiarie...\n      PUSH 1\t\t\twills[msg.sender].beneficiarie...\n      ADD \t\t\twills[msg.sender].beneficiarie...\n      SLOAD \t\t\twills[msg.sender].beneficiarie...\n      DUP3 \t\t\ttotalPercentage += wills[msg.s...\n      PUSH [tag] 72\t\t\ttotalPercentage += wills[msg.s...\n      SWAP2 \t\t\ttotalPercentage += wills[msg.s...\n      SWAP1 \t\t\ttotalPercentage += wills[msg.s...\n      PUSH [tag] 73\t\t\ttotalPercentage += wills[msg.s...\n      JUMP \t\t\ttotalPercentage += wills[msg.s...\n    tag 72\t\t\ttotalPercentage += wills[msg.s...\n      JUMPDEST \t\t\ttotalPercentage += wills[msg.s...\n      SWAP2 \t\t\ttotalPercentage += wills[msg.s...\n      POP \t\t\ttotalPercentage += wills[msg.s...\n      DUP1 \t\t\ti++\n      DUP1 \t\t\ti++\n      PUSH 1\t\t\ti++\n      ADD \t\t\ti++\n      SWAP2 \t\t\ti++\n      POP \t\t\ti++\n      POP \t\t\ti++\n      PUSH [tag] 65\t\t\tfor (uint i = 0; i < wills[msg...\n      JUMP \t\t\tfor (uint i = 0; i < wills[msg...\n    tag 66\t\t\tfor (uint i = 0; i < wills[msg...\n      JUMPDEST \t\t\tfor (uint i = 0; i < wills[msg...\n      POP \t\t\tfor (uint i = 0; i < wills[msg...\n      PUSH 64\t\t\t100\n      DUP5 \t\t\t_percentage\n      DUP3 \t\t\ttotalPercentage\n      PUSH [tag] 74\t\t\ttotalPercentage + _percentage\n      SWAP2 \t\t\ttotalPercentage + _percentage\n      SWAP1 \t\t\ttotalPercentage + _percentage\n      PUSH [tag] 73\t\t\ttotalPercentage + _percentage\n      JUMP \t\t\ttotalPercentage + _percentage\n    tag 74\t\t\ttotalPercentage + _percentage\n      JUMPDEST \t\t\ttotalPercentage + _percentage\n      GT \t\t\ttotalPercentage + _percentage ...\n      ISZERO \t\t\ttotalPercentage + _percentage ...\n      PUSH [tag] 75\t\t\trequire(totalPercentage + _per...\n      JUMPI \t\t\trequire(totalPercentage + _per...\n      PUSH 40\t\t\trequire(totalPercentage + _per...\n      MLOAD \t\t\trequire(totalPercentage + _per...\n      PUSH 8C379A000000000000000000000000000000000000000000000000000000000\t\t\trequire(totalPercentage + _per...\n      DUP2 \t\t\trequire(totalPercentage + _per...\n      MSTORE \t\t\trequire(totalPercentage + _per...\n      PUSH 4\t\t\trequire(totalPercentage + _per...\n      ADD \t\t\trequire(totalPercentage + _per...\n      PUSH [tag] 76\t\t\trequire(totalPercentage + _per...\n      SWAP1 \t\t\trequire(totalPercentage + _per...\n      PUSH [tag] 77\t\t\trequire(totalPercentage + _per...\n      JUMP \t\t\trequire(totalPercentage + _per...\n    tag 76\t\t\trequire(totalPercentage + _per...\n      JUMPDEST \t\t\trequire(totalPercentage + _per...\n      PUSH 40\t\t\trequire(totalPercentage + _per...\n      MLOAD \t\t\trequire(totalPercentage + _per...\n      DUP1 \t\t\trequire(totalPercentage + _per...\n      SWAP2 \t\t\trequire(totalPercentage + _per...\n      SUB \t\t\trequire(totalPercentage + _per...\n      SWAP1 \t\t\trequire(totalPercentage + _per...\n      REVERT \t\t\trequire(totalPercentage + _per...\n    tag 75\t\t\trequire(totalPercentage + _per...\n      JUMPDEST \t\t\trequire(totalPercentage + _per...\n      PUSH 0\t\t\twills\n      DUP1 \t\t\twills[msg.sender]\n      CALLER \t\t\tmsg.sender\n      PUSH FFFFFFFFFFFFFFFFFFFFFFFFFFFFFFFFFFFFFFFF\t\t\twills[msg.sender]\n      AND \t\t\twills[msg.sender]\n      PUSH FFFFFFFFFFFFFFFFFFFFFFFFFFFFFFFFFFFFFFFF\t\t\twills[msg.sender]\n      AND \t\t\twills[msg.sender]\n      DUP2 \t\t\twills[msg.sender]\n      MSTORE \t\t\twills[msg.sender]\n      PUSH 20\t\t\twills[msg.sender]\n      ADD \t\t\twills[msg.sender]\n      SWAP1 \t\t\twills[msg.sender]\n      DUP2 \t\t\twills[msg.sender]\n      MSTORE \t\t\twills[msg.sender]\n      PUSH 20\t\t\twills[msg.sender]\n      ADD \t\t\twills[msg.sender]\n      PUSH 0\t\t\twills[msg.sender]\n      KECCAK256 \t\t\twills[msg.sender]\n      PUSH 7\t\t\twills[msg.sender].beneficiarie...\n      ADD \t\t\twills[msg.sender].beneficiarie...\n      PUSH 40\t\t\tBeneficiary(_wallet, _percenta...\n      MLOAD \t\t\tBeneficiary(_wallet, _percenta...\n      DUP1 \t\t\tBeneficiary(_wallet, _percenta...\n      PUSH 80\t\t\tBeneficiary(_wallet, _percenta...\n      ADD \t\t\tBeneficiary(_wallet, _percenta...\n      PUSH 40\t\t\tBeneficiary(_wallet, _percenta...\n      MSTORE \t\t\tBeneficiary(_wallet, _percenta...\n      DUP1 \t\t\tBeneficiary(_wallet, _percenta...\n      DUP8 \t\t\t_wallet\n      PUSH FFFFFFFFFFFFFFFFFFFFFFFFFFFFFFFFFFFFFFFF\t\t\tBeneficiary(_wallet, _percenta...\n      AND \t\t\tBeneficiary(_wallet, _percenta...\n      DUP2 \t\t\tBeneficiary(_wallet, _percenta...\n      MSTORE \t\t\tBeneficiary(_wallet, _percenta...\n      PUSH 20\t\t\tBeneficiary(_wallet, _percenta...\n      ADD \t\t\tBeneficiary(_wallet, _percenta...\n      DUP7 \t\t\t_percentage\n      DUP2 \t\t\tBeneficiary(_wallet, _percenta...\n      MSTORE \t\t\tBeneficiary(_wallet, _percenta...\n      PUSH 20\t\t\tBeneficiary(_wallet, _percenta...\n      ADD \t\t\tBeneficiary(_wallet, _percenta...\n      DUP6 \t\t\t_saleDeedIpfsHash\n      DUP2 \t\t\tBeneficiary(_wallet, _percenta...\n      MSTORE \t\t\tBeneficiary(_wallet, _percenta...\n      PUSH 20\t\t\tBeneficiary(_wallet, _percenta...\n      ADD \t\t\tBeneficiary(_wallet, _percenta...\n      DUP5 \t\t\t_email\n      DUP2 \t\t\tBeneficiary(_wallet, _percenta...\n      MSTORE \t\t\tBeneficiary(_wallet, _percenta...\n      POP \t\t\tBeneficiary(_wallet, _percenta...\n      SWAP1 \t\t\twills[msg.sender].beneficiarie...\n      DUP1 \t\t\twills[msg.sender].beneficiarie...\n      PUSH 1\t\t\twills[msg.sender].beneficiarie...\n      DUP2 \t\t\twills[msg.sender].beneficiarie...\n      SLOAD \t\t\twills[msg.sender].beneficiarie...\n      ADD \t\t\twills[msg.sender].beneficiarie...\n      DUP1 \t\t\twills[msg.sender].beneficiarie...\n      DUP3 \t\t\twills[msg.sender].beneficiarie...\n      SSTORE \t\t\twills[msg.sender].beneficiarie...\n      DUP1 \t\t\twills[msg.sender].beneficiarie...\n      SWAP2 \t\t\twills[msg.sender].beneficiarie...\n      POP \t\t\twills[msg.sender].beneficiarie...\n      POP \t\t\twills[msg.sender].beneficiarie...\n      PUSH 1\t\t\twills[msg.sender].beneficiarie...\n      SWAP1 \t\t\twills[msg.sender].beneficiarie...\n      SUB \t\t\twills[msg.sender].beneficiarie...\n      SWAP1 \t\t\twills[msg.sender].beneficiarie...\n      PUSH 0\t\t\twills[msg.sender].beneficiarie...\n      MSTORE \t\t\twills[msg.sender].beneficiarie...\n      PUSH 20\t\t\twills[msg.sender].beneficiarie...\n      PUSH 0\t\t\twills[msg.sender].beneficiarie...\n      KECCAK256 \t\t\twills[msg.sender].beneficiarie...\n      SWAP1 \t\t\twills[msg.sender].beneficiarie...\n      PUSH 4\t\t\twills[msg.sender].beneficiarie...\n      MUL \t\t\twills[msg.sender].beneficiarie...\n      ADD \t\t\twills[msg.sender].beneficiarie...\n      PUSH 0\t\t\twills[msg.sender].beneficiarie...\n      SWAP1 \t\t\twills[msg.sender].beneficiarie...\n      SWAP2 \t\t\twills[msg.sender].beneficiarie...\n      SWAP1 \t\t\twills[msg.sender].beneficiarie...\n      SWAP2 \t\t\twills[msg.sender].beneficiarie...\n      SWAP1 \t\t\twills[msg.sender].beneficiarie...\n      SWAP2 \t\t\twills[msg.sender].beneficiarie...\n      POP \t\t\twills[msg.sender].beneficiarie...\n      PUSH 0\t\t\twills[msg.sender].beneficiarie...\n      DUP3 \t\t\twills[msg.sender].beneficiarie...\n      ADD \t\t\twills[msg.sender].beneficiarie...\n      MLOAD \t\t\twills[msg.sender].beneficiarie...\n      DUP2 \t\t\twills[msg.sender].beneficiarie...\n      PUSH 0\t\t\twills[msg.sender].beneficiarie...\n      ADD \t\t\twills[msg.sender].beneficiarie...\n      PUSH 0\t\t\twills[msg.sender].beneficiarie...\n      PUSH 100\t\t\twills[msg.sender].beneficiarie...\n      EXP \t\t\twills[msg.sender].beneficiarie...\n      DUP2 \t\t\twills[msg.sender].beneficiarie...\n      SLOAD \t\t\twills[msg.sender].beneficiarie...\n      DUP2 \t\t\twills[msg.sender].beneficiarie...\n      PUSH FFFFFFFFFFFFFFFFFFFFFFFFFFFFFFFFFFFFFFFF\t\t\twills[msg.sender].beneficiarie...\n      MUL \t\t\twills[msg.sender].beneficiarie...\n      NOT \t\t\twills[msg.sender].beneficiarie...\n      AND \t\t\twills[msg.sender].beneficiarie...\n      SWAP1 \t\t\twills[msg.sender].beneficiarie...\n      DUP4 \t\t\twills[msg.sender].beneficiarie...\n      PUSH FFFFFFFFFFFFFFFFFFFFFFFFFFFFFFFFFFFFFFFF\t\t\twills[msg.sender].beneficiarie...\n      AND \t\t\twills[msg.sender].beneficiarie...\n      MUL \t\t\twills[msg.sender].beneficiarie...\n      OR \t\t\twills[msg.sender].beneficiarie...\n      SWAP1 \t\t\twills[msg.sender].beneficiarie...\n      SSTORE \t\t\twills[msg.sender].beneficiarie...\n      POP \t\t\twills[msg.sender].beneficiarie...\n      PUSH 20\t\t\twills[msg.sender].beneficiarie...\n      DUP3 \t\t\twills[msg.sender].beneficiarie...\n      ADD \t\t\twills[msg.sender].beneficiarie...\n      MLOAD \t\t\twills[msg.sender].beneficiarie...\n      DUP2 \t\t\twills[msg.sender].beneficiarie...\n      PUSH 1\t\t\twills[msg.sender].beneficiarie...\n      ADD \t\t\twills[msg.sender].beneficiarie...\n      SSTORE \t\t\twills[msg.sender].beneficiarie...\n      PUSH 40\t\t\twills[msg.sender].beneficiarie...\n      DUP3 \t\t\twills[msg.sender].beneficiarie...\n      ADD \t\t\twills[msg.sender].beneficiarie...\n      MLOAD \t\t\twills[msg.sender].beneficiarie...\n      DUP2 \t\t\twills[msg.sender].beneficiarie...\n      PUSH 2\t\t\twills[msg.sender].beneficiarie...\n      ADD \t\t\twills[msg.sender].beneficiarie...\n      SWAP1 \t\t\twills[msg.sender].beneficiarie...\n      DUP2 \t\t\twills[msg.sender].beneficiarie...\n      PUSH [tag] 79\t\t\twills[msg.sender].beneficiarie...\n      SWAP2 \t\t\twills[msg.sender].beneficiarie...\n      SWAP1 \t\t\twills[msg.sender].beneficiarie...\n      PUSH [tag] 80\t\t\twills[msg.sender].beneficiarie...\n      JUMP \t\t\twills[msg.sender].beneficiarie...\n    tag 79\t\t\twills[msg.sender].beneficiarie...\n      JUMPDEST \t\t\twills[msg.sender].beneficiarie...\n      POP \t\t\twills[msg.sender].beneficiarie...\n      PUSH 60\t\t\twills[msg.sender].beneficiarie...\n      DUP3 \t\t\twills[msg.sender].beneficiarie...\n      ADD \t\t\twills[msg.sender].beneficiarie...\n      MLOAD \t\t\twills[msg.sender].beneficiarie...\n      DUP2 \t\t\twills[msg.sender].beneficiarie...\n      PUSH 3\t\t\twills[msg.sender].beneficiarie...\n      ADD \t\t\twills[msg.sender].beneficiarie...\n      SWAP1 \t\t\twills[msg.sender].beneficiarie...\n      DUP2 \t\t\twills[msg.sender].beneficiarie...\n      PUSH [tag] 81\t\t\twills[msg.sender].beneficiarie...\n      SWAP2 \t\t\twills[msg.sender].beneficiarie...\n      SWAP1 \t\t\twills[msg.sender].beneficiarie...\n      PUSH [tag] 80\t\t\twills[msg.sender].beneficiarie...\n      JUMP \t\t\twills[msg.sender].beneficiarie...\n    tag 81\t\t\twills[msg.sender].beneficiarie...\n      JUMPDEST \t\t\twills[msg.sender].beneficiarie...\n      POP \t\t\twills[msg.sender].beneficiarie...\n      POP \t\t\twills[msg.sender].beneficiarie...\n      POP \t\t\twills[msg.sender].beneficiarie...\n      CALLER \t\t\tmsg.sender\n      PUSH FFFFFFFFFFFFFFFFFFFFFFFFFFFFFFFFFFFFFFFF\t\t\tBeneficiaryAdded(msg.sender, _...\n      AND \t\t\tBeneficiaryAdded(msg.sender, _...\n      PUSH 5D081D791B64899ADAB031015397EF8D7600501212EF97573B9E50F8C9BB6D9B\t\t\tBeneficiaryAdded(msg.sender, _...\n      DUP7 \t\t\t_wallet\n      DUP7 \t\t\t_percentage\n      PUSH 40\t\t\tBeneficiaryAdded(msg.sender, _...\n      MLOAD \t\t\tBeneficiaryAdded(msg.sender, _...\n      PUSH [tag] 82\t\t\tBeneficiaryAdded(msg.sender, _...\n      SWAP3 \t\t\tBeneficiaryAdded(msg.sender, _...\n      SWAP2 \t\t\tBeneficiaryAdded(msg.sender, _...\n      SWAP1 \t\t\tBeneficiaryAdded(msg.sender, _...\n      PUSH [tag] 83\t\t\tBeneficiaryAdded(msg.sender, _...\n      JUMP \t\t\tBeneficiaryAdded(msg.sender, _...\n    tag 82\t\t\tBeneficiaryAdded(msg.sender, _...\n      JUMPDEST \t\t\tBeneficiaryAdded(msg.sender, _...\n      PUSH 40\t\t\tBeneficiaryAdded(msg.sender, _...\n      MLOAD \t\t\tBeneficiaryAdded(msg.sender, _...\n      DUP1 \t\t\tBeneficiaryAdded(msg.sender, _...\n      SWAP2 \t\t\tBeneficiaryAdded(msg.sender, _...\n      SUB \t\t\tBeneficiaryAdded(msg.sender, _...\n      SWAP1 \t\t\tBeneficiaryAdded(msg.sender, _...\n      LOG2 \t\t\tBeneficiaryAdded(msg.sender, _...\n      POP \t\t\t{\\n        require(hasWill[msg...\n      POP \t\t\tfunction addBeneficiary(\\n    ...\n      POP \t\t\tfunction addBeneficiary(\\n    ...\n      POP \t\t\tfunction addBeneficiary(\\n    ...\n      POP \t\t\tfunction addBeneficiary(\\n    ...\n      JUMP \t\t\tfunction addBeneficiary(\\n    ...\n    tag 26\t\t\tmapping(address => bool) publi...\n      JUMPDEST \t\t\tmapping(address => bool) publi...\n      PUSH 1\t\t\tmapping(address => bool) publi...\n      PUSH 20\t\t\tmapping(address => bool) publi...\n      MSTORE \t\t\tmapping(address => bool) publi...\n      DUP1 \t\t\tmapping(address => bool) publi...\n      PUSH 0\t\t\tmapping(address => bool) publi...\n      MSTORE \t\t\tmapping(address => bool) publi...\n      PUSH 40\t\t\tmapping(address => bool) publi...\n      PUSH 0\t\t\tmapping(address => bool) publi...\n      KECCAK256 \t\t\tmapping(address => bool) publi...\n      PUSH 0\t\t\tmapping(address => bool) publi...\n      SWAP2 \t\t\tmapping(address => bool) publi...\n      POP \t\t\tmapping(address => bool) publi...\n      SLOAD \t\t\tmapping(address => bool) publi...\n      SWAP1 \t\t\tmapping(address => bool) publi...\n      PUSH 100\t\t\tmapping(address => bool) publi...\n      EXP \t\t\tmapping(address => bool) publi...\n      SWAP1 \t\t\tmapping(address => bool) publi...\n      DIV \t\t\tmapping(address => bool) publi...\n      PUSH FF\t\t\tmapping(address => bool) publi...\n      AND \t\t\tmapping(address => bool) publi...\n      DUP2 \t\t\tmapping(address => bool) publi...\n      JUMP \t\t\tmapping(address => bool) publi...\n    tag 31\t\t\tfunction confirmAlive() public...\n      JUMPDEST \t\t\tfunction confirmAlive() public...\n      PUSH 1\t\t\thasWill\n      PUSH 0\t\t\thasWill[msg.sender]\n      CALLER \t\t\tmsg.sender\n      PUSH FFFFFFFFFFFFFFFFFFFFFFFFFFFFFFFFFFFFFFFF\t\t\thasWill[msg.sender]\n      AND \t\t\thasWill[msg.sender]\n      PUSH FFFFFFFFFFFFFFFFFFFFFFFFFFFFFFFFFFFFFFFF\t\t\thasWill[msg.sender]\n      AND \t\t\thasWill[msg.sender]\n      DUP2 \t\t\thasWill[msg.sender]\n      MSTORE \t\t\thasWill[msg.sender]\n      PUSH 20\t\t\thasWill[msg.sender]\n      ADD \t\t\thasWill[msg.sender]\n      SWAP1 \t\t\thasWill[msg.sender]\n      DUP2 \t\t\thasWill[msg.sender]\n      MSTORE \t\t\thasWill[msg.sender]\n      PUSH 20\t\t\thasWill[msg.sender]\n      ADD \t\t\thasWill[msg.sender]\n      PUSH 0\t\t\thasWill[msg.sender]\n      KECCAK256 \t\t\thasWill[msg.sender]\n      PUSH 0\t\t\thasWill[msg.sender]\n      SWAP1 \t\t\thasWill[msg.sender]\n      SLOAD \t\t\thasWill[msg.sender]\n      SWAP1 \t\t\thasWill[msg.sender]\n      PUSH 100\t\t\thasWill[msg.sender]\n      EXP \t\t\thasWill[msg.sender]\n      SWAP1 \t\t\thasWill[msg.sender]\n      DIV \t\t\thasWill[msg.sender]\n      PUSH FF\t\t\thasWill[msg.sender]\n      AND \t\t\thasWill[msg.sender]\n      PUSH [tag] 85\t\t\trequire(hasWill[msg.sender], \"...\n      JUMPI \t\t\trequire(hasWill[msg.sender], \"...\n      PUSH 40\t\t\trequire(hasWill[msg.sender], \"...\n      MLOAD \t\t\trequire(hasWill[msg.sender], \"...\n      PUSH 8C379A000000000000000000000000000000000000000000000000000000000\t\t\trequire(hasWill[msg.sender], \"...\n      DUP2 \t\t\trequire(hasWill[msg.sender], \"...\n      MSTORE \t\t\trequire(hasWill[msg.sender], \"...\n      PUSH 4\t\t\trequire(hasWill[msg.sender], \"...\n      ADD \t\t\trequire(hasWill[msg.sender], \"...\n      PUSH [tag] 86\t\t\trequire(hasWill[msg.sender], \"...\n      SWAP1 \t\t\trequire(hasWill[msg.sender], \"...\n      PUSH [tag] 87\t\t\trequire(hasWill[msg.sender], \"...\n      JUMP \t\t\trequire(hasWill[msg.sender], \"...\n    tag 86\t\t\trequire(hasWill[msg.sender], \"...\n      JUMPDEST \t\t\trequire(hasWill[msg.sender], \"...\n      PUSH 40\t\t\trequire(hasWill[msg.sender], \"...\n      MLOAD \t\t\trequire(hasWill[msg.sender], \"...\n      DUP1 \t\t\trequire(hasWill[msg.sender], \"...\n      SWAP2 \t\t\trequire(hasWill[msg.sender], \"...\n      SUB \t\t\trequire(hasWill[msg.sender], \"...\n      SWAP1 \t\t\trequire(hasWill[msg.sender], \"...\n      REVERT \t\t\trequire(hasWill[msg.sender], \"...\n    tag 85\t\t\trequire(hasWill[msg.sender], \"...\n      JUMPDEST \t\t\trequire(hasWill[msg.sender], \"...\n      PUSH 0\t\t\twills\n      DUP1 \t\t\twills[msg.sender]\n      CALLER \t\t\tmsg.sender\n      PUSH FFFFFFFFFFFFFFFFFFFFFFFFFFFFFFFFFFFFFFFF\t\t\twills[msg.sender]\n      AND \t\t\twills[msg.sender]\n      PUSH FFFFFFFFFFFFFFFFFFFFFFFFFFFFFFFFFFFFFFFF\t\t\twills[msg.sender]\n      AND \t\t\twills[msg.sender]\n      DUP2 \t\t\twills[msg.sender]\n      MSTORE \t\t\twills[msg.sender]\n      PUSH 20\t\t\twills[msg.sender]\n      ADD \t\t\twills[msg.sender]\n      SWAP1 \t\t\twills[msg.sender]\n      DUP2 \t\t\twills[msg.sender]\n      MSTORE \t\t\twills[msg.sender]\n      PUSH 20\t\t\twills[msg.sender]\n      ADD \t\t\twills[msg.sender]\n      PUSH 0\t\t\twills[msg.sender]\n      KECCAK256 \t\t\twills[msg.sender]\n      PUSH 6\t\t\twills[msg.sender].isDeceased\n      ADD \t\t\twills[msg.sender].isDeceased\n      PUSH 0\t\t\twills[msg.sender].isDeceased\n      SWAP1 \t\t\twills[msg.sender].isDeceased\n      SLOAD \t\t\twills[msg.sender].isDeceased\n      SWAP1 \t\t\twills[msg.sender].isDeceased\n      PUSH 100\t\t\twills[msg.sender].isDeceased\n      EXP \t\t\twills[msg.sender].isDeceased\n      SWAP1 \t\t\twills[msg.sender].isDeceased\n      DIV \t\t\twills[msg.sender].isDeceased\n      PUSH FF\t\t\twills[msg.sender].isDeceased\n      AND \t\t\twills[msg.sender].isDeceased\n      ISZERO \t\t\t!wills[msg.sender].isDeceased\n      PUSH [tag] 88\t\t\trequire(!wills[msg.sender].isD...\n      JUMPI \t\t\trequire(!wills[msg.sender].isD...\n      PUSH 40\t\t\trequire(!wills[msg.sender].isD...\n      MLOAD \t\t\trequire(!wills[msg.sender].isD...\n      PUSH 8C379A000000000000000000000000000000000000000000000000000000000\t\t\trequire(!wills[msg.sender].isD...\n      DUP2 \t\t\trequire(!wills[msg.sender].isD...\n      MSTORE \t\t\trequire(!wills[msg.sender].isD...\n      PUSH 4\t\t\trequire(!wills[msg.sender].isD...\n      ADD \t\t\trequire(!wills[msg.sender].isD...\n      PUSH [tag] 89\t\t\trequire(!wills[msg.sender].isD...\n      SWAP1 \t\t\trequire(!wills[msg.sender].isD...\n      PUSH [tag] 90\t\t\trequire(!wills[msg.sender].isD...\n      JUMP \t\t\trequire(!wills[msg.sender].isD...\n    tag 89\t\t\trequire(!wills[msg.sender].isD...\n      JUMPDEST \t\t\trequire(!wills[msg.sender].isD...\n      PUSH 40\t\t\trequire(!wills[msg.sender].isD...\n      MLOAD \t\t\trequire(!wills[msg.sender].isD...\n      DUP1 \t\t\trequire(!wills[msg.sender].isD...\n      SWAP2 \t\t\trequire(!wills[msg.sender].isD...\n      SUB \t\t\trequire(!wills[msg.sender].isD...\n      SWAP1 \t\t\trequire(!wills[msg.sender].isD...\n      REVERT \t\t\trequire(!wills[msg.sender].isD...\n    tag 88\t\t\trequire(!wills[msg.sender].isD...\n      JUMPDEST \t\t\trequire(!wills[msg.sender].isD...\n      TIMESTAMP \t\t\tblock.timestamp\n      PUSH 0\t\t\twills\n      DUP1 \t\t\twills[msg.sender]\n      CALLER \t\t\tmsg.sender\n      PUSH FFFFFFFFFFFFFFFFFFFFFFFFFFFFFFFFFFFFFFFF\t\t\twills[msg.sender]\n      AND \t\t\twills[msg.sender]\n      PUSH FFFFFFFFFFFFFFFFFFFFFFFFFFFFFFFFFFFFFFFF\t\t\twills[msg.sender]\n      AND \t\t\twills[msg.sender]\n      DUP2 \t\t\twills[msg.sender]\n      MSTORE \t\t\twills[msg.sender]\n      PUSH 20\t\t\twills[msg.sender]\n      ADD \t\t\twills[msg.sender]\n      SWAP1 \t\t\twills[msg.sender]\n      DUP2 \t\t\twills[msg.sender]\n      MSTORE \t\t\twills[msg.sender]\n      PUSH 20\t\t\twills[msg.sender]\n      ADD \t\t\twills[msg.sender]\n      PUSH 0\t\t\twills[msg.sender]\n      KECCAK256 \t\t\twills[msg.sender]\n      PUSH 4\t\t\twills[msg.sender].lastAliveTim...\n      ADD \t\t\twills[msg.sender].lastAliveTim...\n      DUP2 \t\t\twills[msg.sender].lastAliveTim...\n      SWAP1 \t\t\twills[msg.sender].lastAliveTim...\n      SSTORE \t\t\twills[msg.sender].lastAliveTim...\n      POP \t\t\twills[msg.sender].lastAliveTim...\n      JUMP \t\t\tfunction confirmAlive() public...\n    tag 35\t\t\tfunction getLockedFunds(addres...\n      JUMPDEST \t\t\tfunction getLockedFunds(addres...\n      PUSH 0\t\t\tuint256\n      PUSH 1\t\t\thasWill\n      PUSH 0\t\t\thasWill[user]\n      DUP4 \t\t\tuser\n      PUSH FFFFFFFFFFFFFFFFFFFFFFFFFFFFFFFFFFFFFFFF\t\t\thasWill[user]\n      AND \t\t\thasWill[user]\n      PUSH FFFFFFFFFFFFFFFFFFFFFFFFFFFFFFFFFFFFFFFF\t\t\thasWill[user]\n      AND \t\t\thasWill[user]\n      DUP2 \t\t\thasWill[user]\n      MSTORE \t\t\thasWill[user]\n      PUSH 20\t\t\thasWill[user]\n      ADD \t\t\thasWill[user]\n      SWAP1 \t\t\thasWill[user]\n      DUP2 \t\t\thasWill[user]\n      MSTORE \t\t\thasWill[user]\n      PUSH 20\t\t\thasWill[user]\n      ADD \t\t\thasWill[user]\n      PUSH 0\t\t\thasWill[user]\n      KECCAK256 \t\t\thasWill[user]\n      PUSH 0\t\t\thasWill[user]\n      SWAP1 \t\t\thasWill[user]\n      SLOAD \t\t\thasWill[user]\n      SWAP1 \t\t\thasWill[user]\n      PUSH 100\t\t\thasWill[user]\n      EXP \t\t\thasWill[user]\n      SWAP1 \t\t\thasWill[user]\n      DIV \t\t\thasWill[user]\n      PUSH FF\t\t\thasWill[user]\n      AND \t\t\thasWill[user]\n      PUSH [tag] 92\t\t\trequire(hasWill[user], \"No wil...\n      JUMPI \t\t\trequire(hasWill[user], \"No wil...\n      PUSH 40\t\t\trequire(hasWill[user], \"No wil...\n      MLOAD \t\t\trequire(hasWill[user], \"No wil...\n      PUSH 8C379A000000000000000000000000000000000000000000000000000000000\t\t\trequire(hasWill[user], \"No wil...\n      DUP2 \t\t\trequire(hasWill[user], \"No wil...\n      MSTORE \t\t\trequire(hasWill[user], \"No wil...\n      PUSH 4\t\t\trequire(hasWill[user], \"No wil...\n      ADD \t\t\trequire(hasWill[user], \"No wil...\n      PUSH [tag] 93\t\t\trequire(hasWill[user], \"No wil...\n      SWAP1 \t\t\trequire(hasWill[user], \"No wil...\n      PUSH [tag] 53\t\t\trequire(hasWill[user], \"No wil...\n      JUMP \t\t\trequire(hasWill[user], \"No wil...\n    tag 93\t\t\trequire(hasWill[user], \"No wil...\n      JUMPDEST \t\t\trequire(hasWill[user], \"No wil...\n      PUSH 40\t\t\trequire(hasWill[user], \"No wil...\n      MLOAD \t\t\trequire(hasWill[user], \"No wil...\n      DUP1 \t\t\trequire(hasWill[user], \"No wil...\n      SWAP2 \t\t\trequire(hasWill[user], \"No wil...\n      SUB \t\t\trequire(hasWill[user], \"No wil...\n      SWAP1 \t\t\trequire(hasWill[user], \"No wil...\n      REVERT \t\t\trequire(hasWill[user], \"No wil...\n    tag 92\t\t\trequire(hasWill[user], \"No wil...\n      JUMPDEST \t\t\trequire(hasWill[user], \"No wil...\n      PUSH 0\t\t\twills\n      DUP1 \t\t\twills[user]\n      DUP4 \t\t\tuser\n      PUSH FFFFFFFFFFFFFFFFFFFFFFFFFFFFFFFFFFFFFFFF\t\t\twills[user]\n      AND \t\t\twills[user]\n      PUSH FFFFFFFFFFFFFFFFFFFFFFFFFFFFFFFFFFFFFFFF\t\t\twills[user]\n      AND \t\t\twills[user]\n      DUP2 \t\t\twills[user]\n      MSTORE \t\t\twills[user]\n      PUSH 20\t\t\twills[user]\n      ADD \t\t\twills[user]\n      SWAP1 \t\t\twills[user]\n      DUP2 \t\t\twills[user]\n      MSTORE \t\t\twills[user]\n      PUSH 20\t\t\twills[user]\n      ADD \t\t\twills[user]\n      PUSH 0\t\t\twills[user]\n      KECCAK256 \t\t\twills[user]\n      PUSH 3\t\t\twills[user].totalLocked\n      ADD \t\t\twills[user].totalLocked\n      SLOAD \t\t\twills[user].totalLocked\n      SWAP1 \t\t\treturn wills[user].totalLocked\n      POP \t\t\treturn wills[user].totalLocked\n      SWAP2 \t\t\tfunction getLockedFunds(addres...\n      SWAP1 \t\t\tfunction getLockedFunds(addres...\n      POP \t\t\tfunction getLockedFunds(addres...\n      JUMP \t\t\tfunction getLockedFunds(addres...\n    tag 40\t\t\tfunction createWill(\\n        ...\n      JUMPDEST \t\t\tfunction createWill(\\n        ...\n      PUSH 1\t\t\thasWill\n      PUSH 0\t\t\thasWill[msg.sender]\n      CALLER \t\t\tmsg.sender\n      PUSH FFFFFFFFFFFFFFFFFFFFFFFFFFFFFFFFFFFFFFFF\t\t\thasWill[msg.sender]\n      AND \t\t\thasWill[msg.sender]\n      PUSH FFFFFFFFFFFFFFFFFFFFFFFFFFFFFFFFFFFFFFFF\t\t\thasWill[msg.sender]\n      AND \t\t\thasWill[msg.sender]\n      DUP2 \t\t\thasWill[msg.sender]\n      MSTORE \t\t\thasWill[msg.sender]\n      PUSH 20\t\t\thasWill[msg.sender]\n      ADD \t\t\thasWill[msg.sender]\n      SWAP1 \t\t\thasWill[msg.sender]\n      DUP2 \t\t\thasWill[msg.sender]\n      MSTORE \t\t\thasWill[msg.sender]\n      PUSH 20\t\t\thasWill[msg.sender]\n      ADD \t\t\thasWill[msg.sender]\n      PUSH 0\t\t\thasWill[msg.sender]\n      KECCAK256 \t\t\thasWill[msg.sender]\n      PUSH 0\t\t\thasWill[msg.sender]\n      SWAP1 \t\t\thasWill[msg.sender]\n      SLOAD \t\t\thasWill[msg.sender]\n      SWAP1 \t\t\thasWill[msg.sender]\n      PUSH 100\t\t\thasWill[msg.sender]\n      EXP \t\t\thasWill[msg.sender]\n      SWAP1 \t\t\thasWill[msg.sender]\n      DIV \t\t\thasWill[msg.sender]\n      PUSH FF\t\t\thasWill[msg.sender]\n      AND \t\t\thasWill[msg.sender]\n      ISZERO \t\t\t!hasWill[msg.sender]\n      PUSH [tag] 95\t\t\trequire(!hasWill[msg.sender], ...\n      JUMPI \t\t\trequire(!hasWill[msg.sender], ...\n      PUSH 40\t\t\trequire(!hasWill[msg.sender], ...\n      MLOAD \t\t\trequire(!hasWill[msg.sender], ...\n      PUSH 8C379A000000000000000000000000000000000000000000000000000000000\t\t\trequire(!hasWill[msg.sender], ...\n      DUP2 \t\t\trequire(!hasWill[msg.sender], ...\n      MSTORE \t\t\trequire(!hasWill[msg.sender], ...\n      PUSH 4\t\t\trequire(!hasWill[msg.sender], ...\n      ADD \t\t\trequire(!hasWill[msg.sender], ...\n      PUSH [tag] 96\t\t\trequire(!hasWill[msg.sender], ...\n      SWAP1 \t\t\trequire(!hasWill[msg.sender], ...\n      PUSH [tag] 97\t\t\trequire(!hasWill[msg.sender], ...\n      JUMP \t\t\trequire(!hasWill[msg.sender], ...\n    tag 96\t\t\trequire(!hasWill[msg.sender], ...\n      JUMPDEST \t\t\trequire(!hasWill[msg.sender], ...\n      PUSH 40\t\t\trequire(!hasWill[msg.sender], ...\n      MLOAD \t\t\trequire(!hasWill[msg.sender], ...\n      DUP1 \t\t\trequire(!hasWill[msg.sender], ...\n      SWAP2 \t\t\trequire(!hasWill[msg.sender], ...\n      SUB \t\t\trequire(!hasWill[msg.sender], ...\n      SWAP1 \t\t\trequire(!hasWill[msg.sender], ...\n      REVERT \t\t\trequire(!hasWill[msg.sender], ...\n    tag 95\t\t\trequire(!hasWill[msg.sender], ...\n      JUMPDEST \t\t\trequire(!hasWill[msg.sender], ...\n      PUSH 0\t\t\t0\n      CALLVALUE \t\t\tmsg.value\n      GT \t\t\tmsg.value > 0\n      PUSH [tag] 98\t\t\trequire(msg.value > 0, \"Must l...\n      JUMPI \t\t\trequire(msg.value > 0, \"Must l...\n      PUSH 40\t\t\trequire(msg.value > 0, \"Must l...\n      MLOAD \t\t\trequire(msg.value > 0, \"Must l...\n      PUSH 8C379A000000000000000000000000000000000000000000000000000000000\t\t\trequire(msg.value > 0, \"Must l...\n      DUP2 \t\t\trequire(msg.value > 0, \"Must l...\n      MSTORE \t\t\trequire(msg.value > 0, \"Must l...\n      PUSH 4\t\t\trequire(msg.value > 0, \"Must l...\n      ADD \t\t\trequire(msg.value > 0, \"Must l...\n      PUSH [tag] 99\t\t\trequire(msg.value > 0, \"Must l...\n      SWAP1 \t\t\trequire(msg.value > 0, \"Must l...\n      PUSH [tag] 100\t\t\trequire(msg.value > 0, \"Must l...\n      JUMP \t\t\trequire(msg.value > 0, \"Must l...\n    tag 99\t\t\trequire(msg.value > 0, \"Must l...\n      JUMPDEST \t\t\trequire(msg.value > 0, \"Must l...\n      PUSH 40\t\t\trequire(msg.value > 0, \"Must l...\n      MLOAD \t\t\trequire(msg.value > 0, \"Must l...\n      DUP1 \t\t\trequire(msg.value > 0, \"Must l...\n      SWAP2 \t\t\trequire(msg.value > 0, \"Must l...\n      SUB \t\t\trequire(msg.value > 0, \"Must l...\n      SWAP1 \t\t\trequire(msg.value > 0, \"Must l...\n      REVERT \t\t\trequire(msg.value > 0, \"Must l...\n    tag 98\t\t\trequire(msg.value > 0, \"Must l...\n      JUMPDEST \t\t\trequire(msg.value > 0, \"Must l...\n      CALLER \t\t\tmsg.sender\n      PUSH 0\t\t\twills\n      DUP1 \t\t\twills[msg.sender]\n      CALLER \t\t\tmsg.sender\n      PUSH FFFFFFFFFFFFFFFFFFFFFFFFFFFFFFFFFFFFFFFF\t\t\twills[msg.sender]\n      AND \t\t\twills[msg.sender]\n      PUSH FFFFFFFFFFFFFFFFFFFFFFFFFFFFFFFFFFFFFFFF\t\t\twills[msg.sender]\n      AND \t\t\twills[msg.sender]\n      DUP2 \t\t\twills[msg.sender]\n      MSTORE \t\t\twills[msg.sender]\n      PUSH 20\t\t\twills[msg.sender]\n      ADD \t\t\twills[msg.sender]\n      SWAP1 \t\t\twills[msg.sender]\n      DUP2 \t\t\twills[msg.sender]\n      MSTORE \t\t\twills[msg.sender]\n      PUSH 20\t\t\twills[msg.sender]\n      ADD \t\t\twills[msg.sender]\n      PUSH 0\t\t\twills[msg.sender]\n      KECCAK256 \t\t\twills[msg.sender]\n      PUSH 0\t\t\twills[msg.sender].testator\n      ADD \t\t\twills[msg.sender].testator\n      PUSH 0\t\t\twills[msg.sender].testator\n      PUSH 100\t\t\twills[msg.sender].testator = m...\n      EXP \t\t\twills[msg.sender].testator = m...\n      DUP2 \t\t\twills[msg.sender].testator = m...\n      SLOAD \t\t\twills[msg.sender].testator = m...\n      DUP2 \t\t\twills[msg.sender].testator = m...\n      PUSH FFFFFFFFFFFFFFFFFFFFFFFFFFFFFFFFFFFFFFFF\t\t\twills[msg.sender].testator = m...\n      MUL \t\t\twills[msg.sender].testator = m...\n      NOT \t\t\twills[msg.sender].testator = m...\n      AND \t\t\twills[msg.sender].testator = m...\n      SWAP1 \t\t\twills[msg.sender].testator = m...\n      DUP4 \t\t\twills[msg.sender].testator = m...\n      PUSH FFFFFFFFFFFFFFFFFFFFFFFFFFFFFFFFFFFFFFFF\t\t\twills[msg.sender].testator = m...\n      AND \t\t\twills[msg.sender].testator = m...\n      MUL \t\t\twills[msg.sender].testator = m...\n      OR \t\t\twills[msg.sender].testator = m...\n      SWAP1 \t\t\twills[msg.sender].testator = m...\n      SSTORE \t\t\twills[msg.sender].testator = m...\n      POP \t\t\twills[msg.sender].testator = m...\n      DUP2 \t\t\t_firstName\n      PUSH 0\t\t\twills\n      DUP1 \t\t\twills[msg.sender]\n      CALLER \t\t\tmsg.sender\n      PUSH FFFFFFFFFFFFFFFFFFFFFFFFFFFFFFFFFFFFFFFF\t\t\twills[msg.sender]\n      AND \t\t\twills[msg.sender]\n      PUSH FFFFFFFFFFFFFFFFFFFFFFFFFFFFFFFFFFFFFFFF\t\t\twills[msg.sender]\n      AND \t\t\twills[msg.sender]\n      DUP2 \t\t\twills[msg.sender]\n      MSTORE \t\t\twills[msg.sender]\n      PUSH 20\t\t\twills[msg.sender]\n      ADD \t\t\twills[msg.sender]\n      SWAP1 \t\t\twills[msg.sender]\n      DUP2 \t\t\twills[msg.sender]\n      MSTORE \t\t\twills[msg.sender]\n      PUSH 20\t\t\twills[msg.sender]\n      ADD \t\t\twills[msg.sender]\n      PUSH 0\t\t\twills[msg.sender]\n      KECCAK256 \t\t\twills[msg.sender]\n      PUSH 1\t\t\twills[msg.sender].firstName\n      ADD \t\t\twills[msg.sender].firstName\n      SWAP1 \t\t\twills[msg.sender].firstName = ...\n      DUP2 \t\t\twills[msg.sender].firstName = ...\n      PUSH [tag] 101\t\t\twills[msg.sender].firstName = ...\n      SWAP2 \t\t\twills[msg.sender].firstName = ...\n      SWAP1 \t\t\twills[msg.sender].firstName = ...\n      PUSH [tag] 80\t\t\twills[msg.sender].firstName = ...\n      JUMP \t\t\twills[msg.sender].firstName = ...\n    tag 101\t\t\twills[msg.sender].firstName = ...\n      JUMPDEST \t\t\twills[msg.sender].firstName = ...\n      POP \t\t\twills[msg.sender].firstName = ...\n      DUP1 \t\t\t_lastName\n      PUSH 0\t\t\twills\n      DUP1 \t\t\twills[msg.sender]\n      CALLER \t\t\tmsg.sender\n      PUSH FFFFFFFFFFFFFFFFFFFFFFFFFFFFFFFFFFFFFFFF\t\t\twills[msg.sender]\n      AND \t\t\twills[msg.sender]\n      PUSH FFFFFFFFFFFFFFFFFFFFFFFFFFFFFFFFFFFFFFFF\t\t\twills[msg.sender]\n      AND \t\t\twills[msg.sender]\n      DUP2 \t\t\twills[msg.sender]\n      MSTORE \t\t\twills[msg.sender]\n      PUSH 20\t\t\twills[msg.sender]\n      ADD \t\t\twills[msg.sender]\n      SWAP1 \t\t\twills[msg.sender]\n      DUP2 \t\t\twills[msg.sender]\n      MSTORE \t\t\twills[msg.sender]\n      PUSH 20\t\t\twills[msg.sender]\n      ADD \t\t\twills[msg.sender]\n      PUSH 0\t\t\twills[msg.sender]\n      KECCAK256 \t\t\twills[msg.sender]\n      PUSH 2\t\t\twills[msg.sender].lastName\n      ADD \t\t\twills[msg.sender].lastName\n      SWAP1 \t\t\twills[msg.sender].lastName = _...\n      DUP2 \t\t\twills[msg.sender].lastName = _...\n      PUSH [tag] 102\t\t\twills[msg.sender].lastName = _...\n      SWAP2 \t\t\twills[msg.sender].lastName = _...\n      SWAP1 \t\t\twills[msg.sender].lastName = _...\n      PUSH [tag] 80\t\t\twills[msg.sender].lastName = _...\n      JUMP \t\t\twills[msg.sender].lastName = _...\n    tag 102\t\t\twills[msg.sender].lastName = _...\n      JUMPDEST \t\t\twills[msg.sender].lastName = _...\n      POP \t\t\twills[msg.sender].lastName = _...\n      CALLVALUE \t\t\tmsg.value\n      PUSH 0\t\t\twills\n      DUP1 \t\t\twills[msg.sender]\n      CALLER \t\t\tmsg.sender\n      PUSH FFFFFFFFFFFFFFFFFFFFFFFFFFFFFFFFFFFFFFFF\t\t\twills[msg.sender]\n      AND \t\t\twills[msg.sender]\n      PUSH FFFFFFFFFFFFFFFFFFFFFFFFFFFFFFFFFFFFFFFF\t\t\twills[msg.sender]\n      AND \t\t\twills[msg.sender]\n      DUP2 \t\t\twills[msg.sender]\n      MSTORE \t\t\twills[msg.sender]\n      PUSH 20\t\t\twills[msg.sender]\n      ADD \t\t\twills[msg.sender]\n      SWAP1 \t\t\twills[msg.sender]\n      DUP2 \t\t\twills[msg.sender]\n      MSTORE \t\t\twills[msg.sender]\n      PUSH 20\t\t\twills[msg.sender]\n      ADD \t\t\twills[msg.sender]\n      PUSH 0\t\t\twills[msg.sender]\n      KECCAK256 \t\t\twills[msg.sender]\n      PUSH 3\t\t\twills[msg.sender].totalLocked\n      ADD \t\t\twills[msg.sender].totalLocked\n      DUP2 \t\t\twills[msg.sender].totalLocked ...\n      SWAP1 \t\t\twills[msg.sender].totalLocked ...\n      SSTORE \t\t\twills[msg.sender].totalLocked ...\n      POP \t\t\twills[msg.sender].totalLocked ...\n      TIMESTAMP \t\t\tblock.timestamp\n      PUSH 0\t\t\twills\n      DUP1 \t\t\twills[msg.sender]\n      CALLER \t\t\tmsg.sender\n      PUSH FFFFFFFFFFFFFFFFFFFFFFFFFFFFFFFFFFFFFFFF\t\t\twills[msg.sender]\n      AND \t\t\twills[msg.sender]\n      PUSH FFFFFFFFFFFFFFFFFFFFFFFFFFFFFFFFFFFFFFFF\t\t\twills[msg.sender]\n      AND \t\t\twills[msg.sender]\n      DUP2 \t\t\twills[msg.sender]\n      MSTORE \t\t\twills[msg.sender]\n      PUSH 20\t\t\twills[msg.sender]\n      ADD \t\t\twills[msg.sender]\n      SWAP1 \t\t\twills[msg.sender]\n      DUP2 \t\t\twills[msg.sender]\n      MSTORE \t\t\twills[msg.sender]\n      PUSH 20\t\t\twills[msg.sender]\n      ADD \t\t\twills[msg.sender]\n      PUSH 0\t\t\twills[msg.sender]\n      KECCAK256 \t\t\twills[msg.sender]\n      PUSH 4\t\t\twills[msg.sender].lastAliveTim...\n      ADD \t\t\twills[msg.sender].lastAliveTim...\n      DUP2 \t\t\twills[msg.sender].lastAliveTim...\n      SWAP1 \t\t\twills[msg.sender].lastAliveTim...\n      SSTORE \t\t\twills[msg.sender].lastAliveTim...\n      POP \t\t\twills[msg.sender].lastAliveTim...\n      PUSH 1E13380\t\t\t365 days\n      PUSH 0\t\t\twills\n      DUP1 \t\t\twills[msg.sender]\n      CALLER \t\t\tmsg.sender\n      PUSH FFFFFFFFFFFFFFFFFFFFFFFFFFFFFFFFFFFFFFFF\t\t\twills[msg.sender]\n      AND \t\t\twills[msg.sender]\n      PUSH FFFFFFFFFFFFFFFFFFFFFFFFFFFFFFFFFFFFFFFF\t\t\twills[msg.sender]\n      AND \t\t\twills[msg.sender]\n      DUP2 \t\t\twills[msg.sender]\n      MSTORE \t\t\twills[msg.sender]\n      PUSH 20\t\t\twills[msg.sender]\n      ADD \t\t\twills[msg.sender]\n      SWAP1 \t\t\twills[msg.sender]\n      DUP2 \t\t\twills[msg.sender]\n      MSTORE \t\t\twills[msg.sender]\n      PUSH 20\t\t\twills[msg.sender]\n      ADD \t\t\twills[msg.sender]\n      PUSH 0\t\t\twills[msg.sender]\n      KECCAK256 \t\t\twills[msg.sender]\n      PUSH 5\t\t\twills[msg.sender].proofOfLifeI...\n      ADD \t\t\twills[msg.sender].proofOfLifeI...\n      DUP2 \t\t\twills[msg.sender].proofOfLifeI...\n      SWAP1 \t\t\twills[msg.sender].proofOfLifeI...\n      SSTORE \t\t\twills[msg.sender].proofOfLifeI...\n      POP \t\t\twills[msg.sender].proofOfLifeI...\n      PUSH 0\t\t\tfalse\n      DUP1 \t\t\twills\n      PUSH 0\t\t\twills[msg.sender]\n      CALLER \t\t\tmsg.sender\n      PUSH FFFFFFFFFFFFFFFFFFFFFFFFFFFFFFFFFFFFFFFF\t\t\twills[msg.sender]\n      AND \t\t\twills[msg.sender]\n      PUSH FFFFFFFFFFFFFFFFFFFFFFFFFFFFFFFFFFFFFFFF\t\t\twills[msg.sender]\n      AND \t\t\twills[msg.sender]\n      DUP2 \t\t\twills[msg.sender]\n      MSTORE \t\t\twills[msg.sender]\n      PUSH 20\t\t\twills[msg.sender]\n      ADD \t\t\twills[msg.sender]\n      SWAP1 \t\t\twills[msg.sender]\n      DUP2 \t\t\twills[msg.sender]\n      MSTORE \t\t\twills[msg.sender]\n      PUSH 20\t\t\twills[msg.sender]\n      ADD \t\t\twills[msg.sender]\n      PUSH 0\t\t\twills[msg.sender]\n      KECCAK256 \t\t\twills[msg.sender]\n      PUSH 6\t\t\twills[msg.sender].isDeceased\n      ADD \t\t\twills[msg.sender].isDeceased\n      PUSH 0\t\t\twills[msg.sender].isDeceased\n      PUSH 100\t\t\twills[msg.sender].isDeceased =...\n      EXP \t\t\twills[msg.sender].isDeceased =...\n      DUP2 \t\t\twills[msg.sender].isDeceased =...\n      SLOAD \t\t\twills[msg.sender].isDeceased =...\n      DUP2 \t\t\twills[msg.sender].isDeceased =...\n      PUSH FF\t\t\twills[msg.sender].isDeceased =...\n      MUL \t\t\twills[msg.sender].isDeceased =...\n      NOT \t\t\twills[msg.sender].isDeceased =...\n      AND \t\t\twills[msg.sender].isDeceased =...\n      SWAP1 \t\t\twills[msg.sender].isDeceased =...\n      DUP4 \t\t\twills[msg.sender].isDeceased =...\n      ISZERO \t\t\twills[msg.sender].isDeceased =...\n      ISZERO \t\t\twills[msg.sender].isDeceased =...\n      MUL \t\t\twills[msg.sender].isDeceased =...\n      OR \t\t\twills[msg.sender].isDeceased =...\n      SWAP1 \t\t\twills[msg.sender].isDeceased =...\n      SSTORE \t\t\twills[msg.sender].isDeceased =...\n      POP \t\t\twills[msg.sender].isDeceased =...\n      PUSH 1\t\t\ttrue\n      DUP1 \t\t\thasWill\n      PUSH 0\t\t\thasWill[msg.sender]\n      CALLER \t\t\tmsg.sender\n      PUSH FFFFFFFFFFFFFFFFFFFFFFFFFFFFFFFFFFFFFFFF\t\t\thasWill[msg.sender]\n      AND \t\t\thasWill[msg.sender]\n      PUSH FFFFFFFFFFFFFFFFFFFFFFFFFFFFFFFFFFFFFFFF\t\t\thasWill[msg.sender]\n      AND \t\t\thasWill[msg.sender]\n      DUP2 \t\t\thasWill[msg.sender]\n      MSTORE \t\t\thasWill[msg.sender]\n      PUSH 20\t\t\thasWill[msg.sender]\n      ADD \t\t\thasWill[msg.sender]\n      SWAP1 \t\t\thasWill[msg.sender]\n      DUP2 \t\t\thasWill[msg.sender]\n      MSTORE \t\t\thasWill[msg.sender]\n      PUSH 20\t\t\thasWill[msg.sender]\n      ADD \t\t\thasWill[msg.sender]\n      PUSH 0\t\t\thasWill[msg.sender]\n      KECCAK256 \t\t\thasWill[msg.sender]\n      PUSH 0\t\t\thasWill[msg.sender]\n      PUSH 100\t\t\thasWill[msg.sender] = true\n      EXP \t\t\thasWill[msg.sender] = true\n      DUP2 \t\t\thasWill[msg.sender] = true\n      SLOAD \t\t\thasWill[msg.sender] = true\n      DUP2 \t\t\thasWill[msg.sender] = true\n      PUSH FF\t\t\thasWill[msg.sender] = true\n      MUL \t\t\thasWill[msg.sender] = true\n      NOT \t\t\thasWill[msg.sender] = true\n      AND \t\t\thasWill[msg.sender] = true\n      SWAP1 \t\t\thasWill[msg.sender] = true\n      DUP4 \t\t\thasWill[msg.sender] = true\n      ISZERO \t\t\thasWill[msg.sender] = true\n      ISZERO \t\t\thasWill[msg.sender] = true\n      MUL \t\t\thasWill[msg.sender] = true\n      OR \t\t\thasWill[msg.sender] = true\n      SWAP1 \t\t\thasWill[msg.sender] = true\n      SSTORE \t\t\thasWill[msg.sender] = true\n      POP \t\t\thasWill[msg.sender] = true\n      CALLER \t\t\tmsg.sender\n      PUSH FFFFFFFFFFFFFFFFFFFFFFFFFFFFFFFFFFFFFFFF\t\t\tWillCreated(msg.sender, msg.va...\n      AND \t\t\tWillCreated(msg.sender, msg.va...\n      PUSH D40DC4A639C90600691397F655099ADBA04D6B763EF2122630EDD47C09F1B6F9\t\t\tWillCreated(msg.sender, msg.va...\n      CALLVALUE \t\t\tmsg.value\n      PUSH 40\t\t\tWillCreated(msg.sender, msg.va...\n      MLOAD \t\t\tWillCreated(msg.sender, msg.va...\n      PUSH [tag] 103\t\t\tWillCreated(msg.sender, msg.va...\n      SWAP2 \t\t\tWillCreated(msg.sender, msg.va...\n      SWAP1 \t\t\tWillCreated(msg.sender, msg.va...\n      PUSH [tag] 17\t\t\tWillCreated(msg.sender, msg.va...\n      JUMP \t\t\tWillCreated(msg.sender, msg.va...\n    tag 103\t\t\tWillCreated(msg.sender, msg.va...\n      JUMPDEST \t\t\tWillCreated(msg.sender, msg.va...\n      PUSH 40\t\t\tWillCreated(msg.sender, msg.va...\n      MLOAD \t\t\tWillCreated(msg.sender, msg.va...\n      DUP1 \t\t\tWillCreated(msg.sender, msg.va...\n      SWAP2 \t\t\tWillCreated(msg.sender, msg.va...\n      SUB \t\t\tWillCreated(msg.sender, msg.va...\n      SWAP1 \t\t\tWillCreated(msg.sender, msg.va...\n      LOG2 \t\t\tWillCreated(msg.sender, msg.va...\n      POP \t\t\tfunction createWill(\\n        ...\n      POP \t\t\tfunction createWill(\\n        ...\n      JUMP \t\t\tfunction createWill(\\n        ...\n    tag 44\t\t\tfunction isWillExecuted(addres...\n      JUMPDEST \t\t\tfunction isWillExecuted(addres...\n      PUSH 0\t\t\tbool\n      PUSH 1\t\t\thasWill\n      PUSH 0\t\t\thasWill[user]\n      DUP4 \t\t\tuser\n      PUSH FFFFFFFFFFFFFFFFFFFFFFFFFFFFFFFFFFFFFFFF\t\t\thasWill[user]\n      AND \t\t\thasWill[user]\n      PUSH FFFFFFFFFFFFFFFFFFFFFFFFFFFFFFFFFFFFFFFF\t\t\thasWill[user]\n      AND \t\t\thasWill[user]\n      DUP2 \t\t\thasWill[user]\n      MSTORE \t\t\thasWill[user]\n      PUSH 20\t\t\thasWill[user]\n      ADD \t\t\thasWill[user]\n      SWAP1 \t\t\thasWill[user]\n      DUP2 \t\t\thasWill[user]\n      MSTORE \t\t\thasWill[user]\n      PUSH 20\t\t\thasWill[user]\n      ADD \t\t\thasWill[user]\n      PUSH 0\t\t\thasWill[user]\n      KECCAK256 \t\t\thasWill[user]\n      PUSH 0\t\t\thasWill[user]\n      SWAP1 \t\t\thasWill[user]\n      SLOAD \t\t\thasWill[user]\n      SWAP1 \t\t\thasWill[user]\n      PUSH 100\t\t\thasWill[user]\n      EXP \t\t\thasWill[user]\n      SWAP1 \t\t\thasWill[user]\n      DIV \t\t\thasWill[user]\n      PUSH FF\t\t\thasWill[user]\n      AND \t\t\thasWill[user]\n      PUSH [tag] 105\t\t\trequire(hasWill[user], \"No wil...\n      JUMPI \t\t\trequire(hasWill[user], \"No wil...\n      PUSH 40\t\t\trequire(hasWill[user], \"No wil...\n      MLOAD \t\t\trequire(hasWill[user], \"No wil...\n      PUSH 8C379A000000000000000000000000000000000000000000000000000000000\t\t\trequire(hasWill[user], \"No wil...\n      DUP2 \t\t\trequire(hasWill[user], \"No wil...\n      MSTORE \t\t\trequire(hasWill[user], \"No wil...\n      PUSH 4\t\t\trequire(hasWill[user], \"No wil...\n      ADD \t\t\trequire(hasWill[user], \"No wil...\n      PUSH [tag] 106\t\t\trequire(hasWill[user], \"No wil...\n      SWAP1 \t\t\trequire(hasWill[user], \"No wil...\n      PUSH [tag] 53\t\t\trequire(hasWill[user], \"No wil...\n      JUMP \t\t\trequire(hasWill[user], \"No wil...\n    tag 106\t\t\trequire(hasWill[user], \"No wil...\n      JUMPDEST \t\t\trequire(hasWill[user], \"No wil...\n      PUSH 40\t\t\trequire(hasWill[user], \"No wil...\n      MLOAD \t\t\trequire(hasWill[user], \"No wil...\n      DUP1 \t\t\trequire(hasWill[user], \"No wil...\n      SWAP2 \t\t\trequire(hasWill[user], \"No wil...\n      SUB \t\t\trequire(hasWill[user], \"No wil...\n      SWAP1 \t\t\trequire(hasWill[user], \"No wil...\n      REVERT \t\t\trequire(hasWill[user], \"No wil...\n    tag 105\t\t\trequire(hasWill[user], \"No wil...\n      JUMPDEST \t\t\trequire(hasWill[user], \"No wil...\n      PUSH 0\t\t\twills\n      DUP1 \t\t\twills[user]\n      DUP4 \t\t\tuser\n      PUSH FFFFFFFFFFFFFFFFFFFFFFFFFFFFFFFFFFFFFFFF\t\t\twills[user]\n      AND \t\t\twills[user]\n      PUSH FFFFFFFFFFFFFFFFFFFFFFFFFFFFFFFFFFFFFFFF\t\t\twills[user]\n      AND \t\t\twills[user]\n      DUP2 \t\t\twills[user]\n      MSTORE \t\t\twills[user]\n      PUSH 20\t\t\twills[user]\n      ADD \t\t\twills[user]\n      SWAP1 \t\t\twills[user]\n      DUP2 \t\t\twills[user]\n      MSTORE \t\t\twills[user]\n      PUSH 20\t\t\twills[user]\n      ADD \t\t\twills[user]\n      PUSH 0\t\t\twills[user]\n      KECCAK256 \t\t\twills[user]\n      PUSH 6\t\t\twills[user].isDeceased\n      ADD \t\t\twills[user].isDeceased\n      PUSH 0\t\t\twills[user].isDeceased\n      SWAP1 \t\t\twills[user].isDeceased\n      SLOAD \t\t\twills[user].isDeceased\n      SWAP1 \t\t\twills[user].isDeceased\n      PUSH 100\t\t\twills[user].isDeceased\n      EXP \t\t\twills[user].isDeceased\n      SWAP1 \t\t\twills[user].isDeceased\n      DIV \t\t\twills[user].isDeceased\n      PUSH FF\t\t\twills[user].isDeceased\n      AND \t\t\twills[user].isDeceased\n      SWAP1 \t\t\treturn wills[user].isDeceased\n      POP \t\t\treturn wills[user].isDeceased\n      SWAP2 \t\t\tfunction isWillExecuted(addres...\n      SWAP1 \t\t\tfunction isWillExecuted(addres...\n      POP \t\t\tfunction isWillExecuted(addres...\n      JUMP \t\t\tfunction isWillExecuted(addres...\n    tag 49\t\t\tfunction executeWill(address u...\n      JUMPDEST \t\t\tfunction executeWill(address u...\n      PUSH 1\t\t\thasWill\n      PUSH 0\t\t\thasWill[user]\n      DUP3 \t\t\tuser\n      PUSH FFFFFFFFFFFFFFFFFFFFFFFFFFFFFFFFFFFFFFFF\t\t\thasWill[user]\n      AND \t\t\thasWill[user]\n      PUSH FFFFFFFFFFFFFFFFFFFFFFFFFFFFFFFFFFFFFFFF\t\t\thasWill[user]\n      AND \t\t\thasWill[user]\n      DUP2 \t\t\thasWill[user]\n      MSTORE \t\t\thasWill[user]\n      PUSH 20\t\t\thasWill[user]\n      ADD \t\t\thasWill[user]\n      SWAP1 \t\t\thasWill[user]\n      DUP2 \t\t\thasWill[user]\n      MSTORE \t\t\thasWill[user]\n      PUSH 20\t\t\thasWill[user]\n      ADD \t\t\thasWill[user]\n      PUSH 0\t\t\thasWill[user]\n      KECCAK256 \t\t\thasWill[user]\n      PUSH 0\t\t\thasWill[user]\n      SWAP1 \t\t\thasWill[user]\n      SLOAD \t\t\thasWill[user]\n      SWAP1 \t\t\thasWill[user]\n      PUSH 100\t\t\thasWill[user]\n      EXP \t\t\thasWill[user]\n      SWAP1 \t\t\thasWill[user]\n      DIV \t\t\thasWill[user]\n      PUSH FF\t\t\thasWill[user]\n      AND \t\t\thasWill[user]\n      PUSH [tag] 108\t\t\trequire(hasWill[user], \"No wil...\n      JUMPI \t\t\trequire(hasWill[user], \"No wil...\n      PUSH 40\t\t\trequire(hasWill[user], \"No wil...\n      MLOAD \t\t\trequire(hasWill[user], \"No wil...\n      PUSH 8C379A000000000000000000000000000000000000000000000000000000000\t\t\trequire(hasWill[user], \"No wil...\n      DUP2 \t\t\trequire(hasWill[user], \"No wil...\n      MSTORE \t\t\trequire(hasWill[user], \"No wil...\n      PUSH 4\t\t\trequire(hasWill[user], \"No wil...\n      ADD \t\t\trequire(hasWill[user], \"No wil...\n      PUSH [tag] 109\t\t\trequire(hasWill[user], \"No wil...\n      SWAP1 \t\t\trequire(hasWill[user], \"No wil...\n      PUSH [tag] 53\t\t\trequire(hasWill[user], \"No wil...\n      JUMP \t\t\trequire(hasWill[user], \"No wil...\n    tag 109\t\t\trequire(hasWill[user], \"No wil...\n      JUMPDEST \t\t\trequire(hasWill[user], \"No wil...\n      PUSH 40\t\t\trequire(hasWill[user], \"No wil...\n      MLOAD \t\t\trequire(hasWill[user], \"No wil...\n      DUP1 \t\t\trequire(hasWill[user], \"No wil...\n      SWAP2 \t\t\trequire(hasWill[user], \"No wil...\n      SUB \t\t\trequire(hasWill[user], \"No wil...\n      SWAP1 \t\t\trequire(hasWill[user], \"No wil...\n      REVERT \t\t\trequire(hasWill[user], \"No wil...\n    tag 108\t\t\trequire(hasWill[user], \"No wil...\n      JUMPDEST \t\t\trequire(hasWill[user], \"No wil...\n      PUSH 0\t\t\twills\n      DUP1 \t\t\twills[user]\n      DUP3 \t\t\tuser\n      PUSH FFFFFFFFFFFFFFFFFFFFFFFFFFFFFFFFFFFFFFFF\t\t\twills[user]\n      AND \t\t\twills[user]\n      PUSH FFFFFFFFFFFFFFFFFFFFFFFFFFFFFFFFFFFFFFFF\t\t\twills[user]\n      AND \t\t\twills[user]\n      DUP2 \t\t\twills[user]\n      MSTORE \t\t\twills[user]\n      PUSH 20\t\t\twills[user]\n      ADD \t\t\twills[user]\n      SWAP1 \t\t\twills[user]\n      DUP2 \t\t\twills[user]\n      MSTORE \t\t\twills[user]\n      PUSH 20\t\t\twills[user]\n      ADD \t\t\twills[user]\n      PUSH 0\t\t\twills[user]\n      KECCAK256 \t\t\twills[user]\n      PUSH 5\t\t\twills[user].proofOfLifeInterva...\n      ADD \t\t\twills[user].proofOfLifeInterva...\n      SLOAD \t\t\twills[user].proofOfLifeInterva...\n      PUSH 0\t\t\twills\n      DUP1 \t\t\twills[user]\n      DUP4 \t\t\tuser\n      PUSH FFFFFFFFFFFFFFFFFFFFFFFFFFFFFFFFFFFFFFFF\t\t\twills[user]\n      AND \t\t\twills[user]\n      PUSH FFFFFFFFFFFFFFFFFFFFFFFFFFFFFFFFFFFFFFFF\t\t\twills[user]\n      AND \t\t\twills[user]\n      DUP2 \t\t\twills[user]\n      MSTORE \t\t\twills[user]\n      PUSH 20\t\t\twills[user]\n      ADD \t\t\twills[user]\n      SWAP1 \t\t\twills[user]\n      DUP2 \t\t\twills[user]\n      MSTORE \t\t\twills[user]\n      PUSH 20\t\t\twills[user]\n      ADD \t\t\twills[user]\n      PUSH 0\t\t\twills[user]\n      KECCAK256 \t\t\twills[user]\n      PUSH 4\t\t\twills[user].lastAliveTime\n      ADD \t\t\twills[user].lastAliveTime\n      SLOAD \t\t\twills[user].lastAliveTime\n      PUSH [tag] 110\t\t\twills[user].lastAliveTime + wi...\n      SWAP2 \t\t\twills[user].lastAliveTime + wi...\n      SWAP1 \t\t\twills[user].lastAliveTime + wi...\n      PUSH [tag] 73\t\t\twills[user].lastAliveTime + wi...\n      JUMP \t\t\twills[user].lastAliveTime + wi...\n    tag 110\t\t\twills[user].lastAliveTime + wi...\n      JUMPDEST \t\t\twills[user].lastAliveTime + wi...\n      TIMESTAMP \t\t\tblock.timestamp\n      GT \t\t\tblock.timestamp > wills[user]....\n      PUSH [tag] 111\t\t\trequire(block.timestamp > will...\n      JUMPI \t\t\trequire(block.timestamp > will...\n      PUSH 40\t\t\trequire(block.timestamp > will...\n      MLOAD \t\t\trequire(block.timestamp > will...\n      PUSH 8C379A000000000000000000000000000000000000000000000000000000000\t\t\trequire(block.timestamp > will...\n      DUP2 \t\t\trequire(block.timestamp > will...\n      MSTORE \t\t\trequire(block.timestamp > will...\n      PUSH 4\t\t\trequire(block.timestamp > will...\n      ADD \t\t\trequire(block.timestamp > will...\n      PUSH [tag] 112\t\t\trequire(block.timestamp > will...\n      SWAP1 \t\t\trequire(block.timestamp > will...\n      PUSH [tag] 113\t\t\trequire(block.timestamp > will...\n      JUMP \t\t\trequire(block.timestamp > will...\n    tag 112\t\t\trequire(block.timestamp > will...\n      JUMPDEST \t\t\trequire(block.timestamp > will...\n      PUSH 40\t\t\trequire(block.timestamp > will...\n      MLOAD \t\t\trequire(block.timestamp > will...\n      DUP1 \t\t\trequire(block.timestamp > will...\n      SWAP2 \t\t\trequire(block.timestamp > will...\n      SUB \t\t\trequire(block.timestamp > will...\n      SWAP1 \t\t\trequire(block.timestamp > will...\n      REVERT \t\t\trequire(block.timestamp > will...\n    tag 111\t\t\trequire(block.timestamp > will...\n      JUMPDEST \t\t\trequire(block.timestamp > will...\n      PUSH 0\t\t\twills\n      DUP1 \t\t\twills[user]\n      DUP3 \t\t\tuser\n      PUSH FFFFFFFFFFFFFFFFFFFFFFFFFFFFFFFFFFFFFFFF\t\t\twills[user]\n      AND \t\t\twills[user]\n      PUSH FFFFFFFFFFFFFFFFFFFFFFFFFFFFFFFFFFFFFFFF\t\t\twills[user]\n      AND \t\t\twills[user]\n      DUP2 \t\t\twills[user]\n      MSTORE \t\t\twills[user]\n      PUSH 20\t\t\twills[user]\n      ADD \t\t\twills[user]\n      SWAP1 \t\t\twills[user]\n      DUP2 \t\t\twills[user]\n      MSTORE \t\t\twills[user]\n      PUSH 20\t\t\twills[user]\n      ADD \t\t\twills[user]\n      PUSH 0\t\t\twills[user]\n      KECCAK256 \t\t\twills[user]\n      PUSH 6\t\t\twills[user].isDeceased\n      ADD \t\t\twills[user].isDeceased\n      PUSH 0\t\t\twills[user].isDeceased\n      SWAP1 \t\t\twills[user].isDeceased\n      SLOAD \t\t\twills[user].isDeceased\n      SWAP1 \t\t\twills[user].isDeceased\n      PUSH 100\t\t\twills[user].isDeceased\n      EXP \t\t\twills[user].isDeceased\n      SWAP1 \t\t\twills[user].isDeceased\n      DIV \t\t\twills[user].isDeceased\n      PUSH FF\t\t\twills[user].isDeceased\n      AND \t\t\twills[user].isDeceased\n      ISZERO \t\t\t!wills[user].isDeceased\n      PUSH [tag] 114\t\t\trequire(!wills[user].isDecease...\n      JUMPI \t\t\trequire(!wills[user].isDecease...\n      PUSH 40\t\t\trequire(!wills[user].isDecease...\n      MLOAD \t\t\trequire(!wills[user].isDecease...\n      PUSH 8C379A000000000000000000000000000000000000000000000000000000000\t\t\trequire(!wills[user].isDecease...\n      DUP2 \t\t\trequire(!wills[user].isDecease...\n      MSTORE \t\t\trequire(!wills[user].isDecease...\n      PUSH 4\t\t\trequire(!wills[user].isDecease...\n      ADD \t\t\trequire(!wills[user].isDecease...\n      PUSH [tag] 115\t\t\trequire(!wills[user].isDecease...\n      SWAP1 \t\t\trequire(!wills[user].isDecease...\n      PUSH [tag] 90\t\t\trequire(!wills[user].isDecease...\n      JUMP \t\t\trequire(!wills[user].isDecease...\n    tag 115\t\t\trequire(!wills[user].isDecease...\n      JUMPDEST \t\t\trequire(!wills[user].isDecease...\n      PUSH 40\t\t\trequire(!wills[user].isDecease...\n      MLOAD \t\t\trequire(!wills[user].isDecease...\n      DUP1 \t\t\trequire(!wills[user].isDecease...\n      SWAP2 \t\t\trequire(!wills[user].isDecease...\n      SUB \t\t\trequire(!wills[user].isDecease...\n      SWAP1 \t\t\trequire(!wills[user].isDecease...\n      REVERT \t\t\trequire(!wills[user].isDecease...\n    tag 114\t\t\trequire(!wills[user].isDecease...\n      JUMPDEST \t\t\trequire(!wills[user].isDecease...\n      PUSH 1\t\t\ttrue\n      PUSH 0\t\t\twills\n      DUP1 \t\t\twills[user]\n      DUP4 \t\t\tuser\n      PUSH FFFFFFFFFFFFFFFFFFFFFFFFFFFFFFFFFFFFFFFF\t\t\twills[user]\n      AND \t\t\twills[user]\n      PUSH FFFFFFFFFFFFFFFFFFFFFFFFFFFFFFFFFFFFFFFF\t\t\twills[user]\n      AND \t\t\twills[user]\n      DUP2 \t\t\twills[user]\n      MSTORE \t\t\twills[user]\n      PUSH 20\t\t\twills[user]\n      ADD \t\t\twills[user]\n      SWAP1 \t\t\twills[user]\n      DUP2 \t\t\twills[user]\n      MSTORE \t\t\twills[user]\n      PUSH 20\t\t\twills[user]\n      ADD \t\t\twills[user]\n      PUSH 0\t\t\twills[user]\n      KECCAK256 \t\t\twills[user]\n      PUSH 6\t\t\twills[user].isDeceased\n      ADD \t\t\twills[user].isDeceased\n      PUSH 0\t\t\twills[user].isDeceased\n      PUSH 100\t\t\twills[user].isDeceased = true\n      EXP \t\t\twills[user].isDeceased = true\n      DUP2 \t\t\twills[user].isDeceased = true\n      SLOAD \t\t\twills[user].isDeceased = true\n      DUP2 \t\t\twills[user].isDeceased = true\n      PUSH FF\t\t\twills[user].isDeceased = true\n      MUL \t\t\twills[user].isDeceased = true\n      NOT \t\t\twills[user].isDeceased = true\n      AND \t\t\twills[user].isDeceased = true\n      SWAP1 \t\t\twills[user].isDeceased = true\n      DUP4 \t\t\twills[user].isDeceased = true\n      ISZERO \t\t\twills[user].isDeceased = true\n      ISZERO \t\t\twills[user].isDeceased = true\n      MUL \t\t\twills[user].isDeceased = true\n      OR \t\t\twills[user].isDeceased = true\n      SWAP1 \t\t\twills[user].isDeceased = true\n      SSTORE \t\t\twills[user].isDeceased = true\n      POP \t\t\twills[user].isDeceased = true\n      PUSH 0\t\t\tuint256 totalLocked\n      DUP1 \t\t\twills\n      PUSH 0\t\t\twills[user]\n      DUP4 \t\t\tuser\n      PUSH FFFFFFFFFFFFFFFFFFFFFFFFFFFFFFFFFFFFFFFF\t\t\twills[user]\n      AND \t\t\twills[user]\n      PUSH FFFFFFFFFFFFFFFFFFFFFFFFFFFFFFFFFFFFFFFF\t\t\twills[user]\n      AND \t\t\twills[user]\n      DUP2 \t\t\twills[user]\n      MSTORE \t\t\twills[user]\n      PUSH 20\t\t\twills[user]\n      ADD \t\t\twills[user]\n      SWAP1 \t\t\twills[user]\n      DUP2 \t\t\twills[user]\n      MSTORE \t\t\twills[user]\n      PUSH 20\t\t\twills[user]\n      ADD \t\t\twills[user]\n      PUSH 0\t\t\twills[user]\n      KECCAK256 \t\t\twills[user]\n      PUSH 3\t\t\twills[user].totalLocked\n      ADD \t\t\twills[user].totalLocked\n      SLOAD \t\t\twills[user].totalLocked\n      SWAP1 \t\t\tuint256 totalLocked = wills[us...\n      POP \t\t\tuint256 totalLocked = wills[us...\n      PUSH 0\t\t\t0\n      DUP2 \t\t\ttotalLocked\n      GT \t\t\ttotalLocked > 0\n      PUSH [tag] 116\t\t\trequire(totalLocked > 0, \"No E...\n      JUMPI \t\t\trequire(totalLocked > 0, \"No E...\n      PUSH 40\t\t\trequire(totalLocked > 0, \"No E...\n      MLOAD \t\t\trequire(totalLocked > 0, \"No E...\n      PUSH 8C379A000000000000000000000000000000000000000000000000000000000\t\t\trequire(totalLocked > 0, \"No E...\n      DUP2 \t\t\trequire(totalLocked > 0, \"No E...\n      MSTORE \t\t\trequire(totalLocked > 0, \"No E...\n      PUSH 4\t\t\trequire(totalLocked > 0, \"No E...\n      ADD \t\t\trequire(totalLocked > 0, \"No E...\n      PUSH [tag] 117\t\t\trequire(totalLocked > 0, \"No E...\n      SWAP1 \t\t\trequire(totalLocked > 0, \"No E...\n      PUSH [tag] 118\t\t\trequire(totalLocked > 0, \"No E...\n      JUMP \t\t\trequire(totalLocked > 0, \"No E...\n    tag 117\t\t\trequire(totalLocked > 0, \"No E...\n      JUMPDEST \t\t\trequire(totalLocked > 0, \"No E...\n      PUSH 40\t\t\trequire(totalLocked > 0, \"No E...\n      MLOAD \t\t\trequire(totalLocked > 0, \"No E...\n      DUP1 \t\t\trequire(totalLocked > 0, \"No E...\n      SWAP2 \t\t\trequire(totalLocked > 0, \"No E...\n      SUB \t\t\trequire(totalLocked > 0, \"No E...\n      SWAP1 \t\t\trequire(totalLocked > 0, \"No E...\n      REVERT \t\t\trequire(totalLocked > 0, \"No E...\n    tag 116\t\t\trequire(totalLocked > 0, \"No E...\n      JUMPDEST \t\t\trequire(totalLocked > 0, \"No E...\n      PUSH 0\t\t\tuint i\n    tag 119\t\t\tfor (uint i = 0; i < wills[use...\n      JUMPDEST \t\t\tfor (uint i = 0; i < wills[use...\n      PUSH 0\t\t\twills\n      DUP1 \t\t\twills[user]\n      DUP5 \t\t\tuser\n      PUSH FFFFFFFFFFFFFFFFFFFFFFFFFFFFFFFFFFFFFFFF\t\t\twills[user]\n      AND \t\t\twills[user]\n      PUSH FFFFFFFFFFFFFFFFFFFFFFFFFFFFFFFFFFFFFFFF\t\t\twills[user]\n      AND \t\t\twills[user]\n      DUP2 \t\t\twills[user]\n      MSTORE \t\t\twills[user]\n      PUSH 20\t\t\twills[user]\n      ADD \t\t\twills[user]\n      SWAP1 \t\t\twills[user]\n      DUP2 \t\t\twills[user]\n      MSTORE \t\t\twills[user]\n      PUSH 20\t\t\twills[user]\n      ADD \t\t\twills[user]\n      PUSH 0\t\t\twills[user]\n      KECCAK256 \t\t\twills[user]\n      PUSH 7\t\t\twills[user].beneficiaries\n      ADD \t\t\twills[user].beneficiaries\n      DUP1 \t\t\twills[user].beneficiaries.leng...\n      SLOAD \t\t\twills[user].beneficiaries.leng...\n      SWAP1 \t\t\twills[user].beneficiaries.leng...\n      POP \t\t\twills[user].beneficiaries.leng...\n      DUP2 \t\t\ti\n      LT \t\t\ti < wills[user].beneficiaries....\n      ISZERO \t\t\tfor (uint i = 0; i < wills[use...\n      PUSH [tag] 120\t\t\tfor (uint i = 0; i < wills[use...\n      JUMPI \t\t\tfor (uint i = 0; i < wills[use...\n      PUSH 0\t\t\tBeneficiary storage beneficiar...\n      DUP1 \t\t\twills\n      PUSH 0\t\t\twills[user]\n      DUP6 \t\t\tuser\n      PUSH FFFFFFFFFFFFFFFFFFFFFFFFFFFFFFFFFFFFFFFF\t\t\twills[user]\n      AND \t\t\twills[user]\n      PUSH FFFFFFFFFFFFFFFFFFFFFFFFFFFFFFFFFFFFFFFF\t\t\twills[user]\n      AND \t\t\twills[user]\n      DUP2 \t\t\twills[user]\n      MSTORE \t\t\twills[user]\n      PUSH 20\t\t\twills[user]\n      ADD \t\t\twills[user]\n      SWAP1 \t\t\twills[user]\n      DUP2 \t\t\twills[user]\n      MSTORE \t\t\twills[user]\n      PUSH 20\t\t\twills[user]\n      ADD \t\t\twills[user]\n      PUSH 0\t\t\twills[user]\n      KECCAK256 \t\t\twills[user]\n      PUSH 7\t\t\twills[user].beneficiaries\n      ADD \t\t\twills[user].beneficiaries\n      DUP3 \t\t\ti\n      DUP2 \t\t\twills[user].beneficiaries[i]\n      SLOAD \t\t\twills[user].beneficiaries[i]\n      DUP2 \t\t\twills[user].beneficiaries[i]\n      LT \t\t\twills[user].beneficiaries[i]\n      PUSH [tag] 122\t\t\twills[user].beneficiaries[i]\n      JUMPI \t\t\twills[user].beneficiaries[i]\n      PUSH [tag] 123\t\t\twills[user].beneficiaries[i]\n      PUSH [tag] 70\t\t\twills[user].beneficiaries[i]\n      JUMP \t\t\twills[user].beneficiaries[i]\n    tag 123\t\t\twills[user].beneficiaries[i]\n      JUMPDEST \t\t\twills[user].beneficiaries[i]\n    tag 122\t\t\twills[user].beneficiaries[i]\n      JUMPDEST \t\t\twills[user].beneficiaries[i]\n      SWAP1 \t\t\twills[user].beneficiaries[i]\n      PUSH 0\t\t\twills[user].beneficiaries[i]\n      MSTORE \t\t\twills[user].beneficiaries[i]\n      PUSH 20\t\t\twills[user].beneficiaries[i]\n      PUSH 0\t\t\twills[user].beneficiaries[i]\n      KECCAK256 \t\t\twills[user].beneficiaries[i]\n      SWAP1 \t\t\twills[user].beneficiaries[i]\n      PUSH 4\t\t\twills[user].beneficiaries[i]\n      MUL \t\t\twills[user].beneficiaries[i]\n      ADD \t\t\twills[user].beneficiaries[i]\n      SWAP1 \t\t\tBeneficiary storage beneficiar...\n      POP \t\t\tBeneficiary storage beneficiar...\n      PUSH 0\t\t\tuint256 amount\n      PUSH 64\t\t\t100\n      DUP3 \t\t\tbeneficiary\n      PUSH 1\t\t\tbeneficiary.percentage\n      ADD \t\t\tbeneficiary.percentage\n      SLOAD \t\t\tbeneficiary.percentage\n      DUP6 \t\t\ttotalLocked\n      PUSH [tag] 125\t\t\ttotalLocked * beneficiary.perc...\n      SWAP2 \t\t\ttotalLocked * beneficiary.perc...\n      SWAP1 \t\t\ttotalLocked * beneficiary.perc...\n      PUSH [tag] 126\t\t\ttotalLocked * beneficiary.perc...\n      JUMP \t\t\ttotalLocked * beneficiary.perc...\n    tag 125\t\t\ttotalLocked * beneficiary.perc...\n      JUMPDEST \t\t\ttotalLocked * beneficiary.perc...\n      PUSH [tag] 127\t\t\t(totalLocked * beneficiary.per...\n      SWAP2 \t\t\t(totalLocked * beneficiary.per...\n      SWAP1 \t\t\t(totalLocked * beneficiary.per...\n      PUSH [tag] 128\t\t\t(totalLocked * beneficiary.per...\n      JUMP \t\t\t(totalLocked * beneficiary.per...\n    tag 127\t\t\t(totalLocked * beneficiary.per...\n      JUMPDEST \t\t\t(totalLocked * beneficiary.per...\n      SWAP1 \t\t\tuint256 amount = (totalLocked ...\n      POP \t\t\tuint256 amount = (totalLocked ...\n      DUP1 \t\t\tamount\n      SELFBALANCE \t\t\taddress(this).balance\n      LT \t\t\taddress(this).balance >= amoun...\n      PUSH [tag] 129\t\t\tif (address(this).balance >= a...\n      JUMPI \t\t\tif (address(this).balance >= a...\n      DUP2 \t\t\tbeneficiary\n      PUSH 0\t\t\tbeneficiary.wallet\n      ADD \t\t\tbeneficiary.wallet\n      PUSH 0\t\t\tbeneficiary.wallet\n      SWAP1 \t\t\tbeneficiary.wallet\n      SLOAD \t\t\tbeneficiary.wallet\n      SWAP1 \t\t\tbeneficiary.wallet\n      PUSH 100\t\t\tbeneficiary.wallet\n      EXP \t\t\tbeneficiary.wallet\n      SWAP1 \t\t\tbeneficiary.wallet\n      DIV \t\t\tbeneficiary.wallet\n      PUSH FFFFFFFFFFFFFFFFFFFFFFFFFFFFFFFFFFFFFFFF\t\t\tbeneficiary.wallet\n      AND \t\t\tbeneficiary.wallet\n      PUSH FFFFFFFFFFFFFFFFFFFFFFFFFFFFFFFFFFFFFFFF\t\t\tbeneficiary.wallet.transfer\n      AND \t\t\tbeneficiary.wallet.transfer\n      PUSH 8FC\t\t\tbeneficiary.wallet.transfer(am...\n      DUP3 \t\t\tamount\n      SWAP1 \t\t\tbeneficiary.wallet.transfer(am...\n      DUP2 \t\t\tbeneficiary.wallet.transfer(am...\n      ISZERO \t\t\tbeneficiary.wallet.transfer(am...\n      MUL \t\t\tbeneficiary.wallet.transfer(am...\n      SWAP1 \t\t\tbeneficiary.wallet.transfer(am...\n      PUSH 40\t\t\tbeneficiary.wallet.transfer(am...\n      MLOAD \t\t\tbeneficiary.wallet.transfer(am...\n      PUSH 0\t\t\tbeneficiary.wallet.transfer(am...\n      PUSH 40\t\t\tbeneficiary.wallet.transfer(am...\n      MLOAD \t\t\tbeneficiary.wallet.transfer(am...\n      DUP1 \t\t\tbeneficiary.wallet.transfer(am...\n      DUP4 \t\t\tbeneficiary.wallet.transfer(am...\n      SUB \t\t\tbeneficiary.wallet.transfer(am...\n      DUP2 \t\t\tbeneficiary.wallet.transfer(am...\n      DUP6 \t\t\tbeneficiary.wallet.transfer(am...\n      DUP9 \t\t\tbeneficiary.wallet.transfer(am...\n      DUP9 \t\t\tbeneficiary.wallet.transfer(am...\n      CALL \t\t\tbeneficiary.wallet.transfer(am...\n      SWAP4 \t\t\tbeneficiary.wallet.transfer(am...\n      POP \t\t\tbeneficiary.wallet.transfer(am...\n      POP \t\t\tbeneficiary.wallet.transfer(am...\n      POP \t\t\tbeneficiary.wallet.transfer(am...\n      POP \t\t\tbeneficiary.wallet.transfer(am...\n      ISZERO \t\t\tbeneficiary.wallet.transfer(am...\n      DUP1 \t\t\tbeneficiary.wallet.transfer(am...\n      ISZERO \t\t\tbeneficiary.wallet.transfer(am...\n      PUSH [tag] 131\t\t\tbeneficiary.wallet.transfer(am...\n      JUMPI \t\t\tbeneficiary.wallet.transfer(am...\n      RETURNDATASIZE \t\t\tbeneficiary.wallet.transfer(am...\n      PUSH 0\t\t\tbeneficiary.wallet.transfer(am...\n      DUP1 \t\t\tbeneficiary.wallet.transfer(am...\n      RETURNDATACOPY \t\t\tbeneficiary.wallet.transfer(am...\n      RETURNDATASIZE \t\t\tbeneficiary.wallet.transfer(am...\n      PUSH 0\t\t\tbeneficiary.wallet.transfer(am...\n      REVERT \t\t\tbeneficiary.wallet.transfer(am...\n    tag 131\t\t\tbeneficiary.wallet.transfer(am...\n      JUMPDEST \t\t\tbeneficiary.wallet.transfer(am...\n      POP \t\t\tbeneficiary.wallet.transfer(am...\n      DUP2 \t\t\tbeneficiary\n      PUSH 0\t\t\tbeneficiary.wallet\n      ADD \t\t\tbeneficiary.wallet\n      PUSH 0\t\t\tbeneficiary.wallet\n      SWAP1 \t\t\tbeneficiary.wallet\n      SLOAD \t\t\tbeneficiary.wallet\n      SWAP1 \t\t\tbeneficiary.wallet\n      PUSH 100\t\t\tbeneficiary.wallet\n      EXP \t\t\tbeneficiary.wallet\n      SWAP1 \t\t\tbeneficiary.wallet\n      DIV \t\t\tbeneficiary.wallet\n      PUSH FFFFFFFFFFFFFFFFFFFFFFFFFFFFFFFFFFFFFFFF\t\t\tbeneficiary.wallet\n      AND \t\t\tbeneficiary.wallet\n      PUSH FFFFFFFFFFFFFFFFFFFFFFFFFFFFFFFFFFFFFFFF\t\t\tFundsDisbursed(beneficiary.wal...\n      AND \t\t\tFundsDisbursed(beneficiary.wal...\n      PUSH CEB720B06C310EDC215BEE81670832BB918BA1199F401716364414DDB9B816A7\t\t\tFundsDisbursed(beneficiary.wal...\n      DUP3 \t\t\tamount\n      DUP5 \t\t\tbeneficiary\n      PUSH 2\t\t\tbeneficiary.saleDeedIpfsHash\n      ADD \t\t\tbeneficiary.saleDeedIpfsHash\n      DUP6 \t\t\tbeneficiary\n      PUSH 3\t\t\tbeneficiary.email\n      ADD \t\t\tbeneficiary.email\n      PUSH 40\t\t\tFundsDisbursed(beneficiary.wal...\n      MLOAD \t\t\tFundsDisbursed(beneficiary.wal...\n      PUSH [tag] 132\t\t\tFundsDisbursed(beneficiary.wal...\n      SWAP4 \t\t\tFundsDisbursed(beneficiary.wal...\n      SWAP3 \t\t\tFundsDisbursed(beneficiary.wal...\n      SWAP2 \t\t\tFundsDisbursed(beneficiary.wal...\n      SWAP1 \t\t\tFundsDisbursed(beneficiary.wal...\n      PUSH [tag] 133\t\t\tFundsDisbursed(beneficiary.wal...\n      JUMP \t\t\tFundsDisbursed(beneficiary.wal...\n    tag 132\t\t\tFundsDisbursed(beneficiary.wal...\n      JUMPDEST \t\t\tFundsDisbursed(beneficiary.wal...\n      PUSH 40\t\t\tFundsDisbursed(beneficiary.wal...\n      MLOAD \t\t\tFundsDisbursed(beneficiary.wal...\n      DUP1 \t\t\tFundsDisbursed(beneficiary.wal...\n      SWAP2 \t\t\tFundsDisbursed(beneficiary.wal...\n      SUB \t\t\tFundsDisbursed(beneficiary.wal...\n      SWAP1 \t\t\tFundsDisbursed(beneficiary.wal...\n      LOG2 \t\t\tFundsDisbursed(beneficiary.wal...\n      PUSH [tag] 134\t\t\tif (address(this).balance >= a...\n      JUMP \t\t\tif (address(this).balance >= a...\n    tag 129\t\t\tif (address(this).balance >= a...\n      JUMPDEST \t\t\tif (address(this).balance >= a...\n      DUP2 \t\t\tbeneficiary\n      PUSH 0\t\t\tbeneficiary.wallet\n      ADD \t\t\tbeneficiary.wallet\n      PUSH 0\t\t\tbeneficiary.wallet\n      SWAP1 \t\t\tbeneficiary.wallet\n      SLOAD \t\t\tbeneficiary.wallet\n      SWAP1 \t\t\tbeneficiary.wallet\n      PUSH 100\t\t\tbeneficiary.wallet\n      EXP \t\t\tbeneficiary.wallet\n      SWAP1 \t\t\tbeneficiary.wallet\n      DIV \t\t\tbeneficiary.wallet\n      PUSH FFFFFFFFFFFFFFFFFFFFFFFFFFFFFFFFFFFFFFFF\t\t\tbeneficiary.wallet\n      AND \t\t\tbeneficiary.wallet\n      PUSH FFFFFFFFFFFFFFFFFFFFFFFFFFFFFFFFFFFFFFFF\t\t\tFundsDisbursed(beneficiary.wal...\n      AND \t\t\tFundsDisbursed(beneficiary.wal...\n      PUSH CEB720B06C310EDC215BEE81670832BB918BA1199F401716364414DDB9B816A7\t\t\tFundsDisbursed(beneficiary.wal...\n      PUSH 0\t\t\t0\n      DUP5 \t\t\tbeneficiary\n      PUSH 2\t\t\tbeneficiary.saleDeedIpfsHash\n      ADD \t\t\tbeneficiary.saleDeedIpfsHash\n      DUP6 \t\t\tbeneficiary\n      PUSH 3\t\t\tbeneficiary.email\n      ADD \t\t\tbeneficiary.email\n      PUSH 40\t\t\tFundsDisbursed(beneficiary.wal...\n      MLOAD \t\t\tFundsDisbursed(beneficiary.wal...\n      PUSH [tag] 135\t\t\tFundsDisbursed(beneficiary.wal...\n      SWAP4 \t\t\tFundsDisbursed(beneficiary.wal...\n      SWAP3 \t\t\tFundsDisbursed(beneficiary.wal...\n      SWAP2 \t\t\tFundsDisbursed(beneficiary.wal...\n      SWAP1 \t\t\tFundsDisbursed(beneficiary.wal...\n      PUSH [tag] 136\t\t\tFundsDisbursed(beneficiary.wal...\n      JUMP \t\t\tFundsDisbursed(beneficiary.wal...\n    tag 135\t\t\tFundsDisbursed(beneficiary.wal...\n      JUMPDEST \t\t\tFundsDisbursed(beneficiary.wal...\n      PUSH 40\t\t\tFundsDisbursed(beneficiary.wal...\n      MLOAD \t\t\tFundsDisbursed(beneficiary.wal...\n      DUP1 \t\t\tFundsDisbursed(beneficiary.wal...\n      SWAP2 \t\t\tFundsDisbursed(beneficiary.wal...\n      SUB \t\t\tFundsDisbursed(beneficiary.wal...\n      SWAP1 \t\t\tFundsDisbursed(beneficiary.wal...\n      LOG2 \t\t\tFundsDisbursed(beneficiary.wal...\n    tag 134\t\t\tif (address(this).balance >= a...\n      JUMPDEST \t\t\tif (address(this).balance >= a...\n      POP \t\t\t{\\n            Beneficiary sto...\n      POP \t\t\t{\\n            Beneficiary sto...\n      DUP1 \t\t\ti++\n      DUP1 \t\t\ti++\n      PUSH 1\t\t\ti++\n      ADD \t\t\ti++\n      SWAP2 \t\t\ti++\n      POP \t\t\ti++\n      POP \t\t\ti++\n      PUSH [tag] 119\t\t\tfor (uint i = 0; i < wills[use...\n      JUMP \t\t\tfor (uint i = 0; i < wills[use...\n    tag 120\t\t\tfor (uint i = 0; i < wills[use...\n      JUMPDEST \t\t\tfor (uint i = 0; i < wills[use...\n      POP \t\t\tfor (uint i = 0; i < wills[use...\n      PUSH 0\t\t\t0\n      DUP1 \t\t\twills\n      PUSH 0\t\t\twills[user]\n      DUP5 \t\t\tuser\n      PUSH FFFFFFFFFFFFFFFFFFFFFFFFFFFFFFFFFFFFFFFF\t\t\twills[user]\n      AND \t\t\twills[user]\n      PUSH FFFFFFFFFFFFFFFFFFFFFFFFFFFFFFFFFFFFFFFF\t\t\twills[user]\n      AND \t\t\twills[user]\n      DUP2 \t\t\twills[user]\n      MSTORE \t\t\twills[user]\n      PUSH 20\t\t\twills[user]\n      ADD \t\t\twills[user]\n      SWAP1 \t\t\twills[user]\n      DUP2 \t\t\twills[user]\n      MSTORE \t\t\twills[user]\n      PUSH 20\t\t\twills[user]\n      ADD \t\t\twills[user]\n      PUSH 0\t\t\twills[user]\n      KECCAK256 \t\t\twills[user]\n      PUSH 3\t\t\twills[user].totalLocked\n      ADD \t\t\twills[user].totalLocked\n      DUP2 \t\t\twills[user].totalLocked = 0\n      SWAP1 \t\t\twills[user].totalLocked = 0\n      SSTORE \t\t\twills[user].totalLocked = 0\n      POP \t\t\twills[user].totalLocked = 0\n      DUP2 \t\t\tuser\n      PUSH FFFFFFFFFFFFFFFFFFFFFFFFFFFFFFFFFFFFFFFF\t\t\tWillExecuted(user)\n      AND \t\t\tWillExecuted(user)\n      PUSH 16346F65ADF8D84422B57AD74CB5607BF6C9E55C3C1FEA66344057E5BBA8A7EE\t\t\tWillExecuted(user)\n      PUSH 40\t\t\tWillExecuted(user)\n      MLOAD \t\t\tWillExecuted(user)\n      PUSH 40\t\t\tWillExecuted(user)\n      MLOAD \t\t\tWillExecuted(user)\n      DUP1 \t\t\tWillExecuted(user)\n      SWAP2 \t\t\tWillExecuted(user)\n      SUB \t\t\tWillExecuted(user)\n      SWAP1 \t\t\tWillExecuted(user)\n      LOG2 \t\t\tWillExecuted(user)\n      POP \t\t\t{\\n        require(hasWill[use...\n      POP \t\t\tfunction executeWill(address u...\n      JUMP \t\t\tfunction executeWill(address u...\n    tag 137\t\t\t-License-Identifier: MIT\\nprag...\n      JUMPDEST \t\t\t-License-Identifier: MIT\\nprag...\n      PUSH 0\t\t\tolidit\n      PUSH 40\t\t\til\n      MLOAD \t\t\tMultiWill\n      SWAP1 \t\t\t\\ncontract MultiWill\n      POP \t\t\t\\ncontract MultiWill\n      SWAP1 \t\t\t-License-Identifier: MIT\\nprag...\n      JUMP \t\t\t-License-Identifier: MIT\\nprag...\n    tag 138\t\t\t   struct Beneficiary {\\n     ...\n      JUMPDEST \t\t\t   struct Beneficiary {\\n     ...\n      PUSH 0\t\t\tf\n      DUP1 \t\t\td\n      REVERT \t\t\tsaleDeedIpfs\n    tag 139\t\t\t  string email;\\n    }\\n\\n    ...\n      JUMPDEST \t\t\t  string email;\\n    }\\n\\n    ...\n      PUSH 0\t\t\ta\n      DUP1 \t\t\tg\n      REVERT \t\t\t  string las\n    tag 140\t\t\t   uint256 totalLocked;\\n     ...\n      JUMPDEST \t\t\t   uint256 totalLocked;\\n     ...\n      PUSH 0\t\t\t56 last\n      PUSH FFFFFFFFFFFFFFFFFFFFFFFFFFFFFFFFFFFFFFFF\t\t\tfLifeInterval;\\n        bool i...\n      DUP3 \t\t\t proo\n      AND \t\t\tt256 proofOfLifeInterval;\\n   ...\n      SWAP1 \t\t\t        uint256 proofOfLifeInt...\n      POP \t\t\t        uint256 proofOfLifeInt...\n      SWAP2 \t\t\t   uint256 totalLocked;\\n     ...\n      SWAP1 \t\t\t   uint256 totalLocked;\\n     ...\n      POP \t\t\t   uint256 totalLocked;\\n     ...\n      JUMP \t\t\t   uint256 totalLocked;\\n     ...\n    tag 141\t\t\tiary[] beneficiaries;\\n    }\\n...\n      JUMPDEST \t\t\tiary[] beneficiaries;\\n    }\\n...\n      PUSH 0\t\t\ting(add\n      PUSH [tag] 220\t\t\twills;\\n    mapping(addre\n      DUP3 \t\t\t(addr\n      PUSH [tag] 140\t\t\twills;\\n    mapping(addre\n      JUMP \t\t\twills;\\n    mapping(addre\n    tag 220\t\t\twills;\\n    mapping(addre\n      JUMPDEST \t\t\twills;\\n    mapping(addre\n      SWAP1 \t\t\tl) private wills;\\n    mapping...\n      POP \t\t\tl) private wills;\\n    mapping...\n      SWAP2 \t\t\tiary[] beneficiaries;\\n    }\\n...\n      SWAP1 \t\t\tiary[] beneficiaries;\\n    }\\n...\n      POP \t\t\tiary[] beneficiaries;\\n    }\\n...\n      JUMP \t\t\tiary[] beneficiaries;\\n    }\\n...\n    tag 142\t\t\tpublic hasWill;\\n\\n    event W...\n      JUMPDEST \t\t\tpublic hasWill;\\n\\n    event W...\n      PUSH [tag] 222\t\t\tlockedFunds);\\n    event \n      DUP2 \t\t\tevent\n      PUSH [tag] 141\t\t\tlockedFunds);\\n    event \n      JUMP \t\t\tlockedFunds);\\n    event \n    tag 222\t\t\tlockedFunds);\\n    event \n      JUMPDEST \t\t\tlockedFunds);\\n    event \n      DUP2 \t\t\tint25\n      EQ \t\t\t, uint256 lockedFunds);\\n    e...\n      PUSH [tag] 223\t\t\td testator, uint256 lockedFund...\n      JUMPI \t\t\td testator, uint256 lockedFund...\n      PUSH 0\t\t\td\n      DUP1 \t\t\td\n      REVERT \t\t\ticiaryAdded(\n    tag 223\t\t\td testator, uint256 lockedFund...\n      JUMPDEST \t\t\td testator, uint256 lockedFund...\n      POP \t\t\tpublic hasWill;\\n\\n    event W...\n      JUMP \t\t\tpublic hasWill;\\n\\n    event W...\n    tag 143\t\t\td testator, address beneficiar...\n      JUMPDEST \t\t\td testator, address beneficiar...\n      PUSH 0\t\t\tntage\n      DUP2 \t\t\t index\n      CALLDATALOAD \t\t\tcuted(address indexe\n      SWAP1 \t\t\tt WillExecuted(address indexe\n      POP \t\t\tt WillExecuted(address indexe\n      PUSH [tag] 225\t\t\tr);\\n    event FundsDisbursed(...\n      DUP2 \t\t\td(add\n      PUSH [tag] 142\t\t\tr);\\n    event FundsDisbursed(...\n      JUMP \t\t\tr);\\n    event FundsDisbursed(...\n    tag 225\t\t\tr);\\n    event FundsDisbursed(...\n      JUMPDEST \t\t\tr);\\n    event FundsDisbursed(...\n      SWAP3 \t\t\td testator, address beneficiar...\n      SWAP2 \t\t\td testator, address beneficiar...\n      POP \t\t\td testator, address beneficiar...\n      POP \t\t\td testator, address beneficiar...\n      JUMP \t\t\td testator, address beneficiar...\n    tag 14\t\t\tbeneficiary, uint256 amount, s...\n      JUMPDEST \t\t\tbeneficiary, uint256 amount, s...\n      PUSH 0\t\t\tg emai\n      PUSH 20\t\t\t f\n      DUP3 \t\t\ts a new w\n      DUP5 \t\t\tev Crea\n      SUB \t\t\t* @dev Creates a new wi\n      SLT \t\t\t    * @dev Creates a new will ...\n      ISZERO \t\t\t*\\n     * @dev Creates a new w...\n      PUSH [tag] 227\t\t\t*\\n     * @dev Creates a new w...\n      JUMPI \t\t\t*\\n     * @dev Creates a new w...\n      PUSH [tag] 228\t\t\the sender.\\n     * @param _fir...\n      PUSH [tag] 138\t\t\the sender.\\n     * @param _fir...\n      JUMP \t\t\the sender.\\n     * @param _fir...\n    tag 228\t\t\the sender.\\n     * @param _fir...\n      JUMPDEST \t\t\the sender.\\n     * @param _fir...\n    tag 227\t\t\t*\\n     * @dev Creates a new w...\n      JUMPDEST \t\t\t*\\n     * @dev Creates a new w...\n      PUSH 0\t\t\t*\n      PUSH [tag] 229\t\t\tl(\\n        string memory _fir...\n      DUP5 \t\t\tstring \n      DUP3 \t\t\t\\n     \n      DUP6 \t\t\t_firstNam\n      ADD \t\t\tory _firstName,\\n      \n      PUSH [tag] 143\t\t\tl(\\n        string memory _fir...\n      JUMP \t\t\tl(\\n        string memory _fir...\n    tag 229\t\t\tl(\\n        string memory _fir...\n      JUMPDEST \t\t\tl(\\n        string memory _fir...\n      SWAP2 \t\t\t createWill(\\n        string m...\n      POP \t\t\t createWill(\\n        string m...\n      POP \t\t\tt name of the testator.\\n     ...\n      SWAP3 \t\t\tbeneficiary, uint256 amount, s...\n      SWAP2 \t\t\tbeneficiary, uint256 amount, s...\n      POP \t\t\tbeneficiary, uint256 amount, s...\n      POP \t\t\tbeneficiary, uint256 amount, s...\n      JUMP \t\t\tbeneficiary, uint256 amount, s...\n    tag 144\t\t\tublic payable {\\n        requi...\n      JUMPDEST \t\t\tublic payable {\\n        requi...\n      PUSH 0\t\t\till[msg\n      DUP2 \t\t\t have\n      SWAP1 \t\t\tYou already have\n      POP \t\t\tYou already have\n      SWAP2 \t\t\tublic payable {\\n        requi...\n      SWAP1 \t\t\tublic payable {\\n        requi...\n      POP \t\t\tublic payable {\\n        requi...\n      JUMP \t\t\tublic payable {\\n        requi...\n    tag 145\t\t\t        require(msg.value > 0,...\n      JUMPDEST \t\t\t        require(msg.value > 0,...\n      PUSH [tag] 232\t\t\t  wills[msg.sender].test\n      DUP2 \t\t\t].tes\n      PUSH [tag] 144\t\t\t  wills[msg.sender].test\n      JUMP \t\t\t  wills[msg.sender].test\n    tag 232\t\t\t  wills[msg.sender].test\n      JUMPDEST \t\t\t  wills[msg.sender].test\n      DUP3 \t\t\t   \n      MSTORE \t\t\ttails\\n        wills[msg.sende...\n      POP \t\t\t        require(msg.value > 0,...\n      POP \t\t\t        require(msg.value > 0,...\n      JUMP \t\t\t        require(msg.value > 0,...\n    tag 17\t\t\tnder;\\n        wills[msg.sende...\n      JUMPDEST \t\t\tnder;\\n        wills[msg.sende...\n      PUSH 0\t\t\t_las\n      PUSH 20\t\t\tot\n      DUP3 \t\t\tg.sender]\n      ADD \t\t\ts[msg.sender].tota\n      SWAP1 \t\t\t    wills[msg.sender].tota\n      POP \t\t\t    wills[msg.sender].tota\n      PUSH [tag] 234\t\t\tmsg.value; // Store locked ETH...\n      PUSH 0\t\t\tA\n      DUP4 \t\t\tender].la\n      ADD \t\t\tsg.sender].lastAl\n      DUP5 \t\t\t  will\n      PUSH [tag] 145\t\t\tmsg.value; // Store locked ETH...\n      JUMP \t\t\tmsg.value; // Store locked ETH...\n    tag 234\t\t\tmsg.value; // Store locked ETH...\n      JUMPDEST \t\t\tmsg.value; // Store locked ETH...\n      SWAP3 \t\t\tnder;\\n        wills[msg.sende...\n      SWAP2 \t\t\tnder;\\n        wills[msg.sende...\n      POP \t\t\tnder;\\n        wills[msg.sende...\n      POP \t\t\tnder;\\n        wills[msg.sende...\n      JUMP \t\t\tnder;\\n        wills[msg.sende...\n    tag 146\t\t\tk.timestamp;\\n        wills[ms...\n      JUMPDEST \t\t\tk.timestamp;\\n        wills[ms...\n      PUSH 0\t\t\tfLifeIn\n      PUSH [tag] 236\t\t\t     wills[msg.sender].i\n      DUP3 \t\t\tder].\n      PUSH [tag] 140\t\t\t     wills[msg.sender].i\n      JUMP \t\t\t     wills[msg.sender].i\n    tag 236\t\t\t     wills[msg.sender].i\n      JUMPDEST \t\t\t     wills[msg.sender].i\n      SWAP1 \t\t\t5 days;\\n        wills[msg.sen...\n      POP \t\t\t5 days;\\n        wills[msg.sen...\n      SWAP2 \t\t\tk.timestamp;\\n        wills[ms...\n      SWAP1 \t\t\tk.timestamp;\\n        wills[ms...\n      POP \t\t\tk.timestamp;\\n        wills[ms...\n      JUMP \t\t\tk.timestamp;\\n        wills[ms...\n    tag 147\t\t\tfalse;\\n\\n        hasWill[msg....\n      JUMPDEST \t\t\tfalse;\\n\\n        hasWill[msg....\n      PUSH [tag] 238\t\t\t msg.value);\\n    }\\n\\n    /**...\n      DUP2 \t\t\t*\\n   \n      PUSH [tag] 146\t\t\t msg.value);\\n    }\\n\\n    /**...\n      JUMP \t\t\t msg.value);\\n    }\\n\\n    /**...\n    tag 238\t\t\t msg.value);\\n    }\\n\\n    /**...\n      JUMPDEST \t\t\t msg.value);\\n    }\\n\\n    /**...\n      DUP2 \t\t\tsende\n      EQ \t\t\tsg.sender, msg.value);\\n    }\\...\n      PUSH [tag] 239\t\t\tlCreated(msg.sender, msg.value...\n      JUMPI \t\t\tlCreated(msg.sender, msg.value...\n      PUSH 0\t\t\tb\n      DUP1 \t\t\t \n      REVERT \t\t\tev Adds a be\n    tag 239\t\t\tlCreated(msg.sender, msg.value...\n      JUMPDEST \t\t\tlCreated(msg.sender, msg.value...\n      POP \t\t\tfalse;\\n\\n        hasWill[msg....\n      JUMP \t\t\tfalse;\\n\\n        hasWill[msg....\n    tag 148\t\t\the caller's will.\\n     * @par...\n      JUMPDEST \t\t\the caller's will.\\n     * @par...\n      PUSH 0\t\t\t bene\n      DUP2 \t\t\te Shar\n      CALLDATALOAD \t\t\tam _percentage Share\n      SWAP1 \t\t\t   * @param _percentage Share\n      POP \t\t\t   * @param _percentage Share\n      PUSH [tag] 241\t\t\to be allocated.\\n     * @param...\n      DUP2 \t\t\tDeedI\n      PUSH [tag] 147\t\t\to be allocated.\\n     * @param...\n      JUMP \t\t\to be allocated.\\n     * @param...\n    tag 241\t\t\to be allocated.\\n     * @param...\n      JUMPDEST \t\t\to be allocated.\\n     * @param...\n      SWAP3 \t\t\the caller's will.\\n     * @par...\n      SWAP2 \t\t\the caller's will.\\n     * @par...\n      POP \t\t\the caller's will.\\n     * @par...\n      POP \t\t\the caller's will.\\n     * @par...\n      JUMP \t\t\the caller's will.\\n     * @par...\n    tag 149\t\t\thash of the sale deed document...\n      JUMPDEST \t\t\thash of the sale deed document...\n      PUSH [tag] 243\t\t\t _email Email of the ben\n      DUP2 \t\t\the be\n      PUSH [tag] 144\t\t\t _email Email of the ben\n      JUMP \t\t\t _email Email of the ben\n    tag 243\t\t\t _email Email of the ben\n      JUMPDEST \t\t\t _email Email of the ben\n      DUP2 \t\t\t @par\n      EQ \t\t\t  * @param _email Email of the...\n      PUSH [tag] 244\t\t\tciary.\\n     * @param _email E...\n      JUMPI \t\t\tciary.\\n     * @param _email E...\n      PUSH 0\t\t\t*\n      DUP1 \t\t\t \n      REVERT \t\t\tary.\\n     */\n    tag 244\t\t\tciary.\\n     * @param _email E...\n      JUMPDEST \t\t\tciary.\\n     * @param _email E...\n      POP \t\t\thash of the sale deed document...\n      JUMP \t\t\thash of the sale deed document...\n    tag 150\t\t\taddBeneficiary(\\n        addre...\n      JUMPDEST \t\t\taddBeneficiary(\\n        addre...\n      PUSH 0\t\t\tt,\\n  \n      DUP2 \t\t\t  stri\n      CALLDATALOAD \t\t\tntage,\\n        strin\n      SWAP1 \t\t\t56 _percentage,\\n        strin\n      POP \t\t\t56 _percentage,\\n        strin\n      PUSH [tag] 246\t\t\t_saleDeedIpfsHash,\\n        st...\n      DUP2 \t\t\tstrin\n      PUSH [tag] 149\t\t\t_saleDeedIpfsHash,\\n        st...\n      JUMP \t\t\t_saleDeedIpfsHash,\\n        st...\n    tag 246\t\t\t_saleDeedIpfsHash,\\n        st...\n      JUMPDEST \t\t\t_saleDeedIpfsHash,\\n        st...\n      SWAP3 \t\t\taddBeneficiary(\\n        addre...\n      SWAP2 \t\t\taddBeneficiary(\\n        addre...\n      POP \t\t\taddBeneficiary(\\n        addre...\n      POP \t\t\taddBeneficiary(\\n        addre...\n      JUMP \t\t\taddBeneficiary(\\n        addre...\n    tag 151\t\t\til\\n    ) public {\\n        re...\n      JUMPDEST \t\t\til\\n    ) public {\\n        re...\n      PUSH 0\t\t\ta\n      DUP1 \t\t\t(\n      REVERT \t\t\trequire(_wal\n    tag 152\t\t\tss(0), \"Invalid wallet address...\n      JUMPDEST \t\t\tss(0), \"Invalid wallet address...\n      PUSH 0\t\t\t)\n      DUP1 \t\t\tg\n      REVERT \t\t\tercentage\");\n    tag 153\t\t\tnt256 totalPercentage = 0;\\n  ...\n      JUMPDEST \t\t\tnt256 totalPercentage = 0;\\n  ...\n      PUSH 0\t\t\tint i \n      PUSH 1F\t\t\tth\n      NOT \t\t\tlength;\n      PUSH 1F\t\t\tri\n      DUP4 \t\t\tnefic\n      ADD \t\t\t].beneficiarie\n      AND \t\t\tnder].beneficiaries.length; \n      SWAP1 \t\t\tlls[msg.sender].beneficiaries....\n      POP \t\t\tlls[msg.sender].beneficiaries....\n      SWAP2 \t\t\tnt256 totalPercentage = 0;\\n  ...\n      SWAP1 \t\t\tnt256 totalPercentage = 0;\\n  ...\n      POP \t\t\tnt256 totalPercentage = 0;\\n  ...\n      JUMP \t\t\tnt256 totalPercentage = 0;\\n  ...\n    tag 154\t\t\t       totalPercentage += will...\n      JUMPDEST \t\t\t       totalPercentage += will...\n      PUSH 4E487B7100000000000000000000000000000000000000000000000000000000\t\t\tficiaries[i].percentage;\\n    ...\n      PUSH 0\t\t\te\n      MSTORE \t\t\tnder].beneficiaries[i].percent...\n      PUSH 41\t\t\tlloc\n      PUSH 4\t\t\tl\n      MSTORE \t\t\t, \"Total alloca\n      PUSH 24\t\t\t;\\n\\n \n      PUSH 0\t\t\t%\n      REVERT \t\t\teds 100%\");\\n\\n  \n    tag 155\t\t\tmsg.sender].beneficiaries.push...\n      JUMPDEST \t\t\tmsg.sender].beneficiaries.push...\n      PUSH [tag] 252\t\t\tDeedIpfsHash, _email)\\n     \n      DUP3 \t\t\t    \n      PUSH [tag] 153\t\t\tDeedIpfsHash, _email)\\n     \n      JUMP \t\t\tDeedIpfsHash, _email)\\n     \n    tag 252\t\t\tDeedIpfsHash, _email)\\n     \n      JUMPDEST \t\t\tDeedIpfsHash, _email)\\n     \n      DUP2 \t\t\te, _sa\n      ADD \t\t\tntage, _saleDeedIpfsHash, _ema...\n      DUP2 \t\t\tirms t\n      DUP2 \t\t\t * @dev Co\n      LT \t\t\t    * @dev Confirms th\n      PUSH FFFFFFFFFFFFFFFF\t\t\tge);\\n    }\\n\\n    /*\n      DUP3 \t\t\tt, _percen\n      GT \t\t\tllet, _percentage);\\n    }\\n\\n...\n      OR \t\t\t_wallet, _percentage);\\n    }\\...\n      ISZERO \t\t\tr, _wallet, _percentage);\\n   ...\n      PUSH [tag] 253\t\t\tr, _wallet, _percentage);\\n   ...\n      JUMPI \t\t\tr, _wallet, _percentage);\\n   ...\n      PUSH [tag] 254\t\t\tstator is alive.\\n \n      PUSH [tag] 154\t\t\tstator is alive.\\n \n      JUMP \t\t\tstator is alive.\\n \n    tag 254\t\t\tstator is alive.\\n \n      JUMPDEST \t\t\tstator is alive.\\n \n    tag 253\t\t\tr, _wallet, _percentage);\\n   ...\n      JUMPDEST \t\t\tr, _wallet, _percentage);\\n   ...\n      DUP1 \t\t\tnfirmAlive\n      PUSH 40\t\t\tn \n      MSTORE \t\t\tfunction confirmAlive(\n      POP \t\t\t Beneficiary(_wallet, _percent...\n      POP \t\t\tmsg.sender].beneficiaries.push...\n      POP \t\t\tmsg.sender].beneficiaries.push...\n      JUMP \t\t\tmsg.sender].beneficiaries.push...\n    tag 156\t\t\t       require(hasWill[msg.sen...\n      JUMPDEST \t\t\t       require(hasWill[msg.sen...\n      PUSH 0\t\t\t, \"You\n      PUSH [tag] 256\t\t\till\");\\n        requi\n      PUSH [tag] 137\t\t\till\");\\n        requi\n      JUMP \t\t\till\");\\n        requi\n    tag 256\t\t\till\");\\n        requi\n      JUMPDEST \t\t\till\");\\n        requi\n      SWAP1 \t\t\treated a will\");\\n        requ...\n      POP \t\t\treated a will\");\\n        requ...\n      PUSH [tag] 257\t\t\t[msg.sender].isDeceased, \"Will...\n      DUP3 \t\t\tll a\n      DUP3 \t\t\tsed, \"\n      PUSH [tag] 155\t\t\t[msg.sender].isDeceased, \"Will...\n      JUMP \t\t\t[msg.sender].isDeceased, \"Will...\n    tag 257\t\t\t[msg.sender].isDeceased, \"Will...\n      JUMPDEST \t\t\t[msg.sender].isDeceased, \"Will...\n      SWAP2 \t\t\t       require(hasWill[msg.sen...\n      SWAP1 \t\t\t       require(hasWill[msg.sen...\n      POP \t\t\t       require(hasWill[msg.sen...\n      JUMP \t\t\t       require(hasWill[msg.sen...\n    tag 157\t\t\ted!\");\\n\\n        wills[msg.se...\n      JUMPDEST \t\t\ted!\");\\n\\n        wills[msg.se...\n      PUSH 0\t\t\tamp;\n      PUSH FFFFFFFFFFFFFFFF\t\t\tciaries.\\n     */\\n \n      DUP3 \t\t\tg bene\n      GT \t\t\tying beneficiaries.\\n     */\\n...\n      ISZERO \t\t\ttifying beneficiaries.\\n     *...\n      PUSH [tag] 259\t\t\ttifying beneficiaries.\\n     *...\n      JUMPI \t\t\ttifying beneficiaries.\\n     *...\n      PUSH [tag] 260\t\t\tunction executeWil\n      PUSH [tag] 154\t\t\tunction executeWil\n      JUMP \t\t\tunction executeWil\n    tag 260\t\t\tunction executeWil\n      JUMPDEST \t\t\tunction executeWil\n    tag 259\t\t\ttifying beneficiaries.\\n     *...\n      JUMPDEST \t\t\ttifying beneficiaries.\\n     *...\n      PUSH [tag] 261\t\t\tic {\\n        require(hasWill[\n      DUP3 \t\t\tasWill\n      PUSH [tag] 153\t\t\tic {\\n        require(hasWill[\n      JUMP \t\t\tic {\\n        require(hasWill[\n    tag 261\t\t\tic {\\n        require(hasWill[\n      JUMPDEST \t\t\tic {\\n        require(hasWill[\n      SWAP1 \t\t\ter) public {\\n        require(...\n      POP \t\t\ter) public {\\n        require(...\n      PUSH 20\t\t\tmp >\n      DUP2 \t\t\times\n      ADD \t\t\tck.timestamp > \n      SWAP1 \t\t\tuire(block.timestamp > \n      POP \t\t\tuire(block.timestamp > \n      SWAP2 \t\t\ted!\");\\n\\n        wills[msg.se...\n      SWAP1 \t\t\ted!\");\\n\\n        wills[msg.se...\n      POP \t\t\ted!\");\\n\\n        wills[msg.se...\n      JUMP \t\t\ted!\");\\n\\n        wills[msg.se...\n    tag 158\t\t\tastAliveTime + wills[user].pro...\n      JUMPDEST \t\t\tastAliveTime + wills[user].pro...\n      DUP3 \t\t\tser].i\n      DUP2 \t\t\tlls\n      DUP4 \t\t\te(!\n      CALLDATACOPY \t\t\t       require(!wills[user].is\n      PUSH 0\t\t\t)\n      DUP4 \t\t\txecute\n      DUP4 \t\t\tady\n      ADD \t\t\talready executed\n      MSTORE \t\t\t \"Will already executed!\");\n      POP \t\t\tastAliveTime + wills[user].pro...\n      POP \t\t\tastAliveTime + wills[user].pro...\n      POP \t\t\tastAliveTime + wills[user].pro...\n      JUMP \t\t\tastAliveTime + wills[user].pro...\n    tag 159\t\t\tls[user].isDeceased = true;\\n\\...\n      JUMPDEST \t\t\tls[user].isDeceased = true;\\n\\...\n      PUSH 0\t\t\tcked;\n      PUSH [tag] 264\t\t\talLocked > 0, \"No ETH to distr...\n      PUSH [tag] 265\t\t\to ETH to distribute\");\\n\\n    ...\n      DUP5 \t\t\ti = 0;\n      PUSH [tag] 157\t\t\to ETH to distribute\");\\n\\n    ...\n      JUMP \t\t\to ETH to distribute\");\\n\\n    ...\n    tag 265\t\t\to ETH to distribute\");\\n\\n    ...\n      JUMPDEST \t\t\to ETH to distribute\");\\n\\n    ...\n      PUSH [tag] 156\t\t\talLocked > 0, \"No ETH to distr...\n      JUMP \t\t\talLocked > 0, \"No ETH to distr...\n    tag 264\t\t\talLocked > 0, \"No ETH to distr...\n      JUMPDEST \t\t\talLocked > 0, \"No ETH to distr...\n      SWAP1 \t\t\tquire(totalLocked > 0, \"No ETH...\n      POP \t\t\tquire(totalLocked > 0, \"No ETH...\n      DUP3 \t\t\taries.\n      DUP2 \t\t\tenefi\n      MSTORE \t\t\tuser].beneficiaries.l\n      PUSH 20\t\t\ticia\n      DUP2 \t\t\t  Ben\n      ADD \t\t\t      Beneficiar\n      DUP5 \t\t\tr].\n      DUP5 \t\t\twills[\n      DUP5 \t\t\try \n      ADD \t\t\ticiary = wills[u\n      GT \t\t\tneficiary = wills[user].b\n      ISZERO \t\t\t beneficiary = wills[user].ben...\n      PUSH [tag] 266\t\t\t beneficiary = wills[user].ben...\n      JUMPI \t\t\t beneficiary = wills[user].ben...\n      PUSH [tag] 267\t\t\tficiaries[i];\\n\\n            u...\n      PUSH [tag] 152\t\t\tficiaries[i];\\n\\n            u...\n      JUMP \t\t\tficiaries[i];\\n\\n            u...\n    tag 267\t\t\tficiaries[i];\\n\\n            u...\n      JUMPDEST \t\t\tficiaries[i];\\n\\n            u...\n    tag 266\t\t\t beneficiary = wills[user].ben...\n      JUMPDEST \t\t\t beneficiary = wills[user].ben...\n      PUSH [tag] 268\t\t\t\\n            if (address(this...\n      DUP5 \t\t\tt) {\\n \n      DUP3 \t\t\tamo\n      DUP6 \t\t\te >\n      PUSH [tag] 158\t\t\t\\n            if (address(this...\n      JUMP \t\t\t\\n            if (address(this...\n    tag 268\t\t\t\\n            if (address(this...\n      JUMPDEST \t\t\t\\n            if (address(this...\n      POP \t\t\t        require(totalLocked > ...\n      SWAP4 \t\t\tls[user].isDeceased = true;\\n\\...\n      SWAP3 \t\t\tls[user].isDeceased = true;\\n\\...\n      POP \t\t\tls[user].isDeceased = true;\\n\\...\n      POP \t\t\tls[user].isDeceased = true;\\n\\...\n      POP \t\t\tls[user].isDeceased = true;\\n\\...\n      JUMP \t\t\tls[user].isDeceased = true;\\n\\...\n    tag 160\t\t\twallet.transfer(amount);\\n    ...\n      JUMPDEST \t\t\twallet.transfer(amount);\\n    ...\n      PUSH 0\t\t\trsed(\n      DUP3 \t\t\tDee\n      PUSH 1F\t\t\try.s\n      DUP4 \t\t\tenefic\n      ADD \t\t\tt, beneficiary.sa\n      SLT \t\t\tmount, beneficiary.saleDeed\n      PUSH [tag] 270\t\t\t.wallet, amount, beneficiary.s...\n      JUMPI \t\t\t.wallet, amount, beneficiary.s...\n      PUSH [tag] 271\t\t\tHash, beneficiary.email);\\n   ...\n      PUSH [tag] 151\t\t\tHash, beneficiary.email);\\n   ...\n      JUMP \t\t\tHash, beneficiary.email);\\n   ...\n    tag 271\t\t\tHash, beneficiary.email);\\n   ...\n      JUMPDEST \t\t\tHash, beneficiary.email);\\n   ...\n    tag 270\t\t\t.wallet, amount, beneficiary.s...\n      JUMPDEST \t\t\t.wallet, amount, beneficiary.s...\n      DUP2 \t\t\t.saleD\n      CALLDATALOAD \t\t\t, beneficiary.saleDe\n      PUSH [tag] 272\t\t\tciary.email);\\n            }\\n...\n      DUP5 \t\t\t\\n  \n      DUP3 \t\t\tked = \n      PUSH 20\t\t\total\n      DUP7 \t\t\t[user]\n      ADD \t\t\tills[user].totalL\n      PUSH [tag] 159\t\t\tciary.email);\\n            }\\n...\n      JUMP \t\t\tciary.email);\\n            }\\n...\n    tag 272\t\t\tciary.email);\\n            }\\n...\n      JUMPDEST \t\t\tciary.email);\\n            }\\n...\n      SWAP2 \t\t\th, beneficiary.email);\\n      ...\n      POP \t\t\th, beneficiary.email);\\n      ...\n      POP \t\t\teneficiary.wallet, amount, ben...\n      SWAP3 \t\t\twallet.transfer(amount);\\n    ...\n      SWAP2 \t\t\twallet.transfer(amount);\\n    ...\n      POP \t\t\twallet.transfer(amount);\\n    ...\n      POP \t\t\twallet.transfer(amount);\\n    ...\n      JUMP \t\t\twallet.transfer(amount);\\n    ...\n    tag 21\t\t\tllExecuted(user);\\n    }\\n\\n  ...\n      JUMPDEST \t\t\tllExecuted(user);\\n    }\\n\\n  ...\n      PUSH 0\t\t\t*/\\n   \n      DUP1 \t\t\tunctio\n      PUSH 0\t\t\tgetBen\n      DUP1 \t\t\ticiary\n      PUSH 80\t\t\tnt2\n      DUP6 \t\t\t returns \n      DUP8 \t\t\tblic vi\n      SUB \t\t\t) public view returns (\n      SLT \t\t\tuser) public view returns (uin...\n      ISZERO \t\t\tss user) public view returns (...\n      PUSH [tag] 274\t\t\tss user) public view returns (...\n      JUMPI \t\t\tss user) public view returns (...\n      PUSH [tag] 275\t\t\t{\\n        require(hasWill[use...\n      PUSH [tag] 138\t\t\t{\\n        require(hasWill[use...\n      JUMP \t\t\t{\\n        require(hasWill[use...\n    tag 275\t\t\t{\\n        require(hasWill[use...\n      JUMPDEST \t\t\t{\\n        require(hasWill[use...\n    tag 274\t\t\tss user) public view returns (...\n      JUMPDEST \t\t\tss user) public view returns (...\n      PUSH 0\t\t\t \n      PUSH [tag] 276\t\t\tked ETH amount in the will.\\n ...\n      DUP8 \t\t\tockedFu\n      DUP3 \t\t\ttion g\n      DUP9 \t\t\t*/\\n    fu\n      ADD \t\t\t    */\\n    function ge\n      PUSH [tag] 148\t\t\tked ETH amount in the will.\\n ...\n      JUMP \t\t\tked ETH amount in the will.\\n ...\n    tag 276\t\t\tked ETH amount in the will.\\n ...\n      JUMPDEST \t\t\tked ETH amount in the will.\\n ...\n      SWAP5 \t\t\tes the locked ETH amount in th...\n      POP \t\t\tes the locked ETH amount in th...\n      POP \t\t\ts.length;\\n    }\\n\\n    /**\\n ...\n      PUSH 20\t\t\t  \n      PUSH [tag] 277\t\t\ter], \"No will found!\");\\n     ...\n      DUP8 \t\t\tuser].t\n      DUP3 \t\t\trn wil\n      DUP9 \t\t\t       re\n      ADD \t\t\t);\\n        return will\n      PUSH [tag] 150\t\t\ter], \"No will found!\");\\n     ...\n      JUMP \t\t\ter], \"No will found!\");\\n     ...\n    tag 277\t\t\ter], \"No will found!\");\\n     ...\n      JUMPDEST \t\t\ter], \"No will found!\");\\n     ...\n      SWAP4 \t\t\thasWill[user], \"No will found!...\n      POP \t\t\thasWill[user], \"No will found!...\n      POP \t\t\tlic view returns (uint256) {\\n...\n      PUSH 40\t\t\tcu\n      DUP6 \t\t\tdy been e\n      ADD \t\t\tlready been execut\n      CALLDATALOAD \t\t\the will has already been execu...\n      PUSH FFFFFFFFFFFFFFFF\t\t\tillExecuted(addres\n      DUP2 \t\t\ttion i\n      GT \t\t\tunction isWillExecuted(address\n      ISZERO \t\t\t  function isWillExecuted(addr...\n      PUSH [tag] 278\t\t\t  function isWillExecuted(addr...\n      JUMPI \t\t\t  function isWillExecuted(addr...\n      PUSH [tag] 279\t\t\ter) public view returns (bool)...\n      PUSH [tag] 139\t\t\ter) public view returns (bool)...\n      JUMP \t\t\ter) public view returns (bool)...\n    tag 279\t\t\ter) public view returns (bool)...\n      JUMPDEST \t\t\ter) public view returns (bool)...\n    tag 278\t\t\t  function isWillExecuted(addr...\n      JUMPDEST \t\t\t  function isWillExecuted(addr...\n      PUSH [tag] 280\t\t\tser].isDeceased;\\n    }\\n}\\n\n      DUP8 \t\t\t\n      DUP3 \t\t\t\n      DUP9 \t\t\t\n      ADD \t\t\t\n      PUSH [tag] 160\t\t\tser].isDeceased;\\n    }\\n}\\n\n      JUMP \t\t\tser].isDeceased;\\n    }\\n}\\n\n    tag 280\t\t\tser].isDeceased;\\n    }\\n}\\n\n      JUMPDEST \t\t\tser].isDeceased;\\n    }\\n}\\n\n      SWAP3 \t\t\trn wills[user].isDeceased;\\n  ...\n      POP \t\t\trn wills[user].isDeceased;\\n  ...\n      POP \t\t\t  /**\\n     * @dev Checks if t...\n      PUSH 60\t\t\t\n      DUP6 \t\t\t\n      ADD \t\t\t\n      CALLDATALOAD \t\t\t\n      PUSH FFFFFFFFFFFFFFFF\t\t\t\n      DUP2 \t\t\t\n      GT \t\t\t\n      ISZERO \t\t\t\n      PUSH [tag] 281\t\t\t\n      JUMPI \t\t\t\n      PUSH [tag] 282\t\t\t\n      PUSH [tag] 139\t\t\t\n      JUMP \t\t\t\n    tag 282\t\t\t\n      JUMPDEST \t\t\t\n    tag 281\t\t\t\n      JUMPDEST \t\t\t\n      PUSH [tag] 283\t\t\t\n      DUP8 \t\t\t\n      DUP3 \t\t\t\n      DUP9 \t\t\t\n      ADD \t\t\t\n      PUSH [tag] 160\t\t\t\n      JUMP \t\t\t\n    tag 283\t\t\t\n      JUMPDEST \t\t\t\n      SWAP2 \t\t\t\n      POP \t\t\t\n      POP \t\t\t\n      SWAP3 \t\t\tllExecuted(user);\\n    }\\n\\n  ...\n      SWAP6 \t\t\tllExecuted(user);\\n    }\\n\\n  ...\n      SWAP2 \t\t\tllExecuted(user);\\n    }\\n\\n  ...\n      SWAP5 \t\t\tllExecuted(user);\\n    }\\n\\n  ...\n      POP \t\t\tllExecuted(user);\\n    }\\n\\n  ...\n      SWAP3 \t\t\tllExecuted(user);\\n    }\\n\\n  ...\n      POP \t\t\tllExecuted(user);\\n    }\\n\\n  ...\n      JUMP \t\t\tllExecuted(user);\\n    }\\n\\n  ...\n    tag 161\t\t\t\n      JUMPDEST \t\t\t\n      PUSH 0\t\t\t\n      DUP2 \t\t\t\n      ISZERO \t\t\t\n      ISZERO \t\t\t\n      SWAP1 \t\t\t\n      POP \t\t\t\n      SWAP2 \t\t\t\n      SWAP1 \t\t\t\n      POP \t\t\t\n      JUMP \t\t\t\n    tag 162\t\t\t\n      JUMPDEST \t\t\t\n      PUSH [tag] 286\t\t\t\n      DUP2 \t\t\t\n      PUSH [tag] 161\t\t\t\n      JUMP \t\t\t\n    tag 286\t\t\t\n      JUMPDEST \t\t\t\n      DUP3 \t\t\t\n      MSTORE \t\t\t\n      POP \t\t\t\n      POP \t\t\t\n      JUMP \t\t\t\n    tag 28\t\t\t\n      JUMPDEST \t\t\t\n      PUSH 0\t\t\t\n      PUSH 20\t\t\t\n      DUP3 \t\t\t\n      ADD \t\t\t\n      SWAP1 \t\t\t\n      POP \t\t\t\n      PUSH [tag] 288\t\t\t\n      PUSH 0\t\t\t\n      DUP4 \t\t\t\n      ADD \t\t\t\n      DUP5 \t\t\t\n      PUSH [tag] 162\t\t\t\n      JUMP \t\t\t\n    tag 288\t\t\t\n      JUMPDEST \t\t\t\n      SWAP3 \t\t\t\n      SWAP2 \t\t\t\n      POP \t\t\t\n      POP \t\t\t\n      JUMP \t\t\t\n    tag 39\t\t\t\n      JUMPDEST \t\t\t\n      PUSH 0\t\t\t\n      DUP1 \t\t\t\n      PUSH 40\t\t\t\n      DUP4 \t\t\t\n      DUP6 \t\t\t\n      SUB \t\t\t\n      SLT \t\t\t\n      ISZERO \t\t\t\n      PUSH [tag] 290\t\t\t\n      JUMPI \t\t\t\n      PUSH [tag] 291\t\t\t\n      PUSH [tag] 138\t\t\t\n      JUMP \t\t\t\n    tag 291\t\t\t\n      JUMPDEST \t\t\t\n    tag 290\t\t\t\n      JUMPDEST \t\t\t\n      PUSH 0\t\t\t\n      DUP4 \t\t\t\n      ADD \t\t\t\n      CALLDATALOAD \t\t\t\n      PUSH FFFFFFFFFFFFFFFF\t\t\t\n      DUP2 \t\t\t\n      GT \t\t\t\n      ISZERO \t\t\t\n      PUSH [tag] 292\t\t\t\n      JUMPI \t\t\t\n      PUSH [tag] 293\t\t\t\n      PUSH [tag] 139\t\t\t\n      JUMP \t\t\t\n    tag 293\t\t\t\n      JUMPDEST \t\t\t\n    tag 292\t\t\t\n      JUMPDEST \t\t\t\n      PUSH [tag] 294\t\t\t\n      DUP6 \t\t\t\n      DUP3 \t\t\t\n      DUP7 \t\t\t\n      ADD \t\t\t\n      PUSH [tag] 160\t\t\t\n      JUMP \t\t\t\n    tag 294\t\t\t\n      JUMPDEST \t\t\t\n      SWAP3 \t\t\t\n      POP \t\t\t\n      POP \t\t\t\n      PUSH 20\t\t\t\n      DUP4 \t\t\t\n      ADD \t\t\t\n      CALLDATALOAD \t\t\t\n      PUSH FFFFFFFFFFFFFFFF\t\t\t\n      DUP2 \t\t\t\n      GT \t\t\t\n      ISZERO \t\t\t\n      PUSH [tag] 295\t\t\t\n      JUMPI \t\t\t\n      PUSH [tag] 296\t\t\t\n      PUSH [tag] 139\t\t\t\n      JUMP \t\t\t\n    tag 296\t\t\t\n      JUMPDEST \t\t\t\n    tag 295\t\t\t\n      JUMPDEST \t\t\t\n      PUSH [tag] 297\t\t\t\n      DUP6 \t\t\t\n      DUP3 \t\t\t\n      DUP7 \t\t\t\n      ADD \t\t\t\n      PUSH [tag] 160\t\t\t\n      JUMP \t\t\t\n    tag 297\t\t\t\n      JUMPDEST \t\t\t\n      SWAP2 \t\t\t\n      POP \t\t\t\n      POP \t\t\t\n      SWAP3 \t\t\t\n      POP \t\t\t\n      SWAP3 \t\t\t\n      SWAP1 \t\t\t\n      POP \t\t\t\n      JUMP \t\t\t\n    tag 163\t\t\t\n      JUMPDEST \t\t\t\n      PUSH 0\t\t\t\n      DUP3 \t\t\t\n      DUP3 \t\t\t\n      MSTORE \t\t\t\n      PUSH 20\t\t\t\n      DUP3 \t\t\t\n      ADD \t\t\t\n      SWAP1 \t\t\t\n      POP \t\t\t\n      SWAP3 \t\t\t\n      SWAP2 \t\t\t\n      POP \t\t\t\n      POP \t\t\t\n      JUMP \t\t\t\n    tag 164\t\t\t\n      JUMPDEST \t\t\t\n      PUSH 4E6F2077696C6C20666F756E6421000000000000000000000000000000000000\t\t\t\n      PUSH 0\t\t\t\n      DUP3 \t\t\t\n      ADD \t\t\t\n      MSTORE \t\t\t\n      POP \t\t\t\n      JUMP \t\t\t\n    tag 165\t\t\t\n      JUMPDEST \t\t\t\n      PUSH 0\t\t\t\n      PUSH [tag] 301\t\t\t\n      PUSH E\t\t\t\n      DUP4 \t\t\t\n      PUSH [tag] 163\t\t\t\n      JUMP \t\t\t\n    tag 301\t\t\t\n      JUMPDEST \t\t\t\n      SWAP2 \t\t\t\n      POP \t\t\t\n      PUSH [tag] 302\t\t\t\n      DUP3 \t\t\t\n      PUSH [tag] 164\t\t\t\n      JUMP \t\t\t\n    tag 302\t\t\t\n      JUMPDEST \t\t\t\n      PUSH 20\t\t\t\n      DUP3 \t\t\t\n      ADD \t\t\t\n      SWAP1 \t\t\t\n      POP \t\t\t\n      SWAP2 \t\t\t\n      SWAP1 \t\t\t\n      POP \t\t\t\n      JUMP \t\t\t\n    tag 53\t\t\t\n      JUMPDEST \t\t\t\n      PUSH 0\t\t\t\n      PUSH 20\t\t\t\n      DUP3 \t\t\t\n      ADD \t\t\t\n      SWAP1 \t\t\t\n      POP \t\t\t\n      DUP2 \t\t\t\n      DUP2 \t\t\t\n      SUB \t\t\t\n      PUSH 0\t\t\t\n      DUP4 \t\t\t\n      ADD \t\t\t\n      MSTORE \t\t\t\n      PUSH [tag] 304\t\t\t\n      DUP2 \t\t\t\n      PUSH [tag] 165\t\t\t\n      JUMP \t\t\t\n    tag 304\t\t\t\n      JUMPDEST \t\t\t\n      SWAP1 \t\t\t\n      POP \t\t\t\n      SWAP2 \t\t\t\n      SWAP1 \t\t\t\n      POP \t\t\t\n      JUMP \t\t\t\n    tag 166\t\t\t\n      JUMPDEST \t\t\t\n      PUSH 596F75206E65656420746F2063726561746520612077696C6C20666972737400\t\t\t\n      PUSH 0\t\t\t\n      DUP3 \t\t\t\n      ADD \t\t\t\n      MSTORE \t\t\t\n      POP \t\t\t\n      JUMP \t\t\t\n    tag 167\t\t\t\n      JUMPDEST \t\t\t\n      PUSH 0\t\t\t\n      PUSH [tag] 307\t\t\t\n      PUSH 1F\t\t\t\n      DUP4 \t\t\t\n      PUSH [tag] 163\t\t\t\n      JUMP \t\t\t\n    tag 307\t\t\t\n      JUMPDEST \t\t\t\n      SWAP2 \t\t\t\n      POP \t\t\t\n      PUSH [tag] 308\t\t\t\n      DUP3 \t\t\t\n      PUSH [tag] 166\t\t\t\n      JUMP \t\t\t\n    tag 308\t\t\t\n      JUMPDEST \t\t\t\n      PUSH 20\t\t\t\n      DUP3 \t\t\t\n      ADD \t\t\t\n      SWAP1 \t\t\t\n      POP \t\t\t\n      SWAP2 \t\t\t\n      SWAP1 \t\t\t\n      POP \t\t\t\n      JUMP \t\t\t\n    tag 57\t\t\t\n      JUMPDEST \t\t\t\n      PUSH 0\t\t\t\n      PUSH 20\t\t\t\n      DUP3 \t\t\t\n      ADD \t\t\t\n      SWAP1 \t\t\t\n      POP \t\t\t\n      DUP2 \t\t\t\n      DUP2 \t\t\t\n      SUB \t\t\t\n      PUSH 0\t\t\t\n      DUP4 \t\t\t\n      ADD \t\t\t\n      MSTORE \t\t\t\n      PUSH [tag] 310\t\t\t\n      DUP2 \t\t\t\n      PUSH [tag] 167\t\t\t\n      JUMP \t\t\t\n    tag 310\t\t\t\n      JUMPDEST \t\t\t\n      SWAP1 \t\t\t\n      POP \t\t\t\n      SWAP2 \t\t\t\n      SWAP1 \t\t\t\n      POP \t\t\t\n      JUMP \t\t\t\n    tag 168\t\t\t\n      JUMPDEST \t\t\t\n      PUSH 496E76616C69642077616C6C6574206164647265737300000000000000000000\t\t\t\n      PUSH 0\t\t\t\n      DUP3 \t\t\t\n      ADD \t\t\t\n      MSTORE \t\t\t\n      POP \t\t\t\n      JUMP \t\t\t\n    tag 169\t\t\t\n      JUMPDEST \t\t\t\n      PUSH 0\t\t\t\n      PUSH [tag] 313\t\t\t\n      PUSH 16\t\t\t\n      DUP4 \t\t\t\n      PUSH [tag] 163\t\t\t\n      JUMP \t\t\t\n    tag 313\t\t\t\n      JUMPDEST \t\t\t\n      SWAP2 \t\t\t\n      POP \t\t\t\n      PUSH [tag] 314\t\t\t\n      DUP3 \t\t\t\n      PUSH [tag] 168\t\t\t\n      JUMP \t\t\t\n    tag 314\t\t\t\n      JUMPDEST \t\t\t\n      PUSH 20\t\t\t\n      DUP3 \t\t\t\n      ADD \t\t\t\n      SWAP1 \t\t\t\n      POP \t\t\t\n      SWAP2 \t\t\t\n      SWAP1 \t\t\t\n      POP \t\t\t\n      JUMP \t\t\t\n    tag 60\t\t\t\n      JUMPDEST \t\t\t\n      PUSH 0\t\t\t\n      PUSH 20\t\t\t\n      DUP3 \t\t\t\n      ADD \t\t\t\n      SWAP1 \t\t\t\n      POP \t\t\t\n      DUP2 \t\t\t\n      DUP2 \t\t\t\n      SUB \t\t\t\n      PUSH 0\t\t\t\n      DUP4 \t\t\t\n      ADD \t\t\t\n      MSTORE \t\t\t\n      PUSH [tag] 316\t\t\t\n      DUP2 \t\t\t\n      PUSH [tag] 169\t\t\t\n      JUMP \t\t\t\n    tag 316\t\t\t\n      JUMPDEST \t\t\t\n      SWAP1 \t\t\t\n      POP \t\t\t\n      SWAP2 \t\t\t\n      SWAP1 \t\t\t\n      POP \t\t\t\n      JUMP \t\t\t\n    tag 170\t\t\t\n      JUMPDEST \t\t\t\n      PUSH 496E76616C69642070657263656E746167650000000000000000000000000000\t\t\t\n      PUSH 0\t\t\t\n      DUP3 \t\t\t\n      ADD \t\t\t\n      MSTORE \t\t\t\n      POP \t\t\t\n      JUMP \t\t\t\n    tag 171\t\t\t\n      JUMPDEST \t\t\t\n      PUSH 0\t\t\t\n      PUSH [tag] 319\t\t\t\n      PUSH 12\t\t\t\n      DUP4 \t\t\t\n      PUSH [tag] 163\t\t\t\n      JUMP \t\t\t\n    tag 319\t\t\t\n      JUMPDEST \t\t\t\n      SWAP2 \t\t\t\n      POP \t\t\t\n      PUSH [tag] 320\t\t\t\n      DUP3 \t\t\t\n      PUSH [tag] 170\t\t\t\n      JUMP \t\t\t\n    tag 320\t\t\t\n      JUMPDEST \t\t\t\n      PUSH 20\t\t\t\n      DUP3 \t\t\t\n      ADD \t\t\t\n      SWAP1 \t\t\t\n      POP \t\t\t\n      SWAP2 \t\t\t\n      SWAP1 \t\t\t\n      POP \t\t\t\n      JUMP \t\t\t\n    tag 64\t\t\t\n      JUMPDEST \t\t\t\n      PUSH 0\t\t\t\n      PUSH 20\t\t\t\n      DUP3 \t\t\t\n      ADD \t\t\t\n      SWAP1 \t\t\t\n      POP \t\t\t\n      DUP2 \t\t\t\n      DUP2 \t\t\t\n      SUB \t\t\t\n      PUSH 0\t\t\t\n      DUP4 \t\t\t\n      ADD \t\t\t\n      MSTORE \t\t\t\n      PUSH [tag] 322\t\t\t\n      DUP2 \t\t\t\n      PUSH [tag] 171\t\t\t\n      JUMP \t\t\t\n    tag 322\t\t\t\n      JUMPDEST \t\t\t\n      SWAP1 \t\t\t\n      POP \t\t\t\n      SWAP2 \t\t\t\n      SWAP1 \t\t\t\n      POP \t\t\t\n      JUMP \t\t\t\n    tag 70\t\t\t\n      JUMPDEST \t\t\t\n      PUSH 4E487B7100000000000000000000000000000000000000000000000000000000\t\t\t\n      PUSH 0\t\t\t\n      MSTORE \t\t\t\n      PUSH 32\t\t\t\n      PUSH 4\t\t\t\n      MSTORE \t\t\t\n      PUSH 24\t\t\t\n      PUSH 0\t\t\t\n      REVERT \t\t\t\n    tag 172\t\t\t\n      JUMPDEST \t\t\t\n      PUSH 4E487B7100000000000000000000000000000000000000000000000000000000\t\t\t\n      PUSH 0\t\t\t\n      MSTORE \t\t\t\n      PUSH 11\t\t\t\n      PUSH 4\t\t\t\n      MSTORE \t\t\t\n      PUSH 24\t\t\t\n      PUSH 0\t\t\t\n      REVERT \t\t\t\n    tag 73\t\t\t\n      JUMPDEST \t\t\t\n      PUSH 0\t\t\t\n      PUSH [tag] 326\t\t\t\n      DUP3 \t\t\t\n      PUSH [tag] 144\t\t\t\n      JUMP \t\t\t\n    tag 326\t\t\t\n      JUMPDEST \t\t\t\n      SWAP2 \t\t\t\n      POP \t\t\t\n      PUSH [tag] 327\t\t\t\n      DUP4 \t\t\t\n      PUSH [tag] 144\t\t\t\n      JUMP \t\t\t\n    tag 327\t\t\t\n      JUMPDEST \t\t\t\n      SWAP3 \t\t\t\n      POP \t\t\t\n      DUP3 \t\t\t\n      DUP3 \t\t\t\n      ADD \t\t\t\n      SWAP1 \t\t\t\n      POP \t\t\t\n      DUP1 \t\t\t\n      DUP3 \t\t\t\n      GT \t\t\t\n      ISZERO \t\t\t\n      PUSH [tag] 328\t\t\t\n      JUMPI \t\t\t\n      PUSH [tag] 329\t\t\t\n      PUSH [tag] 172\t\t\t\n      JUMP \t\t\t\n    tag 329\t\t\t\n      JUMPDEST \t\t\t\n    tag 328\t\t\t\n      JUMPDEST \t\t\t\n      SWAP3 \t\t\t\n      SWAP2 \t\t\t\n      POP \t\t\t\n      POP \t\t\t\n      JUMP \t\t\t\n    tag 173\t\t\t\n      JUMPDEST \t\t\t\n      PUSH 546F74616C20616C6C6F636174696F6E20657863656564732031303025000000\t\t\t\n      PUSH 0\t\t\t\n      DUP3 \t\t\t\n      ADD \t\t\t\n      MSTORE \t\t\t\n      POP \t\t\t\n      JUMP \t\t\t\n    tag 174\t\t\t\n      JUMPDEST \t\t\t\n      PUSH 0\t\t\t\n      PUSH [tag] 332\t\t\t\n      PUSH 1D\t\t\t\n      DUP4 \t\t\t\n      PUSH [tag] 163\t\t\t\n      JUMP \t\t\t\n    tag 332\t\t\t\n      JUMPDEST \t\t\t\n      SWAP2 \t\t\t\n      POP \t\t\t\n      PUSH [tag] 333\t\t\t\n      DUP3 \t\t\t\n      PUSH [tag] 173\t\t\t\n      JUMP \t\t\t\n    tag 333\t\t\t\n      JUMPDEST \t\t\t\n      PUSH 20\t\t\t\n      DUP3 \t\t\t\n      ADD \t\t\t\n      SWAP1 \t\t\t\n      POP \t\t\t\n      SWAP2 \t\t\t\n      SWAP1 \t\t\t\n      POP \t\t\t\n      JUMP \t\t\t\n    tag 77\t\t\t\n      JUMPDEST \t\t\t\n      PUSH 0\t\t\t\n      PUSH 20\t\t\t\n      DUP3 \t\t\t\n      ADD \t\t\t\n      SWAP1 \t\t\t\n      POP \t\t\t\n      DUP2 \t\t\t\n      DUP2 \t\t\t\n      SUB \t\t\t\n      PUSH 0\t\t\t\n      DUP4 \t\t\t\n      ADD \t\t\t\n      MSTORE \t\t\t\n      PUSH [tag] 335\t\t\t\n      DUP2 \t\t\t\n      PUSH [tag] 174\t\t\t\n      JUMP \t\t\t\n    tag 335\t\t\t\n      JUMPDEST \t\t\t\n      SWAP1 \t\t\t\n      POP \t\t\t\n      SWAP2 \t\t\t\n      SWAP1 \t\t\t\n      POP \t\t\t\n      JUMP \t\t\t\n    tag 175\t\t\t\n      JUMPDEST \t\t\t\n      PUSH 0\t\t\t\n      DUP2 \t\t\t\n      MLOAD \t\t\t\n      SWAP1 \t\t\t\n      POP \t\t\t\n      SWAP2 \t\t\t\n      SWAP1 \t\t\t\n      POP \t\t\t\n      JUMP \t\t\t\n    tag 176\t\t\t\n      JUMPDEST \t\t\t\n      PUSH 4E487B7100000000000000000000000000000000000000000000000000000000\t\t\t\n      PUSH 0\t\t\t\n      MSTORE \t\t\t\n      PUSH 22\t\t\t\n      PUSH 4\t\t\t\n      MSTORE \t\t\t\n      PUSH 24\t\t\t\n      PUSH 0\t\t\t\n      REVERT \t\t\t\n    tag 177\t\t\t\n      JUMPDEST \t\t\t\n      PUSH 0\t\t\t\n      PUSH 2\t\t\t\n      DUP3 \t\t\t\n      DIV \t\t\t\n      SWAP1 \t\t\t\n      POP \t\t\t\n      PUSH 1\t\t\t\n      DUP3 \t\t\t\n      AND \t\t\t\n      DUP1 \t\t\t\n      PUSH [tag] 339\t\t\t\n      JUMPI \t\t\t\n      PUSH 7F\t\t\t\n      DUP3 \t\t\t\n      AND \t\t\t\n      SWAP2 \t\t\t\n      POP \t\t\t\n    tag 339\t\t\t\n      JUMPDEST \t\t\t\n      PUSH 20\t\t\t\n      DUP3 \t\t\t\n      LT \t\t\t\n      DUP2 \t\t\t\n      SUB \t\t\t\n      PUSH [tag] 340\t\t\t\n      JUMPI \t\t\t\n      PUSH [tag] 341\t\t\t\n      PUSH [tag] 176\t\t\t\n      JUMP \t\t\t\n    tag 341\t\t\t\n      JUMPDEST \t\t\t\n    tag 340\t\t\t\n      JUMPDEST \t\t\t\n      POP \t\t\t\n      SWAP2 \t\t\t\n      SWAP1 \t\t\t\n      POP \t\t\t\n      JUMP \t\t\t\n    tag 178\t\t\t\n      JUMPDEST \t\t\t\n      PUSH 0\t\t\t\n      DUP2 \t\t\t\n      SWAP1 \t\t\t\n      POP \t\t\t\n      DUP2 \t\t\t\n      PUSH 0\t\t\t\n      MSTORE \t\t\t\n      PUSH 20\t\t\t\n      PUSH 0\t\t\t\n      KECCAK256 \t\t\t\n      SWAP1 \t\t\t\n      POP \t\t\t\n      SWAP2 \t\t\t\n      SWAP1 \t\t\t\n      POP \t\t\t\n      JUMP \t\t\t\n    tag 179\t\t\t\n      JUMPDEST \t\t\t\n      PUSH 0\t\t\t\n      PUSH 20\t\t\t\n      PUSH 1F\t\t\t\n      DUP4 \t\t\t\n      ADD \t\t\t\n      DIV \t\t\t\n      SWAP1 \t\t\t\n      POP \t\t\t\n      SWAP2 \t\t\t\n      SWAP1 \t\t\t\n      POP \t\t\t\n      JUMP \t\t\t\n    tag 180\t\t\t\n      JUMPDEST \t\t\t\n      PUSH 0\t\t\t\n      DUP3 \t\t\t\n      DUP3 \t\t\t\n      SHL \t\t\t\n      SWAP1 \t\t\t\n      POP \t\t\t\n      SWAP3 \t\t\t\n      SWAP2 \t\t\t\n      POP \t\t\t\n      POP \t\t\t\n      JUMP \t\t\t\n    tag 181\t\t\t\n      JUMPDEST \t\t\t\n      PUSH 0\t\t\t\n      PUSH 8\t\t\t\n      DUP4 \t\t\t\n      MUL \t\t\t\n      PUSH [tag] 346\t\t\t\n      PUSH FFFFFFFFFFFFFFFFFFFFFFFFFFFFFFFFFFFFFFFFFFFFFFFFFFFFFFFFFFFFFFFF\t\t\t\n      DUP3 \t\t\t\n      PUSH [tag] 180\t\t\t\n      JUMP \t\t\t\n    tag 346\t\t\t\n      JUMPDEST \t\t\t\n      PUSH [tag] 347\t\t\t\n      DUP7 \t\t\t\n      DUP4 \t\t\t\n      PUSH [tag] 180\t\t\t\n      JUMP \t\t\t\n    tag 347\t\t\t\n      JUMPDEST \t\t\t\n      SWAP6 \t\t\t\n      POP \t\t\t\n      DUP1 \t\t\t\n      NOT \t\t\t\n      DUP5 \t\t\t\n      AND \t\t\t\n      SWAP4 \t\t\t\n      POP \t\t\t\n      DUP1 \t\t\t\n      DUP7 \t\t\t\n      AND \t\t\t\n      DUP5 \t\t\t\n      OR \t\t\t\n      SWAP3 \t\t\t\n      POP \t\t\t\n      POP \t\t\t\n      POP \t\t\t\n      SWAP4 \t\t\t\n      SWAP3 \t\t\t\n      POP \t\t\t\n      POP \t\t\t\n      POP \t\t\t\n      JUMP \t\t\t\n    tag 182\t\t\t\n      JUMPDEST \t\t\t\n      PUSH 0\t\t\t\n      DUP2 \t\t\t\n      SWAP1 \t\t\t\n      POP \t\t\t\n      SWAP2 \t\t\t\n      SWAP1 \t\t\t\n      POP \t\t\t\n      JUMP \t\t\t\n    tag 183\t\t\t\n      JUMPDEST \t\t\t\n      PUSH 0\t\t\t\n      PUSH [tag] 350\t\t\t\n      PUSH [tag] 351\t\t\t\n      PUSH [tag] 352\t\t\t\n      DUP5 \t\t\t\n      PUSH [tag] 144\t\t\t\n      JUMP \t\t\t\n    tag 352\t\t\t\n      JUMPDEST \t\t\t\n      PUSH [tag] 182\t\t\t\n      JUMP \t\t\t\n    tag 351\t\t\t\n      JUMPDEST \t\t\t\n      PUSH [tag] 144\t\t\t\n      JUMP \t\t\t\n    tag 350\t\t\t\n      JUMPDEST \t\t\t\n      SWAP1 \t\t\t\n      POP \t\t\t\n      SWAP2 \t\t\t\n      SWAP1 \t\t\t\n      POP \t\t\t\n      JUMP \t\t\t\n    tag 184\t\t\t\n      JUMPDEST \t\t\t\n      PUSH 0\t\t\t\n      DUP2 \t\t\t\n      SWAP1 \t\t\t\n      POP \t\t\t\n      SWAP2 \t\t\t\n      SWAP1 \t\t\t\n      POP \t\t\t\n      JUMP \t\t\t\n    tag 185\t\t\t\n      JUMPDEST \t\t\t\n      PUSH [tag] 355\t\t\t\n      DUP4 \t\t\t\n      PUSH [tag] 183\t\t\t\n      JUMP \t\t\t\n    tag 355\t\t\t\n      JUMPDEST \t\t\t\n      PUSH [tag] 356\t\t\t\n      PUSH [tag] 357\t\t\t\n      DUP3 \t\t\t\n      PUSH [tag] 184\t\t\t\n      JUMP \t\t\t\n    tag 357\t\t\t\n      JUMPDEST \t\t\t\n      DUP5 \t\t\t\n      DUP5 \t\t\t\n      SLOAD \t\t\t\n      PUSH [tag] 181\t\t\t\n      JUMP \t\t\t\n    tag 356\t\t\t\n      JUMPDEST \t\t\t\n      DUP3 \t\t\t\n      SSTORE \t\t\t\n      POP \t\t\t\n      POP \t\t\t\n      POP \t\t\t\n      POP \t\t\t\n      JUMP \t\t\t\n    tag 186\t\t\t\n      JUMPDEST \t\t\t\n      PUSH 0\t\t\t\n      SWAP1 \t\t\t\n      JUMP \t\t\t\n    tag 187\t\t\t\n      JUMPDEST \t\t\t\n      PUSH [tag] 360\t\t\t\n      PUSH [tag] 186\t\t\t\n      JUMP \t\t\t\n    tag 360\t\t\t\n      JUMPDEST \t\t\t\n      PUSH [tag] 361\t\t\t\n      DUP2 \t\t\t\n      DUP5 \t\t\t\n      DUP5 \t\t\t\n      PUSH [tag] 185\t\t\t\n      JUMP \t\t\t\n    tag 361\t\t\t\n      JUMPDEST \t\t\t\n      POP \t\t\t\n      POP \t\t\t\n      POP \t\t\t\n      JUMP \t\t\t\n    tag 188\t\t\t\n      JUMPDEST \t\t\t\n    tag 363\t\t\t\n      JUMPDEST \t\t\t\n      DUP2 \t\t\t\n      DUP2 \t\t\t\n      LT \t\t\t\n      ISZERO \t\t\t\n      PUSH [tag] 365\t\t\t\n      JUMPI \t\t\t\n      PUSH [tag] 366\t\t\t\n      PUSH 0\t\t\t\n      DUP3 \t\t\t\n      PUSH [tag] 187\t\t\t\n      JUMP \t\t\t\n    tag 366\t\t\t\n      JUMPDEST \t\t\t\n      PUSH 1\t\t\t\n      DUP2 \t\t\t\n      ADD \t\t\t\n      SWAP1 \t\t\t\n      POP \t\t\t\n      PUSH [tag] 363\t\t\t\n      JUMP \t\t\t\n    tag 365\t\t\t\n      JUMPDEST \t\t\t\n      POP \t\t\t\n      POP \t\t\t\n      JUMP \t\t\t\n    tag 189\t\t\t\n      JUMPDEST \t\t\t\n      PUSH 1F\t\t\t\n      DUP3 \t\t\t\n      GT \t\t\t\n      ISZERO \t\t\t\n      PUSH [tag] 368\t\t\t\n      JUMPI \t\t\t\n      PUSH [tag] 369\t\t\t\n      DUP2 \t\t\t\n      PUSH [tag] 178\t\t\t\n      JUMP \t\t\t\n    tag 369\t\t\t\n      JUMPDEST \t\t\t\n      PUSH [tag] 370\t\t\t\n      DUP5 \t\t\t\n      PUSH [tag] 179\t\t\t\n      JUMP \t\t\t\n    tag 370\t\t\t\n      JUMPDEST \t\t\t\n      DUP2 \t\t\t\n      ADD \t\t\t\n      PUSH 20\t\t\t\n      DUP6 \t\t\t\n      LT \t\t\t\n      ISZERO \t\t\t\n      PUSH [tag] 371\t\t\t\n      JUMPI \t\t\t\n      DUP2 \t\t\t\n      SWAP1 \t\t\t\n      POP \t\t\t\n    tag 371\t\t\t\n      JUMPDEST \t\t\t\n      PUSH [tag] 372\t\t\t\n      PUSH [tag] 373\t\t\t\n      DUP6 \t\t\t\n      PUSH [tag] 179\t\t\t\n      JUMP \t\t\t\n    tag 373\t\t\t\n      JUMPDEST \t\t\t\n      DUP4 \t\t\t\n      ADD \t\t\t\n      DUP3 \t\t\t\n      PUSH [tag] 188\t\t\t\n      JUMP \t\t\t\n    tag 372\t\t\t\n      JUMPDEST \t\t\t\n      POP \t\t\t\n      POP \t\t\t\n    tag 368\t\t\t\n      JUMPDEST \t\t\t\n      POP \t\t\t\n      POP \t\t\t\n      POP \t\t\t\n      JUMP \t\t\t\n    tag 190\t\t\t\n      JUMPDEST \t\t\t\n      PUSH 0\t\t\t\n      DUP3 \t\t\t\n      DUP3 \t\t\t\n      SHR \t\t\t\n      SWAP1 \t\t\t\n      POP \t\t\t\n      SWAP3 \t\t\t\n      SWAP2 \t\t\t\n      POP \t\t\t\n      POP \t\t\t\n      JUMP \t\t\t\n    tag 191\t\t\t\n      JUMPDEST \t\t\t\n      PUSH 0\t\t\t\n      PUSH [tag] 376\t\t\t\n      PUSH 0\t\t\t\n      NOT \t\t\t\n      DUP5 \t\t\t\n      PUSH 8\t\t\t\n      MUL \t\t\t\n      PUSH [tag] 190\t\t\t\n      JUMP \t\t\t\n    tag 376\t\t\t\n      JUMPDEST \t\t\t\n      NOT \t\t\t\n      DUP1 \t\t\t\n      DUP4 \t\t\t\n      AND \t\t\t\n      SWAP2 \t\t\t\n      POP \t\t\t\n      POP \t\t\t\n      SWAP3 \t\t\t\n      SWAP2 \t\t\t\n      POP \t\t\t\n      POP \t\t\t\n      JUMP \t\t\t\n    tag 192\t\t\t\n      JUMPDEST \t\t\t\n      PUSH 0\t\t\t\n      PUSH [tag] 378\t\t\t\n      DUP4 \t\t\t\n      DUP4 \t\t\t\n      PUSH [tag] 191\t\t\t\n      JUMP \t\t\t\n    tag 378\t\t\t\n      JUMPDEST \t\t\t\n      SWAP2 \t\t\t\n      POP \t\t\t\n      DUP3 \t\t\t\n      PUSH 2\t\t\t\n      MUL \t\t\t\n      DUP3 \t\t\t\n      OR \t\t\t\n      SWAP1 \t\t\t\n      POP \t\t\t\n      SWAP3 \t\t\t\n      SWAP2 \t\t\t\n      POP \t\t\t\n      POP \t\t\t\n      JUMP \t\t\t\n    tag 80\t\t\t\n      JUMPDEST \t\t\t\n      PUSH [tag] 380\t\t\t\n      DUP3 \t\t\t\n      PUSH [tag] 175\t\t\t\n      JUMP \t\t\t\n    tag 380\t\t\t\n      JUMPDEST \t\t\t\n      PUSH FFFFFFFFFFFFFFFF\t\t\t\n      DUP2 \t\t\t\n      GT \t\t\t\n      ISZERO \t\t\t\n      PUSH [tag] 381\t\t\t\n      JUMPI \t\t\t\n      PUSH [tag] 382\t\t\t\n      PUSH [tag] 154\t\t\t\n      JUMP \t\t\t\n    tag 382\t\t\t\n      JUMPDEST \t\t\t\n    tag 381\t\t\t\n      JUMPDEST \t\t\t\n      PUSH [tag] 383\t\t\t\n      DUP3 \t\t\t\n      SLOAD \t\t\t\n      PUSH [tag] 177\t\t\t\n      JUMP \t\t\t\n    tag 383\t\t\t\n      JUMPDEST \t\t\t\n      PUSH [tag] 384\t\t\t\n      DUP3 \t\t\t\n      DUP3 \t\t\t\n      DUP6 \t\t\t\n      PUSH [tag] 189\t\t\t\n      JUMP \t\t\t\n    tag 384\t\t\t\n      JUMPDEST \t\t\t\n      PUSH 0\t\t\t\n      PUSH 20\t\t\t\n      SWAP1 \t\t\t\n      POP \t\t\t\n      PUSH 1F\t\t\t\n      DUP4 \t\t\t\n      GT \t\t\t\n      PUSH 1\t\t\t\n      DUP2 \t\t\t\n      EQ \t\t\t\n      PUSH [tag] 386\t\t\t\n      JUMPI \t\t\t\n      PUSH 0\t\t\t\n      DUP5 \t\t\t\n      ISZERO \t\t\t\n      PUSH [tag] 387\t\t\t\n      JUMPI \t\t\t\n      DUP3 \t\t\t\n      DUP8 \t\t\t\n      ADD \t\t\t\n      MLOAD \t\t\t\n      SWAP1 \t\t\t\n      POP \t\t\t\n    tag 387\t\t\t\n      JUMPDEST \t\t\t\n      PUSH [tag] 388\t\t\t\n      DUP6 \t\t\t\n      DUP3 \t\t\t\n      PUSH [tag] 192\t\t\t\n      JUMP \t\t\t\n    tag 388\t\t\t\n      JUMPDEST \t\t\t\n      DUP7 \t\t\t\n      SSTORE \t\t\t\n      POP \t\t\t\n      PUSH [tag] 385\t\t\t\n      JUMP \t\t\t\n    tag 386\t\t\t\n      JUMPDEST \t\t\t\n      PUSH 1F\t\t\t\n      NOT \t\t\t\n      DUP5 \t\t\t\n      AND \t\t\t\n      PUSH [tag] 389\t\t\t\n      DUP7 \t\t\t\n      PUSH [tag] 178\t\t\t\n      JUMP \t\t\t\n    tag 389\t\t\t\n      JUMPDEST \t\t\t\n      PUSH 0\t\t\t\n    tag 390\t\t\t\n      JUMPDEST \t\t\t\n      DUP3 \t\t\t\n      DUP2 \t\t\t\n      LT \t\t\t\n      ISZERO \t\t\t\n      PUSH [tag] 392\t\t\t\n      JUMPI \t\t\t\n      DUP5 \t\t\t\n      DUP10 \t\t\t\n      ADD \t\t\t\n      MLOAD \t\t\t\n      DUP3 \t\t\t\n      SSTORE \t\t\t\n      PUSH 1\t\t\t\n      DUP3 \t\t\t\n      ADD \t\t\t\n      SWAP2 \t\t\t\n      POP \t\t\t\n      PUSH 20\t\t\t\n      DUP6 \t\t\t\n      ADD \t\t\t\n      SWAP5 \t\t\t\n      POP \t\t\t\n      PUSH 20\t\t\t\n      DUP2 \t\t\t\n      ADD \t\t\t\n      SWAP1 \t\t\t\n      POP \t\t\t\n      PUSH [tag] 390\t\t\t\n      JUMP \t\t\t\n    tag 392\t\t\t\n      JUMPDEST \t\t\t\n      DUP7 \t\t\t\n      DUP4 \t\t\t\n      LT \t\t\t\n      ISZERO \t\t\t\n      PUSH [tag] 393\t\t\t\n      JUMPI \t\t\t\n      DUP5 \t\t\t\n      DUP10 \t\t\t\n      ADD \t\t\t\n      MLOAD \t\t\t\n      PUSH [tag] 394\t\t\t\n      PUSH 1F\t\t\t\n      DUP10 \t\t\t\n      AND \t\t\t\n      DUP3 \t\t\t\n      PUSH [tag] 191\t\t\t\n      JUMP \t\t\t\n    tag 394\t\t\t\n      JUMPDEST \t\t\t\n      DUP4 \t\t\t\n      SSTORE \t\t\t\n      POP \t\t\t\n    tag 393\t\t\t\n      JUMPDEST \t\t\t\n      PUSH 1\t\t\t\n      PUSH 2\t\t\t\n      DUP9 \t\t\t\n      MUL \t\t\t\n      ADD \t\t\t\n      DUP9 \t\t\t\n      SSTORE \t\t\t\n      POP \t\t\t\n      POP \t\t\t\n      POP \t\t\t\n    tag 385\t\t\t\n      JUMPDEST \t\t\t\n      POP \t\t\t\n      POP \t\t\t\n      POP \t\t\t\n      POP \t\t\t\n      POP \t\t\t\n      POP \t\t\t\n      JUMP \t\t\t\n    tag 193\t\t\t\n      JUMPDEST \t\t\t\n      PUSH 0\t\t\t\n      PUSH [tag] 396\t\t\t\n      PUSH [tag] 397\t\t\t\n      PUSH [tag] 398\t\t\t\n      DUP5 \t\t\t\n      PUSH [tag] 140\t\t\t\n      JUMP \t\t\t\n    tag 398\t\t\t\n      JUMPDEST \t\t\t\n      PUSH [tag] 182\t\t\t\n      JUMP \t\t\t\n    tag 397\t\t\t\n      JUMPDEST \t\t\t\n      PUSH [tag] 140\t\t\t\n      JUMP \t\t\t\n    tag 396\t\t\t\n      JUMPDEST \t\t\t\n      SWAP1 \t\t\t\n      POP \t\t\t\n      SWAP2 \t\t\t\n      SWAP1 \t\t\t\n      POP \t\t\t\n      JUMP \t\t\t\n    tag 194\t\t\t\n      JUMPDEST \t\t\t\n      PUSH 0\t\t\t\n      PUSH [tag] 400\t\t\t\n      DUP3 \t\t\t\n      PUSH [tag] 193\t\t\t\n      JUMP \t\t\t\n    tag 400\t\t\t\n      JUMPDEST \t\t\t\n      SWAP1 \t\t\t\n      POP \t\t\t\n      SWAP2 \t\t\t\n      SWAP1 \t\t\t\n      POP \t\t\t\n      JUMP \t\t\t\n    tag 195\t\t\t\n      JUMPDEST \t\t\t\n      PUSH 0\t\t\t\n      PUSH [tag] 402\t\t\t\n      DUP3 \t\t\t\n      PUSH [tag] 194\t\t\t\n      JUMP \t\t\t\n    tag 402\t\t\t\n      JUMPDEST \t\t\t\n      SWAP1 \t\t\t\n      POP \t\t\t\n      SWAP2 \t\t\t\n      SWAP1 \t\t\t\n      POP \t\t\t\n      JUMP \t\t\t\n    tag 196\t\t\t\n      JUMPDEST \t\t\t\n      PUSH [tag] 404\t\t\t\n      DUP2 \t\t\t\n      PUSH [tag] 195\t\t\t\n      JUMP \t\t\t\n    tag 404\t\t\t\n      JUMPDEST \t\t\t\n      DUP3 \t\t\t\n      MSTORE \t\t\t\n      POP \t\t\t\n      POP \t\t\t\n      JUMP \t\t\t\n    tag 83\t\t\t\n      JUMPDEST \t\t\t\n      PUSH 0\t\t\t\n      PUSH 40\t\t\t\n      DUP3 \t\t\t\n      ADD \t\t\t\n      SWAP1 \t\t\t\n      POP \t\t\t\n      PUSH [tag] 406\t\t\t\n      PUSH 0\t\t\t\n      DUP4 \t\t\t\n      ADD \t\t\t\n      DUP6 \t\t\t\n      PUSH [tag] 196\t\t\t\n      JUMP \t\t\t\n    tag 406\t\t\t\n      JUMPDEST \t\t\t\n      PUSH [tag] 407\t\t\t\n      PUSH 20\t\t\t\n      DUP4 \t\t\t\n      ADD \t\t\t\n      DUP5 \t\t\t\n      PUSH [tag] 145\t\t\t\n      JUMP \t\t\t\n    tag 407\t\t\t\n      JUMPDEST \t\t\t\n      SWAP4 \t\t\t\n      SWAP3 \t\t\t\n      POP \t\t\t\n      POP \t\t\t\n      POP \t\t\t\n      JUMP \t\t\t\n    tag 197\t\t\t\n      JUMPDEST \t\t\t\n      PUSH 596F752068617665206E6F74206372656174656420612077696C6C0000000000\t\t\t\n      PUSH 0\t\t\t\n      DUP3 \t\t\t\n      ADD \t\t\t\n      MSTORE \t\t\t\n      POP \t\t\t\n      JUMP \t\t\t\n    tag 198\t\t\t\n      JUMPDEST \t\t\t\n      PUSH 0\t\t\t\n      PUSH [tag] 410\t\t\t\n      PUSH 1B\t\t\t\n      DUP4 \t\t\t\n      PUSH [tag] 163\t\t\t\n      JUMP \t\t\t\n    tag 410\t\t\t\n      JUMPDEST \t\t\t\n      SWAP2 \t\t\t\n      POP \t\t\t\n      PUSH [tag] 411\t\t\t\n      DUP3 \t\t\t\n      PUSH [tag] 197\t\t\t\n      JUMP \t\t\t\n    tag 411\t\t\t\n      JUMPDEST \t\t\t\n      PUSH 20\t\t\t\n      DUP3 \t\t\t\n      ADD \t\t\t\n      SWAP1 \t\t\t\n      POP \t\t\t\n      SWAP2 \t\t\t\n      SWAP1 \t\t\t\n      POP \t\t\t\n      JUMP \t\t\t\n    tag 87\t\t\t\n      JUMPDEST \t\t\t\n      PUSH 0\t\t\t\n      PUSH 20\t\t\t\n      DUP3 \t\t\t\n      ADD \t\t\t\n      SWAP1 \t\t\t\n      POP \t\t\t\n      DUP2 \t\t\t\n      DUP2 \t\t\t\n      SUB \t\t\t\n      PUSH 0\t\t\t\n      DUP4 \t\t\t\n      ADD \t\t\t\n      MSTORE \t\t\t\n      PUSH [tag] 413\t\t\t\n      DUP2 \t\t\t\n      PUSH [tag] 198\t\t\t\n      JUMP \t\t\t\n    tag 413\t\t\t\n      JUMPDEST \t\t\t\n      SWAP1 \t\t\t\n      POP \t\t\t\n      SWAP2 \t\t\t\n      SWAP1 \t\t\t\n      POP \t\t\t\n      JUMP \t\t\t\n    tag 199\t\t\t\n      JUMPDEST \t\t\t\n      PUSH 57696C6C20616C72656164792065786563757465642100000000000000000000\t\t\t\n      PUSH 0\t\t\t\n      DUP3 \t\t\t\n      ADD \t\t\t\n      MSTORE \t\t\t\n      POP \t\t\t\n      JUMP \t\t\t\n    tag 200\t\t\t\n      JUMPDEST \t\t\t\n      PUSH 0\t\t\t\n      PUSH [tag] 416\t\t\t\n      PUSH 16\t\t\t\n      DUP4 \t\t\t\n      PUSH [tag] 163\t\t\t\n      JUMP \t\t\t\n    tag 416\t\t\t\n      JUMPDEST \t\t\t\n      SWAP2 \t\t\t\n      POP \t\t\t\n      PUSH [tag] 417\t\t\t\n      DUP3 \t\t\t\n      PUSH [tag] 199\t\t\t\n      JUMP \t\t\t\n    tag 417\t\t\t\n      JUMPDEST \t\t\t\n      PUSH 20\t\t\t\n      DUP3 \t\t\t\n      ADD \t\t\t\n      SWAP1 \t\t\t\n      POP \t\t\t\n      SWAP2 \t\t\t\n      SWAP1 \t\t\t\n      POP \t\t\t\n      JUMP \t\t\t\n    tag 90\t\t\t\n      JUMPDEST \t\t\t\n      PUSH 0\t\t\t\n      PUSH 20\t\t\t\n      DUP3 \t\t\t\n      ADD \t\t\t\n      SWAP1 \t\t\t\n      POP \t\t\t\n      DUP2 \t\t\t\n      DUP2 \t\t\t\n      SUB \t\t\t\n      PUSH 0\t\t\t\n      DUP4 \t\t\t\n      ADD \t\t\t\n      MSTORE \t\t\t\n      PUSH [tag] 419\t\t\t\n      DUP2 \t\t\t\n      PUSH [tag] 200\t\t\t\n      JUMP \t\t\t\n    tag 419\t\t\t\n      JUMPDEST \t\t\t\n      SWAP1 \t\t\t\n      POP \t\t\t\n      SWAP2 \t\t\t\n      SWAP1 \t\t\t\n      POP \t\t\t\n      JUMP \t\t\t\n    tag 201\t\t\t\n      JUMPDEST \t\t\t\n      PUSH 596F7520616C7265616479206861766520612077696C6C210000000000000000\t\t\t\n      PUSH 0\t\t\t\n      DUP3 \t\t\t\n      ADD \t\t\t\n      MSTORE \t\t\t\n      POP \t\t\t\n      JUMP \t\t\t\n    tag 202\t\t\t\n      JUMPDEST \t\t\t\n      PUSH 0\t\t\t\n      PUSH [tag] 422\t\t\t\n      PUSH 18\t\t\t\n      DUP4 \t\t\t\n      PUSH [tag] 163\t\t\t\n      JUMP \t\t\t\n    tag 422\t\t\t\n      JUMPDEST \t\t\t\n      SWAP2 \t\t\t\n      POP \t\t\t\n      PUSH [tag] 423\t\t\t\n      DUP3 \t\t\t\n      PUSH [tag] 201\t\t\t\n      JUMP \t\t\t\n    tag 423\t\t\t\n      JUMPDEST \t\t\t\n      PUSH 20\t\t\t\n      DUP3 \t\t\t\n      ADD \t\t\t\n      SWAP1 \t\t\t\n      POP \t\t\t\n      SWAP2 \t\t\t\n      SWAP1 \t\t\t\n      POP \t\t\t\n      JUMP \t\t\t\n    tag 97\t\t\t\n      JUMPDEST \t\t\t\n      PUSH 0\t\t\t\n      PUSH 20\t\t\t\n      DUP3 \t\t\t\n      ADD \t\t\t\n      SWAP1 \t\t\t\n      POP \t\t\t\n      DUP2 \t\t\t\n      DUP2 \t\t\t\n      SUB \t\t\t\n      PUSH 0\t\t\t\n      DUP4 \t\t\t\n      ADD \t\t\t\n      MSTORE \t\t\t\n      PUSH [tag] 425\t\t\t\n      DUP2 \t\t\t\n      PUSH [tag] 202\t\t\t\n      JUMP \t\t\t\n    tag 425\t\t\t\n      JUMPDEST \t\t\t\n      SWAP1 \t\t\t\n      POP \t\t\t\n      SWAP2 \t\t\t\n      SWAP1 \t\t\t\n      POP \t\t\t\n      JUMP \t\t\t\n    tag 203\t\t\t\n      JUMPDEST \t\t\t\n      PUSH 4D757374206C6F636B2045544821000000000000000000000000000000000000\t\t\t\n      PUSH 0\t\t\t\n      DUP3 \t\t\t\n      ADD \t\t\t\n      MSTORE \t\t\t\n      POP \t\t\t\n      JUMP \t\t\t\n    tag 204\t\t\t\n      JUMPDEST \t\t\t\n      PUSH 0\t\t\t\n      PUSH [tag] 428\t\t\t\n      PUSH E\t\t\t\n      DUP4 \t\t\t\n      PUSH [tag] 163\t\t\t\n      JUMP \t\t\t\n    tag 428\t\t\t\n      JUMPDEST \t\t\t\n      SWAP2 \t\t\t\n      POP \t\t\t\n      PUSH [tag] 429\t\t\t\n      DUP3 \t\t\t\n      PUSH [tag] 203\t\t\t\n      JUMP \t\t\t\n    tag 429\t\t\t\n      JUMPDEST \t\t\t\n      PUSH 20\t\t\t\n      DUP3 \t\t\t\n      ADD \t\t\t\n      SWAP1 \t\t\t\n      POP \t\t\t\n      SWAP2 \t\t\t\n      SWAP1 \t\t\t\n      POP \t\t\t\n      JUMP \t\t\t\n    tag 100\t\t\t\n      JUMPDEST \t\t\t\n      PUSH 0\t\t\t\n      PUSH 20\t\t\t\n      DUP3 \t\t\t\n      ADD \t\t\t\n      SWAP1 \t\t\t\n      POP \t\t\t\n      DUP2 \t\t\t\n      DUP2 \t\t\t\n      SUB \t\t\t\n      PUSH 0\t\t\t\n      DUP4 \t\t\t\n      ADD \t\t\t\n      MSTORE \t\t\t\n      PUSH [tag] 431\t\t\t\n      DUP2 \t\t\t\n      PUSH [tag] 204\t\t\t\n      JUMP \t\t\t\n    tag 431\t\t\t\n      JUMPDEST \t\t\t\n      SWAP1 \t\t\t\n      POP \t\t\t\n      SWAP2 \t\t\t\n      SWAP1 \t\t\t\n      POP \t\t\t\n      JUMP \t\t\t\n    tag 205\t\t\t\n      JUMPDEST \t\t\t\n      PUSH 4F776E6572206973207374696C6C20616C697665210000000000000000000000\t\t\t\n      PUSH 0\t\t\t\n      DUP3 \t\t\t\n      ADD \t\t\t\n      MSTORE \t\t\t\n      POP \t\t\t\n      JUMP \t\t\t\n    tag 206\t\t\t\n      JUMPDEST \t\t\t\n      PUSH 0\t\t\t\n      PUSH [tag] 434\t\t\t\n      PUSH 15\t\t\t\n      DUP4 \t\t\t\n      PUSH [tag] 163\t\t\t\n      JUMP \t\t\t\n    tag 434\t\t\t\n      JUMPDEST \t\t\t\n      SWAP2 \t\t\t\n      POP \t\t\t\n      PUSH [tag] 435\t\t\t\n      DUP3 \t\t\t\n      PUSH [tag] 205\t\t\t\n      JUMP \t\t\t\n    tag 435\t\t\t\n      JUMPDEST \t\t\t\n      PUSH 20\t\t\t\n      DUP3 \t\t\t\n      ADD \t\t\t\n      SWAP1 \t\t\t\n      POP \t\t\t\n      SWAP2 \t\t\t\n      SWAP1 \t\t\t\n      POP \t\t\t\n      JUMP \t\t\t\n    tag 113\t\t\t\n      JUMPDEST \t\t\t\n      PUSH 0\t\t\t\n      PUSH 20\t\t\t\n      DUP3 \t\t\t\n      ADD \t\t\t\n      SWAP1 \t\t\t\n      POP \t\t\t\n      DUP2 \t\t\t\n      DUP2 \t\t\t\n      SUB \t\t\t\n      PUSH 0\t\t\t\n      DUP4 \t\t\t\n      ADD \t\t\t\n      MSTORE \t\t\t\n      PUSH [tag] 437\t\t\t\n      DUP2 \t\t\t\n      PUSH [tag] 206\t\t\t\n      JUMP \t\t\t\n    tag 437\t\t\t\n      JUMPDEST \t\t\t\n      SWAP1 \t\t\t\n      POP \t\t\t\n      SWAP2 \t\t\t\n      SWAP1 \t\t\t\n      POP \t\t\t\n      JUMP \t\t\t\n    tag 207\t\t\t\n      JUMPDEST \t\t\t\n      PUSH 4E6F2045544820746F2064697374726962757465000000000000000000000000\t\t\t\n      PUSH 0\t\t\t\n      DUP3 \t\t\t\n      ADD \t\t\t\n      MSTORE \t\t\t\n      POP \t\t\t\n      JUMP \t\t\t\n    tag 208\t\t\t\n      JUMPDEST \t\t\t\n      PUSH 0\t\t\t\n      PUSH [tag] 440\t\t\t\n      PUSH 14\t\t\t\n      DUP4 \t\t\t\n      PUSH [tag] 163\t\t\t\n      JUMP \t\t\t\n    tag 440\t\t\t\n      JUMPDEST \t\t\t\n      SWAP2 \t\t\t\n      POP \t\t\t\n      PUSH [tag] 441\t\t\t\n      DUP3 \t\t\t\n      PUSH [tag] 207\t\t\t\n      JUMP \t\t\t\n    tag 441\t\t\t\n      JUMPDEST \t\t\t\n      PUSH 20\t\t\t\n      DUP3 \t\t\t\n      ADD \t\t\t\n      SWAP1 \t\t\t\n      POP \t\t\t\n      SWAP2 \t\t\t\n      SWAP1 \t\t\t\n      POP \t\t\t\n      JUMP \t\t\t\n    tag 118\t\t\t\n      JUMPDEST \t\t\t\n      PUSH 0\t\t\t\n      PUSH 20\t\t\t\n      DUP3 \t\t\t\n      ADD \t\t\t\n      SWAP1 \t\t\t\n      POP \t\t\t\n      DUP2 \t\t\t\n      DUP2 \t\t\t\n      SUB \t\t\t\n      PUSH 0\t\t\t\n      DUP4 \t\t\t\n      ADD \t\t\t\n      MSTORE \t\t\t\n      PUSH [tag] 443\t\t\t\n      DUP2 \t\t\t\n      PUSH [tag] 208\t\t\t\n      JUMP \t\t\t\n    tag 443\t\t\t\n      JUMPDEST \t\t\t\n      SWAP1 \t\t\t\n      POP \t\t\t\n      SWAP2 \t\t\t\n      SWAP1 \t\t\t\n      POP \t\t\t\n      JUMP \t\t\t\n    tag 126\t\t\t\n      JUMPDEST \t\t\t\n      PUSH 0\t\t\t\n      PUSH [tag] 445\t\t\t\n      DUP3 \t\t\t\n      PUSH [tag] 144\t\t\t\n      JUMP \t\t\t\n    tag 445\t\t\t\n      JUMPDEST \t\t\t\n      SWAP2 \t\t\t\n      POP \t\t\t\n      PUSH [tag] 446\t\t\t\n      DUP4 \t\t\t\n      PUSH [tag] 144\t\t\t\n      JUMP \t\t\t\n    tag 446\t\t\t\n      JUMPDEST \t\t\t\n      SWAP3 \t\t\t\n      POP \t\t\t\n      DUP3 \t\t\t\n      DUP3 \t\t\t\n      MUL \t\t\t\n      PUSH [tag] 447\t\t\t\n      DUP2 \t\t\t\n      PUSH [tag] 144\t\t\t\n      JUMP \t\t\t\n    tag 447\t\t\t\n      JUMPDEST \t\t\t\n      SWAP2 \t\t\t\n      POP \t\t\t\n      DUP3 \t\t\t\n      DUP3 \t\t\t\n      DIV \t\t\t\n      DUP5 \t\t\t\n      EQ \t\t\t\n      DUP4 \t\t\t\n      ISZERO \t\t\t\n      OR \t\t\t\n      PUSH [tag] 448\t\t\t\n      JUMPI \t\t\t\n      PUSH [tag] 449\t\t\t\n      PUSH [tag] 172\t\t\t\n      JUMP \t\t\t\n    tag 449\t\t\t\n      JUMPDEST \t\t\t\n    tag 448\t\t\t\n      JUMPDEST \t\t\t\n      POP \t\t\t\n      SWAP3 \t\t\t\n      SWAP2 \t\t\t\n      POP \t\t\t\n      POP \t\t\t\n      JUMP \t\t\t\n    tag 209\t\t\t\n      JUMPDEST \t\t\t\n      PUSH 4E487B7100000000000000000000000000000000000000000000000000000000\t\t\t\n      PUSH 0\t\t\t\n      MSTORE \t\t\t\n      PUSH 12\t\t\t\n      PUSH 4\t\t\t\n      MSTORE \t\t\t\n      PUSH 24\t\t\t\n      PUSH 0\t\t\t\n      REVERT \t\t\t\n    tag 128\t\t\t\n      JUMPDEST \t\t\t\n      PUSH 0\t\t\t\n      PUSH [tag] 452\t\t\t\n      DUP3 \t\t\t\n      PUSH [tag] 144\t\t\t\n      JUMP \t\t\t\n    tag 452\t\t\t\n      JUMPDEST \t\t\t\n      SWAP2 \t\t\t\n      POP \t\t\t\n      PUSH [tag] 453\t\t\t\n      DUP4 \t\t\t\n      PUSH [tag] 144\t\t\t\n      JUMP \t\t\t\n    tag 453\t\t\t\n      JUMPDEST \t\t\t\n      SWAP3 \t\t\t\n      POP \t\t\t\n      DUP3 \t\t\t\n      PUSH [tag] 454\t\t\t\n      JUMPI \t\t\t\n      PUSH [tag] 455\t\t\t\n      PUSH [tag] 209\t\t\t\n      JUMP \t\t\t\n    tag 455\t\t\t\n      JUMPDEST \t\t\t\n    tag 454\t\t\t\n      JUMPDEST \t\t\t\n      DUP3 \t\t\t\n      DUP3 \t\t\t\n      DIV \t\t\t\n      SWAP1 \t\t\t\n      POP \t\t\t\n      SWAP3 \t\t\t\n      SWAP2 \t\t\t\n      POP \t\t\t\n      POP \t\t\t\n      JUMP \t\t\t\n    tag 210\t\t\t\n      JUMPDEST \t\t\t\n      PUSH 0\t\t\t\n      DUP2 \t\t\t\n      SLOAD \t\t\t\n      PUSH [tag] 457\t\t\t\n      DUP2 \t\t\t\n      PUSH [tag] 177\t\t\t\n      JUMP \t\t\t\n    tag 457\t\t\t\n      JUMPDEST \t\t\t\n      PUSH [tag] 458\t\t\t\n      DUP2 \t\t\t\n      DUP7 \t\t\t\n      PUSH [tag] 163\t\t\t\n      JUMP \t\t\t\n    tag 458\t\t\t\n      JUMPDEST \t\t\t\n      SWAP5 \t\t\t\n      POP \t\t\t\n      PUSH 1\t\t\t\n      DUP3 \t\t\t\n      AND \t\t\t\n      PUSH 0\t\t\t\n      DUP2 \t\t\t\n      EQ \t\t\t\n      PUSH [tag] 460\t\t\t\n      JUMPI \t\t\t\n      PUSH 1\t\t\t\n      DUP2 \t\t\t\n      EQ \t\t\t\n      PUSH [tag] 461\t\t\t\n      JUMPI \t\t\t\n      PUSH [tag] 459\t\t\t\n      JUMP \t\t\t\n    tag 460\t\t\t\n      JUMPDEST \t\t\t\n      PUSH FF\t\t\t\n      NOT \t\t\t\n      DUP4 \t\t\t\n      AND \t\t\t\n      DUP7 \t\t\t\n      MSTORE \t\t\t\n      DUP2 \t\t\t\n      ISZERO \t\t\t\n      ISZERO \t\t\t\n      PUSH 20\t\t\t\n      MUL \t\t\t\n      DUP7 \t\t\t\n      ADD \t\t\t\n      SWAP4 \t\t\t\n      POP \t\t\t\n      PUSH [tag] 459\t\t\t\n      JUMP \t\t\t\n    tag 461\t\t\t\n      JUMPDEST \t\t\t\n      PUSH [tag] 462\t\t\t\n      DUP6 \t\t\t\n      PUSH [tag] 178\t\t\t\n      JUMP \t\t\t\n    tag 462\t\t\t\n      JUMPDEST \t\t\t\n      PUSH 0\t\t\t\n    tag 463\t\t\t\n      JUMPDEST \t\t\t\n      DUP4 \t\t\t\n      DUP2 \t\t\t\n      LT \t\t\t\n      ISZERO \t\t\t\n      PUSH [tag] 465\t\t\t\n      JUMPI \t\t\t\n      DUP2 \t\t\t\n      SLOAD \t\t\t\n      DUP2 \t\t\t\n      DUP10 \t\t\t\n      ADD \t\t\t\n      MSTORE \t\t\t\n      PUSH 1\t\t\t\n      DUP3 \t\t\t\n      ADD \t\t\t\n      SWAP2 \t\t\t\n      POP \t\t\t\n      PUSH 20\t\t\t\n      DUP2 \t\t\t\n      ADD \t\t\t\n      SWAP1 \t\t\t\n      POP \t\t\t\n      PUSH [tag] 463\t\t\t\n      JUMP \t\t\t\n    tag 465\t\t\t\n      JUMPDEST \t\t\t\n      DUP1 \t\t\t\n      DUP9 \t\t\t\n      ADD \t\t\t\n      SWAP6 \t\t\t\n      POP \t\t\t\n      POP \t\t\t\n      POP \t\t\t\n    tag 459\t\t\t\n      JUMPDEST \t\t\t\n      POP \t\t\t\n      POP \t\t\t\n      POP \t\t\t\n      SWAP3 \t\t\t\n      SWAP2 \t\t\t\n      POP \t\t\t\n      POP \t\t\t\n      JUMP \t\t\t\n    tag 133\t\t\t\n      JUMPDEST \t\t\t\n      PUSH 0\t\t\t\n      PUSH 60\t\t\t\n      DUP3 \t\t\t\n      ADD \t\t\t\n      SWAP1 \t\t\t\n      POP \t\t\t\n      PUSH [tag] 467\t\t\t\n      PUSH 0\t\t\t\n      DUP4 \t\t\t\n      ADD \t\t\t\n      DUP7 \t\t\t\n      PUSH [tag] 145\t\t\t\n      JUMP \t\t\t\n    tag 467\t\t\t\n      JUMPDEST \t\t\t\n      DUP2 \t\t\t\n      DUP2 \t\t\t\n      SUB \t\t\t\n      PUSH 20\t\t\t\n      DUP4 \t\t\t\n      ADD \t\t\t\n      MSTORE \t\t\t\n      PUSH [tag] 468\t\t\t\n      DUP2 \t\t\t\n      DUP6 \t\t\t\n      PUSH [tag] 210\t\t\t\n      JUMP \t\t\t\n    tag 468\t\t\t\n      JUMPDEST \t\t\t\n      SWAP1 \t\t\t\n      POP \t\t\t\n      DUP2 \t\t\t\n      DUP2 \t\t\t\n      SUB \t\t\t\n      PUSH 40\t\t\t\n      DUP4 \t\t\t\n      ADD \t\t\t\n      MSTORE \t\t\t\n      PUSH [tag] 469\t\t\t\n      DUP2 \t\t\t\n      DUP5 \t\t\t\n      PUSH [tag] 210\t\t\t\n      JUMP \t\t\t\n    tag 469\t\t\t\n      JUMPDEST \t\t\t\n      SWAP1 \t\t\t\n      POP \t\t\t\n      SWAP5 \t\t\t\n      SWAP4 \t\t\t\n      POP \t\t\t\n      POP \t\t\t\n      POP \t\t\t\n      POP \t\t\t\n      JUMP \t\t\t\n    tag 211\t\t\t\n      JUMPDEST \t\t\t\n      PUSH 0\t\t\t\n      DUP2 \t\t\t\n      SWAP1 \t\t\t\n      POP \t\t\t\n      SWAP2 \t\t\t\n      SWAP1 \t\t\t\n      POP \t\t\t\n      JUMP \t\t\t\n    tag 212\t\t\t\n      JUMPDEST \t\t\t\n      PUSH 0\t\t\t\n      PUSH [tag] 472\t\t\t\n      PUSH [tag] 473\t\t\t\n      PUSH [tag] 474\t\t\t\n      DUP5 \t\t\t\n      PUSH [tag] 211\t\t\t\n      JUMP \t\t\t\n    tag 474\t\t\t\n      JUMPDEST \t\t\t\n      PUSH [tag] 182\t\t\t\n      JUMP \t\t\t\n    tag 473\t\t\t\n      JUMPDEST \t\t\t\n      PUSH [tag] 144\t\t\t\n      JUMP \t\t\t\n    tag 472\t\t\t\n      JUMPDEST \t\t\t\n      SWAP1 \t\t\t\n      POP \t\t\t\n      SWAP2 \t\t\t\n      SWAP1 \t\t\t\n      POP \t\t\t\n      JUMP \t\t\t\n    tag 213\t\t\t\n      JUMPDEST \t\t\t\n      PUSH [tag] 476\t\t\t\n      DUP2 \t\t\t\n      PUSH [tag] 212\t\t\t\n      JUMP \t\t\t\n    tag 476\t\t\t\n      JUMPDEST \t\t\t\n      DUP3 \t\t\t\n      MSTORE \t\t\t\n      POP \t\t\t\n      POP \t\t\t\n      JUMP \t\t\t\n    tag 136\t\t\t\n      JUMPDEST \t\t\t\n      PUSH 0\t\t\t\n      PUSH 60\t\t\t\n      DUP3 \t\t\t\n      ADD \t\t\t\n      SWAP1 \t\t\t\n      POP \t\t\t\n      PUSH [tag] 478\t\t\t\n      PUSH 0\t\t\t\n      DUP4 \t\t\t\n      ADD \t\t\t\n      DUP7 \t\t\t\n      PUSH [tag] 213\t\t\t\n      JUMP \t\t\t\n    tag 478\t\t\t\n      JUMPDEST \t\t\t\n      DUP2 \t\t\t\n      DUP2 \t\t\t\n      SUB \t\t\t\n      PUSH 20\t\t\t\n      DUP4 \t\t\t\n      ADD \t\t\t\n      MSTORE \t\t\t\n      PUSH [tag] 479\t\t\t\n      DUP2 \t\t\t\n      DUP6 \t\t\t\n      PUSH [tag] 210\t\t\t\n      JUMP \t\t\t\n    tag 479\t\t\t\n      JUMPDEST \t\t\t\n      SWAP1 \t\t\t\n      POP \t\t\t\n      DUP2 \t\t\t\n      DUP2 \t\t\t\n      SUB \t\t\t\n      PUSH 40\t\t\t\n      DUP4 \t\t\t\n      ADD \t\t\t\n      MSTORE \t\t\t\n      PUSH [tag] 480\t\t\t\n      DUP2 \t\t\t\n      DUP5 \t\t\t\n      PUSH [tag] 210\t\t\t\n      JUMP \t\t\t\n    tag 480\t\t\t\n      JUMPDEST \t\t\t\n      SWAP1 \t\t\t\n      POP \t\t\t\n      SWAP5 \t\t\t\n      SWAP4 \t\t\t\n      POP \t\t\t\n      POP \t\t\t\n      POP \t\t\t\n      POP \t\t\t\n      JUMP \t\t\t\n    .data\n"
}